{
  "devdoc": {
    "methods": {},
    "kind": "dev",
    "version": 1
  },
  "abi": [
    {
      "stateMutability": "nonpayable",
      "type": "constructor",
      "inputs": []
    },
    {
      "anonymous": false,
      "name": "FaucetEvent",
      "type": "event",
      "inputs": [
        {
          "indexed": false,
          "internalType": "string",
          "name": "event_type",
          "type": "string"
        },
        {
          "indexed": false,
          "internalType": "string",
          "name": "event_id",
          "type": "string"
        },
        {
          "indexed": false,
          "internalType": "address",
          "name": "sender",
          "type": "address"
        },
        {
          "indexed": false,
          "internalType": "uint256",
          "name": "value",
          "type": "uint256"
        }
      ]
    },
    {
      "name": "g__FaucetLookup",
      "stateMutability": "view",
      "outputs": [
        {
          "internalType": "enum StatstradeFaucetFactory.FaucetStatus",
          "name": "status",
          "type": "uint8"
        },
        {
          "internalType": "string",
          "name": "name",
          "type": "string"
        },
        {
          "internalType": "address",
          "name": "token_address",
          "type": "address"
        },
        {
          "internalType": "uint256",
          "name": "limit_amount",
          "type": "uint256"
        },
        {
          "internalType": "uint256",
          "name": "limit_frequency",
          "type": "uint256"
        },
        {
          "internalType": "uint256",
          "name": "limit_balance",
          "type": "uint256"
        }
      ],
      "type": "function",
      "inputs": [
        {
          "internalType": "string",
          "name": "",
          "type": "string"
        }
      ]
    },
    {
      "name": "g__SiteAuthority",
      "stateMutability": "view",
      "outputs": [
        {
          "internalType": "address",
          "name": "",
          "type": "address"
        }
      ],
      "type": "function",
      "inputs": []
    },
    {
      "name": "g__SiteRequests",
      "stateMutability": "view",
      "outputs": [
        {
          "internalType": "uint256",
          "name": "",
          "type": "uint256"
        }
      ],
      "type": "function",
      "inputs": [
        {
          "internalType": "string",
          "name": "",
          "type": "string"
        },
        {
          "internalType": "address",
          "name": "",
          "type": "address"
        }
      ]
    },
    {
      "name": "g__SiteSupport",
      "stateMutability": "view",
      "outputs": [
        {
          "internalType": "bool",
          "name": "",
          "type": "bool"
        }
      ],
      "type": "function",
      "inputs": [
        {
          "internalType": "address",
          "name": "",
          "type": "address"
        }
      ]
    },
    {
      "name": "site__add_support",
      "stateMutability": "nonpayable",
      "outputs": [],
      "type": "function",
      "inputs": [
        {
          "internalType": "address",
          "name": "user",
          "type": "address"
        }
      ]
    },
    {
      "name": "site__change_authority",
      "stateMutability": "nonpayable",
      "outputs": [],
      "type": "function",
      "inputs": [
        {
          "internalType": "address",
          "name": "new_authority",
          "type": "address"
        }
      ]
    },
    {
      "name": "site__create_faucet",
      "stateMutability": "nonpayable",
      "outputs": [],
      "type": "function",
      "inputs": [
        {
          "internalType": "string",
          "name": "faucet_id",
          "type": "string"
        },
        {
          "internalType": "string",
          "name": "name",
          "type": "string"
        },
        {
          "internalType": "address",
          "name": "token_address",
          "type": "address"
        },
        {
          "internalType": "uint256",
          "name": "limit_amount",
          "type": "uint256"
        },
        {
          "internalType": "uint256",
          "name": "limit_frequency",
          "type": "uint256"
        },
        {
          "internalType": "uint256",
          "name": "limit_balance",
          "type": "uint256"
        }
      ]
    },
    {
      "name": "site__limit_amount",
      "stateMutability": "nonpayable",
      "outputs": [],
      "type": "function",
      "inputs": [
        {
          "internalType": "string",
          "name": "faucet_id",
          "type": "string"
        },
        {
          "internalType": "uint256",
          "name": "limit",
          "type": "uint256"
        }
      ]
    },
    {
      "name": "site__limit_balance",
      "stateMutability": "nonpayable",
      "outputs": [],
      "type": "function",
      "inputs": [
        {
          "internalType": "string",
          "name": "faucet_id",
          "type": "string"
        },
        {
          "internalType": "uint256",
          "name": "limit",
          "type": "uint256"
        }
      ]
    },
    {
      "name": "site__limit_frequency",
      "stateMutability": "nonpayable",
      "outputs": [],
      "type": "function",
      "inputs": [
        {
          "internalType": "string",
          "name": "faucet_id",
          "type": "string"
        },
        {
          "internalType": "uint256",
          "name": "limit",
          "type": "uint256"
        }
      ]
    },
    {
      "name": "site__remove_faucet",
      "stateMutability": "nonpayable",
      "outputs": [],
      "type": "function",
      "inputs": [
        {
          "internalType": "string",
          "name": "faucet_id",
          "type": "string"
        },
        {
          "internalType": "uint256",
          "name": "limit",
          "type": "uint256"
        }
      ]
    },
    {
      "name": "site__remove_support",
      "stateMutability": "nonpayable",
      "outputs": [],
      "type": "function",
      "inputs": [
        {
          "internalType": "address",
          "name": "user",
          "type": "address"
        }
      ]
    },
    {
      "name": "user__request_balance_caller",
      "stateMutability": "view",
      "outputs": [
        {
          "internalType": "uint256",
          "name": "",
          "type": "uint256"
        }
      ],
      "type": "function",
      "inputs": [
        {
          "internalType": "string",
          "name": "faucet_id",
          "type": "string"
        }
      ]
    },
    {
      "name": "user__request_balance_faucet",
      "stateMutability": "view",
      "outputs": [
        {
          "internalType": "uint256",
          "name": "",
          "type": "uint256"
        }
      ],
      "type": "function",
      "inputs": [
        {
          "internalType": "string",
          "name": "faucet_id",
          "type": "string"
        }
      ]
    },
    {
      "name": "user__request_test_transfer",
      "stateMutability": "nonpayable",
      "outputs": [],
      "type": "function",
      "inputs": [
        {
          "internalType": "address",
          "name": "token_address",
          "type": "address"
        },
        {
          "internalType": "address",
          "name": "user_address",
          "type": "address"
        }
      ]
    },
    {
      "name": "user__request_topup",
      "stateMutability": "nonpayable",
      "outputs": [],
      "type": "function",
      "inputs": [
        {
          "internalType": "string",
          "name": "faucet_id",
          "type": "string"
        },
        {
          "internalType": "uint256",
          "name": "amount",
          "type": "uint256"
        }
      ]
    }
  ],
  "userdoc": {
    "methods": {},
    "kind": "user",
    "version": 1
  },
  "storageLayout": {
    "storage": [
      {
        "offset": 0,
        "slot": "0",
        "label": "g__SiteAuthority",
        "astId": 32,
        "type": "t_address",
        "contract": "temp.sol:StatstradeFaucetFactory"
      },
      {
        "offset": 0,
        "slot": "1",
        "label": "g__SiteSupport",
        "astId": 36,
        "type": "t_mapping(t_address,t_bool)",
        "contract": "temp.sol:StatstradeFaucetFactory"
      },
      {
        "offset": 0,
        "slot": "2",
        "label": "g__SiteRequests",
        "astId": 42,
        "type": "t_mapping(t_string_memory_ptr,t_mapping(t_address,t_uint256))",
        "contract": "temp.sol:StatstradeFaucetFactory"
      },
      {
        "offset": 0,
        "slot": "3",
        "label": "g__FaucetLookup",
        "astId": 61,
        "type": "t_mapping(t_string_memory_ptr,t_struct(Faucet)56_storage)",
        "contract": "temp.sol:StatstradeFaucetFactory"
      }
    ],
    "types": {
      "t_address": {
        "label": "address",
        "encoding": "inplace",
        "numberOfBytes": "20"
      },
      "t_mapping(t_address,t_bool)": {
        "label": "mapping(address => bool)",
        "key": "t_address",
        "encoding": "mapping",
        "value": "t_bool",
        "numberOfBytes": "32"
      },
      "t_string_memory_ptr": {
        "label": "string",
        "encoding": "bytes",
        "numberOfBytes": "32"
      },
      "t_string_storage": {
        "label": "string",
        "encoding": "bytes",
        "numberOfBytes": "32"
      },
      "t_struct(Faucet)56_storage": {
        "members": [
          {
            "offset": 0,
            "slot": "0",
            "label": "status",
            "astId": 45,
            "type": "t_enum(FaucetStatus)30",
            "contract": "temp.sol:StatstradeFaucetFactory"
          },
          {
            "offset": 0,
            "slot": "1",
            "label": "name",
            "astId": 47,
            "type": "t_string_storage",
            "contract": "temp.sol:StatstradeFaucetFactory"
          },
          {
            "offset": 0,
            "slot": "2",
            "label": "token_address",
            "astId": 49,
            "type": "t_address",
            "contract": "temp.sol:StatstradeFaucetFactory"
          },
          {
            "offset": 0,
            "slot": "3",
            "label": "limit_amount",
            "astId": 51,
            "type": "t_uint256",
            "contract": "temp.sol:StatstradeFaucetFactory"
          },
          {
            "offset": 0,
            "slot": "4",
            "label": "limit_frequency",
            "astId": 53,
            "type": "t_uint256",
            "contract": "temp.sol:StatstradeFaucetFactory"
          },
          {
            "offset": 0,
            "slot": "5",
            "label": "limit_balance",
            "astId": 55,
            "type": "t_uint256",
            "contract": "temp.sol:StatstradeFaucetFactory"
          }
        ],
        "label": "struct StatstradeFaucetFactory.Faucet",
        "encoding": "inplace",
        "numberOfBytes": "192"
      },
      "t_enum(FaucetStatus)30": {
        "label": "enum StatstradeFaucetFactory.FaucetStatus",
        "encoding": "inplace",
        "numberOfBytes": "1"
      },
      "t_mapping(t_string_memory_ptr,t_mapping(t_address,t_uint256))": {
        "label": "mapping(string => mapping(address => uint256))",
        "key": "t_string_memory_ptr",
        "encoding": "mapping",
        "value": "t_mapping(t_address,t_uint256)",
        "numberOfBytes": "32"
      },
      "t_mapping(t_address,t_uint256)": {
        "label": "mapping(address => uint256)",
        "key": "t_address",
        "encoding": "mapping",
        "value": "t_uint256",
        "numberOfBytes": "32"
      },
      "t_mapping(t_string_memory_ptr,t_struct(Faucet)56_storage)": {
        "label": "mapping(string => struct StatstradeFaucetFactory.Faucet)",
        "key": "t_string_memory_ptr",
        "encoding": "mapping",
        "value": "t_struct(Faucet)56_storage",
        "numberOfBytes": "32"
      },
      "t_uint256": {
        "label": "uint256",
        "encoding": "inplace",
        "numberOfBytes": "32"
      },
      "t_bool": {
        "label": "bool",
        "encoding": "inplace",
        "numberOfBytes": "1"
      }
    }
  },
  "evm": {
    "bytecode": {
      "object": "608060405234801561000f575f80fd5b50335f806101000a81548173ffffffffffffffffffffffffffffffffffffffff021916908373ffffffffffffffffffffffffffffffffffffffff1602179055506123b58061005c5f395ff3fe608060405234801561000f575f80fd5b50600436106100fe575f3560e01c806395875a6811610095578063c611d5f511610064578063c611d5f514610295578063cca0b6f4146102c5578063f31300b4146102e1578063fcb74bf314610311576100fe565b806395875a68146102235780639731a9c914610241578063b91e57311461025d578063bc330ac314610279576100fe565b806339becbbe116100d157806339becbbe1461019f578063775a2ed8146101bb5780638521efef146101d75780638884851714610207576100fe565b806310b92ab71461010257806322f20aab1461011e5780632769ee771461015357806336fceb3e14610183575b5f80fd5b61011c60048036038101906101179190611653565b61032d565b005b610138600480360381019061013391906116ad565b6103ed565b60405161014a9695949392919061182f565b60405180910390f35b61016d600480360381019061016891906116ad565b6104ee565b60405161017a9190611895565b60405180910390f35b61019d600480360381019061019891906118d8565b61064a565b005b6101b960048036038101906101b491906118d8565b61072e565b005b6101d560048036038101906101d09190611653565b6107fd565b005b6101f160048036038101906101ec9190611903565b6108bd565b6040516101fe9190611895565b60405180910390f35b610221600480360381019061021c919061195d565b6108f5565b005b61022b61097b565b604051610238919061199b565b60405180910390f35b61025b60048036038101906102569190611653565b61099e565b005b610277600480360381019061027291906119b4565b610a28565b005b610293600480360381019061028e9190611653565b610c28565b005b6102af60048036038101906102aa91906116ad565b611109565b6040516102bc9190611895565b60405180910390f35b6102df60048036038101906102da9190611653565b611265565b005b6102fb60048036038101906102f691906118d8565b611325565b6040516103089190611a8f565b60405180910390f35b61032b600480360381019061032691906118d8565b611342565b005b6103363361139a565b600180811115610349576103486116f4565b5b6003836040516103599190611ae2565b90815260200160405180910390205f015f9054906101000a900460ff166001811115610388576103876116f4565b5b146103c8576040517f08c379a00000000000000000000000000000000000000000000000000000000081526004016103bf90611b42565b60405180910390fd5b806003836040516103d99190611ae2565b908152602001604051809103902050505050565b6003818051602081018201805184825260208301602085012081835280955050505050505f91509050805f015f9054906101000a900460ff169080600101805461043690611b8d565b80601f016020809104026020016040519081016040528092919081815260200182805461046290611b8d565b80156104ad5780601f10610484576101008083540402835291602001916104ad565b820191905f5260205f20905b81548152906001019060200180831161049057829003601f168201915b505050505090806002015f9054906101000a900473ffffffffffffffffffffffffffffffffffffffff16908060030154908060040154908060050154905086565b5f600180811115610502576105016116f4565b5b6003836040516105129190611ae2565b90815260200160405180910390205f015f9054906101000a900460ff166001811115610541576105406116f4565b5b14610581576040517f08c379a000000000000000000000000000000000000000000000000000000000815260040161057890611b42565b60405180910390fd5b5f6003836040516105929190611ae2565b90815260200160405180910390206002015f9054906101000a900473ffffffffffffffffffffffffffffffffffffffff1690505f8190508073ffffffffffffffffffffffffffffffffffffffff166370a08231306040518263ffffffff1660e01b8152600401610602919061199b565b602060405180830381865afa15801561061d573d5f803e3d5ffd5b505050506040513d601f19601f820116820180604052508101906106419190611bd1565b92505050919050565b5f8054906101000a900473ffffffffffffffffffffffffffffffffffffffff1673ffffffffffffffffffffffffffffffffffffffff163373ffffffffffffffffffffffffffffffffffffffff16146106d7576040517f08c379a00000000000000000000000000000000000000000000000000000000081526004016106ce90611c46565b60405180910390fd5b6001805f8373ffffffffffffffffffffffffffffffffffffffff1673ffffffffffffffffffffffffffffffffffffffff1681526020019081526020015f205f6101000a81548160ff02191690831515021790555050565b5f8054906101000a900473ffffffffffffffffffffffffffffffffffffffff1673ffffffffffffffffffffffffffffffffffffffff163373ffffffffffffffffffffffffffffffffffffffff16146107bb576040517f08c379a00000000000000000000000000000000000000000000000000000000081526004016107b290611c46565b60405180910390fd5b805f806101000a81548173ffffffffffffffffffffffffffffffffffffffff021916908373ffffffffffffffffffffffffffffffffffffffff16021790555050565b6108063361139a565b600180811115610819576108186116f4565b5b6003836040516108299190611ae2565b90815260200160405180910390205f015f9054906101000a900460ff166001811115610858576108576116f4565b5b14610898576040517f08c379a000000000000000000000000000000000000000000000000000000000815260040161088f90611b42565b60405180910390fd5b806003836040516108a99190611ae2565b908152602001604051809103902050505050565b600282805160208101820180518482526020830160208501208183528095505050505050602052805f5260405f205f91509150505481565b5f8290508073ffffffffffffffffffffffffffffffffffffffff1663a9059cbb8360016040518363ffffffff1660e01b8152600401610935929190611ca6565b6020604051808303815f875af1158015610951573d5f803e3d5ffd5b505050506040513d601f19601f820116820180604052508101906109759190611cf7565b50505050565b5f8054906101000a900473ffffffffffffffffffffffffffffffffffffffff1681565b6109a73361139a565b6003826040516109b79190611ae2565b90815260200160405180910390205f8082015f6101000a81549060ff0219169055600182015f6109e7919061147b565b600282015f6101000a81549073ffffffffffffffffffffffffffffffffffffffff0219169055600382015f9055600482015f9055600582015f905550505050565b610a313361139a565b600386604051610a419190611ae2565b90815260200160405180910390205f015f9054906101000a900460ff166001811115610a7057610a6f6116f4565b5b5f6001811115610a8357610a826116f4565b5b14610ac3576040517f08c379a0000000000000000000000000000000000000000000000000000000008152600401610aba90611d6c565b60405180910390fd5b5f6040518060c00160405280600180811115610ae257610ae16116f4565b5b81526020018781526020018673ffffffffffffffffffffffffffffffffffffffff16815260200185815260200184815260200183815250905080600388604051610b2c9190611ae2565b90815260200160405180910390205f820151815f015f6101000a81548160ff02191690836001811115610b6257610b616116f4565b5b02179055506020820151816001019081610b7c9190611f1e565b506040820151816002015f6101000a81548173ffffffffffffffffffffffffffffffffffffffff021916908373ffffffffffffffffffffffffffffffffffffffff160217905550606082015181600301556080820151816004015560a082015181600501559050507fa418229b0cd6275bfb74006a1c50d3e0a604f25115315505f82ef6ebb8b2560b87865f604051610c1793929190612070565b60405180910390a150505050505050565b5f600383604051610c399190611ae2565b90815260200160405180910390206040518060c00160405290815f82015f9054906101000a900460ff166001811115610c7557610c746116f4565b5b6001811115610c8757610c866116f4565b5b8152602001600182018054610c9b90611b8d565b80601f0160208091040260200160405190810160405280929190818152602001828054610cc790611b8d565b8015610d125780601f10610ce957610100808354040283529160200191610d12565b820191905f5260205f20905b815481529060010190602001808311610cf557829003601f168201915b50505050508152602001600282015f9054906101000a900473ffffffffffffffffffffffffffffffffffffffff1673ffffffffffffffffffffffffffffffffffffffff1673ffffffffffffffffffffffffffffffffffffffff16815260200160038201548152602001600482015481526020016005820154815250509050600180811115610da357610da26116f4565b5b815f01516001811115610db957610db86116f4565b5b14610df9576040517f08c379a0000000000000000000000000000000000000000000000000000000008152600401610df090611b42565b60405180910390fd5b5f600284604051610e0a9190611ae2565b90815260200160405180910390205f3373ffffffffffffffffffffffffffffffffffffffff1673ffffffffffffffffffffffffffffffffffffffff1681526020019081526020015f2054905081608001515f1480610e76575042826080015182610e7491906120ec565b105b610eb5576040517f08c379a0000000000000000000000000000000000000000000000000000000008152600401610eac90612169565b60405180910390fd5b81606001515f1480610eca5750816060015183105b610f09576040517f08c379a0000000000000000000000000000000000000000000000000000000008152600401610f00906121d1565b60405180910390fd5b5f826040015190505f8173ffffffffffffffffffffffffffffffffffffffff166370a08231336040518263ffffffff1660e01b8152600401610f4b919061199b565b602060405180830381865afa158015610f66573d5f803e3d5ffd5b505050506040513d601f19601f82011682018060405250810190610f8a9190611bd1565b90508360a001515f1480610fad57508360a001518582610faa91906120ec565b11155b610fec576040517f08c379a0000000000000000000000000000000000000000000000000000000008152600401610fe390612239565b60405180910390fd5b8173ffffffffffffffffffffffffffffffffffffffff1663a9059cbb33876040518363ffffffff1660e01b8152600401611027929190612257565b6020604051808303815f875af1158015611043573d5f803e3d5ffd5b505050506040513d601f19601f820116820180604052508101906110679190611cf7565b50426002876040516110799190611ae2565b90815260200160405180910390205f3373ffffffffffffffffffffffffffffffffffffffff1673ffffffffffffffffffffffffffffffffffffffff1681526020019081526020015f20819055507fa418229b0cd6275bfb74006a1c50d3e0a604f25115315505f82ef6ebb8b2560b8633876040516110f9939291906122c8565b60405180910390a1505050505050565b5f60018081111561111d5761111c6116f4565b5b60038360405161112d9190611ae2565b90815260200160405180910390205f015f9054906101000a900460ff16600181111561115c5761115b6116f4565b5b1461119c576040517f08c379a000000000000000000000000000000000000000000000000000000000815260040161119390611b42565b60405180910390fd5b5f6003836040516111ad9190611ae2565b90815260200160405180910390206002015f9054906101000a900473ffffffffffffffffffffffffffffffffffffffff1690505f8190508073ffffffffffffffffffffffffffffffffffffffff166370a08231336040518263ffffffff1660e01b815260040161121d919061199b565b602060405180830381865afa158015611238573d5f803e3d5ffd5b505050506040513d601f19601f8201168201806040525081019061125c9190611bd1565b92505050919050565b61126e3361139a565b600180811115611281576112806116f4565b5b6003836040516112919190611ae2565b90815260200160405180910390205f015f9054906101000a900460ff1660018111156112c0576112bf6116f4565b5b14611300576040517f08c379a00000000000000000000000000000000000000000000000000000000081526004016112f790611b42565b60405180910390fd5b806003836040516113119190611ae2565b908152602001604051809103902050505050565b6001602052805f5260405f205f915054906101000a900460ff1681565b61134b3361139a565b60015f8273ffffffffffffffffffffffffffffffffffffffff1673ffffffffffffffffffffffffffffffffffffffff1681526020019081526020015f205f6101000a81549060ff021916905550565b5f8054906101000a900473ffffffffffffffffffffffffffffffffffffffff1673ffffffffffffffffffffffffffffffffffffffff168173ffffffffffffffffffffffffffffffffffffffff161480611439575060015f8273ffffffffffffffffffffffffffffffffffffffff1673ffffffffffffffffffffffffffffffffffffffff1681526020019081526020015f205f9054906101000a900460ff165b611478576040517f08c379a000000000000000000000000000000000000000000000000000000000815260040161146f90612361565b60405180910390fd5b50565b50805461148790611b8d565b5f825580601f1061149857506114b5565b601f0160209004905f5260205f20908101906114b491906114b8565b5b50565b5b808211156114cf575f815f9055506001016114b9565b5090565b5f604051905090565b5f80fd5b5f80fd5b5f80fd5b5f80fd5b5f601f19601f8301169050919050565b7f4e487b71000000000000000000000000000000000000000000000000000000005f52604160045260245ffd5b611532826114ec565b810181811067ffffffffffffffff82111715611551576115506114fc565b5b80604052505050565b5f6115636114d3565b905061156f8282611529565b919050565b5f67ffffffffffffffff82111561158e5761158d6114fc565b5b611597826114ec565b9050602081019050919050565b828183375f83830152505050565b5f6115c46115bf84611574565b61155a565b9050828152602081018484840111156115e0576115df6114e8565b5b6115eb8482856115a4565b509392505050565b5f82601f830112611607576116066114e4565b5b81356116178482602086016115b2565b91505092915050565b5f819050919050565b61163281611620565b811461163c575f80fd5b50565b5f8135905061164d81611629565b92915050565b5f8060408385031215611669576116686114dc565b5b5f83013567ffffffffffffffff811115611686576116856114e0565b5b611692858286016115f3565b92505060206116a38582860161163f565b9150509250929050565b5f602082840312156116c2576116c16114dc565b5b5f82013567ffffffffffffffff8111156116df576116de6114e0565b5b6116eb848285016115f3565b91505092915050565b7f4e487b71000000000000000000000000000000000000000000000000000000005f52602160045260245ffd5b60028110611732576117316116f4565b5b50565b5f81905061174282611721565b919050565b5f61175182611735565b9050919050565b61176181611747565b82525050565b5f81519050919050565b5f82825260208201905092915050565b5f5b8381101561179e578082015181840152602081019050611783565b5f8484015250505050565b5f6117b382611767565b6117bd8185611771565b93506117cd818560208601611781565b6117d6816114ec565b840191505092915050565b5f73ffffffffffffffffffffffffffffffffffffffff82169050919050565b5f61180a826117e1565b9050919050565b61181a81611800565b82525050565b61182981611620565b82525050565b5f60c0820190506118425f830189611758565b818103602083015261185481886117a9565b90506118636040830187611811565b6118706060830186611820565b61187d6080830185611820565b61188a60a0830184611820565b979650505050505050565b5f6020820190506118a85f830184611820565b92915050565b6118b781611800565b81146118c1575f80fd5b50565b5f813590506118d2816118ae565b92915050565b5f602082840312156118ed576118ec6114dc565b5b5f6118fa848285016118c4565b91505092915050565b5f8060408385031215611919576119186114dc565b5b5f83013567ffffffffffffffff811115611936576119356114e0565b5b611942858286016115f3565b9250506020611953858286016118c4565b9150509250929050565b5f8060408385031215611973576119726114dc565b5b5f611980858286016118c4565b9250506020611991858286016118c4565b9150509250929050565b5f6020820190506119ae5f830184611811565b92915050565b5f805f805f8060c087890312156119ce576119cd6114dc565b5b5f87013567ffffffffffffffff8111156119eb576119ea6114e0565b5b6119f789828a016115f3565b965050602087013567ffffffffffffffff811115611a1857611a176114e0565b5b611a2489828a016115f3565b9550506040611a3589828a016118c4565b9450506060611a4689828a0161163f565b9350506080611a5789828a0161163f565b92505060a0611a6889828a0161163f565b9150509295509295509295565b5f8115159050919050565b611a8981611a75565b82525050565b5f602082019050611aa25f830184611a80565b92915050565b5f81905092915050565b5f611abc82611767565b611ac68185611aa8565b9350611ad6818560208601611781565b80840191505092915050565b5f611aed8284611ab2565b915081905092915050565b7f466175636574206e6f7420666f756e64000000000000000000000000000000005f82015250565b5f611b2c601083611771565b9150611b3782611af8565b602082019050919050565b5f6020820190508181035f830152611b5981611b20565b9050919050565b7f4e487b71000000000000000000000000000000000000000000000000000000005f52602260045260245ffd5b5f6002820490506001821680611ba457607f821691505b602082108103611bb757611bb6611b60565b5b50919050565b5f81519050611bcb81611629565b92915050565b5f60208284031215611be657611be56114dc565b5b5f611bf384828501611bbd565b91505092915050565b7f5369746520617574686f72697479206f6e6c792e0000000000000000000000005f82015250565b5f611c30601483611771565b9150611c3b82611bfc565b602082019050919050565b5f6020820190508181035f830152611c5d81611c24565b9050919050565b5f819050919050565b5f819050919050565b5f611c90611c8b611c8684611c64565b611c6d565b611620565b9050919050565b611ca081611c76565b82525050565b5f604082019050611cb95f830185611811565b611cc66020830184611c97565b9392505050565b611cd681611a75565b8114611ce0575f80fd5b50565b5f81519050611cf181611ccd565b92915050565b5f60208284031215611d0c57611d0b6114dc565b5b5f611d1984828501611ce3565b91505092915050565b7f46617563657420616c7265616479206578697374732e000000000000000000005f82015250565b5f611d56601683611771565b9150611d6182611d22565b602082019050919050565b5f6020820190508181035f830152611d8381611d4a565b9050919050565b5f819050815f5260205f209050919050565b5f6020601f8301049050919050565b5f82821b905092915050565b5f60088302611de67fffffffffffffffffffffffffffffffffffffffffffffffffffffffffffffffff82611dab565b611df08683611dab565b95508019841693508086168417925050509392505050565b5f611e22611e1d611e1884611620565b611c6d565b611620565b9050919050565b5f819050919050565b611e3b83611e08565b611e4f611e4782611e29565b848454611db7565b825550505050565b5f90565b611e63611e57565b611e6e818484611e32565b505050565b5b81811015611e9157611e865f82611e5b565b600181019050611e74565b5050565b601f821115611ed657611ea781611d8a565b611eb084611d9c565b81016020851015611ebf578190505b611ed3611ecb85611d9c565b830182611e73565b50505b505050565b5f82821c905092915050565b5f611ef65f1984600802611edb565b1980831691505092915050565b5f611f0e8383611ee7565b9150826002028217905092915050565b611f2782611767565b67ffffffffffffffff811115611f4057611f3f6114fc565b5b611f4a8254611b8d565b611f55828285611e95565b5f60209050601f831160018114611f86575f8415611f74578287015190505b611f7e8582611f03565b865550611fe5565b601f198416611f9486611d8a565b5f5b82811015611fbb57848901518255600182019150602085019450602081019050611f96565b86831015611fd85784890151611fd4601f891682611ee7565b8355505b6001600288020188555050505b505050505050565b7f6661756365745f637265617465000000000000000000000000000000000000005f82015250565b5f612021600d83611771565b915061202c82611fed565b602082019050919050565b5f819050919050565b5f61205a61205561205084612037565b611c6d565b611620565b9050919050565b61206a81612040565b82525050565b5f6080820190508181035f83015261208781612015565b9050818103602083015261209b81866117a9565b90506120aa6040830185611811565b6120b76060830184612061565b949350505050565b7f4e487b71000000000000000000000000000000000000000000000000000000005f52601160045260245ffd5b5f6120f682611620565b915061210183611620565b9250828201905080821115612119576121186120bf565b5b92915050565b7f52657175657374206672657175656e6379206f766572206c696d6974000000005f82015250565b5f612153601c83611771565b915061215e8261211f565b602082019050919050565b5f6020820190508181035f83015261218081612147565b9050919050565b7f5265717565737420616d6f756e74206f766572206c696d6974000000000000005f82015250565b5f6121bb601983611771565b91506121c682612187565b602082019050919050565b5f6020820190508181035f8301526121e8816121af565b9050919050565b7f526571756573742062616c616e6365206f766572206c696d69740000000000005f82015250565b5f612223601a83611771565b915061222e826121ef565b602082019050919050565b5f6020820190508181035f83015261225081612217565b9050919050565b5f60408201905061226a5f830185611811565b6122776020830184611820565b9392505050565b7f6661756365745f746f70757000000000000000000000000000000000000000005f82015250565b5f6122b2600c83611771565b91506122bd8261227e565b602082019050919050565b5f6080820190508181035f8301526122df816122a6565b905081810360208301526122f381866117a9565b90506123026040830185611811565b61230f6060830184611820565b949350505050565b7f536974652061646d696e206f6e6c792e000000000000000000000000000000005f82015250565b5f61234b601083611771565b915061235682612317565b602082019050919050565b5f6020820190508181035f8301526123788161233f565b905091905056fea26469706673582212204f39483ea1d0237239a3c86ff675882de7f04b6d5163ea5fa223853d36316caa64736f6c63430008140033",
      "linkReferences": {},
      "opcodes": "PUSH1 0x80 PUSH1 0x40 MSTORE CALLVALUE DUP1 ISZERO PUSH2 0xF JUMPI PUSH0 DUP1 REVERT JUMPDEST POP CALLER PUSH0 DUP1 PUSH2 0x100 EXP DUP2 SLOAD DUP2 PUSH20 0xFFFFFFFFFFFFFFFFFFFFFFFFFFFFFFFFFFFFFFFF MUL NOT AND SWAP1 DUP4 PUSH20 0xFFFFFFFFFFFFFFFFFFFFFFFFFFFFFFFFFFFFFFFF AND MUL OR SWAP1 SSTORE POP PUSH2 0x23B5 DUP1 PUSH2 0x5C PUSH0 CODECOPY PUSH0 RETURN INVALID PUSH1 0x80 PUSH1 0x40 MSTORE CALLVALUE DUP1 ISZERO PUSH2 0xF JUMPI PUSH0 DUP1 REVERT JUMPDEST POP PUSH1 0x4 CALLDATASIZE LT PUSH2 0xFE JUMPI PUSH0 CALLDATALOAD PUSH1 0xE0 SHR DUP1 PUSH4 0x95875A68 GT PUSH2 0x95 JUMPI DUP1 PUSH4 0xC611D5F5 GT PUSH2 0x64 JUMPI DUP1 PUSH4 0xC611D5F5 EQ PUSH2 0x295 JUMPI DUP1 PUSH4 0xCCA0B6F4 EQ PUSH2 0x2C5 JUMPI DUP1 PUSH4 0xF31300B4 EQ PUSH2 0x2E1 JUMPI DUP1 PUSH4 0xFCB74BF3 EQ PUSH2 0x311 JUMPI PUSH2 0xFE JUMP JUMPDEST DUP1 PUSH4 0x95875A68 EQ PUSH2 0x223 JUMPI DUP1 PUSH4 0x9731A9C9 EQ PUSH2 0x241 JUMPI DUP1 PUSH4 0xB91E5731 EQ PUSH2 0x25D JUMPI DUP1 PUSH4 0xBC330AC3 EQ PUSH2 0x279 JUMPI PUSH2 0xFE JUMP JUMPDEST DUP1 PUSH4 0x39BECBBE GT PUSH2 0xD1 JUMPI DUP1 PUSH4 0x39BECBBE EQ PUSH2 0x19F JUMPI DUP1 PUSH4 0x775A2ED8 EQ PUSH2 0x1BB JUMPI DUP1 PUSH4 0x8521EFEF EQ PUSH2 0x1D7 JUMPI DUP1 PUSH4 0x88848517 EQ PUSH2 0x207 JUMPI PUSH2 0xFE JUMP JUMPDEST DUP1 PUSH4 0x10B92AB7 EQ PUSH2 0x102 JUMPI DUP1 PUSH4 0x22F20AAB EQ PUSH2 0x11E JUMPI DUP1 PUSH4 0x2769EE77 EQ PUSH2 0x153 JUMPI DUP1 PUSH4 0x36FCEB3E EQ PUSH2 0x183 JUMPI JUMPDEST PUSH0 DUP1 REVERT JUMPDEST PUSH2 0x11C PUSH1 0x4 DUP1 CALLDATASIZE SUB DUP2 ADD SWAP1 PUSH2 0x117 SWAP2 SWAP1 PUSH2 0x1653 JUMP JUMPDEST PUSH2 0x32D JUMP JUMPDEST STOP JUMPDEST PUSH2 0x138 PUSH1 0x4 DUP1 CALLDATASIZE SUB DUP2 ADD SWAP1 PUSH2 0x133 SWAP2 SWAP1 PUSH2 0x16AD JUMP JUMPDEST PUSH2 0x3ED JUMP JUMPDEST PUSH1 0x40 MLOAD PUSH2 0x14A SWAP7 SWAP6 SWAP5 SWAP4 SWAP3 SWAP2 SWAP1 PUSH2 0x182F JUMP JUMPDEST PUSH1 0x40 MLOAD DUP1 SWAP2 SUB SWAP1 RETURN JUMPDEST PUSH2 0x16D PUSH1 0x4 DUP1 CALLDATASIZE SUB DUP2 ADD SWAP1 PUSH2 0x168 SWAP2 SWAP1 PUSH2 0x16AD JUMP JUMPDEST PUSH2 0x4EE JUMP JUMPDEST PUSH1 0x40 MLOAD PUSH2 0x17A SWAP2 SWAP1 PUSH2 0x1895 JUMP JUMPDEST PUSH1 0x40 MLOAD DUP1 SWAP2 SUB SWAP1 RETURN JUMPDEST PUSH2 0x19D PUSH1 0x4 DUP1 CALLDATASIZE SUB DUP2 ADD SWAP1 PUSH2 0x198 SWAP2 SWAP1 PUSH2 0x18D8 JUMP JUMPDEST PUSH2 0x64A JUMP JUMPDEST STOP JUMPDEST PUSH2 0x1B9 PUSH1 0x4 DUP1 CALLDATASIZE SUB DUP2 ADD SWAP1 PUSH2 0x1B4 SWAP2 SWAP1 PUSH2 0x18D8 JUMP JUMPDEST PUSH2 0x72E JUMP JUMPDEST STOP JUMPDEST PUSH2 0x1D5 PUSH1 0x4 DUP1 CALLDATASIZE SUB DUP2 ADD SWAP1 PUSH2 0x1D0 SWAP2 SWAP1 PUSH2 0x1653 JUMP JUMPDEST PUSH2 0x7FD JUMP JUMPDEST STOP JUMPDEST PUSH2 0x1F1 PUSH1 0x4 DUP1 CALLDATASIZE SUB DUP2 ADD SWAP1 PUSH2 0x1EC SWAP2 SWAP1 PUSH2 0x1903 JUMP JUMPDEST PUSH2 0x8BD JUMP JUMPDEST PUSH1 0x40 MLOAD PUSH2 0x1FE SWAP2 SWAP1 PUSH2 0x1895 JUMP JUMPDEST PUSH1 0x40 MLOAD DUP1 SWAP2 SUB SWAP1 RETURN JUMPDEST PUSH2 0x221 PUSH1 0x4 DUP1 CALLDATASIZE SUB DUP2 ADD SWAP1 PUSH2 0x21C SWAP2 SWAP1 PUSH2 0x195D JUMP JUMPDEST PUSH2 0x8F5 JUMP JUMPDEST STOP JUMPDEST PUSH2 0x22B PUSH2 0x97B JUMP JUMPDEST PUSH1 0x40 MLOAD PUSH2 0x238 SWAP2 SWAP1 PUSH2 0x199B JUMP JUMPDEST PUSH1 0x40 MLOAD DUP1 SWAP2 SUB SWAP1 RETURN JUMPDEST PUSH2 0x25B PUSH1 0x4 DUP1 CALLDATASIZE SUB DUP2 ADD SWAP1 PUSH2 0x256 SWAP2 SWAP1 PUSH2 0x1653 JUMP JUMPDEST PUSH2 0x99E JUMP JUMPDEST STOP JUMPDEST PUSH2 0x277 PUSH1 0x4 DUP1 CALLDATASIZE SUB DUP2 ADD SWAP1 PUSH2 0x272 SWAP2 SWAP1 PUSH2 0x19B4 JUMP JUMPDEST PUSH2 0xA28 JUMP JUMPDEST STOP JUMPDEST PUSH2 0x293 PUSH1 0x4 DUP1 CALLDATASIZE SUB DUP2 ADD SWAP1 PUSH2 0x28E SWAP2 SWAP1 PUSH2 0x1653 JUMP JUMPDEST PUSH2 0xC28 JUMP JUMPDEST STOP JUMPDEST PUSH2 0x2AF PUSH1 0x4 DUP1 CALLDATASIZE SUB DUP2 ADD SWAP1 PUSH2 0x2AA SWAP2 SWAP1 PUSH2 0x16AD JUMP JUMPDEST PUSH2 0x1109 JUMP JUMPDEST PUSH1 0x40 MLOAD PUSH2 0x2BC SWAP2 SWAP1 PUSH2 0x1895 JUMP JUMPDEST PUSH1 0x40 MLOAD DUP1 SWAP2 SUB SWAP1 RETURN JUMPDEST PUSH2 0x2DF PUSH1 0x4 DUP1 CALLDATASIZE SUB DUP2 ADD SWAP1 PUSH2 0x2DA SWAP2 SWAP1 PUSH2 0x1653 JUMP JUMPDEST PUSH2 0x1265 JUMP JUMPDEST STOP JUMPDEST PUSH2 0x2FB PUSH1 0x4 DUP1 CALLDATASIZE SUB DUP2 ADD SWAP1 PUSH2 0x2F6 SWAP2 SWAP1 PUSH2 0x18D8 JUMP JUMPDEST PUSH2 0x1325 JUMP JUMPDEST PUSH1 0x40 MLOAD PUSH2 0x308 SWAP2 SWAP1 PUSH2 0x1A8F JUMP JUMPDEST PUSH1 0x40 MLOAD DUP1 SWAP2 SUB SWAP1 RETURN JUMPDEST PUSH2 0x32B PUSH1 0x4 DUP1 CALLDATASIZE SUB DUP2 ADD SWAP1 PUSH2 0x326 SWAP2 SWAP1 PUSH2 0x18D8 JUMP JUMPDEST PUSH2 0x1342 JUMP JUMPDEST STOP JUMPDEST PUSH2 0x336 CALLER PUSH2 0x139A JUMP JUMPDEST PUSH1 0x1 DUP1 DUP2 GT ISZERO PUSH2 0x349 JUMPI PUSH2 0x348 PUSH2 0x16F4 JUMP JUMPDEST JUMPDEST PUSH1 0x3 DUP4 PUSH1 0x40 MLOAD PUSH2 0x359 SWAP2 SWAP1 PUSH2 0x1AE2 JUMP JUMPDEST SWAP1 DUP2 MSTORE PUSH1 0x20 ADD PUSH1 0x40 MLOAD DUP1 SWAP2 SUB SWAP1 KECCAK256 PUSH0 ADD PUSH0 SWAP1 SLOAD SWAP1 PUSH2 0x100 EXP SWAP1 DIV PUSH1 0xFF AND PUSH1 0x1 DUP2 GT ISZERO PUSH2 0x388 JUMPI PUSH2 0x387 PUSH2 0x16F4 JUMP JUMPDEST JUMPDEST EQ PUSH2 0x3C8 JUMPI PUSH1 0x40 MLOAD PUSH32 0x8C379A000000000000000000000000000000000000000000000000000000000 DUP2 MSTORE PUSH1 0x4 ADD PUSH2 0x3BF SWAP1 PUSH2 0x1B42 JUMP JUMPDEST PUSH1 0x40 MLOAD DUP1 SWAP2 SUB SWAP1 REVERT JUMPDEST DUP1 PUSH1 0x3 DUP4 PUSH1 0x40 MLOAD PUSH2 0x3D9 SWAP2 SWAP1 PUSH2 0x1AE2 JUMP JUMPDEST SWAP1 DUP2 MSTORE PUSH1 0x20 ADD PUSH1 0x40 MLOAD DUP1 SWAP2 SUB SWAP1 KECCAK256 POP POP POP POP JUMP JUMPDEST PUSH1 0x3 DUP2 DUP1 MLOAD PUSH1 0x20 DUP2 ADD DUP3 ADD DUP1 MLOAD DUP5 DUP3 MSTORE PUSH1 0x20 DUP4 ADD PUSH1 0x20 DUP6 ADD KECCAK256 DUP2 DUP4 MSTORE DUP1 SWAP6 POP POP POP POP POP POP PUSH0 SWAP2 POP SWAP1 POP DUP1 PUSH0 ADD PUSH0 SWAP1 SLOAD SWAP1 PUSH2 0x100 EXP SWAP1 DIV PUSH1 0xFF AND SWAP1 DUP1 PUSH1 0x1 ADD DUP1 SLOAD PUSH2 0x436 SWAP1 PUSH2 0x1B8D JUMP JUMPDEST DUP1 PUSH1 0x1F ADD PUSH1 0x20 DUP1 SWAP2 DIV MUL PUSH1 0x20 ADD PUSH1 0x40 MLOAD SWAP1 DUP2 ADD PUSH1 0x40 MSTORE DUP1 SWAP3 SWAP2 SWAP1 DUP2 DUP2 MSTORE PUSH1 0x20 ADD DUP3 DUP1 SLOAD PUSH2 0x462 SWAP1 PUSH2 0x1B8D JUMP JUMPDEST DUP1 ISZERO PUSH2 0x4AD JUMPI DUP1 PUSH1 0x1F LT PUSH2 0x484 JUMPI PUSH2 0x100 DUP1 DUP4 SLOAD DIV MUL DUP4 MSTORE SWAP2 PUSH1 0x20 ADD SWAP2 PUSH2 0x4AD JUMP JUMPDEST DUP3 ADD SWAP2 SWAP1 PUSH0 MSTORE PUSH1 0x20 PUSH0 KECCAK256 SWAP1 JUMPDEST DUP2 SLOAD DUP2 MSTORE SWAP1 PUSH1 0x1 ADD SWAP1 PUSH1 0x20 ADD DUP1 DUP4 GT PUSH2 0x490 JUMPI DUP3 SWAP1 SUB PUSH1 0x1F AND DUP3 ADD SWAP2 JUMPDEST POP POP POP POP POP SWAP1 DUP1 PUSH1 0x2 ADD PUSH0 SWAP1 SLOAD SWAP1 PUSH2 0x100 EXP SWAP1 DIV PUSH20 0xFFFFFFFFFFFFFFFFFFFFFFFFFFFFFFFFFFFFFFFF AND SWAP1 DUP1 PUSH1 0x3 ADD SLOAD SWAP1 DUP1 PUSH1 0x4 ADD SLOAD SWAP1 DUP1 PUSH1 0x5 ADD SLOAD SWAP1 POP DUP7 JUMP JUMPDEST PUSH0 PUSH1 0x1 DUP1 DUP2 GT ISZERO PUSH2 0x502 JUMPI PUSH2 0x501 PUSH2 0x16F4 JUMP JUMPDEST JUMPDEST PUSH1 0x3 DUP4 PUSH1 0x40 MLOAD PUSH2 0x512 SWAP2 SWAP1 PUSH2 0x1AE2 JUMP JUMPDEST SWAP1 DUP2 MSTORE PUSH1 0x20 ADD PUSH1 0x40 MLOAD DUP1 SWAP2 SUB SWAP1 KECCAK256 PUSH0 ADD PUSH0 SWAP1 SLOAD SWAP1 PUSH2 0x100 EXP SWAP1 DIV PUSH1 0xFF AND PUSH1 0x1 DUP2 GT ISZERO PUSH2 0x541 JUMPI PUSH2 0x540 PUSH2 0x16F4 JUMP JUMPDEST JUMPDEST EQ PUSH2 0x581 JUMPI PUSH1 0x40 MLOAD PUSH32 0x8C379A000000000000000000000000000000000000000000000000000000000 DUP2 MSTORE PUSH1 0x4 ADD PUSH2 0x578 SWAP1 PUSH2 0x1B42 JUMP JUMPDEST PUSH1 0x40 MLOAD DUP1 SWAP2 SUB SWAP1 REVERT JUMPDEST PUSH0 PUSH1 0x3 DUP4 PUSH1 0x40 MLOAD PUSH2 0x592 SWAP2 SWAP1 PUSH2 0x1AE2 JUMP JUMPDEST SWAP1 DUP2 MSTORE PUSH1 0x20 ADD PUSH1 0x40 MLOAD DUP1 SWAP2 SUB SWAP1 KECCAK256 PUSH1 0x2 ADD PUSH0 SWAP1 SLOAD SWAP1 PUSH2 0x100 EXP SWAP1 DIV PUSH20 0xFFFFFFFFFFFFFFFFFFFFFFFFFFFFFFFFFFFFFFFF AND SWAP1 POP PUSH0 DUP2 SWAP1 POP DUP1 PUSH20 0xFFFFFFFFFFFFFFFFFFFFFFFFFFFFFFFFFFFFFFFF AND PUSH4 0x70A08231 ADDRESS PUSH1 0x40 MLOAD DUP3 PUSH4 0xFFFFFFFF AND PUSH1 0xE0 SHL DUP2 MSTORE PUSH1 0x4 ADD PUSH2 0x602 SWAP2 SWAP1 PUSH2 0x199B JUMP JUMPDEST PUSH1 0x20 PUSH1 0x40 MLOAD DUP1 DUP4 SUB DUP2 DUP7 GAS STATICCALL ISZERO DUP1 ISZERO PUSH2 0x61D JUMPI RETURNDATASIZE PUSH0 DUP1 RETURNDATACOPY RETURNDATASIZE PUSH0 REVERT JUMPDEST POP POP POP POP PUSH1 0x40 MLOAD RETURNDATASIZE PUSH1 0x1F NOT PUSH1 0x1F DUP3 ADD AND DUP3 ADD DUP1 PUSH1 0x40 MSTORE POP DUP2 ADD SWAP1 PUSH2 0x641 SWAP2 SWAP1 PUSH2 0x1BD1 JUMP JUMPDEST SWAP3 POP POP POP SWAP2 SWAP1 POP JUMP JUMPDEST PUSH0 DUP1 SLOAD SWAP1 PUSH2 0x100 EXP SWAP1 DIV PUSH20 0xFFFFFFFFFFFFFFFFFFFFFFFFFFFFFFFFFFFFFFFF AND PUSH20 0xFFFFFFFFFFFFFFFFFFFFFFFFFFFFFFFFFFFFFFFF AND CALLER PUSH20 0xFFFFFFFFFFFFFFFFFFFFFFFFFFFFFFFFFFFFFFFF AND EQ PUSH2 0x6D7 JUMPI PUSH1 0x40 MLOAD PUSH32 0x8C379A000000000000000000000000000000000000000000000000000000000 DUP2 MSTORE PUSH1 0x4 ADD PUSH2 0x6CE SWAP1 PUSH2 0x1C46 JUMP JUMPDEST PUSH1 0x40 MLOAD DUP1 SWAP2 SUB SWAP1 REVERT JUMPDEST PUSH1 0x1 DUP1 PUSH0 DUP4 PUSH20 0xFFFFFFFFFFFFFFFFFFFFFFFFFFFFFFFFFFFFFFFF AND PUSH20 0xFFFFFFFFFFFFFFFFFFFFFFFFFFFFFFFFFFFFFFFF AND DUP2 MSTORE PUSH1 0x20 ADD SWAP1 DUP2 MSTORE PUSH1 0x20 ADD PUSH0 KECCAK256 PUSH0 PUSH2 0x100 EXP DUP2 SLOAD DUP2 PUSH1 0xFF MUL NOT AND SWAP1 DUP4 ISZERO ISZERO MUL OR SWAP1 SSTORE POP POP JUMP JUMPDEST PUSH0 DUP1 SLOAD SWAP1 PUSH2 0x100 EXP SWAP1 DIV PUSH20 0xFFFFFFFFFFFFFFFFFFFFFFFFFFFFFFFFFFFFFFFF AND PUSH20 0xFFFFFFFFFFFFFFFFFFFFFFFFFFFFFFFFFFFFFFFF AND CALLER PUSH20 0xFFFFFFFFFFFFFFFFFFFFFFFFFFFFFFFFFFFFFFFF AND EQ PUSH2 0x7BB JUMPI PUSH1 0x40 MLOAD PUSH32 0x8C379A000000000000000000000000000000000000000000000000000000000 DUP2 MSTORE PUSH1 0x4 ADD PUSH2 0x7B2 SWAP1 PUSH2 0x1C46 JUMP JUMPDEST PUSH1 0x40 MLOAD DUP1 SWAP2 SUB SWAP1 REVERT JUMPDEST DUP1 PUSH0 DUP1 PUSH2 0x100 EXP DUP2 SLOAD DUP2 PUSH20 0xFFFFFFFFFFFFFFFFFFFFFFFFFFFFFFFFFFFFFFFF MUL NOT AND SWAP1 DUP4 PUSH20 0xFFFFFFFFFFFFFFFFFFFFFFFFFFFFFFFFFFFFFFFF AND MUL OR SWAP1 SSTORE POP POP JUMP JUMPDEST PUSH2 0x806 CALLER PUSH2 0x139A JUMP JUMPDEST PUSH1 0x1 DUP1 DUP2 GT ISZERO PUSH2 0x819 JUMPI PUSH2 0x818 PUSH2 0x16F4 JUMP JUMPDEST JUMPDEST PUSH1 0x3 DUP4 PUSH1 0x40 MLOAD PUSH2 0x829 SWAP2 SWAP1 PUSH2 0x1AE2 JUMP JUMPDEST SWAP1 DUP2 MSTORE PUSH1 0x20 ADD PUSH1 0x40 MLOAD DUP1 SWAP2 SUB SWAP1 KECCAK256 PUSH0 ADD PUSH0 SWAP1 SLOAD SWAP1 PUSH2 0x100 EXP SWAP1 DIV PUSH1 0xFF AND PUSH1 0x1 DUP2 GT ISZERO PUSH2 0x858 JUMPI PUSH2 0x857 PUSH2 0x16F4 JUMP JUMPDEST JUMPDEST EQ PUSH2 0x898 JUMPI PUSH1 0x40 MLOAD PUSH32 0x8C379A000000000000000000000000000000000000000000000000000000000 DUP2 MSTORE PUSH1 0x4 ADD PUSH2 0x88F SWAP1 PUSH2 0x1B42 JUMP JUMPDEST PUSH1 0x40 MLOAD DUP1 SWAP2 SUB SWAP1 REVERT JUMPDEST DUP1 PUSH1 0x3 DUP4 PUSH1 0x40 MLOAD PUSH2 0x8A9 SWAP2 SWAP1 PUSH2 0x1AE2 JUMP JUMPDEST SWAP1 DUP2 MSTORE PUSH1 0x20 ADD PUSH1 0x40 MLOAD DUP1 SWAP2 SUB SWAP1 KECCAK256 POP POP POP POP JUMP JUMPDEST PUSH1 0x2 DUP3 DUP1 MLOAD PUSH1 0x20 DUP2 ADD DUP3 ADD DUP1 MLOAD DUP5 DUP3 MSTORE PUSH1 0x20 DUP4 ADD PUSH1 0x20 DUP6 ADD KECCAK256 DUP2 DUP4 MSTORE DUP1 SWAP6 POP POP POP POP POP POP PUSH1 0x20 MSTORE DUP1 PUSH0 MSTORE PUSH1 0x40 PUSH0 KECCAK256 PUSH0 SWAP2 POP SWAP2 POP POP SLOAD DUP2 JUMP JUMPDEST PUSH0 DUP3 SWAP1 POP DUP1 PUSH20 0xFFFFFFFFFFFFFFFFFFFFFFFFFFFFFFFFFFFFFFFF AND PUSH4 0xA9059CBB DUP4 PUSH1 0x1 PUSH1 0x40 MLOAD DUP4 PUSH4 0xFFFFFFFF AND PUSH1 0xE0 SHL DUP2 MSTORE PUSH1 0x4 ADD PUSH2 0x935 SWAP3 SWAP2 SWAP1 PUSH2 0x1CA6 JUMP JUMPDEST PUSH1 0x20 PUSH1 0x40 MLOAD DUP1 DUP4 SUB DUP2 PUSH0 DUP8 GAS CALL ISZERO DUP1 ISZERO PUSH2 0x951 JUMPI RETURNDATASIZE PUSH0 DUP1 RETURNDATACOPY RETURNDATASIZE PUSH0 REVERT JUMPDEST POP POP POP POP PUSH1 0x40 MLOAD RETURNDATASIZE PUSH1 0x1F NOT PUSH1 0x1F DUP3 ADD AND DUP3 ADD DUP1 PUSH1 0x40 MSTORE POP DUP2 ADD SWAP1 PUSH2 0x975 SWAP2 SWAP1 PUSH2 0x1CF7 JUMP JUMPDEST POP POP POP POP JUMP JUMPDEST PUSH0 DUP1 SLOAD SWAP1 PUSH2 0x100 EXP SWAP1 DIV PUSH20 0xFFFFFFFFFFFFFFFFFFFFFFFFFFFFFFFFFFFFFFFF AND DUP2 JUMP JUMPDEST PUSH2 0x9A7 CALLER PUSH2 0x139A JUMP JUMPDEST PUSH1 0x3 DUP3 PUSH1 0x40 MLOAD PUSH2 0x9B7 SWAP2 SWAP1 PUSH2 0x1AE2 JUMP JUMPDEST SWAP1 DUP2 MSTORE PUSH1 0x20 ADD PUSH1 0x40 MLOAD DUP1 SWAP2 SUB SWAP1 KECCAK256 PUSH0 DUP1 DUP3 ADD PUSH0 PUSH2 0x100 EXP DUP2 SLOAD SWAP1 PUSH1 0xFF MUL NOT AND SWAP1 SSTORE PUSH1 0x1 DUP3 ADD PUSH0 PUSH2 0x9E7 SWAP2 SWAP1 PUSH2 0x147B JUMP JUMPDEST PUSH1 0x2 DUP3 ADD PUSH0 PUSH2 0x100 EXP DUP2 SLOAD SWAP1 PUSH20 0xFFFFFFFFFFFFFFFFFFFFFFFFFFFFFFFFFFFFFFFF MUL NOT AND SWAP1 SSTORE PUSH1 0x3 DUP3 ADD PUSH0 SWAP1 SSTORE PUSH1 0x4 DUP3 ADD PUSH0 SWAP1 SSTORE PUSH1 0x5 DUP3 ADD PUSH0 SWAP1 SSTORE POP POP POP POP JUMP JUMPDEST PUSH2 0xA31 CALLER PUSH2 0x139A JUMP JUMPDEST PUSH1 0x3 DUP7 PUSH1 0x40 MLOAD PUSH2 0xA41 SWAP2 SWAP1 PUSH2 0x1AE2 JUMP JUMPDEST SWAP1 DUP2 MSTORE PUSH1 0x20 ADD PUSH1 0x40 MLOAD DUP1 SWAP2 SUB SWAP1 KECCAK256 PUSH0 ADD PUSH0 SWAP1 SLOAD SWAP1 PUSH2 0x100 EXP SWAP1 DIV PUSH1 0xFF AND PUSH1 0x1 DUP2 GT ISZERO PUSH2 0xA70 JUMPI PUSH2 0xA6F PUSH2 0x16F4 JUMP JUMPDEST JUMPDEST PUSH0 PUSH1 0x1 DUP2 GT ISZERO PUSH2 0xA83 JUMPI PUSH2 0xA82 PUSH2 0x16F4 JUMP JUMPDEST JUMPDEST EQ PUSH2 0xAC3 JUMPI PUSH1 0x40 MLOAD PUSH32 0x8C379A000000000000000000000000000000000000000000000000000000000 DUP2 MSTORE PUSH1 0x4 ADD PUSH2 0xABA SWAP1 PUSH2 0x1D6C JUMP JUMPDEST PUSH1 0x40 MLOAD DUP1 SWAP2 SUB SWAP1 REVERT JUMPDEST PUSH0 PUSH1 0x40 MLOAD DUP1 PUSH1 0xC0 ADD PUSH1 0x40 MSTORE DUP1 PUSH1 0x1 DUP1 DUP2 GT ISZERO PUSH2 0xAE2 JUMPI PUSH2 0xAE1 PUSH2 0x16F4 JUMP JUMPDEST JUMPDEST DUP2 MSTORE PUSH1 0x20 ADD DUP8 DUP2 MSTORE PUSH1 0x20 ADD DUP7 PUSH20 0xFFFFFFFFFFFFFFFFFFFFFFFFFFFFFFFFFFFFFFFF AND DUP2 MSTORE PUSH1 0x20 ADD DUP6 DUP2 MSTORE PUSH1 0x20 ADD DUP5 DUP2 MSTORE PUSH1 0x20 ADD DUP4 DUP2 MSTORE POP SWAP1 POP DUP1 PUSH1 0x3 DUP9 PUSH1 0x40 MLOAD PUSH2 0xB2C SWAP2 SWAP1 PUSH2 0x1AE2 JUMP JUMPDEST SWAP1 DUP2 MSTORE PUSH1 0x20 ADD PUSH1 0x40 MLOAD DUP1 SWAP2 SUB SWAP1 KECCAK256 PUSH0 DUP3 ADD MLOAD DUP2 PUSH0 ADD PUSH0 PUSH2 0x100 EXP DUP2 SLOAD DUP2 PUSH1 0xFF MUL NOT AND SWAP1 DUP4 PUSH1 0x1 DUP2 GT ISZERO PUSH2 0xB62 JUMPI PUSH2 0xB61 PUSH2 0x16F4 JUMP JUMPDEST JUMPDEST MUL OR SWAP1 SSTORE POP PUSH1 0x20 DUP3 ADD MLOAD DUP2 PUSH1 0x1 ADD SWAP1 DUP2 PUSH2 0xB7C SWAP2 SWAP1 PUSH2 0x1F1E JUMP JUMPDEST POP PUSH1 0x40 DUP3 ADD MLOAD DUP2 PUSH1 0x2 ADD PUSH0 PUSH2 0x100 EXP DUP2 SLOAD DUP2 PUSH20 0xFFFFFFFFFFFFFFFFFFFFFFFFFFFFFFFFFFFFFFFF MUL NOT AND SWAP1 DUP4 PUSH20 0xFFFFFFFFFFFFFFFFFFFFFFFFFFFFFFFFFFFFFFFF AND MUL OR SWAP1 SSTORE POP PUSH1 0x60 DUP3 ADD MLOAD DUP2 PUSH1 0x3 ADD SSTORE PUSH1 0x80 DUP3 ADD MLOAD DUP2 PUSH1 0x4 ADD SSTORE PUSH1 0xA0 DUP3 ADD MLOAD DUP2 PUSH1 0x5 ADD SSTORE SWAP1 POP POP PUSH32 0xA418229B0CD6275BFB74006A1C50D3E0A604F25115315505F82EF6EBB8B2560B DUP8 DUP7 PUSH0 PUSH1 0x40 MLOAD PUSH2 0xC17 SWAP4 SWAP3 SWAP2 SWAP1 PUSH2 0x2070 JUMP JUMPDEST PUSH1 0x40 MLOAD DUP1 SWAP2 SUB SWAP1 LOG1 POP POP POP POP POP POP POP JUMP JUMPDEST PUSH0 PUSH1 0x3 DUP4 PUSH1 0x40 MLOAD PUSH2 0xC39 SWAP2 SWAP1 PUSH2 0x1AE2 JUMP JUMPDEST SWAP1 DUP2 MSTORE PUSH1 0x20 ADD PUSH1 0x40 MLOAD DUP1 SWAP2 SUB SWAP1 KECCAK256 PUSH1 0x40 MLOAD DUP1 PUSH1 0xC0 ADD PUSH1 0x40 MSTORE SWAP1 DUP2 PUSH0 DUP3 ADD PUSH0 SWAP1 SLOAD SWAP1 PUSH2 0x100 EXP SWAP1 DIV PUSH1 0xFF AND PUSH1 0x1 DUP2 GT ISZERO PUSH2 0xC75 JUMPI PUSH2 0xC74 PUSH2 0x16F4 JUMP JUMPDEST JUMPDEST PUSH1 0x1 DUP2 GT ISZERO PUSH2 0xC87 JUMPI PUSH2 0xC86 PUSH2 0x16F4 JUMP JUMPDEST JUMPDEST DUP2 MSTORE PUSH1 0x20 ADD PUSH1 0x1 DUP3 ADD DUP1 SLOAD PUSH2 0xC9B SWAP1 PUSH2 0x1B8D JUMP JUMPDEST DUP1 PUSH1 0x1F ADD PUSH1 0x20 DUP1 SWAP2 DIV MUL PUSH1 0x20 ADD PUSH1 0x40 MLOAD SWAP1 DUP2 ADD PUSH1 0x40 MSTORE DUP1 SWAP3 SWAP2 SWAP1 DUP2 DUP2 MSTORE PUSH1 0x20 ADD DUP3 DUP1 SLOAD PUSH2 0xCC7 SWAP1 PUSH2 0x1B8D JUMP JUMPDEST DUP1 ISZERO PUSH2 0xD12 JUMPI DUP1 PUSH1 0x1F LT PUSH2 0xCE9 JUMPI PUSH2 0x100 DUP1 DUP4 SLOAD DIV MUL DUP4 MSTORE SWAP2 PUSH1 0x20 ADD SWAP2 PUSH2 0xD12 JUMP JUMPDEST DUP3 ADD SWAP2 SWAP1 PUSH0 MSTORE PUSH1 0x20 PUSH0 KECCAK256 SWAP1 JUMPDEST DUP2 SLOAD DUP2 MSTORE SWAP1 PUSH1 0x1 ADD SWAP1 PUSH1 0x20 ADD DUP1 DUP4 GT PUSH2 0xCF5 JUMPI DUP3 SWAP1 SUB PUSH1 0x1F AND DUP3 ADD SWAP2 JUMPDEST POP POP POP POP POP DUP2 MSTORE PUSH1 0x20 ADD PUSH1 0x2 DUP3 ADD PUSH0 SWAP1 SLOAD SWAP1 PUSH2 0x100 EXP SWAP1 DIV PUSH20 0xFFFFFFFFFFFFFFFFFFFFFFFFFFFFFFFFFFFFFFFF AND PUSH20 0xFFFFFFFFFFFFFFFFFFFFFFFFFFFFFFFFFFFFFFFF AND PUSH20 0xFFFFFFFFFFFFFFFFFFFFFFFFFFFFFFFFFFFFFFFF AND DUP2 MSTORE PUSH1 0x20 ADD PUSH1 0x3 DUP3 ADD SLOAD DUP2 MSTORE PUSH1 0x20 ADD PUSH1 0x4 DUP3 ADD SLOAD DUP2 MSTORE PUSH1 0x20 ADD PUSH1 0x5 DUP3 ADD SLOAD DUP2 MSTORE POP POP SWAP1 POP PUSH1 0x1 DUP1 DUP2 GT ISZERO PUSH2 0xDA3 JUMPI PUSH2 0xDA2 PUSH2 0x16F4 JUMP JUMPDEST JUMPDEST DUP2 PUSH0 ADD MLOAD PUSH1 0x1 DUP2 GT ISZERO PUSH2 0xDB9 JUMPI PUSH2 0xDB8 PUSH2 0x16F4 JUMP JUMPDEST JUMPDEST EQ PUSH2 0xDF9 JUMPI PUSH1 0x40 MLOAD PUSH32 0x8C379A000000000000000000000000000000000000000000000000000000000 DUP2 MSTORE PUSH1 0x4 ADD PUSH2 0xDF0 SWAP1 PUSH2 0x1B42 JUMP JUMPDEST PUSH1 0x40 MLOAD DUP1 SWAP2 SUB SWAP1 REVERT JUMPDEST PUSH0 PUSH1 0x2 DUP5 PUSH1 0x40 MLOAD PUSH2 0xE0A SWAP2 SWAP1 PUSH2 0x1AE2 JUMP JUMPDEST SWAP1 DUP2 MSTORE PUSH1 0x20 ADD PUSH1 0x40 MLOAD DUP1 SWAP2 SUB SWAP1 KECCAK256 PUSH0 CALLER PUSH20 0xFFFFFFFFFFFFFFFFFFFFFFFFFFFFFFFFFFFFFFFF AND PUSH20 0xFFFFFFFFFFFFFFFFFFFFFFFFFFFFFFFFFFFFFFFF AND DUP2 MSTORE PUSH1 0x20 ADD SWAP1 DUP2 MSTORE PUSH1 0x20 ADD PUSH0 KECCAK256 SLOAD SWAP1 POP DUP2 PUSH1 0x80 ADD MLOAD PUSH0 EQ DUP1 PUSH2 0xE76 JUMPI POP TIMESTAMP DUP3 PUSH1 0x80 ADD MLOAD DUP3 PUSH2 0xE74 SWAP2 SWAP1 PUSH2 0x20EC JUMP JUMPDEST LT JUMPDEST PUSH2 0xEB5 JUMPI PUSH1 0x40 MLOAD PUSH32 0x8C379A000000000000000000000000000000000000000000000000000000000 DUP2 MSTORE PUSH1 0x4 ADD PUSH2 0xEAC SWAP1 PUSH2 0x2169 JUMP JUMPDEST PUSH1 0x40 MLOAD DUP1 SWAP2 SUB SWAP1 REVERT JUMPDEST DUP2 PUSH1 0x60 ADD MLOAD PUSH0 EQ DUP1 PUSH2 0xECA JUMPI POP DUP2 PUSH1 0x60 ADD MLOAD DUP4 LT JUMPDEST PUSH2 0xF09 JUMPI PUSH1 0x40 MLOAD PUSH32 0x8C379A000000000000000000000000000000000000000000000000000000000 DUP2 MSTORE PUSH1 0x4 ADD PUSH2 0xF00 SWAP1 PUSH2 0x21D1 JUMP JUMPDEST PUSH1 0x40 MLOAD DUP1 SWAP2 SUB SWAP1 REVERT JUMPDEST PUSH0 DUP3 PUSH1 0x40 ADD MLOAD SWAP1 POP PUSH0 DUP2 PUSH20 0xFFFFFFFFFFFFFFFFFFFFFFFFFFFFFFFFFFFFFFFF AND PUSH4 0x70A08231 CALLER PUSH1 0x40 MLOAD DUP3 PUSH4 0xFFFFFFFF AND PUSH1 0xE0 SHL DUP2 MSTORE PUSH1 0x4 ADD PUSH2 0xF4B SWAP2 SWAP1 PUSH2 0x199B JUMP JUMPDEST PUSH1 0x20 PUSH1 0x40 MLOAD DUP1 DUP4 SUB DUP2 DUP7 GAS STATICCALL ISZERO DUP1 ISZERO PUSH2 0xF66 JUMPI RETURNDATASIZE PUSH0 DUP1 RETURNDATACOPY RETURNDATASIZE PUSH0 REVERT JUMPDEST POP POP POP POP PUSH1 0x40 MLOAD RETURNDATASIZE PUSH1 0x1F NOT PUSH1 0x1F DUP3 ADD AND DUP3 ADD DUP1 PUSH1 0x40 MSTORE POP DUP2 ADD SWAP1 PUSH2 0xF8A SWAP2 SWAP1 PUSH2 0x1BD1 JUMP JUMPDEST SWAP1 POP DUP4 PUSH1 0xA0 ADD MLOAD PUSH0 EQ DUP1 PUSH2 0xFAD JUMPI POP DUP4 PUSH1 0xA0 ADD MLOAD DUP6 DUP3 PUSH2 0xFAA SWAP2 SWAP1 PUSH2 0x20EC JUMP JUMPDEST GT ISZERO JUMPDEST PUSH2 0xFEC JUMPI PUSH1 0x40 MLOAD PUSH32 0x8C379A000000000000000000000000000000000000000000000000000000000 DUP2 MSTORE PUSH1 0x4 ADD PUSH2 0xFE3 SWAP1 PUSH2 0x2239 JUMP JUMPDEST PUSH1 0x40 MLOAD DUP1 SWAP2 SUB SWAP1 REVERT JUMPDEST DUP2 PUSH20 0xFFFFFFFFFFFFFFFFFFFFFFFFFFFFFFFFFFFFFFFF AND PUSH4 0xA9059CBB CALLER DUP8 PUSH1 0x40 MLOAD DUP4 PUSH4 0xFFFFFFFF AND PUSH1 0xE0 SHL DUP2 MSTORE PUSH1 0x4 ADD PUSH2 0x1027 SWAP3 SWAP2 SWAP1 PUSH2 0x2257 JUMP JUMPDEST PUSH1 0x20 PUSH1 0x40 MLOAD DUP1 DUP4 SUB DUP2 PUSH0 DUP8 GAS CALL ISZERO DUP1 ISZERO PUSH2 0x1043 JUMPI RETURNDATASIZE PUSH0 DUP1 RETURNDATACOPY RETURNDATASIZE PUSH0 REVERT JUMPDEST POP POP POP POP PUSH1 0x40 MLOAD RETURNDATASIZE PUSH1 0x1F NOT PUSH1 0x1F DUP3 ADD AND DUP3 ADD DUP1 PUSH1 0x40 MSTORE POP DUP2 ADD SWAP1 PUSH2 0x1067 SWAP2 SWAP1 PUSH2 0x1CF7 JUMP JUMPDEST POP TIMESTAMP PUSH1 0x2 DUP8 PUSH1 0x40 MLOAD PUSH2 0x1079 SWAP2 SWAP1 PUSH2 0x1AE2 JUMP JUMPDEST SWAP1 DUP2 MSTORE PUSH1 0x20 ADD PUSH1 0x40 MLOAD DUP1 SWAP2 SUB SWAP1 KECCAK256 PUSH0 CALLER PUSH20 0xFFFFFFFFFFFFFFFFFFFFFFFFFFFFFFFFFFFFFFFF AND PUSH20 0xFFFFFFFFFFFFFFFFFFFFFFFFFFFFFFFFFFFFFFFF AND DUP2 MSTORE PUSH1 0x20 ADD SWAP1 DUP2 MSTORE PUSH1 0x20 ADD PUSH0 KECCAK256 DUP2 SWAP1 SSTORE POP PUSH32 0xA418229B0CD6275BFB74006A1C50D3E0A604F25115315505F82EF6EBB8B2560B DUP7 CALLER DUP8 PUSH1 0x40 MLOAD PUSH2 0x10F9 SWAP4 SWAP3 SWAP2 SWAP1 PUSH2 0x22C8 JUMP JUMPDEST PUSH1 0x40 MLOAD DUP1 SWAP2 SUB SWAP1 LOG1 POP POP POP POP POP POP JUMP JUMPDEST PUSH0 PUSH1 0x1 DUP1 DUP2 GT ISZERO PUSH2 0x111D JUMPI PUSH2 0x111C PUSH2 0x16F4 JUMP JUMPDEST JUMPDEST PUSH1 0x3 DUP4 PUSH1 0x40 MLOAD PUSH2 0x112D SWAP2 SWAP1 PUSH2 0x1AE2 JUMP JUMPDEST SWAP1 DUP2 MSTORE PUSH1 0x20 ADD PUSH1 0x40 MLOAD DUP1 SWAP2 SUB SWAP1 KECCAK256 PUSH0 ADD PUSH0 SWAP1 SLOAD SWAP1 PUSH2 0x100 EXP SWAP1 DIV PUSH1 0xFF AND PUSH1 0x1 DUP2 GT ISZERO PUSH2 0x115C JUMPI PUSH2 0x115B PUSH2 0x16F4 JUMP JUMPDEST JUMPDEST EQ PUSH2 0x119C JUMPI PUSH1 0x40 MLOAD PUSH32 0x8C379A000000000000000000000000000000000000000000000000000000000 DUP2 MSTORE PUSH1 0x4 ADD PUSH2 0x1193 SWAP1 PUSH2 0x1B42 JUMP JUMPDEST PUSH1 0x40 MLOAD DUP1 SWAP2 SUB SWAP1 REVERT JUMPDEST PUSH0 PUSH1 0x3 DUP4 PUSH1 0x40 MLOAD PUSH2 0x11AD SWAP2 SWAP1 PUSH2 0x1AE2 JUMP JUMPDEST SWAP1 DUP2 MSTORE PUSH1 0x20 ADD PUSH1 0x40 MLOAD DUP1 SWAP2 SUB SWAP1 KECCAK256 PUSH1 0x2 ADD PUSH0 SWAP1 SLOAD SWAP1 PUSH2 0x100 EXP SWAP1 DIV PUSH20 0xFFFFFFFFFFFFFFFFFFFFFFFFFFFFFFFFFFFFFFFF AND SWAP1 POP PUSH0 DUP2 SWAP1 POP DUP1 PUSH20 0xFFFFFFFFFFFFFFFFFFFFFFFFFFFFFFFFFFFFFFFF AND PUSH4 0x70A08231 CALLER PUSH1 0x40 MLOAD DUP3 PUSH4 0xFFFFFFFF AND PUSH1 0xE0 SHL DUP2 MSTORE PUSH1 0x4 ADD PUSH2 0x121D SWAP2 SWAP1 PUSH2 0x199B JUMP JUMPDEST PUSH1 0x20 PUSH1 0x40 MLOAD DUP1 DUP4 SUB DUP2 DUP7 GAS STATICCALL ISZERO DUP1 ISZERO PUSH2 0x1238 JUMPI RETURNDATASIZE PUSH0 DUP1 RETURNDATACOPY RETURNDATASIZE PUSH0 REVERT JUMPDEST POP POP POP POP PUSH1 0x40 MLOAD RETURNDATASIZE PUSH1 0x1F NOT PUSH1 0x1F DUP3 ADD AND DUP3 ADD DUP1 PUSH1 0x40 MSTORE POP DUP2 ADD SWAP1 PUSH2 0x125C SWAP2 SWAP1 PUSH2 0x1BD1 JUMP JUMPDEST SWAP3 POP POP POP SWAP2 SWAP1 POP JUMP JUMPDEST PUSH2 0x126E CALLER PUSH2 0x139A JUMP JUMPDEST PUSH1 0x1 DUP1 DUP2 GT ISZERO PUSH2 0x1281 JUMPI PUSH2 0x1280 PUSH2 0x16F4 JUMP JUMPDEST JUMPDEST PUSH1 0x3 DUP4 PUSH1 0x40 MLOAD PUSH2 0x1291 SWAP2 SWAP1 PUSH2 0x1AE2 JUMP JUMPDEST SWAP1 DUP2 MSTORE PUSH1 0x20 ADD PUSH1 0x40 MLOAD DUP1 SWAP2 SUB SWAP1 KECCAK256 PUSH0 ADD PUSH0 SWAP1 SLOAD SWAP1 PUSH2 0x100 EXP SWAP1 DIV PUSH1 0xFF AND PUSH1 0x1 DUP2 GT ISZERO PUSH2 0x12C0 JUMPI PUSH2 0x12BF PUSH2 0x16F4 JUMP JUMPDEST JUMPDEST EQ PUSH2 0x1300 JUMPI PUSH1 0x40 MLOAD PUSH32 0x8C379A000000000000000000000000000000000000000000000000000000000 DUP2 MSTORE PUSH1 0x4 ADD PUSH2 0x12F7 SWAP1 PUSH2 0x1B42 JUMP JUMPDEST PUSH1 0x40 MLOAD DUP1 SWAP2 SUB SWAP1 REVERT JUMPDEST DUP1 PUSH1 0x3 DUP4 PUSH1 0x40 MLOAD PUSH2 0x1311 SWAP2 SWAP1 PUSH2 0x1AE2 JUMP JUMPDEST SWAP1 DUP2 MSTORE PUSH1 0x20 ADD PUSH1 0x40 MLOAD DUP1 SWAP2 SUB SWAP1 KECCAK256 POP POP POP POP JUMP JUMPDEST PUSH1 0x1 PUSH1 0x20 MSTORE DUP1 PUSH0 MSTORE PUSH1 0x40 PUSH0 KECCAK256 PUSH0 SWAP2 POP SLOAD SWAP1 PUSH2 0x100 EXP SWAP1 DIV PUSH1 0xFF AND DUP2 JUMP JUMPDEST PUSH2 0x134B CALLER PUSH2 0x139A JUMP JUMPDEST PUSH1 0x1 PUSH0 DUP3 PUSH20 0xFFFFFFFFFFFFFFFFFFFFFFFFFFFFFFFFFFFFFFFF AND PUSH20 0xFFFFFFFFFFFFFFFFFFFFFFFFFFFFFFFFFFFFFFFF AND DUP2 MSTORE PUSH1 0x20 ADD SWAP1 DUP2 MSTORE PUSH1 0x20 ADD PUSH0 KECCAK256 PUSH0 PUSH2 0x100 EXP DUP2 SLOAD SWAP1 PUSH1 0xFF MUL NOT AND SWAP1 SSTORE POP JUMP JUMPDEST PUSH0 DUP1 SLOAD SWAP1 PUSH2 0x100 EXP SWAP1 DIV PUSH20 0xFFFFFFFFFFFFFFFFFFFFFFFFFFFFFFFFFFFFFFFF AND PUSH20 0xFFFFFFFFFFFFFFFFFFFFFFFFFFFFFFFFFFFFFFFF AND DUP2 PUSH20 0xFFFFFFFFFFFFFFFFFFFFFFFFFFFFFFFFFFFFFFFF AND EQ DUP1 PUSH2 0x1439 JUMPI POP PUSH1 0x1 PUSH0 DUP3 PUSH20 0xFFFFFFFFFFFFFFFFFFFFFFFFFFFFFFFFFFFFFFFF AND PUSH20 0xFFFFFFFFFFFFFFFFFFFFFFFFFFFFFFFFFFFFFFFF AND DUP2 MSTORE PUSH1 0x20 ADD SWAP1 DUP2 MSTORE PUSH1 0x20 ADD PUSH0 KECCAK256 PUSH0 SWAP1 SLOAD SWAP1 PUSH2 0x100 EXP SWAP1 DIV PUSH1 0xFF AND JUMPDEST PUSH2 0x1478 JUMPI PUSH1 0x40 MLOAD PUSH32 0x8C379A000000000000000000000000000000000000000000000000000000000 DUP2 MSTORE PUSH1 0x4 ADD PUSH2 0x146F SWAP1 PUSH2 0x2361 JUMP JUMPDEST PUSH1 0x40 MLOAD DUP1 SWAP2 SUB SWAP1 REVERT JUMPDEST POP JUMP JUMPDEST POP DUP1 SLOAD PUSH2 0x1487 SWAP1 PUSH2 0x1B8D JUMP JUMPDEST PUSH0 DUP3 SSTORE DUP1 PUSH1 0x1F LT PUSH2 0x1498 JUMPI POP PUSH2 0x14B5 JUMP JUMPDEST PUSH1 0x1F ADD PUSH1 0x20 SWAP1 DIV SWAP1 PUSH0 MSTORE PUSH1 0x20 PUSH0 KECCAK256 SWAP1 DUP2 ADD SWAP1 PUSH2 0x14B4 SWAP2 SWAP1 PUSH2 0x14B8 JUMP JUMPDEST JUMPDEST POP JUMP JUMPDEST JUMPDEST DUP1 DUP3 GT ISZERO PUSH2 0x14CF JUMPI PUSH0 DUP2 PUSH0 SWAP1 SSTORE POP PUSH1 0x1 ADD PUSH2 0x14B9 JUMP JUMPDEST POP SWAP1 JUMP JUMPDEST PUSH0 PUSH1 0x40 MLOAD SWAP1 POP SWAP1 JUMP JUMPDEST PUSH0 DUP1 REVERT JUMPDEST PUSH0 DUP1 REVERT JUMPDEST PUSH0 DUP1 REVERT JUMPDEST PUSH0 DUP1 REVERT JUMPDEST PUSH0 PUSH1 0x1F NOT PUSH1 0x1F DUP4 ADD AND SWAP1 POP SWAP2 SWAP1 POP JUMP JUMPDEST PUSH32 0x4E487B7100000000000000000000000000000000000000000000000000000000 PUSH0 MSTORE PUSH1 0x41 PUSH1 0x4 MSTORE PUSH1 0x24 PUSH0 REVERT JUMPDEST PUSH2 0x1532 DUP3 PUSH2 0x14EC JUMP JUMPDEST DUP2 ADD DUP2 DUP2 LT PUSH8 0xFFFFFFFFFFFFFFFF DUP3 GT OR ISZERO PUSH2 0x1551 JUMPI PUSH2 0x1550 PUSH2 0x14FC JUMP JUMPDEST JUMPDEST DUP1 PUSH1 0x40 MSTORE POP POP POP JUMP JUMPDEST PUSH0 PUSH2 0x1563 PUSH2 0x14D3 JUMP JUMPDEST SWAP1 POP PUSH2 0x156F DUP3 DUP3 PUSH2 0x1529 JUMP JUMPDEST SWAP2 SWAP1 POP JUMP JUMPDEST PUSH0 PUSH8 0xFFFFFFFFFFFFFFFF DUP3 GT ISZERO PUSH2 0x158E JUMPI PUSH2 0x158D PUSH2 0x14FC JUMP JUMPDEST JUMPDEST PUSH2 0x1597 DUP3 PUSH2 0x14EC JUMP JUMPDEST SWAP1 POP PUSH1 0x20 DUP2 ADD SWAP1 POP SWAP2 SWAP1 POP JUMP JUMPDEST DUP3 DUP2 DUP4 CALLDATACOPY PUSH0 DUP4 DUP4 ADD MSTORE POP POP POP JUMP JUMPDEST PUSH0 PUSH2 0x15C4 PUSH2 0x15BF DUP5 PUSH2 0x1574 JUMP JUMPDEST PUSH2 0x155A JUMP JUMPDEST SWAP1 POP DUP3 DUP2 MSTORE PUSH1 0x20 DUP2 ADD DUP5 DUP5 DUP5 ADD GT ISZERO PUSH2 0x15E0 JUMPI PUSH2 0x15DF PUSH2 0x14E8 JUMP JUMPDEST JUMPDEST PUSH2 0x15EB DUP5 DUP3 DUP6 PUSH2 0x15A4 JUMP JUMPDEST POP SWAP4 SWAP3 POP POP POP JUMP JUMPDEST PUSH0 DUP3 PUSH1 0x1F DUP4 ADD SLT PUSH2 0x1607 JUMPI PUSH2 0x1606 PUSH2 0x14E4 JUMP JUMPDEST JUMPDEST DUP2 CALLDATALOAD PUSH2 0x1617 DUP5 DUP3 PUSH1 0x20 DUP7 ADD PUSH2 0x15B2 JUMP JUMPDEST SWAP2 POP POP SWAP3 SWAP2 POP POP JUMP JUMPDEST PUSH0 DUP2 SWAP1 POP SWAP2 SWAP1 POP JUMP JUMPDEST PUSH2 0x1632 DUP2 PUSH2 0x1620 JUMP JUMPDEST DUP2 EQ PUSH2 0x163C JUMPI PUSH0 DUP1 REVERT JUMPDEST POP JUMP JUMPDEST PUSH0 DUP2 CALLDATALOAD SWAP1 POP PUSH2 0x164D DUP2 PUSH2 0x1629 JUMP JUMPDEST SWAP3 SWAP2 POP POP JUMP JUMPDEST PUSH0 DUP1 PUSH1 0x40 DUP4 DUP6 SUB SLT ISZERO PUSH2 0x1669 JUMPI PUSH2 0x1668 PUSH2 0x14DC JUMP JUMPDEST JUMPDEST PUSH0 DUP4 ADD CALLDATALOAD PUSH8 0xFFFFFFFFFFFFFFFF DUP2 GT ISZERO PUSH2 0x1686 JUMPI PUSH2 0x1685 PUSH2 0x14E0 JUMP JUMPDEST JUMPDEST PUSH2 0x1692 DUP6 DUP3 DUP7 ADD PUSH2 0x15F3 JUMP JUMPDEST SWAP3 POP POP PUSH1 0x20 PUSH2 0x16A3 DUP6 DUP3 DUP7 ADD PUSH2 0x163F JUMP JUMPDEST SWAP2 POP POP SWAP3 POP SWAP3 SWAP1 POP JUMP JUMPDEST PUSH0 PUSH1 0x20 DUP3 DUP5 SUB SLT ISZERO PUSH2 0x16C2 JUMPI PUSH2 0x16C1 PUSH2 0x14DC JUMP JUMPDEST JUMPDEST PUSH0 DUP3 ADD CALLDATALOAD PUSH8 0xFFFFFFFFFFFFFFFF DUP2 GT ISZERO PUSH2 0x16DF JUMPI PUSH2 0x16DE PUSH2 0x14E0 JUMP JUMPDEST JUMPDEST PUSH2 0x16EB DUP5 DUP3 DUP6 ADD PUSH2 0x15F3 JUMP JUMPDEST SWAP2 POP POP SWAP3 SWAP2 POP POP JUMP JUMPDEST PUSH32 0x4E487B7100000000000000000000000000000000000000000000000000000000 PUSH0 MSTORE PUSH1 0x21 PUSH1 0x4 MSTORE PUSH1 0x24 PUSH0 REVERT JUMPDEST PUSH1 0x2 DUP2 LT PUSH2 0x1732 JUMPI PUSH2 0x1731 PUSH2 0x16F4 JUMP JUMPDEST JUMPDEST POP JUMP JUMPDEST PUSH0 DUP2 SWAP1 POP PUSH2 0x1742 DUP3 PUSH2 0x1721 JUMP JUMPDEST SWAP2 SWAP1 POP JUMP JUMPDEST PUSH0 PUSH2 0x1751 DUP3 PUSH2 0x1735 JUMP JUMPDEST SWAP1 POP SWAP2 SWAP1 POP JUMP JUMPDEST PUSH2 0x1761 DUP2 PUSH2 0x1747 JUMP JUMPDEST DUP3 MSTORE POP POP JUMP JUMPDEST PUSH0 DUP2 MLOAD SWAP1 POP SWAP2 SWAP1 POP JUMP JUMPDEST PUSH0 DUP3 DUP3 MSTORE PUSH1 0x20 DUP3 ADD SWAP1 POP SWAP3 SWAP2 POP POP JUMP JUMPDEST PUSH0 JUMPDEST DUP4 DUP2 LT ISZERO PUSH2 0x179E JUMPI DUP1 DUP3 ADD MLOAD DUP2 DUP5 ADD MSTORE PUSH1 0x20 DUP2 ADD SWAP1 POP PUSH2 0x1783 JUMP JUMPDEST PUSH0 DUP5 DUP5 ADD MSTORE POP POP POP POP JUMP JUMPDEST PUSH0 PUSH2 0x17B3 DUP3 PUSH2 0x1767 JUMP JUMPDEST PUSH2 0x17BD DUP2 DUP6 PUSH2 0x1771 JUMP JUMPDEST SWAP4 POP PUSH2 0x17CD DUP2 DUP6 PUSH1 0x20 DUP7 ADD PUSH2 0x1781 JUMP JUMPDEST PUSH2 0x17D6 DUP2 PUSH2 0x14EC JUMP JUMPDEST DUP5 ADD SWAP2 POP POP SWAP3 SWAP2 POP POP JUMP JUMPDEST PUSH0 PUSH20 0xFFFFFFFFFFFFFFFFFFFFFFFFFFFFFFFFFFFFFFFF DUP3 AND SWAP1 POP SWAP2 SWAP1 POP JUMP JUMPDEST PUSH0 PUSH2 0x180A DUP3 PUSH2 0x17E1 JUMP JUMPDEST SWAP1 POP SWAP2 SWAP1 POP JUMP JUMPDEST PUSH2 0x181A DUP2 PUSH2 0x1800 JUMP JUMPDEST DUP3 MSTORE POP POP JUMP JUMPDEST PUSH2 0x1829 DUP2 PUSH2 0x1620 JUMP JUMPDEST DUP3 MSTORE POP POP JUMP JUMPDEST PUSH0 PUSH1 0xC0 DUP3 ADD SWAP1 POP PUSH2 0x1842 PUSH0 DUP4 ADD DUP10 PUSH2 0x1758 JUMP JUMPDEST DUP2 DUP2 SUB PUSH1 0x20 DUP4 ADD MSTORE PUSH2 0x1854 DUP2 DUP9 PUSH2 0x17A9 JUMP JUMPDEST SWAP1 POP PUSH2 0x1863 PUSH1 0x40 DUP4 ADD DUP8 PUSH2 0x1811 JUMP JUMPDEST PUSH2 0x1870 PUSH1 0x60 DUP4 ADD DUP7 PUSH2 0x1820 JUMP JUMPDEST PUSH2 0x187D PUSH1 0x80 DUP4 ADD DUP6 PUSH2 0x1820 JUMP JUMPDEST PUSH2 0x188A PUSH1 0xA0 DUP4 ADD DUP5 PUSH2 0x1820 JUMP JUMPDEST SWAP8 SWAP7 POP POP POP POP POP POP POP JUMP JUMPDEST PUSH0 PUSH1 0x20 DUP3 ADD SWAP1 POP PUSH2 0x18A8 PUSH0 DUP4 ADD DUP5 PUSH2 0x1820 JUMP JUMPDEST SWAP3 SWAP2 POP POP JUMP JUMPDEST PUSH2 0x18B7 DUP2 PUSH2 0x1800 JUMP JUMPDEST DUP2 EQ PUSH2 0x18C1 JUMPI PUSH0 DUP1 REVERT JUMPDEST POP JUMP JUMPDEST PUSH0 DUP2 CALLDATALOAD SWAP1 POP PUSH2 0x18D2 DUP2 PUSH2 0x18AE JUMP JUMPDEST SWAP3 SWAP2 POP POP JUMP JUMPDEST PUSH0 PUSH1 0x20 DUP3 DUP5 SUB SLT ISZERO PUSH2 0x18ED JUMPI PUSH2 0x18EC PUSH2 0x14DC JUMP JUMPDEST JUMPDEST PUSH0 PUSH2 0x18FA DUP5 DUP3 DUP6 ADD PUSH2 0x18C4 JUMP JUMPDEST SWAP2 POP POP SWAP3 SWAP2 POP POP JUMP JUMPDEST PUSH0 DUP1 PUSH1 0x40 DUP4 DUP6 SUB SLT ISZERO PUSH2 0x1919 JUMPI PUSH2 0x1918 PUSH2 0x14DC JUMP JUMPDEST JUMPDEST PUSH0 DUP4 ADD CALLDATALOAD PUSH8 0xFFFFFFFFFFFFFFFF DUP2 GT ISZERO PUSH2 0x1936 JUMPI PUSH2 0x1935 PUSH2 0x14E0 JUMP JUMPDEST JUMPDEST PUSH2 0x1942 DUP6 DUP3 DUP7 ADD PUSH2 0x15F3 JUMP JUMPDEST SWAP3 POP POP PUSH1 0x20 PUSH2 0x1953 DUP6 DUP3 DUP7 ADD PUSH2 0x18C4 JUMP JUMPDEST SWAP2 POP POP SWAP3 POP SWAP3 SWAP1 POP JUMP JUMPDEST PUSH0 DUP1 PUSH1 0x40 DUP4 DUP6 SUB SLT ISZERO PUSH2 0x1973 JUMPI PUSH2 0x1972 PUSH2 0x14DC JUMP JUMPDEST JUMPDEST PUSH0 PUSH2 0x1980 DUP6 DUP3 DUP7 ADD PUSH2 0x18C4 JUMP JUMPDEST SWAP3 POP POP PUSH1 0x20 PUSH2 0x1991 DUP6 DUP3 DUP7 ADD PUSH2 0x18C4 JUMP JUMPDEST SWAP2 POP POP SWAP3 POP SWAP3 SWAP1 POP JUMP JUMPDEST PUSH0 PUSH1 0x20 DUP3 ADD SWAP1 POP PUSH2 0x19AE PUSH0 DUP4 ADD DUP5 PUSH2 0x1811 JUMP JUMPDEST SWAP3 SWAP2 POP POP JUMP JUMPDEST PUSH0 DUP1 PUSH0 DUP1 PUSH0 DUP1 PUSH1 0xC0 DUP8 DUP10 SUB SLT ISZERO PUSH2 0x19CE JUMPI PUSH2 0x19CD PUSH2 0x14DC JUMP JUMPDEST JUMPDEST PUSH0 DUP8 ADD CALLDATALOAD PUSH8 0xFFFFFFFFFFFFFFFF DUP2 GT ISZERO PUSH2 0x19EB JUMPI PUSH2 0x19EA PUSH2 0x14E0 JUMP JUMPDEST JUMPDEST PUSH2 0x19F7 DUP10 DUP3 DUP11 ADD PUSH2 0x15F3 JUMP JUMPDEST SWAP7 POP POP PUSH1 0x20 DUP8 ADD CALLDATALOAD PUSH8 0xFFFFFFFFFFFFFFFF DUP2 GT ISZERO PUSH2 0x1A18 JUMPI PUSH2 0x1A17 PUSH2 0x14E0 JUMP JUMPDEST JUMPDEST PUSH2 0x1A24 DUP10 DUP3 DUP11 ADD PUSH2 0x15F3 JUMP JUMPDEST SWAP6 POP POP PUSH1 0x40 PUSH2 0x1A35 DUP10 DUP3 DUP11 ADD PUSH2 0x18C4 JUMP JUMPDEST SWAP5 POP POP PUSH1 0x60 PUSH2 0x1A46 DUP10 DUP3 DUP11 ADD PUSH2 0x163F JUMP JUMPDEST SWAP4 POP POP PUSH1 0x80 PUSH2 0x1A57 DUP10 DUP3 DUP11 ADD PUSH2 0x163F JUMP JUMPDEST SWAP3 POP POP PUSH1 0xA0 PUSH2 0x1A68 DUP10 DUP3 DUP11 ADD PUSH2 0x163F JUMP JUMPDEST SWAP2 POP POP SWAP3 SWAP6 POP SWAP3 SWAP6 POP SWAP3 SWAP6 JUMP JUMPDEST PUSH0 DUP2 ISZERO ISZERO SWAP1 POP SWAP2 SWAP1 POP JUMP JUMPDEST PUSH2 0x1A89 DUP2 PUSH2 0x1A75 JUMP JUMPDEST DUP3 MSTORE POP POP JUMP JUMPDEST PUSH0 PUSH1 0x20 DUP3 ADD SWAP1 POP PUSH2 0x1AA2 PUSH0 DUP4 ADD DUP5 PUSH2 0x1A80 JUMP JUMPDEST SWAP3 SWAP2 POP POP JUMP JUMPDEST PUSH0 DUP2 SWAP1 POP SWAP3 SWAP2 POP POP JUMP JUMPDEST PUSH0 PUSH2 0x1ABC DUP3 PUSH2 0x1767 JUMP JUMPDEST PUSH2 0x1AC6 DUP2 DUP6 PUSH2 0x1AA8 JUMP JUMPDEST SWAP4 POP PUSH2 0x1AD6 DUP2 DUP6 PUSH1 0x20 DUP7 ADD PUSH2 0x1781 JUMP JUMPDEST DUP1 DUP5 ADD SWAP2 POP POP SWAP3 SWAP2 POP POP JUMP JUMPDEST PUSH0 PUSH2 0x1AED DUP3 DUP5 PUSH2 0x1AB2 JUMP JUMPDEST SWAP2 POP DUP2 SWAP1 POP SWAP3 SWAP2 POP POP JUMP JUMPDEST PUSH32 0x466175636574206E6F7420666F756E6400000000000000000000000000000000 PUSH0 DUP3 ADD MSTORE POP JUMP JUMPDEST PUSH0 PUSH2 0x1B2C PUSH1 0x10 DUP4 PUSH2 0x1771 JUMP JUMPDEST SWAP2 POP PUSH2 0x1B37 DUP3 PUSH2 0x1AF8 JUMP JUMPDEST PUSH1 0x20 DUP3 ADD SWAP1 POP SWAP2 SWAP1 POP JUMP JUMPDEST PUSH0 PUSH1 0x20 DUP3 ADD SWAP1 POP DUP2 DUP2 SUB PUSH0 DUP4 ADD MSTORE PUSH2 0x1B59 DUP2 PUSH2 0x1B20 JUMP JUMPDEST SWAP1 POP SWAP2 SWAP1 POP JUMP JUMPDEST PUSH32 0x4E487B7100000000000000000000000000000000000000000000000000000000 PUSH0 MSTORE PUSH1 0x22 PUSH1 0x4 MSTORE PUSH1 0x24 PUSH0 REVERT JUMPDEST PUSH0 PUSH1 0x2 DUP3 DIV SWAP1 POP PUSH1 0x1 DUP3 AND DUP1 PUSH2 0x1BA4 JUMPI PUSH1 0x7F DUP3 AND SWAP2 POP JUMPDEST PUSH1 0x20 DUP3 LT DUP2 SUB PUSH2 0x1BB7 JUMPI PUSH2 0x1BB6 PUSH2 0x1B60 JUMP JUMPDEST JUMPDEST POP SWAP2 SWAP1 POP JUMP JUMPDEST PUSH0 DUP2 MLOAD SWAP1 POP PUSH2 0x1BCB DUP2 PUSH2 0x1629 JUMP JUMPDEST SWAP3 SWAP2 POP POP JUMP JUMPDEST PUSH0 PUSH1 0x20 DUP3 DUP5 SUB SLT ISZERO PUSH2 0x1BE6 JUMPI PUSH2 0x1BE5 PUSH2 0x14DC JUMP JUMPDEST JUMPDEST PUSH0 PUSH2 0x1BF3 DUP5 DUP3 DUP6 ADD PUSH2 0x1BBD JUMP JUMPDEST SWAP2 POP POP SWAP3 SWAP2 POP POP JUMP JUMPDEST PUSH32 0x5369746520617574686F72697479206F6E6C792E000000000000000000000000 PUSH0 DUP3 ADD MSTORE POP JUMP JUMPDEST PUSH0 PUSH2 0x1C30 PUSH1 0x14 DUP4 PUSH2 0x1771 JUMP JUMPDEST SWAP2 POP PUSH2 0x1C3B DUP3 PUSH2 0x1BFC JUMP JUMPDEST PUSH1 0x20 DUP3 ADD SWAP1 POP SWAP2 SWAP1 POP JUMP JUMPDEST PUSH0 PUSH1 0x20 DUP3 ADD SWAP1 POP DUP2 DUP2 SUB PUSH0 DUP4 ADD MSTORE PUSH2 0x1C5D DUP2 PUSH2 0x1C24 JUMP JUMPDEST SWAP1 POP SWAP2 SWAP1 POP JUMP JUMPDEST PUSH0 DUP2 SWAP1 POP SWAP2 SWAP1 POP JUMP JUMPDEST PUSH0 DUP2 SWAP1 POP SWAP2 SWAP1 POP JUMP JUMPDEST PUSH0 PUSH2 0x1C90 PUSH2 0x1C8B PUSH2 0x1C86 DUP5 PUSH2 0x1C64 JUMP JUMPDEST PUSH2 0x1C6D JUMP JUMPDEST PUSH2 0x1620 JUMP JUMPDEST SWAP1 POP SWAP2 SWAP1 POP JUMP JUMPDEST PUSH2 0x1CA0 DUP2 PUSH2 0x1C76 JUMP JUMPDEST DUP3 MSTORE POP POP JUMP JUMPDEST PUSH0 PUSH1 0x40 DUP3 ADD SWAP1 POP PUSH2 0x1CB9 PUSH0 DUP4 ADD DUP6 PUSH2 0x1811 JUMP JUMPDEST PUSH2 0x1CC6 PUSH1 0x20 DUP4 ADD DUP5 PUSH2 0x1C97 JUMP JUMPDEST SWAP4 SWAP3 POP POP POP JUMP JUMPDEST PUSH2 0x1CD6 DUP2 PUSH2 0x1A75 JUMP JUMPDEST DUP2 EQ PUSH2 0x1CE0 JUMPI PUSH0 DUP1 REVERT JUMPDEST POP JUMP JUMPDEST PUSH0 DUP2 MLOAD SWAP1 POP PUSH2 0x1CF1 DUP2 PUSH2 0x1CCD JUMP JUMPDEST SWAP3 SWAP2 POP POP JUMP JUMPDEST PUSH0 PUSH1 0x20 DUP3 DUP5 SUB SLT ISZERO PUSH2 0x1D0C JUMPI PUSH2 0x1D0B PUSH2 0x14DC JUMP JUMPDEST JUMPDEST PUSH0 PUSH2 0x1D19 DUP5 DUP3 DUP6 ADD PUSH2 0x1CE3 JUMP JUMPDEST SWAP2 POP POP SWAP3 SWAP2 POP POP JUMP JUMPDEST PUSH32 0x46617563657420616C7265616479206578697374732E00000000000000000000 PUSH0 DUP3 ADD MSTORE POP JUMP JUMPDEST PUSH0 PUSH2 0x1D56 PUSH1 0x16 DUP4 PUSH2 0x1771 JUMP JUMPDEST SWAP2 POP PUSH2 0x1D61 DUP3 PUSH2 0x1D22 JUMP JUMPDEST PUSH1 0x20 DUP3 ADD SWAP1 POP SWAP2 SWAP1 POP JUMP JUMPDEST PUSH0 PUSH1 0x20 DUP3 ADD SWAP1 POP DUP2 DUP2 SUB PUSH0 DUP4 ADD MSTORE PUSH2 0x1D83 DUP2 PUSH2 0x1D4A JUMP JUMPDEST SWAP1 POP SWAP2 SWAP1 POP JUMP JUMPDEST PUSH0 DUP2 SWAP1 POP DUP2 PUSH0 MSTORE PUSH1 0x20 PUSH0 KECCAK256 SWAP1 POP SWAP2 SWAP1 POP JUMP JUMPDEST PUSH0 PUSH1 0x20 PUSH1 0x1F DUP4 ADD DIV SWAP1 POP SWAP2 SWAP1 POP JUMP JUMPDEST PUSH0 DUP3 DUP3 SHL SWAP1 POP SWAP3 SWAP2 POP POP JUMP JUMPDEST PUSH0 PUSH1 0x8 DUP4 MUL PUSH2 0x1DE6 PUSH32 0xFFFFFFFFFFFFFFFFFFFFFFFFFFFFFFFFFFFFFFFFFFFFFFFFFFFFFFFFFFFFFFFF DUP3 PUSH2 0x1DAB JUMP JUMPDEST PUSH2 0x1DF0 DUP7 DUP4 PUSH2 0x1DAB JUMP JUMPDEST SWAP6 POP DUP1 NOT DUP5 AND SWAP4 POP DUP1 DUP7 AND DUP5 OR SWAP3 POP POP POP SWAP4 SWAP3 POP POP POP JUMP JUMPDEST PUSH0 PUSH2 0x1E22 PUSH2 0x1E1D PUSH2 0x1E18 DUP5 PUSH2 0x1620 JUMP JUMPDEST PUSH2 0x1C6D JUMP JUMPDEST PUSH2 0x1620 JUMP JUMPDEST SWAP1 POP SWAP2 SWAP1 POP JUMP JUMPDEST PUSH0 DUP2 SWAP1 POP SWAP2 SWAP1 POP JUMP JUMPDEST PUSH2 0x1E3B DUP4 PUSH2 0x1E08 JUMP JUMPDEST PUSH2 0x1E4F PUSH2 0x1E47 DUP3 PUSH2 0x1E29 JUMP JUMPDEST DUP5 DUP5 SLOAD PUSH2 0x1DB7 JUMP JUMPDEST DUP3 SSTORE POP POP POP POP JUMP JUMPDEST PUSH0 SWAP1 JUMP JUMPDEST PUSH2 0x1E63 PUSH2 0x1E57 JUMP JUMPDEST PUSH2 0x1E6E DUP2 DUP5 DUP5 PUSH2 0x1E32 JUMP JUMPDEST POP POP POP JUMP JUMPDEST JUMPDEST DUP2 DUP2 LT ISZERO PUSH2 0x1E91 JUMPI PUSH2 0x1E86 PUSH0 DUP3 PUSH2 0x1E5B JUMP JUMPDEST PUSH1 0x1 DUP2 ADD SWAP1 POP PUSH2 0x1E74 JUMP JUMPDEST POP POP JUMP JUMPDEST PUSH1 0x1F DUP3 GT ISZERO PUSH2 0x1ED6 JUMPI PUSH2 0x1EA7 DUP2 PUSH2 0x1D8A JUMP JUMPDEST PUSH2 0x1EB0 DUP5 PUSH2 0x1D9C JUMP JUMPDEST DUP2 ADD PUSH1 0x20 DUP6 LT ISZERO PUSH2 0x1EBF JUMPI DUP2 SWAP1 POP JUMPDEST PUSH2 0x1ED3 PUSH2 0x1ECB DUP6 PUSH2 0x1D9C JUMP JUMPDEST DUP4 ADD DUP3 PUSH2 0x1E73 JUMP JUMPDEST POP POP JUMPDEST POP POP POP JUMP JUMPDEST PUSH0 DUP3 DUP3 SHR SWAP1 POP SWAP3 SWAP2 POP POP JUMP JUMPDEST PUSH0 PUSH2 0x1EF6 PUSH0 NOT DUP5 PUSH1 0x8 MUL PUSH2 0x1EDB JUMP JUMPDEST NOT DUP1 DUP4 AND SWAP2 POP POP SWAP3 SWAP2 POP POP JUMP JUMPDEST PUSH0 PUSH2 0x1F0E DUP4 DUP4 PUSH2 0x1EE7 JUMP JUMPDEST SWAP2 POP DUP3 PUSH1 0x2 MUL DUP3 OR SWAP1 POP SWAP3 SWAP2 POP POP JUMP JUMPDEST PUSH2 0x1F27 DUP3 PUSH2 0x1767 JUMP JUMPDEST PUSH8 0xFFFFFFFFFFFFFFFF DUP2 GT ISZERO PUSH2 0x1F40 JUMPI PUSH2 0x1F3F PUSH2 0x14FC JUMP JUMPDEST JUMPDEST PUSH2 0x1F4A DUP3 SLOAD PUSH2 0x1B8D JUMP JUMPDEST PUSH2 0x1F55 DUP3 DUP3 DUP6 PUSH2 0x1E95 JUMP JUMPDEST PUSH0 PUSH1 0x20 SWAP1 POP PUSH1 0x1F DUP4 GT PUSH1 0x1 DUP2 EQ PUSH2 0x1F86 JUMPI PUSH0 DUP5 ISZERO PUSH2 0x1F74 JUMPI DUP3 DUP8 ADD MLOAD SWAP1 POP JUMPDEST PUSH2 0x1F7E DUP6 DUP3 PUSH2 0x1F03 JUMP JUMPDEST DUP7 SSTORE POP PUSH2 0x1FE5 JUMP JUMPDEST PUSH1 0x1F NOT DUP5 AND PUSH2 0x1F94 DUP7 PUSH2 0x1D8A JUMP JUMPDEST PUSH0 JUMPDEST DUP3 DUP2 LT ISZERO PUSH2 0x1FBB JUMPI DUP5 DUP10 ADD MLOAD DUP3 SSTORE PUSH1 0x1 DUP3 ADD SWAP2 POP PUSH1 0x20 DUP6 ADD SWAP5 POP PUSH1 0x20 DUP2 ADD SWAP1 POP PUSH2 0x1F96 JUMP JUMPDEST DUP7 DUP4 LT ISZERO PUSH2 0x1FD8 JUMPI DUP5 DUP10 ADD MLOAD PUSH2 0x1FD4 PUSH1 0x1F DUP10 AND DUP3 PUSH2 0x1EE7 JUMP JUMPDEST DUP4 SSTORE POP JUMPDEST PUSH1 0x1 PUSH1 0x2 DUP9 MUL ADD DUP9 SSTORE POP POP POP JUMPDEST POP POP POP POP POP POP JUMP JUMPDEST PUSH32 0x6661756365745F63726561746500000000000000000000000000000000000000 PUSH0 DUP3 ADD MSTORE POP JUMP JUMPDEST PUSH0 PUSH2 0x2021 PUSH1 0xD DUP4 PUSH2 0x1771 JUMP JUMPDEST SWAP2 POP PUSH2 0x202C DUP3 PUSH2 0x1FED JUMP JUMPDEST PUSH1 0x20 DUP3 ADD SWAP1 POP SWAP2 SWAP1 POP JUMP JUMPDEST PUSH0 DUP2 SWAP1 POP SWAP2 SWAP1 POP JUMP JUMPDEST PUSH0 PUSH2 0x205A PUSH2 0x2055 PUSH2 0x2050 DUP5 PUSH2 0x2037 JUMP JUMPDEST PUSH2 0x1C6D JUMP JUMPDEST PUSH2 0x1620 JUMP JUMPDEST SWAP1 POP SWAP2 SWAP1 POP JUMP JUMPDEST PUSH2 0x206A DUP2 PUSH2 0x2040 JUMP JUMPDEST DUP3 MSTORE POP POP JUMP JUMPDEST PUSH0 PUSH1 0x80 DUP3 ADD SWAP1 POP DUP2 DUP2 SUB PUSH0 DUP4 ADD MSTORE PUSH2 0x2087 DUP2 PUSH2 0x2015 JUMP JUMPDEST SWAP1 POP DUP2 DUP2 SUB PUSH1 0x20 DUP4 ADD MSTORE PUSH2 0x209B DUP2 DUP7 PUSH2 0x17A9 JUMP JUMPDEST SWAP1 POP PUSH2 0x20AA PUSH1 0x40 DUP4 ADD DUP6 PUSH2 0x1811 JUMP JUMPDEST PUSH2 0x20B7 PUSH1 0x60 DUP4 ADD DUP5 PUSH2 0x2061 JUMP JUMPDEST SWAP5 SWAP4 POP POP POP POP JUMP JUMPDEST PUSH32 0x4E487B7100000000000000000000000000000000000000000000000000000000 PUSH0 MSTORE PUSH1 0x11 PUSH1 0x4 MSTORE PUSH1 0x24 PUSH0 REVERT JUMPDEST PUSH0 PUSH2 0x20F6 DUP3 PUSH2 0x1620 JUMP JUMPDEST SWAP2 POP PUSH2 0x2101 DUP4 PUSH2 0x1620 JUMP JUMPDEST SWAP3 POP DUP3 DUP3 ADD SWAP1 POP DUP1 DUP3 GT ISZERO PUSH2 0x2119 JUMPI PUSH2 0x2118 PUSH2 0x20BF JUMP JUMPDEST JUMPDEST SWAP3 SWAP2 POP POP JUMP JUMPDEST PUSH32 0x52657175657374206672657175656E6379206F766572206C696D697400000000 PUSH0 DUP3 ADD MSTORE POP JUMP JUMPDEST PUSH0 PUSH2 0x2153 PUSH1 0x1C DUP4 PUSH2 0x1771 JUMP JUMPDEST SWAP2 POP PUSH2 0x215E DUP3 PUSH2 0x211F JUMP JUMPDEST PUSH1 0x20 DUP3 ADD SWAP1 POP SWAP2 SWAP1 POP JUMP JUMPDEST PUSH0 PUSH1 0x20 DUP3 ADD SWAP1 POP DUP2 DUP2 SUB PUSH0 DUP4 ADD MSTORE PUSH2 0x2180 DUP2 PUSH2 0x2147 JUMP JUMPDEST SWAP1 POP SWAP2 SWAP1 POP JUMP JUMPDEST PUSH32 0x5265717565737420616D6F756E74206F766572206C696D697400000000000000 PUSH0 DUP3 ADD MSTORE POP JUMP JUMPDEST PUSH0 PUSH2 0x21BB PUSH1 0x19 DUP4 PUSH2 0x1771 JUMP JUMPDEST SWAP2 POP PUSH2 0x21C6 DUP3 PUSH2 0x2187 JUMP JUMPDEST PUSH1 0x20 DUP3 ADD SWAP1 POP SWAP2 SWAP1 POP JUMP JUMPDEST PUSH0 PUSH1 0x20 DUP3 ADD SWAP1 POP DUP2 DUP2 SUB PUSH0 DUP4 ADD MSTORE PUSH2 0x21E8 DUP2 PUSH2 0x21AF JUMP JUMPDEST SWAP1 POP SWAP2 SWAP1 POP JUMP JUMPDEST PUSH32 0x526571756573742062616C616E6365206F766572206C696D6974000000000000 PUSH0 DUP3 ADD MSTORE POP JUMP JUMPDEST PUSH0 PUSH2 0x2223 PUSH1 0x1A DUP4 PUSH2 0x1771 JUMP JUMPDEST SWAP2 POP PUSH2 0x222E DUP3 PUSH2 0x21EF JUMP JUMPDEST PUSH1 0x20 DUP3 ADD SWAP1 POP SWAP2 SWAP1 POP JUMP JUMPDEST PUSH0 PUSH1 0x20 DUP3 ADD SWAP1 POP DUP2 DUP2 SUB PUSH0 DUP4 ADD MSTORE PUSH2 0x2250 DUP2 PUSH2 0x2217 JUMP JUMPDEST SWAP1 POP SWAP2 SWAP1 POP JUMP JUMPDEST PUSH0 PUSH1 0x40 DUP3 ADD SWAP1 POP PUSH2 0x226A PUSH0 DUP4 ADD DUP6 PUSH2 0x1811 JUMP JUMPDEST PUSH2 0x2277 PUSH1 0x20 DUP4 ADD DUP5 PUSH2 0x1820 JUMP JUMPDEST SWAP4 SWAP3 POP POP POP JUMP JUMPDEST PUSH32 0x6661756365745F746F7075700000000000000000000000000000000000000000 PUSH0 DUP3 ADD MSTORE POP JUMP JUMPDEST PUSH0 PUSH2 0x22B2 PUSH1 0xC DUP4 PUSH2 0x1771 JUMP JUMPDEST SWAP2 POP PUSH2 0x22BD DUP3 PUSH2 0x227E JUMP JUMPDEST PUSH1 0x20 DUP3 ADD SWAP1 POP SWAP2 SWAP1 POP JUMP JUMPDEST PUSH0 PUSH1 0x80 DUP3 ADD SWAP1 POP DUP2 DUP2 SUB PUSH0 DUP4 ADD MSTORE PUSH2 0x22DF DUP2 PUSH2 0x22A6 JUMP JUMPDEST SWAP1 POP DUP2 DUP2 SUB PUSH1 0x20 DUP4 ADD MSTORE PUSH2 0x22F3 DUP2 DUP7 PUSH2 0x17A9 JUMP JUMPDEST SWAP1 POP PUSH2 0x2302 PUSH1 0x40 DUP4 ADD DUP6 PUSH2 0x1811 JUMP JUMPDEST PUSH2 0x230F PUSH1 0x60 DUP4 ADD DUP5 PUSH2 0x1820 JUMP JUMPDEST SWAP5 SWAP4 POP POP POP POP JUMP JUMPDEST PUSH32 0x536974652061646D696E206F6E6C792E00000000000000000000000000000000 PUSH0 DUP3 ADD MSTORE POP JUMP JUMPDEST PUSH0 PUSH2 0x234B PUSH1 0x10 DUP4 PUSH2 0x1771 JUMP JUMPDEST SWAP2 POP PUSH2 0x2356 DUP3 PUSH2 0x2317 JUMP JUMPDEST PUSH1 0x20 DUP3 ADD SWAP1 POP SWAP2 SWAP1 POP JUMP JUMPDEST PUSH0 PUSH1 0x20 DUP3 ADD SWAP1 POP DUP2 DUP2 SUB PUSH0 DUP4 ADD MSTORE PUSH2 0x2378 DUP2 PUSH2 0x233F JUMP JUMPDEST SWAP1 POP SWAP2 SWAP1 POP JUMP INVALID LOG2 PUSH5 0x6970667358 0x22 SLT KECCAK256 0x4F CODECOPY BASEFEE RETURNDATACOPY LOG1 0xD0 0x23 PUSH19 0x39A3C86FF675882DE7F04B6D5163EA5FA22385 RETURNDATASIZE CALLDATASIZE BALANCE PUSH13 0xAA64736F6C6343000814003300 "
    },
    "methodIdentifiers": {
      "site__create_faucet(string,string,address,uint256,uint256,uint256)": "b91e5731",
      "site__limit_frequency(string,uint256)": "cca0b6f4",
      "site__limit_balance(string,uint256)": "775a2ed8",
      "user__request_balance_faucet(string)": "2769ee77",
      "site__change_authority(address)": "39becbbe",
      "site__remove_support(address)": "fcb74bf3",
      "site__add_support(address)": "36fceb3e",
      "site__remove_faucet(string,uint256)": "9731a9c9",
      "user__request_test_transfer(address,address)": "88848517",
      "user__request_topup(string,uint256)": "bc330ac3",
      "user__request_balance_caller(string)": "c611d5f5",
      "site__limit_amount(string,uint256)": "10b92ab7",
      "g__SiteRequests(string,address)": "8521efef",
      "g__SiteSupport(address)": "f31300b4",
      "g__SiteAuthority()": "95875a68",
      "g__FaucetLookup(string)": "22f20aab"
    },
    "gasEstimates": {
      "internal": {
        "ut__assert_admin(address)": "infinite"
      },
      "creation": {
        "executionCost": "26189",
        "codeDepositCost": "1828200",
        "totalCost": "1854389"
      },
      "external": {
        "site__create_faucet(string,string,address,uint256,uint256,uint256)": "infinite",
        "site__limit_frequency(string,uint256)": "infinite",
        "site__limit_balance(string,uint256)": "infinite",
        "user__request_balance_faucet(string)": "infinite",
        "site__change_authority(address)": "26904",
        "site__remove_support(address)": "29306",
        "site__add_support(address)": "27059",
        "site__remove_faucet(string,uint256)": "infinite",
        "user__request_test_transfer(address,address)": "infinite",
        "user__request_topup(string,uint256)": "infinite",
        "user__request_balance_caller(string)": "infinite",
        "site__limit_amount(string,uint256)": "infinite",
        "g__SiteRequests(string,address)": "infinite",
        "g__SiteSupport(address)": "2899",
        "g__SiteAuthority()": "2528",
        "g__FaucetLookup(string)": "infinite"
      }
    },
    "assembly": "    /* \"temp.sol\":301:5126  contract StatstradeFaucetFactory {... */\n  mstore(0x40, 0x80)\n    /* \"temp.sol\":768:822  constructor() {... */\n  callvalue\n  dup1\n  iszero\n  tag_1\n  jumpi\n  0x00\n  dup1\n  revert\ntag_1:\n  pop\n    /* \"temp.sol\":807:817  msg.sender */\n  caller\n    /* \"temp.sol\":788:804  g__SiteAuthority */\n  0x00\n  dup1\n    /* \"temp.sol\":788:817  g__SiteAuthority = msg.sender */\n  0x0100\n  exp\n  dup2\n  sload\n  dup2\n  0xffffffffffffffffffffffffffffffffffffffff\n  mul\n  not\n  and\n  swap1\n  dup4\n  0xffffffffffffffffffffffffffffffffffffffff\n  and\n  mul\n  or\n  swap1\n  sstore\n  pop\n    /* \"temp.sol\":301:5126  contract StatstradeFaucetFactory {... */\n  dataSize(sub_0)\n  dup1\n  dataOffset(sub_0)\n  0x00\n  codecopy\n  0x00\n  return\nstop\n\nsub_0: assembly {\n        /* \"temp.sol\":301:5126  contract StatstradeFaucetFactory {... */\n      mstore(0x40, 0x80)\n      callvalue\n      dup1\n      iszero\n      tag_1\n      jumpi\n      0x00\n      dup1\n      revert\n    tag_1:\n      pop\n      jumpi(tag_2, lt(calldatasize, 0x04))\n      shr(0xe0, calldataload(0x00))\n      dup1\n      0x95875a68\n      gt\n      tag_19\n      jumpi\n      dup1\n      0xc611d5f5\n      gt\n      tag_20\n      jumpi\n      dup1\n      0xc611d5f5\n      eq\n      tag_15\n      jumpi\n      dup1\n      0xcca0b6f4\n      eq\n      tag_16\n      jumpi\n      dup1\n      0xf31300b4\n      eq\n      tag_17\n      jumpi\n      dup1\n      0xfcb74bf3\n      eq\n      tag_18\n      jumpi\n      jump(tag_2)\n    tag_20:\n      dup1\n      0x95875a68\n      eq\n      tag_11\n      jumpi\n      dup1\n      0x9731a9c9\n      eq\n      tag_12\n      jumpi\n      dup1\n      0xb91e5731\n      eq\n      tag_13\n      jumpi\n      dup1\n      0xbc330ac3\n      eq\n      tag_14\n      jumpi\n      jump(tag_2)\n    tag_19:\n      dup1\n      0x39becbbe\n      gt\n      tag_21\n      jumpi\n      dup1\n      0x39becbbe\n      eq\n      tag_7\n      jumpi\n      dup1\n      0x775a2ed8\n      eq\n      tag_8\n      jumpi\n      dup1\n      0x8521efef\n      eq\n      tag_9\n      jumpi\n      dup1\n      0x88848517\n      eq\n      tag_10\n      jumpi\n      jump(tag_2)\n    tag_21:\n      dup1\n      0x10b92ab7\n      eq\n      tag_3\n      jumpi\n      dup1\n      0x22f20aab\n      eq\n      tag_4\n      jumpi\n      dup1\n      0x2769ee77\n      eq\n      tag_5\n      jumpi\n      dup1\n      0x36fceb3e\n      eq\n      tag_6\n      jumpi\n    tag_2:\n      0x00\n      dup1\n      revert\n        /* \"temp.sol\":2410:2687  function site__limit_amount(string memory faucet_id,uint limit) external {... */\n    tag_3:\n      tag_22\n      0x04\n      dup1\n      calldatasize\n      sub\n      dup2\n      add\n      swap1\n      tag_23\n      swap2\n      swap1\n      tag_24\n      jump\t// in\n    tag_23:\n      tag_25\n      jump\t// in\n    tag_22:\n      stop\n        /* \"temp.sol\":713:761  mapping(string => Faucet) public g__FaucetLookup */\n    tag_4:\n      tag_26\n      0x04\n      dup1\n      calldatasize\n      sub\n      dup2\n      add\n      swap1\n      tag_27\n      swap2\n      swap1\n      tag_28\n      jump\t// in\n    tag_27:\n      tag_29\n      jump\t// in\n    tag_26:\n      mload(0x40)\n      tag_30\n      swap7\n      swap6\n      swap5\n      swap4\n      swap3\n      swap2\n      swap1\n      tag_31\n      jump\t// in\n    tag_30:\n      mload(0x40)\n      dup1\n      swap2\n      sub\n      swap1\n      return\n        /* \"temp.sol\":3267:3629  function user__request_balance_faucet(string memory faucet_id) external view returns(uint) {... */\n    tag_5:\n      tag_32\n      0x04\n      dup1\n      calldatasize\n      sub\n      dup2\n      add\n      swap1\n      tag_33\n      swap2\n      swap1\n      tag_28\n      jump\t// in\n    tag_33:\n      tag_34\n      jump\t// in\n    tag_32:\n      mload(0x40)\n      tag_35\n      swap2\n      swap1\n      tag_36\n      jump\t// in\n    tag_35:\n      mload(0x40)\n      dup1\n      swap2\n      sub\n      swap1\n      return\n        /* \"temp.sol\":1286:1442  function site__add_support(address user) external {... */\n    tag_6:\n      tag_37\n      0x04\n      dup1\n      calldatasize\n      sub\n      dup2\n      add\n      swap1\n      tag_38\n      swap2\n      swap1\n      tag_39\n      jump\t// in\n    tag_38:\n      tag_40\n      jump\t// in\n    tag_37:\n      stop\n        /* \"temp.sol\":1105:1280  function site__change_authority(address new_authority) external {... */\n    tag_7:\n      tag_41\n      0x04\n      dup1\n      calldatasize\n      sub\n      dup2\n      add\n      swap1\n      tag_42\n      swap2\n      swap1\n      tag_39\n      jump\t// in\n    tag_42:\n      tag_43\n      jump\t// in\n    tag_41:\n      stop\n        /* \"temp.sol\":2982:3261  function site__limit_balance(string memory faucet_id,uint limit) external {... */\n    tag_8:\n      tag_44\n      0x04\n      dup1\n      calldatasize\n      sub\n      dup2\n      add\n      swap1\n      tag_45\n      swap2\n      swap1\n      tag_24\n      jump\t// in\n    tag_45:\n      tag_46\n      jump\t// in\n    tag_44:\n      stop\n        /* \"temp.sol\":474:540  mapping(string => mapping(address => uint)) public g__SiteRequests */\n    tag_9:\n      tag_47\n      0x04\n      dup1\n      calldatasize\n      sub\n      dup2\n      add\n      swap1\n      tag_48\n      swap2\n      swap1\n      tag_49\n      jump\t// in\n    tag_48:\n      tag_50\n      jump\t// in\n    tag_47:\n      mload(0x40)\n      tag_51\n      swap2\n      swap1\n      tag_36\n      jump\t// in\n    tag_51:\n      mload(0x40)\n      dup1\n      swap2\n      sub\n      swap1\n      return\n        /* \"temp.sol\":4951:5124  function user__request_test_transfer(address token_address,address user_address) external {... */\n    tag_10:\n      tag_52\n      0x04\n      dup1\n      calldatasize\n      sub\n      dup2\n      add\n      swap1\n      tag_53\n      swap2\n      swap1\n      tag_54\n      jump\t// in\n    tag_53:\n      tag_55\n      jump\t// in\n    tag_52:\n      stop\n        /* \"temp.sol\":383:414  address public g__SiteAuthority */\n    tag_11:\n      tag_56\n      tag_57\n      jump\t// in\n    tag_56:\n      mload(0x40)\n      tag_58\n      swap2\n      swap1\n      tag_59\n      jump\t// in\n    tag_58:\n      mload(0x40)\n      dup1\n      swap2\n      sub\n      swap1\n      return\n        /* \"temp.sol\":2252:2404  function site__remove_faucet(string memory faucet_id,uint limit) external {... */\n    tag_12:\n      tag_60\n      0x04\n      dup1\n      calldatasize\n      sub\n      dup2\n      add\n      swap1\n      tag_61\n      swap2\n      swap1\n      tag_24\n      jump\t// in\n    tag_61:\n      tag_62\n      jump\t// in\n    tag_60:\n      stop\n        /* \"temp.sol\":1579:2246  function site__create_faucet(string memory faucet_id,string memory name,address token_address,uint limit_amount,uint limit_frequency,uint limit_balance) external {... */\n    tag_13:\n      tag_63\n      0x04\n      dup1\n      calldatasize\n      sub\n      dup2\n      add\n      swap1\n      tag_64\n      swap2\n      swap1\n      tag_65\n      jump\t// in\n    tag_64:\n      tag_66\n      jump\t// in\n    tag_63:\n      stop\n        /* \"temp.sol\":4009:4945  function user__request_topup(string memory faucet_id,uint amount) external {... */\n    tag_14:\n      tag_67\n      0x04\n      dup1\n      calldatasize\n      sub\n      dup2\n      add\n      swap1\n      tag_68\n      swap2\n      swap1\n      tag_24\n      jump\t// in\n    tag_68:\n      tag_69\n      jump\t// in\n    tag_67:\n      stop\n        /* \"temp.sol\":3635:4003  function user__request_balance_caller(string memory faucet_id) external view returns(uint) {... */\n    tag_15:\n      tag_70\n      0x04\n      dup1\n      calldatasize\n      sub\n      dup2\n      add\n      swap1\n      tag_71\n      swap2\n      swap1\n      tag_28\n      jump\t// in\n    tag_71:\n      tag_72\n      jump\t// in\n    tag_70:\n      mload(0x40)\n      tag_73\n      swap2\n      swap1\n      tag_36\n      jump\t// in\n    tag_73:\n      mload(0x40)\n      dup1\n      swap2\n      sub\n      swap1\n      return\n        /* \"temp.sol\":2693:2976  function site__limit_frequency(string memory faucet_id,uint limit) external {... */\n    tag_16:\n      tag_74\n      0x04\n      dup1\n      calldatasize\n      sub\n      dup2\n      add\n      swap1\n      tag_75\n      swap2\n      swap1\n      tag_24\n      jump\t// in\n    tag_75:\n      tag_76\n      jump\t// in\n    tag_74:\n      stop\n        /* \"temp.sol\":421:467  mapping(address => bool) public g__SiteSupport */\n    tag_17:\n      tag_77\n      0x04\n      dup1\n      calldatasize\n      sub\n      dup2\n      add\n      swap1\n      tag_78\n      swap2\n      swap1\n      tag_39\n      jump\t// in\n    tag_78:\n      tag_79\n      jump\t// in\n    tag_77:\n      mload(0x40)\n      tag_80\n      swap2\n      swap1\n      tag_81\n      jump\t// in\n    tag_80:\n      mload(0x40)\n      dup1\n      swap2\n      sub\n      swap1\n      return\n        /* \"temp.sol\":1448:1573  function site__remove_support(address user) external {... */\n    tag_18:\n      tag_82\n      0x04\n      dup1\n      calldatasize\n      sub\n      dup2\n      add\n      swap1\n      tag_83\n      swap2\n      swap1\n      tag_39\n      jump\t// in\n    tag_83:\n      tag_84\n      jump\t// in\n    tag_82:\n      stop\n        /* \"temp.sol\":2410:2687  function site__limit_amount(string memory faucet_id,uint limit) external {... */\n    tag_25:\n        /* \"temp.sol\":2489:2517  ut__assert_admin(msg.sender) */\n      tag_86\n        /* \"temp.sol\":2506:2516  msg.sender */\n      caller\n        /* \"temp.sol\":2489:2505  ut__assert_admin */\n      tag_87\n        /* \"temp.sol\":2489:2517  ut__assert_admin(msg.sender) */\n      jump\t// in\n    tag_86:\n        /* \"temp.sol\":2576:2595  FaucetStatus.Active */\n      0x01\n        /* \"temp.sol\":2539:2595  g__FaucetLookup[faucet_id].status == FaucetStatus.Active */\n      dup1\n      dup2\n      gt\n      iszero\n      tag_88\n      jumpi\n      tag_89\n      tag_90\n      jump\t// in\n    tag_89:\n    tag_88:\n        /* \"temp.sol\":2539:2554  g__FaucetLookup */\n      0x03\n        /* \"temp.sol\":2555:2564  faucet_id */\n      dup4\n        /* \"temp.sol\":2539:2565  g__FaucetLookup[faucet_id] */\n      mload(0x40)\n      tag_91\n      swap2\n      swap1\n      tag_92\n      jump\t// in\n    tag_91:\n      swap1\n      dup2\n      mstore\n      0x20\n      add\n      mload(0x40)\n      dup1\n      swap2\n      sub\n      swap1\n      keccak256\n        /* \"temp.sol\":2539:2572  g__FaucetLookup[faucet_id].status */\n      0x00\n      add\n      0x00\n      swap1\n      sload\n      swap1\n      0x0100\n      exp\n      swap1\n      div\n      0xff\n      and\n        /* \"temp.sol\":2539:2595  g__FaucetLookup[faucet_id].status == FaucetStatus.Active */\n      0x01\n      dup2\n      gt\n      iszero\n      tag_93\n      jumpi\n      tag_94\n      tag_90\n      jump\t// in\n    tag_94:\n    tag_93:\n      eq\n        /* \"temp.sol\":2523:2628  require(... */\n      tag_95\n      jumpi\n      mload(0x40)\n      0x08c379a000000000000000000000000000000000000000000000000000000000\n      dup2\n      mstore\n      0x04\n      add\n      tag_96\n      swap1\n      tag_97\n      jump\t// in\n    tag_96:\n      mload(0x40)\n      dup1\n      swap2\n      sub\n      swap1\n      revert\n    tag_95:\n        /* \"temp.sol\":2677:2682  limit */\n      dup1\n        /* \"temp.sol\":2634:2649  g__FaucetLookup */\n      0x03\n        /* \"temp.sol\":2650:2659  faucet_id */\n      dup4\n        /* \"temp.sol\":2634:2660  g__FaucetLookup[faucet_id] */\n      mload(0x40)\n      tag_98\n      swap2\n      swap1\n      tag_92\n      jump\t// in\n    tag_98:\n      swap1\n      dup2\n      mstore\n      0x20\n      add\n      mload(0x40)\n      dup1\n      swap2\n      sub\n      swap1\n      keccak256\n        /* \"temp.sol\":2634:2673  g__FaucetLookup[faucet_id].limit_amount */\n      pop\n        /* \"temp.sol\":2634:2682  g__FaucetLookup[faucet_id].limit_amount == limit */\n      pop\n        /* \"temp.sol\":2410:2687  function site__limit_amount(string memory faucet_id,uint limit) external {... */\n      pop\n      pop\n      jump\t// out\n        /* \"temp.sol\":713:761  mapping(string => Faucet) public g__FaucetLookup */\n    tag_29:\n      0x03\n      dup2\n      dup1\n      mload\n      0x20\n      dup2\n      add\n      dup3\n      add\n      dup1\n      mload\n      dup5\n      dup3\n      mstore\n      0x20\n      dup4\n      add\n      0x20\n      dup6\n      add\n      keccak256\n      dup2\n      dup4\n      mstore\n      dup1\n      swap6\n      pop\n      pop\n      pop\n      pop\n      pop\n      pop\n      0x00\n      swap2\n      pop\n      swap1\n      pop\n      dup1\n      0x00\n      add\n      0x00\n      swap1\n      sload\n      swap1\n      0x0100\n      exp\n      swap1\n      div\n      0xff\n      and\n      swap1\n      dup1\n      0x01\n      add\n      dup1\n      sload\n      tag_99\n      swap1\n      tag_100\n      jump\t// in\n    tag_99:\n      dup1\n      0x1f\n      add\n      0x20\n      dup1\n      swap2\n      div\n      mul\n      0x20\n      add\n      mload(0x40)\n      swap1\n      dup2\n      add\n      0x40\n      mstore\n      dup1\n      swap3\n      swap2\n      swap1\n      dup2\n      dup2\n      mstore\n      0x20\n      add\n      dup3\n      dup1\n      sload\n      tag_101\n      swap1\n      tag_100\n      jump\t// in\n    tag_101:\n      dup1\n      iszero\n      tag_102\n      jumpi\n      dup1\n      0x1f\n      lt\n      tag_103\n      jumpi\n      0x0100\n      dup1\n      dup4\n      sload\n      div\n      mul\n      dup4\n      mstore\n      swap2\n      0x20\n      add\n      swap2\n      jump(tag_102)\n    tag_103:\n      dup3\n      add\n      swap2\n      swap1\n      0x00\n      mstore\n      keccak256(0x00, 0x20)\n      swap1\n    tag_104:\n      dup2\n      sload\n      dup2\n      mstore\n      swap1\n      0x01\n      add\n      swap1\n      0x20\n      add\n      dup1\n      dup4\n      gt\n      tag_104\n      jumpi\n      dup3\n      swap1\n      sub\n      0x1f\n      and\n      dup3\n      add\n      swap2\n    tag_102:\n      pop\n      pop\n      pop\n      pop\n      pop\n      swap1\n      dup1\n      0x02\n      add\n      0x00\n      swap1\n      sload\n      swap1\n      0x0100\n      exp\n      swap1\n      div\n      0xffffffffffffffffffffffffffffffffffffffff\n      and\n      swap1\n      dup1\n      0x03\n      add\n      sload\n      swap1\n      dup1\n      0x04\n      add\n      sload\n      swap1\n      dup1\n      0x05\n      add\n      sload\n      swap1\n      pop\n      dup7\n      jump\t// out\n        /* \"temp.sol\":3267:3629  function user__request_balance_faucet(string memory faucet_id) external view returns(uint) {... */\n    tag_34:\n        /* \"temp.sol\":3352:3356  uint */\n      0x00\n        /* \"temp.sol\":3417:3436  FaucetStatus.Active */\n      0x01\n        /* \"temp.sol\":3380:3436  g__FaucetLookup[faucet_id].status == FaucetStatus.Active */\n      dup1\n      dup2\n      gt\n      iszero\n      tag_106\n      jumpi\n      tag_107\n      tag_90\n      jump\t// in\n    tag_107:\n    tag_106:\n        /* \"temp.sol\":3380:3395  g__FaucetLookup */\n      0x03\n        /* \"temp.sol\":3396:3405  faucet_id */\n      dup4\n        /* \"temp.sol\":3380:3406  g__FaucetLookup[faucet_id] */\n      mload(0x40)\n      tag_108\n      swap2\n      swap1\n      tag_92\n      jump\t// in\n    tag_108:\n      swap1\n      dup2\n      mstore\n      0x20\n      add\n      mload(0x40)\n      dup1\n      swap2\n      sub\n      swap1\n      keccak256\n        /* \"temp.sol\":3380:3413  g__FaucetLookup[faucet_id].status */\n      0x00\n      add\n      0x00\n      swap1\n      sload\n      swap1\n      0x0100\n      exp\n      swap1\n      div\n      0xff\n      and\n        /* \"temp.sol\":3380:3436  g__FaucetLookup[faucet_id].status == FaucetStatus.Active */\n      0x01\n      dup2\n      gt\n      iszero\n      tag_109\n      jumpi\n      tag_110\n      tag_90\n      jump\t// in\n    tag_110:\n    tag_109:\n      eq\n        /* \"temp.sol\":3364:3469  require(... */\n      tag_111\n      jumpi\n      mload(0x40)\n      0x08c379a000000000000000000000000000000000000000000000000000000000\n      dup2\n      mstore\n      0x04\n      add\n      tag_112\n      swap1\n      tag_97\n      jump\t// in\n    tag_112:\n      mload(0x40)\n      dup1\n      swap2\n      sub\n      swap1\n      revert\n    tag_111:\n        /* \"temp.sol\":3475:3496  address token_address */\n      0x00\n        /* \"temp.sol\":3499:3514  g__FaucetLookup */\n      0x03\n        /* \"temp.sol\":3515:3524  faucet_id */\n      dup4\n        /* \"temp.sol\":3499:3525  g__FaucetLookup[faucet_id] */\n      mload(0x40)\n      tag_113\n      swap2\n      swap1\n      tag_92\n      jump\t// in\n    tag_113:\n      swap1\n      dup2\n      mstore\n      0x20\n      add\n      mload(0x40)\n      dup1\n      swap2\n      sub\n      swap1\n      keccak256\n        /* \"temp.sol\":3499:3539  g__FaucetLookup[faucet_id].token_address */\n      0x02\n      add\n      0x00\n      swap1\n      sload\n      swap1\n      0x0100\n      exp\n      swap1\n      div\n      0xffffffffffffffffffffffffffffffffffffffff\n      and\n        /* \"temp.sol\":3475:3539  address token_address = g__FaucetLookup[faucet_id].token_address */\n      swap1\n      pop\n        /* \"temp.sol\":3545:3557  IERC20 erc20 */\n      0x00\n        /* \"temp.sol\":3567:3580  token_address */\n      dup2\n        /* \"temp.sol\":3545:3581  IERC20 erc20 = IERC20(token_address) */\n      swap1\n      pop\n        /* \"temp.sol\":3594:3599  erc20 */\n      dup1\n        /* \"temp.sol\":3594:3609  erc20.balanceOf */\n      0xffffffffffffffffffffffffffffffffffffffff\n      and\n      0x70a08231\n        /* \"temp.sol\":3618:3622  this */\n      address\n        /* \"temp.sol\":3594:3624  erc20.balanceOf(address(this)) */\n      mload(0x40)\n      dup3\n      0xffffffff\n      and\n      0xe0\n      shl\n      dup2\n      mstore\n      0x04\n      add\n      tag_114\n      swap2\n      swap1\n      tag_59\n      jump\t// in\n    tag_114:\n      0x20\n      mload(0x40)\n      dup1\n      dup4\n      sub\n      dup2\n      dup7\n      gas\n      staticcall\n      iszero\n      dup1\n      iszero\n      tag_116\n      jumpi\n      returndatasize\n      0x00\n      dup1\n      returndatacopy\n      revert(0x00, returndatasize)\n    tag_116:\n      pop\n      pop\n      pop\n      pop\n      mload(0x40)\n      returndatasize\n      not(0x1f)\n      0x1f\n      dup3\n      add\n      and\n      dup3\n      add\n      dup1\n      0x40\n      mstore\n      pop\n      dup2\n      add\n      swap1\n      tag_117\n      swap2\n      swap1\n      tag_118\n      jump\t// in\n    tag_117:\n        /* \"temp.sol\":3587:3624  return erc20.balanceOf(address(this)) */\n      swap3\n      pop\n      pop\n      pop\n        /* \"temp.sol\":3267:3629  function user__request_balance_faucet(string memory faucet_id) external view returns(uint) {... */\n      swap2\n      swap1\n      pop\n      jump\t// out\n        /* \"temp.sol\":1286:1442  function site__add_support(address user) external {... */\n    tag_40:\n        /* \"temp.sol\":1364:1380  g__SiteAuthority */\n      0x00\n      dup1\n      sload\n      swap1\n      0x0100\n      exp\n      swap1\n      div\n      0xffffffffffffffffffffffffffffffffffffffff\n      and\n        /* \"temp.sol\":1350:1380  msg.sender == g__SiteAuthority */\n      0xffffffffffffffffffffffffffffffffffffffff\n      and\n        /* \"temp.sol\":1350:1360  msg.sender */\n      caller\n        /* \"temp.sol\":1350:1380  msg.sender == g__SiteAuthority */\n      0xffffffffffffffffffffffffffffffffffffffff\n      and\n      eq\n        /* \"temp.sol\":1342:1404  require(msg.sender == g__SiteAuthority,\"Site authority only.\") */\n      tag_120\n      jumpi\n      mload(0x40)\n      0x08c379a000000000000000000000000000000000000000000000000000000000\n      dup2\n      mstore\n      0x04\n      add\n      tag_121\n      swap1\n      tag_122\n      jump\t// in\n    tag_121:\n      mload(0x40)\n      dup1\n      swap2\n      sub\n      swap1\n      revert\n    tag_120:\n        /* \"temp.sol\":1433:1437  true */\n      0x01\n        /* \"temp.sol\":1410:1424  g__SiteSupport */\n      dup1\n        /* \"temp.sol\":1410:1430  g__SiteSupport[user] */\n      0x00\n        /* \"temp.sol\":1425:1429  user */\n      dup4\n        /* \"temp.sol\":1410:1430  g__SiteSupport[user] */\n      0xffffffffffffffffffffffffffffffffffffffff\n      and\n      0xffffffffffffffffffffffffffffffffffffffff\n      and\n      dup2\n      mstore\n      0x20\n      add\n      swap1\n      dup2\n      mstore\n      0x20\n      add\n      0x00\n      keccak256\n      0x00\n        /* \"temp.sol\":1410:1437  g__SiteSupport[user] = true */\n      0x0100\n      exp\n      dup2\n      sload\n      dup2\n      0xff\n      mul\n      not\n      and\n      swap1\n      dup4\n      iszero\n      iszero\n      mul\n      or\n      swap1\n      sstore\n      pop\n        /* \"temp.sol\":1286:1442  function site__add_support(address user) external {... */\n      pop\n      jump\t// out\n        /* \"temp.sol\":1105:1280  function site__change_authority(address new_authority) external {... */\n    tag_43:\n        /* \"temp.sol\":1197:1213  g__SiteAuthority */\n      0x00\n      dup1\n      sload\n      swap1\n      0x0100\n      exp\n      swap1\n      div\n      0xffffffffffffffffffffffffffffffffffffffff\n      and\n        /* \"temp.sol\":1183:1213  msg.sender == g__SiteAuthority */\n      0xffffffffffffffffffffffffffffffffffffffff\n      and\n        /* \"temp.sol\":1183:1193  msg.sender */\n      caller\n        /* \"temp.sol\":1183:1213  msg.sender == g__SiteAuthority */\n      0xffffffffffffffffffffffffffffffffffffffff\n      and\n      eq\n        /* \"temp.sol\":1175:1237  require(msg.sender == g__SiteAuthority,\"Site authority only.\") */\n      tag_124\n      jumpi\n      mload(0x40)\n      0x08c379a000000000000000000000000000000000000000000000000000000000\n      dup2\n      mstore\n      0x04\n      add\n      tag_125\n      swap1\n      tag_122\n      jump\t// in\n    tag_125:\n      mload(0x40)\n      dup1\n      swap2\n      sub\n      swap1\n      revert\n    tag_124:\n        /* \"temp.sol\":1262:1275  new_authority */\n      dup1\n        /* \"temp.sol\":1243:1259  g__SiteAuthority */\n      0x00\n      dup1\n        /* \"temp.sol\":1243:1275  g__SiteAuthority = new_authority */\n      0x0100\n      exp\n      dup2\n      sload\n      dup2\n      0xffffffffffffffffffffffffffffffffffffffff\n      mul\n      not\n      and\n      swap1\n      dup4\n      0xffffffffffffffffffffffffffffffffffffffff\n      and\n      mul\n      or\n      swap1\n      sstore\n      pop\n        /* \"temp.sol\":1105:1280  function site__change_authority(address new_authority) external {... */\n      pop\n      jump\t// out\n        /* \"temp.sol\":2982:3261  function site__limit_balance(string memory faucet_id,uint limit) external {... */\n    tag_46:\n        /* \"temp.sol\":3062:3090  ut__assert_admin(msg.sender) */\n      tag_127\n        /* \"temp.sol\":3079:3089  msg.sender */\n      caller\n        /* \"temp.sol\":3062:3078  ut__assert_admin */\n      tag_87\n        /* \"temp.sol\":3062:3090  ut__assert_admin(msg.sender) */\n      jump\t// in\n    tag_127:\n        /* \"temp.sol\":3149:3168  FaucetStatus.Active */\n      0x01\n        /* \"temp.sol\":3112:3168  g__FaucetLookup[faucet_id].status == FaucetStatus.Active */\n      dup1\n      dup2\n      gt\n      iszero\n      tag_128\n      jumpi\n      tag_129\n      tag_90\n      jump\t// in\n    tag_129:\n    tag_128:\n        /* \"temp.sol\":3112:3127  g__FaucetLookup */\n      0x03\n        /* \"temp.sol\":3128:3137  faucet_id */\n      dup4\n        /* \"temp.sol\":3112:3138  g__FaucetLookup[faucet_id] */\n      mload(0x40)\n      tag_130\n      swap2\n      swap1\n      tag_92\n      jump\t// in\n    tag_130:\n      swap1\n      dup2\n      mstore\n      0x20\n      add\n      mload(0x40)\n      dup1\n      swap2\n      sub\n      swap1\n      keccak256\n        /* \"temp.sol\":3112:3145  g__FaucetLookup[faucet_id].status */\n      0x00\n      add\n      0x00\n      swap1\n      sload\n      swap1\n      0x0100\n      exp\n      swap1\n      div\n      0xff\n      and\n        /* \"temp.sol\":3112:3168  g__FaucetLookup[faucet_id].status == FaucetStatus.Active */\n      0x01\n      dup2\n      gt\n      iszero\n      tag_131\n      jumpi\n      tag_132\n      tag_90\n      jump\t// in\n    tag_132:\n    tag_131:\n      eq\n        /* \"temp.sol\":3096:3201  require(... */\n      tag_133\n      jumpi\n      mload(0x40)\n      0x08c379a000000000000000000000000000000000000000000000000000000000\n      dup2\n      mstore\n      0x04\n      add\n      tag_134\n      swap1\n      tag_97\n      jump\t// in\n    tag_134:\n      mload(0x40)\n      dup1\n      swap2\n      sub\n      swap1\n      revert\n    tag_133:\n        /* \"temp.sol\":3251:3256  limit */\n      dup1\n        /* \"temp.sol\":3207:3222  g__FaucetLookup */\n      0x03\n        /* \"temp.sol\":3223:3232  faucet_id */\n      dup4\n        /* \"temp.sol\":3207:3233  g__FaucetLookup[faucet_id] */\n      mload(0x40)\n      tag_135\n      swap2\n      swap1\n      tag_92\n      jump\t// in\n    tag_135:\n      swap1\n      dup2\n      mstore\n      0x20\n      add\n      mload(0x40)\n      dup1\n      swap2\n      sub\n      swap1\n      keccak256\n        /* \"temp.sol\":3207:3247  g__FaucetLookup[faucet_id].limit_balance */\n      pop\n        /* \"temp.sol\":3207:3256  g__FaucetLookup[faucet_id].limit_balance == limit */\n      pop\n        /* \"temp.sol\":2982:3261  function site__limit_balance(string memory faucet_id,uint limit) external {... */\n      pop\n      pop\n      jump\t// out\n        /* \"temp.sol\":474:540  mapping(string => mapping(address => uint)) public g__SiteRequests */\n    tag_50:\n      0x02\n      dup3\n      dup1\n      mload\n      0x20\n      dup2\n      add\n      dup3\n      add\n      dup1\n      mload\n      dup5\n      dup3\n      mstore\n      0x20\n      dup4\n      add\n      0x20\n      dup6\n      add\n      keccak256\n      dup2\n      dup4\n      mstore\n      dup1\n      swap6\n      pop\n      pop\n      pop\n      pop\n      pop\n      pop\n      0x20\n      mstore\n      dup1\n      0x00\n      mstore\n      keccak256(0x00, 0x40)\n      0x00\n      swap2\n      pop\n      swap2\n      pop\n      pop\n      sload\n      dup2\n      jump\t// out\n        /* \"temp.sol\":4951:5124  function user__request_test_transfer(address token_address,address user_address) external {... */\n    tag_55:\n        /* \"temp.sol\":5047:5059  IERC20 erc20 */\n      0x00\n        /* \"temp.sol\":5069:5082  token_address */\n      dup3\n        /* \"temp.sol\":5047:5083  IERC20 erc20 = IERC20(token_address) */\n      swap1\n      pop\n        /* \"temp.sol\":5089:5094  erc20 */\n      dup1\n        /* \"temp.sol\":5089:5103  erc20.transfer */\n      0xffffffffffffffffffffffffffffffffffffffff\n      and\n      0xa9059cbb\n        /* \"temp.sol\":5104:5116  user_address */\n      dup4\n        /* \"temp.sol\":5117:5118  1 */\n      0x01\n        /* \"temp.sol\":5089:5119  erc20.transfer(user_address,1) */\n      mload(0x40)\n      dup4\n      0xffffffff\n      and\n      0xe0\n      shl\n      dup2\n      mstore\n      0x04\n      add\n      tag_137\n      swap3\n      swap2\n      swap1\n      tag_138\n      jump\t// in\n    tag_137:\n      0x20\n      mload(0x40)\n      dup1\n      dup4\n      sub\n      dup2\n      0x00\n      dup8\n      gas\n      call\n      iszero\n      dup1\n      iszero\n      tag_140\n      jumpi\n      returndatasize\n      0x00\n      dup1\n      returndatacopy\n      revert(0x00, returndatasize)\n    tag_140:\n      pop\n      pop\n      pop\n      pop\n      mload(0x40)\n      returndatasize\n      not(0x1f)\n      0x1f\n      dup3\n      add\n      and\n      dup3\n      add\n      dup1\n      0x40\n      mstore\n      pop\n      dup2\n      add\n      swap1\n      tag_141\n      swap2\n      swap1\n      tag_142\n      jump\t// in\n    tag_141:\n      pop\n        /* \"temp.sol\":5041:5124  {... */\n      pop\n        /* \"temp.sol\":4951:5124  function user__request_test_transfer(address token_address,address user_address) external {... */\n      pop\n      pop\n      jump\t// out\n        /* \"temp.sol\":383:414  address public g__SiteAuthority */\n    tag_57:\n      0x00\n      dup1\n      sload\n      swap1\n      0x0100\n      exp\n      swap1\n      div\n      0xffffffffffffffffffffffffffffffffffffffff\n      and\n      dup2\n      jump\t// out\n        /* \"temp.sol\":2252:2404  function site__remove_faucet(string memory faucet_id,uint limit) external {... */\n    tag_62:\n        /* \"temp.sol\":2332:2360  ut__assert_admin(msg.sender) */\n      tag_144\n        /* \"temp.sol\":2349:2359  msg.sender */\n      caller\n        /* \"temp.sol\":2332:2348  ut__assert_admin */\n      tag_87\n        /* \"temp.sol\":2332:2360  ut__assert_admin(msg.sender) */\n      jump\t// in\n    tag_144:\n        /* \"temp.sol\":2373:2388  g__FaucetLookup */\n      0x03\n        /* \"temp.sol\":2389:2398  faucet_id */\n      dup3\n        /* \"temp.sol\":2373:2399  g__FaucetLookup[faucet_id] */\n      mload(0x40)\n      tag_145\n      swap2\n      swap1\n      tag_92\n      jump\t// in\n    tag_145:\n      swap1\n      dup2\n      mstore\n      0x20\n      add\n      mload(0x40)\n      dup1\n      swap2\n      sub\n      swap1\n      keccak256\n      0x00\n        /* \"temp.sol\":2366:2399  delete g__FaucetLookup[faucet_id] */\n      dup1\n      dup3\n      add\n      exp(0x0100, 0x00)\n      dup2\n      sload\n      swap1\n      0xff\n      mul\n      not\n      and\n      swap1\n      sstore\n      0x01\n      dup3\n      add\n      0x00\n      tag_146\n      swap2\n      swap1\n      tag_147\n      jump\t// in\n    tag_146:\n      0x02\n      dup3\n      add\n      exp(0x0100, 0x00)\n      dup2\n      sload\n      swap1\n      0xffffffffffffffffffffffffffffffffffffffff\n      mul\n      not\n      and\n      swap1\n      sstore\n      0x03\n      dup3\n      add\n      0x00\n      swap1\n      sstore\n      0x04\n      dup3\n      add\n      0x00\n      swap1\n      sstore\n      0x05\n      dup3\n      add\n      0x00\n      swap1\n      sstore\n      pop\n      pop\n        /* \"temp.sol\":2252:2404  function site__remove_faucet(string memory faucet_id,uint limit) external {... */\n      pop\n      pop\n      jump\t// out\n        /* \"temp.sol\":1579:2246  function site__create_faucet(string memory faucet_id,string memory name,address token_address,uint limit_amount,uint limit_frequency,uint limit_balance) external {... */\n    tag_66:\n        /* \"temp.sol\":1747:1775  ut__assert_admin(msg.sender) */\n      tag_149\n        /* \"temp.sol\":1764:1774  msg.sender */\n      caller\n        /* \"temp.sol\":1747:1763  ut__assert_admin */\n      tag_87\n        /* \"temp.sol\":1747:1775  ut__assert_admin(msg.sender) */\n      jump\t// in\n    tag_149:\n        /* \"temp.sol\":1822:1837  g__FaucetLookup */\n      0x03\n        /* \"temp.sol\":1838:1847  faucet_id */\n      dup7\n        /* \"temp.sol\":1822:1848  g__FaucetLookup[faucet_id] */\n      mload(0x40)\n      tag_150\n      swap2\n      swap1\n      tag_92\n      jump\t// in\n    tag_150:\n      swap1\n      dup2\n      mstore\n      0x20\n      add\n      mload(0x40)\n      dup1\n      swap2\n      sub\n      swap1\n      keccak256\n        /* \"temp.sol\":1822:1855  g__FaucetLookup[faucet_id].status */\n      0x00\n      add\n      0x00\n      swap1\n      sload\n      swap1\n      0x0100\n      exp\n      swap1\n      div\n      0xff\n      and\n        /* \"temp.sol\":1796:1855  FaucetStatus.Undefined == g__FaucetLookup[faucet_id].status */\n      0x01\n      dup2\n      gt\n      iszero\n      tag_151\n      jumpi\n      tag_152\n      tag_90\n      jump\t// in\n    tag_152:\n    tag_151:\n        /* \"temp.sol\":1796:1818  FaucetStatus.Undefined */\n      0x00\n        /* \"temp.sol\":1796:1855  FaucetStatus.Undefined == g__FaucetLookup[faucet_id].status */\n      0x01\n      dup2\n      gt\n      iszero\n      tag_153\n      jumpi\n      tag_154\n      tag_90\n      jump\t// in\n    tag_154:\n    tag_153:\n      eq\n        /* \"temp.sol\":1781:1893  require(... */\n      tag_155\n      jumpi\n      mload(0x40)\n      0x08c379a000000000000000000000000000000000000000000000000000000000\n      dup2\n      mstore\n      0x04\n      add\n      tag_156\n      swap1\n      tag_157\n      jump\t// in\n    tag_156:\n      mload(0x40)\n      dup1\n      swap2\n      sub\n      swap1\n      revert\n    tag_155:\n        /* \"temp.sol\":1899:1919  Faucet memory faucet */\n      0x00\n        /* \"temp.sol\":1922:2135  Faucet({... */\n      mload(0x40)\n      dup1\n      0xc0\n      add\n      0x40\n      mstore\n      dup1\n        /* \"temp.sol\":1945:1964  FaucetStatus.Active */\n      0x01\n        /* \"temp.sol\":1922:2135  Faucet({... */\n      dup1\n      dup2\n      gt\n      iszero\n      tag_158\n      jumpi\n      tag_159\n      tag_90\n      jump\t// in\n    tag_159:\n    tag_158:\n      dup2\n      mstore\n      0x20\n      add\n        /* \"temp.sol\":1978:1982  name */\n      dup8\n        /* \"temp.sol\":1922:2135  Faucet({... */\n      dup2\n      mstore\n      0x20\n      add\n        /* \"temp.sol\":2005:2018  token_address */\n      dup7\n        /* \"temp.sol\":1922:2135  Faucet({... */\n      0xffffffffffffffffffffffffffffffffffffffff\n      and\n      dup2\n      mstore\n      0x20\n      add\n        /* \"temp.sol\":2040:2052  limit_amount */\n      dup6\n        /* \"temp.sol\":1922:2135  Faucet({... */\n      dup2\n      mstore\n      0x20\n      add\n        /* \"temp.sol\":2077:2092  limit_frequency */\n      dup5\n        /* \"temp.sol\":1922:2135  Faucet({... */\n      dup2\n      mstore\n      0x20\n      add\n        /* \"temp.sol\":2115:2128  limit_balance */\n      dup4\n        /* \"temp.sol\":1922:2135  Faucet({... */\n      dup2\n      mstore\n      pop\n        /* \"temp.sol\":1899:2135  Faucet memory faucet = Faucet({... */\n      swap1\n      pop\n        /* \"temp.sol\":2170:2176  faucet */\n      dup1\n        /* \"temp.sol\":2141:2156  g__FaucetLookup */\n      0x03\n        /* \"temp.sol\":2157:2166  faucet_id */\n      dup9\n        /* \"temp.sol\":2141:2167  g__FaucetLookup[faucet_id] */\n      mload(0x40)\n      tag_160\n      swap2\n      swap1\n      tag_92\n      jump\t// in\n    tag_160:\n      swap1\n      dup2\n      mstore\n      0x20\n      add\n      mload(0x40)\n      dup1\n      swap2\n      sub\n      swap1\n      keccak256\n        /* \"temp.sol\":2141:2176  g__FaucetLookup[faucet_id] = faucet */\n      0x00\n      dup3\n      add\n      mload\n      dup2\n      0x00\n      add\n      exp(0x0100, 0x00)\n      dup2\n      sload\n      dup2\n      0xff\n      mul\n      not\n      and\n      swap1\n      dup4\n      0x01\n      dup2\n      gt\n      iszero\n      tag_161\n      jumpi\n      tag_162\n      tag_90\n      jump\t// in\n    tag_162:\n    tag_161:\n      mul\n      or\n      swap1\n      sstore\n      pop\n      0x20\n      dup3\n      add\n      mload\n      dup2\n      0x01\n      add\n      swap1\n      dup2\n      tag_163\n      swap2\n      swap1\n      tag_164\n      jump\t// in\n    tag_163:\n      pop\n      0x40\n      dup3\n      add\n      mload\n      dup2\n      0x02\n      add\n      exp(0x0100, 0x00)\n      dup2\n      sload\n      dup2\n      0xffffffffffffffffffffffffffffffffffffffff\n      mul\n      not\n      and\n      swap1\n      dup4\n      0xffffffffffffffffffffffffffffffffffffffff\n      and\n      mul\n      or\n      swap1\n      sstore\n      pop\n      0x60\n      dup3\n      add\n      mload\n      dup2\n      0x03\n      add\n      sstore\n      0x80\n      dup3\n      add\n      mload\n      dup2\n      0x04\n      add\n      sstore\n      0xa0\n      dup3\n      add\n      mload\n      dup2\n      0x05\n      add\n      sstore\n      swap1\n      pop\n      pop\n        /* \"temp.sol\":2187:2241  FaucetEvent(\"faucet_create\",faucet_id,token_address,0) */\n      0xa418229b0cd6275bfb74006a1c50d3e0a604f25115315505f82ef6ebb8b2560b\n        /* \"temp.sol\":2215:2224  faucet_id */\n      dup8\n        /* \"temp.sol\":2225:2238  token_address */\n      dup7\n        /* \"temp.sol\":2239:2240  0 */\n      0x00\n        /* \"temp.sol\":2187:2241  FaucetEvent(\"faucet_create\",faucet_id,token_address,0) */\n      mload(0x40)\n      tag_165\n      swap4\n      swap3\n      swap2\n      swap1\n      tag_166\n      jump\t// in\n    tag_165:\n      mload(0x40)\n      dup1\n      swap2\n      sub\n      swap1\n      log1\n        /* \"temp.sol\":1741:2246  {... */\n      pop\n        /* \"temp.sol\":1579:2246  function site__create_faucet(string memory faucet_id,string memory name,address token_address,uint limit_amount,uint limit_frequency,uint limit_balance) external {... */\n      pop\n      pop\n      pop\n      pop\n      pop\n      pop\n      jump\t// out\n        /* \"temp.sol\":4009:4945  function user__request_topup(string memory faucet_id,uint amount) external {... */\n    tag_69:\n        /* \"temp.sol\":4090:4110  Faucet memory faucet */\n      0x00\n        /* \"temp.sol\":4113:4128  g__FaucetLookup */\n      0x03\n        /* \"temp.sol\":4129:4138  faucet_id */\n      dup4\n        /* \"temp.sol\":4113:4139  g__FaucetLookup[faucet_id] */\n      mload(0x40)\n      tag_168\n      swap2\n      swap1\n      tag_92\n      jump\t// in\n    tag_168:\n      swap1\n      dup2\n      mstore\n      0x20\n      add\n      mload(0x40)\n      dup1\n      swap2\n      sub\n      swap1\n      keccak256\n        /* \"temp.sol\":4090:4139  Faucet memory faucet = g__FaucetLookup[faucet_id] */\n      mload(0x40)\n      dup1\n      0xc0\n      add\n      0x40\n      mstore\n      swap1\n      dup2\n      0x00\n      dup3\n      add\n      0x00\n      swap1\n      sload\n      swap1\n      0x0100\n      exp\n      swap1\n      div\n      0xff\n      and\n      0x01\n      dup2\n      gt\n      iszero\n      tag_169\n      jumpi\n      tag_170\n      tag_90\n      jump\t// in\n    tag_170:\n    tag_169:\n      0x01\n      dup2\n      gt\n      iszero\n      tag_171\n      jumpi\n      tag_172\n      tag_90\n      jump\t// in\n    tag_172:\n    tag_171:\n      dup2\n      mstore\n      0x20\n      add\n      0x01\n      dup3\n      add\n      dup1\n      sload\n      tag_173\n      swap1\n      tag_100\n      jump\t// in\n    tag_173:\n      dup1\n      0x1f\n      add\n      0x20\n      dup1\n      swap2\n      div\n      mul\n      0x20\n      add\n      mload(0x40)\n      swap1\n      dup2\n      add\n      0x40\n      mstore\n      dup1\n      swap3\n      swap2\n      swap1\n      dup2\n      dup2\n      mstore\n      0x20\n      add\n      dup3\n      dup1\n      sload\n      tag_174\n      swap1\n      tag_100\n      jump\t// in\n    tag_174:\n      dup1\n      iszero\n      tag_175\n      jumpi\n      dup1\n      0x1f\n      lt\n      tag_176\n      jumpi\n      0x0100\n      dup1\n      dup4\n      sload\n      div\n      mul\n      dup4\n      mstore\n      swap2\n      0x20\n      add\n      swap2\n      jump(tag_175)\n    tag_176:\n      dup3\n      add\n      swap2\n      swap1\n      0x00\n      mstore\n      keccak256(0x00, 0x20)\n      swap1\n    tag_177:\n      dup2\n      sload\n      dup2\n      mstore\n      swap1\n      0x01\n      add\n      swap1\n      0x20\n      add\n      dup1\n      dup4\n      gt\n      tag_177\n      jumpi\n      dup3\n      swap1\n      sub\n      0x1f\n      and\n      dup3\n      add\n      swap2\n    tag_175:\n      pop\n      pop\n      pop\n      pop\n      pop\n      dup2\n      mstore\n      0x20\n      add\n      0x02\n      dup3\n      add\n      0x00\n      swap1\n      sload\n      swap1\n      0x0100\n      exp\n      swap1\n      div\n      0xffffffffffffffffffffffffffffffffffffffff\n      and\n      0xffffffffffffffffffffffffffffffffffffffff\n      and\n      0xffffffffffffffffffffffffffffffffffffffff\n      and\n      dup2\n      mstore\n      0x20\n      add\n      0x03\n      dup3\n      add\n      sload\n      dup2\n      mstore\n      0x20\n      add\n      0x04\n      dup3\n      add\n      sload\n      dup2\n      mstore\n      0x20\n      add\n      0x05\n      dup3\n      add\n      sload\n      dup2\n      mstore\n      pop\n      pop\n      swap1\n      pop\n        /* \"temp.sol\":4171:4190  FaucetStatus.Active */\n      0x01\n        /* \"temp.sol\":4154:4190  faucet.status == FaucetStatus.Active */\n      dup1\n      dup2\n      gt\n      iszero\n      tag_178\n      jumpi\n      tag_179\n      tag_90\n      jump\t// in\n    tag_179:\n    tag_178:\n        /* \"temp.sol\":4154:4160  faucet */\n      dup2\n        /* \"temp.sol\":4154:4167  faucet.status */\n      0x00\n      add\n      mload\n        /* \"temp.sol\":4154:4190  faucet.status == FaucetStatus.Active */\n      0x01\n      dup2\n      gt\n      iszero\n      tag_180\n      jumpi\n      tag_181\n      tag_90\n      jump\t// in\n    tag_181:\n    tag_180:\n      eq\n        /* \"temp.sol\":4145:4211  require((faucet.status == FaucetStatus.Active),\"Faucet not found\") */\n      tag_182\n      jumpi\n      mload(0x40)\n      0x08c379a000000000000000000000000000000000000000000000000000000000\n      dup2\n      mstore\n      0x04\n      add\n      tag_183\n      swap1\n      tag_97\n      jump\t// in\n    tag_183:\n      mload(0x40)\n      dup1\n      swap2\n      sub\n      swap1\n      revert\n    tag_182:\n        /* \"temp.sol\":4217:4226  uint prev */\n      0x00\n        /* \"temp.sol\":4229:4244  g__SiteRequests */\n      0x02\n        /* \"temp.sol\":4245:4254  faucet_id */\n      dup5\n        /* \"temp.sol\":4229:4255  g__SiteRequests[faucet_id] */\n      mload(0x40)\n      tag_184\n      swap2\n      swap1\n      tag_92\n      jump\t// in\n    tag_184:\n      swap1\n      dup2\n      mstore\n      0x20\n      add\n      mload(0x40)\n      dup1\n      swap2\n      sub\n      swap1\n      keccak256\n        /* \"temp.sol\":4229:4267  g__SiteRequests[faucet_id][msg.sender] */\n      0x00\n        /* \"temp.sol\":4256:4266  msg.sender */\n      caller\n        /* \"temp.sol\":4229:4267  g__SiteRequests[faucet_id][msg.sender] */\n      0xffffffffffffffffffffffffffffffffffffffff\n      and\n      0xffffffffffffffffffffffffffffffffffffffff\n      and\n      dup2\n      mstore\n      0x20\n      add\n      swap1\n      dup2\n      mstore\n      0x20\n      add\n      0x00\n      keccak256\n      sload\n        /* \"temp.sol\":4217:4267  uint prev = g__SiteRequests[faucet_id][msg.sender] */\n      swap1\n      pop\n        /* \"temp.sol\":4294:4300  faucet */\n      dup2\n        /* \"temp.sol\":4294:4316  faucet.limit_frequency */\n      0x80\n      add\n      mload\n        /* \"temp.sol\":4289:4290  0 */\n      0x00\n        /* \"temp.sol\":4289:4316  0 == faucet.limit_frequency */\n      eq\n        /* \"temp.sol\":4288:4372  (0 == faucet.limit_frequency) || ((prev + faucet.limit_frequency) < block.timestamp) */\n      dup1\n      tag_185\n      jumpi\n      pop\n        /* \"temp.sol\":4356:4371  block.timestamp */\n      timestamp\n        /* \"temp.sol\":4330:4336  faucet */\n      dup3\n        /* \"temp.sol\":4330:4352  faucet.limit_frequency */\n      0x80\n      add\n      mload\n        /* \"temp.sol\":4323:4327  prev */\n      dup3\n        /* \"temp.sol\":4323:4352  prev + faucet.limit_frequency */\n      tag_186\n      swap2\n      swap1\n      tag_187\n      jump\t// in\n    tag_186:\n        /* \"temp.sol\":4322:4371  (prev + faucet.limit_frequency) < block.timestamp */\n      lt\n        /* \"temp.sol\":4288:4372  (0 == faucet.limit_frequency) || ((prev + faucet.limit_frequency) < block.timestamp) */\n    tag_185:\n        /* \"temp.sol\":4273:4416  require(... */\n      tag_188\n      jumpi\n      mload(0x40)\n      0x08c379a000000000000000000000000000000000000000000000000000000000\n      dup2\n      mstore\n      0x04\n      add\n      tag_189\n      swap1\n      tag_190\n      jump\t// in\n    tag_189:\n      mload(0x40)\n      dup1\n      swap2\n      sub\n      swap1\n      revert\n    tag_188:\n        /* \"temp.sol\":4443:4449  faucet */\n      dup2\n        /* \"temp.sol\":4443:4462  faucet.limit_amount */\n      0x60\n      add\n      mload\n        /* \"temp.sol\":4438:4439  0 */\n      0x00\n        /* \"temp.sol\":4438:4462  0 == faucet.limit_amount */\n      eq\n        /* \"temp.sol\":4437:4497  (0 == faucet.limit_amount) || (amount < faucet.limit_amount) */\n      dup1\n      tag_191\n      jumpi\n      pop\n        /* \"temp.sol\":4477:4483  faucet */\n      dup2\n        /* \"temp.sol\":4477:4496  faucet.limit_amount */\n      0x60\n      add\n      mload\n        /* \"temp.sol\":4468:4474  amount */\n      dup4\n        /* \"temp.sol\":4468:4496  amount < faucet.limit_amount */\n      lt\n        /* \"temp.sol\":4437:4497  (0 == faucet.limit_amount) || (amount < faucet.limit_amount) */\n    tag_191:\n        /* \"temp.sol\":4422:4538  require(... */\n      tag_192\n      jumpi\n      mload(0x40)\n      0x08c379a000000000000000000000000000000000000000000000000000000000\n      dup2\n      mstore\n      0x04\n      add\n      tag_193\n      swap1\n      tag_194\n      jump\t// in\n    tag_193:\n      mload(0x40)\n      dup1\n      swap2\n      sub\n      swap1\n      revert\n    tag_192:\n        /* \"temp.sol\":4544:4556  IERC20 erc20 */\n      0x00\n        /* \"temp.sol\":4566:4572  faucet */\n      dup3\n        /* \"temp.sol\":4566:4586  faucet.token_address */\n      0x40\n      add\n      mload\n        /* \"temp.sol\":4544:4587  IERC20 erc20 = IERC20(faucet.token_address) */\n      swap1\n      pop\n        /* \"temp.sol\":4593:4605  uint balance */\n      0x00\n        /* \"temp.sol\":4608:4613  erc20 */\n      dup2\n        /* \"temp.sol\":4608:4623  erc20.balanceOf */\n      0xffffffffffffffffffffffffffffffffffffffff\n      and\n      0x70a08231\n        /* \"temp.sol\":4624:4634  msg.sender */\n      caller\n        /* \"temp.sol\":4608:4635  erc20.balanceOf(msg.sender) */\n      mload(0x40)\n      dup3\n      0xffffffff\n      and\n      0xe0\n      shl\n      dup2\n      mstore\n      0x04\n      add\n      tag_195\n      swap2\n      swap1\n      tag_59\n      jump\t// in\n    tag_195:\n      0x20\n      mload(0x40)\n      dup1\n      dup4\n      sub\n      dup2\n      dup7\n      gas\n      staticcall\n      iszero\n      dup1\n      iszero\n      tag_197\n      jumpi\n      returndatasize\n      0x00\n      dup1\n      returndatacopy\n      revert(0x00, returndatasize)\n    tag_197:\n      pop\n      pop\n      pop\n      pop\n      mload(0x40)\n      returndatasize\n      not(0x1f)\n      0x1f\n      dup3\n      add\n      and\n      dup3\n      add\n      dup1\n      0x40\n      mstore\n      pop\n      dup2\n      add\n      swap1\n      tag_198\n      swap2\n      swap1\n      tag_118\n      jump\t// in\n    tag_198:\n        /* \"temp.sol\":4593:4635  uint balance = erc20.balanceOf(msg.sender) */\n      swap1\n      pop\n        /* \"temp.sol\":4662:4668  faucet */\n      dup4\n        /* \"temp.sol\":4662:4682  faucet.limit_balance */\n      0xa0\n      add\n      mload\n        /* \"temp.sol\":4657:4658  0 */\n      0x00\n        /* \"temp.sol\":4657:4682  0 == faucet.limit_balance */\n      eq\n        /* \"temp.sol\":4656:4731  (0 == faucet.limit_balance) || ((balance + amount) <= faucet.limit_balance) */\n      dup1\n      tag_199\n      jumpi\n      pop\n        /* \"temp.sol\":4710:4716  faucet */\n      dup4\n        /* \"temp.sol\":4710:4730  faucet.limit_balance */\n      0xa0\n      add\n      mload\n        /* \"temp.sol\":4699:4705  amount */\n      dup6\n        /* \"temp.sol\":4689:4696  balance */\n      dup3\n        /* \"temp.sol\":4689:4705  balance + amount */\n      tag_200\n      swap2\n      swap1\n      tag_187\n      jump\t// in\n    tag_200:\n        /* \"temp.sol\":4688:4730  (balance + amount) <= faucet.limit_balance */\n      gt\n      iszero\n        /* \"temp.sol\":4656:4731  (0 == faucet.limit_balance) || ((balance + amount) <= faucet.limit_balance) */\n    tag_199:\n        /* \"temp.sol\":4641:4773  require(... */\n      tag_201\n      jumpi\n      mload(0x40)\n      0x08c379a000000000000000000000000000000000000000000000000000000000\n      dup2\n      mstore\n      0x04\n      add\n      tag_202\n      swap1\n      tag_203\n      jump\t// in\n    tag_202:\n      mload(0x40)\n      dup1\n      swap2\n      sub\n      swap1\n      revert\n    tag_201:\n        /* \"temp.sol\":4779:4784  erc20 */\n      dup2\n        /* \"temp.sol\":4779:4793  erc20.transfer */\n      0xffffffffffffffffffffffffffffffffffffffff\n      and\n      0xa9059cbb\n        /* \"temp.sol\":4794:4804  msg.sender */\n      caller\n        /* \"temp.sol\":4805:4811  amount */\n      dup8\n        /* \"temp.sol\":4779:4812  erc20.transfer(msg.sender,amount) */\n      mload(0x40)\n      dup4\n      0xffffffff\n      and\n      0xe0\n      shl\n      dup2\n      mstore\n      0x04\n      add\n      tag_204\n      swap3\n      swap2\n      swap1\n      tag_205\n      jump\t// in\n    tag_204:\n      0x20\n      mload(0x40)\n      dup1\n      dup4\n      sub\n      dup2\n      0x00\n      dup8\n      gas\n      call\n      iszero\n      dup1\n      iszero\n      tag_207\n      jumpi\n      returndatasize\n      0x00\n      dup1\n      returndatacopy\n      revert(0x00, returndatasize)\n    tag_207:\n      pop\n      pop\n      pop\n      pop\n      mload(0x40)\n      returndatasize\n      not(0x1f)\n      0x1f\n      dup3\n      add\n      and\n      dup3\n      add\n      dup1\n      0x40\n      mstore\n      pop\n      dup2\n      add\n      swap1\n      tag_208\n      swap2\n      swap1\n      tag_142\n      jump\t// in\n    tag_208:\n      pop\n        /* \"temp.sol\":4859:4874  block.timestamp */\n      timestamp\n        /* \"temp.sol\":4818:4833  g__SiteRequests */\n      0x02\n        /* \"temp.sol\":4834:4843  faucet_id */\n      dup8\n        /* \"temp.sol\":4818:4844  g__SiteRequests[faucet_id] */\n      mload(0x40)\n      tag_209\n      swap2\n      swap1\n      tag_92\n      jump\t// in\n    tag_209:\n      swap1\n      dup2\n      mstore\n      0x20\n      add\n      mload(0x40)\n      dup1\n      swap2\n      sub\n      swap1\n      keccak256\n        /* \"temp.sol\":4818:4856  g__SiteRequests[faucet_id][msg.sender] */\n      0x00\n        /* \"temp.sol\":4845:4855  msg.sender */\n      caller\n        /* \"temp.sol\":4818:4856  g__SiteRequests[faucet_id][msg.sender] */\n      0xffffffffffffffffffffffffffffffffffffffff\n      and\n      0xffffffffffffffffffffffffffffffffffffffff\n      and\n      dup2\n      mstore\n      0x20\n      add\n      swap1\n      dup2\n      mstore\n      0x20\n      add\n      0x00\n      keccak256\n        /* \"temp.sol\":4818:4874  g__SiteRequests[faucet_id][msg.sender] = block.timestamp */\n      dup2\n      swap1\n      sstore\n      pop\n        /* \"temp.sol\":4885:4940  FaucetEvent(\"faucet_topup\",faucet_id,msg.sender,amount) */\n      0xa418229b0cd6275bfb74006a1c50d3e0a604f25115315505f82ef6ebb8b2560b\n        /* \"temp.sol\":4912:4921  faucet_id */\n      dup7\n        /* \"temp.sol\":4922:4932  msg.sender */\n      caller\n        /* \"temp.sol\":4933:4939  amount */\n      dup8\n        /* \"temp.sol\":4885:4940  FaucetEvent(\"faucet_topup\",faucet_id,msg.sender,amount) */\n      mload(0x40)\n      tag_210\n      swap4\n      swap3\n      swap2\n      swap1\n      tag_211\n      jump\t// in\n    tag_210:\n      mload(0x40)\n      dup1\n      swap2\n      sub\n      swap1\n      log1\n        /* \"temp.sol\":4084:4945  {... */\n      pop\n      pop\n      pop\n      pop\n        /* \"temp.sol\":4009:4945  function user__request_topup(string memory faucet_id,uint amount) external {... */\n      pop\n      pop\n      jump\t// out\n        /* \"temp.sol\":3635:4003  function user__request_balance_caller(string memory faucet_id) external view returns(uint) {... */\n    tag_72:\n        /* \"temp.sol\":3720:3724  uint */\n      0x00\n        /* \"temp.sol\":3785:3804  FaucetStatus.Active */\n      0x01\n        /* \"temp.sol\":3748:3804  g__FaucetLookup[faucet_id].status == FaucetStatus.Active */\n      dup1\n      dup2\n      gt\n      iszero\n      tag_213\n      jumpi\n      tag_214\n      tag_90\n      jump\t// in\n    tag_214:\n    tag_213:\n        /* \"temp.sol\":3748:3763  g__FaucetLookup */\n      0x03\n        /* \"temp.sol\":3764:3773  faucet_id */\n      dup4\n        /* \"temp.sol\":3748:3774  g__FaucetLookup[faucet_id] */\n      mload(0x40)\n      tag_215\n      swap2\n      swap1\n      tag_92\n      jump\t// in\n    tag_215:\n      swap1\n      dup2\n      mstore\n      0x20\n      add\n      mload(0x40)\n      dup1\n      swap2\n      sub\n      swap1\n      keccak256\n        /* \"temp.sol\":3748:3781  g__FaucetLookup[faucet_id].status */\n      0x00\n      add\n      0x00\n      swap1\n      sload\n      swap1\n      0x0100\n      exp\n      swap1\n      div\n      0xff\n      and\n        /* \"temp.sol\":3748:3804  g__FaucetLookup[faucet_id].status == FaucetStatus.Active */\n      0x01\n      dup2\n      gt\n      iszero\n      tag_216\n      jumpi\n      tag_217\n      tag_90\n      jump\t// in\n    tag_217:\n    tag_216:\n      eq\n        /* \"temp.sol\":3732:3837  require(... */\n      tag_218\n      jumpi\n      mload(0x40)\n      0x08c379a000000000000000000000000000000000000000000000000000000000\n      dup2\n      mstore\n      0x04\n      add\n      tag_219\n      swap1\n      tag_97\n      jump\t// in\n    tag_219:\n      mload(0x40)\n      dup1\n      swap2\n      sub\n      swap1\n      revert\n    tag_218:\n        /* \"temp.sol\":3843:3864  address token_address */\n      0x00\n        /* \"temp.sol\":3867:3882  g__FaucetLookup */\n      0x03\n        /* \"temp.sol\":3883:3892  faucet_id */\n      dup4\n        /* \"temp.sol\":3867:3893  g__FaucetLookup[faucet_id] */\n      mload(0x40)\n      tag_220\n      swap2\n      swap1\n      tag_92\n      jump\t// in\n    tag_220:\n      swap1\n      dup2\n      mstore\n      0x20\n      add\n      mload(0x40)\n      dup1\n      swap2\n      sub\n      swap1\n      keccak256\n        /* \"temp.sol\":3867:3907  g__FaucetLookup[faucet_id].token_address */\n      0x02\n      add\n      0x00\n      swap1\n      sload\n      swap1\n      0x0100\n      exp\n      swap1\n      div\n      0xffffffffffffffffffffffffffffffffffffffff\n      and\n        /* \"temp.sol\":3843:3907  address token_address = g__FaucetLookup[faucet_id].token_address */\n      swap1\n      pop\n        /* \"temp.sol\":3913:3925  IERC20 erc20 */\n      0x00\n        /* \"temp.sol\":3935:3948  token_address */\n      dup2\n        /* \"temp.sol\":3913:3949  IERC20 erc20 = IERC20(token_address) */\n      swap1\n      pop\n        /* \"temp.sol\":3962:3967  erc20 */\n      dup1\n        /* \"temp.sol\":3962:3977  erc20.balanceOf */\n      0xffffffffffffffffffffffffffffffffffffffff\n      and\n      0x70a08231\n        /* \"temp.sol\":3986:3996  msg.sender */\n      caller\n        /* \"temp.sol\":3962:3998  erc20.balanceOf(address(msg.sender)) */\n      mload(0x40)\n      dup3\n      0xffffffff\n      and\n      0xe0\n      shl\n      dup2\n      mstore\n      0x04\n      add\n      tag_221\n      swap2\n      swap1\n      tag_59\n      jump\t// in\n    tag_221:\n      0x20\n      mload(0x40)\n      dup1\n      dup4\n      sub\n      dup2\n      dup7\n      gas\n      staticcall\n      iszero\n      dup1\n      iszero\n      tag_223\n      jumpi\n      returndatasize\n      0x00\n      dup1\n      returndatacopy\n      revert(0x00, returndatasize)\n    tag_223:\n      pop\n      pop\n      pop\n      pop\n      mload(0x40)\n      returndatasize\n      not(0x1f)\n      0x1f\n      dup3\n      add\n      and\n      dup3\n      add\n      dup1\n      0x40\n      mstore\n      pop\n      dup2\n      add\n      swap1\n      tag_224\n      swap2\n      swap1\n      tag_118\n      jump\t// in\n    tag_224:\n        /* \"temp.sol\":3955:3998  return erc20.balanceOf(address(msg.sender)) */\n      swap3\n      pop\n      pop\n      pop\n        /* \"temp.sol\":3635:4003  function user__request_balance_caller(string memory faucet_id) external view returns(uint) {... */\n      swap2\n      swap1\n      pop\n      jump\t// out\n        /* \"temp.sol\":2693:2976  function site__limit_frequency(string memory faucet_id,uint limit) external {... */\n    tag_76:\n        /* \"temp.sol\":2775:2803  ut__assert_admin(msg.sender) */\n      tag_226\n        /* \"temp.sol\":2792:2802  msg.sender */\n      caller\n        /* \"temp.sol\":2775:2791  ut__assert_admin */\n      tag_87\n        /* \"temp.sol\":2775:2803  ut__assert_admin(msg.sender) */\n      jump\t// in\n    tag_226:\n        /* \"temp.sol\":2862:2881  FaucetStatus.Active */\n      0x01\n        /* \"temp.sol\":2825:2881  g__FaucetLookup[faucet_id].status == FaucetStatus.Active */\n      dup1\n      dup2\n      gt\n      iszero\n      tag_227\n      jumpi\n      tag_228\n      tag_90\n      jump\t// in\n    tag_228:\n    tag_227:\n        /* \"temp.sol\":2825:2840  g__FaucetLookup */\n      0x03\n        /* \"temp.sol\":2841:2850  faucet_id */\n      dup4\n        /* \"temp.sol\":2825:2851  g__FaucetLookup[faucet_id] */\n      mload(0x40)\n      tag_229\n      swap2\n      swap1\n      tag_92\n      jump\t// in\n    tag_229:\n      swap1\n      dup2\n      mstore\n      0x20\n      add\n      mload(0x40)\n      dup1\n      swap2\n      sub\n      swap1\n      keccak256\n        /* \"temp.sol\":2825:2858  g__FaucetLookup[faucet_id].status */\n      0x00\n      add\n      0x00\n      swap1\n      sload\n      swap1\n      0x0100\n      exp\n      swap1\n      div\n      0xff\n      and\n        /* \"temp.sol\":2825:2881  g__FaucetLookup[faucet_id].status == FaucetStatus.Active */\n      0x01\n      dup2\n      gt\n      iszero\n      tag_230\n      jumpi\n      tag_231\n      tag_90\n      jump\t// in\n    tag_231:\n    tag_230:\n      eq\n        /* \"temp.sol\":2809:2914  require(... */\n      tag_232\n      jumpi\n      mload(0x40)\n      0x08c379a000000000000000000000000000000000000000000000000000000000\n      dup2\n      mstore\n      0x04\n      add\n      tag_233\n      swap1\n      tag_97\n      jump\t// in\n    tag_233:\n      mload(0x40)\n      dup1\n      swap2\n      sub\n      swap1\n      revert\n    tag_232:\n        /* \"temp.sol\":2966:2971  limit */\n      dup1\n        /* \"temp.sol\":2920:2935  g__FaucetLookup */\n      0x03\n        /* \"temp.sol\":2936:2945  faucet_id */\n      dup4\n        /* \"temp.sol\":2920:2946  g__FaucetLookup[faucet_id] */\n      mload(0x40)\n      tag_234\n      swap2\n      swap1\n      tag_92\n      jump\t// in\n    tag_234:\n      swap1\n      dup2\n      mstore\n      0x20\n      add\n      mload(0x40)\n      dup1\n      swap2\n      sub\n      swap1\n      keccak256\n        /* \"temp.sol\":2920:2962  g__FaucetLookup[faucet_id].limit_frequency */\n      pop\n        /* \"temp.sol\":2920:2971  g__FaucetLookup[faucet_id].limit_frequency == limit */\n      pop\n        /* \"temp.sol\":2693:2976  function site__limit_frequency(string memory faucet_id,uint limit) external {... */\n      pop\n      pop\n      jump\t// out\n        /* \"temp.sol\":421:467  mapping(address => bool) public g__SiteSupport */\n    tag_79:\n      mstore(0x20, 0x01)\n      dup1\n      0x00\n      mstore\n      keccak256(0x00, 0x40)\n      0x00\n      swap2\n      pop\n      sload\n      swap1\n      0x0100\n      exp\n      swap1\n      div\n      0xff\n      and\n      dup2\n      jump\t// out\n        /* \"temp.sol\":1448:1573  function site__remove_support(address user) external {... */\n    tag_84:\n        /* \"temp.sol\":1507:1535  ut__assert_admin(msg.sender) */\n      tag_236\n        /* \"temp.sol\":1524:1534  msg.sender */\n      caller\n        /* \"temp.sol\":1507:1523  ut__assert_admin */\n      tag_87\n        /* \"temp.sol\":1507:1535  ut__assert_admin(msg.sender) */\n      jump\t// in\n    tag_236:\n        /* \"temp.sol\":1548:1562  g__SiteSupport */\n      0x01\n        /* \"temp.sol\":1548:1568  g__SiteSupport[user] */\n      0x00\n        /* \"temp.sol\":1563:1567  user */\n      dup3\n        /* \"temp.sol\":1548:1568  g__SiteSupport[user] */\n      0xffffffffffffffffffffffffffffffffffffffff\n      and\n      0xffffffffffffffffffffffffffffffffffffffff\n      and\n      dup2\n      mstore\n      0x20\n      add\n      swap1\n      dup2\n      mstore\n      0x20\n      add\n      0x00\n      keccak256\n      0x00\n        /* \"temp.sol\":1541:1568  delete g__SiteSupport[user] */\n      0x0100\n      exp\n      dup2\n      sload\n      swap1\n      0xff\n      mul\n      not\n      and\n      swap1\n      sstore\n        /* \"temp.sol\":1448:1573  function site__remove_support(address user) external {... */\n      pop\n      jump\t// out\n        /* \"temp.sol\":913:1099  function ut__assert_admin(address user_address) internal view {... */\n    tag_87:\n        /* \"temp.sol\":1013:1029  g__SiteAuthority */\n      0x00\n      dup1\n      sload\n      swap1\n      0x0100\n      exp\n      swap1\n      div\n      0xffffffffffffffffffffffffffffffffffffffff\n      and\n        /* \"temp.sol\":997:1029  user_address == g__SiteAuthority */\n      0xffffffffffffffffffffffffffffffffffffffff\n      and\n        /* \"temp.sol\":997:1009  user_address */\n      dup2\n        /* \"temp.sol\":997:1029  user_address == g__SiteAuthority */\n      0xffffffffffffffffffffffffffffffffffffffff\n      and\n      eq\n        /* \"temp.sol\":996:1062  (user_address == g__SiteAuthority) || g__SiteSupport[user_address] */\n      dup1\n      tag_238\n      jumpi\n      pop\n        /* \"temp.sol\":1034:1048  g__SiteSupport */\n      0x01\n        /* \"temp.sol\":1034:1062  g__SiteSupport[user_address] */\n      0x00\n        /* \"temp.sol\":1049:1061  user_address */\n      dup3\n        /* \"temp.sol\":1034:1062  g__SiteSupport[user_address] */\n      0xffffffffffffffffffffffffffffffffffffffff\n      and\n      0xffffffffffffffffffffffffffffffffffffffff\n      and\n      dup2\n      mstore\n      0x20\n      add\n      swap1\n      dup2\n      mstore\n      0x20\n      add\n      0x00\n      keccak256\n      0x00\n      swap1\n      sload\n      swap1\n      0x0100\n      exp\n      swap1\n      div\n      0xff\n      and\n        /* \"temp.sol\":996:1062  (user_address == g__SiteAuthority) || g__SiteSupport[user_address] */\n    tag_238:\n        /* \"temp.sol\":981:1094  require(... */\n      tag_239\n      jumpi\n      mload(0x40)\n      0x08c379a000000000000000000000000000000000000000000000000000000000\n      dup2\n      mstore\n      0x04\n      add\n      tag_240\n      swap1\n      tag_241\n      jump\t// in\n    tag_240:\n      mload(0x40)\n      dup1\n      swap2\n      sub\n      swap1\n      revert\n    tag_239:\n        /* \"temp.sol\":913:1099  function ut__assert_admin(address user_address) internal view {... */\n      pop\n      jump\t// out\n    tag_147:\n      pop\n      dup1\n      sload\n      tag_242\n      swap1\n      tag_100\n      jump\t// in\n    tag_242:\n      0x00\n      dup3\n      sstore\n      dup1\n      0x1f\n      lt\n      tag_244\n      jumpi\n      pop\n      jump(tag_243)\n    tag_244:\n      0x1f\n      add\n      0x20\n      swap1\n      div\n      swap1\n      0x00\n      mstore\n      keccak256(0x00, 0x20)\n      swap1\n      dup2\n      add\n      swap1\n      tag_245\n      swap2\n      swap1\n      tag_246\n      jump\t// in\n    tag_245:\n    tag_243:\n      pop\n      jump\t// out\n    tag_246:\n    tag_247:\n      dup1\n      dup3\n      gt\n      iszero\n      tag_248\n      jumpi\n      0x00\n      dup2\n      0x00\n      swap1\n      sstore\n      pop\n      0x01\n      add\n      jump(tag_247)\n    tag_248:\n      pop\n      swap1\n      jump\t// out\n        /* \"#utility.yul\":7:82   */\n    tag_249:\n        /* \"#utility.yul\":40:46   */\n      0x00\n        /* \"#utility.yul\":73:75   */\n      0x40\n        /* \"#utility.yul\":67:76   */\n      mload\n        /* \"#utility.yul\":57:76   */\n      swap1\n      pop\n        /* \"#utility.yul\":7:82   */\n      swap1\n      jump\t// out\n        /* \"#utility.yul\":88:205   */\n    tag_250:\n        /* \"#utility.yul\":197:198   */\n      0x00\n        /* \"#utility.yul\":194:195   */\n      dup1\n        /* \"#utility.yul\":187:199   */\n      revert\n        /* \"#utility.yul\":211:328   */\n    tag_251:\n        /* \"#utility.yul\":320:321   */\n      0x00\n        /* \"#utility.yul\":317:318   */\n      dup1\n        /* \"#utility.yul\":310:322   */\n      revert\n        /* \"#utility.yul\":334:451   */\n    tag_252:\n        /* \"#utility.yul\":443:444   */\n      0x00\n        /* \"#utility.yul\":440:441   */\n      dup1\n        /* \"#utility.yul\":433:445   */\n      revert\n        /* \"#utility.yul\":457:574   */\n    tag_253:\n        /* \"#utility.yul\":566:567   */\n      0x00\n        /* \"#utility.yul\":563:564   */\n      dup1\n        /* \"#utility.yul\":556:568   */\n      revert\n        /* \"#utility.yul\":580:682   */\n    tag_254:\n        /* \"#utility.yul\":621:627   */\n      0x00\n        /* \"#utility.yul\":672:674   */\n      0x1f\n        /* \"#utility.yul\":668:675   */\n      not\n        /* \"#utility.yul\":663:665   */\n      0x1f\n        /* \"#utility.yul\":656:661   */\n      dup4\n        /* \"#utility.yul\":652:666   */\n      add\n        /* \"#utility.yul\":648:676   */\n      and\n        /* \"#utility.yul\":638:676   */\n      swap1\n      pop\n        /* \"#utility.yul\":580:682   */\n      swap2\n      swap1\n      pop\n      jump\t// out\n        /* \"#utility.yul\":688:868   */\n    tag_255:\n        /* \"#utility.yul\":736:813   */\n      0x4e487b7100000000000000000000000000000000000000000000000000000000\n        /* \"#utility.yul\":733:734   */\n      0x00\n        /* \"#utility.yul\":726:814   */\n      mstore\n        /* \"#utility.yul\":833:837   */\n      0x41\n        /* \"#utility.yul\":830:831   */\n      0x04\n        /* \"#utility.yul\":823:838   */\n      mstore\n        /* \"#utility.yul\":857:861   */\n      0x24\n        /* \"#utility.yul\":854:855   */\n      0x00\n        /* \"#utility.yul\":847:862   */\n      revert\n        /* \"#utility.yul\":874:1155   */\n    tag_256:\n        /* \"#utility.yul\":957:984   */\n      tag_336\n        /* \"#utility.yul\":979:983   */\n      dup3\n        /* \"#utility.yul\":957:984   */\n      tag_254\n      jump\t// in\n    tag_336:\n        /* \"#utility.yul\":949:955   */\n      dup2\n        /* \"#utility.yul\":945:985   */\n      add\n        /* \"#utility.yul\":1087:1093   */\n      dup2\n        /* \"#utility.yul\":1075:1085   */\n      dup2\n        /* \"#utility.yul\":1072:1094   */\n      lt\n        /* \"#utility.yul\":1051:1069   */\n      0xffffffffffffffff\n        /* \"#utility.yul\":1039:1049   */\n      dup3\n        /* \"#utility.yul\":1036:1070   */\n      gt\n        /* \"#utility.yul\":1033:1095   */\n      or\n        /* \"#utility.yul\":1030:1118   */\n      iszero\n      tag_337\n      jumpi\n        /* \"#utility.yul\":1098:1116   */\n      tag_338\n      tag_255\n      jump\t// in\n    tag_338:\n        /* \"#utility.yul\":1030:1118   */\n    tag_337:\n        /* \"#utility.yul\":1138:1148   */\n      dup1\n        /* \"#utility.yul\":1134:1136   */\n      0x40\n        /* \"#utility.yul\":1127:1149   */\n      mstore\n        /* \"#utility.yul\":917:1155   */\n      pop\n        /* \"#utility.yul\":874:1155   */\n      pop\n      pop\n      jump\t// out\n        /* \"#utility.yul\":1161:1290   */\n    tag_257:\n        /* \"#utility.yul\":1195:1201   */\n      0x00\n        /* \"#utility.yul\":1222:1242   */\n      tag_340\n      tag_249\n      jump\t// in\n    tag_340:\n        /* \"#utility.yul\":1212:1242   */\n      swap1\n      pop\n        /* \"#utility.yul\":1251:1284   */\n      tag_341\n        /* \"#utility.yul\":1279:1283   */\n      dup3\n        /* \"#utility.yul\":1271:1277   */\n      dup3\n        /* \"#utility.yul\":1251:1284   */\n      tag_256\n      jump\t// in\n    tag_341:\n        /* \"#utility.yul\":1161:1290   */\n      swap2\n      swap1\n      pop\n      jump\t// out\n        /* \"#utility.yul\":1296:1604   */\n    tag_258:\n        /* \"#utility.yul\":1358:1362   */\n      0x00\n        /* \"#utility.yul\":1448:1466   */\n      0xffffffffffffffff\n        /* \"#utility.yul\":1440:1446   */\n      dup3\n        /* \"#utility.yul\":1437:1467   */\n      gt\n        /* \"#utility.yul\":1434:1490   */\n      iszero\n      tag_343\n      jumpi\n        /* \"#utility.yul\":1470:1488   */\n      tag_344\n      tag_255\n      jump\t// in\n    tag_344:\n        /* \"#utility.yul\":1434:1490   */\n    tag_343:\n        /* \"#utility.yul\":1508:1537   */\n      tag_345\n        /* \"#utility.yul\":1530:1536   */\n      dup3\n        /* \"#utility.yul\":1508:1537   */\n      tag_254\n      jump\t// in\n    tag_345:\n        /* \"#utility.yul\":1500:1537   */\n      swap1\n      pop\n        /* \"#utility.yul\":1592:1596   */\n      0x20\n        /* \"#utility.yul\":1586:1590   */\n      dup2\n        /* \"#utility.yul\":1582:1597   */\n      add\n        /* \"#utility.yul\":1574:1597   */\n      swap1\n      pop\n        /* \"#utility.yul\":1296:1604   */\n      swap2\n      swap1\n      pop\n      jump\t// out\n        /* \"#utility.yul\":1610:1756   */\n    tag_259:\n        /* \"#utility.yul\":1707:1713   */\n      dup3\n        /* \"#utility.yul\":1702:1705   */\n      dup2\n        /* \"#utility.yul\":1697:1700   */\n      dup4\n        /* \"#utility.yul\":1684:1714   */\n      calldatacopy\n        /* \"#utility.yul\":1748:1749   */\n      0x00\n        /* \"#utility.yul\":1739:1745   */\n      dup4\n        /* \"#utility.yul\":1734:1737   */\n      dup4\n        /* \"#utility.yul\":1730:1746   */\n      add\n        /* \"#utility.yul\":1723:1750   */\n      mstore\n        /* \"#utility.yul\":1610:1756   */\n      pop\n      pop\n      pop\n      jump\t// out\n        /* \"#utility.yul\":1762:2187   */\n    tag_260:\n        /* \"#utility.yul\":1840:1845   */\n      0x00\n        /* \"#utility.yul\":1865:1931   */\n      tag_348\n        /* \"#utility.yul\":1881:1930   */\n      tag_349\n        /* \"#utility.yul\":1923:1929   */\n      dup5\n        /* \"#utility.yul\":1881:1930   */\n      tag_258\n      jump\t// in\n    tag_349:\n        /* \"#utility.yul\":1865:1931   */\n      tag_257\n      jump\t// in\n    tag_348:\n        /* \"#utility.yul\":1856:1931   */\n      swap1\n      pop\n        /* \"#utility.yul\":1954:1960   */\n      dup3\n        /* \"#utility.yul\":1947:1952   */\n      dup2\n        /* \"#utility.yul\":1940:1961   */\n      mstore\n        /* \"#utility.yul\":1992:1996   */\n      0x20\n        /* \"#utility.yul\":1985:1990   */\n      dup2\n        /* \"#utility.yul\":1981:1997   */\n      add\n        /* \"#utility.yul\":2030:2033   */\n      dup5\n        /* \"#utility.yul\":2021:2027   */\n      dup5\n        /* \"#utility.yul\":2016:2019   */\n      dup5\n        /* \"#utility.yul\":2012:2028   */\n      add\n        /* \"#utility.yul\":2009:2034   */\n      gt\n        /* \"#utility.yul\":2006:2118   */\n      iszero\n      tag_350\n      jumpi\n        /* \"#utility.yul\":2037:2116   */\n      tag_351\n      tag_253\n      jump\t// in\n    tag_351:\n        /* \"#utility.yul\":2006:2118   */\n    tag_350:\n        /* \"#utility.yul\":2127:2181   */\n      tag_352\n        /* \"#utility.yul\":2174:2180   */\n      dup5\n        /* \"#utility.yul\":2169:2172   */\n      dup3\n        /* \"#utility.yul\":2164:2167   */\n      dup6\n        /* \"#utility.yul\":2127:2181   */\n      tag_259\n      jump\t// in\n    tag_352:\n        /* \"#utility.yul\":1846:2187   */\n      pop\n        /* \"#utility.yul\":1762:2187   */\n      swap4\n      swap3\n      pop\n      pop\n      pop\n      jump\t// out\n        /* \"#utility.yul\":2207:2547   */\n    tag_261:\n        /* \"#utility.yul\":2263:2268   */\n      0x00\n        /* \"#utility.yul\":2312:2315   */\n      dup3\n        /* \"#utility.yul\":2305:2309   */\n      0x1f\n        /* \"#utility.yul\":2297:2303   */\n      dup4\n        /* \"#utility.yul\":2293:2310   */\n      add\n        /* \"#utility.yul\":2289:2316   */\n      slt\n        /* \"#utility.yul\":2279:2401   */\n      tag_354\n      jumpi\n        /* \"#utility.yul\":2320:2399   */\n      tag_355\n      tag_252\n      jump\t// in\n    tag_355:\n        /* \"#utility.yul\":2279:2401   */\n    tag_354:\n        /* \"#utility.yul\":2437:2443   */\n      dup2\n        /* \"#utility.yul\":2424:2444   */\n      calldataload\n        /* \"#utility.yul\":2462:2541   */\n      tag_356\n        /* \"#utility.yul\":2537:2540   */\n      dup5\n        /* \"#utility.yul\":2529:2535   */\n      dup3\n        /* \"#utility.yul\":2522:2526   */\n      0x20\n        /* \"#utility.yul\":2514:2520   */\n      dup7\n        /* \"#utility.yul\":2510:2527   */\n      add\n        /* \"#utility.yul\":2462:2541   */\n      tag_260\n      jump\t// in\n    tag_356:\n        /* \"#utility.yul\":2453:2541   */\n      swap2\n      pop\n        /* \"#utility.yul\":2269:2547   */\n      pop\n        /* \"#utility.yul\":2207:2547   */\n      swap3\n      swap2\n      pop\n      pop\n      jump\t// out\n        /* \"#utility.yul\":2553:2630   */\n    tag_262:\n        /* \"#utility.yul\":2590:2597   */\n      0x00\n        /* \"#utility.yul\":2619:2624   */\n      dup2\n        /* \"#utility.yul\":2608:2624   */\n      swap1\n      pop\n        /* \"#utility.yul\":2553:2630   */\n      swap2\n      swap1\n      pop\n      jump\t// out\n        /* \"#utility.yul\":2636:2758   */\n    tag_263:\n        /* \"#utility.yul\":2709:2733   */\n      tag_359\n        /* \"#utility.yul\":2727:2732   */\n      dup2\n        /* \"#utility.yul\":2709:2733   */\n      tag_262\n      jump\t// in\n    tag_359:\n        /* \"#utility.yul\":2702:2707   */\n      dup2\n        /* \"#utility.yul\":2699:2734   */\n      eq\n        /* \"#utility.yul\":2689:2752   */\n      tag_360\n      jumpi\n        /* \"#utility.yul\":2748:2749   */\n      0x00\n        /* \"#utility.yul\":2745:2746   */\n      dup1\n        /* \"#utility.yul\":2738:2750   */\n      revert\n        /* \"#utility.yul\":2689:2752   */\n    tag_360:\n        /* \"#utility.yul\":2636:2758   */\n      pop\n      jump\t// out\n        /* \"#utility.yul\":2764:2903   */\n    tag_264:\n        /* \"#utility.yul\":2810:2815   */\n      0x00\n        /* \"#utility.yul\":2848:2854   */\n      dup2\n        /* \"#utility.yul\":2835:2855   */\n      calldataload\n        /* \"#utility.yul\":2826:2855   */\n      swap1\n      pop\n        /* \"#utility.yul\":2864:2897   */\n      tag_362\n        /* \"#utility.yul\":2891:2896   */\n      dup2\n        /* \"#utility.yul\":2864:2897   */\n      tag_263\n      jump\t// in\n    tag_362:\n        /* \"#utility.yul\":2764:2903   */\n      swap3\n      swap2\n      pop\n      pop\n      jump\t// out\n        /* \"#utility.yul\":2909:3563   */\n    tag_24:\n        /* \"#utility.yul\":2987:2993   */\n      0x00\n        /* \"#utility.yul\":2995:3001   */\n      dup1\n        /* \"#utility.yul\":3044:3046   */\n      0x40\n        /* \"#utility.yul\":3032:3041   */\n      dup4\n        /* \"#utility.yul\":3023:3030   */\n      dup6\n        /* \"#utility.yul\":3019:3042   */\n      sub\n        /* \"#utility.yul\":3015:3047   */\n      slt\n        /* \"#utility.yul\":3012:3131   */\n      iszero\n      tag_364\n      jumpi\n        /* \"#utility.yul\":3050:3129   */\n      tag_365\n      tag_250\n      jump\t// in\n    tag_365:\n        /* \"#utility.yul\":3012:3131   */\n    tag_364:\n        /* \"#utility.yul\":3198:3199   */\n      0x00\n        /* \"#utility.yul\":3187:3196   */\n      dup4\n        /* \"#utility.yul\":3183:3200   */\n      add\n        /* \"#utility.yul\":3170:3201   */\n      calldataload\n        /* \"#utility.yul\":3228:3246   */\n      0xffffffffffffffff\n        /* \"#utility.yul\":3220:3226   */\n      dup2\n        /* \"#utility.yul\":3217:3247   */\n      gt\n        /* \"#utility.yul\":3214:3331   */\n      iszero\n      tag_366\n      jumpi\n        /* \"#utility.yul\":3250:3329   */\n      tag_367\n      tag_251\n      jump\t// in\n    tag_367:\n        /* \"#utility.yul\":3214:3331   */\n    tag_366:\n        /* \"#utility.yul\":3355:3418   */\n      tag_368\n        /* \"#utility.yul\":3410:3417   */\n      dup6\n        /* \"#utility.yul\":3401:3407   */\n      dup3\n        /* \"#utility.yul\":3390:3399   */\n      dup7\n        /* \"#utility.yul\":3386:3408   */\n      add\n        /* \"#utility.yul\":3355:3418   */\n      tag_261\n      jump\t// in\n    tag_368:\n        /* \"#utility.yul\":3345:3418   */\n      swap3\n      pop\n        /* \"#utility.yul\":3141:3428   */\n      pop\n        /* \"#utility.yul\":3467:3469   */\n      0x20\n        /* \"#utility.yul\":3493:3546   */\n      tag_369\n        /* \"#utility.yul\":3538:3545   */\n      dup6\n        /* \"#utility.yul\":3529:3535   */\n      dup3\n        /* \"#utility.yul\":3518:3527   */\n      dup7\n        /* \"#utility.yul\":3514:3536   */\n      add\n        /* \"#utility.yul\":3493:3546   */\n      tag_264\n      jump\t// in\n    tag_369:\n        /* \"#utility.yul\":3483:3546   */\n      swap2\n      pop\n        /* \"#utility.yul\":3438:3556   */\n      pop\n        /* \"#utility.yul\":2909:3563   */\n      swap3\n      pop\n      swap3\n      swap1\n      pop\n      jump\t// out\n        /* \"#utility.yul\":3569:4078   */\n    tag_28:\n        /* \"#utility.yul\":3638:3644   */\n      0x00\n        /* \"#utility.yul\":3687:3689   */\n      0x20\n        /* \"#utility.yul\":3675:3684   */\n      dup3\n        /* \"#utility.yul\":3666:3673   */\n      dup5\n        /* \"#utility.yul\":3662:3685   */\n      sub\n        /* \"#utility.yul\":3658:3690   */\n      slt\n        /* \"#utility.yul\":3655:3774   */\n      iszero\n      tag_371\n      jumpi\n        /* \"#utility.yul\":3693:3772   */\n      tag_372\n      tag_250\n      jump\t// in\n    tag_372:\n        /* \"#utility.yul\":3655:3774   */\n    tag_371:\n        /* \"#utility.yul\":3841:3842   */\n      0x00\n        /* \"#utility.yul\":3830:3839   */\n      dup3\n        /* \"#utility.yul\":3826:3843   */\n      add\n        /* \"#utility.yul\":3813:3844   */\n      calldataload\n        /* \"#utility.yul\":3871:3889   */\n      0xffffffffffffffff\n        /* \"#utility.yul\":3863:3869   */\n      dup2\n        /* \"#utility.yul\":3860:3890   */\n      gt\n        /* \"#utility.yul\":3857:3974   */\n      iszero\n      tag_373\n      jumpi\n        /* \"#utility.yul\":3893:3972   */\n      tag_374\n      tag_251\n      jump\t// in\n    tag_374:\n        /* \"#utility.yul\":3857:3974   */\n    tag_373:\n        /* \"#utility.yul\":3998:4061   */\n      tag_375\n        /* \"#utility.yul\":4053:4060   */\n      dup5\n        /* \"#utility.yul\":4044:4050   */\n      dup3\n        /* \"#utility.yul\":4033:4042   */\n      dup6\n        /* \"#utility.yul\":4029:4051   */\n      add\n        /* \"#utility.yul\":3998:4061   */\n      tag_261\n      jump\t// in\n    tag_375:\n        /* \"#utility.yul\":3988:4061   */\n      swap2\n      pop\n        /* \"#utility.yul\":3784:4071   */\n      pop\n        /* \"#utility.yul\":3569:4078   */\n      swap3\n      swap2\n      pop\n      pop\n      jump\t// out\n        /* \"#utility.yul\":4084:4264   */\n    tag_90:\n        /* \"#utility.yul\":4132:4209   */\n      0x4e487b7100000000000000000000000000000000000000000000000000000000\n        /* \"#utility.yul\":4129:4130   */\n      0x00\n        /* \"#utility.yul\":4122:4210   */\n      mstore\n        /* \"#utility.yul\":4229:4233   */\n      0x21\n        /* \"#utility.yul\":4226:4227   */\n      0x04\n        /* \"#utility.yul\":4219:4234   */\n      mstore\n        /* \"#utility.yul\":4253:4257   */\n      0x24\n        /* \"#utility.yul\":4250:4251   */\n      0x00\n        /* \"#utility.yul\":4243:4258   */\n      revert\n        /* \"#utility.yul\":4270:4390   */\n    tag_265:\n        /* \"#utility.yul\":4358:4359   */\n      0x02\n        /* \"#utility.yul\":4351:4356   */\n      dup2\n        /* \"#utility.yul\":4348:4360   */\n      lt\n        /* \"#utility.yul\":4338:4384   */\n      tag_378\n      jumpi\n        /* \"#utility.yul\":4364:4382   */\n      tag_379\n      tag_90\n      jump\t// in\n    tag_379:\n        /* \"#utility.yul\":4338:4384   */\n    tag_378:\n        /* \"#utility.yul\":4270:4390   */\n      pop\n      jump\t// out\n        /* \"#utility.yul\":4396:4537   */\n    tag_266:\n        /* \"#utility.yul\":4448:4455   */\n      0x00\n        /* \"#utility.yul\":4477:4482   */\n      dup2\n        /* \"#utility.yul\":4466:4482   */\n      swap1\n      pop\n        /* \"#utility.yul\":4483:4531   */\n      tag_381\n        /* \"#utility.yul\":4525:4530   */\n      dup3\n        /* \"#utility.yul\":4483:4531   */\n      tag_265\n      jump\t// in\n    tag_381:\n        /* \"#utility.yul\":4396:4537   */\n      swap2\n      swap1\n      pop\n      jump\t// out\n        /* \"#utility.yul\":4543:4684   */\n    tag_267:\n        /* \"#utility.yul\":4606:4615   */\n      0x00\n        /* \"#utility.yul\":4639:4678   */\n      tag_383\n        /* \"#utility.yul\":4672:4677   */\n      dup3\n        /* \"#utility.yul\":4639:4678   */\n      tag_266\n      jump\t// in\n    tag_383:\n        /* \"#utility.yul\":4626:4678   */\n      swap1\n      pop\n        /* \"#utility.yul\":4543:4684   */\n      swap2\n      swap1\n      pop\n      jump\t// out\n        /* \"#utility.yul\":4690:4847   */\n    tag_268:\n        /* \"#utility.yul\":4790:4840   */\n      tag_385\n        /* \"#utility.yul\":4834:4839   */\n      dup2\n        /* \"#utility.yul\":4790:4840   */\n      tag_267\n      jump\t// in\n    tag_385:\n        /* \"#utility.yul\":4785:4788   */\n      dup3\n        /* \"#utility.yul\":4778:4841   */\n      mstore\n        /* \"#utility.yul\":4690:4847   */\n      pop\n      pop\n      jump\t// out\n        /* \"#utility.yul\":4853:4952   */\n    tag_269:\n        /* \"#utility.yul\":4905:4911   */\n      0x00\n        /* \"#utility.yul\":4939:4944   */\n      dup2\n        /* \"#utility.yul\":4933:4945   */\n      mload\n        /* \"#utility.yul\":4923:4945   */\n      swap1\n      pop\n        /* \"#utility.yul\":4853:4952   */\n      swap2\n      swap1\n      pop\n      jump\t// out\n        /* \"#utility.yul\":4958:5127   */\n    tag_270:\n        /* \"#utility.yul\":5042:5053   */\n      0x00\n        /* \"#utility.yul\":5076:5082   */\n      dup3\n        /* \"#utility.yul\":5071:5074   */\n      dup3\n        /* \"#utility.yul\":5064:5083   */\n      mstore\n        /* \"#utility.yul\":5116:5120   */\n      0x20\n        /* \"#utility.yul\":5111:5114   */\n      dup3\n        /* \"#utility.yul\":5107:5121   */\n      add\n        /* \"#utility.yul\":5092:5121   */\n      swap1\n      pop\n        /* \"#utility.yul\":4958:5127   */\n      swap3\n      swap2\n      pop\n      pop\n      jump\t// out\n        /* \"#utility.yul\":5133:5379   */\n    tag_271:\n        /* \"#utility.yul\":5214:5215   */\n      0x00\n        /* \"#utility.yul\":5224:5337   */\n    tag_389:\n        /* \"#utility.yul\":5238:5244   */\n      dup4\n        /* \"#utility.yul\":5235:5236   */\n      dup2\n        /* \"#utility.yul\":5232:5245   */\n      lt\n        /* \"#utility.yul\":5224:5337   */\n      iszero\n      tag_391\n      jumpi\n        /* \"#utility.yul\":5323:5324   */\n      dup1\n        /* \"#utility.yul\":5318:5321   */\n      dup3\n        /* \"#utility.yul\":5314:5325   */\n      add\n        /* \"#utility.yul\":5308:5326   */\n      mload\n        /* \"#utility.yul\":5304:5305   */\n      dup2\n        /* \"#utility.yul\":5299:5302   */\n      dup5\n        /* \"#utility.yul\":5295:5306   */\n      add\n        /* \"#utility.yul\":5288:5327   */\n      mstore\n        /* \"#utility.yul\":5260:5262   */\n      0x20\n        /* \"#utility.yul\":5257:5258   */\n      dup2\n        /* \"#utility.yul\":5253:5263   */\n      add\n        /* \"#utility.yul\":5248:5263   */\n      swap1\n      pop\n        /* \"#utility.yul\":5224:5337   */\n      jump(tag_389)\n    tag_391:\n        /* \"#utility.yul\":5371:5372   */\n      0x00\n        /* \"#utility.yul\":5362:5368   */\n      dup5\n        /* \"#utility.yul\":5357:5360   */\n      dup5\n        /* \"#utility.yul\":5353:5369   */\n      add\n        /* \"#utility.yul\":5346:5373   */\n      mstore\n        /* \"#utility.yul\":5195:5379   */\n      pop\n        /* \"#utility.yul\":5133:5379   */\n      pop\n      pop\n      pop\n      jump\t// out\n        /* \"#utility.yul\":5385:5762   */\n    tag_272:\n        /* \"#utility.yul\":5473:5476   */\n      0x00\n        /* \"#utility.yul\":5501:5540   */\n      tag_393\n        /* \"#utility.yul\":5534:5539   */\n      dup3\n        /* \"#utility.yul\":5501:5540   */\n      tag_269\n      jump\t// in\n    tag_393:\n        /* \"#utility.yul\":5556:5627   */\n      tag_394\n        /* \"#utility.yul\":5620:5626   */\n      dup2\n        /* \"#utility.yul\":5615:5618   */\n      dup6\n        /* \"#utility.yul\":5556:5627   */\n      tag_270\n      jump\t// in\n    tag_394:\n        /* \"#utility.yul\":5549:5627   */\n      swap4\n      pop\n        /* \"#utility.yul\":5636:5701   */\n      tag_395\n        /* \"#utility.yul\":5694:5700   */\n      dup2\n        /* \"#utility.yul\":5689:5692   */\n      dup6\n        /* \"#utility.yul\":5682:5686   */\n      0x20\n        /* \"#utility.yul\":5675:5680   */\n      dup7\n        /* \"#utility.yul\":5671:5687   */\n      add\n        /* \"#utility.yul\":5636:5701   */\n      tag_271\n      jump\t// in\n    tag_395:\n        /* \"#utility.yul\":5726:5755   */\n      tag_396\n        /* \"#utility.yul\":5748:5754   */\n      dup2\n        /* \"#utility.yul\":5726:5755   */\n      tag_254\n      jump\t// in\n    tag_396:\n        /* \"#utility.yul\":5721:5724   */\n      dup5\n        /* \"#utility.yul\":5717:5756   */\n      add\n        /* \"#utility.yul\":5710:5756   */\n      swap2\n      pop\n        /* \"#utility.yul\":5477:5762   */\n      pop\n        /* \"#utility.yul\":5385:5762   */\n      swap3\n      swap2\n      pop\n      pop\n      jump\t// out\n        /* \"#utility.yul\":5768:5894   */\n    tag_273:\n        /* \"#utility.yul\":5805:5812   */\n      0x00\n        /* \"#utility.yul\":5845:5887   */\n      0xffffffffffffffffffffffffffffffffffffffff\n        /* \"#utility.yul\":5838:5843   */\n      dup3\n        /* \"#utility.yul\":5834:5888   */\n      and\n        /* \"#utility.yul\":5823:5888   */\n      swap1\n      pop\n        /* \"#utility.yul\":5768:5894   */\n      swap2\n      swap1\n      pop\n      jump\t// out\n        /* \"#utility.yul\":5900:5996   */\n    tag_274:\n        /* \"#utility.yul\":5937:5944   */\n      0x00\n        /* \"#utility.yul\":5966:5990   */\n      tag_399\n        /* \"#utility.yul\":5984:5989   */\n      dup3\n        /* \"#utility.yul\":5966:5990   */\n      tag_273\n      jump\t// in\n    tag_399:\n        /* \"#utility.yul\":5955:5990   */\n      swap1\n      pop\n        /* \"#utility.yul\":5900:5996   */\n      swap2\n      swap1\n      pop\n      jump\t// out\n        /* \"#utility.yul\":6002:6120   */\n    tag_275:\n        /* \"#utility.yul\":6089:6113   */\n      tag_401\n        /* \"#utility.yul\":6107:6112   */\n      dup2\n        /* \"#utility.yul\":6089:6113   */\n      tag_274\n      jump\t// in\n    tag_401:\n        /* \"#utility.yul\":6084:6087   */\n      dup3\n        /* \"#utility.yul\":6077:6114   */\n      mstore\n        /* \"#utility.yul\":6002:6120   */\n      pop\n      pop\n      jump\t// out\n        /* \"#utility.yul\":6126:6244   */\n    tag_276:\n        /* \"#utility.yul\":6213:6237   */\n      tag_403\n        /* \"#utility.yul\":6231:6236   */\n      dup2\n        /* \"#utility.yul\":6213:6237   */\n      tag_262\n      jump\t// in\n    tag_403:\n        /* \"#utility.yul\":6208:6211   */\n      dup3\n        /* \"#utility.yul\":6201:6238   */\n      mstore\n        /* \"#utility.yul\":6126:6244   */\n      pop\n      pop\n      jump\t// out\n        /* \"#utility.yul\":6250:7142   */\n    tag_31:\n        /* \"#utility.yul\":6516:6520   */\n      0x00\n        /* \"#utility.yul\":6554:6557   */\n      0xc0\n        /* \"#utility.yul\":6543:6552   */\n      dup3\n        /* \"#utility.yul\":6539:6558   */\n      add\n        /* \"#utility.yul\":6531:6558   */\n      swap1\n      pop\n        /* \"#utility.yul\":6568:6652   */\n      tag_405\n        /* \"#utility.yul\":6649:6650   */\n      0x00\n        /* \"#utility.yul\":6638:6647   */\n      dup4\n        /* \"#utility.yul\":6634:6651   */\n      add\n        /* \"#utility.yul\":6625:6631   */\n      dup10\n        /* \"#utility.yul\":6568:6652   */\n      tag_268\n      jump\t// in\n    tag_405:\n        /* \"#utility.yul\":6699:6708   */\n      dup2\n        /* \"#utility.yul\":6693:6697   */\n      dup2\n        /* \"#utility.yul\":6689:6709   */\n      sub\n        /* \"#utility.yul\":6684:6686   */\n      0x20\n        /* \"#utility.yul\":6673:6682   */\n      dup4\n        /* \"#utility.yul\":6669:6687   */\n      add\n        /* \"#utility.yul\":6662:6710   */\n      mstore\n        /* \"#utility.yul\":6727:6805   */\n      tag_406\n        /* \"#utility.yul\":6800:6804   */\n      dup2\n        /* \"#utility.yul\":6791:6797   */\n      dup9\n        /* \"#utility.yul\":6727:6805   */\n      tag_272\n      jump\t// in\n    tag_406:\n        /* \"#utility.yul\":6719:6805   */\n      swap1\n      pop\n        /* \"#utility.yul\":6815:6887   */\n      tag_407\n        /* \"#utility.yul\":6883:6885   */\n      0x40\n        /* \"#utility.yul\":6872:6881   */\n      dup4\n        /* \"#utility.yul\":6868:6886   */\n      add\n        /* \"#utility.yul\":6859:6865   */\n      dup8\n        /* \"#utility.yul\":6815:6887   */\n      tag_275\n      jump\t// in\n    tag_407:\n        /* \"#utility.yul\":6897:6969   */\n      tag_408\n        /* \"#utility.yul\":6965:6967   */\n      0x60\n        /* \"#utility.yul\":6954:6963   */\n      dup4\n        /* \"#utility.yul\":6950:6968   */\n      add\n        /* \"#utility.yul\":6941:6947   */\n      dup7\n        /* \"#utility.yul\":6897:6969   */\n      tag_276\n      jump\t// in\n    tag_408:\n        /* \"#utility.yul\":6979:7052   */\n      tag_409\n        /* \"#utility.yul\":7047:7050   */\n      0x80\n        /* \"#utility.yul\":7036:7045   */\n      dup4\n        /* \"#utility.yul\":7032:7051   */\n      add\n        /* \"#utility.yul\":7023:7029   */\n      dup6\n        /* \"#utility.yul\":6979:7052   */\n      tag_276\n      jump\t// in\n    tag_409:\n        /* \"#utility.yul\":7062:7135   */\n      tag_410\n        /* \"#utility.yul\":7130:7133   */\n      0xa0\n        /* \"#utility.yul\":7119:7128   */\n      dup4\n        /* \"#utility.yul\":7115:7134   */\n      add\n        /* \"#utility.yul\":7106:7112   */\n      dup5\n        /* \"#utility.yul\":7062:7135   */\n      tag_276\n      jump\t// in\n    tag_410:\n        /* \"#utility.yul\":6250:7142   */\n      swap8\n      swap7\n      pop\n      pop\n      pop\n      pop\n      pop\n      pop\n      pop\n      jump\t// out\n        /* \"#utility.yul\":7148:7370   */\n    tag_36:\n        /* \"#utility.yul\":7241:7245   */\n      0x00\n        /* \"#utility.yul\":7279:7281   */\n      0x20\n        /* \"#utility.yul\":7268:7277   */\n      dup3\n        /* \"#utility.yul\":7264:7282   */\n      add\n        /* \"#utility.yul\":7256:7282   */\n      swap1\n      pop\n        /* \"#utility.yul\":7292:7363   */\n      tag_412\n        /* \"#utility.yul\":7360:7361   */\n      0x00\n        /* \"#utility.yul\":7349:7358   */\n      dup4\n        /* \"#utility.yul\":7345:7362   */\n      add\n        /* \"#utility.yul\":7336:7342   */\n      dup5\n        /* \"#utility.yul\":7292:7363   */\n      tag_276\n      jump\t// in\n    tag_412:\n        /* \"#utility.yul\":7148:7370   */\n      swap3\n      swap2\n      pop\n      pop\n      jump\t// out\n        /* \"#utility.yul\":7376:7498   */\n    tag_277:\n        /* \"#utility.yul\":7449:7473   */\n      tag_414\n        /* \"#utility.yul\":7467:7472   */\n      dup2\n        /* \"#utility.yul\":7449:7473   */\n      tag_274\n      jump\t// in\n    tag_414:\n        /* \"#utility.yul\":7442:7447   */\n      dup2\n        /* \"#utility.yul\":7439:7474   */\n      eq\n        /* \"#utility.yul\":7429:7492   */\n      tag_415\n      jumpi\n        /* \"#utility.yul\":7488:7489   */\n      0x00\n        /* \"#utility.yul\":7485:7486   */\n      dup1\n        /* \"#utility.yul\":7478:7490   */\n      revert\n        /* \"#utility.yul\":7429:7492   */\n    tag_415:\n        /* \"#utility.yul\":7376:7498   */\n      pop\n      jump\t// out\n        /* \"#utility.yul\":7504:7643   */\n    tag_278:\n        /* \"#utility.yul\":7550:7555   */\n      0x00\n        /* \"#utility.yul\":7588:7594   */\n      dup2\n        /* \"#utility.yul\":7575:7595   */\n      calldataload\n        /* \"#utility.yul\":7566:7595   */\n      swap1\n      pop\n        /* \"#utility.yul\":7604:7637   */\n      tag_417\n        /* \"#utility.yul\":7631:7636   */\n      dup2\n        /* \"#utility.yul\":7604:7637   */\n      tag_277\n      jump\t// in\n    tag_417:\n        /* \"#utility.yul\":7504:7643   */\n      swap3\n      swap2\n      pop\n      pop\n      jump\t// out\n        /* \"#utility.yul\":7649:7978   */\n    tag_39:\n        /* \"#utility.yul\":7708:7714   */\n      0x00\n        /* \"#utility.yul\":7757:7759   */\n      0x20\n        /* \"#utility.yul\":7745:7754   */\n      dup3\n        /* \"#utility.yul\":7736:7743   */\n      dup5\n        /* \"#utility.yul\":7732:7755   */\n      sub\n        /* \"#utility.yul\":7728:7760   */\n      slt\n        /* \"#utility.yul\":7725:7844   */\n      iszero\n      tag_419\n      jumpi\n        /* \"#utility.yul\":7763:7842   */\n      tag_420\n      tag_250\n      jump\t// in\n    tag_420:\n        /* \"#utility.yul\":7725:7844   */\n    tag_419:\n        /* \"#utility.yul\":7883:7884   */\n      0x00\n        /* \"#utility.yul\":7908:7961   */\n      tag_421\n        /* \"#utility.yul\":7953:7960   */\n      dup5\n        /* \"#utility.yul\":7944:7950   */\n      dup3\n        /* \"#utility.yul\":7933:7942   */\n      dup6\n        /* \"#utility.yul\":7929:7951   */\n      add\n        /* \"#utility.yul\":7908:7961   */\n      tag_278\n      jump\t// in\n    tag_421:\n        /* \"#utility.yul\":7898:7961   */\n      swap2\n      pop\n        /* \"#utility.yul\":7854:7971   */\n      pop\n        /* \"#utility.yul\":7649:7978   */\n      swap3\n      swap2\n      pop\n      pop\n      jump\t// out\n        /* \"#utility.yul\":7984:8638   */\n    tag_49:\n        /* \"#utility.yul\":8062:8068   */\n      0x00\n        /* \"#utility.yul\":8070:8076   */\n      dup1\n        /* \"#utility.yul\":8119:8121   */\n      0x40\n        /* \"#utility.yul\":8107:8116   */\n      dup4\n        /* \"#utility.yul\":8098:8105   */\n      dup6\n        /* \"#utility.yul\":8094:8117   */\n      sub\n        /* \"#utility.yul\":8090:8122   */\n      slt\n        /* \"#utility.yul\":8087:8206   */\n      iszero\n      tag_423\n      jumpi\n        /* \"#utility.yul\":8125:8204   */\n      tag_424\n      tag_250\n      jump\t// in\n    tag_424:\n        /* \"#utility.yul\":8087:8206   */\n    tag_423:\n        /* \"#utility.yul\":8273:8274   */\n      0x00\n        /* \"#utility.yul\":8262:8271   */\n      dup4\n        /* \"#utility.yul\":8258:8275   */\n      add\n        /* \"#utility.yul\":8245:8276   */\n      calldataload\n        /* \"#utility.yul\":8303:8321   */\n      0xffffffffffffffff\n        /* \"#utility.yul\":8295:8301   */\n      dup2\n        /* \"#utility.yul\":8292:8322   */\n      gt\n        /* \"#utility.yul\":8289:8406   */\n      iszero\n      tag_425\n      jumpi\n        /* \"#utility.yul\":8325:8404   */\n      tag_426\n      tag_251\n      jump\t// in\n    tag_426:\n        /* \"#utility.yul\":8289:8406   */\n    tag_425:\n        /* \"#utility.yul\":8430:8493   */\n      tag_427\n        /* \"#utility.yul\":8485:8492   */\n      dup6\n        /* \"#utility.yul\":8476:8482   */\n      dup3\n        /* \"#utility.yul\":8465:8474   */\n      dup7\n        /* \"#utility.yul\":8461:8483   */\n      add\n        /* \"#utility.yul\":8430:8493   */\n      tag_261\n      jump\t// in\n    tag_427:\n        /* \"#utility.yul\":8420:8493   */\n      swap3\n      pop\n        /* \"#utility.yul\":8216:8503   */\n      pop\n        /* \"#utility.yul\":8542:8544   */\n      0x20\n        /* \"#utility.yul\":8568:8621   */\n      tag_428\n        /* \"#utility.yul\":8613:8620   */\n      dup6\n        /* \"#utility.yul\":8604:8610   */\n      dup3\n        /* \"#utility.yul\":8593:8602   */\n      dup7\n        /* \"#utility.yul\":8589:8611   */\n      add\n        /* \"#utility.yul\":8568:8621   */\n      tag_278\n      jump\t// in\n    tag_428:\n        /* \"#utility.yul\":8558:8621   */\n      swap2\n      pop\n        /* \"#utility.yul\":8513:8631   */\n      pop\n        /* \"#utility.yul\":7984:8638   */\n      swap3\n      pop\n      swap3\n      swap1\n      pop\n      jump\t// out\n        /* \"#utility.yul\":8644:9118   */\n    tag_54:\n        /* \"#utility.yul\":8712:8718   */\n      0x00\n        /* \"#utility.yul\":8720:8726   */\n      dup1\n        /* \"#utility.yul\":8769:8771   */\n      0x40\n        /* \"#utility.yul\":8757:8766   */\n      dup4\n        /* \"#utility.yul\":8748:8755   */\n      dup6\n        /* \"#utility.yul\":8744:8767   */\n      sub\n        /* \"#utility.yul\":8740:8772   */\n      slt\n        /* \"#utility.yul\":8737:8856   */\n      iszero\n      tag_430\n      jumpi\n        /* \"#utility.yul\":8775:8854   */\n      tag_431\n      tag_250\n      jump\t// in\n    tag_431:\n        /* \"#utility.yul\":8737:8856   */\n    tag_430:\n        /* \"#utility.yul\":8895:8896   */\n      0x00\n        /* \"#utility.yul\":8920:8973   */\n      tag_432\n        /* \"#utility.yul\":8965:8972   */\n      dup6\n        /* \"#utility.yul\":8956:8962   */\n      dup3\n        /* \"#utility.yul\":8945:8954   */\n      dup7\n        /* \"#utility.yul\":8941:8963   */\n      add\n        /* \"#utility.yul\":8920:8973   */\n      tag_278\n      jump\t// in\n    tag_432:\n        /* \"#utility.yul\":8910:8973   */\n      swap3\n      pop\n        /* \"#utility.yul\":8866:8983   */\n      pop\n        /* \"#utility.yul\":9022:9024   */\n      0x20\n        /* \"#utility.yul\":9048:9101   */\n      tag_433\n        /* \"#utility.yul\":9093:9100   */\n      dup6\n        /* \"#utility.yul\":9084:9090   */\n      dup3\n        /* \"#utility.yul\":9073:9082   */\n      dup7\n        /* \"#utility.yul\":9069:9091   */\n      add\n        /* \"#utility.yul\":9048:9101   */\n      tag_278\n      jump\t// in\n    tag_433:\n        /* \"#utility.yul\":9038:9101   */\n      swap2\n      pop\n        /* \"#utility.yul\":8993:9111   */\n      pop\n        /* \"#utility.yul\":8644:9118   */\n      swap3\n      pop\n      swap3\n      swap1\n      pop\n      jump\t// out\n        /* \"#utility.yul\":9124:9346   */\n    tag_59:\n        /* \"#utility.yul\":9217:9221   */\n      0x00\n        /* \"#utility.yul\":9255:9257   */\n      0x20\n        /* \"#utility.yul\":9244:9253   */\n      dup3\n        /* \"#utility.yul\":9240:9258   */\n      add\n        /* \"#utility.yul\":9232:9258   */\n      swap1\n      pop\n        /* \"#utility.yul\":9268:9339   */\n      tag_435\n        /* \"#utility.yul\":9336:9337   */\n      0x00\n        /* \"#utility.yul\":9325:9334   */\n      dup4\n        /* \"#utility.yul\":9321:9338   */\n      add\n        /* \"#utility.yul\":9312:9318   */\n      dup5\n        /* \"#utility.yul\":9268:9339   */\n      tag_275\n      jump\t// in\n    tag_435:\n        /* \"#utility.yul\":9124:9346   */\n      swap3\n      swap2\n      pop\n      pop\n      jump\t// out\n        /* \"#utility.yul\":9352:10769   */\n    tag_65:\n        /* \"#utility.yul\":9476:9482   */\n      0x00\n        /* \"#utility.yul\":9484:9490   */\n      dup1\n        /* \"#utility.yul\":9492:9498   */\n      0x00\n        /* \"#utility.yul\":9500:9506   */\n      dup1\n        /* \"#utility.yul\":9508:9514   */\n      0x00\n        /* \"#utility.yul\":9516:9522   */\n      dup1\n        /* \"#utility.yul\":9565:9568   */\n      0xc0\n        /* \"#utility.yul\":9553:9562   */\n      dup8\n        /* \"#utility.yul\":9544:9551   */\n      dup10\n        /* \"#utility.yul\":9540:9563   */\n      sub\n        /* \"#utility.yul\":9536:9569   */\n      slt\n        /* \"#utility.yul\":9533:9653   */\n      iszero\n      tag_437\n      jumpi\n        /* \"#utility.yul\":9572:9651   */\n      tag_438\n      tag_250\n      jump\t// in\n    tag_438:\n        /* \"#utility.yul\":9533:9653   */\n    tag_437:\n        /* \"#utility.yul\":9720:9721   */\n      0x00\n        /* \"#utility.yul\":9709:9718   */\n      dup8\n        /* \"#utility.yul\":9705:9722   */\n      add\n        /* \"#utility.yul\":9692:9723   */\n      calldataload\n        /* \"#utility.yul\":9750:9768   */\n      0xffffffffffffffff\n        /* \"#utility.yul\":9742:9748   */\n      dup2\n        /* \"#utility.yul\":9739:9769   */\n      gt\n        /* \"#utility.yul\":9736:9853   */\n      iszero\n      tag_439\n      jumpi\n        /* \"#utility.yul\":9772:9851   */\n      tag_440\n      tag_251\n      jump\t// in\n    tag_440:\n        /* \"#utility.yul\":9736:9853   */\n    tag_439:\n        /* \"#utility.yul\":9877:9940   */\n      tag_441\n        /* \"#utility.yul\":9932:9939   */\n      dup10\n        /* \"#utility.yul\":9923:9929   */\n      dup3\n        /* \"#utility.yul\":9912:9921   */\n      dup11\n        /* \"#utility.yul\":9908:9930   */\n      add\n        /* \"#utility.yul\":9877:9940   */\n      tag_261\n      jump\t// in\n    tag_441:\n        /* \"#utility.yul\":9867:9940   */\n      swap7\n      pop\n        /* \"#utility.yul\":9663:9950   */\n      pop\n        /* \"#utility.yul\":10017:10019   */\n      0x20\n        /* \"#utility.yul\":10006:10015   */\n      dup8\n        /* \"#utility.yul\":10002:10020   */\n      add\n        /* \"#utility.yul\":9989:10021   */\n      calldataload\n        /* \"#utility.yul\":10048:10066   */\n      0xffffffffffffffff\n        /* \"#utility.yul\":10040:10046   */\n      dup2\n        /* \"#utility.yul\":10037:10067   */\n      gt\n        /* \"#utility.yul\":10034:10151   */\n      iszero\n      tag_442\n      jumpi\n        /* \"#utility.yul\":10070:10149   */\n      tag_443\n      tag_251\n      jump\t// in\n    tag_443:\n        /* \"#utility.yul\":10034:10151   */\n    tag_442:\n        /* \"#utility.yul\":10175:10238   */\n      tag_444\n        /* \"#utility.yul\":10230:10237   */\n      dup10\n        /* \"#utility.yul\":10221:10227   */\n      dup3\n        /* \"#utility.yul\":10210:10219   */\n      dup11\n        /* \"#utility.yul\":10206:10228   */\n      add\n        /* \"#utility.yul\":10175:10238   */\n      tag_261\n      jump\t// in\n    tag_444:\n        /* \"#utility.yul\":10165:10238   */\n      swap6\n      pop\n        /* \"#utility.yul\":9960:10248   */\n      pop\n        /* \"#utility.yul\":10287:10289   */\n      0x40\n        /* \"#utility.yul\":10313:10366   */\n      tag_445\n        /* \"#utility.yul\":10358:10365   */\n      dup10\n        /* \"#utility.yul\":10349:10355   */\n      dup3\n        /* \"#utility.yul\":10338:10347   */\n      dup11\n        /* \"#utility.yul\":10334:10356   */\n      add\n        /* \"#utility.yul\":10313:10366   */\n      tag_278\n      jump\t// in\n    tag_445:\n        /* \"#utility.yul\":10303:10366   */\n      swap5\n      pop\n        /* \"#utility.yul\":10258:10376   */\n      pop\n        /* \"#utility.yul\":10415:10417   */\n      0x60\n        /* \"#utility.yul\":10441:10494   */\n      tag_446\n        /* \"#utility.yul\":10486:10493   */\n      dup10\n        /* \"#utility.yul\":10477:10483   */\n      dup3\n        /* \"#utility.yul\":10466:10475   */\n      dup11\n        /* \"#utility.yul\":10462:10484   */\n      add\n        /* \"#utility.yul\":10441:10494   */\n      tag_264\n      jump\t// in\n    tag_446:\n        /* \"#utility.yul\":10431:10494   */\n      swap4\n      pop\n        /* \"#utility.yul\":10386:10504   */\n      pop\n        /* \"#utility.yul\":10543:10546   */\n      0x80\n        /* \"#utility.yul\":10570:10623   */\n      tag_447\n        /* \"#utility.yul\":10615:10622   */\n      dup10\n        /* \"#utility.yul\":10606:10612   */\n      dup3\n        /* \"#utility.yul\":10595:10604   */\n      dup11\n        /* \"#utility.yul\":10591:10613   */\n      add\n        /* \"#utility.yul\":10570:10623   */\n      tag_264\n      jump\t// in\n    tag_447:\n        /* \"#utility.yul\":10560:10623   */\n      swap3\n      pop\n        /* \"#utility.yul\":10514:10633   */\n      pop\n        /* \"#utility.yul\":10672:10675   */\n      0xa0\n        /* \"#utility.yul\":10699:10752   */\n      tag_448\n        /* \"#utility.yul\":10744:10751   */\n      dup10\n        /* \"#utility.yul\":10735:10741   */\n      dup3\n        /* \"#utility.yul\":10724:10733   */\n      dup11\n        /* \"#utility.yul\":10720:10742   */\n      add\n        /* \"#utility.yul\":10699:10752   */\n      tag_264\n      jump\t// in\n    tag_448:\n        /* \"#utility.yul\":10689:10752   */\n      swap2\n      pop\n        /* \"#utility.yul\":10643:10762   */\n      pop\n        /* \"#utility.yul\":9352:10769   */\n      swap3\n      swap6\n      pop\n      swap3\n      swap6\n      pop\n      swap3\n      swap6\n      jump\t// out\n        /* \"#utility.yul\":10775:10865   */\n    tag_279:\n        /* \"#utility.yul\":10809:10816   */\n      0x00\n        /* \"#utility.yul\":10852:10857   */\n      dup2\n        /* \"#utility.yul\":10845:10858   */\n      iszero\n        /* \"#utility.yul\":10838:10859   */\n      iszero\n        /* \"#utility.yul\":10827:10859   */\n      swap1\n      pop\n        /* \"#utility.yul\":10775:10865   */\n      swap2\n      swap1\n      pop\n      jump\t// out\n        /* \"#utility.yul\":10871:10980   */\n    tag_280:\n        /* \"#utility.yul\":10952:10973   */\n      tag_451\n        /* \"#utility.yul\":10967:10972   */\n      dup2\n        /* \"#utility.yul\":10952:10973   */\n      tag_279\n      jump\t// in\n    tag_451:\n        /* \"#utility.yul\":10947:10950   */\n      dup3\n        /* \"#utility.yul\":10940:10974   */\n      mstore\n        /* \"#utility.yul\":10871:10980   */\n      pop\n      pop\n      jump\t// out\n        /* \"#utility.yul\":10986:11196   */\n    tag_81:\n        /* \"#utility.yul\":11073:11077   */\n      0x00\n        /* \"#utility.yul\":11111:11113   */\n      0x20\n        /* \"#utility.yul\":11100:11109   */\n      dup3\n        /* \"#utility.yul\":11096:11114   */\n      add\n        /* \"#utility.yul\":11088:11114   */\n      swap1\n      pop\n        /* \"#utility.yul\":11124:11189   */\n      tag_453\n        /* \"#utility.yul\":11186:11187   */\n      0x00\n        /* \"#utility.yul\":11175:11184   */\n      dup4\n        /* \"#utility.yul\":11171:11188   */\n      add\n        /* \"#utility.yul\":11162:11168   */\n      dup5\n        /* \"#utility.yul\":11124:11189   */\n      tag_280\n      jump\t// in\n    tag_453:\n        /* \"#utility.yul\":10986:11196   */\n      swap3\n      swap2\n      pop\n      pop\n      jump\t// out\n        /* \"#utility.yul\":11202:11350   */\n    tag_281:\n        /* \"#utility.yul\":11304:11315   */\n      0x00\n        /* \"#utility.yul\":11341:11344   */\n      dup2\n        /* \"#utility.yul\":11326:11344   */\n      swap1\n      pop\n        /* \"#utility.yul\":11202:11350   */\n      swap3\n      swap2\n      pop\n      pop\n      jump\t// out\n        /* \"#utility.yul\":11356:11746   */\n    tag_282:\n        /* \"#utility.yul\":11462:11465   */\n      0x00\n        /* \"#utility.yul\":11490:11529   */\n      tag_456\n        /* \"#utility.yul\":11523:11528   */\n      dup3\n        /* \"#utility.yul\":11490:11529   */\n      tag_269\n      jump\t// in\n    tag_456:\n        /* \"#utility.yul\":11545:11634   */\n      tag_457\n        /* \"#utility.yul\":11627:11633   */\n      dup2\n        /* \"#utility.yul\":11622:11625   */\n      dup6\n        /* \"#utility.yul\":11545:11634   */\n      tag_281\n      jump\t// in\n    tag_457:\n        /* \"#utility.yul\":11538:11634   */\n      swap4\n      pop\n        /* \"#utility.yul\":11643:11708   */\n      tag_458\n        /* \"#utility.yul\":11701:11707   */\n      dup2\n        /* \"#utility.yul\":11696:11699   */\n      dup6\n        /* \"#utility.yul\":11689:11693   */\n      0x20\n        /* \"#utility.yul\":11682:11687   */\n      dup7\n        /* \"#utility.yul\":11678:11694   */\n      add\n        /* \"#utility.yul\":11643:11708   */\n      tag_271\n      jump\t// in\n    tag_458:\n        /* \"#utility.yul\":11733:11739   */\n      dup1\n        /* \"#utility.yul\":11728:11731   */\n      dup5\n        /* \"#utility.yul\":11724:11740   */\n      add\n        /* \"#utility.yul\":11717:11740   */\n      swap2\n      pop\n        /* \"#utility.yul\":11466:11746   */\n      pop\n        /* \"#utility.yul\":11356:11746   */\n      swap3\n      swap2\n      pop\n      pop\n      jump\t// out\n        /* \"#utility.yul\":11752:12027   */\n    tag_92:\n        /* \"#utility.yul\":11884:11887   */\n      0x00\n        /* \"#utility.yul\":11906:12001   */\n      tag_460\n        /* \"#utility.yul\":11997:12000   */\n      dup3\n        /* \"#utility.yul\":11988:11994   */\n      dup5\n        /* \"#utility.yul\":11906:12001   */\n      tag_282\n      jump\t// in\n    tag_460:\n        /* \"#utility.yul\":11899:12001   */\n      swap2\n      pop\n        /* \"#utility.yul\":12018:12021   */\n      dup2\n        /* \"#utility.yul\":12011:12021   */\n      swap1\n      pop\n        /* \"#utility.yul\":11752:12027   */\n      swap3\n      swap2\n      pop\n      pop\n      jump\t// out\n        /* \"#utility.yul\":12033:12199   */\n    tag_283:\n        /* \"#utility.yul\":12173:12191   */\n      0x466175636574206e6f7420666f756e6400000000000000000000000000000000\n        /* \"#utility.yul\":12169:12170   */\n      0x00\n        /* \"#utility.yul\":12161:12167   */\n      dup3\n        /* \"#utility.yul\":12157:12171   */\n      add\n        /* \"#utility.yul\":12150:12192   */\n      mstore\n        /* \"#utility.yul\":12033:12199   */\n      pop\n      jump\t// out\n        /* \"#utility.yul\":12205:12571   */\n    tag_284:\n        /* \"#utility.yul\":12347:12350   */\n      0x00\n        /* \"#utility.yul\":12368:12435   */\n      tag_463\n        /* \"#utility.yul\":12432:12434   */\n      0x10\n        /* \"#utility.yul\":12427:12430   */\n      dup4\n        /* \"#utility.yul\":12368:12435   */\n      tag_270\n      jump\t// in\n    tag_463:\n        /* \"#utility.yul\":12361:12435   */\n      swap2\n      pop\n        /* \"#utility.yul\":12444:12537   */\n      tag_464\n        /* \"#utility.yul\":12533:12536   */\n      dup3\n        /* \"#utility.yul\":12444:12537   */\n      tag_283\n      jump\t// in\n    tag_464:\n        /* \"#utility.yul\":12562:12564   */\n      0x20\n        /* \"#utility.yul\":12557:12560   */\n      dup3\n        /* \"#utility.yul\":12553:12565   */\n      add\n        /* \"#utility.yul\":12546:12565   */\n      swap1\n      pop\n        /* \"#utility.yul\":12205:12571   */\n      swap2\n      swap1\n      pop\n      jump\t// out\n        /* \"#utility.yul\":12577:12996   */\n    tag_97:\n        /* \"#utility.yul\":12743:12747   */\n      0x00\n        /* \"#utility.yul\":12781:12783   */\n      0x20\n        /* \"#utility.yul\":12770:12779   */\n      dup3\n        /* \"#utility.yul\":12766:12784   */\n      add\n        /* \"#utility.yul\":12758:12784   */\n      swap1\n      pop\n        /* \"#utility.yul\":12830:12839   */\n      dup2\n        /* \"#utility.yul\":12824:12828   */\n      dup2\n        /* \"#utility.yul\":12820:12840   */\n      sub\n        /* \"#utility.yul\":12816:12817   */\n      0x00\n        /* \"#utility.yul\":12805:12814   */\n      dup4\n        /* \"#utility.yul\":12801:12818   */\n      add\n        /* \"#utility.yul\":12794:12841   */\n      mstore\n        /* \"#utility.yul\":12858:12989   */\n      tag_466\n        /* \"#utility.yul\":12984:12988   */\n      dup2\n        /* \"#utility.yul\":12858:12989   */\n      tag_284\n      jump\t// in\n    tag_466:\n        /* \"#utility.yul\":12850:12989   */\n      swap1\n      pop\n        /* \"#utility.yul\":12577:12996   */\n      swap2\n      swap1\n      pop\n      jump\t// out\n        /* \"#utility.yul\":13002:13182   */\n    tag_285:\n        /* \"#utility.yul\":13050:13127   */\n      0x4e487b7100000000000000000000000000000000000000000000000000000000\n        /* \"#utility.yul\":13047:13048   */\n      0x00\n        /* \"#utility.yul\":13040:13128   */\n      mstore\n        /* \"#utility.yul\":13147:13151   */\n      0x22\n        /* \"#utility.yul\":13144:13145   */\n      0x04\n        /* \"#utility.yul\":13137:13152   */\n      mstore\n        /* \"#utility.yul\":13171:13175   */\n      0x24\n        /* \"#utility.yul\":13168:13169   */\n      0x00\n        /* \"#utility.yul\":13161:13176   */\n      revert\n        /* \"#utility.yul\":13188:13508   */\n    tag_100:\n        /* \"#utility.yul\":13232:13238   */\n      0x00\n        /* \"#utility.yul\":13269:13270   */\n      0x02\n        /* \"#utility.yul\":13263:13267   */\n      dup3\n        /* \"#utility.yul\":13259:13271   */\n      div\n        /* \"#utility.yul\":13249:13271   */\n      swap1\n      pop\n        /* \"#utility.yul\":13316:13317   */\n      0x01\n        /* \"#utility.yul\":13310:13314   */\n      dup3\n        /* \"#utility.yul\":13306:13318   */\n      and\n        /* \"#utility.yul\":13337:13355   */\n      dup1\n        /* \"#utility.yul\":13327:13408   */\n      tag_469\n      jumpi\n        /* \"#utility.yul\":13393:13397   */\n      0x7f\n        /* \"#utility.yul\":13385:13391   */\n      dup3\n        /* \"#utility.yul\":13381:13398   */\n      and\n        /* \"#utility.yul\":13371:13398   */\n      swap2\n      pop\n        /* \"#utility.yul\":13327:13408   */\n    tag_469:\n        /* \"#utility.yul\":13455:13457   */\n      0x20\n        /* \"#utility.yul\":13447:13453   */\n      dup3\n        /* \"#utility.yul\":13444:13458   */\n      lt\n        /* \"#utility.yul\":13424:13442   */\n      dup2\n        /* \"#utility.yul\":13421:13459   */\n      sub\n        /* \"#utility.yul\":13418:13502   */\n      tag_470\n      jumpi\n        /* \"#utility.yul\":13474:13492   */\n      tag_471\n      tag_285\n      jump\t// in\n    tag_471:\n        /* \"#utility.yul\":13418:13502   */\n    tag_470:\n        /* \"#utility.yul\":13239:13508   */\n      pop\n        /* \"#utility.yul\":13188:13508   */\n      swap2\n      swap1\n      pop\n      jump\t// out\n        /* \"#utility.yul\":13514:13657   */\n    tag_286:\n        /* \"#utility.yul\":13571:13576   */\n      0x00\n        /* \"#utility.yul\":13602:13608   */\n      dup2\n        /* \"#utility.yul\":13596:13609   */\n      mload\n        /* \"#utility.yul\":13587:13609   */\n      swap1\n      pop\n        /* \"#utility.yul\":13618:13651   */\n      tag_473\n        /* \"#utility.yul\":13645:13650   */\n      dup2\n        /* \"#utility.yul\":13618:13651   */\n      tag_263\n      jump\t// in\n    tag_473:\n        /* \"#utility.yul\":13514:13657   */\n      swap3\n      swap2\n      pop\n      pop\n      jump\t// out\n        /* \"#utility.yul\":13663:14014   */\n    tag_118:\n        /* \"#utility.yul\":13733:13739   */\n      0x00\n        /* \"#utility.yul\":13782:13784   */\n      0x20\n        /* \"#utility.yul\":13770:13779   */\n      dup3\n        /* \"#utility.yul\":13761:13768   */\n      dup5\n        /* \"#utility.yul\":13757:13780   */\n      sub\n        /* \"#utility.yul\":13753:13785   */\n      slt\n        /* \"#utility.yul\":13750:13869   */\n      iszero\n      tag_475\n      jumpi\n        /* \"#utility.yul\":13788:13867   */\n      tag_476\n      tag_250\n      jump\t// in\n    tag_476:\n        /* \"#utility.yul\":13750:13869   */\n    tag_475:\n        /* \"#utility.yul\":13908:13909   */\n      0x00\n        /* \"#utility.yul\":13933:13997   */\n      tag_477\n        /* \"#utility.yul\":13989:13996   */\n      dup5\n        /* \"#utility.yul\":13980:13986   */\n      dup3\n        /* \"#utility.yul\":13969:13978   */\n      dup6\n        /* \"#utility.yul\":13965:13987   */\n      add\n        /* \"#utility.yul\":13933:13997   */\n      tag_286\n      jump\t// in\n    tag_477:\n        /* \"#utility.yul\":13923:13997   */\n      swap2\n      pop\n        /* \"#utility.yul\":13879:14007   */\n      pop\n        /* \"#utility.yul\":13663:14014   */\n      swap3\n      swap2\n      pop\n      pop\n      jump\t// out\n        /* \"#utility.yul\":14020:14190   */\n    tag_287:\n        /* \"#utility.yul\":14160:14182   */\n      0x5369746520617574686f72697479206f6e6c792e000000000000000000000000\n        /* \"#utility.yul\":14156:14157   */\n      0x00\n        /* \"#utility.yul\":14148:14154   */\n      dup3\n        /* \"#utility.yul\":14144:14158   */\n      add\n        /* \"#utility.yul\":14137:14183   */\n      mstore\n        /* \"#utility.yul\":14020:14190   */\n      pop\n      jump\t// out\n        /* \"#utility.yul\":14196:14562   */\n    tag_288:\n        /* \"#utility.yul\":14338:14341   */\n      0x00\n        /* \"#utility.yul\":14359:14426   */\n      tag_480\n        /* \"#utility.yul\":14423:14425   */\n      0x14\n        /* \"#utility.yul\":14418:14421   */\n      dup4\n        /* \"#utility.yul\":14359:14426   */\n      tag_270\n      jump\t// in\n    tag_480:\n        /* \"#utility.yul\":14352:14426   */\n      swap2\n      pop\n        /* \"#utility.yul\":14435:14528   */\n      tag_481\n        /* \"#utility.yul\":14524:14527   */\n      dup3\n        /* \"#utility.yul\":14435:14528   */\n      tag_287\n      jump\t// in\n    tag_481:\n        /* \"#utility.yul\":14553:14555   */\n      0x20\n        /* \"#utility.yul\":14548:14551   */\n      dup3\n        /* \"#utility.yul\":14544:14556   */\n      add\n        /* \"#utility.yul\":14537:14556   */\n      swap1\n      pop\n        /* \"#utility.yul\":14196:14562   */\n      swap2\n      swap1\n      pop\n      jump\t// out\n        /* \"#utility.yul\":14568:14987   */\n    tag_122:\n        /* \"#utility.yul\":14734:14738   */\n      0x00\n        /* \"#utility.yul\":14772:14774   */\n      0x20\n        /* \"#utility.yul\":14761:14770   */\n      dup3\n        /* \"#utility.yul\":14757:14775   */\n      add\n        /* \"#utility.yul\":14749:14775   */\n      swap1\n      pop\n        /* \"#utility.yul\":14821:14830   */\n      dup2\n        /* \"#utility.yul\":14815:14819   */\n      dup2\n        /* \"#utility.yul\":14811:14831   */\n      sub\n        /* \"#utility.yul\":14807:14808   */\n      0x00\n        /* \"#utility.yul\":14796:14805   */\n      dup4\n        /* \"#utility.yul\":14792:14809   */\n      add\n        /* \"#utility.yul\":14785:14832   */\n      mstore\n        /* \"#utility.yul\":14849:14980   */\n      tag_483\n        /* \"#utility.yul\":14975:14979   */\n      dup2\n        /* \"#utility.yul\":14849:14980   */\n      tag_288\n      jump\t// in\n    tag_483:\n        /* \"#utility.yul\":14841:14980   */\n      swap1\n      pop\n        /* \"#utility.yul\":14568:14987   */\n      swap2\n      swap1\n      pop\n      jump\t// out\n        /* \"#utility.yul\":14993:15078   */\n    tag_289:\n        /* \"#utility.yul\":15038:15045   */\n      0x00\n        /* \"#utility.yul\":15067:15072   */\n      dup2\n        /* \"#utility.yul\":15056:15072   */\n      swap1\n      pop\n        /* \"#utility.yul\":14993:15078   */\n      swap2\n      swap1\n      pop\n      jump\t// out\n        /* \"#utility.yul\":15084:15144   */\n    tag_290:\n        /* \"#utility.yul\":15112:15115   */\n      0x00\n        /* \"#utility.yul\":15133:15138   */\n      dup2\n        /* \"#utility.yul\":15126:15138   */\n      swap1\n      pop\n        /* \"#utility.yul\":15084:15144   */\n      swap2\n      swap1\n      pop\n      jump\t// out\n        /* \"#utility.yul\":15150:15308   */\n    tag_291:\n        /* \"#utility.yul\":15208:15217   */\n      0x00\n        /* \"#utility.yul\":15241:15302   */\n      tag_487\n        /* \"#utility.yul\":15259:15301   */\n      tag_488\n        /* \"#utility.yul\":15268:15300   */\n      tag_489\n        /* \"#utility.yul\":15294:15299   */\n      dup5\n        /* \"#utility.yul\":15268:15300   */\n      tag_289\n      jump\t// in\n    tag_489:\n        /* \"#utility.yul\":15259:15301   */\n      tag_290\n      jump\t// in\n    tag_488:\n        /* \"#utility.yul\":15241:15302   */\n      tag_262\n      jump\t// in\n    tag_487:\n        /* \"#utility.yul\":15228:15302   */\n      swap1\n      pop\n        /* \"#utility.yul\":15150:15308   */\n      swap2\n      swap1\n      pop\n      jump\t// out\n        /* \"#utility.yul\":15314:15461   */\n    tag_292:\n        /* \"#utility.yul\":15409:15454   */\n      tag_491\n        /* \"#utility.yul\":15448:15453   */\n      dup2\n        /* \"#utility.yul\":15409:15454   */\n      tag_291\n      jump\t// in\n    tag_491:\n        /* \"#utility.yul\":15404:15407   */\n      dup3\n        /* \"#utility.yul\":15397:15455   */\n      mstore\n        /* \"#utility.yul\":15314:15461   */\n      pop\n      pop\n      jump\t// out\n        /* \"#utility.yul\":15467:15815   */\n    tag_138:\n        /* \"#utility.yul\":15596:15600   */\n      0x00\n        /* \"#utility.yul\":15634:15636   */\n      0x40\n        /* \"#utility.yul\":15623:15632   */\n      dup3\n        /* \"#utility.yul\":15619:15637   */\n      add\n        /* \"#utility.yul\":15611:15637   */\n      swap1\n      pop\n        /* \"#utility.yul\":15647:15718   */\n      tag_493\n        /* \"#utility.yul\":15715:15716   */\n      0x00\n        /* \"#utility.yul\":15704:15713   */\n      dup4\n        /* \"#utility.yul\":15700:15717   */\n      add\n        /* \"#utility.yul\":15691:15697   */\n      dup6\n        /* \"#utility.yul\":15647:15718   */\n      tag_275\n      jump\t// in\n    tag_493:\n        /* \"#utility.yul\":15728:15808   */\n      tag_494\n        /* \"#utility.yul\":15804:15806   */\n      0x20\n        /* \"#utility.yul\":15793:15802   */\n      dup4\n        /* \"#utility.yul\":15789:15807   */\n      add\n        /* \"#utility.yul\":15780:15786   */\n      dup5\n        /* \"#utility.yul\":15728:15808   */\n      tag_292\n      jump\t// in\n    tag_494:\n        /* \"#utility.yul\":15467:15815   */\n      swap4\n      swap3\n      pop\n      pop\n      pop\n      jump\t// out\n        /* \"#utility.yul\":15821:15937   */\n    tag_293:\n        /* \"#utility.yul\":15891:15912   */\n      tag_496\n        /* \"#utility.yul\":15906:15911   */\n      dup2\n        /* \"#utility.yul\":15891:15912   */\n      tag_279\n      jump\t// in\n    tag_496:\n        /* \"#utility.yul\":15884:15889   */\n      dup2\n        /* \"#utility.yul\":15881:15913   */\n      eq\n        /* \"#utility.yul\":15871:15931   */\n      tag_497\n      jumpi\n        /* \"#utility.yul\":15927:15928   */\n      0x00\n        /* \"#utility.yul\":15924:15925   */\n      dup1\n        /* \"#utility.yul\":15917:15929   */\n      revert\n        /* \"#utility.yul\":15871:15931   */\n    tag_497:\n        /* \"#utility.yul\":15821:15937   */\n      pop\n      jump\t// out\n        /* \"#utility.yul\":15943:16080   */\n    tag_294:\n        /* \"#utility.yul\":15997:16002   */\n      0x00\n        /* \"#utility.yul\":16028:16034   */\n      dup2\n        /* \"#utility.yul\":16022:16035   */\n      mload\n        /* \"#utility.yul\":16013:16035   */\n      swap1\n      pop\n        /* \"#utility.yul\":16044:16074   */\n      tag_499\n        /* \"#utility.yul\":16068:16073   */\n      dup2\n        /* \"#utility.yul\":16044:16074   */\n      tag_293\n      jump\t// in\n    tag_499:\n        /* \"#utility.yul\":15943:16080   */\n      swap3\n      swap2\n      pop\n      pop\n      jump\t// out\n        /* \"#utility.yul\":16086:16431   */\n    tag_142:\n        /* \"#utility.yul\":16153:16159   */\n      0x00\n        /* \"#utility.yul\":16202:16204   */\n      0x20\n        /* \"#utility.yul\":16190:16199   */\n      dup3\n        /* \"#utility.yul\":16181:16188   */\n      dup5\n        /* \"#utility.yul\":16177:16200   */\n      sub\n        /* \"#utility.yul\":16173:16205   */\n      slt\n        /* \"#utility.yul\":16170:16289   */\n      iszero\n      tag_501\n      jumpi\n        /* \"#utility.yul\":16208:16287   */\n      tag_502\n      tag_250\n      jump\t// in\n    tag_502:\n        /* \"#utility.yul\":16170:16289   */\n    tag_501:\n        /* \"#utility.yul\":16328:16329   */\n      0x00\n        /* \"#utility.yul\":16353:16414   */\n      tag_503\n        /* \"#utility.yul\":16406:16413   */\n      dup5\n        /* \"#utility.yul\":16397:16403   */\n      dup3\n        /* \"#utility.yul\":16386:16395   */\n      dup6\n        /* \"#utility.yul\":16382:16404   */\n      add\n        /* \"#utility.yul\":16353:16414   */\n      tag_294\n      jump\t// in\n    tag_503:\n        /* \"#utility.yul\":16343:16414   */\n      swap2\n      pop\n        /* \"#utility.yul\":16299:16424   */\n      pop\n        /* \"#utility.yul\":16086:16431   */\n      swap3\n      swap2\n      pop\n      pop\n      jump\t// out\n        /* \"#utility.yul\":16437:16609   */\n    tag_295:\n        /* \"#utility.yul\":16577:16601   */\n      0x46617563657420616c7265616479206578697374732e00000000000000000000\n        /* \"#utility.yul\":16573:16574   */\n      0x00\n        /* \"#utility.yul\":16565:16571   */\n      dup3\n        /* \"#utility.yul\":16561:16575   */\n      add\n        /* \"#utility.yul\":16554:16602   */\n      mstore\n        /* \"#utility.yul\":16437:16609   */\n      pop\n      jump\t// out\n        /* \"#utility.yul\":16615:16981   */\n    tag_296:\n        /* \"#utility.yul\":16757:16760   */\n      0x00\n        /* \"#utility.yul\":16778:16845   */\n      tag_506\n        /* \"#utility.yul\":16842:16844   */\n      0x16\n        /* \"#utility.yul\":16837:16840   */\n      dup4\n        /* \"#utility.yul\":16778:16845   */\n      tag_270\n      jump\t// in\n    tag_506:\n        /* \"#utility.yul\":16771:16845   */\n      swap2\n      pop\n        /* \"#utility.yul\":16854:16947   */\n      tag_507\n        /* \"#utility.yul\":16943:16946   */\n      dup3\n        /* \"#utility.yul\":16854:16947   */\n      tag_295\n      jump\t// in\n    tag_507:\n        /* \"#utility.yul\":16972:16974   */\n      0x20\n        /* \"#utility.yul\":16967:16970   */\n      dup3\n        /* \"#utility.yul\":16963:16975   */\n      add\n        /* \"#utility.yul\":16956:16975   */\n      swap1\n      pop\n        /* \"#utility.yul\":16615:16981   */\n      swap2\n      swap1\n      pop\n      jump\t// out\n        /* \"#utility.yul\":16987:17406   */\n    tag_157:\n        /* \"#utility.yul\":17153:17157   */\n      0x00\n        /* \"#utility.yul\":17191:17193   */\n      0x20\n        /* \"#utility.yul\":17180:17189   */\n      dup3\n        /* \"#utility.yul\":17176:17194   */\n      add\n        /* \"#utility.yul\":17168:17194   */\n      swap1\n      pop\n        /* \"#utility.yul\":17240:17249   */\n      dup2\n        /* \"#utility.yul\":17234:17238   */\n      dup2\n        /* \"#utility.yul\":17230:17250   */\n      sub\n        /* \"#utility.yul\":17226:17227   */\n      0x00\n        /* \"#utility.yul\":17215:17224   */\n      dup4\n        /* \"#utility.yul\":17211:17228   */\n      add\n        /* \"#utility.yul\":17204:17251   */\n      mstore\n        /* \"#utility.yul\":17268:17399   */\n      tag_509\n        /* \"#utility.yul\":17394:17398   */\n      dup2\n        /* \"#utility.yul\":17268:17399   */\n      tag_296\n      jump\t// in\n    tag_509:\n        /* \"#utility.yul\":17260:17399   */\n      swap1\n      pop\n        /* \"#utility.yul\":16987:17406   */\n      swap2\n      swap1\n      pop\n      jump\t// out\n        /* \"#utility.yul\":17412:17553   */\n    tag_297:\n        /* \"#utility.yul\":17461:17465   */\n      0x00\n        /* \"#utility.yul\":17484:17487   */\n      dup2\n        /* \"#utility.yul\":17476:17487   */\n      swap1\n      pop\n        /* \"#utility.yul\":17507:17510   */\n      dup2\n        /* \"#utility.yul\":17504:17505   */\n      0x00\n        /* \"#utility.yul\":17497:17511   */\n      mstore\n        /* \"#utility.yul\":17541:17545   */\n      0x20\n        /* \"#utility.yul\":17538:17539   */\n      0x00\n        /* \"#utility.yul\":17528:17546   */\n      keccak256\n        /* \"#utility.yul\":17520:17546   */\n      swap1\n      pop\n        /* \"#utility.yul\":17412:17553   */\n      swap2\n      swap1\n      pop\n      jump\t// out\n        /* \"#utility.yul\":17559:17652   */\n    tag_298:\n        /* \"#utility.yul\":17596:17602   */\n      0x00\n        /* \"#utility.yul\":17643:17645   */\n      0x20\n        /* \"#utility.yul\":17638:17640   */\n      0x1f\n        /* \"#utility.yul\":17631:17636   */\n      dup4\n        /* \"#utility.yul\":17627:17641   */\n      add\n        /* \"#utility.yul\":17623:17646   */\n      div\n        /* \"#utility.yul\":17613:17646   */\n      swap1\n      pop\n        /* \"#utility.yul\":17559:17652   */\n      swap2\n      swap1\n      pop\n      jump\t// out\n        /* \"#utility.yul\":17658:17765   */\n    tag_299:\n        /* \"#utility.yul\":17702:17710   */\n      0x00\n        /* \"#utility.yul\":17752:17757   */\n      dup3\n        /* \"#utility.yul\":17746:17750   */\n      dup3\n        /* \"#utility.yul\":17742:17758   */\n      shl\n        /* \"#utility.yul\":17721:17758   */\n      swap1\n      pop\n        /* \"#utility.yul\":17658:17765   */\n      swap3\n      swap2\n      pop\n      pop\n      jump\t// out\n        /* \"#utility.yul\":17771:18164   */\n    tag_300:\n        /* \"#utility.yul\":17840:17846   */\n      0x00\n        /* \"#utility.yul\":17890:17891   */\n      0x08\n        /* \"#utility.yul\":17878:17888   */\n      dup4\n        /* \"#utility.yul\":17874:17892   */\n      mul\n        /* \"#utility.yul\":17913:18010   */\n      tag_514\n        /* \"#utility.yul\":17943:18009   */\n      0xffffffffffffffffffffffffffffffffffffffffffffffffffffffffffffffff\n        /* \"#utility.yul\":17932:17941   */\n      dup3\n        /* \"#utility.yul\":17913:18010   */\n      tag_299\n      jump\t// in\n    tag_514:\n        /* \"#utility.yul\":18031:18070   */\n      tag_515\n        /* \"#utility.yul\":18061:18069   */\n      dup7\n        /* \"#utility.yul\":18050:18059   */\n      dup4\n        /* \"#utility.yul\":18031:18070   */\n      tag_299\n      jump\t// in\n    tag_515:\n        /* \"#utility.yul\":18019:18070   */\n      swap6\n      pop\n        /* \"#utility.yul\":18103:18107   */\n      dup1\n        /* \"#utility.yul\":18099:18108   */\n      not\n        /* \"#utility.yul\":18092:18097   */\n      dup5\n        /* \"#utility.yul\":18088:18109   */\n      and\n        /* \"#utility.yul\":18079:18109   */\n      swap4\n      pop\n        /* \"#utility.yul\":18152:18156   */\n      dup1\n        /* \"#utility.yul\":18142:18150   */\n      dup7\n        /* \"#utility.yul\":18138:18157   */\n      and\n        /* \"#utility.yul\":18131:18136   */\n      dup5\n        /* \"#utility.yul\":18128:18158   */\n      or\n        /* \"#utility.yul\":18118:18158   */\n      swap3\n      pop\n        /* \"#utility.yul\":17847:18164   */\n      pop\n      pop\n        /* \"#utility.yul\":17771:18164   */\n      swap4\n      swap3\n      pop\n      pop\n      pop\n      jump\t// out\n        /* \"#utility.yul\":18170:18312   */\n    tag_301:\n        /* \"#utility.yul\":18220:18229   */\n      0x00\n        /* \"#utility.yul\":18253:18306   */\n      tag_517\n        /* \"#utility.yul\":18271:18305   */\n      tag_518\n        /* \"#utility.yul\":18280:18304   */\n      tag_519\n        /* \"#utility.yul\":18298:18303   */\n      dup5\n        /* \"#utility.yul\":18280:18304   */\n      tag_262\n      jump\t// in\n    tag_519:\n        /* \"#utility.yul\":18271:18305   */\n      tag_290\n      jump\t// in\n    tag_518:\n        /* \"#utility.yul\":18253:18306   */\n      tag_262\n      jump\t// in\n    tag_517:\n        /* \"#utility.yul\":18240:18306   */\n      swap1\n      pop\n        /* \"#utility.yul\":18170:18312   */\n      swap2\n      swap1\n      pop\n      jump\t// out\n        /* \"#utility.yul\":18318:18393   */\n    tag_302:\n        /* \"#utility.yul\":18361:18364   */\n      0x00\n        /* \"#utility.yul\":18382:18387   */\n      dup2\n        /* \"#utility.yul\":18375:18387   */\n      swap1\n      pop\n        /* \"#utility.yul\":18318:18393   */\n      swap2\n      swap1\n      pop\n      jump\t// out\n        /* \"#utility.yul\":18399:18668   */\n    tag_303:\n        /* \"#utility.yul\":18509:18548   */\n      tag_522\n        /* \"#utility.yul\":18540:18547   */\n      dup4\n        /* \"#utility.yul\":18509:18548   */\n      tag_301\n      jump\t// in\n    tag_522:\n        /* \"#utility.yul\":18570:18661   */\n      tag_523\n        /* \"#utility.yul\":18619:18660   */\n      tag_524\n        /* \"#utility.yul\":18643:18659   */\n      dup3\n        /* \"#utility.yul\":18619:18660   */\n      tag_302\n      jump\t// in\n    tag_524:\n        /* \"#utility.yul\":18611:18617   */\n      dup5\n        /* \"#utility.yul\":18604:18608   */\n      dup5\n        /* \"#utility.yul\":18598:18609   */\n      sload\n        /* \"#utility.yul\":18570:18661   */\n      tag_300\n      jump\t// in\n    tag_523:\n        /* \"#utility.yul\":18564:18568   */\n      dup3\n        /* \"#utility.yul\":18557:18662   */\n      sstore\n        /* \"#utility.yul\":18475:18668   */\n      pop\n        /* \"#utility.yul\":18399:18668   */\n      pop\n      pop\n      pop\n      jump\t// out\n        /* \"#utility.yul\":18674:18747   */\n    tag_304:\n        /* \"#utility.yul\":18719:18722   */\n      0x00\n        /* \"#utility.yul\":18674:18747   */\n      swap1\n      jump\t// out\n        /* \"#utility.yul\":18753:18942   */\n    tag_305:\n        /* \"#utility.yul\":18830:18862   */\n      tag_527\n      tag_304\n      jump\t// in\n    tag_527:\n        /* \"#utility.yul\":18871:18936   */\n      tag_528\n        /* \"#utility.yul\":18929:18935   */\n      dup2\n        /* \"#utility.yul\":18921:18927   */\n      dup5\n        /* \"#utility.yul\":18915:18919   */\n      dup5\n        /* \"#utility.yul\":18871:18936   */\n      tag_303\n      jump\t// in\n    tag_528:\n        /* \"#utility.yul\":18806:18942   */\n      pop\n        /* \"#utility.yul\":18753:18942   */\n      pop\n      pop\n      jump\t// out\n        /* \"#utility.yul\":18948:19134   */\n    tag_306:\n        /* \"#utility.yul\":19008:19128   */\n    tag_530:\n        /* \"#utility.yul\":19025:19028   */\n      dup2\n        /* \"#utility.yul\":19018:19023   */\n      dup2\n        /* \"#utility.yul\":19015:19029   */\n      lt\n        /* \"#utility.yul\":19008:19128   */\n      iszero\n      tag_532\n      jumpi\n        /* \"#utility.yul\":19079:19118   */\n      tag_533\n        /* \"#utility.yul\":19116:19117   */\n      0x00\n        /* \"#utility.yul\":19109:19114   */\n      dup3\n        /* \"#utility.yul\":19079:19118   */\n      tag_305\n      jump\t// in\n    tag_533:\n        /* \"#utility.yul\":19052:19053   */\n      0x01\n        /* \"#utility.yul\":19045:19050   */\n      dup2\n        /* \"#utility.yul\":19041:19054   */\n      add\n        /* \"#utility.yul\":19032:19054   */\n      swap1\n      pop\n        /* \"#utility.yul\":19008:19128   */\n      jump(tag_530)\n    tag_532:\n        /* \"#utility.yul\":18948:19134   */\n      pop\n      pop\n      jump\t// out\n        /* \"#utility.yul\":19140:19683   */\n    tag_307:\n        /* \"#utility.yul\":19241:19243   */\n      0x1f\n        /* \"#utility.yul\":19236:19239   */\n      dup3\n        /* \"#utility.yul\":19233:19244   */\n      gt\n        /* \"#utility.yul\":19230:19676   */\n      iszero\n      tag_535\n      jumpi\n        /* \"#utility.yul\":19275:19313   */\n      tag_536\n        /* \"#utility.yul\":19307:19312   */\n      dup2\n        /* \"#utility.yul\":19275:19313   */\n      tag_297\n      jump\t// in\n    tag_536:\n        /* \"#utility.yul\":19359:19388   */\n      tag_537\n        /* \"#utility.yul\":19377:19387   */\n      dup5\n        /* \"#utility.yul\":19359:19388   */\n      tag_298\n      jump\t// in\n    tag_537:\n        /* \"#utility.yul\":19349:19357   */\n      dup2\n        /* \"#utility.yul\":19345:19389   */\n      add\n        /* \"#utility.yul\":19542:19544   */\n      0x20\n        /* \"#utility.yul\":19530:19540   */\n      dup6\n        /* \"#utility.yul\":19527:19545   */\n      lt\n        /* \"#utility.yul\":19524:19573   */\n      iszero\n      tag_538\n      jumpi\n        /* \"#utility.yul\":19563:19571   */\n      dup2\n        /* \"#utility.yul\":19548:19571   */\n      swap1\n      pop\n        /* \"#utility.yul\":19524:19573   */\n    tag_538:\n        /* \"#utility.yul\":19586:19666   */\n      tag_539\n        /* \"#utility.yul\":19642:19664   */\n      tag_540\n        /* \"#utility.yul\":19660:19663   */\n      dup6\n        /* \"#utility.yul\":19642:19664   */\n      tag_298\n      jump\t// in\n    tag_540:\n        /* \"#utility.yul\":19632:19640   */\n      dup4\n        /* \"#utility.yul\":19628:19665   */\n      add\n        /* \"#utility.yul\":19615:19626   */\n      dup3\n        /* \"#utility.yul\":19586:19666   */\n      tag_306\n      jump\t// in\n    tag_539:\n        /* \"#utility.yul\":19245:19676   */\n      pop\n      pop\n        /* \"#utility.yul\":19230:19676   */\n    tag_535:\n        /* \"#utility.yul\":19140:19683   */\n      pop\n      pop\n      pop\n      jump\t// out\n        /* \"#utility.yul\":19689:19806   */\n    tag_308:\n        /* \"#utility.yul\":19743:19751   */\n      0x00\n        /* \"#utility.yul\":19793:19798   */\n      dup3\n        /* \"#utility.yul\":19787:19791   */\n      dup3\n        /* \"#utility.yul\":19783:19799   */\n      shr\n        /* \"#utility.yul\":19762:19799   */\n      swap1\n      pop\n        /* \"#utility.yul\":19689:19806   */\n      swap3\n      swap2\n      pop\n      pop\n      jump\t// out\n        /* \"#utility.yul\":19812:19981   */\n    tag_309:\n        /* \"#utility.yul\":19856:19862   */\n      0x00\n        /* \"#utility.yul\":19889:19940   */\n      tag_543\n        /* \"#utility.yul\":19937:19938   */\n      0x00\n        /* \"#utility.yul\":19933:19939   */\n      not\n        /* \"#utility.yul\":19925:19930   */\n      dup5\n        /* \"#utility.yul\":19922:19923   */\n      0x08\n        /* \"#utility.yul\":19918:19931   */\n      mul\n        /* \"#utility.yul\":19889:19940   */\n      tag_308\n      jump\t// in\n    tag_543:\n        /* \"#utility.yul\":19885:19941   */\n      not\n        /* \"#utility.yul\":19970:19974   */\n      dup1\n        /* \"#utility.yul\":19964:19968   */\n      dup4\n        /* \"#utility.yul\":19960:19975   */\n      and\n        /* \"#utility.yul\":19950:19975   */\n      swap2\n      pop\n        /* \"#utility.yul\":19863:19981   */\n      pop\n        /* \"#utility.yul\":19812:19981   */\n      swap3\n      swap2\n      pop\n      pop\n      jump\t// out\n        /* \"#utility.yul\":19986:20281   */\n    tag_310:\n        /* \"#utility.yul\":20062:20066   */\n      0x00\n        /* \"#utility.yul\":20208:20237   */\n      tag_545\n        /* \"#utility.yul\":20233:20236   */\n      dup4\n        /* \"#utility.yul\":20227:20231   */\n      dup4\n        /* \"#utility.yul\":20208:20237   */\n      tag_309\n      jump\t// in\n    tag_545:\n        /* \"#utility.yul\":20200:20237   */\n      swap2\n      pop\n        /* \"#utility.yul\":20270:20273   */\n      dup3\n        /* \"#utility.yul\":20267:20268   */\n      0x02\n        /* \"#utility.yul\":20263:20274   */\n      mul\n        /* \"#utility.yul\":20257:20261   */\n      dup3\n        /* \"#utility.yul\":20254:20275   */\n      or\n        /* \"#utility.yul\":20246:20275   */\n      swap1\n      pop\n        /* \"#utility.yul\":19986:20281   */\n      swap3\n      swap2\n      pop\n      pop\n      jump\t// out\n        /* \"#utility.yul\":20286:21681   */\n    tag_164:\n        /* \"#utility.yul\":20403:20440   */\n      tag_547\n        /* \"#utility.yul\":20436:20439   */\n      dup3\n        /* \"#utility.yul\":20403:20440   */\n      tag_269\n      jump\t// in\n    tag_547:\n        /* \"#utility.yul\":20505:20523   */\n      0xffffffffffffffff\n        /* \"#utility.yul\":20497:20503   */\n      dup2\n        /* \"#utility.yul\":20494:20524   */\n      gt\n        /* \"#utility.yul\":20491:20547   */\n      iszero\n      tag_548\n      jumpi\n        /* \"#utility.yul\":20527:20545   */\n      tag_549\n      tag_255\n      jump\t// in\n    tag_549:\n        /* \"#utility.yul\":20491:20547   */\n    tag_548:\n        /* \"#utility.yul\":20571:20609   */\n      tag_550\n        /* \"#utility.yul\":20603:20607   */\n      dup3\n        /* \"#utility.yul\":20597:20608   */\n      sload\n        /* \"#utility.yul\":20571:20609   */\n      tag_100\n      jump\t// in\n    tag_550:\n        /* \"#utility.yul\":20656:20723   */\n      tag_551\n        /* \"#utility.yul\":20716:20722   */\n      dup3\n        /* \"#utility.yul\":20708:20714   */\n      dup3\n        /* \"#utility.yul\":20702:20706   */\n      dup6\n        /* \"#utility.yul\":20656:20723   */\n      tag_307\n      jump\t// in\n    tag_551:\n        /* \"#utility.yul\":20750:20751   */\n      0x00\n        /* \"#utility.yul\":20774:20778   */\n      0x20\n        /* \"#utility.yul\":20761:20778   */\n      swap1\n      pop\n        /* \"#utility.yul\":20806:20808   */\n      0x1f\n        /* \"#utility.yul\":20798:20804   */\n      dup4\n        /* \"#utility.yul\":20795:20809   */\n      gt\n        /* \"#utility.yul\":20823:20824   */\n      0x01\n        /* \"#utility.yul\":20818:21436   */\n      dup2\n      eq\n      tag_553\n      jumpi\n        /* \"#utility.yul\":21480:21481   */\n      0x00\n        /* \"#utility.yul\":21497:21503   */\n      dup5\n        /* \"#utility.yul\":21494:21571   */\n      iszero\n      tag_554\n      jumpi\n        /* \"#utility.yul\":21546:21555   */\n      dup3\n        /* \"#utility.yul\":21541:21544   */\n      dup8\n        /* \"#utility.yul\":21537:21556   */\n      add\n        /* \"#utility.yul\":21531:21557   */\n      mload\n        /* \"#utility.yul\":21522:21557   */\n      swap1\n      pop\n        /* \"#utility.yul\":21494:21571   */\n    tag_554:\n        /* \"#utility.yul\":21597:21664   */\n      tag_555\n        /* \"#utility.yul\":21657:21663   */\n      dup6\n        /* \"#utility.yul\":21650:21655   */\n      dup3\n        /* \"#utility.yul\":21597:21664   */\n      tag_310\n      jump\t// in\n    tag_555:\n        /* \"#utility.yul\":21591:21595   */\n      dup7\n        /* \"#utility.yul\":21584:21665   */\n      sstore\n        /* \"#utility.yul\":21453:21675   */\n      pop\n        /* \"#utility.yul\":20788:21675   */\n      jump(tag_552)\n        /* \"#utility.yul\":20818:21436   */\n    tag_553:\n        /* \"#utility.yul\":20870:20874   */\n      0x1f\n        /* \"#utility.yul\":20866:20875   */\n      not\n        /* \"#utility.yul\":20858:20864   */\n      dup5\n        /* \"#utility.yul\":20854:20876   */\n      and\n        /* \"#utility.yul\":20904:20941   */\n      tag_556\n        /* \"#utility.yul\":20936:20940   */\n      dup7\n        /* \"#utility.yul\":20904:20941   */\n      tag_297\n      jump\t// in\n    tag_556:\n        /* \"#utility.yul\":20963:20964   */\n      0x00\n        /* \"#utility.yul\":20977:21185   */\n    tag_557:\n        /* \"#utility.yul\":20991:20998   */\n      dup3\n        /* \"#utility.yul\":20988:20989   */\n      dup2\n        /* \"#utility.yul\":20985:20999   */\n      lt\n        /* \"#utility.yul\":20977:21185   */\n      iszero\n      tag_559\n      jumpi\n        /* \"#utility.yul\":21070:21079   */\n      dup5\n        /* \"#utility.yul\":21065:21068   */\n      dup10\n        /* \"#utility.yul\":21061:21080   */\n      add\n        /* \"#utility.yul\":21055:21081   */\n      mload\n        /* \"#utility.yul\":21047:21053   */\n      dup3\n        /* \"#utility.yul\":21040:21082   */\n      sstore\n        /* \"#utility.yul\":21121:21122   */\n      0x01\n        /* \"#utility.yul\":21113:21119   */\n      dup3\n        /* \"#utility.yul\":21109:21123   */\n      add\n        /* \"#utility.yul\":21099:21123   */\n      swap2\n      pop\n        /* \"#utility.yul\":21168:21170   */\n      0x20\n        /* \"#utility.yul\":21157:21166   */\n      dup6\n        /* \"#utility.yul\":21153:21171   */\n      add\n        /* \"#utility.yul\":21140:21171   */\n      swap5\n      pop\n        /* \"#utility.yul\":21014:21018   */\n      0x20\n        /* \"#utility.yul\":21011:21012   */\n      dup2\n        /* \"#utility.yul\":21007:21019   */\n      add\n        /* \"#utility.yul\":21002:21019   */\n      swap1\n      pop\n        /* \"#utility.yul\":20977:21185   */\n      jump(tag_557)\n    tag_559:\n        /* \"#utility.yul\":21213:21219   */\n      dup7\n        /* \"#utility.yul\":21204:21211   */\n      dup4\n        /* \"#utility.yul\":21201:21220   */\n      lt\n        /* \"#utility.yul\":21198:21377   */\n      iszero\n      tag_560\n      jumpi\n        /* \"#utility.yul\":21271:21280   */\n      dup5\n        /* \"#utility.yul\":21266:21269   */\n      dup10\n        /* \"#utility.yul\":21262:21281   */\n      add\n        /* \"#utility.yul\":21256:21282   */\n      mload\n        /* \"#utility.yul\":21314:21362   */\n      tag_561\n        /* \"#utility.yul\":21356:21360   */\n      0x1f\n        /* \"#utility.yul\":21348:21354   */\n      dup10\n        /* \"#utility.yul\":21344:21361   */\n      and\n        /* \"#utility.yul\":21333:21342   */\n      dup3\n        /* \"#utility.yul\":21314:21362   */\n      tag_309\n      jump\t// in\n    tag_561:\n        /* \"#utility.yul\":21306:21312   */\n      dup4\n        /* \"#utility.yul\":21299:21363   */\n      sstore\n        /* \"#utility.yul\":21221:21377   */\n      pop\n        /* \"#utility.yul\":21198:21377   */\n    tag_560:\n        /* \"#utility.yul\":21423:21424   */\n      0x01\n        /* \"#utility.yul\":21419:21420   */\n      0x02\n        /* \"#utility.yul\":21411:21417   */\n      dup9\n        /* \"#utility.yul\":21407:21421   */\n      mul\n        /* \"#utility.yul\":21403:21425   */\n      add\n        /* \"#utility.yul\":21397:21401   */\n      dup9\n        /* \"#utility.yul\":21390:21426   */\n      sstore\n        /* \"#utility.yul\":20825:21436   */\n      pop\n      pop\n      pop\n        /* \"#utility.yul\":20788:21675   */\n    tag_552:\n      pop\n        /* \"#utility.yul\":20378:21681   */\n      pop\n      pop\n      pop\n        /* \"#utility.yul\":20286:21681   */\n      pop\n      pop\n      jump\t// out\n        /* \"#utility.yul\":21687:21850   */\n    tag_311:\n        /* \"#utility.yul\":21827:21842   */\n      0x6661756365745f63726561746500000000000000000000000000000000000000\n        /* \"#utility.yul\":21823:21824   */\n      0x00\n        /* \"#utility.yul\":21815:21821   */\n      dup3\n        /* \"#utility.yul\":21811:21825   */\n      add\n        /* \"#utility.yul\":21804:21843   */\n      mstore\n        /* \"#utility.yul\":21687:21850   */\n      pop\n      jump\t// out\n        /* \"#utility.yul\":21856:22222   */\n    tag_312:\n        /* \"#utility.yul\":21998:22001   */\n      0x00\n        /* \"#utility.yul\":22019:22086   */\n      tag_564\n        /* \"#utility.yul\":22083:22085   */\n      0x0d\n        /* \"#utility.yul\":22078:22081   */\n      dup4\n        /* \"#utility.yul\":22019:22086   */\n      tag_270\n      jump\t// in\n    tag_564:\n        /* \"#utility.yul\":22012:22086   */\n      swap2\n      pop\n        /* \"#utility.yul\":22095:22188   */\n      tag_565\n        /* \"#utility.yul\":22184:22187   */\n      dup3\n        /* \"#utility.yul\":22095:22188   */\n      tag_311\n      jump\t// in\n    tag_565:\n        /* \"#utility.yul\":22213:22215   */\n      0x20\n        /* \"#utility.yul\":22208:22211   */\n      dup3\n        /* \"#utility.yul\":22204:22216   */\n      add\n        /* \"#utility.yul\":22197:22216   */\n      swap1\n      pop\n        /* \"#utility.yul\":21856:22222   */\n      swap2\n      swap1\n      pop\n      jump\t// out\n        /* \"#utility.yul\":22228:22313   */\n    tag_313:\n        /* \"#utility.yul\":22273:22280   */\n      0x00\n        /* \"#utility.yul\":22302:22307   */\n      dup2\n        /* \"#utility.yul\":22291:22307   */\n      swap1\n      pop\n        /* \"#utility.yul\":22228:22313   */\n      swap2\n      swap1\n      pop\n      jump\t// out\n        /* \"#utility.yul\":22319:22477   */\n    tag_314:\n        /* \"#utility.yul\":22377:22386   */\n      0x00\n        /* \"#utility.yul\":22410:22471   */\n      tag_568\n        /* \"#utility.yul\":22428:22470   */\n      tag_569\n        /* \"#utility.yul\":22437:22469   */\n      tag_570\n        /* \"#utility.yul\":22463:22468   */\n      dup5\n        /* \"#utility.yul\":22437:22469   */\n      tag_313\n      jump\t// in\n    tag_570:\n        /* \"#utility.yul\":22428:22470   */\n      tag_290\n      jump\t// in\n    tag_569:\n        /* \"#utility.yul\":22410:22471   */\n      tag_262\n      jump\t// in\n    tag_568:\n        /* \"#utility.yul\":22397:22471   */\n      swap1\n      pop\n        /* \"#utility.yul\":22319:22477   */\n      swap2\n      swap1\n      pop\n      jump\t// out\n        /* \"#utility.yul\":22483:22630   */\n    tag_315:\n        /* \"#utility.yul\":22578:22623   */\n      tag_572\n        /* \"#utility.yul\":22617:22622   */\n      dup2\n        /* \"#utility.yul\":22578:22623   */\n      tag_314\n      jump\t// in\n    tag_572:\n        /* \"#utility.yul\":22573:22576   */\n      dup3\n        /* \"#utility.yul\":22566:22624   */\n      mstore\n        /* \"#utility.yul\":22483:22630   */\n      pop\n      pop\n      jump\t// out\n        /* \"#utility.yul\":22636:23493   */\n    tag_166:\n        /* \"#utility.yul\":22914:22918   */\n      0x00\n        /* \"#utility.yul\":22952:22955   */\n      0x80\n        /* \"#utility.yul\":22941:22950   */\n      dup3\n        /* \"#utility.yul\":22937:22956   */\n      add\n        /* \"#utility.yul\":22929:22956   */\n      swap1\n      pop\n        /* \"#utility.yul\":23002:23011   */\n      dup2\n        /* \"#utility.yul\":22996:23000   */\n      dup2\n        /* \"#utility.yul\":22992:23012   */\n      sub\n        /* \"#utility.yul\":22988:22989   */\n      0x00\n        /* \"#utility.yul\":22977:22986   */\n      dup4\n        /* \"#utility.yul\":22973:22990   */\n      add\n        /* \"#utility.yul\":22966:23013   */\n      mstore\n        /* \"#utility.yul\":23030:23161   */\n      tag_574\n        /* \"#utility.yul\":23156:23160   */\n      dup2\n        /* \"#utility.yul\":23030:23161   */\n      tag_312\n      jump\t// in\n    tag_574:\n        /* \"#utility.yul\":23022:23161   */\n      swap1\n      pop\n        /* \"#utility.yul\":23208:23217   */\n      dup2\n        /* \"#utility.yul\":23202:23206   */\n      dup2\n        /* \"#utility.yul\":23198:23218   */\n      sub\n        /* \"#utility.yul\":23193:23195   */\n      0x20\n        /* \"#utility.yul\":23182:23191   */\n      dup4\n        /* \"#utility.yul\":23178:23196   */\n      add\n        /* \"#utility.yul\":23171:23219   */\n      mstore\n        /* \"#utility.yul\":23236:23314   */\n      tag_575\n        /* \"#utility.yul\":23309:23313   */\n      dup2\n        /* \"#utility.yul\":23300:23306   */\n      dup7\n        /* \"#utility.yul\":23236:23314   */\n      tag_272\n      jump\t// in\n    tag_575:\n        /* \"#utility.yul\":23228:23314   */\n      swap1\n      pop\n        /* \"#utility.yul\":23324:23396   */\n      tag_576\n        /* \"#utility.yul\":23392:23394   */\n      0x40\n        /* \"#utility.yul\":23381:23390   */\n      dup4\n        /* \"#utility.yul\":23377:23395   */\n      add\n        /* \"#utility.yul\":23368:23374   */\n      dup6\n        /* \"#utility.yul\":23324:23396   */\n      tag_275\n      jump\t// in\n    tag_576:\n        /* \"#utility.yul\":23406:23486   */\n      tag_577\n        /* \"#utility.yul\":23482:23484   */\n      0x60\n        /* \"#utility.yul\":23471:23480   */\n      dup4\n        /* \"#utility.yul\":23467:23485   */\n      add\n        /* \"#utility.yul\":23458:23464   */\n      dup5\n        /* \"#utility.yul\":23406:23486   */\n      tag_315\n      jump\t// in\n    tag_577:\n        /* \"#utility.yul\":22636:23493   */\n      swap5\n      swap4\n      pop\n      pop\n      pop\n      pop\n      jump\t// out\n        /* \"#utility.yul\":23499:23679   */\n    tag_316:\n        /* \"#utility.yul\":23547:23624   */\n      0x4e487b7100000000000000000000000000000000000000000000000000000000\n        /* \"#utility.yul\":23544:23545   */\n      0x00\n        /* \"#utility.yul\":23537:23625   */\n      mstore\n        /* \"#utility.yul\":23644:23648   */\n      0x11\n        /* \"#utility.yul\":23641:23642   */\n      0x04\n        /* \"#utility.yul\":23634:23649   */\n      mstore\n        /* \"#utility.yul\":23668:23672   */\n      0x24\n        /* \"#utility.yul\":23665:23666   */\n      0x00\n        /* \"#utility.yul\":23658:23673   */\n      revert\n        /* \"#utility.yul\":23685:23876   */\n    tag_187:\n        /* \"#utility.yul\":23725:23728   */\n      0x00\n        /* \"#utility.yul\":23744:23764   */\n      tag_580\n        /* \"#utility.yul\":23762:23763   */\n      dup3\n        /* \"#utility.yul\":23744:23764   */\n      tag_262\n      jump\t// in\n    tag_580:\n        /* \"#utility.yul\":23739:23764   */\n      swap2\n      pop\n        /* \"#utility.yul\":23778:23798   */\n      tag_581\n        /* \"#utility.yul\":23796:23797   */\n      dup4\n        /* \"#utility.yul\":23778:23798   */\n      tag_262\n      jump\t// in\n    tag_581:\n        /* \"#utility.yul\":23773:23798   */\n      swap3\n      pop\n        /* \"#utility.yul\":23821:23822   */\n      dup3\n        /* \"#utility.yul\":23818:23819   */\n      dup3\n        /* \"#utility.yul\":23814:23823   */\n      add\n        /* \"#utility.yul\":23807:23823   */\n      swap1\n      pop\n        /* \"#utility.yul\":23842:23845   */\n      dup1\n        /* \"#utility.yul\":23839:23840   */\n      dup3\n        /* \"#utility.yul\":23836:23846   */\n      gt\n        /* \"#utility.yul\":23833:23869   */\n      iszero\n      tag_582\n      jumpi\n        /* \"#utility.yul\":23849:23867   */\n      tag_583\n      tag_316\n      jump\t// in\n    tag_583:\n        /* \"#utility.yul\":23833:23869   */\n    tag_582:\n        /* \"#utility.yul\":23685:23876   */\n      swap3\n      swap2\n      pop\n      pop\n      jump\t// out\n        /* \"#utility.yul\":23882:24060   */\n    tag_317:\n        /* \"#utility.yul\":24022:24052   */\n      0x52657175657374206672657175656e6379206f766572206c696d697400000000\n        /* \"#utility.yul\":24018:24019   */\n      0x00\n        /* \"#utility.yul\":24010:24016   */\n      dup3\n        /* \"#utility.yul\":24006:24020   */\n      add\n        /* \"#utility.yul\":23999:24053   */\n      mstore\n        /* \"#utility.yul\":23882:24060   */\n      pop\n      jump\t// out\n        /* \"#utility.yul\":24066:24432   */\n    tag_318:\n        /* \"#utility.yul\":24208:24211   */\n      0x00\n        /* \"#utility.yul\":24229:24296   */\n      tag_586\n        /* \"#utility.yul\":24293:24295   */\n      0x1c\n        /* \"#utility.yul\":24288:24291   */\n      dup4\n        /* \"#utility.yul\":24229:24296   */\n      tag_270\n      jump\t// in\n    tag_586:\n        /* \"#utility.yul\":24222:24296   */\n      swap2\n      pop\n        /* \"#utility.yul\":24305:24398   */\n      tag_587\n        /* \"#utility.yul\":24394:24397   */\n      dup3\n        /* \"#utility.yul\":24305:24398   */\n      tag_317\n      jump\t// in\n    tag_587:\n        /* \"#utility.yul\":24423:24425   */\n      0x20\n        /* \"#utility.yul\":24418:24421   */\n      dup3\n        /* \"#utility.yul\":24414:24426   */\n      add\n        /* \"#utility.yul\":24407:24426   */\n      swap1\n      pop\n        /* \"#utility.yul\":24066:24432   */\n      swap2\n      swap1\n      pop\n      jump\t// out\n        /* \"#utility.yul\":24438:24857   */\n    tag_190:\n        /* \"#utility.yul\":24604:24608   */\n      0x00\n        /* \"#utility.yul\":24642:24644   */\n      0x20\n        /* \"#utility.yul\":24631:24640   */\n      dup3\n        /* \"#utility.yul\":24627:24645   */\n      add\n        /* \"#utility.yul\":24619:24645   */\n      swap1\n      pop\n        /* \"#utility.yul\":24691:24700   */\n      dup2\n        /* \"#utility.yul\":24685:24689   */\n      dup2\n        /* \"#utility.yul\":24681:24701   */\n      sub\n        /* \"#utility.yul\":24677:24678   */\n      0x00\n        /* \"#utility.yul\":24666:24675   */\n      dup4\n        /* \"#utility.yul\":24662:24679   */\n      add\n        /* \"#utility.yul\":24655:24702   */\n      mstore\n        /* \"#utility.yul\":24719:24850   */\n      tag_589\n        /* \"#utility.yul\":24845:24849   */\n      dup2\n        /* \"#utility.yul\":24719:24850   */\n      tag_318\n      jump\t// in\n    tag_589:\n        /* \"#utility.yul\":24711:24850   */\n      swap1\n      pop\n        /* \"#utility.yul\":24438:24857   */\n      swap2\n      swap1\n      pop\n      jump\t// out\n        /* \"#utility.yul\":24863:25038   */\n    tag_319:\n        /* \"#utility.yul\":25003:25030   */\n      0x5265717565737420616d6f756e74206f766572206c696d697400000000000000\n        /* \"#utility.yul\":24999:25000   */\n      0x00\n        /* \"#utility.yul\":24991:24997   */\n      dup3\n        /* \"#utility.yul\":24987:25001   */\n      add\n        /* \"#utility.yul\":24980:25031   */\n      mstore\n        /* \"#utility.yul\":24863:25038   */\n      pop\n      jump\t// out\n        /* \"#utility.yul\":25044:25410   */\n    tag_320:\n        /* \"#utility.yul\":25186:25189   */\n      0x00\n        /* \"#utility.yul\":25207:25274   */\n      tag_592\n        /* \"#utility.yul\":25271:25273   */\n      0x19\n        /* \"#utility.yul\":25266:25269   */\n      dup4\n        /* \"#utility.yul\":25207:25274   */\n      tag_270\n      jump\t// in\n    tag_592:\n        /* \"#utility.yul\":25200:25274   */\n      swap2\n      pop\n        /* \"#utility.yul\":25283:25376   */\n      tag_593\n        /* \"#utility.yul\":25372:25375   */\n      dup3\n        /* \"#utility.yul\":25283:25376   */\n      tag_319\n      jump\t// in\n    tag_593:\n        /* \"#utility.yul\":25401:25403   */\n      0x20\n        /* \"#utility.yul\":25396:25399   */\n      dup3\n        /* \"#utility.yul\":25392:25404   */\n      add\n        /* \"#utility.yul\":25385:25404   */\n      swap1\n      pop\n        /* \"#utility.yul\":25044:25410   */\n      swap2\n      swap1\n      pop\n      jump\t// out\n        /* \"#utility.yul\":25416:25835   */\n    tag_194:\n        /* \"#utility.yul\":25582:25586   */\n      0x00\n        /* \"#utility.yul\":25620:25622   */\n      0x20\n        /* \"#utility.yul\":25609:25618   */\n      dup3\n        /* \"#utility.yul\":25605:25623   */\n      add\n        /* \"#utility.yul\":25597:25623   */\n      swap1\n      pop\n        /* \"#utility.yul\":25669:25678   */\n      dup2\n        /* \"#utility.yul\":25663:25667   */\n      dup2\n        /* \"#utility.yul\":25659:25679   */\n      sub\n        /* \"#utility.yul\":25655:25656   */\n      0x00\n        /* \"#utility.yul\":25644:25653   */\n      dup4\n        /* \"#utility.yul\":25640:25657   */\n      add\n        /* \"#utility.yul\":25633:25680   */\n      mstore\n        /* \"#utility.yul\":25697:25828   */\n      tag_595\n        /* \"#utility.yul\":25823:25827   */\n      dup2\n        /* \"#utility.yul\":25697:25828   */\n      tag_320\n      jump\t// in\n    tag_595:\n        /* \"#utility.yul\":25689:25828   */\n      swap1\n      pop\n        /* \"#utility.yul\":25416:25835   */\n      swap2\n      swap1\n      pop\n      jump\t// out\n        /* \"#utility.yul\":25841:26017   */\n    tag_321:\n        /* \"#utility.yul\":25981:26009   */\n      0x526571756573742062616c616e6365206f766572206c696d6974000000000000\n        /* \"#utility.yul\":25977:25978   */\n      0x00\n        /* \"#utility.yul\":25969:25975   */\n      dup3\n        /* \"#utility.yul\":25965:25979   */\n      add\n        /* \"#utility.yul\":25958:26010   */\n      mstore\n        /* \"#utility.yul\":25841:26017   */\n      pop\n      jump\t// out\n        /* \"#utility.yul\":26023:26389   */\n    tag_322:\n        /* \"#utility.yul\":26165:26168   */\n      0x00\n        /* \"#utility.yul\":26186:26253   */\n      tag_598\n        /* \"#utility.yul\":26250:26252   */\n      0x1a\n        /* \"#utility.yul\":26245:26248   */\n      dup4\n        /* \"#utility.yul\":26186:26253   */\n      tag_270\n      jump\t// in\n    tag_598:\n        /* \"#utility.yul\":26179:26253   */\n      swap2\n      pop\n        /* \"#utility.yul\":26262:26355   */\n      tag_599\n        /* \"#utility.yul\":26351:26354   */\n      dup3\n        /* \"#utility.yul\":26262:26355   */\n      tag_321\n      jump\t// in\n    tag_599:\n        /* \"#utility.yul\":26380:26382   */\n      0x20\n        /* \"#utility.yul\":26375:26378   */\n      dup3\n        /* \"#utility.yul\":26371:26383   */\n      add\n        /* \"#utility.yul\":26364:26383   */\n      swap1\n      pop\n        /* \"#utility.yul\":26023:26389   */\n      swap2\n      swap1\n      pop\n      jump\t// out\n        /* \"#utility.yul\":26395:26814   */\n    tag_203:\n        /* \"#utility.yul\":26561:26565   */\n      0x00\n        /* \"#utility.yul\":26599:26601   */\n      0x20\n        /* \"#utility.yul\":26588:26597   */\n      dup3\n        /* \"#utility.yul\":26584:26602   */\n      add\n        /* \"#utility.yul\":26576:26602   */\n      swap1\n      pop\n        /* \"#utility.yul\":26648:26657   */\n      dup2\n        /* \"#utility.yul\":26642:26646   */\n      dup2\n        /* \"#utility.yul\":26638:26658   */\n      sub\n        /* \"#utility.yul\":26634:26635   */\n      0x00\n        /* \"#utility.yul\":26623:26632   */\n      dup4\n        /* \"#utility.yul\":26619:26636   */\n      add\n        /* \"#utility.yul\":26612:26659   */\n      mstore\n        /* \"#utility.yul\":26676:26807   */\n      tag_601\n        /* \"#utility.yul\":26802:26806   */\n      dup2\n        /* \"#utility.yul\":26676:26807   */\n      tag_322\n      jump\t// in\n    tag_601:\n        /* \"#utility.yul\":26668:26807   */\n      swap1\n      pop\n        /* \"#utility.yul\":26395:26814   */\n      swap2\n      swap1\n      pop\n      jump\t// out\n        /* \"#utility.yul\":26820:27152   */\n    tag_205:\n        /* \"#utility.yul\":26941:26945   */\n      0x00\n        /* \"#utility.yul\":26979:26981   */\n      0x40\n        /* \"#utility.yul\":26968:26977   */\n      dup3\n        /* \"#utility.yul\":26964:26982   */\n      add\n        /* \"#utility.yul\":26956:26982   */\n      swap1\n      pop\n        /* \"#utility.yul\":26992:27063   */\n      tag_603\n        /* \"#utility.yul\":27060:27061   */\n      0x00\n        /* \"#utility.yul\":27049:27058   */\n      dup4\n        /* \"#utility.yul\":27045:27062   */\n      add\n        /* \"#utility.yul\":27036:27042   */\n      dup6\n        /* \"#utility.yul\":26992:27063   */\n      tag_275\n      jump\t// in\n    tag_603:\n        /* \"#utility.yul\":27073:27145   */\n      tag_604\n        /* \"#utility.yul\":27141:27143   */\n      0x20\n        /* \"#utility.yul\":27130:27139   */\n      dup4\n        /* \"#utility.yul\":27126:27144   */\n      add\n        /* \"#utility.yul\":27117:27123   */\n      dup5\n        /* \"#utility.yul\":27073:27145   */\n      tag_276\n      jump\t// in\n    tag_604:\n        /* \"#utility.yul\":26820:27152   */\n      swap4\n      swap3\n      pop\n      pop\n      pop\n      jump\t// out\n        /* \"#utility.yul\":27158:27320   */\n    tag_323:\n        /* \"#utility.yul\":27298:27312   */\n      0x6661756365745f746f7075700000000000000000000000000000000000000000\n        /* \"#utility.yul\":27294:27295   */\n      0x00\n        /* \"#utility.yul\":27286:27292   */\n      dup3\n        /* \"#utility.yul\":27282:27296   */\n      add\n        /* \"#utility.yul\":27275:27313   */\n      mstore\n        /* \"#utility.yul\":27158:27320   */\n      pop\n      jump\t// out\n        /* \"#utility.yul\":27326:27692   */\n    tag_324:\n        /* \"#utility.yul\":27468:27471   */\n      0x00\n        /* \"#utility.yul\":27489:27556   */\n      tag_607\n        /* \"#utility.yul\":27553:27555   */\n      0x0c\n        /* \"#utility.yul\":27548:27551   */\n      dup4\n        /* \"#utility.yul\":27489:27556   */\n      tag_270\n      jump\t// in\n    tag_607:\n        /* \"#utility.yul\":27482:27556   */\n      swap2\n      pop\n        /* \"#utility.yul\":27565:27658   */\n      tag_608\n        /* \"#utility.yul\":27654:27657   */\n      dup3\n        /* \"#utility.yul\":27565:27658   */\n      tag_323\n      jump\t// in\n    tag_608:\n        /* \"#utility.yul\":27683:27685   */\n      0x20\n        /* \"#utility.yul\":27678:27681   */\n      dup3\n        /* \"#utility.yul\":27674:27686   */\n      add\n        /* \"#utility.yul\":27667:27686   */\n      swap1\n      pop\n        /* \"#utility.yul\":27326:27692   */\n      swap2\n      swap1\n      pop\n      jump\t// out\n        /* \"#utility.yul\":27698:28539   */\n    tag_211:\n        /* \"#utility.yul\":27968:27972   */\n      0x00\n        /* \"#utility.yul\":28006:28009   */\n      0x80\n        /* \"#utility.yul\":27995:28004   */\n      dup3\n        /* \"#utility.yul\":27991:28010   */\n      add\n        /* \"#utility.yul\":27983:28010   */\n      swap1\n      pop\n        /* \"#utility.yul\":28056:28065   */\n      dup2\n        /* \"#utility.yul\":28050:28054   */\n      dup2\n        /* \"#utility.yul\":28046:28066   */\n      sub\n        /* \"#utility.yul\":28042:28043   */\n      0x00\n        /* \"#utility.yul\":28031:28040   */\n      dup4\n        /* \"#utility.yul\":28027:28044   */\n      add\n        /* \"#utility.yul\":28020:28067   */\n      mstore\n        /* \"#utility.yul\":28084:28215   */\n      tag_610\n        /* \"#utility.yul\":28210:28214   */\n      dup2\n        /* \"#utility.yul\":28084:28215   */\n      tag_324\n      jump\t// in\n    tag_610:\n        /* \"#utility.yul\":28076:28215   */\n      swap1\n      pop\n        /* \"#utility.yul\":28262:28271   */\n      dup2\n        /* \"#utility.yul\":28256:28260   */\n      dup2\n        /* \"#utility.yul\":28252:28272   */\n      sub\n        /* \"#utility.yul\":28247:28249   */\n      0x20\n        /* \"#utility.yul\":28236:28245   */\n      dup4\n        /* \"#utility.yul\":28232:28250   */\n      add\n        /* \"#utility.yul\":28225:28273   */\n      mstore\n        /* \"#utility.yul\":28290:28368   */\n      tag_611\n        /* \"#utility.yul\":28363:28367   */\n      dup2\n        /* \"#utility.yul\":28354:28360   */\n      dup7\n        /* \"#utility.yul\":28290:28368   */\n      tag_272\n      jump\t// in\n    tag_611:\n        /* \"#utility.yul\":28282:28368   */\n      swap1\n      pop\n        /* \"#utility.yul\":28378:28450   */\n      tag_612\n        /* \"#utility.yul\":28446:28448   */\n      0x40\n        /* \"#utility.yul\":28435:28444   */\n      dup4\n        /* \"#utility.yul\":28431:28449   */\n      add\n        /* \"#utility.yul\":28422:28428   */\n      dup6\n        /* \"#utility.yul\":28378:28450   */\n      tag_275\n      jump\t// in\n    tag_612:\n        /* \"#utility.yul\":28460:28532   */\n      tag_613\n        /* \"#utility.yul\":28528:28530   */\n      0x60\n        /* \"#utility.yul\":28517:28526   */\n      dup4\n        /* \"#utility.yul\":28513:28531   */\n      add\n        /* \"#utility.yul\":28504:28510   */\n      dup5\n        /* \"#utility.yul\":28460:28532   */\n      tag_276\n      jump\t// in\n    tag_613:\n        /* \"#utility.yul\":27698:28539   */\n      swap5\n      swap4\n      pop\n      pop\n      pop\n      pop\n      jump\t// out\n        /* \"#utility.yul\":28545:28711   */\n    tag_325:\n        /* \"#utility.yul\":28685:28703   */\n      0x536974652061646d696e206f6e6c792e00000000000000000000000000000000\n        /* \"#utility.yul\":28681:28682   */\n      0x00\n        /* \"#utility.yul\":28673:28679   */\n      dup3\n        /* \"#utility.yul\":28669:28683   */\n      add\n        /* \"#utility.yul\":28662:28704   */\n      mstore\n        /* \"#utility.yul\":28545:28711   */\n      pop\n      jump\t// out\n        /* \"#utility.yul\":28717:29083   */\n    tag_326:\n        /* \"#utility.yul\":28859:28862   */\n      0x00\n        /* \"#utility.yul\":28880:28947   */\n      tag_616\n        /* \"#utility.yul\":28944:28946   */\n      0x10\n        /* \"#utility.yul\":28939:28942   */\n      dup4\n        /* \"#utility.yul\":28880:28947   */\n      tag_270\n      jump\t// in\n    tag_616:\n        /* \"#utility.yul\":28873:28947   */\n      swap2\n      pop\n        /* \"#utility.yul\":28956:29049   */\n      tag_617\n        /* \"#utility.yul\":29045:29048   */\n      dup3\n        /* \"#utility.yul\":28956:29049   */\n      tag_325\n      jump\t// in\n    tag_617:\n        /* \"#utility.yul\":29074:29076   */\n      0x20\n        /* \"#utility.yul\":29069:29072   */\n      dup3\n        /* \"#utility.yul\":29065:29077   */\n      add\n        /* \"#utility.yul\":29058:29077   */\n      swap1\n      pop\n        /* \"#utility.yul\":28717:29083   */\n      swap2\n      swap1\n      pop\n      jump\t// out\n        /* \"#utility.yul\":29089:29508   */\n    tag_241:\n        /* \"#utility.yul\":29255:29259   */\n      0x00\n        /* \"#utility.yul\":29293:29295   */\n      0x20\n        /* \"#utility.yul\":29282:29291   */\n      dup3\n        /* \"#utility.yul\":29278:29296   */\n      add\n        /* \"#utility.yul\":29270:29296   */\n      swap1\n      pop\n        /* \"#utility.yul\":29342:29351   */\n      dup2\n        /* \"#utility.yul\":29336:29340   */\n      dup2\n        /* \"#utility.yul\":29332:29352   */\n      sub\n        /* \"#utility.yul\":29328:29329   */\n      0x00\n        /* \"#utility.yul\":29317:29326   */\n      dup4\n        /* \"#utility.yul\":29313:29330   */\n      add\n        /* \"#utility.yul\":29306:29353   */\n      mstore\n        /* \"#utility.yul\":29370:29501   */\n      tag_619\n        /* \"#utility.yul\":29496:29500   */\n      dup2\n        /* \"#utility.yul\":29370:29501   */\n      tag_326\n      jump\t// in\n    tag_619:\n        /* \"#utility.yul\":29362:29501   */\n      swap1\n      pop\n        /* \"#utility.yul\":29089:29508   */\n      swap2\n      swap1\n      pop\n      jump\t// out\n\n    auxdata: 0xa26469706673582212204f39483ea1d0237239a3c86ff675882de7f04b6d5163ea5fa223853d36316caa64736f6c63430008140033\n}\n"
  }
}