{
  "devdoc": {
    "methods": {},
    "kind": "dev",
    "version": 1
  },
  "abi": [
    {
      "stateMutability": "nonpayable",
      "type": "constructor",
      "inputs": [
        {
          "internalType": "uint16",
          "name": "site_arbitration_threshold",
          "type": "uint16"
        }
      ]
    },
    {
      "anonymous": false,
      "name": "VaultEvent",
      "type": "event",
      "inputs": [
        {
          "indexed": false,
          "internalType": "string",
          "name": "event_type",
          "type": "string"
        },
        {
          "indexed": false,
          "internalType": "string",
          "name": "event_id",
          "type": "string"
        },
        {
          "indexed": false,
          "internalType": "address",
          "name": "sender",
          "type": "address"
        },
        {
          "indexed": false,
          "internalType": "uint256",
          "name": "value",
          "type": "uint256"
        }
      ]
    },
    {
      "name": "g__SiteArbitrationThreshold",
      "stateMutability": "view",
      "outputs": [
        {
          "internalType": "uint16",
          "name": "",
          "type": "uint16"
        }
      ],
      "type": "function",
      "inputs": []
    },
    {
      "name": "g__SiteAuthority",
      "stateMutability": "view",
      "outputs": [
        {
          "internalType": "address",
          "name": "",
          "type": "address"
        }
      ],
      "type": "function",
      "inputs": []
    },
    {
      "name": "g__SiteSupport",
      "stateMutability": "view",
      "outputs": [
        {
          "internalType": "bool",
          "name": "",
          "type": "bool"
        }
      ],
      "type": "function",
      "inputs": [
        {
          "internalType": "address",
          "name": "",
          "type": "address"
        }
      ]
    },
    {
      "name": "g__VaultAccounts",
      "stateMutability": "view",
      "outputs": [
        {
          "internalType": "enum StatstradeVaultNativeFactory.VaultAccountStatus",
          "name": "status",
          "type": "uint8"
        },
        {
          "internalType": "bool",
          "name": "arbitration",
          "type": "bool"
        },
        {
          "internalType": "string",
          "name": "last_withdraw_id",
          "type": "string"
        },
        {
          "internalType": "uint256",
          "name": "last_withdraw_time",
          "type": "uint256"
        }
      ],
      "type": "function",
      "inputs": [
        {
          "internalType": "string",
          "name": "",
          "type": "string"
        },
        {
          "internalType": "address",
          "name": "",
          "type": "address"
        }
      ]
    },
    {
      "name": "g__VaultCount",
      "stateMutability": "view",
      "outputs": [
        {
          "internalType": "uint16",
          "name": "",
          "type": "uint16"
        }
      ],
      "type": "function",
      "inputs": []
    },
    {
      "name": "g__VaultLookup",
      "stateMutability": "view",
      "outputs": [
        {
          "internalType": "enum StatstradeVaultNativeFactory.VaultStatus",
          "name": "status",
          "type": "uint8"
        },
        {
          "internalType": "string",
          "name": "name",
          "type": "string"
        },
        {
          "internalType": "address",
          "name": "owner",
          "type": "address"
        },
        {
          "internalType": "uint256",
          "name": "total_pool",
          "type": "uint256"
        },
        {
          "internalType": "uint256",
          "name": "total_requested",
          "type": "uint256"
        },
        {
          "internalType": "uint16",
          "name": "total_players",
          "type": "uint16"
        },
        {
          "internalType": "uint16",
          "name": "total_arbitration",
          "type": "uint16"
        },
        {
          "internalType": "uint16",
          "name": "vault_tax_rate",
          "type": "uint16"
        },
        {
          "internalType": "uint256",
          "name": "vault_tax_max",
          "type": "uint256"
        },
        {
          "internalType": "uint256",
          "name": "vault_withdraw_min",
          "type": "uint256"
        },
        {
          "internalType": "uint256",
          "name": "vault_withdraw_max",
          "type": "uint256"
        }
      ],
      "type": "function",
      "inputs": [
        {
          "internalType": "string",
          "name": "",
          "type": "string"
        }
      ]
    },
    {
      "name": "g__VaultWithdrawals",
      "stateMutability": "view",
      "outputs": [
        {
          "internalType": "uint256",
          "name": "amount",
          "type": "uint256"
        },
        {
          "internalType": "enum StatstradeVaultNativeFactory.VaultRequestStatus",
          "name": "status",
          "type": "uint8"
        }
      ],
      "type": "function",
      "inputs": [
        {
          "internalType": "string",
          "name": "",
          "type": "string"
        },
        {
          "internalType": "address",
          "name": "",
          "type": "address"
        },
        {
          "internalType": "string",
          "name": "",
          "type": "string"
        }
      ]
    },
    {
      "name": "owner__account_lock",
      "stateMutability": "nonpayable",
      "outputs": [],
      "type": "function",
      "inputs": [
        {
          "internalType": "string",
          "name": "vault_id",
          "type": "string"
        },
        {
          "internalType": "address",
          "name": "user_address",
          "type": "address"
        }
      ]
    },
    {
      "name": "owner__account_open_confirm",
      "stateMutability": "nonpayable",
      "outputs": [],
      "type": "function",
      "inputs": [
        {
          "internalType": "string",
          "name": "vault_id",
          "type": "string"
        },
        {
          "internalType": "address",
          "name": "user_address",
          "type": "address"
        }
      ]
    },
    {
      "name": "owner__account_unlock",
      "stateMutability": "nonpayable",
      "outputs": [],
      "type": "function",
      "inputs": [
        {
          "internalType": "string",
          "name": "vault_id",
          "type": "string"
        },
        {
          "internalType": "address",
          "name": "user_address",
          "type": "address"
        }
      ]
    },
    {
      "name": "owner__set_auto",
      "stateMutability": "nonpayable",
      "outputs": [],
      "type": "function",
      "inputs": [
        {
          "internalType": "string",
          "name": "vault_id",
          "type": "string"
        },
        {
          "internalType": "bool",
          "name": "is_auto",
          "type": "bool"
        }
      ]
    },
    {
      "name": "owner__withdraw_approve",
      "stateMutability": "nonpayable",
      "outputs": [],
      "type": "function",
      "inputs": [
        {
          "internalType": "string",
          "name": "vault_id",
          "type": "string"
        },
        {
          "internalType": "address",
          "name": "user_address",
          "type": "address"
        },
        {
          "internalType": "string",
          "name": "withdraw_id",
          "type": "string"
        },
        {
          "internalType": "uint256",
          "name": "amount",
          "type": "uint256"
        }
      ]
    },
    {
      "name": "owner__withdraw_reject",
      "stateMutability": "nonpayable",
      "outputs": [],
      "type": "function",
      "inputs": [
        {
          "internalType": "string",
          "name": "vault_id",
          "type": "string"
        },
        {
          "internalType": "address",
          "name": "user_address",
          "type": "address"
        },
        {
          "internalType": "string",
          "name": "withdraw_id",
          "type": "string"
        }
      ]
    },
    {
      "name": "site__account_close",
      "stateMutability": "nonpayable",
      "outputs": [],
      "type": "function",
      "inputs": [
        {
          "internalType": "string",
          "name": "vault_id",
          "type": "string"
        },
        {
          "internalType": "address",
          "name": "user_address",
          "type": "address"
        }
      ]
    },
    {
      "name": "site__account_open",
      "stateMutability": "nonpayable",
      "outputs": [],
      "type": "function",
      "inputs": [
        {
          "internalType": "string",
          "name": "vault_id",
          "type": "string"
        },
        {
          "internalType": "address",
          "name": "user_address",
          "type": "address"
        }
      ]
    },
    {
      "name": "site__add_support",
      "stateMutability": "nonpayable",
      "outputs": [],
      "type": "function",
      "inputs": [
        {
          "internalType": "address",
          "name": "user",
          "type": "address"
        }
      ]
    },
    {
      "name": "site__change_authority",
      "stateMutability": "nonpayable",
      "outputs": [],
      "type": "function",
      "inputs": [
        {
          "internalType": "address",
          "name": "new_authority",
          "type": "address"
        }
      ]
    },
    {
      "name": "site__remove_support",
      "stateMutability": "nonpayable",
      "outputs": [],
      "type": "function",
      "inputs": [
        {
          "internalType": "address",
          "name": "user",
          "type": "address"
        }
      ]
    },
    {
      "name": "site__vault_create",
      "stateMutability": "nonpayable",
      "outputs": [],
      "type": "function",
      "inputs": [
        {
          "internalType": "string",
          "name": "vault_id",
          "type": "string"
        },
        {
          "internalType": "string",
          "name": "name",
          "type": "string"
        },
        {
          "internalType": "address",
          "name": "owner",
          "type": "address"
        },
        {
          "internalType": "uint16",
          "name": "vault_tax_rate",
          "type": "uint16"
        },
        {
          "internalType": "uint256",
          "name": "vault_tax_max",
          "type": "uint256"
        },
        {
          "internalType": "uint256",
          "name": "vault_withdraw_min",
          "type": "uint256"
        },
        {
          "internalType": "uint256",
          "name": "vault_withdraw_max",
          "type": "uint256"
        }
      ]
    },
    {
      "name": "site__withdraw_confirm",
      "stateMutability": "nonpayable",
      "outputs": [],
      "type": "function",
      "inputs": [
        {
          "internalType": "string",
          "name": "vault_id",
          "type": "string"
        },
        {
          "internalType": "address",
          "name": "user_address",
          "type": "address"
        },
        {
          "internalType": "string",
          "name": "withdraw_id",
          "type": "string"
        },
        {
          "internalType": "uint256",
          "name": "amount",
          "type": "uint256"
        }
      ]
    },
    {
      "name": "site__withdraw_reject",
      "stateMutability": "nonpayable",
      "outputs": [],
      "type": "function",
      "inputs": [
        {
          "internalType": "string",
          "name": "vault_id",
          "type": "string"
        },
        {
          "internalType": "address",
          "name": "user_address",
          "type": "address"
        },
        {
          "internalType": "string",
          "name": "withdraw_id",
          "type": "string"
        }
      ]
    },
    {
      "name": "user__account_deposit",
      "stateMutability": "payable",
      "outputs": [],
      "type": "function",
      "inputs": [
        {
          "internalType": "string",
          "name": "vault_id",
          "type": "string"
        }
      ]
    },
    {
      "name": "user__arbitration_unvote",
      "stateMutability": "nonpayable",
      "outputs": [],
      "type": "function",
      "inputs": [
        {
          "internalType": "string",
          "name": "vault_id",
          "type": "string"
        }
      ]
    },
    {
      "name": "user__arbitration_vote",
      "stateMutability": "nonpayable",
      "outputs": [],
      "type": "function",
      "inputs": [
        {
          "internalType": "string",
          "name": "vault_id",
          "type": "string"
        }
      ]
    },
    {
      "name": "user__withdraw_request",
      "stateMutability": "nonpayable",
      "outputs": [],
      "type": "function",
      "inputs": [
        {
          "internalType": "string",
          "name": "vault_id",
          "type": "string"
        },
        {
          "internalType": "string",
          "name": "withdraw_id",
          "type": "string"
        },
        {
          "internalType": "uint256",
          "name": "amount",
          "type": "uint256"
        }
      ]
    },
    {
      "name": "user__withdraw_self",
      "stateMutability": "nonpayable",
      "outputs": [],
      "type": "function",
      "inputs": [
        {
          "internalType": "string",
          "name": "vault_id",
          "type": "string"
        },
        {
          "internalType": "string",
          "name": "withdraw_id",
          "type": "string"
        }
      ]
    }
  ],
  "userdoc": {
    "methods": {},
    "kind": "user",
    "version": 1
  },
  "storageLayout": {
    "storage": [
      {
        "offset": 0,
        "slot": "0",
        "label": "g__SiteAuthority",
        "astId": 20,
        "type": "t_address",
        "contract": "temp.sol:StatstradeVaultNativeFactory"
      },
      {
        "offset": 0,
        "slot": "1",
        "label": "g__SiteSupport",
        "astId": 24,
        "type": "t_mapping(t_address,t_bool)",
        "contract": "temp.sol:StatstradeVaultNativeFactory"
      },
      {
        "offset": 0,
        "slot": "2",
        "label": "g__SiteArbitrationThreshold",
        "astId": 26,
        "type": "t_uint16",
        "contract": "temp.sol:StatstradeVaultNativeFactory"
      },
      {
        "offset": 2,
        "slot": "2",
        "label": "g__VaultCount",
        "astId": 78,
        "type": "t_uint16",
        "contract": "temp.sol:StatstradeVaultNativeFactory"
      },
      {
        "offset": 0,
        "slot": "3",
        "label": "g__VaultLookup",
        "astId": 83,
        "type": "t_mapping(t_string_memory_ptr,t_struct(Vault)56_storage)",
        "contract": "temp.sol:StatstradeVaultNativeFactory"
      },
      {
        "offset": 0,
        "slot": "4",
        "label": "g__VaultAccounts",
        "astId": 90,
        "type": "t_mapping(t_string_memory_ptr,t_mapping(t_address,t_struct(VaultAccount)66_storage))",
        "contract": "temp.sol:StatstradeVaultNativeFactory"
      },
      {
        "offset": 0,
        "slot": "5",
        "label": "g__VaultWithdrawals",
        "astId": 99,
        "type": "t_mapping(t_string_memory_ptr,t_mapping(t_address,t_mapping(t_string_memory_ptr,t_struct(WithdrawRequest)32_storage)))",
        "contract": "temp.sol:StatstradeVaultNativeFactory"
      }
    ],
    "types": {
      "t_mapping(t_string_memory_ptr,t_struct(WithdrawRequest)32_storage)": {
        "label": "mapping(string => struct StatstradeVaultNativeFactory.WithdrawRequest)",
        "key": "t_string_memory_ptr",
        "encoding": "mapping",
        "value": "t_struct(WithdrawRequest)32_storage",
        "numberOfBytes": "32"
      },
      "t_address": {
        "label": "address",
        "encoding": "inplace",
        "numberOfBytes": "20"
      },
      "t_mapping(t_address,t_bool)": {
        "label": "mapping(address => bool)",
        "key": "t_address",
        "encoding": "mapping",
        "value": "t_bool",
        "numberOfBytes": "32"
      },
      "t_string_memory_ptr": {
        "label": "string",
        "encoding": "bytes",
        "numberOfBytes": "32"
      },
      "t_struct(VaultAccount)66_storage": {
        "members": [
          {
            "offset": 0,
            "slot": "0",
            "label": "status",
            "astId": 59,
            "type": "t_enum(VaultAccountStatus)11",
            "contract": "temp.sol:StatstradeVaultNativeFactory"
          },
          {
            "offset": 1,
            "slot": "0",
            "label": "arbitration",
            "astId": 61,
            "type": "t_bool",
            "contract": "temp.sol:StatstradeVaultNativeFactory"
          },
          {
            "offset": 0,
            "slot": "1",
            "label": "last_withdraw_id",
            "astId": 63,
            "type": "t_string_storage",
            "contract": "temp.sol:StatstradeVaultNativeFactory"
          },
          {
            "offset": 0,
            "slot": "2",
            "label": "last_withdraw_time",
            "astId": 65,
            "type": "t_uint256",
            "contract": "temp.sol:StatstradeVaultNativeFactory"
          }
        ],
        "label": "struct StatstradeVaultNativeFactory.VaultAccount",
        "encoding": "inplace",
        "numberOfBytes": "96"
      },
      "t_string_storage": {
        "label": "string",
        "encoding": "bytes",
        "numberOfBytes": "32"
      },
      "t_mapping(t_string_memory_ptr,t_mapping(t_address,t_struct(VaultAccount)66_storage))": {
        "label": "mapping(string => mapping(address => struct StatstradeVaultNativeFactory.VaultAccount))",
        "key": "t_string_memory_ptr",
        "encoding": "mapping",
        "value": "t_mapping(t_address,t_struct(VaultAccount)66_storage)",
        "numberOfBytes": "32"
      },
      "t_enum(VaultStatus)6": {
        "label": "enum StatstradeVaultNativeFactory.VaultStatus",
        "encoding": "inplace",
        "numberOfBytes": "1"
      },
      "t_enum(VaultAccountStatus)11": {
        "label": "enum StatstradeVaultNativeFactory.VaultAccountStatus",
        "encoding": "inplace",
        "numberOfBytes": "1"
      },
      "t_mapping(t_string_memory_ptr,t_mapping(t_address,t_mapping(t_string_memory_ptr,t_struct(WithdrawRequest)32_storage)))": {
        "label": "mapping(string => mapping(address => mapping(string => struct StatstradeVaultNativeFactory.WithdrawRequest)))",
        "key": "t_string_memory_ptr",
        "encoding": "mapping",
        "value": "t_mapping(t_address,t_mapping(t_string_memory_ptr,t_struct(WithdrawRequest)32_storage))",
        "numberOfBytes": "32"
      },
      "t_enum(VaultRequestStatus)18": {
        "label": "enum StatstradeVaultNativeFactory.VaultRequestStatus",
        "encoding": "inplace",
        "numberOfBytes": "1"
      },
      "t_struct(WithdrawRequest)32_storage": {
        "members": [
          {
            "offset": 0,
            "slot": "0",
            "label": "amount",
            "astId": 28,
            "type": "t_uint256",
            "contract": "temp.sol:StatstradeVaultNativeFactory"
          },
          {
            "offset": 0,
            "slot": "1",
            "label": "status",
            "astId": 31,
            "type": "t_enum(VaultRequestStatus)18",
            "contract": "temp.sol:StatstradeVaultNativeFactory"
          }
        ],
        "label": "struct StatstradeVaultNativeFactory.WithdrawRequest",
        "encoding": "inplace",
        "numberOfBytes": "64"
      },
      "t_mapping(t_string_memory_ptr,t_struct(Vault)56_storage)": {
        "label": "mapping(string => struct StatstradeVaultNativeFactory.Vault)",
        "key": "t_string_memory_ptr",
        "encoding": "mapping",
        "value": "t_struct(Vault)56_storage",
        "numberOfBytes": "32"
      },
      "t_mapping(t_address,t_struct(VaultAccount)66_storage)": {
        "label": "mapping(address => struct StatstradeVaultNativeFactory.VaultAccount)",
        "key": "t_address",
        "encoding": "mapping",
        "value": "t_struct(VaultAccount)66_storage",
        "numberOfBytes": "32"
      },
      "t_mapping(t_address,t_mapping(t_string_memory_ptr,t_struct(WithdrawRequest)32_storage))": {
        "label": "mapping(address => mapping(string => struct StatstradeVaultNativeFactory.WithdrawRequest))",
        "key": "t_address",
        "encoding": "mapping",
        "value": "t_mapping(t_string_memory_ptr,t_struct(WithdrawRequest)32_storage)",
        "numberOfBytes": "32"
      },
      "t_uint16": {
        "label": "uint16",
        "encoding": "inplace",
        "numberOfBytes": "2"
      },
      "t_uint256": {
        "label": "uint256",
        "encoding": "inplace",
        "numberOfBytes": "32"
      },
      "t_struct(Vault)56_storage": {
        "members": [
          {
            "offset": 0,
            "slot": "0",
            "label": "status",
            "astId": 35,
            "type": "t_enum(VaultStatus)6",
            "contract": "temp.sol:StatstradeVaultNativeFactory"
          },
          {
            "offset": 0,
            "slot": "1",
            "label": "name",
            "astId": 37,
            "type": "t_string_storage",
            "contract": "temp.sol:StatstradeVaultNativeFactory"
          },
          {
            "offset": 0,
            "slot": "2",
            "label": "owner",
            "astId": 39,
            "type": "t_address",
            "contract": "temp.sol:StatstradeVaultNativeFactory"
          },
          {
            "offset": 0,
            "slot": "3",
            "label": "total_pool",
            "astId": 41,
            "type": "t_uint256",
            "contract": "temp.sol:StatstradeVaultNativeFactory"
          },
          {
            "offset": 0,
            "slot": "4",
            "label": "total_requested",
            "astId": 43,
            "type": "t_uint256",
            "contract": "temp.sol:StatstradeVaultNativeFactory"
          },
          {
            "offset": 0,
            "slot": "5",
            "label": "total_players",
            "astId": 45,
            "type": "t_uint16",
            "contract": "temp.sol:StatstradeVaultNativeFactory"
          },
          {
            "offset": 2,
            "slot": "5",
            "label": "total_arbitration",
            "astId": 47,
            "type": "t_uint16",
            "contract": "temp.sol:StatstradeVaultNativeFactory"
          },
          {
            "offset": 4,
            "slot": "5",
            "label": "vault_tax_rate",
            "astId": 49,
            "type": "t_uint16",
            "contract": "temp.sol:StatstradeVaultNativeFactory"
          },
          {
            "offset": 0,
            "slot": "6",
            "label": "vault_tax_max",
            "astId": 51,
            "type": "t_uint256",
            "contract": "temp.sol:StatstradeVaultNativeFactory"
          },
          {
            "offset": 0,
            "slot": "7",
            "label": "vault_withdraw_min",
            "astId": 53,
            "type": "t_uint256",
            "contract": "temp.sol:StatstradeVaultNativeFactory"
          },
          {
            "offset": 0,
            "slot": "8",
            "label": "vault_withdraw_max",
            "astId": 55,
            "type": "t_uint256",
            "contract": "temp.sol:StatstradeVaultNativeFactory"
          }
        ],
        "label": "struct StatstradeVaultNativeFactory.Vault",
        "encoding": "inplace",
        "numberOfBytes": "288"
      },
      "t_bool": {
        "label": "bool",
        "encoding": "inplace",
        "numberOfBytes": "1"
      }
    }
  },
  "evm": {
    "bytecode": {
      "object": "608060405234801562000010575f80fd5b5060405162005925380380620059258339818101604052810190620000369190620000d8565b335f806101000a81548173ffffffffffffffffffffffffffffffffffffffff021916908373ffffffffffffffffffffffffffffffffffffffff1602179055508060025f6101000a81548161ffff021916908361ffff1602179055505062000108565b5f80fd5b5f61ffff82169050919050565b620000b4816200009c565b8114620000bf575f80fd5b50565b5f81519050620000d281620000a9565b92915050565b5f60208284031215620000f057620000ef62000098565b5b5f620000ff84828501620000c2565b91505092915050565b61580f80620001165f395ff3fe60806040526004361061017f575f3560e01c8063a49d8533116100d0578063e3465d7a11610089578063f065758211610063578063f065758214610535578063f2a9392d1461055f578063f31300b414610587578063fcb74bf3146105c35761017f565b8063e3465d7a146104bd578063e463d44b146104e5578063e480ad831461050d5761017f565b8063a49d8533146103c0578063afb0eca9146103ea578063b96161e314610412578063be922bca1461043a578063de40a28014610462578063e29ebbfb1461047e5761017f565b806336fceb3e1161013d57806347d733ce1161011757806347d733ce1461031e5780634fc538fd14610346578063703cc1331461036e57806395875a68146103965761017f565b806336fceb3e146102a657806339becbbe146102ce5780633e1c1ea8146102f65761017f565b80621b321214610183578063049fde97146101c0578063136a899e146101e857806318bb8952146102105780631a88d046146102385780633665631a1461027e575b5f80fd5b34801561018e575f80fd5b506101a960048036038101906101a4919061386f565b6105eb565b6040516101b7929190613982565b60405180910390f35b3480156101cb575f80fd5b506101e660048036038101906101e191906139a9565b61065d565b005b3480156101f3575f80fd5b5061020e600480360381019061020991906139a9565b6109c8565b005b34801561021b575f80fd5b5061023660048036038101906102319190613a38565b610b0b565b005b348015610243575f80fd5b5061025e60048036038101906102599190613a92565b610b6e565b6040516102759b9a99989796959493929190613bc4565b60405180910390f35b348015610289575f80fd5b506102a4600480360381019061029f919061386f565b610cb6565b005b3480156102b1575f80fd5b506102cc60048036038101906102c79190613c74565b610f0f565b005b3480156102d9575f80fd5b506102f460048036038101906102ef9190613c74565b610ff3565b005b348015610301575f80fd5b5061031c60048036038101906103179190613a92565b6110c2565b005b348015610329575f80fd5b50610344600480360381019061033f9190613c9f565b6112a7565b005b348015610351575f80fd5b5061036c60048036038101906103679190613d3f565b61147e565b005b348015610379575f80fd5b50610394600480360381019061038f9190613e05565b611627565b005b3480156103a1575f80fd5b506103aa611908565b6040516103b79190613eda565b60405180910390f35b3480156103cb575f80fd5b506103d461192b565b6040516103e19190613ef3565b60405180910390f35b3480156103f5575f80fd5b50610410600480360381019061040b91906139a9565b61193d565b005b34801561041d575f80fd5b5061043860048036038101906104339190613a92565b611a81565b005b348015610445575f80fd5b50610460600480360381019061045b9190613f0c565b611c9f565b005b61047c60048036038101906104779190613a92565b6123b8565b005b348015610489575f80fd5b506104a4600480360381019061049f91906139a9565b6124a5565b6040516104b49493929190613fe9565b60405180910390f35b3480156104c8575f80fd5b506104e360048036038101906104de9190613d3f565b612592565b005b3480156104f0575f80fd5b5061050b6004803603810190610506919061386f565b612726565b005b348015610518575f80fd5b50610533600480360381019061052e91906139a9565b6128c6565b005b348015610540575f80fd5b50610549612a0a565b6040516105569190613ef3565b60405180910390f35b34801561056a575f80fd5b50610585600480360381019061058091906139a9565b612a1d565b005b348015610592575f80fd5b506105ad60048036038101906105a89190613c74565b612bcb565b6040516105ba9190614033565b60405180910390f35b3480156105ce575f80fd5b506105e960048036038101906105e49190613c74565b612be8565b005b600583805160208101820180518482526020830160208501208183528095505050505050602052815f5260405f20818051602081018201805184825260208301602085012081835280955050505050505f925092505050805f015490806001015f9054906101000a900460ff16905082565b61066633612c40565b6001600381111561067a5761067961390f565b5b60038360405161068a9190614086565b90815260200160405180910390205f015f9054906101000a900460ff1660038111156106b9576106b861390f565b5b14806107155750600260038111156106d4576106d361390f565b5b6003836040516106e49190614086565b90815260200160405180910390205f015f9054906101000a900460ff1660038111156107135761071261390f565b5b145b610754576040517f08c379a000000000000000000000000000000000000000000000000000000000815260040161074b906140e6565b60405180910390fd5b5f60038111156107675761076661390f565b5b6004836040516107779190614086565b90815260200160405180910390205f8373ffffffffffffffffffffffffffffffffffffffff1673ffffffffffffffffffffffffffffffffffffffff1681526020019081526020015f205f015f9054906101000a900460ff1660038111156107e1576107e061390f565b5b14610821576040517f08c379a00000000000000000000000000000000000000000000000000000000081526004016108189061414e565b60405180910390fd5b5f6040518060800160405280600160038111156108415761084061390f565b5b81526020015f1515815260200160405180602001604052805f81525081526020015f81525090505f6003846040516108799190614086565b90815260200160405180910390206005015f81819054906101000a900461ffff166108a390614199565b91906101000a81548161ffff021916908361ffff16021790559050816004856040516108cf9190614086565b90815260200160405180910390205f8573ffffffffffffffffffffffffffffffffffffffff1673ffffffffffffffffffffffffffffffffffffffff1681526020019081526020015f205f820151815f015f6101000a81548160ff021916908360038111156109405761093f61390f565b5b02179055506020820151815f0160016101000a81548160ff021916908315150217905550604082015181600101908161097991906143bc565b50606082015181600201559050507f040768ee67403a1b2c45e2ee8e9c7cb4283d12bd31f8126de25122997535c1bb8484836040516109ba93929190614505565b60405180910390a150505050565b6109d28233612d21565b5f6109dd8383612e65565b90506003808111156109f2576109f161390f565b5b815f01516003811115610a0857610a0761390f565b5b14610a48576040517f08c379a0000000000000000000000000000000000000000000000000000000008152600401610a3f9061459e565b60405180910390fd5b6002600484604051610a5a9190614086565b90815260200160405180910390205f8473ffffffffffffffffffffffffffffffffffffffff1673ffffffffffffffffffffffffffffffffffffffff1681526020019081526020015f205f015f6101000a81548160ff02191690836003811115610ac657610ac561390f565b5b02179055507f040768ee67403a1b2c45e2ee8e9c7cb4283d12bd31f8126de25122997535c1bb83835f604051610afe9392919061463f565b60405180910390a1505050565b610b158233612d21565b80610b21576001610b24565b60025b600383604051610b349190614086565b90815260200160405180910390205f015f6101000a81548160ff02191690836003811115610b6557610b6461390f565b5b02179055505050565b6003818051602081018201805184825260208301602085012081835280955050505050505f91509050805f015f9054906101000a900460ff1690806001018054610bb7906141ef565b80601f0160208091040260200160405190810160405280929190818152602001828054610be3906141ef565b8015610c2e5780601f10610c0557610100808354040283529160200191610c2e565b820191905f5260205f20905b815481529060010190602001808311610c1157829003601f168201915b505050505090806002015f9054906101000a900473ffffffffffffffffffffffffffffffffffffffff1690806003015490806004015490806005015f9054906101000a900461ffff16908060050160029054906101000a900461ffff16908060050160049054906101000a900461ffff1690806006015490806007015490806008015490508b565b610cc08333612d21565b5f600584604051610cd19190614086565b90815260200160405180910390205f8473ffffffffffffffffffffffffffffffffffffffff1673ffffffffffffffffffffffffffffffffffffffff1681526020019081526020015f2082604051610d289190614086565b90815260200160405180910390206040518060400160405290815f8201548152602001600182015f9054906101000a900460ff166005811115610d6e57610d6d61390f565b5b6005811115610d8057610d7f61390f565b5b81525050905060026005811115610d9a57610d9961390f565b5b81602001516005811115610db157610db061390f565b5b14610df1576040517f08c379a0000000000000000000000000000000000000000000000000000000008152600401610de8906146d8565b60405180910390fd5b6004600585604051610e039190614086565b90815260200160405180910390205f8573ffffffffffffffffffffffffffffffffffffffff1673ffffffffffffffffffffffffffffffffffffffff1681526020019081526020015f2083604051610e5a9190614086565b90815260200160405180910390206001015f6101000a81548160ff02191690836005811115610e8c57610e8b61390f565b5b0217905550805f0151600385604051610ea59190614086565b90815260200160405180910390206004015f828254610ec491906146f6565b925050819055507f040768ee67403a1b2c45e2ee8e9c7cb4283d12bd31f8126de25122997535c1bb8284835f0151604051610f0193929190614773565b60405180910390a150505050565b5f8054906101000a900473ffffffffffffffffffffffffffffffffffffffff1673ffffffffffffffffffffffffffffffffffffffff163373ffffffffffffffffffffffffffffffffffffffff1614610f9c576040517f08c379a0000000000000000000000000000000000000000000000000000000008152600401610f939061480c565b60405180910390fd5b6001805f8373ffffffffffffffffffffffffffffffffffffffff1673ffffffffffffffffffffffffffffffffffffffff1681526020019081526020015f205f6101000a81548160ff02191690831515021790555050565b5f8054906101000a900473ffffffffffffffffffffffffffffffffffffffff1673ffffffffffffffffffffffffffffffffffffffff163373ffffffffffffffffffffffffffffffffffffffff1614611080576040517f08c379a00000000000000000000000000000000000000000000000000000000081526004016110779061480c565b60405180910390fd5b805f806101000a81548173ffffffffffffffffffffffffffffffffffffffff021916908373ffffffffffffffffffffffffffffffffffffffff16021790555050565b6003808111156110d5576110d461390f565b5b6003826040516110e59190614086565b90815260200160405180910390205f015f9054906101000a900460ff1660038111156111145761111361390f565b5b03611154576040517f08c379a000000000000000000000000000000000000000000000000000000000815260040161114b90614874565b60405180910390fd5b5f61115f8233612e65565b905080602001516111a5576040517f08c379a000000000000000000000000000000000000000000000000000000000815260040161119c906148dc565b60405180910390fd5b6004826040516111b59190614086565b90815260200160405180910390205f3373ffffffffffffffffffffffffffffffffffffffff1673ffffffffffffffffffffffffffffffffffffffff1681526020019081526020015f205f0160016101000a81549060ff02191690555f6003836040516112219190614086565b9081526020016040518091039020600501600281819054906101000a900461ffff1661124c906148fa565b91906101000a81548161ffff021916908361ffff160217905590507f040768ee67403a1b2c45e2ee8e9c7cb4283d12bd31f8126de25122997535c1bb83338360405161129a9392919061496b565b60405180910390a1505050565b600160038111156112bb576112ba61390f565b5b6003836040516112cb9190614086565b90815260200160405180910390205f015f9054906101000a900460ff1660038111156112fa576112f961390f565b5b0361133a576040517f08c379a000000000000000000000000000000000000000000000000000000000815260040161133190614a04565b60405180910390fd5b5f60058360405161134b9190614086565b90815260200160405180910390205f3373ffffffffffffffffffffffffffffffffffffffff1673ffffffffffffffffffffffffffffffffffffffff1681526020019081526020015f20826040516113a29190614086565b90815260200160405180910390206040518060400160405290815f8201548152602001600182015f9054906101000a900460ff1660058111156113e8576113e761390f565b5b60058111156113fa576113f961390f565b5b815250509050600260058111156114145761141361390f565b5b8160200151600581111561142b5761142a61390f565b5b1461146b576040517f08c379a0000000000000000000000000000000000000000000000000000000008152600401611462906146d8565b60405180910390fd5b611479833384846001613034565b505050565b61148733612c40565b5f611493858585613372565b9050600160058111156114a9576114a861390f565b5b816020015160058111156114c0576114bf61390f565b5b14611500576040517f08c379a00000000000000000000000000000000000000000000000000000000081526004016114f790614a6c565b60405180910390fd5b81815f015114611545576040517f08c379a000000000000000000000000000000000000000000000000000000000815260040161153c90614ad4565b60405180910390fd5b60026005866040516115579190614086565b90815260200160405180910390205f8673ffffffffffffffffffffffffffffffffffffffff1673ffffffffffffffffffffffffffffffffffffffff1681526020019081526020015f20846040516115ae9190614086565b90815260200160405180910390206001015f6101000a81548160ff021916908360058111156115e0576115df61390f565b5b02179055507f040768ee67403a1b2c45e2ee8e9c7cb4283d12bd31f8126de25122997535c1bb83858460405161161893929190614b3c565b60405180910390a15050505050565b61163033612c40565b6003876040516116409190614086565b90815260200160405180910390205f015f9054906101000a900460ff16600381111561166f5761166e61390f565b5b5f60038111156116825761168161390f565b5b146116c2576040517f08c379a00000000000000000000000000000000000000000000000000000000081526004016116b990614bd5565b60405180910390fd5b5f604051806101600160405280600160038111156116e3576116e261390f565b5b81526020018881526020018773ffffffffffffffffffffffffffffffffffffffff1681526020015f81526020015f81526020015f61ffff1681526020015f61ffff1681526020018661ffff16815260200185815260200184815260200183815250905060028081819054906101000a900461ffff1661176190614199565b91906101000a81548161ffff021916908361ffff1602179055508060038960405161178c9190614086565b90815260200160405180910390205f820151815f015f6101000a81548160ff021916908360038111156117c2576117c161390f565b5b021790555060208201518160010190816117dc91906143bc565b506040820151816002015f6101000a81548173ffffffffffffffffffffffffffffffffffffffff021916908373ffffffffffffffffffffffffffffffffffffffff160217905550606082015181600301556080820151816004015560a0820151816005015f6101000a81548161ffff021916908361ffff16021790555060c08201518160050160026101000a81548161ffff021916908361ffff16021790555060e08201518160050160046101000a81548161ffff021916908361ffff1602179055506101008201518160060155610120820151816007015561014082015181600801559050507f040768ee67403a1b2c45e2ee8e9c7cb4283d12bd31f8126de25122997535c1bb88875f6040516118f693929190614c3d565b60405180910390a15050505050505050565b5f8054906101000a900473ffffffffffffffffffffffffffffffffffffffff1681565b60028054906101000a900461ffff1681565b61194782336134b5565b5f6119528383612e65565b9050600260038111156119685761196761390f565b5b815f0151600381111561197e5761197d61390f565b5b146119be576040517f08c379a00000000000000000000000000000000000000000000000000000000081526004016119b590614cd6565b60405180910390fd5b60036004846040516119d09190614086565b90815260200160405180910390205f8473ffffffffffffffffffffffffffffffffffffffff1673ffffffffffffffffffffffffffffffffffffffff1681526020019081526020015f205f015f6101000a81548160ff02191690836003811115611a3c57611a3b61390f565b5b02179055507f040768ee67403a1b2c45e2ee8e9c7cb4283d12bd31f8126de25122997535c1bb83835f604051611a7493929190614d3e565b60405180910390a1505050565b5f611a8c8233612e65565b9050806020015115611ad3576040517f08c379a0000000000000000000000000000000000000000000000000000000008152600401611aca90614dd7565b60405180910390fd5b6001600483604051611ae59190614086565b90815260200160405180910390205f3373ffffffffffffffffffffffffffffffffffffffff1673ffffffffffffffffffffffffffffffffffffffff1681526020019081526020015f205f0160016101000a81548160ff0219169083151502179055505f600383604051611b589190614086565b9081526020016040518091039020600501600281819054906101000a900461ffff16611b8390614199565b91906101000a81548161ffff021916908361ffff160217905590505f600384604051611baf9190614086565b90815260200160405180910390206005015f9054906101000a900461ffff16905060048261ffff16118015611c11575060648160025f9054906101000a900461ffff16611bfc9190614df5565b611c069190614e5e565b61ffff168261ffff16115b15611c5e5760038085604051611c279190614086565b90815260200160405180910390205f015f6101000a81548160ff02191690836003811115611c5857611c5761390f565b5b02179055505b7f040768ee67403a1b2c45e2ee8e9c7cb4283d12bd31f8126de25122997535c1bb843384604051611c9193929190614ed8565b60405180910390a150505050565b5f600484604051611cb09190614086565b90815260200160405180910390205f3373ffffffffffffffffffffffffffffffffffffffff1673ffffffffffffffffffffffffffffffffffffffff1681526020019081526020015f206040518060800160405290815f82015f9054906101000a900460ff166003811115611d2757611d2661390f565b5b6003811115611d3957611d3861390f565b5b81526020015f820160019054906101000a900460ff16151515158152602001600182018054611d67906141ef565b80601f0160208091040260200160405190810160405280929190818152602001828054611d93906141ef565b8015611dde5780601f10611db557610100808354040283529160200191611dde565b820191905f5260205f20905b815481529060010190602001808311611dc157829003601f168201915b5050505050815260200160028201548152505090505f600385604051611e049190614086565b9081526020016040518091039020604051806101600160405290815f82015f9054906101000a900460ff166003811115611e4157611e4061390f565b5b6003811115611e5357611e5261390f565b5b8152602001600182018054611e67906141ef565b80601f0160208091040260200160405190810160405280929190818152602001828054611e93906141ef565b8015611ede5780601f10611eb557610100808354040283529160200191611ede565b820191905f5260205f20905b815481529060010190602001808311611ec157829003601f168201915b50505050508152602001600282015f9054906101000a900473ffffffffffffffffffffffffffffffffffffffff1673ffffffffffffffffffffffffffffffffffffffff1673ffffffffffffffffffffffffffffffffffffffff1681526020016003820154815260200160048201548152602001600582015f9054906101000a900461ffff1661ffff1661ffff1681526020016005820160029054906101000a900461ffff1661ffff1661ffff1681526020016005820160049054906101000a900461ffff1661ffff1661ffff1681526020016006820154815260200160078201548152602001600882015481525050905060026003811115611fe357611fe261390f565b5b825f01516003811115611ff957611ff861390f565b5b148061202b57506003808111156120135761201261390f565b5b815f015160038111156120295761202861390f565b5b145b61206a576040517f08c379a000000000000000000000000000000000000000000000000000000000815260040161206190614f71565b60405180910390fd5b5f600581111561207d5761207c61390f565b5b60058660405161208d9190614086565b90815260200160405180910390205f3373ffffffffffffffffffffffffffffffffffffffff1673ffffffffffffffffffffffffffffffffffffffff1681526020019081526020015f20856040516120e49190614086565b90815260200160405180910390206001015f9054906101000a900460ff1660058111156121145761211361390f565b5b14612154576040517f08c379a000000000000000000000000000000000000000000000000000000000815260040161214b90614fd9565b60405180910390fd5b80610120015183101561219c576040517f08c379a000000000000000000000000000000000000000000000000000000000815260040161219390615041565b60405180910390fd5b8061014001518311156121e4576040517f08c379a00000000000000000000000000000000000000000000000000000000081526004016121db906150a9565b60405180910390fd5b5f836003876040516121f69190614086565b90815260200160405180910390206004015461221291906150c7565b9050806003876040516122259190614086565b9081526020016040518091039020600301541015612278576040517f08c379a000000000000000000000000000000000000000000000000000000000815260040161226f90615144565b60405180910390fd5b60405180604001604052808581526020016001600581111561229d5761229c61390f565b5b8152506005876040516122b09190614086565b90815260200160405180910390205f3373ffffffffffffffffffffffffffffffffffffffff1673ffffffffffffffffffffffffffffffffffffffff1681526020019081526020015f20866040516123079190614086565b90815260200160405180910390205f820151815f01556020820151816001015f6101000a81548160ff021916908360058111156123475761234661390f565b5b0217905550905050806003876040516123609190614086565b9081526020016040518091039020600401819055507f040768ee67403a1b2c45e2ee8e9c7cb4283d12bd31f8126de25122997535c1bb8533866040516123a8939291906151ac565b60405180910390a1505050505050565b5f6123c38233612e65565b9050600260038111156123d9576123d861390f565b5b815f015160038111156123ef576123ee61390f565b5b1461242f576040517f08c379a000000000000000000000000000000000000000000000000000000000815260040161242690615245565b60405180910390fd5b346003836040516124409190614086565b90815260200160405180910390206003015f82825461245f91906150c7565b925050819055507f040768ee67403a1b2c45e2ee8e9c7cb4283d12bd31f8126de25122997535c1bb823334604051612499939291906152ad565b60405180910390a15050565b600482805160208101820180518482526020830160208501208183528095505050505050602052805f5260405f205f9150915050805f015f9054906101000a900460ff1690805f0160019054906101000a900460ff169080600101805461250b906141ef565b80601f0160208091040260200160405190810160405280929190818152602001828054612537906141ef565b80156125825780601f1061255957610100808354040283529160200191612582565b820191905f5260205f20905b81548152906001019060200180831161256557829003601f168201915b5050505050908060020154905084565b61259c8433612d21565b5f6005856040516125ad9190614086565b90815260200160405180910390205f8573ffffffffffffffffffffffffffffffffffffffff1673ffffffffffffffffffffffffffffffffffffffff1681526020019081526020015f20836040516126049190614086565b90815260200160405180910390206040518060400160405290815f8201548152602001600182015f9054906101000a900460ff16600581111561264a5761264961390f565b5b600581111561265c5761265b61390f565b5b815250509050600260058111156126765761267561390f565b5b8160200151600581111561268d5761268c61390f565b5b146126cd576040517f08c379a00000000000000000000000000000000000000000000000000000000081526004016126c4906146d8565b60405180910390fd5b81815f015114612712576040517f08c379a000000000000000000000000000000000000000000000000000000000815260040161270990614ad4565b60405180910390fd5b61271f858585845f613034565b5050505050565b61272f33612c40565b5f61273b848484613372565b9050600160058111156127515761275061390f565b5b816020015160058111156127685761276761390f565b5b146127a8576040517f08c379a000000000000000000000000000000000000000000000000000000000815260040161279f90614a6c565b60405180910390fd5b60036005856040516127ba9190614086565b90815260200160405180910390205f8573ffffffffffffffffffffffffffffffffffffffff1673ffffffffffffffffffffffffffffffffffffffff1681526020019081526020015f20836040516128119190614086565b90815260200160405180910390206001015f6101000a81548160ff021916908360058111156128435761284261390f565b5b0217905550805f015160038560405161285c9190614086565b90815260200160405180910390206004015f82825461287b91906146f6565b925050819055507f040768ee67403a1b2c45e2ee8e9c7cb4283d12bd31f8126de25122997535c1bb8284835f01516040516128b893929190615346565b60405180910390a150505050565b6128d08233612d21565b5f6128db8383612e65565b9050600160038111156128f1576128f061390f565b5b815f015160038111156129075761290661390f565b5b14612947576040517f08c379a000000000000000000000000000000000000000000000000000000000815260040161293e90614cd6565b60405180910390fd5b60026004846040516129599190614086565b90815260200160405180910390205f8473ffffffffffffffffffffffffffffffffffffffff1673ffffffffffffffffffffffffffffffffffffffff1681526020019081526020015f205f015f6101000a81548160ff021916908360038111156129c5576129c461390f565b5b02179055507f040768ee67403a1b2c45e2ee8e9c7cb4283d12bd31f8126de25122997535c1bb83835f6040516129fd939291906153df565b60405180910390a1505050565b60025f9054906101000a900461ffff1681565b612a2633612c40565b5f612a318383612e65565b905060026003811115612a4757612a4661390f565b5b815f01516003811115612a5d57612a5c61390f565b5b14612a9d576040517f08c379a0000000000000000000000000000000000000000000000000000000008152600401612a9490614cd6565b60405180910390fd5b600483604051612aad9190614086565b90815260200160405180910390205f8373ffffffffffffffffffffffffffffffffffffffff1673ffffffffffffffffffffffffffffffffffffffff1681526020019081526020015f205f8082015f6101000a81549060ff02191690555f820160016101000a81549060ff0219169055600182015f612b2b919061360d565b600282015f905550505f600384604051612b459190614086565b90815260200160405180910390206005015f81819054906101000a900461ffff16612b6f906148fa565b91906101000a81548161ffff021916908361ffff160217905590507f040768ee67403a1b2c45e2ee8e9c7cb4283d12bd31f8126de25122997535c1bb848483604051612bbd93929190615478565b60405180910390a150505050565b6001602052805f5260405f205f915054906101000a900460ff1681565b612bf133612c40565b60015f8273ffffffffffffffffffffffffffffffffffffffff1673ffffffffffffffffffffffffffffffffffffffff1681526020019081526020015f205f6101000a81549060ff021916905550565b5f8054906101000a900473ffffffffffffffffffffffffffffffffffffffff1673ffffffffffffffffffffffffffffffffffffffff168173ffffffffffffffffffffffffffffffffffffffff161480612cdf575060015f8273ffffffffffffffffffffffffffffffffffffffff1673ffffffffffffffffffffffffffffffffffffffff1681526020019081526020015f205f9054906101000a900460ff165b612d1e576040517f08c379a0000000000000000000000000000000000000000000000000000000008152600401612d1590615511565b60405180910390fd5b50565b8073ffffffffffffffffffffffffffffffffffffffff16600383604051612d489190614086565b90815260200160405180910390206002015f9054906101000a900473ffffffffffffffffffffffffffffffffffffffff1673ffffffffffffffffffffffffffffffffffffffff1614612dcf576040517f08c379a0000000000000000000000000000000000000000000000000000000008152600401612dc690615579565b60405180910390fd5b600380811115612de257612de161390f565b5b600383604051612df29190614086565b90815260200160405180910390205f015f9054906101000a900460ff166003811115612e2157612e2061390f565b5b03612e61576040517f08c379a0000000000000000000000000000000000000000000000000000000008152600401612e5890614874565b60405180910390fd5b5050565b612e6d61364a565b5f600484604051612e7e9190614086565b90815260200160405180910390205f8473ffffffffffffffffffffffffffffffffffffffff1673ffffffffffffffffffffffffffffffffffffffff1681526020019081526020015f206040518060800160405290815f82015f9054906101000a900460ff166003811115612ef557612ef461390f565b5b6003811115612f0757612f0661390f565b5b81526020015f820160019054906101000a900460ff16151515158152602001600182018054612f35906141ef565b80601f0160208091040260200160405190810160405280929190818152602001828054612f61906141ef565b8015612fac5780601f10612f8357610100808354040283529160200191612fac565b820191905f5260205f20905b815481529060010190602001808311612f8f57829003601f168201915b5050505050815260200160028201548152505090505f6003811115612fd457612fd361390f565b5b815f01516003811115612fea57612fe961390f565b5b0361302a576040517f08c379a0000000000000000000000000000000000000000000000000000000008152600401613021906155e1565b60405180910390fd5b8091505092915050565b5f6127106003876040516130489190614086565b908152602001604051809103902060050160049054906101000a900461ffff1661ffff16845f015161307a91906155ff565b6130849190615640565b90506003866040516130969190614086565b9081526020016040518091039020600601548111156130d4576003866040516130bf9190614086565b90815260200160405180910390206006015490505b8115613142575f8054906101000a900473ffffffffffffffffffffffffffffffffffffffff1673ffffffffffffffffffffffffffffffffffffffff166108fc8290811502906040515f60405180830381858888f1935050505015801561313c573d5f803e3d5ffd5b506131c7565b6003866040516131529190614086565b90815260200160405180910390206002015f9054906101000a900473ffffffffffffffffffffffffffffffffffffffff1673ffffffffffffffffffffffffffffffffffffffff166108fc8290811502906040515f60405180830381858888f193505050501580156131c5573d5f803e3d5ffd5b505b8473ffffffffffffffffffffffffffffffffffffffff166108fc82855f01516131f091906146f6565b90811502906040515f60405180830381858888f19350505050158015613218573d5f803e3d5ffd5b506005808760405161322a9190614086565b90815260200160405180910390205f8773ffffffffffffffffffffffffffffffffffffffff1673ffffffffffffffffffffffffffffffffffffffff1681526020019081526020015f20856040516132819190614086565b90815260200160405180910390206001015f6101000a81548160ff021916908360058111156132b3576132b261390f565b5b0217905550825f01516003876040516132cc9190614086565b90815260200160405180910390206003015f8282546132eb91906146f6565b92505081905550825f01516003876040516133069190614086565b90815260200160405180910390206004015f82825461332591906146f6565b925050819055507f040768ee67403a1b2c45e2ee8e9c7cb4283d12bd31f8126de25122997535c1bb8486855f0151604051613362939291906156ba565b60405180910390a1505050505050565b61337a613683565b5f60058560405161338b9190614086565b90815260200160405180910390205f8573ffffffffffffffffffffffffffffffffffffffff1673ffffffffffffffffffffffffffffffffffffffff1681526020019081526020015f20836040516133e29190614086565b90815260200160405180910390206040518060400160405290815f8201548152602001600182015f9054906101000a900460ff1660058111156134285761342761390f565b5b600581111561343a5761343961390f565b5b8152505090505f60058111156134535761345261390f565b5b8160200151600581111561346a5761346961390f565b5b036134aa576040517f08c379a00000000000000000000000000000000000000000000000000000000081526004016134a190615753565b60405180910390fd5b809150509392505050565b8073ffffffffffffffffffffffffffffffffffffffff166003836040516134dc9190614086565b90815260200160405180910390206002015f9054906101000a900473ffffffffffffffffffffffffffffffffffffffff1673ffffffffffffffffffffffffffffffffffffffff16148061357957505f8054906101000a900473ffffffffffffffffffffffffffffffffffffffff1673ffffffffffffffffffffffffffffffffffffffff168173ffffffffffffffffffffffffffffffffffffffff16145b806135ca575060015f8273ffffffffffffffffffffffffffffffffffffffff1673ffffffffffffffffffffffffffffffffffffffff1681526020019081526020015f205f9054906101000a900460ff165b613609576040517f08c379a0000000000000000000000000000000000000000000000000000000008152600401613600906157bb565b60405180910390fd5b5050565b508054613619906141ef565b5f825580601f1061362a5750613647565b601f0160209004905f5260205f209081019061364691906136ad565b5b50565b60405180608001604052805f60038111156136685761366761390f565b5b81526020015f15158152602001606081526020015f81525090565b60405180604001604052805f81526020015f60058111156136a7576136a661390f565b5b81525090565b5b808211156136c4575f815f9055506001016136ae565b5090565b5f604051905090565b5f80fd5b5f80fd5b5f80fd5b5f80fd5b5f601f19601f8301169050919050565b7f4e487b71000000000000000000000000000000000000000000000000000000005f52604160045260245ffd5b613727826136e1565b810181811067ffffffffffffffff82111715613746576137456136f1565b5b80604052505050565b5f6137586136c8565b9050613764828261371e565b919050565b5f67ffffffffffffffff821115613783576137826136f1565b5b61378c826136e1565b9050602081019050919050565b828183375f83830152505050565b5f6137b96137b484613769565b61374f565b9050828152602081018484840111156137d5576137d46136dd565b5b6137e0848285613799565b509392505050565b5f82601f8301126137fc576137fb6136d9565b5b813561380c8482602086016137a7565b91505092915050565b5f73ffffffffffffffffffffffffffffffffffffffff82169050919050565b5f61383e82613815565b9050919050565b61384e81613834565b8114613858575f80fd5b50565b5f8135905061386981613845565b92915050565b5f805f60608486031215613886576138856136d1565b5b5f84013567ffffffffffffffff8111156138a3576138a26136d5565b5b6138af868287016137e8565b93505060206138c08682870161385b565b925050604084013567ffffffffffffffff8111156138e1576138e06136d5565b5b6138ed868287016137e8565b9150509250925092565b5f819050919050565b613909816138f7565b82525050565b7f4e487b71000000000000000000000000000000000000000000000000000000005f52602160045260245ffd5b6006811061394d5761394c61390f565b5b50565b5f81905061395d8261393c565b919050565b5f61396c82613950565b9050919050565b61397c81613962565b82525050565b5f6040820190506139955f830185613900565b6139a26020830184613973565b9392505050565b5f80604083850312156139bf576139be6136d1565b5b5f83013567ffffffffffffffff8111156139dc576139db6136d5565b5b6139e8858286016137e8565b92505060206139f98582860161385b565b9150509250929050565b5f8115159050919050565b613a1781613a03565b8114613a21575f80fd5b50565b5f81359050613a3281613a0e565b92915050565b5f8060408385031215613a4e57613a4d6136d1565b5b5f83013567ffffffffffffffff811115613a6b57613a6a6136d5565b5b613a77858286016137e8565b9250506020613a8885828601613a24565b9150509250929050565b5f60208284031215613aa757613aa66136d1565b5b5f82013567ffffffffffffffff811115613ac457613ac36136d5565b5b613ad0848285016137e8565b91505092915050565b60048110613aea57613ae961390f565b5b50565b5f819050613afa82613ad9565b919050565b5f613b0982613aed565b9050919050565b613b1981613aff565b82525050565b5f81519050919050565b5f82825260208201905092915050565b5f5b83811015613b56578082015181840152602081019050613b3b565b5f8484015250505050565b5f613b6b82613b1f565b613b758185613b29565b9350613b85818560208601613b39565b613b8e816136e1565b840191505092915050565b613ba281613834565b82525050565b5f61ffff82169050919050565b613bbe81613ba8565b82525050565b5f61016082019050613bd85f83018e613b10565b8181036020830152613bea818d613b61565b9050613bf9604083018c613b99565b613c06606083018b613900565b613c13608083018a613900565b613c2060a0830189613bb5565b613c2d60c0830188613bb5565b613c3a60e0830187613bb5565b613c48610100830186613900565b613c56610120830185613900565b613c64610140830184613900565b9c9b505050505050505050505050565b5f60208284031215613c8957613c886136d1565b5b5f613c968482850161385b565b91505092915050565b5f8060408385031215613cb557613cb46136d1565b5b5f83013567ffffffffffffffff811115613cd257613cd16136d5565b5b613cde858286016137e8565b925050602083013567ffffffffffffffff811115613cff57613cfe6136d5565b5b613d0b858286016137e8565b9150509250929050565b613d1e816138f7565b8114613d28575f80fd5b50565b5f81359050613d3981613d15565b92915050565b5f805f8060808587031215613d5757613d566136d1565b5b5f85013567ffffffffffffffff811115613d7457613d736136d5565b5b613d80878288016137e8565b9450506020613d918782880161385b565b935050604085013567ffffffffffffffff811115613db257613db16136d5565b5b613dbe878288016137e8565b9250506060613dcf87828801613d2b565b91505092959194509250565b613de481613ba8565b8114613dee575f80fd5b50565b5f81359050613dff81613ddb565b92915050565b5f805f805f805f60e0888a031215613e2057613e1f6136d1565b5b5f88013567ffffffffffffffff811115613e3d57613e3c6136d5565b5b613e498a828b016137e8565b975050602088013567ffffffffffffffff811115613e6a57613e696136d5565b5b613e768a828b016137e8565b9650506040613e878a828b0161385b565b9550506060613e988a828b01613df1565b9450506080613ea98a828b01613d2b565b93505060a0613eba8a828b01613d2b565b92505060c0613ecb8a828b01613d2b565b91505092959891949750929550565b5f602082019050613eed5f830184613b99565b92915050565b5f602082019050613f065f830184613bb5565b92915050565b5f805f60608486031215613f2357613f226136d1565b5b5f84013567ffffffffffffffff811115613f4057613f3f6136d5565b5b613f4c868287016137e8565b935050602084013567ffffffffffffffff811115613f6d57613f6c6136d5565b5b613f79868287016137e8565b9250506040613f8a86828701613d2b565b9150509250925092565b60048110613fa557613fa461390f565b5b50565b5f819050613fb582613f94565b919050565b5f613fc482613fa8565b9050919050565b613fd481613fba565b82525050565b613fe381613a03565b82525050565b5f608082019050613ffc5f830187613fcb565b6140096020830186613fda565b818103604083015261401b8185613b61565b905061402a6060830184613900565b95945050505050565b5f6020820190506140465f830184613fda565b92915050565b5f81905092915050565b5f61406082613b1f565b61406a818561404c565b935061407a818560208601613b39565b80840191505092915050565b5f6140918284614056565b915081905092915050565b7f5661756c7420696e636f727265637420737461747573000000000000000000005f82015250565b5f6140d0601683613b29565b91506140db8261409c565b602082019050919050565b5f6020820190508181035f8301526140fd816140c4565b9050919050565b7f4163636f756e7420616c726561647920726567697374657265642e00000000005f82015250565b5f614138601b83613b29565b915061414382614104565b602082019050919050565b5f6020820190508181035f8301526141658161412c565b9050919050565b7f4e487b71000000000000000000000000000000000000000000000000000000005f52601160045260245ffd5b5f6141a382613ba8565b915061ffff82036141b7576141b661416c565b5b600182019050919050565b7f4e487b71000000000000000000000000000000000000000000000000000000005f52602260045260245ffd5b5f600282049050600182168061420657607f821691505b602082108103614219576142186141c2565b5b50919050565b5f819050815f5260205f209050919050565b5f6020601f8301049050919050565b5f82821b905092915050565b5f6008830261427b7fffffffffffffffffffffffffffffffffffffffffffffffffffffffffffffffff82614240565b6142858683614240565b95508019841693508086168417925050509392505050565b5f819050919050565b5f6142c06142bb6142b6846138f7565b61429d565b6138f7565b9050919050565b5f819050919050565b6142d9836142a6565b6142ed6142e5826142c7565b84845461424c565b825550505050565b5f90565b6143016142f5565b61430c8184846142d0565b505050565b5b8181101561432f576143245f826142f9565b600181019050614312565b5050565b601f821115614374576143458161421f565b61434e84614231565b8101602085101561435d578190505b61437161436985614231565b830182614311565b50505b505050565b5f82821c905092915050565b5f6143945f1984600802614379565b1980831691505092915050565b5f6143ac8383614385565b9150826002028217905092915050565b6143c582613b1f565b67ffffffffffffffff8111156143de576143dd6136f1565b5b6143e882546141ef565b6143f3828285614333565b5f60209050601f831160018114614424575f8415614412578287015190505b61441c85826143a1565b865550614483565b601f1984166144328661421f565b5f5b8281101561445957848901518255600182019150602085019450602081019050614434565b868310156144765784890151614472601f891682614385565b8355505b6001600288020188555050505b505050505050565b7f6163636f756e745f6f70656e00000000000000000000000000000000000000005f82015250565b5f6144bf600c83613b29565b91506144ca8261448b565b602082019050919050565b5f6144ef6144ea6144e584613ba8565b61429d565b6138f7565b9050919050565b6144ff816144d5565b82525050565b5f6080820190508181035f83015261451c816144b3565b905081810360208301526145308186613b61565b905061453f6040830185613b99565b61454c60608301846144f6565b949350505050565b7f4163636f756e74206e6f742062616e6e65642e000000000000000000000000005f82015250565b5f614588601383613b29565b915061459382614554565b602082019050919050565b5f6020820190508181035f8301526145b58161457c565b9050919050565b7f6163636f756e745f756e6c6f636b0000000000000000000000000000000000005f82015250565b5f6145f0600e83613b29565b91506145fb826145bc565b602082019050919050565b5f819050919050565b5f61462961462461461f84614606565b61429d565b6138f7565b9050919050565b6146398161460f565b82525050565b5f6080820190508181035f830152614656816145e4565b9050818103602083015261466a8186613b61565b90506146796040830185613b99565b6146866060830184614630565b949350505050565b7f5769746864726177206e6f7420636f6e6669726d6564000000000000000000005f82015250565b5f6146c2601683613b29565b91506146cd8261468e565b602082019050919050565b5f6020820190508181035f8301526146ef816146b6565b9050919050565b5f614700826138f7565b915061470b836138f7565b92508282039050818111156147235761472261416c565b5b92915050565b7f77697468647261775f72656a65637400000000000000000000000000000000005f82015250565b5f61475d600f83613b29565b915061476882614729565b602082019050919050565b5f6080820190508181035f83015261478a81614751565b9050818103602083015261479e8186613b61565b90506147ad6040830185613b99565b6147ba6060830184613900565b949350505050565b7f5369746520617574686f72697479206f6e6c792e0000000000000000000000005f82015250565b5f6147f6601483613b29565b9150614801826147c2565b602082019050919050565b5f6020820190508181035f830152614823816147ea565b9050919050565b7f5661756c7420696e206172626974726174696f6e2e00000000000000000000005f82015250565b5f61485e601583613b29565b91506148698261482a565b602082019050919050565b5f6020820190508181035f83015261488b81614852565b9050919050565b7f4163636f756e74206e6f7420766f7465642e00000000000000000000000000005f82015250565b5f6148c6601283613b29565b91506148d182614892565b602082019050919050565b5f6020820190508181035f8301526148f3816148ba565b9050919050565b5f61490482613ba8565b91505f82036149165761491561416c565b5b600182039050919050565b7f6172626974726174696f6e5f756e766f746500000000000000000000000000005f82015250565b5f614955601283613b29565b915061496082614921565b602082019050919050565b5f6080820190508181035f83015261498281614949565b905081810360208301526149968186613b61565b90506149a56040830185613b99565b6149b260608301846144f6565b949350505050565b7f4e6f2073656c6620736572766963652e000000000000000000000000000000005f82015250565b5f6149ee601083613b29565b91506149f9826149ba565b602082019050919050565b5f6020820190508181035f830152614a1b816149e2565b9050919050565b7f5769746864726177206e6f742070656e64696e670000000000000000000000005f82015250565b5f614a56601483613b29565b9150614a6182614a22565b602082019050919050565b5f6020820190508181035f830152614a8381614a4a565b9050919050565b7f576974686472617720616d6f756e7420696e636f7272656374000000000000005f82015250565b5f614abe601983613b29565b9150614ac982614a8a565b602082019050919050565b5f6020820190508181035f830152614aeb81614ab2565b9050919050565b7f77697468647261775f636f6e6669726d5f7369746500000000000000000000005f82015250565b5f614b26601583613b29565b9150614b3182614af2565b602082019050919050565b5f6080820190508181035f830152614b5381614b1a565b90508181036020830152614b678186613b61565b9050614b766040830185613b99565b614b836060830184613900565b949350505050565b7f5661756c7420616c7265616479206578697374732e00000000000000000000005f82015250565b5f614bbf601583613b29565b9150614bca82614b8b565b602082019050919050565b5f6020820190508181035f830152614bec81614bb3565b9050919050565b7f7661756c745f63726561746500000000000000000000000000000000000000005f82015250565b5f614c27600c83613b29565b9150614c3282614bf3565b602082019050919050565b5f6080820190508181035f830152614c5481614c1b565b90508181036020830152614c688186613b61565b9050614c776040830185613b99565b614c846060830184614630565b949350505050565b7f4163636f756e7420696e636f7272656374207374617475732e000000000000005f82015250565b5f614cc0601983613b29565b9150614ccb82614c8c565b602082019050919050565b5f6020820190508181035f830152614ced81614cb4565b9050919050565b7f6163636f756e745f6c6f636b00000000000000000000000000000000000000005f82015250565b5f614d28600c83613b29565b9150614d3382614cf4565b602082019050919050565b5f6080820190508181035f830152614d5581614d1c565b90508181036020830152614d698186613b61565b9050614d786040830185613b99565b614d856060830184614630565b949350505050565b7f4163636f756e74206172626974726174696f6e20766f7465642e0000000000005f82015250565b5f614dc1601a83613b29565b9150614dcc82614d8d565b602082019050919050565b5f6020820190508181035f830152614dee81614db5565b9050919050565b5f614dff82613ba8565b9150614e0a83613ba8565b9250828202614e1881613ba8565b9150808214614e2a57614e2961416c565b5b5092915050565b7f4e487b71000000000000000000000000000000000000000000000000000000005f52601260045260245ffd5b5f614e6882613ba8565b9150614e7383613ba8565b925082614e8357614e82614e31565b5b828204905092915050565b7f6172626974726174696f6e5f766f7465000000000000000000000000000000005f82015250565b5f614ec2601083613b29565b9150614ecd82614e8e565b602082019050919050565b5f6080820190508181035f830152614eef81614eb6565b90508181036020830152614f038186613b61565b9050614f126040830185613b99565b614f1f60608301846144f6565b949350505050565b7f5769746864726177206e6f7420616c6c6f7765642e00000000000000000000005f82015250565b5f614f5b601583613b29565b9150614f6682614f27565b602082019050919050565b5f6020820190508181035f830152614f8881614f4f565b9050919050565b7f576974686472617720616c7265616479207265717565737465642e00000000005f82015250565b5f614fc3601b83613b29565b9150614fce82614f8f565b602082019050919050565b5f6020820190508181035f830152614ff081614fb7565b9050919050565b7f576974686472617720616d6f756e742062656c6f77206d696e696d756d2e00005f82015250565b5f61502b601e83613b29565b915061503682614ff7565b602082019050919050565b5f6020820190508181035f8301526150588161501f565b9050919050565b7f576974686472617720616d6f756e742061626f7665206d6178696d756d0000005f82015250565b5f615093601d83613b29565b915061509e8261505f565b602082019050919050565b5f6020820190508181035f8301526150c081615087565b9050919050565b5f6150d1826138f7565b91506150dc836138f7565b92508282019050808211156150f4576150f361416c565b5b92915050565b7f5769746864726177206f76657220706f6f6c206c696d69742e000000000000005f82015250565b5f61512e601983613b29565b9150615139826150fa565b602082019050919050565b5f6020820190508181035f83015261515b81615122565b9050919050565b7f77697468647261775f72657175657374000000000000000000000000000000005f82015250565b5f615196601083613b29565b91506151a182615162565b602082019050919050565b5f6080820190508181035f8301526151c38161518a565b905081810360208301526151d78186613b61565b90506151e66040830185613b99565b6151f36060830184613900565b949350505050565b7f4163636f756e74206e6f74206163746976652e000000000000000000000000005f82015250565b5f61522f601383613b29565b915061523a826151fb565b602082019050919050565b5f6020820190508181035f83015261525c81615223565b9050919050565b7f6163636f756e745f6465706f73697400000000000000000000000000000000005f82015250565b5f615297600f83613b29565b91506152a282615263565b602082019050919050565b5f6080820190508181035f8301526152c48161528b565b905081810360208301526152d88186613b61565b90506152e76040830185613b99565b6152f46060830184613900565b949350505050565b7f77697468647261775f72656a6563745f736974650000000000000000000000005f82015250565b5f615330601483613b29565b915061533b826152fc565b602082019050919050565b5f6080820190508181035f83015261535d81615324565b905081810360208301526153718186613b61565b90506153806040830185613b99565b61538d6060830184613900565b949350505050565b7f6163636f756e745f6f70656e5f636f6e6669726d0000000000000000000000005f82015250565b5f6153c9601483613b29565b91506153d482615395565b602082019050919050565b5f6080820190508181035f8301526153f6816153bd565b9050818103602083015261540a8186613b61565b90506154196040830185613b99565b6154266060830184614630565b949350505050565b7f6163636f756e745f636c6f7365000000000000000000000000000000000000005f82015250565b5f615462600d83613b29565b915061546d8261542e565b602082019050919050565b5f6080820190508181035f83015261548f81615456565b905081810360208301526154a38186613b61565b90506154b26040830185613b99565b6154bf60608301846144f6565b949350505050565b7f536974652061646d696e206f6e6c792e000000000000000000000000000000005f82015250565b5f6154fb601083613b29565b9150615506826154c7565b602082019050919050565b5f6020820190508181035f830152615528816154ef565b9050919050565b7f5661756c74206f776e6572206f6e6c792e0000000000000000000000000000005f82015250565b5f615563601183613b29565b915061556e8261552f565b602082019050919050565b5f6020820190508181035f83015261559081615557565b9050919050565b7f55736572206e6f7420666f756e642e00000000000000000000000000000000005f82015250565b5f6155cb600f83613b29565b91506155d682615597565b602082019050919050565b5f6020820190508181035f8301526155f8816155bf565b9050919050565b5f615609826138f7565b9150615614836138f7565b9250828202615622816138f7565b915082820484148315176156395761563861416c565b5b5092915050565b5f61564a826138f7565b9150615655836138f7565b92508261566557615664614e31565b5b828204905092915050565b7f77697468647261775f7472616e736665720000000000000000000000000000005f82015250565b5f6156a4601183613b29565b91506156af82615670565b602082019050919050565b5f6080820190508181035f8301526156d181615698565b905081810360208301526156e58186613b61565b90506156f46040830185613b99565b6157016060830184613900565b949350505050565b7f52657175657374206e6f7420666f756e642e00000000000000000000000000005f82015250565b5f61573d601283613b29565b915061574882615709565b602082019050919050565b5f6020820190508181035f83015261576a81615731565b9050919050565b7f5661756c74206d616e6167656d656e74206f6e6c792e000000000000000000005f82015250565b5f6157a5601683613b29565b91506157b082615771565b602082019050919050565b5f6020820190508181035f8301526157d281615799565b905091905056fea2646970667358221220fdb182d174f981cd80caa07c52027ef6471d6a29c08db35a8082a481db2a084b64736f6c63430008140033",
      "linkReferences": {},
      "opcodes": "PUSH1 0x80 PUSH1 0x40 MSTORE CALLVALUE DUP1 ISZERO PUSH3 0x10 JUMPI PUSH0 DUP1 REVERT JUMPDEST POP PUSH1 0x40 MLOAD PUSH3 0x5925 CODESIZE SUB DUP1 PUSH3 0x5925 DUP4 CODECOPY DUP2 DUP2 ADD PUSH1 0x40 MSTORE DUP2 ADD SWAP1 PUSH3 0x36 SWAP2 SWAP1 PUSH3 0xD8 JUMP JUMPDEST CALLER PUSH0 DUP1 PUSH2 0x100 EXP DUP2 SLOAD DUP2 PUSH20 0xFFFFFFFFFFFFFFFFFFFFFFFFFFFFFFFFFFFFFFFF MUL NOT AND SWAP1 DUP4 PUSH20 0xFFFFFFFFFFFFFFFFFFFFFFFFFFFFFFFFFFFFFFFF AND MUL OR SWAP1 SSTORE POP DUP1 PUSH1 0x2 PUSH0 PUSH2 0x100 EXP DUP2 SLOAD DUP2 PUSH2 0xFFFF MUL NOT AND SWAP1 DUP4 PUSH2 0xFFFF AND MUL OR SWAP1 SSTORE POP POP PUSH3 0x108 JUMP JUMPDEST PUSH0 DUP1 REVERT JUMPDEST PUSH0 PUSH2 0xFFFF DUP3 AND SWAP1 POP SWAP2 SWAP1 POP JUMP JUMPDEST PUSH3 0xB4 DUP2 PUSH3 0x9C JUMP JUMPDEST DUP2 EQ PUSH3 0xBF JUMPI PUSH0 DUP1 REVERT JUMPDEST POP JUMP JUMPDEST PUSH0 DUP2 MLOAD SWAP1 POP PUSH3 0xD2 DUP2 PUSH3 0xA9 JUMP JUMPDEST SWAP3 SWAP2 POP POP JUMP JUMPDEST PUSH0 PUSH1 0x20 DUP3 DUP5 SUB SLT ISZERO PUSH3 0xF0 JUMPI PUSH3 0xEF PUSH3 0x98 JUMP JUMPDEST JUMPDEST PUSH0 PUSH3 0xFF DUP5 DUP3 DUP6 ADD PUSH3 0xC2 JUMP JUMPDEST SWAP2 POP POP SWAP3 SWAP2 POP POP JUMP JUMPDEST PUSH2 0x580F DUP1 PUSH3 0x116 PUSH0 CODECOPY PUSH0 RETURN INVALID PUSH1 0x80 PUSH1 0x40 MSTORE PUSH1 0x4 CALLDATASIZE LT PUSH2 0x17F JUMPI PUSH0 CALLDATALOAD PUSH1 0xE0 SHR DUP1 PUSH4 0xA49D8533 GT PUSH2 0xD0 JUMPI DUP1 PUSH4 0xE3465D7A GT PUSH2 0x89 JUMPI DUP1 PUSH4 0xF0657582 GT PUSH2 0x63 JUMPI DUP1 PUSH4 0xF0657582 EQ PUSH2 0x535 JUMPI DUP1 PUSH4 0xF2A9392D EQ PUSH2 0x55F JUMPI DUP1 PUSH4 0xF31300B4 EQ PUSH2 0x587 JUMPI DUP1 PUSH4 0xFCB74BF3 EQ PUSH2 0x5C3 JUMPI PUSH2 0x17F JUMP JUMPDEST DUP1 PUSH4 0xE3465D7A EQ PUSH2 0x4BD JUMPI DUP1 PUSH4 0xE463D44B EQ PUSH2 0x4E5 JUMPI DUP1 PUSH4 0xE480AD83 EQ PUSH2 0x50D JUMPI PUSH2 0x17F JUMP JUMPDEST DUP1 PUSH4 0xA49D8533 EQ PUSH2 0x3C0 JUMPI DUP1 PUSH4 0xAFB0ECA9 EQ PUSH2 0x3EA JUMPI DUP1 PUSH4 0xB96161E3 EQ PUSH2 0x412 JUMPI DUP1 PUSH4 0xBE922BCA EQ PUSH2 0x43A JUMPI DUP1 PUSH4 0xDE40A280 EQ PUSH2 0x462 JUMPI DUP1 PUSH4 0xE29EBBFB EQ PUSH2 0x47E JUMPI PUSH2 0x17F JUMP JUMPDEST DUP1 PUSH4 0x36FCEB3E GT PUSH2 0x13D JUMPI DUP1 PUSH4 0x47D733CE GT PUSH2 0x117 JUMPI DUP1 PUSH4 0x47D733CE EQ PUSH2 0x31E JUMPI DUP1 PUSH4 0x4FC538FD EQ PUSH2 0x346 JUMPI DUP1 PUSH4 0x703CC133 EQ PUSH2 0x36E JUMPI DUP1 PUSH4 0x95875A68 EQ PUSH2 0x396 JUMPI PUSH2 0x17F JUMP JUMPDEST DUP1 PUSH4 0x36FCEB3E EQ PUSH2 0x2A6 JUMPI DUP1 PUSH4 0x39BECBBE EQ PUSH2 0x2CE JUMPI DUP1 PUSH4 0x3E1C1EA8 EQ PUSH2 0x2F6 JUMPI PUSH2 0x17F JUMP JUMPDEST DUP1 PUSH3 0x1B3212 EQ PUSH2 0x183 JUMPI DUP1 PUSH4 0x49FDE97 EQ PUSH2 0x1C0 JUMPI DUP1 PUSH4 0x136A899E EQ PUSH2 0x1E8 JUMPI DUP1 PUSH4 0x18BB8952 EQ PUSH2 0x210 JUMPI DUP1 PUSH4 0x1A88D046 EQ PUSH2 0x238 JUMPI DUP1 PUSH4 0x3665631A EQ PUSH2 0x27E JUMPI JUMPDEST PUSH0 DUP1 REVERT JUMPDEST CALLVALUE DUP1 ISZERO PUSH2 0x18E JUMPI PUSH0 DUP1 REVERT JUMPDEST POP PUSH2 0x1A9 PUSH1 0x4 DUP1 CALLDATASIZE SUB DUP2 ADD SWAP1 PUSH2 0x1A4 SWAP2 SWAP1 PUSH2 0x386F JUMP JUMPDEST PUSH2 0x5EB JUMP JUMPDEST PUSH1 0x40 MLOAD PUSH2 0x1B7 SWAP3 SWAP2 SWAP1 PUSH2 0x3982 JUMP JUMPDEST PUSH1 0x40 MLOAD DUP1 SWAP2 SUB SWAP1 RETURN JUMPDEST CALLVALUE DUP1 ISZERO PUSH2 0x1CB JUMPI PUSH0 DUP1 REVERT JUMPDEST POP PUSH2 0x1E6 PUSH1 0x4 DUP1 CALLDATASIZE SUB DUP2 ADD SWAP1 PUSH2 0x1E1 SWAP2 SWAP1 PUSH2 0x39A9 JUMP JUMPDEST PUSH2 0x65D JUMP JUMPDEST STOP JUMPDEST CALLVALUE DUP1 ISZERO PUSH2 0x1F3 JUMPI PUSH0 DUP1 REVERT JUMPDEST POP PUSH2 0x20E PUSH1 0x4 DUP1 CALLDATASIZE SUB DUP2 ADD SWAP1 PUSH2 0x209 SWAP2 SWAP1 PUSH2 0x39A9 JUMP JUMPDEST PUSH2 0x9C8 JUMP JUMPDEST STOP JUMPDEST CALLVALUE DUP1 ISZERO PUSH2 0x21B JUMPI PUSH0 DUP1 REVERT JUMPDEST POP PUSH2 0x236 PUSH1 0x4 DUP1 CALLDATASIZE SUB DUP2 ADD SWAP1 PUSH2 0x231 SWAP2 SWAP1 PUSH2 0x3A38 JUMP JUMPDEST PUSH2 0xB0B JUMP JUMPDEST STOP JUMPDEST CALLVALUE DUP1 ISZERO PUSH2 0x243 JUMPI PUSH0 DUP1 REVERT JUMPDEST POP PUSH2 0x25E PUSH1 0x4 DUP1 CALLDATASIZE SUB DUP2 ADD SWAP1 PUSH2 0x259 SWAP2 SWAP1 PUSH2 0x3A92 JUMP JUMPDEST PUSH2 0xB6E JUMP JUMPDEST PUSH1 0x40 MLOAD PUSH2 0x275 SWAP12 SWAP11 SWAP10 SWAP9 SWAP8 SWAP7 SWAP6 SWAP5 SWAP4 SWAP3 SWAP2 SWAP1 PUSH2 0x3BC4 JUMP JUMPDEST PUSH1 0x40 MLOAD DUP1 SWAP2 SUB SWAP1 RETURN JUMPDEST CALLVALUE DUP1 ISZERO PUSH2 0x289 JUMPI PUSH0 DUP1 REVERT JUMPDEST POP PUSH2 0x2A4 PUSH1 0x4 DUP1 CALLDATASIZE SUB DUP2 ADD SWAP1 PUSH2 0x29F SWAP2 SWAP1 PUSH2 0x386F JUMP JUMPDEST PUSH2 0xCB6 JUMP JUMPDEST STOP JUMPDEST CALLVALUE DUP1 ISZERO PUSH2 0x2B1 JUMPI PUSH0 DUP1 REVERT JUMPDEST POP PUSH2 0x2CC PUSH1 0x4 DUP1 CALLDATASIZE SUB DUP2 ADD SWAP1 PUSH2 0x2C7 SWAP2 SWAP1 PUSH2 0x3C74 JUMP JUMPDEST PUSH2 0xF0F JUMP JUMPDEST STOP JUMPDEST CALLVALUE DUP1 ISZERO PUSH2 0x2D9 JUMPI PUSH0 DUP1 REVERT JUMPDEST POP PUSH2 0x2F4 PUSH1 0x4 DUP1 CALLDATASIZE SUB DUP2 ADD SWAP1 PUSH2 0x2EF SWAP2 SWAP1 PUSH2 0x3C74 JUMP JUMPDEST PUSH2 0xFF3 JUMP JUMPDEST STOP JUMPDEST CALLVALUE DUP1 ISZERO PUSH2 0x301 JUMPI PUSH0 DUP1 REVERT JUMPDEST POP PUSH2 0x31C PUSH1 0x4 DUP1 CALLDATASIZE SUB DUP2 ADD SWAP1 PUSH2 0x317 SWAP2 SWAP1 PUSH2 0x3A92 JUMP JUMPDEST PUSH2 0x10C2 JUMP JUMPDEST STOP JUMPDEST CALLVALUE DUP1 ISZERO PUSH2 0x329 JUMPI PUSH0 DUP1 REVERT JUMPDEST POP PUSH2 0x344 PUSH1 0x4 DUP1 CALLDATASIZE SUB DUP2 ADD SWAP1 PUSH2 0x33F SWAP2 SWAP1 PUSH2 0x3C9F JUMP JUMPDEST PUSH2 0x12A7 JUMP JUMPDEST STOP JUMPDEST CALLVALUE DUP1 ISZERO PUSH2 0x351 JUMPI PUSH0 DUP1 REVERT JUMPDEST POP PUSH2 0x36C PUSH1 0x4 DUP1 CALLDATASIZE SUB DUP2 ADD SWAP1 PUSH2 0x367 SWAP2 SWAP1 PUSH2 0x3D3F JUMP JUMPDEST PUSH2 0x147E JUMP JUMPDEST STOP JUMPDEST CALLVALUE DUP1 ISZERO PUSH2 0x379 JUMPI PUSH0 DUP1 REVERT JUMPDEST POP PUSH2 0x394 PUSH1 0x4 DUP1 CALLDATASIZE SUB DUP2 ADD SWAP1 PUSH2 0x38F SWAP2 SWAP1 PUSH2 0x3E05 JUMP JUMPDEST PUSH2 0x1627 JUMP JUMPDEST STOP JUMPDEST CALLVALUE DUP1 ISZERO PUSH2 0x3A1 JUMPI PUSH0 DUP1 REVERT JUMPDEST POP PUSH2 0x3AA PUSH2 0x1908 JUMP JUMPDEST PUSH1 0x40 MLOAD PUSH2 0x3B7 SWAP2 SWAP1 PUSH2 0x3EDA JUMP JUMPDEST PUSH1 0x40 MLOAD DUP1 SWAP2 SUB SWAP1 RETURN JUMPDEST CALLVALUE DUP1 ISZERO PUSH2 0x3CB JUMPI PUSH0 DUP1 REVERT JUMPDEST POP PUSH2 0x3D4 PUSH2 0x192B JUMP JUMPDEST PUSH1 0x40 MLOAD PUSH2 0x3E1 SWAP2 SWAP1 PUSH2 0x3EF3 JUMP JUMPDEST PUSH1 0x40 MLOAD DUP1 SWAP2 SUB SWAP1 RETURN JUMPDEST CALLVALUE DUP1 ISZERO PUSH2 0x3F5 JUMPI PUSH0 DUP1 REVERT JUMPDEST POP PUSH2 0x410 PUSH1 0x4 DUP1 CALLDATASIZE SUB DUP2 ADD SWAP1 PUSH2 0x40B SWAP2 SWAP1 PUSH2 0x39A9 JUMP JUMPDEST PUSH2 0x193D JUMP JUMPDEST STOP JUMPDEST CALLVALUE DUP1 ISZERO PUSH2 0x41D JUMPI PUSH0 DUP1 REVERT JUMPDEST POP PUSH2 0x438 PUSH1 0x4 DUP1 CALLDATASIZE SUB DUP2 ADD SWAP1 PUSH2 0x433 SWAP2 SWAP1 PUSH2 0x3A92 JUMP JUMPDEST PUSH2 0x1A81 JUMP JUMPDEST STOP JUMPDEST CALLVALUE DUP1 ISZERO PUSH2 0x445 JUMPI PUSH0 DUP1 REVERT JUMPDEST POP PUSH2 0x460 PUSH1 0x4 DUP1 CALLDATASIZE SUB DUP2 ADD SWAP1 PUSH2 0x45B SWAP2 SWAP1 PUSH2 0x3F0C JUMP JUMPDEST PUSH2 0x1C9F JUMP JUMPDEST STOP JUMPDEST PUSH2 0x47C PUSH1 0x4 DUP1 CALLDATASIZE SUB DUP2 ADD SWAP1 PUSH2 0x477 SWAP2 SWAP1 PUSH2 0x3A92 JUMP JUMPDEST PUSH2 0x23B8 JUMP JUMPDEST STOP JUMPDEST CALLVALUE DUP1 ISZERO PUSH2 0x489 JUMPI PUSH0 DUP1 REVERT JUMPDEST POP PUSH2 0x4A4 PUSH1 0x4 DUP1 CALLDATASIZE SUB DUP2 ADD SWAP1 PUSH2 0x49F SWAP2 SWAP1 PUSH2 0x39A9 JUMP JUMPDEST PUSH2 0x24A5 JUMP JUMPDEST PUSH1 0x40 MLOAD PUSH2 0x4B4 SWAP5 SWAP4 SWAP3 SWAP2 SWAP1 PUSH2 0x3FE9 JUMP JUMPDEST PUSH1 0x40 MLOAD DUP1 SWAP2 SUB SWAP1 RETURN JUMPDEST CALLVALUE DUP1 ISZERO PUSH2 0x4C8 JUMPI PUSH0 DUP1 REVERT JUMPDEST POP PUSH2 0x4E3 PUSH1 0x4 DUP1 CALLDATASIZE SUB DUP2 ADD SWAP1 PUSH2 0x4DE SWAP2 SWAP1 PUSH2 0x3D3F JUMP JUMPDEST PUSH2 0x2592 JUMP JUMPDEST STOP JUMPDEST CALLVALUE DUP1 ISZERO PUSH2 0x4F0 JUMPI PUSH0 DUP1 REVERT JUMPDEST POP PUSH2 0x50B PUSH1 0x4 DUP1 CALLDATASIZE SUB DUP2 ADD SWAP1 PUSH2 0x506 SWAP2 SWAP1 PUSH2 0x386F JUMP JUMPDEST PUSH2 0x2726 JUMP JUMPDEST STOP JUMPDEST CALLVALUE DUP1 ISZERO PUSH2 0x518 JUMPI PUSH0 DUP1 REVERT JUMPDEST POP PUSH2 0x533 PUSH1 0x4 DUP1 CALLDATASIZE SUB DUP2 ADD SWAP1 PUSH2 0x52E SWAP2 SWAP1 PUSH2 0x39A9 JUMP JUMPDEST PUSH2 0x28C6 JUMP JUMPDEST STOP JUMPDEST CALLVALUE DUP1 ISZERO PUSH2 0x540 JUMPI PUSH0 DUP1 REVERT JUMPDEST POP PUSH2 0x549 PUSH2 0x2A0A JUMP JUMPDEST PUSH1 0x40 MLOAD PUSH2 0x556 SWAP2 SWAP1 PUSH2 0x3EF3 JUMP JUMPDEST PUSH1 0x40 MLOAD DUP1 SWAP2 SUB SWAP1 RETURN JUMPDEST CALLVALUE DUP1 ISZERO PUSH2 0x56A JUMPI PUSH0 DUP1 REVERT JUMPDEST POP PUSH2 0x585 PUSH1 0x4 DUP1 CALLDATASIZE SUB DUP2 ADD SWAP1 PUSH2 0x580 SWAP2 SWAP1 PUSH2 0x39A9 JUMP JUMPDEST PUSH2 0x2A1D JUMP JUMPDEST STOP JUMPDEST CALLVALUE DUP1 ISZERO PUSH2 0x592 JUMPI PUSH0 DUP1 REVERT JUMPDEST POP PUSH2 0x5AD PUSH1 0x4 DUP1 CALLDATASIZE SUB DUP2 ADD SWAP1 PUSH2 0x5A8 SWAP2 SWAP1 PUSH2 0x3C74 JUMP JUMPDEST PUSH2 0x2BCB JUMP JUMPDEST PUSH1 0x40 MLOAD PUSH2 0x5BA SWAP2 SWAP1 PUSH2 0x4033 JUMP JUMPDEST PUSH1 0x40 MLOAD DUP1 SWAP2 SUB SWAP1 RETURN JUMPDEST CALLVALUE DUP1 ISZERO PUSH2 0x5CE JUMPI PUSH0 DUP1 REVERT JUMPDEST POP PUSH2 0x5E9 PUSH1 0x4 DUP1 CALLDATASIZE SUB DUP2 ADD SWAP1 PUSH2 0x5E4 SWAP2 SWAP1 PUSH2 0x3C74 JUMP JUMPDEST PUSH2 0x2BE8 JUMP JUMPDEST STOP JUMPDEST PUSH1 0x5 DUP4 DUP1 MLOAD PUSH1 0x20 DUP2 ADD DUP3 ADD DUP1 MLOAD DUP5 DUP3 MSTORE PUSH1 0x20 DUP4 ADD PUSH1 0x20 DUP6 ADD KECCAK256 DUP2 DUP4 MSTORE DUP1 SWAP6 POP POP POP POP POP POP PUSH1 0x20 MSTORE DUP2 PUSH0 MSTORE PUSH1 0x40 PUSH0 KECCAK256 DUP2 DUP1 MLOAD PUSH1 0x20 DUP2 ADD DUP3 ADD DUP1 MLOAD DUP5 DUP3 MSTORE PUSH1 0x20 DUP4 ADD PUSH1 0x20 DUP6 ADD KECCAK256 DUP2 DUP4 MSTORE DUP1 SWAP6 POP POP POP POP POP POP PUSH0 SWAP3 POP SWAP3 POP POP POP DUP1 PUSH0 ADD SLOAD SWAP1 DUP1 PUSH1 0x1 ADD PUSH0 SWAP1 SLOAD SWAP1 PUSH2 0x100 EXP SWAP1 DIV PUSH1 0xFF AND SWAP1 POP DUP3 JUMP JUMPDEST PUSH2 0x666 CALLER PUSH2 0x2C40 JUMP JUMPDEST PUSH1 0x1 PUSH1 0x3 DUP2 GT ISZERO PUSH2 0x67A JUMPI PUSH2 0x679 PUSH2 0x390F JUMP JUMPDEST JUMPDEST PUSH1 0x3 DUP4 PUSH1 0x40 MLOAD PUSH2 0x68A SWAP2 SWAP1 PUSH2 0x4086 JUMP JUMPDEST SWAP1 DUP2 MSTORE PUSH1 0x20 ADD PUSH1 0x40 MLOAD DUP1 SWAP2 SUB SWAP1 KECCAK256 PUSH0 ADD PUSH0 SWAP1 SLOAD SWAP1 PUSH2 0x100 EXP SWAP1 DIV PUSH1 0xFF AND PUSH1 0x3 DUP2 GT ISZERO PUSH2 0x6B9 JUMPI PUSH2 0x6B8 PUSH2 0x390F JUMP JUMPDEST JUMPDEST EQ DUP1 PUSH2 0x715 JUMPI POP PUSH1 0x2 PUSH1 0x3 DUP2 GT ISZERO PUSH2 0x6D4 JUMPI PUSH2 0x6D3 PUSH2 0x390F JUMP JUMPDEST JUMPDEST PUSH1 0x3 DUP4 PUSH1 0x40 MLOAD PUSH2 0x6E4 SWAP2 SWAP1 PUSH2 0x4086 JUMP JUMPDEST SWAP1 DUP2 MSTORE PUSH1 0x20 ADD PUSH1 0x40 MLOAD DUP1 SWAP2 SUB SWAP1 KECCAK256 PUSH0 ADD PUSH0 SWAP1 SLOAD SWAP1 PUSH2 0x100 EXP SWAP1 DIV PUSH1 0xFF AND PUSH1 0x3 DUP2 GT ISZERO PUSH2 0x713 JUMPI PUSH2 0x712 PUSH2 0x390F JUMP JUMPDEST JUMPDEST EQ JUMPDEST PUSH2 0x754 JUMPI PUSH1 0x40 MLOAD PUSH32 0x8C379A000000000000000000000000000000000000000000000000000000000 DUP2 MSTORE PUSH1 0x4 ADD PUSH2 0x74B SWAP1 PUSH2 0x40E6 JUMP JUMPDEST PUSH1 0x40 MLOAD DUP1 SWAP2 SUB SWAP1 REVERT JUMPDEST PUSH0 PUSH1 0x3 DUP2 GT ISZERO PUSH2 0x767 JUMPI PUSH2 0x766 PUSH2 0x390F JUMP JUMPDEST JUMPDEST PUSH1 0x4 DUP4 PUSH1 0x40 MLOAD PUSH2 0x777 SWAP2 SWAP1 PUSH2 0x4086 JUMP JUMPDEST SWAP1 DUP2 MSTORE PUSH1 0x20 ADD PUSH1 0x40 MLOAD DUP1 SWAP2 SUB SWAP1 KECCAK256 PUSH0 DUP4 PUSH20 0xFFFFFFFFFFFFFFFFFFFFFFFFFFFFFFFFFFFFFFFF AND PUSH20 0xFFFFFFFFFFFFFFFFFFFFFFFFFFFFFFFFFFFFFFFF AND DUP2 MSTORE PUSH1 0x20 ADD SWAP1 DUP2 MSTORE PUSH1 0x20 ADD PUSH0 KECCAK256 PUSH0 ADD PUSH0 SWAP1 SLOAD SWAP1 PUSH2 0x100 EXP SWAP1 DIV PUSH1 0xFF AND PUSH1 0x3 DUP2 GT ISZERO PUSH2 0x7E1 JUMPI PUSH2 0x7E0 PUSH2 0x390F JUMP JUMPDEST JUMPDEST EQ PUSH2 0x821 JUMPI PUSH1 0x40 MLOAD PUSH32 0x8C379A000000000000000000000000000000000000000000000000000000000 DUP2 MSTORE PUSH1 0x4 ADD PUSH2 0x818 SWAP1 PUSH2 0x414E JUMP JUMPDEST PUSH1 0x40 MLOAD DUP1 SWAP2 SUB SWAP1 REVERT JUMPDEST PUSH0 PUSH1 0x40 MLOAD DUP1 PUSH1 0x80 ADD PUSH1 0x40 MSTORE DUP1 PUSH1 0x1 PUSH1 0x3 DUP2 GT ISZERO PUSH2 0x841 JUMPI PUSH2 0x840 PUSH2 0x390F JUMP JUMPDEST JUMPDEST DUP2 MSTORE PUSH1 0x20 ADD PUSH0 ISZERO ISZERO DUP2 MSTORE PUSH1 0x20 ADD PUSH1 0x40 MLOAD DUP1 PUSH1 0x20 ADD PUSH1 0x40 MSTORE DUP1 PUSH0 DUP2 MSTORE POP DUP2 MSTORE PUSH1 0x20 ADD PUSH0 DUP2 MSTORE POP SWAP1 POP PUSH0 PUSH1 0x3 DUP5 PUSH1 0x40 MLOAD PUSH2 0x879 SWAP2 SWAP1 PUSH2 0x4086 JUMP JUMPDEST SWAP1 DUP2 MSTORE PUSH1 0x20 ADD PUSH1 0x40 MLOAD DUP1 SWAP2 SUB SWAP1 KECCAK256 PUSH1 0x5 ADD PUSH0 DUP2 DUP2 SWAP1 SLOAD SWAP1 PUSH2 0x100 EXP SWAP1 DIV PUSH2 0xFFFF AND PUSH2 0x8A3 SWAP1 PUSH2 0x4199 JUMP JUMPDEST SWAP2 SWAP1 PUSH2 0x100 EXP DUP2 SLOAD DUP2 PUSH2 0xFFFF MUL NOT AND SWAP1 DUP4 PUSH2 0xFFFF AND MUL OR SWAP1 SSTORE SWAP1 POP DUP2 PUSH1 0x4 DUP6 PUSH1 0x40 MLOAD PUSH2 0x8CF SWAP2 SWAP1 PUSH2 0x4086 JUMP JUMPDEST SWAP1 DUP2 MSTORE PUSH1 0x20 ADD PUSH1 0x40 MLOAD DUP1 SWAP2 SUB SWAP1 KECCAK256 PUSH0 DUP6 PUSH20 0xFFFFFFFFFFFFFFFFFFFFFFFFFFFFFFFFFFFFFFFF AND PUSH20 0xFFFFFFFFFFFFFFFFFFFFFFFFFFFFFFFFFFFFFFFF AND DUP2 MSTORE PUSH1 0x20 ADD SWAP1 DUP2 MSTORE PUSH1 0x20 ADD PUSH0 KECCAK256 PUSH0 DUP3 ADD MLOAD DUP2 PUSH0 ADD PUSH0 PUSH2 0x100 EXP DUP2 SLOAD DUP2 PUSH1 0xFF MUL NOT AND SWAP1 DUP4 PUSH1 0x3 DUP2 GT ISZERO PUSH2 0x940 JUMPI PUSH2 0x93F PUSH2 0x390F JUMP JUMPDEST JUMPDEST MUL OR SWAP1 SSTORE POP PUSH1 0x20 DUP3 ADD MLOAD DUP2 PUSH0 ADD PUSH1 0x1 PUSH2 0x100 EXP DUP2 SLOAD DUP2 PUSH1 0xFF MUL NOT AND SWAP1 DUP4 ISZERO ISZERO MUL OR SWAP1 SSTORE POP PUSH1 0x40 DUP3 ADD MLOAD DUP2 PUSH1 0x1 ADD SWAP1 DUP2 PUSH2 0x979 SWAP2 SWAP1 PUSH2 0x43BC JUMP JUMPDEST POP PUSH1 0x60 DUP3 ADD MLOAD DUP2 PUSH1 0x2 ADD SSTORE SWAP1 POP POP PUSH32 0x40768EE67403A1B2C45E2EE8E9C7CB4283D12BD31F8126DE25122997535C1BB DUP5 DUP5 DUP4 PUSH1 0x40 MLOAD PUSH2 0x9BA SWAP4 SWAP3 SWAP2 SWAP1 PUSH2 0x4505 JUMP JUMPDEST PUSH1 0x40 MLOAD DUP1 SWAP2 SUB SWAP1 LOG1 POP POP POP POP JUMP JUMPDEST PUSH2 0x9D2 DUP3 CALLER PUSH2 0x2D21 JUMP JUMPDEST PUSH0 PUSH2 0x9DD DUP4 DUP4 PUSH2 0x2E65 JUMP JUMPDEST SWAP1 POP PUSH1 0x3 DUP1 DUP2 GT ISZERO PUSH2 0x9F2 JUMPI PUSH2 0x9F1 PUSH2 0x390F JUMP JUMPDEST JUMPDEST DUP2 PUSH0 ADD MLOAD PUSH1 0x3 DUP2 GT ISZERO PUSH2 0xA08 JUMPI PUSH2 0xA07 PUSH2 0x390F JUMP JUMPDEST JUMPDEST EQ PUSH2 0xA48 JUMPI PUSH1 0x40 MLOAD PUSH32 0x8C379A000000000000000000000000000000000000000000000000000000000 DUP2 MSTORE PUSH1 0x4 ADD PUSH2 0xA3F SWAP1 PUSH2 0x459E JUMP JUMPDEST PUSH1 0x40 MLOAD DUP1 SWAP2 SUB SWAP1 REVERT JUMPDEST PUSH1 0x2 PUSH1 0x4 DUP5 PUSH1 0x40 MLOAD PUSH2 0xA5A SWAP2 SWAP1 PUSH2 0x4086 JUMP JUMPDEST SWAP1 DUP2 MSTORE PUSH1 0x20 ADD PUSH1 0x40 MLOAD DUP1 SWAP2 SUB SWAP1 KECCAK256 PUSH0 DUP5 PUSH20 0xFFFFFFFFFFFFFFFFFFFFFFFFFFFFFFFFFFFFFFFF AND PUSH20 0xFFFFFFFFFFFFFFFFFFFFFFFFFFFFFFFFFFFFFFFF AND DUP2 MSTORE PUSH1 0x20 ADD SWAP1 DUP2 MSTORE PUSH1 0x20 ADD PUSH0 KECCAK256 PUSH0 ADD PUSH0 PUSH2 0x100 EXP DUP2 SLOAD DUP2 PUSH1 0xFF MUL NOT AND SWAP1 DUP4 PUSH1 0x3 DUP2 GT ISZERO PUSH2 0xAC6 JUMPI PUSH2 0xAC5 PUSH2 0x390F JUMP JUMPDEST JUMPDEST MUL OR SWAP1 SSTORE POP PUSH32 0x40768EE67403A1B2C45E2EE8E9C7CB4283D12BD31F8126DE25122997535C1BB DUP4 DUP4 PUSH0 PUSH1 0x40 MLOAD PUSH2 0xAFE SWAP4 SWAP3 SWAP2 SWAP1 PUSH2 0x463F JUMP JUMPDEST PUSH1 0x40 MLOAD DUP1 SWAP2 SUB SWAP1 LOG1 POP POP POP JUMP JUMPDEST PUSH2 0xB15 DUP3 CALLER PUSH2 0x2D21 JUMP JUMPDEST DUP1 PUSH2 0xB21 JUMPI PUSH1 0x1 PUSH2 0xB24 JUMP JUMPDEST PUSH1 0x2 JUMPDEST PUSH1 0x3 DUP4 PUSH1 0x40 MLOAD PUSH2 0xB34 SWAP2 SWAP1 PUSH2 0x4086 JUMP JUMPDEST SWAP1 DUP2 MSTORE PUSH1 0x20 ADD PUSH1 0x40 MLOAD DUP1 SWAP2 SUB SWAP1 KECCAK256 PUSH0 ADD PUSH0 PUSH2 0x100 EXP DUP2 SLOAD DUP2 PUSH1 0xFF MUL NOT AND SWAP1 DUP4 PUSH1 0x3 DUP2 GT ISZERO PUSH2 0xB65 JUMPI PUSH2 0xB64 PUSH2 0x390F JUMP JUMPDEST JUMPDEST MUL OR SWAP1 SSTORE POP POP POP JUMP JUMPDEST PUSH1 0x3 DUP2 DUP1 MLOAD PUSH1 0x20 DUP2 ADD DUP3 ADD DUP1 MLOAD DUP5 DUP3 MSTORE PUSH1 0x20 DUP4 ADD PUSH1 0x20 DUP6 ADD KECCAK256 DUP2 DUP4 MSTORE DUP1 SWAP6 POP POP POP POP POP POP PUSH0 SWAP2 POP SWAP1 POP DUP1 PUSH0 ADD PUSH0 SWAP1 SLOAD SWAP1 PUSH2 0x100 EXP SWAP1 DIV PUSH1 0xFF AND SWAP1 DUP1 PUSH1 0x1 ADD DUP1 SLOAD PUSH2 0xBB7 SWAP1 PUSH2 0x41EF JUMP JUMPDEST DUP1 PUSH1 0x1F ADD PUSH1 0x20 DUP1 SWAP2 DIV MUL PUSH1 0x20 ADD PUSH1 0x40 MLOAD SWAP1 DUP2 ADD PUSH1 0x40 MSTORE DUP1 SWAP3 SWAP2 SWAP1 DUP2 DUP2 MSTORE PUSH1 0x20 ADD DUP3 DUP1 SLOAD PUSH2 0xBE3 SWAP1 PUSH2 0x41EF JUMP JUMPDEST DUP1 ISZERO PUSH2 0xC2E JUMPI DUP1 PUSH1 0x1F LT PUSH2 0xC05 JUMPI PUSH2 0x100 DUP1 DUP4 SLOAD DIV MUL DUP4 MSTORE SWAP2 PUSH1 0x20 ADD SWAP2 PUSH2 0xC2E JUMP JUMPDEST DUP3 ADD SWAP2 SWAP1 PUSH0 MSTORE PUSH1 0x20 PUSH0 KECCAK256 SWAP1 JUMPDEST DUP2 SLOAD DUP2 MSTORE SWAP1 PUSH1 0x1 ADD SWAP1 PUSH1 0x20 ADD DUP1 DUP4 GT PUSH2 0xC11 JUMPI DUP3 SWAP1 SUB PUSH1 0x1F AND DUP3 ADD SWAP2 JUMPDEST POP POP POP POP POP SWAP1 DUP1 PUSH1 0x2 ADD PUSH0 SWAP1 SLOAD SWAP1 PUSH2 0x100 EXP SWAP1 DIV PUSH20 0xFFFFFFFFFFFFFFFFFFFFFFFFFFFFFFFFFFFFFFFF AND SWAP1 DUP1 PUSH1 0x3 ADD SLOAD SWAP1 DUP1 PUSH1 0x4 ADD SLOAD SWAP1 DUP1 PUSH1 0x5 ADD PUSH0 SWAP1 SLOAD SWAP1 PUSH2 0x100 EXP SWAP1 DIV PUSH2 0xFFFF AND SWAP1 DUP1 PUSH1 0x5 ADD PUSH1 0x2 SWAP1 SLOAD SWAP1 PUSH2 0x100 EXP SWAP1 DIV PUSH2 0xFFFF AND SWAP1 DUP1 PUSH1 0x5 ADD PUSH1 0x4 SWAP1 SLOAD SWAP1 PUSH2 0x100 EXP SWAP1 DIV PUSH2 0xFFFF AND SWAP1 DUP1 PUSH1 0x6 ADD SLOAD SWAP1 DUP1 PUSH1 0x7 ADD SLOAD SWAP1 DUP1 PUSH1 0x8 ADD SLOAD SWAP1 POP DUP12 JUMP JUMPDEST PUSH2 0xCC0 DUP4 CALLER PUSH2 0x2D21 JUMP JUMPDEST PUSH0 PUSH1 0x5 DUP5 PUSH1 0x40 MLOAD PUSH2 0xCD1 SWAP2 SWAP1 PUSH2 0x4086 JUMP JUMPDEST SWAP1 DUP2 MSTORE PUSH1 0x20 ADD PUSH1 0x40 MLOAD DUP1 SWAP2 SUB SWAP1 KECCAK256 PUSH0 DUP5 PUSH20 0xFFFFFFFFFFFFFFFFFFFFFFFFFFFFFFFFFFFFFFFF AND PUSH20 0xFFFFFFFFFFFFFFFFFFFFFFFFFFFFFFFFFFFFFFFF AND DUP2 MSTORE PUSH1 0x20 ADD SWAP1 DUP2 MSTORE PUSH1 0x20 ADD PUSH0 KECCAK256 DUP3 PUSH1 0x40 MLOAD PUSH2 0xD28 SWAP2 SWAP1 PUSH2 0x4086 JUMP JUMPDEST SWAP1 DUP2 MSTORE PUSH1 0x20 ADD PUSH1 0x40 MLOAD DUP1 SWAP2 SUB SWAP1 KECCAK256 PUSH1 0x40 MLOAD DUP1 PUSH1 0x40 ADD PUSH1 0x40 MSTORE SWAP1 DUP2 PUSH0 DUP3 ADD SLOAD DUP2 MSTORE PUSH1 0x20 ADD PUSH1 0x1 DUP3 ADD PUSH0 SWAP1 SLOAD SWAP1 PUSH2 0x100 EXP SWAP1 DIV PUSH1 0xFF AND PUSH1 0x5 DUP2 GT ISZERO PUSH2 0xD6E JUMPI PUSH2 0xD6D PUSH2 0x390F JUMP JUMPDEST JUMPDEST PUSH1 0x5 DUP2 GT ISZERO PUSH2 0xD80 JUMPI PUSH2 0xD7F PUSH2 0x390F JUMP JUMPDEST JUMPDEST DUP2 MSTORE POP POP SWAP1 POP PUSH1 0x2 PUSH1 0x5 DUP2 GT ISZERO PUSH2 0xD9A JUMPI PUSH2 0xD99 PUSH2 0x390F JUMP JUMPDEST JUMPDEST DUP2 PUSH1 0x20 ADD MLOAD PUSH1 0x5 DUP2 GT ISZERO PUSH2 0xDB1 JUMPI PUSH2 0xDB0 PUSH2 0x390F JUMP JUMPDEST JUMPDEST EQ PUSH2 0xDF1 JUMPI PUSH1 0x40 MLOAD PUSH32 0x8C379A000000000000000000000000000000000000000000000000000000000 DUP2 MSTORE PUSH1 0x4 ADD PUSH2 0xDE8 SWAP1 PUSH2 0x46D8 JUMP JUMPDEST PUSH1 0x40 MLOAD DUP1 SWAP2 SUB SWAP1 REVERT JUMPDEST PUSH1 0x4 PUSH1 0x5 DUP6 PUSH1 0x40 MLOAD PUSH2 0xE03 SWAP2 SWAP1 PUSH2 0x4086 JUMP JUMPDEST SWAP1 DUP2 MSTORE PUSH1 0x20 ADD PUSH1 0x40 MLOAD DUP1 SWAP2 SUB SWAP1 KECCAK256 PUSH0 DUP6 PUSH20 0xFFFFFFFFFFFFFFFFFFFFFFFFFFFFFFFFFFFFFFFF AND PUSH20 0xFFFFFFFFFFFFFFFFFFFFFFFFFFFFFFFFFFFFFFFF AND DUP2 MSTORE PUSH1 0x20 ADD SWAP1 DUP2 MSTORE PUSH1 0x20 ADD PUSH0 KECCAK256 DUP4 PUSH1 0x40 MLOAD PUSH2 0xE5A SWAP2 SWAP1 PUSH2 0x4086 JUMP JUMPDEST SWAP1 DUP2 MSTORE PUSH1 0x20 ADD PUSH1 0x40 MLOAD DUP1 SWAP2 SUB SWAP1 KECCAK256 PUSH1 0x1 ADD PUSH0 PUSH2 0x100 EXP DUP2 SLOAD DUP2 PUSH1 0xFF MUL NOT AND SWAP1 DUP4 PUSH1 0x5 DUP2 GT ISZERO PUSH2 0xE8C JUMPI PUSH2 0xE8B PUSH2 0x390F JUMP JUMPDEST JUMPDEST MUL OR SWAP1 SSTORE POP DUP1 PUSH0 ADD MLOAD PUSH1 0x3 DUP6 PUSH1 0x40 MLOAD PUSH2 0xEA5 SWAP2 SWAP1 PUSH2 0x4086 JUMP JUMPDEST SWAP1 DUP2 MSTORE PUSH1 0x20 ADD PUSH1 0x40 MLOAD DUP1 SWAP2 SUB SWAP1 KECCAK256 PUSH1 0x4 ADD PUSH0 DUP3 DUP3 SLOAD PUSH2 0xEC4 SWAP2 SWAP1 PUSH2 0x46F6 JUMP JUMPDEST SWAP3 POP POP DUP2 SWAP1 SSTORE POP PUSH32 0x40768EE67403A1B2C45E2EE8E9C7CB4283D12BD31F8126DE25122997535C1BB DUP3 DUP5 DUP4 PUSH0 ADD MLOAD PUSH1 0x40 MLOAD PUSH2 0xF01 SWAP4 SWAP3 SWAP2 SWAP1 PUSH2 0x4773 JUMP JUMPDEST PUSH1 0x40 MLOAD DUP1 SWAP2 SUB SWAP1 LOG1 POP POP POP POP JUMP JUMPDEST PUSH0 DUP1 SLOAD SWAP1 PUSH2 0x100 EXP SWAP1 DIV PUSH20 0xFFFFFFFFFFFFFFFFFFFFFFFFFFFFFFFFFFFFFFFF AND PUSH20 0xFFFFFFFFFFFFFFFFFFFFFFFFFFFFFFFFFFFFFFFF AND CALLER PUSH20 0xFFFFFFFFFFFFFFFFFFFFFFFFFFFFFFFFFFFFFFFF AND EQ PUSH2 0xF9C JUMPI PUSH1 0x40 MLOAD PUSH32 0x8C379A000000000000000000000000000000000000000000000000000000000 DUP2 MSTORE PUSH1 0x4 ADD PUSH2 0xF93 SWAP1 PUSH2 0x480C JUMP JUMPDEST PUSH1 0x40 MLOAD DUP1 SWAP2 SUB SWAP1 REVERT JUMPDEST PUSH1 0x1 DUP1 PUSH0 DUP4 PUSH20 0xFFFFFFFFFFFFFFFFFFFFFFFFFFFFFFFFFFFFFFFF AND PUSH20 0xFFFFFFFFFFFFFFFFFFFFFFFFFFFFFFFFFFFFFFFF AND DUP2 MSTORE PUSH1 0x20 ADD SWAP1 DUP2 MSTORE PUSH1 0x20 ADD PUSH0 KECCAK256 PUSH0 PUSH2 0x100 EXP DUP2 SLOAD DUP2 PUSH1 0xFF MUL NOT AND SWAP1 DUP4 ISZERO ISZERO MUL OR SWAP1 SSTORE POP POP JUMP JUMPDEST PUSH0 DUP1 SLOAD SWAP1 PUSH2 0x100 EXP SWAP1 DIV PUSH20 0xFFFFFFFFFFFFFFFFFFFFFFFFFFFFFFFFFFFFFFFF AND PUSH20 0xFFFFFFFFFFFFFFFFFFFFFFFFFFFFFFFFFFFFFFFF AND CALLER PUSH20 0xFFFFFFFFFFFFFFFFFFFFFFFFFFFFFFFFFFFFFFFF AND EQ PUSH2 0x1080 JUMPI PUSH1 0x40 MLOAD PUSH32 0x8C379A000000000000000000000000000000000000000000000000000000000 DUP2 MSTORE PUSH1 0x4 ADD PUSH2 0x1077 SWAP1 PUSH2 0x480C JUMP JUMPDEST PUSH1 0x40 MLOAD DUP1 SWAP2 SUB SWAP1 REVERT JUMPDEST DUP1 PUSH0 DUP1 PUSH2 0x100 EXP DUP2 SLOAD DUP2 PUSH20 0xFFFFFFFFFFFFFFFFFFFFFFFFFFFFFFFFFFFFFFFF MUL NOT AND SWAP1 DUP4 PUSH20 0xFFFFFFFFFFFFFFFFFFFFFFFFFFFFFFFFFFFFFFFF AND MUL OR SWAP1 SSTORE POP POP JUMP JUMPDEST PUSH1 0x3 DUP1 DUP2 GT ISZERO PUSH2 0x10D5 JUMPI PUSH2 0x10D4 PUSH2 0x390F JUMP JUMPDEST JUMPDEST PUSH1 0x3 DUP3 PUSH1 0x40 MLOAD PUSH2 0x10E5 SWAP2 SWAP1 PUSH2 0x4086 JUMP JUMPDEST SWAP1 DUP2 MSTORE PUSH1 0x20 ADD PUSH1 0x40 MLOAD DUP1 SWAP2 SUB SWAP1 KECCAK256 PUSH0 ADD PUSH0 SWAP1 SLOAD SWAP1 PUSH2 0x100 EXP SWAP1 DIV PUSH1 0xFF AND PUSH1 0x3 DUP2 GT ISZERO PUSH2 0x1114 JUMPI PUSH2 0x1113 PUSH2 0x390F JUMP JUMPDEST JUMPDEST SUB PUSH2 0x1154 JUMPI PUSH1 0x40 MLOAD PUSH32 0x8C379A000000000000000000000000000000000000000000000000000000000 DUP2 MSTORE PUSH1 0x4 ADD PUSH2 0x114B SWAP1 PUSH2 0x4874 JUMP JUMPDEST PUSH1 0x40 MLOAD DUP1 SWAP2 SUB SWAP1 REVERT JUMPDEST PUSH0 PUSH2 0x115F DUP3 CALLER PUSH2 0x2E65 JUMP JUMPDEST SWAP1 POP DUP1 PUSH1 0x20 ADD MLOAD PUSH2 0x11A5 JUMPI PUSH1 0x40 MLOAD PUSH32 0x8C379A000000000000000000000000000000000000000000000000000000000 DUP2 MSTORE PUSH1 0x4 ADD PUSH2 0x119C SWAP1 PUSH2 0x48DC JUMP JUMPDEST PUSH1 0x40 MLOAD DUP1 SWAP2 SUB SWAP1 REVERT JUMPDEST PUSH1 0x4 DUP3 PUSH1 0x40 MLOAD PUSH2 0x11B5 SWAP2 SWAP1 PUSH2 0x4086 JUMP JUMPDEST SWAP1 DUP2 MSTORE PUSH1 0x20 ADD PUSH1 0x40 MLOAD DUP1 SWAP2 SUB SWAP1 KECCAK256 PUSH0 CALLER PUSH20 0xFFFFFFFFFFFFFFFFFFFFFFFFFFFFFFFFFFFFFFFF AND PUSH20 0xFFFFFFFFFFFFFFFFFFFFFFFFFFFFFFFFFFFFFFFF AND DUP2 MSTORE PUSH1 0x20 ADD SWAP1 DUP2 MSTORE PUSH1 0x20 ADD PUSH0 KECCAK256 PUSH0 ADD PUSH1 0x1 PUSH2 0x100 EXP DUP2 SLOAD SWAP1 PUSH1 0xFF MUL NOT AND SWAP1 SSTORE PUSH0 PUSH1 0x3 DUP4 PUSH1 0x40 MLOAD PUSH2 0x1221 SWAP2 SWAP1 PUSH2 0x4086 JUMP JUMPDEST SWAP1 DUP2 MSTORE PUSH1 0x20 ADD PUSH1 0x40 MLOAD DUP1 SWAP2 SUB SWAP1 KECCAK256 PUSH1 0x5 ADD PUSH1 0x2 DUP2 DUP2 SWAP1 SLOAD SWAP1 PUSH2 0x100 EXP SWAP1 DIV PUSH2 0xFFFF AND PUSH2 0x124C SWAP1 PUSH2 0x48FA JUMP JUMPDEST SWAP2 SWAP1 PUSH2 0x100 EXP DUP2 SLOAD DUP2 PUSH2 0xFFFF MUL NOT AND SWAP1 DUP4 PUSH2 0xFFFF AND MUL OR SWAP1 SSTORE SWAP1 POP PUSH32 0x40768EE67403A1B2C45E2EE8E9C7CB4283D12BD31F8126DE25122997535C1BB DUP4 CALLER DUP4 PUSH1 0x40 MLOAD PUSH2 0x129A SWAP4 SWAP3 SWAP2 SWAP1 PUSH2 0x496B JUMP JUMPDEST PUSH1 0x40 MLOAD DUP1 SWAP2 SUB SWAP1 LOG1 POP POP POP JUMP JUMPDEST PUSH1 0x1 PUSH1 0x3 DUP2 GT ISZERO PUSH2 0x12BB JUMPI PUSH2 0x12BA PUSH2 0x390F JUMP JUMPDEST JUMPDEST PUSH1 0x3 DUP4 PUSH1 0x40 MLOAD PUSH2 0x12CB SWAP2 SWAP1 PUSH2 0x4086 JUMP JUMPDEST SWAP1 DUP2 MSTORE PUSH1 0x20 ADD PUSH1 0x40 MLOAD DUP1 SWAP2 SUB SWAP1 KECCAK256 PUSH0 ADD PUSH0 SWAP1 SLOAD SWAP1 PUSH2 0x100 EXP SWAP1 DIV PUSH1 0xFF AND PUSH1 0x3 DUP2 GT ISZERO PUSH2 0x12FA JUMPI PUSH2 0x12F9 PUSH2 0x390F JUMP JUMPDEST JUMPDEST SUB PUSH2 0x133A JUMPI PUSH1 0x40 MLOAD PUSH32 0x8C379A000000000000000000000000000000000000000000000000000000000 DUP2 MSTORE PUSH1 0x4 ADD PUSH2 0x1331 SWAP1 PUSH2 0x4A04 JUMP JUMPDEST PUSH1 0x40 MLOAD DUP1 SWAP2 SUB SWAP1 REVERT JUMPDEST PUSH0 PUSH1 0x5 DUP4 PUSH1 0x40 MLOAD PUSH2 0x134B SWAP2 SWAP1 PUSH2 0x4086 JUMP JUMPDEST SWAP1 DUP2 MSTORE PUSH1 0x20 ADD PUSH1 0x40 MLOAD DUP1 SWAP2 SUB SWAP1 KECCAK256 PUSH0 CALLER PUSH20 0xFFFFFFFFFFFFFFFFFFFFFFFFFFFFFFFFFFFFFFFF AND PUSH20 0xFFFFFFFFFFFFFFFFFFFFFFFFFFFFFFFFFFFFFFFF AND DUP2 MSTORE PUSH1 0x20 ADD SWAP1 DUP2 MSTORE PUSH1 0x20 ADD PUSH0 KECCAK256 DUP3 PUSH1 0x40 MLOAD PUSH2 0x13A2 SWAP2 SWAP1 PUSH2 0x4086 JUMP JUMPDEST SWAP1 DUP2 MSTORE PUSH1 0x20 ADD PUSH1 0x40 MLOAD DUP1 SWAP2 SUB SWAP1 KECCAK256 PUSH1 0x40 MLOAD DUP1 PUSH1 0x40 ADD PUSH1 0x40 MSTORE SWAP1 DUP2 PUSH0 DUP3 ADD SLOAD DUP2 MSTORE PUSH1 0x20 ADD PUSH1 0x1 DUP3 ADD PUSH0 SWAP1 SLOAD SWAP1 PUSH2 0x100 EXP SWAP1 DIV PUSH1 0xFF AND PUSH1 0x5 DUP2 GT ISZERO PUSH2 0x13E8 JUMPI PUSH2 0x13E7 PUSH2 0x390F JUMP JUMPDEST JUMPDEST PUSH1 0x5 DUP2 GT ISZERO PUSH2 0x13FA JUMPI PUSH2 0x13F9 PUSH2 0x390F JUMP JUMPDEST JUMPDEST DUP2 MSTORE POP POP SWAP1 POP PUSH1 0x2 PUSH1 0x5 DUP2 GT ISZERO PUSH2 0x1414 JUMPI PUSH2 0x1413 PUSH2 0x390F JUMP JUMPDEST JUMPDEST DUP2 PUSH1 0x20 ADD MLOAD PUSH1 0x5 DUP2 GT ISZERO PUSH2 0x142B JUMPI PUSH2 0x142A PUSH2 0x390F JUMP JUMPDEST JUMPDEST EQ PUSH2 0x146B JUMPI PUSH1 0x40 MLOAD PUSH32 0x8C379A000000000000000000000000000000000000000000000000000000000 DUP2 MSTORE PUSH1 0x4 ADD PUSH2 0x1462 SWAP1 PUSH2 0x46D8 JUMP JUMPDEST PUSH1 0x40 MLOAD DUP1 SWAP2 SUB SWAP1 REVERT JUMPDEST PUSH2 0x1479 DUP4 CALLER DUP5 DUP5 PUSH1 0x1 PUSH2 0x3034 JUMP JUMPDEST POP POP POP JUMP JUMPDEST PUSH2 0x1487 CALLER PUSH2 0x2C40 JUMP JUMPDEST PUSH0 PUSH2 0x1493 DUP6 DUP6 DUP6 PUSH2 0x3372 JUMP JUMPDEST SWAP1 POP PUSH1 0x1 PUSH1 0x5 DUP2 GT ISZERO PUSH2 0x14A9 JUMPI PUSH2 0x14A8 PUSH2 0x390F JUMP JUMPDEST JUMPDEST DUP2 PUSH1 0x20 ADD MLOAD PUSH1 0x5 DUP2 GT ISZERO PUSH2 0x14C0 JUMPI PUSH2 0x14BF PUSH2 0x390F JUMP JUMPDEST JUMPDEST EQ PUSH2 0x1500 JUMPI PUSH1 0x40 MLOAD PUSH32 0x8C379A000000000000000000000000000000000000000000000000000000000 DUP2 MSTORE PUSH1 0x4 ADD PUSH2 0x14F7 SWAP1 PUSH2 0x4A6C JUMP JUMPDEST PUSH1 0x40 MLOAD DUP1 SWAP2 SUB SWAP1 REVERT JUMPDEST DUP2 DUP2 PUSH0 ADD MLOAD EQ PUSH2 0x1545 JUMPI PUSH1 0x40 MLOAD PUSH32 0x8C379A000000000000000000000000000000000000000000000000000000000 DUP2 MSTORE PUSH1 0x4 ADD PUSH2 0x153C SWAP1 PUSH2 0x4AD4 JUMP JUMPDEST PUSH1 0x40 MLOAD DUP1 SWAP2 SUB SWAP1 REVERT JUMPDEST PUSH1 0x2 PUSH1 0x5 DUP7 PUSH1 0x40 MLOAD PUSH2 0x1557 SWAP2 SWAP1 PUSH2 0x4086 JUMP JUMPDEST SWAP1 DUP2 MSTORE PUSH1 0x20 ADD PUSH1 0x40 MLOAD DUP1 SWAP2 SUB SWAP1 KECCAK256 PUSH0 DUP7 PUSH20 0xFFFFFFFFFFFFFFFFFFFFFFFFFFFFFFFFFFFFFFFF AND PUSH20 0xFFFFFFFFFFFFFFFFFFFFFFFFFFFFFFFFFFFFFFFF AND DUP2 MSTORE PUSH1 0x20 ADD SWAP1 DUP2 MSTORE PUSH1 0x20 ADD PUSH0 KECCAK256 DUP5 PUSH1 0x40 MLOAD PUSH2 0x15AE SWAP2 SWAP1 PUSH2 0x4086 JUMP JUMPDEST SWAP1 DUP2 MSTORE PUSH1 0x20 ADD PUSH1 0x40 MLOAD DUP1 SWAP2 SUB SWAP1 KECCAK256 PUSH1 0x1 ADD PUSH0 PUSH2 0x100 EXP DUP2 SLOAD DUP2 PUSH1 0xFF MUL NOT AND SWAP1 DUP4 PUSH1 0x5 DUP2 GT ISZERO PUSH2 0x15E0 JUMPI PUSH2 0x15DF PUSH2 0x390F JUMP JUMPDEST JUMPDEST MUL OR SWAP1 SSTORE POP PUSH32 0x40768EE67403A1B2C45E2EE8E9C7CB4283D12BD31F8126DE25122997535C1BB DUP4 DUP6 DUP5 PUSH1 0x40 MLOAD PUSH2 0x1618 SWAP4 SWAP3 SWAP2 SWAP1 PUSH2 0x4B3C JUMP JUMPDEST PUSH1 0x40 MLOAD DUP1 SWAP2 SUB SWAP1 LOG1 POP POP POP POP POP JUMP JUMPDEST PUSH2 0x1630 CALLER PUSH2 0x2C40 JUMP JUMPDEST PUSH1 0x3 DUP8 PUSH1 0x40 MLOAD PUSH2 0x1640 SWAP2 SWAP1 PUSH2 0x4086 JUMP JUMPDEST SWAP1 DUP2 MSTORE PUSH1 0x20 ADD PUSH1 0x40 MLOAD DUP1 SWAP2 SUB SWAP1 KECCAK256 PUSH0 ADD PUSH0 SWAP1 SLOAD SWAP1 PUSH2 0x100 EXP SWAP1 DIV PUSH1 0xFF AND PUSH1 0x3 DUP2 GT ISZERO PUSH2 0x166F JUMPI PUSH2 0x166E PUSH2 0x390F JUMP JUMPDEST JUMPDEST PUSH0 PUSH1 0x3 DUP2 GT ISZERO PUSH2 0x1682 JUMPI PUSH2 0x1681 PUSH2 0x390F JUMP JUMPDEST JUMPDEST EQ PUSH2 0x16C2 JUMPI PUSH1 0x40 MLOAD PUSH32 0x8C379A000000000000000000000000000000000000000000000000000000000 DUP2 MSTORE PUSH1 0x4 ADD PUSH2 0x16B9 SWAP1 PUSH2 0x4BD5 JUMP JUMPDEST PUSH1 0x40 MLOAD DUP1 SWAP2 SUB SWAP1 REVERT JUMPDEST PUSH0 PUSH1 0x40 MLOAD DUP1 PUSH2 0x160 ADD PUSH1 0x40 MSTORE DUP1 PUSH1 0x1 PUSH1 0x3 DUP2 GT ISZERO PUSH2 0x16E3 JUMPI PUSH2 0x16E2 PUSH2 0x390F JUMP JUMPDEST JUMPDEST DUP2 MSTORE PUSH1 0x20 ADD DUP9 DUP2 MSTORE PUSH1 0x20 ADD DUP8 PUSH20 0xFFFFFFFFFFFFFFFFFFFFFFFFFFFFFFFFFFFFFFFF AND DUP2 MSTORE PUSH1 0x20 ADD PUSH0 DUP2 MSTORE PUSH1 0x20 ADD PUSH0 DUP2 MSTORE PUSH1 0x20 ADD PUSH0 PUSH2 0xFFFF AND DUP2 MSTORE PUSH1 0x20 ADD PUSH0 PUSH2 0xFFFF AND DUP2 MSTORE PUSH1 0x20 ADD DUP7 PUSH2 0xFFFF AND DUP2 MSTORE PUSH1 0x20 ADD DUP6 DUP2 MSTORE PUSH1 0x20 ADD DUP5 DUP2 MSTORE PUSH1 0x20 ADD DUP4 DUP2 MSTORE POP SWAP1 POP PUSH1 0x2 DUP1 DUP2 DUP2 SWAP1 SLOAD SWAP1 PUSH2 0x100 EXP SWAP1 DIV PUSH2 0xFFFF AND PUSH2 0x1761 SWAP1 PUSH2 0x4199 JUMP JUMPDEST SWAP2 SWAP1 PUSH2 0x100 EXP DUP2 SLOAD DUP2 PUSH2 0xFFFF MUL NOT AND SWAP1 DUP4 PUSH2 0xFFFF AND MUL OR SWAP1 SSTORE POP DUP1 PUSH1 0x3 DUP10 PUSH1 0x40 MLOAD PUSH2 0x178C SWAP2 SWAP1 PUSH2 0x4086 JUMP JUMPDEST SWAP1 DUP2 MSTORE PUSH1 0x20 ADD PUSH1 0x40 MLOAD DUP1 SWAP2 SUB SWAP1 KECCAK256 PUSH0 DUP3 ADD MLOAD DUP2 PUSH0 ADD PUSH0 PUSH2 0x100 EXP DUP2 SLOAD DUP2 PUSH1 0xFF MUL NOT AND SWAP1 DUP4 PUSH1 0x3 DUP2 GT ISZERO PUSH2 0x17C2 JUMPI PUSH2 0x17C1 PUSH2 0x390F JUMP JUMPDEST JUMPDEST MUL OR SWAP1 SSTORE POP PUSH1 0x20 DUP3 ADD MLOAD DUP2 PUSH1 0x1 ADD SWAP1 DUP2 PUSH2 0x17DC SWAP2 SWAP1 PUSH2 0x43BC JUMP JUMPDEST POP PUSH1 0x40 DUP3 ADD MLOAD DUP2 PUSH1 0x2 ADD PUSH0 PUSH2 0x100 EXP DUP2 SLOAD DUP2 PUSH20 0xFFFFFFFFFFFFFFFFFFFFFFFFFFFFFFFFFFFFFFFF MUL NOT AND SWAP1 DUP4 PUSH20 0xFFFFFFFFFFFFFFFFFFFFFFFFFFFFFFFFFFFFFFFF AND MUL OR SWAP1 SSTORE POP PUSH1 0x60 DUP3 ADD MLOAD DUP2 PUSH1 0x3 ADD SSTORE PUSH1 0x80 DUP3 ADD MLOAD DUP2 PUSH1 0x4 ADD SSTORE PUSH1 0xA0 DUP3 ADD MLOAD DUP2 PUSH1 0x5 ADD PUSH0 PUSH2 0x100 EXP DUP2 SLOAD DUP2 PUSH2 0xFFFF MUL NOT AND SWAP1 DUP4 PUSH2 0xFFFF AND MUL OR SWAP1 SSTORE POP PUSH1 0xC0 DUP3 ADD MLOAD DUP2 PUSH1 0x5 ADD PUSH1 0x2 PUSH2 0x100 EXP DUP2 SLOAD DUP2 PUSH2 0xFFFF MUL NOT AND SWAP1 DUP4 PUSH2 0xFFFF AND MUL OR SWAP1 SSTORE POP PUSH1 0xE0 DUP3 ADD MLOAD DUP2 PUSH1 0x5 ADD PUSH1 0x4 PUSH2 0x100 EXP DUP2 SLOAD DUP2 PUSH2 0xFFFF MUL NOT AND SWAP1 DUP4 PUSH2 0xFFFF AND MUL OR SWAP1 SSTORE POP PUSH2 0x100 DUP3 ADD MLOAD DUP2 PUSH1 0x6 ADD SSTORE PUSH2 0x120 DUP3 ADD MLOAD DUP2 PUSH1 0x7 ADD SSTORE PUSH2 0x140 DUP3 ADD MLOAD DUP2 PUSH1 0x8 ADD SSTORE SWAP1 POP POP PUSH32 0x40768EE67403A1B2C45E2EE8E9C7CB4283D12BD31F8126DE25122997535C1BB DUP9 DUP8 PUSH0 PUSH1 0x40 MLOAD PUSH2 0x18F6 SWAP4 SWAP3 SWAP2 SWAP1 PUSH2 0x4C3D JUMP JUMPDEST PUSH1 0x40 MLOAD DUP1 SWAP2 SUB SWAP1 LOG1 POP POP POP POP POP POP POP POP JUMP JUMPDEST PUSH0 DUP1 SLOAD SWAP1 PUSH2 0x100 EXP SWAP1 DIV PUSH20 0xFFFFFFFFFFFFFFFFFFFFFFFFFFFFFFFFFFFFFFFF AND DUP2 JUMP JUMPDEST PUSH1 0x2 DUP1 SLOAD SWAP1 PUSH2 0x100 EXP SWAP1 DIV PUSH2 0xFFFF AND DUP2 JUMP JUMPDEST PUSH2 0x1947 DUP3 CALLER PUSH2 0x34B5 JUMP JUMPDEST PUSH0 PUSH2 0x1952 DUP4 DUP4 PUSH2 0x2E65 JUMP JUMPDEST SWAP1 POP PUSH1 0x2 PUSH1 0x3 DUP2 GT ISZERO PUSH2 0x1968 JUMPI PUSH2 0x1967 PUSH2 0x390F JUMP JUMPDEST JUMPDEST DUP2 PUSH0 ADD MLOAD PUSH1 0x3 DUP2 GT ISZERO PUSH2 0x197E JUMPI PUSH2 0x197D PUSH2 0x390F JUMP JUMPDEST JUMPDEST EQ PUSH2 0x19BE JUMPI PUSH1 0x40 MLOAD PUSH32 0x8C379A000000000000000000000000000000000000000000000000000000000 DUP2 MSTORE PUSH1 0x4 ADD PUSH2 0x19B5 SWAP1 PUSH2 0x4CD6 JUMP JUMPDEST PUSH1 0x40 MLOAD DUP1 SWAP2 SUB SWAP1 REVERT JUMPDEST PUSH1 0x3 PUSH1 0x4 DUP5 PUSH1 0x40 MLOAD PUSH2 0x19D0 SWAP2 SWAP1 PUSH2 0x4086 JUMP JUMPDEST SWAP1 DUP2 MSTORE PUSH1 0x20 ADD PUSH1 0x40 MLOAD DUP1 SWAP2 SUB SWAP1 KECCAK256 PUSH0 DUP5 PUSH20 0xFFFFFFFFFFFFFFFFFFFFFFFFFFFFFFFFFFFFFFFF AND PUSH20 0xFFFFFFFFFFFFFFFFFFFFFFFFFFFFFFFFFFFFFFFF AND DUP2 MSTORE PUSH1 0x20 ADD SWAP1 DUP2 MSTORE PUSH1 0x20 ADD PUSH0 KECCAK256 PUSH0 ADD PUSH0 PUSH2 0x100 EXP DUP2 SLOAD DUP2 PUSH1 0xFF MUL NOT AND SWAP1 DUP4 PUSH1 0x3 DUP2 GT ISZERO PUSH2 0x1A3C JUMPI PUSH2 0x1A3B PUSH2 0x390F JUMP JUMPDEST JUMPDEST MUL OR SWAP1 SSTORE POP PUSH32 0x40768EE67403A1B2C45E2EE8E9C7CB4283D12BD31F8126DE25122997535C1BB DUP4 DUP4 PUSH0 PUSH1 0x40 MLOAD PUSH2 0x1A74 SWAP4 SWAP3 SWAP2 SWAP1 PUSH2 0x4D3E JUMP JUMPDEST PUSH1 0x40 MLOAD DUP1 SWAP2 SUB SWAP1 LOG1 POP POP POP JUMP JUMPDEST PUSH0 PUSH2 0x1A8C DUP3 CALLER PUSH2 0x2E65 JUMP JUMPDEST SWAP1 POP DUP1 PUSH1 0x20 ADD MLOAD ISZERO PUSH2 0x1AD3 JUMPI PUSH1 0x40 MLOAD PUSH32 0x8C379A000000000000000000000000000000000000000000000000000000000 DUP2 MSTORE PUSH1 0x4 ADD PUSH2 0x1ACA SWAP1 PUSH2 0x4DD7 JUMP JUMPDEST PUSH1 0x40 MLOAD DUP1 SWAP2 SUB SWAP1 REVERT JUMPDEST PUSH1 0x1 PUSH1 0x4 DUP4 PUSH1 0x40 MLOAD PUSH2 0x1AE5 SWAP2 SWAP1 PUSH2 0x4086 JUMP JUMPDEST SWAP1 DUP2 MSTORE PUSH1 0x20 ADD PUSH1 0x40 MLOAD DUP1 SWAP2 SUB SWAP1 KECCAK256 PUSH0 CALLER PUSH20 0xFFFFFFFFFFFFFFFFFFFFFFFFFFFFFFFFFFFFFFFF AND PUSH20 0xFFFFFFFFFFFFFFFFFFFFFFFFFFFFFFFFFFFFFFFF AND DUP2 MSTORE PUSH1 0x20 ADD SWAP1 DUP2 MSTORE PUSH1 0x20 ADD PUSH0 KECCAK256 PUSH0 ADD PUSH1 0x1 PUSH2 0x100 EXP DUP2 SLOAD DUP2 PUSH1 0xFF MUL NOT AND SWAP1 DUP4 ISZERO ISZERO MUL OR SWAP1 SSTORE POP PUSH0 PUSH1 0x3 DUP4 PUSH1 0x40 MLOAD PUSH2 0x1B58 SWAP2 SWAP1 PUSH2 0x4086 JUMP JUMPDEST SWAP1 DUP2 MSTORE PUSH1 0x20 ADD PUSH1 0x40 MLOAD DUP1 SWAP2 SUB SWAP1 KECCAK256 PUSH1 0x5 ADD PUSH1 0x2 DUP2 DUP2 SWAP1 SLOAD SWAP1 PUSH2 0x100 EXP SWAP1 DIV PUSH2 0xFFFF AND PUSH2 0x1B83 SWAP1 PUSH2 0x4199 JUMP JUMPDEST SWAP2 SWAP1 PUSH2 0x100 EXP DUP2 SLOAD DUP2 PUSH2 0xFFFF MUL NOT AND SWAP1 DUP4 PUSH2 0xFFFF AND MUL OR SWAP1 SSTORE SWAP1 POP PUSH0 PUSH1 0x3 DUP5 PUSH1 0x40 MLOAD PUSH2 0x1BAF SWAP2 SWAP1 PUSH2 0x4086 JUMP JUMPDEST SWAP1 DUP2 MSTORE PUSH1 0x20 ADD PUSH1 0x40 MLOAD DUP1 SWAP2 SUB SWAP1 KECCAK256 PUSH1 0x5 ADD PUSH0 SWAP1 SLOAD SWAP1 PUSH2 0x100 EXP SWAP1 DIV PUSH2 0xFFFF AND SWAP1 POP PUSH1 0x4 DUP3 PUSH2 0xFFFF AND GT DUP1 ISZERO PUSH2 0x1C11 JUMPI POP PUSH1 0x64 DUP2 PUSH1 0x2 PUSH0 SWAP1 SLOAD SWAP1 PUSH2 0x100 EXP SWAP1 DIV PUSH2 0xFFFF AND PUSH2 0x1BFC SWAP2 SWAP1 PUSH2 0x4DF5 JUMP JUMPDEST PUSH2 0x1C06 SWAP2 SWAP1 PUSH2 0x4E5E JUMP JUMPDEST PUSH2 0xFFFF AND DUP3 PUSH2 0xFFFF AND GT JUMPDEST ISZERO PUSH2 0x1C5E JUMPI PUSH1 0x3 DUP1 DUP6 PUSH1 0x40 MLOAD PUSH2 0x1C27 SWAP2 SWAP1 PUSH2 0x4086 JUMP JUMPDEST SWAP1 DUP2 MSTORE PUSH1 0x20 ADD PUSH1 0x40 MLOAD DUP1 SWAP2 SUB SWAP1 KECCAK256 PUSH0 ADD PUSH0 PUSH2 0x100 EXP DUP2 SLOAD DUP2 PUSH1 0xFF MUL NOT AND SWAP1 DUP4 PUSH1 0x3 DUP2 GT ISZERO PUSH2 0x1C58 JUMPI PUSH2 0x1C57 PUSH2 0x390F JUMP JUMPDEST JUMPDEST MUL OR SWAP1 SSTORE POP JUMPDEST PUSH32 0x40768EE67403A1B2C45E2EE8E9C7CB4283D12BD31F8126DE25122997535C1BB DUP5 CALLER DUP5 PUSH1 0x40 MLOAD PUSH2 0x1C91 SWAP4 SWAP3 SWAP2 SWAP1 PUSH2 0x4ED8 JUMP JUMPDEST PUSH1 0x40 MLOAD DUP1 SWAP2 SUB SWAP1 LOG1 POP POP POP POP JUMP JUMPDEST PUSH0 PUSH1 0x4 DUP5 PUSH1 0x40 MLOAD PUSH2 0x1CB0 SWAP2 SWAP1 PUSH2 0x4086 JUMP JUMPDEST SWAP1 DUP2 MSTORE PUSH1 0x20 ADD PUSH1 0x40 MLOAD DUP1 SWAP2 SUB SWAP1 KECCAK256 PUSH0 CALLER PUSH20 0xFFFFFFFFFFFFFFFFFFFFFFFFFFFFFFFFFFFFFFFF AND PUSH20 0xFFFFFFFFFFFFFFFFFFFFFFFFFFFFFFFFFFFFFFFF AND DUP2 MSTORE PUSH1 0x20 ADD SWAP1 DUP2 MSTORE PUSH1 0x20 ADD PUSH0 KECCAK256 PUSH1 0x40 MLOAD DUP1 PUSH1 0x80 ADD PUSH1 0x40 MSTORE SWAP1 DUP2 PUSH0 DUP3 ADD PUSH0 SWAP1 SLOAD SWAP1 PUSH2 0x100 EXP SWAP1 DIV PUSH1 0xFF AND PUSH1 0x3 DUP2 GT ISZERO PUSH2 0x1D27 JUMPI PUSH2 0x1D26 PUSH2 0x390F JUMP JUMPDEST JUMPDEST PUSH1 0x3 DUP2 GT ISZERO PUSH2 0x1D39 JUMPI PUSH2 0x1D38 PUSH2 0x390F JUMP JUMPDEST JUMPDEST DUP2 MSTORE PUSH1 0x20 ADD PUSH0 DUP3 ADD PUSH1 0x1 SWAP1 SLOAD SWAP1 PUSH2 0x100 EXP SWAP1 DIV PUSH1 0xFF AND ISZERO ISZERO ISZERO ISZERO DUP2 MSTORE PUSH1 0x20 ADD PUSH1 0x1 DUP3 ADD DUP1 SLOAD PUSH2 0x1D67 SWAP1 PUSH2 0x41EF JUMP JUMPDEST DUP1 PUSH1 0x1F ADD PUSH1 0x20 DUP1 SWAP2 DIV MUL PUSH1 0x20 ADD PUSH1 0x40 MLOAD SWAP1 DUP2 ADD PUSH1 0x40 MSTORE DUP1 SWAP3 SWAP2 SWAP1 DUP2 DUP2 MSTORE PUSH1 0x20 ADD DUP3 DUP1 SLOAD PUSH2 0x1D93 SWAP1 PUSH2 0x41EF JUMP JUMPDEST DUP1 ISZERO PUSH2 0x1DDE JUMPI DUP1 PUSH1 0x1F LT PUSH2 0x1DB5 JUMPI PUSH2 0x100 DUP1 DUP4 SLOAD DIV MUL DUP4 MSTORE SWAP2 PUSH1 0x20 ADD SWAP2 PUSH2 0x1DDE JUMP JUMPDEST DUP3 ADD SWAP2 SWAP1 PUSH0 MSTORE PUSH1 0x20 PUSH0 KECCAK256 SWAP1 JUMPDEST DUP2 SLOAD DUP2 MSTORE SWAP1 PUSH1 0x1 ADD SWAP1 PUSH1 0x20 ADD DUP1 DUP4 GT PUSH2 0x1DC1 JUMPI DUP3 SWAP1 SUB PUSH1 0x1F AND DUP3 ADD SWAP2 JUMPDEST POP POP POP POP POP DUP2 MSTORE PUSH1 0x20 ADD PUSH1 0x2 DUP3 ADD SLOAD DUP2 MSTORE POP POP SWAP1 POP PUSH0 PUSH1 0x3 DUP6 PUSH1 0x40 MLOAD PUSH2 0x1E04 SWAP2 SWAP1 PUSH2 0x4086 JUMP JUMPDEST SWAP1 DUP2 MSTORE PUSH1 0x20 ADD PUSH1 0x40 MLOAD DUP1 SWAP2 SUB SWAP1 KECCAK256 PUSH1 0x40 MLOAD DUP1 PUSH2 0x160 ADD PUSH1 0x40 MSTORE SWAP1 DUP2 PUSH0 DUP3 ADD PUSH0 SWAP1 SLOAD SWAP1 PUSH2 0x100 EXP SWAP1 DIV PUSH1 0xFF AND PUSH1 0x3 DUP2 GT ISZERO PUSH2 0x1E41 JUMPI PUSH2 0x1E40 PUSH2 0x390F JUMP JUMPDEST JUMPDEST PUSH1 0x3 DUP2 GT ISZERO PUSH2 0x1E53 JUMPI PUSH2 0x1E52 PUSH2 0x390F JUMP JUMPDEST JUMPDEST DUP2 MSTORE PUSH1 0x20 ADD PUSH1 0x1 DUP3 ADD DUP1 SLOAD PUSH2 0x1E67 SWAP1 PUSH2 0x41EF JUMP JUMPDEST DUP1 PUSH1 0x1F ADD PUSH1 0x20 DUP1 SWAP2 DIV MUL PUSH1 0x20 ADD PUSH1 0x40 MLOAD SWAP1 DUP2 ADD PUSH1 0x40 MSTORE DUP1 SWAP3 SWAP2 SWAP1 DUP2 DUP2 MSTORE PUSH1 0x20 ADD DUP3 DUP1 SLOAD PUSH2 0x1E93 SWAP1 PUSH2 0x41EF JUMP JUMPDEST DUP1 ISZERO PUSH2 0x1EDE JUMPI DUP1 PUSH1 0x1F LT PUSH2 0x1EB5 JUMPI PUSH2 0x100 DUP1 DUP4 SLOAD DIV MUL DUP4 MSTORE SWAP2 PUSH1 0x20 ADD SWAP2 PUSH2 0x1EDE JUMP JUMPDEST DUP3 ADD SWAP2 SWAP1 PUSH0 MSTORE PUSH1 0x20 PUSH0 KECCAK256 SWAP1 JUMPDEST DUP2 SLOAD DUP2 MSTORE SWAP1 PUSH1 0x1 ADD SWAP1 PUSH1 0x20 ADD DUP1 DUP4 GT PUSH2 0x1EC1 JUMPI DUP3 SWAP1 SUB PUSH1 0x1F AND DUP3 ADD SWAP2 JUMPDEST POP POP POP POP POP DUP2 MSTORE PUSH1 0x20 ADD PUSH1 0x2 DUP3 ADD PUSH0 SWAP1 SLOAD SWAP1 PUSH2 0x100 EXP SWAP1 DIV PUSH20 0xFFFFFFFFFFFFFFFFFFFFFFFFFFFFFFFFFFFFFFFF AND PUSH20 0xFFFFFFFFFFFFFFFFFFFFFFFFFFFFFFFFFFFFFFFF AND PUSH20 0xFFFFFFFFFFFFFFFFFFFFFFFFFFFFFFFFFFFFFFFF AND DUP2 MSTORE PUSH1 0x20 ADD PUSH1 0x3 DUP3 ADD SLOAD DUP2 MSTORE PUSH1 0x20 ADD PUSH1 0x4 DUP3 ADD SLOAD DUP2 MSTORE PUSH1 0x20 ADD PUSH1 0x5 DUP3 ADD PUSH0 SWAP1 SLOAD SWAP1 PUSH2 0x100 EXP SWAP1 DIV PUSH2 0xFFFF AND PUSH2 0xFFFF AND PUSH2 0xFFFF AND DUP2 MSTORE PUSH1 0x20 ADD PUSH1 0x5 DUP3 ADD PUSH1 0x2 SWAP1 SLOAD SWAP1 PUSH2 0x100 EXP SWAP1 DIV PUSH2 0xFFFF AND PUSH2 0xFFFF AND PUSH2 0xFFFF AND DUP2 MSTORE PUSH1 0x20 ADD PUSH1 0x5 DUP3 ADD PUSH1 0x4 SWAP1 SLOAD SWAP1 PUSH2 0x100 EXP SWAP1 DIV PUSH2 0xFFFF AND PUSH2 0xFFFF AND PUSH2 0xFFFF AND DUP2 MSTORE PUSH1 0x20 ADD PUSH1 0x6 DUP3 ADD SLOAD DUP2 MSTORE PUSH1 0x20 ADD PUSH1 0x7 DUP3 ADD SLOAD DUP2 MSTORE PUSH1 0x20 ADD PUSH1 0x8 DUP3 ADD SLOAD DUP2 MSTORE POP POP SWAP1 POP PUSH1 0x2 PUSH1 0x3 DUP2 GT ISZERO PUSH2 0x1FE3 JUMPI PUSH2 0x1FE2 PUSH2 0x390F JUMP JUMPDEST JUMPDEST DUP3 PUSH0 ADD MLOAD PUSH1 0x3 DUP2 GT ISZERO PUSH2 0x1FF9 JUMPI PUSH2 0x1FF8 PUSH2 0x390F JUMP JUMPDEST JUMPDEST EQ DUP1 PUSH2 0x202B JUMPI POP PUSH1 0x3 DUP1 DUP2 GT ISZERO PUSH2 0x2013 JUMPI PUSH2 0x2012 PUSH2 0x390F JUMP JUMPDEST JUMPDEST DUP2 PUSH0 ADD MLOAD PUSH1 0x3 DUP2 GT ISZERO PUSH2 0x2029 JUMPI PUSH2 0x2028 PUSH2 0x390F JUMP JUMPDEST JUMPDEST EQ JUMPDEST PUSH2 0x206A JUMPI PUSH1 0x40 MLOAD PUSH32 0x8C379A000000000000000000000000000000000000000000000000000000000 DUP2 MSTORE PUSH1 0x4 ADD PUSH2 0x2061 SWAP1 PUSH2 0x4F71 JUMP JUMPDEST PUSH1 0x40 MLOAD DUP1 SWAP2 SUB SWAP1 REVERT JUMPDEST PUSH0 PUSH1 0x5 DUP2 GT ISZERO PUSH2 0x207D JUMPI PUSH2 0x207C PUSH2 0x390F JUMP JUMPDEST JUMPDEST PUSH1 0x5 DUP7 PUSH1 0x40 MLOAD PUSH2 0x208D SWAP2 SWAP1 PUSH2 0x4086 JUMP JUMPDEST SWAP1 DUP2 MSTORE PUSH1 0x20 ADD PUSH1 0x40 MLOAD DUP1 SWAP2 SUB SWAP1 KECCAK256 PUSH0 CALLER PUSH20 0xFFFFFFFFFFFFFFFFFFFFFFFFFFFFFFFFFFFFFFFF AND PUSH20 0xFFFFFFFFFFFFFFFFFFFFFFFFFFFFFFFFFFFFFFFF AND DUP2 MSTORE PUSH1 0x20 ADD SWAP1 DUP2 MSTORE PUSH1 0x20 ADD PUSH0 KECCAK256 DUP6 PUSH1 0x40 MLOAD PUSH2 0x20E4 SWAP2 SWAP1 PUSH2 0x4086 JUMP JUMPDEST SWAP1 DUP2 MSTORE PUSH1 0x20 ADD PUSH1 0x40 MLOAD DUP1 SWAP2 SUB SWAP1 KECCAK256 PUSH1 0x1 ADD PUSH0 SWAP1 SLOAD SWAP1 PUSH2 0x100 EXP SWAP1 DIV PUSH1 0xFF AND PUSH1 0x5 DUP2 GT ISZERO PUSH2 0x2114 JUMPI PUSH2 0x2113 PUSH2 0x390F JUMP JUMPDEST JUMPDEST EQ PUSH2 0x2154 JUMPI PUSH1 0x40 MLOAD PUSH32 0x8C379A000000000000000000000000000000000000000000000000000000000 DUP2 MSTORE PUSH1 0x4 ADD PUSH2 0x214B SWAP1 PUSH2 0x4FD9 JUMP JUMPDEST PUSH1 0x40 MLOAD DUP1 SWAP2 SUB SWAP1 REVERT JUMPDEST DUP1 PUSH2 0x120 ADD MLOAD DUP4 LT ISZERO PUSH2 0x219C JUMPI PUSH1 0x40 MLOAD PUSH32 0x8C379A000000000000000000000000000000000000000000000000000000000 DUP2 MSTORE PUSH1 0x4 ADD PUSH2 0x2193 SWAP1 PUSH2 0x5041 JUMP JUMPDEST PUSH1 0x40 MLOAD DUP1 SWAP2 SUB SWAP1 REVERT JUMPDEST DUP1 PUSH2 0x140 ADD MLOAD DUP4 GT ISZERO PUSH2 0x21E4 JUMPI PUSH1 0x40 MLOAD PUSH32 0x8C379A000000000000000000000000000000000000000000000000000000000 DUP2 MSTORE PUSH1 0x4 ADD PUSH2 0x21DB SWAP1 PUSH2 0x50A9 JUMP JUMPDEST PUSH1 0x40 MLOAD DUP1 SWAP2 SUB SWAP1 REVERT JUMPDEST PUSH0 DUP4 PUSH1 0x3 DUP8 PUSH1 0x40 MLOAD PUSH2 0x21F6 SWAP2 SWAP1 PUSH2 0x4086 JUMP JUMPDEST SWAP1 DUP2 MSTORE PUSH1 0x20 ADD PUSH1 0x40 MLOAD DUP1 SWAP2 SUB SWAP1 KECCAK256 PUSH1 0x4 ADD SLOAD PUSH2 0x2212 SWAP2 SWAP1 PUSH2 0x50C7 JUMP JUMPDEST SWAP1 POP DUP1 PUSH1 0x3 DUP8 PUSH1 0x40 MLOAD PUSH2 0x2225 SWAP2 SWAP1 PUSH2 0x4086 JUMP JUMPDEST SWAP1 DUP2 MSTORE PUSH1 0x20 ADD PUSH1 0x40 MLOAD DUP1 SWAP2 SUB SWAP1 KECCAK256 PUSH1 0x3 ADD SLOAD LT ISZERO PUSH2 0x2278 JUMPI PUSH1 0x40 MLOAD PUSH32 0x8C379A000000000000000000000000000000000000000000000000000000000 DUP2 MSTORE PUSH1 0x4 ADD PUSH2 0x226F SWAP1 PUSH2 0x5144 JUMP JUMPDEST PUSH1 0x40 MLOAD DUP1 SWAP2 SUB SWAP1 REVERT JUMPDEST PUSH1 0x40 MLOAD DUP1 PUSH1 0x40 ADD PUSH1 0x40 MSTORE DUP1 DUP6 DUP2 MSTORE PUSH1 0x20 ADD PUSH1 0x1 PUSH1 0x5 DUP2 GT ISZERO PUSH2 0x229D JUMPI PUSH2 0x229C PUSH2 0x390F JUMP JUMPDEST JUMPDEST DUP2 MSTORE POP PUSH1 0x5 DUP8 PUSH1 0x40 MLOAD PUSH2 0x22B0 SWAP2 SWAP1 PUSH2 0x4086 JUMP JUMPDEST SWAP1 DUP2 MSTORE PUSH1 0x20 ADD PUSH1 0x40 MLOAD DUP1 SWAP2 SUB SWAP1 KECCAK256 PUSH0 CALLER PUSH20 0xFFFFFFFFFFFFFFFFFFFFFFFFFFFFFFFFFFFFFFFF AND PUSH20 0xFFFFFFFFFFFFFFFFFFFFFFFFFFFFFFFFFFFFFFFF AND DUP2 MSTORE PUSH1 0x20 ADD SWAP1 DUP2 MSTORE PUSH1 0x20 ADD PUSH0 KECCAK256 DUP7 PUSH1 0x40 MLOAD PUSH2 0x2307 SWAP2 SWAP1 PUSH2 0x4086 JUMP JUMPDEST SWAP1 DUP2 MSTORE PUSH1 0x20 ADD PUSH1 0x40 MLOAD DUP1 SWAP2 SUB SWAP1 KECCAK256 PUSH0 DUP3 ADD MLOAD DUP2 PUSH0 ADD SSTORE PUSH1 0x20 DUP3 ADD MLOAD DUP2 PUSH1 0x1 ADD PUSH0 PUSH2 0x100 EXP DUP2 SLOAD DUP2 PUSH1 0xFF MUL NOT AND SWAP1 DUP4 PUSH1 0x5 DUP2 GT ISZERO PUSH2 0x2347 JUMPI PUSH2 0x2346 PUSH2 0x390F JUMP JUMPDEST JUMPDEST MUL OR SWAP1 SSTORE POP SWAP1 POP POP DUP1 PUSH1 0x3 DUP8 PUSH1 0x40 MLOAD PUSH2 0x2360 SWAP2 SWAP1 PUSH2 0x4086 JUMP JUMPDEST SWAP1 DUP2 MSTORE PUSH1 0x20 ADD PUSH1 0x40 MLOAD DUP1 SWAP2 SUB SWAP1 KECCAK256 PUSH1 0x4 ADD DUP2 SWAP1 SSTORE POP PUSH32 0x40768EE67403A1B2C45E2EE8E9C7CB4283D12BD31F8126DE25122997535C1BB DUP6 CALLER DUP7 PUSH1 0x40 MLOAD PUSH2 0x23A8 SWAP4 SWAP3 SWAP2 SWAP1 PUSH2 0x51AC JUMP JUMPDEST PUSH1 0x40 MLOAD DUP1 SWAP2 SUB SWAP1 LOG1 POP POP POP POP POP POP JUMP JUMPDEST PUSH0 PUSH2 0x23C3 DUP3 CALLER PUSH2 0x2E65 JUMP JUMPDEST SWAP1 POP PUSH1 0x2 PUSH1 0x3 DUP2 GT ISZERO PUSH2 0x23D9 JUMPI PUSH2 0x23D8 PUSH2 0x390F JUMP JUMPDEST JUMPDEST DUP2 PUSH0 ADD MLOAD PUSH1 0x3 DUP2 GT ISZERO PUSH2 0x23EF JUMPI PUSH2 0x23EE PUSH2 0x390F JUMP JUMPDEST JUMPDEST EQ PUSH2 0x242F JUMPI PUSH1 0x40 MLOAD PUSH32 0x8C379A000000000000000000000000000000000000000000000000000000000 DUP2 MSTORE PUSH1 0x4 ADD PUSH2 0x2426 SWAP1 PUSH2 0x5245 JUMP JUMPDEST PUSH1 0x40 MLOAD DUP1 SWAP2 SUB SWAP1 REVERT JUMPDEST CALLVALUE PUSH1 0x3 DUP4 PUSH1 0x40 MLOAD PUSH2 0x2440 SWAP2 SWAP1 PUSH2 0x4086 JUMP JUMPDEST SWAP1 DUP2 MSTORE PUSH1 0x20 ADD PUSH1 0x40 MLOAD DUP1 SWAP2 SUB SWAP1 KECCAK256 PUSH1 0x3 ADD PUSH0 DUP3 DUP3 SLOAD PUSH2 0x245F SWAP2 SWAP1 PUSH2 0x50C7 JUMP JUMPDEST SWAP3 POP POP DUP2 SWAP1 SSTORE POP PUSH32 0x40768EE67403A1B2C45E2EE8E9C7CB4283D12BD31F8126DE25122997535C1BB DUP3 CALLER CALLVALUE PUSH1 0x40 MLOAD PUSH2 0x2499 SWAP4 SWAP3 SWAP2 SWAP1 PUSH2 0x52AD JUMP JUMPDEST PUSH1 0x40 MLOAD DUP1 SWAP2 SUB SWAP1 LOG1 POP POP JUMP JUMPDEST PUSH1 0x4 DUP3 DUP1 MLOAD PUSH1 0x20 DUP2 ADD DUP3 ADD DUP1 MLOAD DUP5 DUP3 MSTORE PUSH1 0x20 DUP4 ADD PUSH1 0x20 DUP6 ADD KECCAK256 DUP2 DUP4 MSTORE DUP1 SWAP6 POP POP POP POP POP POP PUSH1 0x20 MSTORE DUP1 PUSH0 MSTORE PUSH1 0x40 PUSH0 KECCAK256 PUSH0 SWAP2 POP SWAP2 POP POP DUP1 PUSH0 ADD PUSH0 SWAP1 SLOAD SWAP1 PUSH2 0x100 EXP SWAP1 DIV PUSH1 0xFF AND SWAP1 DUP1 PUSH0 ADD PUSH1 0x1 SWAP1 SLOAD SWAP1 PUSH2 0x100 EXP SWAP1 DIV PUSH1 0xFF AND SWAP1 DUP1 PUSH1 0x1 ADD DUP1 SLOAD PUSH2 0x250B SWAP1 PUSH2 0x41EF JUMP JUMPDEST DUP1 PUSH1 0x1F ADD PUSH1 0x20 DUP1 SWAP2 DIV MUL PUSH1 0x20 ADD PUSH1 0x40 MLOAD SWAP1 DUP2 ADD PUSH1 0x40 MSTORE DUP1 SWAP3 SWAP2 SWAP1 DUP2 DUP2 MSTORE PUSH1 0x20 ADD DUP3 DUP1 SLOAD PUSH2 0x2537 SWAP1 PUSH2 0x41EF JUMP JUMPDEST DUP1 ISZERO PUSH2 0x2582 JUMPI DUP1 PUSH1 0x1F LT PUSH2 0x2559 JUMPI PUSH2 0x100 DUP1 DUP4 SLOAD DIV MUL DUP4 MSTORE SWAP2 PUSH1 0x20 ADD SWAP2 PUSH2 0x2582 JUMP JUMPDEST DUP3 ADD SWAP2 SWAP1 PUSH0 MSTORE PUSH1 0x20 PUSH0 KECCAK256 SWAP1 JUMPDEST DUP2 SLOAD DUP2 MSTORE SWAP1 PUSH1 0x1 ADD SWAP1 PUSH1 0x20 ADD DUP1 DUP4 GT PUSH2 0x2565 JUMPI DUP3 SWAP1 SUB PUSH1 0x1F AND DUP3 ADD SWAP2 JUMPDEST POP POP POP POP POP SWAP1 DUP1 PUSH1 0x2 ADD SLOAD SWAP1 POP DUP5 JUMP JUMPDEST PUSH2 0x259C DUP5 CALLER PUSH2 0x2D21 JUMP JUMPDEST PUSH0 PUSH1 0x5 DUP6 PUSH1 0x40 MLOAD PUSH2 0x25AD SWAP2 SWAP1 PUSH2 0x4086 JUMP JUMPDEST SWAP1 DUP2 MSTORE PUSH1 0x20 ADD PUSH1 0x40 MLOAD DUP1 SWAP2 SUB SWAP1 KECCAK256 PUSH0 DUP6 PUSH20 0xFFFFFFFFFFFFFFFFFFFFFFFFFFFFFFFFFFFFFFFF AND PUSH20 0xFFFFFFFFFFFFFFFFFFFFFFFFFFFFFFFFFFFFFFFF AND DUP2 MSTORE PUSH1 0x20 ADD SWAP1 DUP2 MSTORE PUSH1 0x20 ADD PUSH0 KECCAK256 DUP4 PUSH1 0x40 MLOAD PUSH2 0x2604 SWAP2 SWAP1 PUSH2 0x4086 JUMP JUMPDEST SWAP1 DUP2 MSTORE PUSH1 0x20 ADD PUSH1 0x40 MLOAD DUP1 SWAP2 SUB SWAP1 KECCAK256 PUSH1 0x40 MLOAD DUP1 PUSH1 0x40 ADD PUSH1 0x40 MSTORE SWAP1 DUP2 PUSH0 DUP3 ADD SLOAD DUP2 MSTORE PUSH1 0x20 ADD PUSH1 0x1 DUP3 ADD PUSH0 SWAP1 SLOAD SWAP1 PUSH2 0x100 EXP SWAP1 DIV PUSH1 0xFF AND PUSH1 0x5 DUP2 GT ISZERO PUSH2 0x264A JUMPI PUSH2 0x2649 PUSH2 0x390F JUMP JUMPDEST JUMPDEST PUSH1 0x5 DUP2 GT ISZERO PUSH2 0x265C JUMPI PUSH2 0x265B PUSH2 0x390F JUMP JUMPDEST JUMPDEST DUP2 MSTORE POP POP SWAP1 POP PUSH1 0x2 PUSH1 0x5 DUP2 GT ISZERO PUSH2 0x2676 JUMPI PUSH2 0x2675 PUSH2 0x390F JUMP JUMPDEST JUMPDEST DUP2 PUSH1 0x20 ADD MLOAD PUSH1 0x5 DUP2 GT ISZERO PUSH2 0x268D JUMPI PUSH2 0x268C PUSH2 0x390F JUMP JUMPDEST JUMPDEST EQ PUSH2 0x26CD JUMPI PUSH1 0x40 MLOAD PUSH32 0x8C379A000000000000000000000000000000000000000000000000000000000 DUP2 MSTORE PUSH1 0x4 ADD PUSH2 0x26C4 SWAP1 PUSH2 0x46D8 JUMP JUMPDEST PUSH1 0x40 MLOAD DUP1 SWAP2 SUB SWAP1 REVERT JUMPDEST DUP2 DUP2 PUSH0 ADD MLOAD EQ PUSH2 0x2712 JUMPI PUSH1 0x40 MLOAD PUSH32 0x8C379A000000000000000000000000000000000000000000000000000000000 DUP2 MSTORE PUSH1 0x4 ADD PUSH2 0x2709 SWAP1 PUSH2 0x4AD4 JUMP JUMPDEST PUSH1 0x40 MLOAD DUP1 SWAP2 SUB SWAP1 REVERT JUMPDEST PUSH2 0x271F DUP6 DUP6 DUP6 DUP5 PUSH0 PUSH2 0x3034 JUMP JUMPDEST POP POP POP POP POP JUMP JUMPDEST PUSH2 0x272F CALLER PUSH2 0x2C40 JUMP JUMPDEST PUSH0 PUSH2 0x273B DUP5 DUP5 DUP5 PUSH2 0x3372 JUMP JUMPDEST SWAP1 POP PUSH1 0x1 PUSH1 0x5 DUP2 GT ISZERO PUSH2 0x2751 JUMPI PUSH2 0x2750 PUSH2 0x390F JUMP JUMPDEST JUMPDEST DUP2 PUSH1 0x20 ADD MLOAD PUSH1 0x5 DUP2 GT ISZERO PUSH2 0x2768 JUMPI PUSH2 0x2767 PUSH2 0x390F JUMP JUMPDEST JUMPDEST EQ PUSH2 0x27A8 JUMPI PUSH1 0x40 MLOAD PUSH32 0x8C379A000000000000000000000000000000000000000000000000000000000 DUP2 MSTORE PUSH1 0x4 ADD PUSH2 0x279F SWAP1 PUSH2 0x4A6C JUMP JUMPDEST PUSH1 0x40 MLOAD DUP1 SWAP2 SUB SWAP1 REVERT JUMPDEST PUSH1 0x3 PUSH1 0x5 DUP6 PUSH1 0x40 MLOAD PUSH2 0x27BA SWAP2 SWAP1 PUSH2 0x4086 JUMP JUMPDEST SWAP1 DUP2 MSTORE PUSH1 0x20 ADD PUSH1 0x40 MLOAD DUP1 SWAP2 SUB SWAP1 KECCAK256 PUSH0 DUP6 PUSH20 0xFFFFFFFFFFFFFFFFFFFFFFFFFFFFFFFFFFFFFFFF AND PUSH20 0xFFFFFFFFFFFFFFFFFFFFFFFFFFFFFFFFFFFFFFFF AND DUP2 MSTORE PUSH1 0x20 ADD SWAP1 DUP2 MSTORE PUSH1 0x20 ADD PUSH0 KECCAK256 DUP4 PUSH1 0x40 MLOAD PUSH2 0x2811 SWAP2 SWAP1 PUSH2 0x4086 JUMP JUMPDEST SWAP1 DUP2 MSTORE PUSH1 0x20 ADD PUSH1 0x40 MLOAD DUP1 SWAP2 SUB SWAP1 KECCAK256 PUSH1 0x1 ADD PUSH0 PUSH2 0x100 EXP DUP2 SLOAD DUP2 PUSH1 0xFF MUL NOT AND SWAP1 DUP4 PUSH1 0x5 DUP2 GT ISZERO PUSH2 0x2843 JUMPI PUSH2 0x2842 PUSH2 0x390F JUMP JUMPDEST JUMPDEST MUL OR SWAP1 SSTORE POP DUP1 PUSH0 ADD MLOAD PUSH1 0x3 DUP6 PUSH1 0x40 MLOAD PUSH2 0x285C SWAP2 SWAP1 PUSH2 0x4086 JUMP JUMPDEST SWAP1 DUP2 MSTORE PUSH1 0x20 ADD PUSH1 0x40 MLOAD DUP1 SWAP2 SUB SWAP1 KECCAK256 PUSH1 0x4 ADD PUSH0 DUP3 DUP3 SLOAD PUSH2 0x287B SWAP2 SWAP1 PUSH2 0x46F6 JUMP JUMPDEST SWAP3 POP POP DUP2 SWAP1 SSTORE POP PUSH32 0x40768EE67403A1B2C45E2EE8E9C7CB4283D12BD31F8126DE25122997535C1BB DUP3 DUP5 DUP4 PUSH0 ADD MLOAD PUSH1 0x40 MLOAD PUSH2 0x28B8 SWAP4 SWAP3 SWAP2 SWAP1 PUSH2 0x5346 JUMP JUMPDEST PUSH1 0x40 MLOAD DUP1 SWAP2 SUB SWAP1 LOG1 POP POP POP POP JUMP JUMPDEST PUSH2 0x28D0 DUP3 CALLER PUSH2 0x2D21 JUMP JUMPDEST PUSH0 PUSH2 0x28DB DUP4 DUP4 PUSH2 0x2E65 JUMP JUMPDEST SWAP1 POP PUSH1 0x1 PUSH1 0x3 DUP2 GT ISZERO PUSH2 0x28F1 JUMPI PUSH2 0x28F0 PUSH2 0x390F JUMP JUMPDEST JUMPDEST DUP2 PUSH0 ADD MLOAD PUSH1 0x3 DUP2 GT ISZERO PUSH2 0x2907 JUMPI PUSH2 0x2906 PUSH2 0x390F JUMP JUMPDEST JUMPDEST EQ PUSH2 0x2947 JUMPI PUSH1 0x40 MLOAD PUSH32 0x8C379A000000000000000000000000000000000000000000000000000000000 DUP2 MSTORE PUSH1 0x4 ADD PUSH2 0x293E SWAP1 PUSH2 0x4CD6 JUMP JUMPDEST PUSH1 0x40 MLOAD DUP1 SWAP2 SUB SWAP1 REVERT JUMPDEST PUSH1 0x2 PUSH1 0x4 DUP5 PUSH1 0x40 MLOAD PUSH2 0x2959 SWAP2 SWAP1 PUSH2 0x4086 JUMP JUMPDEST SWAP1 DUP2 MSTORE PUSH1 0x20 ADD PUSH1 0x40 MLOAD DUP1 SWAP2 SUB SWAP1 KECCAK256 PUSH0 DUP5 PUSH20 0xFFFFFFFFFFFFFFFFFFFFFFFFFFFFFFFFFFFFFFFF AND PUSH20 0xFFFFFFFFFFFFFFFFFFFFFFFFFFFFFFFFFFFFFFFF AND DUP2 MSTORE PUSH1 0x20 ADD SWAP1 DUP2 MSTORE PUSH1 0x20 ADD PUSH0 KECCAK256 PUSH0 ADD PUSH0 PUSH2 0x100 EXP DUP2 SLOAD DUP2 PUSH1 0xFF MUL NOT AND SWAP1 DUP4 PUSH1 0x3 DUP2 GT ISZERO PUSH2 0x29C5 JUMPI PUSH2 0x29C4 PUSH2 0x390F JUMP JUMPDEST JUMPDEST MUL OR SWAP1 SSTORE POP PUSH32 0x40768EE67403A1B2C45E2EE8E9C7CB4283D12BD31F8126DE25122997535C1BB DUP4 DUP4 PUSH0 PUSH1 0x40 MLOAD PUSH2 0x29FD SWAP4 SWAP3 SWAP2 SWAP1 PUSH2 0x53DF JUMP JUMPDEST PUSH1 0x40 MLOAD DUP1 SWAP2 SUB SWAP1 LOG1 POP POP POP JUMP JUMPDEST PUSH1 0x2 PUSH0 SWAP1 SLOAD SWAP1 PUSH2 0x100 EXP SWAP1 DIV PUSH2 0xFFFF AND DUP2 JUMP JUMPDEST PUSH2 0x2A26 CALLER PUSH2 0x2C40 JUMP JUMPDEST PUSH0 PUSH2 0x2A31 DUP4 DUP4 PUSH2 0x2E65 JUMP JUMPDEST SWAP1 POP PUSH1 0x2 PUSH1 0x3 DUP2 GT ISZERO PUSH2 0x2A47 JUMPI PUSH2 0x2A46 PUSH2 0x390F JUMP JUMPDEST JUMPDEST DUP2 PUSH0 ADD MLOAD PUSH1 0x3 DUP2 GT ISZERO PUSH2 0x2A5D JUMPI PUSH2 0x2A5C PUSH2 0x390F JUMP JUMPDEST JUMPDEST EQ PUSH2 0x2A9D JUMPI PUSH1 0x40 MLOAD PUSH32 0x8C379A000000000000000000000000000000000000000000000000000000000 DUP2 MSTORE PUSH1 0x4 ADD PUSH2 0x2A94 SWAP1 PUSH2 0x4CD6 JUMP JUMPDEST PUSH1 0x40 MLOAD DUP1 SWAP2 SUB SWAP1 REVERT JUMPDEST PUSH1 0x4 DUP4 PUSH1 0x40 MLOAD PUSH2 0x2AAD SWAP2 SWAP1 PUSH2 0x4086 JUMP JUMPDEST SWAP1 DUP2 MSTORE PUSH1 0x20 ADD PUSH1 0x40 MLOAD DUP1 SWAP2 SUB SWAP1 KECCAK256 PUSH0 DUP4 PUSH20 0xFFFFFFFFFFFFFFFFFFFFFFFFFFFFFFFFFFFFFFFF AND PUSH20 0xFFFFFFFFFFFFFFFFFFFFFFFFFFFFFFFFFFFFFFFF AND DUP2 MSTORE PUSH1 0x20 ADD SWAP1 DUP2 MSTORE PUSH1 0x20 ADD PUSH0 KECCAK256 PUSH0 DUP1 DUP3 ADD PUSH0 PUSH2 0x100 EXP DUP2 SLOAD SWAP1 PUSH1 0xFF MUL NOT AND SWAP1 SSTORE PUSH0 DUP3 ADD PUSH1 0x1 PUSH2 0x100 EXP DUP2 SLOAD SWAP1 PUSH1 0xFF MUL NOT AND SWAP1 SSTORE PUSH1 0x1 DUP3 ADD PUSH0 PUSH2 0x2B2B SWAP2 SWAP1 PUSH2 0x360D JUMP JUMPDEST PUSH1 0x2 DUP3 ADD PUSH0 SWAP1 SSTORE POP POP PUSH0 PUSH1 0x3 DUP5 PUSH1 0x40 MLOAD PUSH2 0x2B45 SWAP2 SWAP1 PUSH2 0x4086 JUMP JUMPDEST SWAP1 DUP2 MSTORE PUSH1 0x20 ADD PUSH1 0x40 MLOAD DUP1 SWAP2 SUB SWAP1 KECCAK256 PUSH1 0x5 ADD PUSH0 DUP2 DUP2 SWAP1 SLOAD SWAP1 PUSH2 0x100 EXP SWAP1 DIV PUSH2 0xFFFF AND PUSH2 0x2B6F SWAP1 PUSH2 0x48FA JUMP JUMPDEST SWAP2 SWAP1 PUSH2 0x100 EXP DUP2 SLOAD DUP2 PUSH2 0xFFFF MUL NOT AND SWAP1 DUP4 PUSH2 0xFFFF AND MUL OR SWAP1 SSTORE SWAP1 POP PUSH32 0x40768EE67403A1B2C45E2EE8E9C7CB4283D12BD31F8126DE25122997535C1BB DUP5 DUP5 DUP4 PUSH1 0x40 MLOAD PUSH2 0x2BBD SWAP4 SWAP3 SWAP2 SWAP1 PUSH2 0x5478 JUMP JUMPDEST PUSH1 0x40 MLOAD DUP1 SWAP2 SUB SWAP1 LOG1 POP POP POP POP JUMP JUMPDEST PUSH1 0x1 PUSH1 0x20 MSTORE DUP1 PUSH0 MSTORE PUSH1 0x40 PUSH0 KECCAK256 PUSH0 SWAP2 POP SLOAD SWAP1 PUSH2 0x100 EXP SWAP1 DIV PUSH1 0xFF AND DUP2 JUMP JUMPDEST PUSH2 0x2BF1 CALLER PUSH2 0x2C40 JUMP JUMPDEST PUSH1 0x1 PUSH0 DUP3 PUSH20 0xFFFFFFFFFFFFFFFFFFFFFFFFFFFFFFFFFFFFFFFF AND PUSH20 0xFFFFFFFFFFFFFFFFFFFFFFFFFFFFFFFFFFFFFFFF AND DUP2 MSTORE PUSH1 0x20 ADD SWAP1 DUP2 MSTORE PUSH1 0x20 ADD PUSH0 KECCAK256 PUSH0 PUSH2 0x100 EXP DUP2 SLOAD SWAP1 PUSH1 0xFF MUL NOT AND SWAP1 SSTORE POP JUMP JUMPDEST PUSH0 DUP1 SLOAD SWAP1 PUSH2 0x100 EXP SWAP1 DIV PUSH20 0xFFFFFFFFFFFFFFFFFFFFFFFFFFFFFFFFFFFFFFFF AND PUSH20 0xFFFFFFFFFFFFFFFFFFFFFFFFFFFFFFFFFFFFFFFF AND DUP2 PUSH20 0xFFFFFFFFFFFFFFFFFFFFFFFFFFFFFFFFFFFFFFFF AND EQ DUP1 PUSH2 0x2CDF JUMPI POP PUSH1 0x1 PUSH0 DUP3 PUSH20 0xFFFFFFFFFFFFFFFFFFFFFFFFFFFFFFFFFFFFFFFF AND PUSH20 0xFFFFFFFFFFFFFFFFFFFFFFFFFFFFFFFFFFFFFFFF AND DUP2 MSTORE PUSH1 0x20 ADD SWAP1 DUP2 MSTORE PUSH1 0x20 ADD PUSH0 KECCAK256 PUSH0 SWAP1 SLOAD SWAP1 PUSH2 0x100 EXP SWAP1 DIV PUSH1 0xFF AND JUMPDEST PUSH2 0x2D1E JUMPI PUSH1 0x40 MLOAD PUSH32 0x8C379A000000000000000000000000000000000000000000000000000000000 DUP2 MSTORE PUSH1 0x4 ADD PUSH2 0x2D15 SWAP1 PUSH2 0x5511 JUMP JUMPDEST PUSH1 0x40 MLOAD DUP1 SWAP2 SUB SWAP1 REVERT JUMPDEST POP JUMP JUMPDEST DUP1 PUSH20 0xFFFFFFFFFFFFFFFFFFFFFFFFFFFFFFFFFFFFFFFF AND PUSH1 0x3 DUP4 PUSH1 0x40 MLOAD PUSH2 0x2D48 SWAP2 SWAP1 PUSH2 0x4086 JUMP JUMPDEST SWAP1 DUP2 MSTORE PUSH1 0x20 ADD PUSH1 0x40 MLOAD DUP1 SWAP2 SUB SWAP1 KECCAK256 PUSH1 0x2 ADD PUSH0 SWAP1 SLOAD SWAP1 PUSH2 0x100 EXP SWAP1 DIV PUSH20 0xFFFFFFFFFFFFFFFFFFFFFFFFFFFFFFFFFFFFFFFF AND PUSH20 0xFFFFFFFFFFFFFFFFFFFFFFFFFFFFFFFFFFFFFFFF AND EQ PUSH2 0x2DCF JUMPI PUSH1 0x40 MLOAD PUSH32 0x8C379A000000000000000000000000000000000000000000000000000000000 DUP2 MSTORE PUSH1 0x4 ADD PUSH2 0x2DC6 SWAP1 PUSH2 0x5579 JUMP JUMPDEST PUSH1 0x40 MLOAD DUP1 SWAP2 SUB SWAP1 REVERT JUMPDEST PUSH1 0x3 DUP1 DUP2 GT ISZERO PUSH2 0x2DE2 JUMPI PUSH2 0x2DE1 PUSH2 0x390F JUMP JUMPDEST JUMPDEST PUSH1 0x3 DUP4 PUSH1 0x40 MLOAD PUSH2 0x2DF2 SWAP2 SWAP1 PUSH2 0x4086 JUMP JUMPDEST SWAP1 DUP2 MSTORE PUSH1 0x20 ADD PUSH1 0x40 MLOAD DUP1 SWAP2 SUB SWAP1 KECCAK256 PUSH0 ADD PUSH0 SWAP1 SLOAD SWAP1 PUSH2 0x100 EXP SWAP1 DIV PUSH1 0xFF AND PUSH1 0x3 DUP2 GT ISZERO PUSH2 0x2E21 JUMPI PUSH2 0x2E20 PUSH2 0x390F JUMP JUMPDEST JUMPDEST SUB PUSH2 0x2E61 JUMPI PUSH1 0x40 MLOAD PUSH32 0x8C379A000000000000000000000000000000000000000000000000000000000 DUP2 MSTORE PUSH1 0x4 ADD PUSH2 0x2E58 SWAP1 PUSH2 0x4874 JUMP JUMPDEST PUSH1 0x40 MLOAD DUP1 SWAP2 SUB SWAP1 REVERT JUMPDEST POP POP JUMP JUMPDEST PUSH2 0x2E6D PUSH2 0x364A JUMP JUMPDEST PUSH0 PUSH1 0x4 DUP5 PUSH1 0x40 MLOAD PUSH2 0x2E7E SWAP2 SWAP1 PUSH2 0x4086 JUMP JUMPDEST SWAP1 DUP2 MSTORE PUSH1 0x20 ADD PUSH1 0x40 MLOAD DUP1 SWAP2 SUB SWAP1 KECCAK256 PUSH0 DUP5 PUSH20 0xFFFFFFFFFFFFFFFFFFFFFFFFFFFFFFFFFFFFFFFF AND PUSH20 0xFFFFFFFFFFFFFFFFFFFFFFFFFFFFFFFFFFFFFFFF AND DUP2 MSTORE PUSH1 0x20 ADD SWAP1 DUP2 MSTORE PUSH1 0x20 ADD PUSH0 KECCAK256 PUSH1 0x40 MLOAD DUP1 PUSH1 0x80 ADD PUSH1 0x40 MSTORE SWAP1 DUP2 PUSH0 DUP3 ADD PUSH0 SWAP1 SLOAD SWAP1 PUSH2 0x100 EXP SWAP1 DIV PUSH1 0xFF AND PUSH1 0x3 DUP2 GT ISZERO PUSH2 0x2EF5 JUMPI PUSH2 0x2EF4 PUSH2 0x390F JUMP JUMPDEST JUMPDEST PUSH1 0x3 DUP2 GT ISZERO PUSH2 0x2F07 JUMPI PUSH2 0x2F06 PUSH2 0x390F JUMP JUMPDEST JUMPDEST DUP2 MSTORE PUSH1 0x20 ADD PUSH0 DUP3 ADD PUSH1 0x1 SWAP1 SLOAD SWAP1 PUSH2 0x100 EXP SWAP1 DIV PUSH1 0xFF AND ISZERO ISZERO ISZERO ISZERO DUP2 MSTORE PUSH1 0x20 ADD PUSH1 0x1 DUP3 ADD DUP1 SLOAD PUSH2 0x2F35 SWAP1 PUSH2 0x41EF JUMP JUMPDEST DUP1 PUSH1 0x1F ADD PUSH1 0x20 DUP1 SWAP2 DIV MUL PUSH1 0x20 ADD PUSH1 0x40 MLOAD SWAP1 DUP2 ADD PUSH1 0x40 MSTORE DUP1 SWAP3 SWAP2 SWAP1 DUP2 DUP2 MSTORE PUSH1 0x20 ADD DUP3 DUP1 SLOAD PUSH2 0x2F61 SWAP1 PUSH2 0x41EF JUMP JUMPDEST DUP1 ISZERO PUSH2 0x2FAC JUMPI DUP1 PUSH1 0x1F LT PUSH2 0x2F83 JUMPI PUSH2 0x100 DUP1 DUP4 SLOAD DIV MUL DUP4 MSTORE SWAP2 PUSH1 0x20 ADD SWAP2 PUSH2 0x2FAC JUMP JUMPDEST DUP3 ADD SWAP2 SWAP1 PUSH0 MSTORE PUSH1 0x20 PUSH0 KECCAK256 SWAP1 JUMPDEST DUP2 SLOAD DUP2 MSTORE SWAP1 PUSH1 0x1 ADD SWAP1 PUSH1 0x20 ADD DUP1 DUP4 GT PUSH2 0x2F8F JUMPI DUP3 SWAP1 SUB PUSH1 0x1F AND DUP3 ADD SWAP2 JUMPDEST POP POP POP POP POP DUP2 MSTORE PUSH1 0x20 ADD PUSH1 0x2 DUP3 ADD SLOAD DUP2 MSTORE POP POP SWAP1 POP PUSH0 PUSH1 0x3 DUP2 GT ISZERO PUSH2 0x2FD4 JUMPI PUSH2 0x2FD3 PUSH2 0x390F JUMP JUMPDEST JUMPDEST DUP2 PUSH0 ADD MLOAD PUSH1 0x3 DUP2 GT ISZERO PUSH2 0x2FEA JUMPI PUSH2 0x2FE9 PUSH2 0x390F JUMP JUMPDEST JUMPDEST SUB PUSH2 0x302A JUMPI PUSH1 0x40 MLOAD PUSH32 0x8C379A000000000000000000000000000000000000000000000000000000000 DUP2 MSTORE PUSH1 0x4 ADD PUSH2 0x3021 SWAP1 PUSH2 0x55E1 JUMP JUMPDEST PUSH1 0x40 MLOAD DUP1 SWAP2 SUB SWAP1 REVERT JUMPDEST DUP1 SWAP2 POP POP SWAP3 SWAP2 POP POP JUMP JUMPDEST PUSH0 PUSH2 0x2710 PUSH1 0x3 DUP8 PUSH1 0x40 MLOAD PUSH2 0x3048 SWAP2 SWAP1 PUSH2 0x4086 JUMP JUMPDEST SWAP1 DUP2 MSTORE PUSH1 0x20 ADD PUSH1 0x40 MLOAD DUP1 SWAP2 SUB SWAP1 KECCAK256 PUSH1 0x5 ADD PUSH1 0x4 SWAP1 SLOAD SWAP1 PUSH2 0x100 EXP SWAP1 DIV PUSH2 0xFFFF AND PUSH2 0xFFFF AND DUP5 PUSH0 ADD MLOAD PUSH2 0x307A SWAP2 SWAP1 PUSH2 0x55FF JUMP JUMPDEST PUSH2 0x3084 SWAP2 SWAP1 PUSH2 0x5640 JUMP JUMPDEST SWAP1 POP PUSH1 0x3 DUP7 PUSH1 0x40 MLOAD PUSH2 0x3096 SWAP2 SWAP1 PUSH2 0x4086 JUMP JUMPDEST SWAP1 DUP2 MSTORE PUSH1 0x20 ADD PUSH1 0x40 MLOAD DUP1 SWAP2 SUB SWAP1 KECCAK256 PUSH1 0x6 ADD SLOAD DUP2 GT ISZERO PUSH2 0x30D4 JUMPI PUSH1 0x3 DUP7 PUSH1 0x40 MLOAD PUSH2 0x30BF SWAP2 SWAP1 PUSH2 0x4086 JUMP JUMPDEST SWAP1 DUP2 MSTORE PUSH1 0x20 ADD PUSH1 0x40 MLOAD DUP1 SWAP2 SUB SWAP1 KECCAK256 PUSH1 0x6 ADD SLOAD SWAP1 POP JUMPDEST DUP2 ISZERO PUSH2 0x3142 JUMPI PUSH0 DUP1 SLOAD SWAP1 PUSH2 0x100 EXP SWAP1 DIV PUSH20 0xFFFFFFFFFFFFFFFFFFFFFFFFFFFFFFFFFFFFFFFF AND PUSH20 0xFFFFFFFFFFFFFFFFFFFFFFFFFFFFFFFFFFFFFFFF AND PUSH2 0x8FC DUP3 SWAP1 DUP2 ISZERO MUL SWAP1 PUSH1 0x40 MLOAD PUSH0 PUSH1 0x40 MLOAD DUP1 DUP4 SUB DUP2 DUP6 DUP9 DUP9 CALL SWAP4 POP POP POP POP ISZERO DUP1 ISZERO PUSH2 0x313C JUMPI RETURNDATASIZE PUSH0 DUP1 RETURNDATACOPY RETURNDATASIZE PUSH0 REVERT JUMPDEST POP PUSH2 0x31C7 JUMP JUMPDEST PUSH1 0x3 DUP7 PUSH1 0x40 MLOAD PUSH2 0x3152 SWAP2 SWAP1 PUSH2 0x4086 JUMP JUMPDEST SWAP1 DUP2 MSTORE PUSH1 0x20 ADD PUSH1 0x40 MLOAD DUP1 SWAP2 SUB SWAP1 KECCAK256 PUSH1 0x2 ADD PUSH0 SWAP1 SLOAD SWAP1 PUSH2 0x100 EXP SWAP1 DIV PUSH20 0xFFFFFFFFFFFFFFFFFFFFFFFFFFFFFFFFFFFFFFFF AND PUSH20 0xFFFFFFFFFFFFFFFFFFFFFFFFFFFFFFFFFFFFFFFF AND PUSH2 0x8FC DUP3 SWAP1 DUP2 ISZERO MUL SWAP1 PUSH1 0x40 MLOAD PUSH0 PUSH1 0x40 MLOAD DUP1 DUP4 SUB DUP2 DUP6 DUP9 DUP9 CALL SWAP4 POP POP POP POP ISZERO DUP1 ISZERO PUSH2 0x31C5 JUMPI RETURNDATASIZE PUSH0 DUP1 RETURNDATACOPY RETURNDATASIZE PUSH0 REVERT JUMPDEST POP JUMPDEST DUP5 PUSH20 0xFFFFFFFFFFFFFFFFFFFFFFFFFFFFFFFFFFFFFFFF AND PUSH2 0x8FC DUP3 DUP6 PUSH0 ADD MLOAD PUSH2 0x31F0 SWAP2 SWAP1 PUSH2 0x46F6 JUMP JUMPDEST SWAP1 DUP2 ISZERO MUL SWAP1 PUSH1 0x40 MLOAD PUSH0 PUSH1 0x40 MLOAD DUP1 DUP4 SUB DUP2 DUP6 DUP9 DUP9 CALL SWAP4 POP POP POP POP ISZERO DUP1 ISZERO PUSH2 0x3218 JUMPI RETURNDATASIZE PUSH0 DUP1 RETURNDATACOPY RETURNDATASIZE PUSH0 REVERT JUMPDEST POP PUSH1 0x5 DUP1 DUP8 PUSH1 0x40 MLOAD PUSH2 0x322A SWAP2 SWAP1 PUSH2 0x4086 JUMP JUMPDEST SWAP1 DUP2 MSTORE PUSH1 0x20 ADD PUSH1 0x40 MLOAD DUP1 SWAP2 SUB SWAP1 KECCAK256 PUSH0 DUP8 PUSH20 0xFFFFFFFFFFFFFFFFFFFFFFFFFFFFFFFFFFFFFFFF AND PUSH20 0xFFFFFFFFFFFFFFFFFFFFFFFFFFFFFFFFFFFFFFFF AND DUP2 MSTORE PUSH1 0x20 ADD SWAP1 DUP2 MSTORE PUSH1 0x20 ADD PUSH0 KECCAK256 DUP6 PUSH1 0x40 MLOAD PUSH2 0x3281 SWAP2 SWAP1 PUSH2 0x4086 JUMP JUMPDEST SWAP1 DUP2 MSTORE PUSH1 0x20 ADD PUSH1 0x40 MLOAD DUP1 SWAP2 SUB SWAP1 KECCAK256 PUSH1 0x1 ADD PUSH0 PUSH2 0x100 EXP DUP2 SLOAD DUP2 PUSH1 0xFF MUL NOT AND SWAP1 DUP4 PUSH1 0x5 DUP2 GT ISZERO PUSH2 0x32B3 JUMPI PUSH2 0x32B2 PUSH2 0x390F JUMP JUMPDEST JUMPDEST MUL OR SWAP1 SSTORE POP DUP3 PUSH0 ADD MLOAD PUSH1 0x3 DUP8 PUSH1 0x40 MLOAD PUSH2 0x32CC SWAP2 SWAP1 PUSH2 0x4086 JUMP JUMPDEST SWAP1 DUP2 MSTORE PUSH1 0x20 ADD PUSH1 0x40 MLOAD DUP1 SWAP2 SUB SWAP1 KECCAK256 PUSH1 0x3 ADD PUSH0 DUP3 DUP3 SLOAD PUSH2 0x32EB SWAP2 SWAP1 PUSH2 0x46F6 JUMP JUMPDEST SWAP3 POP POP DUP2 SWAP1 SSTORE POP DUP3 PUSH0 ADD MLOAD PUSH1 0x3 DUP8 PUSH1 0x40 MLOAD PUSH2 0x3306 SWAP2 SWAP1 PUSH2 0x4086 JUMP JUMPDEST SWAP1 DUP2 MSTORE PUSH1 0x20 ADD PUSH1 0x40 MLOAD DUP1 SWAP2 SUB SWAP1 KECCAK256 PUSH1 0x4 ADD PUSH0 DUP3 DUP3 SLOAD PUSH2 0x3325 SWAP2 SWAP1 PUSH2 0x46F6 JUMP JUMPDEST SWAP3 POP POP DUP2 SWAP1 SSTORE POP PUSH32 0x40768EE67403A1B2C45E2EE8E9C7CB4283D12BD31F8126DE25122997535C1BB DUP5 DUP7 DUP6 PUSH0 ADD MLOAD PUSH1 0x40 MLOAD PUSH2 0x3362 SWAP4 SWAP3 SWAP2 SWAP1 PUSH2 0x56BA JUMP JUMPDEST PUSH1 0x40 MLOAD DUP1 SWAP2 SUB SWAP1 LOG1 POP POP POP POP POP POP JUMP JUMPDEST PUSH2 0x337A PUSH2 0x3683 JUMP JUMPDEST PUSH0 PUSH1 0x5 DUP6 PUSH1 0x40 MLOAD PUSH2 0x338B SWAP2 SWAP1 PUSH2 0x4086 JUMP JUMPDEST SWAP1 DUP2 MSTORE PUSH1 0x20 ADD PUSH1 0x40 MLOAD DUP1 SWAP2 SUB SWAP1 KECCAK256 PUSH0 DUP6 PUSH20 0xFFFFFFFFFFFFFFFFFFFFFFFFFFFFFFFFFFFFFFFF AND PUSH20 0xFFFFFFFFFFFFFFFFFFFFFFFFFFFFFFFFFFFFFFFF AND DUP2 MSTORE PUSH1 0x20 ADD SWAP1 DUP2 MSTORE PUSH1 0x20 ADD PUSH0 KECCAK256 DUP4 PUSH1 0x40 MLOAD PUSH2 0x33E2 SWAP2 SWAP1 PUSH2 0x4086 JUMP JUMPDEST SWAP1 DUP2 MSTORE PUSH1 0x20 ADD PUSH1 0x40 MLOAD DUP1 SWAP2 SUB SWAP1 KECCAK256 PUSH1 0x40 MLOAD DUP1 PUSH1 0x40 ADD PUSH1 0x40 MSTORE SWAP1 DUP2 PUSH0 DUP3 ADD SLOAD DUP2 MSTORE PUSH1 0x20 ADD PUSH1 0x1 DUP3 ADD PUSH0 SWAP1 SLOAD SWAP1 PUSH2 0x100 EXP SWAP1 DIV PUSH1 0xFF AND PUSH1 0x5 DUP2 GT ISZERO PUSH2 0x3428 JUMPI PUSH2 0x3427 PUSH2 0x390F JUMP JUMPDEST JUMPDEST PUSH1 0x5 DUP2 GT ISZERO PUSH2 0x343A JUMPI PUSH2 0x3439 PUSH2 0x390F JUMP JUMPDEST JUMPDEST DUP2 MSTORE POP POP SWAP1 POP PUSH0 PUSH1 0x5 DUP2 GT ISZERO PUSH2 0x3453 JUMPI PUSH2 0x3452 PUSH2 0x390F JUMP JUMPDEST JUMPDEST DUP2 PUSH1 0x20 ADD MLOAD PUSH1 0x5 DUP2 GT ISZERO PUSH2 0x346A JUMPI PUSH2 0x3469 PUSH2 0x390F JUMP JUMPDEST JUMPDEST SUB PUSH2 0x34AA JUMPI PUSH1 0x40 MLOAD PUSH32 0x8C379A000000000000000000000000000000000000000000000000000000000 DUP2 MSTORE PUSH1 0x4 ADD PUSH2 0x34A1 SWAP1 PUSH2 0x5753 JUMP JUMPDEST PUSH1 0x40 MLOAD DUP1 SWAP2 SUB SWAP1 REVERT JUMPDEST DUP1 SWAP2 POP POP SWAP4 SWAP3 POP POP POP JUMP JUMPDEST DUP1 PUSH20 0xFFFFFFFFFFFFFFFFFFFFFFFFFFFFFFFFFFFFFFFF AND PUSH1 0x3 DUP4 PUSH1 0x40 MLOAD PUSH2 0x34DC SWAP2 SWAP1 PUSH2 0x4086 JUMP JUMPDEST SWAP1 DUP2 MSTORE PUSH1 0x20 ADD PUSH1 0x40 MLOAD DUP1 SWAP2 SUB SWAP1 KECCAK256 PUSH1 0x2 ADD PUSH0 SWAP1 SLOAD SWAP1 PUSH2 0x100 EXP SWAP1 DIV PUSH20 0xFFFFFFFFFFFFFFFFFFFFFFFFFFFFFFFFFFFFFFFF AND PUSH20 0xFFFFFFFFFFFFFFFFFFFFFFFFFFFFFFFFFFFFFFFF AND EQ DUP1 PUSH2 0x3579 JUMPI POP PUSH0 DUP1 SLOAD SWAP1 PUSH2 0x100 EXP SWAP1 DIV PUSH20 0xFFFFFFFFFFFFFFFFFFFFFFFFFFFFFFFFFFFFFFFF AND PUSH20 0xFFFFFFFFFFFFFFFFFFFFFFFFFFFFFFFFFFFFFFFF AND DUP2 PUSH20 0xFFFFFFFFFFFFFFFFFFFFFFFFFFFFFFFFFFFFFFFF AND EQ JUMPDEST DUP1 PUSH2 0x35CA JUMPI POP PUSH1 0x1 PUSH0 DUP3 PUSH20 0xFFFFFFFFFFFFFFFFFFFFFFFFFFFFFFFFFFFFFFFF AND PUSH20 0xFFFFFFFFFFFFFFFFFFFFFFFFFFFFFFFFFFFFFFFF AND DUP2 MSTORE PUSH1 0x20 ADD SWAP1 DUP2 MSTORE PUSH1 0x20 ADD PUSH0 KECCAK256 PUSH0 SWAP1 SLOAD SWAP1 PUSH2 0x100 EXP SWAP1 DIV PUSH1 0xFF AND JUMPDEST PUSH2 0x3609 JUMPI PUSH1 0x40 MLOAD PUSH32 0x8C379A000000000000000000000000000000000000000000000000000000000 DUP2 MSTORE PUSH1 0x4 ADD PUSH2 0x3600 SWAP1 PUSH2 0x57BB JUMP JUMPDEST PUSH1 0x40 MLOAD DUP1 SWAP2 SUB SWAP1 REVERT JUMPDEST POP POP JUMP JUMPDEST POP DUP1 SLOAD PUSH2 0x3619 SWAP1 PUSH2 0x41EF JUMP JUMPDEST PUSH0 DUP3 SSTORE DUP1 PUSH1 0x1F LT PUSH2 0x362A JUMPI POP PUSH2 0x3647 JUMP JUMPDEST PUSH1 0x1F ADD PUSH1 0x20 SWAP1 DIV SWAP1 PUSH0 MSTORE PUSH1 0x20 PUSH0 KECCAK256 SWAP1 DUP2 ADD SWAP1 PUSH2 0x3646 SWAP2 SWAP1 PUSH2 0x36AD JUMP JUMPDEST JUMPDEST POP JUMP JUMPDEST PUSH1 0x40 MLOAD DUP1 PUSH1 0x80 ADD PUSH1 0x40 MSTORE DUP1 PUSH0 PUSH1 0x3 DUP2 GT ISZERO PUSH2 0x3668 JUMPI PUSH2 0x3667 PUSH2 0x390F JUMP JUMPDEST JUMPDEST DUP2 MSTORE PUSH1 0x20 ADD PUSH0 ISZERO ISZERO DUP2 MSTORE PUSH1 0x20 ADD PUSH1 0x60 DUP2 MSTORE PUSH1 0x20 ADD PUSH0 DUP2 MSTORE POP SWAP1 JUMP JUMPDEST PUSH1 0x40 MLOAD DUP1 PUSH1 0x40 ADD PUSH1 0x40 MSTORE DUP1 PUSH0 DUP2 MSTORE PUSH1 0x20 ADD PUSH0 PUSH1 0x5 DUP2 GT ISZERO PUSH2 0x36A7 JUMPI PUSH2 0x36A6 PUSH2 0x390F JUMP JUMPDEST JUMPDEST DUP2 MSTORE POP SWAP1 JUMP JUMPDEST JUMPDEST DUP1 DUP3 GT ISZERO PUSH2 0x36C4 JUMPI PUSH0 DUP2 PUSH0 SWAP1 SSTORE POP PUSH1 0x1 ADD PUSH2 0x36AE JUMP JUMPDEST POP SWAP1 JUMP JUMPDEST PUSH0 PUSH1 0x40 MLOAD SWAP1 POP SWAP1 JUMP JUMPDEST PUSH0 DUP1 REVERT JUMPDEST PUSH0 DUP1 REVERT JUMPDEST PUSH0 DUP1 REVERT JUMPDEST PUSH0 DUP1 REVERT JUMPDEST PUSH0 PUSH1 0x1F NOT PUSH1 0x1F DUP4 ADD AND SWAP1 POP SWAP2 SWAP1 POP JUMP JUMPDEST PUSH32 0x4E487B7100000000000000000000000000000000000000000000000000000000 PUSH0 MSTORE PUSH1 0x41 PUSH1 0x4 MSTORE PUSH1 0x24 PUSH0 REVERT JUMPDEST PUSH2 0x3727 DUP3 PUSH2 0x36E1 JUMP JUMPDEST DUP2 ADD DUP2 DUP2 LT PUSH8 0xFFFFFFFFFFFFFFFF DUP3 GT OR ISZERO PUSH2 0x3746 JUMPI PUSH2 0x3745 PUSH2 0x36F1 JUMP JUMPDEST JUMPDEST DUP1 PUSH1 0x40 MSTORE POP POP POP JUMP JUMPDEST PUSH0 PUSH2 0x3758 PUSH2 0x36C8 JUMP JUMPDEST SWAP1 POP PUSH2 0x3764 DUP3 DUP3 PUSH2 0x371E JUMP JUMPDEST SWAP2 SWAP1 POP JUMP JUMPDEST PUSH0 PUSH8 0xFFFFFFFFFFFFFFFF DUP3 GT ISZERO PUSH2 0x3783 JUMPI PUSH2 0x3782 PUSH2 0x36F1 JUMP JUMPDEST JUMPDEST PUSH2 0x378C DUP3 PUSH2 0x36E1 JUMP JUMPDEST SWAP1 POP PUSH1 0x20 DUP2 ADD SWAP1 POP SWAP2 SWAP1 POP JUMP JUMPDEST DUP3 DUP2 DUP4 CALLDATACOPY PUSH0 DUP4 DUP4 ADD MSTORE POP POP POP JUMP JUMPDEST PUSH0 PUSH2 0x37B9 PUSH2 0x37B4 DUP5 PUSH2 0x3769 JUMP JUMPDEST PUSH2 0x374F JUMP JUMPDEST SWAP1 POP DUP3 DUP2 MSTORE PUSH1 0x20 DUP2 ADD DUP5 DUP5 DUP5 ADD GT ISZERO PUSH2 0x37D5 JUMPI PUSH2 0x37D4 PUSH2 0x36DD JUMP JUMPDEST JUMPDEST PUSH2 0x37E0 DUP5 DUP3 DUP6 PUSH2 0x3799 JUMP JUMPDEST POP SWAP4 SWAP3 POP POP POP JUMP JUMPDEST PUSH0 DUP3 PUSH1 0x1F DUP4 ADD SLT PUSH2 0x37FC JUMPI PUSH2 0x37FB PUSH2 0x36D9 JUMP JUMPDEST JUMPDEST DUP2 CALLDATALOAD PUSH2 0x380C DUP5 DUP3 PUSH1 0x20 DUP7 ADD PUSH2 0x37A7 JUMP JUMPDEST SWAP2 POP POP SWAP3 SWAP2 POP POP JUMP JUMPDEST PUSH0 PUSH20 0xFFFFFFFFFFFFFFFFFFFFFFFFFFFFFFFFFFFFFFFF DUP3 AND SWAP1 POP SWAP2 SWAP1 POP JUMP JUMPDEST PUSH0 PUSH2 0x383E DUP3 PUSH2 0x3815 JUMP JUMPDEST SWAP1 POP SWAP2 SWAP1 POP JUMP JUMPDEST PUSH2 0x384E DUP2 PUSH2 0x3834 JUMP JUMPDEST DUP2 EQ PUSH2 0x3858 JUMPI PUSH0 DUP1 REVERT JUMPDEST POP JUMP JUMPDEST PUSH0 DUP2 CALLDATALOAD SWAP1 POP PUSH2 0x3869 DUP2 PUSH2 0x3845 JUMP JUMPDEST SWAP3 SWAP2 POP POP JUMP JUMPDEST PUSH0 DUP1 PUSH0 PUSH1 0x60 DUP5 DUP7 SUB SLT ISZERO PUSH2 0x3886 JUMPI PUSH2 0x3885 PUSH2 0x36D1 JUMP JUMPDEST JUMPDEST PUSH0 DUP5 ADD CALLDATALOAD PUSH8 0xFFFFFFFFFFFFFFFF DUP2 GT ISZERO PUSH2 0x38A3 JUMPI PUSH2 0x38A2 PUSH2 0x36D5 JUMP JUMPDEST JUMPDEST PUSH2 0x38AF DUP7 DUP3 DUP8 ADD PUSH2 0x37E8 JUMP JUMPDEST SWAP4 POP POP PUSH1 0x20 PUSH2 0x38C0 DUP7 DUP3 DUP8 ADD PUSH2 0x385B JUMP JUMPDEST SWAP3 POP POP PUSH1 0x40 DUP5 ADD CALLDATALOAD PUSH8 0xFFFFFFFFFFFFFFFF DUP2 GT ISZERO PUSH2 0x38E1 JUMPI PUSH2 0x38E0 PUSH2 0x36D5 JUMP JUMPDEST JUMPDEST PUSH2 0x38ED DUP7 DUP3 DUP8 ADD PUSH2 0x37E8 JUMP JUMPDEST SWAP2 POP POP SWAP3 POP SWAP3 POP SWAP3 JUMP JUMPDEST PUSH0 DUP2 SWAP1 POP SWAP2 SWAP1 POP JUMP JUMPDEST PUSH2 0x3909 DUP2 PUSH2 0x38F7 JUMP JUMPDEST DUP3 MSTORE POP POP JUMP JUMPDEST PUSH32 0x4E487B7100000000000000000000000000000000000000000000000000000000 PUSH0 MSTORE PUSH1 0x21 PUSH1 0x4 MSTORE PUSH1 0x24 PUSH0 REVERT JUMPDEST PUSH1 0x6 DUP2 LT PUSH2 0x394D JUMPI PUSH2 0x394C PUSH2 0x390F JUMP JUMPDEST JUMPDEST POP JUMP JUMPDEST PUSH0 DUP2 SWAP1 POP PUSH2 0x395D DUP3 PUSH2 0x393C JUMP JUMPDEST SWAP2 SWAP1 POP JUMP JUMPDEST PUSH0 PUSH2 0x396C DUP3 PUSH2 0x3950 JUMP JUMPDEST SWAP1 POP SWAP2 SWAP1 POP JUMP JUMPDEST PUSH2 0x397C DUP2 PUSH2 0x3962 JUMP JUMPDEST DUP3 MSTORE POP POP JUMP JUMPDEST PUSH0 PUSH1 0x40 DUP3 ADD SWAP1 POP PUSH2 0x3995 PUSH0 DUP4 ADD DUP6 PUSH2 0x3900 JUMP JUMPDEST PUSH2 0x39A2 PUSH1 0x20 DUP4 ADD DUP5 PUSH2 0x3973 JUMP JUMPDEST SWAP4 SWAP3 POP POP POP JUMP JUMPDEST PUSH0 DUP1 PUSH1 0x40 DUP4 DUP6 SUB SLT ISZERO PUSH2 0x39BF JUMPI PUSH2 0x39BE PUSH2 0x36D1 JUMP JUMPDEST JUMPDEST PUSH0 DUP4 ADD CALLDATALOAD PUSH8 0xFFFFFFFFFFFFFFFF DUP2 GT ISZERO PUSH2 0x39DC JUMPI PUSH2 0x39DB PUSH2 0x36D5 JUMP JUMPDEST JUMPDEST PUSH2 0x39E8 DUP6 DUP3 DUP7 ADD PUSH2 0x37E8 JUMP JUMPDEST SWAP3 POP POP PUSH1 0x20 PUSH2 0x39F9 DUP6 DUP3 DUP7 ADD PUSH2 0x385B JUMP JUMPDEST SWAP2 POP POP SWAP3 POP SWAP3 SWAP1 POP JUMP JUMPDEST PUSH0 DUP2 ISZERO ISZERO SWAP1 POP SWAP2 SWAP1 POP JUMP JUMPDEST PUSH2 0x3A17 DUP2 PUSH2 0x3A03 JUMP JUMPDEST DUP2 EQ PUSH2 0x3A21 JUMPI PUSH0 DUP1 REVERT JUMPDEST POP JUMP JUMPDEST PUSH0 DUP2 CALLDATALOAD SWAP1 POP PUSH2 0x3A32 DUP2 PUSH2 0x3A0E JUMP JUMPDEST SWAP3 SWAP2 POP POP JUMP JUMPDEST PUSH0 DUP1 PUSH1 0x40 DUP4 DUP6 SUB SLT ISZERO PUSH2 0x3A4E JUMPI PUSH2 0x3A4D PUSH2 0x36D1 JUMP JUMPDEST JUMPDEST PUSH0 DUP4 ADD CALLDATALOAD PUSH8 0xFFFFFFFFFFFFFFFF DUP2 GT ISZERO PUSH2 0x3A6B JUMPI PUSH2 0x3A6A PUSH2 0x36D5 JUMP JUMPDEST JUMPDEST PUSH2 0x3A77 DUP6 DUP3 DUP7 ADD PUSH2 0x37E8 JUMP JUMPDEST SWAP3 POP POP PUSH1 0x20 PUSH2 0x3A88 DUP6 DUP3 DUP7 ADD PUSH2 0x3A24 JUMP JUMPDEST SWAP2 POP POP SWAP3 POP SWAP3 SWAP1 POP JUMP JUMPDEST PUSH0 PUSH1 0x20 DUP3 DUP5 SUB SLT ISZERO PUSH2 0x3AA7 JUMPI PUSH2 0x3AA6 PUSH2 0x36D1 JUMP JUMPDEST JUMPDEST PUSH0 DUP3 ADD CALLDATALOAD PUSH8 0xFFFFFFFFFFFFFFFF DUP2 GT ISZERO PUSH2 0x3AC4 JUMPI PUSH2 0x3AC3 PUSH2 0x36D5 JUMP JUMPDEST JUMPDEST PUSH2 0x3AD0 DUP5 DUP3 DUP6 ADD PUSH2 0x37E8 JUMP JUMPDEST SWAP2 POP POP SWAP3 SWAP2 POP POP JUMP JUMPDEST PUSH1 0x4 DUP2 LT PUSH2 0x3AEA JUMPI PUSH2 0x3AE9 PUSH2 0x390F JUMP JUMPDEST JUMPDEST POP JUMP JUMPDEST PUSH0 DUP2 SWAP1 POP PUSH2 0x3AFA DUP3 PUSH2 0x3AD9 JUMP JUMPDEST SWAP2 SWAP1 POP JUMP JUMPDEST PUSH0 PUSH2 0x3B09 DUP3 PUSH2 0x3AED JUMP JUMPDEST SWAP1 POP SWAP2 SWAP1 POP JUMP JUMPDEST PUSH2 0x3B19 DUP2 PUSH2 0x3AFF JUMP JUMPDEST DUP3 MSTORE POP POP JUMP JUMPDEST PUSH0 DUP2 MLOAD SWAP1 POP SWAP2 SWAP1 POP JUMP JUMPDEST PUSH0 DUP3 DUP3 MSTORE PUSH1 0x20 DUP3 ADD SWAP1 POP SWAP3 SWAP2 POP POP JUMP JUMPDEST PUSH0 JUMPDEST DUP4 DUP2 LT ISZERO PUSH2 0x3B56 JUMPI DUP1 DUP3 ADD MLOAD DUP2 DUP5 ADD MSTORE PUSH1 0x20 DUP2 ADD SWAP1 POP PUSH2 0x3B3B JUMP JUMPDEST PUSH0 DUP5 DUP5 ADD MSTORE POP POP POP POP JUMP JUMPDEST PUSH0 PUSH2 0x3B6B DUP3 PUSH2 0x3B1F JUMP JUMPDEST PUSH2 0x3B75 DUP2 DUP6 PUSH2 0x3B29 JUMP JUMPDEST SWAP4 POP PUSH2 0x3B85 DUP2 DUP6 PUSH1 0x20 DUP7 ADD PUSH2 0x3B39 JUMP JUMPDEST PUSH2 0x3B8E DUP2 PUSH2 0x36E1 JUMP JUMPDEST DUP5 ADD SWAP2 POP POP SWAP3 SWAP2 POP POP JUMP JUMPDEST PUSH2 0x3BA2 DUP2 PUSH2 0x3834 JUMP JUMPDEST DUP3 MSTORE POP POP JUMP JUMPDEST PUSH0 PUSH2 0xFFFF DUP3 AND SWAP1 POP SWAP2 SWAP1 POP JUMP JUMPDEST PUSH2 0x3BBE DUP2 PUSH2 0x3BA8 JUMP JUMPDEST DUP3 MSTORE POP POP JUMP JUMPDEST PUSH0 PUSH2 0x160 DUP3 ADD SWAP1 POP PUSH2 0x3BD8 PUSH0 DUP4 ADD DUP15 PUSH2 0x3B10 JUMP JUMPDEST DUP2 DUP2 SUB PUSH1 0x20 DUP4 ADD MSTORE PUSH2 0x3BEA DUP2 DUP14 PUSH2 0x3B61 JUMP JUMPDEST SWAP1 POP PUSH2 0x3BF9 PUSH1 0x40 DUP4 ADD DUP13 PUSH2 0x3B99 JUMP JUMPDEST PUSH2 0x3C06 PUSH1 0x60 DUP4 ADD DUP12 PUSH2 0x3900 JUMP JUMPDEST PUSH2 0x3C13 PUSH1 0x80 DUP4 ADD DUP11 PUSH2 0x3900 JUMP JUMPDEST PUSH2 0x3C20 PUSH1 0xA0 DUP4 ADD DUP10 PUSH2 0x3BB5 JUMP JUMPDEST PUSH2 0x3C2D PUSH1 0xC0 DUP4 ADD DUP9 PUSH2 0x3BB5 JUMP JUMPDEST PUSH2 0x3C3A PUSH1 0xE0 DUP4 ADD DUP8 PUSH2 0x3BB5 JUMP JUMPDEST PUSH2 0x3C48 PUSH2 0x100 DUP4 ADD DUP7 PUSH2 0x3900 JUMP JUMPDEST PUSH2 0x3C56 PUSH2 0x120 DUP4 ADD DUP6 PUSH2 0x3900 JUMP JUMPDEST PUSH2 0x3C64 PUSH2 0x140 DUP4 ADD DUP5 PUSH2 0x3900 JUMP JUMPDEST SWAP13 SWAP12 POP POP POP POP POP POP POP POP POP POP POP POP JUMP JUMPDEST PUSH0 PUSH1 0x20 DUP3 DUP5 SUB SLT ISZERO PUSH2 0x3C89 JUMPI PUSH2 0x3C88 PUSH2 0x36D1 JUMP JUMPDEST JUMPDEST PUSH0 PUSH2 0x3C96 DUP5 DUP3 DUP6 ADD PUSH2 0x385B JUMP JUMPDEST SWAP2 POP POP SWAP3 SWAP2 POP POP JUMP JUMPDEST PUSH0 DUP1 PUSH1 0x40 DUP4 DUP6 SUB SLT ISZERO PUSH2 0x3CB5 JUMPI PUSH2 0x3CB4 PUSH2 0x36D1 JUMP JUMPDEST JUMPDEST PUSH0 DUP4 ADD CALLDATALOAD PUSH8 0xFFFFFFFFFFFFFFFF DUP2 GT ISZERO PUSH2 0x3CD2 JUMPI PUSH2 0x3CD1 PUSH2 0x36D5 JUMP JUMPDEST JUMPDEST PUSH2 0x3CDE DUP6 DUP3 DUP7 ADD PUSH2 0x37E8 JUMP JUMPDEST SWAP3 POP POP PUSH1 0x20 DUP4 ADD CALLDATALOAD PUSH8 0xFFFFFFFFFFFFFFFF DUP2 GT ISZERO PUSH2 0x3CFF JUMPI PUSH2 0x3CFE PUSH2 0x36D5 JUMP JUMPDEST JUMPDEST PUSH2 0x3D0B DUP6 DUP3 DUP7 ADD PUSH2 0x37E8 JUMP JUMPDEST SWAP2 POP POP SWAP3 POP SWAP3 SWAP1 POP JUMP JUMPDEST PUSH2 0x3D1E DUP2 PUSH2 0x38F7 JUMP JUMPDEST DUP2 EQ PUSH2 0x3D28 JUMPI PUSH0 DUP1 REVERT JUMPDEST POP JUMP JUMPDEST PUSH0 DUP2 CALLDATALOAD SWAP1 POP PUSH2 0x3D39 DUP2 PUSH2 0x3D15 JUMP JUMPDEST SWAP3 SWAP2 POP POP JUMP JUMPDEST PUSH0 DUP1 PUSH0 DUP1 PUSH1 0x80 DUP6 DUP8 SUB SLT ISZERO PUSH2 0x3D57 JUMPI PUSH2 0x3D56 PUSH2 0x36D1 JUMP JUMPDEST JUMPDEST PUSH0 DUP6 ADD CALLDATALOAD PUSH8 0xFFFFFFFFFFFFFFFF DUP2 GT ISZERO PUSH2 0x3D74 JUMPI PUSH2 0x3D73 PUSH2 0x36D5 JUMP JUMPDEST JUMPDEST PUSH2 0x3D80 DUP8 DUP3 DUP9 ADD PUSH2 0x37E8 JUMP JUMPDEST SWAP5 POP POP PUSH1 0x20 PUSH2 0x3D91 DUP8 DUP3 DUP9 ADD PUSH2 0x385B JUMP JUMPDEST SWAP4 POP POP PUSH1 0x40 DUP6 ADD CALLDATALOAD PUSH8 0xFFFFFFFFFFFFFFFF DUP2 GT ISZERO PUSH2 0x3DB2 JUMPI PUSH2 0x3DB1 PUSH2 0x36D5 JUMP JUMPDEST JUMPDEST PUSH2 0x3DBE DUP8 DUP3 DUP9 ADD PUSH2 0x37E8 JUMP JUMPDEST SWAP3 POP POP PUSH1 0x60 PUSH2 0x3DCF DUP8 DUP3 DUP9 ADD PUSH2 0x3D2B JUMP JUMPDEST SWAP2 POP POP SWAP3 SWAP6 SWAP2 SWAP5 POP SWAP3 POP JUMP JUMPDEST PUSH2 0x3DE4 DUP2 PUSH2 0x3BA8 JUMP JUMPDEST DUP2 EQ PUSH2 0x3DEE JUMPI PUSH0 DUP1 REVERT JUMPDEST POP JUMP JUMPDEST PUSH0 DUP2 CALLDATALOAD SWAP1 POP PUSH2 0x3DFF DUP2 PUSH2 0x3DDB JUMP JUMPDEST SWAP3 SWAP2 POP POP JUMP JUMPDEST PUSH0 DUP1 PUSH0 DUP1 PUSH0 DUP1 PUSH0 PUSH1 0xE0 DUP9 DUP11 SUB SLT ISZERO PUSH2 0x3E20 JUMPI PUSH2 0x3E1F PUSH2 0x36D1 JUMP JUMPDEST JUMPDEST PUSH0 DUP9 ADD CALLDATALOAD PUSH8 0xFFFFFFFFFFFFFFFF DUP2 GT ISZERO PUSH2 0x3E3D JUMPI PUSH2 0x3E3C PUSH2 0x36D5 JUMP JUMPDEST JUMPDEST PUSH2 0x3E49 DUP11 DUP3 DUP12 ADD PUSH2 0x37E8 JUMP JUMPDEST SWAP8 POP POP PUSH1 0x20 DUP9 ADD CALLDATALOAD PUSH8 0xFFFFFFFFFFFFFFFF DUP2 GT ISZERO PUSH2 0x3E6A JUMPI PUSH2 0x3E69 PUSH2 0x36D5 JUMP JUMPDEST JUMPDEST PUSH2 0x3E76 DUP11 DUP3 DUP12 ADD PUSH2 0x37E8 JUMP JUMPDEST SWAP7 POP POP PUSH1 0x40 PUSH2 0x3E87 DUP11 DUP3 DUP12 ADD PUSH2 0x385B JUMP JUMPDEST SWAP6 POP POP PUSH1 0x60 PUSH2 0x3E98 DUP11 DUP3 DUP12 ADD PUSH2 0x3DF1 JUMP JUMPDEST SWAP5 POP POP PUSH1 0x80 PUSH2 0x3EA9 DUP11 DUP3 DUP12 ADD PUSH2 0x3D2B JUMP JUMPDEST SWAP4 POP POP PUSH1 0xA0 PUSH2 0x3EBA DUP11 DUP3 DUP12 ADD PUSH2 0x3D2B JUMP JUMPDEST SWAP3 POP POP PUSH1 0xC0 PUSH2 0x3ECB DUP11 DUP3 DUP12 ADD PUSH2 0x3D2B JUMP JUMPDEST SWAP2 POP POP SWAP3 SWAP6 SWAP9 SWAP2 SWAP5 SWAP8 POP SWAP3 SWAP6 POP JUMP JUMPDEST PUSH0 PUSH1 0x20 DUP3 ADD SWAP1 POP PUSH2 0x3EED PUSH0 DUP4 ADD DUP5 PUSH2 0x3B99 JUMP JUMPDEST SWAP3 SWAP2 POP POP JUMP JUMPDEST PUSH0 PUSH1 0x20 DUP3 ADD SWAP1 POP PUSH2 0x3F06 PUSH0 DUP4 ADD DUP5 PUSH2 0x3BB5 JUMP JUMPDEST SWAP3 SWAP2 POP POP JUMP JUMPDEST PUSH0 DUP1 PUSH0 PUSH1 0x60 DUP5 DUP7 SUB SLT ISZERO PUSH2 0x3F23 JUMPI PUSH2 0x3F22 PUSH2 0x36D1 JUMP JUMPDEST JUMPDEST PUSH0 DUP5 ADD CALLDATALOAD PUSH8 0xFFFFFFFFFFFFFFFF DUP2 GT ISZERO PUSH2 0x3F40 JUMPI PUSH2 0x3F3F PUSH2 0x36D5 JUMP JUMPDEST JUMPDEST PUSH2 0x3F4C DUP7 DUP3 DUP8 ADD PUSH2 0x37E8 JUMP JUMPDEST SWAP4 POP POP PUSH1 0x20 DUP5 ADD CALLDATALOAD PUSH8 0xFFFFFFFFFFFFFFFF DUP2 GT ISZERO PUSH2 0x3F6D JUMPI PUSH2 0x3F6C PUSH2 0x36D5 JUMP JUMPDEST JUMPDEST PUSH2 0x3F79 DUP7 DUP3 DUP8 ADD PUSH2 0x37E8 JUMP JUMPDEST SWAP3 POP POP PUSH1 0x40 PUSH2 0x3F8A DUP7 DUP3 DUP8 ADD PUSH2 0x3D2B JUMP JUMPDEST SWAP2 POP POP SWAP3 POP SWAP3 POP SWAP3 JUMP JUMPDEST PUSH1 0x4 DUP2 LT PUSH2 0x3FA5 JUMPI PUSH2 0x3FA4 PUSH2 0x390F JUMP JUMPDEST JUMPDEST POP JUMP JUMPDEST PUSH0 DUP2 SWAP1 POP PUSH2 0x3FB5 DUP3 PUSH2 0x3F94 JUMP JUMPDEST SWAP2 SWAP1 POP JUMP JUMPDEST PUSH0 PUSH2 0x3FC4 DUP3 PUSH2 0x3FA8 JUMP JUMPDEST SWAP1 POP SWAP2 SWAP1 POP JUMP JUMPDEST PUSH2 0x3FD4 DUP2 PUSH2 0x3FBA JUMP JUMPDEST DUP3 MSTORE POP POP JUMP JUMPDEST PUSH2 0x3FE3 DUP2 PUSH2 0x3A03 JUMP JUMPDEST DUP3 MSTORE POP POP JUMP JUMPDEST PUSH0 PUSH1 0x80 DUP3 ADD SWAP1 POP PUSH2 0x3FFC PUSH0 DUP4 ADD DUP8 PUSH2 0x3FCB JUMP JUMPDEST PUSH2 0x4009 PUSH1 0x20 DUP4 ADD DUP7 PUSH2 0x3FDA JUMP JUMPDEST DUP2 DUP2 SUB PUSH1 0x40 DUP4 ADD MSTORE PUSH2 0x401B DUP2 DUP6 PUSH2 0x3B61 JUMP JUMPDEST SWAP1 POP PUSH2 0x402A PUSH1 0x60 DUP4 ADD DUP5 PUSH2 0x3900 JUMP JUMPDEST SWAP6 SWAP5 POP POP POP POP POP JUMP JUMPDEST PUSH0 PUSH1 0x20 DUP3 ADD SWAP1 POP PUSH2 0x4046 PUSH0 DUP4 ADD DUP5 PUSH2 0x3FDA JUMP JUMPDEST SWAP3 SWAP2 POP POP JUMP JUMPDEST PUSH0 DUP2 SWAP1 POP SWAP3 SWAP2 POP POP JUMP JUMPDEST PUSH0 PUSH2 0x4060 DUP3 PUSH2 0x3B1F JUMP JUMPDEST PUSH2 0x406A DUP2 DUP6 PUSH2 0x404C JUMP JUMPDEST SWAP4 POP PUSH2 0x407A DUP2 DUP6 PUSH1 0x20 DUP7 ADD PUSH2 0x3B39 JUMP JUMPDEST DUP1 DUP5 ADD SWAP2 POP POP SWAP3 SWAP2 POP POP JUMP JUMPDEST PUSH0 PUSH2 0x4091 DUP3 DUP5 PUSH2 0x4056 JUMP JUMPDEST SWAP2 POP DUP2 SWAP1 POP SWAP3 SWAP2 POP POP JUMP JUMPDEST PUSH32 0x5661756C7420696E636F72726563742073746174757300000000000000000000 PUSH0 DUP3 ADD MSTORE POP JUMP JUMPDEST PUSH0 PUSH2 0x40D0 PUSH1 0x16 DUP4 PUSH2 0x3B29 JUMP JUMPDEST SWAP2 POP PUSH2 0x40DB DUP3 PUSH2 0x409C JUMP JUMPDEST PUSH1 0x20 DUP3 ADD SWAP1 POP SWAP2 SWAP1 POP JUMP JUMPDEST PUSH0 PUSH1 0x20 DUP3 ADD SWAP1 POP DUP2 DUP2 SUB PUSH0 DUP4 ADD MSTORE PUSH2 0x40FD DUP2 PUSH2 0x40C4 JUMP JUMPDEST SWAP1 POP SWAP2 SWAP1 POP JUMP JUMPDEST PUSH32 0x4163636F756E7420616C726561647920726567697374657265642E0000000000 PUSH0 DUP3 ADD MSTORE POP JUMP JUMPDEST PUSH0 PUSH2 0x4138 PUSH1 0x1B DUP4 PUSH2 0x3B29 JUMP JUMPDEST SWAP2 POP PUSH2 0x4143 DUP3 PUSH2 0x4104 JUMP JUMPDEST PUSH1 0x20 DUP3 ADD SWAP1 POP SWAP2 SWAP1 POP JUMP JUMPDEST PUSH0 PUSH1 0x20 DUP3 ADD SWAP1 POP DUP2 DUP2 SUB PUSH0 DUP4 ADD MSTORE PUSH2 0x4165 DUP2 PUSH2 0x412C JUMP JUMPDEST SWAP1 POP SWAP2 SWAP1 POP JUMP JUMPDEST PUSH32 0x4E487B7100000000000000000000000000000000000000000000000000000000 PUSH0 MSTORE PUSH1 0x11 PUSH1 0x4 MSTORE PUSH1 0x24 PUSH0 REVERT JUMPDEST PUSH0 PUSH2 0x41A3 DUP3 PUSH2 0x3BA8 JUMP JUMPDEST SWAP2 POP PUSH2 0xFFFF DUP3 SUB PUSH2 0x41B7 JUMPI PUSH2 0x41B6 PUSH2 0x416C JUMP JUMPDEST JUMPDEST PUSH1 0x1 DUP3 ADD SWAP1 POP SWAP2 SWAP1 POP JUMP JUMPDEST PUSH32 0x4E487B7100000000000000000000000000000000000000000000000000000000 PUSH0 MSTORE PUSH1 0x22 PUSH1 0x4 MSTORE PUSH1 0x24 PUSH0 REVERT JUMPDEST PUSH0 PUSH1 0x2 DUP3 DIV SWAP1 POP PUSH1 0x1 DUP3 AND DUP1 PUSH2 0x4206 JUMPI PUSH1 0x7F DUP3 AND SWAP2 POP JUMPDEST PUSH1 0x20 DUP3 LT DUP2 SUB PUSH2 0x4219 JUMPI PUSH2 0x4218 PUSH2 0x41C2 JUMP JUMPDEST JUMPDEST POP SWAP2 SWAP1 POP JUMP JUMPDEST PUSH0 DUP2 SWAP1 POP DUP2 PUSH0 MSTORE PUSH1 0x20 PUSH0 KECCAK256 SWAP1 POP SWAP2 SWAP1 POP JUMP JUMPDEST PUSH0 PUSH1 0x20 PUSH1 0x1F DUP4 ADD DIV SWAP1 POP SWAP2 SWAP1 POP JUMP JUMPDEST PUSH0 DUP3 DUP3 SHL SWAP1 POP SWAP3 SWAP2 POP POP JUMP JUMPDEST PUSH0 PUSH1 0x8 DUP4 MUL PUSH2 0x427B PUSH32 0xFFFFFFFFFFFFFFFFFFFFFFFFFFFFFFFFFFFFFFFFFFFFFFFFFFFFFFFFFFFFFFFF DUP3 PUSH2 0x4240 JUMP JUMPDEST PUSH2 0x4285 DUP7 DUP4 PUSH2 0x4240 JUMP JUMPDEST SWAP6 POP DUP1 NOT DUP5 AND SWAP4 POP DUP1 DUP7 AND DUP5 OR SWAP3 POP POP POP SWAP4 SWAP3 POP POP POP JUMP JUMPDEST PUSH0 DUP2 SWAP1 POP SWAP2 SWAP1 POP JUMP JUMPDEST PUSH0 PUSH2 0x42C0 PUSH2 0x42BB PUSH2 0x42B6 DUP5 PUSH2 0x38F7 JUMP JUMPDEST PUSH2 0x429D JUMP JUMPDEST PUSH2 0x38F7 JUMP JUMPDEST SWAP1 POP SWAP2 SWAP1 POP JUMP JUMPDEST PUSH0 DUP2 SWAP1 POP SWAP2 SWAP1 POP JUMP JUMPDEST PUSH2 0x42D9 DUP4 PUSH2 0x42A6 JUMP JUMPDEST PUSH2 0x42ED PUSH2 0x42E5 DUP3 PUSH2 0x42C7 JUMP JUMPDEST DUP5 DUP5 SLOAD PUSH2 0x424C JUMP JUMPDEST DUP3 SSTORE POP POP POP POP JUMP JUMPDEST PUSH0 SWAP1 JUMP JUMPDEST PUSH2 0x4301 PUSH2 0x42F5 JUMP JUMPDEST PUSH2 0x430C DUP2 DUP5 DUP5 PUSH2 0x42D0 JUMP JUMPDEST POP POP POP JUMP JUMPDEST JUMPDEST DUP2 DUP2 LT ISZERO PUSH2 0x432F JUMPI PUSH2 0x4324 PUSH0 DUP3 PUSH2 0x42F9 JUMP JUMPDEST PUSH1 0x1 DUP2 ADD SWAP1 POP PUSH2 0x4312 JUMP JUMPDEST POP POP JUMP JUMPDEST PUSH1 0x1F DUP3 GT ISZERO PUSH2 0x4374 JUMPI PUSH2 0x4345 DUP2 PUSH2 0x421F JUMP JUMPDEST PUSH2 0x434E DUP5 PUSH2 0x4231 JUMP JUMPDEST DUP2 ADD PUSH1 0x20 DUP6 LT ISZERO PUSH2 0x435D JUMPI DUP2 SWAP1 POP JUMPDEST PUSH2 0x4371 PUSH2 0x4369 DUP6 PUSH2 0x4231 JUMP JUMPDEST DUP4 ADD DUP3 PUSH2 0x4311 JUMP JUMPDEST POP POP JUMPDEST POP POP POP JUMP JUMPDEST PUSH0 DUP3 DUP3 SHR SWAP1 POP SWAP3 SWAP2 POP POP JUMP JUMPDEST PUSH0 PUSH2 0x4394 PUSH0 NOT DUP5 PUSH1 0x8 MUL PUSH2 0x4379 JUMP JUMPDEST NOT DUP1 DUP4 AND SWAP2 POP POP SWAP3 SWAP2 POP POP JUMP JUMPDEST PUSH0 PUSH2 0x43AC DUP4 DUP4 PUSH2 0x4385 JUMP JUMPDEST SWAP2 POP DUP3 PUSH1 0x2 MUL DUP3 OR SWAP1 POP SWAP3 SWAP2 POP POP JUMP JUMPDEST PUSH2 0x43C5 DUP3 PUSH2 0x3B1F JUMP JUMPDEST PUSH8 0xFFFFFFFFFFFFFFFF DUP2 GT ISZERO PUSH2 0x43DE JUMPI PUSH2 0x43DD PUSH2 0x36F1 JUMP JUMPDEST JUMPDEST PUSH2 0x43E8 DUP3 SLOAD PUSH2 0x41EF JUMP JUMPDEST PUSH2 0x43F3 DUP3 DUP3 DUP6 PUSH2 0x4333 JUMP JUMPDEST PUSH0 PUSH1 0x20 SWAP1 POP PUSH1 0x1F DUP4 GT PUSH1 0x1 DUP2 EQ PUSH2 0x4424 JUMPI PUSH0 DUP5 ISZERO PUSH2 0x4412 JUMPI DUP3 DUP8 ADD MLOAD SWAP1 POP JUMPDEST PUSH2 0x441C DUP6 DUP3 PUSH2 0x43A1 JUMP JUMPDEST DUP7 SSTORE POP PUSH2 0x4483 JUMP JUMPDEST PUSH1 0x1F NOT DUP5 AND PUSH2 0x4432 DUP7 PUSH2 0x421F JUMP JUMPDEST PUSH0 JUMPDEST DUP3 DUP2 LT ISZERO PUSH2 0x4459 JUMPI DUP5 DUP10 ADD MLOAD DUP3 SSTORE PUSH1 0x1 DUP3 ADD SWAP2 POP PUSH1 0x20 DUP6 ADD SWAP5 POP PUSH1 0x20 DUP2 ADD SWAP1 POP PUSH2 0x4434 JUMP JUMPDEST DUP7 DUP4 LT ISZERO PUSH2 0x4476 JUMPI DUP5 DUP10 ADD MLOAD PUSH2 0x4472 PUSH1 0x1F DUP10 AND DUP3 PUSH2 0x4385 JUMP JUMPDEST DUP4 SSTORE POP JUMPDEST PUSH1 0x1 PUSH1 0x2 DUP9 MUL ADD DUP9 SSTORE POP POP POP JUMPDEST POP POP POP POP POP POP JUMP JUMPDEST PUSH32 0x6163636F756E745F6F70656E0000000000000000000000000000000000000000 PUSH0 DUP3 ADD MSTORE POP JUMP JUMPDEST PUSH0 PUSH2 0x44BF PUSH1 0xC DUP4 PUSH2 0x3B29 JUMP JUMPDEST SWAP2 POP PUSH2 0x44CA DUP3 PUSH2 0x448B JUMP JUMPDEST PUSH1 0x20 DUP3 ADD SWAP1 POP SWAP2 SWAP1 POP JUMP JUMPDEST PUSH0 PUSH2 0x44EF PUSH2 0x44EA PUSH2 0x44E5 DUP5 PUSH2 0x3BA8 JUMP JUMPDEST PUSH2 0x429D JUMP JUMPDEST PUSH2 0x38F7 JUMP JUMPDEST SWAP1 POP SWAP2 SWAP1 POP JUMP JUMPDEST PUSH2 0x44FF DUP2 PUSH2 0x44D5 JUMP JUMPDEST DUP3 MSTORE POP POP JUMP JUMPDEST PUSH0 PUSH1 0x80 DUP3 ADD SWAP1 POP DUP2 DUP2 SUB PUSH0 DUP4 ADD MSTORE PUSH2 0x451C DUP2 PUSH2 0x44B3 JUMP JUMPDEST SWAP1 POP DUP2 DUP2 SUB PUSH1 0x20 DUP4 ADD MSTORE PUSH2 0x4530 DUP2 DUP7 PUSH2 0x3B61 JUMP JUMPDEST SWAP1 POP PUSH2 0x453F PUSH1 0x40 DUP4 ADD DUP6 PUSH2 0x3B99 JUMP JUMPDEST PUSH2 0x454C PUSH1 0x60 DUP4 ADD DUP5 PUSH2 0x44F6 JUMP JUMPDEST SWAP5 SWAP4 POP POP POP POP JUMP JUMPDEST PUSH32 0x4163636F756E74206E6F742062616E6E65642E00000000000000000000000000 PUSH0 DUP3 ADD MSTORE POP JUMP JUMPDEST PUSH0 PUSH2 0x4588 PUSH1 0x13 DUP4 PUSH2 0x3B29 JUMP JUMPDEST SWAP2 POP PUSH2 0x4593 DUP3 PUSH2 0x4554 JUMP JUMPDEST PUSH1 0x20 DUP3 ADD SWAP1 POP SWAP2 SWAP1 POP JUMP JUMPDEST PUSH0 PUSH1 0x20 DUP3 ADD SWAP1 POP DUP2 DUP2 SUB PUSH0 DUP4 ADD MSTORE PUSH2 0x45B5 DUP2 PUSH2 0x457C JUMP JUMPDEST SWAP1 POP SWAP2 SWAP1 POP JUMP JUMPDEST PUSH32 0x6163636F756E745F756E6C6F636B000000000000000000000000000000000000 PUSH0 DUP3 ADD MSTORE POP JUMP JUMPDEST PUSH0 PUSH2 0x45F0 PUSH1 0xE DUP4 PUSH2 0x3B29 JUMP JUMPDEST SWAP2 POP PUSH2 0x45FB DUP3 PUSH2 0x45BC JUMP JUMPDEST PUSH1 0x20 DUP3 ADD SWAP1 POP SWAP2 SWAP1 POP JUMP JUMPDEST PUSH0 DUP2 SWAP1 POP SWAP2 SWAP1 POP JUMP JUMPDEST PUSH0 PUSH2 0x4629 PUSH2 0x4624 PUSH2 0x461F DUP5 PUSH2 0x4606 JUMP JUMPDEST PUSH2 0x429D JUMP JUMPDEST PUSH2 0x38F7 JUMP JUMPDEST SWAP1 POP SWAP2 SWAP1 POP JUMP JUMPDEST PUSH2 0x4639 DUP2 PUSH2 0x460F JUMP JUMPDEST DUP3 MSTORE POP POP JUMP JUMPDEST PUSH0 PUSH1 0x80 DUP3 ADD SWAP1 POP DUP2 DUP2 SUB PUSH0 DUP4 ADD MSTORE PUSH2 0x4656 DUP2 PUSH2 0x45E4 JUMP JUMPDEST SWAP1 POP DUP2 DUP2 SUB PUSH1 0x20 DUP4 ADD MSTORE PUSH2 0x466A DUP2 DUP7 PUSH2 0x3B61 JUMP JUMPDEST SWAP1 POP PUSH2 0x4679 PUSH1 0x40 DUP4 ADD DUP6 PUSH2 0x3B99 JUMP JUMPDEST PUSH2 0x4686 PUSH1 0x60 DUP4 ADD DUP5 PUSH2 0x4630 JUMP JUMPDEST SWAP5 SWAP4 POP POP POP POP JUMP JUMPDEST PUSH32 0x5769746864726177206E6F7420636F6E6669726D656400000000000000000000 PUSH0 DUP3 ADD MSTORE POP JUMP JUMPDEST PUSH0 PUSH2 0x46C2 PUSH1 0x16 DUP4 PUSH2 0x3B29 JUMP JUMPDEST SWAP2 POP PUSH2 0x46CD DUP3 PUSH2 0x468E JUMP JUMPDEST PUSH1 0x20 DUP3 ADD SWAP1 POP SWAP2 SWAP1 POP JUMP JUMPDEST PUSH0 PUSH1 0x20 DUP3 ADD SWAP1 POP DUP2 DUP2 SUB PUSH0 DUP4 ADD MSTORE PUSH2 0x46EF DUP2 PUSH2 0x46B6 JUMP JUMPDEST SWAP1 POP SWAP2 SWAP1 POP JUMP JUMPDEST PUSH0 PUSH2 0x4700 DUP3 PUSH2 0x38F7 JUMP JUMPDEST SWAP2 POP PUSH2 0x470B DUP4 PUSH2 0x38F7 JUMP JUMPDEST SWAP3 POP DUP3 DUP3 SUB SWAP1 POP DUP2 DUP2 GT ISZERO PUSH2 0x4723 JUMPI PUSH2 0x4722 PUSH2 0x416C JUMP JUMPDEST JUMPDEST SWAP3 SWAP2 POP POP JUMP JUMPDEST PUSH32 0x77697468647261775F72656A6563740000000000000000000000000000000000 PUSH0 DUP3 ADD MSTORE POP JUMP JUMPDEST PUSH0 PUSH2 0x475D PUSH1 0xF DUP4 PUSH2 0x3B29 JUMP JUMPDEST SWAP2 POP PUSH2 0x4768 DUP3 PUSH2 0x4729 JUMP JUMPDEST PUSH1 0x20 DUP3 ADD SWAP1 POP SWAP2 SWAP1 POP JUMP JUMPDEST PUSH0 PUSH1 0x80 DUP3 ADD SWAP1 POP DUP2 DUP2 SUB PUSH0 DUP4 ADD MSTORE PUSH2 0x478A DUP2 PUSH2 0x4751 JUMP JUMPDEST SWAP1 POP DUP2 DUP2 SUB PUSH1 0x20 DUP4 ADD MSTORE PUSH2 0x479E DUP2 DUP7 PUSH2 0x3B61 JUMP JUMPDEST SWAP1 POP PUSH2 0x47AD PUSH1 0x40 DUP4 ADD DUP6 PUSH2 0x3B99 JUMP JUMPDEST PUSH2 0x47BA PUSH1 0x60 DUP4 ADD DUP5 PUSH2 0x3900 JUMP JUMPDEST SWAP5 SWAP4 POP POP POP POP JUMP JUMPDEST PUSH32 0x5369746520617574686F72697479206F6E6C792E000000000000000000000000 PUSH0 DUP3 ADD MSTORE POP JUMP JUMPDEST PUSH0 PUSH2 0x47F6 PUSH1 0x14 DUP4 PUSH2 0x3B29 JUMP JUMPDEST SWAP2 POP PUSH2 0x4801 DUP3 PUSH2 0x47C2 JUMP JUMPDEST PUSH1 0x20 DUP3 ADD SWAP1 POP SWAP2 SWAP1 POP JUMP JUMPDEST PUSH0 PUSH1 0x20 DUP3 ADD SWAP1 POP DUP2 DUP2 SUB PUSH0 DUP4 ADD MSTORE PUSH2 0x4823 DUP2 PUSH2 0x47EA JUMP JUMPDEST SWAP1 POP SWAP2 SWAP1 POP JUMP JUMPDEST PUSH32 0x5661756C7420696E206172626974726174696F6E2E0000000000000000000000 PUSH0 DUP3 ADD MSTORE POP JUMP JUMPDEST PUSH0 PUSH2 0x485E PUSH1 0x15 DUP4 PUSH2 0x3B29 JUMP JUMPDEST SWAP2 POP PUSH2 0x4869 DUP3 PUSH2 0x482A JUMP JUMPDEST PUSH1 0x20 DUP3 ADD SWAP1 POP SWAP2 SWAP1 POP JUMP JUMPDEST PUSH0 PUSH1 0x20 DUP3 ADD SWAP1 POP DUP2 DUP2 SUB PUSH0 DUP4 ADD MSTORE PUSH2 0x488B DUP2 PUSH2 0x4852 JUMP JUMPDEST SWAP1 POP SWAP2 SWAP1 POP JUMP JUMPDEST PUSH32 0x4163636F756E74206E6F7420766F7465642E0000000000000000000000000000 PUSH0 DUP3 ADD MSTORE POP JUMP JUMPDEST PUSH0 PUSH2 0x48C6 PUSH1 0x12 DUP4 PUSH2 0x3B29 JUMP JUMPDEST SWAP2 POP PUSH2 0x48D1 DUP3 PUSH2 0x4892 JUMP JUMPDEST PUSH1 0x20 DUP3 ADD SWAP1 POP SWAP2 SWAP1 POP JUMP JUMPDEST PUSH0 PUSH1 0x20 DUP3 ADD SWAP1 POP DUP2 DUP2 SUB PUSH0 DUP4 ADD MSTORE PUSH2 0x48F3 DUP2 PUSH2 0x48BA JUMP JUMPDEST SWAP1 POP SWAP2 SWAP1 POP JUMP JUMPDEST PUSH0 PUSH2 0x4904 DUP3 PUSH2 0x3BA8 JUMP JUMPDEST SWAP2 POP PUSH0 DUP3 SUB PUSH2 0x4916 JUMPI PUSH2 0x4915 PUSH2 0x416C JUMP JUMPDEST JUMPDEST PUSH1 0x1 DUP3 SUB SWAP1 POP SWAP2 SWAP1 POP JUMP JUMPDEST PUSH32 0x6172626974726174696F6E5F756E766F74650000000000000000000000000000 PUSH0 DUP3 ADD MSTORE POP JUMP JUMPDEST PUSH0 PUSH2 0x4955 PUSH1 0x12 DUP4 PUSH2 0x3B29 JUMP JUMPDEST SWAP2 POP PUSH2 0x4960 DUP3 PUSH2 0x4921 JUMP JUMPDEST PUSH1 0x20 DUP3 ADD SWAP1 POP SWAP2 SWAP1 POP JUMP JUMPDEST PUSH0 PUSH1 0x80 DUP3 ADD SWAP1 POP DUP2 DUP2 SUB PUSH0 DUP4 ADD MSTORE PUSH2 0x4982 DUP2 PUSH2 0x4949 JUMP JUMPDEST SWAP1 POP DUP2 DUP2 SUB PUSH1 0x20 DUP4 ADD MSTORE PUSH2 0x4996 DUP2 DUP7 PUSH2 0x3B61 JUMP JUMPDEST SWAP1 POP PUSH2 0x49A5 PUSH1 0x40 DUP4 ADD DUP6 PUSH2 0x3B99 JUMP JUMPDEST PUSH2 0x49B2 PUSH1 0x60 DUP4 ADD DUP5 PUSH2 0x44F6 JUMP JUMPDEST SWAP5 SWAP4 POP POP POP POP JUMP JUMPDEST PUSH32 0x4E6F2073656C6620736572766963652E00000000000000000000000000000000 PUSH0 DUP3 ADD MSTORE POP JUMP JUMPDEST PUSH0 PUSH2 0x49EE PUSH1 0x10 DUP4 PUSH2 0x3B29 JUMP JUMPDEST SWAP2 POP PUSH2 0x49F9 DUP3 PUSH2 0x49BA JUMP JUMPDEST PUSH1 0x20 DUP3 ADD SWAP1 POP SWAP2 SWAP1 POP JUMP JUMPDEST PUSH0 PUSH1 0x20 DUP3 ADD SWAP1 POP DUP2 DUP2 SUB PUSH0 DUP4 ADD MSTORE PUSH2 0x4A1B DUP2 PUSH2 0x49E2 JUMP JUMPDEST SWAP1 POP SWAP2 SWAP1 POP JUMP JUMPDEST PUSH32 0x5769746864726177206E6F742070656E64696E67000000000000000000000000 PUSH0 DUP3 ADD MSTORE POP JUMP JUMPDEST PUSH0 PUSH2 0x4A56 PUSH1 0x14 DUP4 PUSH2 0x3B29 JUMP JUMPDEST SWAP2 POP PUSH2 0x4A61 DUP3 PUSH2 0x4A22 JUMP JUMPDEST PUSH1 0x20 DUP3 ADD SWAP1 POP SWAP2 SWAP1 POP JUMP JUMPDEST PUSH0 PUSH1 0x20 DUP3 ADD SWAP1 POP DUP2 DUP2 SUB PUSH0 DUP4 ADD MSTORE PUSH2 0x4A83 DUP2 PUSH2 0x4A4A JUMP JUMPDEST SWAP1 POP SWAP2 SWAP1 POP JUMP JUMPDEST PUSH32 0x576974686472617720616D6F756E7420696E636F727265637400000000000000 PUSH0 DUP3 ADD MSTORE POP JUMP JUMPDEST PUSH0 PUSH2 0x4ABE PUSH1 0x19 DUP4 PUSH2 0x3B29 JUMP JUMPDEST SWAP2 POP PUSH2 0x4AC9 DUP3 PUSH2 0x4A8A JUMP JUMPDEST PUSH1 0x20 DUP3 ADD SWAP1 POP SWAP2 SWAP1 POP JUMP JUMPDEST PUSH0 PUSH1 0x20 DUP3 ADD SWAP1 POP DUP2 DUP2 SUB PUSH0 DUP4 ADD MSTORE PUSH2 0x4AEB DUP2 PUSH2 0x4AB2 JUMP JUMPDEST SWAP1 POP SWAP2 SWAP1 POP JUMP JUMPDEST PUSH32 0x77697468647261775F636F6E6669726D5F736974650000000000000000000000 PUSH0 DUP3 ADD MSTORE POP JUMP JUMPDEST PUSH0 PUSH2 0x4B26 PUSH1 0x15 DUP4 PUSH2 0x3B29 JUMP JUMPDEST SWAP2 POP PUSH2 0x4B31 DUP3 PUSH2 0x4AF2 JUMP JUMPDEST PUSH1 0x20 DUP3 ADD SWAP1 POP SWAP2 SWAP1 POP JUMP JUMPDEST PUSH0 PUSH1 0x80 DUP3 ADD SWAP1 POP DUP2 DUP2 SUB PUSH0 DUP4 ADD MSTORE PUSH2 0x4B53 DUP2 PUSH2 0x4B1A JUMP JUMPDEST SWAP1 POP DUP2 DUP2 SUB PUSH1 0x20 DUP4 ADD MSTORE PUSH2 0x4B67 DUP2 DUP7 PUSH2 0x3B61 JUMP JUMPDEST SWAP1 POP PUSH2 0x4B76 PUSH1 0x40 DUP4 ADD DUP6 PUSH2 0x3B99 JUMP JUMPDEST PUSH2 0x4B83 PUSH1 0x60 DUP4 ADD DUP5 PUSH2 0x3900 JUMP JUMPDEST SWAP5 SWAP4 POP POP POP POP JUMP JUMPDEST PUSH32 0x5661756C7420616C7265616479206578697374732E0000000000000000000000 PUSH0 DUP3 ADD MSTORE POP JUMP JUMPDEST PUSH0 PUSH2 0x4BBF PUSH1 0x15 DUP4 PUSH2 0x3B29 JUMP JUMPDEST SWAP2 POP PUSH2 0x4BCA DUP3 PUSH2 0x4B8B JUMP JUMPDEST PUSH1 0x20 DUP3 ADD SWAP1 POP SWAP2 SWAP1 POP JUMP JUMPDEST PUSH0 PUSH1 0x20 DUP3 ADD SWAP1 POP DUP2 DUP2 SUB PUSH0 DUP4 ADD MSTORE PUSH2 0x4BEC DUP2 PUSH2 0x4BB3 JUMP JUMPDEST SWAP1 POP SWAP2 SWAP1 POP JUMP JUMPDEST PUSH32 0x7661756C745F6372656174650000000000000000000000000000000000000000 PUSH0 DUP3 ADD MSTORE POP JUMP JUMPDEST PUSH0 PUSH2 0x4C27 PUSH1 0xC DUP4 PUSH2 0x3B29 JUMP JUMPDEST SWAP2 POP PUSH2 0x4C32 DUP3 PUSH2 0x4BF3 JUMP JUMPDEST PUSH1 0x20 DUP3 ADD SWAP1 POP SWAP2 SWAP1 POP JUMP JUMPDEST PUSH0 PUSH1 0x80 DUP3 ADD SWAP1 POP DUP2 DUP2 SUB PUSH0 DUP4 ADD MSTORE PUSH2 0x4C54 DUP2 PUSH2 0x4C1B JUMP JUMPDEST SWAP1 POP DUP2 DUP2 SUB PUSH1 0x20 DUP4 ADD MSTORE PUSH2 0x4C68 DUP2 DUP7 PUSH2 0x3B61 JUMP JUMPDEST SWAP1 POP PUSH2 0x4C77 PUSH1 0x40 DUP4 ADD DUP6 PUSH2 0x3B99 JUMP JUMPDEST PUSH2 0x4C84 PUSH1 0x60 DUP4 ADD DUP5 PUSH2 0x4630 JUMP JUMPDEST SWAP5 SWAP4 POP POP POP POP JUMP JUMPDEST PUSH32 0x4163636F756E7420696E636F7272656374207374617475732E00000000000000 PUSH0 DUP3 ADD MSTORE POP JUMP JUMPDEST PUSH0 PUSH2 0x4CC0 PUSH1 0x19 DUP4 PUSH2 0x3B29 JUMP JUMPDEST SWAP2 POP PUSH2 0x4CCB DUP3 PUSH2 0x4C8C JUMP JUMPDEST PUSH1 0x20 DUP3 ADD SWAP1 POP SWAP2 SWAP1 POP JUMP JUMPDEST PUSH0 PUSH1 0x20 DUP3 ADD SWAP1 POP DUP2 DUP2 SUB PUSH0 DUP4 ADD MSTORE PUSH2 0x4CED DUP2 PUSH2 0x4CB4 JUMP JUMPDEST SWAP1 POP SWAP2 SWAP1 POP JUMP JUMPDEST PUSH32 0x6163636F756E745F6C6F636B0000000000000000000000000000000000000000 PUSH0 DUP3 ADD MSTORE POP JUMP JUMPDEST PUSH0 PUSH2 0x4D28 PUSH1 0xC DUP4 PUSH2 0x3B29 JUMP JUMPDEST SWAP2 POP PUSH2 0x4D33 DUP3 PUSH2 0x4CF4 JUMP JUMPDEST PUSH1 0x20 DUP3 ADD SWAP1 POP SWAP2 SWAP1 POP JUMP JUMPDEST PUSH0 PUSH1 0x80 DUP3 ADD SWAP1 POP DUP2 DUP2 SUB PUSH0 DUP4 ADD MSTORE PUSH2 0x4D55 DUP2 PUSH2 0x4D1C JUMP JUMPDEST SWAP1 POP DUP2 DUP2 SUB PUSH1 0x20 DUP4 ADD MSTORE PUSH2 0x4D69 DUP2 DUP7 PUSH2 0x3B61 JUMP JUMPDEST SWAP1 POP PUSH2 0x4D78 PUSH1 0x40 DUP4 ADD DUP6 PUSH2 0x3B99 JUMP JUMPDEST PUSH2 0x4D85 PUSH1 0x60 DUP4 ADD DUP5 PUSH2 0x4630 JUMP JUMPDEST SWAP5 SWAP4 POP POP POP POP JUMP JUMPDEST PUSH32 0x4163636F756E74206172626974726174696F6E20766F7465642E000000000000 PUSH0 DUP3 ADD MSTORE POP JUMP JUMPDEST PUSH0 PUSH2 0x4DC1 PUSH1 0x1A DUP4 PUSH2 0x3B29 JUMP JUMPDEST SWAP2 POP PUSH2 0x4DCC DUP3 PUSH2 0x4D8D JUMP JUMPDEST PUSH1 0x20 DUP3 ADD SWAP1 POP SWAP2 SWAP1 POP JUMP JUMPDEST PUSH0 PUSH1 0x20 DUP3 ADD SWAP1 POP DUP2 DUP2 SUB PUSH0 DUP4 ADD MSTORE PUSH2 0x4DEE DUP2 PUSH2 0x4DB5 JUMP JUMPDEST SWAP1 POP SWAP2 SWAP1 POP JUMP JUMPDEST PUSH0 PUSH2 0x4DFF DUP3 PUSH2 0x3BA8 JUMP JUMPDEST SWAP2 POP PUSH2 0x4E0A DUP4 PUSH2 0x3BA8 JUMP JUMPDEST SWAP3 POP DUP3 DUP3 MUL PUSH2 0x4E18 DUP2 PUSH2 0x3BA8 JUMP JUMPDEST SWAP2 POP DUP1 DUP3 EQ PUSH2 0x4E2A JUMPI PUSH2 0x4E29 PUSH2 0x416C JUMP JUMPDEST JUMPDEST POP SWAP3 SWAP2 POP POP JUMP JUMPDEST PUSH32 0x4E487B7100000000000000000000000000000000000000000000000000000000 PUSH0 MSTORE PUSH1 0x12 PUSH1 0x4 MSTORE PUSH1 0x24 PUSH0 REVERT JUMPDEST PUSH0 PUSH2 0x4E68 DUP3 PUSH2 0x3BA8 JUMP JUMPDEST SWAP2 POP PUSH2 0x4E73 DUP4 PUSH2 0x3BA8 JUMP JUMPDEST SWAP3 POP DUP3 PUSH2 0x4E83 JUMPI PUSH2 0x4E82 PUSH2 0x4E31 JUMP JUMPDEST JUMPDEST DUP3 DUP3 DIV SWAP1 POP SWAP3 SWAP2 POP POP JUMP JUMPDEST PUSH32 0x6172626974726174696F6E5F766F746500000000000000000000000000000000 PUSH0 DUP3 ADD MSTORE POP JUMP JUMPDEST PUSH0 PUSH2 0x4EC2 PUSH1 0x10 DUP4 PUSH2 0x3B29 JUMP JUMPDEST SWAP2 POP PUSH2 0x4ECD DUP3 PUSH2 0x4E8E JUMP JUMPDEST PUSH1 0x20 DUP3 ADD SWAP1 POP SWAP2 SWAP1 POP JUMP JUMPDEST PUSH0 PUSH1 0x80 DUP3 ADD SWAP1 POP DUP2 DUP2 SUB PUSH0 DUP4 ADD MSTORE PUSH2 0x4EEF DUP2 PUSH2 0x4EB6 JUMP JUMPDEST SWAP1 POP DUP2 DUP2 SUB PUSH1 0x20 DUP4 ADD MSTORE PUSH2 0x4F03 DUP2 DUP7 PUSH2 0x3B61 JUMP JUMPDEST SWAP1 POP PUSH2 0x4F12 PUSH1 0x40 DUP4 ADD DUP6 PUSH2 0x3B99 JUMP JUMPDEST PUSH2 0x4F1F PUSH1 0x60 DUP4 ADD DUP5 PUSH2 0x44F6 JUMP JUMPDEST SWAP5 SWAP4 POP POP POP POP JUMP JUMPDEST PUSH32 0x5769746864726177206E6F7420616C6C6F7765642E0000000000000000000000 PUSH0 DUP3 ADD MSTORE POP JUMP JUMPDEST PUSH0 PUSH2 0x4F5B PUSH1 0x15 DUP4 PUSH2 0x3B29 JUMP JUMPDEST SWAP2 POP PUSH2 0x4F66 DUP3 PUSH2 0x4F27 JUMP JUMPDEST PUSH1 0x20 DUP3 ADD SWAP1 POP SWAP2 SWAP1 POP JUMP JUMPDEST PUSH0 PUSH1 0x20 DUP3 ADD SWAP1 POP DUP2 DUP2 SUB PUSH0 DUP4 ADD MSTORE PUSH2 0x4F88 DUP2 PUSH2 0x4F4F JUMP JUMPDEST SWAP1 POP SWAP2 SWAP1 POP JUMP JUMPDEST PUSH32 0x576974686472617720616C7265616479207265717565737465642E0000000000 PUSH0 DUP3 ADD MSTORE POP JUMP JUMPDEST PUSH0 PUSH2 0x4FC3 PUSH1 0x1B DUP4 PUSH2 0x3B29 JUMP JUMPDEST SWAP2 POP PUSH2 0x4FCE DUP3 PUSH2 0x4F8F JUMP JUMPDEST PUSH1 0x20 DUP3 ADD SWAP1 POP SWAP2 SWAP1 POP JUMP JUMPDEST PUSH0 PUSH1 0x20 DUP3 ADD SWAP1 POP DUP2 DUP2 SUB PUSH0 DUP4 ADD MSTORE PUSH2 0x4FF0 DUP2 PUSH2 0x4FB7 JUMP JUMPDEST SWAP1 POP SWAP2 SWAP1 POP JUMP JUMPDEST PUSH32 0x576974686472617720616D6F756E742062656C6F77206D696E696D756D2E0000 PUSH0 DUP3 ADD MSTORE POP JUMP JUMPDEST PUSH0 PUSH2 0x502B PUSH1 0x1E DUP4 PUSH2 0x3B29 JUMP JUMPDEST SWAP2 POP PUSH2 0x5036 DUP3 PUSH2 0x4FF7 JUMP JUMPDEST PUSH1 0x20 DUP3 ADD SWAP1 POP SWAP2 SWAP1 POP JUMP JUMPDEST PUSH0 PUSH1 0x20 DUP3 ADD SWAP1 POP DUP2 DUP2 SUB PUSH0 DUP4 ADD MSTORE PUSH2 0x5058 DUP2 PUSH2 0x501F JUMP JUMPDEST SWAP1 POP SWAP2 SWAP1 POP JUMP JUMPDEST PUSH32 0x576974686472617720616D6F756E742061626F7665206D6178696D756D000000 PUSH0 DUP3 ADD MSTORE POP JUMP JUMPDEST PUSH0 PUSH2 0x5093 PUSH1 0x1D DUP4 PUSH2 0x3B29 JUMP JUMPDEST SWAP2 POP PUSH2 0x509E DUP3 PUSH2 0x505F JUMP JUMPDEST PUSH1 0x20 DUP3 ADD SWAP1 POP SWAP2 SWAP1 POP JUMP JUMPDEST PUSH0 PUSH1 0x20 DUP3 ADD SWAP1 POP DUP2 DUP2 SUB PUSH0 DUP4 ADD MSTORE PUSH2 0x50C0 DUP2 PUSH2 0x5087 JUMP JUMPDEST SWAP1 POP SWAP2 SWAP1 POP JUMP JUMPDEST PUSH0 PUSH2 0x50D1 DUP3 PUSH2 0x38F7 JUMP JUMPDEST SWAP2 POP PUSH2 0x50DC DUP4 PUSH2 0x38F7 JUMP JUMPDEST SWAP3 POP DUP3 DUP3 ADD SWAP1 POP DUP1 DUP3 GT ISZERO PUSH2 0x50F4 JUMPI PUSH2 0x50F3 PUSH2 0x416C JUMP JUMPDEST JUMPDEST SWAP3 SWAP2 POP POP JUMP JUMPDEST PUSH32 0x5769746864726177206F76657220706F6F6C206C696D69742E00000000000000 PUSH0 DUP3 ADD MSTORE POP JUMP JUMPDEST PUSH0 PUSH2 0x512E PUSH1 0x19 DUP4 PUSH2 0x3B29 JUMP JUMPDEST SWAP2 POP PUSH2 0x5139 DUP3 PUSH2 0x50FA JUMP JUMPDEST PUSH1 0x20 DUP3 ADD SWAP1 POP SWAP2 SWAP1 POP JUMP JUMPDEST PUSH0 PUSH1 0x20 DUP3 ADD SWAP1 POP DUP2 DUP2 SUB PUSH0 DUP4 ADD MSTORE PUSH2 0x515B DUP2 PUSH2 0x5122 JUMP JUMPDEST SWAP1 POP SWAP2 SWAP1 POP JUMP JUMPDEST PUSH32 0x77697468647261775F7265717565737400000000000000000000000000000000 PUSH0 DUP3 ADD MSTORE POP JUMP JUMPDEST PUSH0 PUSH2 0x5196 PUSH1 0x10 DUP4 PUSH2 0x3B29 JUMP JUMPDEST SWAP2 POP PUSH2 0x51A1 DUP3 PUSH2 0x5162 JUMP JUMPDEST PUSH1 0x20 DUP3 ADD SWAP1 POP SWAP2 SWAP1 POP JUMP JUMPDEST PUSH0 PUSH1 0x80 DUP3 ADD SWAP1 POP DUP2 DUP2 SUB PUSH0 DUP4 ADD MSTORE PUSH2 0x51C3 DUP2 PUSH2 0x518A JUMP JUMPDEST SWAP1 POP DUP2 DUP2 SUB PUSH1 0x20 DUP4 ADD MSTORE PUSH2 0x51D7 DUP2 DUP7 PUSH2 0x3B61 JUMP JUMPDEST SWAP1 POP PUSH2 0x51E6 PUSH1 0x40 DUP4 ADD DUP6 PUSH2 0x3B99 JUMP JUMPDEST PUSH2 0x51F3 PUSH1 0x60 DUP4 ADD DUP5 PUSH2 0x3900 JUMP JUMPDEST SWAP5 SWAP4 POP POP POP POP JUMP JUMPDEST PUSH32 0x4163636F756E74206E6F74206163746976652E00000000000000000000000000 PUSH0 DUP3 ADD MSTORE POP JUMP JUMPDEST PUSH0 PUSH2 0x522F PUSH1 0x13 DUP4 PUSH2 0x3B29 JUMP JUMPDEST SWAP2 POP PUSH2 0x523A DUP3 PUSH2 0x51FB JUMP JUMPDEST PUSH1 0x20 DUP3 ADD SWAP1 POP SWAP2 SWAP1 POP JUMP JUMPDEST PUSH0 PUSH1 0x20 DUP3 ADD SWAP1 POP DUP2 DUP2 SUB PUSH0 DUP4 ADD MSTORE PUSH2 0x525C DUP2 PUSH2 0x5223 JUMP JUMPDEST SWAP1 POP SWAP2 SWAP1 POP JUMP JUMPDEST PUSH32 0x6163636F756E745F6465706F7369740000000000000000000000000000000000 PUSH0 DUP3 ADD MSTORE POP JUMP JUMPDEST PUSH0 PUSH2 0x5297 PUSH1 0xF DUP4 PUSH2 0x3B29 JUMP JUMPDEST SWAP2 POP PUSH2 0x52A2 DUP3 PUSH2 0x5263 JUMP JUMPDEST PUSH1 0x20 DUP3 ADD SWAP1 POP SWAP2 SWAP1 POP JUMP JUMPDEST PUSH0 PUSH1 0x80 DUP3 ADD SWAP1 POP DUP2 DUP2 SUB PUSH0 DUP4 ADD MSTORE PUSH2 0x52C4 DUP2 PUSH2 0x528B JUMP JUMPDEST SWAP1 POP DUP2 DUP2 SUB PUSH1 0x20 DUP4 ADD MSTORE PUSH2 0x52D8 DUP2 DUP7 PUSH2 0x3B61 JUMP JUMPDEST SWAP1 POP PUSH2 0x52E7 PUSH1 0x40 DUP4 ADD DUP6 PUSH2 0x3B99 JUMP JUMPDEST PUSH2 0x52F4 PUSH1 0x60 DUP4 ADD DUP5 PUSH2 0x3900 JUMP JUMPDEST SWAP5 SWAP4 POP POP POP POP JUMP JUMPDEST PUSH32 0x77697468647261775F72656A6563745F73697465000000000000000000000000 PUSH0 DUP3 ADD MSTORE POP JUMP JUMPDEST PUSH0 PUSH2 0x5330 PUSH1 0x14 DUP4 PUSH2 0x3B29 JUMP JUMPDEST SWAP2 POP PUSH2 0x533B DUP3 PUSH2 0x52FC JUMP JUMPDEST PUSH1 0x20 DUP3 ADD SWAP1 POP SWAP2 SWAP1 POP JUMP JUMPDEST PUSH0 PUSH1 0x80 DUP3 ADD SWAP1 POP DUP2 DUP2 SUB PUSH0 DUP4 ADD MSTORE PUSH2 0x535D DUP2 PUSH2 0x5324 JUMP JUMPDEST SWAP1 POP DUP2 DUP2 SUB PUSH1 0x20 DUP4 ADD MSTORE PUSH2 0x5371 DUP2 DUP7 PUSH2 0x3B61 JUMP JUMPDEST SWAP1 POP PUSH2 0x5380 PUSH1 0x40 DUP4 ADD DUP6 PUSH2 0x3B99 JUMP JUMPDEST PUSH2 0x538D PUSH1 0x60 DUP4 ADD DUP5 PUSH2 0x3900 JUMP JUMPDEST SWAP5 SWAP4 POP POP POP POP JUMP JUMPDEST PUSH32 0x6163636F756E745F6F70656E5F636F6E6669726D000000000000000000000000 PUSH0 DUP3 ADD MSTORE POP JUMP JUMPDEST PUSH0 PUSH2 0x53C9 PUSH1 0x14 DUP4 PUSH2 0x3B29 JUMP JUMPDEST SWAP2 POP PUSH2 0x53D4 DUP3 PUSH2 0x5395 JUMP JUMPDEST PUSH1 0x20 DUP3 ADD SWAP1 POP SWAP2 SWAP1 POP JUMP JUMPDEST PUSH0 PUSH1 0x80 DUP3 ADD SWAP1 POP DUP2 DUP2 SUB PUSH0 DUP4 ADD MSTORE PUSH2 0x53F6 DUP2 PUSH2 0x53BD JUMP JUMPDEST SWAP1 POP DUP2 DUP2 SUB PUSH1 0x20 DUP4 ADD MSTORE PUSH2 0x540A DUP2 DUP7 PUSH2 0x3B61 JUMP JUMPDEST SWAP1 POP PUSH2 0x5419 PUSH1 0x40 DUP4 ADD DUP6 PUSH2 0x3B99 JUMP JUMPDEST PUSH2 0x5426 PUSH1 0x60 DUP4 ADD DUP5 PUSH2 0x4630 JUMP JUMPDEST SWAP5 SWAP4 POP POP POP POP JUMP JUMPDEST PUSH32 0x6163636F756E745F636C6F736500000000000000000000000000000000000000 PUSH0 DUP3 ADD MSTORE POP JUMP JUMPDEST PUSH0 PUSH2 0x5462 PUSH1 0xD DUP4 PUSH2 0x3B29 JUMP JUMPDEST SWAP2 POP PUSH2 0x546D DUP3 PUSH2 0x542E JUMP JUMPDEST PUSH1 0x20 DUP3 ADD SWAP1 POP SWAP2 SWAP1 POP JUMP JUMPDEST PUSH0 PUSH1 0x80 DUP3 ADD SWAP1 POP DUP2 DUP2 SUB PUSH0 DUP4 ADD MSTORE PUSH2 0x548F DUP2 PUSH2 0x5456 JUMP JUMPDEST SWAP1 POP DUP2 DUP2 SUB PUSH1 0x20 DUP4 ADD MSTORE PUSH2 0x54A3 DUP2 DUP7 PUSH2 0x3B61 JUMP JUMPDEST SWAP1 POP PUSH2 0x54B2 PUSH1 0x40 DUP4 ADD DUP6 PUSH2 0x3B99 JUMP JUMPDEST PUSH2 0x54BF PUSH1 0x60 DUP4 ADD DUP5 PUSH2 0x44F6 JUMP JUMPDEST SWAP5 SWAP4 POP POP POP POP JUMP JUMPDEST PUSH32 0x536974652061646D696E206F6E6C792E00000000000000000000000000000000 PUSH0 DUP3 ADD MSTORE POP JUMP JUMPDEST PUSH0 PUSH2 0x54FB PUSH1 0x10 DUP4 PUSH2 0x3B29 JUMP JUMPDEST SWAP2 POP PUSH2 0x5506 DUP3 PUSH2 0x54C7 JUMP JUMPDEST PUSH1 0x20 DUP3 ADD SWAP1 POP SWAP2 SWAP1 POP JUMP JUMPDEST PUSH0 PUSH1 0x20 DUP3 ADD SWAP1 POP DUP2 DUP2 SUB PUSH0 DUP4 ADD MSTORE PUSH2 0x5528 DUP2 PUSH2 0x54EF JUMP JUMPDEST SWAP1 POP SWAP2 SWAP1 POP JUMP JUMPDEST PUSH32 0x5661756C74206F776E6572206F6E6C792E000000000000000000000000000000 PUSH0 DUP3 ADD MSTORE POP JUMP JUMPDEST PUSH0 PUSH2 0x5563 PUSH1 0x11 DUP4 PUSH2 0x3B29 JUMP JUMPDEST SWAP2 POP PUSH2 0x556E DUP3 PUSH2 0x552F JUMP JUMPDEST PUSH1 0x20 DUP3 ADD SWAP1 POP SWAP2 SWAP1 POP JUMP JUMPDEST PUSH0 PUSH1 0x20 DUP3 ADD SWAP1 POP DUP2 DUP2 SUB PUSH0 DUP4 ADD MSTORE PUSH2 0x5590 DUP2 PUSH2 0x5557 JUMP JUMPDEST SWAP1 POP SWAP2 SWAP1 POP JUMP JUMPDEST PUSH32 0x55736572206E6F7420666F756E642E0000000000000000000000000000000000 PUSH0 DUP3 ADD MSTORE POP JUMP JUMPDEST PUSH0 PUSH2 0x55CB PUSH1 0xF DUP4 PUSH2 0x3B29 JUMP JUMPDEST SWAP2 POP PUSH2 0x55D6 DUP3 PUSH2 0x5597 JUMP JUMPDEST PUSH1 0x20 DUP3 ADD SWAP1 POP SWAP2 SWAP1 POP JUMP JUMPDEST PUSH0 PUSH1 0x20 DUP3 ADD SWAP1 POP DUP2 DUP2 SUB PUSH0 DUP4 ADD MSTORE PUSH2 0x55F8 DUP2 PUSH2 0x55BF JUMP JUMPDEST SWAP1 POP SWAP2 SWAP1 POP JUMP JUMPDEST PUSH0 PUSH2 0x5609 DUP3 PUSH2 0x38F7 JUMP JUMPDEST SWAP2 POP PUSH2 0x5614 DUP4 PUSH2 0x38F7 JUMP JUMPDEST SWAP3 POP DUP3 DUP3 MUL PUSH2 0x5622 DUP2 PUSH2 0x38F7 JUMP JUMPDEST SWAP2 POP DUP3 DUP3 DIV DUP5 EQ DUP4 ISZERO OR PUSH2 0x5639 JUMPI PUSH2 0x5638 PUSH2 0x416C JUMP JUMPDEST JUMPDEST POP SWAP3 SWAP2 POP POP JUMP JUMPDEST PUSH0 PUSH2 0x564A DUP3 PUSH2 0x38F7 JUMP JUMPDEST SWAP2 POP PUSH2 0x5655 DUP4 PUSH2 0x38F7 JUMP JUMPDEST SWAP3 POP DUP3 PUSH2 0x5665 JUMPI PUSH2 0x5664 PUSH2 0x4E31 JUMP JUMPDEST JUMPDEST DUP3 DUP3 DIV SWAP1 POP SWAP3 SWAP2 POP POP JUMP JUMPDEST PUSH32 0x77697468647261775F7472616E73666572000000000000000000000000000000 PUSH0 DUP3 ADD MSTORE POP JUMP JUMPDEST PUSH0 PUSH2 0x56A4 PUSH1 0x11 DUP4 PUSH2 0x3B29 JUMP JUMPDEST SWAP2 POP PUSH2 0x56AF DUP3 PUSH2 0x5670 JUMP JUMPDEST PUSH1 0x20 DUP3 ADD SWAP1 POP SWAP2 SWAP1 POP JUMP JUMPDEST PUSH0 PUSH1 0x80 DUP3 ADD SWAP1 POP DUP2 DUP2 SUB PUSH0 DUP4 ADD MSTORE PUSH2 0x56D1 DUP2 PUSH2 0x5698 JUMP JUMPDEST SWAP1 POP DUP2 DUP2 SUB PUSH1 0x20 DUP4 ADD MSTORE PUSH2 0x56E5 DUP2 DUP7 PUSH2 0x3B61 JUMP JUMPDEST SWAP1 POP PUSH2 0x56F4 PUSH1 0x40 DUP4 ADD DUP6 PUSH2 0x3B99 JUMP JUMPDEST PUSH2 0x5701 PUSH1 0x60 DUP4 ADD DUP5 PUSH2 0x3900 JUMP JUMPDEST SWAP5 SWAP4 POP POP POP POP JUMP JUMPDEST PUSH32 0x52657175657374206E6F7420666F756E642E0000000000000000000000000000 PUSH0 DUP3 ADD MSTORE POP JUMP JUMPDEST PUSH0 PUSH2 0x573D PUSH1 0x12 DUP4 PUSH2 0x3B29 JUMP JUMPDEST SWAP2 POP PUSH2 0x5748 DUP3 PUSH2 0x5709 JUMP JUMPDEST PUSH1 0x20 DUP3 ADD SWAP1 POP SWAP2 SWAP1 POP JUMP JUMPDEST PUSH0 PUSH1 0x20 DUP3 ADD SWAP1 POP DUP2 DUP2 SUB PUSH0 DUP4 ADD MSTORE PUSH2 0x576A DUP2 PUSH2 0x5731 JUMP JUMPDEST SWAP1 POP SWAP2 SWAP1 POP JUMP JUMPDEST PUSH32 0x5661756C74206D616E6167656D656E74206F6E6C792E00000000000000000000 PUSH0 DUP3 ADD MSTORE POP JUMP JUMPDEST PUSH0 PUSH2 0x57A5 PUSH1 0x16 DUP4 PUSH2 0x3B29 JUMP JUMPDEST SWAP2 POP PUSH2 0x57B0 DUP3 PUSH2 0x5771 JUMP JUMPDEST PUSH1 0x20 DUP3 ADD SWAP1 POP SWAP2 SWAP1 POP JUMP JUMPDEST PUSH0 PUSH1 0x20 DUP3 ADD SWAP1 POP DUP2 DUP2 SUB PUSH0 DUP4 ADD MSTORE PUSH2 0x57D2 DUP2 PUSH2 0x5799 JUMP JUMPDEST SWAP1 POP SWAP2 SWAP1 POP JUMP INVALID LOG2 PUSH5 0x6970667358 0x22 SLT KECCAK256 REVERT 0xB1 DUP3 0xD1 PUSH21 0xF981CD80CAA07C52027EF6471D6A29C08DB35A8082 LOG4 DUP2 0xDB 0x2A ADDMOD 0x4B PUSH5 0x736F6C6343 STOP ADDMOD EQ STOP CALLER "
    },
    "methodIdentifiers": {
      "g__VaultAccounts(string,address)": "e29ebbfb",
      "user__withdraw_self(string,string)": "47d733ce",
      "g__VaultCount()": "a49d8533",
      "user__account_deposit(string)": "de40a280",
      "user__arbitration_unvote(string)": "3e1c1ea8",
      "site__withdraw_reject(string,address,string)": "e463d44b",
      "owner__account_lock(string,address)": "afb0eca9",
      "owner__withdraw_reject(string,address,string)": "3665631a",
      "site__change_authority(address)": "39becbbe",
      "site__remove_support(address)": "fcb74bf3",
      "site__add_support(address)": "36fceb3e",
      "owner__set_auto(string,bool)": "18bb8952",
      "g__VaultWithdrawals(string,address,string)": "001b3212",
      "site__account_close(string,address)": "f2a9392d",
      "g__VaultLookup(string)": "1a88d046",
      "owner__account_unlock(string,address)": "136a899e",
      "user__arbitration_vote(string)": "b96161e3",
      "owner__withdraw_approve(string,address,string,uint256)": "e3465d7a",
      "owner__account_open_confirm(string,address)": "e480ad83",
      "g__SiteArbitrationThreshold()": "f0657582",
      "g__SiteSupport(address)": "f31300b4",
      "site__withdraw_confirm(string,address,string,uint256)": "4fc538fd",
      "site__account_open(string,address)": "049fde97",
      "site__vault_create(string,string,address,uint16,uint256,uint256,uint256)": "703cc133",
      "user__withdraw_request(string,string,uint256)": "be922bca",
      "g__SiteAuthority()": "95875a68"
    },
    "gasEstimates": {
      "internal": {
        "ut__assert_management(string memory,address)": "infinite",
        "ut__get_withdraw(string memory,address,string memory)": "infinite",
        "ut__withdraw_transfer(string memory,address,string memory,struct StatstradeVaultNativeFactory.WithdrawRequest memory,bool)": "infinite",
        "ut__assert_owner(string memory,address)": "infinite",
        "ut__assert_admin(address)": "infinite",
        "ut__get_account(string memory,address)": "infinite"
      },
      "creation": {
        "executionCost": "infinite",
        "codeDepositCost": "4508600",
        "totalCost": "infinite"
      },
      "external": {
        "g__VaultAccounts(string,address)": "infinite",
        "user__withdraw_self(string,string)": "infinite",
        "g__VaultCount()": "2537",
        "user__account_deposit(string)": "infinite",
        "user__arbitration_unvote(string)": "infinite",
        "site__withdraw_reject(string,address,string)": "infinite",
        "owner__account_lock(string,address)": "infinite",
        "owner__withdraw_reject(string,address,string)": "infinite",
        "site__change_authority(address)": "26949",
        "site__remove_support(address)": "29328",
        "site__add_support(address)": "27015",
        "owner__set_auto(string,bool)": "infinite",
        "g__VaultWithdrawals(string,address,string)": "infinite",
        "site__account_close(string,address)": "infinite",
        "g__VaultLookup(string)": "infinite",
        "owner__account_unlock(string,address)": "infinite",
        "user__arbitration_vote(string)": "infinite",
        "owner__withdraw_approve(string,address,string,uint256)": "infinite",
        "owner__account_open_confirm(string,address)": "infinite",
        "g__SiteArbitrationThreshold()": "2510",
        "g__SiteSupport(address)": "2921",
        "site__withdraw_confirm(string,address,string,uint256)": "infinite",
        "site__account_open(string,address)": "infinite",
        "site__vault_create(string,string,address,uint16,uint256,uint256,uint256)": "infinite",
        "user__withdraw_request(string,string,uint256)": "infinite",
        "g__SiteAuthority()": "2616"
      }
    },
    "assembly": "    /* \"temp.sol\":69:13680  contract StatstradeVaultNativeFactory {... */\n  mstore(0x40, 0x80)\n    /* \"temp.sol\":1371:1520  constructor(uint16 site_arbitration_threshold) {... */\n  callvalue\n  dup1\n  iszero\n  tag_1\n  jumpi\n  0x00\n  dup1\n  revert\ntag_1:\n  pop\n  mload(0x40)\n  sub(codesize, bytecodeSize)\n  dup1\n  bytecodeSize\n  dup4\n  codecopy\n  dup2\n  dup2\n  add\n  0x40\n  mstore\n  dup2\n  add\n  swap1\n  tag_2\n  swap2\n  swap1\n  tag_3\n  jump\t// in\ntag_2:\n    /* \"temp.sol\":1443:1453  msg.sender */\n  caller\n    /* \"temp.sol\":1424:1440  g__SiteAuthority */\n  0x00\n  dup1\n    /* \"temp.sol\":1424:1453  g__SiteAuthority = msg.sender */\n  0x0100\n  exp\n  dup2\n  sload\n  dup2\n  0xffffffffffffffffffffffffffffffffffffffff\n  mul\n  not\n  and\n  swap1\n  dup4\n  0xffffffffffffffffffffffffffffffffffffffff\n  and\n  mul\n  or\n  swap1\n  sstore\n  pop\n    /* \"temp.sol\":1489:1515  site_arbitration_threshold */\n  dup1\n    /* \"temp.sol\":1459:1486  g__SiteArbitrationThreshold */\n  0x02\n  0x00\n    /* \"temp.sol\":1459:1515  g__SiteArbitrationThreshold = site_arbitration_threshold */\n  0x0100\n  exp\n  dup2\n  sload\n  dup2\n  0xffff\n  mul\n  not\n  and\n  swap1\n  dup4\n  0xffff\n  and\n  mul\n  or\n  swap1\n  sstore\n  pop\n    /* \"temp.sol\":1371:1520  constructor(uint16 site_arbitration_threshold) {... */\n  pop\n    /* \"temp.sol\":69:13680  contract StatstradeVaultNativeFactory {... */\n  jump(tag_6)\n    /* \"#utility.yul\":88:205   */\ntag_8:\n    /* \"#utility.yul\":197:198   */\n  0x00\n    /* \"#utility.yul\":194:195   */\n  dup1\n    /* \"#utility.yul\":187:199   */\n  revert\n    /* \"#utility.yul\":334:423   */\ntag_10:\n    /* \"#utility.yul\":370:377   */\n  0x00\n    /* \"#utility.yul\":410:416   */\n  0xffff\n    /* \"#utility.yul\":403:408   */\n  dup3\n    /* \"#utility.yul\":399:417   */\n  and\n    /* \"#utility.yul\":388:417   */\n  swap1\n  pop\n    /* \"#utility.yul\":334:423   */\n  swap2\n  swap1\n  pop\n  jump\t// out\n    /* \"#utility.yul\":429:549   */\ntag_11:\n    /* \"#utility.yul\":501:524   */\n  tag_19\n    /* \"#utility.yul\":518:523   */\n  dup2\n    /* \"#utility.yul\":501:524   */\n  tag_10\n  jump\t// in\ntag_19:\n    /* \"#utility.yul\":494:499   */\n  dup2\n    /* \"#utility.yul\":491:525   */\n  eq\n    /* \"#utility.yul\":481:543   */\n  tag_20\n  jumpi\n    /* \"#utility.yul\":539:540   */\n  0x00\n    /* \"#utility.yul\":536:537   */\n  dup1\n    /* \"#utility.yul\":529:541   */\n  revert\n    /* \"#utility.yul\":481:543   */\ntag_20:\n    /* \"#utility.yul\":429:549   */\n  pop\n  jump\t// out\n    /* \"#utility.yul\":555:696   */\ntag_12:\n    /* \"#utility.yul\":611:616   */\n  0x00\n    /* \"#utility.yul\":642:648   */\n  dup2\n    /* \"#utility.yul\":636:649   */\n  mload\n    /* \"#utility.yul\":627:649   */\n  swap1\n  pop\n    /* \"#utility.yul\":658:690   */\n  tag_22\n    /* \"#utility.yul\":684:689   */\n  dup2\n    /* \"#utility.yul\":658:690   */\n  tag_11\n  jump\t// in\ntag_22:\n    /* \"#utility.yul\":555:696   */\n  swap3\n  swap2\n  pop\n  pop\n  jump\t// out\n    /* \"#utility.yul\":702:1051   */\ntag_3:\n    /* \"#utility.yul\":771:777   */\n  0x00\n    /* \"#utility.yul\":820:822   */\n  0x20\n    /* \"#utility.yul\":808:817   */\n  dup3\n    /* \"#utility.yul\":799:806   */\n  dup5\n    /* \"#utility.yul\":795:818   */\n  sub\n    /* \"#utility.yul\":791:823   */\n  slt\n    /* \"#utility.yul\":788:907   */\n  iszero\n  tag_24\n  jumpi\n    /* \"#utility.yul\":826:905   */\n  tag_25\n  tag_8\n  jump\t// in\ntag_25:\n    /* \"#utility.yul\":788:907   */\ntag_24:\n    /* \"#utility.yul\":946:947   */\n  0x00\n    /* \"#utility.yul\":971:1034   */\n  tag_26\n    /* \"#utility.yul\":1026:1033   */\n  dup5\n    /* \"#utility.yul\":1017:1023   */\n  dup3\n    /* \"#utility.yul\":1006:1015   */\n  dup6\n    /* \"#utility.yul\":1002:1024   */\n  add\n    /* \"#utility.yul\":971:1034   */\n  tag_12\n  jump\t// in\ntag_26:\n    /* \"#utility.yul\":961:1034   */\n  swap2\n  pop\n    /* \"#utility.yul\":917:1044   */\n  pop\n    /* \"#utility.yul\":702:1051   */\n  swap3\n  swap2\n  pop\n  pop\n  jump\t// out\n    /* \"temp.sol\":69:13680  contract StatstradeVaultNativeFactory {... */\ntag_6:\n  dataSize(sub_0)\n  dup1\n  dataOffset(sub_0)\n  0x00\n  codecopy\n  0x00\n  return\nstop\n\nsub_0: assembly {\n        /* \"temp.sol\":69:13680  contract StatstradeVaultNativeFactory {... */\n      mstore(0x40, 0x80)\n      jumpi(tag_1, lt(calldatasize, 0x04))\n      shr(0xe0, calldataload(0x00))\n      dup1\n      0xa49d8533\n      gt\n      tag_28\n      jumpi\n      dup1\n      0xe3465d7a\n      gt\n      tag_29\n      jumpi\n      dup1\n      0xf0657582\n      gt\n      tag_30\n      jumpi\n      dup1\n      0xf0657582\n      eq\n      tag_24\n      jumpi\n      dup1\n      0xf2a9392d\n      eq\n      tag_25\n      jumpi\n      dup1\n      0xf31300b4\n      eq\n      tag_26\n      jumpi\n      dup1\n      0xfcb74bf3\n      eq\n      tag_27\n      jumpi\n      jump(tag_1)\n    tag_30:\n      dup1\n      0xe3465d7a\n      eq\n      tag_21\n      jumpi\n      dup1\n      0xe463d44b\n      eq\n      tag_22\n      jumpi\n      dup1\n      0xe480ad83\n      eq\n      tag_23\n      jumpi\n      jump(tag_1)\n    tag_29:\n      dup1\n      0xa49d8533\n      eq\n      tag_15\n      jumpi\n      dup1\n      0xafb0eca9\n      eq\n      tag_16\n      jumpi\n      dup1\n      0xb96161e3\n      eq\n      tag_17\n      jumpi\n      dup1\n      0xbe922bca\n      eq\n      tag_18\n      jumpi\n      dup1\n      0xde40a280\n      eq\n      tag_19\n      jumpi\n      dup1\n      0xe29ebbfb\n      eq\n      tag_20\n      jumpi\n      jump(tag_1)\n    tag_28:\n      dup1\n      0x36fceb3e\n      gt\n      tag_31\n      jumpi\n      dup1\n      0x47d733ce\n      gt\n      tag_32\n      jumpi\n      dup1\n      0x47d733ce\n      eq\n      tag_11\n      jumpi\n      dup1\n      0x4fc538fd\n      eq\n      tag_12\n      jumpi\n      dup1\n      0x703cc133\n      eq\n      tag_13\n      jumpi\n      dup1\n      0x95875a68\n      eq\n      tag_14\n      jumpi\n      jump(tag_1)\n    tag_32:\n      dup1\n      0x36fceb3e\n      eq\n      tag_8\n      jumpi\n      dup1\n      0x39becbbe\n      eq\n      tag_9\n      jumpi\n      dup1\n      0x3e1c1ea8\n      eq\n      tag_10\n      jumpi\n      jump(tag_1)\n    tag_31:\n      dup1\n      0x1b3212\n      eq\n      tag_2\n      jumpi\n      dup1\n      0x049fde97\n      eq\n      tag_3\n      jumpi\n      dup1\n      0x136a899e\n      eq\n      tag_4\n      jumpi\n      dup1\n      0x18bb8952\n      eq\n      tag_5\n      jumpi\n      dup1\n      0x1a88d046\n      eq\n      tag_6\n      jumpi\n      dup1\n      0x3665631a\n      eq\n      tag_7\n      jumpi\n    tag_1:\n      0x00\n      dup1\n      revert\n        /* \"temp.sol\":1256:1364  mapping(... */\n    tag_2:\n      callvalue\n      dup1\n      iszero\n      tag_33\n      jumpi\n      0x00\n      dup1\n      revert\n    tag_33:\n      pop\n      tag_34\n      0x04\n      dup1\n      calldatasize\n      sub\n      dup2\n      add\n      swap1\n      tag_35\n      swap2\n      swap1\n      tag_36\n      jump\t// in\n    tag_35:\n      tag_37\n      jump\t// in\n    tag_34:\n      mload(0x40)\n      tag_38\n      swap3\n      swap2\n      swap1\n      tag_39\n      jump\t// in\n    tag_38:\n      mload(0x40)\n      dup1\n      swap2\n      sub\n      swap1\n      return\n        /* \"temp.sol\":4302:5030  function site__account_open(string memory vault_id,address user_address) external {... */\n    tag_3:\n      callvalue\n      dup1\n      iszero\n      tag_40\n      jumpi\n      0x00\n      dup1\n      revert\n    tag_40:\n      pop\n      tag_41\n      0x04\n      dup1\n      calldatasize\n      sub\n      dup2\n      add\n      swap1\n      tag_42\n      swap2\n      swap1\n      tag_43\n      jump\t// in\n    tag_42:\n      tag_44\n      jump\t// in\n    tag_41:\n      stop\n        /* \"temp.sol\":6699:7149  function owner__account_unlock(string memory vault_id,address user_address) external {... */\n    tag_4:\n      callvalue\n      dup1\n      iszero\n      tag_45\n      jumpi\n      0x00\n      dup1\n      revert\n    tag_45:\n      pop\n      tag_46\n      0x04\n      dup1\n      calldatasize\n      sub\n      dup2\n      add\n      swap1\n      tag_47\n      swap2\n      swap1\n      tag_43\n      jump\t// in\n    tag_47:\n      tag_48\n      jump\t// in\n    tag_46:\n      stop\n        /* \"temp.sol\":5539:5753  function owner__set_auto(string memory vault_id,bool is_auto) external {... */\n    tag_5:\n      callvalue\n      dup1\n      iszero\n      tag_49\n      jumpi\n      0x00\n      dup1\n      revert\n    tag_49:\n      pop\n      tag_50\n      0x04\n      dup1\n      calldatasize\n      sub\n      dup2\n      add\n      swap1\n      tag_51\n      swap2\n      swap1\n      tag_52\n      jump\t// in\n    tag_51:\n      tag_53\n      jump\t// in\n    tag_50:\n      stop\n        /* \"temp.sol\":1121:1167  mapping(string => Vault) public g__VaultLookup */\n    tag_6:\n      callvalue\n      dup1\n      iszero\n      tag_54\n      jumpi\n      0x00\n      dup1\n      revert\n    tag_54:\n      pop\n      tag_55\n      0x04\n      dup1\n      calldatasize\n      sub\n      dup2\n      add\n      swap1\n      tag_56\n      swap2\n      swap1\n      tag_57\n      jump\t// in\n    tag_56:\n      tag_58\n      jump\t// in\n    tag_55:\n      mload(0x40)\n      tag_59\n      swap12\n      swap11\n      swap10\n      swap9\n      swap8\n      swap7\n      swap6\n      swap5\n      swap4\n      swap3\n      swap2\n      swap1\n      tag_60\n      jump\t// in\n    tag_59:\n      mload(0x40)\n      dup1\n      swap2\n      sub\n      swap1\n      return\n        /* \"temp.sol\":12219:12822  function owner__withdraw_reject(string memory vault_id,address user_address,string memory withdraw_id) external {... */\n    tag_7:\n      callvalue\n      dup1\n      iszero\n      tag_61\n      jumpi\n      0x00\n      dup1\n      revert\n    tag_61:\n      pop\n      tag_62\n      0x04\n      dup1\n      calldatasize\n      sub\n      dup2\n      add\n      swap1\n      tag_63\n      swap2\n      swap1\n      tag_36\n      jump\t// in\n    tag_63:\n      tag_64\n      jump\t// in\n    tag_62:\n      stop\n        /* \"temp.sol\":3177:3333  function site__add_support(address user) external {... */\n    tag_8:\n      callvalue\n      dup1\n      iszero\n      tag_65\n      jumpi\n      0x00\n      dup1\n      revert\n    tag_65:\n      pop\n      tag_66\n      0x04\n      dup1\n      calldatasize\n      sub\n      dup2\n      add\n      swap1\n      tag_67\n      swap2\n      swap1\n      tag_68\n      jump\t// in\n    tag_67:\n      tag_69\n      jump\t// in\n    tag_66:\n      stop\n        /* \"temp.sol\":2996:3171  function site__change_authority(address new_authority) external {... */\n    tag_9:\n      callvalue\n      dup1\n      iszero\n      tag_70\n      jumpi\n      0x00\n      dup1\n      revert\n    tag_70:\n      pop\n      tag_71\n      0x04\n      dup1\n      calldatasize\n      sub\n      dup2\n      add\n      swap1\n      tag_72\n      swap2\n      swap1\n      tag_68\n      jump\t// in\n    tag_72:\n      tag_73\n      jump\t// in\n    tag_71:\n      stop\n        /* \"temp.sol\":7836:8372  function user__arbitration_unvote(string memory vault_id) external {... */\n    tag_10:\n      callvalue\n      dup1\n      iszero\n      tag_74\n      jumpi\n      0x00\n      dup1\n      revert\n    tag_74:\n      pop\n      tag_75\n      0x04\n      dup1\n      calldatasize\n      sub\n      dup2\n      add\n      swap1\n      tag_76\n      swap2\n      swap1\n      tag_57\n      jump\t// in\n    tag_76:\n      tag_77\n      jump\t// in\n    tag_75:\n      stop\n        /* \"temp.sol\":12828:13300  function user__withdraw_self(string memory vault_id,string memory withdraw_id) external {... */\n    tag_11:\n      callvalue\n      dup1\n      iszero\n      tag_78\n      jumpi\n      0x00\n      dup1\n      revert\n    tag_78:\n      pop\n      tag_79\n      0x04\n      dup1\n      calldatasize\n      sub\n      dup2\n      add\n      swap1\n      tag_80\n      swap2\n      swap1\n      tag_81\n      jump\t// in\n    tag_80:\n      tag_82\n      jump\t// in\n    tag_79:\n      stop\n        /* \"temp.sol\":9579:10178  function site__withdraw_confirm(string memory vault_id,address user_address,string memory withdraw_id,uint amount) external {... */\n    tag_12:\n      callvalue\n      dup1\n      iszero\n      tag_83\n      jumpi\n      0x00\n      dup1\n      revert\n    tag_83:\n      pop\n      tag_84\n      0x04\n      dup1\n      calldatasize\n      sub\n      dup2\n      add\n      swap1\n      tag_85\n      swap2\n      swap1\n      tag_86\n      jump\t// in\n    tag_85:\n      tag_87\n      jump\t// in\n    tag_84:\n      stop\n        /* \"temp.sol\":3470:4296  function site__vault_create(string memory vault_id,string memory name,address owner,uint16 vault_tax_rate,uint vault_tax_max,uint vault_withdraw_min,uint vault_withdraw_max) external {... */\n    tag_13:\n      callvalue\n      dup1\n      iszero\n      tag_88\n      jumpi\n      0x00\n      dup1\n      revert\n    tag_88:\n      pop\n      tag_89\n      0x04\n      dup1\n      calldatasize\n      sub\n      dup2\n      add\n      swap1\n      tag_90\n      swap2\n      swap1\n      tag_91\n      jump\t// in\n    tag_90:\n      tag_92\n      jump\t// in\n    tag_89:\n      stop\n        /* \"temp.sol\":347:378  address public g__SiteAuthority */\n    tag_14:\n      callvalue\n      dup1\n      iszero\n      tag_93\n      jumpi\n      0x00\n      dup1\n      revert\n    tag_93:\n      pop\n      tag_94\n      tag_95\n      jump\t// in\n    tag_94:\n      mload(0x40)\n      tag_96\n      swap2\n      swap1\n      tag_97\n      jump\t// in\n    tag_96:\n      mload(0x40)\n      dup1\n      swap2\n      sub\n      swap1\n      return\n        /* \"temp.sol\":1087:1114  uint16 public g__VaultCount */\n    tag_15:\n      callvalue\n      dup1\n      iszero\n      tag_98\n      jumpi\n      0x00\n      dup1\n      revert\n    tag_98:\n      pop\n      tag_99\n      tag_100\n      jump\t// in\n    tag_99:\n      mload(0x40)\n      tag_101\n      swap2\n      swap1\n      tag_102\n      jump\t// in\n    tag_101:\n      mload(0x40)\n      dup1\n      swap2\n      sub\n      swap1\n      return\n        /* \"temp.sol\":6236:6693  function owner__account_lock(string memory vault_id,address user_address) external {... */\n    tag_16:\n      callvalue\n      dup1\n      iszero\n      tag_103\n      jumpi\n      0x00\n      dup1\n      revert\n    tag_103:\n      pop\n      tag_104\n      0x04\n      dup1\n      calldatasize\n      sub\n      dup2\n      add\n      swap1\n      tag_105\n      swap2\n      swap1\n      tag_43\n      jump\t// in\n    tag_105:\n      tag_106\n      jump\t// in\n    tag_104:\n      stop\n        /* \"temp.sol\":7155:7830  function user__arbitration_vote(string memory vault_id) external {... */\n    tag_17:\n      callvalue\n      dup1\n      iszero\n      tag_107\n      jumpi\n      0x00\n      dup1\n      revert\n    tag_107:\n      pop\n      tag_108\n      0x04\n      dup1\n      calldatasize\n      sub\n      dup2\n      add\n      swap1\n      tag_109\n      swap2\n      swap1\n      tag_57\n      jump\t// in\n    tag_109:\n      tag_110\n      jump\t// in\n    tag_108:\n      stop\n        /* \"temp.sol\":8378:9573  function user__withdraw_request(string memory vault_id,string memory withdraw_id,uint amount) external {... */\n    tag_18:\n      callvalue\n      dup1\n      iszero\n      tag_111\n      jumpi\n      0x00\n      dup1\n      revert\n    tag_111:\n      pop\n      tag_112\n      0x04\n      dup1\n      calldatasize\n      sub\n      dup2\n      add\n      swap1\n      tag_113\n      swap2\n      swap1\n      tag_114\n      jump\t// in\n    tag_113:\n      tag_115\n      jump\t// in\n    tag_112:\n      stop\n        /* \"temp.sol\":13306:13678  function user__account_deposit(string memory vault_id) external payable {... */\n    tag_19:\n      tag_116\n      0x04\n      dup1\n      calldatasize\n      sub\n      dup2\n      add\n      swap1\n      tag_117\n      swap2\n      swap1\n      tag_57\n      jump\t// in\n    tag_117:\n      tag_118\n      jump\t// in\n    tag_116:\n      stop\n        /* \"temp.sol\":1174:1249  mapping(string => mapping(address => VaultAccount)) public g__VaultAccounts */\n    tag_20:\n      callvalue\n      dup1\n      iszero\n      tag_119\n      jumpi\n      0x00\n      dup1\n      revert\n    tag_119:\n      pop\n      tag_120\n      0x04\n      dup1\n      calldatasize\n      sub\n      dup2\n      add\n      swap1\n      tag_121\n      swap2\n      swap1\n      tag_43\n      jump\t// in\n    tag_121:\n      tag_122\n      jump\t// in\n    tag_120:\n      mload(0x40)\n      tag_123\n      swap5\n      swap4\n      swap3\n      swap2\n      swap1\n      tag_124\n      jump\t// in\n    tag_123:\n      mload(0x40)\n      dup1\n      swap2\n      sub\n      swap1\n      return\n        /* \"temp.sol\":11697:12213  function owner__withdraw_approve(string memory vault_id,address user_address,string memory withdraw_id,uint amount) external {... */\n    tag_21:\n      callvalue\n      dup1\n      iszero\n      tag_125\n      jumpi\n      0x00\n      dup1\n      revert\n    tag_125:\n      pop\n      tag_126\n      0x04\n      dup1\n      calldatasize\n      sub\n      dup2\n      add\n      swap1\n      tag_127\n      swap2\n      swap1\n      tag_86\n      jump\t// in\n    tag_127:\n      tag_128\n      jump\t// in\n    tag_126:\n      stop\n        /* \"temp.sol\":10184:10777  function site__withdraw_reject(string memory vault_id,address user_address,string memory withdraw_id) external {... */\n    tag_22:\n      callvalue\n      dup1\n      iszero\n      tag_129\n      jumpi\n      0x00\n      dup1\n      revert\n    tag_129:\n      pop\n      tag_130\n      0x04\n      dup1\n      calldatasize\n      sub\n      dup2\n      add\n      swap1\n      tag_131\n      swap2\n      swap1\n      tag_36\n      jump\t// in\n    tag_131:\n      tag_132\n      jump\t// in\n    tag_130:\n      stop\n        /* \"temp.sol\":5759:6230  function owner__account_open_confirm(string memory vault_id,address user_address) external {... */\n    tag_23:\n      callvalue\n      dup1\n      iszero\n      tag_133\n      jumpi\n      0x00\n      dup1\n      revert\n    tag_133:\n      pop\n      tag_134\n      0x04\n      dup1\n      calldatasize\n      sub\n      dup2\n      add\n      swap1\n      tag_135\n      swap2\n      swap1\n      tag_43\n      jump\t// in\n    tag_135:\n      tag_136\n      jump\t// in\n    tag_134:\n      stop\n        /* \"temp.sol\":438:479  uint16 public g__SiteArbitrationThreshold */\n    tag_24:\n      callvalue\n      dup1\n      iszero\n      tag_137\n      jumpi\n      0x00\n      dup1\n      revert\n    tag_137:\n      pop\n      tag_138\n      tag_139\n      jump\t// in\n    tag_138:\n      mload(0x40)\n      tag_140\n      swap2\n      swap1\n      tag_102\n      jump\t// in\n    tag_140:\n      mload(0x40)\n      dup1\n      swap2\n      sub\n      swap1\n      return\n        /* \"temp.sol\":5036:5533  function site__account_close(string memory vault_id,address user_address) external {... */\n    tag_25:\n      callvalue\n      dup1\n      iszero\n      tag_141\n      jumpi\n      0x00\n      dup1\n      revert\n    tag_141:\n      pop\n      tag_142\n      0x04\n      dup1\n      calldatasize\n      sub\n      dup2\n      add\n      swap1\n      tag_143\n      swap2\n      swap1\n      tag_43\n      jump\t// in\n    tag_143:\n      tag_144\n      jump\t// in\n    tag_142:\n      stop\n        /* \"temp.sol\":385:431  mapping(address => bool) public g__SiteSupport */\n    tag_26:\n      callvalue\n      dup1\n      iszero\n      tag_145\n      jumpi\n      0x00\n      dup1\n      revert\n    tag_145:\n      pop\n      tag_146\n      0x04\n      dup1\n      calldatasize\n      sub\n      dup2\n      add\n      swap1\n      tag_147\n      swap2\n      swap1\n      tag_68\n      jump\t// in\n    tag_147:\n      tag_148\n      jump\t// in\n    tag_146:\n      mload(0x40)\n      tag_149\n      swap2\n      swap1\n      tag_150\n      jump\t// in\n    tag_149:\n      mload(0x40)\n      dup1\n      swap2\n      sub\n      swap1\n      return\n        /* \"temp.sol\":3339:3464  function site__remove_support(address user) external {... */\n    tag_27:\n      callvalue\n      dup1\n      iszero\n      tag_151\n      jumpi\n      0x00\n      dup1\n      revert\n    tag_151:\n      pop\n      tag_152\n      0x04\n      dup1\n      calldatasize\n      sub\n      dup2\n      add\n      swap1\n      tag_153\n      swap2\n      swap1\n      tag_68\n      jump\t// in\n    tag_153:\n      tag_154\n      jump\t// in\n    tag_152:\n      stop\n        /* \"temp.sol\":1256:1364  mapping(... */\n    tag_37:\n      0x05\n      dup4\n      dup1\n      mload\n      0x20\n      dup2\n      add\n      dup3\n      add\n      dup1\n      mload\n      dup5\n      dup3\n      mstore\n      0x20\n      dup4\n      add\n      0x20\n      dup6\n      add\n      keccak256\n      dup2\n      dup4\n      mstore\n      dup1\n      swap6\n      pop\n      pop\n      pop\n      pop\n      pop\n      pop\n      0x20\n      mstore\n      dup2\n      0x00\n      mstore\n      keccak256(0x00, 0x40)\n      dup2\n      dup1\n      mload\n      0x20\n      dup2\n      add\n      dup3\n      add\n      dup1\n      mload\n      dup5\n      dup3\n      mstore\n      0x20\n      dup4\n      add\n      0x20\n      dup6\n      add\n      keccak256\n      dup2\n      dup4\n      mstore\n      dup1\n      swap6\n      pop\n      pop\n      pop\n      pop\n      pop\n      pop\n      0x00\n      swap3\n      pop\n      swap3\n      pop\n      pop\n      pop\n      dup1\n      0x00\n      add\n      sload\n      swap1\n      dup1\n      0x01\n      add\n      0x00\n      swap1\n      sload\n      swap1\n      0x0100\n      exp\n      swap1\n      div\n      0xff\n      and\n      swap1\n      pop\n      dup3\n      jump\t// out\n        /* \"temp.sol\":4302:5030  function site__account_open(string memory vault_id,address user_address) external {... */\n    tag_44:\n        /* \"temp.sol\":4390:4418  ut__assert_admin(msg.sender) */\n      tag_156\n        /* \"temp.sol\":4407:4417  msg.sender */\n      caller\n        /* \"temp.sol\":4390:4406  ut__assert_admin */\n      tag_157\n        /* \"temp.sol\":4390:4418  ut__assert_admin(msg.sender) */\n      jump\t// in\n    tag_156:\n        /* \"temp.sol\":4475:4493  VaultStatus.Active */\n      0x01\n        /* \"temp.sol\":4440:4493  g__VaultLookup[vault_id].status == VaultStatus.Active */\n      0x03\n      dup2\n      gt\n      iszero\n      tag_158\n      jumpi\n      tag_159\n      tag_160\n      jump\t// in\n    tag_159:\n    tag_158:\n        /* \"temp.sol\":4440:4454  g__VaultLookup */\n      0x03\n        /* \"temp.sol\":4455:4463  vault_id */\n      dup4\n        /* \"temp.sol\":4440:4464  g__VaultLookup[vault_id] */\n      mload(0x40)\n      tag_161\n      swap2\n      swap1\n      tag_162\n      jump\t// in\n    tag_161:\n      swap1\n      dup2\n      mstore\n      0x20\n      add\n      mload(0x40)\n      dup1\n      swap2\n      sub\n      swap1\n      keccak256\n        /* \"temp.sol\":4440:4471  g__VaultLookup[vault_id].status */\n      0x00\n      add\n      0x00\n      swap1\n      sload\n      swap1\n      0x0100\n      exp\n      swap1\n      div\n      0xff\n      and\n        /* \"temp.sol\":4440:4493  g__VaultLookup[vault_id].status == VaultStatus.Active */\n      0x03\n      dup2\n      gt\n      iszero\n      tag_163\n      jumpi\n      tag_164\n      tag_160\n      jump\t// in\n    tag_164:\n    tag_163:\n      eq\n        /* \"temp.sol\":4439:4557  (g__VaultLookup[vault_id].status == VaultStatus.Active) || (g__VaultLookup[vault_id].status == VaultStatus.ActiveAuto) */\n      dup1\n      tag_165\n      jumpi\n      pop\n        /* \"temp.sol\":4534:4556  VaultStatus.ActiveAuto */\n      0x02\n        /* \"temp.sol\":4499:4556  g__VaultLookup[vault_id].status == VaultStatus.ActiveAuto */\n      0x03\n      dup2\n      gt\n      iszero\n      tag_166\n      jumpi\n      tag_167\n      tag_160\n      jump\t// in\n    tag_167:\n    tag_166:\n        /* \"temp.sol\":4499:4513  g__VaultLookup */\n      0x03\n        /* \"temp.sol\":4514:4522  vault_id */\n      dup4\n        /* \"temp.sol\":4499:4523  g__VaultLookup[vault_id] */\n      mload(0x40)\n      tag_168\n      swap2\n      swap1\n      tag_162\n      jump\t// in\n    tag_168:\n      swap1\n      dup2\n      mstore\n      0x20\n      add\n      mload(0x40)\n      dup1\n      swap2\n      sub\n      swap1\n      keccak256\n        /* \"temp.sol\":4499:4530  g__VaultLookup[vault_id].status */\n      0x00\n      add\n      0x00\n      swap1\n      sload\n      swap1\n      0x0100\n      exp\n      swap1\n      div\n      0xff\n      and\n        /* \"temp.sol\":4499:4556  g__VaultLookup[vault_id].status == VaultStatus.ActiveAuto */\n      0x03\n      dup2\n      gt\n      iszero\n      tag_169\n      jumpi\n      tag_170\n      tag_160\n      jump\t// in\n    tag_170:\n    tag_169:\n      eq\n        /* \"temp.sol\":4439:4557  (g__VaultLookup[vault_id].status == VaultStatus.Active) || (g__VaultLookup[vault_id].status == VaultStatus.ActiveAuto) */\n    tag_165:\n        /* \"temp.sol\":4424:4595  require(... */\n      tag_171\n      jumpi\n      mload(0x40)\n      0x08c379a000000000000000000000000000000000000000000000000000000000\n      dup2\n      mstore\n      0x04\n      add\n      tag_172\n      swap1\n      tag_173\n      jump\t// in\n    tag_172:\n      mload(0x40)\n      dup1\n      swap2\n      sub\n      swap1\n      revert\n    tag_171:\n        /* \"temp.sol\":4667:4695  VaultAccountStatus.Undefined */\n      0x00\n        /* \"temp.sol\":4616:4695  g__VaultAccounts[vault_id][user_address].status == VaultAccountStatus.Undefined */\n      0x03\n      dup2\n      gt\n      iszero\n      tag_174\n      jumpi\n      tag_175\n      tag_160\n      jump\t// in\n    tag_175:\n    tag_174:\n        /* \"temp.sol\":4616:4632  g__VaultAccounts */\n      0x04\n        /* \"temp.sol\":4633:4641  vault_id */\n      dup4\n        /* \"temp.sol\":4616:4642  g__VaultAccounts[vault_id] */\n      mload(0x40)\n      tag_176\n      swap2\n      swap1\n      tag_162\n      jump\t// in\n    tag_176:\n      swap1\n      dup2\n      mstore\n      0x20\n      add\n      mload(0x40)\n      dup1\n      swap2\n      sub\n      swap1\n      keccak256\n        /* \"temp.sol\":4616:4656  g__VaultAccounts[vault_id][user_address] */\n      0x00\n        /* \"temp.sol\":4643:4655  user_address */\n      dup4\n        /* \"temp.sol\":4616:4656  g__VaultAccounts[vault_id][user_address] */\n      0xffffffffffffffffffffffffffffffffffffffff\n      and\n      0xffffffffffffffffffffffffffffffffffffffff\n      and\n      dup2\n      mstore\n      0x20\n      add\n      swap1\n      dup2\n      mstore\n      0x20\n      add\n      0x00\n      keccak256\n        /* \"temp.sol\":4616:4663  g__VaultAccounts[vault_id][user_address].status */\n      0x00\n      add\n      0x00\n      swap1\n      sload\n      swap1\n      0x0100\n      exp\n      swap1\n      div\n      0xff\n      and\n        /* \"temp.sol\":4616:4695  g__VaultAccounts[vault_id][user_address].status == VaultAccountStatus.Undefined */\n      0x03\n      dup2\n      gt\n      iszero\n      tag_177\n      jumpi\n      tag_178\n      tag_160\n      jump\t// in\n    tag_178:\n    tag_177:\n      eq\n        /* \"temp.sol\":4601:4738  require(... */\n      tag_179\n      jumpi\n      mload(0x40)\n      0x08c379a000000000000000000000000000000000000000000000000000000000\n      dup2\n      mstore\n      0x04\n      add\n      tag_180\n      swap1\n      tag_181\n      jump\t// in\n    tag_180:\n      mload(0x40)\n      dup1\n      swap2\n      sub\n      swap1\n      revert\n    tag_179:\n        /* \"temp.sol\":4744:4771  VaultAccount memory account */\n      0x00\n        /* \"temp.sol\":4774:4827  VaultAccount(VaultAccountStatus.Requested,false,\"\",0) */\n      mload(0x40)\n      dup1\n      0x80\n      add\n      0x40\n      mstore\n      dup1\n        /* \"temp.sol\":4787:4815  VaultAccountStatus.Requested */\n      0x01\n        /* \"temp.sol\":4774:4827  VaultAccount(VaultAccountStatus.Requested,false,\"\",0) */\n      0x03\n      dup2\n      gt\n      iszero\n      tag_182\n      jumpi\n      tag_183\n      tag_160\n      jump\t// in\n    tag_183:\n    tag_182:\n      dup2\n      mstore\n      0x20\n      add\n        /* \"temp.sol\":4816:4821  false */\n      0x00\n        /* \"temp.sol\":4774:4827  VaultAccount(VaultAccountStatus.Requested,false,\"\",0) */\n      iszero\n      iszero\n      dup2\n      mstore\n      0x20\n      add\n      mload(0x40)\n      dup1\n      0x20\n      add\n      0x40\n      mstore\n      dup1\n      0x00\n      dup2\n      mstore\n      pop\n      dup2\n      mstore\n      0x20\n      add\n        /* \"temp.sol\":4825:4826  0 */\n      0x00\n        /* \"temp.sol\":4774:4827  VaultAccount(VaultAccountStatus.Requested,false,\"\",0) */\n      dup2\n      mstore\n      pop\n        /* \"temp.sol\":4744:4827  VaultAccount memory account = VaultAccount(VaultAccountStatus.Requested,false,\"\",0) */\n      swap1\n      pop\n        /* \"temp.sol\":4833:4853  uint16 total_players */\n      0x00\n        /* \"temp.sol\":4858:4872  g__VaultLookup */\n      0x03\n        /* \"temp.sol\":4873:4881  vault_id */\n      dup5\n        /* \"temp.sol\":4858:4882  g__VaultLookup[vault_id] */\n      mload(0x40)\n      tag_184\n      swap2\n      swap1\n      tag_162\n      jump\t// in\n    tag_184:\n      swap1\n      dup2\n      mstore\n      0x20\n      add\n      mload(0x40)\n      dup1\n      swap2\n      sub\n      swap1\n      keccak256\n        /* \"temp.sol\":4858:4896  g__VaultLookup[vault_id].total_players */\n      0x05\n      add\n      0x00\n        /* \"temp.sol\":4856:4896  ++g__VaultLookup[vault_id].total_players */\n      dup2\n      dup2\n      swap1\n      sload\n      swap1\n      0x0100\n      exp\n      swap1\n      div\n      0xffff\n      and\n      tag_185\n      swap1\n      tag_186\n      jump\t// in\n    tag_185:\n      swap2\n      swap1\n      0x0100\n      exp\n      dup2\n      sload\n      dup2\n      0xffff\n      mul\n      not\n      and\n      swap1\n      dup4\n      0xffff\n      and\n      mul\n      or\n      swap1\n      sstore\n        /* \"temp.sol\":4833:4896  uint16 total_players = ++g__VaultLookup[vault_id].total_players */\n      swap1\n      pop\n        /* \"temp.sol\":4945:4952  account */\n      dup2\n        /* \"temp.sol\":4902:4918  g__VaultAccounts */\n      0x04\n        /* \"temp.sol\":4919:4927  vault_id */\n      dup6\n        /* \"temp.sol\":4902:4928  g__VaultAccounts[vault_id] */\n      mload(0x40)\n      tag_187\n      swap2\n      swap1\n      tag_162\n      jump\t// in\n    tag_187:\n      swap1\n      dup2\n      mstore\n      0x20\n      add\n      mload(0x40)\n      dup1\n      swap2\n      sub\n      swap1\n      keccak256\n        /* \"temp.sol\":4902:4942  g__VaultAccounts[vault_id][user_address] */\n      0x00\n        /* \"temp.sol\":4929:4941  user_address */\n      dup6\n        /* \"temp.sol\":4902:4942  g__VaultAccounts[vault_id][user_address] */\n      0xffffffffffffffffffffffffffffffffffffffff\n      and\n      0xffffffffffffffffffffffffffffffffffffffff\n      and\n      dup2\n      mstore\n      0x20\n      add\n      swap1\n      dup2\n      mstore\n      0x20\n      add\n      0x00\n      keccak256\n        /* \"temp.sol\":4902:4952  g__VaultAccounts[vault_id][user_address] = account */\n      0x00\n      dup3\n      add\n      mload\n      dup2\n      0x00\n      add\n      exp(0x0100, 0x00)\n      dup2\n      sload\n      dup2\n      0xff\n      mul\n      not\n      and\n      swap1\n      dup4\n      0x03\n      dup2\n      gt\n      iszero\n      tag_188\n      jumpi\n      tag_189\n      tag_160\n      jump\t// in\n    tag_189:\n    tag_188:\n      mul\n      or\n      swap1\n      sstore\n      pop\n      0x20\n      dup3\n      add\n      mload\n      dup2\n      0x00\n      add\n      exp(0x0100, 0x01)\n      dup2\n      sload\n      dup2\n      0xff\n      mul\n      not\n      and\n      swap1\n      dup4\n      iszero\n      iszero\n      mul\n      or\n      swap1\n      sstore\n      pop\n      0x40\n      dup3\n      add\n      mload\n      dup2\n      0x01\n      add\n      swap1\n      dup2\n      tag_190\n      swap2\n      swap1\n      tag_191\n      jump\t// in\n    tag_190:\n      pop\n      0x60\n      dup3\n      add\n      mload\n      dup2\n      0x02\n      add\n      sstore\n      swap1\n      pop\n      pop\n        /* \"temp.sol\":4963:5025  VaultEvent(\"account_open\",vault_id,user_address,total_players) */\n      0x040768ee67403a1b2c45e2ee8e9c7cb4283d12bd31f8126de25122997535c1bb\n        /* \"temp.sol\":4989:4997  vault_id */\n      dup5\n        /* \"temp.sol\":4998:5010  user_address */\n      dup5\n        /* \"temp.sol\":5011:5024  total_players */\n      dup4\n        /* \"temp.sol\":4963:5025  VaultEvent(\"account_open\",vault_id,user_address,total_players) */\n      mload(0x40)\n      tag_192\n      swap4\n      swap3\n      swap2\n      swap1\n      tag_193\n      jump\t// in\n    tag_192:\n      mload(0x40)\n      dup1\n      swap2\n      sub\n      swap1\n      log1\n        /* \"temp.sol\":4384:5030  {... */\n      pop\n      pop\n        /* \"temp.sol\":4302:5030  function site__account_open(string memory vault_id,address user_address) external {... */\n      pop\n      pop\n      jump\t// out\n        /* \"temp.sol\":6699:7149  function owner__account_unlock(string memory vault_id,address user_address) external {... */\n    tag_48:\n        /* \"temp.sol\":6790:6827  ut__assert_owner(vault_id,msg.sender) */\n      tag_195\n        /* \"temp.sol\":6807:6815  vault_id */\n      dup3\n        /* \"temp.sol\":6816:6826  msg.sender */\n      caller\n        /* \"temp.sol\":6790:6806  ut__assert_owner */\n      tag_196\n        /* \"temp.sol\":6790:6827  ut__assert_owner(vault_id,msg.sender) */\n      jump\t// in\n    tag_195:\n        /* \"temp.sol\":6833:6860  VaultAccount memory account */\n      0x00\n        /* \"temp.sol\":6863:6901  ut__get_account(vault_id,user_address) */\n      tag_197\n        /* \"temp.sol\":6879:6887  vault_id */\n      dup4\n        /* \"temp.sol\":6888:6900  user_address */\n      dup4\n        /* \"temp.sol\":6863:6878  ut__get_account */\n      tag_198\n        /* \"temp.sol\":6863:6901  ut__get_account(vault_id,user_address) */\n      jump\t// in\n    tag_197:\n        /* \"temp.sol\":6833:6901  VaultAccount memory account = ut__get_account(vault_id,user_address) */\n      swap1\n      pop\n        /* \"temp.sol\":6940:6965  VaultAccountStatus.Locked */\n      0x03\n        /* \"temp.sol\":6922:6965  account.status == VaultAccountStatus.Locked */\n      dup1\n      dup2\n      gt\n      iszero\n      tag_199\n      jumpi\n      tag_200\n      tag_160\n      jump\t// in\n    tag_200:\n    tag_199:\n        /* \"temp.sol\":6922:6929  account */\n      dup2\n        /* \"temp.sol\":6922:6936  account.status */\n      0x00\n      add\n      mload\n        /* \"temp.sol\":6922:6965  account.status == VaultAccountStatus.Locked */\n      0x03\n      dup2\n      gt\n      iszero\n      tag_201\n      jumpi\n      tag_202\n      tag_160\n      jump\t// in\n    tag_202:\n    tag_201:\n      eq\n        /* \"temp.sol\":6907:7000  require(... */\n      tag_203\n      jumpi\n      mload(0x40)\n      0x08c379a000000000000000000000000000000000000000000000000000000000\n      dup2\n      mstore\n      0x04\n      add\n      tag_204\n      swap1\n      tag_205\n      jump\t// in\n    tag_204:\n      mload(0x40)\n      dup1\n      swap2\n      sub\n      swap1\n      revert\n    tag_203:\n        /* \"temp.sol\":7056:7081  VaultAccountStatus.Active */\n      0x02\n        /* \"temp.sol\":7006:7022  g__VaultAccounts */\n      0x04\n        /* \"temp.sol\":7023:7031  vault_id */\n      dup5\n        /* \"temp.sol\":7006:7032  g__VaultAccounts[vault_id] */\n      mload(0x40)\n      tag_206\n      swap2\n      swap1\n      tag_162\n      jump\t// in\n    tag_206:\n      swap1\n      dup2\n      mstore\n      0x20\n      add\n      mload(0x40)\n      dup1\n      swap2\n      sub\n      swap1\n      keccak256\n        /* \"temp.sol\":7006:7046  g__VaultAccounts[vault_id][user_address] */\n      0x00\n        /* \"temp.sol\":7033:7045  user_address */\n      dup5\n        /* \"temp.sol\":7006:7046  g__VaultAccounts[vault_id][user_address] */\n      0xffffffffffffffffffffffffffffffffffffffff\n      and\n      0xffffffffffffffffffffffffffffffffffffffff\n      and\n      dup2\n      mstore\n      0x20\n      add\n      swap1\n      dup2\n      mstore\n      0x20\n      add\n      0x00\n      keccak256\n        /* \"temp.sol\":7006:7053  g__VaultAccounts[vault_id][user_address].status */\n      0x00\n      add\n      0x00\n        /* \"temp.sol\":7006:7081  g__VaultAccounts[vault_id][user_address].status = VaultAccountStatus.Active */\n      0x0100\n      exp\n      dup2\n      sload\n      dup2\n      0xff\n      mul\n      not\n      and\n      swap1\n      dup4\n      0x03\n      dup2\n      gt\n      iszero\n      tag_207\n      jumpi\n      tag_208\n      tag_160\n      jump\t// in\n    tag_208:\n    tag_207:\n      mul\n      or\n      swap1\n      sstore\n      pop\n        /* \"temp.sol\":7092:7144  VaultEvent(\"account_unlock\",vault_id,user_address,0) */\n      0x040768ee67403a1b2c45e2ee8e9c7cb4283d12bd31f8126de25122997535c1bb\n        /* \"temp.sol\":7120:7128  vault_id */\n      dup4\n        /* \"temp.sol\":7129:7141  user_address */\n      dup4\n        /* \"temp.sol\":7142:7143  0 */\n      0x00\n        /* \"temp.sol\":7092:7144  VaultEvent(\"account_unlock\",vault_id,user_address,0) */\n      mload(0x40)\n      tag_209\n      swap4\n      swap3\n      swap2\n      swap1\n      tag_210\n      jump\t// in\n    tag_209:\n      mload(0x40)\n      dup1\n      swap2\n      sub\n      swap1\n      log1\n        /* \"temp.sol\":6784:7149  {... */\n      pop\n        /* \"temp.sol\":6699:7149  function owner__account_unlock(string memory vault_id,address user_address) external {... */\n      pop\n      pop\n      jump\t// out\n        /* \"temp.sol\":5539:5753  function owner__set_auto(string memory vault_id,bool is_auto) external {... */\n    tag_53:\n        /* \"temp.sol\":5616:5653  ut__assert_owner(vault_id,msg.sender) */\n      tag_212\n        /* \"temp.sol\":5633:5641  vault_id */\n      dup3\n        /* \"temp.sol\":5642:5652  msg.sender */\n      caller\n        /* \"temp.sol\":5616:5632  ut__assert_owner */\n      tag_196\n        /* \"temp.sol\":5616:5653  ut__assert_owner(vault_id,msg.sender) */\n      jump\t// in\n    tag_212:\n        /* \"temp.sol\":5694:5701  is_auto */\n      dup1\n        /* \"temp.sol\":5694:5747  is_auto ? VaultStatus.ActiveAuto : VaultStatus.Active */\n      tag_213\n      jumpi\n        /* \"temp.sol\":5729:5747  VaultStatus.Active */\n      0x01\n        /* \"temp.sol\":5694:5747  is_auto ? VaultStatus.ActiveAuto : VaultStatus.Active */\n      jump(tag_214)\n    tag_213:\n        /* \"temp.sol\":5704:5726  VaultStatus.ActiveAuto */\n      0x02\n        /* \"temp.sol\":5694:5747  is_auto ? VaultStatus.ActiveAuto : VaultStatus.Active */\n    tag_214:\n        /* \"temp.sol\":5659:5673  g__VaultLookup */\n      0x03\n        /* \"temp.sol\":5674:5682  vault_id */\n      dup4\n        /* \"temp.sol\":5659:5683  g__VaultLookup[vault_id] */\n      mload(0x40)\n      tag_215\n      swap2\n      swap1\n      tag_162\n      jump\t// in\n    tag_215:\n      swap1\n      dup2\n      mstore\n      0x20\n      add\n      mload(0x40)\n      dup1\n      swap2\n      sub\n      swap1\n      keccak256\n        /* \"temp.sol\":5659:5690  g__VaultLookup[vault_id].status */\n      0x00\n      add\n      0x00\n        /* \"temp.sol\":5659:5748  g__VaultLookup[vault_id].status = (is_auto ? VaultStatus.ActiveAuto : VaultStatus.Active) */\n      0x0100\n      exp\n      dup2\n      sload\n      dup2\n      0xff\n      mul\n      not\n      and\n      swap1\n      dup4\n      0x03\n      dup2\n      gt\n      iszero\n      tag_216\n      jumpi\n      tag_217\n      tag_160\n      jump\t// in\n    tag_217:\n    tag_216:\n      mul\n      or\n      swap1\n      sstore\n      pop\n        /* \"temp.sol\":5539:5753  function owner__set_auto(string memory vault_id,bool is_auto) external {... */\n      pop\n      pop\n      jump\t// out\n        /* \"temp.sol\":1121:1167  mapping(string => Vault) public g__VaultLookup */\n    tag_58:\n      0x03\n      dup2\n      dup1\n      mload\n      0x20\n      dup2\n      add\n      dup3\n      add\n      dup1\n      mload\n      dup5\n      dup3\n      mstore\n      0x20\n      dup4\n      add\n      0x20\n      dup6\n      add\n      keccak256\n      dup2\n      dup4\n      mstore\n      dup1\n      swap6\n      pop\n      pop\n      pop\n      pop\n      pop\n      pop\n      0x00\n      swap2\n      pop\n      swap1\n      pop\n      dup1\n      0x00\n      add\n      0x00\n      swap1\n      sload\n      swap1\n      0x0100\n      exp\n      swap1\n      div\n      0xff\n      and\n      swap1\n      dup1\n      0x01\n      add\n      dup1\n      sload\n      tag_218\n      swap1\n      tag_219\n      jump\t// in\n    tag_218:\n      dup1\n      0x1f\n      add\n      0x20\n      dup1\n      swap2\n      div\n      mul\n      0x20\n      add\n      mload(0x40)\n      swap1\n      dup2\n      add\n      0x40\n      mstore\n      dup1\n      swap3\n      swap2\n      swap1\n      dup2\n      dup2\n      mstore\n      0x20\n      add\n      dup3\n      dup1\n      sload\n      tag_220\n      swap1\n      tag_219\n      jump\t// in\n    tag_220:\n      dup1\n      iszero\n      tag_221\n      jumpi\n      dup1\n      0x1f\n      lt\n      tag_222\n      jumpi\n      0x0100\n      dup1\n      dup4\n      sload\n      div\n      mul\n      dup4\n      mstore\n      swap2\n      0x20\n      add\n      swap2\n      jump(tag_221)\n    tag_222:\n      dup3\n      add\n      swap2\n      swap1\n      0x00\n      mstore\n      keccak256(0x00, 0x20)\n      swap1\n    tag_223:\n      dup2\n      sload\n      dup2\n      mstore\n      swap1\n      0x01\n      add\n      swap1\n      0x20\n      add\n      dup1\n      dup4\n      gt\n      tag_223\n      jumpi\n      dup3\n      swap1\n      sub\n      0x1f\n      and\n      dup3\n      add\n      swap2\n    tag_221:\n      pop\n      pop\n      pop\n      pop\n      pop\n      swap1\n      dup1\n      0x02\n      add\n      0x00\n      swap1\n      sload\n      swap1\n      0x0100\n      exp\n      swap1\n      div\n      0xffffffffffffffffffffffffffffffffffffffff\n      and\n      swap1\n      dup1\n      0x03\n      add\n      sload\n      swap1\n      dup1\n      0x04\n      add\n      sload\n      swap1\n      dup1\n      0x05\n      add\n      0x00\n      swap1\n      sload\n      swap1\n      0x0100\n      exp\n      swap1\n      div\n      0xffff\n      and\n      swap1\n      dup1\n      0x05\n      add\n      0x02\n      swap1\n      sload\n      swap1\n      0x0100\n      exp\n      swap1\n      div\n      0xffff\n      and\n      swap1\n      dup1\n      0x05\n      add\n      0x04\n      swap1\n      sload\n      swap1\n      0x0100\n      exp\n      swap1\n      div\n      0xffff\n      and\n      swap1\n      dup1\n      0x06\n      add\n      sload\n      swap1\n      dup1\n      0x07\n      add\n      sload\n      swap1\n      dup1\n      0x08\n      add\n      sload\n      swap1\n      pop\n      dup12\n      jump\t// out\n        /* \"temp.sol\":12219:12822  function owner__withdraw_reject(string memory vault_id,address user_address,string memory withdraw_id) external {... */\n    tag_64:\n        /* \"temp.sol\":12337:12374  ut__assert_owner(vault_id,msg.sender) */\n      tag_225\n        /* \"temp.sol\":12354:12362  vault_id */\n      dup4\n        /* \"temp.sol\":12363:12373  msg.sender */\n      caller\n        /* \"temp.sol\":12337:12353  ut__assert_owner */\n      tag_196\n        /* \"temp.sol\":12337:12374  ut__assert_owner(vault_id,msg.sender) */\n      jump\t// in\n    tag_225:\n        /* \"temp.sol\":12380:12410  WithdrawRequest memory request */\n      0x00\n        /* \"temp.sol\":12413:12432  g__VaultWithdrawals */\n      0x05\n        /* \"temp.sol\":12433:12441  vault_id */\n      dup5\n        /* \"temp.sol\":12413:12442  g__VaultWithdrawals[vault_id] */\n      mload(0x40)\n      tag_226\n      swap2\n      swap1\n      tag_162\n      jump\t// in\n    tag_226:\n      swap1\n      dup2\n      mstore\n      0x20\n      add\n      mload(0x40)\n      dup1\n      swap2\n      sub\n      swap1\n      keccak256\n        /* \"temp.sol\":12413:12456  g__VaultWithdrawals[vault_id][user_address] */\n      0x00\n        /* \"temp.sol\":12443:12455  user_address */\n      dup5\n        /* \"temp.sol\":12413:12456  g__VaultWithdrawals[vault_id][user_address] */\n      0xffffffffffffffffffffffffffffffffffffffff\n      and\n      0xffffffffffffffffffffffffffffffffffffffff\n      and\n      dup2\n      mstore\n      0x20\n      add\n      swap1\n      dup2\n      mstore\n      0x20\n      add\n      0x00\n      keccak256\n        /* \"temp.sol\":12457:12468  withdraw_id */\n      dup3\n        /* \"temp.sol\":12413:12469  g__VaultWithdrawals[vault_id][user_address][withdraw_id] */\n      mload(0x40)\n      tag_227\n      swap2\n      swap1\n      tag_162\n      jump\t// in\n    tag_227:\n      swap1\n      dup2\n      mstore\n      0x20\n      add\n      mload(0x40)\n      dup1\n      swap2\n      sub\n      swap1\n      keccak256\n        /* \"temp.sol\":12380:12469  WithdrawRequest memory request = g__VaultWithdrawals[vault_id][user_address][withdraw_id] */\n      mload(0x40)\n      dup1\n      0x40\n      add\n      0x40\n      mstore\n      swap1\n      dup2\n      0x00\n      dup3\n      add\n      sload\n      dup2\n      mstore\n      0x20\n      add\n      0x01\n      dup3\n      add\n      0x00\n      swap1\n      sload\n      swap1\n      0x0100\n      exp\n      swap1\n      div\n      0xff\n      and\n      0x05\n      dup2\n      gt\n      iszero\n      tag_228\n      jumpi\n      tag_229\n      tag_160\n      jump\t// in\n    tag_229:\n    tag_228:\n      0x05\n      dup2\n      gt\n      iszero\n      tag_230\n      jumpi\n      tag_231\n      tag_160\n      jump\t// in\n    tag_231:\n    tag_230:\n      dup2\n      mstore\n      pop\n      pop\n      swap1\n      pop\n        /* \"temp.sol\":12508:12536  VaultRequestStatus.Confirmed */\n      0x02\n        /* \"temp.sol\":12490:12536  request.status == VaultRequestStatus.Confirmed */\n      0x05\n      dup2\n      gt\n      iszero\n      tag_232\n      jumpi\n      tag_233\n      tag_160\n      jump\t// in\n    tag_233:\n    tag_232:\n        /* \"temp.sol\":12490:12497  request */\n      dup2\n        /* \"temp.sol\":12490:12504  request.status */\n      0x20\n      add\n      mload\n        /* \"temp.sol\":12490:12536  request.status == VaultRequestStatus.Confirmed */\n      0x05\n      dup2\n      gt\n      iszero\n      tag_234\n      jumpi\n      tag_235\n      tag_160\n      jump\t// in\n    tag_235:\n    tag_234:\n      eq\n        /* \"temp.sol\":12475:12574  require(... */\n      tag_236\n      jumpi\n      mload(0x40)\n      0x08c379a000000000000000000000000000000000000000000000000000000000\n      dup2\n      mstore\n      0x04\n      add\n      tag_237\n      swap1\n      tag_238\n      jump\t// in\n    tag_237:\n      mload(0x40)\n      dup1\n      swap2\n      sub\n      swap1\n      revert\n    tag_236:\n        /* \"temp.sol\":12646:12673  VaultRequestStatus.Rejected */\n      0x04\n        /* \"temp.sol\":12580:12599  g__VaultWithdrawals */\n      0x05\n        /* \"temp.sol\":12600:12608  vault_id */\n      dup6\n        /* \"temp.sol\":12580:12609  g__VaultWithdrawals[vault_id] */\n      mload(0x40)\n      tag_239\n      swap2\n      swap1\n      tag_162\n      jump\t// in\n    tag_239:\n      swap1\n      dup2\n      mstore\n      0x20\n      add\n      mload(0x40)\n      dup1\n      swap2\n      sub\n      swap1\n      keccak256\n        /* \"temp.sol\":12580:12623  g__VaultWithdrawals[vault_id][user_address] */\n      0x00\n        /* \"temp.sol\":12610:12622  user_address */\n      dup6\n        /* \"temp.sol\":12580:12623  g__VaultWithdrawals[vault_id][user_address] */\n      0xffffffffffffffffffffffffffffffffffffffff\n      and\n      0xffffffffffffffffffffffffffffffffffffffff\n      and\n      dup2\n      mstore\n      0x20\n      add\n      swap1\n      dup2\n      mstore\n      0x20\n      add\n      0x00\n      keccak256\n        /* \"temp.sol\":12624:12635  withdraw_id */\n      dup4\n        /* \"temp.sol\":12580:12636  g__VaultWithdrawals[vault_id][user_address][withdraw_id] */\n      mload(0x40)\n      tag_240\n      swap2\n      swap1\n      tag_162\n      jump\t// in\n    tag_240:\n      swap1\n      dup2\n      mstore\n      0x20\n      add\n      mload(0x40)\n      dup1\n      swap2\n      sub\n      swap1\n      keccak256\n        /* \"temp.sol\":12580:12643  g__VaultWithdrawals[vault_id][user_address][withdraw_id].status */\n      0x01\n      add\n      0x00\n        /* \"temp.sol\":12580:12673  g__VaultWithdrawals[vault_id][user_address][withdraw_id].status = VaultRequestStatus.Rejected */\n      0x0100\n      exp\n      dup2\n      sload\n      dup2\n      0xff\n      mul\n      not\n      and\n      swap1\n      dup4\n      0x05\n      dup2\n      gt\n      iszero\n      tag_241\n      jumpi\n      tag_242\n      tag_160\n      jump\t// in\n    tag_242:\n    tag_241:\n      mul\n      or\n      swap1\n      sstore\n      pop\n        /* \"temp.sol\":12723:12730  request */\n      dup1\n        /* \"temp.sol\":12723:12737  request.amount */\n      0x00\n      add\n      mload\n        /* \"temp.sol\":12679:12693  g__VaultLookup */\n      0x03\n        /* \"temp.sol\":12694:12702  vault_id */\n      dup6\n        /* \"temp.sol\":12679:12703  g__VaultLookup[vault_id] */\n      mload(0x40)\n      tag_243\n      swap2\n      swap1\n      tag_162\n      jump\t// in\n    tag_243:\n      swap1\n      dup2\n      mstore\n      0x20\n      add\n      mload(0x40)\n      dup1\n      swap2\n      sub\n      swap1\n      keccak256\n        /* \"temp.sol\":12679:12719  g__VaultLookup[vault_id].total_requested */\n      0x04\n      add\n      0x00\n        /* \"temp.sol\":12679:12737  g__VaultLookup[vault_id].total_requested -= request.amount */\n      dup3\n      dup3\n      sload\n      tag_244\n      swap2\n      swap1\n      tag_245\n      jump\t// in\n    tag_244:\n      swap3\n      pop\n      pop\n      dup2\n      swap1\n      sstore\n      pop\n        /* \"temp.sol\":12748:12817  VaultEvent(\"withdraw_reject\",withdraw_id,user_address,request.amount) */\n      0x040768ee67403a1b2c45e2ee8e9c7cb4283d12bd31f8126de25122997535c1bb\n        /* \"temp.sol\":12777:12788  withdraw_id */\n      dup3\n        /* \"temp.sol\":12789:12801  user_address */\n      dup5\n        /* \"temp.sol\":12802:12809  request */\n      dup4\n        /* \"temp.sol\":12802:12816  request.amount */\n      0x00\n      add\n      mload\n        /* \"temp.sol\":12748:12817  VaultEvent(\"withdraw_reject\",withdraw_id,user_address,request.amount) */\n      mload(0x40)\n      tag_246\n      swap4\n      swap3\n      swap2\n      swap1\n      tag_247\n      jump\t// in\n    tag_246:\n      mload(0x40)\n      dup1\n      swap2\n      sub\n      swap1\n      log1\n        /* \"temp.sol\":12331:12822  {... */\n      pop\n        /* \"temp.sol\":12219:12822  function owner__withdraw_reject(string memory vault_id,address user_address,string memory withdraw_id) external {... */\n      pop\n      pop\n      pop\n      jump\t// out\n        /* \"temp.sol\":3177:3333  function site__add_support(address user) external {... */\n    tag_69:\n        /* \"temp.sol\":3255:3271  g__SiteAuthority */\n      0x00\n      dup1\n      sload\n      swap1\n      0x0100\n      exp\n      swap1\n      div\n      0xffffffffffffffffffffffffffffffffffffffff\n      and\n        /* \"temp.sol\":3241:3271  msg.sender == g__SiteAuthority */\n      0xffffffffffffffffffffffffffffffffffffffff\n      and\n        /* \"temp.sol\":3241:3251  msg.sender */\n      caller\n        /* \"temp.sol\":3241:3271  msg.sender == g__SiteAuthority */\n      0xffffffffffffffffffffffffffffffffffffffff\n      and\n      eq\n        /* \"temp.sol\":3233:3295  require(msg.sender == g__SiteAuthority,\"Site authority only.\") */\n      tag_249\n      jumpi\n      mload(0x40)\n      0x08c379a000000000000000000000000000000000000000000000000000000000\n      dup2\n      mstore\n      0x04\n      add\n      tag_250\n      swap1\n      tag_251\n      jump\t// in\n    tag_250:\n      mload(0x40)\n      dup1\n      swap2\n      sub\n      swap1\n      revert\n    tag_249:\n        /* \"temp.sol\":3324:3328  true */\n      0x01\n        /* \"temp.sol\":3301:3315  g__SiteSupport */\n      dup1\n        /* \"temp.sol\":3301:3321  g__SiteSupport[user] */\n      0x00\n        /* \"temp.sol\":3316:3320  user */\n      dup4\n        /* \"temp.sol\":3301:3321  g__SiteSupport[user] */\n      0xffffffffffffffffffffffffffffffffffffffff\n      and\n      0xffffffffffffffffffffffffffffffffffffffff\n      and\n      dup2\n      mstore\n      0x20\n      add\n      swap1\n      dup2\n      mstore\n      0x20\n      add\n      0x00\n      keccak256\n      0x00\n        /* \"temp.sol\":3301:3328  g__SiteSupport[user] = true */\n      0x0100\n      exp\n      dup2\n      sload\n      dup2\n      0xff\n      mul\n      not\n      and\n      swap1\n      dup4\n      iszero\n      iszero\n      mul\n      or\n      swap1\n      sstore\n      pop\n        /* \"temp.sol\":3177:3333  function site__add_support(address user) external {... */\n      pop\n      jump\t// out\n        /* \"temp.sol\":2996:3171  function site__change_authority(address new_authority) external {... */\n    tag_73:\n        /* \"temp.sol\":3088:3104  g__SiteAuthority */\n      0x00\n      dup1\n      sload\n      swap1\n      0x0100\n      exp\n      swap1\n      div\n      0xffffffffffffffffffffffffffffffffffffffff\n      and\n        /* \"temp.sol\":3074:3104  msg.sender == g__SiteAuthority */\n      0xffffffffffffffffffffffffffffffffffffffff\n      and\n        /* \"temp.sol\":3074:3084  msg.sender */\n      caller\n        /* \"temp.sol\":3074:3104  msg.sender == g__SiteAuthority */\n      0xffffffffffffffffffffffffffffffffffffffff\n      and\n      eq\n        /* \"temp.sol\":3066:3128  require(msg.sender == g__SiteAuthority,\"Site authority only.\") */\n      tag_253\n      jumpi\n      mload(0x40)\n      0x08c379a000000000000000000000000000000000000000000000000000000000\n      dup2\n      mstore\n      0x04\n      add\n      tag_254\n      swap1\n      tag_251\n      jump\t// in\n    tag_254:\n      mload(0x40)\n      dup1\n      swap2\n      sub\n      swap1\n      revert\n    tag_253:\n        /* \"temp.sol\":3153:3166  new_authority */\n      dup1\n        /* \"temp.sol\":3134:3150  g__SiteAuthority */\n      0x00\n      dup1\n        /* \"temp.sol\":3134:3166  g__SiteAuthority = new_authority */\n      0x0100\n      exp\n      dup2\n      sload\n      dup2\n      0xffffffffffffffffffffffffffffffffffffffff\n      mul\n      not\n      and\n      swap1\n      dup4\n      0xffffffffffffffffffffffffffffffffffffffff\n      and\n      mul\n      or\n      swap1\n      sstore\n      pop\n        /* \"temp.sol\":2996:3171  function site__change_authority(address new_authority) external {... */\n      pop\n      jump\t// out\n        /* \"temp.sol\":7836:8372  function user__arbitration_unvote(string memory vault_id) external {... */\n    tag_77:\n        /* \"temp.sol\":7959:7982  VaultStatus.Arbitration */\n      0x03\n        /* \"temp.sol\":7924:7982  g__VaultLookup[vault_id].status != VaultStatus.Arbitration */\n      dup1\n      dup2\n      gt\n      iszero\n      tag_256\n      jumpi\n      tag_257\n      tag_160\n      jump\t// in\n    tag_257:\n    tag_256:\n        /* \"temp.sol\":7924:7938  g__VaultLookup */\n      0x03\n        /* \"temp.sol\":7939:7947  vault_id */\n      dup3\n        /* \"temp.sol\":7924:7948  g__VaultLookup[vault_id] */\n      mload(0x40)\n      tag_258\n      swap2\n      swap1\n      tag_162\n      jump\t// in\n    tag_258:\n      swap1\n      dup2\n      mstore\n      0x20\n      add\n      mload(0x40)\n      dup1\n      swap2\n      sub\n      swap1\n      keccak256\n        /* \"temp.sol\":7924:7955  g__VaultLookup[vault_id].status */\n      0x00\n      add\n      0x00\n      swap1\n      sload\n      swap1\n      0x0100\n      exp\n      swap1\n      div\n      0xff\n      and\n        /* \"temp.sol\":7924:7982  g__VaultLookup[vault_id].status != VaultStatus.Arbitration */\n      0x03\n      dup2\n      gt\n      iszero\n      tag_259\n      jumpi\n      tag_260\n      tag_160\n      jump\t// in\n    tag_260:\n    tag_259:\n      sub\n        /* \"temp.sol\":7909:8019  require(... */\n      tag_261\n      jumpi\n      mload(0x40)\n      0x08c379a000000000000000000000000000000000000000000000000000000000\n      dup2\n      mstore\n      0x04\n      add\n      tag_262\n      swap1\n      tag_263\n      jump\t// in\n    tag_262:\n      mload(0x40)\n      dup1\n      swap2\n      sub\n      swap1\n      revert\n    tag_261:\n        /* \"temp.sol\":8025:8052  VaultAccount memory account */\n      0x00\n        /* \"temp.sol\":8055:8091  ut__get_account(vault_id,msg.sender) */\n      tag_264\n        /* \"temp.sol\":8071:8079  vault_id */\n      dup3\n        /* \"temp.sol\":8080:8090  msg.sender */\n      caller\n        /* \"temp.sol\":8055:8070  ut__get_account */\n      tag_198\n        /* \"temp.sol\":8055:8091  ut__get_account(vault_id,msg.sender) */\n      jump\t// in\n    tag_264:\n        /* \"temp.sol\":8025:8091  VaultAccount memory account = ut__get_account(vault_id,msg.sender) */\n      swap1\n      pop\n        /* \"temp.sol\":8105:8112  account */\n      dup1\n        /* \"temp.sol\":8105:8124  account.arbitration */\n      0x20\n      add\n      mload\n        /* \"temp.sol\":8097:8146  require(account.arbitration,\"Account not voted.\") */\n      tag_265\n      jumpi\n      mload(0x40)\n      0x08c379a000000000000000000000000000000000000000000000000000000000\n      dup2\n      mstore\n      0x04\n      add\n      tag_266\n      swap1\n      tag_267\n      jump\t// in\n    tag_266:\n      mload(0x40)\n      dup1\n      swap2\n      sub\n      swap1\n      revert\n    tag_265:\n        /* \"temp.sol\":8159:8175  g__VaultAccounts */\n      0x04\n        /* \"temp.sol\":8176:8184  vault_id */\n      dup3\n        /* \"temp.sol\":8159:8185  g__VaultAccounts[vault_id] */\n      mload(0x40)\n      tag_268\n      swap2\n      swap1\n      tag_162\n      jump\t// in\n    tag_268:\n      swap1\n      dup2\n      mstore\n      0x20\n      add\n      mload(0x40)\n      dup1\n      swap2\n      sub\n      swap1\n      keccak256\n        /* \"temp.sol\":8159:8197  g__VaultAccounts[vault_id][msg.sender] */\n      0x00\n        /* \"temp.sol\":8186:8196  msg.sender */\n      caller\n        /* \"temp.sol\":8159:8197  g__VaultAccounts[vault_id][msg.sender] */\n      0xffffffffffffffffffffffffffffffffffffffff\n      and\n      0xffffffffffffffffffffffffffffffffffffffff\n      and\n      dup2\n      mstore\n      0x20\n      add\n      swap1\n      dup2\n      mstore\n      0x20\n      add\n      0x00\n      keccak256\n        /* \"temp.sol\":8159:8209  g__VaultAccounts[vault_id][msg.sender].arbitration */\n      0x00\n      add\n      0x01\n        /* \"temp.sol\":8152:8209  delete g__VaultAccounts[vault_id][msg.sender].arbitration */\n      0x0100\n      exp\n      dup2\n      sload\n      swap1\n      0xff\n      mul\n      not\n      and\n      swap1\n      sstore\n        /* \"temp.sol\":8215:8239  uint16 total_arbitration */\n      0x00\n        /* \"temp.sol\":8244:8258  g__VaultLookup */\n      0x03\n        /* \"temp.sol\":8259:8267  vault_id */\n      dup4\n        /* \"temp.sol\":8244:8268  g__VaultLookup[vault_id] */\n      mload(0x40)\n      tag_269\n      swap2\n      swap1\n      tag_162\n      jump\t// in\n    tag_269:\n      swap1\n      dup2\n      mstore\n      0x20\n      add\n      mload(0x40)\n      dup1\n      swap2\n      sub\n      swap1\n      keccak256\n        /* \"temp.sol\":8244:8286  g__VaultLookup[vault_id].total_arbitration */\n      0x05\n      add\n      0x02\n        /* \"temp.sol\":8242:8286  --g__VaultLookup[vault_id].total_arbitration */\n      dup2\n      dup2\n      swap1\n      sload\n      swap1\n      0x0100\n      exp\n      swap1\n      div\n      0xffff\n      and\n      tag_270\n      swap1\n      tag_271\n      jump\t// in\n    tag_270:\n      swap2\n      swap1\n      0x0100\n      exp\n      dup2\n      sload\n      dup2\n      0xffff\n      mul\n      not\n      and\n      swap1\n      dup4\n      0xffff\n      and\n      mul\n      or\n      swap1\n      sstore\n        /* \"temp.sol\":8215:8286  uint16 total_arbitration = --g__VaultLookup[vault_id].total_arbitration */\n      swap1\n      pop\n        /* \"temp.sol\":8297:8367  VaultEvent(\"arbitration_unvote\",vault_id,msg.sender,total_arbitration) */\n      0x040768ee67403a1b2c45e2ee8e9c7cb4283d12bd31f8126de25122997535c1bb\n        /* \"temp.sol\":8329:8337  vault_id */\n      dup4\n        /* \"temp.sol\":8338:8348  msg.sender */\n      caller\n        /* \"temp.sol\":8349:8366  total_arbitration */\n      dup4\n        /* \"temp.sol\":8297:8367  VaultEvent(\"arbitration_unvote\",vault_id,msg.sender,total_arbitration) */\n      mload(0x40)\n      tag_272\n      swap4\n      swap3\n      swap2\n      swap1\n      tag_273\n      jump\t// in\n    tag_272:\n      mload(0x40)\n      dup1\n      swap2\n      sub\n      swap1\n      log1\n        /* \"temp.sol\":7903:8372  {... */\n      pop\n      pop\n        /* \"temp.sol\":7836:8372  function user__arbitration_unvote(string memory vault_id) external {... */\n      pop\n      jump\t// out\n        /* \"temp.sol\":12828:13300  function user__withdraw_self(string memory vault_id,string memory withdraw_id) external {... */\n    tag_82:\n        /* \"temp.sol\":12973:12991  VaultStatus.Active */\n      0x01\n        /* \"temp.sol\":12938:12991  g__VaultLookup[vault_id].status != VaultStatus.Active */\n      0x03\n      dup2\n      gt\n      iszero\n      tag_275\n      jumpi\n      tag_276\n      tag_160\n      jump\t// in\n    tag_276:\n    tag_275:\n        /* \"temp.sol\":12938:12952  g__VaultLookup */\n      0x03\n        /* \"temp.sol\":12953:12961  vault_id */\n      dup4\n        /* \"temp.sol\":12938:12962  g__VaultLookup[vault_id] */\n      mload(0x40)\n      tag_277\n      swap2\n      swap1\n      tag_162\n      jump\t// in\n    tag_277:\n      swap1\n      dup2\n      mstore\n      0x20\n      add\n      mload(0x40)\n      dup1\n      swap2\n      sub\n      swap1\n      keccak256\n        /* \"temp.sol\":12938:12969  g__VaultLookup[vault_id].status */\n      0x00\n      add\n      0x00\n      swap1\n      sload\n      swap1\n      0x0100\n      exp\n      swap1\n      div\n      0xff\n      and\n        /* \"temp.sol\":12938:12991  g__VaultLookup[vault_id].status != VaultStatus.Active */\n      0x03\n      dup2\n      gt\n      iszero\n      tag_278\n      jumpi\n      tag_279\n      tag_160\n      jump\t// in\n    tag_279:\n    tag_278:\n      sub\n        /* \"temp.sol\":12922:13024  require(... */\n      tag_280\n      jumpi\n      mload(0x40)\n      0x08c379a000000000000000000000000000000000000000000000000000000000\n      dup2\n      mstore\n      0x04\n      add\n      tag_281\n      swap1\n      tag_282\n      jump\t// in\n    tag_281:\n      mload(0x40)\n      dup1\n      swap2\n      sub\n      swap1\n      revert\n    tag_280:\n        /* \"temp.sol\":13030:13060  WithdrawRequest memory request */\n      0x00\n        /* \"temp.sol\":13063:13082  g__VaultWithdrawals */\n      0x05\n        /* \"temp.sol\":13083:13091  vault_id */\n      dup4\n        /* \"temp.sol\":13063:13092  g__VaultWithdrawals[vault_id] */\n      mload(0x40)\n      tag_283\n      swap2\n      swap1\n      tag_162\n      jump\t// in\n    tag_283:\n      swap1\n      dup2\n      mstore\n      0x20\n      add\n      mload(0x40)\n      dup1\n      swap2\n      sub\n      swap1\n      keccak256\n        /* \"temp.sol\":13063:13104  g__VaultWithdrawals[vault_id][msg.sender] */\n      0x00\n        /* \"temp.sol\":13093:13103  msg.sender */\n      caller\n        /* \"temp.sol\":13063:13104  g__VaultWithdrawals[vault_id][msg.sender] */\n      0xffffffffffffffffffffffffffffffffffffffff\n      and\n      0xffffffffffffffffffffffffffffffffffffffff\n      and\n      dup2\n      mstore\n      0x20\n      add\n      swap1\n      dup2\n      mstore\n      0x20\n      add\n      0x00\n      keccak256\n        /* \"temp.sol\":13105:13116  withdraw_id */\n      dup3\n        /* \"temp.sol\":13063:13117  g__VaultWithdrawals[vault_id][msg.sender][withdraw_id] */\n      mload(0x40)\n      tag_284\n      swap2\n      swap1\n      tag_162\n      jump\t// in\n    tag_284:\n      swap1\n      dup2\n      mstore\n      0x20\n      add\n      mload(0x40)\n      dup1\n      swap2\n      sub\n      swap1\n      keccak256\n        /* \"temp.sol\":13030:13117  WithdrawRequest memory request = g__VaultWithdrawals[vault_id][msg.sender][withdraw_id] */\n      mload(0x40)\n      dup1\n      0x40\n      add\n      0x40\n      mstore\n      swap1\n      dup2\n      0x00\n      dup3\n      add\n      sload\n      dup2\n      mstore\n      0x20\n      add\n      0x01\n      dup3\n      add\n      0x00\n      swap1\n      sload\n      swap1\n      0x0100\n      exp\n      swap1\n      div\n      0xff\n      and\n      0x05\n      dup2\n      gt\n      iszero\n      tag_285\n      jumpi\n      tag_286\n      tag_160\n      jump\t// in\n    tag_286:\n    tag_285:\n      0x05\n      dup2\n      gt\n      iszero\n      tag_287\n      jumpi\n      tag_288\n      tag_160\n      jump\t// in\n    tag_288:\n    tag_287:\n      dup2\n      mstore\n      pop\n      pop\n      swap1\n      pop\n        /* \"temp.sol\":13156:13184  VaultRequestStatus.Confirmed */\n      0x02\n        /* \"temp.sol\":13138:13184  request.status == VaultRequestStatus.Confirmed */\n      0x05\n      dup2\n      gt\n      iszero\n      tag_289\n      jumpi\n      tag_290\n      tag_160\n      jump\t// in\n    tag_290:\n    tag_289:\n        /* \"temp.sol\":13138:13145  request */\n      dup2\n        /* \"temp.sol\":13138:13152  request.status */\n      0x20\n      add\n      mload\n        /* \"temp.sol\":13138:13184  request.status == VaultRequestStatus.Confirmed */\n      0x05\n      dup2\n      gt\n      iszero\n      tag_291\n      jumpi\n      tag_292\n      tag_160\n      jump\t// in\n    tag_292:\n    tag_291:\n      eq\n        /* \"temp.sol\":13123:13222  require(... */\n      tag_293\n      jumpi\n      mload(0x40)\n      0x08c379a000000000000000000000000000000000000000000000000000000000\n      dup2\n      mstore\n      0x04\n      add\n      tag_294\n      swap1\n      tag_238\n      jump\t// in\n    tag_294:\n      mload(0x40)\n      dup1\n      swap2\n      sub\n      swap1\n      revert\n    tag_293:\n        /* \"temp.sol\":13228:13295  ut__withdraw_transfer(vault_id,msg.sender,withdraw_id,request,true) */\n      tag_295\n        /* \"temp.sol\":13250:13258  vault_id */\n      dup4\n        /* \"temp.sol\":13259:13269  msg.sender */\n      caller\n        /* \"temp.sol\":13270:13281  withdraw_id */\n      dup5\n        /* \"temp.sol\":13282:13289  request */\n      dup5\n        /* \"temp.sol\":13290:13294  true */\n      0x01\n        /* \"temp.sol\":13228:13249  ut__withdraw_transfer */\n      tag_296\n        /* \"temp.sol\":13228:13295  ut__withdraw_transfer(vault_id,msg.sender,withdraw_id,request,true) */\n      jump\t// in\n    tag_295:\n        /* \"temp.sol\":12916:13300  {... */\n      pop\n        /* \"temp.sol\":12828:13300  function user__withdraw_self(string memory vault_id,string memory withdraw_id) external {... */\n      pop\n      pop\n      jump\t// out\n        /* \"temp.sol\":9579:10178  function site__withdraw_confirm(string memory vault_id,address user_address,string memory withdraw_id,uint amount) external {... */\n    tag_87:\n        /* \"temp.sol\":9709:9737  ut__assert_admin(msg.sender) */\n      tag_298\n        /* \"temp.sol\":9726:9736  msg.sender */\n      caller\n        /* \"temp.sol\":9709:9725  ut__assert_admin */\n      tag_157\n        /* \"temp.sol\":9709:9737  ut__assert_admin(msg.sender) */\n      jump\t// in\n    tag_298:\n        /* \"temp.sol\":9743:9773  WithdrawRequest memory request */\n      0x00\n        /* \"temp.sol\":9776:9827  ut__get_withdraw(vault_id,user_address,withdraw_id) */\n      tag_299\n        /* \"temp.sol\":9793:9801  vault_id */\n      dup6\n        /* \"temp.sol\":9802:9814  user_address */\n      dup6\n        /* \"temp.sol\":9815:9826  withdraw_id */\n      dup6\n        /* \"temp.sol\":9776:9792  ut__get_withdraw */\n      tag_300\n        /* \"temp.sol\":9776:9827  ut__get_withdraw(vault_id,user_address,withdraw_id) */\n      jump\t// in\n    tag_299:\n        /* \"temp.sol\":9743:9827  WithdrawRequest memory request = ut__get_withdraw(vault_id,user_address,withdraw_id) */\n      swap1\n      pop\n        /* \"temp.sol\":9866:9892  VaultRequestStatus.Pending */\n      0x01\n        /* \"temp.sol\":9848:9892  request.status == VaultRequestStatus.Pending */\n      0x05\n      dup2\n      gt\n      iszero\n      tag_301\n      jumpi\n      tag_302\n      tag_160\n      jump\t// in\n    tag_302:\n    tag_301:\n        /* \"temp.sol\":9848:9855  request */\n      dup2\n        /* \"temp.sol\":9848:9862  request.status */\n      0x20\n      add\n      mload\n        /* \"temp.sol\":9848:9892  request.status == VaultRequestStatus.Pending */\n      0x05\n      dup2\n      gt\n      iszero\n      tag_303\n      jumpi\n      tag_304\n      tag_160\n      jump\t// in\n    tag_304:\n    tag_303:\n      eq\n        /* \"temp.sol\":9833:9928  require(... */\n      tag_305\n      jumpi\n      mload(0x40)\n      0x08c379a000000000000000000000000000000000000000000000000000000000\n      dup2\n      mstore\n      0x04\n      add\n      tag_306\n      swap1\n      tag_307\n      jump\t// in\n    tag_306:\n      mload(0x40)\n      dup1\n      swap2\n      sub\n      swap1\n      revert\n    tag_305:\n        /* \"temp.sol\":9960:9966  amount */\n      dup2\n        /* \"temp.sol\":9942:9949  request */\n      dup2\n        /* \"temp.sol\":9942:9956  request.amount */\n      0x00\n      add\n      mload\n        /* \"temp.sol\":9942:9966  request.amount == amount */\n      eq\n        /* \"temp.sol\":9934:9995  require(request.amount == amount,\"Withdraw amount incorrect\") */\n      tag_308\n      jumpi\n      mload(0x40)\n      0x08c379a000000000000000000000000000000000000000000000000000000000\n      dup2\n      mstore\n      0x04\n      add\n      tag_309\n      swap1\n      tag_310\n      jump\t// in\n    tag_309:\n      mload(0x40)\n      dup1\n      swap2\n      sub\n      swap1\n      revert\n    tag_308:\n        /* \"temp.sol\":10067:10095  VaultRequestStatus.Confirmed */\n      0x02\n        /* \"temp.sol\":10001:10020  g__VaultWithdrawals */\n      0x05\n        /* \"temp.sol\":10021:10029  vault_id */\n      dup7\n        /* \"temp.sol\":10001:10030  g__VaultWithdrawals[vault_id] */\n      mload(0x40)\n      tag_311\n      swap2\n      swap1\n      tag_162\n      jump\t// in\n    tag_311:\n      swap1\n      dup2\n      mstore\n      0x20\n      add\n      mload(0x40)\n      dup1\n      swap2\n      sub\n      swap1\n      keccak256\n        /* \"temp.sol\":10001:10044  g__VaultWithdrawals[vault_id][user_address] */\n      0x00\n        /* \"temp.sol\":10031:10043  user_address */\n      dup7\n        /* \"temp.sol\":10001:10044  g__VaultWithdrawals[vault_id][user_address] */\n      0xffffffffffffffffffffffffffffffffffffffff\n      and\n      0xffffffffffffffffffffffffffffffffffffffff\n      and\n      dup2\n      mstore\n      0x20\n      add\n      swap1\n      dup2\n      mstore\n      0x20\n      add\n      0x00\n      keccak256\n        /* \"temp.sol\":10045:10056  withdraw_id */\n      dup5\n        /* \"temp.sol\":10001:10057  g__VaultWithdrawals[vault_id][user_address][withdraw_id] */\n      mload(0x40)\n      tag_312\n      swap2\n      swap1\n      tag_162\n      jump\t// in\n    tag_312:\n      swap1\n      dup2\n      mstore\n      0x20\n      add\n      mload(0x40)\n      dup1\n      swap2\n      sub\n      swap1\n      keccak256\n        /* \"temp.sol\":10001:10064  g__VaultWithdrawals[vault_id][user_address][withdraw_id].status */\n      0x01\n      add\n      0x00\n        /* \"temp.sol\":10001:10095  g__VaultWithdrawals[vault_id][user_address][withdraw_id].status = VaultRequestStatus.Confirmed */\n      0x0100\n      exp\n      dup2\n      sload\n      dup2\n      0xff\n      mul\n      not\n      and\n      swap1\n      dup4\n      0x05\n      dup2\n      gt\n      iszero\n      tag_313\n      jumpi\n      tag_314\n      tag_160\n      jump\t// in\n    tag_314:\n    tag_313:\n      mul\n      or\n      swap1\n      sstore\n      pop\n        /* \"temp.sol\":10106:10173  VaultEvent(\"withdraw_confirm_site\",withdraw_id,user_address,amount) */\n      0x040768ee67403a1b2c45e2ee8e9c7cb4283d12bd31f8126de25122997535c1bb\n        /* \"temp.sol\":10141:10152  withdraw_id */\n      dup4\n        /* \"temp.sol\":10153:10165  user_address */\n      dup6\n        /* \"temp.sol\":10166:10172  amount */\n      dup5\n        /* \"temp.sol\":10106:10173  VaultEvent(\"withdraw_confirm_site\",withdraw_id,user_address,amount) */\n      mload(0x40)\n      tag_315\n      swap4\n      swap3\n      swap2\n      swap1\n      tag_316\n      jump\t// in\n    tag_315:\n      mload(0x40)\n      dup1\n      swap2\n      sub\n      swap1\n      log1\n        /* \"temp.sol\":9703:10178  {... */\n      pop\n        /* \"temp.sol\":9579:10178  function site__withdraw_confirm(string memory vault_id,address user_address,string memory withdraw_id,uint amount) external {... */\n      pop\n      pop\n      pop\n      pop\n      jump\t// out\n        /* \"temp.sol\":3470:4296  function site__vault_create(string memory vault_id,string memory name,address owner,uint16 vault_tax_rate,uint vault_tax_max,uint vault_withdraw_min,uint vault_withdraw_max) external {... */\n    tag_92:\n        /* \"temp.sol\":3659:3687  ut__assert_admin(msg.sender) */\n      tag_318\n        /* \"temp.sol\":3676:3686  msg.sender */\n      caller\n        /* \"temp.sol\":3659:3675  ut__assert_admin */\n      tag_157\n        /* \"temp.sol\":3659:3687  ut__assert_admin(msg.sender) */\n      jump\t// in\n    tag_318:\n        /* \"temp.sol\":3733:3747  g__VaultLookup */\n      0x03\n        /* \"temp.sol\":3748:3756  vault_id */\n      dup8\n        /* \"temp.sol\":3733:3757  g__VaultLookup[vault_id] */\n      mload(0x40)\n      tag_319\n      swap2\n      swap1\n      tag_162\n      jump\t// in\n    tag_319:\n      swap1\n      dup2\n      mstore\n      0x20\n      add\n      mload(0x40)\n      dup1\n      swap2\n      sub\n      swap1\n      keccak256\n        /* \"temp.sol\":3733:3764  g__VaultLookup[vault_id].status */\n      0x00\n      add\n      0x00\n      swap1\n      sload\n      swap1\n      0x0100\n      exp\n      swap1\n      div\n      0xff\n      and\n        /* \"temp.sol\":3708:3764  VaultStatus.Undefined == g__VaultLookup[vault_id].status */\n      0x03\n      dup2\n      gt\n      iszero\n      tag_320\n      jumpi\n      tag_321\n      tag_160\n      jump\t// in\n    tag_321:\n    tag_320:\n        /* \"temp.sol\":3708:3729  VaultStatus.Undefined */\n      0x00\n        /* \"temp.sol\":3708:3764  VaultStatus.Undefined == g__VaultLookup[vault_id].status */\n      0x03\n      dup2\n      gt\n      iszero\n      tag_322\n      jumpi\n      tag_323\n      tag_160\n      jump\t// in\n    tag_323:\n    tag_322:\n      eq\n        /* \"temp.sol\":3693:3801  require(... */\n      tag_324\n      jumpi\n      mload(0x40)\n      0x08c379a000000000000000000000000000000000000000000000000000000000\n      dup2\n      mstore\n      0x04\n      add\n      tag_325\n      swap1\n      tag_326\n      jump\t// in\n    tag_325:\n      mload(0x40)\n      dup1\n      swap2\n      sub\n      swap1\n      revert\n    tag_324:\n        /* \"temp.sol\":3807:3825  Vault memory vault */\n      0x00\n        /* \"temp.sol\":3828:4178  Vault({... */\n      mload(0x40)\n      dup1\n      0x0160\n      add\n      0x40\n      mstore\n      dup1\n        /* \"temp.sol\":3989:4007  VaultStatus.Active */\n      0x01\n        /* \"temp.sol\":3828:4178  Vault({... */\n      0x03\n      dup2\n      gt\n      iszero\n      tag_327\n      jumpi\n      tag_328\n      tag_160\n      jump\t// in\n    tag_328:\n    tag_327:\n      dup2\n      mstore\n      0x20\n      add\n        /* \"temp.sol\":3941:3945  name */\n      dup9\n        /* \"temp.sol\":3828:4178  Vault({... */\n      dup2\n      mstore\n      0x20\n      add\n        /* \"temp.sol\":4142:4147  owner */\n      dup8\n        /* \"temp.sol\":3828:4178  Vault({... */\n      0xffffffffffffffffffffffffffffffffffffffff\n      and\n      dup2\n      mstore\n      0x20\n      add\n        /* \"temp.sol\":3926:3927  0 */\n      0x00\n        /* \"temp.sol\":3828:4178  Vault({... */\n      dup2\n      mstore\n      0x20\n      add\n        /* \"temp.sol\":3859:3860  0 */\n      0x00\n        /* \"temp.sol\":3828:4178  Vault({... */\n      dup2\n      mstore\n      0x20\n      add\n        /* \"temp.sol\":4170:4171  0 */\n      0x00\n        /* \"temp.sol\":3828:4178  Vault({... */\n      0xffff\n      and\n      dup2\n      mstore\n      0x20\n      add\n        /* \"temp.sol\":3972:3973  0 */\n      0x00\n        /* \"temp.sol\":3828:4178  Vault({... */\n      0xffff\n      and\n      dup2\n      mstore\n      0x20\n      add\n        /* \"temp.sol\":4077:4091  vault_tax_rate */\n      dup7\n        /* \"temp.sol\":3828:4178  Vault({... */\n      0xffff\n      and\n      dup2\n      mstore\n      0x20\n      add\n        /* \"temp.sol\":4114:4127  vault_tax_max */\n      dup6\n        /* \"temp.sol\":3828:4178  Vault({... */\n      dup2\n      mstore\n      0x20\n      add\n        /* \"temp.sol\":4035:4053  vault_withdraw_min */\n      dup5\n        /* \"temp.sol\":3828:4178  Vault({... */\n      dup2\n      mstore\n      0x20\n      add\n        /* \"temp.sol\":3888:3906  vault_withdraw_max */\n      dup4\n        /* \"temp.sol\":3828:4178  Vault({... */\n      dup2\n      mstore\n      pop\n        /* \"temp.sol\":3807:4178  Vault memory vault = Vault({... */\n      swap1\n      pop\n        /* \"temp.sol\":4186:4199  g__VaultCount */\n      0x02\n      dup1\n        /* \"temp.sol\":4184:4199  ++g__VaultCount */\n      dup2\n      dup2\n      swap1\n      sload\n      swap1\n      0x0100\n      exp\n      swap1\n      div\n      0xffff\n      and\n      tag_329\n      swap1\n      tag_186\n      jump\t// in\n    tag_329:\n      swap2\n      swap1\n      0x0100\n      exp\n      dup2\n      sload\n      dup2\n      0xffff\n      mul\n      not\n      and\n      swap1\n      dup4\n      0xffff\n      and\n      mul\n      or\n      swap1\n      sstore\n      pop\n        /* \"temp.sol\":4232:4237  vault */\n      dup1\n        /* \"temp.sol\":4205:4219  g__VaultLookup */\n      0x03\n        /* \"temp.sol\":4220:4228  vault_id */\n      dup10\n        /* \"temp.sol\":4205:4229  g__VaultLookup[vault_id] */\n      mload(0x40)\n      tag_330\n      swap2\n      swap1\n      tag_162\n      jump\t// in\n    tag_330:\n      swap1\n      dup2\n      mstore\n      0x20\n      add\n      mload(0x40)\n      dup1\n      swap2\n      sub\n      swap1\n      keccak256\n        /* \"temp.sol\":4205:4237  g__VaultLookup[vault_id] = vault */\n      0x00\n      dup3\n      add\n      mload\n      dup2\n      0x00\n      add\n      exp(0x0100, 0x00)\n      dup2\n      sload\n      dup2\n      0xff\n      mul\n      not\n      and\n      swap1\n      dup4\n      0x03\n      dup2\n      gt\n      iszero\n      tag_331\n      jumpi\n      tag_332\n      tag_160\n      jump\t// in\n    tag_332:\n    tag_331:\n      mul\n      or\n      swap1\n      sstore\n      pop\n      0x20\n      dup3\n      add\n      mload\n      dup2\n      0x01\n      add\n      swap1\n      dup2\n      tag_333\n      swap2\n      swap1\n      tag_191\n      jump\t// in\n    tag_333:\n      pop\n      0x40\n      dup3\n      add\n      mload\n      dup2\n      0x02\n      add\n      exp(0x0100, 0x00)\n      dup2\n      sload\n      dup2\n      0xffffffffffffffffffffffffffffffffffffffff\n      mul\n      not\n      and\n      swap1\n      dup4\n      0xffffffffffffffffffffffffffffffffffffffff\n      and\n      mul\n      or\n      swap1\n      sstore\n      pop\n      0x60\n      dup3\n      add\n      mload\n      dup2\n      0x03\n      add\n      sstore\n      0x80\n      dup3\n      add\n      mload\n      dup2\n      0x04\n      add\n      sstore\n      0xa0\n      dup3\n      add\n      mload\n      dup2\n      0x05\n      add\n      exp(0x0100, 0x00)\n      dup2\n      sload\n      dup2\n      0xffff\n      mul\n      not\n      and\n      swap1\n      dup4\n      0xffff\n      and\n      mul\n      or\n      swap1\n      sstore\n      pop\n      0xc0\n      dup3\n      add\n      mload\n      dup2\n      0x05\n      add\n      exp(0x0100, 0x02)\n      dup2\n      sload\n      dup2\n      0xffff\n      mul\n      not\n      and\n      swap1\n      dup4\n      0xffff\n      and\n      mul\n      or\n      swap1\n      sstore\n      pop\n      0xe0\n      dup3\n      add\n      mload\n      dup2\n      0x05\n      add\n      exp(0x0100, 0x04)\n      dup2\n      sload\n      dup2\n      0xffff\n      mul\n      not\n      and\n      swap1\n      dup4\n      0xffff\n      and\n      mul\n      or\n      swap1\n      sstore\n      pop\n      0x0100\n      dup3\n      add\n      mload\n      dup2\n      0x06\n      add\n      sstore\n      0x0120\n      dup3\n      add\n      mload\n      dup2\n      0x07\n      add\n      sstore\n      0x0140\n      dup3\n      add\n      mload\n      dup2\n      0x08\n      add\n      sstore\n      swap1\n      pop\n      pop\n        /* \"temp.sol\":4248:4291  VaultEvent(\"vault_create\",vault_id,owner,0) */\n      0x040768ee67403a1b2c45e2ee8e9c7cb4283d12bd31f8126de25122997535c1bb\n        /* \"temp.sol\":4274:4282  vault_id */\n      dup9\n        /* \"temp.sol\":4283:4288  owner */\n      dup8\n        /* \"temp.sol\":4289:4290  0 */\n      0x00\n        /* \"temp.sol\":4248:4291  VaultEvent(\"vault_create\",vault_id,owner,0) */\n      mload(0x40)\n      tag_334\n      swap4\n      swap3\n      swap2\n      swap1\n      tag_335\n      jump\t// in\n    tag_334:\n      mload(0x40)\n      dup1\n      swap2\n      sub\n      swap1\n      log1\n        /* \"temp.sol\":3653:4296  {... */\n      pop\n        /* \"temp.sol\":3470:4296  function site__vault_create(string memory vault_id,string memory name,address owner,uint16 vault_tax_rate,uint vault_tax_max,uint vault_withdraw_min,uint vault_withdraw_max) external {... */\n      pop\n      pop\n      pop\n      pop\n      pop\n      pop\n      pop\n      jump\t// out\n        /* \"temp.sol\":347:378  address public g__SiteAuthority */\n    tag_95:\n      0x00\n      dup1\n      sload\n      swap1\n      0x0100\n      exp\n      swap1\n      div\n      0xffffffffffffffffffffffffffffffffffffffff\n      and\n      dup2\n      jump\t// out\n        /* \"temp.sol\":1087:1114  uint16 public g__VaultCount */\n    tag_100:\n      0x02\n      dup1\n      sload\n      swap1\n      0x0100\n      exp\n      swap1\n      div\n      0xffff\n      and\n      dup2\n      jump\t// out\n        /* \"temp.sol\":6236:6693  function owner__account_lock(string memory vault_id,address user_address) external {... */\n    tag_106:\n        /* \"temp.sol\":6325:6367  ut__assert_management(vault_id,msg.sender) */\n      tag_337\n        /* \"temp.sol\":6347:6355  vault_id */\n      dup3\n        /* \"temp.sol\":6356:6366  msg.sender */\n      caller\n        /* \"temp.sol\":6325:6346  ut__assert_management */\n      tag_338\n        /* \"temp.sol\":6325:6367  ut__assert_management(vault_id,msg.sender) */\n      jump\t// in\n    tag_337:\n        /* \"temp.sol\":6373:6400  VaultAccount memory account */\n      0x00\n        /* \"temp.sol\":6403:6441  ut__get_account(vault_id,user_address) */\n      tag_339\n        /* \"temp.sol\":6419:6427  vault_id */\n      dup4\n        /* \"temp.sol\":6428:6440  user_address */\n      dup4\n        /* \"temp.sol\":6403:6418  ut__get_account */\n      tag_198\n        /* \"temp.sol\":6403:6441  ut__get_account(vault_id,user_address) */\n      jump\t// in\n    tag_339:\n        /* \"temp.sol\":6373:6441  VaultAccount memory account = ut__get_account(vault_id,user_address) */\n      swap1\n      pop\n        /* \"temp.sol\":6480:6505  VaultAccountStatus.Active */\n      0x02\n        /* \"temp.sol\":6462:6505  account.status == VaultAccountStatus.Active */\n      0x03\n      dup2\n      gt\n      iszero\n      tag_340\n      jumpi\n      tag_341\n      tag_160\n      jump\t// in\n    tag_341:\n    tag_340:\n        /* \"temp.sol\":6462:6469  account */\n      dup2\n        /* \"temp.sol\":6462:6476  account.status */\n      0x00\n      add\n      mload\n        /* \"temp.sol\":6462:6505  account.status == VaultAccountStatus.Active */\n      0x03\n      dup2\n      gt\n      iszero\n      tag_342\n      jumpi\n      tag_343\n      tag_160\n      jump\t// in\n    tag_343:\n    tag_342:\n      eq\n        /* \"temp.sol\":6447:6546  require(... */\n      tag_344\n      jumpi\n      mload(0x40)\n      0x08c379a000000000000000000000000000000000000000000000000000000000\n      dup2\n      mstore\n      0x04\n      add\n      tag_345\n      swap1\n      tag_346\n      jump\t// in\n    tag_345:\n      mload(0x40)\n      dup1\n      swap2\n      sub\n      swap1\n      revert\n    tag_344:\n        /* \"temp.sol\":6602:6627  VaultAccountStatus.Locked */\n      0x03\n        /* \"temp.sol\":6552:6568  g__VaultAccounts */\n      0x04\n        /* \"temp.sol\":6569:6577  vault_id */\n      dup5\n        /* \"temp.sol\":6552:6578  g__VaultAccounts[vault_id] */\n      mload(0x40)\n      tag_347\n      swap2\n      swap1\n      tag_162\n      jump\t// in\n    tag_347:\n      swap1\n      dup2\n      mstore\n      0x20\n      add\n      mload(0x40)\n      dup1\n      swap2\n      sub\n      swap1\n      keccak256\n        /* \"temp.sol\":6552:6592  g__VaultAccounts[vault_id][user_address] */\n      0x00\n        /* \"temp.sol\":6579:6591  user_address */\n      dup5\n        /* \"temp.sol\":6552:6592  g__VaultAccounts[vault_id][user_address] */\n      0xffffffffffffffffffffffffffffffffffffffff\n      and\n      0xffffffffffffffffffffffffffffffffffffffff\n      and\n      dup2\n      mstore\n      0x20\n      add\n      swap1\n      dup2\n      mstore\n      0x20\n      add\n      0x00\n      keccak256\n        /* \"temp.sol\":6552:6599  g__VaultAccounts[vault_id][user_address].status */\n      0x00\n      add\n      0x00\n        /* \"temp.sol\":6552:6627  g__VaultAccounts[vault_id][user_address].status = VaultAccountStatus.Locked */\n      0x0100\n      exp\n      dup2\n      sload\n      dup2\n      0xff\n      mul\n      not\n      and\n      swap1\n      dup4\n      0x03\n      dup2\n      gt\n      iszero\n      tag_348\n      jumpi\n      tag_349\n      tag_160\n      jump\t// in\n    tag_349:\n    tag_348:\n      mul\n      or\n      swap1\n      sstore\n      pop\n        /* \"temp.sol\":6638:6688  VaultEvent(\"account_lock\",vault_id,user_address,0) */\n      0x040768ee67403a1b2c45e2ee8e9c7cb4283d12bd31f8126de25122997535c1bb\n        /* \"temp.sol\":6664:6672  vault_id */\n      dup4\n        /* \"temp.sol\":6673:6685  user_address */\n      dup4\n        /* \"temp.sol\":6686:6687  0 */\n      0x00\n        /* \"temp.sol\":6638:6688  VaultEvent(\"account_lock\",vault_id,user_address,0) */\n      mload(0x40)\n      tag_350\n      swap4\n      swap3\n      swap2\n      swap1\n      tag_351\n      jump\t// in\n    tag_350:\n      mload(0x40)\n      dup1\n      swap2\n      sub\n      swap1\n      log1\n        /* \"temp.sol\":6319:6693  {... */\n      pop\n        /* \"temp.sol\":6236:6693  function owner__account_lock(string memory vault_id,address user_address) external {... */\n      pop\n      pop\n      jump\t// out\n        /* \"temp.sol\":7155:7830  function user__arbitration_vote(string memory vault_id) external {... */\n    tag_110:\n        /* \"temp.sol\":7226:7253  VaultAccount memory account */\n      0x00\n        /* \"temp.sol\":7256:7292  ut__get_account(vault_id,msg.sender) */\n      tag_353\n        /* \"temp.sol\":7272:7280  vault_id */\n      dup3\n        /* \"temp.sol\":7281:7291  msg.sender */\n      caller\n        /* \"temp.sol\":7256:7271  ut__get_account */\n      tag_198\n        /* \"temp.sol\":7256:7292  ut__get_account(vault_id,msg.sender) */\n      jump\t// in\n    tag_353:\n        /* \"temp.sol\":7226:7292  VaultAccount memory account = ut__get_account(vault_id,msg.sender) */\n      swap1\n      pop\n        /* \"temp.sol\":7307:7314  account */\n      dup1\n        /* \"temp.sol\":7307:7326  account.arbitration */\n      0x20\n      add\n      mload\n        /* \"temp.sol\":7306:7326  !account.arbitration */\n      iszero\n        /* \"temp.sol\":7298:7356  require(!account.arbitration,\"Account arbitration voted.\") */\n      tag_354\n      jumpi\n      mload(0x40)\n      0x08c379a000000000000000000000000000000000000000000000000000000000\n      dup2\n      mstore\n      0x04\n      add\n      tag_355\n      swap1\n      tag_356\n      jump\t// in\n    tag_355:\n      mload(0x40)\n      dup1\n      swap2\n      sub\n      swap1\n      revert\n    tag_354:\n        /* \"temp.sol\":7415:7419  true */\n      0x01\n        /* \"temp.sol\":7362:7378  g__VaultAccounts */\n      0x04\n        /* \"temp.sol\":7379:7387  vault_id */\n      dup4\n        /* \"temp.sol\":7362:7388  g__VaultAccounts[vault_id] */\n      mload(0x40)\n      tag_357\n      swap2\n      swap1\n      tag_162\n      jump\t// in\n    tag_357:\n      swap1\n      dup2\n      mstore\n      0x20\n      add\n      mload(0x40)\n      dup1\n      swap2\n      sub\n      swap1\n      keccak256\n        /* \"temp.sol\":7362:7400  g__VaultAccounts[vault_id][msg.sender] */\n      0x00\n        /* \"temp.sol\":7389:7399  msg.sender */\n      caller\n        /* \"temp.sol\":7362:7400  g__VaultAccounts[vault_id][msg.sender] */\n      0xffffffffffffffffffffffffffffffffffffffff\n      and\n      0xffffffffffffffffffffffffffffffffffffffff\n      and\n      dup2\n      mstore\n      0x20\n      add\n      swap1\n      dup2\n      mstore\n      0x20\n      add\n      0x00\n      keccak256\n        /* \"temp.sol\":7362:7412  g__VaultAccounts[vault_id][msg.sender].arbitration */\n      0x00\n      add\n      0x01\n        /* \"temp.sol\":7362:7419  g__VaultAccounts[vault_id][msg.sender].arbitration = true */\n      0x0100\n      exp\n      dup2\n      sload\n      dup2\n      0xff\n      mul\n      not\n      and\n      swap1\n      dup4\n      iszero\n      iszero\n      mul\n      or\n      swap1\n      sstore\n      pop\n        /* \"temp.sol\":7425:7449  uint16 total_arbitration */\n      0x00\n        /* \"temp.sol\":7454:7468  g__VaultLookup */\n      0x03\n        /* \"temp.sol\":7469:7477  vault_id */\n      dup4\n        /* \"temp.sol\":7454:7478  g__VaultLookup[vault_id] */\n      mload(0x40)\n      tag_358\n      swap2\n      swap1\n      tag_162\n      jump\t// in\n    tag_358:\n      swap1\n      dup2\n      mstore\n      0x20\n      add\n      mload(0x40)\n      dup1\n      swap2\n      sub\n      swap1\n      keccak256\n        /* \"temp.sol\":7454:7496  g__VaultLookup[vault_id].total_arbitration */\n      0x05\n      add\n      0x02\n        /* \"temp.sol\":7452:7496  ++g__VaultLookup[vault_id].total_arbitration */\n      dup2\n      dup2\n      swap1\n      sload\n      swap1\n      0x0100\n      exp\n      swap1\n      div\n      0xffff\n      and\n      tag_359\n      swap1\n      tag_186\n      jump\t// in\n    tag_359:\n      swap2\n      swap1\n      0x0100\n      exp\n      dup2\n      sload\n      dup2\n      0xffff\n      mul\n      not\n      and\n      swap1\n      dup4\n      0xffff\n      and\n      mul\n      or\n      swap1\n      sstore\n        /* \"temp.sol\":7425:7496  uint16 total_arbitration = ++g__VaultLookup[vault_id].total_arbitration */\n      swap1\n      pop\n        /* \"temp.sol\":7502:7522  uint16 total_players */\n      0x00\n        /* \"temp.sol\":7525:7539  g__VaultLookup */\n      0x03\n        /* \"temp.sol\":7540:7548  vault_id */\n      dup5\n        /* \"temp.sol\":7525:7549  g__VaultLookup[vault_id] */\n      mload(0x40)\n      tag_360\n      swap2\n      swap1\n      tag_162\n      jump\t// in\n    tag_360:\n      swap1\n      dup2\n      mstore\n      0x20\n      add\n      mload(0x40)\n      dup1\n      swap2\n      sub\n      swap1\n      keccak256\n        /* \"temp.sol\":7525:7563  g__VaultLookup[vault_id].total_players */\n      0x05\n      add\n      0x00\n      swap1\n      sload\n      swap1\n      0x0100\n      exp\n      swap1\n      div\n      0xffff\n      and\n        /* \"temp.sol\":7502:7563  uint16 total_players = g__VaultLookup[vault_id].total_players */\n      swap1\n      pop\n        /* \"temp.sol\":7593:7594  4 */\n      0x04\n        /* \"temp.sol\":7573:7590  total_arbitration */\n      dup3\n        /* \"temp.sol\":7573:7594  total_arbitration > 4 */\n      0xffff\n      and\n      gt\n        /* \"temp.sol\":7572:7674  (total_arbitration > 4) && (total_arbitration > ((g__SiteArbitrationThreshold * total_players) / 100)) */\n      dup1\n      iszero\n      tag_361\n      jumpi\n      pop\n        /* \"temp.sol\":7669:7672  100 */\n      0x64\n        /* \"temp.sol\":7652:7665  total_players */\n      dup2\n        /* \"temp.sol\":7622:7649  g__SiteArbitrationThreshold */\n      0x02\n      0x00\n      swap1\n      sload\n      swap1\n      0x0100\n      exp\n      swap1\n      div\n      0xffff\n      and\n        /* \"temp.sol\":7622:7665  g__SiteArbitrationThreshold * total_players */\n      tag_362\n      swap2\n      swap1\n      tag_363\n      jump\t// in\n    tag_362:\n        /* \"temp.sol\":7621:7672  (g__SiteArbitrationThreshold * total_players) / 100 */\n      tag_364\n      swap2\n      swap1\n      tag_365\n      jump\t// in\n    tag_364:\n        /* \"temp.sol\":7600:7673  total_arbitration > ((g__SiteArbitrationThreshold * total_players) / 100) */\n      0xffff\n      and\n        /* \"temp.sol\":7600:7617  total_arbitration */\n      dup3\n        /* \"temp.sol\":7600:7673  total_arbitration > ((g__SiteArbitrationThreshold * total_players) / 100) */\n      0xffff\n      and\n      gt\n        /* \"temp.sol\":7572:7674  (total_arbitration > 4) && (total_arbitration > ((g__SiteArbitrationThreshold * total_players) / 100)) */\n    tag_361:\n        /* \"temp.sol\":7569:7747  if((total_arbitration > 4) && (total_arbitration > ((g__SiteArbitrationThreshold * total_players) / 100))){... */\n      iszero\n      tag_366\n      jumpi\n        /* \"temp.sol\":7717:7740  VaultStatus.Arbitration */\n      0x03\n        /* \"temp.sol\":7683:7697  g__VaultLookup */\n      dup1\n        /* \"temp.sol\":7698:7706  vault_id */\n      dup6\n        /* \"temp.sol\":7683:7707  g__VaultLookup[vault_id] */\n      mload(0x40)\n      tag_367\n      swap2\n      swap1\n      tag_162\n      jump\t// in\n    tag_367:\n      swap1\n      dup2\n      mstore\n      0x20\n      add\n      mload(0x40)\n      dup1\n      swap2\n      sub\n      swap1\n      keccak256\n        /* \"temp.sol\":7683:7714  g__VaultLookup[vault_id].status */\n      0x00\n      add\n      0x00\n        /* \"temp.sol\":7683:7740  g__VaultLookup[vault_id].status = VaultStatus.Arbitration */\n      0x0100\n      exp\n      dup2\n      sload\n      dup2\n      0xff\n      mul\n      not\n      and\n      swap1\n      dup4\n      0x03\n      dup2\n      gt\n      iszero\n      tag_368\n      jumpi\n      tag_369\n      tag_160\n      jump\t// in\n    tag_369:\n    tag_368:\n      mul\n      or\n      swap1\n      sstore\n      pop\n        /* \"temp.sol\":7569:7747  if((total_arbitration > 4) && (total_arbitration > ((g__SiteArbitrationThreshold * total_players) / 100))){... */\n    tag_366:\n        /* \"temp.sol\":7757:7825  VaultEvent(\"arbitration_vote\",vault_id,msg.sender,total_arbitration) */\n      0x040768ee67403a1b2c45e2ee8e9c7cb4283d12bd31f8126de25122997535c1bb\n        /* \"temp.sol\":7787:7795  vault_id */\n      dup5\n        /* \"temp.sol\":7796:7806  msg.sender */\n      caller\n        /* \"temp.sol\":7807:7824  total_arbitration */\n      dup5\n        /* \"temp.sol\":7757:7825  VaultEvent(\"arbitration_vote\",vault_id,msg.sender,total_arbitration) */\n      mload(0x40)\n      tag_370\n      swap4\n      swap3\n      swap2\n      swap1\n      tag_371\n      jump\t// in\n    tag_370:\n      mload(0x40)\n      dup1\n      swap2\n      sub\n      swap1\n      log1\n        /* \"temp.sol\":7220:7830  {... */\n      pop\n      pop\n      pop\n        /* \"temp.sol\":7155:7830  function user__arbitration_vote(string memory vault_id) external {... */\n      pop\n      jump\t// out\n        /* \"temp.sol\":8378:9573  function user__withdraw_request(string memory vault_id,string memory withdraw_id,uint amount) external {... */\n    tag_115:\n        /* \"temp.sol\":8487:8514  VaultAccount memory account */\n      0x00\n        /* \"temp.sol\":8517:8533  g__VaultAccounts */\n      0x04\n        /* \"temp.sol\":8534:8542  vault_id */\n      dup5\n        /* \"temp.sol\":8517:8543  g__VaultAccounts[vault_id] */\n      mload(0x40)\n      tag_373\n      swap2\n      swap1\n      tag_162\n      jump\t// in\n    tag_373:\n      swap1\n      dup2\n      mstore\n      0x20\n      add\n      mload(0x40)\n      dup1\n      swap2\n      sub\n      swap1\n      keccak256\n        /* \"temp.sol\":8517:8555  g__VaultAccounts[vault_id][msg.sender] */\n      0x00\n        /* \"temp.sol\":8544:8554  msg.sender */\n      caller\n        /* \"temp.sol\":8517:8555  g__VaultAccounts[vault_id][msg.sender] */\n      0xffffffffffffffffffffffffffffffffffffffff\n      and\n      0xffffffffffffffffffffffffffffffffffffffff\n      and\n      dup2\n      mstore\n      0x20\n      add\n      swap1\n      dup2\n      mstore\n      0x20\n      add\n      0x00\n      keccak256\n        /* \"temp.sol\":8487:8555  VaultAccount memory account = g__VaultAccounts[vault_id][msg.sender] */\n      mload(0x40)\n      dup1\n      0x80\n      add\n      0x40\n      mstore\n      swap1\n      dup2\n      0x00\n      dup3\n      add\n      0x00\n      swap1\n      sload\n      swap1\n      0x0100\n      exp\n      swap1\n      div\n      0xff\n      and\n      0x03\n      dup2\n      gt\n      iszero\n      tag_374\n      jumpi\n      tag_375\n      tag_160\n      jump\t// in\n    tag_375:\n    tag_374:\n      0x03\n      dup2\n      gt\n      iszero\n      tag_376\n      jumpi\n      tag_377\n      tag_160\n      jump\t// in\n    tag_377:\n    tag_376:\n      dup2\n      mstore\n      0x20\n      add\n      0x00\n      dup3\n      add\n      0x01\n      swap1\n      sload\n      swap1\n      0x0100\n      exp\n      swap1\n      div\n      0xff\n      and\n      iszero\n      iszero\n      iszero\n      iszero\n      dup2\n      mstore\n      0x20\n      add\n      0x01\n      dup3\n      add\n      dup1\n      sload\n      tag_378\n      swap1\n      tag_219\n      jump\t// in\n    tag_378:\n      dup1\n      0x1f\n      add\n      0x20\n      dup1\n      swap2\n      div\n      mul\n      0x20\n      add\n      mload(0x40)\n      swap1\n      dup2\n      add\n      0x40\n      mstore\n      dup1\n      swap3\n      swap2\n      swap1\n      dup2\n      dup2\n      mstore\n      0x20\n      add\n      dup3\n      dup1\n      sload\n      tag_379\n      swap1\n      tag_219\n      jump\t// in\n    tag_379:\n      dup1\n      iszero\n      tag_380\n      jumpi\n      dup1\n      0x1f\n      lt\n      tag_381\n      jumpi\n      0x0100\n      dup1\n      dup4\n      sload\n      div\n      mul\n      dup4\n      mstore\n      swap2\n      0x20\n      add\n      swap2\n      jump(tag_380)\n    tag_381:\n      dup3\n      add\n      swap2\n      swap1\n      0x00\n      mstore\n      keccak256(0x00, 0x20)\n      swap1\n    tag_382:\n      dup2\n      sload\n      dup2\n      mstore\n      swap1\n      0x01\n      add\n      swap1\n      0x20\n      add\n      dup1\n      dup4\n      gt\n      tag_382\n      jumpi\n      dup3\n      swap1\n      sub\n      0x1f\n      and\n      dup3\n      add\n      swap2\n    tag_380:\n      pop\n      pop\n      pop\n      pop\n      pop\n      dup2\n      mstore\n      0x20\n      add\n      0x02\n      dup3\n      add\n      sload\n      dup2\n      mstore\n      pop\n      pop\n      swap1\n      pop\n        /* \"temp.sol\":8561:8579  Vault memory vault */\n      0x00\n        /* \"temp.sol\":8582:8596  g__VaultLookup */\n      0x03\n        /* \"temp.sol\":8597:8605  vault_id */\n      dup6\n        /* \"temp.sol\":8582:8606  g__VaultLookup[vault_id] */\n      mload(0x40)\n      tag_383\n      swap2\n      swap1\n      tag_162\n      jump\t// in\n    tag_383:\n      swap1\n      dup2\n      mstore\n      0x20\n      add\n      mload(0x40)\n      dup1\n      swap2\n      sub\n      swap1\n      keccak256\n        /* \"temp.sol\":8561:8606  Vault memory vault = g__VaultLookup[vault_id] */\n      mload(0x40)\n      dup1\n      0x0160\n      add\n      0x40\n      mstore\n      swap1\n      dup2\n      0x00\n      dup3\n      add\n      0x00\n      swap1\n      sload\n      swap1\n      0x0100\n      exp\n      swap1\n      div\n      0xff\n      and\n      0x03\n      dup2\n      gt\n      iszero\n      tag_384\n      jumpi\n      tag_385\n      tag_160\n      jump\t// in\n    tag_385:\n    tag_384:\n      0x03\n      dup2\n      gt\n      iszero\n      tag_386\n      jumpi\n      tag_387\n      tag_160\n      jump\t// in\n    tag_387:\n    tag_386:\n      dup2\n      mstore\n      0x20\n      add\n      0x01\n      dup3\n      add\n      dup1\n      sload\n      tag_388\n      swap1\n      tag_219\n      jump\t// in\n    tag_388:\n      dup1\n      0x1f\n      add\n      0x20\n      dup1\n      swap2\n      div\n      mul\n      0x20\n      add\n      mload(0x40)\n      swap1\n      dup2\n      add\n      0x40\n      mstore\n      dup1\n      swap3\n      swap2\n      swap1\n      dup2\n      dup2\n      mstore\n      0x20\n      add\n      dup3\n      dup1\n      sload\n      tag_389\n      swap1\n      tag_219\n      jump\t// in\n    tag_389:\n      dup1\n      iszero\n      tag_390\n      jumpi\n      dup1\n      0x1f\n      lt\n      tag_391\n      jumpi\n      0x0100\n      dup1\n      dup4\n      sload\n      div\n      mul\n      dup4\n      mstore\n      swap2\n      0x20\n      add\n      swap2\n      jump(tag_390)\n    tag_391:\n      dup3\n      add\n      swap2\n      swap1\n      0x00\n      mstore\n      keccak256(0x00, 0x20)\n      swap1\n    tag_392:\n      dup2\n      sload\n      dup2\n      mstore\n      swap1\n      0x01\n      add\n      swap1\n      0x20\n      add\n      dup1\n      dup4\n      gt\n      tag_392\n      jumpi\n      dup3\n      swap1\n      sub\n      0x1f\n      and\n      dup3\n      add\n      swap2\n    tag_390:\n      pop\n      pop\n      pop\n      pop\n      pop\n      dup2\n      mstore\n      0x20\n      add\n      0x02\n      dup3\n      add\n      0x00\n      swap1\n      sload\n      swap1\n      0x0100\n      exp\n      swap1\n      div\n      0xffffffffffffffffffffffffffffffffffffffff\n      and\n      0xffffffffffffffffffffffffffffffffffffffff\n      and\n      0xffffffffffffffffffffffffffffffffffffffff\n      and\n      dup2\n      mstore\n      0x20\n      add\n      0x03\n      dup3\n      add\n      sload\n      dup2\n      mstore\n      0x20\n      add\n      0x04\n      dup3\n      add\n      sload\n      dup2\n      mstore\n      0x20\n      add\n      0x05\n      dup3\n      add\n      0x00\n      swap1\n      sload\n      swap1\n      0x0100\n      exp\n      swap1\n      div\n      0xffff\n      and\n      0xffff\n      and\n      0xffff\n      and\n      dup2\n      mstore\n      0x20\n      add\n      0x05\n      dup3\n      add\n      0x02\n      swap1\n      sload\n      swap1\n      0x0100\n      exp\n      swap1\n      div\n      0xffff\n      and\n      0xffff\n      and\n      0xffff\n      and\n      dup2\n      mstore\n      0x20\n      add\n      0x05\n      dup3\n      add\n      0x04\n      swap1\n      sload\n      swap1\n      0x0100\n      exp\n      swap1\n      div\n      0xffff\n      and\n      0xffff\n      and\n      0xffff\n      and\n      dup2\n      mstore\n      0x20\n      add\n      0x06\n      dup3\n      add\n      sload\n      dup2\n      mstore\n      0x20\n      add\n      0x07\n      dup3\n      add\n      sload\n      dup2\n      mstore\n      0x20\n      add\n      0x08\n      dup3\n      add\n      sload\n      dup2\n      mstore\n      pop\n      pop\n      swap1\n      pop\n        /* \"temp.sol\":8646:8671  VaultAccountStatus.Active */\n      0x02\n        /* \"temp.sol\":8628:8671  account.status == VaultAccountStatus.Active */\n      0x03\n      dup2\n      gt\n      iszero\n      tag_393\n      jumpi\n      tag_394\n      tag_160\n      jump\t// in\n    tag_394:\n    tag_393:\n        /* \"temp.sol\":8628:8635  account */\n      dup3\n        /* \"temp.sol\":8628:8642  account.status */\n      0x00\n      add\n      mload\n        /* \"temp.sol\":8628:8671  account.status == VaultAccountStatus.Active */\n      0x03\n      dup2\n      gt\n      iszero\n      tag_395\n      jumpi\n      tag_396\n      tag_160\n      jump\t// in\n    tag_396:\n    tag_395:\n      eq\n        /* \"temp.sol\":8627:8717  (account.status == VaultAccountStatus.Active) || (vault.status == VaultStatus.Arbitration) */\n      dup1\n      tag_397\n      jumpi\n      pop\n        /* \"temp.sol\":8693:8716  VaultStatus.Arbitration */\n      0x03\n        /* \"temp.sol\":8677:8716  vault.status == VaultStatus.Arbitration */\n      dup1\n      dup2\n      gt\n      iszero\n      tag_398\n      jumpi\n      tag_399\n      tag_160\n      jump\t// in\n    tag_399:\n    tag_398:\n        /* \"temp.sol\":8677:8682  vault */\n      dup2\n        /* \"temp.sol\":8677:8689  vault.status */\n      0x00\n      add\n      mload\n        /* \"temp.sol\":8677:8716  vault.status == VaultStatus.Arbitration */\n      0x03\n      dup2\n      gt\n      iszero\n      tag_400\n      jumpi\n      tag_401\n      tag_160\n      jump\t// in\n    tag_401:\n    tag_400:\n      eq\n        /* \"temp.sol\":8627:8717  (account.status == VaultAccountStatus.Active) || (vault.status == VaultStatus.Arbitration) */\n    tag_397:\n        /* \"temp.sol\":8612:8754  require(... */\n      tag_402\n      jumpi\n      mload(0x40)\n      0x08c379a000000000000000000000000000000000000000000000000000000000\n      dup2\n      mstore\n      0x04\n      add\n      tag_403\n      swap1\n      tag_404\n      jump\t// in\n    tag_403:\n      mload(0x40)\n      dup1\n      swap2\n      sub\n      swap1\n      revert\n    tag_402:\n        /* \"temp.sol\":8840:8868  VaultRequestStatus.Undefined */\n      0x00\n        /* \"temp.sol\":8775:8868  g__VaultWithdrawals[vault_id][msg.sender][withdraw_id].status == VaultRequestStatus.Undefined */\n      0x05\n      dup2\n      gt\n      iszero\n      tag_405\n      jumpi\n      tag_406\n      tag_160\n      jump\t// in\n    tag_406:\n    tag_405:\n        /* \"temp.sol\":8775:8794  g__VaultWithdrawals */\n      0x05\n        /* \"temp.sol\":8795:8803  vault_id */\n      dup7\n        /* \"temp.sol\":8775:8804  g__VaultWithdrawals[vault_id] */\n      mload(0x40)\n      tag_407\n      swap2\n      swap1\n      tag_162\n      jump\t// in\n    tag_407:\n      swap1\n      dup2\n      mstore\n      0x20\n      add\n      mload(0x40)\n      dup1\n      swap2\n      sub\n      swap1\n      keccak256\n        /* \"temp.sol\":8775:8816  g__VaultWithdrawals[vault_id][msg.sender] */\n      0x00\n        /* \"temp.sol\":8805:8815  msg.sender */\n      caller\n        /* \"temp.sol\":8775:8816  g__VaultWithdrawals[vault_id][msg.sender] */\n      0xffffffffffffffffffffffffffffffffffffffff\n      and\n      0xffffffffffffffffffffffffffffffffffffffff\n      and\n      dup2\n      mstore\n      0x20\n      add\n      swap1\n      dup2\n      mstore\n      0x20\n      add\n      0x00\n      keccak256\n        /* \"temp.sol\":8817:8828  withdraw_id */\n      dup6\n        /* \"temp.sol\":8775:8829  g__VaultWithdrawals[vault_id][msg.sender][withdraw_id] */\n      mload(0x40)\n      tag_408\n      swap2\n      swap1\n      tag_162\n      jump\t// in\n    tag_408:\n      swap1\n      dup2\n      mstore\n      0x20\n      add\n      mload(0x40)\n      dup1\n      swap2\n      sub\n      swap1\n      keccak256\n        /* \"temp.sol\":8775:8836  g__VaultWithdrawals[vault_id][msg.sender][withdraw_id].status */\n      0x01\n      add\n      0x00\n      swap1\n      sload\n      swap1\n      0x0100\n      exp\n      swap1\n      div\n      0xff\n      and\n        /* \"temp.sol\":8775:8868  g__VaultWithdrawals[vault_id][msg.sender][withdraw_id].status == VaultRequestStatus.Undefined */\n      0x05\n      dup2\n      gt\n      iszero\n      tag_409\n      jumpi\n      tag_410\n      tag_160\n      jump\t// in\n    tag_410:\n    tag_409:\n      eq\n        /* \"temp.sol\":8760:8911  require(... */\n      tag_411\n      jumpi\n      mload(0x40)\n      0x08c379a000000000000000000000000000000000000000000000000000000000\n      dup2\n      mstore\n      0x04\n      add\n      tag_412\n      swap1\n      tag_413\n      jump\t// in\n    tag_412:\n      mload(0x40)\n      dup1\n      swap2\n      sub\n      swap1\n      revert\n    tag_411:\n        /* \"temp.sol\":8942:8947  vault */\n      dup1\n        /* \"temp.sol\":8942:8966  vault.vault_withdraw_min */\n      0x0120\n      add\n      mload\n        /* \"temp.sol\":8932:8938  amount */\n      dup4\n        /* \"temp.sol\":8932:8966  amount >= vault.vault_withdraw_min */\n      lt\n      iszero\n        /* \"temp.sol\":8917:9012  require(... */\n      tag_414\n      jumpi\n      mload(0x40)\n      0x08c379a000000000000000000000000000000000000000000000000000000000\n      dup2\n      mstore\n      0x04\n      add\n      tag_415\n      swap1\n      tag_416\n      jump\t// in\n    tag_415:\n      mload(0x40)\n      dup1\n      swap2\n      sub\n      swap1\n      revert\n    tag_414:\n        /* \"temp.sol\":9043:9048  vault */\n      dup1\n        /* \"temp.sol\":9043:9067  vault.vault_withdraw_max */\n      0x0140\n      add\n      mload\n        /* \"temp.sol\":9033:9039  amount */\n      dup4\n        /* \"temp.sol\":9033:9067  amount <= vault.vault_withdraw_max */\n      gt\n      iszero\n        /* \"temp.sol\":9018:9112  require(... */\n      tag_417\n      jumpi\n      mload(0x40)\n      0x08c379a000000000000000000000000000000000000000000000000000000000\n      dup2\n      mstore\n      0x04\n      add\n      tag_418\n      swap1\n      tag_419\n      jump\t// in\n    tag_418:\n      mload(0x40)\n      dup1\n      swap2\n      sub\n      swap1\n      revert\n    tag_417:\n        /* \"temp.sol\":9118:9142  uint new_total_requested */\n      0x00\n        /* \"temp.sol\":9189:9195  amount */\n      dup4\n        /* \"temp.sol\":9146:9160  g__VaultLookup */\n      0x03\n        /* \"temp.sol\":9161:9169  vault_id */\n      dup8\n        /* \"temp.sol\":9146:9170  g__VaultLookup[vault_id] */\n      mload(0x40)\n      tag_420\n      swap2\n      swap1\n      tag_162\n      jump\t// in\n    tag_420:\n      swap1\n      dup2\n      mstore\n      0x20\n      add\n      mload(0x40)\n      dup1\n      swap2\n      sub\n      swap1\n      keccak256\n        /* \"temp.sol\":9146:9186  g__VaultLookup[vault_id].total_requested */\n      0x04\n      add\n      sload\n        /* \"temp.sol\":9146:9195  g__VaultLookup[vault_id].total_requested + amount */\n      tag_421\n      swap2\n      swap1\n      tag_422\n      jump\t// in\n    tag_421:\n        /* \"temp.sol\":9118:9196  uint new_total_requested = (g__VaultLookup[vault_id].total_requested + amount) */\n      swap1\n      pop\n        /* \"temp.sol\":9256:9275  new_total_requested */\n      dup1\n        /* \"temp.sol\":9217:9231  g__VaultLookup */\n      0x03\n        /* \"temp.sol\":9232:9240  vault_id */\n      dup8\n        /* \"temp.sol\":9217:9241  g__VaultLookup[vault_id] */\n      mload(0x40)\n      tag_423\n      swap2\n      swap1\n      tag_162\n      jump\t// in\n    tag_423:\n      swap1\n      dup2\n      mstore\n      0x20\n      add\n      mload(0x40)\n      dup1\n      swap2\n      sub\n      swap1\n      keccak256\n        /* \"temp.sol\":9217:9252  g__VaultLookup[vault_id].total_pool */\n      0x03\n      add\n      sload\n        /* \"temp.sol\":9217:9275  g__VaultLookup[vault_id].total_pool >= new_total_requested */\n      lt\n      iszero\n        /* \"temp.sol\":9202:9316  require(... */\n      tag_424\n      jumpi\n      mload(0x40)\n      0x08c379a000000000000000000000000000000000000000000000000000000000\n      dup2\n      mstore\n      0x04\n      add\n      tag_425\n      swap1\n      tag_426\n      jump\t// in\n    tag_425:\n      mload(0x40)\n      dup1\n      swap2\n      sub\n      swap1\n      revert\n    tag_424:\n        /* \"temp.sol\":9379:9429  WithdrawRequest(amount,VaultRequestStatus.Pending) */\n      mload(0x40)\n      dup1\n      0x40\n      add\n      0x40\n      mstore\n      dup1\n        /* \"temp.sol\":9395:9401  amount */\n      dup6\n        /* \"temp.sol\":9379:9429  WithdrawRequest(amount,VaultRequestStatus.Pending) */\n      dup2\n      mstore\n      0x20\n      add\n        /* \"temp.sol\":9402:9428  VaultRequestStatus.Pending */\n      0x01\n        /* \"temp.sol\":9379:9429  WithdrawRequest(amount,VaultRequestStatus.Pending) */\n      0x05\n      dup2\n      gt\n      iszero\n      tag_427\n      jumpi\n      tag_428\n      tag_160\n      jump\t// in\n    tag_428:\n    tag_427:\n      dup2\n      mstore\n      pop\n        /* \"temp.sol\":9322:9341  g__VaultWithdrawals */\n      0x05\n        /* \"temp.sol\":9342:9350  vault_id */\n      dup8\n        /* \"temp.sol\":9322:9351  g__VaultWithdrawals[vault_id] */\n      mload(0x40)\n      tag_429\n      swap2\n      swap1\n      tag_162\n      jump\t// in\n    tag_429:\n      swap1\n      dup2\n      mstore\n      0x20\n      add\n      mload(0x40)\n      dup1\n      swap2\n      sub\n      swap1\n      keccak256\n        /* \"temp.sol\":9322:9363  g__VaultWithdrawals[vault_id][msg.sender] */\n      0x00\n        /* \"temp.sol\":9352:9362  msg.sender */\n      caller\n        /* \"temp.sol\":9322:9363  g__VaultWithdrawals[vault_id][msg.sender] */\n      0xffffffffffffffffffffffffffffffffffffffff\n      and\n      0xffffffffffffffffffffffffffffffffffffffff\n      and\n      dup2\n      mstore\n      0x20\n      add\n      swap1\n      dup2\n      mstore\n      0x20\n      add\n      0x00\n      keccak256\n        /* \"temp.sol\":9364:9375  withdraw_id */\n      dup7\n        /* \"temp.sol\":9322:9376  g__VaultWithdrawals[vault_id][msg.sender][withdraw_id] */\n      mload(0x40)\n      tag_430\n      swap2\n      swap1\n      tag_162\n      jump\t// in\n    tag_430:\n      swap1\n      dup2\n      mstore\n      0x20\n      add\n      mload(0x40)\n      dup1\n      swap2\n      sub\n      swap1\n      keccak256\n        /* \"temp.sol\":9322:9429  g__VaultWithdrawals[vault_id][msg.sender][withdraw_id] = WithdrawRequest(amount,VaultRequestStatus.Pending) */\n      0x00\n      dup3\n      add\n      mload\n      dup2\n      0x00\n      add\n      sstore\n      0x20\n      dup3\n      add\n      mload\n      dup2\n      0x01\n      add\n      exp(0x0100, 0x00)\n      dup2\n      sload\n      dup2\n      0xff\n      mul\n      not\n      and\n      swap1\n      dup4\n      0x05\n      dup2\n      gt\n      iszero\n      tag_431\n      jumpi\n      tag_432\n      tag_160\n      jump\t// in\n    tag_432:\n    tag_431:\n      mul\n      or\n      swap1\n      sstore\n      pop\n      swap1\n      pop\n      pop\n        /* \"temp.sol\":9478:9497  new_total_requested */\n      dup1\n        /* \"temp.sol\":9435:9449  g__VaultLookup */\n      0x03\n        /* \"temp.sol\":9450:9458  vault_id */\n      dup8\n        /* \"temp.sol\":9435:9459  g__VaultLookup[vault_id] */\n      mload(0x40)\n      tag_433\n      swap2\n      swap1\n      tag_162\n      jump\t// in\n    tag_433:\n      swap1\n      dup2\n      mstore\n      0x20\n      add\n      mload(0x40)\n      dup1\n      swap2\n      sub\n      swap1\n      keccak256\n        /* \"temp.sol\":9435:9475  g__VaultLookup[vault_id].total_requested */\n      0x04\n      add\n        /* \"temp.sol\":9435:9497  g__VaultLookup[vault_id].total_requested = new_total_requested */\n      dup2\n      swap1\n      sstore\n      pop\n        /* \"temp.sol\":9508:9568  VaultEvent(\"withdraw_request\",withdraw_id,msg.sender,amount) */\n      0x040768ee67403a1b2c45e2ee8e9c7cb4283d12bd31f8126de25122997535c1bb\n        /* \"temp.sol\":9538:9549  withdraw_id */\n      dup6\n        /* \"temp.sol\":9550:9560  msg.sender */\n      caller\n        /* \"temp.sol\":9561:9567  amount */\n      dup7\n        /* \"temp.sol\":9508:9568  VaultEvent(\"withdraw_request\",withdraw_id,msg.sender,amount) */\n      mload(0x40)\n      tag_434\n      swap4\n      swap3\n      swap2\n      swap1\n      tag_435\n      jump\t// in\n    tag_434:\n      mload(0x40)\n      dup1\n      swap2\n      sub\n      swap1\n      log1\n        /* \"temp.sol\":8481:9573  {... */\n      pop\n      pop\n      pop\n        /* \"temp.sol\":8378:9573  function user__withdraw_request(string memory vault_id,string memory withdraw_id,uint amount) external {... */\n      pop\n      pop\n      pop\n      jump\t// out\n        /* \"temp.sol\":13306:13678  function user__account_deposit(string memory vault_id) external payable {... */\n    tag_118:\n        /* \"temp.sol\":13384:13411  VaultAccount memory account */\n      0x00\n        /* \"temp.sol\":13414:13450  ut__get_account(vault_id,msg.sender) */\n      tag_437\n        /* \"temp.sol\":13430:13438  vault_id */\n      dup3\n        /* \"temp.sol\":13439:13449  msg.sender */\n      caller\n        /* \"temp.sol\":13414:13429  ut__get_account */\n      tag_198\n        /* \"temp.sol\":13414:13450  ut__get_account(vault_id,msg.sender) */\n      jump\t// in\n    tag_437:\n        /* \"temp.sol\":13384:13450  VaultAccount memory account = ut__get_account(vault_id,msg.sender) */\n      swap1\n      pop\n        /* \"temp.sol\":13489:13514  VaultAccountStatus.Active */\n      0x02\n        /* \"temp.sol\":13471:13514  account.status == VaultAccountStatus.Active */\n      0x03\n      dup2\n      gt\n      iszero\n      tag_438\n      jumpi\n      tag_439\n      tag_160\n      jump\t// in\n    tag_439:\n    tag_438:\n        /* \"temp.sol\":13471:13478  account */\n      dup2\n        /* \"temp.sol\":13471:13485  account.status */\n      0x00\n      add\n      mload\n        /* \"temp.sol\":13471:13514  account.status == VaultAccountStatus.Active */\n      0x03\n      dup2\n      gt\n      iszero\n      tag_440\n      jumpi\n      tag_441\n      tag_160\n      jump\t// in\n    tag_441:\n    tag_440:\n      eq\n        /* \"temp.sol\":13456:13549  require(... */\n      tag_442\n      jumpi\n      mload(0x40)\n      0x08c379a000000000000000000000000000000000000000000000000000000000\n      dup2\n      mstore\n      0x04\n      add\n      tag_443\n      swap1\n      tag_444\n      jump\t// in\n    tag_443:\n      mload(0x40)\n      dup1\n      swap2\n      sub\n      swap1\n      revert\n    tag_442:\n        /* \"temp.sol\":13594:13603  msg.value */\n      callvalue\n        /* \"temp.sol\":13555:13569  g__VaultLookup */\n      0x03\n        /* \"temp.sol\":13570:13578  vault_id */\n      dup4\n        /* \"temp.sol\":13555:13579  g__VaultLookup[vault_id] */\n      mload(0x40)\n      tag_445\n      swap2\n      swap1\n      tag_162\n      jump\t// in\n    tag_445:\n      swap1\n      dup2\n      mstore\n      0x20\n      add\n      mload(0x40)\n      dup1\n      swap2\n      sub\n      swap1\n      keccak256\n        /* \"temp.sol\":13555:13590  g__VaultLookup[vault_id].total_pool */\n      0x03\n      add\n      0x00\n        /* \"temp.sol\":13555:13603  g__VaultLookup[vault_id].total_pool += msg.value */\n      dup3\n      dup3\n      sload\n      tag_446\n      swap2\n      swap1\n      tag_422\n      jump\t// in\n    tag_446:\n      swap3\n      pop\n      pop\n      dup2\n      swap1\n      sstore\n      pop\n        /* \"temp.sol\":13614:13673  VaultEvent(\"account_deposit\",vault_id,msg.sender,msg.value) */\n      0x040768ee67403a1b2c45e2ee8e9c7cb4283d12bd31f8126de25122997535c1bb\n        /* \"temp.sol\":13643:13651  vault_id */\n      dup3\n        /* \"temp.sol\":13652:13662  msg.sender */\n      caller\n        /* \"temp.sol\":13663:13672  msg.value */\n      callvalue\n        /* \"temp.sol\":13614:13673  VaultEvent(\"account_deposit\",vault_id,msg.sender,msg.value) */\n      mload(0x40)\n      tag_447\n      swap4\n      swap3\n      swap2\n      swap1\n      tag_448\n      jump\t// in\n    tag_447:\n      mload(0x40)\n      dup1\n      swap2\n      sub\n      swap1\n      log1\n        /* \"temp.sol\":13378:13678  {... */\n      pop\n        /* \"temp.sol\":13306:13678  function user__account_deposit(string memory vault_id) external payable {... */\n      pop\n      jump\t// out\n        /* \"temp.sol\":1174:1249  mapping(string => mapping(address => VaultAccount)) public g__VaultAccounts */\n    tag_122:\n      0x04\n      dup3\n      dup1\n      mload\n      0x20\n      dup2\n      add\n      dup3\n      add\n      dup1\n      mload\n      dup5\n      dup3\n      mstore\n      0x20\n      dup4\n      add\n      0x20\n      dup6\n      add\n      keccak256\n      dup2\n      dup4\n      mstore\n      dup1\n      swap6\n      pop\n      pop\n      pop\n      pop\n      pop\n      pop\n      0x20\n      mstore\n      dup1\n      0x00\n      mstore\n      keccak256(0x00, 0x40)\n      0x00\n      swap2\n      pop\n      swap2\n      pop\n      pop\n      dup1\n      0x00\n      add\n      0x00\n      swap1\n      sload\n      swap1\n      0x0100\n      exp\n      swap1\n      div\n      0xff\n      and\n      swap1\n      dup1\n      0x00\n      add\n      0x01\n      swap1\n      sload\n      swap1\n      0x0100\n      exp\n      swap1\n      div\n      0xff\n      and\n      swap1\n      dup1\n      0x01\n      add\n      dup1\n      sload\n      tag_449\n      swap1\n      tag_219\n      jump\t// in\n    tag_449:\n      dup1\n      0x1f\n      add\n      0x20\n      dup1\n      swap2\n      div\n      mul\n      0x20\n      add\n      mload(0x40)\n      swap1\n      dup2\n      add\n      0x40\n      mstore\n      dup1\n      swap3\n      swap2\n      swap1\n      dup2\n      dup2\n      mstore\n      0x20\n      add\n      dup3\n      dup1\n      sload\n      tag_450\n      swap1\n      tag_219\n      jump\t// in\n    tag_450:\n      dup1\n      iszero\n      tag_451\n      jumpi\n      dup1\n      0x1f\n      lt\n      tag_452\n      jumpi\n      0x0100\n      dup1\n      dup4\n      sload\n      div\n      mul\n      dup4\n      mstore\n      swap2\n      0x20\n      add\n      swap2\n      jump(tag_451)\n    tag_452:\n      dup3\n      add\n      swap2\n      swap1\n      0x00\n      mstore\n      keccak256(0x00, 0x20)\n      swap1\n    tag_453:\n      dup2\n      sload\n      dup2\n      mstore\n      swap1\n      0x01\n      add\n      swap1\n      0x20\n      add\n      dup1\n      dup4\n      gt\n      tag_453\n      jumpi\n      dup3\n      swap1\n      sub\n      0x1f\n      and\n      dup3\n      add\n      swap2\n    tag_451:\n      pop\n      pop\n      pop\n      pop\n      pop\n      swap1\n      dup1\n      0x02\n      add\n      sload\n      swap1\n      pop\n      dup5\n      jump\t// out\n        /* \"temp.sol\":11697:12213  function owner__withdraw_approve(string memory vault_id,address user_address,string memory withdraw_id,uint amount) external {... */\n    tag_128:\n        /* \"temp.sol\":11828:11865  ut__assert_owner(vault_id,msg.sender) */\n      tag_455\n        /* \"temp.sol\":11845:11853  vault_id */\n      dup5\n        /* \"temp.sol\":11854:11864  msg.sender */\n      caller\n        /* \"temp.sol\":11828:11844  ut__assert_owner */\n      tag_196\n        /* \"temp.sol\":11828:11865  ut__assert_owner(vault_id,msg.sender) */\n      jump\t// in\n    tag_455:\n        /* \"temp.sol\":11871:11901  WithdrawRequest memory request */\n      0x00\n        /* \"temp.sol\":11904:11923  g__VaultWithdrawals */\n      0x05\n        /* \"temp.sol\":11924:11932  vault_id */\n      dup6\n        /* \"temp.sol\":11904:11933  g__VaultWithdrawals[vault_id] */\n      mload(0x40)\n      tag_456\n      swap2\n      swap1\n      tag_162\n      jump\t// in\n    tag_456:\n      swap1\n      dup2\n      mstore\n      0x20\n      add\n      mload(0x40)\n      dup1\n      swap2\n      sub\n      swap1\n      keccak256\n        /* \"temp.sol\":11904:11947  g__VaultWithdrawals[vault_id][user_address] */\n      0x00\n        /* \"temp.sol\":11934:11946  user_address */\n      dup6\n        /* \"temp.sol\":11904:11947  g__VaultWithdrawals[vault_id][user_address] */\n      0xffffffffffffffffffffffffffffffffffffffff\n      and\n      0xffffffffffffffffffffffffffffffffffffffff\n      and\n      dup2\n      mstore\n      0x20\n      add\n      swap1\n      dup2\n      mstore\n      0x20\n      add\n      0x00\n      keccak256\n        /* \"temp.sol\":11948:11959  withdraw_id */\n      dup4\n        /* \"temp.sol\":11904:11960  g__VaultWithdrawals[vault_id][user_address][withdraw_id] */\n      mload(0x40)\n      tag_457\n      swap2\n      swap1\n      tag_162\n      jump\t// in\n    tag_457:\n      swap1\n      dup2\n      mstore\n      0x20\n      add\n      mload(0x40)\n      dup1\n      swap2\n      sub\n      swap1\n      keccak256\n        /* \"temp.sol\":11871:11960  WithdrawRequest memory request = g__VaultWithdrawals[vault_id][user_address][withdraw_id] */\n      mload(0x40)\n      dup1\n      0x40\n      add\n      0x40\n      mstore\n      swap1\n      dup2\n      0x00\n      dup3\n      add\n      sload\n      dup2\n      mstore\n      0x20\n      add\n      0x01\n      dup3\n      add\n      0x00\n      swap1\n      sload\n      swap1\n      0x0100\n      exp\n      swap1\n      div\n      0xff\n      and\n      0x05\n      dup2\n      gt\n      iszero\n      tag_458\n      jumpi\n      tag_459\n      tag_160\n      jump\t// in\n    tag_459:\n    tag_458:\n      0x05\n      dup2\n      gt\n      iszero\n      tag_460\n      jumpi\n      tag_461\n      tag_160\n      jump\t// in\n    tag_461:\n    tag_460:\n      dup2\n      mstore\n      pop\n      pop\n      swap1\n      pop\n        /* \"temp.sol\":11999:12027  VaultRequestStatus.Confirmed */\n      0x02\n        /* \"temp.sol\":11981:12027  request.status == VaultRequestStatus.Confirmed */\n      0x05\n      dup2\n      gt\n      iszero\n      tag_462\n      jumpi\n      tag_463\n      tag_160\n      jump\t// in\n    tag_463:\n    tag_462:\n        /* \"temp.sol\":11981:11988  request */\n      dup2\n        /* \"temp.sol\":11981:11995  request.status */\n      0x20\n      add\n      mload\n        /* \"temp.sol\":11981:12027  request.status == VaultRequestStatus.Confirmed */\n      0x05\n      dup2\n      gt\n      iszero\n      tag_464\n      jumpi\n      tag_465\n      tag_160\n      jump\t// in\n    tag_465:\n    tag_464:\n      eq\n        /* \"temp.sol\":11966:12065  require(... */\n      tag_466\n      jumpi\n      mload(0x40)\n      0x08c379a000000000000000000000000000000000000000000000000000000000\n      dup2\n      mstore\n      0x04\n      add\n      tag_467\n      swap1\n      tag_238\n      jump\t// in\n    tag_467:\n      mload(0x40)\n      dup1\n      swap2\n      sub\n      swap1\n      revert\n    tag_466:\n        /* \"temp.sol\":12097:12103  amount */\n      dup2\n        /* \"temp.sol\":12079:12086  request */\n      dup2\n        /* \"temp.sol\":12079:12093  request.amount */\n      0x00\n      add\n      mload\n        /* \"temp.sol\":12079:12103  request.amount == amount */\n      eq\n        /* \"temp.sol\":12071:12132  require(request.amount == amount,\"Withdraw amount incorrect\") */\n      tag_468\n      jumpi\n      mload(0x40)\n      0x08c379a000000000000000000000000000000000000000000000000000000000\n      dup2\n      mstore\n      0x04\n      add\n      tag_469\n      swap1\n      tag_310\n      jump\t// in\n    tag_469:\n      mload(0x40)\n      dup1\n      swap2\n      sub\n      swap1\n      revert\n    tag_468:\n        /* \"temp.sol\":12138:12208  ut__withdraw_transfer(vault_id,user_address,withdraw_id,request,false) */\n      tag_470\n        /* \"temp.sol\":12160:12168  vault_id */\n      dup6\n        /* \"temp.sol\":12169:12181  user_address */\n      dup6\n        /* \"temp.sol\":12182:12193  withdraw_id */\n      dup6\n        /* \"temp.sol\":12194:12201  request */\n      dup5\n        /* \"temp.sol\":12202:12207  false */\n      0x00\n        /* \"temp.sol\":12138:12159  ut__withdraw_transfer */\n      tag_296\n        /* \"temp.sol\":12138:12208  ut__withdraw_transfer(vault_id,user_address,withdraw_id,request,false) */\n      jump\t// in\n    tag_470:\n        /* \"temp.sol\":11822:12213  {... */\n      pop\n        /* \"temp.sol\":11697:12213  function owner__withdraw_approve(string memory vault_id,address user_address,string memory withdraw_id,uint amount) external {... */\n      pop\n      pop\n      pop\n      pop\n      jump\t// out\n        /* \"temp.sol\":10184:10777  function site__withdraw_reject(string memory vault_id,address user_address,string memory withdraw_id) external {... */\n    tag_132:\n        /* \"temp.sol\":10301:10329  ut__assert_admin(msg.sender) */\n      tag_472\n        /* \"temp.sol\":10318:10328  msg.sender */\n      caller\n        /* \"temp.sol\":10301:10317  ut__assert_admin */\n      tag_157\n        /* \"temp.sol\":10301:10329  ut__assert_admin(msg.sender) */\n      jump\t// in\n    tag_472:\n        /* \"temp.sol\":10335:10365  WithdrawRequest memory request */\n      0x00\n        /* \"temp.sol\":10368:10419  ut__get_withdraw(vault_id,user_address,withdraw_id) */\n      tag_473\n        /* \"temp.sol\":10385:10393  vault_id */\n      dup5\n        /* \"temp.sol\":10394:10406  user_address */\n      dup5\n        /* \"temp.sol\":10407:10418  withdraw_id */\n      dup5\n        /* \"temp.sol\":10368:10384  ut__get_withdraw */\n      tag_300\n        /* \"temp.sol\":10368:10419  ut__get_withdraw(vault_id,user_address,withdraw_id) */\n      jump\t// in\n    tag_473:\n        /* \"temp.sol\":10335:10419  WithdrawRequest memory request = ut__get_withdraw(vault_id,user_address,withdraw_id) */\n      swap1\n      pop\n        /* \"temp.sol\":10458:10484  VaultRequestStatus.Pending */\n      0x01\n        /* \"temp.sol\":10440:10484  request.status == VaultRequestStatus.Pending */\n      0x05\n      dup2\n      gt\n      iszero\n      tag_474\n      jumpi\n      tag_475\n      tag_160\n      jump\t// in\n    tag_475:\n    tag_474:\n        /* \"temp.sol\":10440:10447  request */\n      dup2\n        /* \"temp.sol\":10440:10454  request.status */\n      0x20\n      add\n      mload\n        /* \"temp.sol\":10440:10484  request.status == VaultRequestStatus.Pending */\n      0x05\n      dup2\n      gt\n      iszero\n      tag_476\n      jumpi\n      tag_477\n      tag_160\n      jump\t// in\n    tag_477:\n    tag_476:\n      eq\n        /* \"temp.sol\":10425:10520  require(... */\n      tag_478\n      jumpi\n      mload(0x40)\n      0x08c379a000000000000000000000000000000000000000000000000000000000\n      dup2\n      mstore\n      0x04\n      add\n      tag_479\n      swap1\n      tag_307\n      jump\t// in\n    tag_479:\n      mload(0x40)\n      dup1\n      swap2\n      sub\n      swap1\n      revert\n    tag_478:\n        /* \"temp.sol\":10592:10623  VaultRequestStatus.RejectedSite */\n      0x03\n        /* \"temp.sol\":10526:10545  g__VaultWithdrawals */\n      0x05\n        /* \"temp.sol\":10546:10554  vault_id */\n      dup6\n        /* \"temp.sol\":10526:10555  g__VaultWithdrawals[vault_id] */\n      mload(0x40)\n      tag_480\n      swap2\n      swap1\n      tag_162\n      jump\t// in\n    tag_480:\n      swap1\n      dup2\n      mstore\n      0x20\n      add\n      mload(0x40)\n      dup1\n      swap2\n      sub\n      swap1\n      keccak256\n        /* \"temp.sol\":10526:10569  g__VaultWithdrawals[vault_id][user_address] */\n      0x00\n        /* \"temp.sol\":10556:10568  user_address */\n      dup6\n        /* \"temp.sol\":10526:10569  g__VaultWithdrawals[vault_id][user_address] */\n      0xffffffffffffffffffffffffffffffffffffffff\n      and\n      0xffffffffffffffffffffffffffffffffffffffff\n      and\n      dup2\n      mstore\n      0x20\n      add\n      swap1\n      dup2\n      mstore\n      0x20\n      add\n      0x00\n      keccak256\n        /* \"temp.sol\":10570:10581  withdraw_id */\n      dup4\n        /* \"temp.sol\":10526:10582  g__VaultWithdrawals[vault_id][user_address][withdraw_id] */\n      mload(0x40)\n      tag_481\n      swap2\n      swap1\n      tag_162\n      jump\t// in\n    tag_481:\n      swap1\n      dup2\n      mstore\n      0x20\n      add\n      mload(0x40)\n      dup1\n      swap2\n      sub\n      swap1\n      keccak256\n        /* \"temp.sol\":10526:10589  g__VaultWithdrawals[vault_id][user_address][withdraw_id].status */\n      0x01\n      add\n      0x00\n        /* \"temp.sol\":10526:10623  g__VaultWithdrawals[vault_id][user_address][withdraw_id].status = VaultRequestStatus.RejectedSite */\n      0x0100\n      exp\n      dup2\n      sload\n      dup2\n      0xff\n      mul\n      not\n      and\n      swap1\n      dup4\n      0x05\n      dup2\n      gt\n      iszero\n      tag_482\n      jumpi\n      tag_483\n      tag_160\n      jump\t// in\n    tag_483:\n    tag_482:\n      mul\n      or\n      swap1\n      sstore\n      pop\n        /* \"temp.sol\":10673:10680  request */\n      dup1\n        /* \"temp.sol\":10673:10687  request.amount */\n      0x00\n      add\n      mload\n        /* \"temp.sol\":10629:10643  g__VaultLookup */\n      0x03\n        /* \"temp.sol\":10644:10652  vault_id */\n      dup6\n        /* \"temp.sol\":10629:10653  g__VaultLookup[vault_id] */\n      mload(0x40)\n      tag_484\n      swap2\n      swap1\n      tag_162\n      jump\t// in\n    tag_484:\n      swap1\n      dup2\n      mstore\n      0x20\n      add\n      mload(0x40)\n      dup1\n      swap2\n      sub\n      swap1\n      keccak256\n        /* \"temp.sol\":10629:10669  g__VaultLookup[vault_id].total_requested */\n      0x04\n      add\n      0x00\n        /* \"temp.sol\":10629:10687  g__VaultLookup[vault_id].total_requested -= request.amount */\n      dup3\n      dup3\n      sload\n      tag_485\n      swap2\n      swap1\n      tag_245\n      jump\t// in\n    tag_485:\n      swap3\n      pop\n      pop\n      dup2\n      swap1\n      sstore\n      pop\n        /* \"temp.sol\":10698:10772  VaultEvent(\"withdraw_reject_site\",withdraw_id,user_address,request.amount) */\n      0x040768ee67403a1b2c45e2ee8e9c7cb4283d12bd31f8126de25122997535c1bb\n        /* \"temp.sol\":10732:10743  withdraw_id */\n      dup3\n        /* \"temp.sol\":10744:10756  user_address */\n      dup5\n        /* \"temp.sol\":10757:10764  request */\n      dup4\n        /* \"temp.sol\":10757:10771  request.amount */\n      0x00\n      add\n      mload\n        /* \"temp.sol\":10698:10772  VaultEvent(\"withdraw_reject_site\",withdraw_id,user_address,request.amount) */\n      mload(0x40)\n      tag_486\n      swap4\n      swap3\n      swap2\n      swap1\n      tag_487\n      jump\t// in\n    tag_486:\n      mload(0x40)\n      dup1\n      swap2\n      sub\n      swap1\n      log1\n        /* \"temp.sol\":10295:10777  {... */\n      pop\n        /* \"temp.sol\":10184:10777  function site__withdraw_reject(string memory vault_id,address user_address,string memory withdraw_id) external {... */\n      pop\n      pop\n      pop\n      jump\t// out\n        /* \"temp.sol\":5759:6230  function owner__account_open_confirm(string memory vault_id,address user_address) external {... */\n    tag_136:\n        /* \"temp.sol\":5856:5893  ut__assert_owner(vault_id,msg.sender) */\n      tag_489\n        /* \"temp.sol\":5873:5881  vault_id */\n      dup3\n        /* \"temp.sol\":5882:5892  msg.sender */\n      caller\n        /* \"temp.sol\":5856:5872  ut__assert_owner */\n      tag_196\n        /* \"temp.sol\":5856:5893  ut__assert_owner(vault_id,msg.sender) */\n      jump\t// in\n    tag_489:\n        /* \"temp.sol\":5899:5926  VaultAccount memory account */\n      0x00\n        /* \"temp.sol\":5929:5967  ut__get_account(vault_id,user_address) */\n      tag_490\n        /* \"temp.sol\":5945:5953  vault_id */\n      dup4\n        /* \"temp.sol\":5954:5966  user_address */\n      dup4\n        /* \"temp.sol\":5929:5944  ut__get_account */\n      tag_198\n        /* \"temp.sol\":5929:5967  ut__get_account(vault_id,user_address) */\n      jump\t// in\n    tag_490:\n        /* \"temp.sol\":5899:5967  VaultAccount memory account = ut__get_account(vault_id,user_address) */\n      swap1\n      pop\n        /* \"temp.sol\":6006:6034  VaultAccountStatus.Requested */\n      0x01\n        /* \"temp.sol\":5988:6034  account.status == VaultAccountStatus.Requested */\n      0x03\n      dup2\n      gt\n      iszero\n      tag_491\n      jumpi\n      tag_492\n      tag_160\n      jump\t// in\n    tag_492:\n    tag_491:\n        /* \"temp.sol\":5988:5995  account */\n      dup2\n        /* \"temp.sol\":5988:6002  account.status */\n      0x00\n      add\n      mload\n        /* \"temp.sol\":5988:6034  account.status == VaultAccountStatus.Requested */\n      0x03\n      dup2\n      gt\n      iszero\n      tag_493\n      jumpi\n      tag_494\n      tag_160\n      jump\t// in\n    tag_494:\n    tag_493:\n      eq\n        /* \"temp.sol\":5973:6075  require(... */\n      tag_495\n      jumpi\n      mload(0x40)\n      0x08c379a000000000000000000000000000000000000000000000000000000000\n      dup2\n      mstore\n      0x04\n      add\n      tag_496\n      swap1\n      tag_346\n      jump\t// in\n    tag_496:\n      mload(0x40)\n      dup1\n      swap2\n      sub\n      swap1\n      revert\n    tag_495:\n        /* \"temp.sol\":6131:6156  VaultAccountStatus.Active */\n      0x02\n        /* \"temp.sol\":6081:6097  g__VaultAccounts */\n      0x04\n        /* \"temp.sol\":6098:6106  vault_id */\n      dup5\n        /* \"temp.sol\":6081:6107  g__VaultAccounts[vault_id] */\n      mload(0x40)\n      tag_497\n      swap2\n      swap1\n      tag_162\n      jump\t// in\n    tag_497:\n      swap1\n      dup2\n      mstore\n      0x20\n      add\n      mload(0x40)\n      dup1\n      swap2\n      sub\n      swap1\n      keccak256\n        /* \"temp.sol\":6081:6121  g__VaultAccounts[vault_id][user_address] */\n      0x00\n        /* \"temp.sol\":6108:6120  user_address */\n      dup5\n        /* \"temp.sol\":6081:6121  g__VaultAccounts[vault_id][user_address] */\n      0xffffffffffffffffffffffffffffffffffffffff\n      and\n      0xffffffffffffffffffffffffffffffffffffffff\n      and\n      dup2\n      mstore\n      0x20\n      add\n      swap1\n      dup2\n      mstore\n      0x20\n      add\n      0x00\n      keccak256\n        /* \"temp.sol\":6081:6128  g__VaultAccounts[vault_id][user_address].status */\n      0x00\n      add\n      0x00\n        /* \"temp.sol\":6081:6156  g__VaultAccounts[vault_id][user_address].status = VaultAccountStatus.Active */\n      0x0100\n      exp\n      dup2\n      sload\n      dup2\n      0xff\n      mul\n      not\n      and\n      swap1\n      dup4\n      0x03\n      dup2\n      gt\n      iszero\n      tag_498\n      jumpi\n      tag_499\n      tag_160\n      jump\t// in\n    tag_499:\n    tag_498:\n      mul\n      or\n      swap1\n      sstore\n      pop\n        /* \"temp.sol\":6167:6225  VaultEvent(\"account_open_confirm\",vault_id,user_address,0) */\n      0x040768ee67403a1b2c45e2ee8e9c7cb4283d12bd31f8126de25122997535c1bb\n        /* \"temp.sol\":6201:6209  vault_id */\n      dup4\n        /* \"temp.sol\":6210:6222  user_address */\n      dup4\n        /* \"temp.sol\":6223:6224  0 */\n      0x00\n        /* \"temp.sol\":6167:6225  VaultEvent(\"account_open_confirm\",vault_id,user_address,0) */\n      mload(0x40)\n      tag_500\n      swap4\n      swap3\n      swap2\n      swap1\n      tag_501\n      jump\t// in\n    tag_500:\n      mload(0x40)\n      dup1\n      swap2\n      sub\n      swap1\n      log1\n        /* \"temp.sol\":5850:6230  {... */\n      pop\n        /* \"temp.sol\":5759:6230  function owner__account_open_confirm(string memory vault_id,address user_address) external {... */\n      pop\n      pop\n      jump\t// out\n        /* \"temp.sol\":438:479  uint16 public g__SiteArbitrationThreshold */\n    tag_139:\n      0x02\n      0x00\n      swap1\n      sload\n      swap1\n      0x0100\n      exp\n      swap1\n      div\n      0xffff\n      and\n      dup2\n      jump\t// out\n        /* \"temp.sol\":5036:5533  function site__account_close(string memory vault_id,address user_address) external {... */\n    tag_144:\n        /* \"temp.sol\":5125:5153  ut__assert_admin(msg.sender) */\n      tag_503\n        /* \"temp.sol\":5142:5152  msg.sender */\n      caller\n        /* \"temp.sol\":5125:5141  ut__assert_admin */\n      tag_157\n        /* \"temp.sol\":5125:5153  ut__assert_admin(msg.sender) */\n      jump\t// in\n    tag_503:\n        /* \"temp.sol\":5159:5186  VaultAccount memory account */\n      0x00\n        /* \"temp.sol\":5189:5227  ut__get_account(vault_id,user_address) */\n      tag_504\n        /* \"temp.sol\":5205:5213  vault_id */\n      dup4\n        /* \"temp.sol\":5214:5226  user_address */\n      dup4\n        /* \"temp.sol\":5189:5204  ut__get_account */\n      tag_198\n        /* \"temp.sol\":5189:5227  ut__get_account(vault_id,user_address) */\n      jump\t// in\n    tag_504:\n        /* \"temp.sol\":5159:5227  VaultAccount memory account = ut__get_account(vault_id,user_address) */\n      swap1\n      pop\n        /* \"temp.sol\":5266:5291  VaultAccountStatus.Active */\n      0x02\n        /* \"temp.sol\":5248:5291  account.status == VaultAccountStatus.Active */\n      0x03\n      dup2\n      gt\n      iszero\n      tag_505\n      jumpi\n      tag_506\n      tag_160\n      jump\t// in\n    tag_506:\n    tag_505:\n        /* \"temp.sol\":5248:5255  account */\n      dup2\n        /* \"temp.sol\":5248:5262  account.status */\n      0x00\n      add\n      mload\n        /* \"temp.sol\":5248:5291  account.status == VaultAccountStatus.Active */\n      0x03\n      dup2\n      gt\n      iszero\n      tag_507\n      jumpi\n      tag_508\n      tag_160\n      jump\t// in\n    tag_508:\n    tag_507:\n      eq\n        /* \"temp.sol\":5233:5332  require(... */\n      tag_509\n      jumpi\n      mload(0x40)\n      0x08c379a000000000000000000000000000000000000000000000000000000000\n      dup2\n      mstore\n      0x04\n      add\n      tag_510\n      swap1\n      tag_346\n      jump\t// in\n    tag_510:\n      mload(0x40)\n      dup1\n      swap2\n      sub\n      swap1\n      revert\n    tag_509:\n        /* \"temp.sol\":5345:5361  g__VaultAccounts */\n      0x04\n        /* \"temp.sol\":5362:5370  vault_id */\n      dup4\n        /* \"temp.sol\":5345:5371  g__VaultAccounts[vault_id] */\n      mload(0x40)\n      tag_511\n      swap2\n      swap1\n      tag_162\n      jump\t// in\n    tag_511:\n      swap1\n      dup2\n      mstore\n      0x20\n      add\n      mload(0x40)\n      dup1\n      swap2\n      sub\n      swap1\n      keccak256\n        /* \"temp.sol\":5345:5385  g__VaultAccounts[vault_id][user_address] */\n      0x00\n        /* \"temp.sol\":5372:5384  user_address */\n      dup4\n        /* \"temp.sol\":5345:5385  g__VaultAccounts[vault_id][user_address] */\n      0xffffffffffffffffffffffffffffffffffffffff\n      and\n      0xffffffffffffffffffffffffffffffffffffffff\n      and\n      dup2\n      mstore\n      0x20\n      add\n      swap1\n      dup2\n      mstore\n      0x20\n      add\n      0x00\n      keccak256\n      0x00\n        /* \"temp.sol\":5338:5385  delete g__VaultAccounts[vault_id][user_address] */\n      dup1\n      dup3\n      add\n      exp(0x0100, 0x00)\n      dup2\n      sload\n      swap1\n      0xff\n      mul\n      not\n      and\n      swap1\n      sstore\n      0x00\n      dup3\n      add\n      exp(0x0100, 0x01)\n      dup2\n      sload\n      swap1\n      0xff\n      mul\n      not\n      and\n      swap1\n      sstore\n      0x01\n      dup3\n      add\n      0x00\n      tag_512\n      swap2\n      swap1\n      tag_513\n      jump\t// in\n    tag_512:\n      0x02\n      dup3\n      add\n      0x00\n      swap1\n      sstore\n      pop\n      pop\n        /* \"temp.sol\":5391:5411  uint16 total_players */\n      0x00\n        /* \"temp.sol\":5416:5430  g__VaultLookup */\n      0x03\n        /* \"temp.sol\":5431:5439  vault_id */\n      dup5\n        /* \"temp.sol\":5416:5440  g__VaultLookup[vault_id] */\n      mload(0x40)\n      tag_514\n      swap2\n      swap1\n      tag_162\n      jump\t// in\n    tag_514:\n      swap1\n      dup2\n      mstore\n      0x20\n      add\n      mload(0x40)\n      dup1\n      swap2\n      sub\n      swap1\n      keccak256\n        /* \"temp.sol\":5416:5454  g__VaultLookup[vault_id].total_players */\n      0x05\n      add\n      0x00\n        /* \"temp.sol\":5414:5454  --g__VaultLookup[vault_id].total_players */\n      dup2\n      dup2\n      swap1\n      sload\n      swap1\n      0x0100\n      exp\n      swap1\n      div\n      0xffff\n      and\n      tag_515\n      swap1\n      tag_271\n      jump\t// in\n    tag_515:\n      swap2\n      swap1\n      0x0100\n      exp\n      dup2\n      sload\n      dup2\n      0xffff\n      mul\n      not\n      and\n      swap1\n      dup4\n      0xffff\n      and\n      mul\n      or\n      swap1\n      sstore\n        /* \"temp.sol\":5391:5454  uint16 total_players = --g__VaultLookup[vault_id].total_players */\n      swap1\n      pop\n        /* \"temp.sol\":5465:5528  VaultEvent(\"account_close\",vault_id,user_address,total_players) */\n      0x040768ee67403a1b2c45e2ee8e9c7cb4283d12bd31f8126de25122997535c1bb\n        /* \"temp.sol\":5492:5500  vault_id */\n      dup5\n        /* \"temp.sol\":5501:5513  user_address */\n      dup5\n        /* \"temp.sol\":5514:5527  total_players */\n      dup4\n        /* \"temp.sol\":5465:5528  VaultEvent(\"account_close\",vault_id,user_address,total_players) */\n      mload(0x40)\n      tag_516\n      swap4\n      swap3\n      swap2\n      swap1\n      tag_517\n      jump\t// in\n    tag_516:\n      mload(0x40)\n      dup1\n      swap2\n      sub\n      swap1\n      log1\n        /* \"temp.sol\":5119:5533  {... */\n      pop\n      pop\n        /* \"temp.sol\":5036:5533  function site__account_close(string memory vault_id,address user_address) external {... */\n      pop\n      pop\n      jump\t// out\n        /* \"temp.sol\":385:431  mapping(address => bool) public g__SiteSupport */\n    tag_148:\n      mstore(0x20, 0x01)\n      dup1\n      0x00\n      mstore\n      keccak256(0x00, 0x40)\n      0x00\n      swap2\n      pop\n      sload\n      swap1\n      0x0100\n      exp\n      swap1\n      div\n      0xff\n      and\n      dup2\n      jump\t// out\n        /* \"temp.sol\":3339:3464  function site__remove_support(address user) external {... */\n    tag_154:\n        /* \"temp.sol\":3398:3426  ut__assert_admin(msg.sender) */\n      tag_519\n        /* \"temp.sol\":3415:3425  msg.sender */\n      caller\n        /* \"temp.sol\":3398:3414  ut__assert_admin */\n      tag_157\n        /* \"temp.sol\":3398:3426  ut__assert_admin(msg.sender) */\n      jump\t// in\n    tag_519:\n        /* \"temp.sol\":3439:3453  g__SiteSupport */\n      0x01\n        /* \"temp.sol\":3439:3459  g__SiteSupport[user] */\n      0x00\n        /* \"temp.sol\":3454:3458  user */\n      dup3\n        /* \"temp.sol\":3439:3459  g__SiteSupport[user] */\n      0xffffffffffffffffffffffffffffffffffffffff\n      and\n      0xffffffffffffffffffffffffffffffffffffffff\n      and\n      dup2\n      mstore\n      0x20\n      add\n      swap1\n      dup2\n      mstore\n      0x20\n      add\n      0x00\n      keccak256\n      0x00\n        /* \"temp.sol\":3432:3459  delete g__SiteSupport[user] */\n      0x0100\n      exp\n      dup2\n      sload\n      swap1\n      0xff\n      mul\n      not\n      and\n      swap1\n      sstore\n        /* \"temp.sol\":3339:3464  function site__remove_support(address user) external {... */\n      pop\n      jump\t// out\n        /* \"temp.sol\":1526:1712  function ut__assert_admin(address user_address) internal view {... */\n    tag_157:\n        /* \"temp.sol\":1626:1642  g__SiteAuthority */\n      0x00\n      dup1\n      sload\n      swap1\n      0x0100\n      exp\n      swap1\n      div\n      0xffffffffffffffffffffffffffffffffffffffff\n      and\n        /* \"temp.sol\":1610:1642  user_address == g__SiteAuthority */\n      0xffffffffffffffffffffffffffffffffffffffff\n      and\n        /* \"temp.sol\":1610:1622  user_address */\n      dup2\n        /* \"temp.sol\":1610:1642  user_address == g__SiteAuthority */\n      0xffffffffffffffffffffffffffffffffffffffff\n      and\n      eq\n        /* \"temp.sol\":1609:1675  (user_address == g__SiteAuthority) || g__SiteSupport[user_address] */\n      dup1\n      tag_521\n      jumpi\n      pop\n        /* \"temp.sol\":1647:1661  g__SiteSupport */\n      0x01\n        /* \"temp.sol\":1647:1675  g__SiteSupport[user_address] */\n      0x00\n        /* \"temp.sol\":1662:1674  user_address */\n      dup3\n        /* \"temp.sol\":1647:1675  g__SiteSupport[user_address] */\n      0xffffffffffffffffffffffffffffffffffffffff\n      and\n      0xffffffffffffffffffffffffffffffffffffffff\n      and\n      dup2\n      mstore\n      0x20\n      add\n      swap1\n      dup2\n      mstore\n      0x20\n      add\n      0x00\n      keccak256\n      0x00\n      swap1\n      sload\n      swap1\n      0x0100\n      exp\n      swap1\n      div\n      0xff\n      and\n        /* \"temp.sol\":1609:1675  (user_address == g__SiteAuthority) || g__SiteSupport[user_address] */\n    tag_521:\n        /* \"temp.sol\":1594:1707  require(... */\n      tag_522\n      jumpi\n      mload(0x40)\n      0x08c379a000000000000000000000000000000000000000000000000000000000\n      dup2\n      mstore\n      0x04\n      add\n      tag_523\n      swap1\n      tag_524\n      jump\t// in\n    tag_523:\n      mload(0x40)\n      dup1\n      swap2\n      sub\n      swap1\n      revert\n    tag_522:\n        /* \"temp.sol\":1526:1712  function ut__assert_admin(address user_address) internal view {... */\n      pop\n      jump\t// out\n        /* \"temp.sol\":1718:2024  function ut__assert_owner(string memory vault_id,address user_address) internal view {... */\n    tag_196:\n        /* \"temp.sol\":1858:1870  user_address */\n      dup1\n        /* \"temp.sol\":1824:1870  g__VaultLookup[vault_id].owner == user_address */\n      0xffffffffffffffffffffffffffffffffffffffff\n      and\n        /* \"temp.sol\":1824:1838  g__VaultLookup */\n      0x03\n        /* \"temp.sol\":1839:1847  vault_id */\n      dup4\n        /* \"temp.sol\":1824:1848  g__VaultLookup[vault_id] */\n      mload(0x40)\n      tag_526\n      swap2\n      swap1\n      tag_162\n      jump\t// in\n    tag_526:\n      swap1\n      dup2\n      mstore\n      0x20\n      add\n      mload(0x40)\n      dup1\n      swap2\n      sub\n      swap1\n      keccak256\n        /* \"temp.sol\":1824:1854  g__VaultLookup[vault_id].owner */\n      0x02\n      add\n      0x00\n      swap1\n      sload\n      swap1\n      0x0100\n      exp\n      swap1\n      div\n      0xffffffffffffffffffffffffffffffffffffffff\n      and\n        /* \"temp.sol\":1824:1870  g__VaultLookup[vault_id].owner == user_address */\n      0xffffffffffffffffffffffffffffffffffffffff\n      and\n      eq\n        /* \"temp.sol\":1809:1903  require(... */\n      tag_527\n      jumpi\n      mload(0x40)\n      0x08c379a000000000000000000000000000000000000000000000000000000000\n      dup2\n      mstore\n      0x04\n      add\n      tag_528\n      swap1\n      tag_529\n      jump\t// in\n    tag_528:\n      mload(0x40)\n      dup1\n      swap2\n      sub\n      swap1\n      revert\n    tag_527:\n        /* \"temp.sol\":1959:1982  VaultStatus.Arbitration */\n      0x03\n        /* \"temp.sol\":1924:1982  g__VaultLookup[vault_id].status != VaultStatus.Arbitration */\n      dup1\n      dup2\n      gt\n      iszero\n      tag_530\n      jumpi\n      tag_531\n      tag_160\n      jump\t// in\n    tag_531:\n    tag_530:\n        /* \"temp.sol\":1924:1938  g__VaultLookup */\n      0x03\n        /* \"temp.sol\":1939:1947  vault_id */\n      dup4\n        /* \"temp.sol\":1924:1948  g__VaultLookup[vault_id] */\n      mload(0x40)\n      tag_532\n      swap2\n      swap1\n      tag_162\n      jump\t// in\n    tag_532:\n      swap1\n      dup2\n      mstore\n      0x20\n      add\n      mload(0x40)\n      dup1\n      swap2\n      sub\n      swap1\n      keccak256\n        /* \"temp.sol\":1924:1955  g__VaultLookup[vault_id].status */\n      0x00\n      add\n      0x00\n      swap1\n      sload\n      swap1\n      0x0100\n      exp\n      swap1\n      div\n      0xff\n      and\n        /* \"temp.sol\":1924:1982  g__VaultLookup[vault_id].status != VaultStatus.Arbitration */\n      0x03\n      dup2\n      gt\n      iszero\n      tag_533\n      jumpi\n      tag_534\n      tag_160\n      jump\t// in\n    tag_534:\n    tag_533:\n      sub\n        /* \"temp.sol\":1909:2019  require(... */\n      tag_535\n      jumpi\n      mload(0x40)\n      0x08c379a000000000000000000000000000000000000000000000000000000000\n      dup2\n      mstore\n      0x04\n      add\n      tag_536\n      swap1\n      tag_263\n      jump\t// in\n    tag_536:\n      mload(0x40)\n      dup1\n      swap2\n      sub\n      swap1\n      revert\n    tag_535:\n        /* \"temp.sol\":1718:2024  function ut__assert_owner(string memory vault_id,address user_address) internal view {... */\n      pop\n      pop\n      jump\t// out\n        /* \"temp.sol\":2308:2620  function ut__get_account(string memory vault_id,address user_address) internal view returns(VaultAccount memory) {... */\n    tag_198:\n        /* \"temp.sol\":2400:2419  VaultAccount memory */\n      tag_537\n      tag_538\n      jump\t// in\n    tag_537:\n        /* \"temp.sol\":2427:2454  VaultAccount memory account */\n      0x00\n        /* \"temp.sol\":2457:2473  g__VaultAccounts */\n      0x04\n        /* \"temp.sol\":2474:2482  vault_id */\n      dup5\n        /* \"temp.sol\":2457:2483  g__VaultAccounts[vault_id] */\n      mload(0x40)\n      tag_540\n      swap2\n      swap1\n      tag_162\n      jump\t// in\n    tag_540:\n      swap1\n      dup2\n      mstore\n      0x20\n      add\n      mload(0x40)\n      dup1\n      swap2\n      sub\n      swap1\n      keccak256\n        /* \"temp.sol\":2457:2497  g__VaultAccounts[vault_id][user_address] */\n      0x00\n        /* \"temp.sol\":2484:2496  user_address */\n      dup5\n        /* \"temp.sol\":2457:2497  g__VaultAccounts[vault_id][user_address] */\n      0xffffffffffffffffffffffffffffffffffffffff\n      and\n      0xffffffffffffffffffffffffffffffffffffffff\n      and\n      dup2\n      mstore\n      0x20\n      add\n      swap1\n      dup2\n      mstore\n      0x20\n      add\n      0x00\n      keccak256\n        /* \"temp.sol\":2427:2497  VaultAccount memory account = g__VaultAccounts[vault_id][user_address] */\n      mload(0x40)\n      dup1\n      0x80\n      add\n      0x40\n      mstore\n      swap1\n      dup2\n      0x00\n      dup3\n      add\n      0x00\n      swap1\n      sload\n      swap1\n      0x0100\n      exp\n      swap1\n      div\n      0xff\n      and\n      0x03\n      dup2\n      gt\n      iszero\n      tag_541\n      jumpi\n      tag_542\n      tag_160\n      jump\t// in\n    tag_542:\n    tag_541:\n      0x03\n      dup2\n      gt\n      iszero\n      tag_543\n      jumpi\n      tag_544\n      tag_160\n      jump\t// in\n    tag_544:\n    tag_543:\n      dup2\n      mstore\n      0x20\n      add\n      0x00\n      dup3\n      add\n      0x01\n      swap1\n      sload\n      swap1\n      0x0100\n      exp\n      swap1\n      div\n      0xff\n      and\n      iszero\n      iszero\n      iszero\n      iszero\n      dup2\n      mstore\n      0x20\n      add\n      0x01\n      dup3\n      add\n      dup1\n      sload\n      tag_545\n      swap1\n      tag_219\n      jump\t// in\n    tag_545:\n      dup1\n      0x1f\n      add\n      0x20\n      dup1\n      swap2\n      div\n      mul\n      0x20\n      add\n      mload(0x40)\n      swap1\n      dup2\n      add\n      0x40\n      mstore\n      dup1\n      swap3\n      swap2\n      swap1\n      dup2\n      dup2\n      mstore\n      0x20\n      add\n      dup3\n      dup1\n      sload\n      tag_546\n      swap1\n      tag_219\n      jump\t// in\n    tag_546:\n      dup1\n      iszero\n      tag_547\n      jumpi\n      dup1\n      0x1f\n      lt\n      tag_548\n      jumpi\n      0x0100\n      dup1\n      dup4\n      sload\n      div\n      mul\n      dup4\n      mstore\n      swap2\n      0x20\n      add\n      swap2\n      jump(tag_547)\n    tag_548:\n      dup3\n      add\n      swap2\n      swap1\n      0x00\n      mstore\n      keccak256(0x00, 0x20)\n      swap1\n    tag_549:\n      dup2\n      sload\n      dup2\n      mstore\n      swap1\n      0x01\n      add\n      swap1\n      0x20\n      add\n      dup1\n      dup4\n      gt\n      tag_549\n      jumpi\n      dup3\n      swap1\n      sub\n      0x1f\n      and\n      dup3\n      add\n      swap2\n    tag_547:\n      pop\n      pop\n      pop\n      pop\n      pop\n      dup2\n      mstore\n      0x20\n      add\n      0x02\n      dup3\n      add\n      sload\n      dup2\n      mstore\n      pop\n      pop\n      swap1\n      pop\n        /* \"temp.sol\":2536:2564  VaultAccountStatus.Undefined */\n      0x00\n        /* \"temp.sol\":2518:2564  account.status != VaultAccountStatus.Undefined */\n      0x03\n      dup2\n      gt\n      iszero\n      tag_550\n      jumpi\n      tag_551\n      tag_160\n      jump\t// in\n    tag_551:\n    tag_550:\n        /* \"temp.sol\":2518:2525  account */\n      dup2\n        /* \"temp.sol\":2518:2532  account.status */\n      0x00\n      add\n      mload\n        /* \"temp.sol\":2518:2564  account.status != VaultAccountStatus.Undefined */\n      0x03\n      dup2\n      gt\n      iszero\n      tag_552\n      jumpi\n      tag_553\n      tag_160\n      jump\t// in\n    tag_553:\n    tag_552:\n      sub\n        /* \"temp.sol\":2503:2595  require(... */\n      tag_554\n      jumpi\n      mload(0x40)\n      0x08c379a000000000000000000000000000000000000000000000000000000000\n      dup2\n      mstore\n      0x04\n      add\n      tag_555\n      swap1\n      tag_556\n      jump\t// in\n    tag_555:\n      mload(0x40)\n      dup1\n      swap2\n      sub\n      swap1\n      revert\n    tag_554:\n        /* \"temp.sol\":2608:2615  account */\n      dup1\n        /* \"temp.sol\":2601:2615  return account */\n      swap2\n      pop\n      pop\n        /* \"temp.sol\":2308:2620  function ut__get_account(string memory vault_id,address user_address) internal view returns(VaultAccount memory) {... */\n      swap3\n      swap2\n      pop\n      pop\n      jump\t// out\n        /* \"temp.sol\":10783:11691  function ut__withdraw_transfer(string memory vault_id,address user_address,string memory withdraw_id,WithdrawRequest memory request,bool arbitrated) internal {... */\n    tag_296:\n        /* \"temp.sol\":10947:10961  uint vault_tax */\n      0x00\n        /* \"temp.sol\":11026:11031  10000 */\n      0x2710\n        /* \"temp.sol\":10983:10997  g__VaultLookup */\n      0x03\n        /* \"temp.sol\":10998:11006  vault_id */\n      dup8\n        /* \"temp.sol\":10983:11007  g__VaultLookup[vault_id] */\n      mload(0x40)\n      tag_558\n      swap2\n      swap1\n      tag_162\n      jump\t// in\n    tag_558:\n      swap1\n      dup2\n      mstore\n      0x20\n      add\n      mload(0x40)\n      dup1\n      swap2\n      sub\n      swap1\n      keccak256\n        /* \"temp.sol\":10983:11022  g__VaultLookup[vault_id].vault_tax_rate */\n      0x05\n      add\n      0x04\n      swap1\n      sload\n      swap1\n      0x0100\n      exp\n      swap1\n      div\n      0xffff\n      and\n        /* \"temp.sol\":10966:11022  request.amount * g__VaultLookup[vault_id].vault_tax_rate */\n      0xffff\n      and\n        /* \"temp.sol\":10966:10973  request */\n      dup5\n        /* \"temp.sol\":10966:10980  request.amount */\n      0x00\n      add\n      mload\n        /* \"temp.sol\":10966:11022  request.amount * g__VaultLookup[vault_id].vault_tax_rate */\n      tag_559\n      swap2\n      swap1\n      tag_560\n      jump\t// in\n    tag_559:\n        /* \"temp.sol\":10965:11031  (request.amount * g__VaultLookup[vault_id].vault_tax_rate) / 10000 */\n      tag_561\n      swap2\n      swap1\n      tag_562\n      jump\t// in\n    tag_561:\n        /* \"temp.sol\":10947:11032  uint vault_tax = ((request.amount * g__VaultLookup[vault_id].vault_tax_rate) / 10000) */\n      swap1\n      pop\n        /* \"temp.sol\":11053:11067  g__VaultLookup */\n      0x03\n        /* \"temp.sol\":11068:11076  vault_id */\n      dup7\n        /* \"temp.sol\":11053:11077  g__VaultLookup[vault_id] */\n      mload(0x40)\n      tag_563\n      swap2\n      swap1\n      tag_162\n      jump\t// in\n    tag_563:\n      swap1\n      dup2\n      mstore\n      0x20\n      add\n      mload(0x40)\n      dup1\n      swap2\n      sub\n      swap1\n      keccak256\n        /* \"temp.sol\":11053:11091  g__VaultLookup[vault_id].vault_tax_max */\n      0x06\n      add\n      sload\n        /* \"temp.sol\":11041:11050  vault_tax */\n      dup2\n        /* \"temp.sol\":11041:11091  vault_tax > g__VaultLookup[vault_id].vault_tax_max */\n      gt\n        /* \"temp.sol\":11038:11157  if(vault_tax > g__VaultLookup[vault_id].vault_tax_max){... */\n      iszero\n      tag_564\n      jumpi\n        /* \"temp.sol\":11112:11126  g__VaultLookup */\n      0x03\n        /* \"temp.sol\":11127:11135  vault_id */\n      dup7\n        /* \"temp.sol\":11112:11136  g__VaultLookup[vault_id] */\n      mload(0x40)\n      tag_565\n      swap2\n      swap1\n      tag_162\n      jump\t// in\n    tag_565:\n      swap1\n      dup2\n      mstore\n      0x20\n      add\n      mload(0x40)\n      dup1\n      swap2\n      sub\n      swap1\n      keccak256\n        /* \"temp.sol\":11112:11150  g__VaultLookup[vault_id].vault_tax_max */\n      0x06\n      add\n      sload\n        /* \"temp.sol\":11100:11150  vault_tax = g__VaultLookup[vault_id].vault_tax_max */\n      swap1\n      pop\n        /* \"temp.sol\":11038:11157  if(vault_tax > g__VaultLookup[vault_id].vault_tax_max){... */\n    tag_564:\n        /* \"temp.sol\":11165:11175  arbitrated */\n      dup2\n        /* \"temp.sol\":11162:11319  if(arbitrated){... */\n      iszero\n      tag_566\n      jumpi\n        /* \"temp.sol\":11192:11208  g__SiteAuthority */\n      0x00\n      dup1\n      sload\n      swap1\n      0x0100\n      exp\n      swap1\n      div\n      0xffffffffffffffffffffffffffffffffffffffff\n      and\n        /* \"temp.sol\":11184:11218  payable(g__SiteAuthority).transfer */\n      0xffffffffffffffffffffffffffffffffffffffff\n      and\n        /* \"temp.sol\":11184:11229  payable(g__SiteAuthority).transfer(vault_tax) */\n      0x08fc\n        /* \"temp.sol\":11219:11228  vault_tax */\n      dup3\n        /* \"temp.sol\":11184:11229  payable(g__SiteAuthority).transfer(vault_tax) */\n      swap1\n      dup2\n      iszero\n      mul\n      swap1\n      mload(0x40)\n      0x00\n      mload(0x40)\n      dup1\n      dup4\n      sub\n      dup2\n      dup6\n      dup9\n      dup9\n      call\n      swap4\n      pop\n      pop\n      pop\n      pop\n      iszero\n      dup1\n      iszero\n      tag_568\n      jumpi\n      returndatasize\n      0x00\n      dup1\n      returndatacopy\n      revert(0x00, returndatasize)\n    tag_568:\n      pop\n        /* \"temp.sol\":11162:11319  if(arbitrated){... */\n      jump(tag_569)\n    tag_566:\n        /* \"temp.sol\":11261:11275  g__VaultLookup */\n      0x03\n        /* \"temp.sol\":11276:11284  vault_id */\n      dup7\n        /* \"temp.sol\":11261:11285  g__VaultLookup[vault_id] */\n      mload(0x40)\n      tag_570\n      swap2\n      swap1\n      tag_162\n      jump\t// in\n    tag_570:\n      swap1\n      dup2\n      mstore\n      0x20\n      add\n      mload(0x40)\n      dup1\n      swap2\n      sub\n      swap1\n      keccak256\n        /* \"temp.sol\":11261:11291  g__VaultLookup[vault_id].owner */\n      0x02\n      add\n      0x00\n      swap1\n      sload\n      swap1\n      0x0100\n      exp\n      swap1\n      div\n      0xffffffffffffffffffffffffffffffffffffffff\n      and\n        /* \"temp.sol\":11253:11301  payable(g__VaultLookup[vault_id].owner).transfer */\n      0xffffffffffffffffffffffffffffffffffffffff\n      and\n        /* \"temp.sol\":11253:11312  payable(g__VaultLookup[vault_id].owner).transfer(vault_tax) */\n      0x08fc\n        /* \"temp.sol\":11302:11311  vault_tax */\n      dup3\n        /* \"temp.sol\":11253:11312  payable(g__VaultLookup[vault_id].owner).transfer(vault_tax) */\n      swap1\n      dup2\n      iszero\n      mul\n      swap1\n      mload(0x40)\n      0x00\n      mload(0x40)\n      dup1\n      dup4\n      sub\n      dup2\n      dup6\n      dup9\n      dup9\n      call\n      swap4\n      pop\n      pop\n      pop\n      pop\n      iszero\n      dup1\n      iszero\n      tag_572\n      jumpi\n      returndatasize\n      0x00\n      dup1\n      returndatacopy\n      revert(0x00, returndatasize)\n    tag_572:\n      pop\n        /* \"temp.sol\":11162:11319  if(arbitrated){... */\n    tag_569:\n        /* \"temp.sol\":11332:11344  user_address */\n      dup5\n        /* \"temp.sol\":11324:11354  payable(user_address).transfer */\n      0xffffffffffffffffffffffffffffffffffffffff\n      and\n        /* \"temp.sol\":11324:11382  payable(user_address).transfer(request.amount - vault_tax) */\n      0x08fc\n        /* \"temp.sol\":11372:11381  vault_tax */\n      dup3\n        /* \"temp.sol\":11355:11362  request */\n      dup6\n        /* \"temp.sol\":11355:11369  request.amount */\n      0x00\n      add\n      mload\n        /* \"temp.sol\":11355:11381  request.amount - vault_tax */\n      tag_573\n      swap2\n      swap1\n      tag_245\n      jump\t// in\n    tag_573:\n        /* \"temp.sol\":11324:11382  payable(user_address).transfer(request.amount - vault_tax) */\n      swap1\n      dup2\n      iszero\n      mul\n      swap1\n      mload(0x40)\n      0x00\n      mload(0x40)\n      dup1\n      dup4\n      sub\n      dup2\n      dup6\n      dup9\n      dup9\n      call\n      swap4\n      pop\n      pop\n      pop\n      pop\n      iszero\n      dup1\n      iszero\n      tag_575\n      jumpi\n      returndatasize\n      0x00\n      dup1\n      returndatacopy\n      revert(0x00, returndatasize)\n    tag_575:\n      pop\n        /* \"temp.sol\":11454:11481  VaultRequestStatus.Approved */\n      0x05\n        /* \"temp.sol\":11388:11407  g__VaultWithdrawals */\n      dup1\n        /* \"temp.sol\":11408:11416  vault_id */\n      dup8\n        /* \"temp.sol\":11388:11417  g__VaultWithdrawals[vault_id] */\n      mload(0x40)\n      tag_576\n      swap2\n      swap1\n      tag_162\n      jump\t// in\n    tag_576:\n      swap1\n      dup2\n      mstore\n      0x20\n      add\n      mload(0x40)\n      dup1\n      swap2\n      sub\n      swap1\n      keccak256\n        /* \"temp.sol\":11388:11431  g__VaultWithdrawals[vault_id][user_address] */\n      0x00\n        /* \"temp.sol\":11418:11430  user_address */\n      dup8\n        /* \"temp.sol\":11388:11431  g__VaultWithdrawals[vault_id][user_address] */\n      0xffffffffffffffffffffffffffffffffffffffff\n      and\n      0xffffffffffffffffffffffffffffffffffffffff\n      and\n      dup2\n      mstore\n      0x20\n      add\n      swap1\n      dup2\n      mstore\n      0x20\n      add\n      0x00\n      keccak256\n        /* \"temp.sol\":11432:11443  withdraw_id */\n      dup6\n        /* \"temp.sol\":11388:11444  g__VaultWithdrawals[vault_id][user_address][withdraw_id] */\n      mload(0x40)\n      tag_577\n      swap2\n      swap1\n      tag_162\n      jump\t// in\n    tag_577:\n      swap1\n      dup2\n      mstore\n      0x20\n      add\n      mload(0x40)\n      dup1\n      swap2\n      sub\n      swap1\n      keccak256\n        /* \"temp.sol\":11388:11451  g__VaultWithdrawals[vault_id][user_address][withdraw_id].status */\n      0x01\n      add\n      0x00\n        /* \"temp.sol\":11388:11481  g__VaultWithdrawals[vault_id][user_address][withdraw_id].status = VaultRequestStatus.Approved */\n      0x0100\n      exp\n      dup2\n      sload\n      dup2\n      0xff\n      mul\n      not\n      and\n      swap1\n      dup4\n      0x05\n      dup2\n      gt\n      iszero\n      tag_578\n      jumpi\n      tag_579\n      tag_160\n      jump\t// in\n    tag_579:\n    tag_578:\n      mul\n      or\n      swap1\n      sstore\n      pop\n        /* \"temp.sol\":11526:11533  request */\n      dup3\n        /* \"temp.sol\":11526:11540  request.amount */\n      0x00\n      add\n      mload\n        /* \"temp.sol\":11487:11501  g__VaultLookup */\n      0x03\n        /* \"temp.sol\":11502:11510  vault_id */\n      dup8\n        /* \"temp.sol\":11487:11511  g__VaultLookup[vault_id] */\n      mload(0x40)\n      tag_580\n      swap2\n      swap1\n      tag_162\n      jump\t// in\n    tag_580:\n      swap1\n      dup2\n      mstore\n      0x20\n      add\n      mload(0x40)\n      dup1\n      swap2\n      sub\n      swap1\n      keccak256\n        /* \"temp.sol\":11487:11522  g__VaultLookup[vault_id].total_pool */\n      0x03\n      add\n      0x00\n        /* \"temp.sol\":11487:11540  g__VaultLookup[vault_id].total_pool -= request.amount */\n      dup3\n      dup3\n      sload\n      tag_581\n      swap2\n      swap1\n      tag_245\n      jump\t// in\n    tag_581:\n      swap3\n      pop\n      pop\n      dup2\n      swap1\n      sstore\n      pop\n        /* \"temp.sol\":11590:11597  request */\n      dup3\n        /* \"temp.sol\":11590:11604  request.amount */\n      0x00\n      add\n      mload\n        /* \"temp.sol\":11546:11560  g__VaultLookup */\n      0x03\n        /* \"temp.sol\":11561:11569  vault_id */\n      dup8\n        /* \"temp.sol\":11546:11570  g__VaultLookup[vault_id] */\n      mload(0x40)\n      tag_582\n      swap2\n      swap1\n      tag_162\n      jump\t// in\n    tag_582:\n      swap1\n      dup2\n      mstore\n      0x20\n      add\n      mload(0x40)\n      dup1\n      swap2\n      sub\n      swap1\n      keccak256\n        /* \"temp.sol\":11546:11586  g__VaultLookup[vault_id].total_requested */\n      0x04\n      add\n      0x00\n        /* \"temp.sol\":11546:11604  g__VaultLookup[vault_id].total_requested -= request.amount */\n      dup3\n      dup3\n      sload\n      tag_583\n      swap2\n      swap1\n      tag_245\n      jump\t// in\n    tag_583:\n      swap3\n      pop\n      pop\n      dup2\n      swap1\n      sstore\n      pop\n        /* \"temp.sol\":11615:11686  VaultEvent(\"withdraw_transfer\",withdraw_id,user_address,request.amount) */\n      0x040768ee67403a1b2c45e2ee8e9c7cb4283d12bd31f8126de25122997535c1bb\n        /* \"temp.sol\":11646:11657  withdraw_id */\n      dup5\n        /* \"temp.sol\":11658:11670  user_address */\n      dup7\n        /* \"temp.sol\":11671:11678  request */\n      dup6\n        /* \"temp.sol\":11671:11685  request.amount */\n      0x00\n      add\n      mload\n        /* \"temp.sol\":11615:11686  VaultEvent(\"withdraw_transfer\",withdraw_id,user_address,request.amount) */\n      mload(0x40)\n      tag_584\n      swap4\n      swap3\n      swap2\n      swap1\n      tag_585\n      jump\t// in\n    tag_584:\n      mload(0x40)\n      dup1\n      swap2\n      sub\n      swap1\n      log1\n        /* \"temp.sol\":10941:11691  {... */\n      pop\n        /* \"temp.sol\":10783:11691  function ut__withdraw_transfer(string memory vault_id,address user_address,string memory withdraw_id,WithdrawRequest memory request,bool arbitrated) internal {... */\n      pop\n      pop\n      pop\n      pop\n      pop\n      jump\t// out\n        /* \"temp.sol\":2626:2990  function ut__get_withdraw(string memory vault_id,address user_address,string memory withdraw_id) internal view returns(WithdrawRequest memory) {... */\n    tag_300:\n        /* \"temp.sol\":2745:2767  WithdrawRequest memory */\n      tag_586\n      tag_587\n      jump\t// in\n    tag_586:\n        /* \"temp.sol\":2775:2805  WithdrawRequest memory request */\n      0x00\n        /* \"temp.sol\":2808:2827  g__VaultWithdrawals */\n      0x05\n        /* \"temp.sol\":2828:2836  vault_id */\n      dup6\n        /* \"temp.sol\":2808:2837  g__VaultWithdrawals[vault_id] */\n      mload(0x40)\n      tag_589\n      swap2\n      swap1\n      tag_162\n      jump\t// in\n    tag_589:\n      swap1\n      dup2\n      mstore\n      0x20\n      add\n      mload(0x40)\n      dup1\n      swap2\n      sub\n      swap1\n      keccak256\n        /* \"temp.sol\":2808:2851  g__VaultWithdrawals[vault_id][user_address] */\n      0x00\n        /* \"temp.sol\":2838:2850  user_address */\n      dup6\n        /* \"temp.sol\":2808:2851  g__VaultWithdrawals[vault_id][user_address] */\n      0xffffffffffffffffffffffffffffffffffffffff\n      and\n      0xffffffffffffffffffffffffffffffffffffffff\n      and\n      dup2\n      mstore\n      0x20\n      add\n      swap1\n      dup2\n      mstore\n      0x20\n      add\n      0x00\n      keccak256\n        /* \"temp.sol\":2852:2863  withdraw_id */\n      dup4\n        /* \"temp.sol\":2808:2864  g__VaultWithdrawals[vault_id][user_address][withdraw_id] */\n      mload(0x40)\n      tag_590\n      swap2\n      swap1\n      tag_162\n      jump\t// in\n    tag_590:\n      swap1\n      dup2\n      mstore\n      0x20\n      add\n      mload(0x40)\n      dup1\n      swap2\n      sub\n      swap1\n      keccak256\n        /* \"temp.sol\":2775:2864  WithdrawRequest memory request = g__VaultWithdrawals[vault_id][user_address][withdraw_id] */\n      mload(0x40)\n      dup1\n      0x40\n      add\n      0x40\n      mstore\n      swap1\n      dup2\n      0x00\n      dup3\n      add\n      sload\n      dup2\n      mstore\n      0x20\n      add\n      0x01\n      dup3\n      add\n      0x00\n      swap1\n      sload\n      swap1\n      0x0100\n      exp\n      swap1\n      div\n      0xff\n      and\n      0x05\n      dup2\n      gt\n      iszero\n      tag_591\n      jumpi\n      tag_592\n      tag_160\n      jump\t// in\n    tag_592:\n    tag_591:\n      0x05\n      dup2\n      gt\n      iszero\n      tag_593\n      jumpi\n      tag_594\n      tag_160\n      jump\t// in\n    tag_594:\n    tag_593:\n      dup2\n      mstore\n      pop\n      pop\n      swap1\n      pop\n        /* \"temp.sol\":2903:2931  VaultRequestStatus.Undefined */\n      0x00\n        /* \"temp.sol\":2885:2931  request.status != VaultRequestStatus.Undefined */\n      0x05\n      dup2\n      gt\n      iszero\n      tag_595\n      jumpi\n      tag_596\n      tag_160\n      jump\t// in\n    tag_596:\n    tag_595:\n        /* \"temp.sol\":2885:2892  request */\n      dup2\n        /* \"temp.sol\":2885:2899  request.status */\n      0x20\n      add\n      mload\n        /* \"temp.sol\":2885:2931  request.status != VaultRequestStatus.Undefined */\n      0x05\n      dup2\n      gt\n      iszero\n      tag_597\n      jumpi\n      tag_598\n      tag_160\n      jump\t// in\n    tag_598:\n    tag_597:\n      sub\n        /* \"temp.sol\":2870:2965  require(... */\n      tag_599\n      jumpi\n      mload(0x40)\n      0x08c379a000000000000000000000000000000000000000000000000000000000\n      dup2\n      mstore\n      0x04\n      add\n      tag_600\n      swap1\n      tag_601\n      jump\t// in\n    tag_600:\n      mload(0x40)\n      dup1\n      swap2\n      sub\n      swap1\n      revert\n    tag_599:\n        /* \"temp.sol\":2978:2985  request */\n      dup1\n        /* \"temp.sol\":2971:2985  return request */\n      swap2\n      pop\n      pop\n        /* \"temp.sol\":2626:2990  function ut__get_withdraw(string memory vault_id,address user_address,string memory withdraw_id) internal view returns(WithdrawRequest memory) {... */\n      swap4\n      swap3\n      pop\n      pop\n      pop\n      jump\t// out\n        /* \"temp.sol\":2030:2302  function ut__assert_management(string memory vault_id,address user_address) internal view {... */\n    tag_338:\n        /* \"temp.sol\":2176:2188  user_address */\n      dup1\n        /* \"temp.sol\":2142:2188  g__VaultLookup[vault_id].owner == user_address */\n      0xffffffffffffffffffffffffffffffffffffffff\n      and\n        /* \"temp.sol\":2142:2156  g__VaultLookup */\n      0x03\n        /* \"temp.sol\":2157:2165  vault_id */\n      dup4\n        /* \"temp.sol\":2142:2166  g__VaultLookup[vault_id] */\n      mload(0x40)\n      tag_603\n      swap2\n      swap1\n      tag_162\n      jump\t// in\n    tag_603:\n      swap1\n      dup2\n      mstore\n      0x20\n      add\n      mload(0x40)\n      dup1\n      swap2\n      sub\n      swap1\n      keccak256\n        /* \"temp.sol\":2142:2172  g__VaultLookup[vault_id].owner */\n      0x02\n      add\n      0x00\n      swap1\n      sload\n      swap1\n      0x0100\n      exp\n      swap1\n      div\n      0xffffffffffffffffffffffffffffffffffffffff\n      and\n        /* \"temp.sol\":2142:2188  g__VaultLookup[vault_id].owner == user_address */\n      0xffffffffffffffffffffffffffffffffffffffff\n      and\n      eq\n        /* \"temp.sol\":2141:2227  (g__VaultLookup[vault_id].owner == user_address) || (user_address == g__SiteAuthority) */\n      dup1\n      tag_604\n      jumpi\n      pop\n        /* \"temp.sol\":2210:2226  g__SiteAuthority */\n      0x00\n      dup1\n      sload\n      swap1\n      0x0100\n      exp\n      swap1\n      div\n      0xffffffffffffffffffffffffffffffffffffffff\n      and\n        /* \"temp.sol\":2194:2226  user_address == g__SiteAuthority */\n      0xffffffffffffffffffffffffffffffffffffffff\n      and\n        /* \"temp.sol\":2194:2206  user_address */\n      dup2\n        /* \"temp.sol\":2194:2226  user_address == g__SiteAuthority */\n      0xffffffffffffffffffffffffffffffffffffffff\n      and\n      eq\n        /* \"temp.sol\":2141:2227  (g__VaultLookup[vault_id].owner == user_address) || (user_address == g__SiteAuthority) */\n    tag_604:\n        /* \"temp.sol\":2141:2259  (g__VaultLookup[vault_id].owner == user_address) || (user_address == g__SiteAuthority) || g__SiteSupport[user_address] */\n      dup1\n      tag_605\n      jumpi\n      pop\n        /* \"temp.sol\":2231:2245  g__SiteSupport */\n      0x01\n        /* \"temp.sol\":2231:2259  g__SiteSupport[user_address] */\n      0x00\n        /* \"temp.sol\":2246:2258  user_address */\n      dup3\n        /* \"temp.sol\":2231:2259  g__SiteSupport[user_address] */\n      0xffffffffffffffffffffffffffffffffffffffff\n      and\n      0xffffffffffffffffffffffffffffffffffffffff\n      and\n      dup2\n      mstore\n      0x20\n      add\n      swap1\n      dup2\n      mstore\n      0x20\n      add\n      0x00\n      keccak256\n      0x00\n      swap1\n      sload\n      swap1\n      0x0100\n      exp\n      swap1\n      div\n      0xff\n      and\n        /* \"temp.sol\":2141:2259  (g__VaultLookup[vault_id].owner == user_address) || (user_address == g__SiteAuthority) || g__SiteSupport[user_address] */\n    tag_605:\n        /* \"temp.sol\":2126:2297  require(... */\n      tag_606\n      jumpi\n      mload(0x40)\n      0x08c379a000000000000000000000000000000000000000000000000000000000\n      dup2\n      mstore\n      0x04\n      add\n      tag_607\n      swap1\n      tag_608\n      jump\t// in\n    tag_607:\n      mload(0x40)\n      dup1\n      swap2\n      sub\n      swap1\n      revert\n    tag_606:\n        /* \"temp.sol\":2030:2302  function ut__assert_management(string memory vault_id,address user_address) internal view {... */\n      pop\n      pop\n      jump\t// out\n    tag_513:\n      pop\n      dup1\n      sload\n      tag_609\n      swap1\n      tag_219\n      jump\t// in\n    tag_609:\n      0x00\n      dup3\n      sstore\n      dup1\n      0x1f\n      lt\n      tag_611\n      jumpi\n      pop\n      jump(tag_610)\n    tag_611:\n      0x1f\n      add\n      0x20\n      swap1\n      div\n      swap1\n      0x00\n      mstore\n      keccak256(0x00, 0x20)\n      swap1\n      dup2\n      add\n      swap1\n      tag_612\n      swap2\n      swap1\n      tag_613\n      jump\t// in\n    tag_612:\n    tag_610:\n      pop\n      jump\t// out\n    tag_538:\n      mload(0x40)\n      dup1\n      0x80\n      add\n      0x40\n      mstore\n      dup1\n      0x00\n      0x03\n      dup2\n      gt\n      iszero\n      tag_614\n      jumpi\n      tag_615\n      tag_160\n      jump\t// in\n    tag_615:\n    tag_614:\n      dup2\n      mstore\n      0x20\n      add\n      iszero(iszero(0x00))\n      dup2\n      mstore\n      0x20\n      add\n      0x60\n      dup2\n      mstore\n      0x20\n      add\n      0x00\n      dup2\n      mstore\n      pop\n      swap1\n      jump\t// out\n    tag_587:\n      mload(0x40)\n      dup1\n      0x40\n      add\n      0x40\n      mstore\n      dup1\n      0x00\n      dup2\n      mstore\n      0x20\n      add\n      0x00\n      0x05\n      dup2\n      gt\n      iszero\n      tag_616\n      jumpi\n      tag_617\n      tag_160\n      jump\t// in\n    tag_617:\n    tag_616:\n      dup2\n      mstore\n      pop\n      swap1\n      jump\t// out\n    tag_613:\n    tag_618:\n      dup1\n      dup3\n      gt\n      iszero\n      tag_619\n      jumpi\n      0x00\n      dup2\n      0x00\n      swap1\n      sstore\n      pop\n      0x01\n      add\n      jump(tag_618)\n    tag_619:\n      pop\n      swap1\n      jump\t// out\n        /* \"#utility.yul\":7:82   */\n    tag_620:\n        /* \"#utility.yul\":40:46   */\n      0x00\n        /* \"#utility.yul\":73:75   */\n      0x40\n        /* \"#utility.yul\":67:76   */\n      mload\n        /* \"#utility.yul\":57:76   */\n      swap1\n      pop\n        /* \"#utility.yul\":7:82   */\n      swap1\n      jump\t// out\n        /* \"#utility.yul\":88:205   */\n    tag_621:\n        /* \"#utility.yul\":197:198   */\n      0x00\n        /* \"#utility.yul\":194:195   */\n      dup1\n        /* \"#utility.yul\":187:199   */\n      revert\n        /* \"#utility.yul\":211:328   */\n    tag_622:\n        /* \"#utility.yul\":320:321   */\n      0x00\n        /* \"#utility.yul\":317:318   */\n      dup1\n        /* \"#utility.yul\":310:322   */\n      revert\n        /* \"#utility.yul\":334:451   */\n    tag_623:\n        /* \"#utility.yul\":443:444   */\n      0x00\n        /* \"#utility.yul\":440:441   */\n      dup1\n        /* \"#utility.yul\":433:445   */\n      revert\n        /* \"#utility.yul\":457:574   */\n    tag_624:\n        /* \"#utility.yul\":566:567   */\n      0x00\n        /* \"#utility.yul\":563:564   */\n      dup1\n        /* \"#utility.yul\":556:568   */\n      revert\n        /* \"#utility.yul\":580:682   */\n    tag_625:\n        /* \"#utility.yul\":621:627   */\n      0x00\n        /* \"#utility.yul\":672:674   */\n      0x1f\n        /* \"#utility.yul\":668:675   */\n      not\n        /* \"#utility.yul\":663:665   */\n      0x1f\n        /* \"#utility.yul\":656:661   */\n      dup4\n        /* \"#utility.yul\":652:666   */\n      add\n        /* \"#utility.yul\":648:676   */\n      and\n        /* \"#utility.yul\":638:676   */\n      swap1\n      pop\n        /* \"#utility.yul\":580:682   */\n      swap2\n      swap1\n      pop\n      jump\t// out\n        /* \"#utility.yul\":688:868   */\n    tag_626:\n        /* \"#utility.yul\":736:813   */\n      0x4e487b7100000000000000000000000000000000000000000000000000000000\n        /* \"#utility.yul\":733:734   */\n      0x00\n        /* \"#utility.yul\":726:814   */\n      mstore\n        /* \"#utility.yul\":833:837   */\n      0x41\n        /* \"#utility.yul\":830:831   */\n      0x04\n        /* \"#utility.yul\":823:838   */\n      mstore\n        /* \"#utility.yul\":857:861   */\n      0x24\n        /* \"#utility.yul\":854:855   */\n      0x00\n        /* \"#utility.yul\":847:862   */\n      revert\n        /* \"#utility.yul\":874:1155   */\n    tag_627:\n        /* \"#utility.yul\":957:984   */\n      tag_776\n        /* \"#utility.yul\":979:983   */\n      dup3\n        /* \"#utility.yul\":957:984   */\n      tag_625\n      jump\t// in\n    tag_776:\n        /* \"#utility.yul\":949:955   */\n      dup2\n        /* \"#utility.yul\":945:985   */\n      add\n        /* \"#utility.yul\":1087:1093   */\n      dup2\n        /* \"#utility.yul\":1075:1085   */\n      dup2\n        /* \"#utility.yul\":1072:1094   */\n      lt\n        /* \"#utility.yul\":1051:1069   */\n      0xffffffffffffffff\n        /* \"#utility.yul\":1039:1049   */\n      dup3\n        /* \"#utility.yul\":1036:1070   */\n      gt\n        /* \"#utility.yul\":1033:1095   */\n      or\n        /* \"#utility.yul\":1030:1118   */\n      iszero\n      tag_777\n      jumpi\n        /* \"#utility.yul\":1098:1116   */\n      tag_778\n      tag_626\n      jump\t// in\n    tag_778:\n        /* \"#utility.yul\":1030:1118   */\n    tag_777:\n        /* \"#utility.yul\":1138:1148   */\n      dup1\n        /* \"#utility.yul\":1134:1136   */\n      0x40\n        /* \"#utility.yul\":1127:1149   */\n      mstore\n        /* \"#utility.yul\":917:1155   */\n      pop\n        /* \"#utility.yul\":874:1155   */\n      pop\n      pop\n      jump\t// out\n        /* \"#utility.yul\":1161:1290   */\n    tag_628:\n        /* \"#utility.yul\":1195:1201   */\n      0x00\n        /* \"#utility.yul\":1222:1242   */\n      tag_780\n      tag_620\n      jump\t// in\n    tag_780:\n        /* \"#utility.yul\":1212:1242   */\n      swap1\n      pop\n        /* \"#utility.yul\":1251:1284   */\n      tag_781\n        /* \"#utility.yul\":1279:1283   */\n      dup3\n        /* \"#utility.yul\":1271:1277   */\n      dup3\n        /* \"#utility.yul\":1251:1284   */\n      tag_627\n      jump\t// in\n    tag_781:\n        /* \"#utility.yul\":1161:1290   */\n      swap2\n      swap1\n      pop\n      jump\t// out\n        /* \"#utility.yul\":1296:1604   */\n    tag_629:\n        /* \"#utility.yul\":1358:1362   */\n      0x00\n        /* \"#utility.yul\":1448:1466   */\n      0xffffffffffffffff\n        /* \"#utility.yul\":1440:1446   */\n      dup3\n        /* \"#utility.yul\":1437:1467   */\n      gt\n        /* \"#utility.yul\":1434:1490   */\n      iszero\n      tag_783\n      jumpi\n        /* \"#utility.yul\":1470:1488   */\n      tag_784\n      tag_626\n      jump\t// in\n    tag_784:\n        /* \"#utility.yul\":1434:1490   */\n    tag_783:\n        /* \"#utility.yul\":1508:1537   */\n      tag_785\n        /* \"#utility.yul\":1530:1536   */\n      dup3\n        /* \"#utility.yul\":1508:1537   */\n      tag_625\n      jump\t// in\n    tag_785:\n        /* \"#utility.yul\":1500:1537   */\n      swap1\n      pop\n        /* \"#utility.yul\":1592:1596   */\n      0x20\n        /* \"#utility.yul\":1586:1590   */\n      dup2\n        /* \"#utility.yul\":1582:1597   */\n      add\n        /* \"#utility.yul\":1574:1597   */\n      swap1\n      pop\n        /* \"#utility.yul\":1296:1604   */\n      swap2\n      swap1\n      pop\n      jump\t// out\n        /* \"#utility.yul\":1610:1756   */\n    tag_630:\n        /* \"#utility.yul\":1707:1713   */\n      dup3\n        /* \"#utility.yul\":1702:1705   */\n      dup2\n        /* \"#utility.yul\":1697:1700   */\n      dup4\n        /* \"#utility.yul\":1684:1714   */\n      calldatacopy\n        /* \"#utility.yul\":1748:1749   */\n      0x00\n        /* \"#utility.yul\":1739:1745   */\n      dup4\n        /* \"#utility.yul\":1734:1737   */\n      dup4\n        /* \"#utility.yul\":1730:1746   */\n      add\n        /* \"#utility.yul\":1723:1750   */\n      mstore\n        /* \"#utility.yul\":1610:1756   */\n      pop\n      pop\n      pop\n      jump\t// out\n        /* \"#utility.yul\":1762:2187   */\n    tag_631:\n        /* \"#utility.yul\":1840:1845   */\n      0x00\n        /* \"#utility.yul\":1865:1931   */\n      tag_788\n        /* \"#utility.yul\":1881:1930   */\n      tag_789\n        /* \"#utility.yul\":1923:1929   */\n      dup5\n        /* \"#utility.yul\":1881:1930   */\n      tag_629\n      jump\t// in\n    tag_789:\n        /* \"#utility.yul\":1865:1931   */\n      tag_628\n      jump\t// in\n    tag_788:\n        /* \"#utility.yul\":1856:1931   */\n      swap1\n      pop\n        /* \"#utility.yul\":1954:1960   */\n      dup3\n        /* \"#utility.yul\":1947:1952   */\n      dup2\n        /* \"#utility.yul\":1940:1961   */\n      mstore\n        /* \"#utility.yul\":1992:1996   */\n      0x20\n        /* \"#utility.yul\":1985:1990   */\n      dup2\n        /* \"#utility.yul\":1981:1997   */\n      add\n        /* \"#utility.yul\":2030:2033   */\n      dup5\n        /* \"#utility.yul\":2021:2027   */\n      dup5\n        /* \"#utility.yul\":2016:2019   */\n      dup5\n        /* \"#utility.yul\":2012:2028   */\n      add\n        /* \"#utility.yul\":2009:2034   */\n      gt\n        /* \"#utility.yul\":2006:2118   */\n      iszero\n      tag_790\n      jumpi\n        /* \"#utility.yul\":2037:2116   */\n      tag_791\n      tag_624\n      jump\t// in\n    tag_791:\n        /* \"#utility.yul\":2006:2118   */\n    tag_790:\n        /* \"#utility.yul\":2127:2181   */\n      tag_792\n        /* \"#utility.yul\":2174:2180   */\n      dup5\n        /* \"#utility.yul\":2169:2172   */\n      dup3\n        /* \"#utility.yul\":2164:2167   */\n      dup6\n        /* \"#utility.yul\":2127:2181   */\n      tag_630\n      jump\t// in\n    tag_792:\n        /* \"#utility.yul\":1846:2187   */\n      pop\n        /* \"#utility.yul\":1762:2187   */\n      swap4\n      swap3\n      pop\n      pop\n      pop\n      jump\t// out\n        /* \"#utility.yul\":2207:2547   */\n    tag_632:\n        /* \"#utility.yul\":2263:2268   */\n      0x00\n        /* \"#utility.yul\":2312:2315   */\n      dup3\n        /* \"#utility.yul\":2305:2309   */\n      0x1f\n        /* \"#utility.yul\":2297:2303   */\n      dup4\n        /* \"#utility.yul\":2293:2310   */\n      add\n        /* \"#utility.yul\":2289:2316   */\n      slt\n        /* \"#utility.yul\":2279:2401   */\n      tag_794\n      jumpi\n        /* \"#utility.yul\":2320:2399   */\n      tag_795\n      tag_623\n      jump\t// in\n    tag_795:\n        /* \"#utility.yul\":2279:2401   */\n    tag_794:\n        /* \"#utility.yul\":2437:2443   */\n      dup2\n        /* \"#utility.yul\":2424:2444   */\n      calldataload\n        /* \"#utility.yul\":2462:2541   */\n      tag_796\n        /* \"#utility.yul\":2537:2540   */\n      dup5\n        /* \"#utility.yul\":2529:2535   */\n      dup3\n        /* \"#utility.yul\":2522:2526   */\n      0x20\n        /* \"#utility.yul\":2514:2520   */\n      dup7\n        /* \"#utility.yul\":2510:2527   */\n      add\n        /* \"#utility.yul\":2462:2541   */\n      tag_631\n      jump\t// in\n    tag_796:\n        /* \"#utility.yul\":2453:2541   */\n      swap2\n      pop\n        /* \"#utility.yul\":2269:2547   */\n      pop\n        /* \"#utility.yul\":2207:2547   */\n      swap3\n      swap2\n      pop\n      pop\n      jump\t// out\n        /* \"#utility.yul\":2553:2679   */\n    tag_633:\n        /* \"#utility.yul\":2590:2597   */\n      0x00\n        /* \"#utility.yul\":2630:2672   */\n      0xffffffffffffffffffffffffffffffffffffffff\n        /* \"#utility.yul\":2623:2628   */\n      dup3\n        /* \"#utility.yul\":2619:2673   */\n      and\n        /* \"#utility.yul\":2608:2673   */\n      swap1\n      pop\n        /* \"#utility.yul\":2553:2679   */\n      swap2\n      swap1\n      pop\n      jump\t// out\n        /* \"#utility.yul\":2685:2781   */\n    tag_634:\n        /* \"#utility.yul\":2722:2729   */\n      0x00\n        /* \"#utility.yul\":2751:2775   */\n      tag_799\n        /* \"#utility.yul\":2769:2774   */\n      dup3\n        /* \"#utility.yul\":2751:2775   */\n      tag_633\n      jump\t// in\n    tag_799:\n        /* \"#utility.yul\":2740:2775   */\n      swap1\n      pop\n        /* \"#utility.yul\":2685:2781   */\n      swap2\n      swap1\n      pop\n      jump\t// out\n        /* \"#utility.yul\":2787:2909   */\n    tag_635:\n        /* \"#utility.yul\":2860:2884   */\n      tag_801\n        /* \"#utility.yul\":2878:2883   */\n      dup2\n        /* \"#utility.yul\":2860:2884   */\n      tag_634\n      jump\t// in\n    tag_801:\n        /* \"#utility.yul\":2853:2858   */\n      dup2\n        /* \"#utility.yul\":2850:2885   */\n      eq\n        /* \"#utility.yul\":2840:2903   */\n      tag_802\n      jumpi\n        /* \"#utility.yul\":2899:2900   */\n      0x00\n        /* \"#utility.yul\":2896:2897   */\n      dup1\n        /* \"#utility.yul\":2889:2901   */\n      revert\n        /* \"#utility.yul\":2840:2903   */\n    tag_802:\n        /* \"#utility.yul\":2787:2909   */\n      pop\n      jump\t// out\n        /* \"#utility.yul\":2915:3054   */\n    tag_636:\n        /* \"#utility.yul\":2961:2966   */\n      0x00\n        /* \"#utility.yul\":2999:3005   */\n      dup2\n        /* \"#utility.yul\":2986:3006   */\n      calldataload\n        /* \"#utility.yul\":2977:3006   */\n      swap1\n      pop\n        /* \"#utility.yul\":3015:3048   */\n      tag_804\n        /* \"#utility.yul\":3042:3047   */\n      dup2\n        /* \"#utility.yul\":3015:3048   */\n      tag_635\n      jump\t// in\n    tag_804:\n        /* \"#utility.yul\":2915:3054   */\n      swap3\n      swap2\n      pop\n      pop\n      jump\t// out\n        /* \"#utility.yul\":3060:4039   */\n    tag_36:\n        /* \"#utility.yul\":3157:3163   */\n      0x00\n        /* \"#utility.yul\":3165:3171   */\n      dup1\n        /* \"#utility.yul\":3173:3179   */\n      0x00\n        /* \"#utility.yul\":3222:3224   */\n      0x60\n        /* \"#utility.yul\":3210:3219   */\n      dup5\n        /* \"#utility.yul\":3201:3208   */\n      dup7\n        /* \"#utility.yul\":3197:3220   */\n      sub\n        /* \"#utility.yul\":3193:3225   */\n      slt\n        /* \"#utility.yul\":3190:3309   */\n      iszero\n      tag_806\n      jumpi\n        /* \"#utility.yul\":3228:3307   */\n      tag_807\n      tag_621\n      jump\t// in\n    tag_807:\n        /* \"#utility.yul\":3190:3309   */\n    tag_806:\n        /* \"#utility.yul\":3376:3377   */\n      0x00\n        /* \"#utility.yul\":3365:3374   */\n      dup5\n        /* \"#utility.yul\":3361:3378   */\n      add\n        /* \"#utility.yul\":3348:3379   */\n      calldataload\n        /* \"#utility.yul\":3406:3424   */\n      0xffffffffffffffff\n        /* \"#utility.yul\":3398:3404   */\n      dup2\n        /* \"#utility.yul\":3395:3425   */\n      gt\n        /* \"#utility.yul\":3392:3509   */\n      iszero\n      tag_808\n      jumpi\n        /* \"#utility.yul\":3428:3507   */\n      tag_809\n      tag_622\n      jump\t// in\n    tag_809:\n        /* \"#utility.yul\":3392:3509   */\n    tag_808:\n        /* \"#utility.yul\":3533:3596   */\n      tag_810\n        /* \"#utility.yul\":3588:3595   */\n      dup7\n        /* \"#utility.yul\":3579:3585   */\n      dup3\n        /* \"#utility.yul\":3568:3577   */\n      dup8\n        /* \"#utility.yul\":3564:3586   */\n      add\n        /* \"#utility.yul\":3533:3596   */\n      tag_632\n      jump\t// in\n    tag_810:\n        /* \"#utility.yul\":3523:3596   */\n      swap4\n      pop\n        /* \"#utility.yul\":3319:3606   */\n      pop\n        /* \"#utility.yul\":3645:3647   */\n      0x20\n        /* \"#utility.yul\":3671:3724   */\n      tag_811\n        /* \"#utility.yul\":3716:3723   */\n      dup7\n        /* \"#utility.yul\":3707:3713   */\n      dup3\n        /* \"#utility.yul\":3696:3705   */\n      dup8\n        /* \"#utility.yul\":3692:3714   */\n      add\n        /* \"#utility.yul\":3671:3724   */\n      tag_636\n      jump\t// in\n    tag_811:\n        /* \"#utility.yul\":3661:3724   */\n      swap3\n      pop\n        /* \"#utility.yul\":3616:3734   */\n      pop\n        /* \"#utility.yul\":3801:3803   */\n      0x40\n        /* \"#utility.yul\":3790:3799   */\n      dup5\n        /* \"#utility.yul\":3786:3804   */\n      add\n        /* \"#utility.yul\":3773:3805   */\n      calldataload\n        /* \"#utility.yul\":3832:3850   */\n      0xffffffffffffffff\n        /* \"#utility.yul\":3824:3830   */\n      dup2\n        /* \"#utility.yul\":3821:3851   */\n      gt\n        /* \"#utility.yul\":3818:3935   */\n      iszero\n      tag_812\n      jumpi\n        /* \"#utility.yul\":3854:3933   */\n      tag_813\n      tag_622\n      jump\t// in\n    tag_813:\n        /* \"#utility.yul\":3818:3935   */\n    tag_812:\n        /* \"#utility.yul\":3959:4022   */\n      tag_814\n        /* \"#utility.yul\":4014:4021   */\n      dup7\n        /* \"#utility.yul\":4005:4011   */\n      dup3\n        /* \"#utility.yul\":3994:4003   */\n      dup8\n        /* \"#utility.yul\":3990:4012   */\n      add\n        /* \"#utility.yul\":3959:4022   */\n      tag_632\n      jump\t// in\n    tag_814:\n        /* \"#utility.yul\":3949:4022   */\n      swap2\n      pop\n        /* \"#utility.yul\":3744:4032   */\n      pop\n        /* \"#utility.yul\":3060:4039   */\n      swap3\n      pop\n      swap3\n      pop\n      swap3\n      jump\t// out\n        /* \"#utility.yul\":4045:4122   */\n    tag_637:\n        /* \"#utility.yul\":4082:4089   */\n      0x00\n        /* \"#utility.yul\":4111:4116   */\n      dup2\n        /* \"#utility.yul\":4100:4116   */\n      swap1\n      pop\n        /* \"#utility.yul\":4045:4122   */\n      swap2\n      swap1\n      pop\n      jump\t// out\n        /* \"#utility.yul\":4128:4246   */\n    tag_638:\n        /* \"#utility.yul\":4215:4239   */\n      tag_817\n        /* \"#utility.yul\":4233:4238   */\n      dup2\n        /* \"#utility.yul\":4215:4239   */\n      tag_637\n      jump\t// in\n    tag_817:\n        /* \"#utility.yul\":4210:4213   */\n      dup3\n        /* \"#utility.yul\":4203:4240   */\n      mstore\n        /* \"#utility.yul\":4128:4246   */\n      pop\n      pop\n      jump\t// out\n        /* \"#utility.yul\":4252:4432   */\n    tag_160:\n        /* \"#utility.yul\":4300:4377   */\n      0x4e487b7100000000000000000000000000000000000000000000000000000000\n        /* \"#utility.yul\":4297:4298   */\n      0x00\n        /* \"#utility.yul\":4290:4378   */\n      mstore\n        /* \"#utility.yul\":4397:4401   */\n      0x21\n        /* \"#utility.yul\":4394:4395   */\n      0x04\n        /* \"#utility.yul\":4387:4402   */\n      mstore\n        /* \"#utility.yul\":4421:4425   */\n      0x24\n        /* \"#utility.yul\":4418:4419   */\n      0x00\n        /* \"#utility.yul\":4411:4426   */\n      revert\n        /* \"#utility.yul\":4438:4564   */\n    tag_639:\n        /* \"#utility.yul\":4532:4533   */\n      0x06\n        /* \"#utility.yul\":4525:4530   */\n      dup2\n        /* \"#utility.yul\":4522:4534   */\n      lt\n        /* \"#utility.yul\":4512:4558   */\n      tag_820\n      jumpi\n        /* \"#utility.yul\":4538:4556   */\n      tag_821\n      tag_160\n      jump\t// in\n    tag_821:\n        /* \"#utility.yul\":4512:4558   */\n    tag_820:\n        /* \"#utility.yul\":4438:4564   */\n      pop\n      jump\t// out\n        /* \"#utility.yul\":4570:4723   */\n    tag_640:\n        /* \"#utility.yul\":4628:4635   */\n      0x00\n        /* \"#utility.yul\":4657:4662   */\n      dup2\n        /* \"#utility.yul\":4646:4662   */\n      swap1\n      pop\n        /* \"#utility.yul\":4663:4717   */\n      tag_823\n        /* \"#utility.yul\":4711:4716   */\n      dup3\n        /* \"#utility.yul\":4663:4717   */\n      tag_639\n      jump\t// in\n    tag_823:\n        /* \"#utility.yul\":4570:4723   */\n      swap2\n      swap1\n      pop\n      jump\t// out\n        /* \"#utility.yul\":4729:4882   */\n    tag_641:\n        /* \"#utility.yul\":4798:4807   */\n      0x00\n        /* \"#utility.yul\":4831:4876   */\n      tag_825\n        /* \"#utility.yul\":4870:4875   */\n      dup3\n        /* \"#utility.yul\":4831:4876   */\n      tag_640\n      jump\t// in\n    tag_825:\n        /* \"#utility.yul\":4818:4876   */\n      swap1\n      pop\n        /* \"#utility.yul\":4729:4882   */\n      swap2\n      swap1\n      pop\n      jump\t// out\n        /* \"#utility.yul\":4888:5057   */\n    tag_642:\n        /* \"#utility.yul\":4994:5050   */\n      tag_827\n        /* \"#utility.yul\":5044:5049   */\n      dup2\n        /* \"#utility.yul\":4994:5050   */\n      tag_641\n      jump\t// in\n    tag_827:\n        /* \"#utility.yul\":4989:4992   */\n      dup3\n        /* \"#utility.yul\":4982:5051   */\n      mstore\n        /* \"#utility.yul\":4888:5057   */\n      pop\n      pop\n      jump\t// out\n        /* \"#utility.yul\":5063:5433   */\n    tag_39:\n        /* \"#utility.yul\":5203:5207   */\n      0x00\n        /* \"#utility.yul\":5241:5243   */\n      0x40\n        /* \"#utility.yul\":5230:5239   */\n      dup3\n        /* \"#utility.yul\":5226:5244   */\n      add\n        /* \"#utility.yul\":5218:5244   */\n      swap1\n      pop\n        /* \"#utility.yul\":5254:5325   */\n      tag_829\n        /* \"#utility.yul\":5322:5323   */\n      0x00\n        /* \"#utility.yul\":5311:5320   */\n      dup4\n        /* \"#utility.yul\":5307:5324   */\n      add\n        /* \"#utility.yul\":5298:5304   */\n      dup6\n        /* \"#utility.yul\":5254:5325   */\n      tag_638\n      jump\t// in\n    tag_829:\n        /* \"#utility.yul\":5335:5426   */\n      tag_830\n        /* \"#utility.yul\":5422:5424   */\n      0x20\n        /* \"#utility.yul\":5411:5420   */\n      dup4\n        /* \"#utility.yul\":5407:5425   */\n      add\n        /* \"#utility.yul\":5398:5404   */\n      dup5\n        /* \"#utility.yul\":5335:5426   */\n      tag_642\n      jump\t// in\n    tag_830:\n        /* \"#utility.yul\":5063:5433   */\n      swap4\n      swap3\n      pop\n      pop\n      pop\n      jump\t// out\n        /* \"#utility.yul\":5439:6093   */\n    tag_43:\n        /* \"#utility.yul\":5517:5523   */\n      0x00\n        /* \"#utility.yul\":5525:5531   */\n      dup1\n        /* \"#utility.yul\":5574:5576   */\n      0x40\n        /* \"#utility.yul\":5562:5571   */\n      dup4\n        /* \"#utility.yul\":5553:5560   */\n      dup6\n        /* \"#utility.yul\":5549:5572   */\n      sub\n        /* \"#utility.yul\":5545:5577   */\n      slt\n        /* \"#utility.yul\":5542:5661   */\n      iszero\n      tag_832\n      jumpi\n        /* \"#utility.yul\":5580:5659   */\n      tag_833\n      tag_621\n      jump\t// in\n    tag_833:\n        /* \"#utility.yul\":5542:5661   */\n    tag_832:\n        /* \"#utility.yul\":5728:5729   */\n      0x00\n        /* \"#utility.yul\":5717:5726   */\n      dup4\n        /* \"#utility.yul\":5713:5730   */\n      add\n        /* \"#utility.yul\":5700:5731   */\n      calldataload\n        /* \"#utility.yul\":5758:5776   */\n      0xffffffffffffffff\n        /* \"#utility.yul\":5750:5756   */\n      dup2\n        /* \"#utility.yul\":5747:5777   */\n      gt\n        /* \"#utility.yul\":5744:5861   */\n      iszero\n      tag_834\n      jumpi\n        /* \"#utility.yul\":5780:5859   */\n      tag_835\n      tag_622\n      jump\t// in\n    tag_835:\n        /* \"#utility.yul\":5744:5861   */\n    tag_834:\n        /* \"#utility.yul\":5885:5948   */\n      tag_836\n        /* \"#utility.yul\":5940:5947   */\n      dup6\n        /* \"#utility.yul\":5931:5937   */\n      dup3\n        /* \"#utility.yul\":5920:5929   */\n      dup7\n        /* \"#utility.yul\":5916:5938   */\n      add\n        /* \"#utility.yul\":5885:5948   */\n      tag_632\n      jump\t// in\n    tag_836:\n        /* \"#utility.yul\":5875:5948   */\n      swap3\n      pop\n        /* \"#utility.yul\":5671:5958   */\n      pop\n        /* \"#utility.yul\":5997:5999   */\n      0x20\n        /* \"#utility.yul\":6023:6076   */\n      tag_837\n        /* \"#utility.yul\":6068:6075   */\n      dup6\n        /* \"#utility.yul\":6059:6065   */\n      dup3\n        /* \"#utility.yul\":6048:6057   */\n      dup7\n        /* \"#utility.yul\":6044:6066   */\n      add\n        /* \"#utility.yul\":6023:6076   */\n      tag_636\n      jump\t// in\n    tag_837:\n        /* \"#utility.yul\":6013:6076   */\n      swap2\n      pop\n        /* \"#utility.yul\":5968:6086   */\n      pop\n        /* \"#utility.yul\":5439:6093   */\n      swap3\n      pop\n      swap3\n      swap1\n      pop\n      jump\t// out\n        /* \"#utility.yul\":6099:6189   */\n    tag_643:\n        /* \"#utility.yul\":6133:6140   */\n      0x00\n        /* \"#utility.yul\":6176:6181   */\n      dup2\n        /* \"#utility.yul\":6169:6182   */\n      iszero\n        /* \"#utility.yul\":6162:6183   */\n      iszero\n        /* \"#utility.yul\":6151:6183   */\n      swap1\n      pop\n        /* \"#utility.yul\":6099:6189   */\n      swap2\n      swap1\n      pop\n      jump\t// out\n        /* \"#utility.yul\":6195:6311   */\n    tag_644:\n        /* \"#utility.yul\":6265:6286   */\n      tag_840\n        /* \"#utility.yul\":6280:6285   */\n      dup2\n        /* \"#utility.yul\":6265:6286   */\n      tag_643\n      jump\t// in\n    tag_840:\n        /* \"#utility.yul\":6258:6263   */\n      dup2\n        /* \"#utility.yul\":6255:6287   */\n      eq\n        /* \"#utility.yul\":6245:6305   */\n      tag_841\n      jumpi\n        /* \"#utility.yul\":6301:6302   */\n      0x00\n        /* \"#utility.yul\":6298:6299   */\n      dup1\n        /* \"#utility.yul\":6291:6303   */\n      revert\n        /* \"#utility.yul\":6245:6305   */\n    tag_841:\n        /* \"#utility.yul\":6195:6311   */\n      pop\n      jump\t// out\n        /* \"#utility.yul\":6317:6450   */\n    tag_645:\n        /* \"#utility.yul\":6360:6365   */\n      0x00\n        /* \"#utility.yul\":6398:6404   */\n      dup2\n        /* \"#utility.yul\":6385:6405   */\n      calldataload\n        /* \"#utility.yul\":6376:6405   */\n      swap1\n      pop\n        /* \"#utility.yul\":6414:6444   */\n      tag_843\n        /* \"#utility.yul\":6438:6443   */\n      dup2\n        /* \"#utility.yul\":6414:6444   */\n      tag_644\n      jump\t// in\n    tag_843:\n        /* \"#utility.yul\":6317:6450   */\n      swap3\n      swap2\n      pop\n      pop\n      jump\t// out\n        /* \"#utility.yul\":6456:7104   */\n    tag_52:\n        /* \"#utility.yul\":6531:6537   */\n      0x00\n        /* \"#utility.yul\":6539:6545   */\n      dup1\n        /* \"#utility.yul\":6588:6590   */\n      0x40\n        /* \"#utility.yul\":6576:6585   */\n      dup4\n        /* \"#utility.yul\":6567:6574   */\n      dup6\n        /* \"#utility.yul\":6563:6586   */\n      sub\n        /* \"#utility.yul\":6559:6591   */\n      slt\n        /* \"#utility.yul\":6556:6675   */\n      iszero\n      tag_845\n      jumpi\n        /* \"#utility.yul\":6594:6673   */\n      tag_846\n      tag_621\n      jump\t// in\n    tag_846:\n        /* \"#utility.yul\":6556:6675   */\n    tag_845:\n        /* \"#utility.yul\":6742:6743   */\n      0x00\n        /* \"#utility.yul\":6731:6740   */\n      dup4\n        /* \"#utility.yul\":6727:6744   */\n      add\n        /* \"#utility.yul\":6714:6745   */\n      calldataload\n        /* \"#utility.yul\":6772:6790   */\n      0xffffffffffffffff\n        /* \"#utility.yul\":6764:6770   */\n      dup2\n        /* \"#utility.yul\":6761:6791   */\n      gt\n        /* \"#utility.yul\":6758:6875   */\n      iszero\n      tag_847\n      jumpi\n        /* \"#utility.yul\":6794:6873   */\n      tag_848\n      tag_622\n      jump\t// in\n    tag_848:\n        /* \"#utility.yul\":6758:6875   */\n    tag_847:\n        /* \"#utility.yul\":6899:6962   */\n      tag_849\n        /* \"#utility.yul\":6954:6961   */\n      dup6\n        /* \"#utility.yul\":6945:6951   */\n      dup3\n        /* \"#utility.yul\":6934:6943   */\n      dup7\n        /* \"#utility.yul\":6930:6952   */\n      add\n        /* \"#utility.yul\":6899:6962   */\n      tag_632\n      jump\t// in\n    tag_849:\n        /* \"#utility.yul\":6889:6962   */\n      swap3\n      pop\n        /* \"#utility.yul\":6685:6972   */\n      pop\n        /* \"#utility.yul\":7011:7013   */\n      0x20\n        /* \"#utility.yul\":7037:7087   */\n      tag_850\n        /* \"#utility.yul\":7079:7086   */\n      dup6\n        /* \"#utility.yul\":7070:7076   */\n      dup3\n        /* \"#utility.yul\":7059:7068   */\n      dup7\n        /* \"#utility.yul\":7055:7077   */\n      add\n        /* \"#utility.yul\":7037:7087   */\n      tag_645\n      jump\t// in\n    tag_850:\n        /* \"#utility.yul\":7027:7087   */\n      swap2\n      pop\n        /* \"#utility.yul\":6982:7097   */\n      pop\n        /* \"#utility.yul\":6456:7104   */\n      swap3\n      pop\n      swap3\n      swap1\n      pop\n      jump\t// out\n        /* \"#utility.yul\":7110:7619   */\n    tag_57:\n        /* \"#utility.yul\":7179:7185   */\n      0x00\n        /* \"#utility.yul\":7228:7230   */\n      0x20\n        /* \"#utility.yul\":7216:7225   */\n      dup3\n        /* \"#utility.yul\":7207:7214   */\n      dup5\n        /* \"#utility.yul\":7203:7226   */\n      sub\n        /* \"#utility.yul\":7199:7231   */\n      slt\n        /* \"#utility.yul\":7196:7315   */\n      iszero\n      tag_852\n      jumpi\n        /* \"#utility.yul\":7234:7313   */\n      tag_853\n      tag_621\n      jump\t// in\n    tag_853:\n        /* \"#utility.yul\":7196:7315   */\n    tag_852:\n        /* \"#utility.yul\":7382:7383   */\n      0x00\n        /* \"#utility.yul\":7371:7380   */\n      dup3\n        /* \"#utility.yul\":7367:7384   */\n      add\n        /* \"#utility.yul\":7354:7385   */\n      calldataload\n        /* \"#utility.yul\":7412:7430   */\n      0xffffffffffffffff\n        /* \"#utility.yul\":7404:7410   */\n      dup2\n        /* \"#utility.yul\":7401:7431   */\n      gt\n        /* \"#utility.yul\":7398:7515   */\n      iszero\n      tag_854\n      jumpi\n        /* \"#utility.yul\":7434:7513   */\n      tag_855\n      tag_622\n      jump\t// in\n    tag_855:\n        /* \"#utility.yul\":7398:7515   */\n    tag_854:\n        /* \"#utility.yul\":7539:7602   */\n      tag_856\n        /* \"#utility.yul\":7594:7601   */\n      dup5\n        /* \"#utility.yul\":7585:7591   */\n      dup3\n        /* \"#utility.yul\":7574:7583   */\n      dup6\n        /* \"#utility.yul\":7570:7592   */\n      add\n        /* \"#utility.yul\":7539:7602   */\n      tag_632\n      jump\t// in\n    tag_856:\n        /* \"#utility.yul\":7529:7602   */\n      swap2\n      pop\n        /* \"#utility.yul\":7325:7612   */\n      pop\n        /* \"#utility.yul\":7110:7619   */\n      swap3\n      swap2\n      pop\n      pop\n      jump\t// out\n        /* \"#utility.yul\":7625:7743   */\n    tag_646:\n        /* \"#utility.yul\":7711:7712   */\n      0x04\n        /* \"#utility.yul\":7704:7709   */\n      dup2\n        /* \"#utility.yul\":7701:7713   */\n      lt\n        /* \"#utility.yul\":7691:7737   */\n      tag_858\n      jumpi\n        /* \"#utility.yul\":7717:7735   */\n      tag_859\n      tag_160\n      jump\t// in\n    tag_859:\n        /* \"#utility.yul\":7691:7737   */\n    tag_858:\n        /* \"#utility.yul\":7625:7743   */\n      pop\n      jump\t// out\n        /* \"#utility.yul\":7749:7886   */\n    tag_647:\n        /* \"#utility.yul\":7799:7806   */\n      0x00\n        /* \"#utility.yul\":7828:7833   */\n      dup2\n        /* \"#utility.yul\":7817:7833   */\n      swap1\n      pop\n        /* \"#utility.yul\":7834:7880   */\n      tag_861\n        /* \"#utility.yul\":7874:7879   */\n      dup3\n        /* \"#utility.yul\":7834:7880   */\n      tag_646\n      jump\t// in\n    tag_861:\n        /* \"#utility.yul\":7749:7886   */\n      swap2\n      swap1\n      pop\n      jump\t// out\n        /* \"#utility.yul\":7892:8029   */\n    tag_648:\n        /* \"#utility.yul\":7953:7962   */\n      0x00\n        /* \"#utility.yul\":7986:8023   */\n      tag_863\n        /* \"#utility.yul\":8017:8022   */\n      dup3\n        /* \"#utility.yul\":7986:8023   */\n      tag_647\n      jump\t// in\n    tag_863:\n        /* \"#utility.yul\":7973:8023   */\n      swap1\n      pop\n        /* \"#utility.yul\":7892:8029   */\n      swap2\n      swap1\n      pop\n      jump\t// out\n        /* \"#utility.yul\":8035:8188   */\n    tag_649:\n        /* \"#utility.yul\":8133:8181   */\n      tag_865\n        /* \"#utility.yul\":8175:8180   */\n      dup2\n        /* \"#utility.yul\":8133:8181   */\n      tag_648\n      jump\t// in\n    tag_865:\n        /* \"#utility.yul\":8128:8131   */\n      dup3\n        /* \"#utility.yul\":8121:8182   */\n      mstore\n        /* \"#utility.yul\":8035:8188   */\n      pop\n      pop\n      jump\t// out\n        /* \"#utility.yul\":8194:8293   */\n    tag_650:\n        /* \"#utility.yul\":8246:8252   */\n      0x00\n        /* \"#utility.yul\":8280:8285   */\n      dup2\n        /* \"#utility.yul\":8274:8286   */\n      mload\n        /* \"#utility.yul\":8264:8286   */\n      swap1\n      pop\n        /* \"#utility.yul\":8194:8293   */\n      swap2\n      swap1\n      pop\n      jump\t// out\n        /* \"#utility.yul\":8299:8468   */\n    tag_651:\n        /* \"#utility.yul\":8383:8394   */\n      0x00\n        /* \"#utility.yul\":8417:8423   */\n      dup3\n        /* \"#utility.yul\":8412:8415   */\n      dup3\n        /* \"#utility.yul\":8405:8424   */\n      mstore\n        /* \"#utility.yul\":8457:8461   */\n      0x20\n        /* \"#utility.yul\":8452:8455   */\n      dup3\n        /* \"#utility.yul\":8448:8462   */\n      add\n        /* \"#utility.yul\":8433:8462   */\n      swap1\n      pop\n        /* \"#utility.yul\":8299:8468   */\n      swap3\n      swap2\n      pop\n      pop\n      jump\t// out\n        /* \"#utility.yul\":8474:8720   */\n    tag_652:\n        /* \"#utility.yul\":8555:8556   */\n      0x00\n        /* \"#utility.yul\":8565:8678   */\n    tag_869:\n        /* \"#utility.yul\":8579:8585   */\n      dup4\n        /* \"#utility.yul\":8576:8577   */\n      dup2\n        /* \"#utility.yul\":8573:8586   */\n      lt\n        /* \"#utility.yul\":8565:8678   */\n      iszero\n      tag_871\n      jumpi\n        /* \"#utility.yul\":8664:8665   */\n      dup1\n        /* \"#utility.yul\":8659:8662   */\n      dup3\n        /* \"#utility.yul\":8655:8666   */\n      add\n        /* \"#utility.yul\":8649:8667   */\n      mload\n        /* \"#utility.yul\":8645:8646   */\n      dup2\n        /* \"#utility.yul\":8640:8643   */\n      dup5\n        /* \"#utility.yul\":8636:8647   */\n      add\n        /* \"#utility.yul\":8629:8668   */\n      mstore\n        /* \"#utility.yul\":8601:8603   */\n      0x20\n        /* \"#utility.yul\":8598:8599   */\n      dup2\n        /* \"#utility.yul\":8594:8604   */\n      add\n        /* \"#utility.yul\":8589:8604   */\n      swap1\n      pop\n        /* \"#utility.yul\":8565:8678   */\n      jump(tag_869)\n    tag_871:\n        /* \"#utility.yul\":8712:8713   */\n      0x00\n        /* \"#utility.yul\":8703:8709   */\n      dup5\n        /* \"#utility.yul\":8698:8701   */\n      dup5\n        /* \"#utility.yul\":8694:8710   */\n      add\n        /* \"#utility.yul\":8687:8714   */\n      mstore\n        /* \"#utility.yul\":8536:8720   */\n      pop\n        /* \"#utility.yul\":8474:8720   */\n      pop\n      pop\n      pop\n      jump\t// out\n        /* \"#utility.yul\":8726:9103   */\n    tag_653:\n        /* \"#utility.yul\":8814:8817   */\n      0x00\n        /* \"#utility.yul\":8842:8881   */\n      tag_873\n        /* \"#utility.yul\":8875:8880   */\n      dup3\n        /* \"#utility.yul\":8842:8881   */\n      tag_650\n      jump\t// in\n    tag_873:\n        /* \"#utility.yul\":8897:8968   */\n      tag_874\n        /* \"#utility.yul\":8961:8967   */\n      dup2\n        /* \"#utility.yul\":8956:8959   */\n      dup6\n        /* \"#utility.yul\":8897:8968   */\n      tag_651\n      jump\t// in\n    tag_874:\n        /* \"#utility.yul\":8890:8968   */\n      swap4\n      pop\n        /* \"#utility.yul\":8977:9042   */\n      tag_875\n        /* \"#utility.yul\":9035:9041   */\n      dup2\n        /* \"#utility.yul\":9030:9033   */\n      dup6\n        /* \"#utility.yul\":9023:9027   */\n      0x20\n        /* \"#utility.yul\":9016:9021   */\n      dup7\n        /* \"#utility.yul\":9012:9028   */\n      add\n        /* \"#utility.yul\":8977:9042   */\n      tag_652\n      jump\t// in\n    tag_875:\n        /* \"#utility.yul\":9067:9096   */\n      tag_876\n        /* \"#utility.yul\":9089:9095   */\n      dup2\n        /* \"#utility.yul\":9067:9096   */\n      tag_625\n      jump\t// in\n    tag_876:\n        /* \"#utility.yul\":9062:9065   */\n      dup5\n        /* \"#utility.yul\":9058:9097   */\n      add\n        /* \"#utility.yul\":9051:9097   */\n      swap2\n      pop\n        /* \"#utility.yul\":8818:9103   */\n      pop\n        /* \"#utility.yul\":8726:9103   */\n      swap3\n      swap2\n      pop\n      pop\n      jump\t// out\n        /* \"#utility.yul\":9109:9227   */\n    tag_654:\n        /* \"#utility.yul\":9196:9220   */\n      tag_878\n        /* \"#utility.yul\":9214:9219   */\n      dup2\n        /* \"#utility.yul\":9196:9220   */\n      tag_634\n      jump\t// in\n    tag_878:\n        /* \"#utility.yul\":9191:9194   */\n      dup3\n        /* \"#utility.yul\":9184:9221   */\n      mstore\n        /* \"#utility.yul\":9109:9227   */\n      pop\n      pop\n      jump\t// out\n        /* \"#utility.yul\":9233:9322   */\n    tag_655:\n        /* \"#utility.yul\":9269:9276   */\n      0x00\n        /* \"#utility.yul\":9309:9315   */\n      0xffff\n        /* \"#utility.yul\":9302:9307   */\n      dup3\n        /* \"#utility.yul\":9298:9316   */\n      and\n        /* \"#utility.yul\":9287:9316   */\n      swap1\n      pop\n        /* \"#utility.yul\":9233:9322   */\n      swap2\n      swap1\n      pop\n      jump\t// out\n        /* \"#utility.yul\":9328:9443   */\n    tag_656:\n        /* \"#utility.yul\":9413:9436   */\n      tag_881\n        /* \"#utility.yul\":9430:9435   */\n      dup2\n        /* \"#utility.yul\":9413:9436   */\n      tag_655\n      jump\t// in\n    tag_881:\n        /* \"#utility.yul\":9408:9411   */\n      dup3\n        /* \"#utility.yul\":9401:9437   */\n      mstore\n        /* \"#utility.yul\":9328:9443   */\n      pop\n      pop\n      jump\t// out\n        /* \"#utility.yul\":9449:10882   */\n    tag_60:\n        /* \"#utility.yul\":9848:9852   */\n      0x00\n        /* \"#utility.yul\":9886:9889   */\n      0x0160\n        /* \"#utility.yul\":9875:9884   */\n      dup3\n        /* \"#utility.yul\":9871:9890   */\n      add\n        /* \"#utility.yul\":9863:9890   */\n      swap1\n      pop\n        /* \"#utility.yul\":9900:9982   */\n      tag_883\n        /* \"#utility.yul\":9979:9980   */\n      0x00\n        /* \"#utility.yul\":9968:9977   */\n      dup4\n        /* \"#utility.yul\":9964:9981   */\n      add\n        /* \"#utility.yul\":9955:9961   */\n      dup15\n        /* \"#utility.yul\":9900:9982   */\n      tag_649\n      jump\t// in\n    tag_883:\n        /* \"#utility.yul\":10029:10038   */\n      dup2\n        /* \"#utility.yul\":10023:10027   */\n      dup2\n        /* \"#utility.yul\":10019:10039   */\n      sub\n        /* \"#utility.yul\":10014:10016   */\n      0x20\n        /* \"#utility.yul\":10003:10012   */\n      dup4\n        /* \"#utility.yul\":9999:10017   */\n      add\n        /* \"#utility.yul\":9992:10040   */\n      mstore\n        /* \"#utility.yul\":10057:10135   */\n      tag_884\n        /* \"#utility.yul\":10130:10134   */\n      dup2\n        /* \"#utility.yul\":10121:10127   */\n      dup14\n        /* \"#utility.yul\":10057:10135   */\n      tag_653\n      jump\t// in\n    tag_884:\n        /* \"#utility.yul\":10049:10135   */\n      swap1\n      pop\n        /* \"#utility.yul\":10145:10217   */\n      tag_885\n        /* \"#utility.yul\":10213:10215   */\n      0x40\n        /* \"#utility.yul\":10202:10211   */\n      dup4\n        /* \"#utility.yul\":10198:10216   */\n      add\n        /* \"#utility.yul\":10189:10195   */\n      dup13\n        /* \"#utility.yul\":10145:10217   */\n      tag_654\n      jump\t// in\n    tag_885:\n        /* \"#utility.yul\":10227:10299   */\n      tag_886\n        /* \"#utility.yul\":10295:10297   */\n      0x60\n        /* \"#utility.yul\":10284:10293   */\n      dup4\n        /* \"#utility.yul\":10280:10298   */\n      add\n        /* \"#utility.yul\":10271:10277   */\n      dup12\n        /* \"#utility.yul\":10227:10299   */\n      tag_638\n      jump\t// in\n    tag_886:\n        /* \"#utility.yul\":10309:10382   */\n      tag_887\n        /* \"#utility.yul\":10377:10380   */\n      0x80\n        /* \"#utility.yul\":10366:10375   */\n      dup4\n        /* \"#utility.yul\":10362:10381   */\n      add\n        /* \"#utility.yul\":10353:10359   */\n      dup11\n        /* \"#utility.yul\":10309:10382   */\n      tag_638\n      jump\t// in\n    tag_887:\n        /* \"#utility.yul\":10392:10463   */\n      tag_888\n        /* \"#utility.yul\":10458:10461   */\n      0xa0\n        /* \"#utility.yul\":10447:10456   */\n      dup4\n        /* \"#utility.yul\":10443:10462   */\n      add\n        /* \"#utility.yul\":10434:10440   */\n      dup10\n        /* \"#utility.yul\":10392:10463   */\n      tag_656\n      jump\t// in\n    tag_888:\n        /* \"#utility.yul\":10473:10544   */\n      tag_889\n        /* \"#utility.yul\":10539:10542   */\n      0xc0\n        /* \"#utility.yul\":10528:10537   */\n      dup4\n        /* \"#utility.yul\":10524:10543   */\n      add\n        /* \"#utility.yul\":10515:10521   */\n      dup9\n        /* \"#utility.yul\":10473:10544   */\n      tag_656\n      jump\t// in\n    tag_889:\n        /* \"#utility.yul\":10554:10625   */\n      tag_890\n        /* \"#utility.yul\":10620:10623   */\n      0xe0\n        /* \"#utility.yul\":10609:10618   */\n      dup4\n        /* \"#utility.yul\":10605:10624   */\n      add\n        /* \"#utility.yul\":10596:10602   */\n      dup8\n        /* \"#utility.yul\":10554:10625   */\n      tag_656\n      jump\t// in\n    tag_890:\n        /* \"#utility.yul\":10635:10708   */\n      tag_891\n        /* \"#utility.yul\":10703:10706   */\n      0x0100\n        /* \"#utility.yul\":10692:10701   */\n      dup4\n        /* \"#utility.yul\":10688:10707   */\n      add\n        /* \"#utility.yul\":10679:10685   */\n      dup7\n        /* \"#utility.yul\":10635:10708   */\n      tag_638\n      jump\t// in\n    tag_891:\n        /* \"#utility.yul\":10718:10791   */\n      tag_892\n        /* \"#utility.yul\":10786:10789   */\n      0x0120\n        /* \"#utility.yul\":10775:10784   */\n      dup4\n        /* \"#utility.yul\":10771:10790   */\n      add\n        /* \"#utility.yul\":10762:10768   */\n      dup6\n        /* \"#utility.yul\":10718:10791   */\n      tag_638\n      jump\t// in\n    tag_892:\n        /* \"#utility.yul\":10801:10875   */\n      tag_893\n        /* \"#utility.yul\":10870:10873   */\n      0x0140\n        /* \"#utility.yul\":10859:10868   */\n      dup4\n        /* \"#utility.yul\":10855:10874   */\n      add\n        /* \"#utility.yul\":10845:10852   */\n      dup5\n        /* \"#utility.yul\":10801:10875   */\n      tag_638\n      jump\t// in\n    tag_893:\n        /* \"#utility.yul\":9449:10882   */\n      swap13\n      swap12\n      pop\n      pop\n      pop\n      pop\n      pop\n      pop\n      pop\n      pop\n      pop\n      pop\n      pop\n      pop\n      jump\t// out\n        /* \"#utility.yul\":10888:11217   */\n    tag_68:\n        /* \"#utility.yul\":10947:10953   */\n      0x00\n        /* \"#utility.yul\":10996:10998   */\n      0x20\n        /* \"#utility.yul\":10984:10993   */\n      dup3\n        /* \"#utility.yul\":10975:10982   */\n      dup5\n        /* \"#utility.yul\":10971:10994   */\n      sub\n        /* \"#utility.yul\":10967:10999   */\n      slt\n        /* \"#utility.yul\":10964:11083   */\n      iszero\n      tag_895\n      jumpi\n        /* \"#utility.yul\":11002:11081   */\n      tag_896\n      tag_621\n      jump\t// in\n    tag_896:\n        /* \"#utility.yul\":10964:11083   */\n    tag_895:\n        /* \"#utility.yul\":11122:11123   */\n      0x00\n        /* \"#utility.yul\":11147:11200   */\n      tag_897\n        /* \"#utility.yul\":11192:11199   */\n      dup5\n        /* \"#utility.yul\":11183:11189   */\n      dup3\n        /* \"#utility.yul\":11172:11181   */\n      dup6\n        /* \"#utility.yul\":11168:11190   */\n      add\n        /* \"#utility.yul\":11147:11200   */\n      tag_636\n      jump\t// in\n    tag_897:\n        /* \"#utility.yul\":11137:11200   */\n      swap2\n      pop\n        /* \"#utility.yul\":11093:11210   */\n      pop\n        /* \"#utility.yul\":10888:11217   */\n      swap3\n      swap2\n      pop\n      pop\n      jump\t// out\n        /* \"#utility.yul\":11223:12057   */\n    tag_81:\n        /* \"#utility.yul\":11311:11317   */\n      0x00\n        /* \"#utility.yul\":11319:11325   */\n      dup1\n        /* \"#utility.yul\":11368:11370   */\n      0x40\n        /* \"#utility.yul\":11356:11365   */\n      dup4\n        /* \"#utility.yul\":11347:11354   */\n      dup6\n        /* \"#utility.yul\":11343:11366   */\n      sub\n        /* \"#utility.yul\":11339:11371   */\n      slt\n        /* \"#utility.yul\":11336:11455   */\n      iszero\n      tag_899\n      jumpi\n        /* \"#utility.yul\":11374:11453   */\n      tag_900\n      tag_621\n      jump\t// in\n    tag_900:\n        /* \"#utility.yul\":11336:11455   */\n    tag_899:\n        /* \"#utility.yul\":11522:11523   */\n      0x00\n        /* \"#utility.yul\":11511:11520   */\n      dup4\n        /* \"#utility.yul\":11507:11524   */\n      add\n        /* \"#utility.yul\":11494:11525   */\n      calldataload\n        /* \"#utility.yul\":11552:11570   */\n      0xffffffffffffffff\n        /* \"#utility.yul\":11544:11550   */\n      dup2\n        /* \"#utility.yul\":11541:11571   */\n      gt\n        /* \"#utility.yul\":11538:11655   */\n      iszero\n      tag_901\n      jumpi\n        /* \"#utility.yul\":11574:11653   */\n      tag_902\n      tag_622\n      jump\t// in\n    tag_902:\n        /* \"#utility.yul\":11538:11655   */\n    tag_901:\n        /* \"#utility.yul\":11679:11742   */\n      tag_903\n        /* \"#utility.yul\":11734:11741   */\n      dup6\n        /* \"#utility.yul\":11725:11731   */\n      dup3\n        /* \"#utility.yul\":11714:11723   */\n      dup7\n        /* \"#utility.yul\":11710:11732   */\n      add\n        /* \"#utility.yul\":11679:11742   */\n      tag_632\n      jump\t// in\n    tag_903:\n        /* \"#utility.yul\":11669:11742   */\n      swap3\n      pop\n        /* \"#utility.yul\":11465:11752   */\n      pop\n        /* \"#utility.yul\":11819:11821   */\n      0x20\n        /* \"#utility.yul\":11808:11817   */\n      dup4\n        /* \"#utility.yul\":11804:11822   */\n      add\n        /* \"#utility.yul\":11791:11823   */\n      calldataload\n        /* \"#utility.yul\":11850:11868   */\n      0xffffffffffffffff\n        /* \"#utility.yul\":11842:11848   */\n      dup2\n        /* \"#utility.yul\":11839:11869   */\n      gt\n        /* \"#utility.yul\":11836:11953   */\n      iszero\n      tag_904\n      jumpi\n        /* \"#utility.yul\":11872:11951   */\n      tag_905\n      tag_622\n      jump\t// in\n    tag_905:\n        /* \"#utility.yul\":11836:11953   */\n    tag_904:\n        /* \"#utility.yul\":11977:12040   */\n      tag_906\n        /* \"#utility.yul\":12032:12039   */\n      dup6\n        /* \"#utility.yul\":12023:12029   */\n      dup3\n        /* \"#utility.yul\":12012:12021   */\n      dup7\n        /* \"#utility.yul\":12008:12030   */\n      add\n        /* \"#utility.yul\":11977:12040   */\n      tag_632\n      jump\t// in\n    tag_906:\n        /* \"#utility.yul\":11967:12040   */\n      swap2\n      pop\n        /* \"#utility.yul\":11762:12050   */\n      pop\n        /* \"#utility.yul\":11223:12057   */\n      swap3\n      pop\n      swap3\n      swap1\n      pop\n      jump\t// out\n        /* \"#utility.yul\":12063:12185   */\n    tag_657:\n        /* \"#utility.yul\":12136:12160   */\n      tag_908\n        /* \"#utility.yul\":12154:12159   */\n      dup2\n        /* \"#utility.yul\":12136:12160   */\n      tag_637\n      jump\t// in\n    tag_908:\n        /* \"#utility.yul\":12129:12134   */\n      dup2\n        /* \"#utility.yul\":12126:12161   */\n      eq\n        /* \"#utility.yul\":12116:12179   */\n      tag_909\n      jumpi\n        /* \"#utility.yul\":12175:12176   */\n      0x00\n        /* \"#utility.yul\":12172:12173   */\n      dup1\n        /* \"#utility.yul\":12165:12177   */\n      revert\n        /* \"#utility.yul\":12116:12179   */\n    tag_909:\n        /* \"#utility.yul\":12063:12185   */\n      pop\n      jump\t// out\n        /* \"#utility.yul\":12191:12330   */\n    tag_658:\n        /* \"#utility.yul\":12237:12242   */\n      0x00\n        /* \"#utility.yul\":12275:12281   */\n      dup2\n        /* \"#utility.yul\":12262:12282   */\n      calldataload\n        /* \"#utility.yul\":12253:12282   */\n      swap1\n      pop\n        /* \"#utility.yul\":12291:12324   */\n      tag_911\n        /* \"#utility.yul\":12318:12323   */\n      dup2\n        /* \"#utility.yul\":12291:12324   */\n      tag_657\n      jump\t// in\n    tag_911:\n        /* \"#utility.yul\":12191:12330   */\n      swap3\n      swap2\n      pop\n      pop\n      jump\t// out\n        /* \"#utility.yul\":12336:13461   */\n    tag_86:\n        /* \"#utility.yul\":12442:12448   */\n      0x00\n        /* \"#utility.yul\":12450:12456   */\n      dup1\n        /* \"#utility.yul\":12458:12464   */\n      0x00\n        /* \"#utility.yul\":12466:12472   */\n      dup1\n        /* \"#utility.yul\":12515:12518   */\n      0x80\n        /* \"#utility.yul\":12503:12512   */\n      dup6\n        /* \"#utility.yul\":12494:12501   */\n      dup8\n        /* \"#utility.yul\":12490:12513   */\n      sub\n        /* \"#utility.yul\":12486:12519   */\n      slt\n        /* \"#utility.yul\":12483:12603   */\n      iszero\n      tag_913\n      jumpi\n        /* \"#utility.yul\":12522:12601   */\n      tag_914\n      tag_621\n      jump\t// in\n    tag_914:\n        /* \"#utility.yul\":12483:12603   */\n    tag_913:\n        /* \"#utility.yul\":12670:12671   */\n      0x00\n        /* \"#utility.yul\":12659:12668   */\n      dup6\n        /* \"#utility.yul\":12655:12672   */\n      add\n        /* \"#utility.yul\":12642:12673   */\n      calldataload\n        /* \"#utility.yul\":12700:12718   */\n      0xffffffffffffffff\n        /* \"#utility.yul\":12692:12698   */\n      dup2\n        /* \"#utility.yul\":12689:12719   */\n      gt\n        /* \"#utility.yul\":12686:12803   */\n      iszero\n      tag_915\n      jumpi\n        /* \"#utility.yul\":12722:12801   */\n      tag_916\n      tag_622\n      jump\t// in\n    tag_916:\n        /* \"#utility.yul\":12686:12803   */\n    tag_915:\n        /* \"#utility.yul\":12827:12890   */\n      tag_917\n        /* \"#utility.yul\":12882:12889   */\n      dup8\n        /* \"#utility.yul\":12873:12879   */\n      dup3\n        /* \"#utility.yul\":12862:12871   */\n      dup9\n        /* \"#utility.yul\":12858:12880   */\n      add\n        /* \"#utility.yul\":12827:12890   */\n      tag_632\n      jump\t// in\n    tag_917:\n        /* \"#utility.yul\":12817:12890   */\n      swap5\n      pop\n        /* \"#utility.yul\":12613:12900   */\n      pop\n        /* \"#utility.yul\":12939:12941   */\n      0x20\n        /* \"#utility.yul\":12965:13018   */\n      tag_918\n        /* \"#utility.yul\":13010:13017   */\n      dup8\n        /* \"#utility.yul\":13001:13007   */\n      dup3\n        /* \"#utility.yul\":12990:12999   */\n      dup9\n        /* \"#utility.yul\":12986:13008   */\n      add\n        /* \"#utility.yul\":12965:13018   */\n      tag_636\n      jump\t// in\n    tag_918:\n        /* \"#utility.yul\":12955:13018   */\n      swap4\n      pop\n        /* \"#utility.yul\":12910:13028   */\n      pop\n        /* \"#utility.yul\":13095:13097   */\n      0x40\n        /* \"#utility.yul\":13084:13093   */\n      dup6\n        /* \"#utility.yul\":13080:13098   */\n      add\n        /* \"#utility.yul\":13067:13099   */\n      calldataload\n        /* \"#utility.yul\":13126:13144   */\n      0xffffffffffffffff\n        /* \"#utility.yul\":13118:13124   */\n      dup2\n        /* \"#utility.yul\":13115:13145   */\n      gt\n        /* \"#utility.yul\":13112:13229   */\n      iszero\n      tag_919\n      jumpi\n        /* \"#utility.yul\":13148:13227   */\n      tag_920\n      tag_622\n      jump\t// in\n    tag_920:\n        /* \"#utility.yul\":13112:13229   */\n    tag_919:\n        /* \"#utility.yul\":13253:13316   */\n      tag_921\n        /* \"#utility.yul\":13308:13315   */\n      dup8\n        /* \"#utility.yul\":13299:13305   */\n      dup3\n        /* \"#utility.yul\":13288:13297   */\n      dup9\n        /* \"#utility.yul\":13284:13306   */\n      add\n        /* \"#utility.yul\":13253:13316   */\n      tag_632\n      jump\t// in\n    tag_921:\n        /* \"#utility.yul\":13243:13316   */\n      swap3\n      pop\n        /* \"#utility.yul\":13038:13326   */\n      pop\n        /* \"#utility.yul\":13365:13367   */\n      0x60\n        /* \"#utility.yul\":13391:13444   */\n      tag_922\n        /* \"#utility.yul\":13436:13443   */\n      dup8\n        /* \"#utility.yul\":13427:13433   */\n      dup3\n        /* \"#utility.yul\":13416:13425   */\n      dup9\n        /* \"#utility.yul\":13412:13434   */\n      add\n        /* \"#utility.yul\":13391:13444   */\n      tag_658\n      jump\t// in\n    tag_922:\n        /* \"#utility.yul\":13381:13444   */\n      swap2\n      pop\n        /* \"#utility.yul\":13336:13454   */\n      pop\n        /* \"#utility.yul\":12336:13461   */\n      swap3\n      swap6\n      swap2\n      swap5\n      pop\n      swap3\n      pop\n      jump\t// out\n        /* \"#utility.yul\":13467:13587   */\n    tag_659:\n        /* \"#utility.yul\":13539:13562   */\n      tag_924\n        /* \"#utility.yul\":13556:13561   */\n      dup2\n        /* \"#utility.yul\":13539:13562   */\n      tag_655\n      jump\t// in\n    tag_924:\n        /* \"#utility.yul\":13532:13537   */\n      dup2\n        /* \"#utility.yul\":13529:13563   */\n      eq\n        /* \"#utility.yul\":13519:13581   */\n      tag_925\n      jumpi\n        /* \"#utility.yul\":13577:13578   */\n      0x00\n        /* \"#utility.yul\":13574:13575   */\n      dup1\n        /* \"#utility.yul\":13567:13579   */\n      revert\n        /* \"#utility.yul\":13519:13581   */\n    tag_925:\n        /* \"#utility.yul\":13467:13587   */\n      pop\n      jump\t// out\n        /* \"#utility.yul\":13593:13730   */\n    tag_660:\n        /* \"#utility.yul\":13638:13643   */\n      0x00\n        /* \"#utility.yul\":13676:13682   */\n      dup2\n        /* \"#utility.yul\":13663:13683   */\n      calldataload\n        /* \"#utility.yul\":13654:13683   */\n      swap1\n      pop\n        /* \"#utility.yul\":13692:13724   */\n      tag_927\n        /* \"#utility.yul\":13718:13723   */\n      dup2\n        /* \"#utility.yul\":13692:13724   */\n      tag_659\n      jump\t// in\n    tag_927:\n        /* \"#utility.yul\":13593:13730   */\n      swap3\n      swap2\n      pop\n      pop\n      jump\t// out\n        /* \"#utility.yul\":13736:15297   */\n    tag_91:\n        /* \"#utility.yul\":13868:13874   */\n      0x00\n        /* \"#utility.yul\":13876:13882   */\n      dup1\n        /* \"#utility.yul\":13884:13890   */\n      0x00\n        /* \"#utility.yul\":13892:13898   */\n      dup1\n        /* \"#utility.yul\":13900:13906   */\n      0x00\n        /* \"#utility.yul\":13908:13914   */\n      dup1\n        /* \"#utility.yul\":13916:13922   */\n      0x00\n        /* \"#utility.yul\":13965:13968   */\n      0xe0\n        /* \"#utility.yul\":13953:13962   */\n      dup9\n        /* \"#utility.yul\":13944:13951   */\n      dup11\n        /* \"#utility.yul\":13940:13963   */\n      sub\n        /* \"#utility.yul\":13936:13969   */\n      slt\n        /* \"#utility.yul\":13933:14053   */\n      iszero\n      tag_929\n      jumpi\n        /* \"#utility.yul\":13972:14051   */\n      tag_930\n      tag_621\n      jump\t// in\n    tag_930:\n        /* \"#utility.yul\":13933:14053   */\n    tag_929:\n        /* \"#utility.yul\":14120:14121   */\n      0x00\n        /* \"#utility.yul\":14109:14118   */\n      dup9\n        /* \"#utility.yul\":14105:14122   */\n      add\n        /* \"#utility.yul\":14092:14123   */\n      calldataload\n        /* \"#utility.yul\":14150:14168   */\n      0xffffffffffffffff\n        /* \"#utility.yul\":14142:14148   */\n      dup2\n        /* \"#utility.yul\":14139:14169   */\n      gt\n        /* \"#utility.yul\":14136:14253   */\n      iszero\n      tag_931\n      jumpi\n        /* \"#utility.yul\":14172:14251   */\n      tag_932\n      tag_622\n      jump\t// in\n    tag_932:\n        /* \"#utility.yul\":14136:14253   */\n    tag_931:\n        /* \"#utility.yul\":14277:14340   */\n      tag_933\n        /* \"#utility.yul\":14332:14339   */\n      dup11\n        /* \"#utility.yul\":14323:14329   */\n      dup3\n        /* \"#utility.yul\":14312:14321   */\n      dup12\n        /* \"#utility.yul\":14308:14330   */\n      add\n        /* \"#utility.yul\":14277:14340   */\n      tag_632\n      jump\t// in\n    tag_933:\n        /* \"#utility.yul\":14267:14340   */\n      swap8\n      pop\n        /* \"#utility.yul\":14063:14350   */\n      pop\n        /* \"#utility.yul\":14417:14419   */\n      0x20\n        /* \"#utility.yul\":14406:14415   */\n      dup9\n        /* \"#utility.yul\":14402:14420   */\n      add\n        /* \"#utility.yul\":14389:14421   */\n      calldataload\n        /* \"#utility.yul\":14448:14466   */\n      0xffffffffffffffff\n        /* \"#utility.yul\":14440:14446   */\n      dup2\n        /* \"#utility.yul\":14437:14467   */\n      gt\n        /* \"#utility.yul\":14434:14551   */\n      iszero\n      tag_934\n      jumpi\n        /* \"#utility.yul\":14470:14549   */\n      tag_935\n      tag_622\n      jump\t// in\n    tag_935:\n        /* \"#utility.yul\":14434:14551   */\n    tag_934:\n        /* \"#utility.yul\":14575:14638   */\n      tag_936\n        /* \"#utility.yul\":14630:14637   */\n      dup11\n        /* \"#utility.yul\":14621:14627   */\n      dup3\n        /* \"#utility.yul\":14610:14619   */\n      dup12\n        /* \"#utility.yul\":14606:14628   */\n      add\n        /* \"#utility.yul\":14575:14638   */\n      tag_632\n      jump\t// in\n    tag_936:\n        /* \"#utility.yul\":14565:14638   */\n      swap7\n      pop\n        /* \"#utility.yul\":14360:14648   */\n      pop\n        /* \"#utility.yul\":14687:14689   */\n      0x40\n        /* \"#utility.yul\":14713:14766   */\n      tag_937\n        /* \"#utility.yul\":14758:14765   */\n      dup11\n        /* \"#utility.yul\":14749:14755   */\n      dup3\n        /* \"#utility.yul\":14738:14747   */\n      dup12\n        /* \"#utility.yul\":14734:14756   */\n      add\n        /* \"#utility.yul\":14713:14766   */\n      tag_636\n      jump\t// in\n    tag_937:\n        /* \"#utility.yul\":14703:14766   */\n      swap6\n      pop\n        /* \"#utility.yul\":14658:14776   */\n      pop\n        /* \"#utility.yul\":14815:14817   */\n      0x60\n        /* \"#utility.yul\":14841:14893   */\n      tag_938\n        /* \"#utility.yul\":14885:14892   */\n      dup11\n        /* \"#utility.yul\":14876:14882   */\n      dup3\n        /* \"#utility.yul\":14865:14874   */\n      dup12\n        /* \"#utility.yul\":14861:14883   */\n      add\n        /* \"#utility.yul\":14841:14893   */\n      tag_660\n      jump\t// in\n    tag_938:\n        /* \"#utility.yul\":14831:14893   */\n      swap5\n      pop\n        /* \"#utility.yul\":14786:14903   */\n      pop\n        /* \"#utility.yul\":14942:14945   */\n      0x80\n        /* \"#utility.yul\":14969:15022   */\n      tag_939\n        /* \"#utility.yul\":15014:15021   */\n      dup11\n        /* \"#utility.yul\":15005:15011   */\n      dup3\n        /* \"#utility.yul\":14994:15003   */\n      dup12\n        /* \"#utility.yul\":14990:15012   */\n      add\n        /* \"#utility.yul\":14969:15022   */\n      tag_658\n      jump\t// in\n    tag_939:\n        /* \"#utility.yul\":14959:15022   */\n      swap4\n      pop\n        /* \"#utility.yul\":14913:15032   */\n      pop\n        /* \"#utility.yul\":15071:15074   */\n      0xa0\n        /* \"#utility.yul\":15098:15151   */\n      tag_940\n        /* \"#utility.yul\":15143:15150   */\n      dup11\n        /* \"#utility.yul\":15134:15140   */\n      dup3\n        /* \"#utility.yul\":15123:15132   */\n      dup12\n        /* \"#utility.yul\":15119:15141   */\n      add\n        /* \"#utility.yul\":15098:15151   */\n      tag_658\n      jump\t// in\n    tag_940:\n        /* \"#utility.yul\":15088:15151   */\n      swap3\n      pop\n        /* \"#utility.yul\":15042:15161   */\n      pop\n        /* \"#utility.yul\":15200:15203   */\n      0xc0\n        /* \"#utility.yul\":15227:15280   */\n      tag_941\n        /* \"#utility.yul\":15272:15279   */\n      dup11\n        /* \"#utility.yul\":15263:15269   */\n      dup3\n        /* \"#utility.yul\":15252:15261   */\n      dup12\n        /* \"#utility.yul\":15248:15270   */\n      add\n        /* \"#utility.yul\":15227:15280   */\n      tag_658\n      jump\t// in\n    tag_941:\n        /* \"#utility.yul\":15217:15280   */\n      swap2\n      pop\n        /* \"#utility.yul\":15171:15290   */\n      pop\n        /* \"#utility.yul\":13736:15297   */\n      swap3\n      swap6\n      swap9\n      swap2\n      swap5\n      swap8\n      pop\n      swap3\n      swap6\n      pop\n      jump\t// out\n        /* \"#utility.yul\":15303:15525   */\n    tag_97:\n        /* \"#utility.yul\":15396:15400   */\n      0x00\n        /* \"#utility.yul\":15434:15436   */\n      0x20\n        /* \"#utility.yul\":15423:15432   */\n      dup3\n        /* \"#utility.yul\":15419:15437   */\n      add\n        /* \"#utility.yul\":15411:15437   */\n      swap1\n      pop\n        /* \"#utility.yul\":15447:15518   */\n      tag_943\n        /* \"#utility.yul\":15515:15516   */\n      0x00\n        /* \"#utility.yul\":15504:15513   */\n      dup4\n        /* \"#utility.yul\":15500:15517   */\n      add\n        /* \"#utility.yul\":15491:15497   */\n      dup5\n        /* \"#utility.yul\":15447:15518   */\n      tag_654\n      jump\t// in\n    tag_943:\n        /* \"#utility.yul\":15303:15525   */\n      swap3\n      swap2\n      pop\n      pop\n      jump\t// out\n        /* \"#utility.yul\":15531:15749   */\n    tag_102:\n        /* \"#utility.yul\":15622:15626   */\n      0x00\n        /* \"#utility.yul\":15660:15662   */\n      0x20\n        /* \"#utility.yul\":15649:15658   */\n      dup3\n        /* \"#utility.yul\":15645:15663   */\n      add\n        /* \"#utility.yul\":15637:15663   */\n      swap1\n      pop\n        /* \"#utility.yul\":15673:15742   */\n      tag_945\n        /* \"#utility.yul\":15739:15740   */\n      0x00\n        /* \"#utility.yul\":15728:15737   */\n      dup4\n        /* \"#utility.yul\":15724:15741   */\n      add\n        /* \"#utility.yul\":15715:15721   */\n      dup5\n        /* \"#utility.yul\":15673:15742   */\n      tag_656\n      jump\t// in\n    tag_945:\n        /* \"#utility.yul\":15531:15749   */\n      swap3\n      swap2\n      pop\n      pop\n      jump\t// out\n        /* \"#utility.yul\":15755:16734   */\n    tag_114:\n        /* \"#utility.yul\":15852:15858   */\n      0x00\n        /* \"#utility.yul\":15860:15866   */\n      dup1\n        /* \"#utility.yul\":15868:15874   */\n      0x00\n        /* \"#utility.yul\":15917:15919   */\n      0x60\n        /* \"#utility.yul\":15905:15914   */\n      dup5\n        /* \"#utility.yul\":15896:15903   */\n      dup7\n        /* \"#utility.yul\":15892:15915   */\n      sub\n        /* \"#utility.yul\":15888:15920   */\n      slt\n        /* \"#utility.yul\":15885:16004   */\n      iszero\n      tag_947\n      jumpi\n        /* \"#utility.yul\":15923:16002   */\n      tag_948\n      tag_621\n      jump\t// in\n    tag_948:\n        /* \"#utility.yul\":15885:16004   */\n    tag_947:\n        /* \"#utility.yul\":16071:16072   */\n      0x00\n        /* \"#utility.yul\":16060:16069   */\n      dup5\n        /* \"#utility.yul\":16056:16073   */\n      add\n        /* \"#utility.yul\":16043:16074   */\n      calldataload\n        /* \"#utility.yul\":16101:16119   */\n      0xffffffffffffffff\n        /* \"#utility.yul\":16093:16099   */\n      dup2\n        /* \"#utility.yul\":16090:16120   */\n      gt\n        /* \"#utility.yul\":16087:16204   */\n      iszero\n      tag_949\n      jumpi\n        /* \"#utility.yul\":16123:16202   */\n      tag_950\n      tag_622\n      jump\t// in\n    tag_950:\n        /* \"#utility.yul\":16087:16204   */\n    tag_949:\n        /* \"#utility.yul\":16228:16291   */\n      tag_951\n        /* \"#utility.yul\":16283:16290   */\n      dup7\n        /* \"#utility.yul\":16274:16280   */\n      dup3\n        /* \"#utility.yul\":16263:16272   */\n      dup8\n        /* \"#utility.yul\":16259:16281   */\n      add\n        /* \"#utility.yul\":16228:16291   */\n      tag_632\n      jump\t// in\n    tag_951:\n        /* \"#utility.yul\":16218:16291   */\n      swap4\n      pop\n        /* \"#utility.yul\":16014:16301   */\n      pop\n        /* \"#utility.yul\":16368:16370   */\n      0x20\n        /* \"#utility.yul\":16357:16366   */\n      dup5\n        /* \"#utility.yul\":16353:16371   */\n      add\n        /* \"#utility.yul\":16340:16372   */\n      calldataload\n        /* \"#utility.yul\":16399:16417   */\n      0xffffffffffffffff\n        /* \"#utility.yul\":16391:16397   */\n      dup2\n        /* \"#utility.yul\":16388:16418   */\n      gt\n        /* \"#utility.yul\":16385:16502   */\n      iszero\n      tag_952\n      jumpi\n        /* \"#utility.yul\":16421:16500   */\n      tag_953\n      tag_622\n      jump\t// in\n    tag_953:\n        /* \"#utility.yul\":16385:16502   */\n    tag_952:\n        /* \"#utility.yul\":16526:16589   */\n      tag_954\n        /* \"#utility.yul\":16581:16588   */\n      dup7\n        /* \"#utility.yul\":16572:16578   */\n      dup3\n        /* \"#utility.yul\":16561:16570   */\n      dup8\n        /* \"#utility.yul\":16557:16579   */\n      add\n        /* \"#utility.yul\":16526:16589   */\n      tag_632\n      jump\t// in\n    tag_954:\n        /* \"#utility.yul\":16516:16589   */\n      swap3\n      pop\n        /* \"#utility.yul\":16311:16599   */\n      pop\n        /* \"#utility.yul\":16638:16640   */\n      0x40\n        /* \"#utility.yul\":16664:16717   */\n      tag_955\n        /* \"#utility.yul\":16709:16716   */\n      dup7\n        /* \"#utility.yul\":16700:16706   */\n      dup3\n        /* \"#utility.yul\":16689:16698   */\n      dup8\n        /* \"#utility.yul\":16685:16707   */\n      add\n        /* \"#utility.yul\":16664:16717   */\n      tag_658\n      jump\t// in\n    tag_955:\n        /* \"#utility.yul\":16654:16717   */\n      swap2\n      pop\n        /* \"#utility.yul\":16609:16727   */\n      pop\n        /* \"#utility.yul\":15755:16734   */\n      swap3\n      pop\n      swap3\n      pop\n      swap3\n      jump\t// out\n        /* \"#utility.yul\":16740:16866   */\n    tag_661:\n        /* \"#utility.yul\":16834:16835   */\n      0x04\n        /* \"#utility.yul\":16827:16832   */\n      dup2\n        /* \"#utility.yul\":16824:16836   */\n      lt\n        /* \"#utility.yul\":16814:16860   */\n      tag_957\n      jumpi\n        /* \"#utility.yul\":16840:16858   */\n      tag_958\n      tag_160\n      jump\t// in\n    tag_958:\n        /* \"#utility.yul\":16814:16860   */\n    tag_957:\n        /* \"#utility.yul\":16740:16866   */\n      pop\n      jump\t// out\n        /* \"#utility.yul\":16872:17025   */\n    tag_662:\n        /* \"#utility.yul\":16930:16937   */\n      0x00\n        /* \"#utility.yul\":16959:16964   */\n      dup2\n        /* \"#utility.yul\":16948:16964   */\n      swap1\n      pop\n        /* \"#utility.yul\":16965:17019   */\n      tag_960\n        /* \"#utility.yul\":17013:17018   */\n      dup3\n        /* \"#utility.yul\":16965:17019   */\n      tag_661\n      jump\t// in\n    tag_960:\n        /* \"#utility.yul\":16872:17025   */\n      swap2\n      swap1\n      pop\n      jump\t// out\n        /* \"#utility.yul\":17031:17184   */\n    tag_663:\n        /* \"#utility.yul\":17100:17109   */\n      0x00\n        /* \"#utility.yul\":17133:17178   */\n      tag_962\n        /* \"#utility.yul\":17172:17177   */\n      dup3\n        /* \"#utility.yul\":17133:17178   */\n      tag_662\n      jump\t// in\n    tag_962:\n        /* \"#utility.yul\":17120:17178   */\n      swap1\n      pop\n        /* \"#utility.yul\":17031:17184   */\n      swap2\n      swap1\n      pop\n      jump\t// out\n        /* \"#utility.yul\":17190:17359   */\n    tag_664:\n        /* \"#utility.yul\":17296:17352   */\n      tag_964\n        /* \"#utility.yul\":17346:17351   */\n      dup2\n        /* \"#utility.yul\":17296:17352   */\n      tag_663\n      jump\t// in\n    tag_964:\n        /* \"#utility.yul\":17291:17294   */\n      dup3\n        /* \"#utility.yul\":17284:17353   */\n      mstore\n        /* \"#utility.yul\":17190:17359   */\n      pop\n      pop\n      jump\t// out\n        /* \"#utility.yul\":17365:17474   */\n    tag_665:\n        /* \"#utility.yul\":17446:17467   */\n      tag_966\n        /* \"#utility.yul\":17461:17466   */\n      dup2\n        /* \"#utility.yul\":17446:17467   */\n      tag_643\n      jump\t// in\n    tag_966:\n        /* \"#utility.yul\":17441:17444   */\n      dup3\n        /* \"#utility.yul\":17434:17468   */\n      mstore\n        /* \"#utility.yul\":17365:17474   */\n      pop\n      pop\n      jump\t// out\n        /* \"#utility.yul\":17480:18150   */\n    tag_124:\n        /* \"#utility.yul\":17690:17694   */\n      0x00\n        /* \"#utility.yul\":17728:17731   */\n      0x80\n        /* \"#utility.yul\":17717:17726   */\n      dup3\n        /* \"#utility.yul\":17713:17732   */\n      add\n        /* \"#utility.yul\":17705:17732   */\n      swap1\n      pop\n        /* \"#utility.yul\":17742:17832   */\n      tag_968\n        /* \"#utility.yul\":17829:17830   */\n      0x00\n        /* \"#utility.yul\":17818:17827   */\n      dup4\n        /* \"#utility.yul\":17814:17831   */\n      add\n        /* \"#utility.yul\":17805:17811   */\n      dup8\n        /* \"#utility.yul\":17742:17832   */\n      tag_664\n      jump\t// in\n    tag_968:\n        /* \"#utility.yul\":17842:17908   */\n      tag_969\n        /* \"#utility.yul\":17904:17906   */\n      0x20\n        /* \"#utility.yul\":17893:17902   */\n      dup4\n        /* \"#utility.yul\":17889:17907   */\n      add\n        /* \"#utility.yul\":17880:17886   */\n      dup7\n        /* \"#utility.yul\":17842:17908   */\n      tag_665\n      jump\t// in\n    tag_969:\n        /* \"#utility.yul\":17955:17964   */\n      dup2\n        /* \"#utility.yul\":17949:17953   */\n      dup2\n        /* \"#utility.yul\":17945:17965   */\n      sub\n        /* \"#utility.yul\":17940:17942   */\n      0x40\n        /* \"#utility.yul\":17929:17938   */\n      dup4\n        /* \"#utility.yul\":17925:17943   */\n      add\n        /* \"#utility.yul\":17918:17966   */\n      mstore\n        /* \"#utility.yul\":17983:18061   */\n      tag_970\n        /* \"#utility.yul\":18056:18060   */\n      dup2\n        /* \"#utility.yul\":18047:18053   */\n      dup6\n        /* \"#utility.yul\":17983:18061   */\n      tag_653\n      jump\t// in\n    tag_970:\n        /* \"#utility.yul\":17975:18061   */\n      swap1\n      pop\n        /* \"#utility.yul\":18071:18143   */\n      tag_971\n        /* \"#utility.yul\":18139:18141   */\n      0x60\n        /* \"#utility.yul\":18128:18137   */\n      dup4\n        /* \"#utility.yul\":18124:18142   */\n      add\n        /* \"#utility.yul\":18115:18121   */\n      dup5\n        /* \"#utility.yul\":18071:18143   */\n      tag_638\n      jump\t// in\n    tag_971:\n        /* \"#utility.yul\":17480:18150   */\n      swap6\n      swap5\n      pop\n      pop\n      pop\n      pop\n      pop\n      jump\t// out\n        /* \"#utility.yul\":18156:18366   */\n    tag_150:\n        /* \"#utility.yul\":18243:18247   */\n      0x00\n        /* \"#utility.yul\":18281:18283   */\n      0x20\n        /* \"#utility.yul\":18270:18279   */\n      dup3\n        /* \"#utility.yul\":18266:18284   */\n      add\n        /* \"#utility.yul\":18258:18284   */\n      swap1\n      pop\n        /* \"#utility.yul\":18294:18359   */\n      tag_973\n        /* \"#utility.yul\":18356:18357   */\n      0x00\n        /* \"#utility.yul\":18345:18354   */\n      dup4\n        /* \"#utility.yul\":18341:18358   */\n      add\n        /* \"#utility.yul\":18332:18338   */\n      dup5\n        /* \"#utility.yul\":18294:18359   */\n      tag_665\n      jump\t// in\n    tag_973:\n        /* \"#utility.yul\":18156:18366   */\n      swap3\n      swap2\n      pop\n      pop\n      jump\t// out\n        /* \"#utility.yul\":18372:18520   */\n    tag_666:\n        /* \"#utility.yul\":18474:18485   */\n      0x00\n        /* \"#utility.yul\":18511:18514   */\n      dup2\n        /* \"#utility.yul\":18496:18514   */\n      swap1\n      pop\n        /* \"#utility.yul\":18372:18520   */\n      swap3\n      swap2\n      pop\n      pop\n      jump\t// out\n        /* \"#utility.yul\":18526:18916   */\n    tag_667:\n        /* \"#utility.yul\":18632:18635   */\n      0x00\n        /* \"#utility.yul\":18660:18699   */\n      tag_976\n        /* \"#utility.yul\":18693:18698   */\n      dup3\n        /* \"#utility.yul\":18660:18699   */\n      tag_650\n      jump\t// in\n    tag_976:\n        /* \"#utility.yul\":18715:18804   */\n      tag_977\n        /* \"#utility.yul\":18797:18803   */\n      dup2\n        /* \"#utility.yul\":18792:18795   */\n      dup6\n        /* \"#utility.yul\":18715:18804   */\n      tag_666\n      jump\t// in\n    tag_977:\n        /* \"#utility.yul\":18708:18804   */\n      swap4\n      pop\n        /* \"#utility.yul\":18813:18878   */\n      tag_978\n        /* \"#utility.yul\":18871:18877   */\n      dup2\n        /* \"#utility.yul\":18866:18869   */\n      dup6\n        /* \"#utility.yul\":18859:18863   */\n      0x20\n        /* \"#utility.yul\":18852:18857   */\n      dup7\n        /* \"#utility.yul\":18848:18864   */\n      add\n        /* \"#utility.yul\":18813:18878   */\n      tag_652\n      jump\t// in\n    tag_978:\n        /* \"#utility.yul\":18903:18909   */\n      dup1\n        /* \"#utility.yul\":18898:18901   */\n      dup5\n        /* \"#utility.yul\":18894:18910   */\n      add\n        /* \"#utility.yul\":18887:18910   */\n      swap2\n      pop\n        /* \"#utility.yul\":18636:18916   */\n      pop\n        /* \"#utility.yul\":18526:18916   */\n      swap3\n      swap2\n      pop\n      pop\n      jump\t// out\n        /* \"#utility.yul\":18922:19197   */\n    tag_162:\n        /* \"#utility.yul\":19054:19057   */\n      0x00\n        /* \"#utility.yul\":19076:19171   */\n      tag_980\n        /* \"#utility.yul\":19167:19170   */\n      dup3\n        /* \"#utility.yul\":19158:19164   */\n      dup5\n        /* \"#utility.yul\":19076:19171   */\n      tag_667\n      jump\t// in\n    tag_980:\n        /* \"#utility.yul\":19069:19171   */\n      swap2\n      pop\n        /* \"#utility.yul\":19188:19191   */\n      dup2\n        /* \"#utility.yul\":19181:19191   */\n      swap1\n      pop\n        /* \"#utility.yul\":18922:19197   */\n      swap3\n      swap2\n      pop\n      pop\n      jump\t// out\n        /* \"#utility.yul\":19203:19375   */\n    tag_668:\n        /* \"#utility.yul\":19343:19367   */\n      0x5661756c7420696e636f72726563742073746174757300000000000000000000\n        /* \"#utility.yul\":19339:19340   */\n      0x00\n        /* \"#utility.yul\":19331:19337   */\n      dup3\n        /* \"#utility.yul\":19327:19341   */\n      add\n        /* \"#utility.yul\":19320:19368   */\n      mstore\n        /* \"#utility.yul\":19203:19375   */\n      pop\n      jump\t// out\n        /* \"#utility.yul\":19381:19747   */\n    tag_669:\n        /* \"#utility.yul\":19523:19526   */\n      0x00\n        /* \"#utility.yul\":19544:19611   */\n      tag_983\n        /* \"#utility.yul\":19608:19610   */\n      0x16\n        /* \"#utility.yul\":19603:19606   */\n      dup4\n        /* \"#utility.yul\":19544:19611   */\n      tag_651\n      jump\t// in\n    tag_983:\n        /* \"#utility.yul\":19537:19611   */\n      swap2\n      pop\n        /* \"#utility.yul\":19620:19713   */\n      tag_984\n        /* \"#utility.yul\":19709:19712   */\n      dup3\n        /* \"#utility.yul\":19620:19713   */\n      tag_668\n      jump\t// in\n    tag_984:\n        /* \"#utility.yul\":19738:19740   */\n      0x20\n        /* \"#utility.yul\":19733:19736   */\n      dup3\n        /* \"#utility.yul\":19729:19741   */\n      add\n        /* \"#utility.yul\":19722:19741   */\n      swap1\n      pop\n        /* \"#utility.yul\":19381:19747   */\n      swap2\n      swap1\n      pop\n      jump\t// out\n        /* \"#utility.yul\":19753:20172   */\n    tag_173:\n        /* \"#utility.yul\":19919:19923   */\n      0x00\n        /* \"#utility.yul\":19957:19959   */\n      0x20\n        /* \"#utility.yul\":19946:19955   */\n      dup3\n        /* \"#utility.yul\":19942:19960   */\n      add\n        /* \"#utility.yul\":19934:19960   */\n      swap1\n      pop\n        /* \"#utility.yul\":20006:20015   */\n      dup2\n        /* \"#utility.yul\":20000:20004   */\n      dup2\n        /* \"#utility.yul\":19996:20016   */\n      sub\n        /* \"#utility.yul\":19992:19993   */\n      0x00\n        /* \"#utility.yul\":19981:19990   */\n      dup4\n        /* \"#utility.yul\":19977:19994   */\n      add\n        /* \"#utility.yul\":19970:20017   */\n      mstore\n        /* \"#utility.yul\":20034:20165   */\n      tag_986\n        /* \"#utility.yul\":20160:20164   */\n      dup2\n        /* \"#utility.yul\":20034:20165   */\n      tag_669\n      jump\t// in\n    tag_986:\n        /* \"#utility.yul\":20026:20165   */\n      swap1\n      pop\n        /* \"#utility.yul\":19753:20172   */\n      swap2\n      swap1\n      pop\n      jump\t// out\n        /* \"#utility.yul\":20178:20355   */\n    tag_670:\n        /* \"#utility.yul\":20318:20347   */\n      0x4163636f756e7420616c726561647920726567697374657265642e0000000000\n        /* \"#utility.yul\":20314:20315   */\n      0x00\n        /* \"#utility.yul\":20306:20312   */\n      dup3\n        /* \"#utility.yul\":20302:20316   */\n      add\n        /* \"#utility.yul\":20295:20348   */\n      mstore\n        /* \"#utility.yul\":20178:20355   */\n      pop\n      jump\t// out\n        /* \"#utility.yul\":20361:20727   */\n    tag_671:\n        /* \"#utility.yul\":20503:20506   */\n      0x00\n        /* \"#utility.yul\":20524:20591   */\n      tag_989\n        /* \"#utility.yul\":20588:20590   */\n      0x1b\n        /* \"#utility.yul\":20583:20586   */\n      dup4\n        /* \"#utility.yul\":20524:20591   */\n      tag_651\n      jump\t// in\n    tag_989:\n        /* \"#utility.yul\":20517:20591   */\n      swap2\n      pop\n        /* \"#utility.yul\":20600:20693   */\n      tag_990\n        /* \"#utility.yul\":20689:20692   */\n      dup3\n        /* \"#utility.yul\":20600:20693   */\n      tag_670\n      jump\t// in\n    tag_990:\n        /* \"#utility.yul\":20718:20720   */\n      0x20\n        /* \"#utility.yul\":20713:20716   */\n      dup3\n        /* \"#utility.yul\":20709:20721   */\n      add\n        /* \"#utility.yul\":20702:20721   */\n      swap1\n      pop\n        /* \"#utility.yul\":20361:20727   */\n      swap2\n      swap1\n      pop\n      jump\t// out\n        /* \"#utility.yul\":20733:21152   */\n    tag_181:\n        /* \"#utility.yul\":20899:20903   */\n      0x00\n        /* \"#utility.yul\":20937:20939   */\n      0x20\n        /* \"#utility.yul\":20926:20935   */\n      dup3\n        /* \"#utility.yul\":20922:20940   */\n      add\n        /* \"#utility.yul\":20914:20940   */\n      swap1\n      pop\n        /* \"#utility.yul\":20986:20995   */\n      dup2\n        /* \"#utility.yul\":20980:20984   */\n      dup2\n        /* \"#utility.yul\":20976:20996   */\n      sub\n        /* \"#utility.yul\":20972:20973   */\n      0x00\n        /* \"#utility.yul\":20961:20970   */\n      dup4\n        /* \"#utility.yul\":20957:20974   */\n      add\n        /* \"#utility.yul\":20950:20997   */\n      mstore\n        /* \"#utility.yul\":21014:21145   */\n      tag_992\n        /* \"#utility.yul\":21140:21144   */\n      dup2\n        /* \"#utility.yul\":21014:21145   */\n      tag_671\n      jump\t// in\n    tag_992:\n        /* \"#utility.yul\":21006:21145   */\n      swap1\n      pop\n        /* \"#utility.yul\":20733:21152   */\n      swap2\n      swap1\n      pop\n      jump\t// out\n        /* \"#utility.yul\":21158:21338   */\n    tag_672:\n        /* \"#utility.yul\":21206:21283   */\n      0x4e487b7100000000000000000000000000000000000000000000000000000000\n        /* \"#utility.yul\":21203:21204   */\n      0x00\n        /* \"#utility.yul\":21196:21284   */\n      mstore\n        /* \"#utility.yul\":21303:21307   */\n      0x11\n        /* \"#utility.yul\":21300:21301   */\n      0x04\n        /* \"#utility.yul\":21293:21308   */\n      mstore\n        /* \"#utility.yul\":21327:21331   */\n      0x24\n        /* \"#utility.yul\":21324:21325   */\n      0x00\n        /* \"#utility.yul\":21317:21332   */\n      revert\n        /* \"#utility.yul\":21344:21515   */\n    tag_186:\n        /* \"#utility.yul\":21382:21385   */\n      0x00\n        /* \"#utility.yul\":21405:21428   */\n      tag_995\n        /* \"#utility.yul\":21422:21427   */\n      dup3\n        /* \"#utility.yul\":21405:21428   */\n      tag_655\n      jump\t// in\n    tag_995:\n        /* \"#utility.yul\":21396:21428   */\n      swap2\n      pop\n        /* \"#utility.yul\":21450:21456   */\n      0xffff\n        /* \"#utility.yul\":21443:21448   */\n      dup3\n        /* \"#utility.yul\":21440:21457   */\n      sub\n        /* \"#utility.yul\":21437:21480   */\n      tag_996\n      jumpi\n        /* \"#utility.yul\":21460:21478   */\n      tag_997\n      tag_672\n      jump\t// in\n    tag_997:\n        /* \"#utility.yul\":21437:21480   */\n    tag_996:\n        /* \"#utility.yul\":21507:21508   */\n      0x01\n        /* \"#utility.yul\":21500:21505   */\n      dup3\n        /* \"#utility.yul\":21496:21509   */\n      add\n        /* \"#utility.yul\":21489:21509   */\n      swap1\n      pop\n        /* \"#utility.yul\":21344:21515   */\n      swap2\n      swap1\n      pop\n      jump\t// out\n        /* \"#utility.yul\":21521:21701   */\n    tag_673:\n        /* \"#utility.yul\":21569:21646   */\n      0x4e487b7100000000000000000000000000000000000000000000000000000000\n        /* \"#utility.yul\":21566:21567   */\n      0x00\n        /* \"#utility.yul\":21559:21647   */\n      mstore\n        /* \"#utility.yul\":21666:21670   */\n      0x22\n        /* \"#utility.yul\":21663:21664   */\n      0x04\n        /* \"#utility.yul\":21656:21671   */\n      mstore\n        /* \"#utility.yul\":21690:21694   */\n      0x24\n        /* \"#utility.yul\":21687:21688   */\n      0x00\n        /* \"#utility.yul\":21680:21695   */\n      revert\n        /* \"#utility.yul\":21707:22027   */\n    tag_219:\n        /* \"#utility.yul\":21751:21757   */\n      0x00\n        /* \"#utility.yul\":21788:21789   */\n      0x02\n        /* \"#utility.yul\":21782:21786   */\n      dup3\n        /* \"#utility.yul\":21778:21790   */\n      div\n        /* \"#utility.yul\":21768:21790   */\n      swap1\n      pop\n        /* \"#utility.yul\":21835:21836   */\n      0x01\n        /* \"#utility.yul\":21829:21833   */\n      dup3\n        /* \"#utility.yul\":21825:21837   */\n      and\n        /* \"#utility.yul\":21856:21874   */\n      dup1\n        /* \"#utility.yul\":21846:21927   */\n      tag_1000\n      jumpi\n        /* \"#utility.yul\":21912:21916   */\n      0x7f\n        /* \"#utility.yul\":21904:21910   */\n      dup3\n        /* \"#utility.yul\":21900:21917   */\n      and\n        /* \"#utility.yul\":21890:21917   */\n      swap2\n      pop\n        /* \"#utility.yul\":21846:21927   */\n    tag_1000:\n        /* \"#utility.yul\":21974:21976   */\n      0x20\n        /* \"#utility.yul\":21966:21972   */\n      dup3\n        /* \"#utility.yul\":21963:21977   */\n      lt\n        /* \"#utility.yul\":21943:21961   */\n      dup2\n        /* \"#utility.yul\":21940:21978   */\n      sub\n        /* \"#utility.yul\":21937:22021   */\n      tag_1001\n      jumpi\n        /* \"#utility.yul\":21993:22011   */\n      tag_1002\n      tag_673\n      jump\t// in\n    tag_1002:\n        /* \"#utility.yul\":21937:22021   */\n    tag_1001:\n        /* \"#utility.yul\":21758:22027   */\n      pop\n        /* \"#utility.yul\":21707:22027   */\n      swap2\n      swap1\n      pop\n      jump\t// out\n        /* \"#utility.yul\":22033:22174   */\n    tag_674:\n        /* \"#utility.yul\":22082:22086   */\n      0x00\n        /* \"#utility.yul\":22105:22108   */\n      dup2\n        /* \"#utility.yul\":22097:22108   */\n      swap1\n      pop\n        /* \"#utility.yul\":22128:22131   */\n      dup2\n        /* \"#utility.yul\":22125:22126   */\n      0x00\n        /* \"#utility.yul\":22118:22132   */\n      mstore\n        /* \"#utility.yul\":22162:22166   */\n      0x20\n        /* \"#utility.yul\":22159:22160   */\n      0x00\n        /* \"#utility.yul\":22149:22167   */\n      keccak256\n        /* \"#utility.yul\":22141:22167   */\n      swap1\n      pop\n        /* \"#utility.yul\":22033:22174   */\n      swap2\n      swap1\n      pop\n      jump\t// out\n        /* \"#utility.yul\":22180:22273   */\n    tag_675:\n        /* \"#utility.yul\":22217:22223   */\n      0x00\n        /* \"#utility.yul\":22264:22266   */\n      0x20\n        /* \"#utility.yul\":22259:22261   */\n      0x1f\n        /* \"#utility.yul\":22252:22257   */\n      dup4\n        /* \"#utility.yul\":22248:22262   */\n      add\n        /* \"#utility.yul\":22244:22267   */\n      div\n        /* \"#utility.yul\":22234:22267   */\n      swap1\n      pop\n        /* \"#utility.yul\":22180:22273   */\n      swap2\n      swap1\n      pop\n      jump\t// out\n        /* \"#utility.yul\":22279:22386   */\n    tag_676:\n        /* \"#utility.yul\":22323:22331   */\n      0x00\n        /* \"#utility.yul\":22373:22378   */\n      dup3\n        /* \"#utility.yul\":22367:22371   */\n      dup3\n        /* \"#utility.yul\":22363:22379   */\n      shl\n        /* \"#utility.yul\":22342:22379   */\n      swap1\n      pop\n        /* \"#utility.yul\":22279:22386   */\n      swap3\n      swap2\n      pop\n      pop\n      jump\t// out\n        /* \"#utility.yul\":22392:22785   */\n    tag_677:\n        /* \"#utility.yul\":22461:22467   */\n      0x00\n        /* \"#utility.yul\":22511:22512   */\n      0x08\n        /* \"#utility.yul\":22499:22509   */\n      dup4\n        /* \"#utility.yul\":22495:22513   */\n      mul\n        /* \"#utility.yul\":22534:22631   */\n      tag_1007\n        /* \"#utility.yul\":22564:22630   */\n      0xffffffffffffffffffffffffffffffffffffffffffffffffffffffffffffffff\n        /* \"#utility.yul\":22553:22562   */\n      dup3\n        /* \"#utility.yul\":22534:22631   */\n      tag_676\n      jump\t// in\n    tag_1007:\n        /* \"#utility.yul\":22652:22691   */\n      tag_1008\n        /* \"#utility.yul\":22682:22690   */\n      dup7\n        /* \"#utility.yul\":22671:22680   */\n      dup4\n        /* \"#utility.yul\":22652:22691   */\n      tag_676\n      jump\t// in\n    tag_1008:\n        /* \"#utility.yul\":22640:22691   */\n      swap6\n      pop\n        /* \"#utility.yul\":22724:22728   */\n      dup1\n        /* \"#utility.yul\":22720:22729   */\n      not\n        /* \"#utility.yul\":22713:22718   */\n      dup5\n        /* \"#utility.yul\":22709:22730   */\n      and\n        /* \"#utility.yul\":22700:22730   */\n      swap4\n      pop\n        /* \"#utility.yul\":22773:22777   */\n      dup1\n        /* \"#utility.yul\":22763:22771   */\n      dup7\n        /* \"#utility.yul\":22759:22778   */\n      and\n        /* \"#utility.yul\":22752:22757   */\n      dup5\n        /* \"#utility.yul\":22749:22779   */\n      or\n        /* \"#utility.yul\":22739:22779   */\n      swap3\n      pop\n        /* \"#utility.yul\":22468:22785   */\n      pop\n      pop\n        /* \"#utility.yul\":22392:22785   */\n      swap4\n      swap3\n      pop\n      pop\n      pop\n      jump\t// out\n        /* \"#utility.yul\":22791:22851   */\n    tag_678:\n        /* \"#utility.yul\":22819:22822   */\n      0x00\n        /* \"#utility.yul\":22840:22845   */\n      dup2\n        /* \"#utility.yul\":22833:22845   */\n      swap1\n      pop\n        /* \"#utility.yul\":22791:22851   */\n      swap2\n      swap1\n      pop\n      jump\t// out\n        /* \"#utility.yul\":22857:22999   */\n    tag_679:\n        /* \"#utility.yul\":22907:22916   */\n      0x00\n        /* \"#utility.yul\":22940:22993   */\n      tag_1011\n        /* \"#utility.yul\":22958:22992   */\n      tag_1012\n        /* \"#utility.yul\":22967:22991   */\n      tag_1013\n        /* \"#utility.yul\":22985:22990   */\n      dup5\n        /* \"#utility.yul\":22967:22991   */\n      tag_637\n      jump\t// in\n    tag_1013:\n        /* \"#utility.yul\":22958:22992   */\n      tag_678\n      jump\t// in\n    tag_1012:\n        /* \"#utility.yul\":22940:22993   */\n      tag_637\n      jump\t// in\n    tag_1011:\n        /* \"#utility.yul\":22927:22993   */\n      swap1\n      pop\n        /* \"#utility.yul\":22857:22999   */\n      swap2\n      swap1\n      pop\n      jump\t// out\n        /* \"#utility.yul\":23005:23080   */\n    tag_680:\n        /* \"#utility.yul\":23048:23051   */\n      0x00\n        /* \"#utility.yul\":23069:23074   */\n      dup2\n        /* \"#utility.yul\":23062:23074   */\n      swap1\n      pop\n        /* \"#utility.yul\":23005:23080   */\n      swap2\n      swap1\n      pop\n      jump\t// out\n        /* \"#utility.yul\":23086:23355   */\n    tag_681:\n        /* \"#utility.yul\":23196:23235   */\n      tag_1016\n        /* \"#utility.yul\":23227:23234   */\n      dup4\n        /* \"#utility.yul\":23196:23235   */\n      tag_679\n      jump\t// in\n    tag_1016:\n        /* \"#utility.yul\":23257:23348   */\n      tag_1017\n        /* \"#utility.yul\":23306:23347   */\n      tag_1018\n        /* \"#utility.yul\":23330:23346   */\n      dup3\n        /* \"#utility.yul\":23306:23347   */\n      tag_680\n      jump\t// in\n    tag_1018:\n        /* \"#utility.yul\":23298:23304   */\n      dup5\n        /* \"#utility.yul\":23291:23295   */\n      dup5\n        /* \"#utility.yul\":23285:23296   */\n      sload\n        /* \"#utility.yul\":23257:23348   */\n      tag_677\n      jump\t// in\n    tag_1017:\n        /* \"#utility.yul\":23251:23255   */\n      dup3\n        /* \"#utility.yul\":23244:23349   */\n      sstore\n        /* \"#utility.yul\":23162:23355   */\n      pop\n        /* \"#utility.yul\":23086:23355   */\n      pop\n      pop\n      pop\n      jump\t// out\n        /* \"#utility.yul\":23361:23434   */\n    tag_682:\n        /* \"#utility.yul\":23406:23409   */\n      0x00\n        /* \"#utility.yul\":23361:23434   */\n      swap1\n      jump\t// out\n        /* \"#utility.yul\":23440:23629   */\n    tag_683:\n        /* \"#utility.yul\":23517:23549   */\n      tag_1021\n      tag_682\n      jump\t// in\n    tag_1021:\n        /* \"#utility.yul\":23558:23623   */\n      tag_1022\n        /* \"#utility.yul\":23616:23622   */\n      dup2\n        /* \"#utility.yul\":23608:23614   */\n      dup5\n        /* \"#utility.yul\":23602:23606   */\n      dup5\n        /* \"#utility.yul\":23558:23623   */\n      tag_681\n      jump\t// in\n    tag_1022:\n        /* \"#utility.yul\":23493:23629   */\n      pop\n        /* \"#utility.yul\":23440:23629   */\n      pop\n      pop\n      jump\t// out\n        /* \"#utility.yul\":23635:23821   */\n    tag_684:\n        /* \"#utility.yul\":23695:23815   */\n    tag_1024:\n        /* \"#utility.yul\":23712:23715   */\n      dup2\n        /* \"#utility.yul\":23705:23710   */\n      dup2\n        /* \"#utility.yul\":23702:23716   */\n      lt\n        /* \"#utility.yul\":23695:23815   */\n      iszero\n      tag_1026\n      jumpi\n        /* \"#utility.yul\":23766:23805   */\n      tag_1027\n        /* \"#utility.yul\":23803:23804   */\n      0x00\n        /* \"#utility.yul\":23796:23801   */\n      dup3\n        /* \"#utility.yul\":23766:23805   */\n      tag_683\n      jump\t// in\n    tag_1027:\n        /* \"#utility.yul\":23739:23740   */\n      0x01\n        /* \"#utility.yul\":23732:23737   */\n      dup2\n        /* \"#utility.yul\":23728:23741   */\n      add\n        /* \"#utility.yul\":23719:23741   */\n      swap1\n      pop\n        /* \"#utility.yul\":23695:23815   */\n      jump(tag_1024)\n    tag_1026:\n        /* \"#utility.yul\":23635:23821   */\n      pop\n      pop\n      jump\t// out\n        /* \"#utility.yul\":23827:24370   */\n    tag_685:\n        /* \"#utility.yul\":23928:23930   */\n      0x1f\n        /* \"#utility.yul\":23923:23926   */\n      dup3\n        /* \"#utility.yul\":23920:23931   */\n      gt\n        /* \"#utility.yul\":23917:24363   */\n      iszero\n      tag_1029\n      jumpi\n        /* \"#utility.yul\":23962:24000   */\n      tag_1030\n        /* \"#utility.yul\":23994:23999   */\n      dup2\n        /* \"#utility.yul\":23962:24000   */\n      tag_674\n      jump\t// in\n    tag_1030:\n        /* \"#utility.yul\":24046:24075   */\n      tag_1031\n        /* \"#utility.yul\":24064:24074   */\n      dup5\n        /* \"#utility.yul\":24046:24075   */\n      tag_675\n      jump\t// in\n    tag_1031:\n        /* \"#utility.yul\":24036:24044   */\n      dup2\n        /* \"#utility.yul\":24032:24076   */\n      add\n        /* \"#utility.yul\":24229:24231   */\n      0x20\n        /* \"#utility.yul\":24217:24227   */\n      dup6\n        /* \"#utility.yul\":24214:24232   */\n      lt\n        /* \"#utility.yul\":24211:24260   */\n      iszero\n      tag_1032\n      jumpi\n        /* \"#utility.yul\":24250:24258   */\n      dup2\n        /* \"#utility.yul\":24235:24258   */\n      swap1\n      pop\n        /* \"#utility.yul\":24211:24260   */\n    tag_1032:\n        /* \"#utility.yul\":24273:24353   */\n      tag_1033\n        /* \"#utility.yul\":24329:24351   */\n      tag_1034\n        /* \"#utility.yul\":24347:24350   */\n      dup6\n        /* \"#utility.yul\":24329:24351   */\n      tag_675\n      jump\t// in\n    tag_1034:\n        /* \"#utility.yul\":24319:24327   */\n      dup4\n        /* \"#utility.yul\":24315:24352   */\n      add\n        /* \"#utility.yul\":24302:24313   */\n      dup3\n        /* \"#utility.yul\":24273:24353   */\n      tag_684\n      jump\t// in\n    tag_1033:\n        /* \"#utility.yul\":23932:24363   */\n      pop\n      pop\n        /* \"#utility.yul\":23917:24363   */\n    tag_1029:\n        /* \"#utility.yul\":23827:24370   */\n      pop\n      pop\n      pop\n      jump\t// out\n        /* \"#utility.yul\":24376:24493   */\n    tag_686:\n        /* \"#utility.yul\":24430:24438   */\n      0x00\n        /* \"#utility.yul\":24480:24485   */\n      dup3\n        /* \"#utility.yul\":24474:24478   */\n      dup3\n        /* \"#utility.yul\":24470:24486   */\n      shr\n        /* \"#utility.yul\":24449:24486   */\n      swap1\n      pop\n        /* \"#utility.yul\":24376:24493   */\n      swap3\n      swap2\n      pop\n      pop\n      jump\t// out\n        /* \"#utility.yul\":24499:24668   */\n    tag_687:\n        /* \"#utility.yul\":24543:24549   */\n      0x00\n        /* \"#utility.yul\":24576:24627   */\n      tag_1037\n        /* \"#utility.yul\":24624:24625   */\n      0x00\n        /* \"#utility.yul\":24620:24626   */\n      not\n        /* \"#utility.yul\":24612:24617   */\n      dup5\n        /* \"#utility.yul\":24609:24610   */\n      0x08\n        /* \"#utility.yul\":24605:24618   */\n      mul\n        /* \"#utility.yul\":24576:24627   */\n      tag_686\n      jump\t// in\n    tag_1037:\n        /* \"#utility.yul\":24572:24628   */\n      not\n        /* \"#utility.yul\":24657:24661   */\n      dup1\n        /* \"#utility.yul\":24651:24655   */\n      dup4\n        /* \"#utility.yul\":24647:24662   */\n      and\n        /* \"#utility.yul\":24637:24662   */\n      swap2\n      pop\n        /* \"#utility.yul\":24550:24668   */\n      pop\n        /* \"#utility.yul\":24499:24668   */\n      swap3\n      swap2\n      pop\n      pop\n      jump\t// out\n        /* \"#utility.yul\":24673:24968   */\n    tag_688:\n        /* \"#utility.yul\":24749:24753   */\n      0x00\n        /* \"#utility.yul\":24895:24924   */\n      tag_1039\n        /* \"#utility.yul\":24920:24923   */\n      dup4\n        /* \"#utility.yul\":24914:24918   */\n      dup4\n        /* \"#utility.yul\":24895:24924   */\n      tag_687\n      jump\t// in\n    tag_1039:\n        /* \"#utility.yul\":24887:24924   */\n      swap2\n      pop\n        /* \"#utility.yul\":24957:24960   */\n      dup3\n        /* \"#utility.yul\":24954:24955   */\n      0x02\n        /* \"#utility.yul\":24950:24961   */\n      mul\n        /* \"#utility.yul\":24944:24948   */\n      dup3\n        /* \"#utility.yul\":24941:24962   */\n      or\n        /* \"#utility.yul\":24933:24962   */\n      swap1\n      pop\n        /* \"#utility.yul\":24673:24968   */\n      swap3\n      swap2\n      pop\n      pop\n      jump\t// out\n        /* \"#utility.yul\":24973:26368   */\n    tag_191:\n        /* \"#utility.yul\":25090:25127   */\n      tag_1041\n        /* \"#utility.yul\":25123:25126   */\n      dup3\n        /* \"#utility.yul\":25090:25127   */\n      tag_650\n      jump\t// in\n    tag_1041:\n        /* \"#utility.yul\":25192:25210   */\n      0xffffffffffffffff\n        /* \"#utility.yul\":25184:25190   */\n      dup2\n        /* \"#utility.yul\":25181:25211   */\n      gt\n        /* \"#utility.yul\":25178:25234   */\n      iszero\n      tag_1042\n      jumpi\n        /* \"#utility.yul\":25214:25232   */\n      tag_1043\n      tag_626\n      jump\t// in\n    tag_1043:\n        /* \"#utility.yul\":25178:25234   */\n    tag_1042:\n        /* \"#utility.yul\":25258:25296   */\n      tag_1044\n        /* \"#utility.yul\":25290:25294   */\n      dup3\n        /* \"#utility.yul\":25284:25295   */\n      sload\n        /* \"#utility.yul\":25258:25296   */\n      tag_219\n      jump\t// in\n    tag_1044:\n        /* \"#utility.yul\":25343:25410   */\n      tag_1045\n        /* \"#utility.yul\":25403:25409   */\n      dup3\n        /* \"#utility.yul\":25395:25401   */\n      dup3\n        /* \"#utility.yul\":25389:25393   */\n      dup6\n        /* \"#utility.yul\":25343:25410   */\n      tag_685\n      jump\t// in\n    tag_1045:\n        /* \"#utility.yul\":25437:25438   */\n      0x00\n        /* \"#utility.yul\":25461:25465   */\n      0x20\n        /* \"#utility.yul\":25448:25465   */\n      swap1\n      pop\n        /* \"#utility.yul\":25493:25495   */\n      0x1f\n        /* \"#utility.yul\":25485:25491   */\n      dup4\n        /* \"#utility.yul\":25482:25496   */\n      gt\n        /* \"#utility.yul\":25510:25511   */\n      0x01\n        /* \"#utility.yul\":25505:26123   */\n      dup2\n      eq\n      tag_1047\n      jumpi\n        /* \"#utility.yul\":26167:26168   */\n      0x00\n        /* \"#utility.yul\":26184:26190   */\n      dup5\n        /* \"#utility.yul\":26181:26258   */\n      iszero\n      tag_1048\n      jumpi\n        /* \"#utility.yul\":26233:26242   */\n      dup3\n        /* \"#utility.yul\":26228:26231   */\n      dup8\n        /* \"#utility.yul\":26224:26243   */\n      add\n        /* \"#utility.yul\":26218:26244   */\n      mload\n        /* \"#utility.yul\":26209:26244   */\n      swap1\n      pop\n        /* \"#utility.yul\":26181:26258   */\n    tag_1048:\n        /* \"#utility.yul\":26284:26351   */\n      tag_1049\n        /* \"#utility.yul\":26344:26350   */\n      dup6\n        /* \"#utility.yul\":26337:26342   */\n      dup3\n        /* \"#utility.yul\":26284:26351   */\n      tag_688\n      jump\t// in\n    tag_1049:\n        /* \"#utility.yul\":26278:26282   */\n      dup7\n        /* \"#utility.yul\":26271:26352   */\n      sstore\n        /* \"#utility.yul\":26140:26362   */\n      pop\n        /* \"#utility.yul\":25475:26362   */\n      jump(tag_1046)\n        /* \"#utility.yul\":25505:26123   */\n    tag_1047:\n        /* \"#utility.yul\":25557:25561   */\n      0x1f\n        /* \"#utility.yul\":25553:25562   */\n      not\n        /* \"#utility.yul\":25545:25551   */\n      dup5\n        /* \"#utility.yul\":25541:25563   */\n      and\n        /* \"#utility.yul\":25591:25628   */\n      tag_1050\n        /* \"#utility.yul\":25623:25627   */\n      dup7\n        /* \"#utility.yul\":25591:25628   */\n      tag_674\n      jump\t// in\n    tag_1050:\n        /* \"#utility.yul\":25650:25651   */\n      0x00\n        /* \"#utility.yul\":25664:25872   */\n    tag_1051:\n        /* \"#utility.yul\":25678:25685   */\n      dup3\n        /* \"#utility.yul\":25675:25676   */\n      dup2\n        /* \"#utility.yul\":25672:25686   */\n      lt\n        /* \"#utility.yul\":25664:25872   */\n      iszero\n      tag_1053\n      jumpi\n        /* \"#utility.yul\":25757:25766   */\n      dup5\n        /* \"#utility.yul\":25752:25755   */\n      dup10\n        /* \"#utility.yul\":25748:25767   */\n      add\n        /* \"#utility.yul\":25742:25768   */\n      mload\n        /* \"#utility.yul\":25734:25740   */\n      dup3\n        /* \"#utility.yul\":25727:25769   */\n      sstore\n        /* \"#utility.yul\":25808:25809   */\n      0x01\n        /* \"#utility.yul\":25800:25806   */\n      dup3\n        /* \"#utility.yul\":25796:25810   */\n      add\n        /* \"#utility.yul\":25786:25810   */\n      swap2\n      pop\n        /* \"#utility.yul\":25855:25857   */\n      0x20\n        /* \"#utility.yul\":25844:25853   */\n      dup6\n        /* \"#utility.yul\":25840:25858   */\n      add\n        /* \"#utility.yul\":25827:25858   */\n      swap5\n      pop\n        /* \"#utility.yul\":25701:25705   */\n      0x20\n        /* \"#utility.yul\":25698:25699   */\n      dup2\n        /* \"#utility.yul\":25694:25706   */\n      add\n        /* \"#utility.yul\":25689:25706   */\n      swap1\n      pop\n        /* \"#utility.yul\":25664:25872   */\n      jump(tag_1051)\n    tag_1053:\n        /* \"#utility.yul\":25900:25906   */\n      dup7\n        /* \"#utility.yul\":25891:25898   */\n      dup4\n        /* \"#utility.yul\":25888:25907   */\n      lt\n        /* \"#utility.yul\":25885:26064   */\n      iszero\n      tag_1054\n      jumpi\n        /* \"#utility.yul\":25958:25967   */\n      dup5\n        /* \"#utility.yul\":25953:25956   */\n      dup10\n        /* \"#utility.yul\":25949:25968   */\n      add\n        /* \"#utility.yul\":25943:25969   */\n      mload\n        /* \"#utility.yul\":26001:26049   */\n      tag_1055\n        /* \"#utility.yul\":26043:26047   */\n      0x1f\n        /* \"#utility.yul\":26035:26041   */\n      dup10\n        /* \"#utility.yul\":26031:26048   */\n      and\n        /* \"#utility.yul\":26020:26029   */\n      dup3\n        /* \"#utility.yul\":26001:26049   */\n      tag_687\n      jump\t// in\n    tag_1055:\n        /* \"#utility.yul\":25993:25999   */\n      dup4\n        /* \"#utility.yul\":25986:26050   */\n      sstore\n        /* \"#utility.yul\":25908:26064   */\n      pop\n        /* \"#utility.yul\":25885:26064   */\n    tag_1054:\n        /* \"#utility.yul\":26110:26111   */\n      0x01\n        /* \"#utility.yul\":26106:26107   */\n      0x02\n        /* \"#utility.yul\":26098:26104   */\n      dup9\n        /* \"#utility.yul\":26094:26108   */\n      mul\n        /* \"#utility.yul\":26090:26112   */\n      add\n        /* \"#utility.yul\":26084:26088   */\n      dup9\n        /* \"#utility.yul\":26077:26113   */\n      sstore\n        /* \"#utility.yul\":25512:26123   */\n      pop\n      pop\n      pop\n        /* \"#utility.yul\":25475:26362   */\n    tag_1046:\n      pop\n        /* \"#utility.yul\":25065:26368   */\n      pop\n      pop\n      pop\n        /* \"#utility.yul\":24973:26368   */\n      pop\n      pop\n      jump\t// out\n        /* \"#utility.yul\":26374:26536   */\n    tag_689:\n        /* \"#utility.yul\":26514:26528   */\n      0x6163636f756e745f6f70656e0000000000000000000000000000000000000000\n        /* \"#utility.yul\":26510:26511   */\n      0x00\n        /* \"#utility.yul\":26502:26508   */\n      dup3\n        /* \"#utility.yul\":26498:26512   */\n      add\n        /* \"#utility.yul\":26491:26529   */\n      mstore\n        /* \"#utility.yul\":26374:26536   */\n      pop\n      jump\t// out\n        /* \"#utility.yul\":26542:26908   */\n    tag_690:\n        /* \"#utility.yul\":26684:26687   */\n      0x00\n        /* \"#utility.yul\":26705:26772   */\n      tag_1058\n        /* \"#utility.yul\":26769:26771   */\n      0x0c\n        /* \"#utility.yul\":26764:26767   */\n      dup4\n        /* \"#utility.yul\":26705:26772   */\n      tag_651\n      jump\t// in\n    tag_1058:\n        /* \"#utility.yul\":26698:26772   */\n      swap2\n      pop\n        /* \"#utility.yul\":26781:26874   */\n      tag_1059\n        /* \"#utility.yul\":26870:26873   */\n      dup3\n        /* \"#utility.yul\":26781:26874   */\n      tag_689\n      jump\t// in\n    tag_1059:\n        /* \"#utility.yul\":26899:26901   */\n      0x20\n        /* \"#utility.yul\":26894:26897   */\n      dup3\n        /* \"#utility.yul\":26890:26902   */\n      add\n        /* \"#utility.yul\":26883:26902   */\n      swap1\n      pop\n        /* \"#utility.yul\":26542:26908   */\n      swap2\n      swap1\n      pop\n      jump\t// out\n        /* \"#utility.yul\":26914:27054   */\n    tag_691:\n        /* \"#utility.yul\":26963:26972   */\n      0x00\n        /* \"#utility.yul\":26996:27048   */\n      tag_1061\n        /* \"#utility.yul\":27014:27047   */\n      tag_1062\n        /* \"#utility.yul\":27023:27046   */\n      tag_1063\n        /* \"#utility.yul\":27040:27045   */\n      dup5\n        /* \"#utility.yul\":27023:27046   */\n      tag_655\n      jump\t// in\n    tag_1063:\n        /* \"#utility.yul\":27014:27047   */\n      tag_678\n      jump\t// in\n    tag_1062:\n        /* \"#utility.yul\":26996:27048   */\n      tag_637\n      jump\t// in\n    tag_1061:\n        /* \"#utility.yul\":26983:27048   */\n      swap1\n      pop\n        /* \"#utility.yul\":26914:27054   */\n      swap2\n      swap1\n      pop\n      jump\t// out\n        /* \"#utility.yul\":27060:27189   */\n    tag_692:\n        /* \"#utility.yul\":27146:27182   */\n      tag_1065\n        /* \"#utility.yul\":27176:27181   */\n      dup2\n        /* \"#utility.yul\":27146:27182   */\n      tag_691\n      jump\t// in\n    tag_1065:\n        /* \"#utility.yul\":27141:27144   */\n      dup3\n        /* \"#utility.yul\":27134:27183   */\n      mstore\n        /* \"#utility.yul\":27060:27189   */\n      pop\n      pop\n      jump\t// out\n        /* \"#utility.yul\":27195:28034   */\n    tag_193:\n        /* \"#utility.yul\":27464:27468   */\n      0x00\n        /* \"#utility.yul\":27502:27505   */\n      0x80\n        /* \"#utility.yul\":27491:27500   */\n      dup3\n        /* \"#utility.yul\":27487:27506   */\n      add\n        /* \"#utility.yul\":27479:27506   */\n      swap1\n      pop\n        /* \"#utility.yul\":27552:27561   */\n      dup2\n        /* \"#utility.yul\":27546:27550   */\n      dup2\n        /* \"#utility.yul\":27542:27562   */\n      sub\n        /* \"#utility.yul\":27538:27539   */\n      0x00\n        /* \"#utility.yul\":27527:27536   */\n      dup4\n        /* \"#utility.yul\":27523:27540   */\n      add\n        /* \"#utility.yul\":27516:27563   */\n      mstore\n        /* \"#utility.yul\":27580:27711   */\n      tag_1067\n        /* \"#utility.yul\":27706:27710   */\n      dup2\n        /* \"#utility.yul\":27580:27711   */\n      tag_690\n      jump\t// in\n    tag_1067:\n        /* \"#utility.yul\":27572:27711   */\n      swap1\n      pop\n        /* \"#utility.yul\":27758:27767   */\n      dup2\n        /* \"#utility.yul\":27752:27756   */\n      dup2\n        /* \"#utility.yul\":27748:27768   */\n      sub\n        /* \"#utility.yul\":27743:27745   */\n      0x20\n        /* \"#utility.yul\":27732:27741   */\n      dup4\n        /* \"#utility.yul\":27728:27746   */\n      add\n        /* \"#utility.yul\":27721:27769   */\n      mstore\n        /* \"#utility.yul\":27786:27864   */\n      tag_1068\n        /* \"#utility.yul\":27859:27863   */\n      dup2\n        /* \"#utility.yul\":27850:27856   */\n      dup7\n        /* \"#utility.yul\":27786:27864   */\n      tag_653\n      jump\t// in\n    tag_1068:\n        /* \"#utility.yul\":27778:27864   */\n      swap1\n      pop\n        /* \"#utility.yul\":27874:27946   */\n      tag_1069\n        /* \"#utility.yul\":27942:27944   */\n      0x40\n        /* \"#utility.yul\":27931:27940   */\n      dup4\n        /* \"#utility.yul\":27927:27945   */\n      add\n        /* \"#utility.yul\":27918:27924   */\n      dup6\n        /* \"#utility.yul\":27874:27946   */\n      tag_654\n      jump\t// in\n    tag_1069:\n        /* \"#utility.yul\":27956:28027   */\n      tag_1070\n        /* \"#utility.yul\":28023:28025   */\n      0x60\n        /* \"#utility.yul\":28012:28021   */\n      dup4\n        /* \"#utility.yul\":28008:28026   */\n      add\n        /* \"#utility.yul\":27999:28005   */\n      dup5\n        /* \"#utility.yul\":27956:28027   */\n      tag_692\n      jump\t// in\n    tag_1070:\n        /* \"#utility.yul\":27195:28034   */\n      swap5\n      swap4\n      pop\n      pop\n      pop\n      pop\n      jump\t// out\n        /* \"#utility.yul\":28040:28209   */\n    tag_693:\n        /* \"#utility.yul\":28180:28201   */\n      0x4163636f756e74206e6f742062616e6e65642e00000000000000000000000000\n        /* \"#utility.yul\":28176:28177   */\n      0x00\n        /* \"#utility.yul\":28168:28174   */\n      dup3\n        /* \"#utility.yul\":28164:28178   */\n      add\n        /* \"#utility.yul\":28157:28202   */\n      mstore\n        /* \"#utility.yul\":28040:28209   */\n      pop\n      jump\t// out\n        /* \"#utility.yul\":28215:28581   */\n    tag_694:\n        /* \"#utility.yul\":28357:28360   */\n      0x00\n        /* \"#utility.yul\":28378:28445   */\n      tag_1073\n        /* \"#utility.yul\":28442:28444   */\n      0x13\n        /* \"#utility.yul\":28437:28440   */\n      dup4\n        /* \"#utility.yul\":28378:28445   */\n      tag_651\n      jump\t// in\n    tag_1073:\n        /* \"#utility.yul\":28371:28445   */\n      swap2\n      pop\n        /* \"#utility.yul\":28454:28547   */\n      tag_1074\n        /* \"#utility.yul\":28543:28546   */\n      dup3\n        /* \"#utility.yul\":28454:28547   */\n      tag_693\n      jump\t// in\n    tag_1074:\n        /* \"#utility.yul\":28572:28574   */\n      0x20\n        /* \"#utility.yul\":28567:28570   */\n      dup3\n        /* \"#utility.yul\":28563:28575   */\n      add\n        /* \"#utility.yul\":28556:28575   */\n      swap1\n      pop\n        /* \"#utility.yul\":28215:28581   */\n      swap2\n      swap1\n      pop\n      jump\t// out\n        /* \"#utility.yul\":28587:29006   */\n    tag_205:\n        /* \"#utility.yul\":28753:28757   */\n      0x00\n        /* \"#utility.yul\":28791:28793   */\n      0x20\n        /* \"#utility.yul\":28780:28789   */\n      dup3\n        /* \"#utility.yul\":28776:28794   */\n      add\n        /* \"#utility.yul\":28768:28794   */\n      swap1\n      pop\n        /* \"#utility.yul\":28840:28849   */\n      dup2\n        /* \"#utility.yul\":28834:28838   */\n      dup2\n        /* \"#utility.yul\":28830:28850   */\n      sub\n        /* \"#utility.yul\":28826:28827   */\n      0x00\n        /* \"#utility.yul\":28815:28824   */\n      dup4\n        /* \"#utility.yul\":28811:28828   */\n      add\n        /* \"#utility.yul\":28804:28851   */\n      mstore\n        /* \"#utility.yul\":28868:28999   */\n      tag_1076\n        /* \"#utility.yul\":28994:28998   */\n      dup2\n        /* \"#utility.yul\":28868:28999   */\n      tag_694\n      jump\t// in\n    tag_1076:\n        /* \"#utility.yul\":28860:28999   */\n      swap1\n      pop\n        /* \"#utility.yul\":28587:29006   */\n      swap2\n      swap1\n      pop\n      jump\t// out\n        /* \"#utility.yul\":29012:29176   */\n    tag_695:\n        /* \"#utility.yul\":29152:29168   */\n      0x6163636f756e745f756e6c6f636b000000000000000000000000000000000000\n        /* \"#utility.yul\":29148:29149   */\n      0x00\n        /* \"#utility.yul\":29140:29146   */\n      dup3\n        /* \"#utility.yul\":29136:29150   */\n      add\n        /* \"#utility.yul\":29129:29169   */\n      mstore\n        /* \"#utility.yul\":29012:29176   */\n      pop\n      jump\t// out\n        /* \"#utility.yul\":29182:29548   */\n    tag_696:\n        /* \"#utility.yul\":29324:29327   */\n      0x00\n        /* \"#utility.yul\":29345:29412   */\n      tag_1079\n        /* \"#utility.yul\":29409:29411   */\n      0x0e\n        /* \"#utility.yul\":29404:29407   */\n      dup4\n        /* \"#utility.yul\":29345:29412   */\n      tag_651\n      jump\t// in\n    tag_1079:\n        /* \"#utility.yul\":29338:29412   */\n      swap2\n      pop\n        /* \"#utility.yul\":29421:29514   */\n      tag_1080\n        /* \"#utility.yul\":29510:29513   */\n      dup3\n        /* \"#utility.yul\":29421:29514   */\n      tag_695\n      jump\t// in\n    tag_1080:\n        /* \"#utility.yul\":29539:29541   */\n      0x20\n        /* \"#utility.yul\":29534:29537   */\n      dup3\n        /* \"#utility.yul\":29530:29542   */\n      add\n        /* \"#utility.yul\":29523:29542   */\n      swap1\n      pop\n        /* \"#utility.yul\":29182:29548   */\n      swap2\n      swap1\n      pop\n      jump\t// out\n        /* \"#utility.yul\":29554:29639   */\n    tag_697:\n        /* \"#utility.yul\":29599:29606   */\n      0x00\n        /* \"#utility.yul\":29628:29633   */\n      dup2\n        /* \"#utility.yul\":29617:29633   */\n      swap1\n      pop\n        /* \"#utility.yul\":29554:29639   */\n      swap2\n      swap1\n      pop\n      jump\t// out\n        /* \"#utility.yul\":29645:29803   */\n    tag_698:\n        /* \"#utility.yul\":29703:29712   */\n      0x00\n        /* \"#utility.yul\":29736:29797   */\n      tag_1083\n        /* \"#utility.yul\":29754:29796   */\n      tag_1084\n        /* \"#utility.yul\":29763:29795   */\n      tag_1085\n        /* \"#utility.yul\":29789:29794   */\n      dup5\n        /* \"#utility.yul\":29763:29795   */\n      tag_697\n      jump\t// in\n    tag_1085:\n        /* \"#utility.yul\":29754:29796   */\n      tag_678\n      jump\t// in\n    tag_1084:\n        /* \"#utility.yul\":29736:29797   */\n      tag_637\n      jump\t// in\n    tag_1083:\n        /* \"#utility.yul\":29723:29797   */\n      swap1\n      pop\n        /* \"#utility.yul\":29645:29803   */\n      swap2\n      swap1\n      pop\n      jump\t// out\n        /* \"#utility.yul\":29809:29956   */\n    tag_699:\n        /* \"#utility.yul\":29904:29949   */\n      tag_1087\n        /* \"#utility.yul\":29943:29948   */\n      dup2\n        /* \"#utility.yul\":29904:29949   */\n      tag_698\n      jump\t// in\n    tag_1087:\n        /* \"#utility.yul\":29899:29902   */\n      dup3\n        /* \"#utility.yul\":29892:29950   */\n      mstore\n        /* \"#utility.yul\":29809:29956   */\n      pop\n      pop\n      jump\t// out\n        /* \"#utility.yul\":29962:30819   */\n    tag_210:\n        /* \"#utility.yul\":30240:30244   */\n      0x00\n        /* \"#utility.yul\":30278:30281   */\n      0x80\n        /* \"#utility.yul\":30267:30276   */\n      dup3\n        /* \"#utility.yul\":30263:30282   */\n      add\n        /* \"#utility.yul\":30255:30282   */\n      swap1\n      pop\n        /* \"#utility.yul\":30328:30337   */\n      dup2\n        /* \"#utility.yul\":30322:30326   */\n      dup2\n        /* \"#utility.yul\":30318:30338   */\n      sub\n        /* \"#utility.yul\":30314:30315   */\n      0x00\n        /* \"#utility.yul\":30303:30312   */\n      dup4\n        /* \"#utility.yul\":30299:30316   */\n      add\n        /* \"#utility.yul\":30292:30339   */\n      mstore\n        /* \"#utility.yul\":30356:30487   */\n      tag_1089\n        /* \"#utility.yul\":30482:30486   */\n      dup2\n        /* \"#utility.yul\":30356:30487   */\n      tag_696\n      jump\t// in\n    tag_1089:\n        /* \"#utility.yul\":30348:30487   */\n      swap1\n      pop\n        /* \"#utility.yul\":30534:30543   */\n      dup2\n        /* \"#utility.yul\":30528:30532   */\n      dup2\n        /* \"#utility.yul\":30524:30544   */\n      sub\n        /* \"#utility.yul\":30519:30521   */\n      0x20\n        /* \"#utility.yul\":30508:30517   */\n      dup4\n        /* \"#utility.yul\":30504:30522   */\n      add\n        /* \"#utility.yul\":30497:30545   */\n      mstore\n        /* \"#utility.yul\":30562:30640   */\n      tag_1090\n        /* \"#utility.yul\":30635:30639   */\n      dup2\n        /* \"#utility.yul\":30626:30632   */\n      dup7\n        /* \"#utility.yul\":30562:30640   */\n      tag_653\n      jump\t// in\n    tag_1090:\n        /* \"#utility.yul\":30554:30640   */\n      swap1\n      pop\n        /* \"#utility.yul\":30650:30722   */\n      tag_1091\n        /* \"#utility.yul\":30718:30720   */\n      0x40\n        /* \"#utility.yul\":30707:30716   */\n      dup4\n        /* \"#utility.yul\":30703:30721   */\n      add\n        /* \"#utility.yul\":30694:30700   */\n      dup6\n        /* \"#utility.yul\":30650:30722   */\n      tag_654\n      jump\t// in\n    tag_1091:\n        /* \"#utility.yul\":30732:30812   */\n      tag_1092\n        /* \"#utility.yul\":30808:30810   */\n      0x60\n        /* \"#utility.yul\":30797:30806   */\n      dup4\n        /* \"#utility.yul\":30793:30811   */\n      add\n        /* \"#utility.yul\":30784:30790   */\n      dup5\n        /* \"#utility.yul\":30732:30812   */\n      tag_699\n      jump\t// in\n    tag_1092:\n        /* \"#utility.yul\":29962:30819   */\n      swap5\n      swap4\n      pop\n      pop\n      pop\n      pop\n      jump\t// out\n        /* \"#utility.yul\":30825:30997   */\n    tag_700:\n        /* \"#utility.yul\":30965:30989   */\n      0x5769746864726177206e6f7420636f6e6669726d656400000000000000000000\n        /* \"#utility.yul\":30961:30962   */\n      0x00\n        /* \"#utility.yul\":30953:30959   */\n      dup3\n        /* \"#utility.yul\":30949:30963   */\n      add\n        /* \"#utility.yul\":30942:30990   */\n      mstore\n        /* \"#utility.yul\":30825:30997   */\n      pop\n      jump\t// out\n        /* \"#utility.yul\":31003:31369   */\n    tag_701:\n        /* \"#utility.yul\":31145:31148   */\n      0x00\n        /* \"#utility.yul\":31166:31233   */\n      tag_1095\n        /* \"#utility.yul\":31230:31232   */\n      0x16\n        /* \"#utility.yul\":31225:31228   */\n      dup4\n        /* \"#utility.yul\":31166:31233   */\n      tag_651\n      jump\t// in\n    tag_1095:\n        /* \"#utility.yul\":31159:31233   */\n      swap2\n      pop\n        /* \"#utility.yul\":31242:31335   */\n      tag_1096\n        /* \"#utility.yul\":31331:31334   */\n      dup3\n        /* \"#utility.yul\":31242:31335   */\n      tag_700\n      jump\t// in\n    tag_1096:\n        /* \"#utility.yul\":31360:31362   */\n      0x20\n        /* \"#utility.yul\":31355:31358   */\n      dup3\n        /* \"#utility.yul\":31351:31363   */\n      add\n        /* \"#utility.yul\":31344:31363   */\n      swap1\n      pop\n        /* \"#utility.yul\":31003:31369   */\n      swap2\n      swap1\n      pop\n      jump\t// out\n        /* \"#utility.yul\":31375:31794   */\n    tag_238:\n        /* \"#utility.yul\":31541:31545   */\n      0x00\n        /* \"#utility.yul\":31579:31581   */\n      0x20\n        /* \"#utility.yul\":31568:31577   */\n      dup3\n        /* \"#utility.yul\":31564:31582   */\n      add\n        /* \"#utility.yul\":31556:31582   */\n      swap1\n      pop\n        /* \"#utility.yul\":31628:31637   */\n      dup2\n        /* \"#utility.yul\":31622:31626   */\n      dup2\n        /* \"#utility.yul\":31618:31638   */\n      sub\n        /* \"#utility.yul\":31614:31615   */\n      0x00\n        /* \"#utility.yul\":31603:31612   */\n      dup4\n        /* \"#utility.yul\":31599:31616   */\n      add\n        /* \"#utility.yul\":31592:31639   */\n      mstore\n        /* \"#utility.yul\":31656:31787   */\n      tag_1098\n        /* \"#utility.yul\":31782:31786   */\n      dup2\n        /* \"#utility.yul\":31656:31787   */\n      tag_701\n      jump\t// in\n    tag_1098:\n        /* \"#utility.yul\":31648:31787   */\n      swap1\n      pop\n        /* \"#utility.yul\":31375:31794   */\n      swap2\n      swap1\n      pop\n      jump\t// out\n        /* \"#utility.yul\":31800:31994   */\n    tag_245:\n        /* \"#utility.yul\":31840:31844   */\n      0x00\n        /* \"#utility.yul\":31860:31880   */\n      tag_1100\n        /* \"#utility.yul\":31878:31879   */\n      dup3\n        /* \"#utility.yul\":31860:31880   */\n      tag_637\n      jump\t// in\n    tag_1100:\n        /* \"#utility.yul\":31855:31880   */\n      swap2\n      pop\n        /* \"#utility.yul\":31894:31914   */\n      tag_1101\n        /* \"#utility.yul\":31912:31913   */\n      dup4\n        /* \"#utility.yul\":31894:31914   */\n      tag_637\n      jump\t// in\n    tag_1101:\n        /* \"#utility.yul\":31889:31914   */\n      swap3\n      pop\n        /* \"#utility.yul\":31938:31939   */\n      dup3\n        /* \"#utility.yul\":31935:31936   */\n      dup3\n        /* \"#utility.yul\":31931:31940   */\n      sub\n        /* \"#utility.yul\":31923:31940   */\n      swap1\n      pop\n        /* \"#utility.yul\":31962:31963   */\n      dup2\n        /* \"#utility.yul\":31956:31960   */\n      dup2\n        /* \"#utility.yul\":31953:31964   */\n      gt\n        /* \"#utility.yul\":31950:31987   */\n      iszero\n      tag_1102\n      jumpi\n        /* \"#utility.yul\":31967:31985   */\n      tag_1103\n      tag_672\n      jump\t// in\n    tag_1103:\n        /* \"#utility.yul\":31950:31987   */\n    tag_1102:\n        /* \"#utility.yul\":31800:31994   */\n      swap3\n      swap2\n      pop\n      pop\n      jump\t// out\n        /* \"#utility.yul\":32000:32165   */\n    tag_702:\n        /* \"#utility.yul\":32140:32157   */\n      0x77697468647261775f72656a6563740000000000000000000000000000000000\n        /* \"#utility.yul\":32136:32137   */\n      0x00\n        /* \"#utility.yul\":32128:32134   */\n      dup3\n        /* \"#utility.yul\":32124:32138   */\n      add\n        /* \"#utility.yul\":32117:32158   */\n      mstore\n        /* \"#utility.yul\":32000:32165   */\n      pop\n      jump\t// out\n        /* \"#utility.yul\":32171:32537   */\n    tag_703:\n        /* \"#utility.yul\":32313:32316   */\n      0x00\n        /* \"#utility.yul\":32334:32401   */\n      tag_1106\n        /* \"#utility.yul\":32398:32400   */\n      0x0f\n        /* \"#utility.yul\":32393:32396   */\n      dup4\n        /* \"#utility.yul\":32334:32401   */\n      tag_651\n      jump\t// in\n    tag_1106:\n        /* \"#utility.yul\":32327:32401   */\n      swap2\n      pop\n        /* \"#utility.yul\":32410:32503   */\n      tag_1107\n        /* \"#utility.yul\":32499:32502   */\n      dup3\n        /* \"#utility.yul\":32410:32503   */\n      tag_702\n      jump\t// in\n    tag_1107:\n        /* \"#utility.yul\":32528:32530   */\n      0x20\n        /* \"#utility.yul\":32523:32526   */\n      dup3\n        /* \"#utility.yul\":32519:32531   */\n      add\n        /* \"#utility.yul\":32512:32531   */\n      swap1\n      pop\n        /* \"#utility.yul\":32171:32537   */\n      swap2\n      swap1\n      pop\n      jump\t// out\n        /* \"#utility.yul\":32543:33384   */\n    tag_247:\n        /* \"#utility.yul\":32813:32817   */\n      0x00\n        /* \"#utility.yul\":32851:32854   */\n      0x80\n        /* \"#utility.yul\":32840:32849   */\n      dup3\n        /* \"#utility.yul\":32836:32855   */\n      add\n        /* \"#utility.yul\":32828:32855   */\n      swap1\n      pop\n        /* \"#utility.yul\":32901:32910   */\n      dup2\n        /* \"#utility.yul\":32895:32899   */\n      dup2\n        /* \"#utility.yul\":32891:32911   */\n      sub\n        /* \"#utility.yul\":32887:32888   */\n      0x00\n        /* \"#utility.yul\":32876:32885   */\n      dup4\n        /* \"#utility.yul\":32872:32889   */\n      add\n        /* \"#utility.yul\":32865:32912   */\n      mstore\n        /* \"#utility.yul\":32929:33060   */\n      tag_1109\n        /* \"#utility.yul\":33055:33059   */\n      dup2\n        /* \"#utility.yul\":32929:33060   */\n      tag_703\n      jump\t// in\n    tag_1109:\n        /* \"#utility.yul\":32921:33060   */\n      swap1\n      pop\n        /* \"#utility.yul\":33107:33116   */\n      dup2\n        /* \"#utility.yul\":33101:33105   */\n      dup2\n        /* \"#utility.yul\":33097:33117   */\n      sub\n        /* \"#utility.yul\":33092:33094   */\n      0x20\n        /* \"#utility.yul\":33081:33090   */\n      dup4\n        /* \"#utility.yul\":33077:33095   */\n      add\n        /* \"#utility.yul\":33070:33118   */\n      mstore\n        /* \"#utility.yul\":33135:33213   */\n      tag_1110\n        /* \"#utility.yul\":33208:33212   */\n      dup2\n        /* \"#utility.yul\":33199:33205   */\n      dup7\n        /* \"#utility.yul\":33135:33213   */\n      tag_653\n      jump\t// in\n    tag_1110:\n        /* \"#utility.yul\":33127:33213   */\n      swap1\n      pop\n        /* \"#utility.yul\":33223:33295   */\n      tag_1111\n        /* \"#utility.yul\":33291:33293   */\n      0x40\n        /* \"#utility.yul\":33280:33289   */\n      dup4\n        /* \"#utility.yul\":33276:33294   */\n      add\n        /* \"#utility.yul\":33267:33273   */\n      dup6\n        /* \"#utility.yul\":33223:33295   */\n      tag_654\n      jump\t// in\n    tag_1111:\n        /* \"#utility.yul\":33305:33377   */\n      tag_1112\n        /* \"#utility.yul\":33373:33375   */\n      0x60\n        /* \"#utility.yul\":33362:33371   */\n      dup4\n        /* \"#utility.yul\":33358:33376   */\n      add\n        /* \"#utility.yul\":33349:33355   */\n      dup5\n        /* \"#utility.yul\":33305:33377   */\n      tag_638\n      jump\t// in\n    tag_1112:\n        /* \"#utility.yul\":32543:33384   */\n      swap5\n      swap4\n      pop\n      pop\n      pop\n      pop\n      jump\t// out\n        /* \"#utility.yul\":33390:33560   */\n    tag_704:\n        /* \"#utility.yul\":33530:33552   */\n      0x5369746520617574686f72697479206f6e6c792e000000000000000000000000\n        /* \"#utility.yul\":33526:33527   */\n      0x00\n        /* \"#utility.yul\":33518:33524   */\n      dup3\n        /* \"#utility.yul\":33514:33528   */\n      add\n        /* \"#utility.yul\":33507:33553   */\n      mstore\n        /* \"#utility.yul\":33390:33560   */\n      pop\n      jump\t// out\n        /* \"#utility.yul\":33566:33932   */\n    tag_705:\n        /* \"#utility.yul\":33708:33711   */\n      0x00\n        /* \"#utility.yul\":33729:33796   */\n      tag_1115\n        /* \"#utility.yul\":33793:33795   */\n      0x14\n        /* \"#utility.yul\":33788:33791   */\n      dup4\n        /* \"#utility.yul\":33729:33796   */\n      tag_651\n      jump\t// in\n    tag_1115:\n        /* \"#utility.yul\":33722:33796   */\n      swap2\n      pop\n        /* \"#utility.yul\":33805:33898   */\n      tag_1116\n        /* \"#utility.yul\":33894:33897   */\n      dup3\n        /* \"#utility.yul\":33805:33898   */\n      tag_704\n      jump\t// in\n    tag_1116:\n        /* \"#utility.yul\":33923:33925   */\n      0x20\n        /* \"#utility.yul\":33918:33921   */\n      dup3\n        /* \"#utility.yul\":33914:33926   */\n      add\n        /* \"#utility.yul\":33907:33926   */\n      swap1\n      pop\n        /* \"#utility.yul\":33566:33932   */\n      swap2\n      swap1\n      pop\n      jump\t// out\n        /* \"#utility.yul\":33938:34357   */\n    tag_251:\n        /* \"#utility.yul\":34104:34108   */\n      0x00\n        /* \"#utility.yul\":34142:34144   */\n      0x20\n        /* \"#utility.yul\":34131:34140   */\n      dup3\n        /* \"#utility.yul\":34127:34145   */\n      add\n        /* \"#utility.yul\":34119:34145   */\n      swap1\n      pop\n        /* \"#utility.yul\":34191:34200   */\n      dup2\n        /* \"#utility.yul\":34185:34189   */\n      dup2\n        /* \"#utility.yul\":34181:34201   */\n      sub\n        /* \"#utility.yul\":34177:34178   */\n      0x00\n        /* \"#utility.yul\":34166:34175   */\n      dup4\n        /* \"#utility.yul\":34162:34179   */\n      add\n        /* \"#utility.yul\":34155:34202   */\n      mstore\n        /* \"#utility.yul\":34219:34350   */\n      tag_1118\n        /* \"#utility.yul\":34345:34349   */\n      dup2\n        /* \"#utility.yul\":34219:34350   */\n      tag_705\n      jump\t// in\n    tag_1118:\n        /* \"#utility.yul\":34211:34350   */\n      swap1\n      pop\n        /* \"#utility.yul\":33938:34357   */\n      swap2\n      swap1\n      pop\n      jump\t// out\n        /* \"#utility.yul\":34363:34534   */\n    tag_706:\n        /* \"#utility.yul\":34503:34526   */\n      0x5661756c7420696e206172626974726174696f6e2e0000000000000000000000\n        /* \"#utility.yul\":34499:34500   */\n      0x00\n        /* \"#utility.yul\":34491:34497   */\n      dup3\n        /* \"#utility.yul\":34487:34501   */\n      add\n        /* \"#utility.yul\":34480:34527   */\n      mstore\n        /* \"#utility.yul\":34363:34534   */\n      pop\n      jump\t// out\n        /* \"#utility.yul\":34540:34906   */\n    tag_707:\n        /* \"#utility.yul\":34682:34685   */\n      0x00\n        /* \"#utility.yul\":34703:34770   */\n      tag_1121\n        /* \"#utility.yul\":34767:34769   */\n      0x15\n        /* \"#utility.yul\":34762:34765   */\n      dup4\n        /* \"#utility.yul\":34703:34770   */\n      tag_651\n      jump\t// in\n    tag_1121:\n        /* \"#utility.yul\":34696:34770   */\n      swap2\n      pop\n        /* \"#utility.yul\":34779:34872   */\n      tag_1122\n        /* \"#utility.yul\":34868:34871   */\n      dup3\n        /* \"#utility.yul\":34779:34872   */\n      tag_706\n      jump\t// in\n    tag_1122:\n        /* \"#utility.yul\":34897:34899   */\n      0x20\n        /* \"#utility.yul\":34892:34895   */\n      dup3\n        /* \"#utility.yul\":34888:34900   */\n      add\n        /* \"#utility.yul\":34881:34900   */\n      swap1\n      pop\n        /* \"#utility.yul\":34540:34906   */\n      swap2\n      swap1\n      pop\n      jump\t// out\n        /* \"#utility.yul\":34912:35331   */\n    tag_263:\n        /* \"#utility.yul\":35078:35082   */\n      0x00\n        /* \"#utility.yul\":35116:35118   */\n      0x20\n        /* \"#utility.yul\":35105:35114   */\n      dup3\n        /* \"#utility.yul\":35101:35119   */\n      add\n        /* \"#utility.yul\":35093:35119   */\n      swap1\n      pop\n        /* \"#utility.yul\":35165:35174   */\n      dup2\n        /* \"#utility.yul\":35159:35163   */\n      dup2\n        /* \"#utility.yul\":35155:35175   */\n      sub\n        /* \"#utility.yul\":35151:35152   */\n      0x00\n        /* \"#utility.yul\":35140:35149   */\n      dup4\n        /* \"#utility.yul\":35136:35153   */\n      add\n        /* \"#utility.yul\":35129:35176   */\n      mstore\n        /* \"#utility.yul\":35193:35324   */\n      tag_1124\n        /* \"#utility.yul\":35319:35323   */\n      dup2\n        /* \"#utility.yul\":35193:35324   */\n      tag_707\n      jump\t// in\n    tag_1124:\n        /* \"#utility.yul\":35185:35324   */\n      swap1\n      pop\n        /* \"#utility.yul\":34912:35331   */\n      swap2\n      swap1\n      pop\n      jump\t// out\n        /* \"#utility.yul\":35337:35505   */\n    tag_708:\n        /* \"#utility.yul\":35477:35497   */\n      0x4163636f756e74206e6f7420766f7465642e0000000000000000000000000000\n        /* \"#utility.yul\":35473:35474   */\n      0x00\n        /* \"#utility.yul\":35465:35471   */\n      dup3\n        /* \"#utility.yul\":35461:35475   */\n      add\n        /* \"#utility.yul\":35454:35498   */\n      mstore\n        /* \"#utility.yul\":35337:35505   */\n      pop\n      jump\t// out\n        /* \"#utility.yul\":35511:35877   */\n    tag_709:\n        /* \"#utility.yul\":35653:35656   */\n      0x00\n        /* \"#utility.yul\":35674:35741   */\n      tag_1127\n        /* \"#utility.yul\":35738:35740   */\n      0x12\n        /* \"#utility.yul\":35733:35736   */\n      dup4\n        /* \"#utility.yul\":35674:35741   */\n      tag_651\n      jump\t// in\n    tag_1127:\n        /* \"#utility.yul\":35667:35741   */\n      swap2\n      pop\n        /* \"#utility.yul\":35750:35843   */\n      tag_1128\n        /* \"#utility.yul\":35839:35842   */\n      dup3\n        /* \"#utility.yul\":35750:35843   */\n      tag_708\n      jump\t// in\n    tag_1128:\n        /* \"#utility.yul\":35868:35870   */\n      0x20\n        /* \"#utility.yul\":35863:35866   */\n      dup3\n        /* \"#utility.yul\":35859:35871   */\n      add\n        /* \"#utility.yul\":35852:35871   */\n      swap1\n      pop\n        /* \"#utility.yul\":35511:35877   */\n      swap2\n      swap1\n      pop\n      jump\t// out\n        /* \"#utility.yul\":35883:36302   */\n    tag_267:\n        /* \"#utility.yul\":36049:36053   */\n      0x00\n        /* \"#utility.yul\":36087:36089   */\n      0x20\n        /* \"#utility.yul\":36076:36085   */\n      dup3\n        /* \"#utility.yul\":36072:36090   */\n      add\n        /* \"#utility.yul\":36064:36090   */\n      swap1\n      pop\n        /* \"#utility.yul\":36136:36145   */\n      dup2\n        /* \"#utility.yul\":36130:36134   */\n      dup2\n        /* \"#utility.yul\":36126:36146   */\n      sub\n        /* \"#utility.yul\":36122:36123   */\n      0x00\n        /* \"#utility.yul\":36111:36120   */\n      dup4\n        /* \"#utility.yul\":36107:36124   */\n      add\n        /* \"#utility.yul\":36100:36147   */\n      mstore\n        /* \"#utility.yul\":36164:36295   */\n      tag_1130\n        /* \"#utility.yul\":36290:36294   */\n      dup2\n        /* \"#utility.yul\":36164:36295   */\n      tag_709\n      jump\t// in\n    tag_1130:\n        /* \"#utility.yul\":36156:36295   */\n      swap1\n      pop\n        /* \"#utility.yul\":35883:36302   */\n      swap2\n      swap1\n      pop\n      jump\t// out\n        /* \"#utility.yul\":36308:36477   */\n    tag_271:\n        /* \"#utility.yul\":36346:36349   */\n      0x00\n        /* \"#utility.yul\":36369:36392   */\n      tag_1132\n        /* \"#utility.yul\":36386:36391   */\n      dup3\n        /* \"#utility.yul\":36369:36392   */\n      tag_655\n      jump\t// in\n    tag_1132:\n        /* \"#utility.yul\":36360:36392   */\n      swap2\n      pop\n        /* \"#utility.yul\":36414:36418   */\n      0x00\n        /* \"#utility.yul\":36407:36412   */\n      dup3\n        /* \"#utility.yul\":36404:36419   */\n      sub\n        /* \"#utility.yul\":36401:36442   */\n      tag_1133\n      jumpi\n        /* \"#utility.yul\":36422:36440   */\n      tag_1134\n      tag_672\n      jump\t// in\n    tag_1134:\n        /* \"#utility.yul\":36401:36442   */\n    tag_1133:\n        /* \"#utility.yul\":36469:36470   */\n      0x01\n        /* \"#utility.yul\":36462:36467   */\n      dup3\n        /* \"#utility.yul\":36458:36471   */\n      sub\n        /* \"#utility.yul\":36451:36471   */\n      swap1\n      pop\n        /* \"#utility.yul\":36308:36477   */\n      swap2\n      swap1\n      pop\n      jump\t// out\n        /* \"#utility.yul\":36483:36651   */\n    tag_710:\n        /* \"#utility.yul\":36623:36643   */\n      0x6172626974726174696f6e5f756e766f74650000000000000000000000000000\n        /* \"#utility.yul\":36619:36620   */\n      0x00\n        /* \"#utility.yul\":36611:36617   */\n      dup3\n        /* \"#utility.yul\":36607:36621   */\n      add\n        /* \"#utility.yul\":36600:36644   */\n      mstore\n        /* \"#utility.yul\":36483:36651   */\n      pop\n      jump\t// out\n        /* \"#utility.yul\":36657:37023   */\n    tag_711:\n        /* \"#utility.yul\":36799:36802   */\n      0x00\n        /* \"#utility.yul\":36820:36887   */\n      tag_1137\n        /* \"#utility.yul\":36884:36886   */\n      0x12\n        /* \"#utility.yul\":36879:36882   */\n      dup4\n        /* \"#utility.yul\":36820:36887   */\n      tag_651\n      jump\t// in\n    tag_1137:\n        /* \"#utility.yul\":36813:36887   */\n      swap2\n      pop\n        /* \"#utility.yul\":36896:36989   */\n      tag_1138\n        /* \"#utility.yul\":36985:36988   */\n      dup3\n        /* \"#utility.yul\":36896:36989   */\n      tag_710\n      jump\t// in\n    tag_1138:\n        /* \"#utility.yul\":37014:37016   */\n      0x20\n        /* \"#utility.yul\":37009:37012   */\n      dup3\n        /* \"#utility.yul\":37005:37017   */\n      add\n        /* \"#utility.yul\":36998:37017   */\n      swap1\n      pop\n        /* \"#utility.yul\":36657:37023   */\n      swap2\n      swap1\n      pop\n      jump\t// out\n        /* \"#utility.yul\":37029:37868   */\n    tag_273:\n        /* \"#utility.yul\":37298:37302   */\n      0x00\n        /* \"#utility.yul\":37336:37339   */\n      0x80\n        /* \"#utility.yul\":37325:37334   */\n      dup3\n        /* \"#utility.yul\":37321:37340   */\n      add\n        /* \"#utility.yul\":37313:37340   */\n      swap1\n      pop\n        /* \"#utility.yul\":37386:37395   */\n      dup2\n        /* \"#utility.yul\":37380:37384   */\n      dup2\n        /* \"#utility.yul\":37376:37396   */\n      sub\n        /* \"#utility.yul\":37372:37373   */\n      0x00\n        /* \"#utility.yul\":37361:37370   */\n      dup4\n        /* \"#utility.yul\":37357:37374   */\n      add\n        /* \"#utility.yul\":37350:37397   */\n      mstore\n        /* \"#utility.yul\":37414:37545   */\n      tag_1140\n        /* \"#utility.yul\":37540:37544   */\n      dup2\n        /* \"#utility.yul\":37414:37545   */\n      tag_711\n      jump\t// in\n    tag_1140:\n        /* \"#utility.yul\":37406:37545   */\n      swap1\n      pop\n        /* \"#utility.yul\":37592:37601   */\n      dup2\n        /* \"#utility.yul\":37586:37590   */\n      dup2\n        /* \"#utility.yul\":37582:37602   */\n      sub\n        /* \"#utility.yul\":37577:37579   */\n      0x20\n        /* \"#utility.yul\":37566:37575   */\n      dup4\n        /* \"#utility.yul\":37562:37580   */\n      add\n        /* \"#utility.yul\":37555:37603   */\n      mstore\n        /* \"#utility.yul\":37620:37698   */\n      tag_1141\n        /* \"#utility.yul\":37693:37697   */\n      dup2\n        /* \"#utility.yul\":37684:37690   */\n      dup7\n        /* \"#utility.yul\":37620:37698   */\n      tag_653\n      jump\t// in\n    tag_1141:\n        /* \"#utility.yul\":37612:37698   */\n      swap1\n      pop\n        /* \"#utility.yul\":37708:37780   */\n      tag_1142\n        /* \"#utility.yul\":37776:37778   */\n      0x40\n        /* \"#utility.yul\":37765:37774   */\n      dup4\n        /* \"#utility.yul\":37761:37779   */\n      add\n        /* \"#utility.yul\":37752:37758   */\n      dup6\n        /* \"#utility.yul\":37708:37780   */\n      tag_654\n      jump\t// in\n    tag_1142:\n        /* \"#utility.yul\":37790:37861   */\n      tag_1143\n        /* \"#utility.yul\":37857:37859   */\n      0x60\n        /* \"#utility.yul\":37846:37855   */\n      dup4\n        /* \"#utility.yul\":37842:37860   */\n      add\n        /* \"#utility.yul\":37833:37839   */\n      dup5\n        /* \"#utility.yul\":37790:37861   */\n      tag_692\n      jump\t// in\n    tag_1143:\n        /* \"#utility.yul\":37029:37868   */\n      swap5\n      swap4\n      pop\n      pop\n      pop\n      pop\n      jump\t// out\n        /* \"#utility.yul\":37874:38040   */\n    tag_712:\n        /* \"#utility.yul\":38014:38032   */\n      0x4e6f2073656c6620736572766963652e00000000000000000000000000000000\n        /* \"#utility.yul\":38010:38011   */\n      0x00\n        /* \"#utility.yul\":38002:38008   */\n      dup3\n        /* \"#utility.yul\":37998:38012   */\n      add\n        /* \"#utility.yul\":37991:38033   */\n      mstore\n        /* \"#utility.yul\":37874:38040   */\n      pop\n      jump\t// out\n        /* \"#utility.yul\":38046:38412   */\n    tag_713:\n        /* \"#utility.yul\":38188:38191   */\n      0x00\n        /* \"#utility.yul\":38209:38276   */\n      tag_1146\n        /* \"#utility.yul\":38273:38275   */\n      0x10\n        /* \"#utility.yul\":38268:38271   */\n      dup4\n        /* \"#utility.yul\":38209:38276   */\n      tag_651\n      jump\t// in\n    tag_1146:\n        /* \"#utility.yul\":38202:38276   */\n      swap2\n      pop\n        /* \"#utility.yul\":38285:38378   */\n      tag_1147\n        /* \"#utility.yul\":38374:38377   */\n      dup3\n        /* \"#utility.yul\":38285:38378   */\n      tag_712\n      jump\t// in\n    tag_1147:\n        /* \"#utility.yul\":38403:38405   */\n      0x20\n        /* \"#utility.yul\":38398:38401   */\n      dup3\n        /* \"#utility.yul\":38394:38406   */\n      add\n        /* \"#utility.yul\":38387:38406   */\n      swap1\n      pop\n        /* \"#utility.yul\":38046:38412   */\n      swap2\n      swap1\n      pop\n      jump\t// out\n        /* \"#utility.yul\":38418:38837   */\n    tag_282:\n        /* \"#utility.yul\":38584:38588   */\n      0x00\n        /* \"#utility.yul\":38622:38624   */\n      0x20\n        /* \"#utility.yul\":38611:38620   */\n      dup3\n        /* \"#utility.yul\":38607:38625   */\n      add\n        /* \"#utility.yul\":38599:38625   */\n      swap1\n      pop\n        /* \"#utility.yul\":38671:38680   */\n      dup2\n        /* \"#utility.yul\":38665:38669   */\n      dup2\n        /* \"#utility.yul\":38661:38681   */\n      sub\n        /* \"#utility.yul\":38657:38658   */\n      0x00\n        /* \"#utility.yul\":38646:38655   */\n      dup4\n        /* \"#utility.yul\":38642:38659   */\n      add\n        /* \"#utility.yul\":38635:38682   */\n      mstore\n        /* \"#utility.yul\":38699:38830   */\n      tag_1149\n        /* \"#utility.yul\":38825:38829   */\n      dup2\n        /* \"#utility.yul\":38699:38830   */\n      tag_713\n      jump\t// in\n    tag_1149:\n        /* \"#utility.yul\":38691:38830   */\n      swap1\n      pop\n        /* \"#utility.yul\":38418:38837   */\n      swap2\n      swap1\n      pop\n      jump\t// out\n        /* \"#utility.yul\":38843:39013   */\n    tag_714:\n        /* \"#utility.yul\":38983:39005   */\n      0x5769746864726177206e6f742070656e64696e67000000000000000000000000\n        /* \"#utility.yul\":38979:38980   */\n      0x00\n        /* \"#utility.yul\":38971:38977   */\n      dup3\n        /* \"#utility.yul\":38967:38981   */\n      add\n        /* \"#utility.yul\":38960:39006   */\n      mstore\n        /* \"#utility.yul\":38843:39013   */\n      pop\n      jump\t// out\n        /* \"#utility.yul\":39019:39385   */\n    tag_715:\n        /* \"#utility.yul\":39161:39164   */\n      0x00\n        /* \"#utility.yul\":39182:39249   */\n      tag_1152\n        /* \"#utility.yul\":39246:39248   */\n      0x14\n        /* \"#utility.yul\":39241:39244   */\n      dup4\n        /* \"#utility.yul\":39182:39249   */\n      tag_651\n      jump\t// in\n    tag_1152:\n        /* \"#utility.yul\":39175:39249   */\n      swap2\n      pop\n        /* \"#utility.yul\":39258:39351   */\n      tag_1153\n        /* \"#utility.yul\":39347:39350   */\n      dup3\n        /* \"#utility.yul\":39258:39351   */\n      tag_714\n      jump\t// in\n    tag_1153:\n        /* \"#utility.yul\":39376:39378   */\n      0x20\n        /* \"#utility.yul\":39371:39374   */\n      dup3\n        /* \"#utility.yul\":39367:39379   */\n      add\n        /* \"#utility.yul\":39360:39379   */\n      swap1\n      pop\n        /* \"#utility.yul\":39019:39385   */\n      swap2\n      swap1\n      pop\n      jump\t// out\n        /* \"#utility.yul\":39391:39810   */\n    tag_307:\n        /* \"#utility.yul\":39557:39561   */\n      0x00\n        /* \"#utility.yul\":39595:39597   */\n      0x20\n        /* \"#utility.yul\":39584:39593   */\n      dup3\n        /* \"#utility.yul\":39580:39598   */\n      add\n        /* \"#utility.yul\":39572:39598   */\n      swap1\n      pop\n        /* \"#utility.yul\":39644:39653   */\n      dup2\n        /* \"#utility.yul\":39638:39642   */\n      dup2\n        /* \"#utility.yul\":39634:39654   */\n      sub\n        /* \"#utility.yul\":39630:39631   */\n      0x00\n        /* \"#utility.yul\":39619:39628   */\n      dup4\n        /* \"#utility.yul\":39615:39632   */\n      add\n        /* \"#utility.yul\":39608:39655   */\n      mstore\n        /* \"#utility.yul\":39672:39803   */\n      tag_1155\n        /* \"#utility.yul\":39798:39802   */\n      dup2\n        /* \"#utility.yul\":39672:39803   */\n      tag_715\n      jump\t// in\n    tag_1155:\n        /* \"#utility.yul\":39664:39803   */\n      swap1\n      pop\n        /* \"#utility.yul\":39391:39810   */\n      swap2\n      swap1\n      pop\n      jump\t// out\n        /* \"#utility.yul\":39816:39991   */\n    tag_716:\n        /* \"#utility.yul\":39956:39983   */\n      0x576974686472617720616d6f756e7420696e636f727265637400000000000000\n        /* \"#utility.yul\":39952:39953   */\n      0x00\n        /* \"#utility.yul\":39944:39950   */\n      dup3\n        /* \"#utility.yul\":39940:39954   */\n      add\n        /* \"#utility.yul\":39933:39984   */\n      mstore\n        /* \"#utility.yul\":39816:39991   */\n      pop\n      jump\t// out\n        /* \"#utility.yul\":39997:40363   */\n    tag_717:\n        /* \"#utility.yul\":40139:40142   */\n      0x00\n        /* \"#utility.yul\":40160:40227   */\n      tag_1158\n        /* \"#utility.yul\":40224:40226   */\n      0x19\n        /* \"#utility.yul\":40219:40222   */\n      dup4\n        /* \"#utility.yul\":40160:40227   */\n      tag_651\n      jump\t// in\n    tag_1158:\n        /* \"#utility.yul\":40153:40227   */\n      swap2\n      pop\n        /* \"#utility.yul\":40236:40329   */\n      tag_1159\n        /* \"#utility.yul\":40325:40328   */\n      dup3\n        /* \"#utility.yul\":40236:40329   */\n      tag_716\n      jump\t// in\n    tag_1159:\n        /* \"#utility.yul\":40354:40356   */\n      0x20\n        /* \"#utility.yul\":40349:40352   */\n      dup3\n        /* \"#utility.yul\":40345:40357   */\n      add\n        /* \"#utility.yul\":40338:40357   */\n      swap1\n      pop\n        /* \"#utility.yul\":39997:40363   */\n      swap2\n      swap1\n      pop\n      jump\t// out\n        /* \"#utility.yul\":40369:40788   */\n    tag_310:\n        /* \"#utility.yul\":40535:40539   */\n      0x00\n        /* \"#utility.yul\":40573:40575   */\n      0x20\n        /* \"#utility.yul\":40562:40571   */\n      dup3\n        /* \"#utility.yul\":40558:40576   */\n      add\n        /* \"#utility.yul\":40550:40576   */\n      swap1\n      pop\n        /* \"#utility.yul\":40622:40631   */\n      dup2\n        /* \"#utility.yul\":40616:40620   */\n      dup2\n        /* \"#utility.yul\":40612:40632   */\n      sub\n        /* \"#utility.yul\":40608:40609   */\n      0x00\n        /* \"#utility.yul\":40597:40606   */\n      dup4\n        /* \"#utility.yul\":40593:40610   */\n      add\n        /* \"#utility.yul\":40586:40633   */\n      mstore\n        /* \"#utility.yul\":40650:40781   */\n      tag_1161\n        /* \"#utility.yul\":40776:40780   */\n      dup2\n        /* \"#utility.yul\":40650:40781   */\n      tag_717\n      jump\t// in\n    tag_1161:\n        /* \"#utility.yul\":40642:40781   */\n      swap1\n      pop\n        /* \"#utility.yul\":40369:40788   */\n      swap2\n      swap1\n      pop\n      jump\t// out\n        /* \"#utility.yul\":40794:40965   */\n    tag_718:\n        /* \"#utility.yul\":40934:40957   */\n      0x77697468647261775f636f6e6669726d5f736974650000000000000000000000\n        /* \"#utility.yul\":40930:40931   */\n      0x00\n        /* \"#utility.yul\":40922:40928   */\n      dup3\n        /* \"#utility.yul\":40918:40932   */\n      add\n        /* \"#utility.yul\":40911:40958   */\n      mstore\n        /* \"#utility.yul\":40794:40965   */\n      pop\n      jump\t// out\n        /* \"#utility.yul\":40971:41337   */\n    tag_719:\n        /* \"#utility.yul\":41113:41116   */\n      0x00\n        /* \"#utility.yul\":41134:41201   */\n      tag_1164\n        /* \"#utility.yul\":41198:41200   */\n      0x15\n        /* \"#utility.yul\":41193:41196   */\n      dup4\n        /* \"#utility.yul\":41134:41201   */\n      tag_651\n      jump\t// in\n    tag_1164:\n        /* \"#utility.yul\":41127:41201   */\n      swap2\n      pop\n        /* \"#utility.yul\":41210:41303   */\n      tag_1165\n        /* \"#utility.yul\":41299:41302   */\n      dup3\n        /* \"#utility.yul\":41210:41303   */\n      tag_718\n      jump\t// in\n    tag_1165:\n        /* \"#utility.yul\":41328:41330   */\n      0x20\n        /* \"#utility.yul\":41323:41326   */\n      dup3\n        /* \"#utility.yul\":41319:41331   */\n      add\n        /* \"#utility.yul\":41312:41331   */\n      swap1\n      pop\n        /* \"#utility.yul\":40971:41337   */\n      swap2\n      swap1\n      pop\n      jump\t// out\n        /* \"#utility.yul\":41343:42184   */\n    tag_316:\n        /* \"#utility.yul\":41613:41617   */\n      0x00\n        /* \"#utility.yul\":41651:41654   */\n      0x80\n        /* \"#utility.yul\":41640:41649   */\n      dup3\n        /* \"#utility.yul\":41636:41655   */\n      add\n        /* \"#utility.yul\":41628:41655   */\n      swap1\n      pop\n        /* \"#utility.yul\":41701:41710   */\n      dup2\n        /* \"#utility.yul\":41695:41699   */\n      dup2\n        /* \"#utility.yul\":41691:41711   */\n      sub\n        /* \"#utility.yul\":41687:41688   */\n      0x00\n        /* \"#utility.yul\":41676:41685   */\n      dup4\n        /* \"#utility.yul\":41672:41689   */\n      add\n        /* \"#utility.yul\":41665:41712   */\n      mstore\n        /* \"#utility.yul\":41729:41860   */\n      tag_1167\n        /* \"#utility.yul\":41855:41859   */\n      dup2\n        /* \"#utility.yul\":41729:41860   */\n      tag_719\n      jump\t// in\n    tag_1167:\n        /* \"#utility.yul\":41721:41860   */\n      swap1\n      pop\n        /* \"#utility.yul\":41907:41916   */\n      dup2\n        /* \"#utility.yul\":41901:41905   */\n      dup2\n        /* \"#utility.yul\":41897:41917   */\n      sub\n        /* \"#utility.yul\":41892:41894   */\n      0x20\n        /* \"#utility.yul\":41881:41890   */\n      dup4\n        /* \"#utility.yul\":41877:41895   */\n      add\n        /* \"#utility.yul\":41870:41918   */\n      mstore\n        /* \"#utility.yul\":41935:42013   */\n      tag_1168\n        /* \"#utility.yul\":42008:42012   */\n      dup2\n        /* \"#utility.yul\":41999:42005   */\n      dup7\n        /* \"#utility.yul\":41935:42013   */\n      tag_653\n      jump\t// in\n    tag_1168:\n        /* \"#utility.yul\":41927:42013   */\n      swap1\n      pop\n        /* \"#utility.yul\":42023:42095   */\n      tag_1169\n        /* \"#utility.yul\":42091:42093   */\n      0x40\n        /* \"#utility.yul\":42080:42089   */\n      dup4\n        /* \"#utility.yul\":42076:42094   */\n      add\n        /* \"#utility.yul\":42067:42073   */\n      dup6\n        /* \"#utility.yul\":42023:42095   */\n      tag_654\n      jump\t// in\n    tag_1169:\n        /* \"#utility.yul\":42105:42177   */\n      tag_1170\n        /* \"#utility.yul\":42173:42175   */\n      0x60\n        /* \"#utility.yul\":42162:42171   */\n      dup4\n        /* \"#utility.yul\":42158:42176   */\n      add\n        /* \"#utility.yul\":42149:42155   */\n      dup5\n        /* \"#utility.yul\":42105:42177   */\n      tag_638\n      jump\t// in\n    tag_1170:\n        /* \"#utility.yul\":41343:42184   */\n      swap5\n      swap4\n      pop\n      pop\n      pop\n      pop\n      jump\t// out\n        /* \"#utility.yul\":42190:42361   */\n    tag_720:\n        /* \"#utility.yul\":42330:42353   */\n      0x5661756c7420616c7265616479206578697374732e0000000000000000000000\n        /* \"#utility.yul\":42326:42327   */\n      0x00\n        /* \"#utility.yul\":42318:42324   */\n      dup3\n        /* \"#utility.yul\":42314:42328   */\n      add\n        /* \"#utility.yul\":42307:42354   */\n      mstore\n        /* \"#utility.yul\":42190:42361   */\n      pop\n      jump\t// out\n        /* \"#utility.yul\":42367:42733   */\n    tag_721:\n        /* \"#utility.yul\":42509:42512   */\n      0x00\n        /* \"#utility.yul\":42530:42597   */\n      tag_1173\n        /* \"#utility.yul\":42594:42596   */\n      0x15\n        /* \"#utility.yul\":42589:42592   */\n      dup4\n        /* \"#utility.yul\":42530:42597   */\n      tag_651\n      jump\t// in\n    tag_1173:\n        /* \"#utility.yul\":42523:42597   */\n      swap2\n      pop\n        /* \"#utility.yul\":42606:42699   */\n      tag_1174\n        /* \"#utility.yul\":42695:42698   */\n      dup3\n        /* \"#utility.yul\":42606:42699   */\n      tag_720\n      jump\t// in\n    tag_1174:\n        /* \"#utility.yul\":42724:42726   */\n      0x20\n        /* \"#utility.yul\":42719:42722   */\n      dup3\n        /* \"#utility.yul\":42715:42727   */\n      add\n        /* \"#utility.yul\":42708:42727   */\n      swap1\n      pop\n        /* \"#utility.yul\":42367:42733   */\n      swap2\n      swap1\n      pop\n      jump\t// out\n        /* \"#utility.yul\":42739:43158   */\n    tag_326:\n        /* \"#utility.yul\":42905:42909   */\n      0x00\n        /* \"#utility.yul\":42943:42945   */\n      0x20\n        /* \"#utility.yul\":42932:42941   */\n      dup3\n        /* \"#utility.yul\":42928:42946   */\n      add\n        /* \"#utility.yul\":42920:42946   */\n      swap1\n      pop\n        /* \"#utility.yul\":42992:43001   */\n      dup2\n        /* \"#utility.yul\":42986:42990   */\n      dup2\n        /* \"#utility.yul\":42982:43002   */\n      sub\n        /* \"#utility.yul\":42978:42979   */\n      0x00\n        /* \"#utility.yul\":42967:42976   */\n      dup4\n        /* \"#utility.yul\":42963:42980   */\n      add\n        /* \"#utility.yul\":42956:43003   */\n      mstore\n        /* \"#utility.yul\":43020:43151   */\n      tag_1176\n        /* \"#utility.yul\":43146:43150   */\n      dup2\n        /* \"#utility.yul\":43020:43151   */\n      tag_721\n      jump\t// in\n    tag_1176:\n        /* \"#utility.yul\":43012:43151   */\n      swap1\n      pop\n        /* \"#utility.yul\":42739:43158   */\n      swap2\n      swap1\n      pop\n      jump\t// out\n        /* \"#utility.yul\":43164:43326   */\n    tag_722:\n        /* \"#utility.yul\":43304:43318   */\n      0x7661756c745f6372656174650000000000000000000000000000000000000000\n        /* \"#utility.yul\":43300:43301   */\n      0x00\n        /* \"#utility.yul\":43292:43298   */\n      dup3\n        /* \"#utility.yul\":43288:43302   */\n      add\n        /* \"#utility.yul\":43281:43319   */\n      mstore\n        /* \"#utility.yul\":43164:43326   */\n      pop\n      jump\t// out\n        /* \"#utility.yul\":43332:43698   */\n    tag_723:\n        /* \"#utility.yul\":43474:43477   */\n      0x00\n        /* \"#utility.yul\":43495:43562   */\n      tag_1179\n        /* \"#utility.yul\":43559:43561   */\n      0x0c\n        /* \"#utility.yul\":43554:43557   */\n      dup4\n        /* \"#utility.yul\":43495:43562   */\n      tag_651\n      jump\t// in\n    tag_1179:\n        /* \"#utility.yul\":43488:43562   */\n      swap2\n      pop\n        /* \"#utility.yul\":43571:43664   */\n      tag_1180\n        /* \"#utility.yul\":43660:43663   */\n      dup3\n        /* \"#utility.yul\":43571:43664   */\n      tag_722\n      jump\t// in\n    tag_1180:\n        /* \"#utility.yul\":43689:43691   */\n      0x20\n        /* \"#utility.yul\":43684:43687   */\n      dup3\n        /* \"#utility.yul\":43680:43692   */\n      add\n        /* \"#utility.yul\":43673:43692   */\n      swap1\n      pop\n        /* \"#utility.yul\":43332:43698   */\n      swap2\n      swap1\n      pop\n      jump\t// out\n        /* \"#utility.yul\":43704:44561   */\n    tag_335:\n        /* \"#utility.yul\":43982:43986   */\n      0x00\n        /* \"#utility.yul\":44020:44023   */\n      0x80\n        /* \"#utility.yul\":44009:44018   */\n      dup3\n        /* \"#utility.yul\":44005:44024   */\n      add\n        /* \"#utility.yul\":43997:44024   */\n      swap1\n      pop\n        /* \"#utility.yul\":44070:44079   */\n      dup2\n        /* \"#utility.yul\":44064:44068   */\n      dup2\n        /* \"#utility.yul\":44060:44080   */\n      sub\n        /* \"#utility.yul\":44056:44057   */\n      0x00\n        /* \"#utility.yul\":44045:44054   */\n      dup4\n        /* \"#utility.yul\":44041:44058   */\n      add\n        /* \"#utility.yul\":44034:44081   */\n      mstore\n        /* \"#utility.yul\":44098:44229   */\n      tag_1182\n        /* \"#utility.yul\":44224:44228   */\n      dup2\n        /* \"#utility.yul\":44098:44229   */\n      tag_723\n      jump\t// in\n    tag_1182:\n        /* \"#utility.yul\":44090:44229   */\n      swap1\n      pop\n        /* \"#utility.yul\":44276:44285   */\n      dup2\n        /* \"#utility.yul\":44270:44274   */\n      dup2\n        /* \"#utility.yul\":44266:44286   */\n      sub\n        /* \"#utility.yul\":44261:44263   */\n      0x20\n        /* \"#utility.yul\":44250:44259   */\n      dup4\n        /* \"#utility.yul\":44246:44264   */\n      add\n        /* \"#utility.yul\":44239:44287   */\n      mstore\n        /* \"#utility.yul\":44304:44382   */\n      tag_1183\n        /* \"#utility.yul\":44377:44381   */\n      dup2\n        /* \"#utility.yul\":44368:44374   */\n      dup7\n        /* \"#utility.yul\":44304:44382   */\n      tag_653\n      jump\t// in\n    tag_1183:\n        /* \"#utility.yul\":44296:44382   */\n      swap1\n      pop\n        /* \"#utility.yul\":44392:44464   */\n      tag_1184\n        /* \"#utility.yul\":44460:44462   */\n      0x40\n        /* \"#utility.yul\":44449:44458   */\n      dup4\n        /* \"#utility.yul\":44445:44463   */\n      add\n        /* \"#utility.yul\":44436:44442   */\n      dup6\n        /* \"#utility.yul\":44392:44464   */\n      tag_654\n      jump\t// in\n    tag_1184:\n        /* \"#utility.yul\":44474:44554   */\n      tag_1185\n        /* \"#utility.yul\":44550:44552   */\n      0x60\n        /* \"#utility.yul\":44539:44548   */\n      dup4\n        /* \"#utility.yul\":44535:44553   */\n      add\n        /* \"#utility.yul\":44526:44532   */\n      dup5\n        /* \"#utility.yul\":44474:44554   */\n      tag_699\n      jump\t// in\n    tag_1185:\n        /* \"#utility.yul\":43704:44561   */\n      swap5\n      swap4\n      pop\n      pop\n      pop\n      pop\n      jump\t// out\n        /* \"#utility.yul\":44567:44742   */\n    tag_724:\n        /* \"#utility.yul\":44707:44734   */\n      0x4163636f756e7420696e636f7272656374207374617475732e00000000000000\n        /* \"#utility.yul\":44703:44704   */\n      0x00\n        /* \"#utility.yul\":44695:44701   */\n      dup3\n        /* \"#utility.yul\":44691:44705   */\n      add\n        /* \"#utility.yul\":44684:44735   */\n      mstore\n        /* \"#utility.yul\":44567:44742   */\n      pop\n      jump\t// out\n        /* \"#utility.yul\":44748:45114   */\n    tag_725:\n        /* \"#utility.yul\":44890:44893   */\n      0x00\n        /* \"#utility.yul\":44911:44978   */\n      tag_1188\n        /* \"#utility.yul\":44975:44977   */\n      0x19\n        /* \"#utility.yul\":44970:44973   */\n      dup4\n        /* \"#utility.yul\":44911:44978   */\n      tag_651\n      jump\t// in\n    tag_1188:\n        /* \"#utility.yul\":44904:44978   */\n      swap2\n      pop\n        /* \"#utility.yul\":44987:45080   */\n      tag_1189\n        /* \"#utility.yul\":45076:45079   */\n      dup3\n        /* \"#utility.yul\":44987:45080   */\n      tag_724\n      jump\t// in\n    tag_1189:\n        /* \"#utility.yul\":45105:45107   */\n      0x20\n        /* \"#utility.yul\":45100:45103   */\n      dup3\n        /* \"#utility.yul\":45096:45108   */\n      add\n        /* \"#utility.yul\":45089:45108   */\n      swap1\n      pop\n        /* \"#utility.yul\":44748:45114   */\n      swap2\n      swap1\n      pop\n      jump\t// out\n        /* \"#utility.yul\":45120:45539   */\n    tag_346:\n        /* \"#utility.yul\":45286:45290   */\n      0x00\n        /* \"#utility.yul\":45324:45326   */\n      0x20\n        /* \"#utility.yul\":45313:45322   */\n      dup3\n        /* \"#utility.yul\":45309:45327   */\n      add\n        /* \"#utility.yul\":45301:45327   */\n      swap1\n      pop\n        /* \"#utility.yul\":45373:45382   */\n      dup2\n        /* \"#utility.yul\":45367:45371   */\n      dup2\n        /* \"#utility.yul\":45363:45383   */\n      sub\n        /* \"#utility.yul\":45359:45360   */\n      0x00\n        /* \"#utility.yul\":45348:45357   */\n      dup4\n        /* \"#utility.yul\":45344:45361   */\n      add\n        /* \"#utility.yul\":45337:45384   */\n      mstore\n        /* \"#utility.yul\":45401:45532   */\n      tag_1191\n        /* \"#utility.yul\":45527:45531   */\n      dup2\n        /* \"#utility.yul\":45401:45532   */\n      tag_725\n      jump\t// in\n    tag_1191:\n        /* \"#utility.yul\":45393:45532   */\n      swap1\n      pop\n        /* \"#utility.yul\":45120:45539   */\n      swap2\n      swap1\n      pop\n      jump\t// out\n        /* \"#utility.yul\":45545:45707   */\n    tag_726:\n        /* \"#utility.yul\":45685:45699   */\n      0x6163636f756e745f6c6f636b0000000000000000000000000000000000000000\n        /* \"#utility.yul\":45681:45682   */\n      0x00\n        /* \"#utility.yul\":45673:45679   */\n      dup3\n        /* \"#utility.yul\":45669:45683   */\n      add\n        /* \"#utility.yul\":45662:45700   */\n      mstore\n        /* \"#utility.yul\":45545:45707   */\n      pop\n      jump\t// out\n        /* \"#utility.yul\":45713:46079   */\n    tag_727:\n        /* \"#utility.yul\":45855:45858   */\n      0x00\n        /* \"#utility.yul\":45876:45943   */\n      tag_1194\n        /* \"#utility.yul\":45940:45942   */\n      0x0c\n        /* \"#utility.yul\":45935:45938   */\n      dup4\n        /* \"#utility.yul\":45876:45943   */\n      tag_651\n      jump\t// in\n    tag_1194:\n        /* \"#utility.yul\":45869:45943   */\n      swap2\n      pop\n        /* \"#utility.yul\":45952:46045   */\n      tag_1195\n        /* \"#utility.yul\":46041:46044   */\n      dup3\n        /* \"#utility.yul\":45952:46045   */\n      tag_726\n      jump\t// in\n    tag_1195:\n        /* \"#utility.yul\":46070:46072   */\n      0x20\n        /* \"#utility.yul\":46065:46068   */\n      dup3\n        /* \"#utility.yul\":46061:46073   */\n      add\n        /* \"#utility.yul\":46054:46073   */\n      swap1\n      pop\n        /* \"#utility.yul\":45713:46079   */\n      swap2\n      swap1\n      pop\n      jump\t// out\n        /* \"#utility.yul\":46085:46942   */\n    tag_351:\n        /* \"#utility.yul\":46363:46367   */\n      0x00\n        /* \"#utility.yul\":46401:46404   */\n      0x80\n        /* \"#utility.yul\":46390:46399   */\n      dup3\n        /* \"#utility.yul\":46386:46405   */\n      add\n        /* \"#utility.yul\":46378:46405   */\n      swap1\n      pop\n        /* \"#utility.yul\":46451:46460   */\n      dup2\n        /* \"#utility.yul\":46445:46449   */\n      dup2\n        /* \"#utility.yul\":46441:46461   */\n      sub\n        /* \"#utility.yul\":46437:46438   */\n      0x00\n        /* \"#utility.yul\":46426:46435   */\n      dup4\n        /* \"#utility.yul\":46422:46439   */\n      add\n        /* \"#utility.yul\":46415:46462   */\n      mstore\n        /* \"#utility.yul\":46479:46610   */\n      tag_1197\n        /* \"#utility.yul\":46605:46609   */\n      dup2\n        /* \"#utility.yul\":46479:46610   */\n      tag_727\n      jump\t// in\n    tag_1197:\n        /* \"#utility.yul\":46471:46610   */\n      swap1\n      pop\n        /* \"#utility.yul\":46657:46666   */\n      dup2\n        /* \"#utility.yul\":46651:46655   */\n      dup2\n        /* \"#utility.yul\":46647:46667   */\n      sub\n        /* \"#utility.yul\":46642:46644   */\n      0x20\n        /* \"#utility.yul\":46631:46640   */\n      dup4\n        /* \"#utility.yul\":46627:46645   */\n      add\n        /* \"#utility.yul\":46620:46668   */\n      mstore\n        /* \"#utility.yul\":46685:46763   */\n      tag_1198\n        /* \"#utility.yul\":46758:46762   */\n      dup2\n        /* \"#utility.yul\":46749:46755   */\n      dup7\n        /* \"#utility.yul\":46685:46763   */\n      tag_653\n      jump\t// in\n    tag_1198:\n        /* \"#utility.yul\":46677:46763   */\n      swap1\n      pop\n        /* \"#utility.yul\":46773:46845   */\n      tag_1199\n        /* \"#utility.yul\":46841:46843   */\n      0x40\n        /* \"#utility.yul\":46830:46839   */\n      dup4\n        /* \"#utility.yul\":46826:46844   */\n      add\n        /* \"#utility.yul\":46817:46823   */\n      dup6\n        /* \"#utility.yul\":46773:46845   */\n      tag_654\n      jump\t// in\n    tag_1199:\n        /* \"#utility.yul\":46855:46935   */\n      tag_1200\n        /* \"#utility.yul\":46931:46933   */\n      0x60\n        /* \"#utility.yul\":46920:46929   */\n      dup4\n        /* \"#utility.yul\":46916:46934   */\n      add\n        /* \"#utility.yul\":46907:46913   */\n      dup5\n        /* \"#utility.yul\":46855:46935   */\n      tag_699\n      jump\t// in\n    tag_1200:\n        /* \"#utility.yul\":46085:46942   */\n      swap5\n      swap4\n      pop\n      pop\n      pop\n      pop\n      jump\t// out\n        /* \"#utility.yul\":46948:47124   */\n    tag_728:\n        /* \"#utility.yul\":47088:47116   */\n      0x4163636f756e74206172626974726174696f6e20766f7465642e000000000000\n        /* \"#utility.yul\":47084:47085   */\n      0x00\n        /* \"#utility.yul\":47076:47082   */\n      dup3\n        /* \"#utility.yul\":47072:47086   */\n      add\n        /* \"#utility.yul\":47065:47117   */\n      mstore\n        /* \"#utility.yul\":46948:47124   */\n      pop\n      jump\t// out\n        /* \"#utility.yul\":47130:47496   */\n    tag_729:\n        /* \"#utility.yul\":47272:47275   */\n      0x00\n        /* \"#utility.yul\":47293:47360   */\n      tag_1203\n        /* \"#utility.yul\":47357:47359   */\n      0x1a\n        /* \"#utility.yul\":47352:47355   */\n      dup4\n        /* \"#utility.yul\":47293:47360   */\n      tag_651\n      jump\t// in\n    tag_1203:\n        /* \"#utility.yul\":47286:47360   */\n      swap2\n      pop\n        /* \"#utility.yul\":47369:47462   */\n      tag_1204\n        /* \"#utility.yul\":47458:47461   */\n      dup3\n        /* \"#utility.yul\":47369:47462   */\n      tag_728\n      jump\t// in\n    tag_1204:\n        /* \"#utility.yul\":47487:47489   */\n      0x20\n        /* \"#utility.yul\":47482:47485   */\n      dup3\n        /* \"#utility.yul\":47478:47490   */\n      add\n        /* \"#utility.yul\":47471:47490   */\n      swap1\n      pop\n        /* \"#utility.yul\":47130:47496   */\n      swap2\n      swap1\n      pop\n      jump\t// out\n        /* \"#utility.yul\":47502:47921   */\n    tag_356:\n        /* \"#utility.yul\":47668:47672   */\n      0x00\n        /* \"#utility.yul\":47706:47708   */\n      0x20\n        /* \"#utility.yul\":47695:47704   */\n      dup3\n        /* \"#utility.yul\":47691:47709   */\n      add\n        /* \"#utility.yul\":47683:47709   */\n      swap1\n      pop\n        /* \"#utility.yul\":47755:47764   */\n      dup2\n        /* \"#utility.yul\":47749:47753   */\n      dup2\n        /* \"#utility.yul\":47745:47765   */\n      sub\n        /* \"#utility.yul\":47741:47742   */\n      0x00\n        /* \"#utility.yul\":47730:47739   */\n      dup4\n        /* \"#utility.yul\":47726:47743   */\n      add\n        /* \"#utility.yul\":47719:47766   */\n      mstore\n        /* \"#utility.yul\":47783:47914   */\n      tag_1206\n        /* \"#utility.yul\":47909:47913   */\n      dup2\n        /* \"#utility.yul\":47783:47914   */\n      tag_729\n      jump\t// in\n    tag_1206:\n        /* \"#utility.yul\":47775:47914   */\n      swap1\n      pop\n        /* \"#utility.yul\":47502:47921   */\n      swap2\n      swap1\n      pop\n      jump\t// out\n        /* \"#utility.yul\":47927:48202   */\n    tag_363:\n        /* \"#utility.yul\":47966:47973   */\n      0x00\n        /* \"#utility.yul\":47989:48008   */\n      tag_1208\n        /* \"#utility.yul\":48006:48007   */\n      dup3\n        /* \"#utility.yul\":47989:48008   */\n      tag_655\n      jump\t// in\n    tag_1208:\n        /* \"#utility.yul\":47984:48008   */\n      swap2\n      pop\n        /* \"#utility.yul\":48022:48041   */\n      tag_1209\n        /* \"#utility.yul\":48039:48040   */\n      dup4\n        /* \"#utility.yul\":48022:48041   */\n      tag_655\n      jump\t// in\n    tag_1209:\n        /* \"#utility.yul\":48017:48041   */\n      swap3\n      pop\n        /* \"#utility.yul\":48076:48077   */\n      dup3\n        /* \"#utility.yul\":48073:48074   */\n      dup3\n        /* \"#utility.yul\":48069:48078   */\n      mul\n        /* \"#utility.yul\":48098:48127   */\n      tag_1210\n        /* \"#utility.yul\":48115:48126   */\n      dup2\n        /* \"#utility.yul\":48098:48127   */\n      tag_655\n      jump\t// in\n    tag_1210:\n        /* \"#utility.yul\":48087:48127   */\n      swap2\n      pop\n        /* \"#utility.yul\":48159:48170   */\n      dup1\n        /* \"#utility.yul\":48150:48157   */\n      dup3\n        /* \"#utility.yul\":48147:48171   */\n      eq\n        /* \"#utility.yul\":48137:48195   */\n      tag_1211\n      jumpi\n        /* \"#utility.yul\":48175:48193   */\n      tag_1212\n      tag_672\n      jump\t// in\n    tag_1212:\n        /* \"#utility.yul\":48137:48195   */\n    tag_1211:\n        /* \"#utility.yul\":47974:48202   */\n      pop\n        /* \"#utility.yul\":47927:48202   */\n      swap3\n      swap2\n      pop\n      pop\n      jump\t// out\n        /* \"#utility.yul\":48208:48388   */\n    tag_730:\n        /* \"#utility.yul\":48256:48333   */\n      0x4e487b7100000000000000000000000000000000000000000000000000000000\n        /* \"#utility.yul\":48253:48254   */\n      0x00\n        /* \"#utility.yul\":48246:48334   */\n      mstore\n        /* \"#utility.yul\":48353:48357   */\n      0x12\n        /* \"#utility.yul\":48350:48351   */\n      0x04\n        /* \"#utility.yul\":48343:48358   */\n      mstore\n        /* \"#utility.yul\":48377:48381   */\n      0x24\n        /* \"#utility.yul\":48374:48375   */\n      0x00\n        /* \"#utility.yul\":48367:48382   */\n      revert\n        /* \"#utility.yul\":48394:48576   */\n    tag_365:\n        /* \"#utility.yul\":48433:48434   */\n      0x00\n        /* \"#utility.yul\":48450:48469   */\n      tag_1215\n        /* \"#utility.yul\":48467:48468   */\n      dup3\n        /* \"#utility.yul\":48450:48469   */\n      tag_655\n      jump\t// in\n    tag_1215:\n        /* \"#utility.yul\":48445:48469   */\n      swap2\n      pop\n        /* \"#utility.yul\":48483:48502   */\n      tag_1216\n        /* \"#utility.yul\":48500:48501   */\n      dup4\n        /* \"#utility.yul\":48483:48502   */\n      tag_655\n      jump\t// in\n    tag_1216:\n        /* \"#utility.yul\":48478:48502   */\n      swap3\n      pop\n        /* \"#utility.yul\":48521:48522   */\n      dup3\n        /* \"#utility.yul\":48511:48546   */\n      tag_1217\n      jumpi\n        /* \"#utility.yul\":48526:48544   */\n      tag_1218\n      tag_730\n      jump\t// in\n    tag_1218:\n        /* \"#utility.yul\":48511:48546   */\n    tag_1217:\n        /* \"#utility.yul\":48568:48569   */\n      dup3\n        /* \"#utility.yul\":48565:48566   */\n      dup3\n        /* \"#utility.yul\":48561:48570   */\n      div\n        /* \"#utility.yul\":48556:48570   */\n      swap1\n      pop\n        /* \"#utility.yul\":48394:48576   */\n      swap3\n      swap2\n      pop\n      pop\n      jump\t// out\n        /* \"#utility.yul\":48582:48748   */\n    tag_731:\n        /* \"#utility.yul\":48722:48740   */\n      0x6172626974726174696f6e5f766f746500000000000000000000000000000000\n        /* \"#utility.yul\":48718:48719   */\n      0x00\n        /* \"#utility.yul\":48710:48716   */\n      dup3\n        /* \"#utility.yul\":48706:48720   */\n      add\n        /* \"#utility.yul\":48699:48741   */\n      mstore\n        /* \"#utility.yul\":48582:48748   */\n      pop\n      jump\t// out\n        /* \"#utility.yul\":48754:49120   */\n    tag_732:\n        /* \"#utility.yul\":48896:48899   */\n      0x00\n        /* \"#utility.yul\":48917:48984   */\n      tag_1221\n        /* \"#utility.yul\":48981:48983   */\n      0x10\n        /* \"#utility.yul\":48976:48979   */\n      dup4\n        /* \"#utility.yul\":48917:48984   */\n      tag_651\n      jump\t// in\n    tag_1221:\n        /* \"#utility.yul\":48910:48984   */\n      swap2\n      pop\n        /* \"#utility.yul\":48993:49086   */\n      tag_1222\n        /* \"#utility.yul\":49082:49085   */\n      dup3\n        /* \"#utility.yul\":48993:49086   */\n      tag_731\n      jump\t// in\n    tag_1222:\n        /* \"#utility.yul\":49111:49113   */\n      0x20\n        /* \"#utility.yul\":49106:49109   */\n      dup3\n        /* \"#utility.yul\":49102:49114   */\n      add\n        /* \"#utility.yul\":49095:49114   */\n      swap1\n      pop\n        /* \"#utility.yul\":48754:49120   */\n      swap2\n      swap1\n      pop\n      jump\t// out\n        /* \"#utility.yul\":49126:49965   */\n    tag_371:\n        /* \"#utility.yul\":49395:49399   */\n      0x00\n        /* \"#utility.yul\":49433:49436   */\n      0x80\n        /* \"#utility.yul\":49422:49431   */\n      dup3\n        /* \"#utility.yul\":49418:49437   */\n      add\n        /* \"#utility.yul\":49410:49437   */\n      swap1\n      pop\n        /* \"#utility.yul\":49483:49492   */\n      dup2\n        /* \"#utility.yul\":49477:49481   */\n      dup2\n        /* \"#utility.yul\":49473:49493   */\n      sub\n        /* \"#utility.yul\":49469:49470   */\n      0x00\n        /* \"#utility.yul\":49458:49467   */\n      dup4\n        /* \"#utility.yul\":49454:49471   */\n      add\n        /* \"#utility.yul\":49447:49494   */\n      mstore\n        /* \"#utility.yul\":49511:49642   */\n      tag_1224\n        /* \"#utility.yul\":49637:49641   */\n      dup2\n        /* \"#utility.yul\":49511:49642   */\n      tag_732\n      jump\t// in\n    tag_1224:\n        /* \"#utility.yul\":49503:49642   */\n      swap1\n      pop\n        /* \"#utility.yul\":49689:49698   */\n      dup2\n        /* \"#utility.yul\":49683:49687   */\n      dup2\n        /* \"#utility.yul\":49679:49699   */\n      sub\n        /* \"#utility.yul\":49674:49676   */\n      0x20\n        /* \"#utility.yul\":49663:49672   */\n      dup4\n        /* \"#utility.yul\":49659:49677   */\n      add\n        /* \"#utility.yul\":49652:49700   */\n      mstore\n        /* \"#utility.yul\":49717:49795   */\n      tag_1225\n        /* \"#utility.yul\":49790:49794   */\n      dup2\n        /* \"#utility.yul\":49781:49787   */\n      dup7\n        /* \"#utility.yul\":49717:49795   */\n      tag_653\n      jump\t// in\n    tag_1225:\n        /* \"#utility.yul\":49709:49795   */\n      swap1\n      pop\n        /* \"#utility.yul\":49805:49877   */\n      tag_1226\n        /* \"#utility.yul\":49873:49875   */\n      0x40\n        /* \"#utility.yul\":49862:49871   */\n      dup4\n        /* \"#utility.yul\":49858:49876   */\n      add\n        /* \"#utility.yul\":49849:49855   */\n      dup6\n        /* \"#utility.yul\":49805:49877   */\n      tag_654\n      jump\t// in\n    tag_1226:\n        /* \"#utility.yul\":49887:49958   */\n      tag_1227\n        /* \"#utility.yul\":49954:49956   */\n      0x60\n        /* \"#utility.yul\":49943:49952   */\n      dup4\n        /* \"#utility.yul\":49939:49957   */\n      add\n        /* \"#utility.yul\":49930:49936   */\n      dup5\n        /* \"#utility.yul\":49887:49958   */\n      tag_692\n      jump\t// in\n    tag_1227:\n        /* \"#utility.yul\":49126:49965   */\n      swap5\n      swap4\n      pop\n      pop\n      pop\n      pop\n      jump\t// out\n        /* \"#utility.yul\":49971:50142   */\n    tag_733:\n        /* \"#utility.yul\":50111:50134   */\n      0x5769746864726177206e6f7420616c6c6f7765642e0000000000000000000000\n        /* \"#utility.yul\":50107:50108   */\n      0x00\n        /* \"#utility.yul\":50099:50105   */\n      dup3\n        /* \"#utility.yul\":50095:50109   */\n      add\n        /* \"#utility.yul\":50088:50135   */\n      mstore\n        /* \"#utility.yul\":49971:50142   */\n      pop\n      jump\t// out\n        /* \"#utility.yul\":50148:50514   */\n    tag_734:\n        /* \"#utility.yul\":50290:50293   */\n      0x00\n        /* \"#utility.yul\":50311:50378   */\n      tag_1230\n        /* \"#utility.yul\":50375:50377   */\n      0x15\n        /* \"#utility.yul\":50370:50373   */\n      dup4\n        /* \"#utility.yul\":50311:50378   */\n      tag_651\n      jump\t// in\n    tag_1230:\n        /* \"#utility.yul\":50304:50378   */\n      swap2\n      pop\n        /* \"#utility.yul\":50387:50480   */\n      tag_1231\n        /* \"#utility.yul\":50476:50479   */\n      dup3\n        /* \"#utility.yul\":50387:50480   */\n      tag_733\n      jump\t// in\n    tag_1231:\n        /* \"#utility.yul\":50505:50507   */\n      0x20\n        /* \"#utility.yul\":50500:50503   */\n      dup3\n        /* \"#utility.yul\":50496:50508   */\n      add\n        /* \"#utility.yul\":50489:50508   */\n      swap1\n      pop\n        /* \"#utility.yul\":50148:50514   */\n      swap2\n      swap1\n      pop\n      jump\t// out\n        /* \"#utility.yul\":50520:50939   */\n    tag_404:\n        /* \"#utility.yul\":50686:50690   */\n      0x00\n        /* \"#utility.yul\":50724:50726   */\n      0x20\n        /* \"#utility.yul\":50713:50722   */\n      dup3\n        /* \"#utility.yul\":50709:50727   */\n      add\n        /* \"#utility.yul\":50701:50727   */\n      swap1\n      pop\n        /* \"#utility.yul\":50773:50782   */\n      dup2\n        /* \"#utility.yul\":50767:50771   */\n      dup2\n        /* \"#utility.yul\":50763:50783   */\n      sub\n        /* \"#utility.yul\":50759:50760   */\n      0x00\n        /* \"#utility.yul\":50748:50757   */\n      dup4\n        /* \"#utility.yul\":50744:50761   */\n      add\n        /* \"#utility.yul\":50737:50784   */\n      mstore\n        /* \"#utility.yul\":50801:50932   */\n      tag_1233\n        /* \"#utility.yul\":50927:50931   */\n      dup2\n        /* \"#utility.yul\":50801:50932   */\n      tag_734\n      jump\t// in\n    tag_1233:\n        /* \"#utility.yul\":50793:50932   */\n      swap1\n      pop\n        /* \"#utility.yul\":50520:50939   */\n      swap2\n      swap1\n      pop\n      jump\t// out\n        /* \"#utility.yul\":50945:51122   */\n    tag_735:\n        /* \"#utility.yul\":51085:51114   */\n      0x576974686472617720616c7265616479207265717565737465642e0000000000\n        /* \"#utility.yul\":51081:51082   */\n      0x00\n        /* \"#utility.yul\":51073:51079   */\n      dup3\n        /* \"#utility.yul\":51069:51083   */\n      add\n        /* \"#utility.yul\":51062:51115   */\n      mstore\n        /* \"#utility.yul\":50945:51122   */\n      pop\n      jump\t// out\n        /* \"#utility.yul\":51128:51494   */\n    tag_736:\n        /* \"#utility.yul\":51270:51273   */\n      0x00\n        /* \"#utility.yul\":51291:51358   */\n      tag_1236\n        /* \"#utility.yul\":51355:51357   */\n      0x1b\n        /* \"#utility.yul\":51350:51353   */\n      dup4\n        /* \"#utility.yul\":51291:51358   */\n      tag_651\n      jump\t// in\n    tag_1236:\n        /* \"#utility.yul\":51284:51358   */\n      swap2\n      pop\n        /* \"#utility.yul\":51367:51460   */\n      tag_1237\n        /* \"#utility.yul\":51456:51459   */\n      dup3\n        /* \"#utility.yul\":51367:51460   */\n      tag_735\n      jump\t// in\n    tag_1237:\n        /* \"#utility.yul\":51485:51487   */\n      0x20\n        /* \"#utility.yul\":51480:51483   */\n      dup3\n        /* \"#utility.yul\":51476:51488   */\n      add\n        /* \"#utility.yul\":51469:51488   */\n      swap1\n      pop\n        /* \"#utility.yul\":51128:51494   */\n      swap2\n      swap1\n      pop\n      jump\t// out\n        /* \"#utility.yul\":51500:51919   */\n    tag_413:\n        /* \"#utility.yul\":51666:51670   */\n      0x00\n        /* \"#utility.yul\":51704:51706   */\n      0x20\n        /* \"#utility.yul\":51693:51702   */\n      dup3\n        /* \"#utility.yul\":51689:51707   */\n      add\n        /* \"#utility.yul\":51681:51707   */\n      swap1\n      pop\n        /* \"#utility.yul\":51753:51762   */\n      dup2\n        /* \"#utility.yul\":51747:51751   */\n      dup2\n        /* \"#utility.yul\":51743:51763   */\n      sub\n        /* \"#utility.yul\":51739:51740   */\n      0x00\n        /* \"#utility.yul\":51728:51737   */\n      dup4\n        /* \"#utility.yul\":51724:51741   */\n      add\n        /* \"#utility.yul\":51717:51764   */\n      mstore\n        /* \"#utility.yul\":51781:51912   */\n      tag_1239\n        /* \"#utility.yul\":51907:51911   */\n      dup2\n        /* \"#utility.yul\":51781:51912   */\n      tag_736\n      jump\t// in\n    tag_1239:\n        /* \"#utility.yul\":51773:51912   */\n      swap1\n      pop\n        /* \"#utility.yul\":51500:51919   */\n      swap2\n      swap1\n      pop\n      jump\t// out\n        /* \"#utility.yul\":51925:52105   */\n    tag_737:\n        /* \"#utility.yul\":52065:52097   */\n      0x576974686472617720616d6f756e742062656c6f77206d696e696d756d2e0000\n        /* \"#utility.yul\":52061:52062   */\n      0x00\n        /* \"#utility.yul\":52053:52059   */\n      dup3\n        /* \"#utility.yul\":52049:52063   */\n      add\n        /* \"#utility.yul\":52042:52098   */\n      mstore\n        /* \"#utility.yul\":51925:52105   */\n      pop\n      jump\t// out\n        /* \"#utility.yul\":52111:52477   */\n    tag_738:\n        /* \"#utility.yul\":52253:52256   */\n      0x00\n        /* \"#utility.yul\":52274:52341   */\n      tag_1242\n        /* \"#utility.yul\":52338:52340   */\n      0x1e\n        /* \"#utility.yul\":52333:52336   */\n      dup4\n        /* \"#utility.yul\":52274:52341   */\n      tag_651\n      jump\t// in\n    tag_1242:\n        /* \"#utility.yul\":52267:52341   */\n      swap2\n      pop\n        /* \"#utility.yul\":52350:52443   */\n      tag_1243\n        /* \"#utility.yul\":52439:52442   */\n      dup3\n        /* \"#utility.yul\":52350:52443   */\n      tag_737\n      jump\t// in\n    tag_1243:\n        /* \"#utility.yul\":52468:52470   */\n      0x20\n        /* \"#utility.yul\":52463:52466   */\n      dup3\n        /* \"#utility.yul\":52459:52471   */\n      add\n        /* \"#utility.yul\":52452:52471   */\n      swap1\n      pop\n        /* \"#utility.yul\":52111:52477   */\n      swap2\n      swap1\n      pop\n      jump\t// out\n        /* \"#utility.yul\":52483:52902   */\n    tag_416:\n        /* \"#utility.yul\":52649:52653   */\n      0x00\n        /* \"#utility.yul\":52687:52689   */\n      0x20\n        /* \"#utility.yul\":52676:52685   */\n      dup3\n        /* \"#utility.yul\":52672:52690   */\n      add\n        /* \"#utility.yul\":52664:52690   */\n      swap1\n      pop\n        /* \"#utility.yul\":52736:52745   */\n      dup2\n        /* \"#utility.yul\":52730:52734   */\n      dup2\n        /* \"#utility.yul\":52726:52746   */\n      sub\n        /* \"#utility.yul\":52722:52723   */\n      0x00\n        /* \"#utility.yul\":52711:52720   */\n      dup4\n        /* \"#utility.yul\":52707:52724   */\n      add\n        /* \"#utility.yul\":52700:52747   */\n      mstore\n        /* \"#utility.yul\":52764:52895   */\n      tag_1245\n        /* \"#utility.yul\":52890:52894   */\n      dup2\n        /* \"#utility.yul\":52764:52895   */\n      tag_738\n      jump\t// in\n    tag_1245:\n        /* \"#utility.yul\":52756:52895   */\n      swap1\n      pop\n        /* \"#utility.yul\":52483:52902   */\n      swap2\n      swap1\n      pop\n      jump\t// out\n        /* \"#utility.yul\":52908:53087   */\n    tag_739:\n        /* \"#utility.yul\":53048:53079   */\n      0x576974686472617720616d6f756e742061626f7665206d6178696d756d000000\n        /* \"#utility.yul\":53044:53045   */\n      0x00\n        /* \"#utility.yul\":53036:53042   */\n      dup3\n        /* \"#utility.yul\":53032:53046   */\n      add\n        /* \"#utility.yul\":53025:53080   */\n      mstore\n        /* \"#utility.yul\":52908:53087   */\n      pop\n      jump\t// out\n        /* \"#utility.yul\":53093:53459   */\n    tag_740:\n        /* \"#utility.yul\":53235:53238   */\n      0x00\n        /* \"#utility.yul\":53256:53323   */\n      tag_1248\n        /* \"#utility.yul\":53320:53322   */\n      0x1d\n        /* \"#utility.yul\":53315:53318   */\n      dup4\n        /* \"#utility.yul\":53256:53323   */\n      tag_651\n      jump\t// in\n    tag_1248:\n        /* \"#utility.yul\":53249:53323   */\n      swap2\n      pop\n        /* \"#utility.yul\":53332:53425   */\n      tag_1249\n        /* \"#utility.yul\":53421:53424   */\n      dup3\n        /* \"#utility.yul\":53332:53425   */\n      tag_739\n      jump\t// in\n    tag_1249:\n        /* \"#utility.yul\":53450:53452   */\n      0x20\n        /* \"#utility.yul\":53445:53448   */\n      dup3\n        /* \"#utility.yul\":53441:53453   */\n      add\n        /* \"#utility.yul\":53434:53453   */\n      swap1\n      pop\n        /* \"#utility.yul\":53093:53459   */\n      swap2\n      swap1\n      pop\n      jump\t// out\n        /* \"#utility.yul\":53465:53884   */\n    tag_419:\n        /* \"#utility.yul\":53631:53635   */\n      0x00\n        /* \"#utility.yul\":53669:53671   */\n      0x20\n        /* \"#utility.yul\":53658:53667   */\n      dup3\n        /* \"#utility.yul\":53654:53672   */\n      add\n        /* \"#utility.yul\":53646:53672   */\n      swap1\n      pop\n        /* \"#utility.yul\":53718:53727   */\n      dup2\n        /* \"#utility.yul\":53712:53716   */\n      dup2\n        /* \"#utility.yul\":53708:53728   */\n      sub\n        /* \"#utility.yul\":53704:53705   */\n      0x00\n        /* \"#utility.yul\":53693:53702   */\n      dup4\n        /* \"#utility.yul\":53689:53706   */\n      add\n        /* \"#utility.yul\":53682:53729   */\n      mstore\n        /* \"#utility.yul\":53746:53877   */\n      tag_1251\n        /* \"#utility.yul\":53872:53876   */\n      dup2\n        /* \"#utility.yul\":53746:53877   */\n      tag_740\n      jump\t// in\n    tag_1251:\n        /* \"#utility.yul\":53738:53877   */\n      swap1\n      pop\n        /* \"#utility.yul\":53465:53884   */\n      swap2\n      swap1\n      pop\n      jump\t// out\n        /* \"#utility.yul\":53890:54081   */\n    tag_422:\n        /* \"#utility.yul\":53930:53933   */\n      0x00\n        /* \"#utility.yul\":53949:53969   */\n      tag_1253\n        /* \"#utility.yul\":53967:53968   */\n      dup3\n        /* \"#utility.yul\":53949:53969   */\n      tag_637\n      jump\t// in\n    tag_1253:\n        /* \"#utility.yul\":53944:53969   */\n      swap2\n      pop\n        /* \"#utility.yul\":53983:54003   */\n      tag_1254\n        /* \"#utility.yul\":54001:54002   */\n      dup4\n        /* \"#utility.yul\":53983:54003   */\n      tag_637\n      jump\t// in\n    tag_1254:\n        /* \"#utility.yul\":53978:54003   */\n      swap3\n      pop\n        /* \"#utility.yul\":54026:54027   */\n      dup3\n        /* \"#utility.yul\":54023:54024   */\n      dup3\n        /* \"#utility.yul\":54019:54028   */\n      add\n        /* \"#utility.yul\":54012:54028   */\n      swap1\n      pop\n        /* \"#utility.yul\":54047:54050   */\n      dup1\n        /* \"#utility.yul\":54044:54045   */\n      dup3\n        /* \"#utility.yul\":54041:54051   */\n      gt\n        /* \"#utility.yul\":54038:54074   */\n      iszero\n      tag_1255\n      jumpi\n        /* \"#utility.yul\":54054:54072   */\n      tag_1256\n      tag_672\n      jump\t// in\n    tag_1256:\n        /* \"#utility.yul\":54038:54074   */\n    tag_1255:\n        /* \"#utility.yul\":53890:54081   */\n      swap3\n      swap2\n      pop\n      pop\n      jump\t// out\n        /* \"#utility.yul\":54087:54262   */\n    tag_741:\n        /* \"#utility.yul\":54227:54254   */\n      0x5769746864726177206f76657220706f6f6c206c696d69742e00000000000000\n        /* \"#utility.yul\":54223:54224   */\n      0x00\n        /* \"#utility.yul\":54215:54221   */\n      dup3\n        /* \"#utility.yul\":54211:54225   */\n      add\n        /* \"#utility.yul\":54204:54255   */\n      mstore\n        /* \"#utility.yul\":54087:54262   */\n      pop\n      jump\t// out\n        /* \"#utility.yul\":54268:54634   */\n    tag_742:\n        /* \"#utility.yul\":54410:54413   */\n      0x00\n        /* \"#utility.yul\":54431:54498   */\n      tag_1259\n        /* \"#utility.yul\":54495:54497   */\n      0x19\n        /* \"#utility.yul\":54490:54493   */\n      dup4\n        /* \"#utility.yul\":54431:54498   */\n      tag_651\n      jump\t// in\n    tag_1259:\n        /* \"#utility.yul\":54424:54498   */\n      swap2\n      pop\n        /* \"#utility.yul\":54507:54600   */\n      tag_1260\n        /* \"#utility.yul\":54596:54599   */\n      dup3\n        /* \"#utility.yul\":54507:54600   */\n      tag_741\n      jump\t// in\n    tag_1260:\n        /* \"#utility.yul\":54625:54627   */\n      0x20\n        /* \"#utility.yul\":54620:54623   */\n      dup3\n        /* \"#utility.yul\":54616:54628   */\n      add\n        /* \"#utility.yul\":54609:54628   */\n      swap1\n      pop\n        /* \"#utility.yul\":54268:54634   */\n      swap2\n      swap1\n      pop\n      jump\t// out\n        /* \"#utility.yul\":54640:55059   */\n    tag_426:\n        /* \"#utility.yul\":54806:54810   */\n      0x00\n        /* \"#utility.yul\":54844:54846   */\n      0x20\n        /* \"#utility.yul\":54833:54842   */\n      dup3\n        /* \"#utility.yul\":54829:54847   */\n      add\n        /* \"#utility.yul\":54821:54847   */\n      swap1\n      pop\n        /* \"#utility.yul\":54893:54902   */\n      dup2\n        /* \"#utility.yul\":54887:54891   */\n      dup2\n        /* \"#utility.yul\":54883:54903   */\n      sub\n        /* \"#utility.yul\":54879:54880   */\n      0x00\n        /* \"#utility.yul\":54868:54877   */\n      dup4\n        /* \"#utility.yul\":54864:54881   */\n      add\n        /* \"#utility.yul\":54857:54904   */\n      mstore\n        /* \"#utility.yul\":54921:55052   */\n      tag_1262\n        /* \"#utility.yul\":55047:55051   */\n      dup2\n        /* \"#utility.yul\":54921:55052   */\n      tag_742\n      jump\t// in\n    tag_1262:\n        /* \"#utility.yul\":54913:55052   */\n      swap1\n      pop\n        /* \"#utility.yul\":54640:55059   */\n      swap2\n      swap1\n      pop\n      jump\t// out\n        /* \"#utility.yul\":55065:55231   */\n    tag_743:\n        /* \"#utility.yul\":55205:55223   */\n      0x77697468647261775f7265717565737400000000000000000000000000000000\n        /* \"#utility.yul\":55201:55202   */\n      0x00\n        /* \"#utility.yul\":55193:55199   */\n      dup3\n        /* \"#utility.yul\":55189:55203   */\n      add\n        /* \"#utility.yul\":55182:55224   */\n      mstore\n        /* \"#utility.yul\":55065:55231   */\n      pop\n      jump\t// out\n        /* \"#utility.yul\":55237:55603   */\n    tag_744:\n        /* \"#utility.yul\":55379:55382   */\n      0x00\n        /* \"#utility.yul\":55400:55467   */\n      tag_1265\n        /* \"#utility.yul\":55464:55466   */\n      0x10\n        /* \"#utility.yul\":55459:55462   */\n      dup4\n        /* \"#utility.yul\":55400:55467   */\n      tag_651\n      jump\t// in\n    tag_1265:\n        /* \"#utility.yul\":55393:55467   */\n      swap2\n      pop\n        /* \"#utility.yul\":55476:55569   */\n      tag_1266\n        /* \"#utility.yul\":55565:55568   */\n      dup3\n        /* \"#utility.yul\":55476:55569   */\n      tag_743\n      jump\t// in\n    tag_1266:\n        /* \"#utility.yul\":55594:55596   */\n      0x20\n        /* \"#utility.yul\":55589:55592   */\n      dup3\n        /* \"#utility.yul\":55585:55597   */\n      add\n        /* \"#utility.yul\":55578:55597   */\n      swap1\n      pop\n        /* \"#utility.yul\":55237:55603   */\n      swap2\n      swap1\n      pop\n      jump\t// out\n        /* \"#utility.yul\":55609:56450   */\n    tag_435:\n        /* \"#utility.yul\":55879:55883   */\n      0x00\n        /* \"#utility.yul\":55917:55920   */\n      0x80\n        /* \"#utility.yul\":55906:55915   */\n      dup3\n        /* \"#utility.yul\":55902:55921   */\n      add\n        /* \"#utility.yul\":55894:55921   */\n      swap1\n      pop\n        /* \"#utility.yul\":55967:55976   */\n      dup2\n        /* \"#utility.yul\":55961:55965   */\n      dup2\n        /* \"#utility.yul\":55957:55977   */\n      sub\n        /* \"#utility.yul\":55953:55954   */\n      0x00\n        /* \"#utility.yul\":55942:55951   */\n      dup4\n        /* \"#utility.yul\":55938:55955   */\n      add\n        /* \"#utility.yul\":55931:55978   */\n      mstore\n        /* \"#utility.yul\":55995:56126   */\n      tag_1268\n        /* \"#utility.yul\":56121:56125   */\n      dup2\n        /* \"#utility.yul\":55995:56126   */\n      tag_744\n      jump\t// in\n    tag_1268:\n        /* \"#utility.yul\":55987:56126   */\n      swap1\n      pop\n        /* \"#utility.yul\":56173:56182   */\n      dup2\n        /* \"#utility.yul\":56167:56171   */\n      dup2\n        /* \"#utility.yul\":56163:56183   */\n      sub\n        /* \"#utility.yul\":56158:56160   */\n      0x20\n        /* \"#utility.yul\":56147:56156   */\n      dup4\n        /* \"#utility.yul\":56143:56161   */\n      add\n        /* \"#utility.yul\":56136:56184   */\n      mstore\n        /* \"#utility.yul\":56201:56279   */\n      tag_1269\n        /* \"#utility.yul\":56274:56278   */\n      dup2\n        /* \"#utility.yul\":56265:56271   */\n      dup7\n        /* \"#utility.yul\":56201:56279   */\n      tag_653\n      jump\t// in\n    tag_1269:\n        /* \"#utility.yul\":56193:56279   */\n      swap1\n      pop\n        /* \"#utility.yul\":56289:56361   */\n      tag_1270\n        /* \"#utility.yul\":56357:56359   */\n      0x40\n        /* \"#utility.yul\":56346:56355   */\n      dup4\n        /* \"#utility.yul\":56342:56360   */\n      add\n        /* \"#utility.yul\":56333:56339   */\n      dup6\n        /* \"#utility.yul\":56289:56361   */\n      tag_654\n      jump\t// in\n    tag_1270:\n        /* \"#utility.yul\":56371:56443   */\n      tag_1271\n        /* \"#utility.yul\":56439:56441   */\n      0x60\n        /* \"#utility.yul\":56428:56437   */\n      dup4\n        /* \"#utility.yul\":56424:56442   */\n      add\n        /* \"#utility.yul\":56415:56421   */\n      dup5\n        /* \"#utility.yul\":56371:56443   */\n      tag_638\n      jump\t// in\n    tag_1271:\n        /* \"#utility.yul\":55609:56450   */\n      swap5\n      swap4\n      pop\n      pop\n      pop\n      pop\n      jump\t// out\n        /* \"#utility.yul\":56456:56625   */\n    tag_745:\n        /* \"#utility.yul\":56596:56617   */\n      0x4163636f756e74206e6f74206163746976652e00000000000000000000000000\n        /* \"#utility.yul\":56592:56593   */\n      0x00\n        /* \"#utility.yul\":56584:56590   */\n      dup3\n        /* \"#utility.yul\":56580:56594   */\n      add\n        /* \"#utility.yul\":56573:56618   */\n      mstore\n        /* \"#utility.yul\":56456:56625   */\n      pop\n      jump\t// out\n        /* \"#utility.yul\":56631:56997   */\n    tag_746:\n        /* \"#utility.yul\":56773:56776   */\n      0x00\n        /* \"#utility.yul\":56794:56861   */\n      tag_1274\n        /* \"#utility.yul\":56858:56860   */\n      0x13\n        /* \"#utility.yul\":56853:56856   */\n      dup4\n        /* \"#utility.yul\":56794:56861   */\n      tag_651\n      jump\t// in\n    tag_1274:\n        /* \"#utility.yul\":56787:56861   */\n      swap2\n      pop\n        /* \"#utility.yul\":56870:56963   */\n      tag_1275\n        /* \"#utility.yul\":56959:56962   */\n      dup3\n        /* \"#utility.yul\":56870:56963   */\n      tag_745\n      jump\t// in\n    tag_1275:\n        /* \"#utility.yul\":56988:56990   */\n      0x20\n        /* \"#utility.yul\":56983:56986   */\n      dup3\n        /* \"#utility.yul\":56979:56991   */\n      add\n        /* \"#utility.yul\":56972:56991   */\n      swap1\n      pop\n        /* \"#utility.yul\":56631:56997   */\n      swap2\n      swap1\n      pop\n      jump\t// out\n        /* \"#utility.yul\":57003:57422   */\n    tag_444:\n        /* \"#utility.yul\":57169:57173   */\n      0x00\n        /* \"#utility.yul\":57207:57209   */\n      0x20\n        /* \"#utility.yul\":57196:57205   */\n      dup3\n        /* \"#utility.yul\":57192:57210   */\n      add\n        /* \"#utility.yul\":57184:57210   */\n      swap1\n      pop\n        /* \"#utility.yul\":57256:57265   */\n      dup2\n        /* \"#utility.yul\":57250:57254   */\n      dup2\n        /* \"#utility.yul\":57246:57266   */\n      sub\n        /* \"#utility.yul\":57242:57243   */\n      0x00\n        /* \"#utility.yul\":57231:57240   */\n      dup4\n        /* \"#utility.yul\":57227:57244   */\n      add\n        /* \"#utility.yul\":57220:57267   */\n      mstore\n        /* \"#utility.yul\":57284:57415   */\n      tag_1277\n        /* \"#utility.yul\":57410:57414   */\n      dup2\n        /* \"#utility.yul\":57284:57415   */\n      tag_746\n      jump\t// in\n    tag_1277:\n        /* \"#utility.yul\":57276:57415   */\n      swap1\n      pop\n        /* \"#utility.yul\":57003:57422   */\n      swap2\n      swap1\n      pop\n      jump\t// out\n        /* \"#utility.yul\":57428:57593   */\n    tag_747:\n        /* \"#utility.yul\":57568:57585   */\n      0x6163636f756e745f6465706f7369740000000000000000000000000000000000\n        /* \"#utility.yul\":57564:57565   */\n      0x00\n        /* \"#utility.yul\":57556:57562   */\n      dup3\n        /* \"#utility.yul\":57552:57566   */\n      add\n        /* \"#utility.yul\":57545:57586   */\n      mstore\n        /* \"#utility.yul\":57428:57593   */\n      pop\n      jump\t// out\n        /* \"#utility.yul\":57599:57965   */\n    tag_748:\n        /* \"#utility.yul\":57741:57744   */\n      0x00\n        /* \"#utility.yul\":57762:57829   */\n      tag_1280\n        /* \"#utility.yul\":57826:57828   */\n      0x0f\n        /* \"#utility.yul\":57821:57824   */\n      dup4\n        /* \"#utility.yul\":57762:57829   */\n      tag_651\n      jump\t// in\n    tag_1280:\n        /* \"#utility.yul\":57755:57829   */\n      swap2\n      pop\n        /* \"#utility.yul\":57838:57931   */\n      tag_1281\n        /* \"#utility.yul\":57927:57930   */\n      dup3\n        /* \"#utility.yul\":57838:57931   */\n      tag_747\n      jump\t// in\n    tag_1281:\n        /* \"#utility.yul\":57956:57958   */\n      0x20\n        /* \"#utility.yul\":57951:57954   */\n      dup3\n        /* \"#utility.yul\":57947:57959   */\n      add\n        /* \"#utility.yul\":57940:57959   */\n      swap1\n      pop\n        /* \"#utility.yul\":57599:57965   */\n      swap2\n      swap1\n      pop\n      jump\t// out\n        /* \"#utility.yul\":57971:58812   */\n    tag_448:\n        /* \"#utility.yul\":58241:58245   */\n      0x00\n        /* \"#utility.yul\":58279:58282   */\n      0x80\n        /* \"#utility.yul\":58268:58277   */\n      dup3\n        /* \"#utility.yul\":58264:58283   */\n      add\n        /* \"#utility.yul\":58256:58283   */\n      swap1\n      pop\n        /* \"#utility.yul\":58329:58338   */\n      dup2\n        /* \"#utility.yul\":58323:58327   */\n      dup2\n        /* \"#utility.yul\":58319:58339   */\n      sub\n        /* \"#utility.yul\":58315:58316   */\n      0x00\n        /* \"#utility.yul\":58304:58313   */\n      dup4\n        /* \"#utility.yul\":58300:58317   */\n      add\n        /* \"#utility.yul\":58293:58340   */\n      mstore\n        /* \"#utility.yul\":58357:58488   */\n      tag_1283\n        /* \"#utility.yul\":58483:58487   */\n      dup2\n        /* \"#utility.yul\":58357:58488   */\n      tag_748\n      jump\t// in\n    tag_1283:\n        /* \"#utility.yul\":58349:58488   */\n      swap1\n      pop\n        /* \"#utility.yul\":58535:58544   */\n      dup2\n        /* \"#utility.yul\":58529:58533   */\n      dup2\n        /* \"#utility.yul\":58525:58545   */\n      sub\n        /* \"#utility.yul\":58520:58522   */\n      0x20\n        /* \"#utility.yul\":58509:58518   */\n      dup4\n        /* \"#utility.yul\":58505:58523   */\n      add\n        /* \"#utility.yul\":58498:58546   */\n      mstore\n        /* \"#utility.yul\":58563:58641   */\n      tag_1284\n        /* \"#utility.yul\":58636:58640   */\n      dup2\n        /* \"#utility.yul\":58627:58633   */\n      dup7\n        /* \"#utility.yul\":58563:58641   */\n      tag_653\n      jump\t// in\n    tag_1284:\n        /* \"#utility.yul\":58555:58641   */\n      swap1\n      pop\n        /* \"#utility.yul\":58651:58723   */\n      tag_1285\n        /* \"#utility.yul\":58719:58721   */\n      0x40\n        /* \"#utility.yul\":58708:58717   */\n      dup4\n        /* \"#utility.yul\":58704:58722   */\n      add\n        /* \"#utility.yul\":58695:58701   */\n      dup6\n        /* \"#utility.yul\":58651:58723   */\n      tag_654\n      jump\t// in\n    tag_1285:\n        /* \"#utility.yul\":58733:58805   */\n      tag_1286\n        /* \"#utility.yul\":58801:58803   */\n      0x60\n        /* \"#utility.yul\":58790:58799   */\n      dup4\n        /* \"#utility.yul\":58786:58804   */\n      add\n        /* \"#utility.yul\":58777:58783   */\n      dup5\n        /* \"#utility.yul\":58733:58805   */\n      tag_638\n      jump\t// in\n    tag_1286:\n        /* \"#utility.yul\":57971:58812   */\n      swap5\n      swap4\n      pop\n      pop\n      pop\n      pop\n      jump\t// out\n        /* \"#utility.yul\":58818:58988   */\n    tag_749:\n        /* \"#utility.yul\":58958:58980   */\n      0x77697468647261775f72656a6563745f73697465000000000000000000000000\n        /* \"#utility.yul\":58954:58955   */\n      0x00\n        /* \"#utility.yul\":58946:58952   */\n      dup3\n        /* \"#utility.yul\":58942:58956   */\n      add\n        /* \"#utility.yul\":58935:58981   */\n      mstore\n        /* \"#utility.yul\":58818:58988   */\n      pop\n      jump\t// out\n        /* \"#utility.yul\":58994:59360   */\n    tag_750:\n        /* \"#utility.yul\":59136:59139   */\n      0x00\n        /* \"#utility.yul\":59157:59224   */\n      tag_1289\n        /* \"#utility.yul\":59221:59223   */\n      0x14\n        /* \"#utility.yul\":59216:59219   */\n      dup4\n        /* \"#utility.yul\":59157:59224   */\n      tag_651\n      jump\t// in\n    tag_1289:\n        /* \"#utility.yul\":59150:59224   */\n      swap2\n      pop\n        /* \"#utility.yul\":59233:59326   */\n      tag_1290\n        /* \"#utility.yul\":59322:59325   */\n      dup3\n        /* \"#utility.yul\":59233:59326   */\n      tag_749\n      jump\t// in\n    tag_1290:\n        /* \"#utility.yul\":59351:59353   */\n      0x20\n        /* \"#utility.yul\":59346:59349   */\n      dup3\n        /* \"#utility.yul\":59342:59354   */\n      add\n        /* \"#utility.yul\":59335:59354   */\n      swap1\n      pop\n        /* \"#utility.yul\":58994:59360   */\n      swap2\n      swap1\n      pop\n      jump\t// out\n        /* \"#utility.yul\":59366:60207   */\n    tag_487:\n        /* \"#utility.yul\":59636:59640   */\n      0x00\n        /* \"#utility.yul\":59674:59677   */\n      0x80\n        /* \"#utility.yul\":59663:59672   */\n      dup3\n        /* \"#utility.yul\":59659:59678   */\n      add\n        /* \"#utility.yul\":59651:59678   */\n      swap1\n      pop\n        /* \"#utility.yul\":59724:59733   */\n      dup2\n        /* \"#utility.yul\":59718:59722   */\n      dup2\n        /* \"#utility.yul\":59714:59734   */\n      sub\n        /* \"#utility.yul\":59710:59711   */\n      0x00\n        /* \"#utility.yul\":59699:59708   */\n      dup4\n        /* \"#utility.yul\":59695:59712   */\n      add\n        /* \"#utility.yul\":59688:59735   */\n      mstore\n        /* \"#utility.yul\":59752:59883   */\n      tag_1292\n        /* \"#utility.yul\":59878:59882   */\n      dup2\n        /* \"#utility.yul\":59752:59883   */\n      tag_750\n      jump\t// in\n    tag_1292:\n        /* \"#utility.yul\":59744:59883   */\n      swap1\n      pop\n        /* \"#utility.yul\":59930:59939   */\n      dup2\n        /* \"#utility.yul\":59924:59928   */\n      dup2\n        /* \"#utility.yul\":59920:59940   */\n      sub\n        /* \"#utility.yul\":59915:59917   */\n      0x20\n        /* \"#utility.yul\":59904:59913   */\n      dup4\n        /* \"#utility.yul\":59900:59918   */\n      add\n        /* \"#utility.yul\":59893:59941   */\n      mstore\n        /* \"#utility.yul\":59958:60036   */\n      tag_1293\n        /* \"#utility.yul\":60031:60035   */\n      dup2\n        /* \"#utility.yul\":60022:60028   */\n      dup7\n        /* \"#utility.yul\":59958:60036   */\n      tag_653\n      jump\t// in\n    tag_1293:\n        /* \"#utility.yul\":59950:60036   */\n      swap1\n      pop\n        /* \"#utility.yul\":60046:60118   */\n      tag_1294\n        /* \"#utility.yul\":60114:60116   */\n      0x40\n        /* \"#utility.yul\":60103:60112   */\n      dup4\n        /* \"#utility.yul\":60099:60117   */\n      add\n        /* \"#utility.yul\":60090:60096   */\n      dup6\n        /* \"#utility.yul\":60046:60118   */\n      tag_654\n      jump\t// in\n    tag_1294:\n        /* \"#utility.yul\":60128:60200   */\n      tag_1295\n        /* \"#utility.yul\":60196:60198   */\n      0x60\n        /* \"#utility.yul\":60185:60194   */\n      dup4\n        /* \"#utility.yul\":60181:60199   */\n      add\n        /* \"#utility.yul\":60172:60178   */\n      dup5\n        /* \"#utility.yul\":60128:60200   */\n      tag_638\n      jump\t// in\n    tag_1295:\n        /* \"#utility.yul\":59366:60207   */\n      swap5\n      swap4\n      pop\n      pop\n      pop\n      pop\n      jump\t// out\n        /* \"#utility.yul\":60213:60383   */\n    tag_751:\n        /* \"#utility.yul\":60353:60375   */\n      0x6163636f756e745f6f70656e5f636f6e6669726d000000000000000000000000\n        /* \"#utility.yul\":60349:60350   */\n      0x00\n        /* \"#utility.yul\":60341:60347   */\n      dup3\n        /* \"#utility.yul\":60337:60351   */\n      add\n        /* \"#utility.yul\":60330:60376   */\n      mstore\n        /* \"#utility.yul\":60213:60383   */\n      pop\n      jump\t// out\n        /* \"#utility.yul\":60389:60755   */\n    tag_752:\n        /* \"#utility.yul\":60531:60534   */\n      0x00\n        /* \"#utility.yul\":60552:60619   */\n      tag_1298\n        /* \"#utility.yul\":60616:60618   */\n      0x14\n        /* \"#utility.yul\":60611:60614   */\n      dup4\n        /* \"#utility.yul\":60552:60619   */\n      tag_651\n      jump\t// in\n    tag_1298:\n        /* \"#utility.yul\":60545:60619   */\n      swap2\n      pop\n        /* \"#utility.yul\":60628:60721   */\n      tag_1299\n        /* \"#utility.yul\":60717:60720   */\n      dup3\n        /* \"#utility.yul\":60628:60721   */\n      tag_751\n      jump\t// in\n    tag_1299:\n        /* \"#utility.yul\":60746:60748   */\n      0x20\n        /* \"#utility.yul\":60741:60744   */\n      dup3\n        /* \"#utility.yul\":60737:60749   */\n      add\n        /* \"#utility.yul\":60730:60749   */\n      swap1\n      pop\n        /* \"#utility.yul\":60389:60755   */\n      swap2\n      swap1\n      pop\n      jump\t// out\n        /* \"#utility.yul\":60761:61618   */\n    tag_501:\n        /* \"#utility.yul\":61039:61043   */\n      0x00\n        /* \"#utility.yul\":61077:61080   */\n      0x80\n        /* \"#utility.yul\":61066:61075   */\n      dup3\n        /* \"#utility.yul\":61062:61081   */\n      add\n        /* \"#utility.yul\":61054:61081   */\n      swap1\n      pop\n        /* \"#utility.yul\":61127:61136   */\n      dup2\n        /* \"#utility.yul\":61121:61125   */\n      dup2\n        /* \"#utility.yul\":61117:61137   */\n      sub\n        /* \"#utility.yul\":61113:61114   */\n      0x00\n        /* \"#utility.yul\":61102:61111   */\n      dup4\n        /* \"#utility.yul\":61098:61115   */\n      add\n        /* \"#utility.yul\":61091:61138   */\n      mstore\n        /* \"#utility.yul\":61155:61286   */\n      tag_1301\n        /* \"#utility.yul\":61281:61285   */\n      dup2\n        /* \"#utility.yul\":61155:61286   */\n      tag_752\n      jump\t// in\n    tag_1301:\n        /* \"#utility.yul\":61147:61286   */\n      swap1\n      pop\n        /* \"#utility.yul\":61333:61342   */\n      dup2\n        /* \"#utility.yul\":61327:61331   */\n      dup2\n        /* \"#utility.yul\":61323:61343   */\n      sub\n        /* \"#utility.yul\":61318:61320   */\n      0x20\n        /* \"#utility.yul\":61307:61316   */\n      dup4\n        /* \"#utility.yul\":61303:61321   */\n      add\n        /* \"#utility.yul\":61296:61344   */\n      mstore\n        /* \"#utility.yul\":61361:61439   */\n      tag_1302\n        /* \"#utility.yul\":61434:61438   */\n      dup2\n        /* \"#utility.yul\":61425:61431   */\n      dup7\n        /* \"#utility.yul\":61361:61439   */\n      tag_653\n      jump\t// in\n    tag_1302:\n        /* \"#utility.yul\":61353:61439   */\n      swap1\n      pop\n        /* \"#utility.yul\":61449:61521   */\n      tag_1303\n        /* \"#utility.yul\":61517:61519   */\n      0x40\n        /* \"#utility.yul\":61506:61515   */\n      dup4\n        /* \"#utility.yul\":61502:61520   */\n      add\n        /* \"#utility.yul\":61493:61499   */\n      dup6\n        /* \"#utility.yul\":61449:61521   */\n      tag_654\n      jump\t// in\n    tag_1303:\n        /* \"#utility.yul\":61531:61611   */\n      tag_1304\n        /* \"#utility.yul\":61607:61609   */\n      0x60\n        /* \"#utility.yul\":61596:61605   */\n      dup4\n        /* \"#utility.yul\":61592:61610   */\n      add\n        /* \"#utility.yul\":61583:61589   */\n      dup5\n        /* \"#utility.yul\":61531:61611   */\n      tag_699\n      jump\t// in\n    tag_1304:\n        /* \"#utility.yul\":60761:61618   */\n      swap5\n      swap4\n      pop\n      pop\n      pop\n      pop\n      jump\t// out\n        /* \"#utility.yul\":61624:61787   */\n    tag_753:\n        /* \"#utility.yul\":61764:61779   */\n      0x6163636f756e745f636c6f736500000000000000000000000000000000000000\n        /* \"#utility.yul\":61760:61761   */\n      0x00\n        /* \"#utility.yul\":61752:61758   */\n      dup3\n        /* \"#utility.yul\":61748:61762   */\n      add\n        /* \"#utility.yul\":61741:61780   */\n      mstore\n        /* \"#utility.yul\":61624:61787   */\n      pop\n      jump\t// out\n        /* \"#utility.yul\":61793:62159   */\n    tag_754:\n        /* \"#utility.yul\":61935:61938   */\n      0x00\n        /* \"#utility.yul\":61956:62023   */\n      tag_1307\n        /* \"#utility.yul\":62020:62022   */\n      0x0d\n        /* \"#utility.yul\":62015:62018   */\n      dup4\n        /* \"#utility.yul\":61956:62023   */\n      tag_651\n      jump\t// in\n    tag_1307:\n        /* \"#utility.yul\":61949:62023   */\n      swap2\n      pop\n        /* \"#utility.yul\":62032:62125   */\n      tag_1308\n        /* \"#utility.yul\":62121:62124   */\n      dup3\n        /* \"#utility.yul\":62032:62125   */\n      tag_753\n      jump\t// in\n    tag_1308:\n        /* \"#utility.yul\":62150:62152   */\n      0x20\n        /* \"#utility.yul\":62145:62148   */\n      dup3\n        /* \"#utility.yul\":62141:62153   */\n      add\n        /* \"#utility.yul\":62134:62153   */\n      swap1\n      pop\n        /* \"#utility.yul\":61793:62159   */\n      swap2\n      swap1\n      pop\n      jump\t// out\n        /* \"#utility.yul\":62165:63004   */\n    tag_517:\n        /* \"#utility.yul\":62434:62438   */\n      0x00\n        /* \"#utility.yul\":62472:62475   */\n      0x80\n        /* \"#utility.yul\":62461:62470   */\n      dup3\n        /* \"#utility.yul\":62457:62476   */\n      add\n        /* \"#utility.yul\":62449:62476   */\n      swap1\n      pop\n        /* \"#utility.yul\":62522:62531   */\n      dup2\n        /* \"#utility.yul\":62516:62520   */\n      dup2\n        /* \"#utility.yul\":62512:62532   */\n      sub\n        /* \"#utility.yul\":62508:62509   */\n      0x00\n        /* \"#utility.yul\":62497:62506   */\n      dup4\n        /* \"#utility.yul\":62493:62510   */\n      add\n        /* \"#utility.yul\":62486:62533   */\n      mstore\n        /* \"#utility.yul\":62550:62681   */\n      tag_1310\n        /* \"#utility.yul\":62676:62680   */\n      dup2\n        /* \"#utility.yul\":62550:62681   */\n      tag_754\n      jump\t// in\n    tag_1310:\n        /* \"#utility.yul\":62542:62681   */\n      swap1\n      pop\n        /* \"#utility.yul\":62728:62737   */\n      dup2\n        /* \"#utility.yul\":62722:62726   */\n      dup2\n        /* \"#utility.yul\":62718:62738   */\n      sub\n        /* \"#utility.yul\":62713:62715   */\n      0x20\n        /* \"#utility.yul\":62702:62711   */\n      dup4\n        /* \"#utility.yul\":62698:62716   */\n      add\n        /* \"#utility.yul\":62691:62739   */\n      mstore\n        /* \"#utility.yul\":62756:62834   */\n      tag_1311\n        /* \"#utility.yul\":62829:62833   */\n      dup2\n        /* \"#utility.yul\":62820:62826   */\n      dup7\n        /* \"#utility.yul\":62756:62834   */\n      tag_653\n      jump\t// in\n    tag_1311:\n        /* \"#utility.yul\":62748:62834   */\n      swap1\n      pop\n        /* \"#utility.yul\":62844:62916   */\n      tag_1312\n        /* \"#utility.yul\":62912:62914   */\n      0x40\n        /* \"#utility.yul\":62901:62910   */\n      dup4\n        /* \"#utility.yul\":62897:62915   */\n      add\n        /* \"#utility.yul\":62888:62894   */\n      dup6\n        /* \"#utility.yul\":62844:62916   */\n      tag_654\n      jump\t// in\n    tag_1312:\n        /* \"#utility.yul\":62926:62997   */\n      tag_1313\n        /* \"#utility.yul\":62993:62995   */\n      0x60\n        /* \"#utility.yul\":62982:62991   */\n      dup4\n        /* \"#utility.yul\":62978:62996   */\n      add\n        /* \"#utility.yul\":62969:62975   */\n      dup5\n        /* \"#utility.yul\":62926:62997   */\n      tag_692\n      jump\t// in\n    tag_1313:\n        /* \"#utility.yul\":62165:63004   */\n      swap5\n      swap4\n      pop\n      pop\n      pop\n      pop\n      jump\t// out\n        /* \"#utility.yul\":63010:63176   */\n    tag_755:\n        /* \"#utility.yul\":63150:63168   */\n      0x536974652061646d696e206f6e6c792e00000000000000000000000000000000\n        /* \"#utility.yul\":63146:63147   */\n      0x00\n        /* \"#utility.yul\":63138:63144   */\n      dup3\n        /* \"#utility.yul\":63134:63148   */\n      add\n        /* \"#utility.yul\":63127:63169   */\n      mstore\n        /* \"#utility.yul\":63010:63176   */\n      pop\n      jump\t// out\n        /* \"#utility.yul\":63182:63548   */\n    tag_756:\n        /* \"#utility.yul\":63324:63327   */\n      0x00\n        /* \"#utility.yul\":63345:63412   */\n      tag_1316\n        /* \"#utility.yul\":63409:63411   */\n      0x10\n        /* \"#utility.yul\":63404:63407   */\n      dup4\n        /* \"#utility.yul\":63345:63412   */\n      tag_651\n      jump\t// in\n    tag_1316:\n        /* \"#utility.yul\":63338:63412   */\n      swap2\n      pop\n        /* \"#utility.yul\":63421:63514   */\n      tag_1317\n        /* \"#utility.yul\":63510:63513   */\n      dup3\n        /* \"#utility.yul\":63421:63514   */\n      tag_755\n      jump\t// in\n    tag_1317:\n        /* \"#utility.yul\":63539:63541   */\n      0x20\n        /* \"#utility.yul\":63534:63537   */\n      dup3\n        /* \"#utility.yul\":63530:63542   */\n      add\n        /* \"#utility.yul\":63523:63542   */\n      swap1\n      pop\n        /* \"#utility.yul\":63182:63548   */\n      swap2\n      swap1\n      pop\n      jump\t// out\n        /* \"#utility.yul\":63554:63973   */\n    tag_524:\n        /* \"#utility.yul\":63720:63724   */\n      0x00\n        /* \"#utility.yul\":63758:63760   */\n      0x20\n        /* \"#utility.yul\":63747:63756   */\n      dup3\n        /* \"#utility.yul\":63743:63761   */\n      add\n        /* \"#utility.yul\":63735:63761   */\n      swap1\n      pop\n        /* \"#utility.yul\":63807:63816   */\n      dup2\n        /* \"#utility.yul\":63801:63805   */\n      dup2\n        /* \"#utility.yul\":63797:63817   */\n      sub\n        /* \"#utility.yul\":63793:63794   */\n      0x00\n        /* \"#utility.yul\":63782:63791   */\n      dup4\n        /* \"#utility.yul\":63778:63795   */\n      add\n        /* \"#utility.yul\":63771:63818   */\n      mstore\n        /* \"#utility.yul\":63835:63966   */\n      tag_1319\n        /* \"#utility.yul\":63961:63965   */\n      dup2\n        /* \"#utility.yul\":63835:63966   */\n      tag_756\n      jump\t// in\n    tag_1319:\n        /* \"#utility.yul\":63827:63966   */\n      swap1\n      pop\n        /* \"#utility.yul\":63554:63973   */\n      swap2\n      swap1\n      pop\n      jump\t// out\n        /* \"#utility.yul\":63979:64146   */\n    tag_757:\n        /* \"#utility.yul\":64119:64138   */\n      0x5661756c74206f776e6572206f6e6c792e000000000000000000000000000000\n        /* \"#utility.yul\":64115:64116   */\n      0x00\n        /* \"#utility.yul\":64107:64113   */\n      dup3\n        /* \"#utility.yul\":64103:64117   */\n      add\n        /* \"#utility.yul\":64096:64139   */\n      mstore\n        /* \"#utility.yul\":63979:64146   */\n      pop\n      jump\t// out\n        /* \"#utility.yul\":64152:64518   */\n    tag_758:\n        /* \"#utility.yul\":64294:64297   */\n      0x00\n        /* \"#utility.yul\":64315:64382   */\n      tag_1322\n        /* \"#utility.yul\":64379:64381   */\n      0x11\n        /* \"#utility.yul\":64374:64377   */\n      dup4\n        /* \"#utility.yul\":64315:64382   */\n      tag_651\n      jump\t// in\n    tag_1322:\n        /* \"#utility.yul\":64308:64382   */\n      swap2\n      pop\n        /* \"#utility.yul\":64391:64484   */\n      tag_1323\n        /* \"#utility.yul\":64480:64483   */\n      dup3\n        /* \"#utility.yul\":64391:64484   */\n      tag_757\n      jump\t// in\n    tag_1323:\n        /* \"#utility.yul\":64509:64511   */\n      0x20\n        /* \"#utility.yul\":64504:64507   */\n      dup3\n        /* \"#utility.yul\":64500:64512   */\n      add\n        /* \"#utility.yul\":64493:64512   */\n      swap1\n      pop\n        /* \"#utility.yul\":64152:64518   */\n      swap2\n      swap1\n      pop\n      jump\t// out\n        /* \"#utility.yul\":64524:64943   */\n    tag_529:\n        /* \"#utility.yul\":64690:64694   */\n      0x00\n        /* \"#utility.yul\":64728:64730   */\n      0x20\n        /* \"#utility.yul\":64717:64726   */\n      dup3\n        /* \"#utility.yul\":64713:64731   */\n      add\n        /* \"#utility.yul\":64705:64731   */\n      swap1\n      pop\n        /* \"#utility.yul\":64777:64786   */\n      dup2\n        /* \"#utility.yul\":64771:64775   */\n      dup2\n        /* \"#utility.yul\":64767:64787   */\n      sub\n        /* \"#utility.yul\":64763:64764   */\n      0x00\n        /* \"#utility.yul\":64752:64761   */\n      dup4\n        /* \"#utility.yul\":64748:64765   */\n      add\n        /* \"#utility.yul\":64741:64788   */\n      mstore\n        /* \"#utility.yul\":64805:64936   */\n      tag_1325\n        /* \"#utility.yul\":64931:64935   */\n      dup2\n        /* \"#utility.yul\":64805:64936   */\n      tag_758\n      jump\t// in\n    tag_1325:\n        /* \"#utility.yul\":64797:64936   */\n      swap1\n      pop\n        /* \"#utility.yul\":64524:64943   */\n      swap2\n      swap1\n      pop\n      jump\t// out\n        /* \"#utility.yul\":64949:65114   */\n    tag_759:\n        /* \"#utility.yul\":65089:65106   */\n      0x55736572206e6f7420666f756e642e0000000000000000000000000000000000\n        /* \"#utility.yul\":65085:65086   */\n      0x00\n        /* \"#utility.yul\":65077:65083   */\n      dup3\n        /* \"#utility.yul\":65073:65087   */\n      add\n        /* \"#utility.yul\":65066:65107   */\n      mstore\n        /* \"#utility.yul\":64949:65114   */\n      pop\n      jump\t// out\n        /* \"#utility.yul\":65120:65486   */\n    tag_760:\n        /* \"#utility.yul\":65262:65265   */\n      0x00\n        /* \"#utility.yul\":65283:65350   */\n      tag_1328\n        /* \"#utility.yul\":65347:65349   */\n      0x0f\n        /* \"#utility.yul\":65342:65345   */\n      dup4\n        /* \"#utility.yul\":65283:65350   */\n      tag_651\n      jump\t// in\n    tag_1328:\n        /* \"#utility.yul\":65276:65350   */\n      swap2\n      pop\n        /* \"#utility.yul\":65359:65452   */\n      tag_1329\n        /* \"#utility.yul\":65448:65451   */\n      dup3\n        /* \"#utility.yul\":65359:65452   */\n      tag_759\n      jump\t// in\n    tag_1329:\n        /* \"#utility.yul\":65477:65479   */\n      0x20\n        /* \"#utility.yul\":65472:65475   */\n      dup3\n        /* \"#utility.yul\":65468:65480   */\n      add\n        /* \"#utility.yul\":65461:65480   */\n      swap1\n      pop\n        /* \"#utility.yul\":65120:65486   */\n      swap2\n      swap1\n      pop\n      jump\t// out\n        /* \"#utility.yul\":65492:65911   */\n    tag_556:\n        /* \"#utility.yul\":65658:65662   */\n      0x00\n        /* \"#utility.yul\":65696:65698   */\n      0x20\n        /* \"#utility.yul\":65685:65694   */\n      dup3\n        /* \"#utility.yul\":65681:65699   */\n      add\n        /* \"#utility.yul\":65673:65699   */\n      swap1\n      pop\n        /* \"#utility.yul\":65745:65754   */\n      dup2\n        /* \"#utility.yul\":65739:65743   */\n      dup2\n        /* \"#utility.yul\":65735:65755   */\n      sub\n        /* \"#utility.yul\":65731:65732   */\n      0x00\n        /* \"#utility.yul\":65720:65729   */\n      dup4\n        /* \"#utility.yul\":65716:65733   */\n      add\n        /* \"#utility.yul\":65709:65756   */\n      mstore\n        /* \"#utility.yul\":65773:65904   */\n      tag_1331\n        /* \"#utility.yul\":65899:65903   */\n      dup2\n        /* \"#utility.yul\":65773:65904   */\n      tag_760\n      jump\t// in\n    tag_1331:\n        /* \"#utility.yul\":65765:65904   */\n      swap1\n      pop\n        /* \"#utility.yul\":65492:65911   */\n      swap2\n      swap1\n      pop\n      jump\t// out\n        /* \"#utility.yul\":65917:66327   */\n    tag_560:\n        /* \"#utility.yul\":65957:65964   */\n      0x00\n        /* \"#utility.yul\":65980:66000   */\n      tag_1333\n        /* \"#utility.yul\":65998:65999   */\n      dup3\n        /* \"#utility.yul\":65980:66000   */\n      tag_637\n      jump\t// in\n    tag_1333:\n        /* \"#utility.yul\":65975:66000   */\n      swap2\n      pop\n        /* \"#utility.yul\":66014:66034   */\n      tag_1334\n        /* \"#utility.yul\":66032:66033   */\n      dup4\n        /* \"#utility.yul\":66014:66034   */\n      tag_637\n      jump\t// in\n    tag_1334:\n        /* \"#utility.yul\":66009:66034   */\n      swap3\n      pop\n        /* \"#utility.yul\":66069:66070   */\n      dup3\n        /* \"#utility.yul\":66066:66067   */\n      dup3\n        /* \"#utility.yul\":66062:66071   */\n      mul\n        /* \"#utility.yul\":66091:66121   */\n      tag_1335\n        /* \"#utility.yul\":66109:66120   */\n      dup2\n        /* \"#utility.yul\":66091:66121   */\n      tag_637\n      jump\t// in\n    tag_1335:\n        /* \"#utility.yul\":66080:66121   */\n      swap2\n      pop\n        /* \"#utility.yul\":66270:66271   */\n      dup3\n        /* \"#utility.yul\":66261:66268   */\n      dup3\n        /* \"#utility.yul\":66257:66272   */\n      div\n        /* \"#utility.yul\":66254:66255   */\n      dup5\n        /* \"#utility.yul\":66251:66273   */\n      eq\n        /* \"#utility.yul\":66231:66232   */\n      dup4\n        /* \"#utility.yul\":66224:66233   */\n      iszero\n        /* \"#utility.yul\":66204:66287   */\n      or\n        /* \"#utility.yul\":66181:66320   */\n      tag_1336\n      jumpi\n        /* \"#utility.yul\":66300:66318   */\n      tag_1337\n      tag_672\n      jump\t// in\n    tag_1337:\n        /* \"#utility.yul\":66181:66320   */\n    tag_1336:\n        /* \"#utility.yul\":65965:66327   */\n      pop\n        /* \"#utility.yul\":65917:66327   */\n      swap3\n      swap2\n      pop\n      pop\n      jump\t// out\n        /* \"#utility.yul\":66333:66518   */\n    tag_562:\n        /* \"#utility.yul\":66373:66374   */\n      0x00\n        /* \"#utility.yul\":66390:66410   */\n      tag_1339\n        /* \"#utility.yul\":66408:66409   */\n      dup3\n        /* \"#utility.yul\":66390:66410   */\n      tag_637\n      jump\t// in\n    tag_1339:\n        /* \"#utility.yul\":66385:66410   */\n      swap2\n      pop\n        /* \"#utility.yul\":66424:66444   */\n      tag_1340\n        /* \"#utility.yul\":66442:66443   */\n      dup4\n        /* \"#utility.yul\":66424:66444   */\n      tag_637\n      jump\t// in\n    tag_1340:\n        /* \"#utility.yul\":66419:66444   */\n      swap3\n      pop\n        /* \"#utility.yul\":66463:66464   */\n      dup3\n        /* \"#utility.yul\":66453:66488   */\n      tag_1341\n      jumpi\n        /* \"#utility.yul\":66468:66486   */\n      tag_1342\n      tag_730\n      jump\t// in\n    tag_1342:\n        /* \"#utility.yul\":66453:66488   */\n    tag_1341:\n        /* \"#utility.yul\":66510:66511   */\n      dup3\n        /* \"#utility.yul\":66507:66508   */\n      dup3\n        /* \"#utility.yul\":66503:66512   */\n      div\n        /* \"#utility.yul\":66498:66512   */\n      swap1\n      pop\n        /* \"#utility.yul\":66333:66518   */\n      swap3\n      swap2\n      pop\n      pop\n      jump\t// out\n        /* \"#utility.yul\":66524:66691   */\n    tag_761:\n        /* \"#utility.yul\":66664:66683   */\n      0x77697468647261775f7472616e73666572000000000000000000000000000000\n        /* \"#utility.yul\":66660:66661   */\n      0x00\n        /* \"#utility.yul\":66652:66658   */\n      dup3\n        /* \"#utility.yul\":66648:66662   */\n      add\n        /* \"#utility.yul\":66641:66684   */\n      mstore\n        /* \"#utility.yul\":66524:66691   */\n      pop\n      jump\t// out\n        /* \"#utility.yul\":66697:67063   */\n    tag_762:\n        /* \"#utility.yul\":66839:66842   */\n      0x00\n        /* \"#utility.yul\":66860:66927   */\n      tag_1345\n        /* \"#utility.yul\":66924:66926   */\n      0x11\n        /* \"#utility.yul\":66919:66922   */\n      dup4\n        /* \"#utility.yul\":66860:66927   */\n      tag_651\n      jump\t// in\n    tag_1345:\n        /* \"#utility.yul\":66853:66927   */\n      swap2\n      pop\n        /* \"#utility.yul\":66936:67029   */\n      tag_1346\n        /* \"#utility.yul\":67025:67028   */\n      dup3\n        /* \"#utility.yul\":66936:67029   */\n      tag_761\n      jump\t// in\n    tag_1346:\n        /* \"#utility.yul\":67054:67056   */\n      0x20\n        /* \"#utility.yul\":67049:67052   */\n      dup3\n        /* \"#utility.yul\":67045:67057   */\n      add\n        /* \"#utility.yul\":67038:67057   */\n      swap1\n      pop\n        /* \"#utility.yul\":66697:67063   */\n      swap2\n      swap1\n      pop\n      jump\t// out\n        /* \"#utility.yul\":67069:67910   */\n    tag_585:\n        /* \"#utility.yul\":67339:67343   */\n      0x00\n        /* \"#utility.yul\":67377:67380   */\n      0x80\n        /* \"#utility.yul\":67366:67375   */\n      dup3\n        /* \"#utility.yul\":67362:67381   */\n      add\n        /* \"#utility.yul\":67354:67381   */\n      swap1\n      pop\n        /* \"#utility.yul\":67427:67436   */\n      dup2\n        /* \"#utility.yul\":67421:67425   */\n      dup2\n        /* \"#utility.yul\":67417:67437   */\n      sub\n        /* \"#utility.yul\":67413:67414   */\n      0x00\n        /* \"#utility.yul\":67402:67411   */\n      dup4\n        /* \"#utility.yul\":67398:67415   */\n      add\n        /* \"#utility.yul\":67391:67438   */\n      mstore\n        /* \"#utility.yul\":67455:67586   */\n      tag_1348\n        /* \"#utility.yul\":67581:67585   */\n      dup2\n        /* \"#utility.yul\":67455:67586   */\n      tag_762\n      jump\t// in\n    tag_1348:\n        /* \"#utility.yul\":67447:67586   */\n      swap1\n      pop\n        /* \"#utility.yul\":67633:67642   */\n      dup2\n        /* \"#utility.yul\":67627:67631   */\n      dup2\n        /* \"#utility.yul\":67623:67643   */\n      sub\n        /* \"#utility.yul\":67618:67620   */\n      0x20\n        /* \"#utility.yul\":67607:67616   */\n      dup4\n        /* \"#utility.yul\":67603:67621   */\n      add\n        /* \"#utility.yul\":67596:67644   */\n      mstore\n        /* \"#utility.yul\":67661:67739   */\n      tag_1349\n        /* \"#utility.yul\":67734:67738   */\n      dup2\n        /* \"#utility.yul\":67725:67731   */\n      dup7\n        /* \"#utility.yul\":67661:67739   */\n      tag_653\n      jump\t// in\n    tag_1349:\n        /* \"#utility.yul\":67653:67739   */\n      swap1\n      pop\n        /* \"#utility.yul\":67749:67821   */\n      tag_1350\n        /* \"#utility.yul\":67817:67819   */\n      0x40\n        /* \"#utility.yul\":67806:67815   */\n      dup4\n        /* \"#utility.yul\":67802:67820   */\n      add\n        /* \"#utility.yul\":67793:67799   */\n      dup6\n        /* \"#utility.yul\":67749:67821   */\n      tag_654\n      jump\t// in\n    tag_1350:\n        /* \"#utility.yul\":67831:67903   */\n      tag_1351\n        /* \"#utility.yul\":67899:67901   */\n      0x60\n        /* \"#utility.yul\":67888:67897   */\n      dup4\n        /* \"#utility.yul\":67884:67902   */\n      add\n        /* \"#utility.yul\":67875:67881   */\n      dup5\n        /* \"#utility.yul\":67831:67903   */\n      tag_638\n      jump\t// in\n    tag_1351:\n        /* \"#utility.yul\":67069:67910   */\n      swap5\n      swap4\n      pop\n      pop\n      pop\n      pop\n      jump\t// out\n        /* \"#utility.yul\":67916:68084   */\n    tag_763:\n        /* \"#utility.yul\":68056:68076   */\n      0x52657175657374206e6f7420666f756e642e0000000000000000000000000000\n        /* \"#utility.yul\":68052:68053   */\n      0x00\n        /* \"#utility.yul\":68044:68050   */\n      dup3\n        /* \"#utility.yul\":68040:68054   */\n      add\n        /* \"#utility.yul\":68033:68077   */\n      mstore\n        /* \"#utility.yul\":67916:68084   */\n      pop\n      jump\t// out\n        /* \"#utility.yul\":68090:68456   */\n    tag_764:\n        /* \"#utility.yul\":68232:68235   */\n      0x00\n        /* \"#utility.yul\":68253:68320   */\n      tag_1354\n        /* \"#utility.yul\":68317:68319   */\n      0x12\n        /* \"#utility.yul\":68312:68315   */\n      dup4\n        /* \"#utility.yul\":68253:68320   */\n      tag_651\n      jump\t// in\n    tag_1354:\n        /* \"#utility.yul\":68246:68320   */\n      swap2\n      pop\n        /* \"#utility.yul\":68329:68422   */\n      tag_1355\n        /* \"#utility.yul\":68418:68421   */\n      dup3\n        /* \"#utility.yul\":68329:68422   */\n      tag_763\n      jump\t// in\n    tag_1355:\n        /* \"#utility.yul\":68447:68449   */\n      0x20\n        /* \"#utility.yul\":68442:68445   */\n      dup3\n        /* \"#utility.yul\":68438:68450   */\n      add\n        /* \"#utility.yul\":68431:68450   */\n      swap1\n      pop\n        /* \"#utility.yul\":68090:68456   */\n      swap2\n      swap1\n      pop\n      jump\t// out\n        /* \"#utility.yul\":68462:68881   */\n    tag_601:\n        /* \"#utility.yul\":68628:68632   */\n      0x00\n        /* \"#utility.yul\":68666:68668   */\n      0x20\n        /* \"#utility.yul\":68655:68664   */\n      dup3\n        /* \"#utility.yul\":68651:68669   */\n      add\n        /* \"#utility.yul\":68643:68669   */\n      swap1\n      pop\n        /* \"#utility.yul\":68715:68724   */\n      dup2\n        /* \"#utility.yul\":68709:68713   */\n      dup2\n        /* \"#utility.yul\":68705:68725   */\n      sub\n        /* \"#utility.yul\":68701:68702   */\n      0x00\n        /* \"#utility.yul\":68690:68699   */\n      dup4\n        /* \"#utility.yul\":68686:68703   */\n      add\n        /* \"#utility.yul\":68679:68726   */\n      mstore\n        /* \"#utility.yul\":68743:68874   */\n      tag_1357\n        /* \"#utility.yul\":68869:68873   */\n      dup2\n        /* \"#utility.yul\":68743:68874   */\n      tag_764\n      jump\t// in\n    tag_1357:\n        /* \"#utility.yul\":68735:68874   */\n      swap1\n      pop\n        /* \"#utility.yul\":68462:68881   */\n      swap2\n      swap1\n      pop\n      jump\t// out\n        /* \"#utility.yul\":68887:69059   */\n    tag_765:\n        /* \"#utility.yul\":69027:69051   */\n      0x5661756c74206d616e6167656d656e74206f6e6c792e00000000000000000000\n        /* \"#utility.yul\":69023:69024   */\n      0x00\n        /* \"#utility.yul\":69015:69021   */\n      dup3\n        /* \"#utility.yul\":69011:69025   */\n      add\n        /* \"#utility.yul\":69004:69052   */\n      mstore\n        /* \"#utility.yul\":68887:69059   */\n      pop\n      jump\t// out\n        /* \"#utility.yul\":69065:69431   */\n    tag_766:\n        /* \"#utility.yul\":69207:69210   */\n      0x00\n        /* \"#utility.yul\":69228:69295   */\n      tag_1360\n        /* \"#utility.yul\":69292:69294   */\n      0x16\n        /* \"#utility.yul\":69287:69290   */\n      dup4\n        /* \"#utility.yul\":69228:69295   */\n      tag_651\n      jump\t// in\n    tag_1360:\n        /* \"#utility.yul\":69221:69295   */\n      swap2\n      pop\n        /* \"#utility.yul\":69304:69397   */\n      tag_1361\n        /* \"#utility.yul\":69393:69396   */\n      dup3\n        /* \"#utility.yul\":69304:69397   */\n      tag_765\n      jump\t// in\n    tag_1361:\n        /* \"#utility.yul\":69422:69424   */\n      0x20\n        /* \"#utility.yul\":69417:69420   */\n      dup3\n        /* \"#utility.yul\":69413:69425   */\n      add\n        /* \"#utility.yul\":69406:69425   */\n      swap1\n      pop\n        /* \"#utility.yul\":69065:69431   */\n      swap2\n      swap1\n      pop\n      jump\t// out\n        /* \"#utility.yul\":69437:69856   */\n    tag_608:\n        /* \"#utility.yul\":69603:69607   */\n      0x00\n        /* \"#utility.yul\":69641:69643   */\n      0x20\n        /* \"#utility.yul\":69630:69639   */\n      dup3\n        /* \"#utility.yul\":69626:69644   */\n      add\n        /* \"#utility.yul\":69618:69644   */\n      swap1\n      pop\n        /* \"#utility.yul\":69690:69699   */\n      dup2\n        /* \"#utility.yul\":69684:69688   */\n      dup2\n        /* \"#utility.yul\":69680:69700   */\n      sub\n        /* \"#utility.yul\":69676:69677   */\n      0x00\n        /* \"#utility.yul\":69665:69674   */\n      dup4\n        /* \"#utility.yul\":69661:69678   */\n      add\n        /* \"#utility.yul\":69654:69701   */\n      mstore\n        /* \"#utility.yul\":69718:69849   */\n      tag_1363\n        /* \"#utility.yul\":69844:69848   */\n      dup2\n        /* \"#utility.yul\":69718:69849   */\n      tag_766\n      jump\t// in\n    tag_1363:\n        /* \"#utility.yul\":69710:69849   */\n      swap1\n      pop\n        /* \"#utility.yul\":69437:69856   */\n      swap2\n      swap1\n      pop\n      jump\t// out\n\n    auxdata: 0xa2646970667358221220fdb182d174f981cd80caa07c52027ef6471d6a29c08db35a8082a481db2a084b64736f6c63430008140033\n}\n"
  }
}