{
  "devdoc": {
    "methods": {},
    "kind": "dev",
    "version": 1
  },
  "abi": [
    {
      "stateMutability": "nonpayable",
      "type": "constructor",
      "inputs": []
    },
    {
      "anonymous": false,
      "name": "GatewayEvent",
      "type": "event",
      "inputs": [
        {
          "indexed": false,
          "internalType": "string",
          "name": "event_type",
          "type": "string"
        },
        {
          "indexed": false,
          "internalType": "string",
          "name": "event_id",
          "type": "string"
        },
        {
          "indexed": false,
          "internalType": "address",
          "name": "sender",
          "type": "address"
        },
        {
          "indexed": false,
          "internalType": "uint256",
          "name": "value",
          "type": "uint256"
        }
      ]
    },
    {
      "name": "g__SiteAuthority",
      "stateMutability": "view",
      "outputs": [
        {
          "internalType": "address",
          "name": "",
          "type": "address"
        }
      ],
      "type": "function",
      "inputs": []
    },
    {
      "name": "g__SitePaymasters",
      "stateMutability": "view",
      "outputs": [
        {
          "internalType": "address",
          "name": "",
          "type": "address"
        }
      ],
      "type": "function",
      "inputs": [
        {
          "internalType": "string",
          "name": "",
          "type": "string"
        }
      ]
    },
    {
      "name": "g__SiteSupport",
      "stateMutability": "view",
      "outputs": [
        {
          "internalType": "bool",
          "name": "",
          "type": "bool"
        }
      ],
      "type": "function",
      "inputs": [
        {
          "internalType": "address",
          "name": "",
          "type": "address"
        }
      ]
    },
    {
      "name": "payment_native",
      "stateMutability": "payable",
      "outputs": [],
      "type": "function",
      "inputs": [
        {
          "internalType": "string",
          "name": "pay_id",
          "type": "string"
        }
      ]
    },
    {
      "name": "site__add_support",
      "stateMutability": "nonpayable",
      "outputs": [],
      "type": "function",
      "inputs": [
        {
          "internalType": "address",
          "name": "user",
          "type": "address"
        }
      ]
    },
    {
      "name": "site__change_authority",
      "stateMutability": "nonpayable",
      "outputs": [],
      "type": "function",
      "inputs": [
        {
          "internalType": "address",
          "name": "new_authority",
          "type": "address"
        }
      ]
    },
    {
      "name": "site__del_paymaster",
      "stateMutability": "nonpayable",
      "outputs": [],
      "type": "function",
      "inputs": [
        {
          "internalType": "string",
          "name": "pay_id",
          "type": "string"
        }
      ]
    },
    {
      "name": "site__remove_support",
      "stateMutability": "nonpayable",
      "outputs": [],
      "type": "function",
      "inputs": [
        {
          "internalType": "address",
          "name": "user",
          "type": "address"
        }
      ]
    },
    {
      "name": "site__set_paymaster",
      "stateMutability": "nonpayable",
      "outputs": [],
      "type": "function",
      "inputs": [
        {
          "internalType": "string",
          "name": "pay_id",
          "type": "string"
        },
        {
          "internalType": "address",
          "name": "user",
          "type": "address"
        }
      ]
    }
  ],
  "userdoc": {
    "methods": {},
    "kind": "user",
    "version": 1
  },
  "storageLayout": {
    "storage": [
      {
        "offset": 0,
        "slot": "0",
        "label": "g__SiteAuthority",
        "astId": 13,
        "type": "t_address",
        "contract": "temp.sol:StatstradeGateway"
      },
      {
        "offset": 0,
        "slot": "1",
        "label": "g__SiteSupport",
        "astId": 17,
        "type": "t_mapping(t_address,t_bool)",
        "contract": "temp.sol:StatstradeGateway"
      },
      {
        "offset": 0,
        "slot": "2",
        "label": "g__SitePaymasters",
        "astId": 21,
        "type": "t_mapping(t_string_memory_ptr,t_address)",
        "contract": "temp.sol:StatstradeGateway"
      }
    ],
    "types": {
      "t_address": {
        "label": "address",
        "encoding": "inplace",
        "numberOfBytes": "20"
      },
      "t_mapping(t_address,t_bool)": {
        "label": "mapping(address => bool)",
        "key": "t_address",
        "encoding": "mapping",
        "value": "t_bool",
        "numberOfBytes": "32"
      },
      "t_string_memory_ptr": {
        "label": "string",
        "encoding": "bytes",
        "numberOfBytes": "32"
      },
      "t_mapping(t_string_memory_ptr,t_address)": {
        "label": "mapping(string => address)",
        "key": "t_string_memory_ptr",
        "encoding": "mapping",
        "value": "t_address",
        "numberOfBytes": "32"
      },
      "t_bool": {
        "label": "bool",
        "encoding": "inplace",
        "numberOfBytes": "1"
      }
    }
  },
  "evm": {
    "bytecode": {
      "object": "608060405234801561000f575f80fd5b50335f806101000a81548173ffffffffffffffffffffffffffffffffffffffff021916908373ffffffffffffffffffffffffffffffffffffffff160217905550610d7d8061005c5f395ff3fe608060405260043610610085575f3560e01c806354c673bb1161005857806354c673bb1461011d57806395875a6814610159578063d138061c14610183578063f31300b4146101ab578063fcb74bf3146101e757610085565b806330e833c51461008957806336fceb3e146100b157806339becbbe146100d957806353b081d414610101575b5f80fd5b348015610094575f80fd5b506100af60048036038101906100aa9190610913565b61020f565b005b3480156100bc575f80fd5b506100d760048036038101906100d291906109b4565b61025b565b005b3480156100e4575f80fd5b506100ff60048036038101906100fa91906109b4565b61033f565b005b61011b60048036038101906101169190610913565b61040e565b005b348015610128575f80fd5b50610143600480360381019061013e9190610913565b6105a5565b60405161015091906109ee565b60405180910390f35b348015610164575f80fd5b5061016d6105ed565b60405161017a91906109ee565b60405180910390f35b34801561018e575f80fd5b506101a960048036038101906101a49190610a07565b610610565b005b3480156101b6575f80fd5b506101d160048036038101906101cc91906109b4565b610670565b6040516101de9190610a7b565b60405180910390f35b3480156101f2575f80fd5b5061020d600480360381019061020891906109b4565b61068d565b005b610218336106e5565b6002816040516102289190610b00565b90815260200160405180910390205f6101000a81549073ffffffffffffffffffffffffffffffffffffffff021916905550565b5f8054906101000a900473ffffffffffffffffffffffffffffffffffffffff1673ffffffffffffffffffffffffffffffffffffffff163373ffffffffffffffffffffffffffffffffffffffff16146102e8576040517f08c379a00000000000000000000000000000000000000000000000000000000081526004016102df90610b70565b60405180910390fd5b6001805f8373ffffffffffffffffffffffffffffffffffffffff1673ffffffffffffffffffffffffffffffffffffffff1681526020019081526020015f205f6101000a81548160ff02191690831515021790555050565b5f8054906101000a900473ffffffffffffffffffffffffffffffffffffffff1673ffffffffffffffffffffffffffffffffffffffff163373ffffffffffffffffffffffffffffffffffffffff16146103cc576040517f08c379a00000000000000000000000000000000000000000000000000000000081526004016103c390610b70565b60405180910390fd5b805f806101000a81548173ffffffffffffffffffffffffffffffffffffffff021916908373ffffffffffffffffffffffffffffffffffffffff16021790555050565b5f3403610450576040517f08c379a000000000000000000000000000000000000000000000000000000000815260040161044790610bd8565b60405180910390fd5b5f73ffffffffffffffffffffffffffffffffffffffff166002826040516104779190610b00565b90815260200160405180910390205f9054906101000a900473ffffffffffffffffffffffffffffffffffffffff1673ffffffffffffffffffffffffffffffffffffffff1614610503576002816040516104d09190610b00565b90815260200160405180910390205f9054906101000a900473ffffffffffffffffffffffffffffffffffffffff16610524565b5f8054906101000a900473ffffffffffffffffffffffffffffffffffffffff165b73ffffffffffffffffffffffffffffffffffffffff166108fc3490811502906040515f60405180830381858888f19350505050158015610566573d5f803e3d5ffd5b507fca984d4795c249bd1ecbfb259dac94662abd0b3d5262c6204dfbf000368c993e81333460405161059a93929190610c90565b60405180910390a150565b6002818051602081018201805184825260208301602085012081835280955050505050505f915054906101000a900473ffffffffffffffffffffffffffffffffffffffff1681565b5f8054906101000a900473ffffffffffffffffffffffffffffffffffffffff1681565b806002836040516106219190610b00565b90815260200160405180910390205f6101000a81548173ffffffffffffffffffffffffffffffffffffffff021916908373ffffffffffffffffffffffffffffffffffffffff1602179055505050565b6001602052805f5260405f205f915054906101000a900460ff1681565b610696336106e5565b60015f8273ffffffffffffffffffffffffffffffffffffffff1673ffffffffffffffffffffffffffffffffffffffff1681526020019081526020015f205f6101000a81549060ff021916905550565b5f8054906101000a900473ffffffffffffffffffffffffffffffffffffffff1673ffffffffffffffffffffffffffffffffffffffff168173ffffffffffffffffffffffffffffffffffffffff161480610784575060015f8273ffffffffffffffffffffffffffffffffffffffff1673ffffffffffffffffffffffffffffffffffffffff1681526020019081526020015f205f9054906101000a900460ff165b6107c3576040517f08c379a00000000000000000000000000000000000000000000000000000000081526004016107ba90610d29565b60405180910390fd5b50565b5f604051905090565b5f80fd5b5f80fd5b5f80fd5b5f80fd5b5f601f19601f8301169050919050565b7f4e487b71000000000000000000000000000000000000000000000000000000005f52604160045260245ffd5b610825826107df565b810181811067ffffffffffffffff82111715610844576108436107ef565b5b80604052505050565b5f6108566107c6565b9050610862828261081c565b919050565b5f67ffffffffffffffff821115610881576108806107ef565b5b61088a826107df565b9050602081019050919050565b828183375f83830152505050565b5f6108b76108b284610867565b61084d565b9050828152602081018484840111156108d3576108d26107db565b5b6108de848285610897565b509392505050565b5f82601f8301126108fa576108f96107d7565b5b813561090a8482602086016108a5565b91505092915050565b5f60208284031215610928576109276107cf565b5b5f82013567ffffffffffffffff811115610945576109446107d3565b5b610951848285016108e6565b91505092915050565b5f73ffffffffffffffffffffffffffffffffffffffff82169050919050565b5f6109838261095a565b9050919050565b61099381610979565b811461099d575f80fd5b50565b5f813590506109ae8161098a565b92915050565b5f602082840312156109c9576109c86107cf565b5b5f6109d6848285016109a0565b91505092915050565b6109e881610979565b82525050565b5f602082019050610a015f8301846109df565b92915050565b5f8060408385031215610a1d57610a1c6107cf565b5b5f83013567ffffffffffffffff811115610a3a57610a396107d3565b5b610a46858286016108e6565b9250506020610a57858286016109a0565b9150509250929050565b5f8115159050919050565b610a7581610a61565b82525050565b5f602082019050610a8e5f830184610a6c565b92915050565b5f81519050919050565b5f81905092915050565b5f5b83811015610ac5578082015181840152602081019050610aaa565b5f8484015250505050565b5f610ada82610a94565b610ae48185610a9e565b9350610af4818560208601610aa8565b80840191505092915050565b5f610b0b8284610ad0565b915081905092915050565b5f82825260208201905092915050565b7f5369746520617574686f72697479206f6e6c792e0000000000000000000000005f82015250565b5f610b5a601483610b16565b9150610b6582610b26565b602082019050919050565b5f6020820190508181035f830152610b8781610b4e565b9050919050565b7f43616e6e6f74206265207a65726f0000000000000000000000000000000000005f82015250565b5f610bc2600e83610b16565b9150610bcd82610b8e565b602082019050919050565b5f6020820190508181035f830152610bef81610bb6565b9050919050565b7f7061796d656e745f6e61746976650000000000000000000000000000000000005f82015250565b5f610c2a600e83610b16565b9150610c3582610bf6565b602082019050919050565b5f610c4a82610a94565b610c548185610b16565b9350610c64818560208601610aa8565b610c6d816107df565b840191505092915050565b5f819050919050565b610c8a81610c78565b82525050565b5f6080820190508181035f830152610ca781610c1e565b90508181036020830152610cbb8186610c40565b9050610cca60408301856109df565b610cd76060830184610c81565b949350505050565b7f536974652061646d696e206f6e6c792e000000000000000000000000000000005f82015250565b5f610d13601083610b16565b9150610d1e82610cdf565b602082019050919050565b5f6020820190508181035f830152610d4081610d07565b905091905056fea2646970667358221220b2a9c0c7ee087b6f52184c36180e90117c653010234062285a685b0b4a0e4b4a64736f6c63430008140033",
      "linkReferences": {},
      "opcodes": "PUSH1 0x80 PUSH1 0x40 MSTORE CALLVALUE DUP1 ISZERO PUSH2 0xF JUMPI PUSH0 DUP1 REVERT JUMPDEST POP CALLER PUSH0 DUP1 PUSH2 0x100 EXP DUP2 SLOAD DUP2 PUSH20 0xFFFFFFFFFFFFFFFFFFFFFFFFFFFFFFFFFFFFFFFF MUL NOT AND SWAP1 DUP4 PUSH20 0xFFFFFFFFFFFFFFFFFFFFFFFFFFFFFFFFFFFFFFFF AND MUL OR SWAP1 SSTORE POP PUSH2 0xD7D DUP1 PUSH2 0x5C PUSH0 CODECOPY PUSH0 RETURN INVALID PUSH1 0x80 PUSH1 0x40 MSTORE PUSH1 0x4 CALLDATASIZE LT PUSH2 0x85 JUMPI PUSH0 CALLDATALOAD PUSH1 0xE0 SHR DUP1 PUSH4 0x54C673BB GT PUSH2 0x58 JUMPI DUP1 PUSH4 0x54C673BB EQ PUSH2 0x11D JUMPI DUP1 PUSH4 0x95875A68 EQ PUSH2 0x159 JUMPI DUP1 PUSH4 0xD138061C EQ PUSH2 0x183 JUMPI DUP1 PUSH4 0xF31300B4 EQ PUSH2 0x1AB JUMPI DUP1 PUSH4 0xFCB74BF3 EQ PUSH2 0x1E7 JUMPI PUSH2 0x85 JUMP JUMPDEST DUP1 PUSH4 0x30E833C5 EQ PUSH2 0x89 JUMPI DUP1 PUSH4 0x36FCEB3E EQ PUSH2 0xB1 JUMPI DUP1 PUSH4 0x39BECBBE EQ PUSH2 0xD9 JUMPI DUP1 PUSH4 0x53B081D4 EQ PUSH2 0x101 JUMPI JUMPDEST PUSH0 DUP1 REVERT JUMPDEST CALLVALUE DUP1 ISZERO PUSH2 0x94 JUMPI PUSH0 DUP1 REVERT JUMPDEST POP PUSH2 0xAF PUSH1 0x4 DUP1 CALLDATASIZE SUB DUP2 ADD SWAP1 PUSH2 0xAA SWAP2 SWAP1 PUSH2 0x913 JUMP JUMPDEST PUSH2 0x20F JUMP JUMPDEST STOP JUMPDEST CALLVALUE DUP1 ISZERO PUSH2 0xBC JUMPI PUSH0 DUP1 REVERT JUMPDEST POP PUSH2 0xD7 PUSH1 0x4 DUP1 CALLDATASIZE SUB DUP2 ADD SWAP1 PUSH2 0xD2 SWAP2 SWAP1 PUSH2 0x9B4 JUMP JUMPDEST PUSH2 0x25B JUMP JUMPDEST STOP JUMPDEST CALLVALUE DUP1 ISZERO PUSH2 0xE4 JUMPI PUSH0 DUP1 REVERT JUMPDEST POP PUSH2 0xFF PUSH1 0x4 DUP1 CALLDATASIZE SUB DUP2 ADD SWAP1 PUSH2 0xFA SWAP2 SWAP1 PUSH2 0x9B4 JUMP JUMPDEST PUSH2 0x33F JUMP JUMPDEST STOP JUMPDEST PUSH2 0x11B PUSH1 0x4 DUP1 CALLDATASIZE SUB DUP2 ADD SWAP1 PUSH2 0x116 SWAP2 SWAP1 PUSH2 0x913 JUMP JUMPDEST PUSH2 0x40E JUMP JUMPDEST STOP JUMPDEST CALLVALUE DUP1 ISZERO PUSH2 0x128 JUMPI PUSH0 DUP1 REVERT JUMPDEST POP PUSH2 0x143 PUSH1 0x4 DUP1 CALLDATASIZE SUB DUP2 ADD SWAP1 PUSH2 0x13E SWAP2 SWAP1 PUSH2 0x913 JUMP JUMPDEST PUSH2 0x5A5 JUMP JUMPDEST PUSH1 0x40 MLOAD PUSH2 0x150 SWAP2 SWAP1 PUSH2 0x9EE JUMP JUMPDEST PUSH1 0x40 MLOAD DUP1 SWAP2 SUB SWAP1 RETURN JUMPDEST CALLVALUE DUP1 ISZERO PUSH2 0x164 JUMPI PUSH0 DUP1 REVERT JUMPDEST POP PUSH2 0x16D PUSH2 0x5ED JUMP JUMPDEST PUSH1 0x40 MLOAD PUSH2 0x17A SWAP2 SWAP1 PUSH2 0x9EE JUMP JUMPDEST PUSH1 0x40 MLOAD DUP1 SWAP2 SUB SWAP1 RETURN JUMPDEST CALLVALUE DUP1 ISZERO PUSH2 0x18E JUMPI PUSH0 DUP1 REVERT JUMPDEST POP PUSH2 0x1A9 PUSH1 0x4 DUP1 CALLDATASIZE SUB DUP2 ADD SWAP1 PUSH2 0x1A4 SWAP2 SWAP1 PUSH2 0xA07 JUMP JUMPDEST PUSH2 0x610 JUMP JUMPDEST STOP JUMPDEST CALLVALUE DUP1 ISZERO PUSH2 0x1B6 JUMPI PUSH0 DUP1 REVERT JUMPDEST POP PUSH2 0x1D1 PUSH1 0x4 DUP1 CALLDATASIZE SUB DUP2 ADD SWAP1 PUSH2 0x1CC SWAP2 SWAP1 PUSH2 0x9B4 JUMP JUMPDEST PUSH2 0x670 JUMP JUMPDEST PUSH1 0x40 MLOAD PUSH2 0x1DE SWAP2 SWAP1 PUSH2 0xA7B JUMP JUMPDEST PUSH1 0x40 MLOAD DUP1 SWAP2 SUB SWAP1 RETURN JUMPDEST CALLVALUE DUP1 ISZERO PUSH2 0x1F2 JUMPI PUSH0 DUP1 REVERT JUMPDEST POP PUSH2 0x20D PUSH1 0x4 DUP1 CALLDATASIZE SUB DUP2 ADD SWAP1 PUSH2 0x208 SWAP2 SWAP1 PUSH2 0x9B4 JUMP JUMPDEST PUSH2 0x68D JUMP JUMPDEST STOP JUMPDEST PUSH2 0x218 CALLER PUSH2 0x6E5 JUMP JUMPDEST PUSH1 0x2 DUP2 PUSH1 0x40 MLOAD PUSH2 0x228 SWAP2 SWAP1 PUSH2 0xB00 JUMP JUMPDEST SWAP1 DUP2 MSTORE PUSH1 0x20 ADD PUSH1 0x40 MLOAD DUP1 SWAP2 SUB SWAP1 KECCAK256 PUSH0 PUSH2 0x100 EXP DUP2 SLOAD SWAP1 PUSH20 0xFFFFFFFFFFFFFFFFFFFFFFFFFFFFFFFFFFFFFFFF MUL NOT AND SWAP1 SSTORE POP JUMP JUMPDEST PUSH0 DUP1 SLOAD SWAP1 PUSH2 0x100 EXP SWAP1 DIV PUSH20 0xFFFFFFFFFFFFFFFFFFFFFFFFFFFFFFFFFFFFFFFF AND PUSH20 0xFFFFFFFFFFFFFFFFFFFFFFFFFFFFFFFFFFFFFFFF AND CALLER PUSH20 0xFFFFFFFFFFFFFFFFFFFFFFFFFFFFFFFFFFFFFFFF AND EQ PUSH2 0x2E8 JUMPI PUSH1 0x40 MLOAD PUSH32 0x8C379A000000000000000000000000000000000000000000000000000000000 DUP2 MSTORE PUSH1 0x4 ADD PUSH2 0x2DF SWAP1 PUSH2 0xB70 JUMP JUMPDEST PUSH1 0x40 MLOAD DUP1 SWAP2 SUB SWAP1 REVERT JUMPDEST PUSH1 0x1 DUP1 PUSH0 DUP4 PUSH20 0xFFFFFFFFFFFFFFFFFFFFFFFFFFFFFFFFFFFFFFFF AND PUSH20 0xFFFFFFFFFFFFFFFFFFFFFFFFFFFFFFFFFFFFFFFF AND DUP2 MSTORE PUSH1 0x20 ADD SWAP1 DUP2 MSTORE PUSH1 0x20 ADD PUSH0 KECCAK256 PUSH0 PUSH2 0x100 EXP DUP2 SLOAD DUP2 PUSH1 0xFF MUL NOT AND SWAP1 DUP4 ISZERO ISZERO MUL OR SWAP1 SSTORE POP POP JUMP JUMPDEST PUSH0 DUP1 SLOAD SWAP1 PUSH2 0x100 EXP SWAP1 DIV PUSH20 0xFFFFFFFFFFFFFFFFFFFFFFFFFFFFFFFFFFFFFFFF AND PUSH20 0xFFFFFFFFFFFFFFFFFFFFFFFFFFFFFFFFFFFFFFFF AND CALLER PUSH20 0xFFFFFFFFFFFFFFFFFFFFFFFFFFFFFFFFFFFFFFFF AND EQ PUSH2 0x3CC JUMPI PUSH1 0x40 MLOAD PUSH32 0x8C379A000000000000000000000000000000000000000000000000000000000 DUP2 MSTORE PUSH1 0x4 ADD PUSH2 0x3C3 SWAP1 PUSH2 0xB70 JUMP JUMPDEST PUSH1 0x40 MLOAD DUP1 SWAP2 SUB SWAP1 REVERT JUMPDEST DUP1 PUSH0 DUP1 PUSH2 0x100 EXP DUP2 SLOAD DUP2 PUSH20 0xFFFFFFFFFFFFFFFFFFFFFFFFFFFFFFFFFFFFFFFF MUL NOT AND SWAP1 DUP4 PUSH20 0xFFFFFFFFFFFFFFFFFFFFFFFFFFFFFFFFFFFFFFFF AND MUL OR SWAP1 SSTORE POP POP JUMP JUMPDEST PUSH0 CALLVALUE SUB PUSH2 0x450 JUMPI PUSH1 0x40 MLOAD PUSH32 0x8C379A000000000000000000000000000000000000000000000000000000000 DUP2 MSTORE PUSH1 0x4 ADD PUSH2 0x447 SWAP1 PUSH2 0xBD8 JUMP JUMPDEST PUSH1 0x40 MLOAD DUP1 SWAP2 SUB SWAP1 REVERT JUMPDEST PUSH0 PUSH20 0xFFFFFFFFFFFFFFFFFFFFFFFFFFFFFFFFFFFFFFFF AND PUSH1 0x2 DUP3 PUSH1 0x40 MLOAD PUSH2 0x477 SWAP2 SWAP1 PUSH2 0xB00 JUMP JUMPDEST SWAP1 DUP2 MSTORE PUSH1 0x20 ADD PUSH1 0x40 MLOAD DUP1 SWAP2 SUB SWAP1 KECCAK256 PUSH0 SWAP1 SLOAD SWAP1 PUSH2 0x100 EXP SWAP1 DIV PUSH20 0xFFFFFFFFFFFFFFFFFFFFFFFFFFFFFFFFFFFFFFFF AND PUSH20 0xFFFFFFFFFFFFFFFFFFFFFFFFFFFFFFFFFFFFFFFF AND EQ PUSH2 0x503 JUMPI PUSH1 0x2 DUP2 PUSH1 0x40 MLOAD PUSH2 0x4D0 SWAP2 SWAP1 PUSH2 0xB00 JUMP JUMPDEST SWAP1 DUP2 MSTORE PUSH1 0x20 ADD PUSH1 0x40 MLOAD DUP1 SWAP2 SUB SWAP1 KECCAK256 PUSH0 SWAP1 SLOAD SWAP1 PUSH2 0x100 EXP SWAP1 DIV PUSH20 0xFFFFFFFFFFFFFFFFFFFFFFFFFFFFFFFFFFFFFFFF AND PUSH2 0x524 JUMP JUMPDEST PUSH0 DUP1 SLOAD SWAP1 PUSH2 0x100 EXP SWAP1 DIV PUSH20 0xFFFFFFFFFFFFFFFFFFFFFFFFFFFFFFFFFFFFFFFF AND JUMPDEST PUSH20 0xFFFFFFFFFFFFFFFFFFFFFFFFFFFFFFFFFFFFFFFF AND PUSH2 0x8FC CALLVALUE SWAP1 DUP2 ISZERO MUL SWAP1 PUSH1 0x40 MLOAD PUSH0 PUSH1 0x40 MLOAD DUP1 DUP4 SUB DUP2 DUP6 DUP9 DUP9 CALL SWAP4 POP POP POP POP ISZERO DUP1 ISZERO PUSH2 0x566 JUMPI RETURNDATASIZE PUSH0 DUP1 RETURNDATACOPY RETURNDATASIZE PUSH0 REVERT JUMPDEST POP PUSH32 0xCA984D4795C249BD1ECBFB259DAC94662ABD0B3D5262C6204DFBF000368C993E DUP2 CALLER CALLVALUE PUSH1 0x40 MLOAD PUSH2 0x59A SWAP4 SWAP3 SWAP2 SWAP1 PUSH2 0xC90 JUMP JUMPDEST PUSH1 0x40 MLOAD DUP1 SWAP2 SUB SWAP1 LOG1 POP JUMP JUMPDEST PUSH1 0x2 DUP2 DUP1 MLOAD PUSH1 0x20 DUP2 ADD DUP3 ADD DUP1 MLOAD DUP5 DUP3 MSTORE PUSH1 0x20 DUP4 ADD PUSH1 0x20 DUP6 ADD KECCAK256 DUP2 DUP4 MSTORE DUP1 SWAP6 POP POP POP POP POP POP PUSH0 SWAP2 POP SLOAD SWAP1 PUSH2 0x100 EXP SWAP1 DIV PUSH20 0xFFFFFFFFFFFFFFFFFFFFFFFFFFFFFFFFFFFFFFFF AND DUP2 JUMP JUMPDEST PUSH0 DUP1 SLOAD SWAP1 PUSH2 0x100 EXP SWAP1 DIV PUSH20 0xFFFFFFFFFFFFFFFFFFFFFFFFFFFFFFFFFFFFFFFF AND DUP2 JUMP JUMPDEST DUP1 PUSH1 0x2 DUP4 PUSH1 0x40 MLOAD PUSH2 0x621 SWAP2 SWAP1 PUSH2 0xB00 JUMP JUMPDEST SWAP1 DUP2 MSTORE PUSH1 0x20 ADD PUSH1 0x40 MLOAD DUP1 SWAP2 SUB SWAP1 KECCAK256 PUSH0 PUSH2 0x100 EXP DUP2 SLOAD DUP2 PUSH20 0xFFFFFFFFFFFFFFFFFFFFFFFFFFFFFFFFFFFFFFFF MUL NOT AND SWAP1 DUP4 PUSH20 0xFFFFFFFFFFFFFFFFFFFFFFFFFFFFFFFFFFFFFFFF AND MUL OR SWAP1 SSTORE POP POP POP JUMP JUMPDEST PUSH1 0x1 PUSH1 0x20 MSTORE DUP1 PUSH0 MSTORE PUSH1 0x40 PUSH0 KECCAK256 PUSH0 SWAP2 POP SLOAD SWAP1 PUSH2 0x100 EXP SWAP1 DIV PUSH1 0xFF AND DUP2 JUMP JUMPDEST PUSH2 0x696 CALLER PUSH2 0x6E5 JUMP JUMPDEST PUSH1 0x1 PUSH0 DUP3 PUSH20 0xFFFFFFFFFFFFFFFFFFFFFFFFFFFFFFFFFFFFFFFF AND PUSH20 0xFFFFFFFFFFFFFFFFFFFFFFFFFFFFFFFFFFFFFFFF AND DUP2 MSTORE PUSH1 0x20 ADD SWAP1 DUP2 MSTORE PUSH1 0x20 ADD PUSH0 KECCAK256 PUSH0 PUSH2 0x100 EXP DUP2 SLOAD SWAP1 PUSH1 0xFF MUL NOT AND SWAP1 SSTORE POP JUMP JUMPDEST PUSH0 DUP1 SLOAD SWAP1 PUSH2 0x100 EXP SWAP1 DIV PUSH20 0xFFFFFFFFFFFFFFFFFFFFFFFFFFFFFFFFFFFFFFFF AND PUSH20 0xFFFFFFFFFFFFFFFFFFFFFFFFFFFFFFFFFFFFFFFF AND DUP2 PUSH20 0xFFFFFFFFFFFFFFFFFFFFFFFFFFFFFFFFFFFFFFFF AND EQ DUP1 PUSH2 0x784 JUMPI POP PUSH1 0x1 PUSH0 DUP3 PUSH20 0xFFFFFFFFFFFFFFFFFFFFFFFFFFFFFFFFFFFFFFFF AND PUSH20 0xFFFFFFFFFFFFFFFFFFFFFFFFFFFFFFFFFFFFFFFF AND DUP2 MSTORE PUSH1 0x20 ADD SWAP1 DUP2 MSTORE PUSH1 0x20 ADD PUSH0 KECCAK256 PUSH0 SWAP1 SLOAD SWAP1 PUSH2 0x100 EXP SWAP1 DIV PUSH1 0xFF AND JUMPDEST PUSH2 0x7C3 JUMPI PUSH1 0x40 MLOAD PUSH32 0x8C379A000000000000000000000000000000000000000000000000000000000 DUP2 MSTORE PUSH1 0x4 ADD PUSH2 0x7BA SWAP1 PUSH2 0xD29 JUMP JUMPDEST PUSH1 0x40 MLOAD DUP1 SWAP2 SUB SWAP1 REVERT JUMPDEST POP JUMP JUMPDEST PUSH0 PUSH1 0x40 MLOAD SWAP1 POP SWAP1 JUMP JUMPDEST PUSH0 DUP1 REVERT JUMPDEST PUSH0 DUP1 REVERT JUMPDEST PUSH0 DUP1 REVERT JUMPDEST PUSH0 DUP1 REVERT JUMPDEST PUSH0 PUSH1 0x1F NOT PUSH1 0x1F DUP4 ADD AND SWAP1 POP SWAP2 SWAP1 POP JUMP JUMPDEST PUSH32 0x4E487B7100000000000000000000000000000000000000000000000000000000 PUSH0 MSTORE PUSH1 0x41 PUSH1 0x4 MSTORE PUSH1 0x24 PUSH0 REVERT JUMPDEST PUSH2 0x825 DUP3 PUSH2 0x7DF JUMP JUMPDEST DUP2 ADD DUP2 DUP2 LT PUSH8 0xFFFFFFFFFFFFFFFF DUP3 GT OR ISZERO PUSH2 0x844 JUMPI PUSH2 0x843 PUSH2 0x7EF JUMP JUMPDEST JUMPDEST DUP1 PUSH1 0x40 MSTORE POP POP POP JUMP JUMPDEST PUSH0 PUSH2 0x856 PUSH2 0x7C6 JUMP JUMPDEST SWAP1 POP PUSH2 0x862 DUP3 DUP3 PUSH2 0x81C JUMP JUMPDEST SWAP2 SWAP1 POP JUMP JUMPDEST PUSH0 PUSH8 0xFFFFFFFFFFFFFFFF DUP3 GT ISZERO PUSH2 0x881 JUMPI PUSH2 0x880 PUSH2 0x7EF JUMP JUMPDEST JUMPDEST PUSH2 0x88A DUP3 PUSH2 0x7DF JUMP JUMPDEST SWAP1 POP PUSH1 0x20 DUP2 ADD SWAP1 POP SWAP2 SWAP1 POP JUMP JUMPDEST DUP3 DUP2 DUP4 CALLDATACOPY PUSH0 DUP4 DUP4 ADD MSTORE POP POP POP JUMP JUMPDEST PUSH0 PUSH2 0x8B7 PUSH2 0x8B2 DUP5 PUSH2 0x867 JUMP JUMPDEST PUSH2 0x84D JUMP JUMPDEST SWAP1 POP DUP3 DUP2 MSTORE PUSH1 0x20 DUP2 ADD DUP5 DUP5 DUP5 ADD GT ISZERO PUSH2 0x8D3 JUMPI PUSH2 0x8D2 PUSH2 0x7DB JUMP JUMPDEST JUMPDEST PUSH2 0x8DE DUP5 DUP3 DUP6 PUSH2 0x897 JUMP JUMPDEST POP SWAP4 SWAP3 POP POP POP JUMP JUMPDEST PUSH0 DUP3 PUSH1 0x1F DUP4 ADD SLT PUSH2 0x8FA JUMPI PUSH2 0x8F9 PUSH2 0x7D7 JUMP JUMPDEST JUMPDEST DUP2 CALLDATALOAD PUSH2 0x90A DUP5 DUP3 PUSH1 0x20 DUP7 ADD PUSH2 0x8A5 JUMP JUMPDEST SWAP2 POP POP SWAP3 SWAP2 POP POP JUMP JUMPDEST PUSH0 PUSH1 0x20 DUP3 DUP5 SUB SLT ISZERO PUSH2 0x928 JUMPI PUSH2 0x927 PUSH2 0x7CF JUMP JUMPDEST JUMPDEST PUSH0 DUP3 ADD CALLDATALOAD PUSH8 0xFFFFFFFFFFFFFFFF DUP2 GT ISZERO PUSH2 0x945 JUMPI PUSH2 0x944 PUSH2 0x7D3 JUMP JUMPDEST JUMPDEST PUSH2 0x951 DUP5 DUP3 DUP6 ADD PUSH2 0x8E6 JUMP JUMPDEST SWAP2 POP POP SWAP3 SWAP2 POP POP JUMP JUMPDEST PUSH0 PUSH20 0xFFFFFFFFFFFFFFFFFFFFFFFFFFFFFFFFFFFFFFFF DUP3 AND SWAP1 POP SWAP2 SWAP1 POP JUMP JUMPDEST PUSH0 PUSH2 0x983 DUP3 PUSH2 0x95A JUMP JUMPDEST SWAP1 POP SWAP2 SWAP1 POP JUMP JUMPDEST PUSH2 0x993 DUP2 PUSH2 0x979 JUMP JUMPDEST DUP2 EQ PUSH2 0x99D JUMPI PUSH0 DUP1 REVERT JUMPDEST POP JUMP JUMPDEST PUSH0 DUP2 CALLDATALOAD SWAP1 POP PUSH2 0x9AE DUP2 PUSH2 0x98A JUMP JUMPDEST SWAP3 SWAP2 POP POP JUMP JUMPDEST PUSH0 PUSH1 0x20 DUP3 DUP5 SUB SLT ISZERO PUSH2 0x9C9 JUMPI PUSH2 0x9C8 PUSH2 0x7CF JUMP JUMPDEST JUMPDEST PUSH0 PUSH2 0x9D6 DUP5 DUP3 DUP6 ADD PUSH2 0x9A0 JUMP JUMPDEST SWAP2 POP POP SWAP3 SWAP2 POP POP JUMP JUMPDEST PUSH2 0x9E8 DUP2 PUSH2 0x979 JUMP JUMPDEST DUP3 MSTORE POP POP JUMP JUMPDEST PUSH0 PUSH1 0x20 DUP3 ADD SWAP1 POP PUSH2 0xA01 PUSH0 DUP4 ADD DUP5 PUSH2 0x9DF JUMP JUMPDEST SWAP3 SWAP2 POP POP JUMP JUMPDEST PUSH0 DUP1 PUSH1 0x40 DUP4 DUP6 SUB SLT ISZERO PUSH2 0xA1D JUMPI PUSH2 0xA1C PUSH2 0x7CF JUMP JUMPDEST JUMPDEST PUSH0 DUP4 ADD CALLDATALOAD PUSH8 0xFFFFFFFFFFFFFFFF DUP2 GT ISZERO PUSH2 0xA3A JUMPI PUSH2 0xA39 PUSH2 0x7D3 JUMP JUMPDEST JUMPDEST PUSH2 0xA46 DUP6 DUP3 DUP7 ADD PUSH2 0x8E6 JUMP JUMPDEST SWAP3 POP POP PUSH1 0x20 PUSH2 0xA57 DUP6 DUP3 DUP7 ADD PUSH2 0x9A0 JUMP JUMPDEST SWAP2 POP POP SWAP3 POP SWAP3 SWAP1 POP JUMP JUMPDEST PUSH0 DUP2 ISZERO ISZERO SWAP1 POP SWAP2 SWAP1 POP JUMP JUMPDEST PUSH2 0xA75 DUP2 PUSH2 0xA61 JUMP JUMPDEST DUP3 MSTORE POP POP JUMP JUMPDEST PUSH0 PUSH1 0x20 DUP3 ADD SWAP1 POP PUSH2 0xA8E PUSH0 DUP4 ADD DUP5 PUSH2 0xA6C JUMP JUMPDEST SWAP3 SWAP2 POP POP JUMP JUMPDEST PUSH0 DUP2 MLOAD SWAP1 POP SWAP2 SWAP1 POP JUMP JUMPDEST PUSH0 DUP2 SWAP1 POP SWAP3 SWAP2 POP POP JUMP JUMPDEST PUSH0 JUMPDEST DUP4 DUP2 LT ISZERO PUSH2 0xAC5 JUMPI DUP1 DUP3 ADD MLOAD DUP2 DUP5 ADD MSTORE PUSH1 0x20 DUP2 ADD SWAP1 POP PUSH2 0xAAA JUMP JUMPDEST PUSH0 DUP5 DUP5 ADD MSTORE POP POP POP POP JUMP JUMPDEST PUSH0 PUSH2 0xADA DUP3 PUSH2 0xA94 JUMP JUMPDEST PUSH2 0xAE4 DUP2 DUP6 PUSH2 0xA9E JUMP JUMPDEST SWAP4 POP PUSH2 0xAF4 DUP2 DUP6 PUSH1 0x20 DUP7 ADD PUSH2 0xAA8 JUMP JUMPDEST DUP1 DUP5 ADD SWAP2 POP POP SWAP3 SWAP2 POP POP JUMP JUMPDEST PUSH0 PUSH2 0xB0B DUP3 DUP5 PUSH2 0xAD0 JUMP JUMPDEST SWAP2 POP DUP2 SWAP1 POP SWAP3 SWAP2 POP POP JUMP JUMPDEST PUSH0 DUP3 DUP3 MSTORE PUSH1 0x20 DUP3 ADD SWAP1 POP SWAP3 SWAP2 POP POP JUMP JUMPDEST PUSH32 0x5369746520617574686F72697479206F6E6C792E000000000000000000000000 PUSH0 DUP3 ADD MSTORE POP JUMP JUMPDEST PUSH0 PUSH2 0xB5A PUSH1 0x14 DUP4 PUSH2 0xB16 JUMP JUMPDEST SWAP2 POP PUSH2 0xB65 DUP3 PUSH2 0xB26 JUMP JUMPDEST PUSH1 0x20 DUP3 ADD SWAP1 POP SWAP2 SWAP1 POP JUMP JUMPDEST PUSH0 PUSH1 0x20 DUP3 ADD SWAP1 POP DUP2 DUP2 SUB PUSH0 DUP4 ADD MSTORE PUSH2 0xB87 DUP2 PUSH2 0xB4E JUMP JUMPDEST SWAP1 POP SWAP2 SWAP1 POP JUMP JUMPDEST PUSH32 0x43616E6E6F74206265207A65726F000000000000000000000000000000000000 PUSH0 DUP3 ADD MSTORE POP JUMP JUMPDEST PUSH0 PUSH2 0xBC2 PUSH1 0xE DUP4 PUSH2 0xB16 JUMP JUMPDEST SWAP2 POP PUSH2 0xBCD DUP3 PUSH2 0xB8E JUMP JUMPDEST PUSH1 0x20 DUP3 ADD SWAP1 POP SWAP2 SWAP1 POP JUMP JUMPDEST PUSH0 PUSH1 0x20 DUP3 ADD SWAP1 POP DUP2 DUP2 SUB PUSH0 DUP4 ADD MSTORE PUSH2 0xBEF DUP2 PUSH2 0xBB6 JUMP JUMPDEST SWAP1 POP SWAP2 SWAP1 POP JUMP JUMPDEST PUSH32 0x7061796D656E745F6E6174697665000000000000000000000000000000000000 PUSH0 DUP3 ADD MSTORE POP JUMP JUMPDEST PUSH0 PUSH2 0xC2A PUSH1 0xE DUP4 PUSH2 0xB16 JUMP JUMPDEST SWAP2 POP PUSH2 0xC35 DUP3 PUSH2 0xBF6 JUMP JUMPDEST PUSH1 0x20 DUP3 ADD SWAP1 POP SWAP2 SWAP1 POP JUMP JUMPDEST PUSH0 PUSH2 0xC4A DUP3 PUSH2 0xA94 JUMP JUMPDEST PUSH2 0xC54 DUP2 DUP6 PUSH2 0xB16 JUMP JUMPDEST SWAP4 POP PUSH2 0xC64 DUP2 DUP6 PUSH1 0x20 DUP7 ADD PUSH2 0xAA8 JUMP JUMPDEST PUSH2 0xC6D DUP2 PUSH2 0x7DF JUMP JUMPDEST DUP5 ADD SWAP2 POP POP SWAP3 SWAP2 POP POP JUMP JUMPDEST PUSH0 DUP2 SWAP1 POP SWAP2 SWAP1 POP JUMP JUMPDEST PUSH2 0xC8A DUP2 PUSH2 0xC78 JUMP JUMPDEST DUP3 MSTORE POP POP JUMP JUMPDEST PUSH0 PUSH1 0x80 DUP3 ADD SWAP1 POP DUP2 DUP2 SUB PUSH0 DUP4 ADD MSTORE PUSH2 0xCA7 DUP2 PUSH2 0xC1E JUMP JUMPDEST SWAP1 POP DUP2 DUP2 SUB PUSH1 0x20 DUP4 ADD MSTORE PUSH2 0xCBB DUP2 DUP7 PUSH2 0xC40 JUMP JUMPDEST SWAP1 POP PUSH2 0xCCA PUSH1 0x40 DUP4 ADD DUP6 PUSH2 0x9DF JUMP JUMPDEST PUSH2 0xCD7 PUSH1 0x60 DUP4 ADD DUP5 PUSH2 0xC81 JUMP JUMPDEST SWAP5 SWAP4 POP POP POP POP JUMP JUMPDEST PUSH32 0x536974652061646D696E206F6E6C792E00000000000000000000000000000000 PUSH0 DUP3 ADD MSTORE POP JUMP JUMPDEST PUSH0 PUSH2 0xD13 PUSH1 0x10 DUP4 PUSH2 0xB16 JUMP JUMPDEST SWAP2 POP PUSH2 0xD1E DUP3 PUSH2 0xCDF JUMP JUMPDEST PUSH1 0x20 DUP3 ADD SWAP1 POP SWAP2 SWAP1 POP JUMP JUMPDEST PUSH0 PUSH1 0x20 DUP3 ADD SWAP1 POP DUP2 DUP2 SUB PUSH0 DUP4 ADD MSTORE PUSH2 0xD40 DUP2 PUSH2 0xD07 JUMP JUMPDEST SWAP1 POP SWAP2 SWAP1 POP JUMP INVALID LOG2 PUSH5 0x6970667358 0x22 SLT KECCAK256 0xB2 0xA9 0xC0 0xC7 0xEE ADDMOD PUSH28 0x6F52184C36180E90117C653010234062285A685B0B4A0E4B4A64736F PUSH13 0x63430008140033000000000000 "
    },
    "methodIdentifiers": {
      "g__SitePaymasters(string)": "54c673bb",
      "site__change_authority(address)": "39becbbe",
      "site__remove_support(address)": "fcb74bf3",
      "site__add_support(address)": "36fceb3e",
      "payment_native(string)": "53b081d4",
      "site__del_paymaster(string)": "30e833c5",
      "site__set_paymaster(string,address)": "d138061c",
      "g__SiteSupport(address)": "f31300b4",
      "g__SiteAuthority()": "95875a68"
    },
    "gasEstimates": {
      "internal": {
        "ut__assert_admin(address)": "infinite"
      },
      "creation": {
        "executionCost": "24984",
        "codeDepositCost": "690600",
        "totalCost": "715584"
      },
      "external": {
        "g__SitePaymasters(string)": "infinite",
        "site__change_authority(address)": "26926",
        "site__remove_support(address)": "29306",
        "site__add_support(address)": "26992",
        "payment_native(string)": "infinite",
        "site__del_paymaster(string)": "infinite",
        "site__set_paymaster(string,address)": "infinite",
        "g__SiteSupport(address)": "2899",
        "g__SiteAuthority()": "2527"
      }
    },
    "assembly": "    /* \"temp.sol\":69:1646  contract StatstradeGateway {... */\n  mstore(0x40, 0x80)\n    /* \"temp.sol\":335:389  constructor() {... */\n  callvalue\n  dup1\n  iszero\n  tag_1\n  jumpi\n  0x00\n  dup1\n  revert\ntag_1:\n  pop\n    /* \"temp.sol\":374:384  msg.sender */\n  caller\n    /* \"temp.sol\":355:371  g__SiteAuthority */\n  0x00\n  dup1\n    /* \"temp.sol\":355:384  g__SiteAuthority = msg.sender */\n  0x0100\n  exp\n  dup2\n  sload\n  dup2\n  0xffffffffffffffffffffffffffffffffffffffff\n  mul\n  not\n  and\n  swap1\n  dup4\n  0xffffffffffffffffffffffffffffffffffffffff\n  and\n  mul\n  or\n  swap1\n  sstore\n  pop\n    /* \"temp.sol\":69:1646  contract StatstradeGateway {... */\n  dataSize(sub_0)\n  dup1\n  dataOffset(sub_0)\n  0x00\n  codecopy\n  0x00\n  return\nstop\n\nsub_0: assembly {\n        /* \"temp.sol\":69:1646  contract StatstradeGateway {... */\n      mstore(0x40, 0x80)\n      jumpi(tag_1, lt(calldatasize, 0x04))\n      shr(0xe0, calldataload(0x00))\n      dup1\n      0x54c673bb\n      gt\n      tag_11\n      jumpi\n      dup1\n      0x54c673bb\n      eq\n      tag_6\n      jumpi\n      dup1\n      0x95875a68\n      eq\n      tag_7\n      jumpi\n      dup1\n      0xd138061c\n      eq\n      tag_8\n      jumpi\n      dup1\n      0xf31300b4\n      eq\n      tag_9\n      jumpi\n      dup1\n      0xfcb74bf3\n      eq\n      tag_10\n      jumpi\n      jump(tag_1)\n    tag_11:\n      dup1\n      0x30e833c5\n      eq\n      tag_2\n      jumpi\n      dup1\n      0x36fceb3e\n      eq\n      tag_3\n      jumpi\n      dup1\n      0x39becbbe\n      eq\n      tag_4\n      jumpi\n      dup1\n      0x53b081d4\n      eq\n      tag_5\n      jumpi\n    tag_1:\n      0x00\n      dup1\n      revert\n        /* \"temp.sol\":1183:1320  function site__del_paymaster(string memory pay_id) external {... */\n    tag_2:\n      callvalue\n      dup1\n      iszero\n      tag_12\n      jumpi\n      0x00\n      dup1\n      revert\n    tag_12:\n      pop\n      tag_13\n      0x04\n      dup1\n      calldatasize\n      sub\n      dup2\n      add\n      swap1\n      tag_14\n      swap2\n      swap1\n      tag_15\n      jump\t// in\n    tag_14:\n      tag_16\n      jump\t// in\n    tag_13:\n      stop\n        /* \"temp.sol\":768:924  function site__add_support(address user) external {... */\n    tag_3:\n      callvalue\n      dup1\n      iszero\n      tag_17\n      jumpi\n      0x00\n      dup1\n      revert\n    tag_17:\n      pop\n      tag_18\n      0x04\n      dup1\n      calldatasize\n      sub\n      dup2\n      add\n      swap1\n      tag_19\n      swap2\n      swap1\n      tag_20\n      jump\t// in\n    tag_19:\n      tag_21\n      jump\t// in\n    tag_18:\n      stop\n        /* \"temp.sol\":587:762  function site__change_authority(address new_authority) external {... */\n    tag_4:\n      callvalue\n      dup1\n      iszero\n      tag_22\n      jumpi\n      0x00\n      dup1\n      revert\n    tag_22:\n      pop\n      tag_23\n      0x04\n      dup1\n      calldatasize\n      sub\n      dup2\n      add\n      swap1\n      tag_24\n      swap2\n      swap1\n      tag_20\n      jump\t// in\n    tag_24:\n      tag_25\n      jump\t// in\n    tag_23:\n      stop\n        /* \"temp.sol\":1326:1644  function payment_native(string memory pay_id) external payable {... */\n    tag_5:\n      tag_26\n      0x04\n      dup1\n      calldatasize\n      sub\n      dup2\n      add\n      swap1\n      tag_27\n      swap2\n      swap1\n      tag_15\n      jump\t// in\n    tag_27:\n      tag_28\n      jump\t// in\n    tag_26:\n      stop\n        /* \"temp.sol\":277:328  mapping(string => address) public g__SitePaymasters */\n    tag_6:\n      callvalue\n      dup1\n      iszero\n      tag_29\n      jumpi\n      0x00\n      dup1\n      revert\n    tag_29:\n      pop\n      tag_30\n      0x04\n      dup1\n      calldatasize\n      sub\n      dup2\n      add\n      swap1\n      tag_31\n      swap2\n      swap1\n      tag_15\n      jump\t// in\n    tag_31:\n      tag_32\n      jump\t// in\n    tag_30:\n      mload(0x40)\n      tag_33\n      swap2\n      swap1\n      tag_34\n      jump\t// in\n    tag_33:\n      mload(0x40)\n      dup1\n      swap2\n      sub\n      swap1\n      return\n        /* \"temp.sol\":186:217  address public g__SiteAuthority */\n    tag_7:\n      callvalue\n      dup1\n      iszero\n      tag_35\n      jumpi\n      0x00\n      dup1\n      revert\n    tag_35:\n      pop\n      tag_36\n      tag_37\n      jump\t// in\n    tag_36:\n      mload(0x40)\n      tag_38\n      swap2\n      swap1\n      tag_34\n      jump\t// in\n    tag_38:\n      mload(0x40)\n      dup1\n      swap2\n      sub\n      swap1\n      return\n        /* \"temp.sol\":1061:1177  function site__set_paymaster(string memory pay_id,address user) external {... */\n    tag_8:\n      callvalue\n      dup1\n      iszero\n      tag_39\n      jumpi\n      0x00\n      dup1\n      revert\n    tag_39:\n      pop\n      tag_40\n      0x04\n      dup1\n      calldatasize\n      sub\n      dup2\n      add\n      swap1\n      tag_41\n      swap2\n      swap1\n      tag_42\n      jump\t// in\n    tag_41:\n      tag_43\n      jump\t// in\n    tag_40:\n      stop\n        /* \"temp.sol\":224:270  mapping(address => bool) public g__SiteSupport */\n    tag_9:\n      callvalue\n      dup1\n      iszero\n      tag_44\n      jumpi\n      0x00\n      dup1\n      revert\n    tag_44:\n      pop\n      tag_45\n      0x04\n      dup1\n      calldatasize\n      sub\n      dup2\n      add\n      swap1\n      tag_46\n      swap2\n      swap1\n      tag_20\n      jump\t// in\n    tag_46:\n      tag_47\n      jump\t// in\n    tag_45:\n      mload(0x40)\n      tag_48\n      swap2\n      swap1\n      tag_49\n      jump\t// in\n    tag_48:\n      mload(0x40)\n      dup1\n      swap2\n      sub\n      swap1\n      return\n        /* \"temp.sol\":930:1055  function site__remove_support(address user) external {... */\n    tag_10:\n      callvalue\n      dup1\n      iszero\n      tag_50\n      jumpi\n      0x00\n      dup1\n      revert\n    tag_50:\n      pop\n      tag_51\n      0x04\n      dup1\n      calldatasize\n      sub\n      dup2\n      add\n      swap1\n      tag_52\n      swap2\n      swap1\n      tag_20\n      jump\t// in\n    tag_52:\n      tag_53\n      jump\t// in\n    tag_51:\n      stop\n        /* \"temp.sol\":1183:1320  function site__del_paymaster(string memory pay_id) external {... */\n    tag_16:\n        /* \"temp.sol\":1249:1277  ut__assert_admin(msg.sender) */\n      tag_55\n        /* \"temp.sol\":1266:1276  msg.sender */\n      caller\n        /* \"temp.sol\":1249:1265  ut__assert_admin */\n      tag_56\n        /* \"temp.sol\":1249:1277  ut__assert_admin(msg.sender) */\n      jump\t// in\n    tag_55:\n        /* \"temp.sol\":1290:1307  g__SitePaymasters */\n      0x02\n        /* \"temp.sol\":1308:1314  pay_id */\n      dup2\n        /* \"temp.sol\":1290:1315  g__SitePaymasters[pay_id] */\n      mload(0x40)\n      tag_57\n      swap2\n      swap1\n      tag_58\n      jump\t// in\n    tag_57:\n      swap1\n      dup2\n      mstore\n      0x20\n      add\n      mload(0x40)\n      dup1\n      swap2\n      sub\n      swap1\n      keccak256\n      0x00\n        /* \"temp.sol\":1283:1315  delete g__SitePaymasters[pay_id] */\n      0x0100\n      exp\n      dup2\n      sload\n      swap1\n      0xffffffffffffffffffffffffffffffffffffffff\n      mul\n      not\n      and\n      swap1\n      sstore\n        /* \"temp.sol\":1183:1320  function site__del_paymaster(string memory pay_id) external {... */\n      pop\n      jump\t// out\n        /* \"temp.sol\":768:924  function site__add_support(address user) external {... */\n    tag_21:\n        /* \"temp.sol\":846:862  g__SiteAuthority */\n      0x00\n      dup1\n      sload\n      swap1\n      0x0100\n      exp\n      swap1\n      div\n      0xffffffffffffffffffffffffffffffffffffffff\n      and\n        /* \"temp.sol\":832:862  msg.sender == g__SiteAuthority */\n      0xffffffffffffffffffffffffffffffffffffffff\n      and\n        /* \"temp.sol\":832:842  msg.sender */\n      caller\n        /* \"temp.sol\":832:862  msg.sender == g__SiteAuthority */\n      0xffffffffffffffffffffffffffffffffffffffff\n      and\n      eq\n        /* \"temp.sol\":824:886  require(msg.sender == g__SiteAuthority,\"Site authority only.\") */\n      tag_60\n      jumpi\n      mload(0x40)\n      0x08c379a000000000000000000000000000000000000000000000000000000000\n      dup2\n      mstore\n      0x04\n      add\n      tag_61\n      swap1\n      tag_62\n      jump\t// in\n    tag_61:\n      mload(0x40)\n      dup1\n      swap2\n      sub\n      swap1\n      revert\n    tag_60:\n        /* \"temp.sol\":915:919  true */\n      0x01\n        /* \"temp.sol\":892:906  g__SiteSupport */\n      dup1\n        /* \"temp.sol\":892:912  g__SiteSupport[user] */\n      0x00\n        /* \"temp.sol\":907:911  user */\n      dup4\n        /* \"temp.sol\":892:912  g__SiteSupport[user] */\n      0xffffffffffffffffffffffffffffffffffffffff\n      and\n      0xffffffffffffffffffffffffffffffffffffffff\n      and\n      dup2\n      mstore\n      0x20\n      add\n      swap1\n      dup2\n      mstore\n      0x20\n      add\n      0x00\n      keccak256\n      0x00\n        /* \"temp.sol\":892:919  g__SiteSupport[user] = true */\n      0x0100\n      exp\n      dup2\n      sload\n      dup2\n      0xff\n      mul\n      not\n      and\n      swap1\n      dup4\n      iszero\n      iszero\n      mul\n      or\n      swap1\n      sstore\n      pop\n        /* \"temp.sol\":768:924  function site__add_support(address user) external {... */\n      pop\n      jump\t// out\n        /* \"temp.sol\":587:762  function site__change_authority(address new_authority) external {... */\n    tag_25:\n        /* \"temp.sol\":679:695  g__SiteAuthority */\n      0x00\n      dup1\n      sload\n      swap1\n      0x0100\n      exp\n      swap1\n      div\n      0xffffffffffffffffffffffffffffffffffffffff\n      and\n        /* \"temp.sol\":665:695  msg.sender == g__SiteAuthority */\n      0xffffffffffffffffffffffffffffffffffffffff\n      and\n        /* \"temp.sol\":665:675  msg.sender */\n      caller\n        /* \"temp.sol\":665:695  msg.sender == g__SiteAuthority */\n      0xffffffffffffffffffffffffffffffffffffffff\n      and\n      eq\n        /* \"temp.sol\":657:719  require(msg.sender == g__SiteAuthority,\"Site authority only.\") */\n      tag_64\n      jumpi\n      mload(0x40)\n      0x08c379a000000000000000000000000000000000000000000000000000000000\n      dup2\n      mstore\n      0x04\n      add\n      tag_65\n      swap1\n      tag_62\n      jump\t// in\n    tag_65:\n      mload(0x40)\n      dup1\n      swap2\n      sub\n      swap1\n      revert\n    tag_64:\n        /* \"temp.sol\":744:757  new_authority */\n      dup1\n        /* \"temp.sol\":725:741  g__SiteAuthority */\n      0x00\n      dup1\n        /* \"temp.sol\":725:757  g__SiteAuthority = new_authority */\n      0x0100\n      exp\n      dup2\n      sload\n      dup2\n      0xffffffffffffffffffffffffffffffffffffffff\n      mul\n      not\n      and\n      swap1\n      dup4\n      0xffffffffffffffffffffffffffffffffffffffff\n      and\n      mul\n      or\n      swap1\n      sstore\n      pop\n        /* \"temp.sol\":587:762  function site__change_authority(address new_authority) external {... */\n      pop\n      jump\t// out\n        /* \"temp.sol\":1326:1644  function payment_native(string memory pay_id) external payable {... */\n    tag_28:\n        /* \"temp.sol\":1416:1417  0 */\n      0x00\n        /* \"temp.sol\":1403:1412  msg.value */\n      callvalue\n        /* \"temp.sol\":1403:1417  msg.value != 0 */\n      sub\n        /* \"temp.sol\":1395:1435  require(msg.value != 0,\"Cannot be zero\") */\n      tag_67\n      jumpi\n      mload(0x40)\n      0x08c379a000000000000000000000000000000000000000000000000000000000\n      dup2\n      mstore\n      0x04\n      add\n      tag_68\n      swap1\n      tag_69\n      jump\t// in\n    tag_68:\n      mload(0x40)\n      dup1\n      swap2\n      sub\n      swap1\n      revert\n    tag_67:\n        /* \"temp.sol\":1494:1495  0 */\n      0x00\n        /* \"temp.sol\":1457:1496  g__SitePaymasters[pay_id] == address(0) */\n      0xffffffffffffffffffffffffffffffffffffffff\n      and\n        /* \"temp.sol\":1457:1474  g__SitePaymasters */\n      0x02\n        /* \"temp.sol\":1475:1481  pay_id */\n      dup3\n        /* \"temp.sol\":1457:1482  g__SitePaymasters[pay_id] */\n      mload(0x40)\n      tag_70\n      swap2\n      swap1\n      tag_58\n      jump\t// in\n    tag_70:\n      swap1\n      dup2\n      mstore\n      0x20\n      add\n      mload(0x40)\n      dup1\n      swap2\n      sub\n      swap1\n      keccak256\n      0x00\n      swap1\n      sload\n      swap1\n      0x0100\n      exp\n      swap1\n      div\n      0xffffffffffffffffffffffffffffffffffffffff\n      and\n        /* \"temp.sol\":1457:1496  g__SitePaymasters[pay_id] == address(0) */\n      0xffffffffffffffffffffffffffffffffffffffff\n      and\n      eq\n        /* \"temp.sol\":1456:1544  (g__SitePaymasters[pay_id] == address(0)) ? g__SiteAuthority : g__SitePaymasters[pay_id] */\n      tag_71\n      jumpi\n        /* \"temp.sol\":1519:1536  g__SitePaymasters */\n      0x02\n        /* \"temp.sol\":1537:1543  pay_id */\n      dup2\n        /* \"temp.sol\":1519:1544  g__SitePaymasters[pay_id] */\n      mload(0x40)\n      tag_72\n      swap2\n      swap1\n      tag_58\n      jump\t// in\n    tag_72:\n      swap1\n      dup2\n      mstore\n      0x20\n      add\n      mload(0x40)\n      dup1\n      swap2\n      sub\n      swap1\n      keccak256\n      0x00\n      swap1\n      sload\n      swap1\n      0x0100\n      exp\n      swap1\n      div\n      0xffffffffffffffffffffffffffffffffffffffff\n      and\n        /* \"temp.sol\":1456:1544  (g__SitePaymasters[pay_id] == address(0)) ? g__SiteAuthority : g__SitePaymasters[pay_id] */\n      jump(tag_73)\n    tag_71:\n        /* \"temp.sol\":1500:1516  g__SiteAuthority */\n      0x00\n      dup1\n      sload\n      swap1\n      0x0100\n      exp\n      swap1\n      div\n      0xffffffffffffffffffffffffffffffffffffffff\n      and\n        /* \"temp.sol\":1456:1544  (g__SitePaymasters[pay_id] == address(0)) ? g__SiteAuthority : g__SitePaymasters[pay_id] */\n    tag_73:\n        /* \"temp.sol\":1441:1559  payable(... */\n      0xffffffffffffffffffffffffffffffffffffffff\n      and\n        /* \"temp.sol\":1441:1570  payable(... */\n      0x08fc\n        /* \"temp.sol\":1560:1569  msg.value */\n      callvalue\n        /* \"temp.sol\":1441:1570  payable(... */\n      swap1\n      dup2\n      iszero\n      mul\n      swap1\n      mload(0x40)\n      0x00\n      mload(0x40)\n      dup1\n      dup4\n      sub\n      dup2\n      dup6\n      dup9\n      dup9\n      call\n      swap4\n      pop\n      pop\n      pop\n      pop\n      iszero\n      dup1\n      iszero\n      tag_75\n      jumpi\n      returndatasize\n      0x00\n      dup1\n      returndatacopy\n      revert(0x00, returndatasize)\n    tag_75:\n      pop\n        /* \"temp.sol\":1581:1639  GatewayEvent(\"payment_native\",pay_id,msg.sender,msg.value) */\n      0xca984d4795c249bd1ecbfb259dac94662abd0b3d5262c6204dfbf000368c993e\n        /* \"temp.sol\":1611:1617  pay_id */\n      dup2\n        /* \"temp.sol\":1618:1628  msg.sender */\n      caller\n        /* \"temp.sol\":1629:1638  msg.value */\n      callvalue\n        /* \"temp.sol\":1581:1639  GatewayEvent(\"payment_native\",pay_id,msg.sender,msg.value) */\n      mload(0x40)\n      tag_76\n      swap4\n      swap3\n      swap2\n      swap1\n      tag_77\n      jump\t// in\n    tag_76:\n      mload(0x40)\n      dup1\n      swap2\n      sub\n      swap1\n      log1\n        /* \"temp.sol\":1326:1644  function payment_native(string memory pay_id) external payable {... */\n      pop\n      jump\t// out\n        /* \"temp.sol\":277:328  mapping(string => address) public g__SitePaymasters */\n    tag_32:\n      0x02\n      dup2\n      dup1\n      mload\n      0x20\n      dup2\n      add\n      dup3\n      add\n      dup1\n      mload\n      dup5\n      dup3\n      mstore\n      0x20\n      dup4\n      add\n      0x20\n      dup6\n      add\n      keccak256\n      dup2\n      dup4\n      mstore\n      dup1\n      swap6\n      pop\n      pop\n      pop\n      pop\n      pop\n      pop\n      0x00\n      swap2\n      pop\n      sload\n      swap1\n      0x0100\n      exp\n      swap1\n      div\n      0xffffffffffffffffffffffffffffffffffffffff\n      and\n      dup2\n      jump\t// out\n        /* \"temp.sol\":186:217  address public g__SiteAuthority */\n    tag_37:\n      0x00\n      dup1\n      sload\n      swap1\n      0x0100\n      exp\n      swap1\n      div\n      0xffffffffffffffffffffffffffffffffffffffff\n      and\n      dup2\n      jump\t// out\n        /* \"temp.sol\":1061:1177  function site__set_paymaster(string memory pay_id,address user) external {... */\n    tag_43:\n        /* \"temp.sol\":1168:1172  user */\n      dup1\n        /* \"temp.sol\":1140:1157  g__SitePaymasters */\n      0x02\n        /* \"temp.sol\":1158:1164  pay_id */\n      dup4\n        /* \"temp.sol\":1140:1165  g__SitePaymasters[pay_id] */\n      mload(0x40)\n      tag_79\n      swap2\n      swap1\n      tag_58\n      jump\t// in\n    tag_79:\n      swap1\n      dup2\n      mstore\n      0x20\n      add\n      mload(0x40)\n      dup1\n      swap2\n      sub\n      swap1\n      keccak256\n      0x00\n        /* \"temp.sol\":1140:1172  g__SitePaymasters[pay_id] = user */\n      0x0100\n      exp\n      dup2\n      sload\n      dup2\n      0xffffffffffffffffffffffffffffffffffffffff\n      mul\n      not\n      and\n      swap1\n      dup4\n      0xffffffffffffffffffffffffffffffffffffffff\n      and\n      mul\n      or\n      swap1\n      sstore\n      pop\n        /* \"temp.sol\":1061:1177  function site__set_paymaster(string memory pay_id,address user) external {... */\n      pop\n      pop\n      jump\t// out\n        /* \"temp.sol\":224:270  mapping(address => bool) public g__SiteSupport */\n    tag_47:\n      mstore(0x20, 0x01)\n      dup1\n      0x00\n      mstore\n      keccak256(0x00, 0x40)\n      0x00\n      swap2\n      pop\n      sload\n      swap1\n      0x0100\n      exp\n      swap1\n      div\n      0xff\n      and\n      dup2\n      jump\t// out\n        /* \"temp.sol\":930:1055  function site__remove_support(address user) external {... */\n    tag_53:\n        /* \"temp.sol\":989:1017  ut__assert_admin(msg.sender) */\n      tag_81\n        /* \"temp.sol\":1006:1016  msg.sender */\n      caller\n        /* \"temp.sol\":989:1005  ut__assert_admin */\n      tag_56\n        /* \"temp.sol\":989:1017  ut__assert_admin(msg.sender) */\n      jump\t// in\n    tag_81:\n        /* \"temp.sol\":1030:1044  g__SiteSupport */\n      0x01\n        /* \"temp.sol\":1030:1050  g__SiteSupport[user] */\n      0x00\n        /* \"temp.sol\":1045:1049  user */\n      dup3\n        /* \"temp.sol\":1030:1050  g__SiteSupport[user] */\n      0xffffffffffffffffffffffffffffffffffffffff\n      and\n      0xffffffffffffffffffffffffffffffffffffffff\n      and\n      dup2\n      mstore\n      0x20\n      add\n      swap1\n      dup2\n      mstore\n      0x20\n      add\n      0x00\n      keccak256\n      0x00\n        /* \"temp.sol\":1023:1050  delete g__SiteSupport[user] */\n      0x0100\n      exp\n      dup2\n      sload\n      swap1\n      0xff\n      mul\n      not\n      and\n      swap1\n      sstore\n        /* \"temp.sol\":930:1055  function site__remove_support(address user) external {... */\n      pop\n      jump\t// out\n        /* \"temp.sol\":395:581  function ut__assert_admin(address user_address) internal view {... */\n    tag_56:\n        /* \"temp.sol\":495:511  g__SiteAuthority */\n      0x00\n      dup1\n      sload\n      swap1\n      0x0100\n      exp\n      swap1\n      div\n      0xffffffffffffffffffffffffffffffffffffffff\n      and\n        /* \"temp.sol\":479:511  user_address == g__SiteAuthority */\n      0xffffffffffffffffffffffffffffffffffffffff\n      and\n        /* \"temp.sol\":479:491  user_address */\n      dup2\n        /* \"temp.sol\":479:511  user_address == g__SiteAuthority */\n      0xffffffffffffffffffffffffffffffffffffffff\n      and\n      eq\n        /* \"temp.sol\":478:544  (user_address == g__SiteAuthority) || g__SiteSupport[user_address] */\n      dup1\n      tag_83\n      jumpi\n      pop\n        /* \"temp.sol\":516:530  g__SiteSupport */\n      0x01\n        /* \"temp.sol\":516:544  g__SiteSupport[user_address] */\n      0x00\n        /* \"temp.sol\":531:543  user_address */\n      dup3\n        /* \"temp.sol\":516:544  g__SiteSupport[user_address] */\n      0xffffffffffffffffffffffffffffffffffffffff\n      and\n      0xffffffffffffffffffffffffffffffffffffffff\n      and\n      dup2\n      mstore\n      0x20\n      add\n      swap1\n      dup2\n      mstore\n      0x20\n      add\n      0x00\n      keccak256\n      0x00\n      swap1\n      sload\n      swap1\n      0x0100\n      exp\n      swap1\n      div\n      0xff\n      and\n        /* \"temp.sol\":478:544  (user_address == g__SiteAuthority) || g__SiteSupport[user_address] */\n    tag_83:\n        /* \"temp.sol\":463:576  require(... */\n      tag_84\n      jumpi\n      mload(0x40)\n      0x08c379a000000000000000000000000000000000000000000000000000000000\n      dup2\n      mstore\n      0x04\n      add\n      tag_85\n      swap1\n      tag_86\n      jump\t// in\n    tag_85:\n      mload(0x40)\n      dup1\n      swap2\n      sub\n      swap1\n      revert\n    tag_84:\n        /* \"temp.sol\":395:581  function ut__assert_admin(address user_address) internal view {... */\n      pop\n      jump\t// out\n        /* \"#utility.yul\":7:82   */\n    tag_87:\n        /* \"#utility.yul\":40:46   */\n      0x00\n        /* \"#utility.yul\":73:75   */\n      0x40\n        /* \"#utility.yul\":67:76   */\n      mload\n        /* \"#utility.yul\":57:76   */\n      swap1\n      pop\n        /* \"#utility.yul\":7:82   */\n      swap1\n      jump\t// out\n        /* \"#utility.yul\":88:205   */\n    tag_88:\n        /* \"#utility.yul\":197:198   */\n      0x00\n        /* \"#utility.yul\":194:195   */\n      dup1\n        /* \"#utility.yul\":187:199   */\n      revert\n        /* \"#utility.yul\":211:328   */\n    tag_89:\n        /* \"#utility.yul\":320:321   */\n      0x00\n        /* \"#utility.yul\":317:318   */\n      dup1\n        /* \"#utility.yul\":310:322   */\n      revert\n        /* \"#utility.yul\":334:451   */\n    tag_90:\n        /* \"#utility.yul\":443:444   */\n      0x00\n        /* \"#utility.yul\":440:441   */\n      dup1\n        /* \"#utility.yul\":433:445   */\n      revert\n        /* \"#utility.yul\":457:574   */\n    tag_91:\n        /* \"#utility.yul\":566:567   */\n      0x00\n        /* \"#utility.yul\":563:564   */\n      dup1\n        /* \"#utility.yul\":556:568   */\n      revert\n        /* \"#utility.yul\":580:682   */\n    tag_92:\n        /* \"#utility.yul\":621:627   */\n      0x00\n        /* \"#utility.yul\":672:674   */\n      0x1f\n        /* \"#utility.yul\":668:675   */\n      not\n        /* \"#utility.yul\":663:665   */\n      0x1f\n        /* \"#utility.yul\":656:661   */\n      dup4\n        /* \"#utility.yul\":652:666   */\n      add\n        /* \"#utility.yul\":648:676   */\n      and\n        /* \"#utility.yul\":638:676   */\n      swap1\n      pop\n        /* \"#utility.yul\":580:682   */\n      swap2\n      swap1\n      pop\n      jump\t// out\n        /* \"#utility.yul\":688:868   */\n    tag_93:\n        /* \"#utility.yul\":736:813   */\n      0x4e487b7100000000000000000000000000000000000000000000000000000000\n        /* \"#utility.yul\":733:734   */\n      0x00\n        /* \"#utility.yul\":726:814   */\n      mstore\n        /* \"#utility.yul\":833:837   */\n      0x41\n        /* \"#utility.yul\":830:831   */\n      0x04\n        /* \"#utility.yul\":823:838   */\n      mstore\n        /* \"#utility.yul\":857:861   */\n      0x24\n        /* \"#utility.yul\":854:855   */\n      0x00\n        /* \"#utility.yul\":847:862   */\n      revert\n        /* \"#utility.yul\":874:1155   */\n    tag_94:\n        /* \"#utility.yul\":957:984   */\n      tag_132\n        /* \"#utility.yul\":979:983   */\n      dup3\n        /* \"#utility.yul\":957:984   */\n      tag_92\n      jump\t// in\n    tag_132:\n        /* \"#utility.yul\":949:955   */\n      dup2\n        /* \"#utility.yul\":945:985   */\n      add\n        /* \"#utility.yul\":1087:1093   */\n      dup2\n        /* \"#utility.yul\":1075:1085   */\n      dup2\n        /* \"#utility.yul\":1072:1094   */\n      lt\n        /* \"#utility.yul\":1051:1069   */\n      0xffffffffffffffff\n        /* \"#utility.yul\":1039:1049   */\n      dup3\n        /* \"#utility.yul\":1036:1070   */\n      gt\n        /* \"#utility.yul\":1033:1095   */\n      or\n        /* \"#utility.yul\":1030:1118   */\n      iszero\n      tag_133\n      jumpi\n        /* \"#utility.yul\":1098:1116   */\n      tag_134\n      tag_93\n      jump\t// in\n    tag_134:\n        /* \"#utility.yul\":1030:1118   */\n    tag_133:\n        /* \"#utility.yul\":1138:1148   */\n      dup1\n        /* \"#utility.yul\":1134:1136   */\n      0x40\n        /* \"#utility.yul\":1127:1149   */\n      mstore\n        /* \"#utility.yul\":917:1155   */\n      pop\n        /* \"#utility.yul\":874:1155   */\n      pop\n      pop\n      jump\t// out\n        /* \"#utility.yul\":1161:1290   */\n    tag_95:\n        /* \"#utility.yul\":1195:1201   */\n      0x00\n        /* \"#utility.yul\":1222:1242   */\n      tag_136\n      tag_87\n      jump\t// in\n    tag_136:\n        /* \"#utility.yul\":1212:1242   */\n      swap1\n      pop\n        /* \"#utility.yul\":1251:1284   */\n      tag_137\n        /* \"#utility.yul\":1279:1283   */\n      dup3\n        /* \"#utility.yul\":1271:1277   */\n      dup3\n        /* \"#utility.yul\":1251:1284   */\n      tag_94\n      jump\t// in\n    tag_137:\n        /* \"#utility.yul\":1161:1290   */\n      swap2\n      swap1\n      pop\n      jump\t// out\n        /* \"#utility.yul\":1296:1604   */\n    tag_96:\n        /* \"#utility.yul\":1358:1362   */\n      0x00\n        /* \"#utility.yul\":1448:1466   */\n      0xffffffffffffffff\n        /* \"#utility.yul\":1440:1446   */\n      dup3\n        /* \"#utility.yul\":1437:1467   */\n      gt\n        /* \"#utility.yul\":1434:1490   */\n      iszero\n      tag_139\n      jumpi\n        /* \"#utility.yul\":1470:1488   */\n      tag_140\n      tag_93\n      jump\t// in\n    tag_140:\n        /* \"#utility.yul\":1434:1490   */\n    tag_139:\n        /* \"#utility.yul\":1508:1537   */\n      tag_141\n        /* \"#utility.yul\":1530:1536   */\n      dup3\n        /* \"#utility.yul\":1508:1537   */\n      tag_92\n      jump\t// in\n    tag_141:\n        /* \"#utility.yul\":1500:1537   */\n      swap1\n      pop\n        /* \"#utility.yul\":1592:1596   */\n      0x20\n        /* \"#utility.yul\":1586:1590   */\n      dup2\n        /* \"#utility.yul\":1582:1597   */\n      add\n        /* \"#utility.yul\":1574:1597   */\n      swap1\n      pop\n        /* \"#utility.yul\":1296:1604   */\n      swap2\n      swap1\n      pop\n      jump\t// out\n        /* \"#utility.yul\":1610:1756   */\n    tag_97:\n        /* \"#utility.yul\":1707:1713   */\n      dup3\n        /* \"#utility.yul\":1702:1705   */\n      dup2\n        /* \"#utility.yul\":1697:1700   */\n      dup4\n        /* \"#utility.yul\":1684:1714   */\n      calldatacopy\n        /* \"#utility.yul\":1748:1749   */\n      0x00\n        /* \"#utility.yul\":1739:1745   */\n      dup4\n        /* \"#utility.yul\":1734:1737   */\n      dup4\n        /* \"#utility.yul\":1730:1746   */\n      add\n        /* \"#utility.yul\":1723:1750   */\n      mstore\n        /* \"#utility.yul\":1610:1756   */\n      pop\n      pop\n      pop\n      jump\t// out\n        /* \"#utility.yul\":1762:2187   */\n    tag_98:\n        /* \"#utility.yul\":1840:1845   */\n      0x00\n        /* \"#utility.yul\":1865:1931   */\n      tag_144\n        /* \"#utility.yul\":1881:1930   */\n      tag_145\n        /* \"#utility.yul\":1923:1929   */\n      dup5\n        /* \"#utility.yul\":1881:1930   */\n      tag_96\n      jump\t// in\n    tag_145:\n        /* \"#utility.yul\":1865:1931   */\n      tag_95\n      jump\t// in\n    tag_144:\n        /* \"#utility.yul\":1856:1931   */\n      swap1\n      pop\n        /* \"#utility.yul\":1954:1960   */\n      dup3\n        /* \"#utility.yul\":1947:1952   */\n      dup2\n        /* \"#utility.yul\":1940:1961   */\n      mstore\n        /* \"#utility.yul\":1992:1996   */\n      0x20\n        /* \"#utility.yul\":1985:1990   */\n      dup2\n        /* \"#utility.yul\":1981:1997   */\n      add\n        /* \"#utility.yul\":2030:2033   */\n      dup5\n        /* \"#utility.yul\":2021:2027   */\n      dup5\n        /* \"#utility.yul\":2016:2019   */\n      dup5\n        /* \"#utility.yul\":2012:2028   */\n      add\n        /* \"#utility.yul\":2009:2034   */\n      gt\n        /* \"#utility.yul\":2006:2118   */\n      iszero\n      tag_146\n      jumpi\n        /* \"#utility.yul\":2037:2116   */\n      tag_147\n      tag_91\n      jump\t// in\n    tag_147:\n        /* \"#utility.yul\":2006:2118   */\n    tag_146:\n        /* \"#utility.yul\":2127:2181   */\n      tag_148\n        /* \"#utility.yul\":2174:2180   */\n      dup5\n        /* \"#utility.yul\":2169:2172   */\n      dup3\n        /* \"#utility.yul\":2164:2167   */\n      dup6\n        /* \"#utility.yul\":2127:2181   */\n      tag_97\n      jump\t// in\n    tag_148:\n        /* \"#utility.yul\":1846:2187   */\n      pop\n        /* \"#utility.yul\":1762:2187   */\n      swap4\n      swap3\n      pop\n      pop\n      pop\n      jump\t// out\n        /* \"#utility.yul\":2207:2547   */\n    tag_99:\n        /* \"#utility.yul\":2263:2268   */\n      0x00\n        /* \"#utility.yul\":2312:2315   */\n      dup3\n        /* \"#utility.yul\":2305:2309   */\n      0x1f\n        /* \"#utility.yul\":2297:2303   */\n      dup4\n        /* \"#utility.yul\":2293:2310   */\n      add\n        /* \"#utility.yul\":2289:2316   */\n      slt\n        /* \"#utility.yul\":2279:2401   */\n      tag_150\n      jumpi\n        /* \"#utility.yul\":2320:2399   */\n      tag_151\n      tag_90\n      jump\t// in\n    tag_151:\n        /* \"#utility.yul\":2279:2401   */\n    tag_150:\n        /* \"#utility.yul\":2437:2443   */\n      dup2\n        /* \"#utility.yul\":2424:2444   */\n      calldataload\n        /* \"#utility.yul\":2462:2541   */\n      tag_152\n        /* \"#utility.yul\":2537:2540   */\n      dup5\n        /* \"#utility.yul\":2529:2535   */\n      dup3\n        /* \"#utility.yul\":2522:2526   */\n      0x20\n        /* \"#utility.yul\":2514:2520   */\n      dup7\n        /* \"#utility.yul\":2510:2527   */\n      add\n        /* \"#utility.yul\":2462:2541   */\n      tag_98\n      jump\t// in\n    tag_152:\n        /* \"#utility.yul\":2453:2541   */\n      swap2\n      pop\n        /* \"#utility.yul\":2269:2547   */\n      pop\n        /* \"#utility.yul\":2207:2547   */\n      swap3\n      swap2\n      pop\n      pop\n      jump\t// out\n        /* \"#utility.yul\":2553:3062   */\n    tag_15:\n        /* \"#utility.yul\":2622:2628   */\n      0x00\n        /* \"#utility.yul\":2671:2673   */\n      0x20\n        /* \"#utility.yul\":2659:2668   */\n      dup3\n        /* \"#utility.yul\":2650:2657   */\n      dup5\n        /* \"#utility.yul\":2646:2669   */\n      sub\n        /* \"#utility.yul\":2642:2674   */\n      slt\n        /* \"#utility.yul\":2639:2758   */\n      iszero\n      tag_154\n      jumpi\n        /* \"#utility.yul\":2677:2756   */\n      tag_155\n      tag_88\n      jump\t// in\n    tag_155:\n        /* \"#utility.yul\":2639:2758   */\n    tag_154:\n        /* \"#utility.yul\":2825:2826   */\n      0x00\n        /* \"#utility.yul\":2814:2823   */\n      dup3\n        /* \"#utility.yul\":2810:2827   */\n      add\n        /* \"#utility.yul\":2797:2828   */\n      calldataload\n        /* \"#utility.yul\":2855:2873   */\n      0xffffffffffffffff\n        /* \"#utility.yul\":2847:2853   */\n      dup2\n        /* \"#utility.yul\":2844:2874   */\n      gt\n        /* \"#utility.yul\":2841:2958   */\n      iszero\n      tag_156\n      jumpi\n        /* \"#utility.yul\":2877:2956   */\n      tag_157\n      tag_89\n      jump\t// in\n    tag_157:\n        /* \"#utility.yul\":2841:2958   */\n    tag_156:\n        /* \"#utility.yul\":2982:3045   */\n      tag_158\n        /* \"#utility.yul\":3037:3044   */\n      dup5\n        /* \"#utility.yul\":3028:3034   */\n      dup3\n        /* \"#utility.yul\":3017:3026   */\n      dup6\n        /* \"#utility.yul\":3013:3035   */\n      add\n        /* \"#utility.yul\":2982:3045   */\n      tag_99\n      jump\t// in\n    tag_158:\n        /* \"#utility.yul\":2972:3045   */\n      swap2\n      pop\n        /* \"#utility.yul\":2768:3055   */\n      pop\n        /* \"#utility.yul\":2553:3062   */\n      swap3\n      swap2\n      pop\n      pop\n      jump\t// out\n        /* \"#utility.yul\":3068:3194   */\n    tag_100:\n        /* \"#utility.yul\":3105:3112   */\n      0x00\n        /* \"#utility.yul\":3145:3187   */\n      0xffffffffffffffffffffffffffffffffffffffff\n        /* \"#utility.yul\":3138:3143   */\n      dup3\n        /* \"#utility.yul\":3134:3188   */\n      and\n        /* \"#utility.yul\":3123:3188   */\n      swap1\n      pop\n        /* \"#utility.yul\":3068:3194   */\n      swap2\n      swap1\n      pop\n      jump\t// out\n        /* \"#utility.yul\":3200:3296   */\n    tag_101:\n        /* \"#utility.yul\":3237:3244   */\n      0x00\n        /* \"#utility.yul\":3266:3290   */\n      tag_161\n        /* \"#utility.yul\":3284:3289   */\n      dup3\n        /* \"#utility.yul\":3266:3290   */\n      tag_100\n      jump\t// in\n    tag_161:\n        /* \"#utility.yul\":3255:3290   */\n      swap1\n      pop\n        /* \"#utility.yul\":3200:3296   */\n      swap2\n      swap1\n      pop\n      jump\t// out\n        /* \"#utility.yul\":3302:3424   */\n    tag_102:\n        /* \"#utility.yul\":3375:3399   */\n      tag_163\n        /* \"#utility.yul\":3393:3398   */\n      dup2\n        /* \"#utility.yul\":3375:3399   */\n      tag_101\n      jump\t// in\n    tag_163:\n        /* \"#utility.yul\":3368:3373   */\n      dup2\n        /* \"#utility.yul\":3365:3400   */\n      eq\n        /* \"#utility.yul\":3355:3418   */\n      tag_164\n      jumpi\n        /* \"#utility.yul\":3414:3415   */\n      0x00\n        /* \"#utility.yul\":3411:3412   */\n      dup1\n        /* \"#utility.yul\":3404:3416   */\n      revert\n        /* \"#utility.yul\":3355:3418   */\n    tag_164:\n        /* \"#utility.yul\":3302:3424   */\n      pop\n      jump\t// out\n        /* \"#utility.yul\":3430:3569   */\n    tag_103:\n        /* \"#utility.yul\":3476:3481   */\n      0x00\n        /* \"#utility.yul\":3514:3520   */\n      dup2\n        /* \"#utility.yul\":3501:3521   */\n      calldataload\n        /* \"#utility.yul\":3492:3521   */\n      swap1\n      pop\n        /* \"#utility.yul\":3530:3563   */\n      tag_166\n        /* \"#utility.yul\":3557:3562   */\n      dup2\n        /* \"#utility.yul\":3530:3563   */\n      tag_102\n      jump\t// in\n    tag_166:\n        /* \"#utility.yul\":3430:3569   */\n      swap3\n      swap2\n      pop\n      pop\n      jump\t// out\n        /* \"#utility.yul\":3575:3904   */\n    tag_20:\n        /* \"#utility.yul\":3634:3640   */\n      0x00\n        /* \"#utility.yul\":3683:3685   */\n      0x20\n        /* \"#utility.yul\":3671:3680   */\n      dup3\n        /* \"#utility.yul\":3662:3669   */\n      dup5\n        /* \"#utility.yul\":3658:3681   */\n      sub\n        /* \"#utility.yul\":3654:3686   */\n      slt\n        /* \"#utility.yul\":3651:3770   */\n      iszero\n      tag_168\n      jumpi\n        /* \"#utility.yul\":3689:3768   */\n      tag_169\n      tag_88\n      jump\t// in\n    tag_169:\n        /* \"#utility.yul\":3651:3770   */\n    tag_168:\n        /* \"#utility.yul\":3809:3810   */\n      0x00\n        /* \"#utility.yul\":3834:3887   */\n      tag_170\n        /* \"#utility.yul\":3879:3886   */\n      dup5\n        /* \"#utility.yul\":3870:3876   */\n      dup3\n        /* \"#utility.yul\":3859:3868   */\n      dup6\n        /* \"#utility.yul\":3855:3877   */\n      add\n        /* \"#utility.yul\":3834:3887   */\n      tag_103\n      jump\t// in\n    tag_170:\n        /* \"#utility.yul\":3824:3887   */\n      swap2\n      pop\n        /* \"#utility.yul\":3780:3897   */\n      pop\n        /* \"#utility.yul\":3575:3904   */\n      swap3\n      swap2\n      pop\n      pop\n      jump\t// out\n        /* \"#utility.yul\":3910:4028   */\n    tag_104:\n        /* \"#utility.yul\":3997:4021   */\n      tag_172\n        /* \"#utility.yul\":4015:4020   */\n      dup2\n        /* \"#utility.yul\":3997:4021   */\n      tag_101\n      jump\t// in\n    tag_172:\n        /* \"#utility.yul\":3992:3995   */\n      dup3\n        /* \"#utility.yul\":3985:4022   */\n      mstore\n        /* \"#utility.yul\":3910:4028   */\n      pop\n      pop\n      jump\t// out\n        /* \"#utility.yul\":4034:4256   */\n    tag_34:\n        /* \"#utility.yul\":4127:4131   */\n      0x00\n        /* \"#utility.yul\":4165:4167   */\n      0x20\n        /* \"#utility.yul\":4154:4163   */\n      dup3\n        /* \"#utility.yul\":4150:4168   */\n      add\n        /* \"#utility.yul\":4142:4168   */\n      swap1\n      pop\n        /* \"#utility.yul\":4178:4249   */\n      tag_174\n        /* \"#utility.yul\":4246:4247   */\n      0x00\n        /* \"#utility.yul\":4235:4244   */\n      dup4\n        /* \"#utility.yul\":4231:4248   */\n      add\n        /* \"#utility.yul\":4222:4228   */\n      dup5\n        /* \"#utility.yul\":4178:4249   */\n      tag_104\n      jump\t// in\n    tag_174:\n        /* \"#utility.yul\":4034:4256   */\n      swap3\n      swap2\n      pop\n      pop\n      jump\t// out\n        /* \"#utility.yul\":4262:4916   */\n    tag_42:\n        /* \"#utility.yul\":4340:4346   */\n      0x00\n        /* \"#utility.yul\":4348:4354   */\n      dup1\n        /* \"#utility.yul\":4397:4399   */\n      0x40\n        /* \"#utility.yul\":4385:4394   */\n      dup4\n        /* \"#utility.yul\":4376:4383   */\n      dup6\n        /* \"#utility.yul\":4372:4395   */\n      sub\n        /* \"#utility.yul\":4368:4400   */\n      slt\n        /* \"#utility.yul\":4365:4484   */\n      iszero\n      tag_176\n      jumpi\n        /* \"#utility.yul\":4403:4482   */\n      tag_177\n      tag_88\n      jump\t// in\n    tag_177:\n        /* \"#utility.yul\":4365:4484   */\n    tag_176:\n        /* \"#utility.yul\":4551:4552   */\n      0x00\n        /* \"#utility.yul\":4540:4549   */\n      dup4\n        /* \"#utility.yul\":4536:4553   */\n      add\n        /* \"#utility.yul\":4523:4554   */\n      calldataload\n        /* \"#utility.yul\":4581:4599   */\n      0xffffffffffffffff\n        /* \"#utility.yul\":4573:4579   */\n      dup2\n        /* \"#utility.yul\":4570:4600   */\n      gt\n        /* \"#utility.yul\":4567:4684   */\n      iszero\n      tag_178\n      jumpi\n        /* \"#utility.yul\":4603:4682   */\n      tag_179\n      tag_89\n      jump\t// in\n    tag_179:\n        /* \"#utility.yul\":4567:4684   */\n    tag_178:\n        /* \"#utility.yul\":4708:4771   */\n      tag_180\n        /* \"#utility.yul\":4763:4770   */\n      dup6\n        /* \"#utility.yul\":4754:4760   */\n      dup3\n        /* \"#utility.yul\":4743:4752   */\n      dup7\n        /* \"#utility.yul\":4739:4761   */\n      add\n        /* \"#utility.yul\":4708:4771   */\n      tag_99\n      jump\t// in\n    tag_180:\n        /* \"#utility.yul\":4698:4771   */\n      swap3\n      pop\n        /* \"#utility.yul\":4494:4781   */\n      pop\n        /* \"#utility.yul\":4820:4822   */\n      0x20\n        /* \"#utility.yul\":4846:4899   */\n      tag_181\n        /* \"#utility.yul\":4891:4898   */\n      dup6\n        /* \"#utility.yul\":4882:4888   */\n      dup3\n        /* \"#utility.yul\":4871:4880   */\n      dup7\n        /* \"#utility.yul\":4867:4889   */\n      add\n        /* \"#utility.yul\":4846:4899   */\n      tag_103\n      jump\t// in\n    tag_181:\n        /* \"#utility.yul\":4836:4899   */\n      swap2\n      pop\n        /* \"#utility.yul\":4791:4909   */\n      pop\n        /* \"#utility.yul\":4262:4916   */\n      swap3\n      pop\n      swap3\n      swap1\n      pop\n      jump\t// out\n        /* \"#utility.yul\":4922:5012   */\n    tag_105:\n        /* \"#utility.yul\":4956:4963   */\n      0x00\n        /* \"#utility.yul\":4999:5004   */\n      dup2\n        /* \"#utility.yul\":4992:5005   */\n      iszero\n        /* \"#utility.yul\":4985:5006   */\n      iszero\n        /* \"#utility.yul\":4974:5006   */\n      swap1\n      pop\n        /* \"#utility.yul\":4922:5012   */\n      swap2\n      swap1\n      pop\n      jump\t// out\n        /* \"#utility.yul\":5018:5127   */\n    tag_106:\n        /* \"#utility.yul\":5099:5120   */\n      tag_184\n        /* \"#utility.yul\":5114:5119   */\n      dup2\n        /* \"#utility.yul\":5099:5120   */\n      tag_105\n      jump\t// in\n    tag_184:\n        /* \"#utility.yul\":5094:5097   */\n      dup3\n        /* \"#utility.yul\":5087:5121   */\n      mstore\n        /* \"#utility.yul\":5018:5127   */\n      pop\n      pop\n      jump\t// out\n        /* \"#utility.yul\":5133:5343   */\n    tag_49:\n        /* \"#utility.yul\":5220:5224   */\n      0x00\n        /* \"#utility.yul\":5258:5260   */\n      0x20\n        /* \"#utility.yul\":5247:5256   */\n      dup3\n        /* \"#utility.yul\":5243:5261   */\n      add\n        /* \"#utility.yul\":5235:5261   */\n      swap1\n      pop\n        /* \"#utility.yul\":5271:5336   */\n      tag_186\n        /* \"#utility.yul\":5333:5334   */\n      0x00\n        /* \"#utility.yul\":5322:5331   */\n      dup4\n        /* \"#utility.yul\":5318:5335   */\n      add\n        /* \"#utility.yul\":5309:5315   */\n      dup5\n        /* \"#utility.yul\":5271:5336   */\n      tag_106\n      jump\t// in\n    tag_186:\n        /* \"#utility.yul\":5133:5343   */\n      swap3\n      swap2\n      pop\n      pop\n      jump\t// out\n        /* \"#utility.yul\":5349:5448   */\n    tag_107:\n        /* \"#utility.yul\":5401:5407   */\n      0x00\n        /* \"#utility.yul\":5435:5440   */\n      dup2\n        /* \"#utility.yul\":5429:5441   */\n      mload\n        /* \"#utility.yul\":5419:5441   */\n      swap1\n      pop\n        /* \"#utility.yul\":5349:5448   */\n      swap2\n      swap1\n      pop\n      jump\t// out\n        /* \"#utility.yul\":5454:5602   */\n    tag_108:\n        /* \"#utility.yul\":5556:5567   */\n      0x00\n        /* \"#utility.yul\":5593:5596   */\n      dup2\n        /* \"#utility.yul\":5578:5596   */\n      swap1\n      pop\n        /* \"#utility.yul\":5454:5602   */\n      swap3\n      swap2\n      pop\n      pop\n      jump\t// out\n        /* \"#utility.yul\":5608:5854   */\n    tag_109:\n        /* \"#utility.yul\":5689:5690   */\n      0x00\n        /* \"#utility.yul\":5699:5812   */\n    tag_190:\n        /* \"#utility.yul\":5713:5719   */\n      dup4\n        /* \"#utility.yul\":5710:5711   */\n      dup2\n        /* \"#utility.yul\":5707:5720   */\n      lt\n        /* \"#utility.yul\":5699:5812   */\n      iszero\n      tag_192\n      jumpi\n        /* \"#utility.yul\":5798:5799   */\n      dup1\n        /* \"#utility.yul\":5793:5796   */\n      dup3\n        /* \"#utility.yul\":5789:5800   */\n      add\n        /* \"#utility.yul\":5783:5801   */\n      mload\n        /* \"#utility.yul\":5779:5780   */\n      dup2\n        /* \"#utility.yul\":5774:5777   */\n      dup5\n        /* \"#utility.yul\":5770:5781   */\n      add\n        /* \"#utility.yul\":5763:5802   */\n      mstore\n        /* \"#utility.yul\":5735:5737   */\n      0x20\n        /* \"#utility.yul\":5732:5733   */\n      dup2\n        /* \"#utility.yul\":5728:5738   */\n      add\n        /* \"#utility.yul\":5723:5738   */\n      swap1\n      pop\n        /* \"#utility.yul\":5699:5812   */\n      jump(tag_190)\n    tag_192:\n        /* \"#utility.yul\":5846:5847   */\n      0x00\n        /* \"#utility.yul\":5837:5843   */\n      dup5\n        /* \"#utility.yul\":5832:5835   */\n      dup5\n        /* \"#utility.yul\":5828:5844   */\n      add\n        /* \"#utility.yul\":5821:5848   */\n      mstore\n        /* \"#utility.yul\":5670:5854   */\n      pop\n        /* \"#utility.yul\":5608:5854   */\n      pop\n      pop\n      pop\n      jump\t// out\n        /* \"#utility.yul\":5860:6250   */\n    tag_110:\n        /* \"#utility.yul\":5966:5969   */\n      0x00\n        /* \"#utility.yul\":5994:6033   */\n      tag_194\n        /* \"#utility.yul\":6027:6032   */\n      dup3\n        /* \"#utility.yul\":5994:6033   */\n      tag_107\n      jump\t// in\n    tag_194:\n        /* \"#utility.yul\":6049:6138   */\n      tag_195\n        /* \"#utility.yul\":6131:6137   */\n      dup2\n        /* \"#utility.yul\":6126:6129   */\n      dup6\n        /* \"#utility.yul\":6049:6138   */\n      tag_108\n      jump\t// in\n    tag_195:\n        /* \"#utility.yul\":6042:6138   */\n      swap4\n      pop\n        /* \"#utility.yul\":6147:6212   */\n      tag_196\n        /* \"#utility.yul\":6205:6211   */\n      dup2\n        /* \"#utility.yul\":6200:6203   */\n      dup6\n        /* \"#utility.yul\":6193:6197   */\n      0x20\n        /* \"#utility.yul\":6186:6191   */\n      dup7\n        /* \"#utility.yul\":6182:6198   */\n      add\n        /* \"#utility.yul\":6147:6212   */\n      tag_109\n      jump\t// in\n    tag_196:\n        /* \"#utility.yul\":6237:6243   */\n      dup1\n        /* \"#utility.yul\":6232:6235   */\n      dup5\n        /* \"#utility.yul\":6228:6244   */\n      add\n        /* \"#utility.yul\":6221:6244   */\n      swap2\n      pop\n        /* \"#utility.yul\":5970:6250   */\n      pop\n        /* \"#utility.yul\":5860:6250   */\n      swap3\n      swap2\n      pop\n      pop\n      jump\t// out\n        /* \"#utility.yul\":6256:6531   */\n    tag_58:\n        /* \"#utility.yul\":6388:6391   */\n      0x00\n        /* \"#utility.yul\":6410:6505   */\n      tag_198\n        /* \"#utility.yul\":6501:6504   */\n      dup3\n        /* \"#utility.yul\":6492:6498   */\n      dup5\n        /* \"#utility.yul\":6410:6505   */\n      tag_110\n      jump\t// in\n    tag_198:\n        /* \"#utility.yul\":6403:6505   */\n      swap2\n      pop\n        /* \"#utility.yul\":6522:6525   */\n      dup2\n        /* \"#utility.yul\":6515:6525   */\n      swap1\n      pop\n        /* \"#utility.yul\":6256:6531   */\n      swap3\n      swap2\n      pop\n      pop\n      jump\t// out\n        /* \"#utility.yul\":6537:6706   */\n    tag_111:\n        /* \"#utility.yul\":6621:6632   */\n      0x00\n        /* \"#utility.yul\":6655:6661   */\n      dup3\n        /* \"#utility.yul\":6650:6653   */\n      dup3\n        /* \"#utility.yul\":6643:6662   */\n      mstore\n        /* \"#utility.yul\":6695:6699   */\n      0x20\n        /* \"#utility.yul\":6690:6693   */\n      dup3\n        /* \"#utility.yul\":6686:6700   */\n      add\n        /* \"#utility.yul\":6671:6700   */\n      swap1\n      pop\n        /* \"#utility.yul\":6537:6706   */\n      swap3\n      swap2\n      pop\n      pop\n      jump\t// out\n        /* \"#utility.yul\":6712:6882   */\n    tag_112:\n        /* \"#utility.yul\":6852:6874   */\n      0x5369746520617574686f72697479206f6e6c792e000000000000000000000000\n        /* \"#utility.yul\":6848:6849   */\n      0x00\n        /* \"#utility.yul\":6840:6846   */\n      dup3\n        /* \"#utility.yul\":6836:6850   */\n      add\n        /* \"#utility.yul\":6829:6875   */\n      mstore\n        /* \"#utility.yul\":6712:6882   */\n      pop\n      jump\t// out\n        /* \"#utility.yul\":6888:7254   */\n    tag_113:\n        /* \"#utility.yul\":7030:7033   */\n      0x00\n        /* \"#utility.yul\":7051:7118   */\n      tag_202\n        /* \"#utility.yul\":7115:7117   */\n      0x14\n        /* \"#utility.yul\":7110:7113   */\n      dup4\n        /* \"#utility.yul\":7051:7118   */\n      tag_111\n      jump\t// in\n    tag_202:\n        /* \"#utility.yul\":7044:7118   */\n      swap2\n      pop\n        /* \"#utility.yul\":7127:7220   */\n      tag_203\n        /* \"#utility.yul\":7216:7219   */\n      dup3\n        /* \"#utility.yul\":7127:7220   */\n      tag_112\n      jump\t// in\n    tag_203:\n        /* \"#utility.yul\":7245:7247   */\n      0x20\n        /* \"#utility.yul\":7240:7243   */\n      dup3\n        /* \"#utility.yul\":7236:7248   */\n      add\n        /* \"#utility.yul\":7229:7248   */\n      swap1\n      pop\n        /* \"#utility.yul\":6888:7254   */\n      swap2\n      swap1\n      pop\n      jump\t// out\n        /* \"#utility.yul\":7260:7679   */\n    tag_62:\n        /* \"#utility.yul\":7426:7430   */\n      0x00\n        /* \"#utility.yul\":7464:7466   */\n      0x20\n        /* \"#utility.yul\":7453:7462   */\n      dup3\n        /* \"#utility.yul\":7449:7467   */\n      add\n        /* \"#utility.yul\":7441:7467   */\n      swap1\n      pop\n        /* \"#utility.yul\":7513:7522   */\n      dup2\n        /* \"#utility.yul\":7507:7511   */\n      dup2\n        /* \"#utility.yul\":7503:7523   */\n      sub\n        /* \"#utility.yul\":7499:7500   */\n      0x00\n        /* \"#utility.yul\":7488:7497   */\n      dup4\n        /* \"#utility.yul\":7484:7501   */\n      add\n        /* \"#utility.yul\":7477:7524   */\n      mstore\n        /* \"#utility.yul\":7541:7672   */\n      tag_205\n        /* \"#utility.yul\":7667:7671   */\n      dup2\n        /* \"#utility.yul\":7541:7672   */\n      tag_113\n      jump\t// in\n    tag_205:\n        /* \"#utility.yul\":7533:7672   */\n      swap1\n      pop\n        /* \"#utility.yul\":7260:7679   */\n      swap2\n      swap1\n      pop\n      jump\t// out\n        /* \"#utility.yul\":7685:7849   */\n    tag_114:\n        /* \"#utility.yul\":7825:7841   */\n      0x43616e6e6f74206265207a65726f000000000000000000000000000000000000\n        /* \"#utility.yul\":7821:7822   */\n      0x00\n        /* \"#utility.yul\":7813:7819   */\n      dup3\n        /* \"#utility.yul\":7809:7823   */\n      add\n        /* \"#utility.yul\":7802:7842   */\n      mstore\n        /* \"#utility.yul\":7685:7849   */\n      pop\n      jump\t// out\n        /* \"#utility.yul\":7855:8221   */\n    tag_115:\n        /* \"#utility.yul\":7997:8000   */\n      0x00\n        /* \"#utility.yul\":8018:8085   */\n      tag_208\n        /* \"#utility.yul\":8082:8084   */\n      0x0e\n        /* \"#utility.yul\":8077:8080   */\n      dup4\n        /* \"#utility.yul\":8018:8085   */\n      tag_111\n      jump\t// in\n    tag_208:\n        /* \"#utility.yul\":8011:8085   */\n      swap2\n      pop\n        /* \"#utility.yul\":8094:8187   */\n      tag_209\n        /* \"#utility.yul\":8183:8186   */\n      dup3\n        /* \"#utility.yul\":8094:8187   */\n      tag_114\n      jump\t// in\n    tag_209:\n        /* \"#utility.yul\":8212:8214   */\n      0x20\n        /* \"#utility.yul\":8207:8210   */\n      dup3\n        /* \"#utility.yul\":8203:8215   */\n      add\n        /* \"#utility.yul\":8196:8215   */\n      swap1\n      pop\n        /* \"#utility.yul\":7855:8221   */\n      swap2\n      swap1\n      pop\n      jump\t// out\n        /* \"#utility.yul\":8227:8646   */\n    tag_69:\n        /* \"#utility.yul\":8393:8397   */\n      0x00\n        /* \"#utility.yul\":8431:8433   */\n      0x20\n        /* \"#utility.yul\":8420:8429   */\n      dup3\n        /* \"#utility.yul\":8416:8434   */\n      add\n        /* \"#utility.yul\":8408:8434   */\n      swap1\n      pop\n        /* \"#utility.yul\":8480:8489   */\n      dup2\n        /* \"#utility.yul\":8474:8478   */\n      dup2\n        /* \"#utility.yul\":8470:8490   */\n      sub\n        /* \"#utility.yul\":8466:8467   */\n      0x00\n        /* \"#utility.yul\":8455:8464   */\n      dup4\n        /* \"#utility.yul\":8451:8468   */\n      add\n        /* \"#utility.yul\":8444:8491   */\n      mstore\n        /* \"#utility.yul\":8508:8639   */\n      tag_211\n        /* \"#utility.yul\":8634:8638   */\n      dup2\n        /* \"#utility.yul\":8508:8639   */\n      tag_115\n      jump\t// in\n    tag_211:\n        /* \"#utility.yul\":8500:8639   */\n      swap1\n      pop\n        /* \"#utility.yul\":8227:8646   */\n      swap2\n      swap1\n      pop\n      jump\t// out\n        /* \"#utility.yul\":8652:8816   */\n    tag_116:\n        /* \"#utility.yul\":8792:8808   */\n      0x7061796d656e745f6e6174697665000000000000000000000000000000000000\n        /* \"#utility.yul\":8788:8789   */\n      0x00\n        /* \"#utility.yul\":8780:8786   */\n      dup3\n        /* \"#utility.yul\":8776:8790   */\n      add\n        /* \"#utility.yul\":8769:8809   */\n      mstore\n        /* \"#utility.yul\":8652:8816   */\n      pop\n      jump\t// out\n        /* \"#utility.yul\":8822:9188   */\n    tag_117:\n        /* \"#utility.yul\":8964:8967   */\n      0x00\n        /* \"#utility.yul\":8985:9052   */\n      tag_214\n        /* \"#utility.yul\":9049:9051   */\n      0x0e\n        /* \"#utility.yul\":9044:9047   */\n      dup4\n        /* \"#utility.yul\":8985:9052   */\n      tag_111\n      jump\t// in\n    tag_214:\n        /* \"#utility.yul\":8978:9052   */\n      swap2\n      pop\n        /* \"#utility.yul\":9061:9154   */\n      tag_215\n        /* \"#utility.yul\":9150:9153   */\n      dup3\n        /* \"#utility.yul\":9061:9154   */\n      tag_116\n      jump\t// in\n    tag_215:\n        /* \"#utility.yul\":9179:9181   */\n      0x20\n        /* \"#utility.yul\":9174:9177   */\n      dup3\n        /* \"#utility.yul\":9170:9182   */\n      add\n        /* \"#utility.yul\":9163:9182   */\n      swap1\n      pop\n        /* \"#utility.yul\":8822:9188   */\n      swap2\n      swap1\n      pop\n      jump\t// out\n        /* \"#utility.yul\":9194:9571   */\n    tag_118:\n        /* \"#utility.yul\":9282:9285   */\n      0x00\n        /* \"#utility.yul\":9310:9349   */\n      tag_217\n        /* \"#utility.yul\":9343:9348   */\n      dup3\n        /* \"#utility.yul\":9310:9349   */\n      tag_107\n      jump\t// in\n    tag_217:\n        /* \"#utility.yul\":9365:9436   */\n      tag_218\n        /* \"#utility.yul\":9429:9435   */\n      dup2\n        /* \"#utility.yul\":9424:9427   */\n      dup6\n        /* \"#utility.yul\":9365:9436   */\n      tag_111\n      jump\t// in\n    tag_218:\n        /* \"#utility.yul\":9358:9436   */\n      swap4\n      pop\n        /* \"#utility.yul\":9445:9510   */\n      tag_219\n        /* \"#utility.yul\":9503:9509   */\n      dup2\n        /* \"#utility.yul\":9498:9501   */\n      dup6\n        /* \"#utility.yul\":9491:9495   */\n      0x20\n        /* \"#utility.yul\":9484:9489   */\n      dup7\n        /* \"#utility.yul\":9480:9496   */\n      add\n        /* \"#utility.yul\":9445:9510   */\n      tag_109\n      jump\t// in\n    tag_219:\n        /* \"#utility.yul\":9535:9564   */\n      tag_220\n        /* \"#utility.yul\":9557:9563   */\n      dup2\n        /* \"#utility.yul\":9535:9564   */\n      tag_92\n      jump\t// in\n    tag_220:\n        /* \"#utility.yul\":9530:9533   */\n      dup5\n        /* \"#utility.yul\":9526:9565   */\n      add\n        /* \"#utility.yul\":9519:9565   */\n      swap2\n      pop\n        /* \"#utility.yul\":9286:9571   */\n      pop\n        /* \"#utility.yul\":9194:9571   */\n      swap3\n      swap2\n      pop\n      pop\n      jump\t// out\n        /* \"#utility.yul\":9577:9654   */\n    tag_119:\n        /* \"#utility.yul\":9614:9621   */\n      0x00\n        /* \"#utility.yul\":9643:9648   */\n      dup2\n        /* \"#utility.yul\":9632:9648   */\n      swap1\n      pop\n        /* \"#utility.yul\":9577:9654   */\n      swap2\n      swap1\n      pop\n      jump\t// out\n        /* \"#utility.yul\":9660:9778   */\n    tag_120:\n        /* \"#utility.yul\":9747:9771   */\n      tag_223\n        /* \"#utility.yul\":9765:9770   */\n      dup2\n        /* \"#utility.yul\":9747:9771   */\n      tag_119\n      jump\t// in\n    tag_223:\n        /* \"#utility.yul\":9742:9745   */\n      dup3\n        /* \"#utility.yul\":9735:9772   */\n      mstore\n        /* \"#utility.yul\":9660:9778   */\n      pop\n      pop\n      jump\t// out\n        /* \"#utility.yul\":9784:10625   */\n    tag_77:\n        /* \"#utility.yul\":10054:10058   */\n      0x00\n        /* \"#utility.yul\":10092:10095   */\n      0x80\n        /* \"#utility.yul\":10081:10090   */\n      dup3\n        /* \"#utility.yul\":10077:10096   */\n      add\n        /* \"#utility.yul\":10069:10096   */\n      swap1\n      pop\n        /* \"#utility.yul\":10142:10151   */\n      dup2\n        /* \"#utility.yul\":10136:10140   */\n      dup2\n        /* \"#utility.yul\":10132:10152   */\n      sub\n        /* \"#utility.yul\":10128:10129   */\n      0x00\n        /* \"#utility.yul\":10117:10126   */\n      dup4\n        /* \"#utility.yul\":10113:10130   */\n      add\n        /* \"#utility.yul\":10106:10153   */\n      mstore\n        /* \"#utility.yul\":10170:10301   */\n      tag_225\n        /* \"#utility.yul\":10296:10300   */\n      dup2\n        /* \"#utility.yul\":10170:10301   */\n      tag_117\n      jump\t// in\n    tag_225:\n        /* \"#utility.yul\":10162:10301   */\n      swap1\n      pop\n        /* \"#utility.yul\":10348:10357   */\n      dup2\n        /* \"#utility.yul\":10342:10346   */\n      dup2\n        /* \"#utility.yul\":10338:10358   */\n      sub\n        /* \"#utility.yul\":10333:10335   */\n      0x20\n        /* \"#utility.yul\":10322:10331   */\n      dup4\n        /* \"#utility.yul\":10318:10336   */\n      add\n        /* \"#utility.yul\":10311:10359   */\n      mstore\n        /* \"#utility.yul\":10376:10454   */\n      tag_226\n        /* \"#utility.yul\":10449:10453   */\n      dup2\n        /* \"#utility.yul\":10440:10446   */\n      dup7\n        /* \"#utility.yul\":10376:10454   */\n      tag_118\n      jump\t// in\n    tag_226:\n        /* \"#utility.yul\":10368:10454   */\n      swap1\n      pop\n        /* \"#utility.yul\":10464:10536   */\n      tag_227\n        /* \"#utility.yul\":10532:10534   */\n      0x40\n        /* \"#utility.yul\":10521:10530   */\n      dup4\n        /* \"#utility.yul\":10517:10535   */\n      add\n        /* \"#utility.yul\":10508:10514   */\n      dup6\n        /* \"#utility.yul\":10464:10536   */\n      tag_104\n      jump\t// in\n    tag_227:\n        /* \"#utility.yul\":10546:10618   */\n      tag_228\n        /* \"#utility.yul\":10614:10616   */\n      0x60\n        /* \"#utility.yul\":10603:10612   */\n      dup4\n        /* \"#utility.yul\":10599:10617   */\n      add\n        /* \"#utility.yul\":10590:10596   */\n      dup5\n        /* \"#utility.yul\":10546:10618   */\n      tag_120\n      jump\t// in\n    tag_228:\n        /* \"#utility.yul\":9784:10625   */\n      swap5\n      swap4\n      pop\n      pop\n      pop\n      pop\n      jump\t// out\n        /* \"#utility.yul\":10631:10797   */\n    tag_121:\n        /* \"#utility.yul\":10771:10789   */\n      0x536974652061646d696e206f6e6c792e00000000000000000000000000000000\n        /* \"#utility.yul\":10767:10768   */\n      0x00\n        /* \"#utility.yul\":10759:10765   */\n      dup3\n        /* \"#utility.yul\":10755:10769   */\n      add\n        /* \"#utility.yul\":10748:10790   */\n      mstore\n        /* \"#utility.yul\":10631:10797   */\n      pop\n      jump\t// out\n        /* \"#utility.yul\":10803:11169   */\n    tag_122:\n        /* \"#utility.yul\":10945:10948   */\n      0x00\n        /* \"#utility.yul\":10966:11033   */\n      tag_231\n        /* \"#utility.yul\":11030:11032   */\n      0x10\n        /* \"#utility.yul\":11025:11028   */\n      dup4\n        /* \"#utility.yul\":10966:11033   */\n      tag_111\n      jump\t// in\n    tag_231:\n        /* \"#utility.yul\":10959:11033   */\n      swap2\n      pop\n        /* \"#utility.yul\":11042:11135   */\n      tag_232\n        /* \"#utility.yul\":11131:11134   */\n      dup3\n        /* \"#utility.yul\":11042:11135   */\n      tag_121\n      jump\t// in\n    tag_232:\n        /* \"#utility.yul\":11160:11162   */\n      0x20\n        /* \"#utility.yul\":11155:11158   */\n      dup3\n        /* \"#utility.yul\":11151:11163   */\n      add\n        /* \"#utility.yul\":11144:11163   */\n      swap1\n      pop\n        /* \"#utility.yul\":10803:11169   */\n      swap2\n      swap1\n      pop\n      jump\t// out\n        /* \"#utility.yul\":11175:11594   */\n    tag_86:\n        /* \"#utility.yul\":11341:11345   */\n      0x00\n        /* \"#utility.yul\":11379:11381   */\n      0x20\n        /* \"#utility.yul\":11368:11377   */\n      dup3\n        /* \"#utility.yul\":11364:11382   */\n      add\n        /* \"#utility.yul\":11356:11382   */\n      swap1\n      pop\n        /* \"#utility.yul\":11428:11437   */\n      dup2\n        /* \"#utility.yul\":11422:11426   */\n      dup2\n        /* \"#utility.yul\":11418:11438   */\n      sub\n        /* \"#utility.yul\":11414:11415   */\n      0x00\n        /* \"#utility.yul\":11403:11412   */\n      dup4\n        /* \"#utility.yul\":11399:11416   */\n      add\n        /* \"#utility.yul\":11392:11439   */\n      mstore\n        /* \"#utility.yul\":11456:11587   */\n      tag_234\n        /* \"#utility.yul\":11582:11586   */\n      dup2\n        /* \"#utility.yul\":11456:11587   */\n      tag_122\n      jump\t// in\n    tag_234:\n        /* \"#utility.yul\":11448:11587   */\n      swap1\n      pop\n        /* \"#utility.yul\":11175:11594   */\n      swap2\n      swap1\n      pop\n      jump\t// out\n\n    auxdata: 0xa2646970667358221220b2a9c0c7ee087b6f52184c36180e90117c653010234062285a685b0b4a0e4b4a64736f6c63430008140033\n}\n"
  }
}