{
  "devdoc": {
    "methods": {},
    "kind": "dev",
    "version": 1
  },
  "abi": [
    {
      "stateMutability": "nonpayable",
      "type": "constructor",
      "inputs": [
        {
          "internalType": "uint8",
          "name": "quorum",
          "type": "uint8"
        }
      ]
    },
    {
      "anonymous": false,
      "name": "CouncilEvent",
      "type": "event",
      "inputs": [
        {
          "indexed": false,
          "internalType": "string",
          "name": "event_type",
          "type": "string"
        },
        {
          "indexed": false,
          "internalType": "string",
          "name": "event_id",
          "type": "string"
        },
        {
          "indexed": false,
          "internalType": "address",
          "name": "event_address",
          "type": "address"
        },
        {
          "indexed": false,
          "internalType": "uint256",
          "name": "event_value",
          "type": "uint256"
        }
      ]
    },
    {
      "name": "g__MemberArray",
      "stateMutability": "view",
      "outputs": [
        {
          "internalType": "address",
          "name": "",
          "type": "address"
        }
      ],
      "type": "function",
      "inputs": [
        {
          "internalType": "uint256",
          "name": "",
          "type": "uint256"
        }
      ]
    },
    {
      "name": "g__MemberQuorum",
      "stateMutability": "view",
      "outputs": [
        {
          "internalType": "uint8",
          "name": "",
          "type": "uint8"
        }
      ],
      "type": "function",
      "inputs": []
    },
    {
      "name": "g__ProposalActive",
      "stateMutability": "view",
      "outputs": [
        {
          "internalType": "string",
          "name": "",
          "type": "string"
        }
      ],
      "type": "function",
      "inputs": [
        {
          "internalType": "address",
          "name": "",
          "type": "address"
        }
      ]
    },
    {
      "name": "g__ProposalLookup",
      "stateMutability": "view",
      "outputs": [
        {
          "internalType": "enum StatstradeCouncil.ProposalStatus",
          "name": "status",
          "type": "uint8"
        },
        {
          "internalType": "enum StatstradeCouncil.ProposalType",
          "name": "proposal_type",
          "type": "uint8"
        },
        {
          "internalType": "address",
          "name": "value",
          "type": "address"
        },
        {
          "internalType": "uint8",
          "name": "total_yes",
          "type": "uint8"
        },
        {
          "internalType": "uint8",
          "name": "total_no",
          "type": "uint8"
        },
        {
          "internalType": "uint8",
          "name": "total_abstained",
          "type": "uint8"
        },
        {
          "internalType": "uint8",
          "name": "total_voting",
          "type": "uint8"
        }
      ],
      "type": "function",
      "inputs": [
        {
          "internalType": "string",
          "name": "",
          "type": "string"
        }
      ]
    },
    {
      "name": "g__ProposalVoting",
      "stateMutability": "view",
      "outputs": [
        {
          "internalType": "bool",
          "name": "",
          "type": "bool"
        }
      ],
      "type": "function",
      "inputs": [
        {
          "internalType": "string",
          "name": "",
          "type": "string"
        },
        {
          "internalType": "address",
          "name": "",
          "type": "address"
        }
      ]
    },
    {
      "name": "member__proposal_cancel",
      "stateMutability": "nonpayable",
      "outputs": [],
      "type": "function",
      "inputs": [
        {
          "internalType": "string",
          "name": "proposal_id",
          "type": "string"
        }
      ]
    },
    {
      "name": "member__proposal_create",
      "stateMutability": "nonpayable",
      "outputs": [],
      "type": "function",
      "inputs": [
        {
          "internalType": "string",
          "name": "proposal_id",
          "type": "string"
        },
        {
          "internalType": "enum StatstradeCouncil.ProposalType",
          "name": "proposal_type",
          "type": "uint8"
        },
        {
          "internalType": "address",
          "name": "value",
          "type": "address"
        }
      ]
    },
    {
      "name": "member__proposal_process",
      "stateMutability": "nonpayable",
      "outputs": [],
      "type": "function",
      "inputs": [
        {
          "internalType": "string",
          "name": "proposal_id",
          "type": "string"
        }
      ]
    },
    {
      "name": "member__proposal_vote",
      "stateMutability": "nonpayable",
      "outputs": [],
      "type": "function",
      "inputs": [
        {
          "internalType": "string",
          "name": "proposal_id",
          "type": "string"
        },
        {
          "internalType": "enum StatstradeCouncil.VoteType",
          "name": "vote_type",
          "type": "uint8"
        }
      ]
    }
  ],
  "userdoc": {
    "methods": {},
    "kind": "user",
    "version": 1
  },
  "storageLayout": {
    "storage": [
      {
        "offset": 0,
        "slot": "0",
        "label": "g__MemberQuorum",
        "astId": 51,
        "type": "t_uint8",
        "contract": "temp.sol:StatstradeCouncil"
      },
      {
        "offset": 0,
        "slot": "1",
        "label": "g__MemberArray",
        "astId": 54,
        "type": "t_array(t_address)dyn_storage",
        "contract": "temp.sol:StatstradeCouncil"
      },
      {
        "offset": 0,
        "slot": "2",
        "label": "g__ProposalActive",
        "astId": 58,
        "type": "t_mapping(t_address,t_string_storage)",
        "contract": "temp.sol:StatstradeCouncil"
      },
      {
        "offset": 0,
        "slot": "3",
        "label": "g__ProposalLookup",
        "astId": 63,
        "type": "t_mapping(t_string_memory_ptr,t_struct(Proposal)49_storage)",
        "contract": "temp.sol:StatstradeCouncil"
      },
      {
        "offset": 0,
        "slot": "4",
        "label": "g__ProposalVoting",
        "astId": 69,
        "type": "t_mapping(t_string_memory_ptr,t_mapping(t_address,t_bool))",
        "contract": "temp.sol:StatstradeCouncil"
      }
    ],
    "types": {
      "t_mapping(t_string_memory_ptr,t_mapping(t_address,t_bool))": {
        "label": "mapping(string => mapping(address => bool))",
        "key": "t_string_memory_ptr",
        "encoding": "mapping",
        "value": "t_mapping(t_address,t_bool)",
        "numberOfBytes": "32"
      },
      "t_enum(ProposalType)26": {
        "label": "enum StatstradeCouncil.ProposalType",
        "encoding": "inplace",
        "numberOfBytes": "1"
      },
      "t_address": {
        "label": "address",
        "encoding": "inplace",
        "numberOfBytes": "20"
      },
      "t_mapping(t_address,t_bool)": {
        "label": "mapping(address => bool)",
        "key": "t_address",
        "encoding": "mapping",
        "value": "t_bool",
        "numberOfBytes": "32"
      },
      "t_string_memory_ptr": {
        "label": "string",
        "encoding": "bytes",
        "numberOfBytes": "32"
      },
      "t_uint8": {
        "label": "uint8",
        "encoding": "inplace",
        "numberOfBytes": "1"
      },
      "t_array(t_address)dyn_storage": {
        "label": "address[]",
        "encoding": "dynamic_array",
        "base": "t_address",
        "numberOfBytes": "32"
      },
      "t_string_storage": {
        "label": "string",
        "encoding": "bytes",
        "numberOfBytes": "32"
      },
      "t_struct(Proposal)49_storage": {
        "members": [
          {
            "offset": 0,
            "slot": "0",
            "label": "status",
            "astId": 35,
            "type": "t_enum(ProposalStatus)32",
            "contract": "temp.sol:StatstradeCouncil"
          },
          {
            "offset": 1,
            "slot": "0",
            "label": "proposal_type",
            "astId": 38,
            "type": "t_enum(ProposalType)26",
            "contract": "temp.sol:StatstradeCouncil"
          },
          {
            "offset": 2,
            "slot": "0",
            "label": "value",
            "astId": 40,
            "type": "t_address",
            "contract": "temp.sol:StatstradeCouncil"
          },
          {
            "offset": 22,
            "slot": "0",
            "label": "total_yes",
            "astId": 42,
            "type": "t_uint8",
            "contract": "temp.sol:StatstradeCouncil"
          },
          {
            "offset": 23,
            "slot": "0",
            "label": "total_no",
            "astId": 44,
            "type": "t_uint8",
            "contract": "temp.sol:StatstradeCouncil"
          },
          {
            "offset": 24,
            "slot": "0",
            "label": "total_abstained",
            "astId": 46,
            "type": "t_uint8",
            "contract": "temp.sol:StatstradeCouncil"
          },
          {
            "offset": 25,
            "slot": "0",
            "label": "total_voting",
            "astId": 48,
            "type": "t_uint8",
            "contract": "temp.sol:StatstradeCouncil"
          }
        ],
        "label": "struct StatstradeCouncil.Proposal",
        "encoding": "inplace",
        "numberOfBytes": "32"
      },
      "t_mapping(t_string_memory_ptr,t_struct(Proposal)49_storage)": {
        "label": "mapping(string => struct StatstradeCouncil.Proposal)",
        "key": "t_string_memory_ptr",
        "encoding": "mapping",
        "value": "t_struct(Proposal)49_storage",
        "numberOfBytes": "32"
      },
      "t_mapping(t_address,t_string_storage)": {
        "label": "mapping(address => string)",
        "key": "t_address",
        "encoding": "mapping",
        "value": "t_string_storage",
        "numberOfBytes": "32"
      },
      "t_enum(ProposalStatus)32": {
        "label": "enum StatstradeCouncil.ProposalStatus",
        "encoding": "inplace",
        "numberOfBytes": "1"
      },
      "t_bool": {
        "label": "bool",
        "encoding": "inplace",
        "numberOfBytes": "1"
      }
    }
  },
  "evm": {
    "bytecode": {
      "object": "608060405234801562000010575f80fd5b50604051620029fc380380620029fc8339818101604052810190620000369190620000f5565b600133908060018154018082558091505060019003905f5260205f20015f9091909190916101000a81548173ffffffffffffffffffffffffffffffffffffffff021916908373ffffffffffffffffffffffffffffffffffffffff160217905550805f806101000a81548160ff021916908360ff1602179055505062000125565b5f80fd5b5f60ff82169050919050565b620000d181620000ba565b8114620000dc575f80fd5b50565b5f81519050620000ef81620000c6565b92915050565b5f602082840312156200010d576200010c620000b6565b5b5f6200011c84828501620000df565b91505092915050565b6128c980620001335f395ff3fe608060405234801561000f575f80fd5b5060043610610091575f3560e01c8063c0b41c6e11610064578063c0b41c6e14610135578063ce6d013714610165578063e0051f8914610181578063e5e2c9571461019d578063f4cbf42e146101cd57610091565b806363a87c291461009557806397dbf3f1146100cb578063bcd960a3146100fb578063bcfa9f9c14610119575b5f80fd5b6100af60048036038101906100aa919061191e565b6101e9565b6040516100c29796959493929190611a78565b60405180910390f35b6100e560048036038101906100e09190611b0f565b6102a6565b6040516100f29190611b83565b60405180910390f35b6101036102e8565b6040516101109190611b9c565b60405180910390f35b610133600480360381019061012e9190611bd8565b6102f8565b005b61014f600480360381019061014a9190611c77565b61072c565b60405161015c9190611ca2565b60405180910390f35b61017f600480360381019061017a919061191e565b610767565b005b61019b6004803603810190610196919061191e565b61095c565b005b6101b760048036038101906101b29190611cbb565b610c96565b6040516101c49190611d60565b60405180910390f35b6101e760048036038101906101e29190611da3565b610d31565b005b6003818051602081018201805184825260208301602085012081835280955050505050505f91509050805f015f9054906101000a900460ff1690805f0160019054906101000a900460ff1690805f0160029054906101000a900473ffffffffffffffffffffffffffffffffffffffff1690805f0160169054906101000a900460ff1690805f0160179054906101000a900460ff1690805f0160189054906101000a900460ff1690805f0160199054906101000a900460ff16905087565b600482805160208101820180518482526020830160208501208183528095505050505050602052805f5260405f205f915091509054906101000a900460ff1681565b5f8054906101000a900460ff1681565b61030133611074565b5f10610342576040517f08c379a000000000000000000000000000000000000000000000000000000000815260040161033990611e47565b60405180910390fd5b600360025f3373ffffffffffffffffffffffffffffffffffffffff1673ffffffffffffffffffffffffffffffffffffffff1681526020019081526020015f2060405161038e9190611f5e565b90815260200160405180910390205f015f9054906101000a900460ff1660048111156103bd576103bc611965565b5b600160048111156103d1576103d0611965565b5b03610411576040517f08c379a000000000000000000000000000000000000000000000000000000000815260040161040890611fbe565b60405180910390fd5b600383604051610421919061200c565b90815260200160405180910390205f015f9054906101000a900460ff1660048111156104505761044f611965565b5b5f600481111561046357610462611965565b5b146104a3576040517f08c379a000000000000000000000000000000000000000000000000000000000815260040161049a9061206c565b60405180910390fd5b5f6040518060e00160405280600160048111156104c3576104c2611965565b5b81526020018460028111156104db576104da611965565b5b81526020018373ffffffffffffffffffffffffffffffffffffffff168152602001600160ff1681526020015f60ff1681526020015f60ff16815260200160018054905060ff16815250905080600385604051610537919061200c565b90815260200160405180910390205f820151815f015f6101000a81548160ff0219169083600481111561056d5761056c611965565b5b02179055506020820151815f0160016101000a81548160ff0219169083600281111561059c5761059b611965565b5b02179055506040820151815f0160026101000a81548173ffffffffffffffffffffffffffffffffffffffff021916908373ffffffffffffffffffffffffffffffffffffffff1602179055506060820151815f0160166101000a81548160ff021916908360ff1602179055506080820151815f0160176101000a81548160ff021916908360ff16021790555060a0820151815f0160186101000a81548160ff021916908360ff16021790555060c0820151815f0160196101000a81548160ff021916908360ff1602179055509050508360025f3373ffffffffffffffffffffffffffffffffffffffff1673ffffffffffffffffffffffffffffffffffffffff1681526020019081526020015f2090816106b49190612215565b5060016004856040516106c7919061200c565b90815260200160405180910390205f3373ffffffffffffffffffffffffffffffffffffffff1673ffffffffffffffffffffffffffffffffffffffff1681526020019081526020015f205f6101000a81548160ff02191690831515021790555050505050565b6001818154811061073b575f80fd5b905f5260205f20015f915054906101000a900473ffffffffffffffffffffffffffffffffffffffff1681565b600360025f3373ffffffffffffffffffffffffffffffffffffffff1673ffffffffffffffffffffffffffffffffffffffff1681526020019081526020015f206040516107b39190611f5e565b90815260200160405180910390205f015f9054906101000a900460ff1660048111156107e2576107e1611965565b5b600160048111156107f6576107f5611965565b5b14610836576040517f08c379a000000000000000000000000000000000000000000000000000000000815260040161082d9061232e565b60405180910390fd5b600381604051610846919061200c565b90815260200160405180910390205f015f9054906101000a900460ff16600481111561087557610874611965565b5b6001600481111561088957610888611965565b5b146108c9576040517f08c379a00000000000000000000000000000000000000000000000000000000081526004016108c090612396565b60405180910390fd5b60026003826040516108db919061200c565b90815260200160405180910390205f015f6101000a81548160ff0219169083600481111561090c5761090b611965565b5b021790555060025f3373ffffffffffffffffffffffffffffffffffffffff1673ffffffffffffffffffffffffffffffffffffffff1681526020019081526020015f205f6109599190611779565b50565b600360025f3373ffffffffffffffffffffffffffffffffffffffff1673ffffffffffffffffffffffffffffffffffffffff1681526020019081526020015f206040516109a89190611f5e565b90815260200160405180910390205f015f9054906101000a900460ff1660048111156109d7576109d6611965565b5b600160048111156109eb576109ea611965565b5b14610a2b576040517f08c379a0000000000000000000000000000000000000000000000000000000008152600401610a229061232e565b60405180910390fd5b600381604051610a3b919061200c565b90815260200160405180910390205f015f9054906101000a900460ff166004811115610a6a57610a69611965565b5b60016004811115610a7e57610a7d611965565b5b14610abe576040517f08c379a0000000000000000000000000000000000000000000000000000000008152600401610ab590612396565b60405180910390fd5b5f610ac882611139565b905080610ad6576004610ad9565b60035b600383604051610ae9919061200c565b90815260200160405180910390205f015f6101000a81548160ff02191690836004811115610b1a57610b19611965565b5b021790555060025f3373ffffffffffffffffffffffffffffffffffffffff1673ffffffffffffffffffffffffffffffffffffffff1681526020019081526020015f205f610b679190611779565b8015610c92575f600383604051610b7e919061200c565b90815260200160405180910390205f0160019054906101000a900460ff1690505f600384604051610baf919061200c565b90815260200160405180910390205f0160029054906101000a900473ffffffffffffffffffffffffffffffffffffffff16905060016002811115610bf657610bf5611965565b5b826002811115610c0957610c08611965565b5b03610c1d57610c188482611395565b610c8f565b600280811115610c3057610c2f611965565b5b826002811115610c4357610c42611965565b5b03610c5757610c5284826113e8565b610c8e565b5f6002811115610c6a57610c69611965565b5b826002811115610c7d57610c7c611965565b5b03610c8d57610c8c848261143b565b5b5b5b50505b5050565b6002602052805f5260405f205f915090508054610cb290611e92565b80601f0160208091040260200160405190810160405280929190818152602001828054610cde90611e92565b8015610d295780601f10610d0057610100808354040283529160200191610d29565b820191905f5260205f20905b815481529060010190602001808311610d0c57829003601f168201915b505050505081565b610d3a33611074565b5f10610d7b576040517f08c379a0000000000000000000000000000000000000000000000000000000008152600401610d7290611e47565b60405180910390fd5b600382604051610d8b919061200c565b90815260200160405180910390205f015f9054906101000a900460ff166004811115610dba57610db9611965565b5b60016004811115610dce57610dcd611965565b5b14610e0e576040517f08c379a0000000000000000000000000000000000000000000000000000000008152600401610e0590612396565b60405180910390fd5b600482604051610e1e919061200c565b90815260200160405180910390205f3373ffffffffffffffffffffffffffffffffffffffff1673ffffffffffffffffffffffffffffffffffffffff1681526020019081526020015f205f9054906101000a900460ff1615610e7d575f80fd5b5f6002811115610e9057610e8f611965565b5b816002811115610ea357610ea2611965565b5b03610efe57600382604051610eb8919061200c565b90815260200160405180910390205f01601681819054906101000a900460ff16610ee1906123e1565b91906101000a81548160ff021916908360ff160217905550610fff565b60016002811115610f1257610f11611965565b5b816002811115610f2557610f24611965565b5b03610f8057600382604051610f3a919061200c565b90815260200160405180910390205f01601781819054906101000a900460ff16610f63906123e1565b91906101000a81548160ff021916908360ff160217905550610ffe565b600280811115610f9357610f92611965565b5b816002811115610fa657610fa5611965565b5b03610ffd57600382604051610fbb919061200c565b90815260200160405180910390205f01601881819054906101000a900460ff16610fe4906123e1565b91906101000a81548160ff021916908360ff1602179055505b5b5b6001600483604051611011919061200c565b90815260200160405180910390205f3373ffffffffffffffffffffffffffffffffffffffff1673ffffffffffffffffffffffffffffffffffffffff1681526020019081526020015f205f6101000a81548160ff0219169083151502179055505050565b5f8060018054905003611089575f9050611134565b5f5b60018054905081101561112f578273ffffffffffffffffffffffffffffffffffffffff16600182815481106110c3576110c2612409565b5b905f5260205f20015f9054906101000a900473ffffffffffffffffffffffffffffffffffffffff1673ffffffffffffffffffffffffffffffffffffffff160361111b576001816111139190612436565b915050611134565b6001816111289190612436565b905061108b565b505f90505b919050565b5f8060038360405161114b919061200c565b90815260200160405180910390206040518060e00160405290815f82015f9054906101000a900460ff16600481111561118757611186611965565b5b600481111561119957611198611965565b5b81526020015f820160019054906101000a900460ff1660028111156111c1576111c0611965565b5b60028111156111d3576111d2611965565b5b81526020015f820160029054906101000a900473ffffffffffffffffffffffffffffffffffffffff1673ffffffffffffffffffffffffffffffffffffffff1673ffffffffffffffffffffffffffffffffffffffff1681526020015f820160169054906101000a900460ff1660ff1660ff1681526020015f820160179054906101000a900460ff1660ff1660ff1681526020015f820160189054906101000a900460ff1660ff1660ff1681526020015f820160199054906101000a900460ff1660ff1660ff168152505090508060a0015160ff168160c0015160ff16036112bc575f915050611390565b5f8160a001518260c001516112d19190612469565b60ff1690505f8054906101000a900460ff1660ff1681606484606001516112f8919061249d565b60ff166113059190612506565b111561131657600192505050611390565b5f8054906101000a900460ff1660ff168160648460800151611338919061249d565b60ff166113459190612506565b1115611355575f92505050611390565b6040517f08c379a000000000000000000000000000000000000000000000000000000000815260040161138790612580565b60405180910390fd5b919050565b61139e816115eb565b156113e4577f594548f29e804558d875faeffff31d44739100e22878a2bef637426d5f03a9e082826001805490506040516113db939291906125f7565b60405180910390a15b5050565b6113f181611673565b15611437577f594548f29e804558d875faeffff31d44739100e22878a2bef637426d5f03a9e0828260018054905060405161142e93929190612690565b60405180910390a15b5050565b5f8190505f8173ffffffffffffffffffffffffffffffffffffffff166370a08231306040518263ffffffff1660e01b81526004016114799190611ca2565b602060405180830381865afa158015611494573d5f803e3d5ffd5b505050506040513d601f19601f820116820180604052508101906114b891906126f3565b90505f600180549050826114cc9190612506565b90505f5b6001805490508110156115a8578373ffffffffffffffffffffffffffffffffffffffff1663a9059cbb6001838154811061150d5761150c612409565b5b905f5260205f20015f9054906101000a900473ffffffffffffffffffffffffffffffffffffffff16846040518363ffffffff1660e01b815260040161155392919061271e565b6020604051808303815f875af115801561156f573d5f803e3d5ffd5b505050506040513d601f19601f82011682018060405250810190611593919061276f565b506001816115a19190612436565b90506114d0565b507f594548f29e804558d875faeffff31d44739100e22878a2bef637426d5f03a9e08585846040516115dc939291906127e4565b60405180910390a15050505050565b5f806115f683611074565b90505f810361166957600183908060018154018082558091505060019003905f5260205f20015f9091909190916101000a81548173ffffffffffffffffffffffffffffffffffffffff021916908373ffffffffffffffffffffffffffffffffffffffff160217905550600191505061166e565b5f9150505b919050565b5f8061167e83611074565b90505f8103611690575f915050611774565b5f600180805490506116a29190612833565b9050600181815481106116b8576116b7612409565b5b905f5260205f20015f9054906101000a900473ffffffffffffffffffffffffffffffffffffffff1673ffffffffffffffffffffffffffffffffffffffff16600180846117049190612833565b8154811061171557611714612409565b5b905f5260205f20015f9054906101000a90505050600180548061173b5761173a612866565b5b600190038181905f5260205f20015f6101000a81549073ffffffffffffffffffffffffffffffffffffffff021916905590556001925050505b919050565b50805461178590611e92565b5f825580601f1061179657506117b3565b601f0160209004905f5260205f20908101906117b291906117b6565b5b50565b5b808211156117cd575f815f9055506001016117b7565b5090565b5f604051905090565b5f80fd5b5f80fd5b5f80fd5b5f80fd5b5f601f19601f8301169050919050565b7f4e487b71000000000000000000000000000000000000000000000000000000005f52604160045260245ffd5b611830826117ea565b810181811067ffffffffffffffff8211171561184f5761184e6117fa565b5b80604052505050565b5f6118616117d1565b905061186d8282611827565b919050565b5f67ffffffffffffffff82111561188c5761188b6117fa565b5b611895826117ea565b9050602081019050919050565b828183375f83830152505050565b5f6118c26118bd84611872565b611858565b9050828152602081018484840111156118de576118dd6117e6565b5b6118e98482856118a2565b509392505050565b5f82601f830112611905576119046117e2565b5b81356119158482602086016118b0565b91505092915050565b5f60208284031215611933576119326117da565b5b5f82013567ffffffffffffffff8111156119505761194f6117de565b5b61195c848285016118f1565b91505092915050565b7f4e487b71000000000000000000000000000000000000000000000000000000005f52602160045260245ffd5b600581106119a3576119a2611965565b5b50565b5f8190506119b382611992565b919050565b5f6119c2826119a6565b9050919050565b6119d2816119b8565b82525050565b600381106119e9576119e8611965565b5b50565b5f8190506119f9826119d8565b919050565b5f611a08826119ec565b9050919050565b611a18816119fe565b82525050565b5f73ffffffffffffffffffffffffffffffffffffffff82169050919050565b5f611a4782611a1e565b9050919050565b611a5781611a3d565b82525050565b5f60ff82169050919050565b611a7281611a5d565b82525050565b5f60e082019050611a8b5f83018a6119c9565b611a986020830189611a0f565b611aa56040830188611a4e565b611ab26060830187611a69565b611abf6080830186611a69565b611acc60a0830185611a69565b611ad960c0830184611a69565b98975050505050505050565b611aee81611a3d565b8114611af8575f80fd5b50565b5f81359050611b0981611ae5565b92915050565b5f8060408385031215611b2557611b246117da565b5b5f83013567ffffffffffffffff811115611b4257611b416117de565b5b611b4e858286016118f1565b9250506020611b5f85828601611afb565b9150509250929050565b5f8115159050919050565b611b7d81611b69565b82525050565b5f602082019050611b965f830184611b74565b92915050565b5f602082019050611baf5f830184611a69565b92915050565b60038110611bc1575f80fd5b50565b5f81359050611bd281611bb5565b92915050565b5f805f60608486031215611bef57611bee6117da565b5b5f84013567ffffffffffffffff811115611c0c57611c0b6117de565b5b611c18868287016118f1565b9350506020611c2986828701611bc4565b9250506040611c3a86828701611afb565b9150509250925092565b5f819050919050565b611c5681611c44565b8114611c60575f80fd5b50565b5f81359050611c7181611c4d565b92915050565b5f60208284031215611c8c57611c8b6117da565b5b5f611c9984828501611c63565b91505092915050565b5f602082019050611cb55f830184611a4e565b92915050565b5f60208284031215611cd057611ccf6117da565b5b5f611cdd84828501611afb565b91505092915050565b5f81519050919050565b5f82825260208201905092915050565b5f5b83811015611d1d578082015181840152602081019050611d02565b5f8484015250505050565b5f611d3282611ce6565b611d3c8185611cf0565b9350611d4c818560208601611d00565b611d55816117ea565b840191505092915050565b5f6020820190508181035f830152611d788184611d28565b905092915050565b60038110611d8c575f80fd5b50565b5f81359050611d9d81611d80565b92915050565b5f8060408385031215611db957611db86117da565b5b5f83013567ffffffffffffffff811115611dd657611dd56117de565b5b611de2858286016118f1565b9250506020611df385828601611d8f565b9150509250929050565b7f4d656d626572206f6e6c792e00000000000000000000000000000000000000005f82015250565b5f611e31600c83611cf0565b9150611e3c82611dfd565b602082019050919050565b5f6020820190508181035f830152611e5e81611e25565b9050919050565b7f4e487b71000000000000000000000000000000000000000000000000000000005f52602260045260245ffd5b5f6002820490506001821680611ea957607f821691505b602082108103611ebc57611ebb611e65565b5b50919050565b5f81905092915050565b5f819050815f5260205f209050919050565b5f8154611eea81611e92565b611ef48186611ec2565b9450600182165f8114611f0e5760018114611f2357611f55565b60ff1983168652811515820286019350611f55565b611f2c85611ecc565b5f5b83811015611f4d57815481890152600182019150602081019050611f2e565b838801955050505b50505092915050565b5f611f698284611ede565b915081905092915050565b7f50726f706f73616c2070656e64696e672e0000000000000000000000000000005f82015250565b5f611fa8601183611cf0565b9150611fb382611f74565b602082019050919050565b5f6020820190508181035f830152611fd581611f9c565b9050919050565b5f611fe682611ce6565b611ff08185611ec2565b9350612000818560208601611d00565b80840191505092915050565b5f6120178284611fdc565b915081905092915050565b7f50726f706f73616c206578697374732e000000000000000000000000000000005f82015250565b5f612056601083611cf0565b915061206182612022565b602082019050919050565b5f6020820190508181035f8301526120838161204a565b9050919050565b5f6020601f8301049050919050565b5f82821b905092915050565b5f600883026120d47fffffffffffffffffffffffffffffffffffffffffffffffffffffffffffffffff82612099565b6120de8683612099565b95508019841693508086168417925050509392505050565b5f819050919050565b5f61211961211461210f84611c44565b6120f6565b611c44565b9050919050565b5f819050919050565b612132836120ff565b61214661213e82612120565b8484546120a5565b825550505050565b5f90565b61215a61214e565b612165818484612129565b505050565b5b818110156121885761217d5f82612152565b60018101905061216b565b5050565b601f8211156121cd5761219e81611ecc565b6121a78461208a565b810160208510156121b6578190505b6121ca6121c28561208a565b83018261216a565b50505b505050565b5f82821c905092915050565b5f6121ed5f19846008026121d2565b1980831691505092915050565b5f61220583836121de565b9150826002028217905092915050565b61221e82611ce6565b67ffffffffffffffff811115612237576122366117fa565b5b6122418254611e92565b61224c82828561218c565b5f60209050601f83116001811461227d575f841561226b578287015190505b61227585826121fa565b8655506122dc565b601f19841661228b86611ecc565b5f5b828110156122b25784890151825560018201915060208501945060208101905061228d565b868310156122cf57848901516122cb601f8916826121de565b8355505b6001600288020188555050505b505050505050565b7f4e6f742070656e64696e672e00000000000000000000000000000000000000005f82015250565b5f612318600c83611cf0565b9150612323826122e4565b602082019050919050565b5f6020820190508181035f8301526123458161230c565b9050919050565b7f496e76616c6964207374617475732e00000000000000000000000000000000005f82015250565b5f612380600f83611cf0565b915061238b8261234c565b602082019050919050565b5f6020820190508181035f8301526123ad81612374565b9050919050565b7f4e487b71000000000000000000000000000000000000000000000000000000005f52601160045260245ffd5b5f6123eb82611a5d565b915060ff82036123fe576123fd6123b4565b5b600182019050919050565b7f4e487b71000000000000000000000000000000000000000000000000000000005f52603260045260245ffd5b5f61244082611c44565b915061244b83611c44565b9250828201905080821115612463576124626123b4565b5b92915050565b5f61247382611a5d565b915061247e83611a5d565b9250828203905060ff811115612497576124966123b4565b5b92915050565b5f6124a782611a5d565b91506124b283611a5d565b92508282026124c081611a5d565b91508082146124d2576124d16123b4565b5b5092915050565b7f4e487b71000000000000000000000000000000000000000000000000000000005f52601260045260245ffd5b5f61251082611c44565b915061251b83611c44565b92508261252b5761252a6124d9565b5b828204905092915050565b7f4e6f2051756f72756d2e000000000000000000000000000000000000000000005f82015250565b5f61256a600a83611cf0565b915061257582612536565b602082019050919050565b5f6020820190508181035f8301526125978161255e565b9050919050565b7f6d656d6265725f616464000000000000000000000000000000000000000000005f82015250565b5f6125d2600a83611cf0565b91506125dd8261259e565b602082019050919050565b6125f181611c44565b82525050565b5f6080820190508181035f83015261260e816125c6565b905081810360208301526126228186611d28565b90506126316040830185611a4e565b61263e60608301846125e8565b949350505050565b7f6d656d6265725f72656d6f7665000000000000000000000000000000000000005f82015250565b5f61267a600d83611cf0565b915061268582612646565b602082019050919050565b5f6080820190508181035f8301526126a78161266e565b905081810360208301526126bb8186611d28565b90506126ca6040830185611a4e565b6126d760608301846125e8565b949350505050565b5f815190506126ed81611c4d565b92915050565b5f60208284031215612708576127076117da565b5b5f612715848285016126df565b91505092915050565b5f6040820190506127315f830185611a4e565b61273e60208301846125e8565b9392505050565b61274e81611b69565b8114612758575f80fd5b50565b5f8151905061276981612745565b92915050565b5f60208284031215612784576127836117da565b5b5f6127918482850161275b565b91505092915050565b7f6d656d6265725f74616b655f70726f66697400000000000000000000000000005f82015250565b5f6127ce601283611cf0565b91506127d98261279a565b602082019050919050565b5f6080820190508181035f8301526127fb816127c2565b9050818103602083015261280f8186611d28565b905061281e6040830185611a4e565b61282b60608301846125e8565b949350505050565b5f61283d82611c44565b915061284883611c44565b92508282039050818111156128605761285f6123b4565b5b92915050565b7f4e487b71000000000000000000000000000000000000000000000000000000005f52603160045260245ffdfea2646970667358221220f686c0c3b9bc9597371f9b93b661bf5fbbe0e064f836e31c31b9914dd57d524c64736f6c63430008140033",
      "linkReferences": {},
      "opcodes": "PUSH1 0x80 PUSH1 0x40 MSTORE CALLVALUE DUP1 ISZERO PUSH3 0x10 JUMPI PUSH0 DUP1 REVERT JUMPDEST POP PUSH1 0x40 MLOAD PUSH3 0x29FC CODESIZE SUB DUP1 PUSH3 0x29FC DUP4 CODECOPY DUP2 DUP2 ADD PUSH1 0x40 MSTORE DUP2 ADD SWAP1 PUSH3 0x36 SWAP2 SWAP1 PUSH3 0xF5 JUMP JUMPDEST PUSH1 0x1 CALLER SWAP1 DUP1 PUSH1 0x1 DUP2 SLOAD ADD DUP1 DUP3 SSTORE DUP1 SWAP2 POP POP PUSH1 0x1 SWAP1 SUB SWAP1 PUSH0 MSTORE PUSH1 0x20 PUSH0 KECCAK256 ADD PUSH0 SWAP1 SWAP2 SWAP1 SWAP2 SWAP1 SWAP2 PUSH2 0x100 EXP DUP2 SLOAD DUP2 PUSH20 0xFFFFFFFFFFFFFFFFFFFFFFFFFFFFFFFFFFFFFFFF MUL NOT AND SWAP1 DUP4 PUSH20 0xFFFFFFFFFFFFFFFFFFFFFFFFFFFFFFFFFFFFFFFF AND MUL OR SWAP1 SSTORE POP DUP1 PUSH0 DUP1 PUSH2 0x100 EXP DUP2 SLOAD DUP2 PUSH1 0xFF MUL NOT AND SWAP1 DUP4 PUSH1 0xFF AND MUL OR SWAP1 SSTORE POP POP PUSH3 0x125 JUMP JUMPDEST PUSH0 DUP1 REVERT JUMPDEST PUSH0 PUSH1 0xFF DUP3 AND SWAP1 POP SWAP2 SWAP1 POP JUMP JUMPDEST PUSH3 0xD1 DUP2 PUSH3 0xBA JUMP JUMPDEST DUP2 EQ PUSH3 0xDC JUMPI PUSH0 DUP1 REVERT JUMPDEST POP JUMP JUMPDEST PUSH0 DUP2 MLOAD SWAP1 POP PUSH3 0xEF DUP2 PUSH3 0xC6 JUMP JUMPDEST SWAP3 SWAP2 POP POP JUMP JUMPDEST PUSH0 PUSH1 0x20 DUP3 DUP5 SUB SLT ISZERO PUSH3 0x10D JUMPI PUSH3 0x10C PUSH3 0xB6 JUMP JUMPDEST JUMPDEST PUSH0 PUSH3 0x11C DUP5 DUP3 DUP6 ADD PUSH3 0xDF JUMP JUMPDEST SWAP2 POP POP SWAP3 SWAP2 POP POP JUMP JUMPDEST PUSH2 0x28C9 DUP1 PUSH3 0x133 PUSH0 CODECOPY PUSH0 RETURN INVALID PUSH1 0x80 PUSH1 0x40 MSTORE CALLVALUE DUP1 ISZERO PUSH2 0xF JUMPI PUSH0 DUP1 REVERT JUMPDEST POP PUSH1 0x4 CALLDATASIZE LT PUSH2 0x91 JUMPI PUSH0 CALLDATALOAD PUSH1 0xE0 SHR DUP1 PUSH4 0xC0B41C6E GT PUSH2 0x64 JUMPI DUP1 PUSH4 0xC0B41C6E EQ PUSH2 0x135 JUMPI DUP1 PUSH4 0xCE6D0137 EQ PUSH2 0x165 JUMPI DUP1 PUSH4 0xE0051F89 EQ PUSH2 0x181 JUMPI DUP1 PUSH4 0xE5E2C957 EQ PUSH2 0x19D JUMPI DUP1 PUSH4 0xF4CBF42E EQ PUSH2 0x1CD JUMPI PUSH2 0x91 JUMP JUMPDEST DUP1 PUSH4 0x63A87C29 EQ PUSH2 0x95 JUMPI DUP1 PUSH4 0x97DBF3F1 EQ PUSH2 0xCB JUMPI DUP1 PUSH4 0xBCD960A3 EQ PUSH2 0xFB JUMPI DUP1 PUSH4 0xBCFA9F9C EQ PUSH2 0x119 JUMPI JUMPDEST PUSH0 DUP1 REVERT JUMPDEST PUSH2 0xAF PUSH1 0x4 DUP1 CALLDATASIZE SUB DUP2 ADD SWAP1 PUSH2 0xAA SWAP2 SWAP1 PUSH2 0x191E JUMP JUMPDEST PUSH2 0x1E9 JUMP JUMPDEST PUSH1 0x40 MLOAD PUSH2 0xC2 SWAP8 SWAP7 SWAP6 SWAP5 SWAP4 SWAP3 SWAP2 SWAP1 PUSH2 0x1A78 JUMP JUMPDEST PUSH1 0x40 MLOAD DUP1 SWAP2 SUB SWAP1 RETURN JUMPDEST PUSH2 0xE5 PUSH1 0x4 DUP1 CALLDATASIZE SUB DUP2 ADD SWAP1 PUSH2 0xE0 SWAP2 SWAP1 PUSH2 0x1B0F JUMP JUMPDEST PUSH2 0x2A6 JUMP JUMPDEST PUSH1 0x40 MLOAD PUSH2 0xF2 SWAP2 SWAP1 PUSH2 0x1B83 JUMP JUMPDEST PUSH1 0x40 MLOAD DUP1 SWAP2 SUB SWAP1 RETURN JUMPDEST PUSH2 0x103 PUSH2 0x2E8 JUMP JUMPDEST PUSH1 0x40 MLOAD PUSH2 0x110 SWAP2 SWAP1 PUSH2 0x1B9C JUMP JUMPDEST PUSH1 0x40 MLOAD DUP1 SWAP2 SUB SWAP1 RETURN JUMPDEST PUSH2 0x133 PUSH1 0x4 DUP1 CALLDATASIZE SUB DUP2 ADD SWAP1 PUSH2 0x12E SWAP2 SWAP1 PUSH2 0x1BD8 JUMP JUMPDEST PUSH2 0x2F8 JUMP JUMPDEST STOP JUMPDEST PUSH2 0x14F PUSH1 0x4 DUP1 CALLDATASIZE SUB DUP2 ADD SWAP1 PUSH2 0x14A SWAP2 SWAP1 PUSH2 0x1C77 JUMP JUMPDEST PUSH2 0x72C JUMP JUMPDEST PUSH1 0x40 MLOAD PUSH2 0x15C SWAP2 SWAP1 PUSH2 0x1CA2 JUMP JUMPDEST PUSH1 0x40 MLOAD DUP1 SWAP2 SUB SWAP1 RETURN JUMPDEST PUSH2 0x17F PUSH1 0x4 DUP1 CALLDATASIZE SUB DUP2 ADD SWAP1 PUSH2 0x17A SWAP2 SWAP1 PUSH2 0x191E JUMP JUMPDEST PUSH2 0x767 JUMP JUMPDEST STOP JUMPDEST PUSH2 0x19B PUSH1 0x4 DUP1 CALLDATASIZE SUB DUP2 ADD SWAP1 PUSH2 0x196 SWAP2 SWAP1 PUSH2 0x191E JUMP JUMPDEST PUSH2 0x95C JUMP JUMPDEST STOP JUMPDEST PUSH2 0x1B7 PUSH1 0x4 DUP1 CALLDATASIZE SUB DUP2 ADD SWAP1 PUSH2 0x1B2 SWAP2 SWAP1 PUSH2 0x1CBB JUMP JUMPDEST PUSH2 0xC96 JUMP JUMPDEST PUSH1 0x40 MLOAD PUSH2 0x1C4 SWAP2 SWAP1 PUSH2 0x1D60 JUMP JUMPDEST PUSH1 0x40 MLOAD DUP1 SWAP2 SUB SWAP1 RETURN JUMPDEST PUSH2 0x1E7 PUSH1 0x4 DUP1 CALLDATASIZE SUB DUP2 ADD SWAP1 PUSH2 0x1E2 SWAP2 SWAP1 PUSH2 0x1DA3 JUMP JUMPDEST PUSH2 0xD31 JUMP JUMPDEST STOP JUMPDEST PUSH1 0x3 DUP2 DUP1 MLOAD PUSH1 0x20 DUP2 ADD DUP3 ADD DUP1 MLOAD DUP5 DUP3 MSTORE PUSH1 0x20 DUP4 ADD PUSH1 0x20 DUP6 ADD KECCAK256 DUP2 DUP4 MSTORE DUP1 SWAP6 POP POP POP POP POP POP PUSH0 SWAP2 POP SWAP1 POP DUP1 PUSH0 ADD PUSH0 SWAP1 SLOAD SWAP1 PUSH2 0x100 EXP SWAP1 DIV PUSH1 0xFF AND SWAP1 DUP1 PUSH0 ADD PUSH1 0x1 SWAP1 SLOAD SWAP1 PUSH2 0x100 EXP SWAP1 DIV PUSH1 0xFF AND SWAP1 DUP1 PUSH0 ADD PUSH1 0x2 SWAP1 SLOAD SWAP1 PUSH2 0x100 EXP SWAP1 DIV PUSH20 0xFFFFFFFFFFFFFFFFFFFFFFFFFFFFFFFFFFFFFFFF AND SWAP1 DUP1 PUSH0 ADD PUSH1 0x16 SWAP1 SLOAD SWAP1 PUSH2 0x100 EXP SWAP1 DIV PUSH1 0xFF AND SWAP1 DUP1 PUSH0 ADD PUSH1 0x17 SWAP1 SLOAD SWAP1 PUSH2 0x100 EXP SWAP1 DIV PUSH1 0xFF AND SWAP1 DUP1 PUSH0 ADD PUSH1 0x18 SWAP1 SLOAD SWAP1 PUSH2 0x100 EXP SWAP1 DIV PUSH1 0xFF AND SWAP1 DUP1 PUSH0 ADD PUSH1 0x19 SWAP1 SLOAD SWAP1 PUSH2 0x100 EXP SWAP1 DIV PUSH1 0xFF AND SWAP1 POP DUP8 JUMP JUMPDEST PUSH1 0x4 DUP3 DUP1 MLOAD PUSH1 0x20 DUP2 ADD DUP3 ADD DUP1 MLOAD DUP5 DUP3 MSTORE PUSH1 0x20 DUP4 ADD PUSH1 0x20 DUP6 ADD KECCAK256 DUP2 DUP4 MSTORE DUP1 SWAP6 POP POP POP POP POP POP PUSH1 0x20 MSTORE DUP1 PUSH0 MSTORE PUSH1 0x40 PUSH0 KECCAK256 PUSH0 SWAP2 POP SWAP2 POP SWAP1 SLOAD SWAP1 PUSH2 0x100 EXP SWAP1 DIV PUSH1 0xFF AND DUP2 JUMP JUMPDEST PUSH0 DUP1 SLOAD SWAP1 PUSH2 0x100 EXP SWAP1 DIV PUSH1 0xFF AND DUP2 JUMP JUMPDEST PUSH2 0x301 CALLER PUSH2 0x1074 JUMP JUMPDEST PUSH0 LT PUSH2 0x342 JUMPI PUSH1 0x40 MLOAD PUSH32 0x8C379A000000000000000000000000000000000000000000000000000000000 DUP2 MSTORE PUSH1 0x4 ADD PUSH2 0x339 SWAP1 PUSH2 0x1E47 JUMP JUMPDEST PUSH1 0x40 MLOAD DUP1 SWAP2 SUB SWAP1 REVERT JUMPDEST PUSH1 0x3 PUSH1 0x2 PUSH0 CALLER PUSH20 0xFFFFFFFFFFFFFFFFFFFFFFFFFFFFFFFFFFFFFFFF AND PUSH20 0xFFFFFFFFFFFFFFFFFFFFFFFFFFFFFFFFFFFFFFFF AND DUP2 MSTORE PUSH1 0x20 ADD SWAP1 DUP2 MSTORE PUSH1 0x20 ADD PUSH0 KECCAK256 PUSH1 0x40 MLOAD PUSH2 0x38E SWAP2 SWAP1 PUSH2 0x1F5E JUMP JUMPDEST SWAP1 DUP2 MSTORE PUSH1 0x20 ADD PUSH1 0x40 MLOAD DUP1 SWAP2 SUB SWAP1 KECCAK256 PUSH0 ADD PUSH0 SWAP1 SLOAD SWAP1 PUSH2 0x100 EXP SWAP1 DIV PUSH1 0xFF AND PUSH1 0x4 DUP2 GT ISZERO PUSH2 0x3BD JUMPI PUSH2 0x3BC PUSH2 0x1965 JUMP JUMPDEST JUMPDEST PUSH1 0x1 PUSH1 0x4 DUP2 GT ISZERO PUSH2 0x3D1 JUMPI PUSH2 0x3D0 PUSH2 0x1965 JUMP JUMPDEST JUMPDEST SUB PUSH2 0x411 JUMPI PUSH1 0x40 MLOAD PUSH32 0x8C379A000000000000000000000000000000000000000000000000000000000 DUP2 MSTORE PUSH1 0x4 ADD PUSH2 0x408 SWAP1 PUSH2 0x1FBE JUMP JUMPDEST PUSH1 0x40 MLOAD DUP1 SWAP2 SUB SWAP1 REVERT JUMPDEST PUSH1 0x3 DUP4 PUSH1 0x40 MLOAD PUSH2 0x421 SWAP2 SWAP1 PUSH2 0x200C JUMP JUMPDEST SWAP1 DUP2 MSTORE PUSH1 0x20 ADD PUSH1 0x40 MLOAD DUP1 SWAP2 SUB SWAP1 KECCAK256 PUSH0 ADD PUSH0 SWAP1 SLOAD SWAP1 PUSH2 0x100 EXP SWAP1 DIV PUSH1 0xFF AND PUSH1 0x4 DUP2 GT ISZERO PUSH2 0x450 JUMPI PUSH2 0x44F PUSH2 0x1965 JUMP JUMPDEST JUMPDEST PUSH0 PUSH1 0x4 DUP2 GT ISZERO PUSH2 0x463 JUMPI PUSH2 0x462 PUSH2 0x1965 JUMP JUMPDEST JUMPDEST EQ PUSH2 0x4A3 JUMPI PUSH1 0x40 MLOAD PUSH32 0x8C379A000000000000000000000000000000000000000000000000000000000 DUP2 MSTORE PUSH1 0x4 ADD PUSH2 0x49A SWAP1 PUSH2 0x206C JUMP JUMPDEST PUSH1 0x40 MLOAD DUP1 SWAP2 SUB SWAP1 REVERT JUMPDEST PUSH0 PUSH1 0x40 MLOAD DUP1 PUSH1 0xE0 ADD PUSH1 0x40 MSTORE DUP1 PUSH1 0x1 PUSH1 0x4 DUP2 GT ISZERO PUSH2 0x4C3 JUMPI PUSH2 0x4C2 PUSH2 0x1965 JUMP JUMPDEST JUMPDEST DUP2 MSTORE PUSH1 0x20 ADD DUP5 PUSH1 0x2 DUP2 GT ISZERO PUSH2 0x4DB JUMPI PUSH2 0x4DA PUSH2 0x1965 JUMP JUMPDEST JUMPDEST DUP2 MSTORE PUSH1 0x20 ADD DUP4 PUSH20 0xFFFFFFFFFFFFFFFFFFFFFFFFFFFFFFFFFFFFFFFF AND DUP2 MSTORE PUSH1 0x20 ADD PUSH1 0x1 PUSH1 0xFF AND DUP2 MSTORE PUSH1 0x20 ADD PUSH0 PUSH1 0xFF AND DUP2 MSTORE PUSH1 0x20 ADD PUSH0 PUSH1 0xFF AND DUP2 MSTORE PUSH1 0x20 ADD PUSH1 0x1 DUP1 SLOAD SWAP1 POP PUSH1 0xFF AND DUP2 MSTORE POP SWAP1 POP DUP1 PUSH1 0x3 DUP6 PUSH1 0x40 MLOAD PUSH2 0x537 SWAP2 SWAP1 PUSH2 0x200C JUMP JUMPDEST SWAP1 DUP2 MSTORE PUSH1 0x20 ADD PUSH1 0x40 MLOAD DUP1 SWAP2 SUB SWAP1 KECCAK256 PUSH0 DUP3 ADD MLOAD DUP2 PUSH0 ADD PUSH0 PUSH2 0x100 EXP DUP2 SLOAD DUP2 PUSH1 0xFF MUL NOT AND SWAP1 DUP4 PUSH1 0x4 DUP2 GT ISZERO PUSH2 0x56D JUMPI PUSH2 0x56C PUSH2 0x1965 JUMP JUMPDEST JUMPDEST MUL OR SWAP1 SSTORE POP PUSH1 0x20 DUP3 ADD MLOAD DUP2 PUSH0 ADD PUSH1 0x1 PUSH2 0x100 EXP DUP2 SLOAD DUP2 PUSH1 0xFF MUL NOT AND SWAP1 DUP4 PUSH1 0x2 DUP2 GT ISZERO PUSH2 0x59C JUMPI PUSH2 0x59B PUSH2 0x1965 JUMP JUMPDEST JUMPDEST MUL OR SWAP1 SSTORE POP PUSH1 0x40 DUP3 ADD MLOAD DUP2 PUSH0 ADD PUSH1 0x2 PUSH2 0x100 EXP DUP2 SLOAD DUP2 PUSH20 0xFFFFFFFFFFFFFFFFFFFFFFFFFFFFFFFFFFFFFFFF MUL NOT AND SWAP1 DUP4 PUSH20 0xFFFFFFFFFFFFFFFFFFFFFFFFFFFFFFFFFFFFFFFF AND MUL OR SWAP1 SSTORE POP PUSH1 0x60 DUP3 ADD MLOAD DUP2 PUSH0 ADD PUSH1 0x16 PUSH2 0x100 EXP DUP2 SLOAD DUP2 PUSH1 0xFF MUL NOT AND SWAP1 DUP4 PUSH1 0xFF AND MUL OR SWAP1 SSTORE POP PUSH1 0x80 DUP3 ADD MLOAD DUP2 PUSH0 ADD PUSH1 0x17 PUSH2 0x100 EXP DUP2 SLOAD DUP2 PUSH1 0xFF MUL NOT AND SWAP1 DUP4 PUSH1 0xFF AND MUL OR SWAP1 SSTORE POP PUSH1 0xA0 DUP3 ADD MLOAD DUP2 PUSH0 ADD PUSH1 0x18 PUSH2 0x100 EXP DUP2 SLOAD DUP2 PUSH1 0xFF MUL NOT AND SWAP1 DUP4 PUSH1 0xFF AND MUL OR SWAP1 SSTORE POP PUSH1 0xC0 DUP3 ADD MLOAD DUP2 PUSH0 ADD PUSH1 0x19 PUSH2 0x100 EXP DUP2 SLOAD DUP2 PUSH1 0xFF MUL NOT AND SWAP1 DUP4 PUSH1 0xFF AND MUL OR SWAP1 SSTORE POP SWAP1 POP POP DUP4 PUSH1 0x2 PUSH0 CALLER PUSH20 0xFFFFFFFFFFFFFFFFFFFFFFFFFFFFFFFFFFFFFFFF AND PUSH20 0xFFFFFFFFFFFFFFFFFFFFFFFFFFFFFFFFFFFFFFFF AND DUP2 MSTORE PUSH1 0x20 ADD SWAP1 DUP2 MSTORE PUSH1 0x20 ADD PUSH0 KECCAK256 SWAP1 DUP2 PUSH2 0x6B4 SWAP2 SWAP1 PUSH2 0x2215 JUMP JUMPDEST POP PUSH1 0x1 PUSH1 0x4 DUP6 PUSH1 0x40 MLOAD PUSH2 0x6C7 SWAP2 SWAP1 PUSH2 0x200C JUMP JUMPDEST SWAP1 DUP2 MSTORE PUSH1 0x20 ADD PUSH1 0x40 MLOAD DUP1 SWAP2 SUB SWAP1 KECCAK256 PUSH0 CALLER PUSH20 0xFFFFFFFFFFFFFFFFFFFFFFFFFFFFFFFFFFFFFFFF AND PUSH20 0xFFFFFFFFFFFFFFFFFFFFFFFFFFFFFFFFFFFFFFFF AND DUP2 MSTORE PUSH1 0x20 ADD SWAP1 DUP2 MSTORE PUSH1 0x20 ADD PUSH0 KECCAK256 PUSH0 PUSH2 0x100 EXP DUP2 SLOAD DUP2 PUSH1 0xFF MUL NOT AND SWAP1 DUP4 ISZERO ISZERO MUL OR SWAP1 SSTORE POP POP POP POP POP JUMP JUMPDEST PUSH1 0x1 DUP2 DUP2 SLOAD DUP2 LT PUSH2 0x73B JUMPI PUSH0 DUP1 REVERT JUMPDEST SWAP1 PUSH0 MSTORE PUSH1 0x20 PUSH0 KECCAK256 ADD PUSH0 SWAP2 POP SLOAD SWAP1 PUSH2 0x100 EXP SWAP1 DIV PUSH20 0xFFFFFFFFFFFFFFFFFFFFFFFFFFFFFFFFFFFFFFFF AND DUP2 JUMP JUMPDEST PUSH1 0x3 PUSH1 0x2 PUSH0 CALLER PUSH20 0xFFFFFFFFFFFFFFFFFFFFFFFFFFFFFFFFFFFFFFFF AND PUSH20 0xFFFFFFFFFFFFFFFFFFFFFFFFFFFFFFFFFFFFFFFF AND DUP2 MSTORE PUSH1 0x20 ADD SWAP1 DUP2 MSTORE PUSH1 0x20 ADD PUSH0 KECCAK256 PUSH1 0x40 MLOAD PUSH2 0x7B3 SWAP2 SWAP1 PUSH2 0x1F5E JUMP JUMPDEST SWAP1 DUP2 MSTORE PUSH1 0x20 ADD PUSH1 0x40 MLOAD DUP1 SWAP2 SUB SWAP1 KECCAK256 PUSH0 ADD PUSH0 SWAP1 SLOAD SWAP1 PUSH2 0x100 EXP SWAP1 DIV PUSH1 0xFF AND PUSH1 0x4 DUP2 GT ISZERO PUSH2 0x7E2 JUMPI PUSH2 0x7E1 PUSH2 0x1965 JUMP JUMPDEST JUMPDEST PUSH1 0x1 PUSH1 0x4 DUP2 GT ISZERO PUSH2 0x7F6 JUMPI PUSH2 0x7F5 PUSH2 0x1965 JUMP JUMPDEST JUMPDEST EQ PUSH2 0x836 JUMPI PUSH1 0x40 MLOAD PUSH32 0x8C379A000000000000000000000000000000000000000000000000000000000 DUP2 MSTORE PUSH1 0x4 ADD PUSH2 0x82D SWAP1 PUSH2 0x232E JUMP JUMPDEST PUSH1 0x40 MLOAD DUP1 SWAP2 SUB SWAP1 REVERT JUMPDEST PUSH1 0x3 DUP2 PUSH1 0x40 MLOAD PUSH2 0x846 SWAP2 SWAP1 PUSH2 0x200C JUMP JUMPDEST SWAP1 DUP2 MSTORE PUSH1 0x20 ADD PUSH1 0x40 MLOAD DUP1 SWAP2 SUB SWAP1 KECCAK256 PUSH0 ADD PUSH0 SWAP1 SLOAD SWAP1 PUSH2 0x100 EXP SWAP1 DIV PUSH1 0xFF AND PUSH1 0x4 DUP2 GT ISZERO PUSH2 0x875 JUMPI PUSH2 0x874 PUSH2 0x1965 JUMP JUMPDEST JUMPDEST PUSH1 0x1 PUSH1 0x4 DUP2 GT ISZERO PUSH2 0x889 JUMPI PUSH2 0x888 PUSH2 0x1965 JUMP JUMPDEST JUMPDEST EQ PUSH2 0x8C9 JUMPI PUSH1 0x40 MLOAD PUSH32 0x8C379A000000000000000000000000000000000000000000000000000000000 DUP2 MSTORE PUSH1 0x4 ADD PUSH2 0x8C0 SWAP1 PUSH2 0x2396 JUMP JUMPDEST PUSH1 0x40 MLOAD DUP1 SWAP2 SUB SWAP1 REVERT JUMPDEST PUSH1 0x2 PUSH1 0x3 DUP3 PUSH1 0x40 MLOAD PUSH2 0x8DB SWAP2 SWAP1 PUSH2 0x200C JUMP JUMPDEST SWAP1 DUP2 MSTORE PUSH1 0x20 ADD PUSH1 0x40 MLOAD DUP1 SWAP2 SUB SWAP1 KECCAK256 PUSH0 ADD PUSH0 PUSH2 0x100 EXP DUP2 SLOAD DUP2 PUSH1 0xFF MUL NOT AND SWAP1 DUP4 PUSH1 0x4 DUP2 GT ISZERO PUSH2 0x90C JUMPI PUSH2 0x90B PUSH2 0x1965 JUMP JUMPDEST JUMPDEST MUL OR SWAP1 SSTORE POP PUSH1 0x2 PUSH0 CALLER PUSH20 0xFFFFFFFFFFFFFFFFFFFFFFFFFFFFFFFFFFFFFFFF AND PUSH20 0xFFFFFFFFFFFFFFFFFFFFFFFFFFFFFFFFFFFFFFFF AND DUP2 MSTORE PUSH1 0x20 ADD SWAP1 DUP2 MSTORE PUSH1 0x20 ADD PUSH0 KECCAK256 PUSH0 PUSH2 0x959 SWAP2 SWAP1 PUSH2 0x1779 JUMP JUMPDEST POP JUMP JUMPDEST PUSH1 0x3 PUSH1 0x2 PUSH0 CALLER PUSH20 0xFFFFFFFFFFFFFFFFFFFFFFFFFFFFFFFFFFFFFFFF AND PUSH20 0xFFFFFFFFFFFFFFFFFFFFFFFFFFFFFFFFFFFFFFFF AND DUP2 MSTORE PUSH1 0x20 ADD SWAP1 DUP2 MSTORE PUSH1 0x20 ADD PUSH0 KECCAK256 PUSH1 0x40 MLOAD PUSH2 0x9A8 SWAP2 SWAP1 PUSH2 0x1F5E JUMP JUMPDEST SWAP1 DUP2 MSTORE PUSH1 0x20 ADD PUSH1 0x40 MLOAD DUP1 SWAP2 SUB SWAP1 KECCAK256 PUSH0 ADD PUSH0 SWAP1 SLOAD SWAP1 PUSH2 0x100 EXP SWAP1 DIV PUSH1 0xFF AND PUSH1 0x4 DUP2 GT ISZERO PUSH2 0x9D7 JUMPI PUSH2 0x9D6 PUSH2 0x1965 JUMP JUMPDEST JUMPDEST PUSH1 0x1 PUSH1 0x4 DUP2 GT ISZERO PUSH2 0x9EB JUMPI PUSH2 0x9EA PUSH2 0x1965 JUMP JUMPDEST JUMPDEST EQ PUSH2 0xA2B JUMPI PUSH1 0x40 MLOAD PUSH32 0x8C379A000000000000000000000000000000000000000000000000000000000 DUP2 MSTORE PUSH1 0x4 ADD PUSH2 0xA22 SWAP1 PUSH2 0x232E JUMP JUMPDEST PUSH1 0x40 MLOAD DUP1 SWAP2 SUB SWAP1 REVERT JUMPDEST PUSH1 0x3 DUP2 PUSH1 0x40 MLOAD PUSH2 0xA3B SWAP2 SWAP1 PUSH2 0x200C JUMP JUMPDEST SWAP1 DUP2 MSTORE PUSH1 0x20 ADD PUSH1 0x40 MLOAD DUP1 SWAP2 SUB SWAP1 KECCAK256 PUSH0 ADD PUSH0 SWAP1 SLOAD SWAP1 PUSH2 0x100 EXP SWAP1 DIV PUSH1 0xFF AND PUSH1 0x4 DUP2 GT ISZERO PUSH2 0xA6A JUMPI PUSH2 0xA69 PUSH2 0x1965 JUMP JUMPDEST JUMPDEST PUSH1 0x1 PUSH1 0x4 DUP2 GT ISZERO PUSH2 0xA7E JUMPI PUSH2 0xA7D PUSH2 0x1965 JUMP JUMPDEST JUMPDEST EQ PUSH2 0xABE JUMPI PUSH1 0x40 MLOAD PUSH32 0x8C379A000000000000000000000000000000000000000000000000000000000 DUP2 MSTORE PUSH1 0x4 ADD PUSH2 0xAB5 SWAP1 PUSH2 0x2396 JUMP JUMPDEST PUSH1 0x40 MLOAD DUP1 SWAP2 SUB SWAP1 REVERT JUMPDEST PUSH0 PUSH2 0xAC8 DUP3 PUSH2 0x1139 JUMP JUMPDEST SWAP1 POP DUP1 PUSH2 0xAD6 JUMPI PUSH1 0x4 PUSH2 0xAD9 JUMP JUMPDEST PUSH1 0x3 JUMPDEST PUSH1 0x3 DUP4 PUSH1 0x40 MLOAD PUSH2 0xAE9 SWAP2 SWAP1 PUSH2 0x200C JUMP JUMPDEST SWAP1 DUP2 MSTORE PUSH1 0x20 ADD PUSH1 0x40 MLOAD DUP1 SWAP2 SUB SWAP1 KECCAK256 PUSH0 ADD PUSH0 PUSH2 0x100 EXP DUP2 SLOAD DUP2 PUSH1 0xFF MUL NOT AND SWAP1 DUP4 PUSH1 0x4 DUP2 GT ISZERO PUSH2 0xB1A JUMPI PUSH2 0xB19 PUSH2 0x1965 JUMP JUMPDEST JUMPDEST MUL OR SWAP1 SSTORE POP PUSH1 0x2 PUSH0 CALLER PUSH20 0xFFFFFFFFFFFFFFFFFFFFFFFFFFFFFFFFFFFFFFFF AND PUSH20 0xFFFFFFFFFFFFFFFFFFFFFFFFFFFFFFFFFFFFFFFF AND DUP2 MSTORE PUSH1 0x20 ADD SWAP1 DUP2 MSTORE PUSH1 0x20 ADD PUSH0 KECCAK256 PUSH0 PUSH2 0xB67 SWAP2 SWAP1 PUSH2 0x1779 JUMP JUMPDEST DUP1 ISZERO PUSH2 0xC92 JUMPI PUSH0 PUSH1 0x3 DUP4 PUSH1 0x40 MLOAD PUSH2 0xB7E SWAP2 SWAP1 PUSH2 0x200C JUMP JUMPDEST SWAP1 DUP2 MSTORE PUSH1 0x20 ADD PUSH1 0x40 MLOAD DUP1 SWAP2 SUB SWAP1 KECCAK256 PUSH0 ADD PUSH1 0x1 SWAP1 SLOAD SWAP1 PUSH2 0x100 EXP SWAP1 DIV PUSH1 0xFF AND SWAP1 POP PUSH0 PUSH1 0x3 DUP5 PUSH1 0x40 MLOAD PUSH2 0xBAF SWAP2 SWAP1 PUSH2 0x200C JUMP JUMPDEST SWAP1 DUP2 MSTORE PUSH1 0x20 ADD PUSH1 0x40 MLOAD DUP1 SWAP2 SUB SWAP1 KECCAK256 PUSH0 ADD PUSH1 0x2 SWAP1 SLOAD SWAP1 PUSH2 0x100 EXP SWAP1 DIV PUSH20 0xFFFFFFFFFFFFFFFFFFFFFFFFFFFFFFFFFFFFFFFF AND SWAP1 POP PUSH1 0x1 PUSH1 0x2 DUP2 GT ISZERO PUSH2 0xBF6 JUMPI PUSH2 0xBF5 PUSH2 0x1965 JUMP JUMPDEST JUMPDEST DUP3 PUSH1 0x2 DUP2 GT ISZERO PUSH2 0xC09 JUMPI PUSH2 0xC08 PUSH2 0x1965 JUMP JUMPDEST JUMPDEST SUB PUSH2 0xC1D JUMPI PUSH2 0xC18 DUP5 DUP3 PUSH2 0x1395 JUMP JUMPDEST PUSH2 0xC8F JUMP JUMPDEST PUSH1 0x2 DUP1 DUP2 GT ISZERO PUSH2 0xC30 JUMPI PUSH2 0xC2F PUSH2 0x1965 JUMP JUMPDEST JUMPDEST DUP3 PUSH1 0x2 DUP2 GT ISZERO PUSH2 0xC43 JUMPI PUSH2 0xC42 PUSH2 0x1965 JUMP JUMPDEST JUMPDEST SUB PUSH2 0xC57 JUMPI PUSH2 0xC52 DUP5 DUP3 PUSH2 0x13E8 JUMP JUMPDEST PUSH2 0xC8E JUMP JUMPDEST PUSH0 PUSH1 0x2 DUP2 GT ISZERO PUSH2 0xC6A JUMPI PUSH2 0xC69 PUSH2 0x1965 JUMP JUMPDEST JUMPDEST DUP3 PUSH1 0x2 DUP2 GT ISZERO PUSH2 0xC7D JUMPI PUSH2 0xC7C PUSH2 0x1965 JUMP JUMPDEST JUMPDEST SUB PUSH2 0xC8D JUMPI PUSH2 0xC8C DUP5 DUP3 PUSH2 0x143B JUMP JUMPDEST JUMPDEST JUMPDEST JUMPDEST POP POP JUMPDEST POP POP JUMP JUMPDEST PUSH1 0x2 PUSH1 0x20 MSTORE DUP1 PUSH0 MSTORE PUSH1 0x40 PUSH0 KECCAK256 PUSH0 SWAP2 POP SWAP1 POP DUP1 SLOAD PUSH2 0xCB2 SWAP1 PUSH2 0x1E92 JUMP JUMPDEST DUP1 PUSH1 0x1F ADD PUSH1 0x20 DUP1 SWAP2 DIV MUL PUSH1 0x20 ADD PUSH1 0x40 MLOAD SWAP1 DUP2 ADD PUSH1 0x40 MSTORE DUP1 SWAP3 SWAP2 SWAP1 DUP2 DUP2 MSTORE PUSH1 0x20 ADD DUP3 DUP1 SLOAD PUSH2 0xCDE SWAP1 PUSH2 0x1E92 JUMP JUMPDEST DUP1 ISZERO PUSH2 0xD29 JUMPI DUP1 PUSH1 0x1F LT PUSH2 0xD00 JUMPI PUSH2 0x100 DUP1 DUP4 SLOAD DIV MUL DUP4 MSTORE SWAP2 PUSH1 0x20 ADD SWAP2 PUSH2 0xD29 JUMP JUMPDEST DUP3 ADD SWAP2 SWAP1 PUSH0 MSTORE PUSH1 0x20 PUSH0 KECCAK256 SWAP1 JUMPDEST DUP2 SLOAD DUP2 MSTORE SWAP1 PUSH1 0x1 ADD SWAP1 PUSH1 0x20 ADD DUP1 DUP4 GT PUSH2 0xD0C JUMPI DUP3 SWAP1 SUB PUSH1 0x1F AND DUP3 ADD SWAP2 JUMPDEST POP POP POP POP POP DUP2 JUMP JUMPDEST PUSH2 0xD3A CALLER PUSH2 0x1074 JUMP JUMPDEST PUSH0 LT PUSH2 0xD7B JUMPI PUSH1 0x40 MLOAD PUSH32 0x8C379A000000000000000000000000000000000000000000000000000000000 DUP2 MSTORE PUSH1 0x4 ADD PUSH2 0xD72 SWAP1 PUSH2 0x1E47 JUMP JUMPDEST PUSH1 0x40 MLOAD DUP1 SWAP2 SUB SWAP1 REVERT JUMPDEST PUSH1 0x3 DUP3 PUSH1 0x40 MLOAD PUSH2 0xD8B SWAP2 SWAP1 PUSH2 0x200C JUMP JUMPDEST SWAP1 DUP2 MSTORE PUSH1 0x20 ADD PUSH1 0x40 MLOAD DUP1 SWAP2 SUB SWAP1 KECCAK256 PUSH0 ADD PUSH0 SWAP1 SLOAD SWAP1 PUSH2 0x100 EXP SWAP1 DIV PUSH1 0xFF AND PUSH1 0x4 DUP2 GT ISZERO PUSH2 0xDBA JUMPI PUSH2 0xDB9 PUSH2 0x1965 JUMP JUMPDEST JUMPDEST PUSH1 0x1 PUSH1 0x4 DUP2 GT ISZERO PUSH2 0xDCE JUMPI PUSH2 0xDCD PUSH2 0x1965 JUMP JUMPDEST JUMPDEST EQ PUSH2 0xE0E JUMPI PUSH1 0x40 MLOAD PUSH32 0x8C379A000000000000000000000000000000000000000000000000000000000 DUP2 MSTORE PUSH1 0x4 ADD PUSH2 0xE05 SWAP1 PUSH2 0x2396 JUMP JUMPDEST PUSH1 0x40 MLOAD DUP1 SWAP2 SUB SWAP1 REVERT JUMPDEST PUSH1 0x4 DUP3 PUSH1 0x40 MLOAD PUSH2 0xE1E SWAP2 SWAP1 PUSH2 0x200C JUMP JUMPDEST SWAP1 DUP2 MSTORE PUSH1 0x20 ADD PUSH1 0x40 MLOAD DUP1 SWAP2 SUB SWAP1 KECCAK256 PUSH0 CALLER PUSH20 0xFFFFFFFFFFFFFFFFFFFFFFFFFFFFFFFFFFFFFFFF AND PUSH20 0xFFFFFFFFFFFFFFFFFFFFFFFFFFFFFFFFFFFFFFFF AND DUP2 MSTORE PUSH1 0x20 ADD SWAP1 DUP2 MSTORE PUSH1 0x20 ADD PUSH0 KECCAK256 PUSH0 SWAP1 SLOAD SWAP1 PUSH2 0x100 EXP SWAP1 DIV PUSH1 0xFF AND ISZERO PUSH2 0xE7D JUMPI PUSH0 DUP1 REVERT JUMPDEST PUSH0 PUSH1 0x2 DUP2 GT ISZERO PUSH2 0xE90 JUMPI PUSH2 0xE8F PUSH2 0x1965 JUMP JUMPDEST JUMPDEST DUP2 PUSH1 0x2 DUP2 GT ISZERO PUSH2 0xEA3 JUMPI PUSH2 0xEA2 PUSH2 0x1965 JUMP JUMPDEST JUMPDEST SUB PUSH2 0xEFE JUMPI PUSH1 0x3 DUP3 PUSH1 0x40 MLOAD PUSH2 0xEB8 SWAP2 SWAP1 PUSH2 0x200C JUMP JUMPDEST SWAP1 DUP2 MSTORE PUSH1 0x20 ADD PUSH1 0x40 MLOAD DUP1 SWAP2 SUB SWAP1 KECCAK256 PUSH0 ADD PUSH1 0x16 DUP2 DUP2 SWAP1 SLOAD SWAP1 PUSH2 0x100 EXP SWAP1 DIV PUSH1 0xFF AND PUSH2 0xEE1 SWAP1 PUSH2 0x23E1 JUMP JUMPDEST SWAP2 SWAP1 PUSH2 0x100 EXP DUP2 SLOAD DUP2 PUSH1 0xFF MUL NOT AND SWAP1 DUP4 PUSH1 0xFF AND MUL OR SWAP1 SSTORE POP PUSH2 0xFFF JUMP JUMPDEST PUSH1 0x1 PUSH1 0x2 DUP2 GT ISZERO PUSH2 0xF12 JUMPI PUSH2 0xF11 PUSH2 0x1965 JUMP JUMPDEST JUMPDEST DUP2 PUSH1 0x2 DUP2 GT ISZERO PUSH2 0xF25 JUMPI PUSH2 0xF24 PUSH2 0x1965 JUMP JUMPDEST JUMPDEST SUB PUSH2 0xF80 JUMPI PUSH1 0x3 DUP3 PUSH1 0x40 MLOAD PUSH2 0xF3A SWAP2 SWAP1 PUSH2 0x200C JUMP JUMPDEST SWAP1 DUP2 MSTORE PUSH1 0x20 ADD PUSH1 0x40 MLOAD DUP1 SWAP2 SUB SWAP1 KECCAK256 PUSH0 ADD PUSH1 0x17 DUP2 DUP2 SWAP1 SLOAD SWAP1 PUSH2 0x100 EXP SWAP1 DIV PUSH1 0xFF AND PUSH2 0xF63 SWAP1 PUSH2 0x23E1 JUMP JUMPDEST SWAP2 SWAP1 PUSH2 0x100 EXP DUP2 SLOAD DUP2 PUSH1 0xFF MUL NOT AND SWAP1 DUP4 PUSH1 0xFF AND MUL OR SWAP1 SSTORE POP PUSH2 0xFFE JUMP JUMPDEST PUSH1 0x2 DUP1 DUP2 GT ISZERO PUSH2 0xF93 JUMPI PUSH2 0xF92 PUSH2 0x1965 JUMP JUMPDEST JUMPDEST DUP2 PUSH1 0x2 DUP2 GT ISZERO PUSH2 0xFA6 JUMPI PUSH2 0xFA5 PUSH2 0x1965 JUMP JUMPDEST JUMPDEST SUB PUSH2 0xFFD JUMPI PUSH1 0x3 DUP3 PUSH1 0x40 MLOAD PUSH2 0xFBB SWAP2 SWAP1 PUSH2 0x200C JUMP JUMPDEST SWAP1 DUP2 MSTORE PUSH1 0x20 ADD PUSH1 0x40 MLOAD DUP1 SWAP2 SUB SWAP1 KECCAK256 PUSH0 ADD PUSH1 0x18 DUP2 DUP2 SWAP1 SLOAD SWAP1 PUSH2 0x100 EXP SWAP1 DIV PUSH1 0xFF AND PUSH2 0xFE4 SWAP1 PUSH2 0x23E1 JUMP JUMPDEST SWAP2 SWAP1 PUSH2 0x100 EXP DUP2 SLOAD DUP2 PUSH1 0xFF MUL NOT AND SWAP1 DUP4 PUSH1 0xFF AND MUL OR SWAP1 SSTORE POP JUMPDEST JUMPDEST JUMPDEST PUSH1 0x1 PUSH1 0x4 DUP4 PUSH1 0x40 MLOAD PUSH2 0x1011 SWAP2 SWAP1 PUSH2 0x200C JUMP JUMPDEST SWAP1 DUP2 MSTORE PUSH1 0x20 ADD PUSH1 0x40 MLOAD DUP1 SWAP2 SUB SWAP1 KECCAK256 PUSH0 CALLER PUSH20 0xFFFFFFFFFFFFFFFFFFFFFFFFFFFFFFFFFFFFFFFF AND PUSH20 0xFFFFFFFFFFFFFFFFFFFFFFFFFFFFFFFFFFFFFFFF AND DUP2 MSTORE PUSH1 0x20 ADD SWAP1 DUP2 MSTORE PUSH1 0x20 ADD PUSH0 KECCAK256 PUSH0 PUSH2 0x100 EXP DUP2 SLOAD DUP2 PUSH1 0xFF MUL NOT AND SWAP1 DUP4 ISZERO ISZERO MUL OR SWAP1 SSTORE POP POP POP JUMP JUMPDEST PUSH0 DUP1 PUSH1 0x1 DUP1 SLOAD SWAP1 POP SUB PUSH2 0x1089 JUMPI PUSH0 SWAP1 POP PUSH2 0x1134 JUMP JUMPDEST PUSH0 JUMPDEST PUSH1 0x1 DUP1 SLOAD SWAP1 POP DUP2 LT ISZERO PUSH2 0x112F JUMPI DUP3 PUSH20 0xFFFFFFFFFFFFFFFFFFFFFFFFFFFFFFFFFFFFFFFF AND PUSH1 0x1 DUP3 DUP2 SLOAD DUP2 LT PUSH2 0x10C3 JUMPI PUSH2 0x10C2 PUSH2 0x2409 JUMP JUMPDEST JUMPDEST SWAP1 PUSH0 MSTORE PUSH1 0x20 PUSH0 KECCAK256 ADD PUSH0 SWAP1 SLOAD SWAP1 PUSH2 0x100 EXP SWAP1 DIV PUSH20 0xFFFFFFFFFFFFFFFFFFFFFFFFFFFFFFFFFFFFFFFF AND PUSH20 0xFFFFFFFFFFFFFFFFFFFFFFFFFFFFFFFFFFFFFFFF AND SUB PUSH2 0x111B JUMPI PUSH1 0x1 DUP2 PUSH2 0x1113 SWAP2 SWAP1 PUSH2 0x2436 JUMP JUMPDEST SWAP2 POP POP PUSH2 0x1134 JUMP JUMPDEST PUSH1 0x1 DUP2 PUSH2 0x1128 SWAP2 SWAP1 PUSH2 0x2436 JUMP JUMPDEST SWAP1 POP PUSH2 0x108B JUMP JUMPDEST POP PUSH0 SWAP1 POP JUMPDEST SWAP2 SWAP1 POP JUMP JUMPDEST PUSH0 DUP1 PUSH1 0x3 DUP4 PUSH1 0x40 MLOAD PUSH2 0x114B SWAP2 SWAP1 PUSH2 0x200C JUMP JUMPDEST SWAP1 DUP2 MSTORE PUSH1 0x20 ADD PUSH1 0x40 MLOAD DUP1 SWAP2 SUB SWAP1 KECCAK256 PUSH1 0x40 MLOAD DUP1 PUSH1 0xE0 ADD PUSH1 0x40 MSTORE SWAP1 DUP2 PUSH0 DUP3 ADD PUSH0 SWAP1 SLOAD SWAP1 PUSH2 0x100 EXP SWAP1 DIV PUSH1 0xFF AND PUSH1 0x4 DUP2 GT ISZERO PUSH2 0x1187 JUMPI PUSH2 0x1186 PUSH2 0x1965 JUMP JUMPDEST JUMPDEST PUSH1 0x4 DUP2 GT ISZERO PUSH2 0x1199 JUMPI PUSH2 0x1198 PUSH2 0x1965 JUMP JUMPDEST JUMPDEST DUP2 MSTORE PUSH1 0x20 ADD PUSH0 DUP3 ADD PUSH1 0x1 SWAP1 SLOAD SWAP1 PUSH2 0x100 EXP SWAP1 DIV PUSH1 0xFF AND PUSH1 0x2 DUP2 GT ISZERO PUSH2 0x11C1 JUMPI PUSH2 0x11C0 PUSH2 0x1965 JUMP JUMPDEST JUMPDEST PUSH1 0x2 DUP2 GT ISZERO PUSH2 0x11D3 JUMPI PUSH2 0x11D2 PUSH2 0x1965 JUMP JUMPDEST JUMPDEST DUP2 MSTORE PUSH1 0x20 ADD PUSH0 DUP3 ADD PUSH1 0x2 SWAP1 SLOAD SWAP1 PUSH2 0x100 EXP SWAP1 DIV PUSH20 0xFFFFFFFFFFFFFFFFFFFFFFFFFFFFFFFFFFFFFFFF AND PUSH20 0xFFFFFFFFFFFFFFFFFFFFFFFFFFFFFFFFFFFFFFFF AND PUSH20 0xFFFFFFFFFFFFFFFFFFFFFFFFFFFFFFFFFFFFFFFF AND DUP2 MSTORE PUSH1 0x20 ADD PUSH0 DUP3 ADD PUSH1 0x16 SWAP1 SLOAD SWAP1 PUSH2 0x100 EXP SWAP1 DIV PUSH1 0xFF AND PUSH1 0xFF AND PUSH1 0xFF AND DUP2 MSTORE PUSH1 0x20 ADD PUSH0 DUP3 ADD PUSH1 0x17 SWAP1 SLOAD SWAP1 PUSH2 0x100 EXP SWAP1 DIV PUSH1 0xFF AND PUSH1 0xFF AND PUSH1 0xFF AND DUP2 MSTORE PUSH1 0x20 ADD PUSH0 DUP3 ADD PUSH1 0x18 SWAP1 SLOAD SWAP1 PUSH2 0x100 EXP SWAP1 DIV PUSH1 0xFF AND PUSH1 0xFF AND PUSH1 0xFF AND DUP2 MSTORE PUSH1 0x20 ADD PUSH0 DUP3 ADD PUSH1 0x19 SWAP1 SLOAD SWAP1 PUSH2 0x100 EXP SWAP1 DIV PUSH1 0xFF AND PUSH1 0xFF AND PUSH1 0xFF AND DUP2 MSTORE POP POP SWAP1 POP DUP1 PUSH1 0xA0 ADD MLOAD PUSH1 0xFF AND DUP2 PUSH1 0xC0 ADD MLOAD PUSH1 0xFF AND SUB PUSH2 0x12BC JUMPI PUSH0 SWAP2 POP POP PUSH2 0x1390 JUMP JUMPDEST PUSH0 DUP2 PUSH1 0xA0 ADD MLOAD DUP3 PUSH1 0xC0 ADD MLOAD PUSH2 0x12D1 SWAP2 SWAP1 PUSH2 0x2469 JUMP JUMPDEST PUSH1 0xFF AND SWAP1 POP PUSH0 DUP1 SLOAD SWAP1 PUSH2 0x100 EXP SWAP1 DIV PUSH1 0xFF AND PUSH1 0xFF AND DUP2 PUSH1 0x64 DUP5 PUSH1 0x60 ADD MLOAD PUSH2 0x12F8 SWAP2 SWAP1 PUSH2 0x249D JUMP JUMPDEST PUSH1 0xFF AND PUSH2 0x1305 SWAP2 SWAP1 PUSH2 0x2506 JUMP JUMPDEST GT ISZERO PUSH2 0x1316 JUMPI PUSH1 0x1 SWAP3 POP POP POP PUSH2 0x1390 JUMP JUMPDEST PUSH0 DUP1 SLOAD SWAP1 PUSH2 0x100 EXP SWAP1 DIV PUSH1 0xFF AND PUSH1 0xFF AND DUP2 PUSH1 0x64 DUP5 PUSH1 0x80 ADD MLOAD PUSH2 0x1338 SWAP2 SWAP1 PUSH2 0x249D JUMP JUMPDEST PUSH1 0xFF AND PUSH2 0x1345 SWAP2 SWAP1 PUSH2 0x2506 JUMP JUMPDEST GT ISZERO PUSH2 0x1355 JUMPI PUSH0 SWAP3 POP POP POP PUSH2 0x1390 JUMP JUMPDEST PUSH1 0x40 MLOAD PUSH32 0x8C379A000000000000000000000000000000000000000000000000000000000 DUP2 MSTORE PUSH1 0x4 ADD PUSH2 0x1387 SWAP1 PUSH2 0x2580 JUMP JUMPDEST PUSH1 0x40 MLOAD DUP1 SWAP2 SUB SWAP1 REVERT JUMPDEST SWAP2 SWAP1 POP JUMP JUMPDEST PUSH2 0x139E DUP2 PUSH2 0x15EB JUMP JUMPDEST ISZERO PUSH2 0x13E4 JUMPI PUSH32 0x594548F29E804558D875FAEFFFF31D44739100E22878A2BEF637426D5F03A9E0 DUP3 DUP3 PUSH1 0x1 DUP1 SLOAD SWAP1 POP PUSH1 0x40 MLOAD PUSH2 0x13DB SWAP4 SWAP3 SWAP2 SWAP1 PUSH2 0x25F7 JUMP JUMPDEST PUSH1 0x40 MLOAD DUP1 SWAP2 SUB SWAP1 LOG1 JUMPDEST POP POP JUMP JUMPDEST PUSH2 0x13F1 DUP2 PUSH2 0x1673 JUMP JUMPDEST ISZERO PUSH2 0x1437 JUMPI PUSH32 0x594548F29E804558D875FAEFFFF31D44739100E22878A2BEF637426D5F03A9E0 DUP3 DUP3 PUSH1 0x1 DUP1 SLOAD SWAP1 POP PUSH1 0x40 MLOAD PUSH2 0x142E SWAP4 SWAP3 SWAP2 SWAP1 PUSH2 0x2690 JUMP JUMPDEST PUSH1 0x40 MLOAD DUP1 SWAP2 SUB SWAP1 LOG1 JUMPDEST POP POP JUMP JUMPDEST PUSH0 DUP2 SWAP1 POP PUSH0 DUP2 PUSH20 0xFFFFFFFFFFFFFFFFFFFFFFFFFFFFFFFFFFFFFFFF AND PUSH4 0x70A08231 ADDRESS PUSH1 0x40 MLOAD DUP3 PUSH4 0xFFFFFFFF AND PUSH1 0xE0 SHL DUP2 MSTORE PUSH1 0x4 ADD PUSH2 0x1479 SWAP2 SWAP1 PUSH2 0x1CA2 JUMP JUMPDEST PUSH1 0x20 PUSH1 0x40 MLOAD DUP1 DUP4 SUB DUP2 DUP7 GAS STATICCALL ISZERO DUP1 ISZERO PUSH2 0x1494 JUMPI RETURNDATASIZE PUSH0 DUP1 RETURNDATACOPY RETURNDATASIZE PUSH0 REVERT JUMPDEST POP POP POP POP PUSH1 0x40 MLOAD RETURNDATASIZE PUSH1 0x1F NOT PUSH1 0x1F DUP3 ADD AND DUP3 ADD DUP1 PUSH1 0x40 MSTORE POP DUP2 ADD SWAP1 PUSH2 0x14B8 SWAP2 SWAP1 PUSH2 0x26F3 JUMP JUMPDEST SWAP1 POP PUSH0 PUSH1 0x1 DUP1 SLOAD SWAP1 POP DUP3 PUSH2 0x14CC SWAP2 SWAP1 PUSH2 0x2506 JUMP JUMPDEST SWAP1 POP PUSH0 JUMPDEST PUSH1 0x1 DUP1 SLOAD SWAP1 POP DUP2 LT ISZERO PUSH2 0x15A8 JUMPI DUP4 PUSH20 0xFFFFFFFFFFFFFFFFFFFFFFFFFFFFFFFFFFFFFFFF AND PUSH4 0xA9059CBB PUSH1 0x1 DUP4 DUP2 SLOAD DUP2 LT PUSH2 0x150D JUMPI PUSH2 0x150C PUSH2 0x2409 JUMP JUMPDEST JUMPDEST SWAP1 PUSH0 MSTORE PUSH1 0x20 PUSH0 KECCAK256 ADD PUSH0 SWAP1 SLOAD SWAP1 PUSH2 0x100 EXP SWAP1 DIV PUSH20 0xFFFFFFFFFFFFFFFFFFFFFFFFFFFFFFFFFFFFFFFF AND DUP5 PUSH1 0x40 MLOAD DUP4 PUSH4 0xFFFFFFFF AND PUSH1 0xE0 SHL DUP2 MSTORE PUSH1 0x4 ADD PUSH2 0x1553 SWAP3 SWAP2 SWAP1 PUSH2 0x271E JUMP JUMPDEST PUSH1 0x20 PUSH1 0x40 MLOAD DUP1 DUP4 SUB DUP2 PUSH0 DUP8 GAS CALL ISZERO DUP1 ISZERO PUSH2 0x156F JUMPI RETURNDATASIZE PUSH0 DUP1 RETURNDATACOPY RETURNDATASIZE PUSH0 REVERT JUMPDEST POP POP POP POP PUSH1 0x40 MLOAD RETURNDATASIZE PUSH1 0x1F NOT PUSH1 0x1F DUP3 ADD AND DUP3 ADD DUP1 PUSH1 0x40 MSTORE POP DUP2 ADD SWAP1 PUSH2 0x1593 SWAP2 SWAP1 PUSH2 0x276F JUMP JUMPDEST POP PUSH1 0x1 DUP2 PUSH2 0x15A1 SWAP2 SWAP1 PUSH2 0x2436 JUMP JUMPDEST SWAP1 POP PUSH2 0x14D0 JUMP JUMPDEST POP PUSH32 0x594548F29E804558D875FAEFFFF31D44739100E22878A2BEF637426D5F03A9E0 DUP6 DUP6 DUP5 PUSH1 0x40 MLOAD PUSH2 0x15DC SWAP4 SWAP3 SWAP2 SWAP1 PUSH2 0x27E4 JUMP JUMPDEST PUSH1 0x40 MLOAD DUP1 SWAP2 SUB SWAP1 LOG1 POP POP POP POP POP JUMP JUMPDEST PUSH0 DUP1 PUSH2 0x15F6 DUP4 PUSH2 0x1074 JUMP JUMPDEST SWAP1 POP PUSH0 DUP2 SUB PUSH2 0x1669 JUMPI PUSH1 0x1 DUP4 SWAP1 DUP1 PUSH1 0x1 DUP2 SLOAD ADD DUP1 DUP3 SSTORE DUP1 SWAP2 POP POP PUSH1 0x1 SWAP1 SUB SWAP1 PUSH0 MSTORE PUSH1 0x20 PUSH0 KECCAK256 ADD PUSH0 SWAP1 SWAP2 SWAP1 SWAP2 SWAP1 SWAP2 PUSH2 0x100 EXP DUP2 SLOAD DUP2 PUSH20 0xFFFFFFFFFFFFFFFFFFFFFFFFFFFFFFFFFFFFFFFF MUL NOT AND SWAP1 DUP4 PUSH20 0xFFFFFFFFFFFFFFFFFFFFFFFFFFFFFFFFFFFFFFFF AND MUL OR SWAP1 SSTORE POP PUSH1 0x1 SWAP2 POP POP PUSH2 0x166E JUMP JUMPDEST PUSH0 SWAP2 POP POP JUMPDEST SWAP2 SWAP1 POP JUMP JUMPDEST PUSH0 DUP1 PUSH2 0x167E DUP4 PUSH2 0x1074 JUMP JUMPDEST SWAP1 POP PUSH0 DUP2 SUB PUSH2 0x1690 JUMPI PUSH0 SWAP2 POP POP PUSH2 0x1774 JUMP JUMPDEST PUSH0 PUSH1 0x1 DUP1 DUP1 SLOAD SWAP1 POP PUSH2 0x16A2 SWAP2 SWAP1 PUSH2 0x2833 JUMP JUMPDEST SWAP1 POP PUSH1 0x1 DUP2 DUP2 SLOAD DUP2 LT PUSH2 0x16B8 JUMPI PUSH2 0x16B7 PUSH2 0x2409 JUMP JUMPDEST JUMPDEST SWAP1 PUSH0 MSTORE PUSH1 0x20 PUSH0 KECCAK256 ADD PUSH0 SWAP1 SLOAD SWAP1 PUSH2 0x100 EXP SWAP1 DIV PUSH20 0xFFFFFFFFFFFFFFFFFFFFFFFFFFFFFFFFFFFFFFFF AND PUSH20 0xFFFFFFFFFFFFFFFFFFFFFFFFFFFFFFFFFFFFFFFF AND PUSH1 0x1 DUP1 DUP5 PUSH2 0x1704 SWAP2 SWAP1 PUSH2 0x2833 JUMP JUMPDEST DUP2 SLOAD DUP2 LT PUSH2 0x1715 JUMPI PUSH2 0x1714 PUSH2 0x2409 JUMP JUMPDEST JUMPDEST SWAP1 PUSH0 MSTORE PUSH1 0x20 PUSH0 KECCAK256 ADD PUSH0 SWAP1 SLOAD SWAP1 PUSH2 0x100 EXP SWAP1 POP POP POP PUSH1 0x1 DUP1 SLOAD DUP1 PUSH2 0x173B JUMPI PUSH2 0x173A PUSH2 0x2866 JUMP JUMPDEST JUMPDEST PUSH1 0x1 SWAP1 SUB DUP2 DUP2 SWAP1 PUSH0 MSTORE PUSH1 0x20 PUSH0 KECCAK256 ADD PUSH0 PUSH2 0x100 EXP DUP2 SLOAD SWAP1 PUSH20 0xFFFFFFFFFFFFFFFFFFFFFFFFFFFFFFFFFFFFFFFF MUL NOT AND SWAP1 SSTORE SWAP1 SSTORE PUSH1 0x1 SWAP3 POP POP POP JUMPDEST SWAP2 SWAP1 POP JUMP JUMPDEST POP DUP1 SLOAD PUSH2 0x1785 SWAP1 PUSH2 0x1E92 JUMP JUMPDEST PUSH0 DUP3 SSTORE DUP1 PUSH1 0x1F LT PUSH2 0x1796 JUMPI POP PUSH2 0x17B3 JUMP JUMPDEST PUSH1 0x1F ADD PUSH1 0x20 SWAP1 DIV SWAP1 PUSH0 MSTORE PUSH1 0x20 PUSH0 KECCAK256 SWAP1 DUP2 ADD SWAP1 PUSH2 0x17B2 SWAP2 SWAP1 PUSH2 0x17B6 JUMP JUMPDEST JUMPDEST POP JUMP JUMPDEST JUMPDEST DUP1 DUP3 GT ISZERO PUSH2 0x17CD JUMPI PUSH0 DUP2 PUSH0 SWAP1 SSTORE POP PUSH1 0x1 ADD PUSH2 0x17B7 JUMP JUMPDEST POP SWAP1 JUMP JUMPDEST PUSH0 PUSH1 0x40 MLOAD SWAP1 POP SWAP1 JUMP JUMPDEST PUSH0 DUP1 REVERT JUMPDEST PUSH0 DUP1 REVERT JUMPDEST PUSH0 DUP1 REVERT JUMPDEST PUSH0 DUP1 REVERT JUMPDEST PUSH0 PUSH1 0x1F NOT PUSH1 0x1F DUP4 ADD AND SWAP1 POP SWAP2 SWAP1 POP JUMP JUMPDEST PUSH32 0x4E487B7100000000000000000000000000000000000000000000000000000000 PUSH0 MSTORE PUSH1 0x41 PUSH1 0x4 MSTORE PUSH1 0x24 PUSH0 REVERT JUMPDEST PUSH2 0x1830 DUP3 PUSH2 0x17EA JUMP JUMPDEST DUP2 ADD DUP2 DUP2 LT PUSH8 0xFFFFFFFFFFFFFFFF DUP3 GT OR ISZERO PUSH2 0x184F JUMPI PUSH2 0x184E PUSH2 0x17FA JUMP JUMPDEST JUMPDEST DUP1 PUSH1 0x40 MSTORE POP POP POP JUMP JUMPDEST PUSH0 PUSH2 0x1861 PUSH2 0x17D1 JUMP JUMPDEST SWAP1 POP PUSH2 0x186D DUP3 DUP3 PUSH2 0x1827 JUMP JUMPDEST SWAP2 SWAP1 POP JUMP JUMPDEST PUSH0 PUSH8 0xFFFFFFFFFFFFFFFF DUP3 GT ISZERO PUSH2 0x188C JUMPI PUSH2 0x188B PUSH2 0x17FA JUMP JUMPDEST JUMPDEST PUSH2 0x1895 DUP3 PUSH2 0x17EA JUMP JUMPDEST SWAP1 POP PUSH1 0x20 DUP2 ADD SWAP1 POP SWAP2 SWAP1 POP JUMP JUMPDEST DUP3 DUP2 DUP4 CALLDATACOPY PUSH0 DUP4 DUP4 ADD MSTORE POP POP POP JUMP JUMPDEST PUSH0 PUSH2 0x18C2 PUSH2 0x18BD DUP5 PUSH2 0x1872 JUMP JUMPDEST PUSH2 0x1858 JUMP JUMPDEST SWAP1 POP DUP3 DUP2 MSTORE PUSH1 0x20 DUP2 ADD DUP5 DUP5 DUP5 ADD GT ISZERO PUSH2 0x18DE JUMPI PUSH2 0x18DD PUSH2 0x17E6 JUMP JUMPDEST JUMPDEST PUSH2 0x18E9 DUP5 DUP3 DUP6 PUSH2 0x18A2 JUMP JUMPDEST POP SWAP4 SWAP3 POP POP POP JUMP JUMPDEST PUSH0 DUP3 PUSH1 0x1F DUP4 ADD SLT PUSH2 0x1905 JUMPI PUSH2 0x1904 PUSH2 0x17E2 JUMP JUMPDEST JUMPDEST DUP2 CALLDATALOAD PUSH2 0x1915 DUP5 DUP3 PUSH1 0x20 DUP7 ADD PUSH2 0x18B0 JUMP JUMPDEST SWAP2 POP POP SWAP3 SWAP2 POP POP JUMP JUMPDEST PUSH0 PUSH1 0x20 DUP3 DUP5 SUB SLT ISZERO PUSH2 0x1933 JUMPI PUSH2 0x1932 PUSH2 0x17DA JUMP JUMPDEST JUMPDEST PUSH0 DUP3 ADD CALLDATALOAD PUSH8 0xFFFFFFFFFFFFFFFF DUP2 GT ISZERO PUSH2 0x1950 JUMPI PUSH2 0x194F PUSH2 0x17DE JUMP JUMPDEST JUMPDEST PUSH2 0x195C DUP5 DUP3 DUP6 ADD PUSH2 0x18F1 JUMP JUMPDEST SWAP2 POP POP SWAP3 SWAP2 POP POP JUMP JUMPDEST PUSH32 0x4E487B7100000000000000000000000000000000000000000000000000000000 PUSH0 MSTORE PUSH1 0x21 PUSH1 0x4 MSTORE PUSH1 0x24 PUSH0 REVERT JUMPDEST PUSH1 0x5 DUP2 LT PUSH2 0x19A3 JUMPI PUSH2 0x19A2 PUSH2 0x1965 JUMP JUMPDEST JUMPDEST POP JUMP JUMPDEST PUSH0 DUP2 SWAP1 POP PUSH2 0x19B3 DUP3 PUSH2 0x1992 JUMP JUMPDEST SWAP2 SWAP1 POP JUMP JUMPDEST PUSH0 PUSH2 0x19C2 DUP3 PUSH2 0x19A6 JUMP JUMPDEST SWAP1 POP SWAP2 SWAP1 POP JUMP JUMPDEST PUSH2 0x19D2 DUP2 PUSH2 0x19B8 JUMP JUMPDEST DUP3 MSTORE POP POP JUMP JUMPDEST PUSH1 0x3 DUP2 LT PUSH2 0x19E9 JUMPI PUSH2 0x19E8 PUSH2 0x1965 JUMP JUMPDEST JUMPDEST POP JUMP JUMPDEST PUSH0 DUP2 SWAP1 POP PUSH2 0x19F9 DUP3 PUSH2 0x19D8 JUMP JUMPDEST SWAP2 SWAP1 POP JUMP JUMPDEST PUSH0 PUSH2 0x1A08 DUP3 PUSH2 0x19EC JUMP JUMPDEST SWAP1 POP SWAP2 SWAP1 POP JUMP JUMPDEST PUSH2 0x1A18 DUP2 PUSH2 0x19FE JUMP JUMPDEST DUP3 MSTORE POP POP JUMP JUMPDEST PUSH0 PUSH20 0xFFFFFFFFFFFFFFFFFFFFFFFFFFFFFFFFFFFFFFFF DUP3 AND SWAP1 POP SWAP2 SWAP1 POP JUMP JUMPDEST PUSH0 PUSH2 0x1A47 DUP3 PUSH2 0x1A1E JUMP JUMPDEST SWAP1 POP SWAP2 SWAP1 POP JUMP JUMPDEST PUSH2 0x1A57 DUP2 PUSH2 0x1A3D JUMP JUMPDEST DUP3 MSTORE POP POP JUMP JUMPDEST PUSH0 PUSH1 0xFF DUP3 AND SWAP1 POP SWAP2 SWAP1 POP JUMP JUMPDEST PUSH2 0x1A72 DUP2 PUSH2 0x1A5D JUMP JUMPDEST DUP3 MSTORE POP POP JUMP JUMPDEST PUSH0 PUSH1 0xE0 DUP3 ADD SWAP1 POP PUSH2 0x1A8B PUSH0 DUP4 ADD DUP11 PUSH2 0x19C9 JUMP JUMPDEST PUSH2 0x1A98 PUSH1 0x20 DUP4 ADD DUP10 PUSH2 0x1A0F JUMP JUMPDEST PUSH2 0x1AA5 PUSH1 0x40 DUP4 ADD DUP9 PUSH2 0x1A4E JUMP JUMPDEST PUSH2 0x1AB2 PUSH1 0x60 DUP4 ADD DUP8 PUSH2 0x1A69 JUMP JUMPDEST PUSH2 0x1ABF PUSH1 0x80 DUP4 ADD DUP7 PUSH2 0x1A69 JUMP JUMPDEST PUSH2 0x1ACC PUSH1 0xA0 DUP4 ADD DUP6 PUSH2 0x1A69 JUMP JUMPDEST PUSH2 0x1AD9 PUSH1 0xC0 DUP4 ADD DUP5 PUSH2 0x1A69 JUMP JUMPDEST SWAP9 SWAP8 POP POP POP POP POP POP POP POP JUMP JUMPDEST PUSH2 0x1AEE DUP2 PUSH2 0x1A3D JUMP JUMPDEST DUP2 EQ PUSH2 0x1AF8 JUMPI PUSH0 DUP1 REVERT JUMPDEST POP JUMP JUMPDEST PUSH0 DUP2 CALLDATALOAD SWAP1 POP PUSH2 0x1B09 DUP2 PUSH2 0x1AE5 JUMP JUMPDEST SWAP3 SWAP2 POP POP JUMP JUMPDEST PUSH0 DUP1 PUSH1 0x40 DUP4 DUP6 SUB SLT ISZERO PUSH2 0x1B25 JUMPI PUSH2 0x1B24 PUSH2 0x17DA JUMP JUMPDEST JUMPDEST PUSH0 DUP4 ADD CALLDATALOAD PUSH8 0xFFFFFFFFFFFFFFFF DUP2 GT ISZERO PUSH2 0x1B42 JUMPI PUSH2 0x1B41 PUSH2 0x17DE JUMP JUMPDEST JUMPDEST PUSH2 0x1B4E DUP6 DUP3 DUP7 ADD PUSH2 0x18F1 JUMP JUMPDEST SWAP3 POP POP PUSH1 0x20 PUSH2 0x1B5F DUP6 DUP3 DUP7 ADD PUSH2 0x1AFB JUMP JUMPDEST SWAP2 POP POP SWAP3 POP SWAP3 SWAP1 POP JUMP JUMPDEST PUSH0 DUP2 ISZERO ISZERO SWAP1 POP SWAP2 SWAP1 POP JUMP JUMPDEST PUSH2 0x1B7D DUP2 PUSH2 0x1B69 JUMP JUMPDEST DUP3 MSTORE POP POP JUMP JUMPDEST PUSH0 PUSH1 0x20 DUP3 ADD SWAP1 POP PUSH2 0x1B96 PUSH0 DUP4 ADD DUP5 PUSH2 0x1B74 JUMP JUMPDEST SWAP3 SWAP2 POP POP JUMP JUMPDEST PUSH0 PUSH1 0x20 DUP3 ADD SWAP1 POP PUSH2 0x1BAF PUSH0 DUP4 ADD DUP5 PUSH2 0x1A69 JUMP JUMPDEST SWAP3 SWAP2 POP POP JUMP JUMPDEST PUSH1 0x3 DUP2 LT PUSH2 0x1BC1 JUMPI PUSH0 DUP1 REVERT JUMPDEST POP JUMP JUMPDEST PUSH0 DUP2 CALLDATALOAD SWAP1 POP PUSH2 0x1BD2 DUP2 PUSH2 0x1BB5 JUMP JUMPDEST SWAP3 SWAP2 POP POP JUMP JUMPDEST PUSH0 DUP1 PUSH0 PUSH1 0x60 DUP5 DUP7 SUB SLT ISZERO PUSH2 0x1BEF JUMPI PUSH2 0x1BEE PUSH2 0x17DA JUMP JUMPDEST JUMPDEST PUSH0 DUP5 ADD CALLDATALOAD PUSH8 0xFFFFFFFFFFFFFFFF DUP2 GT ISZERO PUSH2 0x1C0C JUMPI PUSH2 0x1C0B PUSH2 0x17DE JUMP JUMPDEST JUMPDEST PUSH2 0x1C18 DUP7 DUP3 DUP8 ADD PUSH2 0x18F1 JUMP JUMPDEST SWAP4 POP POP PUSH1 0x20 PUSH2 0x1C29 DUP7 DUP3 DUP8 ADD PUSH2 0x1BC4 JUMP JUMPDEST SWAP3 POP POP PUSH1 0x40 PUSH2 0x1C3A DUP7 DUP3 DUP8 ADD PUSH2 0x1AFB JUMP JUMPDEST SWAP2 POP POP SWAP3 POP SWAP3 POP SWAP3 JUMP JUMPDEST PUSH0 DUP2 SWAP1 POP SWAP2 SWAP1 POP JUMP JUMPDEST PUSH2 0x1C56 DUP2 PUSH2 0x1C44 JUMP JUMPDEST DUP2 EQ PUSH2 0x1C60 JUMPI PUSH0 DUP1 REVERT JUMPDEST POP JUMP JUMPDEST PUSH0 DUP2 CALLDATALOAD SWAP1 POP PUSH2 0x1C71 DUP2 PUSH2 0x1C4D JUMP JUMPDEST SWAP3 SWAP2 POP POP JUMP JUMPDEST PUSH0 PUSH1 0x20 DUP3 DUP5 SUB SLT ISZERO PUSH2 0x1C8C JUMPI PUSH2 0x1C8B PUSH2 0x17DA JUMP JUMPDEST JUMPDEST PUSH0 PUSH2 0x1C99 DUP5 DUP3 DUP6 ADD PUSH2 0x1C63 JUMP JUMPDEST SWAP2 POP POP SWAP3 SWAP2 POP POP JUMP JUMPDEST PUSH0 PUSH1 0x20 DUP3 ADD SWAP1 POP PUSH2 0x1CB5 PUSH0 DUP4 ADD DUP5 PUSH2 0x1A4E JUMP JUMPDEST SWAP3 SWAP2 POP POP JUMP JUMPDEST PUSH0 PUSH1 0x20 DUP3 DUP5 SUB SLT ISZERO PUSH2 0x1CD0 JUMPI PUSH2 0x1CCF PUSH2 0x17DA JUMP JUMPDEST JUMPDEST PUSH0 PUSH2 0x1CDD DUP5 DUP3 DUP6 ADD PUSH2 0x1AFB JUMP JUMPDEST SWAP2 POP POP SWAP3 SWAP2 POP POP JUMP JUMPDEST PUSH0 DUP2 MLOAD SWAP1 POP SWAP2 SWAP1 POP JUMP JUMPDEST PUSH0 DUP3 DUP3 MSTORE PUSH1 0x20 DUP3 ADD SWAP1 POP SWAP3 SWAP2 POP POP JUMP JUMPDEST PUSH0 JUMPDEST DUP4 DUP2 LT ISZERO PUSH2 0x1D1D JUMPI DUP1 DUP3 ADD MLOAD DUP2 DUP5 ADD MSTORE PUSH1 0x20 DUP2 ADD SWAP1 POP PUSH2 0x1D02 JUMP JUMPDEST PUSH0 DUP5 DUP5 ADD MSTORE POP POP POP POP JUMP JUMPDEST PUSH0 PUSH2 0x1D32 DUP3 PUSH2 0x1CE6 JUMP JUMPDEST PUSH2 0x1D3C DUP2 DUP6 PUSH2 0x1CF0 JUMP JUMPDEST SWAP4 POP PUSH2 0x1D4C DUP2 DUP6 PUSH1 0x20 DUP7 ADD PUSH2 0x1D00 JUMP JUMPDEST PUSH2 0x1D55 DUP2 PUSH2 0x17EA JUMP JUMPDEST DUP5 ADD SWAP2 POP POP SWAP3 SWAP2 POP POP JUMP JUMPDEST PUSH0 PUSH1 0x20 DUP3 ADD SWAP1 POP DUP2 DUP2 SUB PUSH0 DUP4 ADD MSTORE PUSH2 0x1D78 DUP2 DUP5 PUSH2 0x1D28 JUMP JUMPDEST SWAP1 POP SWAP3 SWAP2 POP POP JUMP JUMPDEST PUSH1 0x3 DUP2 LT PUSH2 0x1D8C JUMPI PUSH0 DUP1 REVERT JUMPDEST POP JUMP JUMPDEST PUSH0 DUP2 CALLDATALOAD SWAP1 POP PUSH2 0x1D9D DUP2 PUSH2 0x1D80 JUMP JUMPDEST SWAP3 SWAP2 POP POP JUMP JUMPDEST PUSH0 DUP1 PUSH1 0x40 DUP4 DUP6 SUB SLT ISZERO PUSH2 0x1DB9 JUMPI PUSH2 0x1DB8 PUSH2 0x17DA JUMP JUMPDEST JUMPDEST PUSH0 DUP4 ADD CALLDATALOAD PUSH8 0xFFFFFFFFFFFFFFFF DUP2 GT ISZERO PUSH2 0x1DD6 JUMPI PUSH2 0x1DD5 PUSH2 0x17DE JUMP JUMPDEST JUMPDEST PUSH2 0x1DE2 DUP6 DUP3 DUP7 ADD PUSH2 0x18F1 JUMP JUMPDEST SWAP3 POP POP PUSH1 0x20 PUSH2 0x1DF3 DUP6 DUP3 DUP7 ADD PUSH2 0x1D8F JUMP JUMPDEST SWAP2 POP POP SWAP3 POP SWAP3 SWAP1 POP JUMP JUMPDEST PUSH32 0x4D656D626572206F6E6C792E0000000000000000000000000000000000000000 PUSH0 DUP3 ADD MSTORE POP JUMP JUMPDEST PUSH0 PUSH2 0x1E31 PUSH1 0xC DUP4 PUSH2 0x1CF0 JUMP JUMPDEST SWAP2 POP PUSH2 0x1E3C DUP3 PUSH2 0x1DFD JUMP JUMPDEST PUSH1 0x20 DUP3 ADD SWAP1 POP SWAP2 SWAP1 POP JUMP JUMPDEST PUSH0 PUSH1 0x20 DUP3 ADD SWAP1 POP DUP2 DUP2 SUB PUSH0 DUP4 ADD MSTORE PUSH2 0x1E5E DUP2 PUSH2 0x1E25 JUMP JUMPDEST SWAP1 POP SWAP2 SWAP1 POP JUMP JUMPDEST PUSH32 0x4E487B7100000000000000000000000000000000000000000000000000000000 PUSH0 MSTORE PUSH1 0x22 PUSH1 0x4 MSTORE PUSH1 0x24 PUSH0 REVERT JUMPDEST PUSH0 PUSH1 0x2 DUP3 DIV SWAP1 POP PUSH1 0x1 DUP3 AND DUP1 PUSH2 0x1EA9 JUMPI PUSH1 0x7F DUP3 AND SWAP2 POP JUMPDEST PUSH1 0x20 DUP3 LT DUP2 SUB PUSH2 0x1EBC JUMPI PUSH2 0x1EBB PUSH2 0x1E65 JUMP JUMPDEST JUMPDEST POP SWAP2 SWAP1 POP JUMP JUMPDEST PUSH0 DUP2 SWAP1 POP SWAP3 SWAP2 POP POP JUMP JUMPDEST PUSH0 DUP2 SWAP1 POP DUP2 PUSH0 MSTORE PUSH1 0x20 PUSH0 KECCAK256 SWAP1 POP SWAP2 SWAP1 POP JUMP JUMPDEST PUSH0 DUP2 SLOAD PUSH2 0x1EEA DUP2 PUSH2 0x1E92 JUMP JUMPDEST PUSH2 0x1EF4 DUP2 DUP7 PUSH2 0x1EC2 JUMP JUMPDEST SWAP5 POP PUSH1 0x1 DUP3 AND PUSH0 DUP2 EQ PUSH2 0x1F0E JUMPI PUSH1 0x1 DUP2 EQ PUSH2 0x1F23 JUMPI PUSH2 0x1F55 JUMP JUMPDEST PUSH1 0xFF NOT DUP4 AND DUP7 MSTORE DUP2 ISZERO ISZERO DUP3 MUL DUP7 ADD SWAP4 POP PUSH2 0x1F55 JUMP JUMPDEST PUSH2 0x1F2C DUP6 PUSH2 0x1ECC JUMP JUMPDEST PUSH0 JUMPDEST DUP4 DUP2 LT ISZERO PUSH2 0x1F4D JUMPI DUP2 SLOAD DUP2 DUP10 ADD MSTORE PUSH1 0x1 DUP3 ADD SWAP2 POP PUSH1 0x20 DUP2 ADD SWAP1 POP PUSH2 0x1F2E JUMP JUMPDEST DUP4 DUP9 ADD SWAP6 POP POP POP JUMPDEST POP POP POP SWAP3 SWAP2 POP POP JUMP JUMPDEST PUSH0 PUSH2 0x1F69 DUP3 DUP5 PUSH2 0x1EDE JUMP JUMPDEST SWAP2 POP DUP2 SWAP1 POP SWAP3 SWAP2 POP POP JUMP JUMPDEST PUSH32 0x50726F706F73616C2070656E64696E672E000000000000000000000000000000 PUSH0 DUP3 ADD MSTORE POP JUMP JUMPDEST PUSH0 PUSH2 0x1FA8 PUSH1 0x11 DUP4 PUSH2 0x1CF0 JUMP JUMPDEST SWAP2 POP PUSH2 0x1FB3 DUP3 PUSH2 0x1F74 JUMP JUMPDEST PUSH1 0x20 DUP3 ADD SWAP1 POP SWAP2 SWAP1 POP JUMP JUMPDEST PUSH0 PUSH1 0x20 DUP3 ADD SWAP1 POP DUP2 DUP2 SUB PUSH0 DUP4 ADD MSTORE PUSH2 0x1FD5 DUP2 PUSH2 0x1F9C JUMP JUMPDEST SWAP1 POP SWAP2 SWAP1 POP JUMP JUMPDEST PUSH0 PUSH2 0x1FE6 DUP3 PUSH2 0x1CE6 JUMP JUMPDEST PUSH2 0x1FF0 DUP2 DUP6 PUSH2 0x1EC2 JUMP JUMPDEST SWAP4 POP PUSH2 0x2000 DUP2 DUP6 PUSH1 0x20 DUP7 ADD PUSH2 0x1D00 JUMP JUMPDEST DUP1 DUP5 ADD SWAP2 POP POP SWAP3 SWAP2 POP POP JUMP JUMPDEST PUSH0 PUSH2 0x2017 DUP3 DUP5 PUSH2 0x1FDC JUMP JUMPDEST SWAP2 POP DUP2 SWAP1 POP SWAP3 SWAP2 POP POP JUMP JUMPDEST PUSH32 0x50726F706F73616C206578697374732E00000000000000000000000000000000 PUSH0 DUP3 ADD MSTORE POP JUMP JUMPDEST PUSH0 PUSH2 0x2056 PUSH1 0x10 DUP4 PUSH2 0x1CF0 JUMP JUMPDEST SWAP2 POP PUSH2 0x2061 DUP3 PUSH2 0x2022 JUMP JUMPDEST PUSH1 0x20 DUP3 ADD SWAP1 POP SWAP2 SWAP1 POP JUMP JUMPDEST PUSH0 PUSH1 0x20 DUP3 ADD SWAP1 POP DUP2 DUP2 SUB PUSH0 DUP4 ADD MSTORE PUSH2 0x2083 DUP2 PUSH2 0x204A JUMP JUMPDEST SWAP1 POP SWAP2 SWAP1 POP JUMP JUMPDEST PUSH0 PUSH1 0x20 PUSH1 0x1F DUP4 ADD DIV SWAP1 POP SWAP2 SWAP1 POP JUMP JUMPDEST PUSH0 DUP3 DUP3 SHL SWAP1 POP SWAP3 SWAP2 POP POP JUMP JUMPDEST PUSH0 PUSH1 0x8 DUP4 MUL PUSH2 0x20D4 PUSH32 0xFFFFFFFFFFFFFFFFFFFFFFFFFFFFFFFFFFFFFFFFFFFFFFFFFFFFFFFFFFFFFFFF DUP3 PUSH2 0x2099 JUMP JUMPDEST PUSH2 0x20DE DUP7 DUP4 PUSH2 0x2099 JUMP JUMPDEST SWAP6 POP DUP1 NOT DUP5 AND SWAP4 POP DUP1 DUP7 AND DUP5 OR SWAP3 POP POP POP SWAP4 SWAP3 POP POP POP JUMP JUMPDEST PUSH0 DUP2 SWAP1 POP SWAP2 SWAP1 POP JUMP JUMPDEST PUSH0 PUSH2 0x2119 PUSH2 0x2114 PUSH2 0x210F DUP5 PUSH2 0x1C44 JUMP JUMPDEST PUSH2 0x20F6 JUMP JUMPDEST PUSH2 0x1C44 JUMP JUMPDEST SWAP1 POP SWAP2 SWAP1 POP JUMP JUMPDEST PUSH0 DUP2 SWAP1 POP SWAP2 SWAP1 POP JUMP JUMPDEST PUSH2 0x2132 DUP4 PUSH2 0x20FF JUMP JUMPDEST PUSH2 0x2146 PUSH2 0x213E DUP3 PUSH2 0x2120 JUMP JUMPDEST DUP5 DUP5 SLOAD PUSH2 0x20A5 JUMP JUMPDEST DUP3 SSTORE POP POP POP POP JUMP JUMPDEST PUSH0 SWAP1 JUMP JUMPDEST PUSH2 0x215A PUSH2 0x214E JUMP JUMPDEST PUSH2 0x2165 DUP2 DUP5 DUP5 PUSH2 0x2129 JUMP JUMPDEST POP POP POP JUMP JUMPDEST JUMPDEST DUP2 DUP2 LT ISZERO PUSH2 0x2188 JUMPI PUSH2 0x217D PUSH0 DUP3 PUSH2 0x2152 JUMP JUMPDEST PUSH1 0x1 DUP2 ADD SWAP1 POP PUSH2 0x216B JUMP JUMPDEST POP POP JUMP JUMPDEST PUSH1 0x1F DUP3 GT ISZERO PUSH2 0x21CD JUMPI PUSH2 0x219E DUP2 PUSH2 0x1ECC JUMP JUMPDEST PUSH2 0x21A7 DUP5 PUSH2 0x208A JUMP JUMPDEST DUP2 ADD PUSH1 0x20 DUP6 LT ISZERO PUSH2 0x21B6 JUMPI DUP2 SWAP1 POP JUMPDEST PUSH2 0x21CA PUSH2 0x21C2 DUP6 PUSH2 0x208A JUMP JUMPDEST DUP4 ADD DUP3 PUSH2 0x216A JUMP JUMPDEST POP POP JUMPDEST POP POP POP JUMP JUMPDEST PUSH0 DUP3 DUP3 SHR SWAP1 POP SWAP3 SWAP2 POP POP JUMP JUMPDEST PUSH0 PUSH2 0x21ED PUSH0 NOT DUP5 PUSH1 0x8 MUL PUSH2 0x21D2 JUMP JUMPDEST NOT DUP1 DUP4 AND SWAP2 POP POP SWAP3 SWAP2 POP POP JUMP JUMPDEST PUSH0 PUSH2 0x2205 DUP4 DUP4 PUSH2 0x21DE JUMP JUMPDEST SWAP2 POP DUP3 PUSH1 0x2 MUL DUP3 OR SWAP1 POP SWAP3 SWAP2 POP POP JUMP JUMPDEST PUSH2 0x221E DUP3 PUSH2 0x1CE6 JUMP JUMPDEST PUSH8 0xFFFFFFFFFFFFFFFF DUP2 GT ISZERO PUSH2 0x2237 JUMPI PUSH2 0x2236 PUSH2 0x17FA JUMP JUMPDEST JUMPDEST PUSH2 0x2241 DUP3 SLOAD PUSH2 0x1E92 JUMP JUMPDEST PUSH2 0x224C DUP3 DUP3 DUP6 PUSH2 0x218C JUMP JUMPDEST PUSH0 PUSH1 0x20 SWAP1 POP PUSH1 0x1F DUP4 GT PUSH1 0x1 DUP2 EQ PUSH2 0x227D JUMPI PUSH0 DUP5 ISZERO PUSH2 0x226B JUMPI DUP3 DUP8 ADD MLOAD SWAP1 POP JUMPDEST PUSH2 0x2275 DUP6 DUP3 PUSH2 0x21FA JUMP JUMPDEST DUP7 SSTORE POP PUSH2 0x22DC JUMP JUMPDEST PUSH1 0x1F NOT DUP5 AND PUSH2 0x228B DUP7 PUSH2 0x1ECC JUMP JUMPDEST PUSH0 JUMPDEST DUP3 DUP2 LT ISZERO PUSH2 0x22B2 JUMPI DUP5 DUP10 ADD MLOAD DUP3 SSTORE PUSH1 0x1 DUP3 ADD SWAP2 POP PUSH1 0x20 DUP6 ADD SWAP5 POP PUSH1 0x20 DUP2 ADD SWAP1 POP PUSH2 0x228D JUMP JUMPDEST DUP7 DUP4 LT ISZERO PUSH2 0x22CF JUMPI DUP5 DUP10 ADD MLOAD PUSH2 0x22CB PUSH1 0x1F DUP10 AND DUP3 PUSH2 0x21DE JUMP JUMPDEST DUP4 SSTORE POP JUMPDEST PUSH1 0x1 PUSH1 0x2 DUP9 MUL ADD DUP9 SSTORE POP POP POP JUMPDEST POP POP POP POP POP POP JUMP JUMPDEST PUSH32 0x4E6F742070656E64696E672E0000000000000000000000000000000000000000 PUSH0 DUP3 ADD MSTORE POP JUMP JUMPDEST PUSH0 PUSH2 0x2318 PUSH1 0xC DUP4 PUSH2 0x1CF0 JUMP JUMPDEST SWAP2 POP PUSH2 0x2323 DUP3 PUSH2 0x22E4 JUMP JUMPDEST PUSH1 0x20 DUP3 ADD SWAP1 POP SWAP2 SWAP1 POP JUMP JUMPDEST PUSH0 PUSH1 0x20 DUP3 ADD SWAP1 POP DUP2 DUP2 SUB PUSH0 DUP4 ADD MSTORE PUSH2 0x2345 DUP2 PUSH2 0x230C JUMP JUMPDEST SWAP1 POP SWAP2 SWAP1 POP JUMP JUMPDEST PUSH32 0x496E76616C6964207374617475732E0000000000000000000000000000000000 PUSH0 DUP3 ADD MSTORE POP JUMP JUMPDEST PUSH0 PUSH2 0x2380 PUSH1 0xF DUP4 PUSH2 0x1CF0 JUMP JUMPDEST SWAP2 POP PUSH2 0x238B DUP3 PUSH2 0x234C JUMP JUMPDEST PUSH1 0x20 DUP3 ADD SWAP1 POP SWAP2 SWAP1 POP JUMP JUMPDEST PUSH0 PUSH1 0x20 DUP3 ADD SWAP1 POP DUP2 DUP2 SUB PUSH0 DUP4 ADD MSTORE PUSH2 0x23AD DUP2 PUSH2 0x2374 JUMP JUMPDEST SWAP1 POP SWAP2 SWAP1 POP JUMP JUMPDEST PUSH32 0x4E487B7100000000000000000000000000000000000000000000000000000000 PUSH0 MSTORE PUSH1 0x11 PUSH1 0x4 MSTORE PUSH1 0x24 PUSH0 REVERT JUMPDEST PUSH0 PUSH2 0x23EB DUP3 PUSH2 0x1A5D JUMP JUMPDEST SWAP2 POP PUSH1 0xFF DUP3 SUB PUSH2 0x23FE JUMPI PUSH2 0x23FD PUSH2 0x23B4 JUMP JUMPDEST JUMPDEST PUSH1 0x1 DUP3 ADD SWAP1 POP SWAP2 SWAP1 POP JUMP JUMPDEST PUSH32 0x4E487B7100000000000000000000000000000000000000000000000000000000 PUSH0 MSTORE PUSH1 0x32 PUSH1 0x4 MSTORE PUSH1 0x24 PUSH0 REVERT JUMPDEST PUSH0 PUSH2 0x2440 DUP3 PUSH2 0x1C44 JUMP JUMPDEST SWAP2 POP PUSH2 0x244B DUP4 PUSH2 0x1C44 JUMP JUMPDEST SWAP3 POP DUP3 DUP3 ADD SWAP1 POP DUP1 DUP3 GT ISZERO PUSH2 0x2463 JUMPI PUSH2 0x2462 PUSH2 0x23B4 JUMP JUMPDEST JUMPDEST SWAP3 SWAP2 POP POP JUMP JUMPDEST PUSH0 PUSH2 0x2473 DUP3 PUSH2 0x1A5D JUMP JUMPDEST SWAP2 POP PUSH2 0x247E DUP4 PUSH2 0x1A5D JUMP JUMPDEST SWAP3 POP DUP3 DUP3 SUB SWAP1 POP PUSH1 0xFF DUP2 GT ISZERO PUSH2 0x2497 JUMPI PUSH2 0x2496 PUSH2 0x23B4 JUMP JUMPDEST JUMPDEST SWAP3 SWAP2 POP POP JUMP JUMPDEST PUSH0 PUSH2 0x24A7 DUP3 PUSH2 0x1A5D JUMP JUMPDEST SWAP2 POP PUSH2 0x24B2 DUP4 PUSH2 0x1A5D JUMP JUMPDEST SWAP3 POP DUP3 DUP3 MUL PUSH2 0x24C0 DUP2 PUSH2 0x1A5D JUMP JUMPDEST SWAP2 POP DUP1 DUP3 EQ PUSH2 0x24D2 JUMPI PUSH2 0x24D1 PUSH2 0x23B4 JUMP JUMPDEST JUMPDEST POP SWAP3 SWAP2 POP POP JUMP JUMPDEST PUSH32 0x4E487B7100000000000000000000000000000000000000000000000000000000 PUSH0 MSTORE PUSH1 0x12 PUSH1 0x4 MSTORE PUSH1 0x24 PUSH0 REVERT JUMPDEST PUSH0 PUSH2 0x2510 DUP3 PUSH2 0x1C44 JUMP JUMPDEST SWAP2 POP PUSH2 0x251B DUP4 PUSH2 0x1C44 JUMP JUMPDEST SWAP3 POP DUP3 PUSH2 0x252B JUMPI PUSH2 0x252A PUSH2 0x24D9 JUMP JUMPDEST JUMPDEST DUP3 DUP3 DIV SWAP1 POP SWAP3 SWAP2 POP POP JUMP JUMPDEST PUSH32 0x4E6F2051756F72756D2E00000000000000000000000000000000000000000000 PUSH0 DUP3 ADD MSTORE POP JUMP JUMPDEST PUSH0 PUSH2 0x256A PUSH1 0xA DUP4 PUSH2 0x1CF0 JUMP JUMPDEST SWAP2 POP PUSH2 0x2575 DUP3 PUSH2 0x2536 JUMP JUMPDEST PUSH1 0x20 DUP3 ADD SWAP1 POP SWAP2 SWAP1 POP JUMP JUMPDEST PUSH0 PUSH1 0x20 DUP3 ADD SWAP1 POP DUP2 DUP2 SUB PUSH0 DUP4 ADD MSTORE PUSH2 0x2597 DUP2 PUSH2 0x255E JUMP JUMPDEST SWAP1 POP SWAP2 SWAP1 POP JUMP JUMPDEST PUSH32 0x6D656D6265725F61646400000000000000000000000000000000000000000000 PUSH0 DUP3 ADD MSTORE POP JUMP JUMPDEST PUSH0 PUSH2 0x25D2 PUSH1 0xA DUP4 PUSH2 0x1CF0 JUMP JUMPDEST SWAP2 POP PUSH2 0x25DD DUP3 PUSH2 0x259E JUMP JUMPDEST PUSH1 0x20 DUP3 ADD SWAP1 POP SWAP2 SWAP1 POP JUMP JUMPDEST PUSH2 0x25F1 DUP2 PUSH2 0x1C44 JUMP JUMPDEST DUP3 MSTORE POP POP JUMP JUMPDEST PUSH0 PUSH1 0x80 DUP3 ADD SWAP1 POP DUP2 DUP2 SUB PUSH0 DUP4 ADD MSTORE PUSH2 0x260E DUP2 PUSH2 0x25C6 JUMP JUMPDEST SWAP1 POP DUP2 DUP2 SUB PUSH1 0x20 DUP4 ADD MSTORE PUSH2 0x2622 DUP2 DUP7 PUSH2 0x1D28 JUMP JUMPDEST SWAP1 POP PUSH2 0x2631 PUSH1 0x40 DUP4 ADD DUP6 PUSH2 0x1A4E JUMP JUMPDEST PUSH2 0x263E PUSH1 0x60 DUP4 ADD DUP5 PUSH2 0x25E8 JUMP JUMPDEST SWAP5 SWAP4 POP POP POP POP JUMP JUMPDEST PUSH32 0x6D656D6265725F72656D6F766500000000000000000000000000000000000000 PUSH0 DUP3 ADD MSTORE POP JUMP JUMPDEST PUSH0 PUSH2 0x267A PUSH1 0xD DUP4 PUSH2 0x1CF0 JUMP JUMPDEST SWAP2 POP PUSH2 0x2685 DUP3 PUSH2 0x2646 JUMP JUMPDEST PUSH1 0x20 DUP3 ADD SWAP1 POP SWAP2 SWAP1 POP JUMP JUMPDEST PUSH0 PUSH1 0x80 DUP3 ADD SWAP1 POP DUP2 DUP2 SUB PUSH0 DUP4 ADD MSTORE PUSH2 0x26A7 DUP2 PUSH2 0x266E JUMP JUMPDEST SWAP1 POP DUP2 DUP2 SUB PUSH1 0x20 DUP4 ADD MSTORE PUSH2 0x26BB DUP2 DUP7 PUSH2 0x1D28 JUMP JUMPDEST SWAP1 POP PUSH2 0x26CA PUSH1 0x40 DUP4 ADD DUP6 PUSH2 0x1A4E JUMP JUMPDEST PUSH2 0x26D7 PUSH1 0x60 DUP4 ADD DUP5 PUSH2 0x25E8 JUMP JUMPDEST SWAP5 SWAP4 POP POP POP POP JUMP JUMPDEST PUSH0 DUP2 MLOAD SWAP1 POP PUSH2 0x26ED DUP2 PUSH2 0x1C4D JUMP JUMPDEST SWAP3 SWAP2 POP POP JUMP JUMPDEST PUSH0 PUSH1 0x20 DUP3 DUP5 SUB SLT ISZERO PUSH2 0x2708 JUMPI PUSH2 0x2707 PUSH2 0x17DA JUMP JUMPDEST JUMPDEST PUSH0 PUSH2 0x2715 DUP5 DUP3 DUP6 ADD PUSH2 0x26DF JUMP JUMPDEST SWAP2 POP POP SWAP3 SWAP2 POP POP JUMP JUMPDEST PUSH0 PUSH1 0x40 DUP3 ADD SWAP1 POP PUSH2 0x2731 PUSH0 DUP4 ADD DUP6 PUSH2 0x1A4E JUMP JUMPDEST PUSH2 0x273E PUSH1 0x20 DUP4 ADD DUP5 PUSH2 0x25E8 JUMP JUMPDEST SWAP4 SWAP3 POP POP POP JUMP JUMPDEST PUSH2 0x274E DUP2 PUSH2 0x1B69 JUMP JUMPDEST DUP2 EQ PUSH2 0x2758 JUMPI PUSH0 DUP1 REVERT JUMPDEST POP JUMP JUMPDEST PUSH0 DUP2 MLOAD SWAP1 POP PUSH2 0x2769 DUP2 PUSH2 0x2745 JUMP JUMPDEST SWAP3 SWAP2 POP POP JUMP JUMPDEST PUSH0 PUSH1 0x20 DUP3 DUP5 SUB SLT ISZERO PUSH2 0x2784 JUMPI PUSH2 0x2783 PUSH2 0x17DA JUMP JUMPDEST JUMPDEST PUSH0 PUSH2 0x2791 DUP5 DUP3 DUP6 ADD PUSH2 0x275B JUMP JUMPDEST SWAP2 POP POP SWAP3 SWAP2 POP POP JUMP JUMPDEST PUSH32 0x6D656D6265725F74616B655F70726F6669740000000000000000000000000000 PUSH0 DUP3 ADD MSTORE POP JUMP JUMPDEST PUSH0 PUSH2 0x27CE PUSH1 0x12 DUP4 PUSH2 0x1CF0 JUMP JUMPDEST SWAP2 POP PUSH2 0x27D9 DUP3 PUSH2 0x279A JUMP JUMPDEST PUSH1 0x20 DUP3 ADD SWAP1 POP SWAP2 SWAP1 POP JUMP JUMPDEST PUSH0 PUSH1 0x80 DUP3 ADD SWAP1 POP DUP2 DUP2 SUB PUSH0 DUP4 ADD MSTORE PUSH2 0x27FB DUP2 PUSH2 0x27C2 JUMP JUMPDEST SWAP1 POP DUP2 DUP2 SUB PUSH1 0x20 DUP4 ADD MSTORE PUSH2 0x280F DUP2 DUP7 PUSH2 0x1D28 JUMP JUMPDEST SWAP1 POP PUSH2 0x281E PUSH1 0x40 DUP4 ADD DUP6 PUSH2 0x1A4E JUMP JUMPDEST PUSH2 0x282B PUSH1 0x60 DUP4 ADD DUP5 PUSH2 0x25E8 JUMP JUMPDEST SWAP5 SWAP4 POP POP POP POP JUMP JUMPDEST PUSH0 PUSH2 0x283D DUP3 PUSH2 0x1C44 JUMP JUMPDEST SWAP2 POP PUSH2 0x2848 DUP4 PUSH2 0x1C44 JUMP JUMPDEST SWAP3 POP DUP3 DUP3 SUB SWAP1 POP DUP2 DUP2 GT ISZERO PUSH2 0x2860 JUMPI PUSH2 0x285F PUSH2 0x23B4 JUMP JUMPDEST JUMPDEST SWAP3 SWAP2 POP POP JUMP JUMPDEST PUSH32 0x4E487B7100000000000000000000000000000000000000000000000000000000 PUSH0 MSTORE PUSH1 0x31 PUSH1 0x4 MSTORE PUSH1 0x24 PUSH0 REVERT INVALID LOG2 PUSH5 0x6970667358 0x22 SLT KECCAK256 0xF6 DUP7 0xC0 0xC3 0xB9 0xBC SWAP6 SWAP8 CALLDATACOPY 0x1F SWAP12 SWAP4 0xB6 PUSH2 0xBF5F 0xBB 0xE0 0xE0 PUSH5 0xF836E31C31 0xB9 SWAP2 0x4D 0xD5 PUSH30 0x524C64736F6C634300081400330000000000000000000000000000000000 "
    },
    "methodIdentifiers": {
      "member__proposal_process(string)": "e0051f89",
      "member__proposal_create(string,uint8,address)": "bcfa9f9c",
      "g__MemberQuorum()": "bcd960a3",
      "g__ProposalActive(address)": "e5e2c957",
      "g__ProposalLookup(string)": "63a87c29",
      "g__MemberArray(uint256)": "c0b41c6e",
      "member__proposal_vote(string,uint8)": "f4cbf42e",
      "member__proposal_cancel(string)": "ce6d0137",
      "g__ProposalVoting(string,address)": "97dbf3f1"
    },
    "gasEstimates": {
      "internal": {
        "ut__get_quorum(string memory)": "infinite",
        "ut__get_index(address)": "infinite",
        "action__member_remove(string memory,address)": "infinite",
        "action__member_add(string memory,address)": "infinite",
        "ut__get_remove(address)": "infinite",
        "ut__get_add(address)": "infinite",
        "action__member_take_profit(string memory,address)": "infinite"
      },
      "creation": {
        "executionCost": "infinite",
        "codeDepositCost": "2088200",
        "totalCost": "infinite"
      },
      "external": {
        "member__proposal_process(string)": "infinite",
        "member__proposal_create(string,uint8,address)": "infinite",
        "g__MemberQuorum()": "2508",
        "g__ProposalActive(address)": "infinite",
        "g__ProposalLookup(string)": "infinite",
        "g__MemberArray(uint256)": "4944",
        "member__proposal_vote(string,uint8)": "infinite",
        "member__proposal_cancel(string)": "infinite",
        "g__ProposalVoting(string,address)": "infinite"
      }
    },
    "assembly": "    /* \"temp.sol\":223:6412  contract StatstradeCouncil {... */\n  mstore(0x40, 0x80)\n    /* \"temp.sol\":1010:1108  constructor(uint8 quorum) {... */\n  callvalue\n  dup1\n  iszero\n  tag_1\n  jumpi\n  0x00\n  dup1\n  revert\ntag_1:\n  pop\n  mload(0x40)\n  sub(codesize, bytecodeSize)\n  dup1\n  bytecodeSize\n  dup4\n  codecopy\n  dup2\n  dup2\n  add\n  0x40\n  mstore\n  dup2\n  add\n  swap1\n  tag_2\n  swap2\n  swap1\n  tag_3\n  jump\t// in\ntag_2:\n    /* \"temp.sol\":1042:1056  g__MemberArray */\n  0x01\n    /* \"temp.sol\":1062:1072  msg.sender */\n  caller\n    /* \"temp.sol\":1042:1073  g__MemberArray.push(msg.sender) */\n  swap1\n  dup1\n  0x01\n  dup2\n  sload\n  add\n  dup1\n  dup3\n  sstore\n  dup1\n  swap2\n  pop\n  pop\n  0x01\n  swap1\n  sub\n  swap1\n  0x00\n  mstore\n  keccak256(0x00, 0x20)\n  add\n  0x00\n  swap1\n  swap2\n  swap1\n  swap2\n  swap1\n  swap2\n  0x0100\n  exp\n  dup2\n  sload\n  dup2\n  0xffffffffffffffffffffffffffffffffffffffff\n  mul\n  not\n  and\n  swap1\n  dup4\n  0xffffffffffffffffffffffffffffffffffffffff\n  and\n  mul\n  or\n  swap1\n  sstore\n  pop\n    /* \"temp.sol\":1097:1103  quorum */\n  dup1\n    /* \"temp.sol\":1079:1094  g__MemberQuorum */\n  0x00\n  dup1\n    /* \"temp.sol\":1079:1103  g__MemberQuorum = quorum */\n  0x0100\n  exp\n  dup2\n  sload\n  dup2\n  0xff\n  mul\n  not\n  and\n  swap1\n  dup4\n  0xff\n  and\n  mul\n  or\n  swap1\n  sstore\n  pop\n    /* \"temp.sol\":1010:1108  constructor(uint8 quorum) {... */\n  pop\n    /* \"temp.sol\":223:6412  contract StatstradeCouncil {... */\n  jump(tag_7)\n    /* \"#utility.yul\":88:205   */\ntag_9:\n    /* \"#utility.yul\":197:198   */\n  0x00\n    /* \"#utility.yul\":194:195   */\n  dup1\n    /* \"#utility.yul\":187:199   */\n  revert\n    /* \"#utility.yul\":334:420   */\ntag_11:\n    /* \"#utility.yul\":369:376   */\n  0x00\n    /* \"#utility.yul\":409:413   */\n  0xff\n    /* \"#utility.yul\":402:407   */\n  dup3\n    /* \"#utility.yul\":398:414   */\n  and\n    /* \"#utility.yul\":387:414   */\n  swap1\n  pop\n    /* \"#utility.yul\":334:420   */\n  swap2\n  swap1\n  pop\n  jump\t// out\n    /* \"#utility.yul\":426:544   */\ntag_12:\n    /* \"#utility.yul\":497:519   */\n  tag_20\n    /* \"#utility.yul\":513:518   */\n  dup2\n    /* \"#utility.yul\":497:519   */\n  tag_11\n  jump\t// in\ntag_20:\n    /* \"#utility.yul\":490:495   */\n  dup2\n    /* \"#utility.yul\":487:520   */\n  eq\n    /* \"#utility.yul\":477:538   */\n  tag_21\n  jumpi\n    /* \"#utility.yul\":534:535   */\n  0x00\n    /* \"#utility.yul\":531:532   */\n  dup1\n    /* \"#utility.yul\":524:536   */\n  revert\n    /* \"#utility.yul\":477:538   */\ntag_21:\n    /* \"#utility.yul\":426:544   */\n  pop\n  jump\t// out\n    /* \"#utility.yul\":550:689   */\ntag_13:\n    /* \"#utility.yul\":605:610   */\n  0x00\n    /* \"#utility.yul\":636:642   */\n  dup2\n    /* \"#utility.yul\":630:643   */\n  mload\n    /* \"#utility.yul\":621:643   */\n  swap1\n  pop\n    /* \"#utility.yul\":652:683   */\n  tag_23\n    /* \"#utility.yul\":677:682   */\n  dup2\n    /* \"#utility.yul\":652:683   */\n  tag_12\n  jump\t// in\ntag_23:\n    /* \"#utility.yul\":550:689   */\n  swap3\n  swap2\n  pop\n  pop\n  jump\t// out\n    /* \"#utility.yul\":695:1042   */\ntag_3:\n    /* \"#utility.yul\":763:769   */\n  0x00\n    /* \"#utility.yul\":812:814   */\n  0x20\n    /* \"#utility.yul\":800:809   */\n  dup3\n    /* \"#utility.yul\":791:798   */\n  dup5\n    /* \"#utility.yul\":787:810   */\n  sub\n    /* \"#utility.yul\":783:815   */\n  slt\n    /* \"#utility.yul\":780:899   */\n  iszero\n  tag_25\n  jumpi\n    /* \"#utility.yul\":818:897   */\n  tag_26\n  tag_9\n  jump\t// in\ntag_26:\n    /* \"#utility.yul\":780:899   */\ntag_25:\n    /* \"#utility.yul\":938:939   */\n  0x00\n    /* \"#utility.yul\":963:1025   */\n  tag_27\n    /* \"#utility.yul\":1017:1024   */\n  dup5\n    /* \"#utility.yul\":1008:1014   */\n  dup3\n    /* \"#utility.yul\":997:1006   */\n  dup6\n    /* \"#utility.yul\":993:1015   */\n  add\n    /* \"#utility.yul\":963:1025   */\n  tag_13\n  jump\t// in\ntag_27:\n    /* \"#utility.yul\":953:1025   */\n  swap2\n  pop\n    /* \"#utility.yul\":909:1035   */\n  pop\n    /* \"#utility.yul\":695:1042   */\n  swap3\n  swap2\n  pop\n  pop\n  jump\t// out\n    /* \"temp.sol\":223:6412  contract StatstradeCouncil {... */\ntag_7:\n  dataSize(sub_0)\n  dup1\n  dataOffset(sub_0)\n  0x00\n  codecopy\n  0x00\n  return\nstop\n\nsub_0: assembly {\n        /* \"temp.sol\":223:6412  contract StatstradeCouncil {... */\n      mstore(0x40, 0x80)\n      callvalue\n      dup1\n      iszero\n      tag_1\n      jumpi\n      0x00\n      dup1\n      revert\n    tag_1:\n      pop\n      jumpi(tag_2, lt(calldatasize, 0x04))\n      shr(0xe0, calldataload(0x00))\n      dup1\n      0xc0b41c6e\n      gt\n      tag_12\n      jumpi\n      dup1\n      0xc0b41c6e\n      eq\n      tag_7\n      jumpi\n      dup1\n      0xce6d0137\n      eq\n      tag_8\n      jumpi\n      dup1\n      0xe0051f89\n      eq\n      tag_9\n      jumpi\n      dup1\n      0xe5e2c957\n      eq\n      tag_10\n      jumpi\n      dup1\n      0xf4cbf42e\n      eq\n      tag_11\n      jumpi\n      jump(tag_2)\n    tag_12:\n      dup1\n      0x63a87c29\n      eq\n      tag_3\n      jumpi\n      dup1\n      0x97dbf3f1\n      eq\n      tag_4\n      jumpi\n      dup1\n      0xbcd960a3\n      eq\n      tag_5\n      jumpi\n      dup1\n      0xbcfa9f9c\n      eq\n      tag_6\n      jumpi\n    tag_2:\n      0x00\n      dup1\n      revert\n        /* \"temp.sol\":777:829  mapping(string => Proposal) public g__ProposalLookup */\n    tag_3:\n      tag_13\n      0x04\n      dup1\n      calldatasize\n      sub\n      dup2\n      add\n      swap1\n      tag_14\n      swap2\n      swap1\n      tag_15\n      jump\t// in\n    tag_14:\n      tag_16\n      jump\t// in\n    tag_13:\n      mload(0x40)\n      tag_17\n      swap8\n      swap7\n      swap6\n      swap5\n      swap4\n      swap3\n      swap2\n      swap1\n      tag_18\n      jump\t// in\n    tag_17:\n      mload(0x40)\n      dup1\n      swap2\n      sub\n      swap1\n      return\n        /* \"temp.sol\":836:904  mapping(string => mapping(address => bool)) public g__ProposalVoting */\n    tag_4:\n      tag_19\n      0x04\n      dup1\n      calldatasize\n      sub\n      dup2\n      add\n      swap1\n      tag_20\n      swap2\n      swap1\n      tag_21\n      jump\t// in\n    tag_20:\n      tag_22\n      jump\t// in\n    tag_19:\n      mload(0x40)\n      tag_23\n      swap2\n      swap1\n      tag_24\n      jump\t// in\n    tag_23:\n      mload(0x40)\n      dup1\n      swap2\n      sub\n      swap1\n      return\n        /* \"temp.sol\":645:673  uint8 public g__MemberQuorum */\n    tag_5:\n      tag_25\n      tag_26\n      jump\t// in\n    tag_25:\n      mload(0x40)\n      tag_27\n      swap2\n      swap1\n      tag_28\n      jump\t// in\n    tag_27:\n      mload(0x40)\n      dup1\n      swap2\n      sub\n      swap1\n      return\n        /* \"temp.sol\":3390:4226  function member__proposal_create(string memory proposal_id,ProposalType proposal_type,address value) external {... */\n    tag_6:\n      tag_29\n      0x04\n      dup1\n      calldatasize\n      sub\n      dup2\n      add\n      swap1\n      tag_30\n      swap2\n      swap1\n      tag_31\n      jump\t// in\n    tag_30:\n      tag_32\n      jump\t// in\n    tag_29:\n      stop\n        /* \"temp.sol\":680:712  address [] public g__MemberArray */\n    tag_7:\n      tag_33\n      0x04\n      dup1\n      calldatasize\n      sub\n      dup2\n      add\n      swap1\n      tag_34\n      swap2\n      swap1\n      tag_35\n      jump\t// in\n    tag_34:\n      tag_36\n      jump\t// in\n    tag_33:\n      mload(0x40)\n      tag_37\n      swap2\n      swap1\n      tag_38\n      jump\t// in\n    tag_37:\n      mload(0x40)\n      dup1\n      swap2\n      sub\n      swap1\n      return\n        /* \"temp.sol\":4914:5345  function member__proposal_cancel(string memory proposal_id) external {... */\n    tag_8:\n      tag_39\n      0x04\n      dup1\n      calldatasize\n      sub\n      dup2\n      add\n      swap1\n      tag_40\n      swap2\n      swap1\n      tag_15\n      jump\t// in\n    tag_40:\n      tag_41\n      jump\t// in\n    tag_39:\n      stop\n        /* \"temp.sol\":5351:6410  function member__proposal_process(string memory proposal_id) external {... */\n    tag_9:\n      tag_42\n      0x04\n      dup1\n      calldatasize\n      sub\n      dup2\n      add\n      swap1\n      tag_43\n      swap2\n      swap1\n      tag_15\n      jump\t// in\n    tag_43:\n      tag_44\n      jump\t// in\n    tag_42:\n      stop\n        /* \"temp.sol\":719:770  mapping(address => string) public g__ProposalActive */\n    tag_10:\n      tag_45\n      0x04\n      dup1\n      calldatasize\n      sub\n      dup2\n      add\n      swap1\n      tag_46\n      swap2\n      swap1\n      tag_47\n      jump\t// in\n    tag_46:\n      tag_48\n      jump\t// in\n    tag_45:\n      mload(0x40)\n      tag_49\n      swap2\n      swap1\n      tag_50\n      jump\t// in\n    tag_49:\n      mload(0x40)\n      dup1\n      swap2\n      sub\n      swap1\n      return\n        /* \"temp.sol\":4232:4908  function member__proposal_vote(string memory proposal_id,VoteType vote_type) external {... */\n    tag_11:\n      tag_51\n      0x04\n      dup1\n      calldatasize\n      sub\n      dup2\n      add\n      swap1\n      tag_52\n      swap2\n      swap1\n      tag_53\n      jump\t// in\n    tag_52:\n      tag_54\n      jump\t// in\n    tag_51:\n      stop\n        /* \"temp.sol\":777:829  mapping(string => Proposal) public g__ProposalLookup */\n    tag_16:\n      0x03\n      dup2\n      dup1\n      mload\n      0x20\n      dup2\n      add\n      dup3\n      add\n      dup1\n      mload\n      dup5\n      dup3\n      mstore\n      0x20\n      dup4\n      add\n      0x20\n      dup6\n      add\n      keccak256\n      dup2\n      dup4\n      mstore\n      dup1\n      swap6\n      pop\n      pop\n      pop\n      pop\n      pop\n      pop\n      0x00\n      swap2\n      pop\n      swap1\n      pop\n      dup1\n      0x00\n      add\n      0x00\n      swap1\n      sload\n      swap1\n      0x0100\n      exp\n      swap1\n      div\n      0xff\n      and\n      swap1\n      dup1\n      0x00\n      add\n      0x01\n      swap1\n      sload\n      swap1\n      0x0100\n      exp\n      swap1\n      div\n      0xff\n      and\n      swap1\n      dup1\n      0x00\n      add\n      0x02\n      swap1\n      sload\n      swap1\n      0x0100\n      exp\n      swap1\n      div\n      0xffffffffffffffffffffffffffffffffffffffff\n      and\n      swap1\n      dup1\n      0x00\n      add\n      0x16\n      swap1\n      sload\n      swap1\n      0x0100\n      exp\n      swap1\n      div\n      0xff\n      and\n      swap1\n      dup1\n      0x00\n      add\n      0x17\n      swap1\n      sload\n      swap1\n      0x0100\n      exp\n      swap1\n      div\n      0xff\n      and\n      swap1\n      dup1\n      0x00\n      add\n      0x18\n      swap1\n      sload\n      swap1\n      0x0100\n      exp\n      swap1\n      div\n      0xff\n      and\n      swap1\n      dup1\n      0x00\n      add\n      0x19\n      swap1\n      sload\n      swap1\n      0x0100\n      exp\n      swap1\n      div\n      0xff\n      and\n      swap1\n      pop\n      dup8\n      jump\t// out\n        /* \"temp.sol\":836:904  mapping(string => mapping(address => bool)) public g__ProposalVoting */\n    tag_22:\n      0x04\n      dup3\n      dup1\n      mload\n      0x20\n      dup2\n      add\n      dup3\n      add\n      dup1\n      mload\n      dup5\n      dup3\n      mstore\n      0x20\n      dup4\n      add\n      0x20\n      dup6\n      add\n      keccak256\n      dup2\n      dup4\n      mstore\n      dup1\n      swap6\n      pop\n      pop\n      pop\n      pop\n      pop\n      pop\n      0x20\n      mstore\n      dup1\n      0x00\n      mstore\n      keccak256(0x00, 0x40)\n      0x00\n      swap2\n      pop\n      swap2\n      pop\n      swap1\n      sload\n      swap1\n      0x0100\n      exp\n      swap1\n      div\n      0xff\n      and\n      dup2\n      jump\t// out\n        /* \"temp.sol\":645:673  uint8 public g__MemberQuorum */\n    tag_26:\n      0x00\n      dup1\n      sload\n      swap1\n      0x0100\n      exp\n      swap1\n      div\n      0xff\n      and\n      dup2\n      jump\t// out\n        /* \"temp.sol\":3390:4226  function member__proposal_create(string memory proposal_id,ProposalType proposal_type,address value) external {... */\n    tag_32:\n        /* \"temp.sol\":3518:3543  ut__get_index(msg.sender) */\n      tag_56\n        /* \"temp.sol\":3532:3542  msg.sender */\n      caller\n        /* \"temp.sol\":3518:3531  ut__get_index */\n      tag_57\n        /* \"temp.sol\":3518:3543  ut__get_index(msg.sender) */\n      jump\t// in\n    tag_56:\n        /* \"temp.sol\":3514:3515  0 */\n      0x00\n        /* \"temp.sol\":3514:3543  0 < ut__get_index(msg.sender) */\n      lt\n        /* \"temp.sol\":3506:3559  require(0 < ut__get_index(msg.sender),\"Member only.\") */\n      tag_58\n      jumpi\n      mload(0x40)\n      0x08c379a000000000000000000000000000000000000000000000000000000000\n      dup2\n      mstore\n      0x04\n      add\n      tag_59\n      swap1\n      tag_60\n      jump\t// in\n    tag_59:\n      mload(0x40)\n      dup1\n      swap2\n      sub\n      swap1\n      revert\n    tag_58:\n        /* \"temp.sol\":3606:3623  g__ProposalLookup */\n      0x03\n        /* \"temp.sol\":3624:3641  g__ProposalActive */\n      0x02\n        /* \"temp.sol\":3624:3653  g__ProposalActive[msg.sender] */\n      0x00\n        /* \"temp.sol\":3642:3652  msg.sender */\n      caller\n        /* \"temp.sol\":3624:3653  g__ProposalActive[msg.sender] */\n      0xffffffffffffffffffffffffffffffffffffffff\n      and\n      0xffffffffffffffffffffffffffffffffffffffff\n      and\n      dup2\n      mstore\n      0x20\n      add\n      swap1\n      dup2\n      mstore\n      0x20\n      add\n      0x00\n      keccak256\n        /* \"temp.sol\":3606:3654  g__ProposalLookup[g__ProposalActive[msg.sender]] */\n      mload(0x40)\n      tag_61\n      swap2\n      swap1\n      tag_62\n      jump\t// in\n    tag_61:\n      swap1\n      dup2\n      mstore\n      0x20\n      add\n      mload(0x40)\n      dup1\n      swap2\n      sub\n      swap1\n      keccak256\n        /* \"temp.sol\":3606:3661  g__ProposalLookup[g__ProposalActive[msg.sender]].status */\n      0x00\n      add\n      0x00\n      swap1\n      sload\n      swap1\n      0x0100\n      exp\n      swap1\n      div\n      0xff\n      and\n        /* \"temp.sol\":3580:3661  ProposalStatus.Pending != g__ProposalLookup[g__ProposalActive[msg.sender]].status */\n      0x04\n      dup2\n      gt\n      iszero\n      tag_63\n      jumpi\n      tag_64\n      tag_65\n      jump\t// in\n    tag_64:\n    tag_63:\n        /* \"temp.sol\":3580:3602  ProposalStatus.Pending */\n      0x01\n        /* \"temp.sol\":3580:3661  ProposalStatus.Pending != g__ProposalLookup[g__ProposalActive[msg.sender]].status */\n      0x04\n      dup2\n      gt\n      iszero\n      tag_66\n      jumpi\n      tag_67\n      tag_65\n      jump\t// in\n    tag_67:\n    tag_66:\n      sub\n        /* \"temp.sol\":3565:3694  require(... */\n      tag_68\n      jumpi\n      mload(0x40)\n      0x08c379a000000000000000000000000000000000000000000000000000000000\n      dup2\n      mstore\n      0x04\n      add\n      tag_69\n      swap1\n      tag_70\n      jump\t// in\n    tag_69:\n      mload(0x40)\n      dup1\n      swap2\n      sub\n      swap1\n      revert\n    tag_68:\n        /* \"temp.sol\":3743:3760  g__ProposalLookup */\n      0x03\n        /* \"temp.sol\":3761:3772  proposal_id */\n      dup4\n        /* \"temp.sol\":3743:3773  g__ProposalLookup[proposal_id] */\n      mload(0x40)\n      tag_71\n      swap2\n      swap1\n      tag_72\n      jump\t// in\n    tag_71:\n      swap1\n      dup2\n      mstore\n      0x20\n      add\n      mload(0x40)\n      dup1\n      swap2\n      sub\n      swap1\n      keccak256\n        /* \"temp.sol\":3743:3780  g__ProposalLookup[proposal_id].status */\n      0x00\n      add\n      0x00\n      swap1\n      sload\n      swap1\n      0x0100\n      exp\n      swap1\n      div\n      0xff\n      and\n        /* \"temp.sol\":3715:3780  ProposalStatus.Undefined == g__ProposalLookup[proposal_id].status */\n      0x04\n      dup2\n      gt\n      iszero\n      tag_73\n      jumpi\n      tag_74\n      tag_65\n      jump\t// in\n    tag_74:\n    tag_73:\n        /* \"temp.sol\":3715:3739  ProposalStatus.Undefined */\n      0x00\n        /* \"temp.sol\":3715:3780  ProposalStatus.Undefined == g__ProposalLookup[proposal_id].status */\n      0x04\n      dup2\n      gt\n      iszero\n      tag_75\n      jumpi\n      tag_76\n      tag_65\n      jump\t// in\n    tag_76:\n    tag_75:\n      eq\n        /* \"temp.sol\":3700:3812  require(... */\n      tag_77\n      jumpi\n      mload(0x40)\n      0x08c379a000000000000000000000000000000000000000000000000000000000\n      dup2\n      mstore\n      0x04\n      add\n      tag_78\n      swap1\n      tag_79\n      jump\t// in\n    tag_78:\n      mload(0x40)\n      dup1\n      swap2\n      sub\n      swap1\n      revert\n    tag_77:\n        /* \"temp.sol\":3818:3842  Proposal memory proposal */\n      0x00\n        /* \"temp.sol\":3845:4070  Proposal({... */\n      mload(0x40)\n      dup1\n      0xe0\n      add\n      0x40\n      mstore\n      dup1\n        /* \"temp.sol\":3870:3892  ProposalStatus.Pending */\n      0x01\n        /* \"temp.sol\":3845:4070  Proposal({... */\n      0x04\n      dup2\n      gt\n      iszero\n      tag_80\n      jumpi\n      tag_81\n      tag_65\n      jump\t// in\n    tag_81:\n    tag_80:\n      dup2\n      mstore\n      0x20\n      add\n        /* \"temp.sol\":3915:3928  proposal_type */\n      dup5\n        /* \"temp.sol\":3845:4070  Proposal({... */\n      0x02\n      dup2\n      gt\n      iszero\n      tag_82\n      jumpi\n      tag_83\n      tag_65\n      jump\t// in\n    tag_83:\n    tag_82:\n      dup2\n      mstore\n      0x20\n      add\n        /* \"temp.sol\":3943:3948  value */\n      dup4\n        /* \"temp.sol\":3845:4070  Proposal({... */\n      0xffffffffffffffffffffffffffffffffffffffff\n      and\n      dup2\n      mstore\n      0x20\n      add\n        /* \"temp.sol\":3967:3968  1 */\n      0x01\n        /* \"temp.sol\":3845:4070  Proposal({... */\n      0xff\n      and\n      dup2\n      mstore\n      0x20\n      add\n        /* \"temp.sol\":3986:3987  0 */\n      0x00\n        /* \"temp.sol\":3845:4070  Proposal({... */\n      0xff\n      and\n      dup2\n      mstore\n      0x20\n      add\n        /* \"temp.sol\":4012:4013  0 */\n      0x00\n        /* \"temp.sol\":3845:4070  Proposal({... */\n      0xff\n      and\n      dup2\n      mstore\n      0x20\n      add\n        /* \"temp.sol\":4041:4055  g__MemberArray */\n      0x01\n        /* \"temp.sol\":4041:4062  g__MemberArray.length */\n      dup1\n      sload\n      swap1\n      pop\n        /* \"temp.sol\":3845:4070  Proposal({... */\n      0xff\n      and\n      dup2\n      mstore\n      pop\n        /* \"temp.sol\":3818:4070  Proposal memory proposal = Proposal({... */\n      swap1\n      pop\n        /* \"temp.sol\":4109:4117  proposal */\n      dup1\n        /* \"temp.sol\":4076:4093  g__ProposalLookup */\n      0x03\n        /* \"temp.sol\":4094:4105  proposal_id */\n      dup6\n        /* \"temp.sol\":4076:4106  g__ProposalLookup[proposal_id] */\n      mload(0x40)\n      tag_84\n      swap2\n      swap1\n      tag_72\n      jump\t// in\n    tag_84:\n      swap1\n      dup2\n      mstore\n      0x20\n      add\n      mload(0x40)\n      dup1\n      swap2\n      sub\n      swap1\n      keccak256\n        /* \"temp.sol\":4076:4117  g__ProposalLookup[proposal_id] = proposal */\n      0x00\n      dup3\n      add\n      mload\n      dup2\n      0x00\n      add\n      exp(0x0100, 0x00)\n      dup2\n      sload\n      dup2\n      0xff\n      mul\n      not\n      and\n      swap1\n      dup4\n      0x04\n      dup2\n      gt\n      iszero\n      tag_85\n      jumpi\n      tag_86\n      tag_65\n      jump\t// in\n    tag_86:\n    tag_85:\n      mul\n      or\n      swap1\n      sstore\n      pop\n      0x20\n      dup3\n      add\n      mload\n      dup2\n      0x00\n      add\n      exp(0x0100, 0x01)\n      dup2\n      sload\n      dup2\n      0xff\n      mul\n      not\n      and\n      swap1\n      dup4\n      0x02\n      dup2\n      gt\n      iszero\n      tag_87\n      jumpi\n      tag_88\n      tag_65\n      jump\t// in\n    tag_88:\n    tag_87:\n      mul\n      or\n      swap1\n      sstore\n      pop\n      0x40\n      dup3\n      add\n      mload\n      dup2\n      0x00\n      add\n      exp(0x0100, 0x02)\n      dup2\n      sload\n      dup2\n      0xffffffffffffffffffffffffffffffffffffffff\n      mul\n      not\n      and\n      swap1\n      dup4\n      0xffffffffffffffffffffffffffffffffffffffff\n      and\n      mul\n      or\n      swap1\n      sstore\n      pop\n      0x60\n      dup3\n      add\n      mload\n      dup2\n      0x00\n      add\n      exp(0x0100, 0x16)\n      dup2\n      sload\n      dup2\n      0xff\n      mul\n      not\n      and\n      swap1\n      dup4\n      0xff\n      and\n      mul\n      or\n      swap1\n      sstore\n      pop\n      0x80\n      dup3\n      add\n      mload\n      dup2\n      0x00\n      add\n      exp(0x0100, 0x17)\n      dup2\n      sload\n      dup2\n      0xff\n      mul\n      not\n      and\n      swap1\n      dup4\n      0xff\n      and\n      mul\n      or\n      swap1\n      sstore\n      pop\n      0xa0\n      dup3\n      add\n      mload\n      dup2\n      0x00\n      add\n      exp(0x0100, 0x18)\n      dup2\n      sload\n      dup2\n      0xff\n      mul\n      not\n      and\n      swap1\n      dup4\n      0xff\n      and\n      mul\n      or\n      swap1\n      sstore\n      pop\n      0xc0\n      dup3\n      add\n      mload\n      dup2\n      0x00\n      add\n      exp(0x0100, 0x19)\n      dup2\n      sload\n      dup2\n      0xff\n      mul\n      not\n      and\n      swap1\n      dup4\n      0xff\n      and\n      mul\n      or\n      swap1\n      sstore\n      pop\n      swap1\n      pop\n      pop\n        /* \"temp.sol\":4155:4166  proposal_id */\n      dup4\n        /* \"temp.sol\":4123:4140  g__ProposalActive */\n      0x02\n        /* \"temp.sol\":4123:4152  g__ProposalActive[msg.sender] */\n      0x00\n        /* \"temp.sol\":4141:4151  msg.sender */\n      caller\n        /* \"temp.sol\":4123:4152  g__ProposalActive[msg.sender] */\n      0xffffffffffffffffffffffffffffffffffffffff\n      and\n      0xffffffffffffffffffffffffffffffffffffffff\n      and\n      dup2\n      mstore\n      0x20\n      add\n      swap1\n      dup2\n      mstore\n      0x20\n      add\n      0x00\n      keccak256\n        /* \"temp.sol\":4123:4166  g__ProposalActive[msg.sender] = proposal_id */\n      swap1\n      dup2\n      tag_89\n      swap2\n      swap1\n      tag_90\n      jump\t// in\n    tag_89:\n      pop\n        /* \"temp.sol\":4217:4221  true */\n      0x01\n        /* \"temp.sol\":4172:4189  g__ProposalVoting */\n      0x04\n        /* \"temp.sol\":4190:4201  proposal_id */\n      dup6\n        /* \"temp.sol\":4172:4202  g__ProposalVoting[proposal_id] */\n      mload(0x40)\n      tag_91\n      swap2\n      swap1\n      tag_72\n      jump\t// in\n    tag_91:\n      swap1\n      dup2\n      mstore\n      0x20\n      add\n      mload(0x40)\n      dup1\n      swap2\n      sub\n      swap1\n      keccak256\n        /* \"temp.sol\":4172:4214  g__ProposalVoting[proposal_id][msg.sender] */\n      0x00\n        /* \"temp.sol\":4203:4213  msg.sender */\n      caller\n        /* \"temp.sol\":4172:4214  g__ProposalVoting[proposal_id][msg.sender] */\n      0xffffffffffffffffffffffffffffffffffffffff\n      and\n      0xffffffffffffffffffffffffffffffffffffffff\n      and\n      dup2\n      mstore\n      0x20\n      add\n      swap1\n      dup2\n      mstore\n      0x20\n      add\n      0x00\n      keccak256\n      0x00\n        /* \"temp.sol\":4172:4221  g__ProposalVoting[proposal_id][msg.sender] = true */\n      0x0100\n      exp\n      dup2\n      sload\n      dup2\n      0xff\n      mul\n      not\n      and\n      swap1\n      dup4\n      iszero\n      iszero\n      mul\n      or\n      swap1\n      sstore\n      pop\n        /* \"temp.sol\":3500:4226  {... */\n      pop\n        /* \"temp.sol\":3390:4226  function member__proposal_create(string memory proposal_id,ProposalType proposal_type,address value) external {... */\n      pop\n      pop\n      pop\n      jump\t// out\n        /* \"temp.sol\":680:712  address [] public g__MemberArray */\n    tag_36:\n      0x01\n      dup2\n      dup2\n      sload\n      dup2\n      lt\n      tag_92\n      jumpi\n      0x00\n      dup1\n      revert\n    tag_92:\n      swap1\n      0x00\n      mstore\n      keccak256(0x00, 0x20)\n      add\n      0x00\n      swap2\n      pop\n      sload\n      swap1\n      0x0100\n      exp\n      swap1\n      div\n      0xffffffffffffffffffffffffffffffffffffffff\n      and\n      dup2\n      jump\t// out\n        /* \"temp.sol\":4914:5345  function member__proposal_cancel(string memory proposal_id) external {... */\n    tag_41:\n        /* \"temp.sol\":5030:5047  g__ProposalLookup */\n      0x03\n        /* \"temp.sol\":5048:5065  g__ProposalActive */\n      0x02\n        /* \"temp.sol\":5048:5077  g__ProposalActive[msg.sender] */\n      0x00\n        /* \"temp.sol\":5066:5076  msg.sender */\n      caller\n        /* \"temp.sol\":5048:5077  g__ProposalActive[msg.sender] */\n      0xffffffffffffffffffffffffffffffffffffffff\n      and\n      0xffffffffffffffffffffffffffffffffffffffff\n      and\n      dup2\n      mstore\n      0x20\n      add\n      swap1\n      dup2\n      mstore\n      0x20\n      add\n      0x00\n      keccak256\n        /* \"temp.sol\":5030:5078  g__ProposalLookup[g__ProposalActive[msg.sender]] */\n      mload(0x40)\n      tag_95\n      swap2\n      swap1\n      tag_62\n      jump\t// in\n    tag_95:\n      swap1\n      dup2\n      mstore\n      0x20\n      add\n      mload(0x40)\n      dup1\n      swap2\n      sub\n      swap1\n      keccak256\n        /* \"temp.sol\":5030:5085  g__ProposalLookup[g__ProposalActive[msg.sender]].status */\n      0x00\n      add\n      0x00\n      swap1\n      sload\n      swap1\n      0x0100\n      exp\n      swap1\n      div\n      0xff\n      and\n        /* \"temp.sol\":5004:5085  ProposalStatus.Pending == g__ProposalLookup[g__ProposalActive[msg.sender]].status */\n      0x04\n      dup2\n      gt\n      iszero\n      tag_96\n      jumpi\n      tag_97\n      tag_65\n      jump\t// in\n    tag_97:\n    tag_96:\n        /* \"temp.sol\":5004:5026  ProposalStatus.Pending */\n      0x01\n        /* \"temp.sol\":5004:5085  ProposalStatus.Pending == g__ProposalLookup[g__ProposalActive[msg.sender]].status */\n      0x04\n      dup2\n      gt\n      iszero\n      tag_98\n      jumpi\n      tag_99\n      tag_65\n      jump\t// in\n    tag_99:\n    tag_98:\n      eq\n        /* \"temp.sol\":4989:5113  require(... */\n      tag_100\n      jumpi\n      mload(0x40)\n      0x08c379a000000000000000000000000000000000000000000000000000000000\n      dup2\n      mstore\n      0x04\n      add\n      tag_101\n      swap1\n      tag_102\n      jump\t// in\n    tag_101:\n      mload(0x40)\n      dup1\n      swap2\n      sub\n      swap1\n      revert\n    tag_100:\n        /* \"temp.sol\":5160:5177  g__ProposalLookup */\n      0x03\n        /* \"temp.sol\":5178:5189  proposal_id */\n      dup2\n        /* \"temp.sol\":5160:5190  g__ProposalLookup[proposal_id] */\n      mload(0x40)\n      tag_103\n      swap2\n      swap1\n      tag_72\n      jump\t// in\n    tag_103:\n      swap1\n      dup2\n      mstore\n      0x20\n      add\n      mload(0x40)\n      dup1\n      swap2\n      sub\n      swap1\n      keccak256\n        /* \"temp.sol\":5160:5197  g__ProposalLookup[proposal_id].status */\n      0x00\n      add\n      0x00\n      swap1\n      sload\n      swap1\n      0x0100\n      exp\n      swap1\n      div\n      0xff\n      and\n        /* \"temp.sol\":5134:5197  ProposalStatus.Pending == g__ProposalLookup[proposal_id].status */\n      0x04\n      dup2\n      gt\n      iszero\n      tag_104\n      jumpi\n      tag_105\n      tag_65\n      jump\t// in\n    tag_105:\n    tag_104:\n        /* \"temp.sol\":5134:5156  ProposalStatus.Pending */\n      0x01\n        /* \"temp.sol\":5134:5197  ProposalStatus.Pending == g__ProposalLookup[proposal_id].status */\n      0x04\n      dup2\n      gt\n      iszero\n      tag_106\n      jumpi\n      tag_107\n      tag_65\n      jump\t// in\n    tag_107:\n    tag_106:\n      eq\n        /* \"temp.sol\":5119:5228  require(... */\n      tag_108\n      jumpi\n      mload(0x40)\n      0x08c379a000000000000000000000000000000000000000000000000000000000\n      dup2\n      mstore\n      0x04\n      add\n      tag_109\n      swap1\n      tag_110\n      jump\t// in\n    tag_109:\n      mload(0x40)\n      dup1\n      swap2\n      sub\n      swap1\n      revert\n    tag_108:\n        /* \"temp.sol\":5274:5298  ProposalStatus.Cancelled */\n      0x02\n        /* \"temp.sol\":5234:5251  g__ProposalLookup */\n      0x03\n        /* \"temp.sol\":5252:5263  proposal_id */\n      dup3\n        /* \"temp.sol\":5234:5264  g__ProposalLookup[proposal_id] */\n      mload(0x40)\n      tag_111\n      swap2\n      swap1\n      tag_72\n      jump\t// in\n    tag_111:\n      swap1\n      dup2\n      mstore\n      0x20\n      add\n      mload(0x40)\n      dup1\n      swap2\n      sub\n      swap1\n      keccak256\n        /* \"temp.sol\":5234:5271  g__ProposalLookup[proposal_id].status */\n      0x00\n      add\n      0x00\n        /* \"temp.sol\":5234:5298  g__ProposalLookup[proposal_id].status = ProposalStatus.Cancelled */\n      0x0100\n      exp\n      dup2\n      sload\n      dup2\n      0xff\n      mul\n      not\n      and\n      swap1\n      dup4\n      0x04\n      dup2\n      gt\n      iszero\n      tag_112\n      jumpi\n      tag_113\n      tag_65\n      jump\t// in\n    tag_113:\n    tag_112:\n      mul\n      or\n      swap1\n      sstore\n      pop\n        /* \"temp.sol\":5311:5328  g__ProposalActive */\n      0x02\n        /* \"temp.sol\":5311:5340  g__ProposalActive[msg.sender] */\n      0x00\n        /* \"temp.sol\":5329:5339  msg.sender */\n      caller\n        /* \"temp.sol\":5311:5340  g__ProposalActive[msg.sender] */\n      0xffffffffffffffffffffffffffffffffffffffff\n      and\n      0xffffffffffffffffffffffffffffffffffffffff\n      and\n      dup2\n      mstore\n      0x20\n      add\n      swap1\n      dup2\n      mstore\n      0x20\n      add\n      0x00\n      keccak256\n      0x00\n        /* \"temp.sol\":5304:5340  delete g__ProposalActive[msg.sender] */\n      tag_114\n      swap2\n      swap1\n      tag_115\n      jump\t// in\n    tag_114:\n        /* \"temp.sol\":4914:5345  function member__proposal_cancel(string memory proposal_id) external {... */\n      pop\n      jump\t// out\n        /* \"temp.sol\":5351:6410  function member__proposal_process(string memory proposal_id) external {... */\n    tag_44:\n        /* \"temp.sol\":5468:5485  g__ProposalLookup */\n      0x03\n        /* \"temp.sol\":5486:5503  g__ProposalActive */\n      0x02\n        /* \"temp.sol\":5486:5515  g__ProposalActive[msg.sender] */\n      0x00\n        /* \"temp.sol\":5504:5514  msg.sender */\n      caller\n        /* \"temp.sol\":5486:5515  g__ProposalActive[msg.sender] */\n      0xffffffffffffffffffffffffffffffffffffffff\n      and\n      0xffffffffffffffffffffffffffffffffffffffff\n      and\n      dup2\n      mstore\n      0x20\n      add\n      swap1\n      dup2\n      mstore\n      0x20\n      add\n      0x00\n      keccak256\n        /* \"temp.sol\":5468:5516  g__ProposalLookup[g__ProposalActive[msg.sender]] */\n      mload(0x40)\n      tag_117\n      swap2\n      swap1\n      tag_62\n      jump\t// in\n    tag_117:\n      swap1\n      dup2\n      mstore\n      0x20\n      add\n      mload(0x40)\n      dup1\n      swap2\n      sub\n      swap1\n      keccak256\n        /* \"temp.sol\":5468:5523  g__ProposalLookup[g__ProposalActive[msg.sender]].status */\n      0x00\n      add\n      0x00\n      swap1\n      sload\n      swap1\n      0x0100\n      exp\n      swap1\n      div\n      0xff\n      and\n        /* \"temp.sol\":5442:5523  ProposalStatus.Pending == g__ProposalLookup[g__ProposalActive[msg.sender]].status */\n      0x04\n      dup2\n      gt\n      iszero\n      tag_118\n      jumpi\n      tag_119\n      tag_65\n      jump\t// in\n    tag_119:\n    tag_118:\n        /* \"temp.sol\":5442:5464  ProposalStatus.Pending */\n      0x01\n        /* \"temp.sol\":5442:5523  ProposalStatus.Pending == g__ProposalLookup[g__ProposalActive[msg.sender]].status */\n      0x04\n      dup2\n      gt\n      iszero\n      tag_120\n      jumpi\n      tag_121\n      tag_65\n      jump\t// in\n    tag_121:\n    tag_120:\n      eq\n        /* \"temp.sol\":5427:5551  require(... */\n      tag_122\n      jumpi\n      mload(0x40)\n      0x08c379a000000000000000000000000000000000000000000000000000000000\n      dup2\n      mstore\n      0x04\n      add\n      tag_123\n      swap1\n      tag_102\n      jump\t// in\n    tag_123:\n      mload(0x40)\n      dup1\n      swap2\n      sub\n      swap1\n      revert\n    tag_122:\n        /* \"temp.sol\":5598:5615  g__ProposalLookup */\n      0x03\n        /* \"temp.sol\":5616:5627  proposal_id */\n      dup2\n        /* \"temp.sol\":5598:5628  g__ProposalLookup[proposal_id] */\n      mload(0x40)\n      tag_124\n      swap2\n      swap1\n      tag_72\n      jump\t// in\n    tag_124:\n      swap1\n      dup2\n      mstore\n      0x20\n      add\n      mload(0x40)\n      dup1\n      swap2\n      sub\n      swap1\n      keccak256\n        /* \"temp.sol\":5598:5635  g__ProposalLookup[proposal_id].status */\n      0x00\n      add\n      0x00\n      swap1\n      sload\n      swap1\n      0x0100\n      exp\n      swap1\n      div\n      0xff\n      and\n        /* \"temp.sol\":5572:5635  ProposalStatus.Pending == g__ProposalLookup[proposal_id].status */\n      0x04\n      dup2\n      gt\n      iszero\n      tag_125\n      jumpi\n      tag_126\n      tag_65\n      jump\t// in\n    tag_126:\n    tag_125:\n        /* \"temp.sol\":5572:5594  ProposalStatus.Pending */\n      0x01\n        /* \"temp.sol\":5572:5635  ProposalStatus.Pending == g__ProposalLookup[proposal_id].status */\n      0x04\n      dup2\n      gt\n      iszero\n      tag_127\n      jumpi\n      tag_128\n      tag_65\n      jump\t// in\n    tag_128:\n    tag_127:\n      eq\n        /* \"temp.sol\":5557:5666  require(... */\n      tag_129\n      jumpi\n      mload(0x40)\n      0x08c379a000000000000000000000000000000000000000000000000000000000\n      dup2\n      mstore\n      0x04\n      add\n      tag_130\n      swap1\n      tag_110\n      jump\t// in\n    tag_130:\n      mload(0x40)\n      dup1\n      swap2\n      sub\n      swap1\n      revert\n    tag_129:\n        /* \"temp.sol\":5672:5683  bool result */\n      0x00\n        /* \"temp.sol\":5686:5713  ut__get_quorum(proposal_id) */\n      tag_131\n        /* \"temp.sol\":5701:5712  proposal_id */\n      dup3\n        /* \"temp.sol\":5686:5700  ut__get_quorum */\n      tag_132\n        /* \"temp.sol\":5686:5713  ut__get_quorum(proposal_id) */\n      jump\t// in\n    tag_131:\n        /* \"temp.sol\":5672:5713  bool result = ut__get_quorum(proposal_id) */\n      swap1\n      pop\n        /* \"temp.sol\":5760:5766  result */\n      dup1\n        /* \"temp.sol\":5760:5818  result ? ProposalStatus.Accepted : ProposalStatus.Rejected */\n      tag_133\n      jumpi\n        /* \"temp.sol\":5795:5818  ProposalStatus.Rejected */\n      0x04\n        /* \"temp.sol\":5760:5818  result ? ProposalStatus.Accepted : ProposalStatus.Rejected */\n      jump(tag_134)\n    tag_133:\n        /* \"temp.sol\":5769:5792  ProposalStatus.Accepted */\n      0x03\n        /* \"temp.sol\":5760:5818  result ? ProposalStatus.Accepted : ProposalStatus.Rejected */\n    tag_134:\n        /* \"temp.sol\":5719:5736  g__ProposalLookup */\n      0x03\n        /* \"temp.sol\":5737:5748  proposal_id */\n      dup4\n        /* \"temp.sol\":5719:5749  g__ProposalLookup[proposal_id] */\n      mload(0x40)\n      tag_135\n      swap2\n      swap1\n      tag_72\n      jump\t// in\n    tag_135:\n      swap1\n      dup2\n      mstore\n      0x20\n      add\n      mload(0x40)\n      dup1\n      swap2\n      sub\n      swap1\n      keccak256\n        /* \"temp.sol\":5719:5756  g__ProposalLookup[proposal_id].status */\n      0x00\n      add\n      0x00\n        /* \"temp.sol\":5719:5819  g__ProposalLookup[proposal_id].status = (result ? ProposalStatus.Accepted : ProposalStatus.Rejected) */\n      0x0100\n      exp\n      dup2\n      sload\n      dup2\n      0xff\n      mul\n      not\n      and\n      swap1\n      dup4\n      0x04\n      dup2\n      gt\n      iszero\n      tag_136\n      jumpi\n      tag_137\n      tag_65\n      jump\t// in\n    tag_137:\n    tag_136:\n      mul\n      or\n      swap1\n      sstore\n      pop\n        /* \"temp.sol\":5832:5849  g__ProposalActive */\n      0x02\n        /* \"temp.sol\":5832:5861  g__ProposalActive[msg.sender] */\n      0x00\n        /* \"temp.sol\":5850:5860  msg.sender */\n      caller\n        /* \"temp.sol\":5832:5861  g__ProposalActive[msg.sender] */\n      0xffffffffffffffffffffffffffffffffffffffff\n      and\n      0xffffffffffffffffffffffffffffffffffffffff\n      and\n      dup2\n      mstore\n      0x20\n      add\n      swap1\n      dup2\n      mstore\n      0x20\n      add\n      0x00\n      keccak256\n      0x00\n        /* \"temp.sol\":5825:5861  delete g__ProposalActive[msg.sender] */\n      tag_138\n      swap2\n      swap1\n      tag_115\n      jump\t// in\n    tag_138:\n        /* \"temp.sol\":5870:5876  result */\n      dup1\n        /* \"temp.sol\":5867:6406  if(result){... */\n      iszero\n      tag_139\n      jumpi\n        /* \"temp.sol\":5885:5911  ProposalType proposal_type */\n      0x00\n        /* \"temp.sol\":5914:5931  g__ProposalLookup */\n      0x03\n        /* \"temp.sol\":5932:5943  proposal_id */\n      dup4\n        /* \"temp.sol\":5914:5944  g__ProposalLookup[proposal_id] */\n      mload(0x40)\n      tag_140\n      swap2\n      swap1\n      tag_72\n      jump\t// in\n    tag_140:\n      swap1\n      dup2\n      mstore\n      0x20\n      add\n      mload(0x40)\n      dup1\n      swap2\n      sub\n      swap1\n      keccak256\n        /* \"temp.sol\":5914:5958  g__ProposalLookup[proposal_id].proposal_type */\n      0x00\n      add\n      0x01\n      swap1\n      sload\n      swap1\n      0x0100\n      exp\n      swap1\n      div\n      0xff\n      and\n        /* \"temp.sol\":5885:5958  ProposalType proposal_type = g__ProposalLookup[proposal_id].proposal_type */\n      swap1\n      pop\n        /* \"temp.sol\":5966:5987  address event_address */\n      0x00\n        /* \"temp.sol\":5990:6007  g__ProposalLookup */\n      0x03\n        /* \"temp.sol\":6008:6019  proposal_id */\n      dup5\n        /* \"temp.sol\":5990:6020  g__ProposalLookup[proposal_id] */\n      mload(0x40)\n      tag_141\n      swap2\n      swap1\n      tag_72\n      jump\t// in\n    tag_141:\n      swap1\n      dup2\n      mstore\n      0x20\n      add\n      mload(0x40)\n      dup1\n      swap2\n      sub\n      swap1\n      keccak256\n        /* \"temp.sol\":5990:6026  g__ProposalLookup[proposal_id].value */\n      0x00\n      add\n      0x02\n      swap1\n      sload\n      swap1\n      0x0100\n      exp\n      swap1\n      div\n      0xffffffffffffffffffffffffffffffffffffffff\n      and\n        /* \"temp.sol\":5966:6026  address event_address = g__ProposalLookup[proposal_id].value */\n      swap1\n      pop\n        /* \"temp.sol\":6054:6076  ProposalType.MemberAdd */\n      0x01\n        /* \"temp.sol\":6037:6076  proposal_type == ProposalType.MemberAdd */\n      0x02\n      dup2\n      gt\n      iszero\n      tag_142\n      jumpi\n      tag_143\n      tag_65\n      jump\t// in\n    tag_143:\n    tag_142:\n        /* \"temp.sol\":6037:6050  proposal_type */\n      dup3\n        /* \"temp.sol\":6037:6076  proposal_type == ProposalType.MemberAdd */\n      0x02\n      dup2\n      gt\n      iszero\n      tag_144\n      jumpi\n      tag_145\n      tag_65\n      jump\t// in\n    tag_145:\n    tag_144:\n      sub\n        /* \"temp.sol\":6034:6400  if(proposal_type == ProposalType.MemberAdd){... */\n      tag_146\n      jumpi\n        /* \"temp.sol\":6087:6132  action__member_add(proposal_id,event_address) */\n      tag_147\n        /* \"temp.sol\":6106:6117  proposal_id */\n      dup5\n        /* \"temp.sol\":6118:6131  event_address */\n      dup3\n        /* \"temp.sol\":6087:6105  action__member_add */\n      tag_148\n        /* \"temp.sol\":6087:6132  action__member_add(proposal_id,event_address) */\n      jump\t// in\n    tag_147:\n        /* \"temp.sol\":6034:6400  if(proposal_type == ProposalType.MemberAdd){... */\n      jump(tag_149)\n    tag_146:\n        /* \"temp.sol\":6173:6198  ProposalType.MemberRemove */\n      0x02\n        /* \"temp.sol\":6156:6198  proposal_type == ProposalType.MemberRemove */\n      dup1\n      dup2\n      gt\n      iszero\n      tag_150\n      jumpi\n      tag_151\n      tag_65\n      jump\t// in\n    tag_151:\n    tag_150:\n        /* \"temp.sol\":6156:6169  proposal_type */\n      dup3\n        /* \"temp.sol\":6156:6198  proposal_type == ProposalType.MemberRemove */\n      0x02\n      dup2\n      gt\n      iszero\n      tag_152\n      jumpi\n      tag_153\n      tag_65\n      jump\t// in\n    tag_153:\n    tag_152:\n      sub\n        /* \"temp.sol\":6153:6400  if(proposal_type == ProposalType.MemberRemove){... */\n      tag_154\n      jumpi\n        /* \"temp.sol\":6209:6257  action__member_remove(proposal_id,event_address) */\n      tag_155\n        /* \"temp.sol\":6231:6242  proposal_id */\n      dup5\n        /* \"temp.sol\":6243:6256  event_address */\n      dup3\n        /* \"temp.sol\":6209:6230  action__member_remove */\n      tag_156\n        /* \"temp.sol\":6209:6257  action__member_remove(proposal_id,event_address) */\n      jump\t// in\n    tag_155:\n        /* \"temp.sol\":6153:6400  if(proposal_type == ProposalType.MemberRemove){... */\n      jump(tag_157)\n    tag_154:\n        /* \"temp.sol\":6298:6327  ProposalType.MemberTakeProfit */\n      0x00\n        /* \"temp.sol\":6281:6327  proposal_type == ProposalType.MemberTakeProfit */\n      0x02\n      dup2\n      gt\n      iszero\n      tag_158\n      jumpi\n      tag_159\n      tag_65\n      jump\t// in\n    tag_159:\n    tag_158:\n        /* \"temp.sol\":6281:6294  proposal_type */\n      dup3\n        /* \"temp.sol\":6281:6327  proposal_type == ProposalType.MemberTakeProfit */\n      0x02\n      dup2\n      gt\n      iszero\n      tag_160\n      jumpi\n      tag_161\n      tag_65\n      jump\t// in\n    tag_161:\n    tag_160:\n      sub\n        /* \"temp.sol\":6278:6400  if(proposal_type == ProposalType.MemberTakeProfit){... */\n      tag_162\n      jumpi\n        /* \"temp.sol\":6338:6391  action__member_take_profit(proposal_id,event_address) */\n      tag_163\n        /* \"temp.sol\":6365:6376  proposal_id */\n      dup5\n        /* \"temp.sol\":6377:6390  event_address */\n      dup3\n        /* \"temp.sol\":6338:6364  action__member_take_profit */\n      tag_164\n        /* \"temp.sol\":6338:6391  action__member_take_profit(proposal_id,event_address) */\n      jump\t// in\n    tag_163:\n        /* \"temp.sol\":6278:6400  if(proposal_type == ProposalType.MemberTakeProfit){... */\n    tag_162:\n        /* \"temp.sol\":6153:6400  if(proposal_type == ProposalType.MemberRemove){... */\n    tag_157:\n        /* \"temp.sol\":6034:6400  if(proposal_type == ProposalType.MemberAdd){... */\n    tag_149:\n        /* \"temp.sol\":5877:6406  {... */\n      pop\n      pop\n        /* \"temp.sol\":5867:6406  if(result){... */\n    tag_139:\n        /* \"temp.sol\":5421:6410  {... */\n      pop\n        /* \"temp.sol\":5351:6410  function member__proposal_process(string memory proposal_id) external {... */\n      pop\n      jump\t// out\n        /* \"temp.sol\":719:770  mapping(address => string) public g__ProposalActive */\n    tag_48:\n      mstore(0x20, 0x02)\n      dup1\n      0x00\n      mstore\n      keccak256(0x00, 0x40)\n      0x00\n      swap2\n      pop\n      swap1\n      pop\n      dup1\n      sload\n      tag_165\n      swap1\n      tag_166\n      jump\t// in\n    tag_165:\n      dup1\n      0x1f\n      add\n      0x20\n      dup1\n      swap2\n      div\n      mul\n      0x20\n      add\n      mload(0x40)\n      swap1\n      dup2\n      add\n      0x40\n      mstore\n      dup1\n      swap3\n      swap2\n      swap1\n      dup2\n      dup2\n      mstore\n      0x20\n      add\n      dup3\n      dup1\n      sload\n      tag_167\n      swap1\n      tag_166\n      jump\t// in\n    tag_167:\n      dup1\n      iszero\n      tag_168\n      jumpi\n      dup1\n      0x1f\n      lt\n      tag_169\n      jumpi\n      0x0100\n      dup1\n      dup4\n      sload\n      div\n      mul\n      dup4\n      mstore\n      swap2\n      0x20\n      add\n      swap2\n      jump(tag_168)\n    tag_169:\n      dup3\n      add\n      swap2\n      swap1\n      0x00\n      mstore\n      keccak256(0x00, 0x20)\n      swap1\n    tag_170:\n      dup2\n      sload\n      dup2\n      mstore\n      swap1\n      0x01\n      add\n      swap1\n      0x20\n      add\n      dup1\n      dup4\n      gt\n      tag_170\n      jumpi\n      dup3\n      swap1\n      sub\n      0x1f\n      and\n      dup3\n      add\n      swap2\n    tag_168:\n      pop\n      pop\n      pop\n      pop\n      pop\n      dup2\n      jump\t// out\n        /* \"temp.sol\":4232:4908  function member__proposal_vote(string memory proposal_id,VoteType vote_type) external {... */\n    tag_54:\n        /* \"temp.sol\":4336:4361  ut__get_index(msg.sender) */\n      tag_172\n        /* \"temp.sol\":4350:4360  msg.sender */\n      caller\n        /* \"temp.sol\":4336:4349  ut__get_index */\n      tag_57\n        /* \"temp.sol\":4336:4361  ut__get_index(msg.sender) */\n      jump\t// in\n    tag_172:\n        /* \"temp.sol\":4332:4333  0 */\n      0x00\n        /* \"temp.sol\":4332:4361  0 < ut__get_index(msg.sender) */\n      lt\n        /* \"temp.sol\":4324:4377  require(0 < ut__get_index(msg.sender),\"Member only.\") */\n      tag_173\n      jumpi\n      mload(0x40)\n      0x08c379a000000000000000000000000000000000000000000000000000000000\n      dup2\n      mstore\n      0x04\n      add\n      tag_174\n      swap1\n      tag_60\n      jump\t// in\n    tag_174:\n      mload(0x40)\n      dup1\n      swap2\n      sub\n      swap1\n      revert\n    tag_173:\n        /* \"temp.sol\":4424:4441  g__ProposalLookup */\n      0x03\n        /* \"temp.sol\":4442:4453  proposal_id */\n      dup3\n        /* \"temp.sol\":4424:4454  g__ProposalLookup[proposal_id] */\n      mload(0x40)\n      tag_175\n      swap2\n      swap1\n      tag_72\n      jump\t// in\n    tag_175:\n      swap1\n      dup2\n      mstore\n      0x20\n      add\n      mload(0x40)\n      dup1\n      swap2\n      sub\n      swap1\n      keccak256\n        /* \"temp.sol\":4424:4461  g__ProposalLookup[proposal_id].status */\n      0x00\n      add\n      0x00\n      swap1\n      sload\n      swap1\n      0x0100\n      exp\n      swap1\n      div\n      0xff\n      and\n        /* \"temp.sol\":4398:4461  ProposalStatus.Pending == g__ProposalLookup[proposal_id].status */\n      0x04\n      dup2\n      gt\n      iszero\n      tag_176\n      jumpi\n      tag_177\n      tag_65\n      jump\t// in\n    tag_177:\n    tag_176:\n        /* \"temp.sol\":4398:4420  ProposalStatus.Pending */\n      0x01\n        /* \"temp.sol\":4398:4461  ProposalStatus.Pending == g__ProposalLookup[proposal_id].status */\n      0x04\n      dup2\n      gt\n      iszero\n      tag_178\n      jumpi\n      tag_179\n      tag_65\n      jump\t// in\n    tag_179:\n    tag_178:\n      eq\n        /* \"temp.sol\":4383:4492  require(... */\n      tag_180\n      jumpi\n      mload(0x40)\n      0x08c379a000000000000000000000000000000000000000000000000000000000\n      dup2\n      mstore\n      0x04\n      add\n      tag_181\n      swap1\n      tag_110\n      jump\t// in\n    tag_181:\n      mload(0x40)\n      dup1\n      swap2\n      sub\n      swap1\n      revert\n    tag_180:\n        /* \"temp.sol\":4507:4524  g__ProposalVoting */\n      0x04\n        /* \"temp.sol\":4525:4536  proposal_id */\n      dup3\n        /* \"temp.sol\":4507:4537  g__ProposalVoting[proposal_id] */\n      mload(0x40)\n      tag_182\n      swap2\n      swap1\n      tag_72\n      jump\t// in\n    tag_182:\n      swap1\n      dup2\n      mstore\n      0x20\n      add\n      mload(0x40)\n      dup1\n      swap2\n      sub\n      swap1\n      keccak256\n        /* \"temp.sol\":4507:4549  g__ProposalVoting[proposal_id][msg.sender] */\n      0x00\n        /* \"temp.sol\":4538:4548  msg.sender */\n      caller\n        /* \"temp.sol\":4507:4549  g__ProposalVoting[proposal_id][msg.sender] */\n      0xffffffffffffffffffffffffffffffffffffffff\n      and\n      0xffffffffffffffffffffffffffffffffffffffff\n      and\n      dup2\n      mstore\n      0x20\n      add\n      swap1\n      dup2\n      mstore\n      0x20\n      add\n      0x00\n      keccak256\n      0x00\n      swap1\n      sload\n      swap1\n      0x0100\n      exp\n      swap1\n      div\n      0xff\n      and\n        /* \"temp.sol\":4506:4549  !g__ProposalVoting[proposal_id][msg.sender] */\n      iszero\n        /* \"temp.sol\":4498:4550  require(!g__ProposalVoting[proposal_id][msg.sender]) */\n      tag_183\n      jumpi\n      0x00\n      dup1\n      revert\n    tag_183:\n        /* \"temp.sol\":4572:4587  VoteType.Accept */\n      0x00\n        /* \"temp.sol\":4559:4587  vote_type == VoteType.Accept */\n      0x02\n      dup2\n      gt\n      iszero\n      tag_184\n      jumpi\n      tag_185\n      tag_65\n      jump\t// in\n    tag_185:\n    tag_184:\n        /* \"temp.sol\":4559:4568  vote_type */\n      dup2\n        /* \"temp.sol\":4559:4587  vote_type == VoteType.Accept */\n      0x02\n      dup2\n      gt\n      iszero\n      tag_186\n      jumpi\n      tag_187\n      tag_65\n      jump\t// in\n    tag_187:\n    tag_186:\n      sub\n        /* \"temp.sol\":4556:4849  if(vote_type == VoteType.Accept){... */\n      tag_188\n      jumpi\n        /* \"temp.sol\":4598:4615  g__ProposalLookup */\n      0x03\n        /* \"temp.sol\":4616:4627  proposal_id */\n      dup3\n        /* \"temp.sol\":4598:4628  g__ProposalLookup[proposal_id] */\n      mload(0x40)\n      tag_189\n      swap2\n      swap1\n      tag_72\n      jump\t// in\n    tag_189:\n      swap1\n      dup2\n      mstore\n      0x20\n      add\n      mload(0x40)\n      dup1\n      swap2\n      sub\n      swap1\n      keccak256\n        /* \"temp.sol\":4598:4638  g__ProposalLookup[proposal_id].total_yes */\n      0x00\n      add\n      0x16\n        /* \"temp.sol\":4596:4638  ++g__ProposalLookup[proposal_id].total_yes */\n      dup2\n      dup2\n      swap1\n      sload\n      swap1\n      0x0100\n      exp\n      swap1\n      div\n      0xff\n      and\n      tag_190\n      swap1\n      tag_191\n      jump\t// in\n    tag_190:\n      swap2\n      swap1\n      0x0100\n      exp\n      dup2\n      sload\n      dup2\n      0xff\n      mul\n      not\n      and\n      swap1\n      dup4\n      0xff\n      and\n      mul\n      or\n      swap1\n      sstore\n      pop\n        /* \"temp.sol\":4556:4849  if(vote_type == VoteType.Accept){... */\n      jump(tag_192)\n    tag_188:\n        /* \"temp.sol\":4671:4686  VoteType.Reject */\n      0x01\n        /* \"temp.sol\":4658:4686  vote_type == VoteType.Reject */\n      0x02\n      dup2\n      gt\n      iszero\n      tag_193\n      jumpi\n      tag_194\n      tag_65\n      jump\t// in\n    tag_194:\n    tag_193:\n        /* \"temp.sol\":4658:4667  vote_type */\n      dup2\n        /* \"temp.sol\":4658:4686  vote_type == VoteType.Reject */\n      0x02\n      dup2\n      gt\n      iszero\n      tag_195\n      jumpi\n      tag_196\n      tag_65\n      jump\t// in\n    tag_196:\n    tag_195:\n      sub\n        /* \"temp.sol\":4655:4849  if(vote_type == VoteType.Reject){... */\n      tag_197\n      jumpi\n        /* \"temp.sol\":4697:4714  g__ProposalLookup */\n      0x03\n        /* \"temp.sol\":4715:4726  proposal_id */\n      dup3\n        /* \"temp.sol\":4697:4727  g__ProposalLookup[proposal_id] */\n      mload(0x40)\n      tag_198\n      swap2\n      swap1\n      tag_72\n      jump\t// in\n    tag_198:\n      swap1\n      dup2\n      mstore\n      0x20\n      add\n      mload(0x40)\n      dup1\n      swap2\n      sub\n      swap1\n      keccak256\n        /* \"temp.sol\":4697:4736  g__ProposalLookup[proposal_id].total_no */\n      0x00\n      add\n      0x17\n        /* \"temp.sol\":4695:4736  ++g__ProposalLookup[proposal_id].total_no */\n      dup2\n      dup2\n      swap1\n      sload\n      swap1\n      0x0100\n      exp\n      swap1\n      div\n      0xff\n      and\n      tag_199\n      swap1\n      tag_191\n      jump\t// in\n    tag_199:\n      swap2\n      swap1\n      0x0100\n      exp\n      dup2\n      sload\n      dup2\n      0xff\n      mul\n      not\n      and\n      swap1\n      dup4\n      0xff\n      and\n      mul\n      or\n      swap1\n      sstore\n      pop\n        /* \"temp.sol\":4655:4849  if(vote_type == VoteType.Reject){... */\n      jump(tag_200)\n    tag_197:\n        /* \"temp.sol\":4769:4785  VoteType.Abstain */\n      0x02\n        /* \"temp.sol\":4756:4785  vote_type == VoteType.Abstain */\n      dup1\n      dup2\n      gt\n      iszero\n      tag_201\n      jumpi\n      tag_202\n      tag_65\n      jump\t// in\n    tag_202:\n    tag_201:\n        /* \"temp.sol\":4756:4765  vote_type */\n      dup2\n        /* \"temp.sol\":4756:4785  vote_type == VoteType.Abstain */\n      0x02\n      dup2\n      gt\n      iszero\n      tag_203\n      jumpi\n      tag_204\n      tag_65\n      jump\t// in\n    tag_204:\n    tag_203:\n      sub\n        /* \"temp.sol\":4753:4849  if(vote_type == VoteType.Abstain){... */\n      tag_205\n      jumpi\n        /* \"temp.sol\":4796:4813  g__ProposalLookup */\n      0x03\n        /* \"temp.sol\":4814:4825  proposal_id */\n      dup3\n        /* \"temp.sol\":4796:4826  g__ProposalLookup[proposal_id] */\n      mload(0x40)\n      tag_206\n      swap2\n      swap1\n      tag_72\n      jump\t// in\n    tag_206:\n      swap1\n      dup2\n      mstore\n      0x20\n      add\n      mload(0x40)\n      dup1\n      swap2\n      sub\n      swap1\n      keccak256\n        /* \"temp.sol\":4796:4842  g__ProposalLookup[proposal_id].total_abstained */\n      0x00\n      add\n      0x18\n        /* \"temp.sol\":4794:4842  ++g__ProposalLookup[proposal_id].total_abstained */\n      dup2\n      dup2\n      swap1\n      sload\n      swap1\n      0x0100\n      exp\n      swap1\n      div\n      0xff\n      and\n      tag_207\n      swap1\n      tag_191\n      jump\t// in\n    tag_207:\n      swap2\n      swap1\n      0x0100\n      exp\n      dup2\n      sload\n      dup2\n      0xff\n      mul\n      not\n      and\n      swap1\n      dup4\n      0xff\n      and\n      mul\n      or\n      swap1\n      sstore\n      pop\n        /* \"temp.sol\":4753:4849  if(vote_type == VoteType.Abstain){... */\n    tag_205:\n        /* \"temp.sol\":4655:4849  if(vote_type == VoteType.Reject){... */\n    tag_200:\n        /* \"temp.sol\":4556:4849  if(vote_type == VoteType.Accept){... */\n    tag_192:\n        /* \"temp.sol\":4899:4903  true */\n      0x01\n        /* \"temp.sol\":4854:4871  g__ProposalVoting */\n      0x04\n        /* \"temp.sol\":4872:4883  proposal_id */\n      dup4\n        /* \"temp.sol\":4854:4884  g__ProposalVoting[proposal_id] */\n      mload(0x40)\n      tag_208\n      swap2\n      swap1\n      tag_72\n      jump\t// in\n    tag_208:\n      swap1\n      dup2\n      mstore\n      0x20\n      add\n      mload(0x40)\n      dup1\n      swap2\n      sub\n      swap1\n      keccak256\n        /* \"temp.sol\":4854:4896  g__ProposalVoting[proposal_id][msg.sender] */\n      0x00\n        /* \"temp.sol\":4885:4895  msg.sender */\n      caller\n        /* \"temp.sol\":4854:4896  g__ProposalVoting[proposal_id][msg.sender] */\n      0xffffffffffffffffffffffffffffffffffffffff\n      and\n      0xffffffffffffffffffffffffffffffffffffffff\n      and\n      dup2\n      mstore\n      0x20\n      add\n      swap1\n      dup2\n      mstore\n      0x20\n      add\n      0x00\n      keccak256\n      0x00\n        /* \"temp.sol\":4854:4903  g__ProposalVoting[proposal_id][msg.sender] = true */\n      0x0100\n      exp\n      dup2\n      sload\n      dup2\n      0xff\n      mul\n      not\n      and\n      swap1\n      dup4\n      iszero\n      iszero\n      mul\n      or\n      swap1\n      sstore\n      pop\n        /* \"temp.sol\":4232:4908  function member__proposal_vote(string memory proposal_id,VoteType vote_type) external {... */\n      pop\n      pop\n      jump\t// out\n        /* \"temp.sol\":1648:1946  function ut__get_index(address user_address) internal view returns(uint) {... */\n    tag_57:\n        /* \"temp.sol\":1715:1719  uint */\n      0x00\n        /* \"temp.sol\":1755:1756  0 */\n      dup1\n        /* \"temp.sol\":1730:1744  g__MemberArray */\n      0x01\n        /* \"temp.sol\":1730:1751  g__MemberArray.length */\n      dup1\n      sload\n      swap1\n      pop\n        /* \"temp.sol\":1730:1756  g__MemberArray.length == 0 */\n      sub\n        /* \"temp.sol\":1727:1780  if(g__MemberArray.length == 0){... */\n      tag_210\n      jumpi\n        /* \"temp.sol\":1772:1773  0 */\n      0x00\n        /* \"temp.sol\":1765:1773  return 0 */\n      swap1\n      pop\n      jump(tag_209)\n        /* \"temp.sol\":1727:1780  if(g__MemberArray.length == 0){... */\n    tag_210:\n        /* \"temp.sol\":1789:1795  uint i */\n      0x00\n        /* \"temp.sol\":1785:1928  for(uint i = 0; uint(i) < g__MemberArray.length; i = (i + 1)){... */\n    tag_211:\n        /* \"temp.sol\":1811:1825  g__MemberArray */\n      0x01\n        /* \"temp.sol\":1811:1832  g__MemberArray.length */\n      dup1\n      sload\n      swap1\n      pop\n        /* \"temp.sol\":1806:1807  i */\n      dup2\n        /* \"temp.sol\":1801:1832  uint(i) < g__MemberArray.length */\n      lt\n        /* \"temp.sol\":1785:1928  for(uint i = 0; uint(i) < g__MemberArray.length; i = (i + 1)){... */\n      iszero\n      tag_212\n      jumpi\n        /* \"temp.sol\":1878:1890  user_address */\n      dup3\n        /* \"temp.sol\":1857:1890  g__MemberArray[i] == user_address */\n      0xffffffffffffffffffffffffffffffffffffffff\n      and\n        /* \"temp.sol\":1857:1871  g__MemberArray */\n      0x01\n        /* \"temp.sol\":1872:1873  i */\n      dup3\n        /* \"temp.sol\":1857:1874  g__MemberArray[i] */\n      dup2\n      sload\n      dup2\n      lt\n      tag_214\n      jumpi\n      tag_215\n      tag_216\n      jump\t// in\n    tag_215:\n    tag_214:\n      swap1\n      0x00\n      mstore\n      keccak256(0x00, 0x20)\n      add\n      0x00\n      swap1\n      sload\n      swap1\n      0x0100\n      exp\n      swap1\n      div\n      0xffffffffffffffffffffffffffffffffffffffff\n      and\n        /* \"temp.sol\":1857:1890  g__MemberArray[i] == user_address */\n      0xffffffffffffffffffffffffffffffffffffffff\n      and\n      sub\n        /* \"temp.sol\":1854:1922  if(g__MemberArray[i] == user_address){... */\n      tag_218\n      jumpi\n        /* \"temp.sol\":1912:1913  1 */\n      0x01\n        /* \"temp.sol\":1908:1909  i */\n      dup2\n        /* \"temp.sol\":1908:1913  i + 1 */\n      tag_219\n      swap2\n      swap1\n      tag_220\n      jump\t// in\n    tag_219:\n        /* \"temp.sol\":1901:1913  return i + 1 */\n      swap2\n      pop\n      pop\n      jump(tag_209)\n        /* \"temp.sol\":1854:1922  if(g__MemberArray[i] == user_address){... */\n    tag_218:\n        /* \"temp.sol\":1843:1844  1 */\n      0x01\n        /* \"temp.sol\":1839:1840  i */\n      dup2\n        /* \"temp.sol\":1839:1844  i + 1 */\n      tag_221\n      swap2\n      swap1\n      tag_220\n      jump\t// in\n    tag_221:\n        /* \"temp.sol\":1834:1845  i = (i + 1) */\n      swap1\n      pop\n        /* \"temp.sol\":1785:1928  for(uint i = 0; uint(i) < g__MemberArray.length; i = (i + 1)){... */\n      jump(tag_211)\n    tag_212:\n      pop\n        /* \"temp.sol\":1940:1941  0 */\n      0x00\n        /* \"temp.sol\":1933:1941  return 0 */\n      swap1\n      pop\n        /* \"temp.sol\":1648:1946  function ut__get_index(address user_address) internal view returns(uint) {... */\n    tag_209:\n      swap2\n      swap1\n      pop\n      jump\t// out\n        /* \"temp.sol\":1114:1642  function ut__get_quorum(string memory proposal_id) internal view returns(bool) {... */\n    tag_132:\n        /* \"temp.sol\":1187:1191  bool */\n      0x00\n        /* \"temp.sol\":1199:1223  Proposal memory proposal */\n      dup1\n        /* \"temp.sol\":1226:1243  g__ProposalLookup */\n      0x03\n        /* \"temp.sol\":1244:1255  proposal_id */\n      dup4\n        /* \"temp.sol\":1226:1256  g__ProposalLookup[proposal_id] */\n      mload(0x40)\n      tag_223\n      swap2\n      swap1\n      tag_72\n      jump\t// in\n    tag_223:\n      swap1\n      dup2\n      mstore\n      0x20\n      add\n      mload(0x40)\n      dup1\n      swap2\n      sub\n      swap1\n      keccak256\n        /* \"temp.sol\":1199:1256  Proposal memory proposal = g__ProposalLookup[proposal_id] */\n      mload(0x40)\n      dup1\n      0xe0\n      add\n      0x40\n      mstore\n      swap1\n      dup2\n      0x00\n      dup3\n      add\n      0x00\n      swap1\n      sload\n      swap1\n      0x0100\n      exp\n      swap1\n      div\n      0xff\n      and\n      0x04\n      dup2\n      gt\n      iszero\n      tag_224\n      jumpi\n      tag_225\n      tag_65\n      jump\t// in\n    tag_225:\n    tag_224:\n      0x04\n      dup2\n      gt\n      iszero\n      tag_226\n      jumpi\n      tag_227\n      tag_65\n      jump\t// in\n    tag_227:\n    tag_226:\n      dup2\n      mstore\n      0x20\n      add\n      0x00\n      dup3\n      add\n      0x01\n      swap1\n      sload\n      swap1\n      0x0100\n      exp\n      swap1\n      div\n      0xff\n      and\n      0x02\n      dup2\n      gt\n      iszero\n      tag_228\n      jumpi\n      tag_229\n      tag_65\n      jump\t// in\n    tag_229:\n    tag_228:\n      0x02\n      dup2\n      gt\n      iszero\n      tag_230\n      jumpi\n      tag_231\n      tag_65\n      jump\t// in\n    tag_231:\n    tag_230:\n      dup2\n      mstore\n      0x20\n      add\n      0x00\n      dup3\n      add\n      0x02\n      swap1\n      sload\n      swap1\n      0x0100\n      exp\n      swap1\n      div\n      0xffffffffffffffffffffffffffffffffffffffff\n      and\n      0xffffffffffffffffffffffffffffffffffffffff\n      and\n      0xffffffffffffffffffffffffffffffffffffffff\n      and\n      dup2\n      mstore\n      0x20\n      add\n      0x00\n      dup3\n      add\n      0x16\n      swap1\n      sload\n      swap1\n      0x0100\n      exp\n      swap1\n      div\n      0xff\n      and\n      0xff\n      and\n      0xff\n      and\n      dup2\n      mstore\n      0x20\n      add\n      0x00\n      dup3\n      add\n      0x17\n      swap1\n      sload\n      swap1\n      0x0100\n      exp\n      swap1\n      div\n      0xff\n      and\n      0xff\n      and\n      0xff\n      and\n      dup2\n      mstore\n      0x20\n      add\n      0x00\n      dup3\n      add\n      0x18\n      swap1\n      sload\n      swap1\n      0x0100\n      exp\n      swap1\n      div\n      0xff\n      and\n      0xff\n      and\n      0xff\n      and\n      dup2\n      mstore\n      0x20\n      add\n      0x00\n      dup3\n      add\n      0x19\n      swap1\n      sload\n      swap1\n      0x0100\n      exp\n      swap1\n      div\n      0xff\n      and\n      0xff\n      and\n      0xff\n      and\n      dup2\n      mstore\n      pop\n      pop\n      swap1\n      pop\n        /* \"temp.sol\":1290:1298  proposal */\n      dup1\n        /* \"temp.sol\":1290:1314  proposal.total_abstained */\n      0xa0\n      add\n      mload\n        /* \"temp.sol\":1265:1314  proposal.total_voting == proposal.total_abstained */\n      0xff\n      and\n        /* \"temp.sol\":1265:1273  proposal */\n      dup2\n        /* \"temp.sol\":1265:1286  proposal.total_voting */\n      0xc0\n      add\n      mload\n        /* \"temp.sol\":1265:1314  proposal.total_voting == proposal.total_abstained */\n      0xff\n      and\n      sub\n        /* \"temp.sol\":1262:1342  if(proposal.total_voting == proposal.total_abstained){... */\n      tag_232\n      jumpi\n        /* \"temp.sol\":1330:1335  false */\n      0x00\n        /* \"temp.sol\":1323:1335  return false */\n      swap2\n      pop\n      pop\n      jump(tag_222)\n        /* \"temp.sol\":1262:1342  if(proposal.total_voting == proposal.total_abstained){... */\n    tag_232:\n        /* \"temp.sol\":1347:1357  uint total */\n      0x00\n        /* \"temp.sol\":1385:1393  proposal */\n      dup2\n        /* \"temp.sol\":1385:1409  proposal.total_abstained */\n      0xa0\n      add\n      mload\n        /* \"temp.sol\":1361:1369  proposal */\n      dup3\n        /* \"temp.sol\":1361:1382  proposal.total_voting */\n      0xc0\n      add\n      mload\n        /* \"temp.sol\":1361:1409  proposal.total_voting - proposal.total_abstained */\n      tag_233\n      swap2\n      swap1\n      tag_234\n      jump\t// in\n    tag_233:\n        /* \"temp.sol\":1347:1410  uint total = (proposal.total_voting - proposal.total_abstained) */\n      0xff\n      and\n      swap1\n      pop\n        /* \"temp.sol\":1458:1473  g__MemberQuorum */\n      0x00\n      dup1\n      sload\n      swap1\n      0x0100\n      exp\n      swap1\n      div\n      0xff\n      and\n        /* \"temp.sol\":1419:1473  ((proposal.total_yes * 100) / total) > g__MemberQuorum */\n      0xff\n      and\n        /* \"temp.sol\":1449:1454  total */\n      dup2\n        /* \"temp.sol\":1442:1445  100 */\n      0x64\n        /* \"temp.sol\":1421:1429  proposal */\n      dup5\n        /* \"temp.sol\":1421:1439  proposal.total_yes */\n      0x60\n      add\n      mload\n        /* \"temp.sol\":1421:1445  proposal.total_yes * 100 */\n      tag_235\n      swap2\n      swap1\n      tag_236\n      jump\t// in\n    tag_235:\n        /* \"temp.sol\":1420:1454  (proposal.total_yes * 100) / total */\n      0xff\n      and\n      tag_237\n      swap2\n      swap1\n      tag_238\n      jump\t// in\n    tag_237:\n        /* \"temp.sol\":1419:1473  ((proposal.total_yes * 100) / total) > g__MemberQuorum */\n      gt\n        /* \"temp.sol\":1416:1638  if(((proposal.total_yes * 100) / total) > g__MemberQuorum){... */\n      iszero\n      tag_239\n      jumpi\n        /* \"temp.sol\":1489:1493  true */\n      0x01\n        /* \"temp.sol\":1482:1493  return true */\n      swap3\n      pop\n      pop\n      pop\n      jump(tag_222)\n        /* \"temp.sol\":1416:1638  if(((proposal.total_yes * 100) / total) > g__MemberQuorum){... */\n    tag_239:\n        /* \"temp.sol\":1551:1566  g__MemberQuorum */\n      0x00\n      dup1\n      sload\n      swap1\n      0x0100\n      exp\n      swap1\n      div\n      0xff\n      and\n        /* \"temp.sol\":1513:1566  ((proposal.total_no * 100) / total) > g__MemberQuorum */\n      0xff\n      and\n        /* \"temp.sol\":1542:1547  total */\n      dup2\n        /* \"temp.sol\":1535:1538  100 */\n      0x64\n        /* \"temp.sol\":1515:1523  proposal */\n      dup5\n        /* \"temp.sol\":1515:1532  proposal.total_no */\n      0x80\n      add\n      mload\n        /* \"temp.sol\":1515:1538  proposal.total_no * 100 */\n      tag_241\n      swap2\n      swap1\n      tag_236\n      jump\t// in\n    tag_241:\n        /* \"temp.sol\":1514:1547  (proposal.total_no * 100) / total */\n      0xff\n      and\n      tag_242\n      swap2\n      swap1\n      tag_238\n      jump\t// in\n    tag_242:\n        /* \"temp.sol\":1513:1566  ((proposal.total_no * 100) / total) > g__MemberQuorum */\n      gt\n        /* \"temp.sol\":1510:1638  if(((proposal.total_no * 100) / total) > g__MemberQuorum){... */\n      iszero\n      tag_243\n      jumpi\n        /* \"temp.sol\":1582:1587  false */\n      0x00\n        /* \"temp.sol\":1575:1587  return false */\n      swap3\n      pop\n      pop\n      pop\n      jump(tag_222)\n        /* \"temp.sol\":1510:1638  if(((proposal.total_no * 100) / total) > g__MemberQuorum){... */\n    tag_243:\n        /* \"temp.sol\":1611:1631  revert(\"No Quorum.\") */\n      mload(0x40)\n      0x08c379a000000000000000000000000000000000000000000000000000000000\n      dup2\n      mstore\n      0x04\n      add\n      tag_245\n      swap1\n      tag_246\n      jump\t// in\n    tag_245:\n      mload(0x40)\n      dup1\n      swap2\n      sub\n      swap1\n      revert\n        /* \"temp.sol\":1114:1642  function ut__get_quorum(string memory proposal_id) internal view returns(bool) {... */\n    tag_222:\n      swap2\n      swap1\n      pop\n      jump\t// out\n        /* \"temp.sol\":2935:3152  function action__member_add(string memory proposal_id,address user_address) internal {... */\n    tag_148:\n        /* \"temp.sol\":3029:3054  ut__get_add(user_address) */\n      tag_248\n        /* \"temp.sol\":3041:3053  user_address */\n      dup2\n        /* \"temp.sol\":3029:3040  ut__get_add */\n      tag_249\n        /* \"temp.sol\":3029:3054  ut__get_add(user_address) */\n      jump\t// in\n    tag_248:\n        /* \"temp.sol\":3026:3148  if(ut__get_add(user_address)){... */\n      iszero\n      tag_250\n      jumpi\n        /* \"temp.sol\":3068:3141  CouncilEvent(\"member_add\",proposal_id,user_address,g__MemberArray.length) */\n      0x594548f29e804558d875faeffff31d44739100e22878a2bef637426d5f03a9e0\n        /* \"temp.sol\":3094:3105  proposal_id */\n      dup3\n        /* \"temp.sol\":3106:3118  user_address */\n      dup3\n        /* \"temp.sol\":3119:3133  g__MemberArray */\n      0x01\n        /* \"temp.sol\":3119:3140  g__MemberArray.length */\n      dup1\n      sload\n      swap1\n      pop\n        /* \"temp.sol\":3068:3141  CouncilEvent(\"member_add\",proposal_id,user_address,g__MemberArray.length) */\n      mload(0x40)\n      tag_251\n      swap4\n      swap3\n      swap2\n      swap1\n      tag_252\n      jump\t// in\n    tag_251:\n      mload(0x40)\n      dup1\n      swap2\n      sub\n      swap1\n      log1\n        /* \"temp.sol\":3026:3148  if(ut__get_add(user_address)){... */\n    tag_250:\n        /* \"temp.sol\":2935:3152  function action__member_add(string memory proposal_id,address user_address) internal {... */\n      pop\n      pop\n      jump\t// out\n        /* \"temp.sol\":3158:3384  function action__member_remove(string memory proposal_id,address user_address) internal {... */\n    tag_156:\n        /* \"temp.sol\":3255:3283  ut__get_remove(user_address) */\n      tag_254\n        /* \"temp.sol\":3270:3282  user_address */\n      dup2\n        /* \"temp.sol\":3255:3269  ut__get_remove */\n      tag_255\n        /* \"temp.sol\":3255:3283  ut__get_remove(user_address) */\n      jump\t// in\n    tag_254:\n        /* \"temp.sol\":3252:3380  if(ut__get_remove(user_address)){... */\n      iszero\n      tag_256\n      jumpi\n        /* \"temp.sol\":3297:3373  CouncilEvent(\"member_remove\",proposal_id,user_address,g__MemberArray.length) */\n      0x594548f29e804558d875faeffff31d44739100e22878a2bef637426d5f03a9e0\n        /* \"temp.sol\":3326:3337  proposal_id */\n      dup3\n        /* \"temp.sol\":3338:3350  user_address */\n      dup3\n        /* \"temp.sol\":3351:3365  g__MemberArray */\n      0x01\n        /* \"temp.sol\":3351:3372  g__MemberArray.length */\n      dup1\n      sload\n      swap1\n      pop\n        /* \"temp.sol\":3297:3373  CouncilEvent(\"member_remove\",proposal_id,user_address,g__MemberArray.length) */\n      mload(0x40)\n      tag_257\n      swap4\n      swap3\n      swap2\n      swap1\n      tag_258\n      jump\t// in\n    tag_257:\n      mload(0x40)\n      dup1\n      swap2\n      sub\n      swap1\n      log1\n        /* \"temp.sol\":3252:3380  if(ut__get_remove(user_address)){... */\n    tag_256:\n        /* \"temp.sol\":3158:3384  function action__member_remove(string memory proposal_id,address user_address) internal {... */\n      pop\n      pop\n      jump\t// out\n        /* \"temp.sol\":2500:2929  function action__member_take_profit(string memory proposal_id,address erc20_address) internal {... */\n    tag_164:\n        /* \"temp.sol\":2600:2612  IERC20 erc20 */\n      0x00\n        /* \"temp.sol\":2622:2635  erc20_address */\n      dup2\n        /* \"temp.sol\":2600:2636  IERC20 erc20 = IERC20(erc20_address) */\n      swap1\n      pop\n        /* \"temp.sol\":2642:2652  uint total */\n      0x00\n        /* \"temp.sol\":2655:2660  erc20 */\n      dup2\n        /* \"temp.sol\":2655:2670  erc20.balanceOf */\n      0xffffffffffffffffffffffffffffffffffffffff\n      and\n      0x70a08231\n        /* \"temp.sol\":2679:2683  this */\n      address\n        /* \"temp.sol\":2655:2685  erc20.balanceOf(address(this)) */\n      mload(0x40)\n      dup3\n      0xffffffff\n      and\n      0xe0\n      shl\n      dup2\n      mstore\n      0x04\n      add\n      tag_260\n      swap2\n      swap1\n      tag_38\n      jump\t// in\n    tag_260:\n      0x20\n      mload(0x40)\n      dup1\n      dup4\n      sub\n      dup2\n      dup7\n      gas\n      staticcall\n      iszero\n      dup1\n      iszero\n      tag_262\n      jumpi\n      returndatasize\n      0x00\n      dup1\n      returndatacopy\n      revert(0x00, returndatasize)\n    tag_262:\n      pop\n      pop\n      pop\n      pop\n      mload(0x40)\n      returndatasize\n      not(0x1f)\n      0x1f\n      dup3\n      add\n      and\n      dup3\n      add\n      dup1\n      0x40\n      mstore\n      pop\n      dup2\n      add\n      swap1\n      tag_263\n      swap2\n      swap1\n      tag_264\n      jump\t// in\n    tag_263:\n        /* \"temp.sol\":2642:2685  uint total = erc20.balanceOf(address(this)) */\n      swap1\n      pop\n        /* \"temp.sol\":2691:2700  uint part */\n      0x00\n        /* \"temp.sol\":2712:2726  g__MemberArray */\n      0x01\n        /* \"temp.sol\":2712:2733  g__MemberArray.length */\n      dup1\n      sload\n      swap1\n      pop\n        /* \"temp.sol\":2704:2709  total */\n      dup3\n        /* \"temp.sol\":2704:2733  total / g__MemberArray.length */\n      tag_265\n      swap2\n      swap1\n      tag_238\n      jump\t// in\n    tag_265:\n        /* \"temp.sol\":2691:2734  uint part = (total / g__MemberArray.length) */\n      swap1\n      pop\n        /* \"temp.sol\":2744:2750  uint i */\n      0x00\n        /* \"temp.sol\":2740:2848  for(uint i = 0; i < g__MemberArray.length; i = (i + 1)){... */\n    tag_266:\n        /* \"temp.sol\":2760:2774  g__MemberArray */\n      0x01\n        /* \"temp.sol\":2760:2781  g__MemberArray.length */\n      dup1\n      sload\n      swap1\n      pop\n        /* \"temp.sol\":2756:2757  i */\n      dup2\n        /* \"temp.sol\":2756:2781  i < g__MemberArray.length */\n      lt\n        /* \"temp.sol\":2740:2848  for(uint i = 0; i < g__MemberArray.length; i = (i + 1)){... */\n      iszero\n      tag_267\n      jumpi\n        /* \"temp.sol\":2803:2808  erc20 */\n      dup4\n        /* \"temp.sol\":2803:2817  erc20.transfer */\n      0xffffffffffffffffffffffffffffffffffffffff\n      and\n      0xa9059cbb\n        /* \"temp.sol\":2818:2832  g__MemberArray */\n      0x01\n        /* \"temp.sol\":2833:2834  i */\n      dup4\n        /* \"temp.sol\":2818:2835  g__MemberArray[i] */\n      dup2\n      sload\n      dup2\n      lt\n      tag_269\n      jumpi\n      tag_270\n      tag_216\n      jump\t// in\n    tag_270:\n    tag_269:\n      swap1\n      0x00\n      mstore\n      keccak256(0x00, 0x20)\n      add\n      0x00\n      swap1\n      sload\n      swap1\n      0x0100\n      exp\n      swap1\n      div\n      0xffffffffffffffffffffffffffffffffffffffff\n      and\n        /* \"temp.sol\":2836:2840  part */\n      dup5\n        /* \"temp.sol\":2803:2841  erc20.transfer(g__MemberArray[i],part) */\n      mload(0x40)\n      dup4\n      0xffffffff\n      and\n      0xe0\n      shl\n      dup2\n      mstore\n      0x04\n      add\n      tag_272\n      swap3\n      swap2\n      swap1\n      tag_273\n      jump\t// in\n    tag_272:\n      0x20\n      mload(0x40)\n      dup1\n      dup4\n      sub\n      dup2\n      0x00\n      dup8\n      gas\n      call\n      iszero\n      dup1\n      iszero\n      tag_275\n      jumpi\n      returndatasize\n      0x00\n      dup1\n      returndatacopy\n      revert(0x00, returndatasize)\n    tag_275:\n      pop\n      pop\n      pop\n      pop\n      mload(0x40)\n      returndatasize\n      not(0x1f)\n      0x1f\n      dup3\n      add\n      and\n      dup3\n      add\n      dup1\n      0x40\n      mstore\n      pop\n      dup2\n      add\n      swap1\n      tag_276\n      swap2\n      swap1\n      tag_277\n      jump\t// in\n    tag_276:\n      pop\n        /* \"temp.sol\":2792:2793  1 */\n      0x01\n        /* \"temp.sol\":2788:2789  i */\n      dup2\n        /* \"temp.sol\":2788:2793  i + 1 */\n      tag_278\n      swap2\n      swap1\n      tag_220\n      jump\t// in\n    tag_278:\n        /* \"temp.sol\":2783:2794  i = (i + 1) */\n      swap1\n      pop\n        /* \"temp.sol\":2740:2848  for(uint i = 0; i < g__MemberArray.length; i = (i + 1)){... */\n      jump(tag_266)\n    tag_267:\n      pop\n        /* \"temp.sol\":2858:2924  CouncilEvent(\"member_take_profit\",proposal_id,erc20_address,total) */\n      0x594548f29e804558d875faeffff31d44739100e22878a2bef637426d5f03a9e0\n        /* \"temp.sol\":2892:2903  proposal_id */\n      dup6\n        /* \"temp.sol\":2904:2917  erc20_address */\n      dup6\n        /* \"temp.sol\":2918:2923  total */\n      dup5\n        /* \"temp.sol\":2858:2924  CouncilEvent(\"member_take_profit\",proposal_id,erc20_address,total) */\n      mload(0x40)\n      tag_279\n      swap4\n      swap3\n      swap2\n      swap1\n      tag_280\n      jump\t// in\n    tag_279:\n      mload(0x40)\n      dup1\n      swap2\n      sub\n      swap1\n      log1\n        /* \"temp.sol\":2594:2929  {... */\n      pop\n      pop\n      pop\n        /* \"temp.sol\":2500:2929  function action__member_take_profit(string memory proposal_id,address erc20_address) internal {... */\n      pop\n      pop\n      jump\t// out\n        /* \"temp.sol\":2263:2494  function ut__get_add(address user_address) internal returns(bool) {... */\n    tag_249:\n        /* \"temp.sol\":2323:2327  bool */\n      0x00\n        /* \"temp.sol\":2335:2341  uint i */\n      dup1\n        /* \"temp.sol\":2344:2371  ut__get_index(user_address) */\n      tag_282\n        /* \"temp.sol\":2358:2370  user_address */\n      dup4\n        /* \"temp.sol\":2344:2357  ut__get_index */\n      tag_57\n        /* \"temp.sol\":2344:2371  ut__get_index(user_address) */\n      jump\t// in\n    tag_282:\n        /* \"temp.sol\":2335:2371  uint i = ut__get_index(user_address) */\n      swap1\n      pop\n        /* \"temp.sol\":2385:2386  0 */\n      0x00\n        /* \"temp.sol\":2380:2381  i */\n      dup2\n        /* \"temp.sol\":2380:2386  i == 0 */\n      sub\n        /* \"temp.sol\":2377:2490  if(i == 0){... */\n      tag_283\n      jumpi\n        /* \"temp.sol\":2395:2409  g__MemberArray */\n      0x01\n        /* \"temp.sol\":2415:2427  user_address */\n      dup4\n        /* \"temp.sol\":2395:2428  g__MemberArray.push(user_address) */\n      swap1\n      dup1\n      0x01\n      dup2\n      sload\n      add\n      dup1\n      dup3\n      sstore\n      dup1\n      swap2\n      pop\n      pop\n      0x01\n      swap1\n      sub\n      swap1\n      0x00\n      mstore\n      keccak256(0x00, 0x20)\n      add\n      0x00\n      swap1\n      swap2\n      swap1\n      swap2\n      swap1\n      swap2\n      0x0100\n      exp\n      dup2\n      sload\n      dup2\n      0xffffffffffffffffffffffffffffffffffffffff\n      mul\n      not\n      and\n      swap1\n      dup4\n      0xffffffffffffffffffffffffffffffffffffffff\n      and\n      mul\n      or\n      swap1\n      sstore\n      pop\n        /* \"temp.sol\":2443:2447  true */\n      0x01\n        /* \"temp.sol\":2436:2447  return true */\n      swap2\n      pop\n      pop\n      jump(tag_281)\n        /* \"temp.sol\":2377:2490  if(i == 0){... */\n    tag_283:\n        /* \"temp.sol\":2478:2483  false */\n      0x00\n        /* \"temp.sol\":2471:2483  return false */\n      swap2\n      pop\n      pop\n        /* \"temp.sol\":2263:2494  function ut__get_add(address user_address) internal returns(bool) {... */\n    tag_281:\n      swap2\n      swap1\n      pop\n      jump\t// out\n        /* \"temp.sol\":1952:2257  function ut__get_remove(address user_address) internal returns(bool) {... */\n    tag_255:\n        /* \"temp.sol\":2015:2019  bool */\n      0x00\n        /* \"temp.sol\":2027:2033  uint i */\n      dup1\n        /* \"temp.sol\":2036:2063  ut__get_index(user_address) */\n      tag_287\n        /* \"temp.sol\":2050:2062  user_address */\n      dup4\n        /* \"temp.sol\":2036:2049  ut__get_index */\n      tag_57\n        /* \"temp.sol\":2036:2063  ut__get_index(user_address) */\n      jump\t// in\n    tag_287:\n        /* \"temp.sol\":2027:2063  uint i = ut__get_index(user_address) */\n      swap1\n      pop\n        /* \"temp.sol\":2077:2078  0 */\n      0x00\n        /* \"temp.sol\":2072:2073  i */\n      dup2\n        /* \"temp.sol\":2072:2078  i == 0 */\n      sub\n        /* \"temp.sol\":2069:2106  if(i == 0){... */\n      tag_288\n      jumpi\n        /* \"temp.sol\":2094:2099  false */\n      0x00\n        /* \"temp.sol\":2087:2099  return false */\n      swap2\n      pop\n      pop\n      jump(tag_286)\n        /* \"temp.sol\":2069:2106  if(i == 0){... */\n    tag_288:\n        /* \"temp.sol\":2111:2124  uint last_idx */\n      0x00\n        /* \"temp.sol\":2152:2153  1 */\n      0x01\n        /* \"temp.sol\":2128:2142  g__MemberArray */\n      dup1\n        /* \"temp.sol\":2128:2149  g__MemberArray.length */\n      dup1\n      sload\n      swap1\n      pop\n        /* \"temp.sol\":2128:2153  g__MemberArray.length - 1 */\n      tag_289\n      swap2\n      swap1\n      tag_290\n      jump\t// in\n    tag_289:\n        /* \"temp.sol\":2111:2154  uint last_idx = (g__MemberArray.length - 1) */\n      swap1\n      pop\n        /* \"temp.sol\":2185:2199  g__MemberArray */\n      0x01\n        /* \"temp.sol\":2200:2208  last_idx */\n      dup2\n        /* \"temp.sol\":2185:2209  g__MemberArray[last_idx] */\n      dup2\n      sload\n      dup2\n      lt\n      tag_291\n      jumpi\n      tag_292\n      tag_216\n      jump\t// in\n    tag_292:\n    tag_291:\n      swap1\n      0x00\n      mstore\n      keccak256(0x00, 0x20)\n      add\n      0x00\n      swap1\n      sload\n      swap1\n      0x0100\n      exp\n      swap1\n      div\n      0xffffffffffffffffffffffffffffffffffffffff\n      and\n        /* \"temp.sol\":2160:2209  g__MemberArray[i - 1] == g__MemberArray[last_idx] */\n      0xffffffffffffffffffffffffffffffffffffffff\n      and\n        /* \"temp.sol\":2160:2174  g__MemberArray */\n      0x01\n        /* \"temp.sol\":2179:2180  1 */\n      dup1\n        /* \"temp.sol\":2175:2176  i */\n      dup5\n        /* \"temp.sol\":2175:2180  i - 1 */\n      tag_294\n      swap2\n      swap1\n      tag_290\n      jump\t// in\n    tag_294:\n        /* \"temp.sol\":2160:2181  g__MemberArray[i - 1] */\n      dup2\n      sload\n      dup2\n      lt\n      tag_295\n      jumpi\n      tag_296\n      tag_216\n      jump\t// in\n    tag_296:\n    tag_295:\n      swap1\n      0x00\n      mstore\n      keccak256(0x00, 0x20)\n      add\n      0x00\n      swap1\n      sload\n      swap1\n      0x0100\n      exp\n      swap1\n      pop\n      pop\n        /* \"temp.sol\":2160:2209  g__MemberArray[i - 1] == g__MemberArray[last_idx] */\n      pop\n        /* \"temp.sol\":2215:2229  g__MemberArray */\n      0x01\n        /* \"temp.sol\":2215:2235  g__MemberArray.pop() */\n      dup1\n      sload\n      dup1\n      tag_298\n      jumpi\n      tag_299\n      tag_300\n      jump\t// in\n    tag_299:\n    tag_298:\n      0x01\n      swap1\n      sub\n      dup2\n      dup2\n      swap1\n      0x00\n      mstore\n      keccak256(0x00, 0x20)\n      add\n      exp(0x0100, 0x00)\n      dup2\n      sload\n      swap1\n      0xffffffffffffffffffffffffffffffffffffffff\n      mul\n      not\n      and\n      swap1\n      sstore\n      swap1\n      sstore\n        /* \"temp.sol\":2248:2252  true */\n      0x01\n        /* \"temp.sol\":2241:2252  return true */\n      swap3\n      pop\n      pop\n      pop\n        /* \"temp.sol\":1952:2257  function ut__get_remove(address user_address) internal returns(bool) {... */\n    tag_286:\n      swap2\n      swap1\n      pop\n      jump\t// out\n    tag_115:\n      pop\n      dup1\n      sload\n      tag_302\n      swap1\n      tag_166\n      jump\t// in\n    tag_302:\n      0x00\n      dup3\n      sstore\n      dup1\n      0x1f\n      lt\n      tag_304\n      jumpi\n      pop\n      jump(tag_303)\n    tag_304:\n      0x1f\n      add\n      0x20\n      swap1\n      div\n      swap1\n      0x00\n      mstore\n      keccak256(0x00, 0x20)\n      swap1\n      dup2\n      add\n      swap1\n      tag_305\n      swap2\n      swap1\n      tag_306\n      jump\t// in\n    tag_305:\n    tag_303:\n      pop\n      jump\t// out\n    tag_306:\n    tag_307:\n      dup1\n      dup3\n      gt\n      iszero\n      tag_308\n      jumpi\n      0x00\n      dup2\n      0x00\n      swap1\n      sstore\n      pop\n      0x01\n      add\n      jump(tag_307)\n    tag_308:\n      pop\n      swap1\n      jump\t// out\n        /* \"#utility.yul\":7:82   */\n    tag_309:\n        /* \"#utility.yul\":40:46   */\n      0x00\n        /* \"#utility.yul\":73:75   */\n      0x40\n        /* \"#utility.yul\":67:76   */\n      mload\n        /* \"#utility.yul\":57:76   */\n      swap1\n      pop\n        /* \"#utility.yul\":7:82   */\n      swap1\n      jump\t// out\n        /* \"#utility.yul\":88:205   */\n    tag_310:\n        /* \"#utility.yul\":197:198   */\n      0x00\n        /* \"#utility.yul\":194:195   */\n      dup1\n        /* \"#utility.yul\":187:199   */\n      revert\n        /* \"#utility.yul\":211:328   */\n    tag_311:\n        /* \"#utility.yul\":320:321   */\n      0x00\n        /* \"#utility.yul\":317:318   */\n      dup1\n        /* \"#utility.yul\":310:322   */\n      revert\n        /* \"#utility.yul\":334:451   */\n    tag_312:\n        /* \"#utility.yul\":443:444   */\n      0x00\n        /* \"#utility.yul\":440:441   */\n      dup1\n        /* \"#utility.yul\":433:445   */\n      revert\n        /* \"#utility.yul\":457:574   */\n    tag_313:\n        /* \"#utility.yul\":566:567   */\n      0x00\n        /* \"#utility.yul\":563:564   */\n      dup1\n        /* \"#utility.yul\":556:568   */\n      revert\n        /* \"#utility.yul\":580:682   */\n    tag_314:\n        /* \"#utility.yul\":621:627   */\n      0x00\n        /* \"#utility.yul\":672:674   */\n      0x1f\n        /* \"#utility.yul\":668:675   */\n      not\n        /* \"#utility.yul\":663:665   */\n      0x1f\n        /* \"#utility.yul\":656:661   */\n      dup4\n        /* \"#utility.yul\":652:666   */\n      add\n        /* \"#utility.yul\":648:676   */\n      and\n        /* \"#utility.yul\":638:676   */\n      swap1\n      pop\n        /* \"#utility.yul\":580:682   */\n      swap2\n      swap1\n      pop\n      jump\t// out\n        /* \"#utility.yul\":688:868   */\n    tag_315:\n        /* \"#utility.yul\":736:813   */\n      0x4e487b7100000000000000000000000000000000000000000000000000000000\n        /* \"#utility.yul\":733:734   */\n      0x00\n        /* \"#utility.yul\":726:814   */\n      mstore\n        /* \"#utility.yul\":833:837   */\n      0x41\n        /* \"#utility.yul\":830:831   */\n      0x04\n        /* \"#utility.yul\":823:838   */\n      mstore\n        /* \"#utility.yul\":857:861   */\n      0x24\n        /* \"#utility.yul\":854:855   */\n      0x00\n        /* \"#utility.yul\":847:862   */\n      revert\n        /* \"#utility.yul\":874:1155   */\n    tag_316:\n        /* \"#utility.yul\":957:984   */\n      tag_402\n        /* \"#utility.yul\":979:983   */\n      dup3\n        /* \"#utility.yul\":957:984   */\n      tag_314\n      jump\t// in\n    tag_402:\n        /* \"#utility.yul\":949:955   */\n      dup2\n        /* \"#utility.yul\":945:985   */\n      add\n        /* \"#utility.yul\":1087:1093   */\n      dup2\n        /* \"#utility.yul\":1075:1085   */\n      dup2\n        /* \"#utility.yul\":1072:1094   */\n      lt\n        /* \"#utility.yul\":1051:1069   */\n      0xffffffffffffffff\n        /* \"#utility.yul\":1039:1049   */\n      dup3\n        /* \"#utility.yul\":1036:1070   */\n      gt\n        /* \"#utility.yul\":1033:1095   */\n      or\n        /* \"#utility.yul\":1030:1118   */\n      iszero\n      tag_403\n      jumpi\n        /* \"#utility.yul\":1098:1116   */\n      tag_404\n      tag_315\n      jump\t// in\n    tag_404:\n        /* \"#utility.yul\":1030:1118   */\n    tag_403:\n        /* \"#utility.yul\":1138:1148   */\n      dup1\n        /* \"#utility.yul\":1134:1136   */\n      0x40\n        /* \"#utility.yul\":1127:1149   */\n      mstore\n        /* \"#utility.yul\":917:1155   */\n      pop\n        /* \"#utility.yul\":874:1155   */\n      pop\n      pop\n      jump\t// out\n        /* \"#utility.yul\":1161:1290   */\n    tag_317:\n        /* \"#utility.yul\":1195:1201   */\n      0x00\n        /* \"#utility.yul\":1222:1242   */\n      tag_406\n      tag_309\n      jump\t// in\n    tag_406:\n        /* \"#utility.yul\":1212:1242   */\n      swap1\n      pop\n        /* \"#utility.yul\":1251:1284   */\n      tag_407\n        /* \"#utility.yul\":1279:1283   */\n      dup3\n        /* \"#utility.yul\":1271:1277   */\n      dup3\n        /* \"#utility.yul\":1251:1284   */\n      tag_316\n      jump\t// in\n    tag_407:\n        /* \"#utility.yul\":1161:1290   */\n      swap2\n      swap1\n      pop\n      jump\t// out\n        /* \"#utility.yul\":1296:1604   */\n    tag_318:\n        /* \"#utility.yul\":1358:1362   */\n      0x00\n        /* \"#utility.yul\":1448:1466   */\n      0xffffffffffffffff\n        /* \"#utility.yul\":1440:1446   */\n      dup3\n        /* \"#utility.yul\":1437:1467   */\n      gt\n        /* \"#utility.yul\":1434:1490   */\n      iszero\n      tag_409\n      jumpi\n        /* \"#utility.yul\":1470:1488   */\n      tag_410\n      tag_315\n      jump\t// in\n    tag_410:\n        /* \"#utility.yul\":1434:1490   */\n    tag_409:\n        /* \"#utility.yul\":1508:1537   */\n      tag_411\n        /* \"#utility.yul\":1530:1536   */\n      dup3\n        /* \"#utility.yul\":1508:1537   */\n      tag_314\n      jump\t// in\n    tag_411:\n        /* \"#utility.yul\":1500:1537   */\n      swap1\n      pop\n        /* \"#utility.yul\":1592:1596   */\n      0x20\n        /* \"#utility.yul\":1586:1590   */\n      dup2\n        /* \"#utility.yul\":1582:1597   */\n      add\n        /* \"#utility.yul\":1574:1597   */\n      swap1\n      pop\n        /* \"#utility.yul\":1296:1604   */\n      swap2\n      swap1\n      pop\n      jump\t// out\n        /* \"#utility.yul\":1610:1756   */\n    tag_319:\n        /* \"#utility.yul\":1707:1713   */\n      dup3\n        /* \"#utility.yul\":1702:1705   */\n      dup2\n        /* \"#utility.yul\":1697:1700   */\n      dup4\n        /* \"#utility.yul\":1684:1714   */\n      calldatacopy\n        /* \"#utility.yul\":1748:1749   */\n      0x00\n        /* \"#utility.yul\":1739:1745   */\n      dup4\n        /* \"#utility.yul\":1734:1737   */\n      dup4\n        /* \"#utility.yul\":1730:1746   */\n      add\n        /* \"#utility.yul\":1723:1750   */\n      mstore\n        /* \"#utility.yul\":1610:1756   */\n      pop\n      pop\n      pop\n      jump\t// out\n        /* \"#utility.yul\":1762:2187   */\n    tag_320:\n        /* \"#utility.yul\":1840:1845   */\n      0x00\n        /* \"#utility.yul\":1865:1931   */\n      tag_414\n        /* \"#utility.yul\":1881:1930   */\n      tag_415\n        /* \"#utility.yul\":1923:1929   */\n      dup5\n        /* \"#utility.yul\":1881:1930   */\n      tag_318\n      jump\t// in\n    tag_415:\n        /* \"#utility.yul\":1865:1931   */\n      tag_317\n      jump\t// in\n    tag_414:\n        /* \"#utility.yul\":1856:1931   */\n      swap1\n      pop\n        /* \"#utility.yul\":1954:1960   */\n      dup3\n        /* \"#utility.yul\":1947:1952   */\n      dup2\n        /* \"#utility.yul\":1940:1961   */\n      mstore\n        /* \"#utility.yul\":1992:1996   */\n      0x20\n        /* \"#utility.yul\":1985:1990   */\n      dup2\n        /* \"#utility.yul\":1981:1997   */\n      add\n        /* \"#utility.yul\":2030:2033   */\n      dup5\n        /* \"#utility.yul\":2021:2027   */\n      dup5\n        /* \"#utility.yul\":2016:2019   */\n      dup5\n        /* \"#utility.yul\":2012:2028   */\n      add\n        /* \"#utility.yul\":2009:2034   */\n      gt\n        /* \"#utility.yul\":2006:2118   */\n      iszero\n      tag_416\n      jumpi\n        /* \"#utility.yul\":2037:2116   */\n      tag_417\n      tag_313\n      jump\t// in\n    tag_417:\n        /* \"#utility.yul\":2006:2118   */\n    tag_416:\n        /* \"#utility.yul\":2127:2181   */\n      tag_418\n        /* \"#utility.yul\":2174:2180   */\n      dup5\n        /* \"#utility.yul\":2169:2172   */\n      dup3\n        /* \"#utility.yul\":2164:2167   */\n      dup6\n        /* \"#utility.yul\":2127:2181   */\n      tag_319\n      jump\t// in\n    tag_418:\n        /* \"#utility.yul\":1846:2187   */\n      pop\n        /* \"#utility.yul\":1762:2187   */\n      swap4\n      swap3\n      pop\n      pop\n      pop\n      jump\t// out\n        /* \"#utility.yul\":2207:2547   */\n    tag_321:\n        /* \"#utility.yul\":2263:2268   */\n      0x00\n        /* \"#utility.yul\":2312:2315   */\n      dup3\n        /* \"#utility.yul\":2305:2309   */\n      0x1f\n        /* \"#utility.yul\":2297:2303   */\n      dup4\n        /* \"#utility.yul\":2293:2310   */\n      add\n        /* \"#utility.yul\":2289:2316   */\n      slt\n        /* \"#utility.yul\":2279:2401   */\n      tag_420\n      jumpi\n        /* \"#utility.yul\":2320:2399   */\n      tag_421\n      tag_312\n      jump\t// in\n    tag_421:\n        /* \"#utility.yul\":2279:2401   */\n    tag_420:\n        /* \"#utility.yul\":2437:2443   */\n      dup2\n        /* \"#utility.yul\":2424:2444   */\n      calldataload\n        /* \"#utility.yul\":2462:2541   */\n      tag_422\n        /* \"#utility.yul\":2537:2540   */\n      dup5\n        /* \"#utility.yul\":2529:2535   */\n      dup3\n        /* \"#utility.yul\":2522:2526   */\n      0x20\n        /* \"#utility.yul\":2514:2520   */\n      dup7\n        /* \"#utility.yul\":2510:2527   */\n      add\n        /* \"#utility.yul\":2462:2541   */\n      tag_320\n      jump\t// in\n    tag_422:\n        /* \"#utility.yul\":2453:2541   */\n      swap2\n      pop\n        /* \"#utility.yul\":2269:2547   */\n      pop\n        /* \"#utility.yul\":2207:2547   */\n      swap3\n      swap2\n      pop\n      pop\n      jump\t// out\n        /* \"#utility.yul\":2553:3062   */\n    tag_15:\n        /* \"#utility.yul\":2622:2628   */\n      0x00\n        /* \"#utility.yul\":2671:2673   */\n      0x20\n        /* \"#utility.yul\":2659:2668   */\n      dup3\n        /* \"#utility.yul\":2650:2657   */\n      dup5\n        /* \"#utility.yul\":2646:2669   */\n      sub\n        /* \"#utility.yul\":2642:2674   */\n      slt\n        /* \"#utility.yul\":2639:2758   */\n      iszero\n      tag_424\n      jumpi\n        /* \"#utility.yul\":2677:2756   */\n      tag_425\n      tag_310\n      jump\t// in\n    tag_425:\n        /* \"#utility.yul\":2639:2758   */\n    tag_424:\n        /* \"#utility.yul\":2825:2826   */\n      0x00\n        /* \"#utility.yul\":2814:2823   */\n      dup3\n        /* \"#utility.yul\":2810:2827   */\n      add\n        /* \"#utility.yul\":2797:2828   */\n      calldataload\n        /* \"#utility.yul\":2855:2873   */\n      0xffffffffffffffff\n        /* \"#utility.yul\":2847:2853   */\n      dup2\n        /* \"#utility.yul\":2844:2874   */\n      gt\n        /* \"#utility.yul\":2841:2958   */\n      iszero\n      tag_426\n      jumpi\n        /* \"#utility.yul\":2877:2956   */\n      tag_427\n      tag_311\n      jump\t// in\n    tag_427:\n        /* \"#utility.yul\":2841:2958   */\n    tag_426:\n        /* \"#utility.yul\":2982:3045   */\n      tag_428\n        /* \"#utility.yul\":3037:3044   */\n      dup5\n        /* \"#utility.yul\":3028:3034   */\n      dup3\n        /* \"#utility.yul\":3017:3026   */\n      dup6\n        /* \"#utility.yul\":3013:3035   */\n      add\n        /* \"#utility.yul\":2982:3045   */\n      tag_321\n      jump\t// in\n    tag_428:\n        /* \"#utility.yul\":2972:3045   */\n      swap2\n      pop\n        /* \"#utility.yul\":2768:3055   */\n      pop\n        /* \"#utility.yul\":2553:3062   */\n      swap3\n      swap2\n      pop\n      pop\n      jump\t// out\n        /* \"#utility.yul\":3068:3248   */\n    tag_65:\n        /* \"#utility.yul\":3116:3193   */\n      0x4e487b7100000000000000000000000000000000000000000000000000000000\n        /* \"#utility.yul\":3113:3114   */\n      0x00\n        /* \"#utility.yul\":3106:3194   */\n      mstore\n        /* \"#utility.yul\":3213:3217   */\n      0x21\n        /* \"#utility.yul\":3210:3211   */\n      0x04\n        /* \"#utility.yul\":3203:3218   */\n      mstore\n        /* \"#utility.yul\":3237:3241   */\n      0x24\n        /* \"#utility.yul\":3234:3235   */\n      0x00\n        /* \"#utility.yul\":3227:3242   */\n      revert\n        /* \"#utility.yul\":3254:3376   */\n    tag_322:\n        /* \"#utility.yul\":3344:3345   */\n      0x05\n        /* \"#utility.yul\":3337:3342   */\n      dup2\n        /* \"#utility.yul\":3334:3346   */\n      lt\n        /* \"#utility.yul\":3324:3370   */\n      tag_431\n      jumpi\n        /* \"#utility.yul\":3350:3368   */\n      tag_432\n      tag_65\n      jump\t// in\n    tag_432:\n        /* \"#utility.yul\":3324:3370   */\n    tag_431:\n        /* \"#utility.yul\":3254:3376   */\n      pop\n      jump\t// out\n        /* \"#utility.yul\":3382:3527   */\n    tag_323:\n        /* \"#utility.yul\":3436:3443   */\n      0x00\n        /* \"#utility.yul\":3465:3470   */\n      dup2\n        /* \"#utility.yul\":3454:3470   */\n      swap1\n      pop\n        /* \"#utility.yul\":3471:3521   */\n      tag_434\n        /* \"#utility.yul\":3515:3520   */\n      dup3\n        /* \"#utility.yul\":3471:3521   */\n      tag_322\n      jump\t// in\n    tag_434:\n        /* \"#utility.yul\":3382:3527   */\n      swap2\n      swap1\n      pop\n      jump\t// out\n        /* \"#utility.yul\":3533:3678   */\n    tag_324:\n        /* \"#utility.yul\":3598:3607   */\n      0x00\n        /* \"#utility.yul\":3631:3672   */\n      tag_436\n        /* \"#utility.yul\":3666:3671   */\n      dup3\n        /* \"#utility.yul\":3631:3672   */\n      tag_323\n      jump\t// in\n    tag_436:\n        /* \"#utility.yul\":3618:3672   */\n      swap1\n      pop\n        /* \"#utility.yul\":3533:3678   */\n      swap2\n      swap1\n      pop\n      jump\t// out\n        /* \"#utility.yul\":3684:3845   */\n    tag_325:\n        /* \"#utility.yul\":3786:3838   */\n      tag_438\n        /* \"#utility.yul\":3832:3837   */\n      dup2\n        /* \"#utility.yul\":3786:3838   */\n      tag_324\n      jump\t// in\n    tag_438:\n        /* \"#utility.yul\":3781:3784   */\n      dup3\n        /* \"#utility.yul\":3774:3839   */\n      mstore\n        /* \"#utility.yul\":3684:3845   */\n      pop\n      pop\n      jump\t// out\n        /* \"#utility.yul\":3851:3971   */\n    tag_326:\n        /* \"#utility.yul\":3939:3940   */\n      0x03\n        /* \"#utility.yul\":3932:3937   */\n      dup2\n        /* \"#utility.yul\":3929:3941   */\n      lt\n        /* \"#utility.yul\":3919:3965   */\n      tag_440\n      jumpi\n        /* \"#utility.yul\":3945:3963   */\n      tag_441\n      tag_65\n      jump\t// in\n    tag_441:\n        /* \"#utility.yul\":3919:3965   */\n    tag_440:\n        /* \"#utility.yul\":3851:3971   */\n      pop\n      jump\t// out\n        /* \"#utility.yul\":3977:4118   */\n    tag_327:\n        /* \"#utility.yul\":4029:4036   */\n      0x00\n        /* \"#utility.yul\":4058:4063   */\n      dup2\n        /* \"#utility.yul\":4047:4063   */\n      swap1\n      pop\n        /* \"#utility.yul\":4064:4112   */\n      tag_443\n        /* \"#utility.yul\":4106:4111   */\n      dup3\n        /* \"#utility.yul\":4064:4112   */\n      tag_326\n      jump\t// in\n    tag_443:\n        /* \"#utility.yul\":3977:4118   */\n      swap2\n      swap1\n      pop\n      jump\t// out\n        /* \"#utility.yul\":4124:4265   */\n    tag_328:\n        /* \"#utility.yul\":4187:4196   */\n      0x00\n        /* \"#utility.yul\":4220:4259   */\n      tag_445\n        /* \"#utility.yul\":4253:4258   */\n      dup3\n        /* \"#utility.yul\":4220:4259   */\n      tag_327\n      jump\t// in\n    tag_445:\n        /* \"#utility.yul\":4207:4259   */\n      swap1\n      pop\n        /* \"#utility.yul\":4124:4265   */\n      swap2\n      swap1\n      pop\n      jump\t// out\n        /* \"#utility.yul\":4271:4428   */\n    tag_329:\n        /* \"#utility.yul\":4371:4421   */\n      tag_447\n        /* \"#utility.yul\":4415:4420   */\n      dup2\n        /* \"#utility.yul\":4371:4421   */\n      tag_328\n      jump\t// in\n    tag_447:\n        /* \"#utility.yul\":4366:4369   */\n      dup3\n        /* \"#utility.yul\":4359:4422   */\n      mstore\n        /* \"#utility.yul\":4271:4428   */\n      pop\n      pop\n      jump\t// out\n        /* \"#utility.yul\":4434:4560   */\n    tag_330:\n        /* \"#utility.yul\":4471:4478   */\n      0x00\n        /* \"#utility.yul\":4511:4553   */\n      0xffffffffffffffffffffffffffffffffffffffff\n        /* \"#utility.yul\":4504:4509   */\n      dup3\n        /* \"#utility.yul\":4500:4554   */\n      and\n        /* \"#utility.yul\":4489:4554   */\n      swap1\n      pop\n        /* \"#utility.yul\":4434:4560   */\n      swap2\n      swap1\n      pop\n      jump\t// out\n        /* \"#utility.yul\":4566:4662   */\n    tag_331:\n        /* \"#utility.yul\":4603:4610   */\n      0x00\n        /* \"#utility.yul\":4632:4656   */\n      tag_450\n        /* \"#utility.yul\":4650:4655   */\n      dup3\n        /* \"#utility.yul\":4632:4656   */\n      tag_330\n      jump\t// in\n    tag_450:\n        /* \"#utility.yul\":4621:4656   */\n      swap1\n      pop\n        /* \"#utility.yul\":4566:4662   */\n      swap2\n      swap1\n      pop\n      jump\t// out\n        /* \"#utility.yul\":4668:4786   */\n    tag_332:\n        /* \"#utility.yul\":4755:4779   */\n      tag_452\n        /* \"#utility.yul\":4773:4778   */\n      dup2\n        /* \"#utility.yul\":4755:4779   */\n      tag_331\n      jump\t// in\n    tag_452:\n        /* \"#utility.yul\":4750:4753   */\n      dup3\n        /* \"#utility.yul\":4743:4780   */\n      mstore\n        /* \"#utility.yul\":4668:4786   */\n      pop\n      pop\n      jump\t// out\n        /* \"#utility.yul\":4792:4878   */\n    tag_333:\n        /* \"#utility.yul\":4827:4834   */\n      0x00\n        /* \"#utility.yul\":4867:4871   */\n      0xff\n        /* \"#utility.yul\":4860:4865   */\n      dup3\n        /* \"#utility.yul\":4856:4872   */\n      and\n        /* \"#utility.yul\":4845:4872   */\n      swap1\n      pop\n        /* \"#utility.yul\":4792:4878   */\n      swap2\n      swap1\n      pop\n      jump\t// out\n        /* \"#utility.yul\":4884:4996   */\n    tag_334:\n        /* \"#utility.yul\":4967:4989   */\n      tag_455\n        /* \"#utility.yul\":4983:4988   */\n      dup2\n        /* \"#utility.yul\":4967:4989   */\n      tag_333\n      jump\t// in\n    tag_455:\n        /* \"#utility.yul\":4962:4965   */\n      dup3\n        /* \"#utility.yul\":4955:4990   */\n      mstore\n        /* \"#utility.yul\":4884:4996   */\n      pop\n      pop\n      jump\t// out\n        /* \"#utility.yul\":5002:5912   */\n    tag_18:\n        /* \"#utility.yul\":5275:5279   */\n      0x00\n        /* \"#utility.yul\":5313:5316   */\n      0xe0\n        /* \"#utility.yul\":5302:5311   */\n      dup3\n        /* \"#utility.yul\":5298:5317   */\n      add\n        /* \"#utility.yul\":5290:5317   */\n      swap1\n      pop\n        /* \"#utility.yul\":5327:5413   */\n      tag_457\n        /* \"#utility.yul\":5410:5411   */\n      0x00\n        /* \"#utility.yul\":5399:5408   */\n      dup4\n        /* \"#utility.yul\":5395:5412   */\n      add\n        /* \"#utility.yul\":5386:5392   */\n      dup11\n        /* \"#utility.yul\":5327:5413   */\n      tag_325\n      jump\t// in\n    tag_457:\n        /* \"#utility.yul\":5423:5508   */\n      tag_458\n        /* \"#utility.yul\":5504:5506   */\n      0x20\n        /* \"#utility.yul\":5493:5502   */\n      dup4\n        /* \"#utility.yul\":5489:5507   */\n      add\n        /* \"#utility.yul\":5480:5486   */\n      dup10\n        /* \"#utility.yul\":5423:5508   */\n      tag_329\n      jump\t// in\n    tag_458:\n        /* \"#utility.yul\":5518:5590   */\n      tag_459\n        /* \"#utility.yul\":5586:5588   */\n      0x40\n        /* \"#utility.yul\":5575:5584   */\n      dup4\n        /* \"#utility.yul\":5571:5589   */\n      add\n        /* \"#utility.yul\":5562:5568   */\n      dup9\n        /* \"#utility.yul\":5518:5590   */\n      tag_332\n      jump\t// in\n    tag_459:\n        /* \"#utility.yul\":5600:5668   */\n      tag_460\n        /* \"#utility.yul\":5664:5666   */\n      0x60\n        /* \"#utility.yul\":5653:5662   */\n      dup4\n        /* \"#utility.yul\":5649:5667   */\n      add\n        /* \"#utility.yul\":5640:5646   */\n      dup8\n        /* \"#utility.yul\":5600:5668   */\n      tag_334\n      jump\t// in\n    tag_460:\n        /* \"#utility.yul\":5678:5747   */\n      tag_461\n        /* \"#utility.yul\":5742:5745   */\n      0x80\n        /* \"#utility.yul\":5731:5740   */\n      dup4\n        /* \"#utility.yul\":5727:5746   */\n      add\n        /* \"#utility.yul\":5718:5724   */\n      dup7\n        /* \"#utility.yul\":5678:5747   */\n      tag_334\n      jump\t// in\n    tag_461:\n        /* \"#utility.yul\":5757:5826   */\n      tag_462\n        /* \"#utility.yul\":5821:5824   */\n      0xa0\n        /* \"#utility.yul\":5810:5819   */\n      dup4\n        /* \"#utility.yul\":5806:5825   */\n      add\n        /* \"#utility.yul\":5797:5803   */\n      dup6\n        /* \"#utility.yul\":5757:5826   */\n      tag_334\n      jump\t// in\n    tag_462:\n        /* \"#utility.yul\":5836:5905   */\n      tag_463\n        /* \"#utility.yul\":5900:5903   */\n      0xc0\n        /* \"#utility.yul\":5889:5898   */\n      dup4\n        /* \"#utility.yul\":5885:5904   */\n      add\n        /* \"#utility.yul\":5876:5882   */\n      dup5\n        /* \"#utility.yul\":5836:5905   */\n      tag_334\n      jump\t// in\n    tag_463:\n        /* \"#utility.yul\":5002:5912   */\n      swap9\n      swap8\n      pop\n      pop\n      pop\n      pop\n      pop\n      pop\n      pop\n      pop\n      jump\t// out\n        /* \"#utility.yul\":5918:6040   */\n    tag_335:\n        /* \"#utility.yul\":5991:6015   */\n      tag_465\n        /* \"#utility.yul\":6009:6014   */\n      dup2\n        /* \"#utility.yul\":5991:6015   */\n      tag_331\n      jump\t// in\n    tag_465:\n        /* \"#utility.yul\":5984:5989   */\n      dup2\n        /* \"#utility.yul\":5981:6016   */\n      eq\n        /* \"#utility.yul\":5971:6034   */\n      tag_466\n      jumpi\n        /* \"#utility.yul\":6030:6031   */\n      0x00\n        /* \"#utility.yul\":6027:6028   */\n      dup1\n        /* \"#utility.yul\":6020:6032   */\n      revert\n        /* \"#utility.yul\":5971:6034   */\n    tag_466:\n        /* \"#utility.yul\":5918:6040   */\n      pop\n      jump\t// out\n        /* \"#utility.yul\":6046:6185   */\n    tag_336:\n        /* \"#utility.yul\":6092:6097   */\n      0x00\n        /* \"#utility.yul\":6130:6136   */\n      dup2\n        /* \"#utility.yul\":6117:6137   */\n      calldataload\n        /* \"#utility.yul\":6108:6137   */\n      swap1\n      pop\n        /* \"#utility.yul\":6146:6179   */\n      tag_468\n        /* \"#utility.yul\":6173:6178   */\n      dup2\n        /* \"#utility.yul\":6146:6179   */\n      tag_335\n      jump\t// in\n    tag_468:\n        /* \"#utility.yul\":6046:6185   */\n      swap3\n      swap2\n      pop\n      pop\n      jump\t// out\n        /* \"#utility.yul\":6191:6845   */\n    tag_21:\n        /* \"#utility.yul\":6269:6275   */\n      0x00\n        /* \"#utility.yul\":6277:6283   */\n      dup1\n        /* \"#utility.yul\":6326:6328   */\n      0x40\n        /* \"#utility.yul\":6314:6323   */\n      dup4\n        /* \"#utility.yul\":6305:6312   */\n      dup6\n        /* \"#utility.yul\":6301:6324   */\n      sub\n        /* \"#utility.yul\":6297:6329   */\n      slt\n        /* \"#utility.yul\":6294:6413   */\n      iszero\n      tag_470\n      jumpi\n        /* \"#utility.yul\":6332:6411   */\n      tag_471\n      tag_310\n      jump\t// in\n    tag_471:\n        /* \"#utility.yul\":6294:6413   */\n    tag_470:\n        /* \"#utility.yul\":6480:6481   */\n      0x00\n        /* \"#utility.yul\":6469:6478   */\n      dup4\n        /* \"#utility.yul\":6465:6482   */\n      add\n        /* \"#utility.yul\":6452:6483   */\n      calldataload\n        /* \"#utility.yul\":6510:6528   */\n      0xffffffffffffffff\n        /* \"#utility.yul\":6502:6508   */\n      dup2\n        /* \"#utility.yul\":6499:6529   */\n      gt\n        /* \"#utility.yul\":6496:6613   */\n      iszero\n      tag_472\n      jumpi\n        /* \"#utility.yul\":6532:6611   */\n      tag_473\n      tag_311\n      jump\t// in\n    tag_473:\n        /* \"#utility.yul\":6496:6613   */\n    tag_472:\n        /* \"#utility.yul\":6637:6700   */\n      tag_474\n        /* \"#utility.yul\":6692:6699   */\n      dup6\n        /* \"#utility.yul\":6683:6689   */\n      dup3\n        /* \"#utility.yul\":6672:6681   */\n      dup7\n        /* \"#utility.yul\":6668:6690   */\n      add\n        /* \"#utility.yul\":6637:6700   */\n      tag_321\n      jump\t// in\n    tag_474:\n        /* \"#utility.yul\":6627:6700   */\n      swap3\n      pop\n        /* \"#utility.yul\":6423:6710   */\n      pop\n        /* \"#utility.yul\":6749:6751   */\n      0x20\n        /* \"#utility.yul\":6775:6828   */\n      tag_475\n        /* \"#utility.yul\":6820:6827   */\n      dup6\n        /* \"#utility.yul\":6811:6817   */\n      dup3\n        /* \"#utility.yul\":6800:6809   */\n      dup7\n        /* \"#utility.yul\":6796:6818   */\n      add\n        /* \"#utility.yul\":6775:6828   */\n      tag_336\n      jump\t// in\n    tag_475:\n        /* \"#utility.yul\":6765:6828   */\n      swap2\n      pop\n        /* \"#utility.yul\":6720:6838   */\n      pop\n        /* \"#utility.yul\":6191:6845   */\n      swap3\n      pop\n      swap3\n      swap1\n      pop\n      jump\t// out\n        /* \"#utility.yul\":6851:6941   */\n    tag_337:\n        /* \"#utility.yul\":6885:6892   */\n      0x00\n        /* \"#utility.yul\":6928:6933   */\n      dup2\n        /* \"#utility.yul\":6921:6934   */\n      iszero\n        /* \"#utility.yul\":6914:6935   */\n      iszero\n        /* \"#utility.yul\":6903:6935   */\n      swap1\n      pop\n        /* \"#utility.yul\":6851:6941   */\n      swap2\n      swap1\n      pop\n      jump\t// out\n        /* \"#utility.yul\":6947:7056   */\n    tag_338:\n        /* \"#utility.yul\":7028:7049   */\n      tag_478\n        /* \"#utility.yul\":7043:7048   */\n      dup2\n        /* \"#utility.yul\":7028:7049   */\n      tag_337\n      jump\t// in\n    tag_478:\n        /* \"#utility.yul\":7023:7026   */\n      dup3\n        /* \"#utility.yul\":7016:7050   */\n      mstore\n        /* \"#utility.yul\":6947:7056   */\n      pop\n      pop\n      jump\t// out\n        /* \"#utility.yul\":7062:7272   */\n    tag_24:\n        /* \"#utility.yul\":7149:7153   */\n      0x00\n        /* \"#utility.yul\":7187:7189   */\n      0x20\n        /* \"#utility.yul\":7176:7185   */\n      dup3\n        /* \"#utility.yul\":7172:7190   */\n      add\n        /* \"#utility.yul\":7164:7190   */\n      swap1\n      pop\n        /* \"#utility.yul\":7200:7265   */\n      tag_480\n        /* \"#utility.yul\":7262:7263   */\n      0x00\n        /* \"#utility.yul\":7251:7260   */\n      dup4\n        /* \"#utility.yul\":7247:7264   */\n      add\n        /* \"#utility.yul\":7238:7244   */\n      dup5\n        /* \"#utility.yul\":7200:7265   */\n      tag_338\n      jump\t// in\n    tag_480:\n        /* \"#utility.yul\":7062:7272   */\n      swap3\n      swap2\n      pop\n      pop\n      jump\t// out\n        /* \"#utility.yul\":7278:7492   */\n    tag_28:\n        /* \"#utility.yul\":7367:7371   */\n      0x00\n        /* \"#utility.yul\":7405:7407   */\n      0x20\n        /* \"#utility.yul\":7394:7403   */\n      dup3\n        /* \"#utility.yul\":7390:7408   */\n      add\n        /* \"#utility.yul\":7382:7408   */\n      swap1\n      pop\n        /* \"#utility.yul\":7418:7485   */\n      tag_482\n        /* \"#utility.yul\":7482:7483   */\n      0x00\n        /* \"#utility.yul\":7471:7480   */\n      dup4\n        /* \"#utility.yul\":7467:7484   */\n      add\n        /* \"#utility.yul\":7458:7464   */\n      dup5\n        /* \"#utility.yul\":7418:7485   */\n      tag_334\n      jump\t// in\n    tag_482:\n        /* \"#utility.yul\":7278:7492   */\n      swap3\n      swap2\n      pop\n      pop\n      jump\t// out\n        /* \"#utility.yul\":7498:7612   */\n    tag_339:\n        /* \"#utility.yul\":7586:7587   */\n      0x03\n        /* \"#utility.yul\":7579:7584   */\n      dup2\n        /* \"#utility.yul\":7576:7588   */\n      lt\n        /* \"#utility.yul\":7566:7606   */\n      tag_484\n      jumpi\n        /* \"#utility.yul\":7602:7603   */\n      0x00\n        /* \"#utility.yul\":7599:7600   */\n      dup1\n        /* \"#utility.yul\":7592:7604   */\n      revert\n        /* \"#utility.yul\":7566:7606   */\n    tag_484:\n        /* \"#utility.yul\":7498:7612   */\n      pop\n      jump\t// out\n        /* \"#utility.yul\":7618:7787   */\n    tag_340:\n        /* \"#utility.yul\":7679:7684   */\n      0x00\n        /* \"#utility.yul\":7717:7723   */\n      dup2\n        /* \"#utility.yul\":7704:7724   */\n      calldataload\n        /* \"#utility.yul\":7695:7724   */\n      swap1\n      pop\n        /* \"#utility.yul\":7733:7781   */\n      tag_486\n        /* \"#utility.yul\":7775:7780   */\n      dup2\n        /* \"#utility.yul\":7733:7781   */\n      tag_339\n      jump\t// in\n    tag_486:\n        /* \"#utility.yul\":7618:7787   */\n      swap3\n      swap2\n      pop\n      pop\n      jump\t// out\n        /* \"#utility.yul\":7793:8622   */\n    tag_31:\n        /* \"#utility.yul\":7895:7901   */\n      0x00\n        /* \"#utility.yul\":7903:7909   */\n      dup1\n        /* \"#utility.yul\":7911:7917   */\n      0x00\n        /* \"#utility.yul\":7960:7962   */\n      0x60\n        /* \"#utility.yul\":7948:7957   */\n      dup5\n        /* \"#utility.yul\":7939:7946   */\n      dup7\n        /* \"#utility.yul\":7935:7958   */\n      sub\n        /* \"#utility.yul\":7931:7963   */\n      slt\n        /* \"#utility.yul\":7928:8047   */\n      iszero\n      tag_488\n      jumpi\n        /* \"#utility.yul\":7966:8045   */\n      tag_489\n      tag_310\n      jump\t// in\n    tag_489:\n        /* \"#utility.yul\":7928:8047   */\n    tag_488:\n        /* \"#utility.yul\":8114:8115   */\n      0x00\n        /* \"#utility.yul\":8103:8112   */\n      dup5\n        /* \"#utility.yul\":8099:8116   */\n      add\n        /* \"#utility.yul\":8086:8117   */\n      calldataload\n        /* \"#utility.yul\":8144:8162   */\n      0xffffffffffffffff\n        /* \"#utility.yul\":8136:8142   */\n      dup2\n        /* \"#utility.yul\":8133:8163   */\n      gt\n        /* \"#utility.yul\":8130:8247   */\n      iszero\n      tag_490\n      jumpi\n        /* \"#utility.yul\":8166:8245   */\n      tag_491\n      tag_311\n      jump\t// in\n    tag_491:\n        /* \"#utility.yul\":8130:8247   */\n    tag_490:\n        /* \"#utility.yul\":8271:8334   */\n      tag_492\n        /* \"#utility.yul\":8326:8333   */\n      dup7\n        /* \"#utility.yul\":8317:8323   */\n      dup3\n        /* \"#utility.yul\":8306:8315   */\n      dup8\n        /* \"#utility.yul\":8302:8324   */\n      add\n        /* \"#utility.yul\":8271:8334   */\n      tag_321\n      jump\t// in\n    tag_492:\n        /* \"#utility.yul\":8261:8334   */\n      swap4\n      pop\n        /* \"#utility.yul\":8057:8344   */\n      pop\n        /* \"#utility.yul\":8383:8385   */\n      0x20\n        /* \"#utility.yul\":8409:8477   */\n      tag_493\n        /* \"#utility.yul\":8469:8476   */\n      dup7\n        /* \"#utility.yul\":8460:8466   */\n      dup3\n        /* \"#utility.yul\":8449:8458   */\n      dup8\n        /* \"#utility.yul\":8445:8467   */\n      add\n        /* \"#utility.yul\":8409:8477   */\n      tag_340\n      jump\t// in\n    tag_493:\n        /* \"#utility.yul\":8399:8477   */\n      swap3\n      pop\n        /* \"#utility.yul\":8354:8487   */\n      pop\n        /* \"#utility.yul\":8526:8528   */\n      0x40\n        /* \"#utility.yul\":8552:8605   */\n      tag_494\n        /* \"#utility.yul\":8597:8604   */\n      dup7\n        /* \"#utility.yul\":8588:8594   */\n      dup3\n        /* \"#utility.yul\":8577:8586   */\n      dup8\n        /* \"#utility.yul\":8573:8595   */\n      add\n        /* \"#utility.yul\":8552:8605   */\n      tag_336\n      jump\t// in\n    tag_494:\n        /* \"#utility.yul\":8542:8605   */\n      swap2\n      pop\n        /* \"#utility.yul\":8497:8615   */\n      pop\n        /* \"#utility.yul\":7793:8622   */\n      swap3\n      pop\n      swap3\n      pop\n      swap3\n      jump\t// out\n        /* \"#utility.yul\":8628:8705   */\n    tag_341:\n        /* \"#utility.yul\":8665:8672   */\n      0x00\n        /* \"#utility.yul\":8694:8699   */\n      dup2\n        /* \"#utility.yul\":8683:8699   */\n      swap1\n      pop\n        /* \"#utility.yul\":8628:8705   */\n      swap2\n      swap1\n      pop\n      jump\t// out\n        /* \"#utility.yul\":8711:8833   */\n    tag_342:\n        /* \"#utility.yul\":8784:8808   */\n      tag_497\n        /* \"#utility.yul\":8802:8807   */\n      dup2\n        /* \"#utility.yul\":8784:8808   */\n      tag_341\n      jump\t// in\n    tag_497:\n        /* \"#utility.yul\":8777:8782   */\n      dup2\n        /* \"#utility.yul\":8774:8809   */\n      eq\n        /* \"#utility.yul\":8764:8827   */\n      tag_498\n      jumpi\n        /* \"#utility.yul\":8823:8824   */\n      0x00\n        /* \"#utility.yul\":8820:8821   */\n      dup1\n        /* \"#utility.yul\":8813:8825   */\n      revert\n        /* \"#utility.yul\":8764:8827   */\n    tag_498:\n        /* \"#utility.yul\":8711:8833   */\n      pop\n      jump\t// out\n        /* \"#utility.yul\":8839:8978   */\n    tag_343:\n        /* \"#utility.yul\":8885:8890   */\n      0x00\n        /* \"#utility.yul\":8923:8929   */\n      dup2\n        /* \"#utility.yul\":8910:8930   */\n      calldataload\n        /* \"#utility.yul\":8901:8930   */\n      swap1\n      pop\n        /* \"#utility.yul\":8939:8972   */\n      tag_500\n        /* \"#utility.yul\":8966:8971   */\n      dup2\n        /* \"#utility.yul\":8939:8972   */\n      tag_342\n      jump\t// in\n    tag_500:\n        /* \"#utility.yul\":8839:8978   */\n      swap3\n      swap2\n      pop\n      pop\n      jump\t// out\n        /* \"#utility.yul\":8984:9313   */\n    tag_35:\n        /* \"#utility.yul\":9043:9049   */\n      0x00\n        /* \"#utility.yul\":9092:9094   */\n      0x20\n        /* \"#utility.yul\":9080:9089   */\n      dup3\n        /* \"#utility.yul\":9071:9078   */\n      dup5\n        /* \"#utility.yul\":9067:9090   */\n      sub\n        /* \"#utility.yul\":9063:9095   */\n      slt\n        /* \"#utility.yul\":9060:9179   */\n      iszero\n      tag_502\n      jumpi\n        /* \"#utility.yul\":9098:9177   */\n      tag_503\n      tag_310\n      jump\t// in\n    tag_503:\n        /* \"#utility.yul\":9060:9179   */\n    tag_502:\n        /* \"#utility.yul\":9218:9219   */\n      0x00\n        /* \"#utility.yul\":9243:9296   */\n      tag_504\n        /* \"#utility.yul\":9288:9295   */\n      dup5\n        /* \"#utility.yul\":9279:9285   */\n      dup3\n        /* \"#utility.yul\":9268:9277   */\n      dup6\n        /* \"#utility.yul\":9264:9286   */\n      add\n        /* \"#utility.yul\":9243:9296   */\n      tag_343\n      jump\t// in\n    tag_504:\n        /* \"#utility.yul\":9233:9296   */\n      swap2\n      pop\n        /* \"#utility.yul\":9189:9306   */\n      pop\n        /* \"#utility.yul\":8984:9313   */\n      swap3\n      swap2\n      pop\n      pop\n      jump\t// out\n        /* \"#utility.yul\":9319:9541   */\n    tag_38:\n        /* \"#utility.yul\":9412:9416   */\n      0x00\n        /* \"#utility.yul\":9450:9452   */\n      0x20\n        /* \"#utility.yul\":9439:9448   */\n      dup3\n        /* \"#utility.yul\":9435:9453   */\n      add\n        /* \"#utility.yul\":9427:9453   */\n      swap1\n      pop\n        /* \"#utility.yul\":9463:9534   */\n      tag_506\n        /* \"#utility.yul\":9531:9532   */\n      0x00\n        /* \"#utility.yul\":9520:9529   */\n      dup4\n        /* \"#utility.yul\":9516:9533   */\n      add\n        /* \"#utility.yul\":9507:9513   */\n      dup5\n        /* \"#utility.yul\":9463:9534   */\n      tag_332\n      jump\t// in\n    tag_506:\n        /* \"#utility.yul\":9319:9541   */\n      swap3\n      swap2\n      pop\n      pop\n      jump\t// out\n        /* \"#utility.yul\":9547:9876   */\n    tag_47:\n        /* \"#utility.yul\":9606:9612   */\n      0x00\n        /* \"#utility.yul\":9655:9657   */\n      0x20\n        /* \"#utility.yul\":9643:9652   */\n      dup3\n        /* \"#utility.yul\":9634:9641   */\n      dup5\n        /* \"#utility.yul\":9630:9653   */\n      sub\n        /* \"#utility.yul\":9626:9658   */\n      slt\n        /* \"#utility.yul\":9623:9742   */\n      iszero\n      tag_508\n      jumpi\n        /* \"#utility.yul\":9661:9740   */\n      tag_509\n      tag_310\n      jump\t// in\n    tag_509:\n        /* \"#utility.yul\":9623:9742   */\n    tag_508:\n        /* \"#utility.yul\":9781:9782   */\n      0x00\n        /* \"#utility.yul\":9806:9859   */\n      tag_510\n        /* \"#utility.yul\":9851:9858   */\n      dup5\n        /* \"#utility.yul\":9842:9848   */\n      dup3\n        /* \"#utility.yul\":9831:9840   */\n      dup6\n        /* \"#utility.yul\":9827:9849   */\n      add\n        /* \"#utility.yul\":9806:9859   */\n      tag_336\n      jump\t// in\n    tag_510:\n        /* \"#utility.yul\":9796:9859   */\n      swap2\n      pop\n        /* \"#utility.yul\":9752:9869   */\n      pop\n        /* \"#utility.yul\":9547:9876   */\n      swap3\n      swap2\n      pop\n      pop\n      jump\t// out\n        /* \"#utility.yul\":9882:9981   */\n    tag_344:\n        /* \"#utility.yul\":9934:9940   */\n      0x00\n        /* \"#utility.yul\":9968:9973   */\n      dup2\n        /* \"#utility.yul\":9962:9974   */\n      mload\n        /* \"#utility.yul\":9952:9974   */\n      swap1\n      pop\n        /* \"#utility.yul\":9882:9981   */\n      swap2\n      swap1\n      pop\n      jump\t// out\n        /* \"#utility.yul\":9987:10156   */\n    tag_345:\n        /* \"#utility.yul\":10071:10082   */\n      0x00\n        /* \"#utility.yul\":10105:10111   */\n      dup3\n        /* \"#utility.yul\":10100:10103   */\n      dup3\n        /* \"#utility.yul\":10093:10112   */\n      mstore\n        /* \"#utility.yul\":10145:10149   */\n      0x20\n        /* \"#utility.yul\":10140:10143   */\n      dup3\n        /* \"#utility.yul\":10136:10150   */\n      add\n        /* \"#utility.yul\":10121:10150   */\n      swap1\n      pop\n        /* \"#utility.yul\":9987:10156   */\n      swap3\n      swap2\n      pop\n      pop\n      jump\t// out\n        /* \"#utility.yul\":10162:10408   */\n    tag_346:\n        /* \"#utility.yul\":10243:10244   */\n      0x00\n        /* \"#utility.yul\":10253:10366   */\n    tag_514:\n        /* \"#utility.yul\":10267:10273   */\n      dup4\n        /* \"#utility.yul\":10264:10265   */\n      dup2\n        /* \"#utility.yul\":10261:10274   */\n      lt\n        /* \"#utility.yul\":10253:10366   */\n      iszero\n      tag_516\n      jumpi\n        /* \"#utility.yul\":10352:10353   */\n      dup1\n        /* \"#utility.yul\":10347:10350   */\n      dup3\n        /* \"#utility.yul\":10343:10354   */\n      add\n        /* \"#utility.yul\":10337:10355   */\n      mload\n        /* \"#utility.yul\":10333:10334   */\n      dup2\n        /* \"#utility.yul\":10328:10331   */\n      dup5\n        /* \"#utility.yul\":10324:10335   */\n      add\n        /* \"#utility.yul\":10317:10356   */\n      mstore\n        /* \"#utility.yul\":10289:10291   */\n      0x20\n        /* \"#utility.yul\":10286:10287   */\n      dup2\n        /* \"#utility.yul\":10282:10292   */\n      add\n        /* \"#utility.yul\":10277:10292   */\n      swap1\n      pop\n        /* \"#utility.yul\":10253:10366   */\n      jump(tag_514)\n    tag_516:\n        /* \"#utility.yul\":10400:10401   */\n      0x00\n        /* \"#utility.yul\":10391:10397   */\n      dup5\n        /* \"#utility.yul\":10386:10389   */\n      dup5\n        /* \"#utility.yul\":10382:10398   */\n      add\n        /* \"#utility.yul\":10375:10402   */\n      mstore\n        /* \"#utility.yul\":10224:10408   */\n      pop\n        /* \"#utility.yul\":10162:10408   */\n      pop\n      pop\n      pop\n      jump\t// out\n        /* \"#utility.yul\":10414:10791   */\n    tag_347:\n        /* \"#utility.yul\":10502:10505   */\n      0x00\n        /* \"#utility.yul\":10530:10569   */\n      tag_518\n        /* \"#utility.yul\":10563:10568   */\n      dup3\n        /* \"#utility.yul\":10530:10569   */\n      tag_344\n      jump\t// in\n    tag_518:\n        /* \"#utility.yul\":10585:10656   */\n      tag_519\n        /* \"#utility.yul\":10649:10655   */\n      dup2\n        /* \"#utility.yul\":10644:10647   */\n      dup6\n        /* \"#utility.yul\":10585:10656   */\n      tag_345\n      jump\t// in\n    tag_519:\n        /* \"#utility.yul\":10578:10656   */\n      swap4\n      pop\n        /* \"#utility.yul\":10665:10730   */\n      tag_520\n        /* \"#utility.yul\":10723:10729   */\n      dup2\n        /* \"#utility.yul\":10718:10721   */\n      dup6\n        /* \"#utility.yul\":10711:10715   */\n      0x20\n        /* \"#utility.yul\":10704:10709   */\n      dup7\n        /* \"#utility.yul\":10700:10716   */\n      add\n        /* \"#utility.yul\":10665:10730   */\n      tag_346\n      jump\t// in\n    tag_520:\n        /* \"#utility.yul\":10755:10784   */\n      tag_521\n        /* \"#utility.yul\":10777:10783   */\n      dup2\n        /* \"#utility.yul\":10755:10784   */\n      tag_314\n      jump\t// in\n    tag_521:\n        /* \"#utility.yul\":10750:10753   */\n      dup5\n        /* \"#utility.yul\":10746:10785   */\n      add\n        /* \"#utility.yul\":10739:10785   */\n      swap2\n      pop\n        /* \"#utility.yul\":10506:10791   */\n      pop\n        /* \"#utility.yul\":10414:10791   */\n      swap3\n      swap2\n      pop\n      pop\n      jump\t// out\n        /* \"#utility.yul\":10797:11110   */\n    tag_50:\n        /* \"#utility.yul\":10910:10914   */\n      0x00\n        /* \"#utility.yul\":10948:10950   */\n      0x20\n        /* \"#utility.yul\":10937:10946   */\n      dup3\n        /* \"#utility.yul\":10933:10951   */\n      add\n        /* \"#utility.yul\":10925:10951   */\n      swap1\n      pop\n        /* \"#utility.yul\":10997:11006   */\n      dup2\n        /* \"#utility.yul\":10991:10995   */\n      dup2\n        /* \"#utility.yul\":10987:11007   */\n      sub\n        /* \"#utility.yul\":10983:10984   */\n      0x00\n        /* \"#utility.yul\":10972:10981   */\n      dup4\n        /* \"#utility.yul\":10968:10985   */\n      add\n        /* \"#utility.yul\":10961:11008   */\n      mstore\n        /* \"#utility.yul\":11025:11103   */\n      tag_523\n        /* \"#utility.yul\":11098:11102   */\n      dup2\n        /* \"#utility.yul\":11089:11095   */\n      dup5\n        /* \"#utility.yul\":11025:11103   */\n      tag_347\n      jump\t// in\n    tag_523:\n        /* \"#utility.yul\":11017:11103   */\n      swap1\n      pop\n        /* \"#utility.yul\":10797:11110   */\n      swap3\n      swap2\n      pop\n      pop\n      jump\t// out\n        /* \"#utility.yul\":11116:11226   */\n    tag_348:\n        /* \"#utility.yul\":11200:11201   */\n      0x03\n        /* \"#utility.yul\":11193:11198   */\n      dup2\n        /* \"#utility.yul\":11190:11202   */\n      lt\n        /* \"#utility.yul\":11180:11220   */\n      tag_525\n      jumpi\n        /* \"#utility.yul\":11216:11217   */\n      0x00\n        /* \"#utility.yul\":11213:11214   */\n      dup1\n        /* \"#utility.yul\":11206:11218   */\n      revert\n        /* \"#utility.yul\":11180:11220   */\n    tag_525:\n        /* \"#utility.yul\":11116:11226   */\n      pop\n      jump\t// out\n        /* \"#utility.yul\":11232:11393   */\n    tag_349:\n        /* \"#utility.yul\":11289:11294   */\n      0x00\n        /* \"#utility.yul\":11327:11333   */\n      dup2\n        /* \"#utility.yul\":11314:11334   */\n      calldataload\n        /* \"#utility.yul\":11305:11334   */\n      swap1\n      pop\n        /* \"#utility.yul\":11343:11387   */\n      tag_527\n        /* \"#utility.yul\":11381:11386   */\n      dup2\n        /* \"#utility.yul\":11343:11387   */\n      tag_348\n      jump\t// in\n    tag_527:\n        /* \"#utility.yul\":11232:11393   */\n      swap3\n      swap2\n      pop\n      pop\n      jump\t// out\n        /* \"#utility.yul\":11399:12075   */\n    tag_53:\n        /* \"#utility.yul\":11488:11494   */\n      0x00\n        /* \"#utility.yul\":11496:11502   */\n      dup1\n        /* \"#utility.yul\":11545:11547   */\n      0x40\n        /* \"#utility.yul\":11533:11542   */\n      dup4\n        /* \"#utility.yul\":11524:11531   */\n      dup6\n        /* \"#utility.yul\":11520:11543   */\n      sub\n        /* \"#utility.yul\":11516:11548   */\n      slt\n        /* \"#utility.yul\":11513:11632   */\n      iszero\n      tag_529\n      jumpi\n        /* \"#utility.yul\":11551:11630   */\n      tag_530\n      tag_310\n      jump\t// in\n    tag_530:\n        /* \"#utility.yul\":11513:11632   */\n    tag_529:\n        /* \"#utility.yul\":11699:11700   */\n      0x00\n        /* \"#utility.yul\":11688:11697   */\n      dup4\n        /* \"#utility.yul\":11684:11701   */\n      add\n        /* \"#utility.yul\":11671:11702   */\n      calldataload\n        /* \"#utility.yul\":11729:11747   */\n      0xffffffffffffffff\n        /* \"#utility.yul\":11721:11727   */\n      dup2\n        /* \"#utility.yul\":11718:11748   */\n      gt\n        /* \"#utility.yul\":11715:11832   */\n      iszero\n      tag_531\n      jumpi\n        /* \"#utility.yul\":11751:11830   */\n      tag_532\n      tag_311\n      jump\t// in\n    tag_532:\n        /* \"#utility.yul\":11715:11832   */\n    tag_531:\n        /* \"#utility.yul\":11856:11919   */\n      tag_533\n        /* \"#utility.yul\":11911:11918   */\n      dup6\n        /* \"#utility.yul\":11902:11908   */\n      dup3\n        /* \"#utility.yul\":11891:11900   */\n      dup7\n        /* \"#utility.yul\":11887:11909   */\n      add\n        /* \"#utility.yul\":11856:11919   */\n      tag_321\n      jump\t// in\n    tag_533:\n        /* \"#utility.yul\":11846:11919   */\n      swap3\n      pop\n        /* \"#utility.yul\":11642:11929   */\n      pop\n        /* \"#utility.yul\":11968:11970   */\n      0x20\n        /* \"#utility.yul\":11994:12058   */\n      tag_534\n        /* \"#utility.yul\":12050:12057   */\n      dup6\n        /* \"#utility.yul\":12041:12047   */\n      dup3\n        /* \"#utility.yul\":12030:12039   */\n      dup7\n        /* \"#utility.yul\":12026:12048   */\n      add\n        /* \"#utility.yul\":11994:12058   */\n      tag_349\n      jump\t// in\n    tag_534:\n        /* \"#utility.yul\":11984:12058   */\n      swap2\n      pop\n        /* \"#utility.yul\":11939:12068   */\n      pop\n        /* \"#utility.yul\":11399:12075   */\n      swap3\n      pop\n      swap3\n      swap1\n      pop\n      jump\t// out\n        /* \"#utility.yul\":12081:12243   */\n    tag_350:\n        /* \"#utility.yul\":12221:12235   */\n      0x4d656d626572206f6e6c792e0000000000000000000000000000000000000000\n        /* \"#utility.yul\":12217:12218   */\n      0x00\n        /* \"#utility.yul\":12209:12215   */\n      dup3\n        /* \"#utility.yul\":12205:12219   */\n      add\n        /* \"#utility.yul\":12198:12236   */\n      mstore\n        /* \"#utility.yul\":12081:12243   */\n      pop\n      jump\t// out\n        /* \"#utility.yul\":12249:12615   */\n    tag_351:\n        /* \"#utility.yul\":12391:12394   */\n      0x00\n        /* \"#utility.yul\":12412:12479   */\n      tag_537\n        /* \"#utility.yul\":12476:12478   */\n      0x0c\n        /* \"#utility.yul\":12471:12474   */\n      dup4\n        /* \"#utility.yul\":12412:12479   */\n      tag_345\n      jump\t// in\n    tag_537:\n        /* \"#utility.yul\":12405:12479   */\n      swap2\n      pop\n        /* \"#utility.yul\":12488:12581   */\n      tag_538\n        /* \"#utility.yul\":12577:12580   */\n      dup3\n        /* \"#utility.yul\":12488:12581   */\n      tag_350\n      jump\t// in\n    tag_538:\n        /* \"#utility.yul\":12606:12608   */\n      0x20\n        /* \"#utility.yul\":12601:12604   */\n      dup3\n        /* \"#utility.yul\":12597:12609   */\n      add\n        /* \"#utility.yul\":12590:12609   */\n      swap1\n      pop\n        /* \"#utility.yul\":12249:12615   */\n      swap2\n      swap1\n      pop\n      jump\t// out\n        /* \"#utility.yul\":12621:13040   */\n    tag_60:\n        /* \"#utility.yul\":12787:12791   */\n      0x00\n        /* \"#utility.yul\":12825:12827   */\n      0x20\n        /* \"#utility.yul\":12814:12823   */\n      dup3\n        /* \"#utility.yul\":12810:12828   */\n      add\n        /* \"#utility.yul\":12802:12828   */\n      swap1\n      pop\n        /* \"#utility.yul\":12874:12883   */\n      dup2\n        /* \"#utility.yul\":12868:12872   */\n      dup2\n        /* \"#utility.yul\":12864:12884   */\n      sub\n        /* \"#utility.yul\":12860:12861   */\n      0x00\n        /* \"#utility.yul\":12849:12858   */\n      dup4\n        /* \"#utility.yul\":12845:12862   */\n      add\n        /* \"#utility.yul\":12838:12885   */\n      mstore\n        /* \"#utility.yul\":12902:13033   */\n      tag_540\n        /* \"#utility.yul\":13028:13032   */\n      dup2\n        /* \"#utility.yul\":12902:13033   */\n      tag_351\n      jump\t// in\n    tag_540:\n        /* \"#utility.yul\":12894:13033   */\n      swap1\n      pop\n        /* \"#utility.yul\":12621:13040   */\n      swap2\n      swap1\n      pop\n      jump\t// out\n        /* \"#utility.yul\":13046:13226   */\n    tag_352:\n        /* \"#utility.yul\":13094:13171   */\n      0x4e487b7100000000000000000000000000000000000000000000000000000000\n        /* \"#utility.yul\":13091:13092   */\n      0x00\n        /* \"#utility.yul\":13084:13172   */\n      mstore\n        /* \"#utility.yul\":13191:13195   */\n      0x22\n        /* \"#utility.yul\":13188:13189   */\n      0x04\n        /* \"#utility.yul\":13181:13196   */\n      mstore\n        /* \"#utility.yul\":13215:13219   */\n      0x24\n        /* \"#utility.yul\":13212:13213   */\n      0x00\n        /* \"#utility.yul\":13205:13220   */\n      revert\n        /* \"#utility.yul\":13232:13552   */\n    tag_166:\n        /* \"#utility.yul\":13276:13282   */\n      0x00\n        /* \"#utility.yul\":13313:13314   */\n      0x02\n        /* \"#utility.yul\":13307:13311   */\n      dup3\n        /* \"#utility.yul\":13303:13315   */\n      div\n        /* \"#utility.yul\":13293:13315   */\n      swap1\n      pop\n        /* \"#utility.yul\":13360:13361   */\n      0x01\n        /* \"#utility.yul\":13354:13358   */\n      dup3\n        /* \"#utility.yul\":13350:13362   */\n      and\n        /* \"#utility.yul\":13381:13399   */\n      dup1\n        /* \"#utility.yul\":13371:13452   */\n      tag_543\n      jumpi\n        /* \"#utility.yul\":13437:13441   */\n      0x7f\n        /* \"#utility.yul\":13429:13435   */\n      dup3\n        /* \"#utility.yul\":13425:13442   */\n      and\n        /* \"#utility.yul\":13415:13442   */\n      swap2\n      pop\n        /* \"#utility.yul\":13371:13452   */\n    tag_543:\n        /* \"#utility.yul\":13499:13501   */\n      0x20\n        /* \"#utility.yul\":13491:13497   */\n      dup3\n        /* \"#utility.yul\":13488:13502   */\n      lt\n        /* \"#utility.yul\":13468:13486   */\n      dup2\n        /* \"#utility.yul\":13465:13503   */\n      sub\n        /* \"#utility.yul\":13462:13546   */\n      tag_544\n      jumpi\n        /* \"#utility.yul\":13518:13536   */\n      tag_545\n      tag_352\n      jump\t// in\n    tag_545:\n        /* \"#utility.yul\":13462:13546   */\n    tag_544:\n        /* \"#utility.yul\":13283:13552   */\n      pop\n        /* \"#utility.yul\":13232:13552   */\n      swap2\n      swap1\n      pop\n      jump\t// out\n        /* \"#utility.yul\":13558:13706   */\n    tag_353:\n        /* \"#utility.yul\":13660:13671   */\n      0x00\n        /* \"#utility.yul\":13697:13700   */\n      dup2\n        /* \"#utility.yul\":13682:13700   */\n      swap1\n      pop\n        /* \"#utility.yul\":13558:13706   */\n      swap3\n      swap2\n      pop\n      pop\n      jump\t// out\n        /* \"#utility.yul\":13712:13853   */\n    tag_354:\n        /* \"#utility.yul\":13761:13765   */\n      0x00\n        /* \"#utility.yul\":13784:13787   */\n      dup2\n        /* \"#utility.yul\":13776:13787   */\n      swap1\n      pop\n        /* \"#utility.yul\":13807:13810   */\n      dup2\n        /* \"#utility.yul\":13804:13805   */\n      0x00\n        /* \"#utility.yul\":13797:13811   */\n      mstore\n        /* \"#utility.yul\":13841:13845   */\n      0x20\n        /* \"#utility.yul\":13838:13839   */\n      0x00\n        /* \"#utility.yul\":13828:13846   */\n      keccak256\n        /* \"#utility.yul\":13820:13846   */\n      swap1\n      pop\n        /* \"#utility.yul\":13712:13853   */\n      swap2\n      swap1\n      pop\n      jump\t// out\n        /* \"#utility.yul\":13883:14757   */\n    tag_355:\n        /* \"#utility.yul\":13986:13989   */\n      0x00\n        /* \"#utility.yul\":14023:14028   */\n      dup2\n        /* \"#utility.yul\":14017:14029   */\n      sload\n        /* \"#utility.yul\":14052:14088   */\n      tag_549\n        /* \"#utility.yul\":14078:14087   */\n      dup2\n        /* \"#utility.yul\":14052:14088   */\n      tag_166\n      jump\t// in\n    tag_549:\n        /* \"#utility.yul\":14104:14193   */\n      tag_550\n        /* \"#utility.yul\":14186:14192   */\n      dup2\n        /* \"#utility.yul\":14181:14184   */\n      dup7\n        /* \"#utility.yul\":14104:14193   */\n      tag_353\n      jump\t// in\n    tag_550:\n        /* \"#utility.yul\":14097:14193   */\n      swap5\n      pop\n        /* \"#utility.yul\":14224:14225   */\n      0x01\n        /* \"#utility.yul\":14213:14222   */\n      dup3\n        /* \"#utility.yul\":14209:14226   */\n      and\n        /* \"#utility.yul\":14240:14241   */\n      0x00\n        /* \"#utility.yul\":14235:14401   */\n      dup2\n      eq\n      tag_552\n      jumpi\n        /* \"#utility.yul\":14415:14416   */\n      0x01\n        /* \"#utility.yul\":14410:14751   */\n      dup2\n      eq\n      tag_553\n      jumpi\n        /* \"#utility.yul\":14202:14751   */\n      jump(tag_551)\n        /* \"#utility.yul\":14235:14401   */\n    tag_552:\n        /* \"#utility.yul\":14319:14323   */\n      0xff\n        /* \"#utility.yul\":14315:14324   */\n      not\n        /* \"#utility.yul\":14304:14313   */\n      dup4\n        /* \"#utility.yul\":14300:14325   */\n      and\n        /* \"#utility.yul\":14295:14298   */\n      dup7\n        /* \"#utility.yul\":14288:14326   */\n      mstore\n        /* \"#utility.yul\":14381:14387   */\n      dup2\n        /* \"#utility.yul\":14374:14388   */\n      iszero\n        /* \"#utility.yul\":14367:14389   */\n      iszero\n        /* \"#utility.yul\":14359:14365   */\n      dup3\n        /* \"#utility.yul\":14355:14390   */\n      mul\n        /* \"#utility.yul\":14350:14353   */\n      dup7\n        /* \"#utility.yul\":14346:14391   */\n      add\n        /* \"#utility.yul\":14339:14391   */\n      swap4\n      pop\n        /* \"#utility.yul\":14235:14401   */\n      jump(tag_551)\n        /* \"#utility.yul\":14410:14751   */\n    tag_553:\n        /* \"#utility.yul\":14477:14515   */\n      tag_554\n        /* \"#utility.yul\":14509:14514   */\n      dup6\n        /* \"#utility.yul\":14477:14515   */\n      tag_354\n      jump\t// in\n    tag_554:\n        /* \"#utility.yul\":14537:14538   */\n      0x00\n        /* \"#utility.yul\":14551:14705   */\n    tag_555:\n        /* \"#utility.yul\":14565:14571   */\n      dup4\n        /* \"#utility.yul\":14562:14563   */\n      dup2\n        /* \"#utility.yul\":14559:14572   */\n      lt\n        /* \"#utility.yul\":14551:14705   */\n      iszero\n      tag_557\n      jumpi\n        /* \"#utility.yul\":14639:14646   */\n      dup2\n        /* \"#utility.yul\":14633:14647   */\n      sload\n        /* \"#utility.yul\":14629:14630   */\n      dup2\n        /* \"#utility.yul\":14624:14627   */\n      dup10\n        /* \"#utility.yul\":14620:14631   */\n      add\n        /* \"#utility.yul\":14613:14648   */\n      mstore\n        /* \"#utility.yul\":14689:14690   */\n      0x01\n        /* \"#utility.yul\":14680:14687   */\n      dup3\n        /* \"#utility.yul\":14676:14691   */\n      add\n        /* \"#utility.yul\":14665:14691   */\n      swap2\n      pop\n        /* \"#utility.yul\":14587:14591   */\n      0x20\n        /* \"#utility.yul\":14584:14585   */\n      dup2\n        /* \"#utility.yul\":14580:14592   */\n      add\n        /* \"#utility.yul\":14575:14592   */\n      swap1\n      pop\n        /* \"#utility.yul\":14551:14705   */\n      jump(tag_555)\n    tag_557:\n        /* \"#utility.yul\":14734:14740   */\n      dup4\n        /* \"#utility.yul\":14729:14732   */\n      dup9\n        /* \"#utility.yul\":14725:14741   */\n      add\n        /* \"#utility.yul\":14718:14741   */\n      swap6\n      pop\n        /* \"#utility.yul\":14417:14751   */\n      pop\n      pop\n        /* \"#utility.yul\":14202:14751   */\n    tag_551:\n      pop\n        /* \"#utility.yul\":13990:14757   */\n      pop\n      pop\n        /* \"#utility.yul\":13883:14757   */\n      swap3\n      swap2\n      pop\n      pop\n      jump\t// out\n        /* \"#utility.yul\":14763:15032   */\n    tag_62:\n        /* \"#utility.yul\":14892:14895   */\n      0x00\n        /* \"#utility.yul\":14914:15006   */\n      tag_559\n        /* \"#utility.yul\":15002:15005   */\n      dup3\n        /* \"#utility.yul\":14993:14999   */\n      dup5\n        /* \"#utility.yul\":14914:15006   */\n      tag_355\n      jump\t// in\n    tag_559:\n        /* \"#utility.yul\":14907:15006   */\n      swap2\n      pop\n        /* \"#utility.yul\":15023:15026   */\n      dup2\n        /* \"#utility.yul\":15016:15026   */\n      swap1\n      pop\n        /* \"#utility.yul\":14763:15032   */\n      swap3\n      swap2\n      pop\n      pop\n      jump\t// out\n        /* \"#utility.yul\":15038:15205   */\n    tag_356:\n        /* \"#utility.yul\":15178:15197   */\n      0x50726f706f73616c2070656e64696e672e000000000000000000000000000000\n        /* \"#utility.yul\":15174:15175   */\n      0x00\n        /* \"#utility.yul\":15166:15172   */\n      dup3\n        /* \"#utility.yul\":15162:15176   */\n      add\n        /* \"#utility.yul\":15155:15198   */\n      mstore\n        /* \"#utility.yul\":15038:15205   */\n      pop\n      jump\t// out\n        /* \"#utility.yul\":15211:15577   */\n    tag_357:\n        /* \"#utility.yul\":15353:15356   */\n      0x00\n        /* \"#utility.yul\":15374:15441   */\n      tag_562\n        /* \"#utility.yul\":15438:15440   */\n      0x11\n        /* \"#utility.yul\":15433:15436   */\n      dup4\n        /* \"#utility.yul\":15374:15441   */\n      tag_345\n      jump\t// in\n    tag_562:\n        /* \"#utility.yul\":15367:15441   */\n      swap2\n      pop\n        /* \"#utility.yul\":15450:15543   */\n      tag_563\n        /* \"#utility.yul\":15539:15542   */\n      dup3\n        /* \"#utility.yul\":15450:15543   */\n      tag_356\n      jump\t// in\n    tag_563:\n        /* \"#utility.yul\":15568:15570   */\n      0x20\n        /* \"#utility.yul\":15563:15566   */\n      dup3\n        /* \"#utility.yul\":15559:15571   */\n      add\n        /* \"#utility.yul\":15552:15571   */\n      swap1\n      pop\n        /* \"#utility.yul\":15211:15577   */\n      swap2\n      swap1\n      pop\n      jump\t// out\n        /* \"#utility.yul\":15583:16002   */\n    tag_70:\n        /* \"#utility.yul\":15749:15753   */\n      0x00\n        /* \"#utility.yul\":15787:15789   */\n      0x20\n        /* \"#utility.yul\":15776:15785   */\n      dup3\n        /* \"#utility.yul\":15772:15790   */\n      add\n        /* \"#utility.yul\":15764:15790   */\n      swap1\n      pop\n        /* \"#utility.yul\":15836:15845   */\n      dup2\n        /* \"#utility.yul\":15830:15834   */\n      dup2\n        /* \"#utility.yul\":15826:15846   */\n      sub\n        /* \"#utility.yul\":15822:15823   */\n      0x00\n        /* \"#utility.yul\":15811:15820   */\n      dup4\n        /* \"#utility.yul\":15807:15824   */\n      add\n        /* \"#utility.yul\":15800:15847   */\n      mstore\n        /* \"#utility.yul\":15864:15995   */\n      tag_565\n        /* \"#utility.yul\":15990:15994   */\n      dup2\n        /* \"#utility.yul\":15864:15995   */\n      tag_357\n      jump\t// in\n    tag_565:\n        /* \"#utility.yul\":15856:15995   */\n      swap1\n      pop\n        /* \"#utility.yul\":15583:16002   */\n      swap2\n      swap1\n      pop\n      jump\t// out\n        /* \"#utility.yul\":16008:16398   */\n    tag_358:\n        /* \"#utility.yul\":16114:16117   */\n      0x00\n        /* \"#utility.yul\":16142:16181   */\n      tag_567\n        /* \"#utility.yul\":16175:16180   */\n      dup3\n        /* \"#utility.yul\":16142:16181   */\n      tag_344\n      jump\t// in\n    tag_567:\n        /* \"#utility.yul\":16197:16286   */\n      tag_568\n        /* \"#utility.yul\":16279:16285   */\n      dup2\n        /* \"#utility.yul\":16274:16277   */\n      dup6\n        /* \"#utility.yul\":16197:16286   */\n      tag_353\n      jump\t// in\n    tag_568:\n        /* \"#utility.yul\":16190:16286   */\n      swap4\n      pop\n        /* \"#utility.yul\":16295:16360   */\n      tag_569\n        /* \"#utility.yul\":16353:16359   */\n      dup2\n        /* \"#utility.yul\":16348:16351   */\n      dup6\n        /* \"#utility.yul\":16341:16345   */\n      0x20\n        /* \"#utility.yul\":16334:16339   */\n      dup7\n        /* \"#utility.yul\":16330:16346   */\n      add\n        /* \"#utility.yul\":16295:16360   */\n      tag_346\n      jump\t// in\n    tag_569:\n        /* \"#utility.yul\":16385:16391   */\n      dup1\n        /* \"#utility.yul\":16380:16383   */\n      dup5\n        /* \"#utility.yul\":16376:16392   */\n      add\n        /* \"#utility.yul\":16369:16392   */\n      swap2\n      pop\n        /* \"#utility.yul\":16118:16398   */\n      pop\n        /* \"#utility.yul\":16008:16398   */\n      swap3\n      swap2\n      pop\n      pop\n      jump\t// out\n        /* \"#utility.yul\":16404:16679   */\n    tag_72:\n        /* \"#utility.yul\":16536:16539   */\n      0x00\n        /* \"#utility.yul\":16558:16653   */\n      tag_571\n        /* \"#utility.yul\":16649:16652   */\n      dup3\n        /* \"#utility.yul\":16640:16646   */\n      dup5\n        /* \"#utility.yul\":16558:16653   */\n      tag_358\n      jump\t// in\n    tag_571:\n        /* \"#utility.yul\":16551:16653   */\n      swap2\n      pop\n        /* \"#utility.yul\":16670:16673   */\n      dup2\n        /* \"#utility.yul\":16663:16673   */\n      swap1\n      pop\n        /* \"#utility.yul\":16404:16679   */\n      swap3\n      swap2\n      pop\n      pop\n      jump\t// out\n        /* \"#utility.yul\":16685:16851   */\n    tag_359:\n        /* \"#utility.yul\":16825:16843   */\n      0x50726f706f73616c206578697374732e00000000000000000000000000000000\n        /* \"#utility.yul\":16821:16822   */\n      0x00\n        /* \"#utility.yul\":16813:16819   */\n      dup3\n        /* \"#utility.yul\":16809:16823   */\n      add\n        /* \"#utility.yul\":16802:16844   */\n      mstore\n        /* \"#utility.yul\":16685:16851   */\n      pop\n      jump\t// out\n        /* \"#utility.yul\":16857:17223   */\n    tag_360:\n        /* \"#utility.yul\":16999:17002   */\n      0x00\n        /* \"#utility.yul\":17020:17087   */\n      tag_574\n        /* \"#utility.yul\":17084:17086   */\n      0x10\n        /* \"#utility.yul\":17079:17082   */\n      dup4\n        /* \"#utility.yul\":17020:17087   */\n      tag_345\n      jump\t// in\n    tag_574:\n        /* \"#utility.yul\":17013:17087   */\n      swap2\n      pop\n        /* \"#utility.yul\":17096:17189   */\n      tag_575\n        /* \"#utility.yul\":17185:17188   */\n      dup3\n        /* \"#utility.yul\":17096:17189   */\n      tag_359\n      jump\t// in\n    tag_575:\n        /* \"#utility.yul\":17214:17216   */\n      0x20\n        /* \"#utility.yul\":17209:17212   */\n      dup3\n        /* \"#utility.yul\":17205:17217   */\n      add\n        /* \"#utility.yul\":17198:17217   */\n      swap1\n      pop\n        /* \"#utility.yul\":16857:17223   */\n      swap2\n      swap1\n      pop\n      jump\t// out\n        /* \"#utility.yul\":17229:17648   */\n    tag_79:\n        /* \"#utility.yul\":17395:17399   */\n      0x00\n        /* \"#utility.yul\":17433:17435   */\n      0x20\n        /* \"#utility.yul\":17422:17431   */\n      dup3\n        /* \"#utility.yul\":17418:17436   */\n      add\n        /* \"#utility.yul\":17410:17436   */\n      swap1\n      pop\n        /* \"#utility.yul\":17482:17491   */\n      dup2\n        /* \"#utility.yul\":17476:17480   */\n      dup2\n        /* \"#utility.yul\":17472:17492   */\n      sub\n        /* \"#utility.yul\":17468:17469   */\n      0x00\n        /* \"#utility.yul\":17457:17466   */\n      dup4\n        /* \"#utility.yul\":17453:17470   */\n      add\n        /* \"#utility.yul\":17446:17493   */\n      mstore\n        /* \"#utility.yul\":17510:17641   */\n      tag_577\n        /* \"#utility.yul\":17636:17640   */\n      dup2\n        /* \"#utility.yul\":17510:17641   */\n      tag_360\n      jump\t// in\n    tag_577:\n        /* \"#utility.yul\":17502:17641   */\n      swap1\n      pop\n        /* \"#utility.yul\":17229:17648   */\n      swap2\n      swap1\n      pop\n      jump\t// out\n        /* \"#utility.yul\":17654:17747   */\n    tag_361:\n        /* \"#utility.yul\":17691:17697   */\n      0x00\n        /* \"#utility.yul\":17738:17740   */\n      0x20\n        /* \"#utility.yul\":17733:17735   */\n      0x1f\n        /* \"#utility.yul\":17726:17731   */\n      dup4\n        /* \"#utility.yul\":17722:17736   */\n      add\n        /* \"#utility.yul\":17718:17741   */\n      div\n        /* \"#utility.yul\":17708:17741   */\n      swap1\n      pop\n        /* \"#utility.yul\":17654:17747   */\n      swap2\n      swap1\n      pop\n      jump\t// out\n        /* \"#utility.yul\":17753:17860   */\n    tag_362:\n        /* \"#utility.yul\":17797:17805   */\n      0x00\n        /* \"#utility.yul\":17847:17852   */\n      dup3\n        /* \"#utility.yul\":17841:17845   */\n      dup3\n        /* \"#utility.yul\":17837:17853   */\n      shl\n        /* \"#utility.yul\":17816:17853   */\n      swap1\n      pop\n        /* \"#utility.yul\":17753:17860   */\n      swap3\n      swap2\n      pop\n      pop\n      jump\t// out\n        /* \"#utility.yul\":17866:18259   */\n    tag_363:\n        /* \"#utility.yul\":17935:17941   */\n      0x00\n        /* \"#utility.yul\":17985:17986   */\n      0x08\n        /* \"#utility.yul\":17973:17983   */\n      dup4\n        /* \"#utility.yul\":17969:17987   */\n      mul\n        /* \"#utility.yul\":18008:18105   */\n      tag_581\n        /* \"#utility.yul\":18038:18104   */\n      0xffffffffffffffffffffffffffffffffffffffffffffffffffffffffffffffff\n        /* \"#utility.yul\":18027:18036   */\n      dup3\n        /* \"#utility.yul\":18008:18105   */\n      tag_362\n      jump\t// in\n    tag_581:\n        /* \"#utility.yul\":18126:18165   */\n      tag_582\n        /* \"#utility.yul\":18156:18164   */\n      dup7\n        /* \"#utility.yul\":18145:18154   */\n      dup4\n        /* \"#utility.yul\":18126:18165   */\n      tag_362\n      jump\t// in\n    tag_582:\n        /* \"#utility.yul\":18114:18165   */\n      swap6\n      pop\n        /* \"#utility.yul\":18198:18202   */\n      dup1\n        /* \"#utility.yul\":18194:18203   */\n      not\n        /* \"#utility.yul\":18187:18192   */\n      dup5\n        /* \"#utility.yul\":18183:18204   */\n      and\n        /* \"#utility.yul\":18174:18204   */\n      swap4\n      pop\n        /* \"#utility.yul\":18247:18251   */\n      dup1\n        /* \"#utility.yul\":18237:18245   */\n      dup7\n        /* \"#utility.yul\":18233:18252   */\n      and\n        /* \"#utility.yul\":18226:18231   */\n      dup5\n        /* \"#utility.yul\":18223:18253   */\n      or\n        /* \"#utility.yul\":18213:18253   */\n      swap3\n      pop\n        /* \"#utility.yul\":17942:18259   */\n      pop\n      pop\n        /* \"#utility.yul\":17866:18259   */\n      swap4\n      swap3\n      pop\n      pop\n      pop\n      jump\t// out\n        /* \"#utility.yul\":18265:18325   */\n    tag_364:\n        /* \"#utility.yul\":18293:18296   */\n      0x00\n        /* \"#utility.yul\":18314:18319   */\n      dup2\n        /* \"#utility.yul\":18307:18319   */\n      swap1\n      pop\n        /* \"#utility.yul\":18265:18325   */\n      swap2\n      swap1\n      pop\n      jump\t// out\n        /* \"#utility.yul\":18331:18473   */\n    tag_365:\n        /* \"#utility.yul\":18381:18390   */\n      0x00\n        /* \"#utility.yul\":18414:18467   */\n      tag_585\n        /* \"#utility.yul\":18432:18466   */\n      tag_586\n        /* \"#utility.yul\":18441:18465   */\n      tag_587\n        /* \"#utility.yul\":18459:18464   */\n      dup5\n        /* \"#utility.yul\":18441:18465   */\n      tag_341\n      jump\t// in\n    tag_587:\n        /* \"#utility.yul\":18432:18466   */\n      tag_364\n      jump\t// in\n    tag_586:\n        /* \"#utility.yul\":18414:18467   */\n      tag_341\n      jump\t// in\n    tag_585:\n        /* \"#utility.yul\":18401:18467   */\n      swap1\n      pop\n        /* \"#utility.yul\":18331:18473   */\n      swap2\n      swap1\n      pop\n      jump\t// out\n        /* \"#utility.yul\":18479:18554   */\n    tag_366:\n        /* \"#utility.yul\":18522:18525   */\n      0x00\n        /* \"#utility.yul\":18543:18548   */\n      dup2\n        /* \"#utility.yul\":18536:18548   */\n      swap1\n      pop\n        /* \"#utility.yul\":18479:18554   */\n      swap2\n      swap1\n      pop\n      jump\t// out\n        /* \"#utility.yul\":18560:18829   */\n    tag_367:\n        /* \"#utility.yul\":18670:18709   */\n      tag_590\n        /* \"#utility.yul\":18701:18708   */\n      dup4\n        /* \"#utility.yul\":18670:18709   */\n      tag_365\n      jump\t// in\n    tag_590:\n        /* \"#utility.yul\":18731:18822   */\n      tag_591\n        /* \"#utility.yul\":18780:18821   */\n      tag_592\n        /* \"#utility.yul\":18804:18820   */\n      dup3\n        /* \"#utility.yul\":18780:18821   */\n      tag_366\n      jump\t// in\n    tag_592:\n        /* \"#utility.yul\":18772:18778   */\n      dup5\n        /* \"#utility.yul\":18765:18769   */\n      dup5\n        /* \"#utility.yul\":18759:18770   */\n      sload\n        /* \"#utility.yul\":18731:18822   */\n      tag_363\n      jump\t// in\n    tag_591:\n        /* \"#utility.yul\":18725:18729   */\n      dup3\n        /* \"#utility.yul\":18718:18823   */\n      sstore\n        /* \"#utility.yul\":18636:18829   */\n      pop\n        /* \"#utility.yul\":18560:18829   */\n      pop\n      pop\n      pop\n      jump\t// out\n        /* \"#utility.yul\":18835:18908   */\n    tag_368:\n        /* \"#utility.yul\":18880:18883   */\n      0x00\n        /* \"#utility.yul\":18835:18908   */\n      swap1\n      jump\t// out\n        /* \"#utility.yul\":18914:19103   */\n    tag_369:\n        /* \"#utility.yul\":18991:19023   */\n      tag_595\n      tag_368\n      jump\t// in\n    tag_595:\n        /* \"#utility.yul\":19032:19097   */\n      tag_596\n        /* \"#utility.yul\":19090:19096   */\n      dup2\n        /* \"#utility.yul\":19082:19088   */\n      dup5\n        /* \"#utility.yul\":19076:19080   */\n      dup5\n        /* \"#utility.yul\":19032:19097   */\n      tag_367\n      jump\t// in\n    tag_596:\n        /* \"#utility.yul\":18967:19103   */\n      pop\n        /* \"#utility.yul\":18914:19103   */\n      pop\n      pop\n      jump\t// out\n        /* \"#utility.yul\":19109:19295   */\n    tag_370:\n        /* \"#utility.yul\":19169:19289   */\n    tag_598:\n        /* \"#utility.yul\":19186:19189   */\n      dup2\n        /* \"#utility.yul\":19179:19184   */\n      dup2\n        /* \"#utility.yul\":19176:19190   */\n      lt\n        /* \"#utility.yul\":19169:19289   */\n      iszero\n      tag_600\n      jumpi\n        /* \"#utility.yul\":19240:19279   */\n      tag_601\n        /* \"#utility.yul\":19277:19278   */\n      0x00\n        /* \"#utility.yul\":19270:19275   */\n      dup3\n        /* \"#utility.yul\":19240:19279   */\n      tag_369\n      jump\t// in\n    tag_601:\n        /* \"#utility.yul\":19213:19214   */\n      0x01\n        /* \"#utility.yul\":19206:19211   */\n      dup2\n        /* \"#utility.yul\":19202:19215   */\n      add\n        /* \"#utility.yul\":19193:19215   */\n      swap1\n      pop\n        /* \"#utility.yul\":19169:19289   */\n      jump(tag_598)\n    tag_600:\n        /* \"#utility.yul\":19109:19295   */\n      pop\n      pop\n      jump\t// out\n        /* \"#utility.yul\":19301:19844   */\n    tag_371:\n        /* \"#utility.yul\":19402:19404   */\n      0x1f\n        /* \"#utility.yul\":19397:19400   */\n      dup3\n        /* \"#utility.yul\":19394:19405   */\n      gt\n        /* \"#utility.yul\":19391:19837   */\n      iszero\n      tag_603\n      jumpi\n        /* \"#utility.yul\":19436:19474   */\n      tag_604\n        /* \"#utility.yul\":19468:19473   */\n      dup2\n        /* \"#utility.yul\":19436:19474   */\n      tag_354\n      jump\t// in\n    tag_604:\n        /* \"#utility.yul\":19520:19549   */\n      tag_605\n        /* \"#utility.yul\":19538:19548   */\n      dup5\n        /* \"#utility.yul\":19520:19549   */\n      tag_361\n      jump\t// in\n    tag_605:\n        /* \"#utility.yul\":19510:19518   */\n      dup2\n        /* \"#utility.yul\":19506:19550   */\n      add\n        /* \"#utility.yul\":19703:19705   */\n      0x20\n        /* \"#utility.yul\":19691:19701   */\n      dup6\n        /* \"#utility.yul\":19688:19706   */\n      lt\n        /* \"#utility.yul\":19685:19734   */\n      iszero\n      tag_606\n      jumpi\n        /* \"#utility.yul\":19724:19732   */\n      dup2\n        /* \"#utility.yul\":19709:19732   */\n      swap1\n      pop\n        /* \"#utility.yul\":19685:19734   */\n    tag_606:\n        /* \"#utility.yul\":19747:19827   */\n      tag_607\n        /* \"#utility.yul\":19803:19825   */\n      tag_608\n        /* \"#utility.yul\":19821:19824   */\n      dup6\n        /* \"#utility.yul\":19803:19825   */\n      tag_361\n      jump\t// in\n    tag_608:\n        /* \"#utility.yul\":19793:19801   */\n      dup4\n        /* \"#utility.yul\":19789:19826   */\n      add\n        /* \"#utility.yul\":19776:19787   */\n      dup3\n        /* \"#utility.yul\":19747:19827   */\n      tag_370\n      jump\t// in\n    tag_607:\n        /* \"#utility.yul\":19406:19837   */\n      pop\n      pop\n        /* \"#utility.yul\":19391:19837   */\n    tag_603:\n        /* \"#utility.yul\":19301:19844   */\n      pop\n      pop\n      pop\n      jump\t// out\n        /* \"#utility.yul\":19850:19967   */\n    tag_372:\n        /* \"#utility.yul\":19904:19912   */\n      0x00\n        /* \"#utility.yul\":19954:19959   */\n      dup3\n        /* \"#utility.yul\":19948:19952   */\n      dup3\n        /* \"#utility.yul\":19944:19960   */\n      shr\n        /* \"#utility.yul\":19923:19960   */\n      swap1\n      pop\n        /* \"#utility.yul\":19850:19967   */\n      swap3\n      swap2\n      pop\n      pop\n      jump\t// out\n        /* \"#utility.yul\":19973:20142   */\n    tag_373:\n        /* \"#utility.yul\":20017:20023   */\n      0x00\n        /* \"#utility.yul\":20050:20101   */\n      tag_611\n        /* \"#utility.yul\":20098:20099   */\n      0x00\n        /* \"#utility.yul\":20094:20100   */\n      not\n        /* \"#utility.yul\":20086:20091   */\n      dup5\n        /* \"#utility.yul\":20083:20084   */\n      0x08\n        /* \"#utility.yul\":20079:20092   */\n      mul\n        /* \"#utility.yul\":20050:20101   */\n      tag_372\n      jump\t// in\n    tag_611:\n        /* \"#utility.yul\":20046:20102   */\n      not\n        /* \"#utility.yul\":20131:20135   */\n      dup1\n        /* \"#utility.yul\":20125:20129   */\n      dup4\n        /* \"#utility.yul\":20121:20136   */\n      and\n        /* \"#utility.yul\":20111:20136   */\n      swap2\n      pop\n        /* \"#utility.yul\":20024:20142   */\n      pop\n        /* \"#utility.yul\":19973:20142   */\n      swap3\n      swap2\n      pop\n      pop\n      jump\t// out\n        /* \"#utility.yul\":20147:20442   */\n    tag_374:\n        /* \"#utility.yul\":20223:20227   */\n      0x00\n        /* \"#utility.yul\":20369:20398   */\n      tag_613\n        /* \"#utility.yul\":20394:20397   */\n      dup4\n        /* \"#utility.yul\":20388:20392   */\n      dup4\n        /* \"#utility.yul\":20369:20398   */\n      tag_373\n      jump\t// in\n    tag_613:\n        /* \"#utility.yul\":20361:20398   */\n      swap2\n      pop\n        /* \"#utility.yul\":20431:20434   */\n      dup3\n        /* \"#utility.yul\":20428:20429   */\n      0x02\n        /* \"#utility.yul\":20424:20435   */\n      mul\n        /* \"#utility.yul\":20418:20422   */\n      dup3\n        /* \"#utility.yul\":20415:20436   */\n      or\n        /* \"#utility.yul\":20407:20436   */\n      swap1\n      pop\n        /* \"#utility.yul\":20147:20442   */\n      swap3\n      swap2\n      pop\n      pop\n      jump\t// out\n        /* \"#utility.yul\":20447:21842   */\n    tag_90:\n        /* \"#utility.yul\":20564:20601   */\n      tag_615\n        /* \"#utility.yul\":20597:20600   */\n      dup3\n        /* \"#utility.yul\":20564:20601   */\n      tag_344\n      jump\t// in\n    tag_615:\n        /* \"#utility.yul\":20666:20684   */\n      0xffffffffffffffff\n        /* \"#utility.yul\":20658:20664   */\n      dup2\n        /* \"#utility.yul\":20655:20685   */\n      gt\n        /* \"#utility.yul\":20652:20708   */\n      iszero\n      tag_616\n      jumpi\n        /* \"#utility.yul\":20688:20706   */\n      tag_617\n      tag_315\n      jump\t// in\n    tag_617:\n        /* \"#utility.yul\":20652:20708   */\n    tag_616:\n        /* \"#utility.yul\":20732:20770   */\n      tag_618\n        /* \"#utility.yul\":20764:20768   */\n      dup3\n        /* \"#utility.yul\":20758:20769   */\n      sload\n        /* \"#utility.yul\":20732:20770   */\n      tag_166\n      jump\t// in\n    tag_618:\n        /* \"#utility.yul\":20817:20884   */\n      tag_619\n        /* \"#utility.yul\":20877:20883   */\n      dup3\n        /* \"#utility.yul\":20869:20875   */\n      dup3\n        /* \"#utility.yul\":20863:20867   */\n      dup6\n        /* \"#utility.yul\":20817:20884   */\n      tag_371\n      jump\t// in\n    tag_619:\n        /* \"#utility.yul\":20911:20912   */\n      0x00\n        /* \"#utility.yul\":20935:20939   */\n      0x20\n        /* \"#utility.yul\":20922:20939   */\n      swap1\n      pop\n        /* \"#utility.yul\":20967:20969   */\n      0x1f\n        /* \"#utility.yul\":20959:20965   */\n      dup4\n        /* \"#utility.yul\":20956:20970   */\n      gt\n        /* \"#utility.yul\":20984:20985   */\n      0x01\n        /* \"#utility.yul\":20979:21597   */\n      dup2\n      eq\n      tag_621\n      jumpi\n        /* \"#utility.yul\":21641:21642   */\n      0x00\n        /* \"#utility.yul\":21658:21664   */\n      dup5\n        /* \"#utility.yul\":21655:21732   */\n      iszero\n      tag_622\n      jumpi\n        /* \"#utility.yul\":21707:21716   */\n      dup3\n        /* \"#utility.yul\":21702:21705   */\n      dup8\n        /* \"#utility.yul\":21698:21717   */\n      add\n        /* \"#utility.yul\":21692:21718   */\n      mload\n        /* \"#utility.yul\":21683:21718   */\n      swap1\n      pop\n        /* \"#utility.yul\":21655:21732   */\n    tag_622:\n        /* \"#utility.yul\":21758:21825   */\n      tag_623\n        /* \"#utility.yul\":21818:21824   */\n      dup6\n        /* \"#utility.yul\":21811:21816   */\n      dup3\n        /* \"#utility.yul\":21758:21825   */\n      tag_374\n      jump\t// in\n    tag_623:\n        /* \"#utility.yul\":21752:21756   */\n      dup7\n        /* \"#utility.yul\":21745:21826   */\n      sstore\n        /* \"#utility.yul\":21614:21836   */\n      pop\n        /* \"#utility.yul\":20949:21836   */\n      jump(tag_620)\n        /* \"#utility.yul\":20979:21597   */\n    tag_621:\n        /* \"#utility.yul\":21031:21035   */\n      0x1f\n        /* \"#utility.yul\":21027:21036   */\n      not\n        /* \"#utility.yul\":21019:21025   */\n      dup5\n        /* \"#utility.yul\":21015:21037   */\n      and\n        /* \"#utility.yul\":21065:21102   */\n      tag_624\n        /* \"#utility.yul\":21097:21101   */\n      dup7\n        /* \"#utility.yul\":21065:21102   */\n      tag_354\n      jump\t// in\n    tag_624:\n        /* \"#utility.yul\":21124:21125   */\n      0x00\n        /* \"#utility.yul\":21138:21346   */\n    tag_625:\n        /* \"#utility.yul\":21152:21159   */\n      dup3\n        /* \"#utility.yul\":21149:21150   */\n      dup2\n        /* \"#utility.yul\":21146:21160   */\n      lt\n        /* \"#utility.yul\":21138:21346   */\n      iszero\n      tag_627\n      jumpi\n        /* \"#utility.yul\":21231:21240   */\n      dup5\n        /* \"#utility.yul\":21226:21229   */\n      dup10\n        /* \"#utility.yul\":21222:21241   */\n      add\n        /* \"#utility.yul\":21216:21242   */\n      mload\n        /* \"#utility.yul\":21208:21214   */\n      dup3\n        /* \"#utility.yul\":21201:21243   */\n      sstore\n        /* \"#utility.yul\":21282:21283   */\n      0x01\n        /* \"#utility.yul\":21274:21280   */\n      dup3\n        /* \"#utility.yul\":21270:21284   */\n      add\n        /* \"#utility.yul\":21260:21284   */\n      swap2\n      pop\n        /* \"#utility.yul\":21329:21331   */\n      0x20\n        /* \"#utility.yul\":21318:21327   */\n      dup6\n        /* \"#utility.yul\":21314:21332   */\n      add\n        /* \"#utility.yul\":21301:21332   */\n      swap5\n      pop\n        /* \"#utility.yul\":21175:21179   */\n      0x20\n        /* \"#utility.yul\":21172:21173   */\n      dup2\n        /* \"#utility.yul\":21168:21180   */\n      add\n        /* \"#utility.yul\":21163:21180   */\n      swap1\n      pop\n        /* \"#utility.yul\":21138:21346   */\n      jump(tag_625)\n    tag_627:\n        /* \"#utility.yul\":21374:21380   */\n      dup7\n        /* \"#utility.yul\":21365:21372   */\n      dup4\n        /* \"#utility.yul\":21362:21381   */\n      lt\n        /* \"#utility.yul\":21359:21538   */\n      iszero\n      tag_628\n      jumpi\n        /* \"#utility.yul\":21432:21441   */\n      dup5\n        /* \"#utility.yul\":21427:21430   */\n      dup10\n        /* \"#utility.yul\":21423:21442   */\n      add\n        /* \"#utility.yul\":21417:21443   */\n      mload\n        /* \"#utility.yul\":21475:21523   */\n      tag_629\n        /* \"#utility.yul\":21517:21521   */\n      0x1f\n        /* \"#utility.yul\":21509:21515   */\n      dup10\n        /* \"#utility.yul\":21505:21522   */\n      and\n        /* \"#utility.yul\":21494:21503   */\n      dup3\n        /* \"#utility.yul\":21475:21523   */\n      tag_373\n      jump\t// in\n    tag_629:\n        /* \"#utility.yul\":21467:21473   */\n      dup4\n        /* \"#utility.yul\":21460:21524   */\n      sstore\n        /* \"#utility.yul\":21382:21538   */\n      pop\n        /* \"#utility.yul\":21359:21538   */\n    tag_628:\n        /* \"#utility.yul\":21584:21585   */\n      0x01\n        /* \"#utility.yul\":21580:21581   */\n      0x02\n        /* \"#utility.yul\":21572:21578   */\n      dup9\n        /* \"#utility.yul\":21568:21582   */\n      mul\n        /* \"#utility.yul\":21564:21586   */\n      add\n        /* \"#utility.yul\":21558:21562   */\n      dup9\n        /* \"#utility.yul\":21551:21587   */\n      sstore\n        /* \"#utility.yul\":20986:21597   */\n      pop\n      pop\n      pop\n        /* \"#utility.yul\":20949:21836   */\n    tag_620:\n      pop\n        /* \"#utility.yul\":20539:21842   */\n      pop\n      pop\n      pop\n        /* \"#utility.yul\":20447:21842   */\n      pop\n      pop\n      jump\t// out\n        /* \"#utility.yul\":21848:22010   */\n    tag_375:\n        /* \"#utility.yul\":21988:22002   */\n      0x4e6f742070656e64696e672e0000000000000000000000000000000000000000\n        /* \"#utility.yul\":21984:21985   */\n      0x00\n        /* \"#utility.yul\":21976:21982   */\n      dup3\n        /* \"#utility.yul\":21972:21986   */\n      add\n        /* \"#utility.yul\":21965:22003   */\n      mstore\n        /* \"#utility.yul\":21848:22010   */\n      pop\n      jump\t// out\n        /* \"#utility.yul\":22016:22382   */\n    tag_376:\n        /* \"#utility.yul\":22158:22161   */\n      0x00\n        /* \"#utility.yul\":22179:22246   */\n      tag_632\n        /* \"#utility.yul\":22243:22245   */\n      0x0c\n        /* \"#utility.yul\":22238:22241   */\n      dup4\n        /* \"#utility.yul\":22179:22246   */\n      tag_345\n      jump\t// in\n    tag_632:\n        /* \"#utility.yul\":22172:22246   */\n      swap2\n      pop\n        /* \"#utility.yul\":22255:22348   */\n      tag_633\n        /* \"#utility.yul\":22344:22347   */\n      dup3\n        /* \"#utility.yul\":22255:22348   */\n      tag_375\n      jump\t// in\n    tag_633:\n        /* \"#utility.yul\":22373:22375   */\n      0x20\n        /* \"#utility.yul\":22368:22371   */\n      dup3\n        /* \"#utility.yul\":22364:22376   */\n      add\n        /* \"#utility.yul\":22357:22376   */\n      swap1\n      pop\n        /* \"#utility.yul\":22016:22382   */\n      swap2\n      swap1\n      pop\n      jump\t// out\n        /* \"#utility.yul\":22388:22807   */\n    tag_102:\n        /* \"#utility.yul\":22554:22558   */\n      0x00\n        /* \"#utility.yul\":22592:22594   */\n      0x20\n        /* \"#utility.yul\":22581:22590   */\n      dup3\n        /* \"#utility.yul\":22577:22595   */\n      add\n        /* \"#utility.yul\":22569:22595   */\n      swap1\n      pop\n        /* \"#utility.yul\":22641:22650   */\n      dup2\n        /* \"#utility.yul\":22635:22639   */\n      dup2\n        /* \"#utility.yul\":22631:22651   */\n      sub\n        /* \"#utility.yul\":22627:22628   */\n      0x00\n        /* \"#utility.yul\":22616:22625   */\n      dup4\n        /* \"#utility.yul\":22612:22629   */\n      add\n        /* \"#utility.yul\":22605:22652   */\n      mstore\n        /* \"#utility.yul\":22669:22800   */\n      tag_635\n        /* \"#utility.yul\":22795:22799   */\n      dup2\n        /* \"#utility.yul\":22669:22800   */\n      tag_376\n      jump\t// in\n    tag_635:\n        /* \"#utility.yul\":22661:22800   */\n      swap1\n      pop\n        /* \"#utility.yul\":22388:22807   */\n      swap2\n      swap1\n      pop\n      jump\t// out\n        /* \"#utility.yul\":22813:22978   */\n    tag_377:\n        /* \"#utility.yul\":22953:22970   */\n      0x496e76616c6964207374617475732e0000000000000000000000000000000000\n        /* \"#utility.yul\":22949:22950   */\n      0x00\n        /* \"#utility.yul\":22941:22947   */\n      dup3\n        /* \"#utility.yul\":22937:22951   */\n      add\n        /* \"#utility.yul\":22930:22971   */\n      mstore\n        /* \"#utility.yul\":22813:22978   */\n      pop\n      jump\t// out\n        /* \"#utility.yul\":22984:23350   */\n    tag_378:\n        /* \"#utility.yul\":23126:23129   */\n      0x00\n        /* \"#utility.yul\":23147:23214   */\n      tag_638\n        /* \"#utility.yul\":23211:23213   */\n      0x0f\n        /* \"#utility.yul\":23206:23209   */\n      dup4\n        /* \"#utility.yul\":23147:23214   */\n      tag_345\n      jump\t// in\n    tag_638:\n        /* \"#utility.yul\":23140:23214   */\n      swap2\n      pop\n        /* \"#utility.yul\":23223:23316   */\n      tag_639\n        /* \"#utility.yul\":23312:23315   */\n      dup3\n        /* \"#utility.yul\":23223:23316   */\n      tag_377\n      jump\t// in\n    tag_639:\n        /* \"#utility.yul\":23341:23343   */\n      0x20\n        /* \"#utility.yul\":23336:23339   */\n      dup3\n        /* \"#utility.yul\":23332:23344   */\n      add\n        /* \"#utility.yul\":23325:23344   */\n      swap1\n      pop\n        /* \"#utility.yul\":22984:23350   */\n      swap2\n      swap1\n      pop\n      jump\t// out\n        /* \"#utility.yul\":23356:23775   */\n    tag_110:\n        /* \"#utility.yul\":23522:23526   */\n      0x00\n        /* \"#utility.yul\":23560:23562   */\n      0x20\n        /* \"#utility.yul\":23549:23558   */\n      dup3\n        /* \"#utility.yul\":23545:23563   */\n      add\n        /* \"#utility.yul\":23537:23563   */\n      swap1\n      pop\n        /* \"#utility.yul\":23609:23618   */\n      dup2\n        /* \"#utility.yul\":23603:23607   */\n      dup2\n        /* \"#utility.yul\":23599:23619   */\n      sub\n        /* \"#utility.yul\":23595:23596   */\n      0x00\n        /* \"#utility.yul\":23584:23593   */\n      dup4\n        /* \"#utility.yul\":23580:23597   */\n      add\n        /* \"#utility.yul\":23573:23620   */\n      mstore\n        /* \"#utility.yul\":23637:23768   */\n      tag_641\n        /* \"#utility.yul\":23763:23767   */\n      dup2\n        /* \"#utility.yul\":23637:23768   */\n      tag_378\n      jump\t// in\n    tag_641:\n        /* \"#utility.yul\":23629:23768   */\n      swap1\n      pop\n        /* \"#utility.yul\":23356:23775   */\n      swap2\n      swap1\n      pop\n      jump\t// out\n        /* \"#utility.yul\":23781:23961   */\n    tag_379:\n        /* \"#utility.yul\":23829:23906   */\n      0x4e487b7100000000000000000000000000000000000000000000000000000000\n        /* \"#utility.yul\":23826:23827   */\n      0x00\n        /* \"#utility.yul\":23819:23907   */\n      mstore\n        /* \"#utility.yul\":23926:23930   */\n      0x11\n        /* \"#utility.yul\":23923:23924   */\n      0x04\n        /* \"#utility.yul\":23916:23931   */\n      mstore\n        /* \"#utility.yul\":23950:23954   */\n      0x24\n        /* \"#utility.yul\":23947:23948   */\n      0x00\n        /* \"#utility.yul\":23940:23955   */\n      revert\n        /* \"#utility.yul\":23967:24134   */\n    tag_191:\n        /* \"#utility.yul\":24004:24007   */\n      0x00\n        /* \"#utility.yul\":24027:24049   */\n      tag_644\n        /* \"#utility.yul\":24043:24048   */\n      dup3\n        /* \"#utility.yul\":24027:24049   */\n      tag_333\n      jump\t// in\n    tag_644:\n        /* \"#utility.yul\":24018:24049   */\n      swap2\n      pop\n        /* \"#utility.yul\":24071:24075   */\n      0xff\n        /* \"#utility.yul\":24064:24069   */\n      dup3\n        /* \"#utility.yul\":24061:24076   */\n      sub\n        /* \"#utility.yul\":24058:24099   */\n      tag_645\n      jumpi\n        /* \"#utility.yul\":24079:24097   */\n      tag_646\n      tag_379\n      jump\t// in\n    tag_646:\n        /* \"#utility.yul\":24058:24099   */\n    tag_645:\n        /* \"#utility.yul\":24126:24127   */\n      0x01\n        /* \"#utility.yul\":24119:24124   */\n      dup3\n        /* \"#utility.yul\":24115:24128   */\n      add\n        /* \"#utility.yul\":24108:24128   */\n      swap1\n      pop\n        /* \"#utility.yul\":23967:24134   */\n      swap2\n      swap1\n      pop\n      jump\t// out\n        /* \"#utility.yul\":24140:24320   */\n    tag_216:\n        /* \"#utility.yul\":24188:24265   */\n      0x4e487b7100000000000000000000000000000000000000000000000000000000\n        /* \"#utility.yul\":24185:24186   */\n      0x00\n        /* \"#utility.yul\":24178:24266   */\n      mstore\n        /* \"#utility.yul\":24285:24289   */\n      0x32\n        /* \"#utility.yul\":24282:24283   */\n      0x04\n        /* \"#utility.yul\":24275:24290   */\n      mstore\n        /* \"#utility.yul\":24309:24313   */\n      0x24\n        /* \"#utility.yul\":24306:24307   */\n      0x00\n        /* \"#utility.yul\":24299:24314   */\n      revert\n        /* \"#utility.yul\":24326:24517   */\n    tag_220:\n        /* \"#utility.yul\":24366:24369   */\n      0x00\n        /* \"#utility.yul\":24385:24405   */\n      tag_649\n        /* \"#utility.yul\":24403:24404   */\n      dup3\n        /* \"#utility.yul\":24385:24405   */\n      tag_341\n      jump\t// in\n    tag_649:\n        /* \"#utility.yul\":24380:24405   */\n      swap2\n      pop\n        /* \"#utility.yul\":24419:24439   */\n      tag_650\n        /* \"#utility.yul\":24437:24438   */\n      dup4\n        /* \"#utility.yul\":24419:24439   */\n      tag_341\n      jump\t// in\n    tag_650:\n        /* \"#utility.yul\":24414:24439   */\n      swap3\n      pop\n        /* \"#utility.yul\":24462:24463   */\n      dup3\n        /* \"#utility.yul\":24459:24460   */\n      dup3\n        /* \"#utility.yul\":24455:24464   */\n      add\n        /* \"#utility.yul\":24448:24464   */\n      swap1\n      pop\n        /* \"#utility.yul\":24483:24486   */\n      dup1\n        /* \"#utility.yul\":24480:24481   */\n      dup3\n        /* \"#utility.yul\":24477:24487   */\n      gt\n        /* \"#utility.yul\":24474:24510   */\n      iszero\n      tag_651\n      jumpi\n        /* \"#utility.yul\":24490:24508   */\n      tag_652\n      tag_379\n      jump\t// in\n    tag_652:\n        /* \"#utility.yul\":24474:24510   */\n    tag_651:\n        /* \"#utility.yul\":24326:24517   */\n      swap3\n      swap2\n      pop\n      pop\n      jump\t// out\n        /* \"#utility.yul\":24523:24714   */\n    tag_234:\n        /* \"#utility.yul\":24561:24565   */\n      0x00\n        /* \"#utility.yul\":24581:24599   */\n      tag_654\n        /* \"#utility.yul\":24597:24598   */\n      dup3\n        /* \"#utility.yul\":24581:24599   */\n      tag_333\n      jump\t// in\n    tag_654:\n        /* \"#utility.yul\":24576:24599   */\n      swap2\n      pop\n        /* \"#utility.yul\":24613:24631   */\n      tag_655\n        /* \"#utility.yul\":24629:24630   */\n      dup4\n        /* \"#utility.yul\":24613:24631   */\n      tag_333\n      jump\t// in\n    tag_655:\n        /* \"#utility.yul\":24608:24631   */\n      swap3\n      pop\n        /* \"#utility.yul\":24655:24656   */\n      dup3\n        /* \"#utility.yul\":24652:24653   */\n      dup3\n        /* \"#utility.yul\":24648:24657   */\n      sub\n        /* \"#utility.yul\":24640:24657   */\n      swap1\n      pop\n        /* \"#utility.yul\":24679:24683   */\n      0xff\n        /* \"#utility.yul\":24673:24677   */\n      dup2\n        /* \"#utility.yul\":24670:24684   */\n      gt\n        /* \"#utility.yul\":24667:24707   */\n      iszero\n      tag_656\n      jumpi\n        /* \"#utility.yul\":24687:24705   */\n      tag_657\n      tag_379\n      jump\t// in\n    tag_657:\n        /* \"#utility.yul\":24667:24707   */\n    tag_656:\n        /* \"#utility.yul\":24523:24714   */\n      swap3\n      swap2\n      pop\n      pop\n      jump\t// out\n        /* \"#utility.yul\":24720:24991   */\n    tag_236:\n        /* \"#utility.yul\":24758:24765   */\n      0x00\n        /* \"#utility.yul\":24781:24799   */\n      tag_659\n        /* \"#utility.yul\":24797:24798   */\n      dup3\n        /* \"#utility.yul\":24781:24799   */\n      tag_333\n      jump\t// in\n    tag_659:\n        /* \"#utility.yul\":24776:24799   */\n      swap2\n      pop\n        /* \"#utility.yul\":24813:24831   */\n      tag_660\n        /* \"#utility.yul\":24829:24830   */\n      dup4\n        /* \"#utility.yul\":24813:24831   */\n      tag_333\n      jump\t// in\n    tag_660:\n        /* \"#utility.yul\":24808:24831   */\n      swap3\n      pop\n        /* \"#utility.yul\":24866:24867   */\n      dup3\n        /* \"#utility.yul\":24863:24864   */\n      dup3\n        /* \"#utility.yul\":24859:24868   */\n      mul\n        /* \"#utility.yul\":24888:24916   */\n      tag_661\n        /* \"#utility.yul\":24904:24915   */\n      dup2\n        /* \"#utility.yul\":24888:24916   */\n      tag_333\n      jump\t// in\n    tag_661:\n        /* \"#utility.yul\":24877:24916   */\n      swap2\n      pop\n        /* \"#utility.yul\":24948:24959   */\n      dup1\n        /* \"#utility.yul\":24939:24946   */\n      dup3\n        /* \"#utility.yul\":24936:24960   */\n      eq\n        /* \"#utility.yul\":24926:24984   */\n      tag_662\n      jumpi\n        /* \"#utility.yul\":24964:24982   */\n      tag_663\n      tag_379\n      jump\t// in\n    tag_663:\n        /* \"#utility.yul\":24926:24984   */\n    tag_662:\n        /* \"#utility.yul\":24766:24991   */\n      pop\n        /* \"#utility.yul\":24720:24991   */\n      swap3\n      swap2\n      pop\n      pop\n      jump\t// out\n        /* \"#utility.yul\":24997:25177   */\n    tag_380:\n        /* \"#utility.yul\":25045:25122   */\n      0x4e487b7100000000000000000000000000000000000000000000000000000000\n        /* \"#utility.yul\":25042:25043   */\n      0x00\n        /* \"#utility.yul\":25035:25123   */\n      mstore\n        /* \"#utility.yul\":25142:25146   */\n      0x12\n        /* \"#utility.yul\":25139:25140   */\n      0x04\n        /* \"#utility.yul\":25132:25147   */\n      mstore\n        /* \"#utility.yul\":25166:25170   */\n      0x24\n        /* \"#utility.yul\":25163:25164   */\n      0x00\n        /* \"#utility.yul\":25156:25171   */\n      revert\n        /* \"#utility.yul\":25183:25368   */\n    tag_238:\n        /* \"#utility.yul\":25223:25224   */\n      0x00\n        /* \"#utility.yul\":25240:25260   */\n      tag_666\n        /* \"#utility.yul\":25258:25259   */\n      dup3\n        /* \"#utility.yul\":25240:25260   */\n      tag_341\n      jump\t// in\n    tag_666:\n        /* \"#utility.yul\":25235:25260   */\n      swap2\n      pop\n        /* \"#utility.yul\":25274:25294   */\n      tag_667\n        /* \"#utility.yul\":25292:25293   */\n      dup4\n        /* \"#utility.yul\":25274:25294   */\n      tag_341\n      jump\t// in\n    tag_667:\n        /* \"#utility.yul\":25269:25294   */\n      swap3\n      pop\n        /* \"#utility.yul\":25313:25314   */\n      dup3\n        /* \"#utility.yul\":25303:25338   */\n      tag_668\n      jumpi\n        /* \"#utility.yul\":25318:25336   */\n      tag_669\n      tag_380\n      jump\t// in\n    tag_669:\n        /* \"#utility.yul\":25303:25338   */\n    tag_668:\n        /* \"#utility.yul\":25360:25361   */\n      dup3\n        /* \"#utility.yul\":25357:25358   */\n      dup3\n        /* \"#utility.yul\":25353:25362   */\n      div\n        /* \"#utility.yul\":25348:25362   */\n      swap1\n      pop\n        /* \"#utility.yul\":25183:25368   */\n      swap3\n      swap2\n      pop\n      pop\n      jump\t// out\n        /* \"#utility.yul\":25374:25534   */\n    tag_381:\n        /* \"#utility.yul\":25514:25526   */\n      0x4e6f2051756f72756d2e00000000000000000000000000000000000000000000\n        /* \"#utility.yul\":25510:25511   */\n      0x00\n        /* \"#utility.yul\":25502:25508   */\n      dup3\n        /* \"#utility.yul\":25498:25512   */\n      add\n        /* \"#utility.yul\":25491:25527   */\n      mstore\n        /* \"#utility.yul\":25374:25534   */\n      pop\n      jump\t// out\n        /* \"#utility.yul\":25540:25906   */\n    tag_382:\n        /* \"#utility.yul\":25682:25685   */\n      0x00\n        /* \"#utility.yul\":25703:25770   */\n      tag_672\n        /* \"#utility.yul\":25767:25769   */\n      0x0a\n        /* \"#utility.yul\":25762:25765   */\n      dup4\n        /* \"#utility.yul\":25703:25770   */\n      tag_345\n      jump\t// in\n    tag_672:\n        /* \"#utility.yul\":25696:25770   */\n      swap2\n      pop\n        /* \"#utility.yul\":25779:25872   */\n      tag_673\n        /* \"#utility.yul\":25868:25871   */\n      dup3\n        /* \"#utility.yul\":25779:25872   */\n      tag_381\n      jump\t// in\n    tag_673:\n        /* \"#utility.yul\":25897:25899   */\n      0x20\n        /* \"#utility.yul\":25892:25895   */\n      dup3\n        /* \"#utility.yul\":25888:25900   */\n      add\n        /* \"#utility.yul\":25881:25900   */\n      swap1\n      pop\n        /* \"#utility.yul\":25540:25906   */\n      swap2\n      swap1\n      pop\n      jump\t// out\n        /* \"#utility.yul\":25912:26331   */\n    tag_246:\n        /* \"#utility.yul\":26078:26082   */\n      0x00\n        /* \"#utility.yul\":26116:26118   */\n      0x20\n        /* \"#utility.yul\":26105:26114   */\n      dup3\n        /* \"#utility.yul\":26101:26119   */\n      add\n        /* \"#utility.yul\":26093:26119   */\n      swap1\n      pop\n        /* \"#utility.yul\":26165:26174   */\n      dup2\n        /* \"#utility.yul\":26159:26163   */\n      dup2\n        /* \"#utility.yul\":26155:26175   */\n      sub\n        /* \"#utility.yul\":26151:26152   */\n      0x00\n        /* \"#utility.yul\":26140:26149   */\n      dup4\n        /* \"#utility.yul\":26136:26153   */\n      add\n        /* \"#utility.yul\":26129:26176   */\n      mstore\n        /* \"#utility.yul\":26193:26324   */\n      tag_675\n        /* \"#utility.yul\":26319:26323   */\n      dup2\n        /* \"#utility.yul\":26193:26324   */\n      tag_382\n      jump\t// in\n    tag_675:\n        /* \"#utility.yul\":26185:26324   */\n      swap1\n      pop\n        /* \"#utility.yul\":25912:26331   */\n      swap2\n      swap1\n      pop\n      jump\t// out\n        /* \"#utility.yul\":26337:26497   */\n    tag_383:\n        /* \"#utility.yul\":26477:26489   */\n      0x6d656d6265725f61646400000000000000000000000000000000000000000000\n        /* \"#utility.yul\":26473:26474   */\n      0x00\n        /* \"#utility.yul\":26465:26471   */\n      dup3\n        /* \"#utility.yul\":26461:26475   */\n      add\n        /* \"#utility.yul\":26454:26490   */\n      mstore\n        /* \"#utility.yul\":26337:26497   */\n      pop\n      jump\t// out\n        /* \"#utility.yul\":26503:26869   */\n    tag_384:\n        /* \"#utility.yul\":26645:26648   */\n      0x00\n        /* \"#utility.yul\":26666:26733   */\n      tag_678\n        /* \"#utility.yul\":26730:26732   */\n      0x0a\n        /* \"#utility.yul\":26725:26728   */\n      dup4\n        /* \"#utility.yul\":26666:26733   */\n      tag_345\n      jump\t// in\n    tag_678:\n        /* \"#utility.yul\":26659:26733   */\n      swap2\n      pop\n        /* \"#utility.yul\":26742:26835   */\n      tag_679\n        /* \"#utility.yul\":26831:26834   */\n      dup3\n        /* \"#utility.yul\":26742:26835   */\n      tag_383\n      jump\t// in\n    tag_679:\n        /* \"#utility.yul\":26860:26862   */\n      0x20\n        /* \"#utility.yul\":26855:26858   */\n      dup3\n        /* \"#utility.yul\":26851:26863   */\n      add\n        /* \"#utility.yul\":26844:26863   */\n      swap1\n      pop\n        /* \"#utility.yul\":26503:26869   */\n      swap2\n      swap1\n      pop\n      jump\t// out\n        /* \"#utility.yul\":26875:26993   */\n    tag_385:\n        /* \"#utility.yul\":26962:26986   */\n      tag_681\n        /* \"#utility.yul\":26980:26985   */\n      dup2\n        /* \"#utility.yul\":26962:26986   */\n      tag_341\n      jump\t// in\n    tag_681:\n        /* \"#utility.yul\":26957:26960   */\n      dup3\n        /* \"#utility.yul\":26950:26987   */\n      mstore\n        /* \"#utility.yul\":26875:26993   */\n      pop\n      pop\n      jump\t// out\n        /* \"#utility.yul\":26999:27840   */\n    tag_252:\n        /* \"#utility.yul\":27269:27273   */\n      0x00\n        /* \"#utility.yul\":27307:27310   */\n      0x80\n        /* \"#utility.yul\":27296:27305   */\n      dup3\n        /* \"#utility.yul\":27292:27311   */\n      add\n        /* \"#utility.yul\":27284:27311   */\n      swap1\n      pop\n        /* \"#utility.yul\":27357:27366   */\n      dup2\n        /* \"#utility.yul\":27351:27355   */\n      dup2\n        /* \"#utility.yul\":27347:27367   */\n      sub\n        /* \"#utility.yul\":27343:27344   */\n      0x00\n        /* \"#utility.yul\":27332:27341   */\n      dup4\n        /* \"#utility.yul\":27328:27345   */\n      add\n        /* \"#utility.yul\":27321:27368   */\n      mstore\n        /* \"#utility.yul\":27385:27516   */\n      tag_683\n        /* \"#utility.yul\":27511:27515   */\n      dup2\n        /* \"#utility.yul\":27385:27516   */\n      tag_384\n      jump\t// in\n    tag_683:\n        /* \"#utility.yul\":27377:27516   */\n      swap1\n      pop\n        /* \"#utility.yul\":27563:27572   */\n      dup2\n        /* \"#utility.yul\":27557:27561   */\n      dup2\n        /* \"#utility.yul\":27553:27573   */\n      sub\n        /* \"#utility.yul\":27548:27550   */\n      0x20\n        /* \"#utility.yul\":27537:27546   */\n      dup4\n        /* \"#utility.yul\":27533:27551   */\n      add\n        /* \"#utility.yul\":27526:27574   */\n      mstore\n        /* \"#utility.yul\":27591:27669   */\n      tag_684\n        /* \"#utility.yul\":27664:27668   */\n      dup2\n        /* \"#utility.yul\":27655:27661   */\n      dup7\n        /* \"#utility.yul\":27591:27669   */\n      tag_347\n      jump\t// in\n    tag_684:\n        /* \"#utility.yul\":27583:27669   */\n      swap1\n      pop\n        /* \"#utility.yul\":27679:27751   */\n      tag_685\n        /* \"#utility.yul\":27747:27749   */\n      0x40\n        /* \"#utility.yul\":27736:27745   */\n      dup4\n        /* \"#utility.yul\":27732:27750   */\n      add\n        /* \"#utility.yul\":27723:27729   */\n      dup6\n        /* \"#utility.yul\":27679:27751   */\n      tag_332\n      jump\t// in\n    tag_685:\n        /* \"#utility.yul\":27761:27833   */\n      tag_686\n        /* \"#utility.yul\":27829:27831   */\n      0x60\n        /* \"#utility.yul\":27818:27827   */\n      dup4\n        /* \"#utility.yul\":27814:27832   */\n      add\n        /* \"#utility.yul\":27805:27811   */\n      dup5\n        /* \"#utility.yul\":27761:27833   */\n      tag_385\n      jump\t// in\n    tag_686:\n        /* \"#utility.yul\":26999:27840   */\n      swap5\n      swap4\n      pop\n      pop\n      pop\n      pop\n      jump\t// out\n        /* \"#utility.yul\":27846:28009   */\n    tag_386:\n        /* \"#utility.yul\":27986:28001   */\n      0x6d656d6265725f72656d6f766500000000000000000000000000000000000000\n        /* \"#utility.yul\":27982:27983   */\n      0x00\n        /* \"#utility.yul\":27974:27980   */\n      dup3\n        /* \"#utility.yul\":27970:27984   */\n      add\n        /* \"#utility.yul\":27963:28002   */\n      mstore\n        /* \"#utility.yul\":27846:28009   */\n      pop\n      jump\t// out\n        /* \"#utility.yul\":28015:28381   */\n    tag_387:\n        /* \"#utility.yul\":28157:28160   */\n      0x00\n        /* \"#utility.yul\":28178:28245   */\n      tag_689\n        /* \"#utility.yul\":28242:28244   */\n      0x0d\n        /* \"#utility.yul\":28237:28240   */\n      dup4\n        /* \"#utility.yul\":28178:28245   */\n      tag_345\n      jump\t// in\n    tag_689:\n        /* \"#utility.yul\":28171:28245   */\n      swap2\n      pop\n        /* \"#utility.yul\":28254:28347   */\n      tag_690\n        /* \"#utility.yul\":28343:28346   */\n      dup3\n        /* \"#utility.yul\":28254:28347   */\n      tag_386\n      jump\t// in\n    tag_690:\n        /* \"#utility.yul\":28372:28374   */\n      0x20\n        /* \"#utility.yul\":28367:28370   */\n      dup3\n        /* \"#utility.yul\":28363:28375   */\n      add\n        /* \"#utility.yul\":28356:28375   */\n      swap1\n      pop\n        /* \"#utility.yul\":28015:28381   */\n      swap2\n      swap1\n      pop\n      jump\t// out\n        /* \"#utility.yul\":28387:29228   */\n    tag_258:\n        /* \"#utility.yul\":28657:28661   */\n      0x00\n        /* \"#utility.yul\":28695:28698   */\n      0x80\n        /* \"#utility.yul\":28684:28693   */\n      dup3\n        /* \"#utility.yul\":28680:28699   */\n      add\n        /* \"#utility.yul\":28672:28699   */\n      swap1\n      pop\n        /* \"#utility.yul\":28745:28754   */\n      dup2\n        /* \"#utility.yul\":28739:28743   */\n      dup2\n        /* \"#utility.yul\":28735:28755   */\n      sub\n        /* \"#utility.yul\":28731:28732   */\n      0x00\n        /* \"#utility.yul\":28720:28729   */\n      dup4\n        /* \"#utility.yul\":28716:28733   */\n      add\n        /* \"#utility.yul\":28709:28756   */\n      mstore\n        /* \"#utility.yul\":28773:28904   */\n      tag_692\n        /* \"#utility.yul\":28899:28903   */\n      dup2\n        /* \"#utility.yul\":28773:28904   */\n      tag_387\n      jump\t// in\n    tag_692:\n        /* \"#utility.yul\":28765:28904   */\n      swap1\n      pop\n        /* \"#utility.yul\":28951:28960   */\n      dup2\n        /* \"#utility.yul\":28945:28949   */\n      dup2\n        /* \"#utility.yul\":28941:28961   */\n      sub\n        /* \"#utility.yul\":28936:28938   */\n      0x20\n        /* \"#utility.yul\":28925:28934   */\n      dup4\n        /* \"#utility.yul\":28921:28939   */\n      add\n        /* \"#utility.yul\":28914:28962   */\n      mstore\n        /* \"#utility.yul\":28979:29057   */\n      tag_693\n        /* \"#utility.yul\":29052:29056   */\n      dup2\n        /* \"#utility.yul\":29043:29049   */\n      dup7\n        /* \"#utility.yul\":28979:29057   */\n      tag_347\n      jump\t// in\n    tag_693:\n        /* \"#utility.yul\":28971:29057   */\n      swap1\n      pop\n        /* \"#utility.yul\":29067:29139   */\n      tag_694\n        /* \"#utility.yul\":29135:29137   */\n      0x40\n        /* \"#utility.yul\":29124:29133   */\n      dup4\n        /* \"#utility.yul\":29120:29138   */\n      add\n        /* \"#utility.yul\":29111:29117   */\n      dup6\n        /* \"#utility.yul\":29067:29139   */\n      tag_332\n      jump\t// in\n    tag_694:\n        /* \"#utility.yul\":29149:29221   */\n      tag_695\n        /* \"#utility.yul\":29217:29219   */\n      0x60\n        /* \"#utility.yul\":29206:29215   */\n      dup4\n        /* \"#utility.yul\":29202:29220   */\n      add\n        /* \"#utility.yul\":29193:29199   */\n      dup5\n        /* \"#utility.yul\":29149:29221   */\n      tag_385\n      jump\t// in\n    tag_695:\n        /* \"#utility.yul\":28387:29228   */\n      swap5\n      swap4\n      pop\n      pop\n      pop\n      pop\n      jump\t// out\n        /* \"#utility.yul\":29234:29377   */\n    tag_388:\n        /* \"#utility.yul\":29291:29296   */\n      0x00\n        /* \"#utility.yul\":29322:29328   */\n      dup2\n        /* \"#utility.yul\":29316:29329   */\n      mload\n        /* \"#utility.yul\":29307:29329   */\n      swap1\n      pop\n        /* \"#utility.yul\":29338:29371   */\n      tag_697\n        /* \"#utility.yul\":29365:29370   */\n      dup2\n        /* \"#utility.yul\":29338:29371   */\n      tag_342\n      jump\t// in\n    tag_697:\n        /* \"#utility.yul\":29234:29377   */\n      swap3\n      swap2\n      pop\n      pop\n      jump\t// out\n        /* \"#utility.yul\":29383:29734   */\n    tag_264:\n        /* \"#utility.yul\":29453:29459   */\n      0x00\n        /* \"#utility.yul\":29502:29504   */\n      0x20\n        /* \"#utility.yul\":29490:29499   */\n      dup3\n        /* \"#utility.yul\":29481:29488   */\n      dup5\n        /* \"#utility.yul\":29477:29500   */\n      sub\n        /* \"#utility.yul\":29473:29505   */\n      slt\n        /* \"#utility.yul\":29470:29589   */\n      iszero\n      tag_699\n      jumpi\n        /* \"#utility.yul\":29508:29587   */\n      tag_700\n      tag_310\n      jump\t// in\n    tag_700:\n        /* \"#utility.yul\":29470:29589   */\n    tag_699:\n        /* \"#utility.yul\":29628:29629   */\n      0x00\n        /* \"#utility.yul\":29653:29717   */\n      tag_701\n        /* \"#utility.yul\":29709:29716   */\n      dup5\n        /* \"#utility.yul\":29700:29706   */\n      dup3\n        /* \"#utility.yul\":29689:29698   */\n      dup6\n        /* \"#utility.yul\":29685:29707   */\n      add\n        /* \"#utility.yul\":29653:29717   */\n      tag_388\n      jump\t// in\n    tag_701:\n        /* \"#utility.yul\":29643:29717   */\n      swap2\n      pop\n        /* \"#utility.yul\":29599:29727   */\n      pop\n        /* \"#utility.yul\":29383:29734   */\n      swap3\n      swap2\n      pop\n      pop\n      jump\t// out\n        /* \"#utility.yul\":29740:30072   */\n    tag_273:\n        /* \"#utility.yul\":29861:29865   */\n      0x00\n        /* \"#utility.yul\":29899:29901   */\n      0x40\n        /* \"#utility.yul\":29888:29897   */\n      dup3\n        /* \"#utility.yul\":29884:29902   */\n      add\n        /* \"#utility.yul\":29876:29902   */\n      swap1\n      pop\n        /* \"#utility.yul\":29912:29983   */\n      tag_703\n        /* \"#utility.yul\":29980:29981   */\n      0x00\n        /* \"#utility.yul\":29969:29978   */\n      dup4\n        /* \"#utility.yul\":29965:29982   */\n      add\n        /* \"#utility.yul\":29956:29962   */\n      dup6\n        /* \"#utility.yul\":29912:29983   */\n      tag_332\n      jump\t// in\n    tag_703:\n        /* \"#utility.yul\":29993:30065   */\n      tag_704\n        /* \"#utility.yul\":30061:30063   */\n      0x20\n        /* \"#utility.yul\":30050:30059   */\n      dup4\n        /* \"#utility.yul\":30046:30064   */\n      add\n        /* \"#utility.yul\":30037:30043   */\n      dup5\n        /* \"#utility.yul\":29993:30065   */\n      tag_385\n      jump\t// in\n    tag_704:\n        /* \"#utility.yul\":29740:30072   */\n      swap4\n      swap3\n      pop\n      pop\n      pop\n      jump\t// out\n        /* \"#utility.yul\":30078:30194   */\n    tag_389:\n        /* \"#utility.yul\":30148:30169   */\n      tag_706\n        /* \"#utility.yul\":30163:30168   */\n      dup2\n        /* \"#utility.yul\":30148:30169   */\n      tag_337\n      jump\t// in\n    tag_706:\n        /* \"#utility.yul\":30141:30146   */\n      dup2\n        /* \"#utility.yul\":30138:30170   */\n      eq\n        /* \"#utility.yul\":30128:30188   */\n      tag_707\n      jumpi\n        /* \"#utility.yul\":30184:30185   */\n      0x00\n        /* \"#utility.yul\":30181:30182   */\n      dup1\n        /* \"#utility.yul\":30174:30186   */\n      revert\n        /* \"#utility.yul\":30128:30188   */\n    tag_707:\n        /* \"#utility.yul\":30078:30194   */\n      pop\n      jump\t// out\n        /* \"#utility.yul\":30200:30337   */\n    tag_390:\n        /* \"#utility.yul\":30254:30259   */\n      0x00\n        /* \"#utility.yul\":30285:30291   */\n      dup2\n        /* \"#utility.yul\":30279:30292   */\n      mload\n        /* \"#utility.yul\":30270:30292   */\n      swap1\n      pop\n        /* \"#utility.yul\":30301:30331   */\n      tag_709\n        /* \"#utility.yul\":30325:30330   */\n      dup2\n        /* \"#utility.yul\":30301:30331   */\n      tag_389\n      jump\t// in\n    tag_709:\n        /* \"#utility.yul\":30200:30337   */\n      swap3\n      swap2\n      pop\n      pop\n      jump\t// out\n        /* \"#utility.yul\":30343:30688   */\n    tag_277:\n        /* \"#utility.yul\":30410:30416   */\n      0x00\n        /* \"#utility.yul\":30459:30461   */\n      0x20\n        /* \"#utility.yul\":30447:30456   */\n      dup3\n        /* \"#utility.yul\":30438:30445   */\n      dup5\n        /* \"#utility.yul\":30434:30457   */\n      sub\n        /* \"#utility.yul\":30430:30462   */\n      slt\n        /* \"#utility.yul\":30427:30546   */\n      iszero\n      tag_711\n      jumpi\n        /* \"#utility.yul\":30465:30544   */\n      tag_712\n      tag_310\n      jump\t// in\n    tag_712:\n        /* \"#utility.yul\":30427:30546   */\n    tag_711:\n        /* \"#utility.yul\":30585:30586   */\n      0x00\n        /* \"#utility.yul\":30610:30671   */\n      tag_713\n        /* \"#utility.yul\":30663:30670   */\n      dup5\n        /* \"#utility.yul\":30654:30660   */\n      dup3\n        /* \"#utility.yul\":30643:30652   */\n      dup6\n        /* \"#utility.yul\":30639:30661   */\n      add\n        /* \"#utility.yul\":30610:30671   */\n      tag_390\n      jump\t// in\n    tag_713:\n        /* \"#utility.yul\":30600:30671   */\n      swap2\n      pop\n        /* \"#utility.yul\":30556:30681   */\n      pop\n        /* \"#utility.yul\":30343:30688   */\n      swap3\n      swap2\n      pop\n      pop\n      jump\t// out\n        /* \"#utility.yul\":30694:30862   */\n    tag_391:\n        /* \"#utility.yul\":30834:30854   */\n      0x6d656d6265725f74616b655f70726f6669740000000000000000000000000000\n        /* \"#utility.yul\":30830:30831   */\n      0x00\n        /* \"#utility.yul\":30822:30828   */\n      dup3\n        /* \"#utility.yul\":30818:30832   */\n      add\n        /* \"#utility.yul\":30811:30855   */\n      mstore\n        /* \"#utility.yul\":30694:30862   */\n      pop\n      jump\t// out\n        /* \"#utility.yul\":30868:31234   */\n    tag_392:\n        /* \"#utility.yul\":31010:31013   */\n      0x00\n        /* \"#utility.yul\":31031:31098   */\n      tag_716\n        /* \"#utility.yul\":31095:31097   */\n      0x12\n        /* \"#utility.yul\":31090:31093   */\n      dup4\n        /* \"#utility.yul\":31031:31098   */\n      tag_345\n      jump\t// in\n    tag_716:\n        /* \"#utility.yul\":31024:31098   */\n      swap2\n      pop\n        /* \"#utility.yul\":31107:31200   */\n      tag_717\n        /* \"#utility.yul\":31196:31199   */\n      dup3\n        /* \"#utility.yul\":31107:31200   */\n      tag_391\n      jump\t// in\n    tag_717:\n        /* \"#utility.yul\":31225:31227   */\n      0x20\n        /* \"#utility.yul\":31220:31223   */\n      dup3\n        /* \"#utility.yul\":31216:31228   */\n      add\n        /* \"#utility.yul\":31209:31228   */\n      swap1\n      pop\n        /* \"#utility.yul\":30868:31234   */\n      swap2\n      swap1\n      pop\n      jump\t// out\n        /* \"#utility.yul\":31240:32081   */\n    tag_280:\n        /* \"#utility.yul\":31510:31514   */\n      0x00\n        /* \"#utility.yul\":31548:31551   */\n      0x80\n        /* \"#utility.yul\":31537:31546   */\n      dup3\n        /* \"#utility.yul\":31533:31552   */\n      add\n        /* \"#utility.yul\":31525:31552   */\n      swap1\n      pop\n        /* \"#utility.yul\":31598:31607   */\n      dup2\n        /* \"#utility.yul\":31592:31596   */\n      dup2\n        /* \"#utility.yul\":31588:31608   */\n      sub\n        /* \"#utility.yul\":31584:31585   */\n      0x00\n        /* \"#utility.yul\":31573:31582   */\n      dup4\n        /* \"#utility.yul\":31569:31586   */\n      add\n        /* \"#utility.yul\":31562:31609   */\n      mstore\n        /* \"#utility.yul\":31626:31757   */\n      tag_719\n        /* \"#utility.yul\":31752:31756   */\n      dup2\n        /* \"#utility.yul\":31626:31757   */\n      tag_392\n      jump\t// in\n    tag_719:\n        /* \"#utility.yul\":31618:31757   */\n      swap1\n      pop\n        /* \"#utility.yul\":31804:31813   */\n      dup2\n        /* \"#utility.yul\":31798:31802   */\n      dup2\n        /* \"#utility.yul\":31794:31814   */\n      sub\n        /* \"#utility.yul\":31789:31791   */\n      0x20\n        /* \"#utility.yul\":31778:31787   */\n      dup4\n        /* \"#utility.yul\":31774:31792   */\n      add\n        /* \"#utility.yul\":31767:31815   */\n      mstore\n        /* \"#utility.yul\":31832:31910   */\n      tag_720\n        /* \"#utility.yul\":31905:31909   */\n      dup2\n        /* \"#utility.yul\":31896:31902   */\n      dup7\n        /* \"#utility.yul\":31832:31910   */\n      tag_347\n      jump\t// in\n    tag_720:\n        /* \"#utility.yul\":31824:31910   */\n      swap1\n      pop\n        /* \"#utility.yul\":31920:31992   */\n      tag_721\n        /* \"#utility.yul\":31988:31990   */\n      0x40\n        /* \"#utility.yul\":31977:31986   */\n      dup4\n        /* \"#utility.yul\":31973:31991   */\n      add\n        /* \"#utility.yul\":31964:31970   */\n      dup6\n        /* \"#utility.yul\":31920:31992   */\n      tag_332\n      jump\t// in\n    tag_721:\n        /* \"#utility.yul\":32002:32074   */\n      tag_722\n        /* \"#utility.yul\":32070:32072   */\n      0x60\n        /* \"#utility.yul\":32059:32068   */\n      dup4\n        /* \"#utility.yul\":32055:32073   */\n      add\n        /* \"#utility.yul\":32046:32052   */\n      dup5\n        /* \"#utility.yul\":32002:32074   */\n      tag_385\n      jump\t// in\n    tag_722:\n        /* \"#utility.yul\":31240:32081   */\n      swap5\n      swap4\n      pop\n      pop\n      pop\n      pop\n      jump\t// out\n        /* \"#utility.yul\":32087:32281   */\n    tag_290:\n        /* \"#utility.yul\":32127:32131   */\n      0x00\n        /* \"#utility.yul\":32147:32167   */\n      tag_724\n        /* \"#utility.yul\":32165:32166   */\n      dup3\n        /* \"#utility.yul\":32147:32167   */\n      tag_341\n      jump\t// in\n    tag_724:\n        /* \"#utility.yul\":32142:32167   */\n      swap2\n      pop\n        /* \"#utility.yul\":32181:32201   */\n      tag_725\n        /* \"#utility.yul\":32199:32200   */\n      dup4\n        /* \"#utility.yul\":32181:32201   */\n      tag_341\n      jump\t// in\n    tag_725:\n        /* \"#utility.yul\":32176:32201   */\n      swap3\n      pop\n        /* \"#utility.yul\":32225:32226   */\n      dup3\n        /* \"#utility.yul\":32222:32223   */\n      dup3\n        /* \"#utility.yul\":32218:32227   */\n      sub\n        /* \"#utility.yul\":32210:32227   */\n      swap1\n      pop\n        /* \"#utility.yul\":32249:32250   */\n      dup2\n        /* \"#utility.yul\":32243:32247   */\n      dup2\n        /* \"#utility.yul\":32240:32251   */\n      gt\n        /* \"#utility.yul\":32237:32274   */\n      iszero\n      tag_726\n      jumpi\n        /* \"#utility.yul\":32254:32272   */\n      tag_727\n      tag_379\n      jump\t// in\n    tag_727:\n        /* \"#utility.yul\":32237:32274   */\n    tag_726:\n        /* \"#utility.yul\":32087:32281   */\n      swap3\n      swap2\n      pop\n      pop\n      jump\t// out\n        /* \"#utility.yul\":32287:32467   */\n    tag_300:\n        /* \"#utility.yul\":32335:32412   */\n      0x4e487b7100000000000000000000000000000000000000000000000000000000\n        /* \"#utility.yul\":32332:32333   */\n      0x00\n        /* \"#utility.yul\":32325:32413   */\n      mstore\n        /* \"#utility.yul\":32432:32436   */\n      0x31\n        /* \"#utility.yul\":32429:32430   */\n      0x04\n        /* \"#utility.yul\":32422:32437   */\n      mstore\n        /* \"#utility.yul\":32456:32460   */\n      0x24\n        /* \"#utility.yul\":32453:32454   */\n      0x00\n        /* \"#utility.yul\":32446:32461   */\n      revert\n\n    auxdata: 0xa2646970667358221220f686c0c3b9bc9597371f9b93b661bf5fbbe0e064f836e31c31b9914dd57d524c64736f6c63430008140033\n}\n"
  }
}