{
  "devdoc": {
    "methods": {},
    "kind": "dev",
    "version": 1
  },
  "abi": [
    {
      "stateMutability": "nonpayable",
      "type": "constructor",
      "inputs": [
        {
          "internalType": "uint16",
          "name": "site_arbitration_threshold",
          "type": "uint16"
        }
      ]
    },
    {
      "anonymous": false,
      "name": "VaultEvent",
      "type": "event",
      "inputs": [
        {
          "indexed": false,
          "internalType": "string",
          "name": "event_type",
          "type": "string"
        },
        {
          "indexed": false,
          "internalType": "string",
          "name": "event_id",
          "type": "string"
        },
        {
          "indexed": false,
          "internalType": "address",
          "name": "sender",
          "type": "address"
        },
        {
          "indexed": false,
          "internalType": "uint256",
          "name": "value",
          "type": "uint256"
        }
      ]
    },
    {
      "name": "g__SiteArbitrationThreshold",
      "stateMutability": "view",
      "outputs": [
        {
          "internalType": "uint16",
          "name": "",
          "type": "uint16"
        }
      ],
      "type": "function",
      "inputs": []
    },
    {
      "name": "g__SiteAuthority",
      "stateMutability": "view",
      "outputs": [
        {
          "internalType": "address",
          "name": "",
          "type": "address"
        }
      ],
      "type": "function",
      "inputs": []
    },
    {
      "name": "g__SiteSupport",
      "stateMutability": "view",
      "outputs": [
        {
          "internalType": "bool",
          "name": "",
          "type": "bool"
        }
      ],
      "type": "function",
      "inputs": [
        {
          "internalType": "address",
          "name": "",
          "type": "address"
        }
      ]
    },
    {
      "name": "g__VaultAccounts",
      "stateMutability": "view",
      "outputs": [
        {
          "internalType": "enum StatstradeVaultErc20Factory.VaultAccountStatus",
          "name": "status",
          "type": "uint8"
        },
        {
          "internalType": "bool",
          "name": "arbitration",
          "type": "bool"
        },
        {
          "internalType": "string",
          "name": "last_withdraw_id",
          "type": "string"
        },
        {
          "internalType": "uint256",
          "name": "last_withdraw_time",
          "type": "uint256"
        }
      ],
      "type": "function",
      "inputs": [
        {
          "internalType": "string",
          "name": "",
          "type": "string"
        },
        {
          "internalType": "address",
          "name": "",
          "type": "address"
        }
      ]
    },
    {
      "name": "g__VaultCount",
      "stateMutability": "view",
      "outputs": [
        {
          "internalType": "uint16",
          "name": "",
          "type": "uint16"
        }
      ],
      "type": "function",
      "inputs": []
    },
    {
      "name": "g__VaultLookup",
      "stateMutability": "view",
      "outputs": [
        {
          "internalType": "enum StatstradeVaultErc20Factory.VaultStatus",
          "name": "status",
          "type": "uint8"
        },
        {
          "internalType": "string",
          "name": "name",
          "type": "string"
        },
        {
          "internalType": "address",
          "name": "owner",
          "type": "address"
        },
        {
          "internalType": "uint256",
          "name": "total_pool",
          "type": "uint256"
        },
        {
          "internalType": "uint256",
          "name": "total_requested",
          "type": "uint256"
        },
        {
          "internalType": "uint16",
          "name": "total_players",
          "type": "uint16"
        },
        {
          "internalType": "uint16",
          "name": "total_arbitration",
          "type": "uint16"
        },
        {
          "internalType": "uint16",
          "name": "vault_tax_rate",
          "type": "uint16"
        },
        {
          "internalType": "uint256",
          "name": "vault_tax_max",
          "type": "uint256"
        },
        {
          "internalType": "uint256",
          "name": "vault_withdraw_min",
          "type": "uint256"
        },
        {
          "internalType": "uint256",
          "name": "vault_withdraw_max",
          "type": "uint256"
        },
        {
          "internalType": "address",
          "name": "vault_erc20",
          "type": "address"
        }
      ],
      "type": "function",
      "inputs": [
        {
          "internalType": "string",
          "name": "",
          "type": "string"
        }
      ]
    },
    {
      "name": "g__VaultWithdrawals",
      "stateMutability": "view",
      "outputs": [
        {
          "internalType": "uint256",
          "name": "amount",
          "type": "uint256"
        },
        {
          "internalType": "enum StatstradeVaultErc20Factory.VaultRequestStatus",
          "name": "status",
          "type": "uint8"
        }
      ],
      "type": "function",
      "inputs": [
        {
          "internalType": "string",
          "name": "",
          "type": "string"
        },
        {
          "internalType": "address",
          "name": "",
          "type": "address"
        },
        {
          "internalType": "string",
          "name": "",
          "type": "string"
        }
      ]
    },
    {
      "name": "owner__account_lock",
      "stateMutability": "nonpayable",
      "outputs": [],
      "type": "function",
      "inputs": [
        {
          "internalType": "string",
          "name": "vault_id",
          "type": "string"
        },
        {
          "internalType": "address",
          "name": "user_address",
          "type": "address"
        }
      ]
    },
    {
      "name": "owner__account_open_confirm",
      "stateMutability": "nonpayable",
      "outputs": [],
      "type": "function",
      "inputs": [
        {
          "internalType": "string",
          "name": "vault_id",
          "type": "string"
        },
        {
          "internalType": "address",
          "name": "user_address",
          "type": "address"
        }
      ]
    },
    {
      "name": "owner__account_unlock",
      "stateMutability": "nonpayable",
      "outputs": [],
      "type": "function",
      "inputs": [
        {
          "internalType": "string",
          "name": "vault_id",
          "type": "string"
        },
        {
          "internalType": "address",
          "name": "user_address",
          "type": "address"
        }
      ]
    },
    {
      "name": "owner__set_auto",
      "stateMutability": "nonpayable",
      "outputs": [],
      "type": "function",
      "inputs": [
        {
          "internalType": "string",
          "name": "vault_id",
          "type": "string"
        },
        {
          "internalType": "bool",
          "name": "is_auto",
          "type": "bool"
        }
      ]
    },
    {
      "name": "owner__withdraw_approve",
      "stateMutability": "nonpayable",
      "outputs": [],
      "type": "function",
      "inputs": [
        {
          "internalType": "string",
          "name": "vault_id",
          "type": "string"
        },
        {
          "internalType": "address",
          "name": "user_address",
          "type": "address"
        },
        {
          "internalType": "string",
          "name": "withdraw_id",
          "type": "string"
        },
        {
          "internalType": "uint256",
          "name": "amount",
          "type": "uint256"
        }
      ]
    },
    {
      "name": "owner__withdraw_reject",
      "stateMutability": "nonpayable",
      "outputs": [],
      "type": "function",
      "inputs": [
        {
          "internalType": "string",
          "name": "vault_id",
          "type": "string"
        },
        {
          "internalType": "address",
          "name": "user_address",
          "type": "address"
        },
        {
          "internalType": "string",
          "name": "withdraw_id",
          "type": "string"
        }
      ]
    },
    {
      "name": "site__account_close",
      "stateMutability": "nonpayable",
      "outputs": [],
      "type": "function",
      "inputs": [
        {
          "internalType": "string",
          "name": "vault_id",
          "type": "string"
        },
        {
          "internalType": "address",
          "name": "user_address",
          "type": "address"
        }
      ]
    },
    {
      "name": "site__account_open",
      "stateMutability": "nonpayable",
      "outputs": [],
      "type": "function",
      "inputs": [
        {
          "internalType": "string",
          "name": "vault_id",
          "type": "string"
        },
        {
          "internalType": "address",
          "name": "user_address",
          "type": "address"
        }
      ]
    },
    {
      "name": "site__add_support",
      "stateMutability": "nonpayable",
      "outputs": [],
      "type": "function",
      "inputs": [
        {
          "internalType": "address",
          "name": "user",
          "type": "address"
        }
      ]
    },
    {
      "name": "site__change_authority",
      "stateMutability": "nonpayable",
      "outputs": [],
      "type": "function",
      "inputs": [
        {
          "internalType": "address",
          "name": "new_authority",
          "type": "address"
        }
      ]
    },
    {
      "name": "site__remove_support",
      "stateMutability": "nonpayable",
      "outputs": [],
      "type": "function",
      "inputs": [
        {
          "internalType": "address",
          "name": "user",
          "type": "address"
        }
      ]
    },
    {
      "name": "site__vault_create",
      "stateMutability": "nonpayable",
      "outputs": [],
      "type": "function",
      "inputs": [
        {
          "internalType": "string",
          "name": "vault_id",
          "type": "string"
        },
        {
          "internalType": "string",
          "name": "name",
          "type": "string"
        },
        {
          "internalType": "address",
          "name": "owner",
          "type": "address"
        },
        {
          "internalType": "uint16",
          "name": "vault_tax_rate",
          "type": "uint16"
        },
        {
          "internalType": "uint256",
          "name": "vault_tax_max",
          "type": "uint256"
        },
        {
          "internalType": "uint256",
          "name": "vault_withdraw_min",
          "type": "uint256"
        },
        {
          "internalType": "uint256",
          "name": "vault_withdraw_max",
          "type": "uint256"
        },
        {
          "internalType": "address",
          "name": "vault_erc20",
          "type": "address"
        }
      ]
    },
    {
      "name": "site__withdraw_confirm",
      "stateMutability": "nonpayable",
      "outputs": [],
      "type": "function",
      "inputs": [
        {
          "internalType": "string",
          "name": "vault_id",
          "type": "string"
        },
        {
          "internalType": "address",
          "name": "user_address",
          "type": "address"
        },
        {
          "internalType": "string",
          "name": "withdraw_id",
          "type": "string"
        },
        {
          "internalType": "uint256",
          "name": "amount",
          "type": "uint256"
        }
      ]
    },
    {
      "name": "site__withdraw_reject",
      "stateMutability": "nonpayable",
      "outputs": [],
      "type": "function",
      "inputs": [
        {
          "internalType": "string",
          "name": "vault_id",
          "type": "string"
        },
        {
          "internalType": "address",
          "name": "user_address",
          "type": "address"
        },
        {
          "internalType": "string",
          "name": "withdraw_id",
          "type": "string"
        }
      ]
    },
    {
      "name": "user__account_deposit",
      "stateMutability": "nonpayable",
      "outputs": [],
      "type": "function",
      "inputs": [
        {
          "internalType": "string",
          "name": "vault_id",
          "type": "string"
        },
        {
          "internalType": "uint256",
          "name": "amount",
          "type": "uint256"
        }
      ]
    },
    {
      "name": "user__arbitration_unvote",
      "stateMutability": "nonpayable",
      "outputs": [],
      "type": "function",
      "inputs": [
        {
          "internalType": "string",
          "name": "vault_id",
          "type": "string"
        }
      ]
    },
    {
      "name": "user__arbitration_vote",
      "stateMutability": "nonpayable",
      "outputs": [],
      "type": "function",
      "inputs": [
        {
          "internalType": "string",
          "name": "vault_id",
          "type": "string"
        }
      ]
    },
    {
      "name": "user__withdraw_request",
      "stateMutability": "nonpayable",
      "outputs": [],
      "type": "function",
      "inputs": [
        {
          "internalType": "string",
          "name": "vault_id",
          "type": "string"
        },
        {
          "internalType": "string",
          "name": "withdraw_id",
          "type": "string"
        },
        {
          "internalType": "uint256",
          "name": "amount",
          "type": "uint256"
        }
      ]
    },
    {
      "name": "user__withdraw_self",
      "stateMutability": "nonpayable",
      "outputs": [],
      "type": "function",
      "inputs": [
        {
          "internalType": "string",
          "name": "vault_id",
          "type": "string"
        },
        {
          "internalType": "string",
          "name": "withdraw_id",
          "type": "string"
        }
      ]
    }
  ],
  "userdoc": {
    "methods": {},
    "kind": "user",
    "version": 1
  },
  "storageLayout": {
    "storage": [
      {
        "offset": 0,
        "slot": "0",
        "label": "g__SiteAuthority",
        "astId": 46,
        "type": "t_address",
        "contract": "temp.sol:StatstradeVaultErc20Factory"
      },
      {
        "offset": 0,
        "slot": "1",
        "label": "g__SiteSupport",
        "astId": 50,
        "type": "t_mapping(t_address,t_bool)",
        "contract": "temp.sol:StatstradeVaultErc20Factory"
      },
      {
        "offset": 0,
        "slot": "2",
        "label": "g__SiteArbitrationThreshold",
        "astId": 52,
        "type": "t_uint16",
        "contract": "temp.sol:StatstradeVaultErc20Factory"
      },
      {
        "offset": 2,
        "slot": "2",
        "label": "g__VaultCount",
        "astId": 106,
        "type": "t_uint16",
        "contract": "temp.sol:StatstradeVaultErc20Factory"
      },
      {
        "offset": 0,
        "slot": "3",
        "label": "g__VaultLookup",
        "astId": 111,
        "type": "t_mapping(t_string_memory_ptr,t_struct(Vault)84_storage)",
        "contract": "temp.sol:StatstradeVaultErc20Factory"
      },
      {
        "offset": 0,
        "slot": "4",
        "label": "g__VaultAccounts",
        "astId": 118,
        "type": "t_mapping(t_string_memory_ptr,t_mapping(t_address,t_struct(VaultAccount)94_storage))",
        "contract": "temp.sol:StatstradeVaultErc20Factory"
      },
      {
        "offset": 0,
        "slot": "5",
        "label": "g__VaultWithdrawals",
        "astId": 127,
        "type": "t_mapping(t_string_memory_ptr,t_mapping(t_address,t_mapping(t_string_memory_ptr,t_struct(WithdrawRequest)58_storage)))",
        "contract": "temp.sol:StatstradeVaultErc20Factory"
      }
    ],
    "types": {
      "t_address": {
        "label": "address",
        "encoding": "inplace",
        "numberOfBytes": "20"
      },
      "t_struct(Vault)84_storage": {
        "members": [
          {
            "offset": 0,
            "slot": "0",
            "label": "status",
            "astId": 61,
            "type": "t_enum(VaultStatus)32",
            "contract": "temp.sol:StatstradeVaultErc20Factory"
          },
          {
            "offset": 0,
            "slot": "1",
            "label": "name",
            "astId": 63,
            "type": "t_string_storage",
            "contract": "temp.sol:StatstradeVaultErc20Factory"
          },
          {
            "offset": 0,
            "slot": "2",
            "label": "owner",
            "astId": 65,
            "type": "t_address",
            "contract": "temp.sol:StatstradeVaultErc20Factory"
          },
          {
            "offset": 0,
            "slot": "3",
            "label": "total_pool",
            "astId": 67,
            "type": "t_uint256",
            "contract": "temp.sol:StatstradeVaultErc20Factory"
          },
          {
            "offset": 0,
            "slot": "4",
            "label": "total_requested",
            "astId": 69,
            "type": "t_uint256",
            "contract": "temp.sol:StatstradeVaultErc20Factory"
          },
          {
            "offset": 0,
            "slot": "5",
            "label": "total_players",
            "astId": 71,
            "type": "t_uint16",
            "contract": "temp.sol:StatstradeVaultErc20Factory"
          },
          {
            "offset": 2,
            "slot": "5",
            "label": "total_arbitration",
            "astId": 73,
            "type": "t_uint16",
            "contract": "temp.sol:StatstradeVaultErc20Factory"
          },
          {
            "offset": 4,
            "slot": "5",
            "label": "vault_tax_rate",
            "astId": 75,
            "type": "t_uint16",
            "contract": "temp.sol:StatstradeVaultErc20Factory"
          },
          {
            "offset": 0,
            "slot": "6",
            "label": "vault_tax_max",
            "astId": 77,
            "type": "t_uint256",
            "contract": "temp.sol:StatstradeVaultErc20Factory"
          },
          {
            "offset": 0,
            "slot": "7",
            "label": "vault_withdraw_min",
            "astId": 79,
            "type": "t_uint256",
            "contract": "temp.sol:StatstradeVaultErc20Factory"
          },
          {
            "offset": 0,
            "slot": "8",
            "label": "vault_withdraw_max",
            "astId": 81,
            "type": "t_uint256",
            "contract": "temp.sol:StatstradeVaultErc20Factory"
          },
          {
            "offset": 0,
            "slot": "9",
            "label": "vault_erc20",
            "astId": 83,
            "type": "t_address",
            "contract": "temp.sol:StatstradeVaultErc20Factory"
          }
        ],
        "label": "struct StatstradeVaultErc20Factory.Vault",
        "encoding": "inplace",
        "numberOfBytes": "320"
      },
      "t_mapping(t_string_memory_ptr,t_mapping(t_address,t_mapping(t_string_memory_ptr,t_struct(WithdrawRequest)58_storage)))": {
        "label": "mapping(string => mapping(address => mapping(string => struct StatstradeVaultErc20Factory.WithdrawRequest)))",
        "key": "t_string_memory_ptr",
        "encoding": "mapping",
        "value": "t_mapping(t_address,t_mapping(t_string_memory_ptr,t_struct(WithdrawRequest)58_storage))",
        "numberOfBytes": "32"
      },
      "t_mapping(t_address,t_bool)": {
        "label": "mapping(address => bool)",
        "key": "t_address",
        "encoding": "mapping",
        "value": "t_bool",
        "numberOfBytes": "32"
      },
      "t_string_memory_ptr": {
        "label": "string",
        "encoding": "bytes",
        "numberOfBytes": "32"
      },
      "t_mapping(t_string_memory_ptr,t_struct(Vault)84_storage)": {
        "label": "mapping(string => struct StatstradeVaultErc20Factory.Vault)",
        "key": "t_string_memory_ptr",
        "encoding": "mapping",
        "value": "t_struct(Vault)84_storage",
        "numberOfBytes": "32"
      },
      "t_mapping(t_address,t_mapping(t_string_memory_ptr,t_struct(WithdrawRequest)58_storage))": {
        "label": "mapping(address => mapping(string => struct StatstradeVaultErc20Factory.WithdrawRequest))",
        "key": "t_address",
        "encoding": "mapping",
        "value": "t_mapping(t_string_memory_ptr,t_struct(WithdrawRequest)58_storage)",
        "numberOfBytes": "32"
      },
      "t_string_storage": {
        "label": "string",
        "encoding": "bytes",
        "numberOfBytes": "32"
      },
      "t_struct(VaultAccount)94_storage": {
        "members": [
          {
            "offset": 0,
            "slot": "0",
            "label": "status",
            "astId": 87,
            "type": "t_enum(VaultAccountStatus)37",
            "contract": "temp.sol:StatstradeVaultErc20Factory"
          },
          {
            "offset": 1,
            "slot": "0",
            "label": "arbitration",
            "astId": 89,
            "type": "t_bool",
            "contract": "temp.sol:StatstradeVaultErc20Factory"
          },
          {
            "offset": 0,
            "slot": "1",
            "label": "last_withdraw_id",
            "astId": 91,
            "type": "t_string_storage",
            "contract": "temp.sol:StatstradeVaultErc20Factory"
          },
          {
            "offset": 0,
            "slot": "2",
            "label": "last_withdraw_time",
            "astId": 93,
            "type": "t_uint256",
            "contract": "temp.sol:StatstradeVaultErc20Factory"
          }
        ],
        "label": "struct StatstradeVaultErc20Factory.VaultAccount",
        "encoding": "inplace",
        "numberOfBytes": "96"
      },
      "t_enum(VaultRequestStatus)44": {
        "label": "enum StatstradeVaultErc20Factory.VaultRequestStatus",
        "encoding": "inplace",
        "numberOfBytes": "1"
      },
      "t_mapping(t_string_memory_ptr,t_mapping(t_address,t_struct(VaultAccount)94_storage))": {
        "label": "mapping(string => mapping(address => struct StatstradeVaultErc20Factory.VaultAccount))",
        "key": "t_string_memory_ptr",
        "encoding": "mapping",
        "value": "t_mapping(t_address,t_struct(VaultAccount)94_storage)",
        "numberOfBytes": "32"
      },
      "t_enum(VaultStatus)32": {
        "label": "enum StatstradeVaultErc20Factory.VaultStatus",
        "encoding": "inplace",
        "numberOfBytes": "1"
      },
      "t_struct(WithdrawRequest)58_storage": {
        "members": [
          {
            "offset": 0,
            "slot": "0",
            "label": "amount",
            "astId": 54,
            "type": "t_uint256",
            "contract": "temp.sol:StatstradeVaultErc20Factory"
          },
          {
            "offset": 0,
            "slot": "1",
            "label": "status",
            "astId": 57,
            "type": "t_enum(VaultRequestStatus)44",
            "contract": "temp.sol:StatstradeVaultErc20Factory"
          }
        ],
        "label": "struct StatstradeVaultErc20Factory.WithdrawRequest",
        "encoding": "inplace",
        "numberOfBytes": "64"
      },
      "t_uint16": {
        "label": "uint16",
        "encoding": "inplace",
        "numberOfBytes": "2"
      },
      "t_mapping(t_address,t_struct(VaultAccount)94_storage)": {
        "label": "mapping(address => struct StatstradeVaultErc20Factory.VaultAccount)",
        "key": "t_address",
        "encoding": "mapping",
        "value": "t_struct(VaultAccount)94_storage",
        "numberOfBytes": "32"
      },
      "t_mapping(t_string_memory_ptr,t_struct(WithdrawRequest)58_storage)": {
        "label": "mapping(string => struct StatstradeVaultErc20Factory.WithdrawRequest)",
        "key": "t_string_memory_ptr",
        "encoding": "mapping",
        "value": "t_struct(WithdrawRequest)58_storage",
        "numberOfBytes": "32"
      },
      "t_uint256": {
        "label": "uint256",
        "encoding": "inplace",
        "numberOfBytes": "32"
      },
      "t_enum(VaultAccountStatus)37": {
        "label": "enum StatstradeVaultErc20Factory.VaultAccountStatus",
        "encoding": "inplace",
        "numberOfBytes": "1"
      },
      "t_bool": {
        "label": "bool",
        "encoding": "inplace",
        "numberOfBytes": "1"
      }
    }
  },
  "evm": {
    "bytecode": {
      "object": "608060405234801562000010575f80fd5b5060405162005cc538038062005cc58339818101604052810190620000369190620000d8565b335f806101000a81548173ffffffffffffffffffffffffffffffffffffffff021916908373ffffffffffffffffffffffffffffffffffffffff1602179055508060025f6101000a81548161ffff021916908361ffff1602179055505062000108565b5f80fd5b5f61ffff82169050919050565b620000b4816200009c565b8114620000bf575f80fd5b50565b5f81519050620000d281620000a9565b92915050565b5f60208284031215620000f057620000ef62000098565b5b5f620000ff84828501620000c2565b91505092915050565b615baf80620001165f395ff3fe608060405234801561000f575f80fd5b506004361061018b575f3560e01c8063a49d8533116100dc578063e3465d7a11610095578063f06575821161006f578063f065758214610446578063f2a9392d14610464578063f31300b414610480578063fcb74bf3146104b05761018b565b8063e3465d7a146103f2578063e463d44b1461040e578063e480ad831461042a5761018b565b8063a49d853314610331578063afb0eca91461034f578063b96161e31461036b578063be922bca14610387578063daed6ca2146103a3578063e29ebbfb146103bf5761018b565b806336fceb3e1161014957806347d733ce1161012357806347d733ce146102bf5780634e71c49a146102db5780634fc538fd146102f757806395875a68146103135761018b565b806336fceb3e1461026b57806339becbbe146102875780633e1c1ea8146102a35761018b565b80621b32121461018f578063049fde97146101c0578063136a899e146101dc57806318bb8952146101f85780631a88d046146102145780633665631a1461024f575b5f80fd5b6101a960048036038101906101a49190613a8f565b6104cc565b6040516101b7929190613ba2565b60405180910390f35b6101da60048036038101906101d59190613bc9565b61053e565b005b6101f660048036038101906101f19190613bc9565b6108a9565b005b610212600480360381019061020d9190613c58565b6109ec565b005b61022e60048036038101906102299190613cb2565b610ae1565b6040516102469c9b9a99989796959493929190613de4565b60405180910390f35b61026960048036038101906102649190613a8f565b610c4e565b005b61028560048036038101906102809190613ea3565b610ea7565b005b6102a1600480360381019061029c9190613ea3565b610f8b565b005b6102bd60048036038101906102b89190613cb2565b61105a565b005b6102d960048036038101906102d49190613ece565b61123f565b005b6102f560048036038101906102f09190613f6e565b611416565b005b610311600480360381019061030c9190613fc8565b6115b3565b005b61031b61175c565b6040516103289190614064565b60405180910390f35b61033961177f565b604051610346919061407d565b60405180910390f35b61036960048036038101906103649190613bc9565b611791565b005b61038560048036038101906103809190613cb2565b6118d5565b005b6103a1600480360381019061039c9190614096565b611af3565b005b6103bd60048036038101906103b89190614148565b612261565b005b6103d960048036038101906103d49190613bc9565b6125a6565b6040516103e99493929190614286565b60405180910390f35b61040c60048036038101906104079190613fc8565b612693565b005b61042860048036038101906104239190613a8f565b612827565b005b610444600480360381019061043f9190613bc9565b6129c7565b005b61044e612b0b565b60405161045b919061407d565b60405180910390f35b61047e60048036038101906104799190613bc9565b612b1e565b005b61049a60048036038101906104959190613ea3565b612cfe565b6040516104a791906142d0565b60405180910390f35b6104ca60048036038101906104c59190613ea3565b612d1b565b005b600583805160208101820180518482526020830160208501208183528095505050505050602052815f5260405f20818051602081018201805184825260208301602085012081835280955050505050505f925092505050805f015490806001015f9054906101000a900460ff16905082565b61054733612d73565b6001600381111561055b5761055a613b2f565b5b60038360405161056b9190614323565b90815260200160405180910390205f015f9054906101000a900460ff16600381111561059a57610599613b2f565b5b14806105f65750600260038111156105b5576105b4613b2f565b5b6003836040516105c59190614323565b90815260200160405180910390205f015f9054906101000a900460ff1660038111156105f4576105f3613b2f565b5b145b610635576040517f08c379a000000000000000000000000000000000000000000000000000000000815260040161062c90614383565b60405180910390fd5b5f600381111561064857610647613b2f565b5b6004836040516106589190614323565b90815260200160405180910390205f8373ffffffffffffffffffffffffffffffffffffffff1673ffffffffffffffffffffffffffffffffffffffff1681526020019081526020015f205f015f9054906101000a900460ff1660038111156106c2576106c1613b2f565b5b14610702576040517f08c379a00000000000000000000000000000000000000000000000000000000081526004016106f9906143eb565b60405180910390fd5b5f60405180608001604052806001600381111561072257610721613b2f565b5b81526020015f1515815260200160405180602001604052805f81525081526020015f81525090505f60038460405161075a9190614323565b90815260200160405180910390206005015f81819054906101000a900461ffff1661078490614436565b91906101000a81548161ffff021916908361ffff16021790559050816004856040516107b09190614323565b90815260200160405180910390205f8573ffffffffffffffffffffffffffffffffffffffff1673ffffffffffffffffffffffffffffffffffffffff1681526020019081526020015f205f820151815f015f6101000a81548160ff0219169083600381111561082157610820613b2f565b5b02179055506020820151815f0160016101000a81548160ff021916908315150217905550604082015181600101908161085a9190614659565b50606082015181600201559050507f040768ee67403a1b2c45e2ee8e9c7cb4283d12bd31f8126de25122997535c1bb84848360405161089b939291906147a2565b60405180910390a150505050565b6108b38233612e54565b5f6108be8383612f98565b90506003808111156108d3576108d2613b2f565b5b815f015160038111156108e9576108e8613b2f565b5b14610929576040517f08c379a00000000000000000000000000000000000000000000000000000000081526004016109209061483b565b60405180910390fd5b600260048460405161093b9190614323565b90815260200160405180910390205f8473ffffffffffffffffffffffffffffffffffffffff1673ffffffffffffffffffffffffffffffffffffffff1681526020019081526020015f205f015f6101000a81548160ff021916908360038111156109a7576109a6613b2f565b5b02179055507f040768ee67403a1b2c45e2ee8e9c7cb4283d12bd31f8126de25122997535c1bb83835f6040516109df939291906148dc565b60405180910390a1505050565b6109f68233612e54565b600380811115610a0957610a08613b2f565b5b600383604051610a199190614323565b90815260200160405180910390205f015f9054906101000a900460ff166003811115610a4857610a47613b2f565b5b03610a88576040517f08c379a0000000000000000000000000000000000000000000000000000000008152600401610a7f90614975565b60405180910390fd5b80610a94576001610a97565b60025b600383604051610aa79190614323565b90815260200160405180910390205f015f6101000a81548160ff02191690836003811115610ad857610ad7613b2f565b5b02179055505050565b6003818051602081018201805184825260208301602085012081835280955050505050505f91509050805f015f9054906101000a900460ff1690806001018054610b2a9061448c565b80601f0160208091040260200160405190810160405280929190818152602001828054610b569061448c565b8015610ba15780601f10610b7857610100808354040283529160200191610ba1565b820191905f5260205f20905b815481529060010190602001808311610b8457829003601f168201915b505050505090806002015f9054906101000a900473ffffffffffffffffffffffffffffffffffffffff1690806003015490806004015490806005015f9054906101000a900461ffff16908060050160029054906101000a900461ffff16908060050160049054906101000a900461ffff1690806006015490806007015490806008015490806009015f9054906101000a900473ffffffffffffffffffffffffffffffffffffffff1690508c565b610c588333612e54565b5f600584604051610c699190614323565b90815260200160405180910390205f8473ffffffffffffffffffffffffffffffffffffffff1673ffffffffffffffffffffffffffffffffffffffff1681526020019081526020015f2082604051610cc09190614323565b90815260200160405180910390206040518060400160405290815f8201548152602001600182015f9054906101000a900460ff166005811115610d0657610d05613b2f565b5b6005811115610d1857610d17613b2f565b5b81525050905060026005811115610d3257610d31613b2f565b5b81602001516005811115610d4957610d48613b2f565b5b14610d89576040517f08c379a0000000000000000000000000000000000000000000000000000000008152600401610d80906149dd565b60405180910390fd5b6004600585604051610d9b9190614323565b90815260200160405180910390205f8573ffffffffffffffffffffffffffffffffffffffff1673ffffffffffffffffffffffffffffffffffffffff1681526020019081526020015f2083604051610df29190614323565b90815260200160405180910390206001015f6101000a81548160ff02191690836005811115610e2457610e23613b2f565b5b0217905550805f0151600385604051610e3d9190614323565b90815260200160405180910390206004015f828254610e5c91906149fb565b925050819055507f040768ee67403a1b2c45e2ee8e9c7cb4283d12bd31f8126de25122997535c1bb8284835f0151604051610e9993929190614a78565b60405180910390a150505050565b5f8054906101000a900473ffffffffffffffffffffffffffffffffffffffff1673ffffffffffffffffffffffffffffffffffffffff163373ffffffffffffffffffffffffffffffffffffffff1614610f34576040517f08c379a0000000000000000000000000000000000000000000000000000000008152600401610f2b90614b11565b60405180910390fd5b6001805f8373ffffffffffffffffffffffffffffffffffffffff1673ffffffffffffffffffffffffffffffffffffffff1681526020019081526020015f205f6101000a81548160ff02191690831515021790555050565b5f8054906101000a900473ffffffffffffffffffffffffffffffffffffffff1673ffffffffffffffffffffffffffffffffffffffff163373ffffffffffffffffffffffffffffffffffffffff1614611018576040517f08c379a000000000000000000000000000000000000000000000000000000000815260040161100f90614b11565b60405180910390fd5b805f806101000a81548173ffffffffffffffffffffffffffffffffffffffff021916908373ffffffffffffffffffffffffffffffffffffffff16021790555050565b60038081111561106d5761106c613b2f565b5b60038260405161107d9190614323565b90815260200160405180910390205f015f9054906101000a900460ff1660038111156110ac576110ab613b2f565b5b036110ec576040517f08c379a00000000000000000000000000000000000000000000000000000000081526004016110e390614b79565b60405180910390fd5b5f6110f78233612f98565b9050806020015161113d576040517f08c379a000000000000000000000000000000000000000000000000000000000815260040161113490614be1565b60405180910390fd5b60048260405161114d9190614323565b90815260200160405180910390205f3373ffffffffffffffffffffffffffffffffffffffff1673ffffffffffffffffffffffffffffffffffffffff1681526020019081526020015f205f0160016101000a81549060ff02191690555f6003836040516111b99190614323565b9081526020016040518091039020600501600281819054906101000a900461ffff166111e490614bff565b91906101000a81548161ffff021916908361ffff160217905590507f040768ee67403a1b2c45e2ee8e9c7cb4283d12bd31f8126de25122997535c1bb83338360405161123293929190614c70565b60405180910390a1505050565b6001600381111561125357611252613b2f565b5b6003836040516112639190614323565b90815260200160405180910390205f015f9054906101000a900460ff16600381111561129257611291613b2f565b5b036112d2576040517f08c379a00000000000000000000000000000000000000000000000000000000081526004016112c990614d09565b60405180910390fd5b5f6005836040516112e39190614323565b90815260200160405180910390205f3373ffffffffffffffffffffffffffffffffffffffff1673ffffffffffffffffffffffffffffffffffffffff1681526020019081526020015f208260405161133a9190614323565b90815260200160405180910390206040518060400160405290815f8201548152602001600182015f9054906101000a900460ff1660058111156113805761137f613b2f565b5b600581111561139257611391613b2f565b5b815250509050600260058111156113ac576113ab613b2f565b5b816020015160058111156113c3576113c2613b2f565b5b14611403576040517f08c379a00000000000000000000000000000000000000000000000000000000081526004016113fa906149dd565b60405180910390fd5b611411833384846001613167565b505050565b5f6114218333612f98565b90506002600381111561143757611436613b2f565b5b815f0151600381111561144d5761144c613b2f565b5b1461148d576040517f08c379a000000000000000000000000000000000000000000000000000000000815260040161148490614d71565b60405180910390fd5b8160038460405161149e9190614323565b90815260200160405180910390206003015f8282546114bd9190614d8f565b925050819055505f6003846040516114d59190614323565b90815260200160405180910390206009015f9054906101000a900473ffffffffffffffffffffffffffffffffffffffff1690508073ffffffffffffffffffffffffffffffffffffffff166323b872dd3330866040518463ffffffff1660e01b815260040161154593929190614dc2565b5f604051808303815f87803b15801561155c575f80fd5b505af115801561156e573d5f803e3d5ffd5b505050507f040768ee67403a1b2c45e2ee8e9c7cb4283d12bd31f8126de25122997535c1bb8433856040516115a593929190614e41565b60405180910390a150505050565b6115bc33612d73565b5f6115c8858585613592565b9050600160058111156115de576115dd613b2f565b5b816020015160058111156115f5576115f4613b2f565b5b14611635576040517f08c379a000000000000000000000000000000000000000000000000000000000815260040161162c90614eda565b60405180910390fd5b81815f01511461167a576040517f08c379a000000000000000000000000000000000000000000000000000000000815260040161167190614f42565b60405180910390fd5b600260058660405161168c9190614323565b90815260200160405180910390205f8673ffffffffffffffffffffffffffffffffffffffff1673ffffffffffffffffffffffffffffffffffffffff1681526020019081526020015f20846040516116e39190614323565b90815260200160405180910390206001015f6101000a81548160ff0219169083600581111561171557611714613b2f565b5b02179055507f040768ee67403a1b2c45e2ee8e9c7cb4283d12bd31f8126de25122997535c1bb83858460405161174d93929190614faa565b60405180910390a15050505050565b5f8054906101000a900473ffffffffffffffffffffffffffffffffffffffff1681565b60028054906101000a900461ffff1681565b61179b82336136d5565b5f6117a68383612f98565b9050600260038111156117bc576117bb613b2f565b5b815f015160038111156117d2576117d1613b2f565b5b14611812576040517f08c379a000000000000000000000000000000000000000000000000000000000815260040161180990615043565b60405180910390fd5b60036004846040516118249190614323565b90815260200160405180910390205f8473ffffffffffffffffffffffffffffffffffffffff1673ffffffffffffffffffffffffffffffffffffffff1681526020019081526020015f205f015f6101000a81548160ff021916908360038111156118905761188f613b2f565b5b02179055507f040768ee67403a1b2c45e2ee8e9c7cb4283d12bd31f8126de25122997535c1bb83835f6040516118c8939291906150ab565b60405180910390a1505050565b5f6118e08233612f98565b9050806020015115611927576040517f08c379a000000000000000000000000000000000000000000000000000000000815260040161191e90615144565b60405180910390fd5b60016004836040516119399190614323565b90815260200160405180910390205f3373ffffffffffffffffffffffffffffffffffffffff1673ffffffffffffffffffffffffffffffffffffffff1681526020019081526020015f205f0160016101000a81548160ff0219169083151502179055505f6003836040516119ac9190614323565b9081526020016040518091039020600501600281819054906101000a900461ffff166119d790614436565b91906101000a81548161ffff021916908361ffff160217905590505f600384604051611a039190614323565b90815260200160405180910390206005015f9054906101000a900461ffff16905060048261ffff16118015611a65575060648160025f9054906101000a900461ffff16611a509190615162565b611a5a91906151cb565b61ffff168261ffff16115b15611ab25760038085604051611a7b9190614323565b90815260200160405180910390205f015f6101000a81548160ff02191690836003811115611aac57611aab613b2f565b5b02179055505b7f040768ee67403a1b2c45e2ee8e9c7cb4283d12bd31f8126de25122997535c1bb843384604051611ae593929190615245565b60405180910390a150505050565b5f600484604051611b049190614323565b90815260200160405180910390205f3373ffffffffffffffffffffffffffffffffffffffff1673ffffffffffffffffffffffffffffffffffffffff1681526020019081526020015f206040518060800160405290815f82015f9054906101000a900460ff166003811115611b7b57611b7a613b2f565b5b6003811115611b8d57611b8c613b2f565b5b81526020015f820160019054906101000a900460ff16151515158152602001600182018054611bbb9061448c565b80601f0160208091040260200160405190810160405280929190818152602001828054611be79061448c565b8015611c325780601f10611c0957610100808354040283529160200191611c32565b820191905f5260205f20905b815481529060010190602001808311611c1557829003601f168201915b5050505050815260200160028201548152505090505f600385604051611c589190614323565b9081526020016040518091039020604051806101800160405290815f82015f9054906101000a900460ff166003811115611c9557611c94613b2f565b5b6003811115611ca757611ca6613b2f565b5b8152602001600182018054611cbb9061448c565b80601f0160208091040260200160405190810160405280929190818152602001828054611ce79061448c565b8015611d325780601f10611d0957610100808354040283529160200191611d32565b820191905f5260205f20905b815481529060010190602001808311611d1557829003601f168201915b50505050508152602001600282015f9054906101000a900473ffffffffffffffffffffffffffffffffffffffff1673ffffffffffffffffffffffffffffffffffffffff1673ffffffffffffffffffffffffffffffffffffffff1681526020016003820154815260200160048201548152602001600582015f9054906101000a900461ffff1661ffff1661ffff1681526020016005820160029054906101000a900461ffff1661ffff1661ffff1681526020016005820160049054906101000a900461ffff1661ffff1661ffff168152602001600682015481526020016007820154815260200160088201548152602001600982015f9054906101000a900473ffffffffffffffffffffffffffffffffffffffff1673ffffffffffffffffffffffffffffffffffffffff1673ffffffffffffffffffffffffffffffffffffffff1681525050905060026003811115611e8c57611e8b613b2f565b5b825f01516003811115611ea257611ea1613b2f565b5b1480611ed45750600380811115611ebc57611ebb613b2f565b5b815f01516003811115611ed257611ed1613b2f565b5b145b611f13576040517f08c379a0000000000000000000000000000000000000000000000000000000008152600401611f0a906152de565b60405180910390fd5b5f6005811115611f2657611f25613b2f565b5b600586604051611f369190614323565b90815260200160405180910390205f3373ffffffffffffffffffffffffffffffffffffffff1673ffffffffffffffffffffffffffffffffffffffff1681526020019081526020015f2085604051611f8d9190614323565b90815260200160405180910390206001015f9054906101000a900460ff166005811115611fbd57611fbc613b2f565b5b14611ffd576040517f08c379a0000000000000000000000000000000000000000000000000000000008152600401611ff490615346565b60405180910390fd5b806101200151831015612045576040517f08c379a000000000000000000000000000000000000000000000000000000000815260040161203c906153ae565b60405180910390fd5b80610140015183111561208d576040517f08c379a000000000000000000000000000000000000000000000000000000000815260040161208490615416565b60405180910390fd5b5f8360038760405161209f9190614323565b9081526020016040518091039020600401546120bb9190614d8f565b9050806003876040516120ce9190614323565b9081526020016040518091039020600301541015612121576040517f08c379a00000000000000000000000000000000000000000000000000000000081526004016121189061547e565b60405180910390fd5b60405180604001604052808581526020016001600581111561214657612145613b2f565b5b8152506005876040516121599190614323565b90815260200160405180910390205f3373ffffffffffffffffffffffffffffffffffffffff1673ffffffffffffffffffffffffffffffffffffffff1681526020019081526020015f20866040516121b09190614323565b90815260200160405180910390205f820151815f01556020820151816001015f6101000a81548160ff021916908360058111156121f0576121ef613b2f565b5b0217905550905050806003876040516122099190614323565b9081526020016040518091039020600401819055507f040768ee67403a1b2c45e2ee8e9c7cb4283d12bd31f8126de25122997535c1bb853386604051612251939291906154e6565b60405180910390a1505050505050565b61226a33612d73565b60038860405161227a9190614323565b90815260200160405180910390205f015f9054906101000a900460ff1660038111156122a9576122a8613b2f565b5b5f60038111156122bc576122bb613b2f565b5b146122fc576040517f08c379a00000000000000000000000000000000000000000000000000000000081526004016122f39061557f565b60405180910390fd5b5f6040518061018001604052806001600381111561231d5761231c613b2f565b5b81526020018981526020018873ffffffffffffffffffffffffffffffffffffffff1681526020015f81526020015f81526020015f61ffff1681526020015f61ffff1681526020018761ffff1681526020018681526020018581526020018481526020018373ffffffffffffffffffffffffffffffffffffffff16815250905060028081819054906101000a900461ffff166123b790614436565b91906101000a81548161ffff021916908361ffff1602179055508060038a6040516123e29190614323565b90815260200160405180910390205f820151815f015f6101000a81548160ff0219169083600381111561241857612417613b2f565b5b021790555060208201518160010190816124329190614659565b506040820151816002015f6101000a81548173ffffffffffffffffffffffffffffffffffffffff021916908373ffffffffffffffffffffffffffffffffffffffff160217905550606082015181600301556080820151816004015560a0820151816005015f6101000a81548161ffff021916908361ffff16021790555060c08201518160050160026101000a81548161ffff021916908361ffff16021790555060e08201518160050160046101000a81548161ffff021916908361ffff160217905550610100820151816006015561012082015181600701556101408201518160080155610160820151816009015f6101000a81548173ffffffffffffffffffffffffffffffffffffffff021916908373ffffffffffffffffffffffffffffffffffffffff1602179055509050507f040768ee67403a1b2c45e2ee8e9c7cb4283d12bd31f8126de25122997535c1bb89885f604051612593939291906155e7565b60405180910390a1505050505050505050565b600482805160208101820180518482526020830160208501208183528095505050505050602052805f5260405f205f9150915050805f015f9054906101000a900460ff1690805f0160019054906101000a900460ff169080600101805461260c9061448c565b80601f01602080910402602001604051908101604052809291908181526020018280546126389061448c565b80156126835780601f1061265a57610100808354040283529160200191612683565b820191905f5260205f20905b81548152906001019060200180831161266657829003601f168201915b5050505050908060020154905084565b61269d8433612e54565b5f6005856040516126ae9190614323565b90815260200160405180910390205f8573ffffffffffffffffffffffffffffffffffffffff1673ffffffffffffffffffffffffffffffffffffffff1681526020019081526020015f20836040516127059190614323565b90815260200160405180910390206040518060400160405290815f8201548152602001600182015f9054906101000a900460ff16600581111561274b5761274a613b2f565b5b600581111561275d5761275c613b2f565b5b8152505090506002600581111561277757612776613b2f565b5b8160200151600581111561278e5761278d613b2f565b5b146127ce576040517f08c379a00000000000000000000000000000000000000000000000000000000081526004016127c5906149dd565b60405180910390fd5b81815f015114612813576040517f08c379a000000000000000000000000000000000000000000000000000000000815260040161280a90614f42565b60405180910390fd5b612820858585845f613167565b5050505050565b61283033612d73565b5f61283c848484613592565b90506001600581111561285257612851613b2f565b5b8160200151600581111561286957612868613b2f565b5b146128a9576040517f08c379a00000000000000000000000000000000000000000000000000000000081526004016128a090614eda565b60405180910390fd5b60036005856040516128bb9190614323565b90815260200160405180910390205f8573ffffffffffffffffffffffffffffffffffffffff1673ffffffffffffffffffffffffffffffffffffffff1681526020019081526020015f20836040516129129190614323565b90815260200160405180910390206001015f6101000a81548160ff0219169083600581111561294457612943613b2f565b5b0217905550805f015160038560405161295d9190614323565b90815260200160405180910390206004015f82825461297c91906149fb565b925050819055507f040768ee67403a1b2c45e2ee8e9c7cb4283d12bd31f8126de25122997535c1bb8284835f01516040516129b993929190615680565b60405180910390a150505050565b6129d18233612e54565b5f6129dc8383612f98565b9050600160038111156129f2576129f1613b2f565b5b815f01516003811115612a0857612a07613b2f565b5b14612a48576040517f08c379a0000000000000000000000000000000000000000000000000000000008152600401612a3f90615043565b60405180910390fd5b6002600484604051612a5a9190614323565b90815260200160405180910390205f8473ffffffffffffffffffffffffffffffffffffffff1673ffffffffffffffffffffffffffffffffffffffff1681526020019081526020015f205f015f6101000a81548160ff02191690836003811115612ac657612ac5613b2f565b5b02179055507f040768ee67403a1b2c45e2ee8e9c7cb4283d12bd31f8126de25122997535c1bb83835f604051612afe93929190615719565b60405180910390a1505050565b60025f9054906101000a900461ffff1681565b612b2733612d73565b5f612b328383612f98565b905060026003811115612b4857612b47613b2f565b5b815f01516003811115612b5e57612b5d613b2f565b5b1480612b91575060016003811115612b7957612b78613b2f565b5b815f01516003811115612b8f57612b8e613b2f565b5b145b612bd0576040517f08c379a0000000000000000000000000000000000000000000000000000000008152600401612bc790615043565b60405180910390fd5b600483604051612be09190614323565b90815260200160405180910390205f8373ffffffffffffffffffffffffffffffffffffffff1673ffffffffffffffffffffffffffffffffffffffff1681526020019081526020015f205f8082015f6101000a81549060ff02191690555f820160016101000a81549060ff0219169055600182015f612c5e919061382d565b600282015f905550505f600384604051612c789190614323565b90815260200160405180910390206005015f81819054906101000a900461ffff16612ca290614bff565b91906101000a81548161ffff021916908361ffff160217905590507f040768ee67403a1b2c45e2ee8e9c7cb4283d12bd31f8126de25122997535c1bb848483604051612cf0939291906157b2565b60405180910390a150505050565b6001602052805f5260405f205f915054906101000a900460ff1681565b612d2433612d73565b60015f8273ffffffffffffffffffffffffffffffffffffffff1673ffffffffffffffffffffffffffffffffffffffff1681526020019081526020015f205f6101000a81549060ff021916905550565b5f8054906101000a900473ffffffffffffffffffffffffffffffffffffffff1673ffffffffffffffffffffffffffffffffffffffff168173ffffffffffffffffffffffffffffffffffffffff161480612e12575060015f8273ffffffffffffffffffffffffffffffffffffffff1673ffffffffffffffffffffffffffffffffffffffff1681526020019081526020015f205f9054906101000a900460ff165b612e51576040517f08c379a0000000000000000000000000000000000000000000000000000000008152600401612e489061584b565b60405180910390fd5b50565b8073ffffffffffffffffffffffffffffffffffffffff16600383604051612e7b9190614323565b90815260200160405180910390206002015f9054906101000a900473ffffffffffffffffffffffffffffffffffffffff1673ffffffffffffffffffffffffffffffffffffffff1614612f02576040517f08c379a0000000000000000000000000000000000000000000000000000000008152600401612ef9906158b3565b60405180910390fd5b600380811115612f1557612f14613b2f565b5b600383604051612f259190614323565b90815260200160405180910390205f015f9054906101000a900460ff166003811115612f5457612f53613b2f565b5b03612f94576040517f08c379a0000000000000000000000000000000000000000000000000000000008152600401612f8b90614b79565b60405180910390fd5b5050565b612fa061386a565b5f600484604051612fb19190614323565b90815260200160405180910390205f8473ffffffffffffffffffffffffffffffffffffffff1673ffffffffffffffffffffffffffffffffffffffff1681526020019081526020015f206040518060800160405290815f82015f9054906101000a900460ff16600381111561302857613027613b2f565b5b600381111561303a57613039613b2f565b5b81526020015f820160019054906101000a900460ff161515151581526020016001820180546130689061448c565b80601f01602080910402602001604051908101604052809291908181526020018280546130949061448c565b80156130df5780601f106130b6576101008083540402835291602001916130df565b820191905f5260205f20905b8154815290600101906020018083116130c257829003601f168201915b5050505050815260200160028201548152505090505f600381111561310757613106613b2f565b5b815f0151600381111561311d5761311c613b2f565b5b0361315d576040517f08c379a00000000000000000000000000000000000000000000000000000000081526004016131549061591b565b60405180910390fd5b8091505092915050565b5f61271060038760405161317b9190614323565b908152602001604051809103902060050160049054906101000a900461ffff1661ffff16845f01516131ad9190615939565b6131b7919061597a565b90506003866040516131c99190614323565b908152602001604051809103902060060154811115613207576003866040516131f29190614323565b90815260200160405180910390206006015490505b5f6003876040516132189190614323565b90815260200160405180910390206009015f9054906101000a900473ffffffffffffffffffffffffffffffffffffffff16905082156132f1578073ffffffffffffffffffffffffffffffffffffffff1663a9059cbb5f8054906101000a900473ffffffffffffffffffffffffffffffffffffffff16846040518363ffffffff1660e01b81526004016132ab9291906159aa565b6020604051808303815f875af11580156132c7573d5f803e3d5ffd5b505050506040513d601f19601f820116820180604052508101906132eb91906159e5565b506133ae565b8073ffffffffffffffffffffffffffffffffffffffff1663a9059cbb60038960405161331d9190614323565b90815260200160405180910390206002015f9054906101000a900473ffffffffffffffffffffffffffffffffffffffff16846040518363ffffffff1660e01b815260040161336c9291906159aa565b6020604051808303815f875af1158015613388573d5f803e3d5ffd5b505050506040513d601f19601f820116820180604052508101906133ac91906159e5565b505b8073ffffffffffffffffffffffffffffffffffffffff1663a9059cbb8784875f01516133da91906149fb565b6040518363ffffffff1660e01b81526004016133f79291906159aa565b6020604051808303815f875af1158015613413573d5f803e3d5ffd5b505050506040513d601f19601f8201168201806040525081019061343791906159e5565b50600580886040516134499190614323565b90815260200160405180910390205f8873ffffffffffffffffffffffffffffffffffffffff1673ffffffffffffffffffffffffffffffffffffffff1681526020019081526020015f20866040516134a09190614323565b90815260200160405180910390206001015f6101000a81548160ff021916908360058111156134d2576134d1613b2f565b5b0217905550835f01516003886040516134eb9190614323565b90815260200160405180910390206003015f82825461350a91906149fb565b92505081905550835f01516003886040516135259190614323565b90815260200160405180910390206004015f82825461354491906149fb565b925050819055507f040768ee67403a1b2c45e2ee8e9c7cb4283d12bd31f8126de25122997535c1bb8587865f015160405161358193929190615a5a565b60405180910390a150505050505050565b61359a6138a3565b5f6005856040516135ab9190614323565b90815260200160405180910390205f8573ffffffffffffffffffffffffffffffffffffffff1673ffffffffffffffffffffffffffffffffffffffff1681526020019081526020015f20836040516136029190614323565b90815260200160405180910390206040518060400160405290815f8201548152602001600182015f9054906101000a900460ff16600581111561364857613647613b2f565b5b600581111561365a57613659613b2f565b5b8152505090505f600581111561367357613672613b2f565b5b8160200151600581111561368a57613689613b2f565b5b036136ca576040517f08c379a00000000000000000000000000000000000000000000000000000000081526004016136c190615af3565b60405180910390fd5b809150509392505050565b8073ffffffffffffffffffffffffffffffffffffffff166003836040516136fc9190614323565b90815260200160405180910390206002015f9054906101000a900473ffffffffffffffffffffffffffffffffffffffff1673ffffffffffffffffffffffffffffffffffffffff16148061379957505f8054906101000a900473ffffffffffffffffffffffffffffffffffffffff1673ffffffffffffffffffffffffffffffffffffffff168173ffffffffffffffffffffffffffffffffffffffff16145b806137ea575060015f8273ffffffffffffffffffffffffffffffffffffffff1673ffffffffffffffffffffffffffffffffffffffff1681526020019081526020015f205f9054906101000a900460ff165b613829576040517f08c379a000000000000000000000000000000000000000000000000000000000815260040161382090615b5b565b60405180910390fd5b5050565b5080546138399061448c565b5f825580601f1061384a5750613867565b601f0160209004905f5260205f209081019061386691906138cd565b5b50565b60405180608001604052805f600381111561388857613887613b2f565b5b81526020015f15158152602001606081526020015f81525090565b60405180604001604052805f81526020015f60058111156138c7576138c6613b2f565b5b81525090565b5b808211156138e4575f815f9055506001016138ce565b5090565b5f604051905090565b5f80fd5b5f80fd5b5f80fd5b5f80fd5b5f601f19601f8301169050919050565b7f4e487b71000000000000000000000000000000000000000000000000000000005f52604160045260245ffd5b61394782613901565b810181811067ffffffffffffffff8211171561396657613965613911565b5b80604052505050565b5f6139786138e8565b9050613984828261393e565b919050565b5f67ffffffffffffffff8211156139a3576139a2613911565b5b6139ac82613901565b9050602081019050919050565b828183375f83830152505050565b5f6139d96139d484613989565b61396f565b9050828152602081018484840111156139f5576139f46138fd565b5b613a008482856139b9565b509392505050565b5f82601f830112613a1c57613a1b6138f9565b5b8135613a2c8482602086016139c7565b91505092915050565b5f73ffffffffffffffffffffffffffffffffffffffff82169050919050565b5f613a5e82613a35565b9050919050565b613a6e81613a54565b8114613a78575f80fd5b50565b5f81359050613a8981613a65565b92915050565b5f805f60608486031215613aa657613aa56138f1565b5b5f84013567ffffffffffffffff811115613ac357613ac26138f5565b5b613acf86828701613a08565b9350506020613ae086828701613a7b565b925050604084013567ffffffffffffffff811115613b0157613b006138f5565b5b613b0d86828701613a08565b9150509250925092565b5f819050919050565b613b2981613b17565b82525050565b7f4e487b71000000000000000000000000000000000000000000000000000000005f52602160045260245ffd5b60068110613b6d57613b6c613b2f565b5b50565b5f819050613b7d82613b5c565b919050565b5f613b8c82613b70565b9050919050565b613b9c81613b82565b82525050565b5f604082019050613bb55f830185613b20565b613bc26020830184613b93565b9392505050565b5f8060408385031215613bdf57613bde6138f1565b5b5f83013567ffffffffffffffff811115613bfc57613bfb6138f5565b5b613c0885828601613a08565b9250506020613c1985828601613a7b565b9150509250929050565b5f8115159050919050565b613c3781613c23565b8114613c41575f80fd5b50565b5f81359050613c5281613c2e565b92915050565b5f8060408385031215613c6e57613c6d6138f1565b5b5f83013567ffffffffffffffff811115613c8b57613c8a6138f5565b5b613c9785828601613a08565b9250506020613ca885828601613c44565b9150509250929050565b5f60208284031215613cc757613cc66138f1565b5b5f82013567ffffffffffffffff811115613ce457613ce36138f5565b5b613cf084828501613a08565b91505092915050565b60048110613d0a57613d09613b2f565b5b50565b5f819050613d1a82613cf9565b919050565b5f613d2982613d0d565b9050919050565b613d3981613d1f565b82525050565b5f81519050919050565b5f82825260208201905092915050565b5f5b83811015613d76578082015181840152602081019050613d5b565b5f8484015250505050565b5f613d8b82613d3f565b613d958185613d49565b9350613da5818560208601613d59565b613dae81613901565b840191505092915050565b613dc281613a54565b82525050565b5f61ffff82169050919050565b613dde81613dc8565b82525050565b5f61018082019050613df85f83018f613d30565b8181036020830152613e0a818e613d81565b9050613e19604083018d613db9565b613e26606083018c613b20565b613e33608083018b613b20565b613e4060a083018a613dd5565b613e4d60c0830189613dd5565b613e5a60e0830188613dd5565b613e68610100830187613b20565b613e76610120830186613b20565b613e84610140830185613b20565b613e92610160830184613db9565b9d9c50505050505050505050505050565b5f60208284031215613eb857613eb76138f1565b5b5f613ec584828501613a7b565b91505092915050565b5f8060408385031215613ee457613ee36138f1565b5b5f83013567ffffffffffffffff811115613f0157613f006138f5565b5b613f0d85828601613a08565b925050602083013567ffffffffffffffff811115613f2e57613f2d6138f5565b5b613f3a85828601613a08565b9150509250929050565b613f4d81613b17565b8114613f57575f80fd5b50565b5f81359050613f6881613f44565b92915050565b5f8060408385031215613f8457613f836138f1565b5b5f83013567ffffffffffffffff811115613fa157613fa06138f5565b5b613fad85828601613a08565b9250506020613fbe85828601613f5a565b9150509250929050565b5f805f8060808587031215613fe057613fdf6138f1565b5b5f85013567ffffffffffffffff811115613ffd57613ffc6138f5565b5b61400987828801613a08565b945050602061401a87828801613a7b565b935050604085013567ffffffffffffffff81111561403b5761403a6138f5565b5b61404787828801613a08565b925050606061405887828801613f5a565b91505092959194509250565b5f6020820190506140775f830184613db9565b92915050565b5f6020820190506140905f830184613dd5565b92915050565b5f805f606084860312156140ad576140ac6138f1565b5b5f84013567ffffffffffffffff8111156140ca576140c96138f5565b5b6140d686828701613a08565b935050602084013567ffffffffffffffff8111156140f7576140f66138f5565b5b61410386828701613a08565b925050604061411486828701613f5a565b9150509250925092565b61412781613dc8565b8114614131575f80fd5b50565b5f813590506141428161411e565b92915050565b5f805f805f805f80610100898b031215614165576141646138f1565b5b5f89013567ffffffffffffffff811115614182576141816138f5565b5b61418e8b828c01613a08565b985050602089013567ffffffffffffffff8111156141af576141ae6138f5565b5b6141bb8b828c01613a08565b97505060406141cc8b828c01613a7b565b96505060606141dd8b828c01614134565b95505060806141ee8b828c01613f5a565b94505060a06141ff8b828c01613f5a565b93505060c06142108b828c01613f5a565b92505060e06142218b828c01613a7b565b9150509295985092959890939650565b6004811061424257614241613b2f565b5b50565b5f81905061425282614231565b919050565b5f61426182614245565b9050919050565b61427181614257565b82525050565b61428081613c23565b82525050565b5f6080820190506142995f830187614268565b6142a66020830186614277565b81810360408301526142b88185613d81565b90506142c76060830184613b20565b95945050505050565b5f6020820190506142e35f830184614277565b92915050565b5f81905092915050565b5f6142fd82613d3f565b61430781856142e9565b9350614317818560208601613d59565b80840191505092915050565b5f61432e82846142f3565b915081905092915050565b7f5661756c7420696e636f727265637420737461747573000000000000000000005f82015250565b5f61436d601683613d49565b915061437882614339565b602082019050919050565b5f6020820190508181035f83015261439a81614361565b9050919050565b7f4163636f756e7420616c726561647920726567697374657265642e00000000005f82015250565b5f6143d5601b83613d49565b91506143e0826143a1565b602082019050919050565b5f6020820190508181035f830152614402816143c9565b9050919050565b7f4e487b71000000000000000000000000000000000000000000000000000000005f52601160045260245ffd5b5f61444082613dc8565b915061ffff820361445457614453614409565b5b600182019050919050565b7f4e487b71000000000000000000000000000000000000000000000000000000005f52602260045260245ffd5b5f60028204905060018216806144a357607f821691505b6020821081036144b6576144b561445f565b5b50919050565b5f819050815f5260205f209050919050565b5f6020601f8301049050919050565b5f82821b905092915050565b5f600883026145187fffffffffffffffffffffffffffffffffffffffffffffffffffffffffffffffff826144dd565b61452286836144dd565b95508019841693508086168417925050509392505050565b5f819050919050565b5f61455d61455861455384613b17565b61453a565b613b17565b9050919050565b5f819050919050565b61457683614543565b61458a61458282614564565b8484546144e9565b825550505050565b5f90565b61459e614592565b6145a981848461456d565b505050565b5b818110156145cc576145c15f82614596565b6001810190506145af565b5050565b601f821115614611576145e2816144bc565b6145eb846144ce565b810160208510156145fa578190505b61460e614606856144ce565b8301826145ae565b50505b505050565b5f82821c905092915050565b5f6146315f1984600802614616565b1980831691505092915050565b5f6146498383614622565b9150826002028217905092915050565b61466282613d3f565b67ffffffffffffffff81111561467b5761467a613911565b5b614685825461448c565b6146908282856145d0565b5f60209050601f8311600181146146c1575f84156146af578287015190505b6146b9858261463e565b865550614720565b601f1984166146cf866144bc565b5f5b828110156146f6578489015182556001820191506020850194506020810190506146d1565b86831015614713578489015161470f601f891682614622565b8355505b6001600288020188555050505b505050505050565b7f6163636f756e745f6f70656e00000000000000000000000000000000000000005f82015250565b5f61475c600c83613d49565b915061476782614728565b602082019050919050565b5f61478c61478761478284613dc8565b61453a565b613b17565b9050919050565b61479c81614772565b82525050565b5f6080820190508181035f8301526147b981614750565b905081810360208301526147cd8186613d81565b90506147dc6040830185613db9565b6147e96060830184614793565b949350505050565b7f4163636f756e74206e6f742062616e6e65642e000000000000000000000000005f82015250565b5f614825601383613d49565b9150614830826147f1565b602082019050919050565b5f6020820190508181035f83015261485281614819565b9050919050565b7f6163636f756e745f756e6c6f636b0000000000000000000000000000000000005f82015250565b5f61488d600e83613d49565b915061489882614859565b602082019050919050565b5f819050919050565b5f6148c66148c16148bc846148a3565b61453a565b613b17565b9050919050565b6148d6816148ac565b82525050565b5f6080820190508181035f8301526148f381614881565b905081810360208301526149078186613d81565b90506149166040830185613db9565b61492360608301846148cd565b949350505050565b7f5661756c7420696e204172626974726174696f6e0000000000000000000000005f82015250565b5f61495f601483613d49565b915061496a8261492b565b602082019050919050565b5f6020820190508181035f83015261498c81614953565b9050919050565b7f5769746864726177206e6f7420636f6e6669726d6564000000000000000000005f82015250565b5f6149c7601683613d49565b91506149d282614993565b602082019050919050565b5f6020820190508181035f8301526149f4816149bb565b9050919050565b5f614a0582613b17565b9150614a1083613b17565b9250828203905081811115614a2857614a27614409565b5b92915050565b7f77697468647261775f72656a65637400000000000000000000000000000000005f82015250565b5f614a62600f83613d49565b9150614a6d82614a2e565b602082019050919050565b5f6080820190508181035f830152614a8f81614a56565b90508181036020830152614aa38186613d81565b9050614ab26040830185613db9565b614abf6060830184613b20565b949350505050565b7f5369746520617574686f72697479206f6e6c792e0000000000000000000000005f82015250565b5f614afb601483613d49565b9150614b0682614ac7565b602082019050919050565b5f6020820190508181035f830152614b2881614aef565b9050919050565b7f5661756c7420696e206172626974726174696f6e2e00000000000000000000005f82015250565b5f614b63601583613d49565b9150614b6e82614b2f565b602082019050919050565b5f6020820190508181035f830152614b9081614b57565b9050919050565b7f4163636f756e74206e6f7420766f7465642e00000000000000000000000000005f82015250565b5f614bcb601283613d49565b9150614bd682614b97565b602082019050919050565b5f6020820190508181035f830152614bf881614bbf565b9050919050565b5f614c0982613dc8565b91505f8203614c1b57614c1a614409565b5b600182039050919050565b7f6172626974726174696f6e5f756e766f746500000000000000000000000000005f82015250565b5f614c5a601283613d49565b9150614c6582614c26565b602082019050919050565b5f6080820190508181035f830152614c8781614c4e565b90508181036020830152614c9b8186613d81565b9050614caa6040830185613db9565b614cb76060830184614793565b949350505050565b7f4e6f2073656c6620736572766963652e000000000000000000000000000000005f82015250565b5f614cf3601083613d49565b9150614cfe82614cbf565b602082019050919050565b5f6020820190508181035f830152614d2081614ce7565b9050919050565b7f4163636f756e74206e6f74206163746976652e000000000000000000000000005f82015250565b5f614d5b601383613d49565b9150614d6682614d27565b602082019050919050565b5f6020820190508181035f830152614d8881614d4f565b9050919050565b5f614d9982613b17565b9150614da483613b17565b9250828201905080821115614dbc57614dbb614409565b5b92915050565b5f606082019050614dd55f830186613db9565b614de26020830185613db9565b614def6040830184613b20565b949350505050565b7f6163636f756e745f6465706f73697400000000000000000000000000000000005f82015250565b5f614e2b600f83613d49565b9150614e3682614df7565b602082019050919050565b5f6080820190508181035f830152614e5881614e1f565b90508181036020830152614e6c8186613d81565b9050614e7b6040830185613db9565b614e886060830184613b20565b949350505050565b7f5769746864726177206e6f742070656e64696e670000000000000000000000005f82015250565b5f614ec4601483613d49565b9150614ecf82614e90565b602082019050919050565b5f6020820190508181035f830152614ef181614eb8565b9050919050565b7f576974686472617720616d6f756e7420696e636f7272656374000000000000005f82015250565b5f614f2c601983613d49565b9150614f3782614ef8565b602082019050919050565b5f6020820190508181035f830152614f5981614f20565b9050919050565b7f77697468647261775f636f6e6669726d5f7369746500000000000000000000005f82015250565b5f614f94601583613d49565b9150614f9f82614f60565b602082019050919050565b5f6080820190508181035f830152614fc181614f88565b90508181036020830152614fd58186613d81565b9050614fe46040830185613db9565b614ff16060830184613b20565b949350505050565b7f4163636f756e7420696e636f7272656374207374617475732e000000000000005f82015250565b5f61502d601983613d49565b915061503882614ff9565b602082019050919050565b5f6020820190508181035f83015261505a81615021565b9050919050565b7f6163636f756e745f6c6f636b00000000000000000000000000000000000000005f82015250565b5f615095600c83613d49565b91506150a082615061565b602082019050919050565b5f6080820190508181035f8301526150c281615089565b905081810360208301526150d68186613d81565b90506150e56040830185613db9565b6150f260608301846148cd565b949350505050565b7f4163636f756e74206172626974726174696f6e20766f7465642e0000000000005f82015250565b5f61512e601a83613d49565b9150615139826150fa565b602082019050919050565b5f6020820190508181035f83015261515b81615122565b9050919050565b5f61516c82613dc8565b915061517783613dc8565b925082820261518581613dc8565b915080821461519757615196614409565b5b5092915050565b7f4e487b71000000000000000000000000000000000000000000000000000000005f52601260045260245ffd5b5f6151d582613dc8565b91506151e083613dc8565b9250826151f0576151ef61519e565b5b828204905092915050565b7f6172626974726174696f6e5f766f7465000000000000000000000000000000005f82015250565b5f61522f601083613d49565b915061523a826151fb565b602082019050919050565b5f6080820190508181035f83015261525c81615223565b905081810360208301526152708186613d81565b905061527f6040830185613db9565b61528c6060830184614793565b949350505050565b7f5769746864726177206e6f7420616c6c6f7765642e00000000000000000000005f82015250565b5f6152c8601583613d49565b91506152d382615294565b602082019050919050565b5f6020820190508181035f8301526152f5816152bc565b9050919050565b7f576974686472617720616c7265616479207265717565737465642e00000000005f82015250565b5f615330601b83613d49565b915061533b826152fc565b602082019050919050565b5f6020820190508181035f83015261535d81615324565b9050919050565b7f576974686472617720616d6f756e742062656c6f77206d696e696d756d2e00005f82015250565b5f615398601e83613d49565b91506153a382615364565b602082019050919050565b5f6020820190508181035f8301526153c58161538c565b9050919050565b7f576974686472617720616d6f756e742061626f7665206d6178696d756d0000005f82015250565b5f615400601d83613d49565b915061540b826153cc565b602082019050919050565b5f6020820190508181035f83015261542d816153f4565b9050919050565b7f5769746864726177206f76657220706f6f6c206c696d69742e000000000000005f82015250565b5f615468601983613d49565b915061547382615434565b602082019050919050565b5f6020820190508181035f8301526154958161545c565b9050919050565b7f77697468647261775f72657175657374000000000000000000000000000000005f82015250565b5f6154d0601083613d49565b91506154db8261549c565b602082019050919050565b5f6080820190508181035f8301526154fd816154c4565b905081810360208301526155118186613d81565b90506155206040830185613db9565b61552d6060830184613b20565b949350505050565b7f5661756c7420616c7265616479206578697374732e00000000000000000000005f82015250565b5f615569601583613d49565b915061557482615535565b602082019050919050565b5f6020820190508181035f8301526155968161555d565b9050919050565b7f7661756c745f63726561746500000000000000000000000000000000000000005f82015250565b5f6155d1600c83613d49565b91506155dc8261559d565b602082019050919050565b5f6080820190508181035f8301526155fe816155c5565b905081810360208301526156128186613d81565b90506156216040830185613db9565b61562e60608301846148cd565b949350505050565b7f77697468647261775f72656a6563745f736974650000000000000000000000005f82015250565b5f61566a601483613d49565b915061567582615636565b602082019050919050565b5f6080820190508181035f8301526156978161565e565b905081810360208301526156ab8186613d81565b90506156ba6040830185613db9565b6156c76060830184613b20565b949350505050565b7f6163636f756e745f6f70656e5f636f6e6669726d0000000000000000000000005f82015250565b5f615703601483613d49565b915061570e826156cf565b602082019050919050565b5f6080820190508181035f830152615730816156f7565b905081810360208301526157448186613d81565b90506157536040830185613db9565b61576060608301846148cd565b949350505050565b7f6163636f756e745f636c6f7365000000000000000000000000000000000000005f82015250565b5f61579c600d83613d49565b91506157a782615768565b602082019050919050565b5f6080820190508181035f8301526157c981615790565b905081810360208301526157dd8186613d81565b90506157ec6040830185613db9565b6157f96060830184614793565b949350505050565b7f536974652061646d696e206f6e6c792e000000000000000000000000000000005f82015250565b5f615835601083613d49565b915061584082615801565b602082019050919050565b5f6020820190508181035f83015261586281615829565b9050919050565b7f5661756c74206f776e6572206f6e6c792e0000000000000000000000000000005f82015250565b5f61589d601183613d49565b91506158a882615869565b602082019050919050565b5f6020820190508181035f8301526158ca81615891565b9050919050565b7f55736572206e6f7420666f756e642e00000000000000000000000000000000005f82015250565b5f615905600f83613d49565b9150615910826158d1565b602082019050919050565b5f6020820190508181035f830152615932816158f9565b9050919050565b5f61594382613b17565b915061594e83613b17565b925082820261595c81613b17565b9150828204841483151761597357615972614409565b5b5092915050565b5f61598482613b17565b915061598f83613b17565b92508261599f5761599e61519e565b5b828204905092915050565b5f6040820190506159bd5f830185613db9565b6159ca6020830184613b20565b9392505050565b5f815190506159df81613c2e565b92915050565b5f602082840312156159fa576159f96138f1565b5b5f615a07848285016159d1565b91505092915050565b7f77697468647261775f7472616e736665720000000000000000000000000000005f82015250565b5f615a44601183613d49565b9150615a4f82615a10565b602082019050919050565b5f6080820190508181035f830152615a7181615a38565b90508181036020830152615a858186613d81565b9050615a946040830185613db9565b615aa16060830184613b20565b949350505050565b7f52657175657374206e6f7420666f756e642e00000000000000000000000000005f82015250565b5f615add601283613d49565b9150615ae882615aa9565b602082019050919050565b5f6020820190508181035f830152615b0a81615ad1565b9050919050565b7f5661756c74206d616e6167656d656e74206f6e6c792e000000000000000000005f82015250565b5f615b45601683613d49565b9150615b5082615b11565b602082019050919050565b5f6020820190508181035f830152615b7281615b39565b905091905056fea26469706673582212200307046941a1da36d7e6bcaaf5059a46693e653706c8d9c8793a05f3a9b8948e64736f6c63430008140033",
      "linkReferences": {},
      "opcodes": "PUSH1 0x80 PUSH1 0x40 MSTORE CALLVALUE DUP1 ISZERO PUSH3 0x10 JUMPI PUSH0 DUP1 REVERT JUMPDEST POP PUSH1 0x40 MLOAD PUSH3 0x5CC5 CODESIZE SUB DUP1 PUSH3 0x5CC5 DUP4 CODECOPY DUP2 DUP2 ADD PUSH1 0x40 MSTORE DUP2 ADD SWAP1 PUSH3 0x36 SWAP2 SWAP1 PUSH3 0xD8 JUMP JUMPDEST CALLER PUSH0 DUP1 PUSH2 0x100 EXP DUP2 SLOAD DUP2 PUSH20 0xFFFFFFFFFFFFFFFFFFFFFFFFFFFFFFFFFFFFFFFF MUL NOT AND SWAP1 DUP4 PUSH20 0xFFFFFFFFFFFFFFFFFFFFFFFFFFFFFFFFFFFFFFFF AND MUL OR SWAP1 SSTORE POP DUP1 PUSH1 0x2 PUSH0 PUSH2 0x100 EXP DUP2 SLOAD DUP2 PUSH2 0xFFFF MUL NOT AND SWAP1 DUP4 PUSH2 0xFFFF AND MUL OR SWAP1 SSTORE POP POP PUSH3 0x108 JUMP JUMPDEST PUSH0 DUP1 REVERT JUMPDEST PUSH0 PUSH2 0xFFFF DUP3 AND SWAP1 POP SWAP2 SWAP1 POP JUMP JUMPDEST PUSH3 0xB4 DUP2 PUSH3 0x9C JUMP JUMPDEST DUP2 EQ PUSH3 0xBF JUMPI PUSH0 DUP1 REVERT JUMPDEST POP JUMP JUMPDEST PUSH0 DUP2 MLOAD SWAP1 POP PUSH3 0xD2 DUP2 PUSH3 0xA9 JUMP JUMPDEST SWAP3 SWAP2 POP POP JUMP JUMPDEST PUSH0 PUSH1 0x20 DUP3 DUP5 SUB SLT ISZERO PUSH3 0xF0 JUMPI PUSH3 0xEF PUSH3 0x98 JUMP JUMPDEST JUMPDEST PUSH0 PUSH3 0xFF DUP5 DUP3 DUP6 ADD PUSH3 0xC2 JUMP JUMPDEST SWAP2 POP POP SWAP3 SWAP2 POP POP JUMP JUMPDEST PUSH2 0x5BAF DUP1 PUSH3 0x116 PUSH0 CODECOPY PUSH0 RETURN INVALID PUSH1 0x80 PUSH1 0x40 MSTORE CALLVALUE DUP1 ISZERO PUSH2 0xF JUMPI PUSH0 DUP1 REVERT JUMPDEST POP PUSH1 0x4 CALLDATASIZE LT PUSH2 0x18B JUMPI PUSH0 CALLDATALOAD PUSH1 0xE0 SHR DUP1 PUSH4 0xA49D8533 GT PUSH2 0xDC JUMPI DUP1 PUSH4 0xE3465D7A GT PUSH2 0x95 JUMPI DUP1 PUSH4 0xF0657582 GT PUSH2 0x6F JUMPI DUP1 PUSH4 0xF0657582 EQ PUSH2 0x446 JUMPI DUP1 PUSH4 0xF2A9392D EQ PUSH2 0x464 JUMPI DUP1 PUSH4 0xF31300B4 EQ PUSH2 0x480 JUMPI DUP1 PUSH4 0xFCB74BF3 EQ PUSH2 0x4B0 JUMPI PUSH2 0x18B JUMP JUMPDEST DUP1 PUSH4 0xE3465D7A EQ PUSH2 0x3F2 JUMPI DUP1 PUSH4 0xE463D44B EQ PUSH2 0x40E JUMPI DUP1 PUSH4 0xE480AD83 EQ PUSH2 0x42A JUMPI PUSH2 0x18B JUMP JUMPDEST DUP1 PUSH4 0xA49D8533 EQ PUSH2 0x331 JUMPI DUP1 PUSH4 0xAFB0ECA9 EQ PUSH2 0x34F JUMPI DUP1 PUSH4 0xB96161E3 EQ PUSH2 0x36B JUMPI DUP1 PUSH4 0xBE922BCA EQ PUSH2 0x387 JUMPI DUP1 PUSH4 0xDAED6CA2 EQ PUSH2 0x3A3 JUMPI DUP1 PUSH4 0xE29EBBFB EQ PUSH2 0x3BF JUMPI PUSH2 0x18B JUMP JUMPDEST DUP1 PUSH4 0x36FCEB3E GT PUSH2 0x149 JUMPI DUP1 PUSH4 0x47D733CE GT PUSH2 0x123 JUMPI DUP1 PUSH4 0x47D733CE EQ PUSH2 0x2BF JUMPI DUP1 PUSH4 0x4E71C49A EQ PUSH2 0x2DB JUMPI DUP1 PUSH4 0x4FC538FD EQ PUSH2 0x2F7 JUMPI DUP1 PUSH4 0x95875A68 EQ PUSH2 0x313 JUMPI PUSH2 0x18B JUMP JUMPDEST DUP1 PUSH4 0x36FCEB3E EQ PUSH2 0x26B JUMPI DUP1 PUSH4 0x39BECBBE EQ PUSH2 0x287 JUMPI DUP1 PUSH4 0x3E1C1EA8 EQ PUSH2 0x2A3 JUMPI PUSH2 0x18B JUMP JUMPDEST DUP1 PUSH3 0x1B3212 EQ PUSH2 0x18F JUMPI DUP1 PUSH4 0x49FDE97 EQ PUSH2 0x1C0 JUMPI DUP1 PUSH4 0x136A899E EQ PUSH2 0x1DC JUMPI DUP1 PUSH4 0x18BB8952 EQ PUSH2 0x1F8 JUMPI DUP1 PUSH4 0x1A88D046 EQ PUSH2 0x214 JUMPI DUP1 PUSH4 0x3665631A EQ PUSH2 0x24F JUMPI JUMPDEST PUSH0 DUP1 REVERT JUMPDEST PUSH2 0x1A9 PUSH1 0x4 DUP1 CALLDATASIZE SUB DUP2 ADD SWAP1 PUSH2 0x1A4 SWAP2 SWAP1 PUSH2 0x3A8F JUMP JUMPDEST PUSH2 0x4CC JUMP JUMPDEST PUSH1 0x40 MLOAD PUSH2 0x1B7 SWAP3 SWAP2 SWAP1 PUSH2 0x3BA2 JUMP JUMPDEST PUSH1 0x40 MLOAD DUP1 SWAP2 SUB SWAP1 RETURN JUMPDEST PUSH2 0x1DA PUSH1 0x4 DUP1 CALLDATASIZE SUB DUP2 ADD SWAP1 PUSH2 0x1D5 SWAP2 SWAP1 PUSH2 0x3BC9 JUMP JUMPDEST PUSH2 0x53E JUMP JUMPDEST STOP JUMPDEST PUSH2 0x1F6 PUSH1 0x4 DUP1 CALLDATASIZE SUB DUP2 ADD SWAP1 PUSH2 0x1F1 SWAP2 SWAP1 PUSH2 0x3BC9 JUMP JUMPDEST PUSH2 0x8A9 JUMP JUMPDEST STOP JUMPDEST PUSH2 0x212 PUSH1 0x4 DUP1 CALLDATASIZE SUB DUP2 ADD SWAP1 PUSH2 0x20D SWAP2 SWAP1 PUSH2 0x3C58 JUMP JUMPDEST PUSH2 0x9EC JUMP JUMPDEST STOP JUMPDEST PUSH2 0x22E PUSH1 0x4 DUP1 CALLDATASIZE SUB DUP2 ADD SWAP1 PUSH2 0x229 SWAP2 SWAP1 PUSH2 0x3CB2 JUMP JUMPDEST PUSH2 0xAE1 JUMP JUMPDEST PUSH1 0x40 MLOAD PUSH2 0x246 SWAP13 SWAP12 SWAP11 SWAP10 SWAP9 SWAP8 SWAP7 SWAP6 SWAP5 SWAP4 SWAP3 SWAP2 SWAP1 PUSH2 0x3DE4 JUMP JUMPDEST PUSH1 0x40 MLOAD DUP1 SWAP2 SUB SWAP1 RETURN JUMPDEST PUSH2 0x269 PUSH1 0x4 DUP1 CALLDATASIZE SUB DUP2 ADD SWAP1 PUSH2 0x264 SWAP2 SWAP1 PUSH2 0x3A8F JUMP JUMPDEST PUSH2 0xC4E JUMP JUMPDEST STOP JUMPDEST PUSH2 0x285 PUSH1 0x4 DUP1 CALLDATASIZE SUB DUP2 ADD SWAP1 PUSH2 0x280 SWAP2 SWAP1 PUSH2 0x3EA3 JUMP JUMPDEST PUSH2 0xEA7 JUMP JUMPDEST STOP JUMPDEST PUSH2 0x2A1 PUSH1 0x4 DUP1 CALLDATASIZE SUB DUP2 ADD SWAP1 PUSH2 0x29C SWAP2 SWAP1 PUSH2 0x3EA3 JUMP JUMPDEST PUSH2 0xF8B JUMP JUMPDEST STOP JUMPDEST PUSH2 0x2BD PUSH1 0x4 DUP1 CALLDATASIZE SUB DUP2 ADD SWAP1 PUSH2 0x2B8 SWAP2 SWAP1 PUSH2 0x3CB2 JUMP JUMPDEST PUSH2 0x105A JUMP JUMPDEST STOP JUMPDEST PUSH2 0x2D9 PUSH1 0x4 DUP1 CALLDATASIZE SUB DUP2 ADD SWAP1 PUSH2 0x2D4 SWAP2 SWAP1 PUSH2 0x3ECE JUMP JUMPDEST PUSH2 0x123F JUMP JUMPDEST STOP JUMPDEST PUSH2 0x2F5 PUSH1 0x4 DUP1 CALLDATASIZE SUB DUP2 ADD SWAP1 PUSH2 0x2F0 SWAP2 SWAP1 PUSH2 0x3F6E JUMP JUMPDEST PUSH2 0x1416 JUMP JUMPDEST STOP JUMPDEST PUSH2 0x311 PUSH1 0x4 DUP1 CALLDATASIZE SUB DUP2 ADD SWAP1 PUSH2 0x30C SWAP2 SWAP1 PUSH2 0x3FC8 JUMP JUMPDEST PUSH2 0x15B3 JUMP JUMPDEST STOP JUMPDEST PUSH2 0x31B PUSH2 0x175C JUMP JUMPDEST PUSH1 0x40 MLOAD PUSH2 0x328 SWAP2 SWAP1 PUSH2 0x4064 JUMP JUMPDEST PUSH1 0x40 MLOAD DUP1 SWAP2 SUB SWAP1 RETURN JUMPDEST PUSH2 0x339 PUSH2 0x177F JUMP JUMPDEST PUSH1 0x40 MLOAD PUSH2 0x346 SWAP2 SWAP1 PUSH2 0x407D JUMP JUMPDEST PUSH1 0x40 MLOAD DUP1 SWAP2 SUB SWAP1 RETURN JUMPDEST PUSH2 0x369 PUSH1 0x4 DUP1 CALLDATASIZE SUB DUP2 ADD SWAP1 PUSH2 0x364 SWAP2 SWAP1 PUSH2 0x3BC9 JUMP JUMPDEST PUSH2 0x1791 JUMP JUMPDEST STOP JUMPDEST PUSH2 0x385 PUSH1 0x4 DUP1 CALLDATASIZE SUB DUP2 ADD SWAP1 PUSH2 0x380 SWAP2 SWAP1 PUSH2 0x3CB2 JUMP JUMPDEST PUSH2 0x18D5 JUMP JUMPDEST STOP JUMPDEST PUSH2 0x3A1 PUSH1 0x4 DUP1 CALLDATASIZE SUB DUP2 ADD SWAP1 PUSH2 0x39C SWAP2 SWAP1 PUSH2 0x4096 JUMP JUMPDEST PUSH2 0x1AF3 JUMP JUMPDEST STOP JUMPDEST PUSH2 0x3BD PUSH1 0x4 DUP1 CALLDATASIZE SUB DUP2 ADD SWAP1 PUSH2 0x3B8 SWAP2 SWAP1 PUSH2 0x4148 JUMP JUMPDEST PUSH2 0x2261 JUMP JUMPDEST STOP JUMPDEST PUSH2 0x3D9 PUSH1 0x4 DUP1 CALLDATASIZE SUB DUP2 ADD SWAP1 PUSH2 0x3D4 SWAP2 SWAP1 PUSH2 0x3BC9 JUMP JUMPDEST PUSH2 0x25A6 JUMP JUMPDEST PUSH1 0x40 MLOAD PUSH2 0x3E9 SWAP5 SWAP4 SWAP3 SWAP2 SWAP1 PUSH2 0x4286 JUMP JUMPDEST PUSH1 0x40 MLOAD DUP1 SWAP2 SUB SWAP1 RETURN JUMPDEST PUSH2 0x40C PUSH1 0x4 DUP1 CALLDATASIZE SUB DUP2 ADD SWAP1 PUSH2 0x407 SWAP2 SWAP1 PUSH2 0x3FC8 JUMP JUMPDEST PUSH2 0x2693 JUMP JUMPDEST STOP JUMPDEST PUSH2 0x428 PUSH1 0x4 DUP1 CALLDATASIZE SUB DUP2 ADD SWAP1 PUSH2 0x423 SWAP2 SWAP1 PUSH2 0x3A8F JUMP JUMPDEST PUSH2 0x2827 JUMP JUMPDEST STOP JUMPDEST PUSH2 0x444 PUSH1 0x4 DUP1 CALLDATASIZE SUB DUP2 ADD SWAP1 PUSH2 0x43F SWAP2 SWAP1 PUSH2 0x3BC9 JUMP JUMPDEST PUSH2 0x29C7 JUMP JUMPDEST STOP JUMPDEST PUSH2 0x44E PUSH2 0x2B0B JUMP JUMPDEST PUSH1 0x40 MLOAD PUSH2 0x45B SWAP2 SWAP1 PUSH2 0x407D JUMP JUMPDEST PUSH1 0x40 MLOAD DUP1 SWAP2 SUB SWAP1 RETURN JUMPDEST PUSH2 0x47E PUSH1 0x4 DUP1 CALLDATASIZE SUB DUP2 ADD SWAP1 PUSH2 0x479 SWAP2 SWAP1 PUSH2 0x3BC9 JUMP JUMPDEST PUSH2 0x2B1E JUMP JUMPDEST STOP JUMPDEST PUSH2 0x49A PUSH1 0x4 DUP1 CALLDATASIZE SUB DUP2 ADD SWAP1 PUSH2 0x495 SWAP2 SWAP1 PUSH2 0x3EA3 JUMP JUMPDEST PUSH2 0x2CFE JUMP JUMPDEST PUSH1 0x40 MLOAD PUSH2 0x4A7 SWAP2 SWAP1 PUSH2 0x42D0 JUMP JUMPDEST PUSH1 0x40 MLOAD DUP1 SWAP2 SUB SWAP1 RETURN JUMPDEST PUSH2 0x4CA PUSH1 0x4 DUP1 CALLDATASIZE SUB DUP2 ADD SWAP1 PUSH2 0x4C5 SWAP2 SWAP1 PUSH2 0x3EA3 JUMP JUMPDEST PUSH2 0x2D1B JUMP JUMPDEST STOP JUMPDEST PUSH1 0x5 DUP4 DUP1 MLOAD PUSH1 0x20 DUP2 ADD DUP3 ADD DUP1 MLOAD DUP5 DUP3 MSTORE PUSH1 0x20 DUP4 ADD PUSH1 0x20 DUP6 ADD KECCAK256 DUP2 DUP4 MSTORE DUP1 SWAP6 POP POP POP POP POP POP PUSH1 0x20 MSTORE DUP2 PUSH0 MSTORE PUSH1 0x40 PUSH0 KECCAK256 DUP2 DUP1 MLOAD PUSH1 0x20 DUP2 ADD DUP3 ADD DUP1 MLOAD DUP5 DUP3 MSTORE PUSH1 0x20 DUP4 ADD PUSH1 0x20 DUP6 ADD KECCAK256 DUP2 DUP4 MSTORE DUP1 SWAP6 POP POP POP POP POP POP PUSH0 SWAP3 POP SWAP3 POP POP POP DUP1 PUSH0 ADD SLOAD SWAP1 DUP1 PUSH1 0x1 ADD PUSH0 SWAP1 SLOAD SWAP1 PUSH2 0x100 EXP SWAP1 DIV PUSH1 0xFF AND SWAP1 POP DUP3 JUMP JUMPDEST PUSH2 0x547 CALLER PUSH2 0x2D73 JUMP JUMPDEST PUSH1 0x1 PUSH1 0x3 DUP2 GT ISZERO PUSH2 0x55B JUMPI PUSH2 0x55A PUSH2 0x3B2F JUMP JUMPDEST JUMPDEST PUSH1 0x3 DUP4 PUSH1 0x40 MLOAD PUSH2 0x56B SWAP2 SWAP1 PUSH2 0x4323 JUMP JUMPDEST SWAP1 DUP2 MSTORE PUSH1 0x20 ADD PUSH1 0x40 MLOAD DUP1 SWAP2 SUB SWAP1 KECCAK256 PUSH0 ADD PUSH0 SWAP1 SLOAD SWAP1 PUSH2 0x100 EXP SWAP1 DIV PUSH1 0xFF AND PUSH1 0x3 DUP2 GT ISZERO PUSH2 0x59A JUMPI PUSH2 0x599 PUSH2 0x3B2F JUMP JUMPDEST JUMPDEST EQ DUP1 PUSH2 0x5F6 JUMPI POP PUSH1 0x2 PUSH1 0x3 DUP2 GT ISZERO PUSH2 0x5B5 JUMPI PUSH2 0x5B4 PUSH2 0x3B2F JUMP JUMPDEST JUMPDEST PUSH1 0x3 DUP4 PUSH1 0x40 MLOAD PUSH2 0x5C5 SWAP2 SWAP1 PUSH2 0x4323 JUMP JUMPDEST SWAP1 DUP2 MSTORE PUSH1 0x20 ADD PUSH1 0x40 MLOAD DUP1 SWAP2 SUB SWAP1 KECCAK256 PUSH0 ADD PUSH0 SWAP1 SLOAD SWAP1 PUSH2 0x100 EXP SWAP1 DIV PUSH1 0xFF AND PUSH1 0x3 DUP2 GT ISZERO PUSH2 0x5F4 JUMPI PUSH2 0x5F3 PUSH2 0x3B2F JUMP JUMPDEST JUMPDEST EQ JUMPDEST PUSH2 0x635 JUMPI PUSH1 0x40 MLOAD PUSH32 0x8C379A000000000000000000000000000000000000000000000000000000000 DUP2 MSTORE PUSH1 0x4 ADD PUSH2 0x62C SWAP1 PUSH2 0x4383 JUMP JUMPDEST PUSH1 0x40 MLOAD DUP1 SWAP2 SUB SWAP1 REVERT JUMPDEST PUSH0 PUSH1 0x3 DUP2 GT ISZERO PUSH2 0x648 JUMPI PUSH2 0x647 PUSH2 0x3B2F JUMP JUMPDEST JUMPDEST PUSH1 0x4 DUP4 PUSH1 0x40 MLOAD PUSH2 0x658 SWAP2 SWAP1 PUSH2 0x4323 JUMP JUMPDEST SWAP1 DUP2 MSTORE PUSH1 0x20 ADD PUSH1 0x40 MLOAD DUP1 SWAP2 SUB SWAP1 KECCAK256 PUSH0 DUP4 PUSH20 0xFFFFFFFFFFFFFFFFFFFFFFFFFFFFFFFFFFFFFFFF AND PUSH20 0xFFFFFFFFFFFFFFFFFFFFFFFFFFFFFFFFFFFFFFFF AND DUP2 MSTORE PUSH1 0x20 ADD SWAP1 DUP2 MSTORE PUSH1 0x20 ADD PUSH0 KECCAK256 PUSH0 ADD PUSH0 SWAP1 SLOAD SWAP1 PUSH2 0x100 EXP SWAP1 DIV PUSH1 0xFF AND PUSH1 0x3 DUP2 GT ISZERO PUSH2 0x6C2 JUMPI PUSH2 0x6C1 PUSH2 0x3B2F JUMP JUMPDEST JUMPDEST EQ PUSH2 0x702 JUMPI PUSH1 0x40 MLOAD PUSH32 0x8C379A000000000000000000000000000000000000000000000000000000000 DUP2 MSTORE PUSH1 0x4 ADD PUSH2 0x6F9 SWAP1 PUSH2 0x43EB JUMP JUMPDEST PUSH1 0x40 MLOAD DUP1 SWAP2 SUB SWAP1 REVERT JUMPDEST PUSH0 PUSH1 0x40 MLOAD DUP1 PUSH1 0x80 ADD PUSH1 0x40 MSTORE DUP1 PUSH1 0x1 PUSH1 0x3 DUP2 GT ISZERO PUSH2 0x722 JUMPI PUSH2 0x721 PUSH2 0x3B2F JUMP JUMPDEST JUMPDEST DUP2 MSTORE PUSH1 0x20 ADD PUSH0 ISZERO ISZERO DUP2 MSTORE PUSH1 0x20 ADD PUSH1 0x40 MLOAD DUP1 PUSH1 0x20 ADD PUSH1 0x40 MSTORE DUP1 PUSH0 DUP2 MSTORE POP DUP2 MSTORE PUSH1 0x20 ADD PUSH0 DUP2 MSTORE POP SWAP1 POP PUSH0 PUSH1 0x3 DUP5 PUSH1 0x40 MLOAD PUSH2 0x75A SWAP2 SWAP1 PUSH2 0x4323 JUMP JUMPDEST SWAP1 DUP2 MSTORE PUSH1 0x20 ADD PUSH1 0x40 MLOAD DUP1 SWAP2 SUB SWAP1 KECCAK256 PUSH1 0x5 ADD PUSH0 DUP2 DUP2 SWAP1 SLOAD SWAP1 PUSH2 0x100 EXP SWAP1 DIV PUSH2 0xFFFF AND PUSH2 0x784 SWAP1 PUSH2 0x4436 JUMP JUMPDEST SWAP2 SWAP1 PUSH2 0x100 EXP DUP2 SLOAD DUP2 PUSH2 0xFFFF MUL NOT AND SWAP1 DUP4 PUSH2 0xFFFF AND MUL OR SWAP1 SSTORE SWAP1 POP DUP2 PUSH1 0x4 DUP6 PUSH1 0x40 MLOAD PUSH2 0x7B0 SWAP2 SWAP1 PUSH2 0x4323 JUMP JUMPDEST SWAP1 DUP2 MSTORE PUSH1 0x20 ADD PUSH1 0x40 MLOAD DUP1 SWAP2 SUB SWAP1 KECCAK256 PUSH0 DUP6 PUSH20 0xFFFFFFFFFFFFFFFFFFFFFFFFFFFFFFFFFFFFFFFF AND PUSH20 0xFFFFFFFFFFFFFFFFFFFFFFFFFFFFFFFFFFFFFFFF AND DUP2 MSTORE PUSH1 0x20 ADD SWAP1 DUP2 MSTORE PUSH1 0x20 ADD PUSH0 KECCAK256 PUSH0 DUP3 ADD MLOAD DUP2 PUSH0 ADD PUSH0 PUSH2 0x100 EXP DUP2 SLOAD DUP2 PUSH1 0xFF MUL NOT AND SWAP1 DUP4 PUSH1 0x3 DUP2 GT ISZERO PUSH2 0x821 JUMPI PUSH2 0x820 PUSH2 0x3B2F JUMP JUMPDEST JUMPDEST MUL OR SWAP1 SSTORE POP PUSH1 0x20 DUP3 ADD MLOAD DUP2 PUSH0 ADD PUSH1 0x1 PUSH2 0x100 EXP DUP2 SLOAD DUP2 PUSH1 0xFF MUL NOT AND SWAP1 DUP4 ISZERO ISZERO MUL OR SWAP1 SSTORE POP PUSH1 0x40 DUP3 ADD MLOAD DUP2 PUSH1 0x1 ADD SWAP1 DUP2 PUSH2 0x85A SWAP2 SWAP1 PUSH2 0x4659 JUMP JUMPDEST POP PUSH1 0x60 DUP3 ADD MLOAD DUP2 PUSH1 0x2 ADD SSTORE SWAP1 POP POP PUSH32 0x40768EE67403A1B2C45E2EE8E9C7CB4283D12BD31F8126DE25122997535C1BB DUP5 DUP5 DUP4 PUSH1 0x40 MLOAD PUSH2 0x89B SWAP4 SWAP3 SWAP2 SWAP1 PUSH2 0x47A2 JUMP JUMPDEST PUSH1 0x40 MLOAD DUP1 SWAP2 SUB SWAP1 LOG1 POP POP POP POP JUMP JUMPDEST PUSH2 0x8B3 DUP3 CALLER PUSH2 0x2E54 JUMP JUMPDEST PUSH0 PUSH2 0x8BE DUP4 DUP4 PUSH2 0x2F98 JUMP JUMPDEST SWAP1 POP PUSH1 0x3 DUP1 DUP2 GT ISZERO PUSH2 0x8D3 JUMPI PUSH2 0x8D2 PUSH2 0x3B2F JUMP JUMPDEST JUMPDEST DUP2 PUSH0 ADD MLOAD PUSH1 0x3 DUP2 GT ISZERO PUSH2 0x8E9 JUMPI PUSH2 0x8E8 PUSH2 0x3B2F JUMP JUMPDEST JUMPDEST EQ PUSH2 0x929 JUMPI PUSH1 0x40 MLOAD PUSH32 0x8C379A000000000000000000000000000000000000000000000000000000000 DUP2 MSTORE PUSH1 0x4 ADD PUSH2 0x920 SWAP1 PUSH2 0x483B JUMP JUMPDEST PUSH1 0x40 MLOAD DUP1 SWAP2 SUB SWAP1 REVERT JUMPDEST PUSH1 0x2 PUSH1 0x4 DUP5 PUSH1 0x40 MLOAD PUSH2 0x93B SWAP2 SWAP1 PUSH2 0x4323 JUMP JUMPDEST SWAP1 DUP2 MSTORE PUSH1 0x20 ADD PUSH1 0x40 MLOAD DUP1 SWAP2 SUB SWAP1 KECCAK256 PUSH0 DUP5 PUSH20 0xFFFFFFFFFFFFFFFFFFFFFFFFFFFFFFFFFFFFFFFF AND PUSH20 0xFFFFFFFFFFFFFFFFFFFFFFFFFFFFFFFFFFFFFFFF AND DUP2 MSTORE PUSH1 0x20 ADD SWAP1 DUP2 MSTORE PUSH1 0x20 ADD PUSH0 KECCAK256 PUSH0 ADD PUSH0 PUSH2 0x100 EXP DUP2 SLOAD DUP2 PUSH1 0xFF MUL NOT AND SWAP1 DUP4 PUSH1 0x3 DUP2 GT ISZERO PUSH2 0x9A7 JUMPI PUSH2 0x9A6 PUSH2 0x3B2F JUMP JUMPDEST JUMPDEST MUL OR SWAP1 SSTORE POP PUSH32 0x40768EE67403A1B2C45E2EE8E9C7CB4283D12BD31F8126DE25122997535C1BB DUP4 DUP4 PUSH0 PUSH1 0x40 MLOAD PUSH2 0x9DF SWAP4 SWAP3 SWAP2 SWAP1 PUSH2 0x48DC JUMP JUMPDEST PUSH1 0x40 MLOAD DUP1 SWAP2 SUB SWAP1 LOG1 POP POP POP JUMP JUMPDEST PUSH2 0x9F6 DUP3 CALLER PUSH2 0x2E54 JUMP JUMPDEST PUSH1 0x3 DUP1 DUP2 GT ISZERO PUSH2 0xA09 JUMPI PUSH2 0xA08 PUSH2 0x3B2F JUMP JUMPDEST JUMPDEST PUSH1 0x3 DUP4 PUSH1 0x40 MLOAD PUSH2 0xA19 SWAP2 SWAP1 PUSH2 0x4323 JUMP JUMPDEST SWAP1 DUP2 MSTORE PUSH1 0x20 ADD PUSH1 0x40 MLOAD DUP1 SWAP2 SUB SWAP1 KECCAK256 PUSH0 ADD PUSH0 SWAP1 SLOAD SWAP1 PUSH2 0x100 EXP SWAP1 DIV PUSH1 0xFF AND PUSH1 0x3 DUP2 GT ISZERO PUSH2 0xA48 JUMPI PUSH2 0xA47 PUSH2 0x3B2F JUMP JUMPDEST JUMPDEST SUB PUSH2 0xA88 JUMPI PUSH1 0x40 MLOAD PUSH32 0x8C379A000000000000000000000000000000000000000000000000000000000 DUP2 MSTORE PUSH1 0x4 ADD PUSH2 0xA7F SWAP1 PUSH2 0x4975 JUMP JUMPDEST PUSH1 0x40 MLOAD DUP1 SWAP2 SUB SWAP1 REVERT JUMPDEST DUP1 PUSH2 0xA94 JUMPI PUSH1 0x1 PUSH2 0xA97 JUMP JUMPDEST PUSH1 0x2 JUMPDEST PUSH1 0x3 DUP4 PUSH1 0x40 MLOAD PUSH2 0xAA7 SWAP2 SWAP1 PUSH2 0x4323 JUMP JUMPDEST SWAP1 DUP2 MSTORE PUSH1 0x20 ADD PUSH1 0x40 MLOAD DUP1 SWAP2 SUB SWAP1 KECCAK256 PUSH0 ADD PUSH0 PUSH2 0x100 EXP DUP2 SLOAD DUP2 PUSH1 0xFF MUL NOT AND SWAP1 DUP4 PUSH1 0x3 DUP2 GT ISZERO PUSH2 0xAD8 JUMPI PUSH2 0xAD7 PUSH2 0x3B2F JUMP JUMPDEST JUMPDEST MUL OR SWAP1 SSTORE POP POP POP JUMP JUMPDEST PUSH1 0x3 DUP2 DUP1 MLOAD PUSH1 0x20 DUP2 ADD DUP3 ADD DUP1 MLOAD DUP5 DUP3 MSTORE PUSH1 0x20 DUP4 ADD PUSH1 0x20 DUP6 ADD KECCAK256 DUP2 DUP4 MSTORE DUP1 SWAP6 POP POP POP POP POP POP PUSH0 SWAP2 POP SWAP1 POP DUP1 PUSH0 ADD PUSH0 SWAP1 SLOAD SWAP1 PUSH2 0x100 EXP SWAP1 DIV PUSH1 0xFF AND SWAP1 DUP1 PUSH1 0x1 ADD DUP1 SLOAD PUSH2 0xB2A SWAP1 PUSH2 0x448C JUMP JUMPDEST DUP1 PUSH1 0x1F ADD PUSH1 0x20 DUP1 SWAP2 DIV MUL PUSH1 0x20 ADD PUSH1 0x40 MLOAD SWAP1 DUP2 ADD PUSH1 0x40 MSTORE DUP1 SWAP3 SWAP2 SWAP1 DUP2 DUP2 MSTORE PUSH1 0x20 ADD DUP3 DUP1 SLOAD PUSH2 0xB56 SWAP1 PUSH2 0x448C JUMP JUMPDEST DUP1 ISZERO PUSH2 0xBA1 JUMPI DUP1 PUSH1 0x1F LT PUSH2 0xB78 JUMPI PUSH2 0x100 DUP1 DUP4 SLOAD DIV MUL DUP4 MSTORE SWAP2 PUSH1 0x20 ADD SWAP2 PUSH2 0xBA1 JUMP JUMPDEST DUP3 ADD SWAP2 SWAP1 PUSH0 MSTORE PUSH1 0x20 PUSH0 KECCAK256 SWAP1 JUMPDEST DUP2 SLOAD DUP2 MSTORE SWAP1 PUSH1 0x1 ADD SWAP1 PUSH1 0x20 ADD DUP1 DUP4 GT PUSH2 0xB84 JUMPI DUP3 SWAP1 SUB PUSH1 0x1F AND DUP3 ADD SWAP2 JUMPDEST POP POP POP POP POP SWAP1 DUP1 PUSH1 0x2 ADD PUSH0 SWAP1 SLOAD SWAP1 PUSH2 0x100 EXP SWAP1 DIV PUSH20 0xFFFFFFFFFFFFFFFFFFFFFFFFFFFFFFFFFFFFFFFF AND SWAP1 DUP1 PUSH1 0x3 ADD SLOAD SWAP1 DUP1 PUSH1 0x4 ADD SLOAD SWAP1 DUP1 PUSH1 0x5 ADD PUSH0 SWAP1 SLOAD SWAP1 PUSH2 0x100 EXP SWAP1 DIV PUSH2 0xFFFF AND SWAP1 DUP1 PUSH1 0x5 ADD PUSH1 0x2 SWAP1 SLOAD SWAP1 PUSH2 0x100 EXP SWAP1 DIV PUSH2 0xFFFF AND SWAP1 DUP1 PUSH1 0x5 ADD PUSH1 0x4 SWAP1 SLOAD SWAP1 PUSH2 0x100 EXP SWAP1 DIV PUSH2 0xFFFF AND SWAP1 DUP1 PUSH1 0x6 ADD SLOAD SWAP1 DUP1 PUSH1 0x7 ADD SLOAD SWAP1 DUP1 PUSH1 0x8 ADD SLOAD SWAP1 DUP1 PUSH1 0x9 ADD PUSH0 SWAP1 SLOAD SWAP1 PUSH2 0x100 EXP SWAP1 DIV PUSH20 0xFFFFFFFFFFFFFFFFFFFFFFFFFFFFFFFFFFFFFFFF AND SWAP1 POP DUP13 JUMP JUMPDEST PUSH2 0xC58 DUP4 CALLER PUSH2 0x2E54 JUMP JUMPDEST PUSH0 PUSH1 0x5 DUP5 PUSH1 0x40 MLOAD PUSH2 0xC69 SWAP2 SWAP1 PUSH2 0x4323 JUMP JUMPDEST SWAP1 DUP2 MSTORE PUSH1 0x20 ADD PUSH1 0x40 MLOAD DUP1 SWAP2 SUB SWAP1 KECCAK256 PUSH0 DUP5 PUSH20 0xFFFFFFFFFFFFFFFFFFFFFFFFFFFFFFFFFFFFFFFF AND PUSH20 0xFFFFFFFFFFFFFFFFFFFFFFFFFFFFFFFFFFFFFFFF AND DUP2 MSTORE PUSH1 0x20 ADD SWAP1 DUP2 MSTORE PUSH1 0x20 ADD PUSH0 KECCAK256 DUP3 PUSH1 0x40 MLOAD PUSH2 0xCC0 SWAP2 SWAP1 PUSH2 0x4323 JUMP JUMPDEST SWAP1 DUP2 MSTORE PUSH1 0x20 ADD PUSH1 0x40 MLOAD DUP1 SWAP2 SUB SWAP1 KECCAK256 PUSH1 0x40 MLOAD DUP1 PUSH1 0x40 ADD PUSH1 0x40 MSTORE SWAP1 DUP2 PUSH0 DUP3 ADD SLOAD DUP2 MSTORE PUSH1 0x20 ADD PUSH1 0x1 DUP3 ADD PUSH0 SWAP1 SLOAD SWAP1 PUSH2 0x100 EXP SWAP1 DIV PUSH1 0xFF AND PUSH1 0x5 DUP2 GT ISZERO PUSH2 0xD06 JUMPI PUSH2 0xD05 PUSH2 0x3B2F JUMP JUMPDEST JUMPDEST PUSH1 0x5 DUP2 GT ISZERO PUSH2 0xD18 JUMPI PUSH2 0xD17 PUSH2 0x3B2F JUMP JUMPDEST JUMPDEST DUP2 MSTORE POP POP SWAP1 POP PUSH1 0x2 PUSH1 0x5 DUP2 GT ISZERO PUSH2 0xD32 JUMPI PUSH2 0xD31 PUSH2 0x3B2F JUMP JUMPDEST JUMPDEST DUP2 PUSH1 0x20 ADD MLOAD PUSH1 0x5 DUP2 GT ISZERO PUSH2 0xD49 JUMPI PUSH2 0xD48 PUSH2 0x3B2F JUMP JUMPDEST JUMPDEST EQ PUSH2 0xD89 JUMPI PUSH1 0x40 MLOAD PUSH32 0x8C379A000000000000000000000000000000000000000000000000000000000 DUP2 MSTORE PUSH1 0x4 ADD PUSH2 0xD80 SWAP1 PUSH2 0x49DD JUMP JUMPDEST PUSH1 0x40 MLOAD DUP1 SWAP2 SUB SWAP1 REVERT JUMPDEST PUSH1 0x4 PUSH1 0x5 DUP6 PUSH1 0x40 MLOAD PUSH2 0xD9B SWAP2 SWAP1 PUSH2 0x4323 JUMP JUMPDEST SWAP1 DUP2 MSTORE PUSH1 0x20 ADD PUSH1 0x40 MLOAD DUP1 SWAP2 SUB SWAP1 KECCAK256 PUSH0 DUP6 PUSH20 0xFFFFFFFFFFFFFFFFFFFFFFFFFFFFFFFFFFFFFFFF AND PUSH20 0xFFFFFFFFFFFFFFFFFFFFFFFFFFFFFFFFFFFFFFFF AND DUP2 MSTORE PUSH1 0x20 ADD SWAP1 DUP2 MSTORE PUSH1 0x20 ADD PUSH0 KECCAK256 DUP4 PUSH1 0x40 MLOAD PUSH2 0xDF2 SWAP2 SWAP1 PUSH2 0x4323 JUMP JUMPDEST SWAP1 DUP2 MSTORE PUSH1 0x20 ADD PUSH1 0x40 MLOAD DUP1 SWAP2 SUB SWAP1 KECCAK256 PUSH1 0x1 ADD PUSH0 PUSH2 0x100 EXP DUP2 SLOAD DUP2 PUSH1 0xFF MUL NOT AND SWAP1 DUP4 PUSH1 0x5 DUP2 GT ISZERO PUSH2 0xE24 JUMPI PUSH2 0xE23 PUSH2 0x3B2F JUMP JUMPDEST JUMPDEST MUL OR SWAP1 SSTORE POP DUP1 PUSH0 ADD MLOAD PUSH1 0x3 DUP6 PUSH1 0x40 MLOAD PUSH2 0xE3D SWAP2 SWAP1 PUSH2 0x4323 JUMP JUMPDEST SWAP1 DUP2 MSTORE PUSH1 0x20 ADD PUSH1 0x40 MLOAD DUP1 SWAP2 SUB SWAP1 KECCAK256 PUSH1 0x4 ADD PUSH0 DUP3 DUP3 SLOAD PUSH2 0xE5C SWAP2 SWAP1 PUSH2 0x49FB JUMP JUMPDEST SWAP3 POP POP DUP2 SWAP1 SSTORE POP PUSH32 0x40768EE67403A1B2C45E2EE8E9C7CB4283D12BD31F8126DE25122997535C1BB DUP3 DUP5 DUP4 PUSH0 ADD MLOAD PUSH1 0x40 MLOAD PUSH2 0xE99 SWAP4 SWAP3 SWAP2 SWAP1 PUSH2 0x4A78 JUMP JUMPDEST PUSH1 0x40 MLOAD DUP1 SWAP2 SUB SWAP1 LOG1 POP POP POP POP JUMP JUMPDEST PUSH0 DUP1 SLOAD SWAP1 PUSH2 0x100 EXP SWAP1 DIV PUSH20 0xFFFFFFFFFFFFFFFFFFFFFFFFFFFFFFFFFFFFFFFF AND PUSH20 0xFFFFFFFFFFFFFFFFFFFFFFFFFFFFFFFFFFFFFFFF AND CALLER PUSH20 0xFFFFFFFFFFFFFFFFFFFFFFFFFFFFFFFFFFFFFFFF AND EQ PUSH2 0xF34 JUMPI PUSH1 0x40 MLOAD PUSH32 0x8C379A000000000000000000000000000000000000000000000000000000000 DUP2 MSTORE PUSH1 0x4 ADD PUSH2 0xF2B SWAP1 PUSH2 0x4B11 JUMP JUMPDEST PUSH1 0x40 MLOAD DUP1 SWAP2 SUB SWAP1 REVERT JUMPDEST PUSH1 0x1 DUP1 PUSH0 DUP4 PUSH20 0xFFFFFFFFFFFFFFFFFFFFFFFFFFFFFFFFFFFFFFFF AND PUSH20 0xFFFFFFFFFFFFFFFFFFFFFFFFFFFFFFFFFFFFFFFF AND DUP2 MSTORE PUSH1 0x20 ADD SWAP1 DUP2 MSTORE PUSH1 0x20 ADD PUSH0 KECCAK256 PUSH0 PUSH2 0x100 EXP DUP2 SLOAD DUP2 PUSH1 0xFF MUL NOT AND SWAP1 DUP4 ISZERO ISZERO MUL OR SWAP1 SSTORE POP POP JUMP JUMPDEST PUSH0 DUP1 SLOAD SWAP1 PUSH2 0x100 EXP SWAP1 DIV PUSH20 0xFFFFFFFFFFFFFFFFFFFFFFFFFFFFFFFFFFFFFFFF AND PUSH20 0xFFFFFFFFFFFFFFFFFFFFFFFFFFFFFFFFFFFFFFFF AND CALLER PUSH20 0xFFFFFFFFFFFFFFFFFFFFFFFFFFFFFFFFFFFFFFFF AND EQ PUSH2 0x1018 JUMPI PUSH1 0x40 MLOAD PUSH32 0x8C379A000000000000000000000000000000000000000000000000000000000 DUP2 MSTORE PUSH1 0x4 ADD PUSH2 0x100F SWAP1 PUSH2 0x4B11 JUMP JUMPDEST PUSH1 0x40 MLOAD DUP1 SWAP2 SUB SWAP1 REVERT JUMPDEST DUP1 PUSH0 DUP1 PUSH2 0x100 EXP DUP2 SLOAD DUP2 PUSH20 0xFFFFFFFFFFFFFFFFFFFFFFFFFFFFFFFFFFFFFFFF MUL NOT AND SWAP1 DUP4 PUSH20 0xFFFFFFFFFFFFFFFFFFFFFFFFFFFFFFFFFFFFFFFF AND MUL OR SWAP1 SSTORE POP POP JUMP JUMPDEST PUSH1 0x3 DUP1 DUP2 GT ISZERO PUSH2 0x106D JUMPI PUSH2 0x106C PUSH2 0x3B2F JUMP JUMPDEST JUMPDEST PUSH1 0x3 DUP3 PUSH1 0x40 MLOAD PUSH2 0x107D SWAP2 SWAP1 PUSH2 0x4323 JUMP JUMPDEST SWAP1 DUP2 MSTORE PUSH1 0x20 ADD PUSH1 0x40 MLOAD DUP1 SWAP2 SUB SWAP1 KECCAK256 PUSH0 ADD PUSH0 SWAP1 SLOAD SWAP1 PUSH2 0x100 EXP SWAP1 DIV PUSH1 0xFF AND PUSH1 0x3 DUP2 GT ISZERO PUSH2 0x10AC JUMPI PUSH2 0x10AB PUSH2 0x3B2F JUMP JUMPDEST JUMPDEST SUB PUSH2 0x10EC JUMPI PUSH1 0x40 MLOAD PUSH32 0x8C379A000000000000000000000000000000000000000000000000000000000 DUP2 MSTORE PUSH1 0x4 ADD PUSH2 0x10E3 SWAP1 PUSH2 0x4B79 JUMP JUMPDEST PUSH1 0x40 MLOAD DUP1 SWAP2 SUB SWAP1 REVERT JUMPDEST PUSH0 PUSH2 0x10F7 DUP3 CALLER PUSH2 0x2F98 JUMP JUMPDEST SWAP1 POP DUP1 PUSH1 0x20 ADD MLOAD PUSH2 0x113D JUMPI PUSH1 0x40 MLOAD PUSH32 0x8C379A000000000000000000000000000000000000000000000000000000000 DUP2 MSTORE PUSH1 0x4 ADD PUSH2 0x1134 SWAP1 PUSH2 0x4BE1 JUMP JUMPDEST PUSH1 0x40 MLOAD DUP1 SWAP2 SUB SWAP1 REVERT JUMPDEST PUSH1 0x4 DUP3 PUSH1 0x40 MLOAD PUSH2 0x114D SWAP2 SWAP1 PUSH2 0x4323 JUMP JUMPDEST SWAP1 DUP2 MSTORE PUSH1 0x20 ADD PUSH1 0x40 MLOAD DUP1 SWAP2 SUB SWAP1 KECCAK256 PUSH0 CALLER PUSH20 0xFFFFFFFFFFFFFFFFFFFFFFFFFFFFFFFFFFFFFFFF AND PUSH20 0xFFFFFFFFFFFFFFFFFFFFFFFFFFFFFFFFFFFFFFFF AND DUP2 MSTORE PUSH1 0x20 ADD SWAP1 DUP2 MSTORE PUSH1 0x20 ADD PUSH0 KECCAK256 PUSH0 ADD PUSH1 0x1 PUSH2 0x100 EXP DUP2 SLOAD SWAP1 PUSH1 0xFF MUL NOT AND SWAP1 SSTORE PUSH0 PUSH1 0x3 DUP4 PUSH1 0x40 MLOAD PUSH2 0x11B9 SWAP2 SWAP1 PUSH2 0x4323 JUMP JUMPDEST SWAP1 DUP2 MSTORE PUSH1 0x20 ADD PUSH1 0x40 MLOAD DUP1 SWAP2 SUB SWAP1 KECCAK256 PUSH1 0x5 ADD PUSH1 0x2 DUP2 DUP2 SWAP1 SLOAD SWAP1 PUSH2 0x100 EXP SWAP1 DIV PUSH2 0xFFFF AND PUSH2 0x11E4 SWAP1 PUSH2 0x4BFF JUMP JUMPDEST SWAP2 SWAP1 PUSH2 0x100 EXP DUP2 SLOAD DUP2 PUSH2 0xFFFF MUL NOT AND SWAP1 DUP4 PUSH2 0xFFFF AND MUL OR SWAP1 SSTORE SWAP1 POP PUSH32 0x40768EE67403A1B2C45E2EE8E9C7CB4283D12BD31F8126DE25122997535C1BB DUP4 CALLER DUP4 PUSH1 0x40 MLOAD PUSH2 0x1232 SWAP4 SWAP3 SWAP2 SWAP1 PUSH2 0x4C70 JUMP JUMPDEST PUSH1 0x40 MLOAD DUP1 SWAP2 SUB SWAP1 LOG1 POP POP POP JUMP JUMPDEST PUSH1 0x1 PUSH1 0x3 DUP2 GT ISZERO PUSH2 0x1253 JUMPI PUSH2 0x1252 PUSH2 0x3B2F JUMP JUMPDEST JUMPDEST PUSH1 0x3 DUP4 PUSH1 0x40 MLOAD PUSH2 0x1263 SWAP2 SWAP1 PUSH2 0x4323 JUMP JUMPDEST SWAP1 DUP2 MSTORE PUSH1 0x20 ADD PUSH1 0x40 MLOAD DUP1 SWAP2 SUB SWAP1 KECCAK256 PUSH0 ADD PUSH0 SWAP1 SLOAD SWAP1 PUSH2 0x100 EXP SWAP1 DIV PUSH1 0xFF AND PUSH1 0x3 DUP2 GT ISZERO PUSH2 0x1292 JUMPI PUSH2 0x1291 PUSH2 0x3B2F JUMP JUMPDEST JUMPDEST SUB PUSH2 0x12D2 JUMPI PUSH1 0x40 MLOAD PUSH32 0x8C379A000000000000000000000000000000000000000000000000000000000 DUP2 MSTORE PUSH1 0x4 ADD PUSH2 0x12C9 SWAP1 PUSH2 0x4D09 JUMP JUMPDEST PUSH1 0x40 MLOAD DUP1 SWAP2 SUB SWAP1 REVERT JUMPDEST PUSH0 PUSH1 0x5 DUP4 PUSH1 0x40 MLOAD PUSH2 0x12E3 SWAP2 SWAP1 PUSH2 0x4323 JUMP JUMPDEST SWAP1 DUP2 MSTORE PUSH1 0x20 ADD PUSH1 0x40 MLOAD DUP1 SWAP2 SUB SWAP1 KECCAK256 PUSH0 CALLER PUSH20 0xFFFFFFFFFFFFFFFFFFFFFFFFFFFFFFFFFFFFFFFF AND PUSH20 0xFFFFFFFFFFFFFFFFFFFFFFFFFFFFFFFFFFFFFFFF AND DUP2 MSTORE PUSH1 0x20 ADD SWAP1 DUP2 MSTORE PUSH1 0x20 ADD PUSH0 KECCAK256 DUP3 PUSH1 0x40 MLOAD PUSH2 0x133A SWAP2 SWAP1 PUSH2 0x4323 JUMP JUMPDEST SWAP1 DUP2 MSTORE PUSH1 0x20 ADD PUSH1 0x40 MLOAD DUP1 SWAP2 SUB SWAP1 KECCAK256 PUSH1 0x40 MLOAD DUP1 PUSH1 0x40 ADD PUSH1 0x40 MSTORE SWAP1 DUP2 PUSH0 DUP3 ADD SLOAD DUP2 MSTORE PUSH1 0x20 ADD PUSH1 0x1 DUP3 ADD PUSH0 SWAP1 SLOAD SWAP1 PUSH2 0x100 EXP SWAP1 DIV PUSH1 0xFF AND PUSH1 0x5 DUP2 GT ISZERO PUSH2 0x1380 JUMPI PUSH2 0x137F PUSH2 0x3B2F JUMP JUMPDEST JUMPDEST PUSH1 0x5 DUP2 GT ISZERO PUSH2 0x1392 JUMPI PUSH2 0x1391 PUSH2 0x3B2F JUMP JUMPDEST JUMPDEST DUP2 MSTORE POP POP SWAP1 POP PUSH1 0x2 PUSH1 0x5 DUP2 GT ISZERO PUSH2 0x13AC JUMPI PUSH2 0x13AB PUSH2 0x3B2F JUMP JUMPDEST JUMPDEST DUP2 PUSH1 0x20 ADD MLOAD PUSH1 0x5 DUP2 GT ISZERO PUSH2 0x13C3 JUMPI PUSH2 0x13C2 PUSH2 0x3B2F JUMP JUMPDEST JUMPDEST EQ PUSH2 0x1403 JUMPI PUSH1 0x40 MLOAD PUSH32 0x8C379A000000000000000000000000000000000000000000000000000000000 DUP2 MSTORE PUSH1 0x4 ADD PUSH2 0x13FA SWAP1 PUSH2 0x49DD JUMP JUMPDEST PUSH1 0x40 MLOAD DUP1 SWAP2 SUB SWAP1 REVERT JUMPDEST PUSH2 0x1411 DUP4 CALLER DUP5 DUP5 PUSH1 0x1 PUSH2 0x3167 JUMP JUMPDEST POP POP POP JUMP JUMPDEST PUSH0 PUSH2 0x1421 DUP4 CALLER PUSH2 0x2F98 JUMP JUMPDEST SWAP1 POP PUSH1 0x2 PUSH1 0x3 DUP2 GT ISZERO PUSH2 0x1437 JUMPI PUSH2 0x1436 PUSH2 0x3B2F JUMP JUMPDEST JUMPDEST DUP2 PUSH0 ADD MLOAD PUSH1 0x3 DUP2 GT ISZERO PUSH2 0x144D JUMPI PUSH2 0x144C PUSH2 0x3B2F JUMP JUMPDEST JUMPDEST EQ PUSH2 0x148D JUMPI PUSH1 0x40 MLOAD PUSH32 0x8C379A000000000000000000000000000000000000000000000000000000000 DUP2 MSTORE PUSH1 0x4 ADD PUSH2 0x1484 SWAP1 PUSH2 0x4D71 JUMP JUMPDEST PUSH1 0x40 MLOAD DUP1 SWAP2 SUB SWAP1 REVERT JUMPDEST DUP2 PUSH1 0x3 DUP5 PUSH1 0x40 MLOAD PUSH2 0x149E SWAP2 SWAP1 PUSH2 0x4323 JUMP JUMPDEST SWAP1 DUP2 MSTORE PUSH1 0x20 ADD PUSH1 0x40 MLOAD DUP1 SWAP2 SUB SWAP1 KECCAK256 PUSH1 0x3 ADD PUSH0 DUP3 DUP3 SLOAD PUSH2 0x14BD SWAP2 SWAP1 PUSH2 0x4D8F JUMP JUMPDEST SWAP3 POP POP DUP2 SWAP1 SSTORE POP PUSH0 PUSH1 0x3 DUP5 PUSH1 0x40 MLOAD PUSH2 0x14D5 SWAP2 SWAP1 PUSH2 0x4323 JUMP JUMPDEST SWAP1 DUP2 MSTORE PUSH1 0x20 ADD PUSH1 0x40 MLOAD DUP1 SWAP2 SUB SWAP1 KECCAK256 PUSH1 0x9 ADD PUSH0 SWAP1 SLOAD SWAP1 PUSH2 0x100 EXP SWAP1 DIV PUSH20 0xFFFFFFFFFFFFFFFFFFFFFFFFFFFFFFFFFFFFFFFF AND SWAP1 POP DUP1 PUSH20 0xFFFFFFFFFFFFFFFFFFFFFFFFFFFFFFFFFFFFFFFF AND PUSH4 0x23B872DD CALLER ADDRESS DUP7 PUSH1 0x40 MLOAD DUP5 PUSH4 0xFFFFFFFF AND PUSH1 0xE0 SHL DUP2 MSTORE PUSH1 0x4 ADD PUSH2 0x1545 SWAP4 SWAP3 SWAP2 SWAP1 PUSH2 0x4DC2 JUMP JUMPDEST PUSH0 PUSH1 0x40 MLOAD DUP1 DUP4 SUB DUP2 PUSH0 DUP8 DUP1 EXTCODESIZE ISZERO DUP1 ISZERO PUSH2 0x155C JUMPI PUSH0 DUP1 REVERT JUMPDEST POP GAS CALL ISZERO DUP1 ISZERO PUSH2 0x156E JUMPI RETURNDATASIZE PUSH0 DUP1 RETURNDATACOPY RETURNDATASIZE PUSH0 REVERT JUMPDEST POP POP POP POP PUSH32 0x40768EE67403A1B2C45E2EE8E9C7CB4283D12BD31F8126DE25122997535C1BB DUP5 CALLER DUP6 PUSH1 0x40 MLOAD PUSH2 0x15A5 SWAP4 SWAP3 SWAP2 SWAP1 PUSH2 0x4E41 JUMP JUMPDEST PUSH1 0x40 MLOAD DUP1 SWAP2 SUB SWAP1 LOG1 POP POP POP POP JUMP JUMPDEST PUSH2 0x15BC CALLER PUSH2 0x2D73 JUMP JUMPDEST PUSH0 PUSH2 0x15C8 DUP6 DUP6 DUP6 PUSH2 0x3592 JUMP JUMPDEST SWAP1 POP PUSH1 0x1 PUSH1 0x5 DUP2 GT ISZERO PUSH2 0x15DE JUMPI PUSH2 0x15DD PUSH2 0x3B2F JUMP JUMPDEST JUMPDEST DUP2 PUSH1 0x20 ADD MLOAD PUSH1 0x5 DUP2 GT ISZERO PUSH2 0x15F5 JUMPI PUSH2 0x15F4 PUSH2 0x3B2F JUMP JUMPDEST JUMPDEST EQ PUSH2 0x1635 JUMPI PUSH1 0x40 MLOAD PUSH32 0x8C379A000000000000000000000000000000000000000000000000000000000 DUP2 MSTORE PUSH1 0x4 ADD PUSH2 0x162C SWAP1 PUSH2 0x4EDA JUMP JUMPDEST PUSH1 0x40 MLOAD DUP1 SWAP2 SUB SWAP1 REVERT JUMPDEST DUP2 DUP2 PUSH0 ADD MLOAD EQ PUSH2 0x167A JUMPI PUSH1 0x40 MLOAD PUSH32 0x8C379A000000000000000000000000000000000000000000000000000000000 DUP2 MSTORE PUSH1 0x4 ADD PUSH2 0x1671 SWAP1 PUSH2 0x4F42 JUMP JUMPDEST PUSH1 0x40 MLOAD DUP1 SWAP2 SUB SWAP1 REVERT JUMPDEST PUSH1 0x2 PUSH1 0x5 DUP7 PUSH1 0x40 MLOAD PUSH2 0x168C SWAP2 SWAP1 PUSH2 0x4323 JUMP JUMPDEST SWAP1 DUP2 MSTORE PUSH1 0x20 ADD PUSH1 0x40 MLOAD DUP1 SWAP2 SUB SWAP1 KECCAK256 PUSH0 DUP7 PUSH20 0xFFFFFFFFFFFFFFFFFFFFFFFFFFFFFFFFFFFFFFFF AND PUSH20 0xFFFFFFFFFFFFFFFFFFFFFFFFFFFFFFFFFFFFFFFF AND DUP2 MSTORE PUSH1 0x20 ADD SWAP1 DUP2 MSTORE PUSH1 0x20 ADD PUSH0 KECCAK256 DUP5 PUSH1 0x40 MLOAD PUSH2 0x16E3 SWAP2 SWAP1 PUSH2 0x4323 JUMP JUMPDEST SWAP1 DUP2 MSTORE PUSH1 0x20 ADD PUSH1 0x40 MLOAD DUP1 SWAP2 SUB SWAP1 KECCAK256 PUSH1 0x1 ADD PUSH0 PUSH2 0x100 EXP DUP2 SLOAD DUP2 PUSH1 0xFF MUL NOT AND SWAP1 DUP4 PUSH1 0x5 DUP2 GT ISZERO PUSH2 0x1715 JUMPI PUSH2 0x1714 PUSH2 0x3B2F JUMP JUMPDEST JUMPDEST MUL OR SWAP1 SSTORE POP PUSH32 0x40768EE67403A1B2C45E2EE8E9C7CB4283D12BD31F8126DE25122997535C1BB DUP4 DUP6 DUP5 PUSH1 0x40 MLOAD PUSH2 0x174D SWAP4 SWAP3 SWAP2 SWAP1 PUSH2 0x4FAA JUMP JUMPDEST PUSH1 0x40 MLOAD DUP1 SWAP2 SUB SWAP1 LOG1 POP POP POP POP POP JUMP JUMPDEST PUSH0 DUP1 SLOAD SWAP1 PUSH2 0x100 EXP SWAP1 DIV PUSH20 0xFFFFFFFFFFFFFFFFFFFFFFFFFFFFFFFFFFFFFFFF AND DUP2 JUMP JUMPDEST PUSH1 0x2 DUP1 SLOAD SWAP1 PUSH2 0x100 EXP SWAP1 DIV PUSH2 0xFFFF AND DUP2 JUMP JUMPDEST PUSH2 0x179B DUP3 CALLER PUSH2 0x36D5 JUMP JUMPDEST PUSH0 PUSH2 0x17A6 DUP4 DUP4 PUSH2 0x2F98 JUMP JUMPDEST SWAP1 POP PUSH1 0x2 PUSH1 0x3 DUP2 GT ISZERO PUSH2 0x17BC JUMPI PUSH2 0x17BB PUSH2 0x3B2F JUMP JUMPDEST JUMPDEST DUP2 PUSH0 ADD MLOAD PUSH1 0x3 DUP2 GT ISZERO PUSH2 0x17D2 JUMPI PUSH2 0x17D1 PUSH2 0x3B2F JUMP JUMPDEST JUMPDEST EQ PUSH2 0x1812 JUMPI PUSH1 0x40 MLOAD PUSH32 0x8C379A000000000000000000000000000000000000000000000000000000000 DUP2 MSTORE PUSH1 0x4 ADD PUSH2 0x1809 SWAP1 PUSH2 0x5043 JUMP JUMPDEST PUSH1 0x40 MLOAD DUP1 SWAP2 SUB SWAP1 REVERT JUMPDEST PUSH1 0x3 PUSH1 0x4 DUP5 PUSH1 0x40 MLOAD PUSH2 0x1824 SWAP2 SWAP1 PUSH2 0x4323 JUMP JUMPDEST SWAP1 DUP2 MSTORE PUSH1 0x20 ADD PUSH1 0x40 MLOAD DUP1 SWAP2 SUB SWAP1 KECCAK256 PUSH0 DUP5 PUSH20 0xFFFFFFFFFFFFFFFFFFFFFFFFFFFFFFFFFFFFFFFF AND PUSH20 0xFFFFFFFFFFFFFFFFFFFFFFFFFFFFFFFFFFFFFFFF AND DUP2 MSTORE PUSH1 0x20 ADD SWAP1 DUP2 MSTORE PUSH1 0x20 ADD PUSH0 KECCAK256 PUSH0 ADD PUSH0 PUSH2 0x100 EXP DUP2 SLOAD DUP2 PUSH1 0xFF MUL NOT AND SWAP1 DUP4 PUSH1 0x3 DUP2 GT ISZERO PUSH2 0x1890 JUMPI PUSH2 0x188F PUSH2 0x3B2F JUMP JUMPDEST JUMPDEST MUL OR SWAP1 SSTORE POP PUSH32 0x40768EE67403A1B2C45E2EE8E9C7CB4283D12BD31F8126DE25122997535C1BB DUP4 DUP4 PUSH0 PUSH1 0x40 MLOAD PUSH2 0x18C8 SWAP4 SWAP3 SWAP2 SWAP1 PUSH2 0x50AB JUMP JUMPDEST PUSH1 0x40 MLOAD DUP1 SWAP2 SUB SWAP1 LOG1 POP POP POP JUMP JUMPDEST PUSH0 PUSH2 0x18E0 DUP3 CALLER PUSH2 0x2F98 JUMP JUMPDEST SWAP1 POP DUP1 PUSH1 0x20 ADD MLOAD ISZERO PUSH2 0x1927 JUMPI PUSH1 0x40 MLOAD PUSH32 0x8C379A000000000000000000000000000000000000000000000000000000000 DUP2 MSTORE PUSH1 0x4 ADD PUSH2 0x191E SWAP1 PUSH2 0x5144 JUMP JUMPDEST PUSH1 0x40 MLOAD DUP1 SWAP2 SUB SWAP1 REVERT JUMPDEST PUSH1 0x1 PUSH1 0x4 DUP4 PUSH1 0x40 MLOAD PUSH2 0x1939 SWAP2 SWAP1 PUSH2 0x4323 JUMP JUMPDEST SWAP1 DUP2 MSTORE PUSH1 0x20 ADD PUSH1 0x40 MLOAD DUP1 SWAP2 SUB SWAP1 KECCAK256 PUSH0 CALLER PUSH20 0xFFFFFFFFFFFFFFFFFFFFFFFFFFFFFFFFFFFFFFFF AND PUSH20 0xFFFFFFFFFFFFFFFFFFFFFFFFFFFFFFFFFFFFFFFF AND DUP2 MSTORE PUSH1 0x20 ADD SWAP1 DUP2 MSTORE PUSH1 0x20 ADD PUSH0 KECCAK256 PUSH0 ADD PUSH1 0x1 PUSH2 0x100 EXP DUP2 SLOAD DUP2 PUSH1 0xFF MUL NOT AND SWAP1 DUP4 ISZERO ISZERO MUL OR SWAP1 SSTORE POP PUSH0 PUSH1 0x3 DUP4 PUSH1 0x40 MLOAD PUSH2 0x19AC SWAP2 SWAP1 PUSH2 0x4323 JUMP JUMPDEST SWAP1 DUP2 MSTORE PUSH1 0x20 ADD PUSH1 0x40 MLOAD DUP1 SWAP2 SUB SWAP1 KECCAK256 PUSH1 0x5 ADD PUSH1 0x2 DUP2 DUP2 SWAP1 SLOAD SWAP1 PUSH2 0x100 EXP SWAP1 DIV PUSH2 0xFFFF AND PUSH2 0x19D7 SWAP1 PUSH2 0x4436 JUMP JUMPDEST SWAP2 SWAP1 PUSH2 0x100 EXP DUP2 SLOAD DUP2 PUSH2 0xFFFF MUL NOT AND SWAP1 DUP4 PUSH2 0xFFFF AND MUL OR SWAP1 SSTORE SWAP1 POP PUSH0 PUSH1 0x3 DUP5 PUSH1 0x40 MLOAD PUSH2 0x1A03 SWAP2 SWAP1 PUSH2 0x4323 JUMP JUMPDEST SWAP1 DUP2 MSTORE PUSH1 0x20 ADD PUSH1 0x40 MLOAD DUP1 SWAP2 SUB SWAP1 KECCAK256 PUSH1 0x5 ADD PUSH0 SWAP1 SLOAD SWAP1 PUSH2 0x100 EXP SWAP1 DIV PUSH2 0xFFFF AND SWAP1 POP PUSH1 0x4 DUP3 PUSH2 0xFFFF AND GT DUP1 ISZERO PUSH2 0x1A65 JUMPI POP PUSH1 0x64 DUP2 PUSH1 0x2 PUSH0 SWAP1 SLOAD SWAP1 PUSH2 0x100 EXP SWAP1 DIV PUSH2 0xFFFF AND PUSH2 0x1A50 SWAP2 SWAP1 PUSH2 0x5162 JUMP JUMPDEST PUSH2 0x1A5A SWAP2 SWAP1 PUSH2 0x51CB JUMP JUMPDEST PUSH2 0xFFFF AND DUP3 PUSH2 0xFFFF AND GT JUMPDEST ISZERO PUSH2 0x1AB2 JUMPI PUSH1 0x3 DUP1 DUP6 PUSH1 0x40 MLOAD PUSH2 0x1A7B SWAP2 SWAP1 PUSH2 0x4323 JUMP JUMPDEST SWAP1 DUP2 MSTORE PUSH1 0x20 ADD PUSH1 0x40 MLOAD DUP1 SWAP2 SUB SWAP1 KECCAK256 PUSH0 ADD PUSH0 PUSH2 0x100 EXP DUP2 SLOAD DUP2 PUSH1 0xFF MUL NOT AND SWAP1 DUP4 PUSH1 0x3 DUP2 GT ISZERO PUSH2 0x1AAC JUMPI PUSH2 0x1AAB PUSH2 0x3B2F JUMP JUMPDEST JUMPDEST MUL OR SWAP1 SSTORE POP JUMPDEST PUSH32 0x40768EE67403A1B2C45E2EE8E9C7CB4283D12BD31F8126DE25122997535C1BB DUP5 CALLER DUP5 PUSH1 0x40 MLOAD PUSH2 0x1AE5 SWAP4 SWAP3 SWAP2 SWAP1 PUSH2 0x5245 JUMP JUMPDEST PUSH1 0x40 MLOAD DUP1 SWAP2 SUB SWAP1 LOG1 POP POP POP POP JUMP JUMPDEST PUSH0 PUSH1 0x4 DUP5 PUSH1 0x40 MLOAD PUSH2 0x1B04 SWAP2 SWAP1 PUSH2 0x4323 JUMP JUMPDEST SWAP1 DUP2 MSTORE PUSH1 0x20 ADD PUSH1 0x40 MLOAD DUP1 SWAP2 SUB SWAP1 KECCAK256 PUSH0 CALLER PUSH20 0xFFFFFFFFFFFFFFFFFFFFFFFFFFFFFFFFFFFFFFFF AND PUSH20 0xFFFFFFFFFFFFFFFFFFFFFFFFFFFFFFFFFFFFFFFF AND DUP2 MSTORE PUSH1 0x20 ADD SWAP1 DUP2 MSTORE PUSH1 0x20 ADD PUSH0 KECCAK256 PUSH1 0x40 MLOAD DUP1 PUSH1 0x80 ADD PUSH1 0x40 MSTORE SWAP1 DUP2 PUSH0 DUP3 ADD PUSH0 SWAP1 SLOAD SWAP1 PUSH2 0x100 EXP SWAP1 DIV PUSH1 0xFF AND PUSH1 0x3 DUP2 GT ISZERO PUSH2 0x1B7B JUMPI PUSH2 0x1B7A PUSH2 0x3B2F JUMP JUMPDEST JUMPDEST PUSH1 0x3 DUP2 GT ISZERO PUSH2 0x1B8D JUMPI PUSH2 0x1B8C PUSH2 0x3B2F JUMP JUMPDEST JUMPDEST DUP2 MSTORE PUSH1 0x20 ADD PUSH0 DUP3 ADD PUSH1 0x1 SWAP1 SLOAD SWAP1 PUSH2 0x100 EXP SWAP1 DIV PUSH1 0xFF AND ISZERO ISZERO ISZERO ISZERO DUP2 MSTORE PUSH1 0x20 ADD PUSH1 0x1 DUP3 ADD DUP1 SLOAD PUSH2 0x1BBB SWAP1 PUSH2 0x448C JUMP JUMPDEST DUP1 PUSH1 0x1F ADD PUSH1 0x20 DUP1 SWAP2 DIV MUL PUSH1 0x20 ADD PUSH1 0x40 MLOAD SWAP1 DUP2 ADD PUSH1 0x40 MSTORE DUP1 SWAP3 SWAP2 SWAP1 DUP2 DUP2 MSTORE PUSH1 0x20 ADD DUP3 DUP1 SLOAD PUSH2 0x1BE7 SWAP1 PUSH2 0x448C JUMP JUMPDEST DUP1 ISZERO PUSH2 0x1C32 JUMPI DUP1 PUSH1 0x1F LT PUSH2 0x1C09 JUMPI PUSH2 0x100 DUP1 DUP4 SLOAD DIV MUL DUP4 MSTORE SWAP2 PUSH1 0x20 ADD SWAP2 PUSH2 0x1C32 JUMP JUMPDEST DUP3 ADD SWAP2 SWAP1 PUSH0 MSTORE PUSH1 0x20 PUSH0 KECCAK256 SWAP1 JUMPDEST DUP2 SLOAD DUP2 MSTORE SWAP1 PUSH1 0x1 ADD SWAP1 PUSH1 0x20 ADD DUP1 DUP4 GT PUSH2 0x1C15 JUMPI DUP3 SWAP1 SUB PUSH1 0x1F AND DUP3 ADD SWAP2 JUMPDEST POP POP POP POP POP DUP2 MSTORE PUSH1 0x20 ADD PUSH1 0x2 DUP3 ADD SLOAD DUP2 MSTORE POP POP SWAP1 POP PUSH0 PUSH1 0x3 DUP6 PUSH1 0x40 MLOAD PUSH2 0x1C58 SWAP2 SWAP1 PUSH2 0x4323 JUMP JUMPDEST SWAP1 DUP2 MSTORE PUSH1 0x20 ADD PUSH1 0x40 MLOAD DUP1 SWAP2 SUB SWAP1 KECCAK256 PUSH1 0x40 MLOAD DUP1 PUSH2 0x180 ADD PUSH1 0x40 MSTORE SWAP1 DUP2 PUSH0 DUP3 ADD PUSH0 SWAP1 SLOAD SWAP1 PUSH2 0x100 EXP SWAP1 DIV PUSH1 0xFF AND PUSH1 0x3 DUP2 GT ISZERO PUSH2 0x1C95 JUMPI PUSH2 0x1C94 PUSH2 0x3B2F JUMP JUMPDEST JUMPDEST PUSH1 0x3 DUP2 GT ISZERO PUSH2 0x1CA7 JUMPI PUSH2 0x1CA6 PUSH2 0x3B2F JUMP JUMPDEST JUMPDEST DUP2 MSTORE PUSH1 0x20 ADD PUSH1 0x1 DUP3 ADD DUP1 SLOAD PUSH2 0x1CBB SWAP1 PUSH2 0x448C JUMP JUMPDEST DUP1 PUSH1 0x1F ADD PUSH1 0x20 DUP1 SWAP2 DIV MUL PUSH1 0x20 ADD PUSH1 0x40 MLOAD SWAP1 DUP2 ADD PUSH1 0x40 MSTORE DUP1 SWAP3 SWAP2 SWAP1 DUP2 DUP2 MSTORE PUSH1 0x20 ADD DUP3 DUP1 SLOAD PUSH2 0x1CE7 SWAP1 PUSH2 0x448C JUMP JUMPDEST DUP1 ISZERO PUSH2 0x1D32 JUMPI DUP1 PUSH1 0x1F LT PUSH2 0x1D09 JUMPI PUSH2 0x100 DUP1 DUP4 SLOAD DIV MUL DUP4 MSTORE SWAP2 PUSH1 0x20 ADD SWAP2 PUSH2 0x1D32 JUMP JUMPDEST DUP3 ADD SWAP2 SWAP1 PUSH0 MSTORE PUSH1 0x20 PUSH0 KECCAK256 SWAP1 JUMPDEST DUP2 SLOAD DUP2 MSTORE SWAP1 PUSH1 0x1 ADD SWAP1 PUSH1 0x20 ADD DUP1 DUP4 GT PUSH2 0x1D15 JUMPI DUP3 SWAP1 SUB PUSH1 0x1F AND DUP3 ADD SWAP2 JUMPDEST POP POP POP POP POP DUP2 MSTORE PUSH1 0x20 ADD PUSH1 0x2 DUP3 ADD PUSH0 SWAP1 SLOAD SWAP1 PUSH2 0x100 EXP SWAP1 DIV PUSH20 0xFFFFFFFFFFFFFFFFFFFFFFFFFFFFFFFFFFFFFFFF AND PUSH20 0xFFFFFFFFFFFFFFFFFFFFFFFFFFFFFFFFFFFFFFFF AND PUSH20 0xFFFFFFFFFFFFFFFFFFFFFFFFFFFFFFFFFFFFFFFF AND DUP2 MSTORE PUSH1 0x20 ADD PUSH1 0x3 DUP3 ADD SLOAD DUP2 MSTORE PUSH1 0x20 ADD PUSH1 0x4 DUP3 ADD SLOAD DUP2 MSTORE PUSH1 0x20 ADD PUSH1 0x5 DUP3 ADD PUSH0 SWAP1 SLOAD SWAP1 PUSH2 0x100 EXP SWAP1 DIV PUSH2 0xFFFF AND PUSH2 0xFFFF AND PUSH2 0xFFFF AND DUP2 MSTORE PUSH1 0x20 ADD PUSH1 0x5 DUP3 ADD PUSH1 0x2 SWAP1 SLOAD SWAP1 PUSH2 0x100 EXP SWAP1 DIV PUSH2 0xFFFF AND PUSH2 0xFFFF AND PUSH2 0xFFFF AND DUP2 MSTORE PUSH1 0x20 ADD PUSH1 0x5 DUP3 ADD PUSH1 0x4 SWAP1 SLOAD SWAP1 PUSH2 0x100 EXP SWAP1 DIV PUSH2 0xFFFF AND PUSH2 0xFFFF AND PUSH2 0xFFFF AND DUP2 MSTORE PUSH1 0x20 ADD PUSH1 0x6 DUP3 ADD SLOAD DUP2 MSTORE PUSH1 0x20 ADD PUSH1 0x7 DUP3 ADD SLOAD DUP2 MSTORE PUSH1 0x20 ADD PUSH1 0x8 DUP3 ADD SLOAD DUP2 MSTORE PUSH1 0x20 ADD PUSH1 0x9 DUP3 ADD PUSH0 SWAP1 SLOAD SWAP1 PUSH2 0x100 EXP SWAP1 DIV PUSH20 0xFFFFFFFFFFFFFFFFFFFFFFFFFFFFFFFFFFFFFFFF AND PUSH20 0xFFFFFFFFFFFFFFFFFFFFFFFFFFFFFFFFFFFFFFFF AND PUSH20 0xFFFFFFFFFFFFFFFFFFFFFFFFFFFFFFFFFFFFFFFF AND DUP2 MSTORE POP POP SWAP1 POP PUSH1 0x2 PUSH1 0x3 DUP2 GT ISZERO PUSH2 0x1E8C JUMPI PUSH2 0x1E8B PUSH2 0x3B2F JUMP JUMPDEST JUMPDEST DUP3 PUSH0 ADD MLOAD PUSH1 0x3 DUP2 GT ISZERO PUSH2 0x1EA2 JUMPI PUSH2 0x1EA1 PUSH2 0x3B2F JUMP JUMPDEST JUMPDEST EQ DUP1 PUSH2 0x1ED4 JUMPI POP PUSH1 0x3 DUP1 DUP2 GT ISZERO PUSH2 0x1EBC JUMPI PUSH2 0x1EBB PUSH2 0x3B2F JUMP JUMPDEST JUMPDEST DUP2 PUSH0 ADD MLOAD PUSH1 0x3 DUP2 GT ISZERO PUSH2 0x1ED2 JUMPI PUSH2 0x1ED1 PUSH2 0x3B2F JUMP JUMPDEST JUMPDEST EQ JUMPDEST PUSH2 0x1F13 JUMPI PUSH1 0x40 MLOAD PUSH32 0x8C379A000000000000000000000000000000000000000000000000000000000 DUP2 MSTORE PUSH1 0x4 ADD PUSH2 0x1F0A SWAP1 PUSH2 0x52DE JUMP JUMPDEST PUSH1 0x40 MLOAD DUP1 SWAP2 SUB SWAP1 REVERT JUMPDEST PUSH0 PUSH1 0x5 DUP2 GT ISZERO PUSH2 0x1F26 JUMPI PUSH2 0x1F25 PUSH2 0x3B2F JUMP JUMPDEST JUMPDEST PUSH1 0x5 DUP7 PUSH1 0x40 MLOAD PUSH2 0x1F36 SWAP2 SWAP1 PUSH2 0x4323 JUMP JUMPDEST SWAP1 DUP2 MSTORE PUSH1 0x20 ADD PUSH1 0x40 MLOAD DUP1 SWAP2 SUB SWAP1 KECCAK256 PUSH0 CALLER PUSH20 0xFFFFFFFFFFFFFFFFFFFFFFFFFFFFFFFFFFFFFFFF AND PUSH20 0xFFFFFFFFFFFFFFFFFFFFFFFFFFFFFFFFFFFFFFFF AND DUP2 MSTORE PUSH1 0x20 ADD SWAP1 DUP2 MSTORE PUSH1 0x20 ADD PUSH0 KECCAK256 DUP6 PUSH1 0x40 MLOAD PUSH2 0x1F8D SWAP2 SWAP1 PUSH2 0x4323 JUMP JUMPDEST SWAP1 DUP2 MSTORE PUSH1 0x20 ADD PUSH1 0x40 MLOAD DUP1 SWAP2 SUB SWAP1 KECCAK256 PUSH1 0x1 ADD PUSH0 SWAP1 SLOAD SWAP1 PUSH2 0x100 EXP SWAP1 DIV PUSH1 0xFF AND PUSH1 0x5 DUP2 GT ISZERO PUSH2 0x1FBD JUMPI PUSH2 0x1FBC PUSH2 0x3B2F JUMP JUMPDEST JUMPDEST EQ PUSH2 0x1FFD JUMPI PUSH1 0x40 MLOAD PUSH32 0x8C379A000000000000000000000000000000000000000000000000000000000 DUP2 MSTORE PUSH1 0x4 ADD PUSH2 0x1FF4 SWAP1 PUSH2 0x5346 JUMP JUMPDEST PUSH1 0x40 MLOAD DUP1 SWAP2 SUB SWAP1 REVERT JUMPDEST DUP1 PUSH2 0x120 ADD MLOAD DUP4 LT ISZERO PUSH2 0x2045 JUMPI PUSH1 0x40 MLOAD PUSH32 0x8C379A000000000000000000000000000000000000000000000000000000000 DUP2 MSTORE PUSH1 0x4 ADD PUSH2 0x203C SWAP1 PUSH2 0x53AE JUMP JUMPDEST PUSH1 0x40 MLOAD DUP1 SWAP2 SUB SWAP1 REVERT JUMPDEST DUP1 PUSH2 0x140 ADD MLOAD DUP4 GT ISZERO PUSH2 0x208D JUMPI PUSH1 0x40 MLOAD PUSH32 0x8C379A000000000000000000000000000000000000000000000000000000000 DUP2 MSTORE PUSH1 0x4 ADD PUSH2 0x2084 SWAP1 PUSH2 0x5416 JUMP JUMPDEST PUSH1 0x40 MLOAD DUP1 SWAP2 SUB SWAP1 REVERT JUMPDEST PUSH0 DUP4 PUSH1 0x3 DUP8 PUSH1 0x40 MLOAD PUSH2 0x209F SWAP2 SWAP1 PUSH2 0x4323 JUMP JUMPDEST SWAP1 DUP2 MSTORE PUSH1 0x20 ADD PUSH1 0x40 MLOAD DUP1 SWAP2 SUB SWAP1 KECCAK256 PUSH1 0x4 ADD SLOAD PUSH2 0x20BB SWAP2 SWAP1 PUSH2 0x4D8F JUMP JUMPDEST SWAP1 POP DUP1 PUSH1 0x3 DUP8 PUSH1 0x40 MLOAD PUSH2 0x20CE SWAP2 SWAP1 PUSH2 0x4323 JUMP JUMPDEST SWAP1 DUP2 MSTORE PUSH1 0x20 ADD PUSH1 0x40 MLOAD DUP1 SWAP2 SUB SWAP1 KECCAK256 PUSH1 0x3 ADD SLOAD LT ISZERO PUSH2 0x2121 JUMPI PUSH1 0x40 MLOAD PUSH32 0x8C379A000000000000000000000000000000000000000000000000000000000 DUP2 MSTORE PUSH1 0x4 ADD PUSH2 0x2118 SWAP1 PUSH2 0x547E JUMP JUMPDEST PUSH1 0x40 MLOAD DUP1 SWAP2 SUB SWAP1 REVERT JUMPDEST PUSH1 0x40 MLOAD DUP1 PUSH1 0x40 ADD PUSH1 0x40 MSTORE DUP1 DUP6 DUP2 MSTORE PUSH1 0x20 ADD PUSH1 0x1 PUSH1 0x5 DUP2 GT ISZERO PUSH2 0x2146 JUMPI PUSH2 0x2145 PUSH2 0x3B2F JUMP JUMPDEST JUMPDEST DUP2 MSTORE POP PUSH1 0x5 DUP8 PUSH1 0x40 MLOAD PUSH2 0x2159 SWAP2 SWAP1 PUSH2 0x4323 JUMP JUMPDEST SWAP1 DUP2 MSTORE PUSH1 0x20 ADD PUSH1 0x40 MLOAD DUP1 SWAP2 SUB SWAP1 KECCAK256 PUSH0 CALLER PUSH20 0xFFFFFFFFFFFFFFFFFFFFFFFFFFFFFFFFFFFFFFFF AND PUSH20 0xFFFFFFFFFFFFFFFFFFFFFFFFFFFFFFFFFFFFFFFF AND DUP2 MSTORE PUSH1 0x20 ADD SWAP1 DUP2 MSTORE PUSH1 0x20 ADD PUSH0 KECCAK256 DUP7 PUSH1 0x40 MLOAD PUSH2 0x21B0 SWAP2 SWAP1 PUSH2 0x4323 JUMP JUMPDEST SWAP1 DUP2 MSTORE PUSH1 0x20 ADD PUSH1 0x40 MLOAD DUP1 SWAP2 SUB SWAP1 KECCAK256 PUSH0 DUP3 ADD MLOAD DUP2 PUSH0 ADD SSTORE PUSH1 0x20 DUP3 ADD MLOAD DUP2 PUSH1 0x1 ADD PUSH0 PUSH2 0x100 EXP DUP2 SLOAD DUP2 PUSH1 0xFF MUL NOT AND SWAP1 DUP4 PUSH1 0x5 DUP2 GT ISZERO PUSH2 0x21F0 JUMPI PUSH2 0x21EF PUSH2 0x3B2F JUMP JUMPDEST JUMPDEST MUL OR SWAP1 SSTORE POP SWAP1 POP POP DUP1 PUSH1 0x3 DUP8 PUSH1 0x40 MLOAD PUSH2 0x2209 SWAP2 SWAP1 PUSH2 0x4323 JUMP JUMPDEST SWAP1 DUP2 MSTORE PUSH1 0x20 ADD PUSH1 0x40 MLOAD DUP1 SWAP2 SUB SWAP1 KECCAK256 PUSH1 0x4 ADD DUP2 SWAP1 SSTORE POP PUSH32 0x40768EE67403A1B2C45E2EE8E9C7CB4283D12BD31F8126DE25122997535C1BB DUP6 CALLER DUP7 PUSH1 0x40 MLOAD PUSH2 0x2251 SWAP4 SWAP3 SWAP2 SWAP1 PUSH2 0x54E6 JUMP JUMPDEST PUSH1 0x40 MLOAD DUP1 SWAP2 SUB SWAP1 LOG1 POP POP POP POP POP POP JUMP JUMPDEST PUSH2 0x226A CALLER PUSH2 0x2D73 JUMP JUMPDEST PUSH1 0x3 DUP9 PUSH1 0x40 MLOAD PUSH2 0x227A SWAP2 SWAP1 PUSH2 0x4323 JUMP JUMPDEST SWAP1 DUP2 MSTORE PUSH1 0x20 ADD PUSH1 0x40 MLOAD DUP1 SWAP2 SUB SWAP1 KECCAK256 PUSH0 ADD PUSH0 SWAP1 SLOAD SWAP1 PUSH2 0x100 EXP SWAP1 DIV PUSH1 0xFF AND PUSH1 0x3 DUP2 GT ISZERO PUSH2 0x22A9 JUMPI PUSH2 0x22A8 PUSH2 0x3B2F JUMP JUMPDEST JUMPDEST PUSH0 PUSH1 0x3 DUP2 GT ISZERO PUSH2 0x22BC JUMPI PUSH2 0x22BB PUSH2 0x3B2F JUMP JUMPDEST JUMPDEST EQ PUSH2 0x22FC JUMPI PUSH1 0x40 MLOAD PUSH32 0x8C379A000000000000000000000000000000000000000000000000000000000 DUP2 MSTORE PUSH1 0x4 ADD PUSH2 0x22F3 SWAP1 PUSH2 0x557F JUMP JUMPDEST PUSH1 0x40 MLOAD DUP1 SWAP2 SUB SWAP1 REVERT JUMPDEST PUSH0 PUSH1 0x40 MLOAD DUP1 PUSH2 0x180 ADD PUSH1 0x40 MSTORE DUP1 PUSH1 0x1 PUSH1 0x3 DUP2 GT ISZERO PUSH2 0x231D JUMPI PUSH2 0x231C PUSH2 0x3B2F JUMP JUMPDEST JUMPDEST DUP2 MSTORE PUSH1 0x20 ADD DUP10 DUP2 MSTORE PUSH1 0x20 ADD DUP9 PUSH20 0xFFFFFFFFFFFFFFFFFFFFFFFFFFFFFFFFFFFFFFFF AND DUP2 MSTORE PUSH1 0x20 ADD PUSH0 DUP2 MSTORE PUSH1 0x20 ADD PUSH0 DUP2 MSTORE PUSH1 0x20 ADD PUSH0 PUSH2 0xFFFF AND DUP2 MSTORE PUSH1 0x20 ADD PUSH0 PUSH2 0xFFFF AND DUP2 MSTORE PUSH1 0x20 ADD DUP8 PUSH2 0xFFFF AND DUP2 MSTORE PUSH1 0x20 ADD DUP7 DUP2 MSTORE PUSH1 0x20 ADD DUP6 DUP2 MSTORE PUSH1 0x20 ADD DUP5 DUP2 MSTORE PUSH1 0x20 ADD DUP4 PUSH20 0xFFFFFFFFFFFFFFFFFFFFFFFFFFFFFFFFFFFFFFFF AND DUP2 MSTORE POP SWAP1 POP PUSH1 0x2 DUP1 DUP2 DUP2 SWAP1 SLOAD SWAP1 PUSH2 0x100 EXP SWAP1 DIV PUSH2 0xFFFF AND PUSH2 0x23B7 SWAP1 PUSH2 0x4436 JUMP JUMPDEST SWAP2 SWAP1 PUSH2 0x100 EXP DUP2 SLOAD DUP2 PUSH2 0xFFFF MUL NOT AND SWAP1 DUP4 PUSH2 0xFFFF AND MUL OR SWAP1 SSTORE POP DUP1 PUSH1 0x3 DUP11 PUSH1 0x40 MLOAD PUSH2 0x23E2 SWAP2 SWAP1 PUSH2 0x4323 JUMP JUMPDEST SWAP1 DUP2 MSTORE PUSH1 0x20 ADD PUSH1 0x40 MLOAD DUP1 SWAP2 SUB SWAP1 KECCAK256 PUSH0 DUP3 ADD MLOAD DUP2 PUSH0 ADD PUSH0 PUSH2 0x100 EXP DUP2 SLOAD DUP2 PUSH1 0xFF MUL NOT AND SWAP1 DUP4 PUSH1 0x3 DUP2 GT ISZERO PUSH2 0x2418 JUMPI PUSH2 0x2417 PUSH2 0x3B2F JUMP JUMPDEST JUMPDEST MUL OR SWAP1 SSTORE POP PUSH1 0x20 DUP3 ADD MLOAD DUP2 PUSH1 0x1 ADD SWAP1 DUP2 PUSH2 0x2432 SWAP2 SWAP1 PUSH2 0x4659 JUMP JUMPDEST POP PUSH1 0x40 DUP3 ADD MLOAD DUP2 PUSH1 0x2 ADD PUSH0 PUSH2 0x100 EXP DUP2 SLOAD DUP2 PUSH20 0xFFFFFFFFFFFFFFFFFFFFFFFFFFFFFFFFFFFFFFFF MUL NOT AND SWAP1 DUP4 PUSH20 0xFFFFFFFFFFFFFFFFFFFFFFFFFFFFFFFFFFFFFFFF AND MUL OR SWAP1 SSTORE POP PUSH1 0x60 DUP3 ADD MLOAD DUP2 PUSH1 0x3 ADD SSTORE PUSH1 0x80 DUP3 ADD MLOAD DUP2 PUSH1 0x4 ADD SSTORE PUSH1 0xA0 DUP3 ADD MLOAD DUP2 PUSH1 0x5 ADD PUSH0 PUSH2 0x100 EXP DUP2 SLOAD DUP2 PUSH2 0xFFFF MUL NOT AND SWAP1 DUP4 PUSH2 0xFFFF AND MUL OR SWAP1 SSTORE POP PUSH1 0xC0 DUP3 ADD MLOAD DUP2 PUSH1 0x5 ADD PUSH1 0x2 PUSH2 0x100 EXP DUP2 SLOAD DUP2 PUSH2 0xFFFF MUL NOT AND SWAP1 DUP4 PUSH2 0xFFFF AND MUL OR SWAP1 SSTORE POP PUSH1 0xE0 DUP3 ADD MLOAD DUP2 PUSH1 0x5 ADD PUSH1 0x4 PUSH2 0x100 EXP DUP2 SLOAD DUP2 PUSH2 0xFFFF MUL NOT AND SWAP1 DUP4 PUSH2 0xFFFF AND MUL OR SWAP1 SSTORE POP PUSH2 0x100 DUP3 ADD MLOAD DUP2 PUSH1 0x6 ADD SSTORE PUSH2 0x120 DUP3 ADD MLOAD DUP2 PUSH1 0x7 ADD SSTORE PUSH2 0x140 DUP3 ADD MLOAD DUP2 PUSH1 0x8 ADD SSTORE PUSH2 0x160 DUP3 ADD MLOAD DUP2 PUSH1 0x9 ADD PUSH0 PUSH2 0x100 EXP DUP2 SLOAD DUP2 PUSH20 0xFFFFFFFFFFFFFFFFFFFFFFFFFFFFFFFFFFFFFFFF MUL NOT AND SWAP1 DUP4 PUSH20 0xFFFFFFFFFFFFFFFFFFFFFFFFFFFFFFFFFFFFFFFF AND MUL OR SWAP1 SSTORE POP SWAP1 POP POP PUSH32 0x40768EE67403A1B2C45E2EE8E9C7CB4283D12BD31F8126DE25122997535C1BB DUP10 DUP9 PUSH0 PUSH1 0x40 MLOAD PUSH2 0x2593 SWAP4 SWAP3 SWAP2 SWAP1 PUSH2 0x55E7 JUMP JUMPDEST PUSH1 0x40 MLOAD DUP1 SWAP2 SUB SWAP1 LOG1 POP POP POP POP POP POP POP POP POP JUMP JUMPDEST PUSH1 0x4 DUP3 DUP1 MLOAD PUSH1 0x20 DUP2 ADD DUP3 ADD DUP1 MLOAD DUP5 DUP3 MSTORE PUSH1 0x20 DUP4 ADD PUSH1 0x20 DUP6 ADD KECCAK256 DUP2 DUP4 MSTORE DUP1 SWAP6 POP POP POP POP POP POP PUSH1 0x20 MSTORE DUP1 PUSH0 MSTORE PUSH1 0x40 PUSH0 KECCAK256 PUSH0 SWAP2 POP SWAP2 POP POP DUP1 PUSH0 ADD PUSH0 SWAP1 SLOAD SWAP1 PUSH2 0x100 EXP SWAP1 DIV PUSH1 0xFF AND SWAP1 DUP1 PUSH0 ADD PUSH1 0x1 SWAP1 SLOAD SWAP1 PUSH2 0x100 EXP SWAP1 DIV PUSH1 0xFF AND SWAP1 DUP1 PUSH1 0x1 ADD DUP1 SLOAD PUSH2 0x260C SWAP1 PUSH2 0x448C JUMP JUMPDEST DUP1 PUSH1 0x1F ADD PUSH1 0x20 DUP1 SWAP2 DIV MUL PUSH1 0x20 ADD PUSH1 0x40 MLOAD SWAP1 DUP2 ADD PUSH1 0x40 MSTORE DUP1 SWAP3 SWAP2 SWAP1 DUP2 DUP2 MSTORE PUSH1 0x20 ADD DUP3 DUP1 SLOAD PUSH2 0x2638 SWAP1 PUSH2 0x448C JUMP JUMPDEST DUP1 ISZERO PUSH2 0x2683 JUMPI DUP1 PUSH1 0x1F LT PUSH2 0x265A JUMPI PUSH2 0x100 DUP1 DUP4 SLOAD DIV MUL DUP4 MSTORE SWAP2 PUSH1 0x20 ADD SWAP2 PUSH2 0x2683 JUMP JUMPDEST DUP3 ADD SWAP2 SWAP1 PUSH0 MSTORE PUSH1 0x20 PUSH0 KECCAK256 SWAP1 JUMPDEST DUP2 SLOAD DUP2 MSTORE SWAP1 PUSH1 0x1 ADD SWAP1 PUSH1 0x20 ADD DUP1 DUP4 GT PUSH2 0x2666 JUMPI DUP3 SWAP1 SUB PUSH1 0x1F AND DUP3 ADD SWAP2 JUMPDEST POP POP POP POP POP SWAP1 DUP1 PUSH1 0x2 ADD SLOAD SWAP1 POP DUP5 JUMP JUMPDEST PUSH2 0x269D DUP5 CALLER PUSH2 0x2E54 JUMP JUMPDEST PUSH0 PUSH1 0x5 DUP6 PUSH1 0x40 MLOAD PUSH2 0x26AE SWAP2 SWAP1 PUSH2 0x4323 JUMP JUMPDEST SWAP1 DUP2 MSTORE PUSH1 0x20 ADD PUSH1 0x40 MLOAD DUP1 SWAP2 SUB SWAP1 KECCAK256 PUSH0 DUP6 PUSH20 0xFFFFFFFFFFFFFFFFFFFFFFFFFFFFFFFFFFFFFFFF AND PUSH20 0xFFFFFFFFFFFFFFFFFFFFFFFFFFFFFFFFFFFFFFFF AND DUP2 MSTORE PUSH1 0x20 ADD SWAP1 DUP2 MSTORE PUSH1 0x20 ADD PUSH0 KECCAK256 DUP4 PUSH1 0x40 MLOAD PUSH2 0x2705 SWAP2 SWAP1 PUSH2 0x4323 JUMP JUMPDEST SWAP1 DUP2 MSTORE PUSH1 0x20 ADD PUSH1 0x40 MLOAD DUP1 SWAP2 SUB SWAP1 KECCAK256 PUSH1 0x40 MLOAD DUP1 PUSH1 0x40 ADD PUSH1 0x40 MSTORE SWAP1 DUP2 PUSH0 DUP3 ADD SLOAD DUP2 MSTORE PUSH1 0x20 ADD PUSH1 0x1 DUP3 ADD PUSH0 SWAP1 SLOAD SWAP1 PUSH2 0x100 EXP SWAP1 DIV PUSH1 0xFF AND PUSH1 0x5 DUP2 GT ISZERO PUSH2 0x274B JUMPI PUSH2 0x274A PUSH2 0x3B2F JUMP JUMPDEST JUMPDEST PUSH1 0x5 DUP2 GT ISZERO PUSH2 0x275D JUMPI PUSH2 0x275C PUSH2 0x3B2F JUMP JUMPDEST JUMPDEST DUP2 MSTORE POP POP SWAP1 POP PUSH1 0x2 PUSH1 0x5 DUP2 GT ISZERO PUSH2 0x2777 JUMPI PUSH2 0x2776 PUSH2 0x3B2F JUMP JUMPDEST JUMPDEST DUP2 PUSH1 0x20 ADD MLOAD PUSH1 0x5 DUP2 GT ISZERO PUSH2 0x278E JUMPI PUSH2 0x278D PUSH2 0x3B2F JUMP JUMPDEST JUMPDEST EQ PUSH2 0x27CE JUMPI PUSH1 0x40 MLOAD PUSH32 0x8C379A000000000000000000000000000000000000000000000000000000000 DUP2 MSTORE PUSH1 0x4 ADD PUSH2 0x27C5 SWAP1 PUSH2 0x49DD JUMP JUMPDEST PUSH1 0x40 MLOAD DUP1 SWAP2 SUB SWAP1 REVERT JUMPDEST DUP2 DUP2 PUSH0 ADD MLOAD EQ PUSH2 0x2813 JUMPI PUSH1 0x40 MLOAD PUSH32 0x8C379A000000000000000000000000000000000000000000000000000000000 DUP2 MSTORE PUSH1 0x4 ADD PUSH2 0x280A SWAP1 PUSH2 0x4F42 JUMP JUMPDEST PUSH1 0x40 MLOAD DUP1 SWAP2 SUB SWAP1 REVERT JUMPDEST PUSH2 0x2820 DUP6 DUP6 DUP6 DUP5 PUSH0 PUSH2 0x3167 JUMP JUMPDEST POP POP POP POP POP JUMP JUMPDEST PUSH2 0x2830 CALLER PUSH2 0x2D73 JUMP JUMPDEST PUSH0 PUSH2 0x283C DUP5 DUP5 DUP5 PUSH2 0x3592 JUMP JUMPDEST SWAP1 POP PUSH1 0x1 PUSH1 0x5 DUP2 GT ISZERO PUSH2 0x2852 JUMPI PUSH2 0x2851 PUSH2 0x3B2F JUMP JUMPDEST JUMPDEST DUP2 PUSH1 0x20 ADD MLOAD PUSH1 0x5 DUP2 GT ISZERO PUSH2 0x2869 JUMPI PUSH2 0x2868 PUSH2 0x3B2F JUMP JUMPDEST JUMPDEST EQ PUSH2 0x28A9 JUMPI PUSH1 0x40 MLOAD PUSH32 0x8C379A000000000000000000000000000000000000000000000000000000000 DUP2 MSTORE PUSH1 0x4 ADD PUSH2 0x28A0 SWAP1 PUSH2 0x4EDA JUMP JUMPDEST PUSH1 0x40 MLOAD DUP1 SWAP2 SUB SWAP1 REVERT JUMPDEST PUSH1 0x3 PUSH1 0x5 DUP6 PUSH1 0x40 MLOAD PUSH2 0x28BB SWAP2 SWAP1 PUSH2 0x4323 JUMP JUMPDEST SWAP1 DUP2 MSTORE PUSH1 0x20 ADD PUSH1 0x40 MLOAD DUP1 SWAP2 SUB SWAP1 KECCAK256 PUSH0 DUP6 PUSH20 0xFFFFFFFFFFFFFFFFFFFFFFFFFFFFFFFFFFFFFFFF AND PUSH20 0xFFFFFFFFFFFFFFFFFFFFFFFFFFFFFFFFFFFFFFFF AND DUP2 MSTORE PUSH1 0x20 ADD SWAP1 DUP2 MSTORE PUSH1 0x20 ADD PUSH0 KECCAK256 DUP4 PUSH1 0x40 MLOAD PUSH2 0x2912 SWAP2 SWAP1 PUSH2 0x4323 JUMP JUMPDEST SWAP1 DUP2 MSTORE PUSH1 0x20 ADD PUSH1 0x40 MLOAD DUP1 SWAP2 SUB SWAP1 KECCAK256 PUSH1 0x1 ADD PUSH0 PUSH2 0x100 EXP DUP2 SLOAD DUP2 PUSH1 0xFF MUL NOT AND SWAP1 DUP4 PUSH1 0x5 DUP2 GT ISZERO PUSH2 0x2944 JUMPI PUSH2 0x2943 PUSH2 0x3B2F JUMP JUMPDEST JUMPDEST MUL OR SWAP1 SSTORE POP DUP1 PUSH0 ADD MLOAD PUSH1 0x3 DUP6 PUSH1 0x40 MLOAD PUSH2 0x295D SWAP2 SWAP1 PUSH2 0x4323 JUMP JUMPDEST SWAP1 DUP2 MSTORE PUSH1 0x20 ADD PUSH1 0x40 MLOAD DUP1 SWAP2 SUB SWAP1 KECCAK256 PUSH1 0x4 ADD PUSH0 DUP3 DUP3 SLOAD PUSH2 0x297C SWAP2 SWAP1 PUSH2 0x49FB JUMP JUMPDEST SWAP3 POP POP DUP2 SWAP1 SSTORE POP PUSH32 0x40768EE67403A1B2C45E2EE8E9C7CB4283D12BD31F8126DE25122997535C1BB DUP3 DUP5 DUP4 PUSH0 ADD MLOAD PUSH1 0x40 MLOAD PUSH2 0x29B9 SWAP4 SWAP3 SWAP2 SWAP1 PUSH2 0x5680 JUMP JUMPDEST PUSH1 0x40 MLOAD DUP1 SWAP2 SUB SWAP1 LOG1 POP POP POP POP JUMP JUMPDEST PUSH2 0x29D1 DUP3 CALLER PUSH2 0x2E54 JUMP JUMPDEST PUSH0 PUSH2 0x29DC DUP4 DUP4 PUSH2 0x2F98 JUMP JUMPDEST SWAP1 POP PUSH1 0x1 PUSH1 0x3 DUP2 GT ISZERO PUSH2 0x29F2 JUMPI PUSH2 0x29F1 PUSH2 0x3B2F JUMP JUMPDEST JUMPDEST DUP2 PUSH0 ADD MLOAD PUSH1 0x3 DUP2 GT ISZERO PUSH2 0x2A08 JUMPI PUSH2 0x2A07 PUSH2 0x3B2F JUMP JUMPDEST JUMPDEST EQ PUSH2 0x2A48 JUMPI PUSH1 0x40 MLOAD PUSH32 0x8C379A000000000000000000000000000000000000000000000000000000000 DUP2 MSTORE PUSH1 0x4 ADD PUSH2 0x2A3F SWAP1 PUSH2 0x5043 JUMP JUMPDEST PUSH1 0x40 MLOAD DUP1 SWAP2 SUB SWAP1 REVERT JUMPDEST PUSH1 0x2 PUSH1 0x4 DUP5 PUSH1 0x40 MLOAD PUSH2 0x2A5A SWAP2 SWAP1 PUSH2 0x4323 JUMP JUMPDEST SWAP1 DUP2 MSTORE PUSH1 0x20 ADD PUSH1 0x40 MLOAD DUP1 SWAP2 SUB SWAP1 KECCAK256 PUSH0 DUP5 PUSH20 0xFFFFFFFFFFFFFFFFFFFFFFFFFFFFFFFFFFFFFFFF AND PUSH20 0xFFFFFFFFFFFFFFFFFFFFFFFFFFFFFFFFFFFFFFFF AND DUP2 MSTORE PUSH1 0x20 ADD SWAP1 DUP2 MSTORE PUSH1 0x20 ADD PUSH0 KECCAK256 PUSH0 ADD PUSH0 PUSH2 0x100 EXP DUP2 SLOAD DUP2 PUSH1 0xFF MUL NOT AND SWAP1 DUP4 PUSH1 0x3 DUP2 GT ISZERO PUSH2 0x2AC6 JUMPI PUSH2 0x2AC5 PUSH2 0x3B2F JUMP JUMPDEST JUMPDEST MUL OR SWAP1 SSTORE POP PUSH32 0x40768EE67403A1B2C45E2EE8E9C7CB4283D12BD31F8126DE25122997535C1BB DUP4 DUP4 PUSH0 PUSH1 0x40 MLOAD PUSH2 0x2AFE SWAP4 SWAP3 SWAP2 SWAP1 PUSH2 0x5719 JUMP JUMPDEST PUSH1 0x40 MLOAD DUP1 SWAP2 SUB SWAP1 LOG1 POP POP POP JUMP JUMPDEST PUSH1 0x2 PUSH0 SWAP1 SLOAD SWAP1 PUSH2 0x100 EXP SWAP1 DIV PUSH2 0xFFFF AND DUP2 JUMP JUMPDEST PUSH2 0x2B27 CALLER PUSH2 0x2D73 JUMP JUMPDEST PUSH0 PUSH2 0x2B32 DUP4 DUP4 PUSH2 0x2F98 JUMP JUMPDEST SWAP1 POP PUSH1 0x2 PUSH1 0x3 DUP2 GT ISZERO PUSH2 0x2B48 JUMPI PUSH2 0x2B47 PUSH2 0x3B2F JUMP JUMPDEST JUMPDEST DUP2 PUSH0 ADD MLOAD PUSH1 0x3 DUP2 GT ISZERO PUSH2 0x2B5E JUMPI PUSH2 0x2B5D PUSH2 0x3B2F JUMP JUMPDEST JUMPDEST EQ DUP1 PUSH2 0x2B91 JUMPI POP PUSH1 0x1 PUSH1 0x3 DUP2 GT ISZERO PUSH2 0x2B79 JUMPI PUSH2 0x2B78 PUSH2 0x3B2F JUMP JUMPDEST JUMPDEST DUP2 PUSH0 ADD MLOAD PUSH1 0x3 DUP2 GT ISZERO PUSH2 0x2B8F JUMPI PUSH2 0x2B8E PUSH2 0x3B2F JUMP JUMPDEST JUMPDEST EQ JUMPDEST PUSH2 0x2BD0 JUMPI PUSH1 0x40 MLOAD PUSH32 0x8C379A000000000000000000000000000000000000000000000000000000000 DUP2 MSTORE PUSH1 0x4 ADD PUSH2 0x2BC7 SWAP1 PUSH2 0x5043 JUMP JUMPDEST PUSH1 0x40 MLOAD DUP1 SWAP2 SUB SWAP1 REVERT JUMPDEST PUSH1 0x4 DUP4 PUSH1 0x40 MLOAD PUSH2 0x2BE0 SWAP2 SWAP1 PUSH2 0x4323 JUMP JUMPDEST SWAP1 DUP2 MSTORE PUSH1 0x20 ADD PUSH1 0x40 MLOAD DUP1 SWAP2 SUB SWAP1 KECCAK256 PUSH0 DUP4 PUSH20 0xFFFFFFFFFFFFFFFFFFFFFFFFFFFFFFFFFFFFFFFF AND PUSH20 0xFFFFFFFFFFFFFFFFFFFFFFFFFFFFFFFFFFFFFFFF AND DUP2 MSTORE PUSH1 0x20 ADD SWAP1 DUP2 MSTORE PUSH1 0x20 ADD PUSH0 KECCAK256 PUSH0 DUP1 DUP3 ADD PUSH0 PUSH2 0x100 EXP DUP2 SLOAD SWAP1 PUSH1 0xFF MUL NOT AND SWAP1 SSTORE PUSH0 DUP3 ADD PUSH1 0x1 PUSH2 0x100 EXP DUP2 SLOAD SWAP1 PUSH1 0xFF MUL NOT AND SWAP1 SSTORE PUSH1 0x1 DUP3 ADD PUSH0 PUSH2 0x2C5E SWAP2 SWAP1 PUSH2 0x382D JUMP JUMPDEST PUSH1 0x2 DUP3 ADD PUSH0 SWAP1 SSTORE POP POP PUSH0 PUSH1 0x3 DUP5 PUSH1 0x40 MLOAD PUSH2 0x2C78 SWAP2 SWAP1 PUSH2 0x4323 JUMP JUMPDEST SWAP1 DUP2 MSTORE PUSH1 0x20 ADD PUSH1 0x40 MLOAD DUP1 SWAP2 SUB SWAP1 KECCAK256 PUSH1 0x5 ADD PUSH0 DUP2 DUP2 SWAP1 SLOAD SWAP1 PUSH2 0x100 EXP SWAP1 DIV PUSH2 0xFFFF AND PUSH2 0x2CA2 SWAP1 PUSH2 0x4BFF JUMP JUMPDEST SWAP2 SWAP1 PUSH2 0x100 EXP DUP2 SLOAD DUP2 PUSH2 0xFFFF MUL NOT AND SWAP1 DUP4 PUSH2 0xFFFF AND MUL OR SWAP1 SSTORE SWAP1 POP PUSH32 0x40768EE67403A1B2C45E2EE8E9C7CB4283D12BD31F8126DE25122997535C1BB DUP5 DUP5 DUP4 PUSH1 0x40 MLOAD PUSH2 0x2CF0 SWAP4 SWAP3 SWAP2 SWAP1 PUSH2 0x57B2 JUMP JUMPDEST PUSH1 0x40 MLOAD DUP1 SWAP2 SUB SWAP1 LOG1 POP POP POP POP JUMP JUMPDEST PUSH1 0x1 PUSH1 0x20 MSTORE DUP1 PUSH0 MSTORE PUSH1 0x40 PUSH0 KECCAK256 PUSH0 SWAP2 POP SLOAD SWAP1 PUSH2 0x100 EXP SWAP1 DIV PUSH1 0xFF AND DUP2 JUMP JUMPDEST PUSH2 0x2D24 CALLER PUSH2 0x2D73 JUMP JUMPDEST PUSH1 0x1 PUSH0 DUP3 PUSH20 0xFFFFFFFFFFFFFFFFFFFFFFFFFFFFFFFFFFFFFFFF AND PUSH20 0xFFFFFFFFFFFFFFFFFFFFFFFFFFFFFFFFFFFFFFFF AND DUP2 MSTORE PUSH1 0x20 ADD SWAP1 DUP2 MSTORE PUSH1 0x20 ADD PUSH0 KECCAK256 PUSH0 PUSH2 0x100 EXP DUP2 SLOAD SWAP1 PUSH1 0xFF MUL NOT AND SWAP1 SSTORE POP JUMP JUMPDEST PUSH0 DUP1 SLOAD SWAP1 PUSH2 0x100 EXP SWAP1 DIV PUSH20 0xFFFFFFFFFFFFFFFFFFFFFFFFFFFFFFFFFFFFFFFF AND PUSH20 0xFFFFFFFFFFFFFFFFFFFFFFFFFFFFFFFFFFFFFFFF AND DUP2 PUSH20 0xFFFFFFFFFFFFFFFFFFFFFFFFFFFFFFFFFFFFFFFF AND EQ DUP1 PUSH2 0x2E12 JUMPI POP PUSH1 0x1 PUSH0 DUP3 PUSH20 0xFFFFFFFFFFFFFFFFFFFFFFFFFFFFFFFFFFFFFFFF AND PUSH20 0xFFFFFFFFFFFFFFFFFFFFFFFFFFFFFFFFFFFFFFFF AND DUP2 MSTORE PUSH1 0x20 ADD SWAP1 DUP2 MSTORE PUSH1 0x20 ADD PUSH0 KECCAK256 PUSH0 SWAP1 SLOAD SWAP1 PUSH2 0x100 EXP SWAP1 DIV PUSH1 0xFF AND JUMPDEST PUSH2 0x2E51 JUMPI PUSH1 0x40 MLOAD PUSH32 0x8C379A000000000000000000000000000000000000000000000000000000000 DUP2 MSTORE PUSH1 0x4 ADD PUSH2 0x2E48 SWAP1 PUSH2 0x584B JUMP JUMPDEST PUSH1 0x40 MLOAD DUP1 SWAP2 SUB SWAP1 REVERT JUMPDEST POP JUMP JUMPDEST DUP1 PUSH20 0xFFFFFFFFFFFFFFFFFFFFFFFFFFFFFFFFFFFFFFFF AND PUSH1 0x3 DUP4 PUSH1 0x40 MLOAD PUSH2 0x2E7B SWAP2 SWAP1 PUSH2 0x4323 JUMP JUMPDEST SWAP1 DUP2 MSTORE PUSH1 0x20 ADD PUSH1 0x40 MLOAD DUP1 SWAP2 SUB SWAP1 KECCAK256 PUSH1 0x2 ADD PUSH0 SWAP1 SLOAD SWAP1 PUSH2 0x100 EXP SWAP1 DIV PUSH20 0xFFFFFFFFFFFFFFFFFFFFFFFFFFFFFFFFFFFFFFFF AND PUSH20 0xFFFFFFFFFFFFFFFFFFFFFFFFFFFFFFFFFFFFFFFF AND EQ PUSH2 0x2F02 JUMPI PUSH1 0x40 MLOAD PUSH32 0x8C379A000000000000000000000000000000000000000000000000000000000 DUP2 MSTORE PUSH1 0x4 ADD PUSH2 0x2EF9 SWAP1 PUSH2 0x58B3 JUMP JUMPDEST PUSH1 0x40 MLOAD DUP1 SWAP2 SUB SWAP1 REVERT JUMPDEST PUSH1 0x3 DUP1 DUP2 GT ISZERO PUSH2 0x2F15 JUMPI PUSH2 0x2F14 PUSH2 0x3B2F JUMP JUMPDEST JUMPDEST PUSH1 0x3 DUP4 PUSH1 0x40 MLOAD PUSH2 0x2F25 SWAP2 SWAP1 PUSH2 0x4323 JUMP JUMPDEST SWAP1 DUP2 MSTORE PUSH1 0x20 ADD PUSH1 0x40 MLOAD DUP1 SWAP2 SUB SWAP1 KECCAK256 PUSH0 ADD PUSH0 SWAP1 SLOAD SWAP1 PUSH2 0x100 EXP SWAP1 DIV PUSH1 0xFF AND PUSH1 0x3 DUP2 GT ISZERO PUSH2 0x2F54 JUMPI PUSH2 0x2F53 PUSH2 0x3B2F JUMP JUMPDEST JUMPDEST SUB PUSH2 0x2F94 JUMPI PUSH1 0x40 MLOAD PUSH32 0x8C379A000000000000000000000000000000000000000000000000000000000 DUP2 MSTORE PUSH1 0x4 ADD PUSH2 0x2F8B SWAP1 PUSH2 0x4B79 JUMP JUMPDEST PUSH1 0x40 MLOAD DUP1 SWAP2 SUB SWAP1 REVERT JUMPDEST POP POP JUMP JUMPDEST PUSH2 0x2FA0 PUSH2 0x386A JUMP JUMPDEST PUSH0 PUSH1 0x4 DUP5 PUSH1 0x40 MLOAD PUSH2 0x2FB1 SWAP2 SWAP1 PUSH2 0x4323 JUMP JUMPDEST SWAP1 DUP2 MSTORE PUSH1 0x20 ADD PUSH1 0x40 MLOAD DUP1 SWAP2 SUB SWAP1 KECCAK256 PUSH0 DUP5 PUSH20 0xFFFFFFFFFFFFFFFFFFFFFFFFFFFFFFFFFFFFFFFF AND PUSH20 0xFFFFFFFFFFFFFFFFFFFFFFFFFFFFFFFFFFFFFFFF AND DUP2 MSTORE PUSH1 0x20 ADD SWAP1 DUP2 MSTORE PUSH1 0x20 ADD PUSH0 KECCAK256 PUSH1 0x40 MLOAD DUP1 PUSH1 0x80 ADD PUSH1 0x40 MSTORE SWAP1 DUP2 PUSH0 DUP3 ADD PUSH0 SWAP1 SLOAD SWAP1 PUSH2 0x100 EXP SWAP1 DIV PUSH1 0xFF AND PUSH1 0x3 DUP2 GT ISZERO PUSH2 0x3028 JUMPI PUSH2 0x3027 PUSH2 0x3B2F JUMP JUMPDEST JUMPDEST PUSH1 0x3 DUP2 GT ISZERO PUSH2 0x303A JUMPI PUSH2 0x3039 PUSH2 0x3B2F JUMP JUMPDEST JUMPDEST DUP2 MSTORE PUSH1 0x20 ADD PUSH0 DUP3 ADD PUSH1 0x1 SWAP1 SLOAD SWAP1 PUSH2 0x100 EXP SWAP1 DIV PUSH1 0xFF AND ISZERO ISZERO ISZERO ISZERO DUP2 MSTORE PUSH1 0x20 ADD PUSH1 0x1 DUP3 ADD DUP1 SLOAD PUSH2 0x3068 SWAP1 PUSH2 0x448C JUMP JUMPDEST DUP1 PUSH1 0x1F ADD PUSH1 0x20 DUP1 SWAP2 DIV MUL PUSH1 0x20 ADD PUSH1 0x40 MLOAD SWAP1 DUP2 ADD PUSH1 0x40 MSTORE DUP1 SWAP3 SWAP2 SWAP1 DUP2 DUP2 MSTORE PUSH1 0x20 ADD DUP3 DUP1 SLOAD PUSH2 0x3094 SWAP1 PUSH2 0x448C JUMP JUMPDEST DUP1 ISZERO PUSH2 0x30DF JUMPI DUP1 PUSH1 0x1F LT PUSH2 0x30B6 JUMPI PUSH2 0x100 DUP1 DUP4 SLOAD DIV MUL DUP4 MSTORE SWAP2 PUSH1 0x20 ADD SWAP2 PUSH2 0x30DF JUMP JUMPDEST DUP3 ADD SWAP2 SWAP1 PUSH0 MSTORE PUSH1 0x20 PUSH0 KECCAK256 SWAP1 JUMPDEST DUP2 SLOAD DUP2 MSTORE SWAP1 PUSH1 0x1 ADD SWAP1 PUSH1 0x20 ADD DUP1 DUP4 GT PUSH2 0x30C2 JUMPI DUP3 SWAP1 SUB PUSH1 0x1F AND DUP3 ADD SWAP2 JUMPDEST POP POP POP POP POP DUP2 MSTORE PUSH1 0x20 ADD PUSH1 0x2 DUP3 ADD SLOAD DUP2 MSTORE POP POP SWAP1 POP PUSH0 PUSH1 0x3 DUP2 GT ISZERO PUSH2 0x3107 JUMPI PUSH2 0x3106 PUSH2 0x3B2F JUMP JUMPDEST JUMPDEST DUP2 PUSH0 ADD MLOAD PUSH1 0x3 DUP2 GT ISZERO PUSH2 0x311D JUMPI PUSH2 0x311C PUSH2 0x3B2F JUMP JUMPDEST JUMPDEST SUB PUSH2 0x315D JUMPI PUSH1 0x40 MLOAD PUSH32 0x8C379A000000000000000000000000000000000000000000000000000000000 DUP2 MSTORE PUSH1 0x4 ADD PUSH2 0x3154 SWAP1 PUSH2 0x591B JUMP JUMPDEST PUSH1 0x40 MLOAD DUP1 SWAP2 SUB SWAP1 REVERT JUMPDEST DUP1 SWAP2 POP POP SWAP3 SWAP2 POP POP JUMP JUMPDEST PUSH0 PUSH2 0x2710 PUSH1 0x3 DUP8 PUSH1 0x40 MLOAD PUSH2 0x317B SWAP2 SWAP1 PUSH2 0x4323 JUMP JUMPDEST SWAP1 DUP2 MSTORE PUSH1 0x20 ADD PUSH1 0x40 MLOAD DUP1 SWAP2 SUB SWAP1 KECCAK256 PUSH1 0x5 ADD PUSH1 0x4 SWAP1 SLOAD SWAP1 PUSH2 0x100 EXP SWAP1 DIV PUSH2 0xFFFF AND PUSH2 0xFFFF AND DUP5 PUSH0 ADD MLOAD PUSH2 0x31AD SWAP2 SWAP1 PUSH2 0x5939 JUMP JUMPDEST PUSH2 0x31B7 SWAP2 SWAP1 PUSH2 0x597A JUMP JUMPDEST SWAP1 POP PUSH1 0x3 DUP7 PUSH1 0x40 MLOAD PUSH2 0x31C9 SWAP2 SWAP1 PUSH2 0x4323 JUMP JUMPDEST SWAP1 DUP2 MSTORE PUSH1 0x20 ADD PUSH1 0x40 MLOAD DUP1 SWAP2 SUB SWAP1 KECCAK256 PUSH1 0x6 ADD SLOAD DUP2 GT ISZERO PUSH2 0x3207 JUMPI PUSH1 0x3 DUP7 PUSH1 0x40 MLOAD PUSH2 0x31F2 SWAP2 SWAP1 PUSH2 0x4323 JUMP JUMPDEST SWAP1 DUP2 MSTORE PUSH1 0x20 ADD PUSH1 0x40 MLOAD DUP1 SWAP2 SUB SWAP1 KECCAK256 PUSH1 0x6 ADD SLOAD SWAP1 POP JUMPDEST PUSH0 PUSH1 0x3 DUP8 PUSH1 0x40 MLOAD PUSH2 0x3218 SWAP2 SWAP1 PUSH2 0x4323 JUMP JUMPDEST SWAP1 DUP2 MSTORE PUSH1 0x20 ADD PUSH1 0x40 MLOAD DUP1 SWAP2 SUB SWAP1 KECCAK256 PUSH1 0x9 ADD PUSH0 SWAP1 SLOAD SWAP1 PUSH2 0x100 EXP SWAP1 DIV PUSH20 0xFFFFFFFFFFFFFFFFFFFFFFFFFFFFFFFFFFFFFFFF AND SWAP1 POP DUP3 ISZERO PUSH2 0x32F1 JUMPI DUP1 PUSH20 0xFFFFFFFFFFFFFFFFFFFFFFFFFFFFFFFFFFFFFFFF AND PUSH4 0xA9059CBB PUSH0 DUP1 SLOAD SWAP1 PUSH2 0x100 EXP SWAP1 DIV PUSH20 0xFFFFFFFFFFFFFFFFFFFFFFFFFFFFFFFFFFFFFFFF AND DUP5 PUSH1 0x40 MLOAD DUP4 PUSH4 0xFFFFFFFF AND PUSH1 0xE0 SHL DUP2 MSTORE PUSH1 0x4 ADD PUSH2 0x32AB SWAP3 SWAP2 SWAP1 PUSH2 0x59AA JUMP JUMPDEST PUSH1 0x20 PUSH1 0x40 MLOAD DUP1 DUP4 SUB DUP2 PUSH0 DUP8 GAS CALL ISZERO DUP1 ISZERO PUSH2 0x32C7 JUMPI RETURNDATASIZE PUSH0 DUP1 RETURNDATACOPY RETURNDATASIZE PUSH0 REVERT JUMPDEST POP POP POP POP PUSH1 0x40 MLOAD RETURNDATASIZE PUSH1 0x1F NOT PUSH1 0x1F DUP3 ADD AND DUP3 ADD DUP1 PUSH1 0x40 MSTORE POP DUP2 ADD SWAP1 PUSH2 0x32EB SWAP2 SWAP1 PUSH2 0x59E5 JUMP JUMPDEST POP PUSH2 0x33AE JUMP JUMPDEST DUP1 PUSH20 0xFFFFFFFFFFFFFFFFFFFFFFFFFFFFFFFFFFFFFFFF AND PUSH4 0xA9059CBB PUSH1 0x3 DUP10 PUSH1 0x40 MLOAD PUSH2 0x331D SWAP2 SWAP1 PUSH2 0x4323 JUMP JUMPDEST SWAP1 DUP2 MSTORE PUSH1 0x20 ADD PUSH1 0x40 MLOAD DUP1 SWAP2 SUB SWAP1 KECCAK256 PUSH1 0x2 ADD PUSH0 SWAP1 SLOAD SWAP1 PUSH2 0x100 EXP SWAP1 DIV PUSH20 0xFFFFFFFFFFFFFFFFFFFFFFFFFFFFFFFFFFFFFFFF AND DUP5 PUSH1 0x40 MLOAD DUP4 PUSH4 0xFFFFFFFF AND PUSH1 0xE0 SHL DUP2 MSTORE PUSH1 0x4 ADD PUSH2 0x336C SWAP3 SWAP2 SWAP1 PUSH2 0x59AA JUMP JUMPDEST PUSH1 0x20 PUSH1 0x40 MLOAD DUP1 DUP4 SUB DUP2 PUSH0 DUP8 GAS CALL ISZERO DUP1 ISZERO PUSH2 0x3388 JUMPI RETURNDATASIZE PUSH0 DUP1 RETURNDATACOPY RETURNDATASIZE PUSH0 REVERT JUMPDEST POP POP POP POP PUSH1 0x40 MLOAD RETURNDATASIZE PUSH1 0x1F NOT PUSH1 0x1F DUP3 ADD AND DUP3 ADD DUP1 PUSH1 0x40 MSTORE POP DUP2 ADD SWAP1 PUSH2 0x33AC SWAP2 SWAP1 PUSH2 0x59E5 JUMP JUMPDEST POP JUMPDEST DUP1 PUSH20 0xFFFFFFFFFFFFFFFFFFFFFFFFFFFFFFFFFFFFFFFF AND PUSH4 0xA9059CBB DUP8 DUP5 DUP8 PUSH0 ADD MLOAD PUSH2 0x33DA SWAP2 SWAP1 PUSH2 0x49FB JUMP JUMPDEST PUSH1 0x40 MLOAD DUP4 PUSH4 0xFFFFFFFF AND PUSH1 0xE0 SHL DUP2 MSTORE PUSH1 0x4 ADD PUSH2 0x33F7 SWAP3 SWAP2 SWAP1 PUSH2 0x59AA JUMP JUMPDEST PUSH1 0x20 PUSH1 0x40 MLOAD DUP1 DUP4 SUB DUP2 PUSH0 DUP8 GAS CALL ISZERO DUP1 ISZERO PUSH2 0x3413 JUMPI RETURNDATASIZE PUSH0 DUP1 RETURNDATACOPY RETURNDATASIZE PUSH0 REVERT JUMPDEST POP POP POP POP PUSH1 0x40 MLOAD RETURNDATASIZE PUSH1 0x1F NOT PUSH1 0x1F DUP3 ADD AND DUP3 ADD DUP1 PUSH1 0x40 MSTORE POP DUP2 ADD SWAP1 PUSH2 0x3437 SWAP2 SWAP1 PUSH2 0x59E5 JUMP JUMPDEST POP PUSH1 0x5 DUP1 DUP9 PUSH1 0x40 MLOAD PUSH2 0x3449 SWAP2 SWAP1 PUSH2 0x4323 JUMP JUMPDEST SWAP1 DUP2 MSTORE PUSH1 0x20 ADD PUSH1 0x40 MLOAD DUP1 SWAP2 SUB SWAP1 KECCAK256 PUSH0 DUP9 PUSH20 0xFFFFFFFFFFFFFFFFFFFFFFFFFFFFFFFFFFFFFFFF AND PUSH20 0xFFFFFFFFFFFFFFFFFFFFFFFFFFFFFFFFFFFFFFFF AND DUP2 MSTORE PUSH1 0x20 ADD SWAP1 DUP2 MSTORE PUSH1 0x20 ADD PUSH0 KECCAK256 DUP7 PUSH1 0x40 MLOAD PUSH2 0x34A0 SWAP2 SWAP1 PUSH2 0x4323 JUMP JUMPDEST SWAP1 DUP2 MSTORE PUSH1 0x20 ADD PUSH1 0x40 MLOAD DUP1 SWAP2 SUB SWAP1 KECCAK256 PUSH1 0x1 ADD PUSH0 PUSH2 0x100 EXP DUP2 SLOAD DUP2 PUSH1 0xFF MUL NOT AND SWAP1 DUP4 PUSH1 0x5 DUP2 GT ISZERO PUSH2 0x34D2 JUMPI PUSH2 0x34D1 PUSH2 0x3B2F JUMP JUMPDEST JUMPDEST MUL OR SWAP1 SSTORE POP DUP4 PUSH0 ADD MLOAD PUSH1 0x3 DUP9 PUSH1 0x40 MLOAD PUSH2 0x34EB SWAP2 SWAP1 PUSH2 0x4323 JUMP JUMPDEST SWAP1 DUP2 MSTORE PUSH1 0x20 ADD PUSH1 0x40 MLOAD DUP1 SWAP2 SUB SWAP1 KECCAK256 PUSH1 0x3 ADD PUSH0 DUP3 DUP3 SLOAD PUSH2 0x350A SWAP2 SWAP1 PUSH2 0x49FB JUMP JUMPDEST SWAP3 POP POP DUP2 SWAP1 SSTORE POP DUP4 PUSH0 ADD MLOAD PUSH1 0x3 DUP9 PUSH1 0x40 MLOAD PUSH2 0x3525 SWAP2 SWAP1 PUSH2 0x4323 JUMP JUMPDEST SWAP1 DUP2 MSTORE PUSH1 0x20 ADD PUSH1 0x40 MLOAD DUP1 SWAP2 SUB SWAP1 KECCAK256 PUSH1 0x4 ADD PUSH0 DUP3 DUP3 SLOAD PUSH2 0x3544 SWAP2 SWAP1 PUSH2 0x49FB JUMP JUMPDEST SWAP3 POP POP DUP2 SWAP1 SSTORE POP PUSH32 0x40768EE67403A1B2C45E2EE8E9C7CB4283D12BD31F8126DE25122997535C1BB DUP6 DUP8 DUP7 PUSH0 ADD MLOAD PUSH1 0x40 MLOAD PUSH2 0x3581 SWAP4 SWAP3 SWAP2 SWAP1 PUSH2 0x5A5A JUMP JUMPDEST PUSH1 0x40 MLOAD DUP1 SWAP2 SUB SWAP1 LOG1 POP POP POP POP POP POP POP JUMP JUMPDEST PUSH2 0x359A PUSH2 0x38A3 JUMP JUMPDEST PUSH0 PUSH1 0x5 DUP6 PUSH1 0x40 MLOAD PUSH2 0x35AB SWAP2 SWAP1 PUSH2 0x4323 JUMP JUMPDEST SWAP1 DUP2 MSTORE PUSH1 0x20 ADD PUSH1 0x40 MLOAD DUP1 SWAP2 SUB SWAP1 KECCAK256 PUSH0 DUP6 PUSH20 0xFFFFFFFFFFFFFFFFFFFFFFFFFFFFFFFFFFFFFFFF AND PUSH20 0xFFFFFFFFFFFFFFFFFFFFFFFFFFFFFFFFFFFFFFFF AND DUP2 MSTORE PUSH1 0x20 ADD SWAP1 DUP2 MSTORE PUSH1 0x20 ADD PUSH0 KECCAK256 DUP4 PUSH1 0x40 MLOAD PUSH2 0x3602 SWAP2 SWAP1 PUSH2 0x4323 JUMP JUMPDEST SWAP1 DUP2 MSTORE PUSH1 0x20 ADD PUSH1 0x40 MLOAD DUP1 SWAP2 SUB SWAP1 KECCAK256 PUSH1 0x40 MLOAD DUP1 PUSH1 0x40 ADD PUSH1 0x40 MSTORE SWAP1 DUP2 PUSH0 DUP3 ADD SLOAD DUP2 MSTORE PUSH1 0x20 ADD PUSH1 0x1 DUP3 ADD PUSH0 SWAP1 SLOAD SWAP1 PUSH2 0x100 EXP SWAP1 DIV PUSH1 0xFF AND PUSH1 0x5 DUP2 GT ISZERO PUSH2 0x3648 JUMPI PUSH2 0x3647 PUSH2 0x3B2F JUMP JUMPDEST JUMPDEST PUSH1 0x5 DUP2 GT ISZERO PUSH2 0x365A JUMPI PUSH2 0x3659 PUSH2 0x3B2F JUMP JUMPDEST JUMPDEST DUP2 MSTORE POP POP SWAP1 POP PUSH0 PUSH1 0x5 DUP2 GT ISZERO PUSH2 0x3673 JUMPI PUSH2 0x3672 PUSH2 0x3B2F JUMP JUMPDEST JUMPDEST DUP2 PUSH1 0x20 ADD MLOAD PUSH1 0x5 DUP2 GT ISZERO PUSH2 0x368A JUMPI PUSH2 0x3689 PUSH2 0x3B2F JUMP JUMPDEST JUMPDEST SUB PUSH2 0x36CA JUMPI PUSH1 0x40 MLOAD PUSH32 0x8C379A000000000000000000000000000000000000000000000000000000000 DUP2 MSTORE PUSH1 0x4 ADD PUSH2 0x36C1 SWAP1 PUSH2 0x5AF3 JUMP JUMPDEST PUSH1 0x40 MLOAD DUP1 SWAP2 SUB SWAP1 REVERT JUMPDEST DUP1 SWAP2 POP POP SWAP4 SWAP3 POP POP POP JUMP JUMPDEST DUP1 PUSH20 0xFFFFFFFFFFFFFFFFFFFFFFFFFFFFFFFFFFFFFFFF AND PUSH1 0x3 DUP4 PUSH1 0x40 MLOAD PUSH2 0x36FC SWAP2 SWAP1 PUSH2 0x4323 JUMP JUMPDEST SWAP1 DUP2 MSTORE PUSH1 0x20 ADD PUSH1 0x40 MLOAD DUP1 SWAP2 SUB SWAP1 KECCAK256 PUSH1 0x2 ADD PUSH0 SWAP1 SLOAD SWAP1 PUSH2 0x100 EXP SWAP1 DIV PUSH20 0xFFFFFFFFFFFFFFFFFFFFFFFFFFFFFFFFFFFFFFFF AND PUSH20 0xFFFFFFFFFFFFFFFFFFFFFFFFFFFFFFFFFFFFFFFF AND EQ DUP1 PUSH2 0x3799 JUMPI POP PUSH0 DUP1 SLOAD SWAP1 PUSH2 0x100 EXP SWAP1 DIV PUSH20 0xFFFFFFFFFFFFFFFFFFFFFFFFFFFFFFFFFFFFFFFF AND PUSH20 0xFFFFFFFFFFFFFFFFFFFFFFFFFFFFFFFFFFFFFFFF AND DUP2 PUSH20 0xFFFFFFFFFFFFFFFFFFFFFFFFFFFFFFFFFFFFFFFF AND EQ JUMPDEST DUP1 PUSH2 0x37EA JUMPI POP PUSH1 0x1 PUSH0 DUP3 PUSH20 0xFFFFFFFFFFFFFFFFFFFFFFFFFFFFFFFFFFFFFFFF AND PUSH20 0xFFFFFFFFFFFFFFFFFFFFFFFFFFFFFFFFFFFFFFFF AND DUP2 MSTORE PUSH1 0x20 ADD SWAP1 DUP2 MSTORE PUSH1 0x20 ADD PUSH0 KECCAK256 PUSH0 SWAP1 SLOAD SWAP1 PUSH2 0x100 EXP SWAP1 DIV PUSH1 0xFF AND JUMPDEST PUSH2 0x3829 JUMPI PUSH1 0x40 MLOAD PUSH32 0x8C379A000000000000000000000000000000000000000000000000000000000 DUP2 MSTORE PUSH1 0x4 ADD PUSH2 0x3820 SWAP1 PUSH2 0x5B5B JUMP JUMPDEST PUSH1 0x40 MLOAD DUP1 SWAP2 SUB SWAP1 REVERT JUMPDEST POP POP JUMP JUMPDEST POP DUP1 SLOAD PUSH2 0x3839 SWAP1 PUSH2 0x448C JUMP JUMPDEST PUSH0 DUP3 SSTORE DUP1 PUSH1 0x1F LT PUSH2 0x384A JUMPI POP PUSH2 0x3867 JUMP JUMPDEST PUSH1 0x1F ADD PUSH1 0x20 SWAP1 DIV SWAP1 PUSH0 MSTORE PUSH1 0x20 PUSH0 KECCAK256 SWAP1 DUP2 ADD SWAP1 PUSH2 0x3866 SWAP2 SWAP1 PUSH2 0x38CD JUMP JUMPDEST JUMPDEST POP JUMP JUMPDEST PUSH1 0x40 MLOAD DUP1 PUSH1 0x80 ADD PUSH1 0x40 MSTORE DUP1 PUSH0 PUSH1 0x3 DUP2 GT ISZERO PUSH2 0x3888 JUMPI PUSH2 0x3887 PUSH2 0x3B2F JUMP JUMPDEST JUMPDEST DUP2 MSTORE PUSH1 0x20 ADD PUSH0 ISZERO ISZERO DUP2 MSTORE PUSH1 0x20 ADD PUSH1 0x60 DUP2 MSTORE PUSH1 0x20 ADD PUSH0 DUP2 MSTORE POP SWAP1 JUMP JUMPDEST PUSH1 0x40 MLOAD DUP1 PUSH1 0x40 ADD PUSH1 0x40 MSTORE DUP1 PUSH0 DUP2 MSTORE PUSH1 0x20 ADD PUSH0 PUSH1 0x5 DUP2 GT ISZERO PUSH2 0x38C7 JUMPI PUSH2 0x38C6 PUSH2 0x3B2F JUMP JUMPDEST JUMPDEST DUP2 MSTORE POP SWAP1 JUMP JUMPDEST JUMPDEST DUP1 DUP3 GT ISZERO PUSH2 0x38E4 JUMPI PUSH0 DUP2 PUSH0 SWAP1 SSTORE POP PUSH1 0x1 ADD PUSH2 0x38CE JUMP JUMPDEST POP SWAP1 JUMP JUMPDEST PUSH0 PUSH1 0x40 MLOAD SWAP1 POP SWAP1 JUMP JUMPDEST PUSH0 DUP1 REVERT JUMPDEST PUSH0 DUP1 REVERT JUMPDEST PUSH0 DUP1 REVERT JUMPDEST PUSH0 DUP1 REVERT JUMPDEST PUSH0 PUSH1 0x1F NOT PUSH1 0x1F DUP4 ADD AND SWAP1 POP SWAP2 SWAP1 POP JUMP JUMPDEST PUSH32 0x4E487B7100000000000000000000000000000000000000000000000000000000 PUSH0 MSTORE PUSH1 0x41 PUSH1 0x4 MSTORE PUSH1 0x24 PUSH0 REVERT JUMPDEST PUSH2 0x3947 DUP3 PUSH2 0x3901 JUMP JUMPDEST DUP2 ADD DUP2 DUP2 LT PUSH8 0xFFFFFFFFFFFFFFFF DUP3 GT OR ISZERO PUSH2 0x3966 JUMPI PUSH2 0x3965 PUSH2 0x3911 JUMP JUMPDEST JUMPDEST DUP1 PUSH1 0x40 MSTORE POP POP POP JUMP JUMPDEST PUSH0 PUSH2 0x3978 PUSH2 0x38E8 JUMP JUMPDEST SWAP1 POP PUSH2 0x3984 DUP3 DUP3 PUSH2 0x393E JUMP JUMPDEST SWAP2 SWAP1 POP JUMP JUMPDEST PUSH0 PUSH8 0xFFFFFFFFFFFFFFFF DUP3 GT ISZERO PUSH2 0x39A3 JUMPI PUSH2 0x39A2 PUSH2 0x3911 JUMP JUMPDEST JUMPDEST PUSH2 0x39AC DUP3 PUSH2 0x3901 JUMP JUMPDEST SWAP1 POP PUSH1 0x20 DUP2 ADD SWAP1 POP SWAP2 SWAP1 POP JUMP JUMPDEST DUP3 DUP2 DUP4 CALLDATACOPY PUSH0 DUP4 DUP4 ADD MSTORE POP POP POP JUMP JUMPDEST PUSH0 PUSH2 0x39D9 PUSH2 0x39D4 DUP5 PUSH2 0x3989 JUMP JUMPDEST PUSH2 0x396F JUMP JUMPDEST SWAP1 POP DUP3 DUP2 MSTORE PUSH1 0x20 DUP2 ADD DUP5 DUP5 DUP5 ADD GT ISZERO PUSH2 0x39F5 JUMPI PUSH2 0x39F4 PUSH2 0x38FD JUMP JUMPDEST JUMPDEST PUSH2 0x3A00 DUP5 DUP3 DUP6 PUSH2 0x39B9 JUMP JUMPDEST POP SWAP4 SWAP3 POP POP POP JUMP JUMPDEST PUSH0 DUP3 PUSH1 0x1F DUP4 ADD SLT PUSH2 0x3A1C JUMPI PUSH2 0x3A1B PUSH2 0x38F9 JUMP JUMPDEST JUMPDEST DUP2 CALLDATALOAD PUSH2 0x3A2C DUP5 DUP3 PUSH1 0x20 DUP7 ADD PUSH2 0x39C7 JUMP JUMPDEST SWAP2 POP POP SWAP3 SWAP2 POP POP JUMP JUMPDEST PUSH0 PUSH20 0xFFFFFFFFFFFFFFFFFFFFFFFFFFFFFFFFFFFFFFFF DUP3 AND SWAP1 POP SWAP2 SWAP1 POP JUMP JUMPDEST PUSH0 PUSH2 0x3A5E DUP3 PUSH2 0x3A35 JUMP JUMPDEST SWAP1 POP SWAP2 SWAP1 POP JUMP JUMPDEST PUSH2 0x3A6E DUP2 PUSH2 0x3A54 JUMP JUMPDEST DUP2 EQ PUSH2 0x3A78 JUMPI PUSH0 DUP1 REVERT JUMPDEST POP JUMP JUMPDEST PUSH0 DUP2 CALLDATALOAD SWAP1 POP PUSH2 0x3A89 DUP2 PUSH2 0x3A65 JUMP JUMPDEST SWAP3 SWAP2 POP POP JUMP JUMPDEST PUSH0 DUP1 PUSH0 PUSH1 0x60 DUP5 DUP7 SUB SLT ISZERO PUSH2 0x3AA6 JUMPI PUSH2 0x3AA5 PUSH2 0x38F1 JUMP JUMPDEST JUMPDEST PUSH0 DUP5 ADD CALLDATALOAD PUSH8 0xFFFFFFFFFFFFFFFF DUP2 GT ISZERO PUSH2 0x3AC3 JUMPI PUSH2 0x3AC2 PUSH2 0x38F5 JUMP JUMPDEST JUMPDEST PUSH2 0x3ACF DUP7 DUP3 DUP8 ADD PUSH2 0x3A08 JUMP JUMPDEST SWAP4 POP POP PUSH1 0x20 PUSH2 0x3AE0 DUP7 DUP3 DUP8 ADD PUSH2 0x3A7B JUMP JUMPDEST SWAP3 POP POP PUSH1 0x40 DUP5 ADD CALLDATALOAD PUSH8 0xFFFFFFFFFFFFFFFF DUP2 GT ISZERO PUSH2 0x3B01 JUMPI PUSH2 0x3B00 PUSH2 0x38F5 JUMP JUMPDEST JUMPDEST PUSH2 0x3B0D DUP7 DUP3 DUP8 ADD PUSH2 0x3A08 JUMP JUMPDEST SWAP2 POP POP SWAP3 POP SWAP3 POP SWAP3 JUMP JUMPDEST PUSH0 DUP2 SWAP1 POP SWAP2 SWAP1 POP JUMP JUMPDEST PUSH2 0x3B29 DUP2 PUSH2 0x3B17 JUMP JUMPDEST DUP3 MSTORE POP POP JUMP JUMPDEST PUSH32 0x4E487B7100000000000000000000000000000000000000000000000000000000 PUSH0 MSTORE PUSH1 0x21 PUSH1 0x4 MSTORE PUSH1 0x24 PUSH0 REVERT JUMPDEST PUSH1 0x6 DUP2 LT PUSH2 0x3B6D JUMPI PUSH2 0x3B6C PUSH2 0x3B2F JUMP JUMPDEST JUMPDEST POP JUMP JUMPDEST PUSH0 DUP2 SWAP1 POP PUSH2 0x3B7D DUP3 PUSH2 0x3B5C JUMP JUMPDEST SWAP2 SWAP1 POP JUMP JUMPDEST PUSH0 PUSH2 0x3B8C DUP3 PUSH2 0x3B70 JUMP JUMPDEST SWAP1 POP SWAP2 SWAP1 POP JUMP JUMPDEST PUSH2 0x3B9C DUP2 PUSH2 0x3B82 JUMP JUMPDEST DUP3 MSTORE POP POP JUMP JUMPDEST PUSH0 PUSH1 0x40 DUP3 ADD SWAP1 POP PUSH2 0x3BB5 PUSH0 DUP4 ADD DUP6 PUSH2 0x3B20 JUMP JUMPDEST PUSH2 0x3BC2 PUSH1 0x20 DUP4 ADD DUP5 PUSH2 0x3B93 JUMP JUMPDEST SWAP4 SWAP3 POP POP POP JUMP JUMPDEST PUSH0 DUP1 PUSH1 0x40 DUP4 DUP6 SUB SLT ISZERO PUSH2 0x3BDF JUMPI PUSH2 0x3BDE PUSH2 0x38F1 JUMP JUMPDEST JUMPDEST PUSH0 DUP4 ADD CALLDATALOAD PUSH8 0xFFFFFFFFFFFFFFFF DUP2 GT ISZERO PUSH2 0x3BFC JUMPI PUSH2 0x3BFB PUSH2 0x38F5 JUMP JUMPDEST JUMPDEST PUSH2 0x3C08 DUP6 DUP3 DUP7 ADD PUSH2 0x3A08 JUMP JUMPDEST SWAP3 POP POP PUSH1 0x20 PUSH2 0x3C19 DUP6 DUP3 DUP7 ADD PUSH2 0x3A7B JUMP JUMPDEST SWAP2 POP POP SWAP3 POP SWAP3 SWAP1 POP JUMP JUMPDEST PUSH0 DUP2 ISZERO ISZERO SWAP1 POP SWAP2 SWAP1 POP JUMP JUMPDEST PUSH2 0x3C37 DUP2 PUSH2 0x3C23 JUMP JUMPDEST DUP2 EQ PUSH2 0x3C41 JUMPI PUSH0 DUP1 REVERT JUMPDEST POP JUMP JUMPDEST PUSH0 DUP2 CALLDATALOAD SWAP1 POP PUSH2 0x3C52 DUP2 PUSH2 0x3C2E JUMP JUMPDEST SWAP3 SWAP2 POP POP JUMP JUMPDEST PUSH0 DUP1 PUSH1 0x40 DUP4 DUP6 SUB SLT ISZERO PUSH2 0x3C6E JUMPI PUSH2 0x3C6D PUSH2 0x38F1 JUMP JUMPDEST JUMPDEST PUSH0 DUP4 ADD CALLDATALOAD PUSH8 0xFFFFFFFFFFFFFFFF DUP2 GT ISZERO PUSH2 0x3C8B JUMPI PUSH2 0x3C8A PUSH2 0x38F5 JUMP JUMPDEST JUMPDEST PUSH2 0x3C97 DUP6 DUP3 DUP7 ADD PUSH2 0x3A08 JUMP JUMPDEST SWAP3 POP POP PUSH1 0x20 PUSH2 0x3CA8 DUP6 DUP3 DUP7 ADD PUSH2 0x3C44 JUMP JUMPDEST SWAP2 POP POP SWAP3 POP SWAP3 SWAP1 POP JUMP JUMPDEST PUSH0 PUSH1 0x20 DUP3 DUP5 SUB SLT ISZERO PUSH2 0x3CC7 JUMPI PUSH2 0x3CC6 PUSH2 0x38F1 JUMP JUMPDEST JUMPDEST PUSH0 DUP3 ADD CALLDATALOAD PUSH8 0xFFFFFFFFFFFFFFFF DUP2 GT ISZERO PUSH2 0x3CE4 JUMPI PUSH2 0x3CE3 PUSH2 0x38F5 JUMP JUMPDEST JUMPDEST PUSH2 0x3CF0 DUP5 DUP3 DUP6 ADD PUSH2 0x3A08 JUMP JUMPDEST SWAP2 POP POP SWAP3 SWAP2 POP POP JUMP JUMPDEST PUSH1 0x4 DUP2 LT PUSH2 0x3D0A JUMPI PUSH2 0x3D09 PUSH2 0x3B2F JUMP JUMPDEST JUMPDEST POP JUMP JUMPDEST PUSH0 DUP2 SWAP1 POP PUSH2 0x3D1A DUP3 PUSH2 0x3CF9 JUMP JUMPDEST SWAP2 SWAP1 POP JUMP JUMPDEST PUSH0 PUSH2 0x3D29 DUP3 PUSH2 0x3D0D JUMP JUMPDEST SWAP1 POP SWAP2 SWAP1 POP JUMP JUMPDEST PUSH2 0x3D39 DUP2 PUSH2 0x3D1F JUMP JUMPDEST DUP3 MSTORE POP POP JUMP JUMPDEST PUSH0 DUP2 MLOAD SWAP1 POP SWAP2 SWAP1 POP JUMP JUMPDEST PUSH0 DUP3 DUP3 MSTORE PUSH1 0x20 DUP3 ADD SWAP1 POP SWAP3 SWAP2 POP POP JUMP JUMPDEST PUSH0 JUMPDEST DUP4 DUP2 LT ISZERO PUSH2 0x3D76 JUMPI DUP1 DUP3 ADD MLOAD DUP2 DUP5 ADD MSTORE PUSH1 0x20 DUP2 ADD SWAP1 POP PUSH2 0x3D5B JUMP JUMPDEST PUSH0 DUP5 DUP5 ADD MSTORE POP POP POP POP JUMP JUMPDEST PUSH0 PUSH2 0x3D8B DUP3 PUSH2 0x3D3F JUMP JUMPDEST PUSH2 0x3D95 DUP2 DUP6 PUSH2 0x3D49 JUMP JUMPDEST SWAP4 POP PUSH2 0x3DA5 DUP2 DUP6 PUSH1 0x20 DUP7 ADD PUSH2 0x3D59 JUMP JUMPDEST PUSH2 0x3DAE DUP2 PUSH2 0x3901 JUMP JUMPDEST DUP5 ADD SWAP2 POP POP SWAP3 SWAP2 POP POP JUMP JUMPDEST PUSH2 0x3DC2 DUP2 PUSH2 0x3A54 JUMP JUMPDEST DUP3 MSTORE POP POP JUMP JUMPDEST PUSH0 PUSH2 0xFFFF DUP3 AND SWAP1 POP SWAP2 SWAP1 POP JUMP JUMPDEST PUSH2 0x3DDE DUP2 PUSH2 0x3DC8 JUMP JUMPDEST DUP3 MSTORE POP POP JUMP JUMPDEST PUSH0 PUSH2 0x180 DUP3 ADD SWAP1 POP PUSH2 0x3DF8 PUSH0 DUP4 ADD DUP16 PUSH2 0x3D30 JUMP JUMPDEST DUP2 DUP2 SUB PUSH1 0x20 DUP4 ADD MSTORE PUSH2 0x3E0A DUP2 DUP15 PUSH2 0x3D81 JUMP JUMPDEST SWAP1 POP PUSH2 0x3E19 PUSH1 0x40 DUP4 ADD DUP14 PUSH2 0x3DB9 JUMP JUMPDEST PUSH2 0x3E26 PUSH1 0x60 DUP4 ADD DUP13 PUSH2 0x3B20 JUMP JUMPDEST PUSH2 0x3E33 PUSH1 0x80 DUP4 ADD DUP12 PUSH2 0x3B20 JUMP JUMPDEST PUSH2 0x3E40 PUSH1 0xA0 DUP4 ADD DUP11 PUSH2 0x3DD5 JUMP JUMPDEST PUSH2 0x3E4D PUSH1 0xC0 DUP4 ADD DUP10 PUSH2 0x3DD5 JUMP JUMPDEST PUSH2 0x3E5A PUSH1 0xE0 DUP4 ADD DUP9 PUSH2 0x3DD5 JUMP JUMPDEST PUSH2 0x3E68 PUSH2 0x100 DUP4 ADD DUP8 PUSH2 0x3B20 JUMP JUMPDEST PUSH2 0x3E76 PUSH2 0x120 DUP4 ADD DUP7 PUSH2 0x3B20 JUMP JUMPDEST PUSH2 0x3E84 PUSH2 0x140 DUP4 ADD DUP6 PUSH2 0x3B20 JUMP JUMPDEST PUSH2 0x3E92 PUSH2 0x160 DUP4 ADD DUP5 PUSH2 0x3DB9 JUMP JUMPDEST SWAP14 SWAP13 POP POP POP POP POP POP POP POP POP POP POP POP POP JUMP JUMPDEST PUSH0 PUSH1 0x20 DUP3 DUP5 SUB SLT ISZERO PUSH2 0x3EB8 JUMPI PUSH2 0x3EB7 PUSH2 0x38F1 JUMP JUMPDEST JUMPDEST PUSH0 PUSH2 0x3EC5 DUP5 DUP3 DUP6 ADD PUSH2 0x3A7B JUMP JUMPDEST SWAP2 POP POP SWAP3 SWAP2 POP POP JUMP JUMPDEST PUSH0 DUP1 PUSH1 0x40 DUP4 DUP6 SUB SLT ISZERO PUSH2 0x3EE4 JUMPI PUSH2 0x3EE3 PUSH2 0x38F1 JUMP JUMPDEST JUMPDEST PUSH0 DUP4 ADD CALLDATALOAD PUSH8 0xFFFFFFFFFFFFFFFF DUP2 GT ISZERO PUSH2 0x3F01 JUMPI PUSH2 0x3F00 PUSH2 0x38F5 JUMP JUMPDEST JUMPDEST PUSH2 0x3F0D DUP6 DUP3 DUP7 ADD PUSH2 0x3A08 JUMP JUMPDEST SWAP3 POP POP PUSH1 0x20 DUP4 ADD CALLDATALOAD PUSH8 0xFFFFFFFFFFFFFFFF DUP2 GT ISZERO PUSH2 0x3F2E JUMPI PUSH2 0x3F2D PUSH2 0x38F5 JUMP JUMPDEST JUMPDEST PUSH2 0x3F3A DUP6 DUP3 DUP7 ADD PUSH2 0x3A08 JUMP JUMPDEST SWAP2 POP POP SWAP3 POP SWAP3 SWAP1 POP JUMP JUMPDEST PUSH2 0x3F4D DUP2 PUSH2 0x3B17 JUMP JUMPDEST DUP2 EQ PUSH2 0x3F57 JUMPI PUSH0 DUP1 REVERT JUMPDEST POP JUMP JUMPDEST PUSH0 DUP2 CALLDATALOAD SWAP1 POP PUSH2 0x3F68 DUP2 PUSH2 0x3F44 JUMP JUMPDEST SWAP3 SWAP2 POP POP JUMP JUMPDEST PUSH0 DUP1 PUSH1 0x40 DUP4 DUP6 SUB SLT ISZERO PUSH2 0x3F84 JUMPI PUSH2 0x3F83 PUSH2 0x38F1 JUMP JUMPDEST JUMPDEST PUSH0 DUP4 ADD CALLDATALOAD PUSH8 0xFFFFFFFFFFFFFFFF DUP2 GT ISZERO PUSH2 0x3FA1 JUMPI PUSH2 0x3FA0 PUSH2 0x38F5 JUMP JUMPDEST JUMPDEST PUSH2 0x3FAD DUP6 DUP3 DUP7 ADD PUSH2 0x3A08 JUMP JUMPDEST SWAP3 POP POP PUSH1 0x20 PUSH2 0x3FBE DUP6 DUP3 DUP7 ADD PUSH2 0x3F5A JUMP JUMPDEST SWAP2 POP POP SWAP3 POP SWAP3 SWAP1 POP JUMP JUMPDEST PUSH0 DUP1 PUSH0 DUP1 PUSH1 0x80 DUP6 DUP8 SUB SLT ISZERO PUSH2 0x3FE0 JUMPI PUSH2 0x3FDF PUSH2 0x38F1 JUMP JUMPDEST JUMPDEST PUSH0 DUP6 ADD CALLDATALOAD PUSH8 0xFFFFFFFFFFFFFFFF DUP2 GT ISZERO PUSH2 0x3FFD JUMPI PUSH2 0x3FFC PUSH2 0x38F5 JUMP JUMPDEST JUMPDEST PUSH2 0x4009 DUP8 DUP3 DUP9 ADD PUSH2 0x3A08 JUMP JUMPDEST SWAP5 POP POP PUSH1 0x20 PUSH2 0x401A DUP8 DUP3 DUP9 ADD PUSH2 0x3A7B JUMP JUMPDEST SWAP4 POP POP PUSH1 0x40 DUP6 ADD CALLDATALOAD PUSH8 0xFFFFFFFFFFFFFFFF DUP2 GT ISZERO PUSH2 0x403B JUMPI PUSH2 0x403A PUSH2 0x38F5 JUMP JUMPDEST JUMPDEST PUSH2 0x4047 DUP8 DUP3 DUP9 ADD PUSH2 0x3A08 JUMP JUMPDEST SWAP3 POP POP PUSH1 0x60 PUSH2 0x4058 DUP8 DUP3 DUP9 ADD PUSH2 0x3F5A JUMP JUMPDEST SWAP2 POP POP SWAP3 SWAP6 SWAP2 SWAP5 POP SWAP3 POP JUMP JUMPDEST PUSH0 PUSH1 0x20 DUP3 ADD SWAP1 POP PUSH2 0x4077 PUSH0 DUP4 ADD DUP5 PUSH2 0x3DB9 JUMP JUMPDEST SWAP3 SWAP2 POP POP JUMP JUMPDEST PUSH0 PUSH1 0x20 DUP3 ADD SWAP1 POP PUSH2 0x4090 PUSH0 DUP4 ADD DUP5 PUSH2 0x3DD5 JUMP JUMPDEST SWAP3 SWAP2 POP POP JUMP JUMPDEST PUSH0 DUP1 PUSH0 PUSH1 0x60 DUP5 DUP7 SUB SLT ISZERO PUSH2 0x40AD JUMPI PUSH2 0x40AC PUSH2 0x38F1 JUMP JUMPDEST JUMPDEST PUSH0 DUP5 ADD CALLDATALOAD PUSH8 0xFFFFFFFFFFFFFFFF DUP2 GT ISZERO PUSH2 0x40CA JUMPI PUSH2 0x40C9 PUSH2 0x38F5 JUMP JUMPDEST JUMPDEST PUSH2 0x40D6 DUP7 DUP3 DUP8 ADD PUSH2 0x3A08 JUMP JUMPDEST SWAP4 POP POP PUSH1 0x20 DUP5 ADD CALLDATALOAD PUSH8 0xFFFFFFFFFFFFFFFF DUP2 GT ISZERO PUSH2 0x40F7 JUMPI PUSH2 0x40F6 PUSH2 0x38F5 JUMP JUMPDEST JUMPDEST PUSH2 0x4103 DUP7 DUP3 DUP8 ADD PUSH2 0x3A08 JUMP JUMPDEST SWAP3 POP POP PUSH1 0x40 PUSH2 0x4114 DUP7 DUP3 DUP8 ADD PUSH2 0x3F5A JUMP JUMPDEST SWAP2 POP POP SWAP3 POP SWAP3 POP SWAP3 JUMP JUMPDEST PUSH2 0x4127 DUP2 PUSH2 0x3DC8 JUMP JUMPDEST DUP2 EQ PUSH2 0x4131 JUMPI PUSH0 DUP1 REVERT JUMPDEST POP JUMP JUMPDEST PUSH0 DUP2 CALLDATALOAD SWAP1 POP PUSH2 0x4142 DUP2 PUSH2 0x411E JUMP JUMPDEST SWAP3 SWAP2 POP POP JUMP JUMPDEST PUSH0 DUP1 PUSH0 DUP1 PUSH0 DUP1 PUSH0 DUP1 PUSH2 0x100 DUP10 DUP12 SUB SLT ISZERO PUSH2 0x4165 JUMPI PUSH2 0x4164 PUSH2 0x38F1 JUMP JUMPDEST JUMPDEST PUSH0 DUP10 ADD CALLDATALOAD PUSH8 0xFFFFFFFFFFFFFFFF DUP2 GT ISZERO PUSH2 0x4182 JUMPI PUSH2 0x4181 PUSH2 0x38F5 JUMP JUMPDEST JUMPDEST PUSH2 0x418E DUP12 DUP3 DUP13 ADD PUSH2 0x3A08 JUMP JUMPDEST SWAP9 POP POP PUSH1 0x20 DUP10 ADD CALLDATALOAD PUSH8 0xFFFFFFFFFFFFFFFF DUP2 GT ISZERO PUSH2 0x41AF JUMPI PUSH2 0x41AE PUSH2 0x38F5 JUMP JUMPDEST JUMPDEST PUSH2 0x41BB DUP12 DUP3 DUP13 ADD PUSH2 0x3A08 JUMP JUMPDEST SWAP8 POP POP PUSH1 0x40 PUSH2 0x41CC DUP12 DUP3 DUP13 ADD PUSH2 0x3A7B JUMP JUMPDEST SWAP7 POP POP PUSH1 0x60 PUSH2 0x41DD DUP12 DUP3 DUP13 ADD PUSH2 0x4134 JUMP JUMPDEST SWAP6 POP POP PUSH1 0x80 PUSH2 0x41EE DUP12 DUP3 DUP13 ADD PUSH2 0x3F5A JUMP JUMPDEST SWAP5 POP POP PUSH1 0xA0 PUSH2 0x41FF DUP12 DUP3 DUP13 ADD PUSH2 0x3F5A JUMP JUMPDEST SWAP4 POP POP PUSH1 0xC0 PUSH2 0x4210 DUP12 DUP3 DUP13 ADD PUSH2 0x3F5A JUMP JUMPDEST SWAP3 POP POP PUSH1 0xE0 PUSH2 0x4221 DUP12 DUP3 DUP13 ADD PUSH2 0x3A7B JUMP JUMPDEST SWAP2 POP POP SWAP3 SWAP6 SWAP9 POP SWAP3 SWAP6 SWAP9 SWAP1 SWAP4 SWAP7 POP JUMP JUMPDEST PUSH1 0x4 DUP2 LT PUSH2 0x4242 JUMPI PUSH2 0x4241 PUSH2 0x3B2F JUMP JUMPDEST JUMPDEST POP JUMP JUMPDEST PUSH0 DUP2 SWAP1 POP PUSH2 0x4252 DUP3 PUSH2 0x4231 JUMP JUMPDEST SWAP2 SWAP1 POP JUMP JUMPDEST PUSH0 PUSH2 0x4261 DUP3 PUSH2 0x4245 JUMP JUMPDEST SWAP1 POP SWAP2 SWAP1 POP JUMP JUMPDEST PUSH2 0x4271 DUP2 PUSH2 0x4257 JUMP JUMPDEST DUP3 MSTORE POP POP JUMP JUMPDEST PUSH2 0x4280 DUP2 PUSH2 0x3C23 JUMP JUMPDEST DUP3 MSTORE POP POP JUMP JUMPDEST PUSH0 PUSH1 0x80 DUP3 ADD SWAP1 POP PUSH2 0x4299 PUSH0 DUP4 ADD DUP8 PUSH2 0x4268 JUMP JUMPDEST PUSH2 0x42A6 PUSH1 0x20 DUP4 ADD DUP7 PUSH2 0x4277 JUMP JUMPDEST DUP2 DUP2 SUB PUSH1 0x40 DUP4 ADD MSTORE PUSH2 0x42B8 DUP2 DUP6 PUSH2 0x3D81 JUMP JUMPDEST SWAP1 POP PUSH2 0x42C7 PUSH1 0x60 DUP4 ADD DUP5 PUSH2 0x3B20 JUMP JUMPDEST SWAP6 SWAP5 POP POP POP POP POP JUMP JUMPDEST PUSH0 PUSH1 0x20 DUP3 ADD SWAP1 POP PUSH2 0x42E3 PUSH0 DUP4 ADD DUP5 PUSH2 0x4277 JUMP JUMPDEST SWAP3 SWAP2 POP POP JUMP JUMPDEST PUSH0 DUP2 SWAP1 POP SWAP3 SWAP2 POP POP JUMP JUMPDEST PUSH0 PUSH2 0x42FD DUP3 PUSH2 0x3D3F JUMP JUMPDEST PUSH2 0x4307 DUP2 DUP6 PUSH2 0x42E9 JUMP JUMPDEST SWAP4 POP PUSH2 0x4317 DUP2 DUP6 PUSH1 0x20 DUP7 ADD PUSH2 0x3D59 JUMP JUMPDEST DUP1 DUP5 ADD SWAP2 POP POP SWAP3 SWAP2 POP POP JUMP JUMPDEST PUSH0 PUSH2 0x432E DUP3 DUP5 PUSH2 0x42F3 JUMP JUMPDEST SWAP2 POP DUP2 SWAP1 POP SWAP3 SWAP2 POP POP JUMP JUMPDEST PUSH32 0x5661756C7420696E636F72726563742073746174757300000000000000000000 PUSH0 DUP3 ADD MSTORE POP JUMP JUMPDEST PUSH0 PUSH2 0x436D PUSH1 0x16 DUP4 PUSH2 0x3D49 JUMP JUMPDEST SWAP2 POP PUSH2 0x4378 DUP3 PUSH2 0x4339 JUMP JUMPDEST PUSH1 0x20 DUP3 ADD SWAP1 POP SWAP2 SWAP1 POP JUMP JUMPDEST PUSH0 PUSH1 0x20 DUP3 ADD SWAP1 POP DUP2 DUP2 SUB PUSH0 DUP4 ADD MSTORE PUSH2 0x439A DUP2 PUSH2 0x4361 JUMP JUMPDEST SWAP1 POP SWAP2 SWAP1 POP JUMP JUMPDEST PUSH32 0x4163636F756E7420616C726561647920726567697374657265642E0000000000 PUSH0 DUP3 ADD MSTORE POP JUMP JUMPDEST PUSH0 PUSH2 0x43D5 PUSH1 0x1B DUP4 PUSH2 0x3D49 JUMP JUMPDEST SWAP2 POP PUSH2 0x43E0 DUP3 PUSH2 0x43A1 JUMP JUMPDEST PUSH1 0x20 DUP3 ADD SWAP1 POP SWAP2 SWAP1 POP JUMP JUMPDEST PUSH0 PUSH1 0x20 DUP3 ADD SWAP1 POP DUP2 DUP2 SUB PUSH0 DUP4 ADD MSTORE PUSH2 0x4402 DUP2 PUSH2 0x43C9 JUMP JUMPDEST SWAP1 POP SWAP2 SWAP1 POP JUMP JUMPDEST PUSH32 0x4E487B7100000000000000000000000000000000000000000000000000000000 PUSH0 MSTORE PUSH1 0x11 PUSH1 0x4 MSTORE PUSH1 0x24 PUSH0 REVERT JUMPDEST PUSH0 PUSH2 0x4440 DUP3 PUSH2 0x3DC8 JUMP JUMPDEST SWAP2 POP PUSH2 0xFFFF DUP3 SUB PUSH2 0x4454 JUMPI PUSH2 0x4453 PUSH2 0x4409 JUMP JUMPDEST JUMPDEST PUSH1 0x1 DUP3 ADD SWAP1 POP SWAP2 SWAP1 POP JUMP JUMPDEST PUSH32 0x4E487B7100000000000000000000000000000000000000000000000000000000 PUSH0 MSTORE PUSH1 0x22 PUSH1 0x4 MSTORE PUSH1 0x24 PUSH0 REVERT JUMPDEST PUSH0 PUSH1 0x2 DUP3 DIV SWAP1 POP PUSH1 0x1 DUP3 AND DUP1 PUSH2 0x44A3 JUMPI PUSH1 0x7F DUP3 AND SWAP2 POP JUMPDEST PUSH1 0x20 DUP3 LT DUP2 SUB PUSH2 0x44B6 JUMPI PUSH2 0x44B5 PUSH2 0x445F JUMP JUMPDEST JUMPDEST POP SWAP2 SWAP1 POP JUMP JUMPDEST PUSH0 DUP2 SWAP1 POP DUP2 PUSH0 MSTORE PUSH1 0x20 PUSH0 KECCAK256 SWAP1 POP SWAP2 SWAP1 POP JUMP JUMPDEST PUSH0 PUSH1 0x20 PUSH1 0x1F DUP4 ADD DIV SWAP1 POP SWAP2 SWAP1 POP JUMP JUMPDEST PUSH0 DUP3 DUP3 SHL SWAP1 POP SWAP3 SWAP2 POP POP JUMP JUMPDEST PUSH0 PUSH1 0x8 DUP4 MUL PUSH2 0x4518 PUSH32 0xFFFFFFFFFFFFFFFFFFFFFFFFFFFFFFFFFFFFFFFFFFFFFFFFFFFFFFFFFFFFFFFF DUP3 PUSH2 0x44DD JUMP JUMPDEST PUSH2 0x4522 DUP7 DUP4 PUSH2 0x44DD JUMP JUMPDEST SWAP6 POP DUP1 NOT DUP5 AND SWAP4 POP DUP1 DUP7 AND DUP5 OR SWAP3 POP POP POP SWAP4 SWAP3 POP POP POP JUMP JUMPDEST PUSH0 DUP2 SWAP1 POP SWAP2 SWAP1 POP JUMP JUMPDEST PUSH0 PUSH2 0x455D PUSH2 0x4558 PUSH2 0x4553 DUP5 PUSH2 0x3B17 JUMP JUMPDEST PUSH2 0x453A JUMP JUMPDEST PUSH2 0x3B17 JUMP JUMPDEST SWAP1 POP SWAP2 SWAP1 POP JUMP JUMPDEST PUSH0 DUP2 SWAP1 POP SWAP2 SWAP1 POP JUMP JUMPDEST PUSH2 0x4576 DUP4 PUSH2 0x4543 JUMP JUMPDEST PUSH2 0x458A PUSH2 0x4582 DUP3 PUSH2 0x4564 JUMP JUMPDEST DUP5 DUP5 SLOAD PUSH2 0x44E9 JUMP JUMPDEST DUP3 SSTORE POP POP POP POP JUMP JUMPDEST PUSH0 SWAP1 JUMP JUMPDEST PUSH2 0x459E PUSH2 0x4592 JUMP JUMPDEST PUSH2 0x45A9 DUP2 DUP5 DUP5 PUSH2 0x456D JUMP JUMPDEST POP POP POP JUMP JUMPDEST JUMPDEST DUP2 DUP2 LT ISZERO PUSH2 0x45CC JUMPI PUSH2 0x45C1 PUSH0 DUP3 PUSH2 0x4596 JUMP JUMPDEST PUSH1 0x1 DUP2 ADD SWAP1 POP PUSH2 0x45AF JUMP JUMPDEST POP POP JUMP JUMPDEST PUSH1 0x1F DUP3 GT ISZERO PUSH2 0x4611 JUMPI PUSH2 0x45E2 DUP2 PUSH2 0x44BC JUMP JUMPDEST PUSH2 0x45EB DUP5 PUSH2 0x44CE JUMP JUMPDEST DUP2 ADD PUSH1 0x20 DUP6 LT ISZERO PUSH2 0x45FA JUMPI DUP2 SWAP1 POP JUMPDEST PUSH2 0x460E PUSH2 0x4606 DUP6 PUSH2 0x44CE JUMP JUMPDEST DUP4 ADD DUP3 PUSH2 0x45AE JUMP JUMPDEST POP POP JUMPDEST POP POP POP JUMP JUMPDEST PUSH0 DUP3 DUP3 SHR SWAP1 POP SWAP3 SWAP2 POP POP JUMP JUMPDEST PUSH0 PUSH2 0x4631 PUSH0 NOT DUP5 PUSH1 0x8 MUL PUSH2 0x4616 JUMP JUMPDEST NOT DUP1 DUP4 AND SWAP2 POP POP SWAP3 SWAP2 POP POP JUMP JUMPDEST PUSH0 PUSH2 0x4649 DUP4 DUP4 PUSH2 0x4622 JUMP JUMPDEST SWAP2 POP DUP3 PUSH1 0x2 MUL DUP3 OR SWAP1 POP SWAP3 SWAP2 POP POP JUMP JUMPDEST PUSH2 0x4662 DUP3 PUSH2 0x3D3F JUMP JUMPDEST PUSH8 0xFFFFFFFFFFFFFFFF DUP2 GT ISZERO PUSH2 0x467B JUMPI PUSH2 0x467A PUSH2 0x3911 JUMP JUMPDEST JUMPDEST PUSH2 0x4685 DUP3 SLOAD PUSH2 0x448C JUMP JUMPDEST PUSH2 0x4690 DUP3 DUP3 DUP6 PUSH2 0x45D0 JUMP JUMPDEST PUSH0 PUSH1 0x20 SWAP1 POP PUSH1 0x1F DUP4 GT PUSH1 0x1 DUP2 EQ PUSH2 0x46C1 JUMPI PUSH0 DUP5 ISZERO PUSH2 0x46AF JUMPI DUP3 DUP8 ADD MLOAD SWAP1 POP JUMPDEST PUSH2 0x46B9 DUP6 DUP3 PUSH2 0x463E JUMP JUMPDEST DUP7 SSTORE POP PUSH2 0x4720 JUMP JUMPDEST PUSH1 0x1F NOT DUP5 AND PUSH2 0x46CF DUP7 PUSH2 0x44BC JUMP JUMPDEST PUSH0 JUMPDEST DUP3 DUP2 LT ISZERO PUSH2 0x46F6 JUMPI DUP5 DUP10 ADD MLOAD DUP3 SSTORE PUSH1 0x1 DUP3 ADD SWAP2 POP PUSH1 0x20 DUP6 ADD SWAP5 POP PUSH1 0x20 DUP2 ADD SWAP1 POP PUSH2 0x46D1 JUMP JUMPDEST DUP7 DUP4 LT ISZERO PUSH2 0x4713 JUMPI DUP5 DUP10 ADD MLOAD PUSH2 0x470F PUSH1 0x1F DUP10 AND DUP3 PUSH2 0x4622 JUMP JUMPDEST DUP4 SSTORE POP JUMPDEST PUSH1 0x1 PUSH1 0x2 DUP9 MUL ADD DUP9 SSTORE POP POP POP JUMPDEST POP POP POP POP POP POP JUMP JUMPDEST PUSH32 0x6163636F756E745F6F70656E0000000000000000000000000000000000000000 PUSH0 DUP3 ADD MSTORE POP JUMP JUMPDEST PUSH0 PUSH2 0x475C PUSH1 0xC DUP4 PUSH2 0x3D49 JUMP JUMPDEST SWAP2 POP PUSH2 0x4767 DUP3 PUSH2 0x4728 JUMP JUMPDEST PUSH1 0x20 DUP3 ADD SWAP1 POP SWAP2 SWAP1 POP JUMP JUMPDEST PUSH0 PUSH2 0x478C PUSH2 0x4787 PUSH2 0x4782 DUP5 PUSH2 0x3DC8 JUMP JUMPDEST PUSH2 0x453A JUMP JUMPDEST PUSH2 0x3B17 JUMP JUMPDEST SWAP1 POP SWAP2 SWAP1 POP JUMP JUMPDEST PUSH2 0x479C DUP2 PUSH2 0x4772 JUMP JUMPDEST DUP3 MSTORE POP POP JUMP JUMPDEST PUSH0 PUSH1 0x80 DUP3 ADD SWAP1 POP DUP2 DUP2 SUB PUSH0 DUP4 ADD MSTORE PUSH2 0x47B9 DUP2 PUSH2 0x4750 JUMP JUMPDEST SWAP1 POP DUP2 DUP2 SUB PUSH1 0x20 DUP4 ADD MSTORE PUSH2 0x47CD DUP2 DUP7 PUSH2 0x3D81 JUMP JUMPDEST SWAP1 POP PUSH2 0x47DC PUSH1 0x40 DUP4 ADD DUP6 PUSH2 0x3DB9 JUMP JUMPDEST PUSH2 0x47E9 PUSH1 0x60 DUP4 ADD DUP5 PUSH2 0x4793 JUMP JUMPDEST SWAP5 SWAP4 POP POP POP POP JUMP JUMPDEST PUSH32 0x4163636F756E74206E6F742062616E6E65642E00000000000000000000000000 PUSH0 DUP3 ADD MSTORE POP JUMP JUMPDEST PUSH0 PUSH2 0x4825 PUSH1 0x13 DUP4 PUSH2 0x3D49 JUMP JUMPDEST SWAP2 POP PUSH2 0x4830 DUP3 PUSH2 0x47F1 JUMP JUMPDEST PUSH1 0x20 DUP3 ADD SWAP1 POP SWAP2 SWAP1 POP JUMP JUMPDEST PUSH0 PUSH1 0x20 DUP3 ADD SWAP1 POP DUP2 DUP2 SUB PUSH0 DUP4 ADD MSTORE PUSH2 0x4852 DUP2 PUSH2 0x4819 JUMP JUMPDEST SWAP1 POP SWAP2 SWAP1 POP JUMP JUMPDEST PUSH32 0x6163636F756E745F756E6C6F636B000000000000000000000000000000000000 PUSH0 DUP3 ADD MSTORE POP JUMP JUMPDEST PUSH0 PUSH2 0x488D PUSH1 0xE DUP4 PUSH2 0x3D49 JUMP JUMPDEST SWAP2 POP PUSH2 0x4898 DUP3 PUSH2 0x4859 JUMP JUMPDEST PUSH1 0x20 DUP3 ADD SWAP1 POP SWAP2 SWAP1 POP JUMP JUMPDEST PUSH0 DUP2 SWAP1 POP SWAP2 SWAP1 POP JUMP JUMPDEST PUSH0 PUSH2 0x48C6 PUSH2 0x48C1 PUSH2 0x48BC DUP5 PUSH2 0x48A3 JUMP JUMPDEST PUSH2 0x453A JUMP JUMPDEST PUSH2 0x3B17 JUMP JUMPDEST SWAP1 POP SWAP2 SWAP1 POP JUMP JUMPDEST PUSH2 0x48D6 DUP2 PUSH2 0x48AC JUMP JUMPDEST DUP3 MSTORE POP POP JUMP JUMPDEST PUSH0 PUSH1 0x80 DUP3 ADD SWAP1 POP DUP2 DUP2 SUB PUSH0 DUP4 ADD MSTORE PUSH2 0x48F3 DUP2 PUSH2 0x4881 JUMP JUMPDEST SWAP1 POP DUP2 DUP2 SUB PUSH1 0x20 DUP4 ADD MSTORE PUSH2 0x4907 DUP2 DUP7 PUSH2 0x3D81 JUMP JUMPDEST SWAP1 POP PUSH2 0x4916 PUSH1 0x40 DUP4 ADD DUP6 PUSH2 0x3DB9 JUMP JUMPDEST PUSH2 0x4923 PUSH1 0x60 DUP4 ADD DUP5 PUSH2 0x48CD JUMP JUMPDEST SWAP5 SWAP4 POP POP POP POP JUMP JUMPDEST PUSH32 0x5661756C7420696E204172626974726174696F6E000000000000000000000000 PUSH0 DUP3 ADD MSTORE POP JUMP JUMPDEST PUSH0 PUSH2 0x495F PUSH1 0x14 DUP4 PUSH2 0x3D49 JUMP JUMPDEST SWAP2 POP PUSH2 0x496A DUP3 PUSH2 0x492B JUMP JUMPDEST PUSH1 0x20 DUP3 ADD SWAP1 POP SWAP2 SWAP1 POP JUMP JUMPDEST PUSH0 PUSH1 0x20 DUP3 ADD SWAP1 POP DUP2 DUP2 SUB PUSH0 DUP4 ADD MSTORE PUSH2 0x498C DUP2 PUSH2 0x4953 JUMP JUMPDEST SWAP1 POP SWAP2 SWAP1 POP JUMP JUMPDEST PUSH32 0x5769746864726177206E6F7420636F6E6669726D656400000000000000000000 PUSH0 DUP3 ADD MSTORE POP JUMP JUMPDEST PUSH0 PUSH2 0x49C7 PUSH1 0x16 DUP4 PUSH2 0x3D49 JUMP JUMPDEST SWAP2 POP PUSH2 0x49D2 DUP3 PUSH2 0x4993 JUMP JUMPDEST PUSH1 0x20 DUP3 ADD SWAP1 POP SWAP2 SWAP1 POP JUMP JUMPDEST PUSH0 PUSH1 0x20 DUP3 ADD SWAP1 POP DUP2 DUP2 SUB PUSH0 DUP4 ADD MSTORE PUSH2 0x49F4 DUP2 PUSH2 0x49BB JUMP JUMPDEST SWAP1 POP SWAP2 SWAP1 POP JUMP JUMPDEST PUSH0 PUSH2 0x4A05 DUP3 PUSH2 0x3B17 JUMP JUMPDEST SWAP2 POP PUSH2 0x4A10 DUP4 PUSH2 0x3B17 JUMP JUMPDEST SWAP3 POP DUP3 DUP3 SUB SWAP1 POP DUP2 DUP2 GT ISZERO PUSH2 0x4A28 JUMPI PUSH2 0x4A27 PUSH2 0x4409 JUMP JUMPDEST JUMPDEST SWAP3 SWAP2 POP POP JUMP JUMPDEST PUSH32 0x77697468647261775F72656A6563740000000000000000000000000000000000 PUSH0 DUP3 ADD MSTORE POP JUMP JUMPDEST PUSH0 PUSH2 0x4A62 PUSH1 0xF DUP4 PUSH2 0x3D49 JUMP JUMPDEST SWAP2 POP PUSH2 0x4A6D DUP3 PUSH2 0x4A2E JUMP JUMPDEST PUSH1 0x20 DUP3 ADD SWAP1 POP SWAP2 SWAP1 POP JUMP JUMPDEST PUSH0 PUSH1 0x80 DUP3 ADD SWAP1 POP DUP2 DUP2 SUB PUSH0 DUP4 ADD MSTORE PUSH2 0x4A8F DUP2 PUSH2 0x4A56 JUMP JUMPDEST SWAP1 POP DUP2 DUP2 SUB PUSH1 0x20 DUP4 ADD MSTORE PUSH2 0x4AA3 DUP2 DUP7 PUSH2 0x3D81 JUMP JUMPDEST SWAP1 POP PUSH2 0x4AB2 PUSH1 0x40 DUP4 ADD DUP6 PUSH2 0x3DB9 JUMP JUMPDEST PUSH2 0x4ABF PUSH1 0x60 DUP4 ADD DUP5 PUSH2 0x3B20 JUMP JUMPDEST SWAP5 SWAP4 POP POP POP POP JUMP JUMPDEST PUSH32 0x5369746520617574686F72697479206F6E6C792E000000000000000000000000 PUSH0 DUP3 ADD MSTORE POP JUMP JUMPDEST PUSH0 PUSH2 0x4AFB PUSH1 0x14 DUP4 PUSH2 0x3D49 JUMP JUMPDEST SWAP2 POP PUSH2 0x4B06 DUP3 PUSH2 0x4AC7 JUMP JUMPDEST PUSH1 0x20 DUP3 ADD SWAP1 POP SWAP2 SWAP1 POP JUMP JUMPDEST PUSH0 PUSH1 0x20 DUP3 ADD SWAP1 POP DUP2 DUP2 SUB PUSH0 DUP4 ADD MSTORE PUSH2 0x4B28 DUP2 PUSH2 0x4AEF JUMP JUMPDEST SWAP1 POP SWAP2 SWAP1 POP JUMP JUMPDEST PUSH32 0x5661756C7420696E206172626974726174696F6E2E0000000000000000000000 PUSH0 DUP3 ADD MSTORE POP JUMP JUMPDEST PUSH0 PUSH2 0x4B63 PUSH1 0x15 DUP4 PUSH2 0x3D49 JUMP JUMPDEST SWAP2 POP PUSH2 0x4B6E DUP3 PUSH2 0x4B2F JUMP JUMPDEST PUSH1 0x20 DUP3 ADD SWAP1 POP SWAP2 SWAP1 POP JUMP JUMPDEST PUSH0 PUSH1 0x20 DUP3 ADD SWAP1 POP DUP2 DUP2 SUB PUSH0 DUP4 ADD MSTORE PUSH2 0x4B90 DUP2 PUSH2 0x4B57 JUMP JUMPDEST SWAP1 POP SWAP2 SWAP1 POP JUMP JUMPDEST PUSH32 0x4163636F756E74206E6F7420766F7465642E0000000000000000000000000000 PUSH0 DUP3 ADD MSTORE POP JUMP JUMPDEST PUSH0 PUSH2 0x4BCB PUSH1 0x12 DUP4 PUSH2 0x3D49 JUMP JUMPDEST SWAP2 POP PUSH2 0x4BD6 DUP3 PUSH2 0x4B97 JUMP JUMPDEST PUSH1 0x20 DUP3 ADD SWAP1 POP SWAP2 SWAP1 POP JUMP JUMPDEST PUSH0 PUSH1 0x20 DUP3 ADD SWAP1 POP DUP2 DUP2 SUB PUSH0 DUP4 ADD MSTORE PUSH2 0x4BF8 DUP2 PUSH2 0x4BBF JUMP JUMPDEST SWAP1 POP SWAP2 SWAP1 POP JUMP JUMPDEST PUSH0 PUSH2 0x4C09 DUP3 PUSH2 0x3DC8 JUMP JUMPDEST SWAP2 POP PUSH0 DUP3 SUB PUSH2 0x4C1B JUMPI PUSH2 0x4C1A PUSH2 0x4409 JUMP JUMPDEST JUMPDEST PUSH1 0x1 DUP3 SUB SWAP1 POP SWAP2 SWAP1 POP JUMP JUMPDEST PUSH32 0x6172626974726174696F6E5F756E766F74650000000000000000000000000000 PUSH0 DUP3 ADD MSTORE POP JUMP JUMPDEST PUSH0 PUSH2 0x4C5A PUSH1 0x12 DUP4 PUSH2 0x3D49 JUMP JUMPDEST SWAP2 POP PUSH2 0x4C65 DUP3 PUSH2 0x4C26 JUMP JUMPDEST PUSH1 0x20 DUP3 ADD SWAP1 POP SWAP2 SWAP1 POP JUMP JUMPDEST PUSH0 PUSH1 0x80 DUP3 ADD SWAP1 POP DUP2 DUP2 SUB PUSH0 DUP4 ADD MSTORE PUSH2 0x4C87 DUP2 PUSH2 0x4C4E JUMP JUMPDEST SWAP1 POP DUP2 DUP2 SUB PUSH1 0x20 DUP4 ADD MSTORE PUSH2 0x4C9B DUP2 DUP7 PUSH2 0x3D81 JUMP JUMPDEST SWAP1 POP PUSH2 0x4CAA PUSH1 0x40 DUP4 ADD DUP6 PUSH2 0x3DB9 JUMP JUMPDEST PUSH2 0x4CB7 PUSH1 0x60 DUP4 ADD DUP5 PUSH2 0x4793 JUMP JUMPDEST SWAP5 SWAP4 POP POP POP POP JUMP JUMPDEST PUSH32 0x4E6F2073656C6620736572766963652E00000000000000000000000000000000 PUSH0 DUP3 ADD MSTORE POP JUMP JUMPDEST PUSH0 PUSH2 0x4CF3 PUSH1 0x10 DUP4 PUSH2 0x3D49 JUMP JUMPDEST SWAP2 POP PUSH2 0x4CFE DUP3 PUSH2 0x4CBF JUMP JUMPDEST PUSH1 0x20 DUP3 ADD SWAP1 POP SWAP2 SWAP1 POP JUMP JUMPDEST PUSH0 PUSH1 0x20 DUP3 ADD SWAP1 POP DUP2 DUP2 SUB PUSH0 DUP4 ADD MSTORE PUSH2 0x4D20 DUP2 PUSH2 0x4CE7 JUMP JUMPDEST SWAP1 POP SWAP2 SWAP1 POP JUMP JUMPDEST PUSH32 0x4163636F756E74206E6F74206163746976652E00000000000000000000000000 PUSH0 DUP3 ADD MSTORE POP JUMP JUMPDEST PUSH0 PUSH2 0x4D5B PUSH1 0x13 DUP4 PUSH2 0x3D49 JUMP JUMPDEST SWAP2 POP PUSH2 0x4D66 DUP3 PUSH2 0x4D27 JUMP JUMPDEST PUSH1 0x20 DUP3 ADD SWAP1 POP SWAP2 SWAP1 POP JUMP JUMPDEST PUSH0 PUSH1 0x20 DUP3 ADD SWAP1 POP DUP2 DUP2 SUB PUSH0 DUP4 ADD MSTORE PUSH2 0x4D88 DUP2 PUSH2 0x4D4F JUMP JUMPDEST SWAP1 POP SWAP2 SWAP1 POP JUMP JUMPDEST PUSH0 PUSH2 0x4D99 DUP3 PUSH2 0x3B17 JUMP JUMPDEST SWAP2 POP PUSH2 0x4DA4 DUP4 PUSH2 0x3B17 JUMP JUMPDEST SWAP3 POP DUP3 DUP3 ADD SWAP1 POP DUP1 DUP3 GT ISZERO PUSH2 0x4DBC JUMPI PUSH2 0x4DBB PUSH2 0x4409 JUMP JUMPDEST JUMPDEST SWAP3 SWAP2 POP POP JUMP JUMPDEST PUSH0 PUSH1 0x60 DUP3 ADD SWAP1 POP PUSH2 0x4DD5 PUSH0 DUP4 ADD DUP7 PUSH2 0x3DB9 JUMP JUMPDEST PUSH2 0x4DE2 PUSH1 0x20 DUP4 ADD DUP6 PUSH2 0x3DB9 JUMP JUMPDEST PUSH2 0x4DEF PUSH1 0x40 DUP4 ADD DUP5 PUSH2 0x3B20 JUMP JUMPDEST SWAP5 SWAP4 POP POP POP POP JUMP JUMPDEST PUSH32 0x6163636F756E745F6465706F7369740000000000000000000000000000000000 PUSH0 DUP3 ADD MSTORE POP JUMP JUMPDEST PUSH0 PUSH2 0x4E2B PUSH1 0xF DUP4 PUSH2 0x3D49 JUMP JUMPDEST SWAP2 POP PUSH2 0x4E36 DUP3 PUSH2 0x4DF7 JUMP JUMPDEST PUSH1 0x20 DUP3 ADD SWAP1 POP SWAP2 SWAP1 POP JUMP JUMPDEST PUSH0 PUSH1 0x80 DUP3 ADD SWAP1 POP DUP2 DUP2 SUB PUSH0 DUP4 ADD MSTORE PUSH2 0x4E58 DUP2 PUSH2 0x4E1F JUMP JUMPDEST SWAP1 POP DUP2 DUP2 SUB PUSH1 0x20 DUP4 ADD MSTORE PUSH2 0x4E6C DUP2 DUP7 PUSH2 0x3D81 JUMP JUMPDEST SWAP1 POP PUSH2 0x4E7B PUSH1 0x40 DUP4 ADD DUP6 PUSH2 0x3DB9 JUMP JUMPDEST PUSH2 0x4E88 PUSH1 0x60 DUP4 ADD DUP5 PUSH2 0x3B20 JUMP JUMPDEST SWAP5 SWAP4 POP POP POP POP JUMP JUMPDEST PUSH32 0x5769746864726177206E6F742070656E64696E67000000000000000000000000 PUSH0 DUP3 ADD MSTORE POP JUMP JUMPDEST PUSH0 PUSH2 0x4EC4 PUSH1 0x14 DUP4 PUSH2 0x3D49 JUMP JUMPDEST SWAP2 POP PUSH2 0x4ECF DUP3 PUSH2 0x4E90 JUMP JUMPDEST PUSH1 0x20 DUP3 ADD SWAP1 POP SWAP2 SWAP1 POP JUMP JUMPDEST PUSH0 PUSH1 0x20 DUP3 ADD SWAP1 POP DUP2 DUP2 SUB PUSH0 DUP4 ADD MSTORE PUSH2 0x4EF1 DUP2 PUSH2 0x4EB8 JUMP JUMPDEST SWAP1 POP SWAP2 SWAP1 POP JUMP JUMPDEST PUSH32 0x576974686472617720616D6F756E7420696E636F727265637400000000000000 PUSH0 DUP3 ADD MSTORE POP JUMP JUMPDEST PUSH0 PUSH2 0x4F2C PUSH1 0x19 DUP4 PUSH2 0x3D49 JUMP JUMPDEST SWAP2 POP PUSH2 0x4F37 DUP3 PUSH2 0x4EF8 JUMP JUMPDEST PUSH1 0x20 DUP3 ADD SWAP1 POP SWAP2 SWAP1 POP JUMP JUMPDEST PUSH0 PUSH1 0x20 DUP3 ADD SWAP1 POP DUP2 DUP2 SUB PUSH0 DUP4 ADD MSTORE PUSH2 0x4F59 DUP2 PUSH2 0x4F20 JUMP JUMPDEST SWAP1 POP SWAP2 SWAP1 POP JUMP JUMPDEST PUSH32 0x77697468647261775F636F6E6669726D5F736974650000000000000000000000 PUSH0 DUP3 ADD MSTORE POP JUMP JUMPDEST PUSH0 PUSH2 0x4F94 PUSH1 0x15 DUP4 PUSH2 0x3D49 JUMP JUMPDEST SWAP2 POP PUSH2 0x4F9F DUP3 PUSH2 0x4F60 JUMP JUMPDEST PUSH1 0x20 DUP3 ADD SWAP1 POP SWAP2 SWAP1 POP JUMP JUMPDEST PUSH0 PUSH1 0x80 DUP3 ADD SWAP1 POP DUP2 DUP2 SUB PUSH0 DUP4 ADD MSTORE PUSH2 0x4FC1 DUP2 PUSH2 0x4F88 JUMP JUMPDEST SWAP1 POP DUP2 DUP2 SUB PUSH1 0x20 DUP4 ADD MSTORE PUSH2 0x4FD5 DUP2 DUP7 PUSH2 0x3D81 JUMP JUMPDEST SWAP1 POP PUSH2 0x4FE4 PUSH1 0x40 DUP4 ADD DUP6 PUSH2 0x3DB9 JUMP JUMPDEST PUSH2 0x4FF1 PUSH1 0x60 DUP4 ADD DUP5 PUSH2 0x3B20 JUMP JUMPDEST SWAP5 SWAP4 POP POP POP POP JUMP JUMPDEST PUSH32 0x4163636F756E7420696E636F7272656374207374617475732E00000000000000 PUSH0 DUP3 ADD MSTORE POP JUMP JUMPDEST PUSH0 PUSH2 0x502D PUSH1 0x19 DUP4 PUSH2 0x3D49 JUMP JUMPDEST SWAP2 POP PUSH2 0x5038 DUP3 PUSH2 0x4FF9 JUMP JUMPDEST PUSH1 0x20 DUP3 ADD SWAP1 POP SWAP2 SWAP1 POP JUMP JUMPDEST PUSH0 PUSH1 0x20 DUP3 ADD SWAP1 POP DUP2 DUP2 SUB PUSH0 DUP4 ADD MSTORE PUSH2 0x505A DUP2 PUSH2 0x5021 JUMP JUMPDEST SWAP1 POP SWAP2 SWAP1 POP JUMP JUMPDEST PUSH32 0x6163636F756E745F6C6F636B0000000000000000000000000000000000000000 PUSH0 DUP3 ADD MSTORE POP JUMP JUMPDEST PUSH0 PUSH2 0x5095 PUSH1 0xC DUP4 PUSH2 0x3D49 JUMP JUMPDEST SWAP2 POP PUSH2 0x50A0 DUP3 PUSH2 0x5061 JUMP JUMPDEST PUSH1 0x20 DUP3 ADD SWAP1 POP SWAP2 SWAP1 POP JUMP JUMPDEST PUSH0 PUSH1 0x80 DUP3 ADD SWAP1 POP DUP2 DUP2 SUB PUSH0 DUP4 ADD MSTORE PUSH2 0x50C2 DUP2 PUSH2 0x5089 JUMP JUMPDEST SWAP1 POP DUP2 DUP2 SUB PUSH1 0x20 DUP4 ADD MSTORE PUSH2 0x50D6 DUP2 DUP7 PUSH2 0x3D81 JUMP JUMPDEST SWAP1 POP PUSH2 0x50E5 PUSH1 0x40 DUP4 ADD DUP6 PUSH2 0x3DB9 JUMP JUMPDEST PUSH2 0x50F2 PUSH1 0x60 DUP4 ADD DUP5 PUSH2 0x48CD JUMP JUMPDEST SWAP5 SWAP4 POP POP POP POP JUMP JUMPDEST PUSH32 0x4163636F756E74206172626974726174696F6E20766F7465642E000000000000 PUSH0 DUP3 ADD MSTORE POP JUMP JUMPDEST PUSH0 PUSH2 0x512E PUSH1 0x1A DUP4 PUSH2 0x3D49 JUMP JUMPDEST SWAP2 POP PUSH2 0x5139 DUP3 PUSH2 0x50FA JUMP JUMPDEST PUSH1 0x20 DUP3 ADD SWAP1 POP SWAP2 SWAP1 POP JUMP JUMPDEST PUSH0 PUSH1 0x20 DUP3 ADD SWAP1 POP DUP2 DUP2 SUB PUSH0 DUP4 ADD MSTORE PUSH2 0x515B DUP2 PUSH2 0x5122 JUMP JUMPDEST SWAP1 POP SWAP2 SWAP1 POP JUMP JUMPDEST PUSH0 PUSH2 0x516C DUP3 PUSH2 0x3DC8 JUMP JUMPDEST SWAP2 POP PUSH2 0x5177 DUP4 PUSH2 0x3DC8 JUMP JUMPDEST SWAP3 POP DUP3 DUP3 MUL PUSH2 0x5185 DUP2 PUSH2 0x3DC8 JUMP JUMPDEST SWAP2 POP DUP1 DUP3 EQ PUSH2 0x5197 JUMPI PUSH2 0x5196 PUSH2 0x4409 JUMP JUMPDEST JUMPDEST POP SWAP3 SWAP2 POP POP JUMP JUMPDEST PUSH32 0x4E487B7100000000000000000000000000000000000000000000000000000000 PUSH0 MSTORE PUSH1 0x12 PUSH1 0x4 MSTORE PUSH1 0x24 PUSH0 REVERT JUMPDEST PUSH0 PUSH2 0x51D5 DUP3 PUSH2 0x3DC8 JUMP JUMPDEST SWAP2 POP PUSH2 0x51E0 DUP4 PUSH2 0x3DC8 JUMP JUMPDEST SWAP3 POP DUP3 PUSH2 0x51F0 JUMPI PUSH2 0x51EF PUSH2 0x519E JUMP JUMPDEST JUMPDEST DUP3 DUP3 DIV SWAP1 POP SWAP3 SWAP2 POP POP JUMP JUMPDEST PUSH32 0x6172626974726174696F6E5F766F746500000000000000000000000000000000 PUSH0 DUP3 ADD MSTORE POP JUMP JUMPDEST PUSH0 PUSH2 0x522F PUSH1 0x10 DUP4 PUSH2 0x3D49 JUMP JUMPDEST SWAP2 POP PUSH2 0x523A DUP3 PUSH2 0x51FB JUMP JUMPDEST PUSH1 0x20 DUP3 ADD SWAP1 POP SWAP2 SWAP1 POP JUMP JUMPDEST PUSH0 PUSH1 0x80 DUP3 ADD SWAP1 POP DUP2 DUP2 SUB PUSH0 DUP4 ADD MSTORE PUSH2 0x525C DUP2 PUSH2 0x5223 JUMP JUMPDEST SWAP1 POP DUP2 DUP2 SUB PUSH1 0x20 DUP4 ADD MSTORE PUSH2 0x5270 DUP2 DUP7 PUSH2 0x3D81 JUMP JUMPDEST SWAP1 POP PUSH2 0x527F PUSH1 0x40 DUP4 ADD DUP6 PUSH2 0x3DB9 JUMP JUMPDEST PUSH2 0x528C PUSH1 0x60 DUP4 ADD DUP5 PUSH2 0x4793 JUMP JUMPDEST SWAP5 SWAP4 POP POP POP POP JUMP JUMPDEST PUSH32 0x5769746864726177206E6F7420616C6C6F7765642E0000000000000000000000 PUSH0 DUP3 ADD MSTORE POP JUMP JUMPDEST PUSH0 PUSH2 0x52C8 PUSH1 0x15 DUP4 PUSH2 0x3D49 JUMP JUMPDEST SWAP2 POP PUSH2 0x52D3 DUP3 PUSH2 0x5294 JUMP JUMPDEST PUSH1 0x20 DUP3 ADD SWAP1 POP SWAP2 SWAP1 POP JUMP JUMPDEST PUSH0 PUSH1 0x20 DUP3 ADD SWAP1 POP DUP2 DUP2 SUB PUSH0 DUP4 ADD MSTORE PUSH2 0x52F5 DUP2 PUSH2 0x52BC JUMP JUMPDEST SWAP1 POP SWAP2 SWAP1 POP JUMP JUMPDEST PUSH32 0x576974686472617720616C7265616479207265717565737465642E0000000000 PUSH0 DUP3 ADD MSTORE POP JUMP JUMPDEST PUSH0 PUSH2 0x5330 PUSH1 0x1B DUP4 PUSH2 0x3D49 JUMP JUMPDEST SWAP2 POP PUSH2 0x533B DUP3 PUSH2 0x52FC JUMP JUMPDEST PUSH1 0x20 DUP3 ADD SWAP1 POP SWAP2 SWAP1 POP JUMP JUMPDEST PUSH0 PUSH1 0x20 DUP3 ADD SWAP1 POP DUP2 DUP2 SUB PUSH0 DUP4 ADD MSTORE PUSH2 0x535D DUP2 PUSH2 0x5324 JUMP JUMPDEST SWAP1 POP SWAP2 SWAP1 POP JUMP JUMPDEST PUSH32 0x576974686472617720616D6F756E742062656C6F77206D696E696D756D2E0000 PUSH0 DUP3 ADD MSTORE POP JUMP JUMPDEST PUSH0 PUSH2 0x5398 PUSH1 0x1E DUP4 PUSH2 0x3D49 JUMP JUMPDEST SWAP2 POP PUSH2 0x53A3 DUP3 PUSH2 0x5364 JUMP JUMPDEST PUSH1 0x20 DUP3 ADD SWAP1 POP SWAP2 SWAP1 POP JUMP JUMPDEST PUSH0 PUSH1 0x20 DUP3 ADD SWAP1 POP DUP2 DUP2 SUB PUSH0 DUP4 ADD MSTORE PUSH2 0x53C5 DUP2 PUSH2 0x538C JUMP JUMPDEST SWAP1 POP SWAP2 SWAP1 POP JUMP JUMPDEST PUSH32 0x576974686472617720616D6F756E742061626F7665206D6178696D756D000000 PUSH0 DUP3 ADD MSTORE POP JUMP JUMPDEST PUSH0 PUSH2 0x5400 PUSH1 0x1D DUP4 PUSH2 0x3D49 JUMP JUMPDEST SWAP2 POP PUSH2 0x540B DUP3 PUSH2 0x53CC JUMP JUMPDEST PUSH1 0x20 DUP3 ADD SWAP1 POP SWAP2 SWAP1 POP JUMP JUMPDEST PUSH0 PUSH1 0x20 DUP3 ADD SWAP1 POP DUP2 DUP2 SUB PUSH0 DUP4 ADD MSTORE PUSH2 0x542D DUP2 PUSH2 0x53F4 JUMP JUMPDEST SWAP1 POP SWAP2 SWAP1 POP JUMP JUMPDEST PUSH32 0x5769746864726177206F76657220706F6F6C206C696D69742E00000000000000 PUSH0 DUP3 ADD MSTORE POP JUMP JUMPDEST PUSH0 PUSH2 0x5468 PUSH1 0x19 DUP4 PUSH2 0x3D49 JUMP JUMPDEST SWAP2 POP PUSH2 0x5473 DUP3 PUSH2 0x5434 JUMP JUMPDEST PUSH1 0x20 DUP3 ADD SWAP1 POP SWAP2 SWAP1 POP JUMP JUMPDEST PUSH0 PUSH1 0x20 DUP3 ADD SWAP1 POP DUP2 DUP2 SUB PUSH0 DUP4 ADD MSTORE PUSH2 0x5495 DUP2 PUSH2 0x545C JUMP JUMPDEST SWAP1 POP SWAP2 SWAP1 POP JUMP JUMPDEST PUSH32 0x77697468647261775F7265717565737400000000000000000000000000000000 PUSH0 DUP3 ADD MSTORE POP JUMP JUMPDEST PUSH0 PUSH2 0x54D0 PUSH1 0x10 DUP4 PUSH2 0x3D49 JUMP JUMPDEST SWAP2 POP PUSH2 0x54DB DUP3 PUSH2 0x549C JUMP JUMPDEST PUSH1 0x20 DUP3 ADD SWAP1 POP SWAP2 SWAP1 POP JUMP JUMPDEST PUSH0 PUSH1 0x80 DUP3 ADD SWAP1 POP DUP2 DUP2 SUB PUSH0 DUP4 ADD MSTORE PUSH2 0x54FD DUP2 PUSH2 0x54C4 JUMP JUMPDEST SWAP1 POP DUP2 DUP2 SUB PUSH1 0x20 DUP4 ADD MSTORE PUSH2 0x5511 DUP2 DUP7 PUSH2 0x3D81 JUMP JUMPDEST SWAP1 POP PUSH2 0x5520 PUSH1 0x40 DUP4 ADD DUP6 PUSH2 0x3DB9 JUMP JUMPDEST PUSH2 0x552D PUSH1 0x60 DUP4 ADD DUP5 PUSH2 0x3B20 JUMP JUMPDEST SWAP5 SWAP4 POP POP POP POP JUMP JUMPDEST PUSH32 0x5661756C7420616C7265616479206578697374732E0000000000000000000000 PUSH0 DUP3 ADD MSTORE POP JUMP JUMPDEST PUSH0 PUSH2 0x5569 PUSH1 0x15 DUP4 PUSH2 0x3D49 JUMP JUMPDEST SWAP2 POP PUSH2 0x5574 DUP3 PUSH2 0x5535 JUMP JUMPDEST PUSH1 0x20 DUP3 ADD SWAP1 POP SWAP2 SWAP1 POP JUMP JUMPDEST PUSH0 PUSH1 0x20 DUP3 ADD SWAP1 POP DUP2 DUP2 SUB PUSH0 DUP4 ADD MSTORE PUSH2 0x5596 DUP2 PUSH2 0x555D JUMP JUMPDEST SWAP1 POP SWAP2 SWAP1 POP JUMP JUMPDEST PUSH32 0x7661756C745F6372656174650000000000000000000000000000000000000000 PUSH0 DUP3 ADD MSTORE POP JUMP JUMPDEST PUSH0 PUSH2 0x55D1 PUSH1 0xC DUP4 PUSH2 0x3D49 JUMP JUMPDEST SWAP2 POP PUSH2 0x55DC DUP3 PUSH2 0x559D JUMP JUMPDEST PUSH1 0x20 DUP3 ADD SWAP1 POP SWAP2 SWAP1 POP JUMP JUMPDEST PUSH0 PUSH1 0x80 DUP3 ADD SWAP1 POP DUP2 DUP2 SUB PUSH0 DUP4 ADD MSTORE PUSH2 0x55FE DUP2 PUSH2 0x55C5 JUMP JUMPDEST SWAP1 POP DUP2 DUP2 SUB PUSH1 0x20 DUP4 ADD MSTORE PUSH2 0x5612 DUP2 DUP7 PUSH2 0x3D81 JUMP JUMPDEST SWAP1 POP PUSH2 0x5621 PUSH1 0x40 DUP4 ADD DUP6 PUSH2 0x3DB9 JUMP JUMPDEST PUSH2 0x562E PUSH1 0x60 DUP4 ADD DUP5 PUSH2 0x48CD JUMP JUMPDEST SWAP5 SWAP4 POP POP POP POP JUMP JUMPDEST PUSH32 0x77697468647261775F72656A6563745F73697465000000000000000000000000 PUSH0 DUP3 ADD MSTORE POP JUMP JUMPDEST PUSH0 PUSH2 0x566A PUSH1 0x14 DUP4 PUSH2 0x3D49 JUMP JUMPDEST SWAP2 POP PUSH2 0x5675 DUP3 PUSH2 0x5636 JUMP JUMPDEST PUSH1 0x20 DUP3 ADD SWAP1 POP SWAP2 SWAP1 POP JUMP JUMPDEST PUSH0 PUSH1 0x80 DUP3 ADD SWAP1 POP DUP2 DUP2 SUB PUSH0 DUP4 ADD MSTORE PUSH2 0x5697 DUP2 PUSH2 0x565E JUMP JUMPDEST SWAP1 POP DUP2 DUP2 SUB PUSH1 0x20 DUP4 ADD MSTORE PUSH2 0x56AB DUP2 DUP7 PUSH2 0x3D81 JUMP JUMPDEST SWAP1 POP PUSH2 0x56BA PUSH1 0x40 DUP4 ADD DUP6 PUSH2 0x3DB9 JUMP JUMPDEST PUSH2 0x56C7 PUSH1 0x60 DUP4 ADD DUP5 PUSH2 0x3B20 JUMP JUMPDEST SWAP5 SWAP4 POP POP POP POP JUMP JUMPDEST PUSH32 0x6163636F756E745F6F70656E5F636F6E6669726D000000000000000000000000 PUSH0 DUP3 ADD MSTORE POP JUMP JUMPDEST PUSH0 PUSH2 0x5703 PUSH1 0x14 DUP4 PUSH2 0x3D49 JUMP JUMPDEST SWAP2 POP PUSH2 0x570E DUP3 PUSH2 0x56CF JUMP JUMPDEST PUSH1 0x20 DUP3 ADD SWAP1 POP SWAP2 SWAP1 POP JUMP JUMPDEST PUSH0 PUSH1 0x80 DUP3 ADD SWAP1 POP DUP2 DUP2 SUB PUSH0 DUP4 ADD MSTORE PUSH2 0x5730 DUP2 PUSH2 0x56F7 JUMP JUMPDEST SWAP1 POP DUP2 DUP2 SUB PUSH1 0x20 DUP4 ADD MSTORE PUSH2 0x5744 DUP2 DUP7 PUSH2 0x3D81 JUMP JUMPDEST SWAP1 POP PUSH2 0x5753 PUSH1 0x40 DUP4 ADD DUP6 PUSH2 0x3DB9 JUMP JUMPDEST PUSH2 0x5760 PUSH1 0x60 DUP4 ADD DUP5 PUSH2 0x48CD JUMP JUMPDEST SWAP5 SWAP4 POP POP POP POP JUMP JUMPDEST PUSH32 0x6163636F756E745F636C6F736500000000000000000000000000000000000000 PUSH0 DUP3 ADD MSTORE POP JUMP JUMPDEST PUSH0 PUSH2 0x579C PUSH1 0xD DUP4 PUSH2 0x3D49 JUMP JUMPDEST SWAP2 POP PUSH2 0x57A7 DUP3 PUSH2 0x5768 JUMP JUMPDEST PUSH1 0x20 DUP3 ADD SWAP1 POP SWAP2 SWAP1 POP JUMP JUMPDEST PUSH0 PUSH1 0x80 DUP3 ADD SWAP1 POP DUP2 DUP2 SUB PUSH0 DUP4 ADD MSTORE PUSH2 0x57C9 DUP2 PUSH2 0x5790 JUMP JUMPDEST SWAP1 POP DUP2 DUP2 SUB PUSH1 0x20 DUP4 ADD MSTORE PUSH2 0x57DD DUP2 DUP7 PUSH2 0x3D81 JUMP JUMPDEST SWAP1 POP PUSH2 0x57EC PUSH1 0x40 DUP4 ADD DUP6 PUSH2 0x3DB9 JUMP JUMPDEST PUSH2 0x57F9 PUSH1 0x60 DUP4 ADD DUP5 PUSH2 0x4793 JUMP JUMPDEST SWAP5 SWAP4 POP POP POP POP JUMP JUMPDEST PUSH32 0x536974652061646D696E206F6E6C792E00000000000000000000000000000000 PUSH0 DUP3 ADD MSTORE POP JUMP JUMPDEST PUSH0 PUSH2 0x5835 PUSH1 0x10 DUP4 PUSH2 0x3D49 JUMP JUMPDEST SWAP2 POP PUSH2 0x5840 DUP3 PUSH2 0x5801 JUMP JUMPDEST PUSH1 0x20 DUP3 ADD SWAP1 POP SWAP2 SWAP1 POP JUMP JUMPDEST PUSH0 PUSH1 0x20 DUP3 ADD SWAP1 POP DUP2 DUP2 SUB PUSH0 DUP4 ADD MSTORE PUSH2 0x5862 DUP2 PUSH2 0x5829 JUMP JUMPDEST SWAP1 POP SWAP2 SWAP1 POP JUMP JUMPDEST PUSH32 0x5661756C74206F776E6572206F6E6C792E000000000000000000000000000000 PUSH0 DUP3 ADD MSTORE POP JUMP JUMPDEST PUSH0 PUSH2 0x589D PUSH1 0x11 DUP4 PUSH2 0x3D49 JUMP JUMPDEST SWAP2 POP PUSH2 0x58A8 DUP3 PUSH2 0x5869 JUMP JUMPDEST PUSH1 0x20 DUP3 ADD SWAP1 POP SWAP2 SWAP1 POP JUMP JUMPDEST PUSH0 PUSH1 0x20 DUP3 ADD SWAP1 POP DUP2 DUP2 SUB PUSH0 DUP4 ADD MSTORE PUSH2 0x58CA DUP2 PUSH2 0x5891 JUMP JUMPDEST SWAP1 POP SWAP2 SWAP1 POP JUMP JUMPDEST PUSH32 0x55736572206E6F7420666F756E642E0000000000000000000000000000000000 PUSH0 DUP3 ADD MSTORE POP JUMP JUMPDEST PUSH0 PUSH2 0x5905 PUSH1 0xF DUP4 PUSH2 0x3D49 JUMP JUMPDEST SWAP2 POP PUSH2 0x5910 DUP3 PUSH2 0x58D1 JUMP JUMPDEST PUSH1 0x20 DUP3 ADD SWAP1 POP SWAP2 SWAP1 POP JUMP JUMPDEST PUSH0 PUSH1 0x20 DUP3 ADD SWAP1 POP DUP2 DUP2 SUB PUSH0 DUP4 ADD MSTORE PUSH2 0x5932 DUP2 PUSH2 0x58F9 JUMP JUMPDEST SWAP1 POP SWAP2 SWAP1 POP JUMP JUMPDEST PUSH0 PUSH2 0x5943 DUP3 PUSH2 0x3B17 JUMP JUMPDEST SWAP2 POP PUSH2 0x594E DUP4 PUSH2 0x3B17 JUMP JUMPDEST SWAP3 POP DUP3 DUP3 MUL PUSH2 0x595C DUP2 PUSH2 0x3B17 JUMP JUMPDEST SWAP2 POP DUP3 DUP3 DIV DUP5 EQ DUP4 ISZERO OR PUSH2 0x5973 JUMPI PUSH2 0x5972 PUSH2 0x4409 JUMP JUMPDEST JUMPDEST POP SWAP3 SWAP2 POP POP JUMP JUMPDEST PUSH0 PUSH2 0x5984 DUP3 PUSH2 0x3B17 JUMP JUMPDEST SWAP2 POP PUSH2 0x598F DUP4 PUSH2 0x3B17 JUMP JUMPDEST SWAP3 POP DUP3 PUSH2 0x599F JUMPI PUSH2 0x599E PUSH2 0x519E JUMP JUMPDEST JUMPDEST DUP3 DUP3 DIV SWAP1 POP SWAP3 SWAP2 POP POP JUMP JUMPDEST PUSH0 PUSH1 0x40 DUP3 ADD SWAP1 POP PUSH2 0x59BD PUSH0 DUP4 ADD DUP6 PUSH2 0x3DB9 JUMP JUMPDEST PUSH2 0x59CA PUSH1 0x20 DUP4 ADD DUP5 PUSH2 0x3B20 JUMP JUMPDEST SWAP4 SWAP3 POP POP POP JUMP JUMPDEST PUSH0 DUP2 MLOAD SWAP1 POP PUSH2 0x59DF DUP2 PUSH2 0x3C2E JUMP JUMPDEST SWAP3 SWAP2 POP POP JUMP JUMPDEST PUSH0 PUSH1 0x20 DUP3 DUP5 SUB SLT ISZERO PUSH2 0x59FA JUMPI PUSH2 0x59F9 PUSH2 0x38F1 JUMP JUMPDEST JUMPDEST PUSH0 PUSH2 0x5A07 DUP5 DUP3 DUP6 ADD PUSH2 0x59D1 JUMP JUMPDEST SWAP2 POP POP SWAP3 SWAP2 POP POP JUMP JUMPDEST PUSH32 0x77697468647261775F7472616E73666572000000000000000000000000000000 PUSH0 DUP3 ADD MSTORE POP JUMP JUMPDEST PUSH0 PUSH2 0x5A44 PUSH1 0x11 DUP4 PUSH2 0x3D49 JUMP JUMPDEST SWAP2 POP PUSH2 0x5A4F DUP3 PUSH2 0x5A10 JUMP JUMPDEST PUSH1 0x20 DUP3 ADD SWAP1 POP SWAP2 SWAP1 POP JUMP JUMPDEST PUSH0 PUSH1 0x80 DUP3 ADD SWAP1 POP DUP2 DUP2 SUB PUSH0 DUP4 ADD MSTORE PUSH2 0x5A71 DUP2 PUSH2 0x5A38 JUMP JUMPDEST SWAP1 POP DUP2 DUP2 SUB PUSH1 0x20 DUP4 ADD MSTORE PUSH2 0x5A85 DUP2 DUP7 PUSH2 0x3D81 JUMP JUMPDEST SWAP1 POP PUSH2 0x5A94 PUSH1 0x40 DUP4 ADD DUP6 PUSH2 0x3DB9 JUMP JUMPDEST PUSH2 0x5AA1 PUSH1 0x60 DUP4 ADD DUP5 PUSH2 0x3B20 JUMP JUMPDEST SWAP5 SWAP4 POP POP POP POP JUMP JUMPDEST PUSH32 0x52657175657374206E6F7420666F756E642E0000000000000000000000000000 PUSH0 DUP3 ADD MSTORE POP JUMP JUMPDEST PUSH0 PUSH2 0x5ADD PUSH1 0x12 DUP4 PUSH2 0x3D49 JUMP JUMPDEST SWAP2 POP PUSH2 0x5AE8 DUP3 PUSH2 0x5AA9 JUMP JUMPDEST PUSH1 0x20 DUP3 ADD SWAP1 POP SWAP2 SWAP1 POP JUMP JUMPDEST PUSH0 PUSH1 0x20 DUP3 ADD SWAP1 POP DUP2 DUP2 SUB PUSH0 DUP4 ADD MSTORE PUSH2 0x5B0A DUP2 PUSH2 0x5AD1 JUMP JUMPDEST SWAP1 POP SWAP2 SWAP1 POP JUMP JUMPDEST PUSH32 0x5661756C74206D616E6167656D656E74206F6E6C792E00000000000000000000 PUSH0 DUP3 ADD MSTORE POP JUMP JUMPDEST PUSH0 PUSH2 0x5B45 PUSH1 0x16 DUP4 PUSH2 0x3D49 JUMP JUMPDEST SWAP2 POP PUSH2 0x5B50 DUP3 PUSH2 0x5B11 JUMP JUMPDEST PUSH1 0x20 DUP3 ADD SWAP1 POP SWAP2 SWAP1 POP JUMP JUMPDEST PUSH0 PUSH1 0x20 DUP3 ADD SWAP1 POP DUP2 DUP2 SUB PUSH0 DUP4 ADD MSTORE PUSH2 0x5B72 DUP2 PUSH2 0x5B39 JUMP JUMPDEST SWAP1 POP SWAP2 SWAP1 POP JUMP INVALID LOG2 PUSH5 0x6970667358 0x22 SLT KECCAK256 SUB SMOD DIV PUSH10 0x41A1DA36D7E6BCAAF505 SWAP11 CHAINID PUSH10 0x3E653706C8D9C8793A05 RETURN 0xA9 0xB8 SWAP5 DUP15 PUSH5 0x736F6C6343 STOP ADDMOD EQ STOP CALLER "
    },
    "methodIdentifiers": {
      "g__VaultAccounts(string,address)": "e29ebbfb",
      "user__withdraw_self(string,string)": "47d733ce",
      "g__VaultCount()": "a49d8533",
      "user__arbitration_unvote(string)": "3e1c1ea8",
      "site__withdraw_reject(string,address,string)": "e463d44b",
      "owner__account_lock(string,address)": "afb0eca9",
      "owner__withdraw_reject(string,address,string)": "3665631a",
      "site__change_authority(address)": "39becbbe",
      "site__remove_support(address)": "fcb74bf3",
      "site__add_support(address)": "36fceb3e",
      "owner__set_auto(string,bool)": "18bb8952",
      "g__VaultWithdrawals(string,address,string)": "001b3212",
      "site__account_close(string,address)": "f2a9392d",
      "g__VaultLookup(string)": "1a88d046",
      "owner__account_unlock(string,address)": "136a899e",
      "user__arbitration_vote(string)": "b96161e3",
      "owner__withdraw_approve(string,address,string,uint256)": "e3465d7a",
      "user__account_deposit(string,uint256)": "4e71c49a",
      "owner__account_open_confirm(string,address)": "e480ad83",
      "g__SiteArbitrationThreshold()": "f0657582",
      "g__SiteSupport(address)": "f31300b4",
      "site__withdraw_confirm(string,address,string,uint256)": "4fc538fd",
      "site__account_open(string,address)": "049fde97",
      "user__withdraw_request(string,string,uint256)": "be922bca",
      "g__SiteAuthority()": "95875a68",
      "site__vault_create(string,string,address,uint16,uint256,uint256,uint256,address)": "daed6ca2"
    },
    "gasEstimates": {
      "internal": {
        "ut__assert_management(string memory,address)": "infinite",
        "ut__get_withdraw(string memory,address,string memory)": "infinite",
        "ut__withdraw_transfer(string memory,address,string memory,struct StatstradeVaultErc20Factory.WithdrawRequest memory,bool)": "infinite",
        "ut__assert_owner(string memory,address)": "infinite",
        "ut__assert_admin(address)": "infinite",
        "ut__get_account(string memory,address)": "infinite"
      },
      "creation": {
        "executionCost": "infinite",
        "codeDepositCost": "4694200",
        "totalCost": "infinite"
      },
      "external": {
        "g__VaultAccounts(string,address)": "infinite",
        "user__withdraw_self(string,string)": "infinite",
        "g__VaultCount()": "2537",
        "user__arbitration_unvote(string)": "infinite",
        "site__withdraw_reject(string,address,string)": "infinite",
        "owner__account_lock(string,address)": "infinite",
        "owner__withdraw_reject(string,address,string)": "infinite",
        "site__change_authority(address)": "26949",
        "site__remove_support(address)": "29328",
        "site__add_support(address)": "27015",
        "owner__set_auto(string,bool)": "infinite",
        "g__VaultWithdrawals(string,address,string)": "infinite",
        "site__account_close(string,address)": "infinite",
        "g__VaultLookup(string)": "infinite",
        "owner__account_unlock(string,address)": "infinite",
        "user__arbitration_vote(string)": "infinite",
        "owner__withdraw_approve(string,address,string,uint256)": "infinite",
        "user__account_deposit(string,uint256)": "infinite",
        "owner__account_open_confirm(string,address)": "infinite",
        "g__SiteArbitrationThreshold()": "2510",
        "g__SiteSupport(address)": "2921",
        "site__withdraw_confirm(string,address,string,uint256)": "infinite",
        "site__account_open(string,address)": "infinite",
        "user__withdraw_request(string,string,uint256)": "infinite",
        "g__SiteAuthority()": "2616",
        "site__vault_create(string,string,address,uint16,uint256,uint256,uint256,address)": "infinite"
      }
    },
    "assembly": "    /* \"temp.sol\":301:14333  contract StatstradeVaultErc20Factory {... */\n  mstore(0x40, 0x80)\n    /* \"temp.sol\":1627:1776  constructor(uint16 site_arbitration_threshold) {... */\n  callvalue\n  dup1\n  iszero\n  tag_1\n  jumpi\n  0x00\n  dup1\n  revert\ntag_1:\n  pop\n  mload(0x40)\n  sub(codesize, bytecodeSize)\n  dup1\n  bytecodeSize\n  dup4\n  codecopy\n  dup2\n  dup2\n  add\n  0x40\n  mstore\n  dup2\n  add\n  swap1\n  tag_2\n  swap2\n  swap1\n  tag_3\n  jump\t// in\ntag_2:\n    /* \"temp.sol\":1699:1709  msg.sender */\n  caller\n    /* \"temp.sol\":1680:1696  g__SiteAuthority */\n  0x00\n  dup1\n    /* \"temp.sol\":1680:1709  g__SiteAuthority = msg.sender */\n  0x0100\n  exp\n  dup2\n  sload\n  dup2\n  0xffffffffffffffffffffffffffffffffffffffff\n  mul\n  not\n  and\n  swap1\n  dup4\n  0xffffffffffffffffffffffffffffffffffffffff\n  and\n  mul\n  or\n  swap1\n  sstore\n  pop\n    /* \"temp.sol\":1745:1771  site_arbitration_threshold */\n  dup1\n    /* \"temp.sol\":1715:1742  g__SiteArbitrationThreshold */\n  0x02\n  0x00\n    /* \"temp.sol\":1715:1771  g__SiteArbitrationThreshold = site_arbitration_threshold */\n  0x0100\n  exp\n  dup2\n  sload\n  dup2\n  0xffff\n  mul\n  not\n  and\n  swap1\n  dup4\n  0xffff\n  and\n  mul\n  or\n  swap1\n  sstore\n  pop\n    /* \"temp.sol\":1627:1776  constructor(uint16 site_arbitration_threshold) {... */\n  pop\n    /* \"temp.sol\":301:14333  contract StatstradeVaultErc20Factory {... */\n  jump(tag_6)\n    /* \"#utility.yul\":88:205   */\ntag_8:\n    /* \"#utility.yul\":197:198   */\n  0x00\n    /* \"#utility.yul\":194:195   */\n  dup1\n    /* \"#utility.yul\":187:199   */\n  revert\n    /* \"#utility.yul\":334:423   */\ntag_10:\n    /* \"#utility.yul\":370:377   */\n  0x00\n    /* \"#utility.yul\":410:416   */\n  0xffff\n    /* \"#utility.yul\":403:408   */\n  dup3\n    /* \"#utility.yul\":399:417   */\n  and\n    /* \"#utility.yul\":388:417   */\n  swap1\n  pop\n    /* \"#utility.yul\":334:423   */\n  swap2\n  swap1\n  pop\n  jump\t// out\n    /* \"#utility.yul\":429:549   */\ntag_11:\n    /* \"#utility.yul\":501:524   */\n  tag_19\n    /* \"#utility.yul\":518:523   */\n  dup2\n    /* \"#utility.yul\":501:524   */\n  tag_10\n  jump\t// in\ntag_19:\n    /* \"#utility.yul\":494:499   */\n  dup2\n    /* \"#utility.yul\":491:525   */\n  eq\n    /* \"#utility.yul\":481:543   */\n  tag_20\n  jumpi\n    /* \"#utility.yul\":539:540   */\n  0x00\n    /* \"#utility.yul\":536:537   */\n  dup1\n    /* \"#utility.yul\":529:541   */\n  revert\n    /* \"#utility.yul\":481:543   */\ntag_20:\n    /* \"#utility.yul\":429:549   */\n  pop\n  jump\t// out\n    /* \"#utility.yul\":555:696   */\ntag_12:\n    /* \"#utility.yul\":611:616   */\n  0x00\n    /* \"#utility.yul\":642:648   */\n  dup2\n    /* \"#utility.yul\":636:649   */\n  mload\n    /* \"#utility.yul\":627:649   */\n  swap1\n  pop\n    /* \"#utility.yul\":658:690   */\n  tag_22\n    /* \"#utility.yul\":684:689   */\n  dup2\n    /* \"#utility.yul\":658:690   */\n  tag_11\n  jump\t// in\ntag_22:\n    /* \"#utility.yul\":555:696   */\n  swap3\n  swap2\n  pop\n  pop\n  jump\t// out\n    /* \"#utility.yul\":702:1051   */\ntag_3:\n    /* \"#utility.yul\":771:777   */\n  0x00\n    /* \"#utility.yul\":820:822   */\n  0x20\n    /* \"#utility.yul\":808:817   */\n  dup3\n    /* \"#utility.yul\":799:806   */\n  dup5\n    /* \"#utility.yul\":795:818   */\n  sub\n    /* \"#utility.yul\":791:823   */\n  slt\n    /* \"#utility.yul\":788:907   */\n  iszero\n  tag_24\n  jumpi\n    /* \"#utility.yul\":826:905   */\n  tag_25\n  tag_8\n  jump\t// in\ntag_25:\n    /* \"#utility.yul\":788:907   */\ntag_24:\n    /* \"#utility.yul\":946:947   */\n  0x00\n    /* \"#utility.yul\":971:1034   */\n  tag_26\n    /* \"#utility.yul\":1026:1033   */\n  dup5\n    /* \"#utility.yul\":1017:1023   */\n  dup3\n    /* \"#utility.yul\":1006:1015   */\n  dup6\n    /* \"#utility.yul\":1002:1024   */\n  add\n    /* \"#utility.yul\":971:1034   */\n  tag_12\n  jump\t// in\ntag_26:\n    /* \"#utility.yul\":961:1034   */\n  swap2\n  pop\n    /* \"#utility.yul\":917:1044   */\n  pop\n    /* \"#utility.yul\":702:1051   */\n  swap3\n  swap2\n  pop\n  pop\n  jump\t// out\n    /* \"temp.sol\":301:14333  contract StatstradeVaultErc20Factory {... */\ntag_6:\n  dataSize(sub_0)\n  dup1\n  dataOffset(sub_0)\n  0x00\n  codecopy\n  0x00\n  return\nstop\n\nsub_0: assembly {\n        /* \"temp.sol\":301:14333  contract StatstradeVaultErc20Factory {... */\n      mstore(0x40, 0x80)\n      callvalue\n      dup1\n      iszero\n      tag_1\n      jumpi\n      0x00\n      dup1\n      revert\n    tag_1:\n      pop\n      jumpi(tag_2, lt(calldatasize, 0x04))\n      shr(0xe0, calldataload(0x00))\n      dup1\n      0xa49d8533\n      gt\n      tag_29\n      jumpi\n      dup1\n      0xe3465d7a\n      gt\n      tag_30\n      jumpi\n      dup1\n      0xf0657582\n      gt\n      tag_31\n      jumpi\n      dup1\n      0xf0657582\n      eq\n      tag_25\n      jumpi\n      dup1\n      0xf2a9392d\n      eq\n      tag_26\n      jumpi\n      dup1\n      0xf31300b4\n      eq\n      tag_27\n      jumpi\n      dup1\n      0xfcb74bf3\n      eq\n      tag_28\n      jumpi\n      jump(tag_2)\n    tag_31:\n      dup1\n      0xe3465d7a\n      eq\n      tag_22\n      jumpi\n      dup1\n      0xe463d44b\n      eq\n      tag_23\n      jumpi\n      dup1\n      0xe480ad83\n      eq\n      tag_24\n      jumpi\n      jump(tag_2)\n    tag_30:\n      dup1\n      0xa49d8533\n      eq\n      tag_16\n      jumpi\n      dup1\n      0xafb0eca9\n      eq\n      tag_17\n      jumpi\n      dup1\n      0xb96161e3\n      eq\n      tag_18\n      jumpi\n      dup1\n      0xbe922bca\n      eq\n      tag_19\n      jumpi\n      dup1\n      0xdaed6ca2\n      eq\n      tag_20\n      jumpi\n      dup1\n      0xe29ebbfb\n      eq\n      tag_21\n      jumpi\n      jump(tag_2)\n    tag_29:\n      dup1\n      0x36fceb3e\n      gt\n      tag_32\n      jumpi\n      dup1\n      0x47d733ce\n      gt\n      tag_33\n      jumpi\n      dup1\n      0x47d733ce\n      eq\n      tag_12\n      jumpi\n      dup1\n      0x4e71c49a\n      eq\n      tag_13\n      jumpi\n      dup1\n      0x4fc538fd\n      eq\n      tag_14\n      jumpi\n      dup1\n      0x95875a68\n      eq\n      tag_15\n      jumpi\n      jump(tag_2)\n    tag_33:\n      dup1\n      0x36fceb3e\n      eq\n      tag_9\n      jumpi\n      dup1\n      0x39becbbe\n      eq\n      tag_10\n      jumpi\n      dup1\n      0x3e1c1ea8\n      eq\n      tag_11\n      jumpi\n      jump(tag_2)\n    tag_32:\n      dup1\n      0x1b3212\n      eq\n      tag_3\n      jumpi\n      dup1\n      0x049fde97\n      eq\n      tag_4\n      jumpi\n      dup1\n      0x136a899e\n      eq\n      tag_5\n      jumpi\n      dup1\n      0x18bb8952\n      eq\n      tag_6\n      jumpi\n      dup1\n      0x1a88d046\n      eq\n      tag_7\n      jumpi\n      dup1\n      0x3665631a\n      eq\n      tag_8\n      jumpi\n    tag_2:\n      0x00\n      dup1\n      revert\n        /* \"temp.sol\":1512:1620  mapping(... */\n    tag_3:\n      tag_34\n      0x04\n      dup1\n      calldatasize\n      sub\n      dup2\n      add\n      swap1\n      tag_35\n      swap2\n      swap1\n      tag_36\n      jump\t// in\n    tag_35:\n      tag_37\n      jump\t// in\n    tag_34:\n      mload(0x40)\n      tag_38\n      swap3\n      swap2\n      swap1\n      tag_39\n      jump\t// in\n    tag_38:\n      mload(0x40)\n      dup1\n      swap2\n      sub\n      swap1\n      return\n        /* \"temp.sol\":4610:5338  function site__account_open(string memory vault_id,address user_address) external {... */\n    tag_4:\n      tag_40\n      0x04\n      dup1\n      calldatasize\n      sub\n      dup2\n      add\n      swap1\n      tag_41\n      swap2\n      swap1\n      tag_42\n      jump\t// in\n    tag_41:\n      tag_43\n      jump\t// in\n    tag_40:\n      stop\n        /* \"temp.sol\":7176:7626  function owner__account_unlock(string memory vault_id,address user_address) external {... */\n    tag_5:\n      tag_44\n      0x04\n      dup1\n      calldatasize\n      sub\n      dup2\n      add\n      swap1\n      tag_45\n      swap2\n      swap1\n      tag_42\n      jump\t// in\n    tag_45:\n      tag_46\n      jump\t// in\n    tag_44:\n      stop\n        /* \"temp.sol\":5901:6230  function owner__set_auto(string memory vault_id,bool is_auto) external {... */\n    tag_6:\n      tag_47\n      0x04\n      dup1\n      calldatasize\n      sub\n      dup2\n      add\n      swap1\n      tag_48\n      swap2\n      swap1\n      tag_49\n      jump\t// in\n    tag_48:\n      tag_50\n      jump\t// in\n    tag_47:\n      stop\n        /* \"temp.sol\":1377:1423  mapping(string => Vault) public g__VaultLookup */\n    tag_7:\n      tag_51\n      0x04\n      dup1\n      calldatasize\n      sub\n      dup2\n      add\n      swap1\n      tag_52\n      swap2\n      swap1\n      tag_53\n      jump\t// in\n    tag_52:\n      tag_54\n      jump\t// in\n    tag_51:\n      mload(0x40)\n      tag_55\n      swap13\n      swap12\n      swap11\n      swap10\n      swap9\n      swap8\n      swap7\n      swap6\n      swap5\n      swap4\n      swap3\n      swap2\n      swap1\n      tag_56\n      jump\t// in\n    tag_55:\n      mload(0x40)\n      dup1\n      swap2\n      sub\n      swap1\n      return\n        /* \"temp.sol\":12752:13355  function owner__withdraw_reject(string memory vault_id,address user_address,string memory withdraw_id) external {... */\n    tag_8:\n      tag_57\n      0x04\n      dup1\n      calldatasize\n      sub\n      dup2\n      add\n      swap1\n      tag_58\n      swap2\n      swap1\n      tag_36\n      jump\t// in\n    tag_58:\n      tag_59\n      jump\t// in\n    tag_57:\n      stop\n        /* \"temp.sol\":3433:3589  function site__add_support(address user) external {... */\n    tag_9:\n      tag_60\n      0x04\n      dup1\n      calldatasize\n      sub\n      dup2\n      add\n      swap1\n      tag_61\n      swap2\n      swap1\n      tag_62\n      jump\t// in\n    tag_61:\n      tag_63\n      jump\t// in\n    tag_60:\n      stop\n        /* \"temp.sol\":3252:3427  function site__change_authority(address new_authority) external {... */\n    tag_10:\n      tag_64\n      0x04\n      dup1\n      calldatasize\n      sub\n      dup2\n      add\n      swap1\n      tag_65\n      swap2\n      swap1\n      tag_62\n      jump\t// in\n    tag_65:\n      tag_66\n      jump\t// in\n    tag_64:\n      stop\n        /* \"temp.sol\":8313:8849  function user__arbitration_unvote(string memory vault_id) external {... */\n    tag_11:\n      tag_67\n      0x04\n      dup1\n      calldatasize\n      sub\n      dup2\n      add\n      swap1\n      tag_68\n      swap2\n      swap1\n      tag_53\n      jump\t// in\n    tag_68:\n      tag_69\n      jump\t// in\n    tag_67:\n      stop\n        /* \"temp.sol\":13361:13833  function user__withdraw_self(string memory vault_id,string memory withdraw_id) external {... */\n    tag_12:\n      tag_70\n      0x04\n      dup1\n      calldatasize\n      sub\n      dup2\n      add\n      swap1\n      tag_71\n      swap2\n      swap1\n      tag_72\n      jump\t// in\n    tag_71:\n      tag_73\n      jump\t// in\n    tag_70:\n      stop\n        /* \"temp.sol\":13839:14331  function user__account_deposit(string memory vault_id,uint amount) external {... */\n    tag_13:\n      tag_74\n      0x04\n      dup1\n      calldatasize\n      sub\n      dup2\n      add\n      swap1\n      tag_75\n      swap2\n      swap1\n      tag_76\n      jump\t// in\n    tag_75:\n      tag_77\n      jump\t// in\n    tag_74:\n      stop\n        /* \"temp.sol\":10056:10655  function site__withdraw_confirm(string memory vault_id,address user_address,string memory withdraw_id,uint amount) external {... */\n    tag_14:\n      tag_78\n      0x04\n      dup1\n      calldatasize\n      sub\n      dup2\n      add\n      swap1\n      tag_79\n      swap2\n      swap1\n      tag_80\n      jump\t// in\n    tag_79:\n      tag_81\n      jump\t// in\n    tag_78:\n      stop\n        /* \"temp.sol\":578:609  address public g__SiteAuthority */\n    tag_15:\n      tag_82\n      tag_83\n      jump\t// in\n    tag_82:\n      mload(0x40)\n      tag_84\n      swap2\n      swap1\n      tag_85\n      jump\t// in\n    tag_84:\n      mload(0x40)\n      dup1\n      swap2\n      sub\n      swap1\n      return\n        /* \"temp.sol\":1343:1370  uint16 public g__VaultCount */\n    tag_16:\n      tag_86\n      tag_87\n      jump\t// in\n    tag_86:\n      mload(0x40)\n      tag_88\n      swap2\n      swap1\n      tag_89\n      jump\t// in\n    tag_88:\n      mload(0x40)\n      dup1\n      swap2\n      sub\n      swap1\n      return\n        /* \"temp.sol\":6713:7170  function owner__account_lock(string memory vault_id,address user_address) external {... */\n    tag_17:\n      tag_90\n      0x04\n      dup1\n      calldatasize\n      sub\n      dup2\n      add\n      swap1\n      tag_91\n      swap2\n      swap1\n      tag_42\n      jump\t// in\n    tag_91:\n      tag_92\n      jump\t// in\n    tag_90:\n      stop\n        /* \"temp.sol\":7632:8307  function user__arbitration_vote(string memory vault_id) external {... */\n    tag_18:\n      tag_93\n      0x04\n      dup1\n      calldatasize\n      sub\n      dup2\n      add\n      swap1\n      tag_94\n      swap2\n      swap1\n      tag_53\n      jump\t// in\n    tag_94:\n      tag_95\n      jump\t// in\n    tag_93:\n      stop\n        /* \"temp.sol\":8855:10050  function user__withdraw_request(string memory vault_id,string memory withdraw_id,uint amount) external {... */\n    tag_19:\n      tag_96\n      0x04\n      dup1\n      calldatasize\n      sub\n      dup2\n      add\n      swap1\n      tag_97\n      swap2\n      swap1\n      tag_98\n      jump\t// in\n    tag_97:\n      tag_99\n      jump\t// in\n    tag_96:\n      stop\n        /* \"temp.sol\":3726:4604  function site__vault_create(string memory vault_id,string memory name,address owner,uint16 vault_tax_rate,uint vault_tax_max,uint vault_withdraw_min,uint vault_withdraw_max,address vault_erc20) external {... */\n    tag_20:\n      tag_100\n      0x04\n      dup1\n      calldatasize\n      sub\n      dup2\n      add\n      swap1\n      tag_101\n      swap2\n      swap1\n      tag_102\n      jump\t// in\n    tag_101:\n      tag_103\n      jump\t// in\n    tag_100:\n      stop\n        /* \"temp.sol\":1430:1505  mapping(string => mapping(address => VaultAccount)) public g__VaultAccounts */\n    tag_21:\n      tag_104\n      0x04\n      dup1\n      calldatasize\n      sub\n      dup2\n      add\n      swap1\n      tag_105\n      swap2\n      swap1\n      tag_42\n      jump\t// in\n    tag_105:\n      tag_106\n      jump\t// in\n    tag_104:\n      mload(0x40)\n      tag_107\n      swap5\n      swap4\n      swap3\n      swap2\n      swap1\n      tag_108\n      jump\t// in\n    tag_107:\n      mload(0x40)\n      dup1\n      swap2\n      sub\n      swap1\n      return\n        /* \"temp.sol\":12230:12746  function owner__withdraw_approve(string memory vault_id,address user_address,string memory withdraw_id,uint amount) external {... */\n    tag_22:\n      tag_109\n      0x04\n      dup1\n      calldatasize\n      sub\n      dup2\n      add\n      swap1\n      tag_110\n      swap2\n      swap1\n      tag_80\n      jump\t// in\n    tag_110:\n      tag_111\n      jump\t// in\n    tag_109:\n      stop\n        /* \"temp.sol\":10661:11254  function site__withdraw_reject(string memory vault_id,address user_address,string memory withdraw_id) external {... */\n    tag_23:\n      tag_112\n      0x04\n      dup1\n      calldatasize\n      sub\n      dup2\n      add\n      swap1\n      tag_113\n      swap2\n      swap1\n      tag_36\n      jump\t// in\n    tag_113:\n      tag_114\n      jump\t// in\n    tag_112:\n      stop\n        /* \"temp.sol\":6236:6707  function owner__account_open_confirm(string memory vault_id,address user_address) external {... */\n    tag_24:\n      tag_115\n      0x04\n      dup1\n      calldatasize\n      sub\n      dup2\n      add\n      swap1\n      tag_116\n      swap2\n      swap1\n      tag_42\n      jump\t// in\n    tag_116:\n      tag_117\n      jump\t// in\n    tag_115:\n      stop\n        /* \"temp.sol\":669:710  uint16 public g__SiteArbitrationThreshold */\n    tag_25:\n      tag_118\n      tag_119\n      jump\t// in\n    tag_118:\n      mload(0x40)\n      tag_120\n      swap2\n      swap1\n      tag_89\n      jump\t// in\n    tag_120:\n      mload(0x40)\n      dup1\n      swap2\n      sub\n      swap1\n      return\n        /* \"temp.sol\":5344:5895  function site__account_close(string memory vault_id,address user_address) external {... */\n    tag_26:\n      tag_121\n      0x04\n      dup1\n      calldatasize\n      sub\n      dup2\n      add\n      swap1\n      tag_122\n      swap2\n      swap1\n      tag_42\n      jump\t// in\n    tag_122:\n      tag_123\n      jump\t// in\n    tag_121:\n      stop\n        /* \"temp.sol\":616:662  mapping(address => bool) public g__SiteSupport */\n    tag_27:\n      tag_124\n      0x04\n      dup1\n      calldatasize\n      sub\n      dup2\n      add\n      swap1\n      tag_125\n      swap2\n      swap1\n      tag_62\n      jump\t// in\n    tag_125:\n      tag_126\n      jump\t// in\n    tag_124:\n      mload(0x40)\n      tag_127\n      swap2\n      swap1\n      tag_128\n      jump\t// in\n    tag_127:\n      mload(0x40)\n      dup1\n      swap2\n      sub\n      swap1\n      return\n        /* \"temp.sol\":3595:3720  function site__remove_support(address user) external {... */\n    tag_28:\n      tag_129\n      0x04\n      dup1\n      calldatasize\n      sub\n      dup2\n      add\n      swap1\n      tag_130\n      swap2\n      swap1\n      tag_62\n      jump\t// in\n    tag_130:\n      tag_131\n      jump\t// in\n    tag_129:\n      stop\n        /* \"temp.sol\":1512:1620  mapping(... */\n    tag_37:\n      0x05\n      dup4\n      dup1\n      mload\n      0x20\n      dup2\n      add\n      dup3\n      add\n      dup1\n      mload\n      dup5\n      dup3\n      mstore\n      0x20\n      dup4\n      add\n      0x20\n      dup6\n      add\n      keccak256\n      dup2\n      dup4\n      mstore\n      dup1\n      swap6\n      pop\n      pop\n      pop\n      pop\n      pop\n      pop\n      0x20\n      mstore\n      dup2\n      0x00\n      mstore\n      keccak256(0x00, 0x40)\n      dup2\n      dup1\n      mload\n      0x20\n      dup2\n      add\n      dup3\n      add\n      dup1\n      mload\n      dup5\n      dup3\n      mstore\n      0x20\n      dup4\n      add\n      0x20\n      dup6\n      add\n      keccak256\n      dup2\n      dup4\n      mstore\n      dup1\n      swap6\n      pop\n      pop\n      pop\n      pop\n      pop\n      pop\n      0x00\n      swap3\n      pop\n      swap3\n      pop\n      pop\n      pop\n      dup1\n      0x00\n      add\n      sload\n      swap1\n      dup1\n      0x01\n      add\n      0x00\n      swap1\n      sload\n      swap1\n      0x0100\n      exp\n      swap1\n      div\n      0xff\n      and\n      swap1\n      pop\n      dup3\n      jump\t// out\n        /* \"temp.sol\":4610:5338  function site__account_open(string memory vault_id,address user_address) external {... */\n    tag_43:\n        /* \"temp.sol\":4698:4726  ut__assert_admin(msg.sender) */\n      tag_133\n        /* \"temp.sol\":4715:4725  msg.sender */\n      caller\n        /* \"temp.sol\":4698:4714  ut__assert_admin */\n      tag_134\n        /* \"temp.sol\":4698:4726  ut__assert_admin(msg.sender) */\n      jump\t// in\n    tag_133:\n        /* \"temp.sol\":4783:4801  VaultStatus.Active */\n      0x01\n        /* \"temp.sol\":4748:4801  g__VaultLookup[vault_id].status == VaultStatus.Active */\n      0x03\n      dup2\n      gt\n      iszero\n      tag_135\n      jumpi\n      tag_136\n      tag_137\n      jump\t// in\n    tag_136:\n    tag_135:\n        /* \"temp.sol\":4748:4762  g__VaultLookup */\n      0x03\n        /* \"temp.sol\":4763:4771  vault_id */\n      dup4\n        /* \"temp.sol\":4748:4772  g__VaultLookup[vault_id] */\n      mload(0x40)\n      tag_138\n      swap2\n      swap1\n      tag_139\n      jump\t// in\n    tag_138:\n      swap1\n      dup2\n      mstore\n      0x20\n      add\n      mload(0x40)\n      dup1\n      swap2\n      sub\n      swap1\n      keccak256\n        /* \"temp.sol\":4748:4779  g__VaultLookup[vault_id].status */\n      0x00\n      add\n      0x00\n      swap1\n      sload\n      swap1\n      0x0100\n      exp\n      swap1\n      div\n      0xff\n      and\n        /* \"temp.sol\":4748:4801  g__VaultLookup[vault_id].status == VaultStatus.Active */\n      0x03\n      dup2\n      gt\n      iszero\n      tag_140\n      jumpi\n      tag_141\n      tag_137\n      jump\t// in\n    tag_141:\n    tag_140:\n      eq\n        /* \"temp.sol\":4747:4865  (g__VaultLookup[vault_id].status == VaultStatus.Active) || (g__VaultLookup[vault_id].status == VaultStatus.ActiveAuto) */\n      dup1\n      tag_142\n      jumpi\n      pop\n        /* \"temp.sol\":4842:4864  VaultStatus.ActiveAuto */\n      0x02\n        /* \"temp.sol\":4807:4864  g__VaultLookup[vault_id].status == VaultStatus.ActiveAuto */\n      0x03\n      dup2\n      gt\n      iszero\n      tag_143\n      jumpi\n      tag_144\n      tag_137\n      jump\t// in\n    tag_144:\n    tag_143:\n        /* \"temp.sol\":4807:4821  g__VaultLookup */\n      0x03\n        /* \"temp.sol\":4822:4830  vault_id */\n      dup4\n        /* \"temp.sol\":4807:4831  g__VaultLookup[vault_id] */\n      mload(0x40)\n      tag_145\n      swap2\n      swap1\n      tag_139\n      jump\t// in\n    tag_145:\n      swap1\n      dup2\n      mstore\n      0x20\n      add\n      mload(0x40)\n      dup1\n      swap2\n      sub\n      swap1\n      keccak256\n        /* \"temp.sol\":4807:4838  g__VaultLookup[vault_id].status */\n      0x00\n      add\n      0x00\n      swap1\n      sload\n      swap1\n      0x0100\n      exp\n      swap1\n      div\n      0xff\n      and\n        /* \"temp.sol\":4807:4864  g__VaultLookup[vault_id].status == VaultStatus.ActiveAuto */\n      0x03\n      dup2\n      gt\n      iszero\n      tag_146\n      jumpi\n      tag_147\n      tag_137\n      jump\t// in\n    tag_147:\n    tag_146:\n      eq\n        /* \"temp.sol\":4747:4865  (g__VaultLookup[vault_id].status == VaultStatus.Active) || (g__VaultLookup[vault_id].status == VaultStatus.ActiveAuto) */\n    tag_142:\n        /* \"temp.sol\":4732:4903  require(... */\n      tag_148\n      jumpi\n      mload(0x40)\n      0x08c379a000000000000000000000000000000000000000000000000000000000\n      dup2\n      mstore\n      0x04\n      add\n      tag_149\n      swap1\n      tag_150\n      jump\t// in\n    tag_149:\n      mload(0x40)\n      dup1\n      swap2\n      sub\n      swap1\n      revert\n    tag_148:\n        /* \"temp.sol\":4975:5003  VaultAccountStatus.Undefined */\n      0x00\n        /* \"temp.sol\":4924:5003  g__VaultAccounts[vault_id][user_address].status == VaultAccountStatus.Undefined */\n      0x03\n      dup2\n      gt\n      iszero\n      tag_151\n      jumpi\n      tag_152\n      tag_137\n      jump\t// in\n    tag_152:\n    tag_151:\n        /* \"temp.sol\":4924:4940  g__VaultAccounts */\n      0x04\n        /* \"temp.sol\":4941:4949  vault_id */\n      dup4\n        /* \"temp.sol\":4924:4950  g__VaultAccounts[vault_id] */\n      mload(0x40)\n      tag_153\n      swap2\n      swap1\n      tag_139\n      jump\t// in\n    tag_153:\n      swap1\n      dup2\n      mstore\n      0x20\n      add\n      mload(0x40)\n      dup1\n      swap2\n      sub\n      swap1\n      keccak256\n        /* \"temp.sol\":4924:4964  g__VaultAccounts[vault_id][user_address] */\n      0x00\n        /* \"temp.sol\":4951:4963  user_address */\n      dup4\n        /* \"temp.sol\":4924:4964  g__VaultAccounts[vault_id][user_address] */\n      0xffffffffffffffffffffffffffffffffffffffff\n      and\n      0xffffffffffffffffffffffffffffffffffffffff\n      and\n      dup2\n      mstore\n      0x20\n      add\n      swap1\n      dup2\n      mstore\n      0x20\n      add\n      0x00\n      keccak256\n        /* \"temp.sol\":4924:4971  g__VaultAccounts[vault_id][user_address].status */\n      0x00\n      add\n      0x00\n      swap1\n      sload\n      swap1\n      0x0100\n      exp\n      swap1\n      div\n      0xff\n      and\n        /* \"temp.sol\":4924:5003  g__VaultAccounts[vault_id][user_address].status == VaultAccountStatus.Undefined */\n      0x03\n      dup2\n      gt\n      iszero\n      tag_154\n      jumpi\n      tag_155\n      tag_137\n      jump\t// in\n    tag_155:\n    tag_154:\n      eq\n        /* \"temp.sol\":4909:5046  require(... */\n      tag_156\n      jumpi\n      mload(0x40)\n      0x08c379a000000000000000000000000000000000000000000000000000000000\n      dup2\n      mstore\n      0x04\n      add\n      tag_157\n      swap1\n      tag_158\n      jump\t// in\n    tag_157:\n      mload(0x40)\n      dup1\n      swap2\n      sub\n      swap1\n      revert\n    tag_156:\n        /* \"temp.sol\":5052:5079  VaultAccount memory account */\n      0x00\n        /* \"temp.sol\":5082:5135  VaultAccount(VaultAccountStatus.Requested,false,\"\",0) */\n      mload(0x40)\n      dup1\n      0x80\n      add\n      0x40\n      mstore\n      dup1\n        /* \"temp.sol\":5095:5123  VaultAccountStatus.Requested */\n      0x01\n        /* \"temp.sol\":5082:5135  VaultAccount(VaultAccountStatus.Requested,false,\"\",0) */\n      0x03\n      dup2\n      gt\n      iszero\n      tag_159\n      jumpi\n      tag_160\n      tag_137\n      jump\t// in\n    tag_160:\n    tag_159:\n      dup2\n      mstore\n      0x20\n      add\n        /* \"temp.sol\":5124:5129  false */\n      0x00\n        /* \"temp.sol\":5082:5135  VaultAccount(VaultAccountStatus.Requested,false,\"\",0) */\n      iszero\n      iszero\n      dup2\n      mstore\n      0x20\n      add\n      mload(0x40)\n      dup1\n      0x20\n      add\n      0x40\n      mstore\n      dup1\n      0x00\n      dup2\n      mstore\n      pop\n      dup2\n      mstore\n      0x20\n      add\n        /* \"temp.sol\":5133:5134  0 */\n      0x00\n        /* \"temp.sol\":5082:5135  VaultAccount(VaultAccountStatus.Requested,false,\"\",0) */\n      dup2\n      mstore\n      pop\n        /* \"temp.sol\":5052:5135  VaultAccount memory account = VaultAccount(VaultAccountStatus.Requested,false,\"\",0) */\n      swap1\n      pop\n        /* \"temp.sol\":5141:5161  uint16 total_players */\n      0x00\n        /* \"temp.sol\":5166:5180  g__VaultLookup */\n      0x03\n        /* \"temp.sol\":5181:5189  vault_id */\n      dup5\n        /* \"temp.sol\":5166:5190  g__VaultLookup[vault_id] */\n      mload(0x40)\n      tag_161\n      swap2\n      swap1\n      tag_139\n      jump\t// in\n    tag_161:\n      swap1\n      dup2\n      mstore\n      0x20\n      add\n      mload(0x40)\n      dup1\n      swap2\n      sub\n      swap1\n      keccak256\n        /* \"temp.sol\":5166:5204  g__VaultLookup[vault_id].total_players */\n      0x05\n      add\n      0x00\n        /* \"temp.sol\":5164:5204  ++g__VaultLookup[vault_id].total_players */\n      dup2\n      dup2\n      swap1\n      sload\n      swap1\n      0x0100\n      exp\n      swap1\n      div\n      0xffff\n      and\n      tag_162\n      swap1\n      tag_163\n      jump\t// in\n    tag_162:\n      swap2\n      swap1\n      0x0100\n      exp\n      dup2\n      sload\n      dup2\n      0xffff\n      mul\n      not\n      and\n      swap1\n      dup4\n      0xffff\n      and\n      mul\n      or\n      swap1\n      sstore\n        /* \"temp.sol\":5141:5204  uint16 total_players = ++g__VaultLookup[vault_id].total_players */\n      swap1\n      pop\n        /* \"temp.sol\":5253:5260  account */\n      dup2\n        /* \"temp.sol\":5210:5226  g__VaultAccounts */\n      0x04\n        /* \"temp.sol\":5227:5235  vault_id */\n      dup6\n        /* \"temp.sol\":5210:5236  g__VaultAccounts[vault_id] */\n      mload(0x40)\n      tag_164\n      swap2\n      swap1\n      tag_139\n      jump\t// in\n    tag_164:\n      swap1\n      dup2\n      mstore\n      0x20\n      add\n      mload(0x40)\n      dup1\n      swap2\n      sub\n      swap1\n      keccak256\n        /* \"temp.sol\":5210:5250  g__VaultAccounts[vault_id][user_address] */\n      0x00\n        /* \"temp.sol\":5237:5249  user_address */\n      dup6\n        /* \"temp.sol\":5210:5250  g__VaultAccounts[vault_id][user_address] */\n      0xffffffffffffffffffffffffffffffffffffffff\n      and\n      0xffffffffffffffffffffffffffffffffffffffff\n      and\n      dup2\n      mstore\n      0x20\n      add\n      swap1\n      dup2\n      mstore\n      0x20\n      add\n      0x00\n      keccak256\n        /* \"temp.sol\":5210:5260  g__VaultAccounts[vault_id][user_address] = account */\n      0x00\n      dup3\n      add\n      mload\n      dup2\n      0x00\n      add\n      exp(0x0100, 0x00)\n      dup2\n      sload\n      dup2\n      0xff\n      mul\n      not\n      and\n      swap1\n      dup4\n      0x03\n      dup2\n      gt\n      iszero\n      tag_165\n      jumpi\n      tag_166\n      tag_137\n      jump\t// in\n    tag_166:\n    tag_165:\n      mul\n      or\n      swap1\n      sstore\n      pop\n      0x20\n      dup3\n      add\n      mload\n      dup2\n      0x00\n      add\n      exp(0x0100, 0x01)\n      dup2\n      sload\n      dup2\n      0xff\n      mul\n      not\n      and\n      swap1\n      dup4\n      iszero\n      iszero\n      mul\n      or\n      swap1\n      sstore\n      pop\n      0x40\n      dup3\n      add\n      mload\n      dup2\n      0x01\n      add\n      swap1\n      dup2\n      tag_167\n      swap2\n      swap1\n      tag_168\n      jump\t// in\n    tag_167:\n      pop\n      0x60\n      dup3\n      add\n      mload\n      dup2\n      0x02\n      add\n      sstore\n      swap1\n      pop\n      pop\n        /* \"temp.sol\":5271:5333  VaultEvent(\"account_open\",vault_id,user_address,total_players) */\n      0x040768ee67403a1b2c45e2ee8e9c7cb4283d12bd31f8126de25122997535c1bb\n        /* \"temp.sol\":5297:5305  vault_id */\n      dup5\n        /* \"temp.sol\":5306:5318  user_address */\n      dup5\n        /* \"temp.sol\":5319:5332  total_players */\n      dup4\n        /* \"temp.sol\":5271:5333  VaultEvent(\"account_open\",vault_id,user_address,total_players) */\n      mload(0x40)\n      tag_169\n      swap4\n      swap3\n      swap2\n      swap1\n      tag_170\n      jump\t// in\n    tag_169:\n      mload(0x40)\n      dup1\n      swap2\n      sub\n      swap1\n      log1\n        /* \"temp.sol\":4692:5338  {... */\n      pop\n      pop\n        /* \"temp.sol\":4610:5338  function site__account_open(string memory vault_id,address user_address) external {... */\n      pop\n      pop\n      jump\t// out\n        /* \"temp.sol\":7176:7626  function owner__account_unlock(string memory vault_id,address user_address) external {... */\n    tag_46:\n        /* \"temp.sol\":7267:7304  ut__assert_owner(vault_id,msg.sender) */\n      tag_172\n        /* \"temp.sol\":7284:7292  vault_id */\n      dup3\n        /* \"temp.sol\":7293:7303  msg.sender */\n      caller\n        /* \"temp.sol\":7267:7283  ut__assert_owner */\n      tag_173\n        /* \"temp.sol\":7267:7304  ut__assert_owner(vault_id,msg.sender) */\n      jump\t// in\n    tag_172:\n        /* \"temp.sol\":7310:7337  VaultAccount memory account */\n      0x00\n        /* \"temp.sol\":7340:7378  ut__get_account(vault_id,user_address) */\n      tag_174\n        /* \"temp.sol\":7356:7364  vault_id */\n      dup4\n        /* \"temp.sol\":7365:7377  user_address */\n      dup4\n        /* \"temp.sol\":7340:7355  ut__get_account */\n      tag_175\n        /* \"temp.sol\":7340:7378  ut__get_account(vault_id,user_address) */\n      jump\t// in\n    tag_174:\n        /* \"temp.sol\":7310:7378  VaultAccount memory account = ut__get_account(vault_id,user_address) */\n      swap1\n      pop\n        /* \"temp.sol\":7417:7442  VaultAccountStatus.Locked */\n      0x03\n        /* \"temp.sol\":7399:7442  account.status == VaultAccountStatus.Locked */\n      dup1\n      dup2\n      gt\n      iszero\n      tag_176\n      jumpi\n      tag_177\n      tag_137\n      jump\t// in\n    tag_177:\n    tag_176:\n        /* \"temp.sol\":7399:7406  account */\n      dup2\n        /* \"temp.sol\":7399:7413  account.status */\n      0x00\n      add\n      mload\n        /* \"temp.sol\":7399:7442  account.status == VaultAccountStatus.Locked */\n      0x03\n      dup2\n      gt\n      iszero\n      tag_178\n      jumpi\n      tag_179\n      tag_137\n      jump\t// in\n    tag_179:\n    tag_178:\n      eq\n        /* \"temp.sol\":7384:7477  require(... */\n      tag_180\n      jumpi\n      mload(0x40)\n      0x08c379a000000000000000000000000000000000000000000000000000000000\n      dup2\n      mstore\n      0x04\n      add\n      tag_181\n      swap1\n      tag_182\n      jump\t// in\n    tag_181:\n      mload(0x40)\n      dup1\n      swap2\n      sub\n      swap1\n      revert\n    tag_180:\n        /* \"temp.sol\":7533:7558  VaultAccountStatus.Active */\n      0x02\n        /* \"temp.sol\":7483:7499  g__VaultAccounts */\n      0x04\n        /* \"temp.sol\":7500:7508  vault_id */\n      dup5\n        /* \"temp.sol\":7483:7509  g__VaultAccounts[vault_id] */\n      mload(0x40)\n      tag_183\n      swap2\n      swap1\n      tag_139\n      jump\t// in\n    tag_183:\n      swap1\n      dup2\n      mstore\n      0x20\n      add\n      mload(0x40)\n      dup1\n      swap2\n      sub\n      swap1\n      keccak256\n        /* \"temp.sol\":7483:7523  g__VaultAccounts[vault_id][user_address] */\n      0x00\n        /* \"temp.sol\":7510:7522  user_address */\n      dup5\n        /* \"temp.sol\":7483:7523  g__VaultAccounts[vault_id][user_address] */\n      0xffffffffffffffffffffffffffffffffffffffff\n      and\n      0xffffffffffffffffffffffffffffffffffffffff\n      and\n      dup2\n      mstore\n      0x20\n      add\n      swap1\n      dup2\n      mstore\n      0x20\n      add\n      0x00\n      keccak256\n        /* \"temp.sol\":7483:7530  g__VaultAccounts[vault_id][user_address].status */\n      0x00\n      add\n      0x00\n        /* \"temp.sol\":7483:7558  g__VaultAccounts[vault_id][user_address].status = VaultAccountStatus.Active */\n      0x0100\n      exp\n      dup2\n      sload\n      dup2\n      0xff\n      mul\n      not\n      and\n      swap1\n      dup4\n      0x03\n      dup2\n      gt\n      iszero\n      tag_184\n      jumpi\n      tag_185\n      tag_137\n      jump\t// in\n    tag_185:\n    tag_184:\n      mul\n      or\n      swap1\n      sstore\n      pop\n        /* \"temp.sol\":7569:7621  VaultEvent(\"account_unlock\",vault_id,user_address,0) */\n      0x040768ee67403a1b2c45e2ee8e9c7cb4283d12bd31f8126de25122997535c1bb\n        /* \"temp.sol\":7597:7605  vault_id */\n      dup4\n        /* \"temp.sol\":7606:7618  user_address */\n      dup4\n        /* \"temp.sol\":7619:7620  0 */\n      0x00\n        /* \"temp.sol\":7569:7621  VaultEvent(\"account_unlock\",vault_id,user_address,0) */\n      mload(0x40)\n      tag_186\n      swap4\n      swap3\n      swap2\n      swap1\n      tag_187\n      jump\t// in\n    tag_186:\n      mload(0x40)\n      dup1\n      swap2\n      sub\n      swap1\n      log1\n        /* \"temp.sol\":7261:7626  {... */\n      pop\n        /* \"temp.sol\":7176:7626  function owner__account_unlock(string memory vault_id,address user_address) external {... */\n      pop\n      pop\n      jump\t// out\n        /* \"temp.sol\":5901:6230  function owner__set_auto(string memory vault_id,bool is_auto) external {... */\n    tag_50:\n        /* \"temp.sol\":5978:6015  ut__assert_owner(vault_id,msg.sender) */\n      tag_189\n        /* \"temp.sol\":5995:6003  vault_id */\n      dup3\n        /* \"temp.sol\":6004:6014  msg.sender */\n      caller\n        /* \"temp.sol\":5978:5994  ut__assert_owner */\n      tag_173\n        /* \"temp.sol\":5978:6015  ut__assert_owner(vault_id,msg.sender) */\n      jump\t// in\n    tag_189:\n        /* \"temp.sol\":6071:6094  VaultStatus.Arbitration */\n      0x03\n        /* \"temp.sol\":6036:6094  g__VaultLookup[vault_id].status != VaultStatus.Arbitration */\n      dup1\n      dup2\n      gt\n      iszero\n      tag_190\n      jumpi\n      tag_191\n      tag_137\n      jump\t// in\n    tag_191:\n    tag_190:\n        /* \"temp.sol\":6036:6050  g__VaultLookup */\n      0x03\n        /* \"temp.sol\":6051:6059  vault_id */\n      dup4\n        /* \"temp.sol\":6036:6060  g__VaultLookup[vault_id] */\n      mload(0x40)\n      tag_192\n      swap2\n      swap1\n      tag_139\n      jump\t// in\n    tag_192:\n      swap1\n      dup2\n      mstore\n      0x20\n      add\n      mload(0x40)\n      dup1\n      swap2\n      sub\n      swap1\n      keccak256\n        /* \"temp.sol\":6036:6067  g__VaultLookup[vault_id].status */\n      0x00\n      add\n      0x00\n      swap1\n      sload\n      swap1\n      0x0100\n      exp\n      swap1\n      div\n      0xff\n      and\n        /* \"temp.sol\":6036:6094  g__VaultLookup[vault_id].status != VaultStatus.Arbitration */\n      0x03\n      dup2\n      gt\n      iszero\n      tag_193\n      jumpi\n      tag_194\n      tag_137\n      jump\t// in\n    tag_194:\n    tag_193:\n      sub\n        /* \"temp.sol\":6021:6130  require(... */\n      tag_195\n      jumpi\n      mload(0x40)\n      0x08c379a000000000000000000000000000000000000000000000000000000000\n      dup2\n      mstore\n      0x04\n      add\n      tag_196\n      swap1\n      tag_197\n      jump\t// in\n    tag_196:\n      mload(0x40)\n      dup1\n      swap2\n      sub\n      swap1\n      revert\n    tag_195:\n        /* \"temp.sol\":6171:6178  is_auto */\n      dup1\n        /* \"temp.sol\":6171:6224  is_auto ? VaultStatus.ActiveAuto : VaultStatus.Active */\n      tag_198\n      jumpi\n        /* \"temp.sol\":6206:6224  VaultStatus.Active */\n      0x01\n        /* \"temp.sol\":6171:6224  is_auto ? VaultStatus.ActiveAuto : VaultStatus.Active */\n      jump(tag_199)\n    tag_198:\n        /* \"temp.sol\":6181:6203  VaultStatus.ActiveAuto */\n      0x02\n        /* \"temp.sol\":6171:6224  is_auto ? VaultStatus.ActiveAuto : VaultStatus.Active */\n    tag_199:\n        /* \"temp.sol\":6136:6150  g__VaultLookup */\n      0x03\n        /* \"temp.sol\":6151:6159  vault_id */\n      dup4\n        /* \"temp.sol\":6136:6160  g__VaultLookup[vault_id] */\n      mload(0x40)\n      tag_200\n      swap2\n      swap1\n      tag_139\n      jump\t// in\n    tag_200:\n      swap1\n      dup2\n      mstore\n      0x20\n      add\n      mload(0x40)\n      dup1\n      swap2\n      sub\n      swap1\n      keccak256\n        /* \"temp.sol\":6136:6167  g__VaultLookup[vault_id].status */\n      0x00\n      add\n      0x00\n        /* \"temp.sol\":6136:6225  g__VaultLookup[vault_id].status = (is_auto ? VaultStatus.ActiveAuto : VaultStatus.Active) */\n      0x0100\n      exp\n      dup2\n      sload\n      dup2\n      0xff\n      mul\n      not\n      and\n      swap1\n      dup4\n      0x03\n      dup2\n      gt\n      iszero\n      tag_201\n      jumpi\n      tag_202\n      tag_137\n      jump\t// in\n    tag_202:\n    tag_201:\n      mul\n      or\n      swap1\n      sstore\n      pop\n        /* \"temp.sol\":5901:6230  function owner__set_auto(string memory vault_id,bool is_auto) external {... */\n      pop\n      pop\n      jump\t// out\n        /* \"temp.sol\":1377:1423  mapping(string => Vault) public g__VaultLookup */\n    tag_54:\n      0x03\n      dup2\n      dup1\n      mload\n      0x20\n      dup2\n      add\n      dup3\n      add\n      dup1\n      mload\n      dup5\n      dup3\n      mstore\n      0x20\n      dup4\n      add\n      0x20\n      dup6\n      add\n      keccak256\n      dup2\n      dup4\n      mstore\n      dup1\n      swap6\n      pop\n      pop\n      pop\n      pop\n      pop\n      pop\n      0x00\n      swap2\n      pop\n      swap1\n      pop\n      dup1\n      0x00\n      add\n      0x00\n      swap1\n      sload\n      swap1\n      0x0100\n      exp\n      swap1\n      div\n      0xff\n      and\n      swap1\n      dup1\n      0x01\n      add\n      dup1\n      sload\n      tag_203\n      swap1\n      tag_204\n      jump\t// in\n    tag_203:\n      dup1\n      0x1f\n      add\n      0x20\n      dup1\n      swap2\n      div\n      mul\n      0x20\n      add\n      mload(0x40)\n      swap1\n      dup2\n      add\n      0x40\n      mstore\n      dup1\n      swap3\n      swap2\n      swap1\n      dup2\n      dup2\n      mstore\n      0x20\n      add\n      dup3\n      dup1\n      sload\n      tag_205\n      swap1\n      tag_204\n      jump\t// in\n    tag_205:\n      dup1\n      iszero\n      tag_206\n      jumpi\n      dup1\n      0x1f\n      lt\n      tag_207\n      jumpi\n      0x0100\n      dup1\n      dup4\n      sload\n      div\n      mul\n      dup4\n      mstore\n      swap2\n      0x20\n      add\n      swap2\n      jump(tag_206)\n    tag_207:\n      dup3\n      add\n      swap2\n      swap1\n      0x00\n      mstore\n      keccak256(0x00, 0x20)\n      swap1\n    tag_208:\n      dup2\n      sload\n      dup2\n      mstore\n      swap1\n      0x01\n      add\n      swap1\n      0x20\n      add\n      dup1\n      dup4\n      gt\n      tag_208\n      jumpi\n      dup3\n      swap1\n      sub\n      0x1f\n      and\n      dup3\n      add\n      swap2\n    tag_206:\n      pop\n      pop\n      pop\n      pop\n      pop\n      swap1\n      dup1\n      0x02\n      add\n      0x00\n      swap1\n      sload\n      swap1\n      0x0100\n      exp\n      swap1\n      div\n      0xffffffffffffffffffffffffffffffffffffffff\n      and\n      swap1\n      dup1\n      0x03\n      add\n      sload\n      swap1\n      dup1\n      0x04\n      add\n      sload\n      swap1\n      dup1\n      0x05\n      add\n      0x00\n      swap1\n      sload\n      swap1\n      0x0100\n      exp\n      swap1\n      div\n      0xffff\n      and\n      swap1\n      dup1\n      0x05\n      add\n      0x02\n      swap1\n      sload\n      swap1\n      0x0100\n      exp\n      swap1\n      div\n      0xffff\n      and\n      swap1\n      dup1\n      0x05\n      add\n      0x04\n      swap1\n      sload\n      swap1\n      0x0100\n      exp\n      swap1\n      div\n      0xffff\n      and\n      swap1\n      dup1\n      0x06\n      add\n      sload\n      swap1\n      dup1\n      0x07\n      add\n      sload\n      swap1\n      dup1\n      0x08\n      add\n      sload\n      swap1\n      dup1\n      0x09\n      add\n      0x00\n      swap1\n      sload\n      swap1\n      0x0100\n      exp\n      swap1\n      div\n      0xffffffffffffffffffffffffffffffffffffffff\n      and\n      swap1\n      pop\n      dup13\n      jump\t// out\n        /* \"temp.sol\":12752:13355  function owner__withdraw_reject(string memory vault_id,address user_address,string memory withdraw_id) external {... */\n    tag_59:\n        /* \"temp.sol\":12870:12907  ut__assert_owner(vault_id,msg.sender) */\n      tag_210\n        /* \"temp.sol\":12887:12895  vault_id */\n      dup4\n        /* \"temp.sol\":12896:12906  msg.sender */\n      caller\n        /* \"temp.sol\":12870:12886  ut__assert_owner */\n      tag_173\n        /* \"temp.sol\":12870:12907  ut__assert_owner(vault_id,msg.sender) */\n      jump\t// in\n    tag_210:\n        /* \"temp.sol\":12913:12943  WithdrawRequest memory request */\n      0x00\n        /* \"temp.sol\":12946:12965  g__VaultWithdrawals */\n      0x05\n        /* \"temp.sol\":12966:12974  vault_id */\n      dup5\n        /* \"temp.sol\":12946:12975  g__VaultWithdrawals[vault_id] */\n      mload(0x40)\n      tag_211\n      swap2\n      swap1\n      tag_139\n      jump\t// in\n    tag_211:\n      swap1\n      dup2\n      mstore\n      0x20\n      add\n      mload(0x40)\n      dup1\n      swap2\n      sub\n      swap1\n      keccak256\n        /* \"temp.sol\":12946:12989  g__VaultWithdrawals[vault_id][user_address] */\n      0x00\n        /* \"temp.sol\":12976:12988  user_address */\n      dup5\n        /* \"temp.sol\":12946:12989  g__VaultWithdrawals[vault_id][user_address] */\n      0xffffffffffffffffffffffffffffffffffffffff\n      and\n      0xffffffffffffffffffffffffffffffffffffffff\n      and\n      dup2\n      mstore\n      0x20\n      add\n      swap1\n      dup2\n      mstore\n      0x20\n      add\n      0x00\n      keccak256\n        /* \"temp.sol\":12990:13001  withdraw_id */\n      dup3\n        /* \"temp.sol\":12946:13002  g__VaultWithdrawals[vault_id][user_address][withdraw_id] */\n      mload(0x40)\n      tag_212\n      swap2\n      swap1\n      tag_139\n      jump\t// in\n    tag_212:\n      swap1\n      dup2\n      mstore\n      0x20\n      add\n      mload(0x40)\n      dup1\n      swap2\n      sub\n      swap1\n      keccak256\n        /* \"temp.sol\":12913:13002  WithdrawRequest memory request = g__VaultWithdrawals[vault_id][user_address][withdraw_id] */\n      mload(0x40)\n      dup1\n      0x40\n      add\n      0x40\n      mstore\n      swap1\n      dup2\n      0x00\n      dup3\n      add\n      sload\n      dup2\n      mstore\n      0x20\n      add\n      0x01\n      dup3\n      add\n      0x00\n      swap1\n      sload\n      swap1\n      0x0100\n      exp\n      swap1\n      div\n      0xff\n      and\n      0x05\n      dup2\n      gt\n      iszero\n      tag_213\n      jumpi\n      tag_214\n      tag_137\n      jump\t// in\n    tag_214:\n    tag_213:\n      0x05\n      dup2\n      gt\n      iszero\n      tag_215\n      jumpi\n      tag_216\n      tag_137\n      jump\t// in\n    tag_216:\n    tag_215:\n      dup2\n      mstore\n      pop\n      pop\n      swap1\n      pop\n        /* \"temp.sol\":13041:13069  VaultRequestStatus.Confirmed */\n      0x02\n        /* \"temp.sol\":13023:13069  request.status == VaultRequestStatus.Confirmed */\n      0x05\n      dup2\n      gt\n      iszero\n      tag_217\n      jumpi\n      tag_218\n      tag_137\n      jump\t// in\n    tag_218:\n    tag_217:\n        /* \"temp.sol\":13023:13030  request */\n      dup2\n        /* \"temp.sol\":13023:13037  request.status */\n      0x20\n      add\n      mload\n        /* \"temp.sol\":13023:13069  request.status == VaultRequestStatus.Confirmed */\n      0x05\n      dup2\n      gt\n      iszero\n      tag_219\n      jumpi\n      tag_220\n      tag_137\n      jump\t// in\n    tag_220:\n    tag_219:\n      eq\n        /* \"temp.sol\":13008:13107  require(... */\n      tag_221\n      jumpi\n      mload(0x40)\n      0x08c379a000000000000000000000000000000000000000000000000000000000\n      dup2\n      mstore\n      0x04\n      add\n      tag_222\n      swap1\n      tag_223\n      jump\t// in\n    tag_222:\n      mload(0x40)\n      dup1\n      swap2\n      sub\n      swap1\n      revert\n    tag_221:\n        /* \"temp.sol\":13179:13206  VaultRequestStatus.Rejected */\n      0x04\n        /* \"temp.sol\":13113:13132  g__VaultWithdrawals */\n      0x05\n        /* \"temp.sol\":13133:13141  vault_id */\n      dup6\n        /* \"temp.sol\":13113:13142  g__VaultWithdrawals[vault_id] */\n      mload(0x40)\n      tag_224\n      swap2\n      swap1\n      tag_139\n      jump\t// in\n    tag_224:\n      swap1\n      dup2\n      mstore\n      0x20\n      add\n      mload(0x40)\n      dup1\n      swap2\n      sub\n      swap1\n      keccak256\n        /* \"temp.sol\":13113:13156  g__VaultWithdrawals[vault_id][user_address] */\n      0x00\n        /* \"temp.sol\":13143:13155  user_address */\n      dup6\n        /* \"temp.sol\":13113:13156  g__VaultWithdrawals[vault_id][user_address] */\n      0xffffffffffffffffffffffffffffffffffffffff\n      and\n      0xffffffffffffffffffffffffffffffffffffffff\n      and\n      dup2\n      mstore\n      0x20\n      add\n      swap1\n      dup2\n      mstore\n      0x20\n      add\n      0x00\n      keccak256\n        /* \"temp.sol\":13157:13168  withdraw_id */\n      dup4\n        /* \"temp.sol\":13113:13169  g__VaultWithdrawals[vault_id][user_address][withdraw_id] */\n      mload(0x40)\n      tag_225\n      swap2\n      swap1\n      tag_139\n      jump\t// in\n    tag_225:\n      swap1\n      dup2\n      mstore\n      0x20\n      add\n      mload(0x40)\n      dup1\n      swap2\n      sub\n      swap1\n      keccak256\n        /* \"temp.sol\":13113:13176  g__VaultWithdrawals[vault_id][user_address][withdraw_id].status */\n      0x01\n      add\n      0x00\n        /* \"temp.sol\":13113:13206  g__VaultWithdrawals[vault_id][user_address][withdraw_id].status = VaultRequestStatus.Rejected */\n      0x0100\n      exp\n      dup2\n      sload\n      dup2\n      0xff\n      mul\n      not\n      and\n      swap1\n      dup4\n      0x05\n      dup2\n      gt\n      iszero\n      tag_226\n      jumpi\n      tag_227\n      tag_137\n      jump\t// in\n    tag_227:\n    tag_226:\n      mul\n      or\n      swap1\n      sstore\n      pop\n        /* \"temp.sol\":13256:13263  request */\n      dup1\n        /* \"temp.sol\":13256:13270  request.amount */\n      0x00\n      add\n      mload\n        /* \"temp.sol\":13212:13226  g__VaultLookup */\n      0x03\n        /* \"temp.sol\":13227:13235  vault_id */\n      dup6\n        /* \"temp.sol\":13212:13236  g__VaultLookup[vault_id] */\n      mload(0x40)\n      tag_228\n      swap2\n      swap1\n      tag_139\n      jump\t// in\n    tag_228:\n      swap1\n      dup2\n      mstore\n      0x20\n      add\n      mload(0x40)\n      dup1\n      swap2\n      sub\n      swap1\n      keccak256\n        /* \"temp.sol\":13212:13252  g__VaultLookup[vault_id].total_requested */\n      0x04\n      add\n      0x00\n        /* \"temp.sol\":13212:13270  g__VaultLookup[vault_id].total_requested -= request.amount */\n      dup3\n      dup3\n      sload\n      tag_229\n      swap2\n      swap1\n      tag_230\n      jump\t// in\n    tag_229:\n      swap3\n      pop\n      pop\n      dup2\n      swap1\n      sstore\n      pop\n        /* \"temp.sol\":13281:13350  VaultEvent(\"withdraw_reject\",withdraw_id,user_address,request.amount) */\n      0x040768ee67403a1b2c45e2ee8e9c7cb4283d12bd31f8126de25122997535c1bb\n        /* \"temp.sol\":13310:13321  withdraw_id */\n      dup3\n        /* \"temp.sol\":13322:13334  user_address */\n      dup5\n        /* \"temp.sol\":13335:13342  request */\n      dup4\n        /* \"temp.sol\":13335:13349  request.amount */\n      0x00\n      add\n      mload\n        /* \"temp.sol\":13281:13350  VaultEvent(\"withdraw_reject\",withdraw_id,user_address,request.amount) */\n      mload(0x40)\n      tag_231\n      swap4\n      swap3\n      swap2\n      swap1\n      tag_232\n      jump\t// in\n    tag_231:\n      mload(0x40)\n      dup1\n      swap2\n      sub\n      swap1\n      log1\n        /* \"temp.sol\":12864:13355  {... */\n      pop\n        /* \"temp.sol\":12752:13355  function owner__withdraw_reject(string memory vault_id,address user_address,string memory withdraw_id) external {... */\n      pop\n      pop\n      pop\n      jump\t// out\n        /* \"temp.sol\":3433:3589  function site__add_support(address user) external {... */\n    tag_63:\n        /* \"temp.sol\":3511:3527  g__SiteAuthority */\n      0x00\n      dup1\n      sload\n      swap1\n      0x0100\n      exp\n      swap1\n      div\n      0xffffffffffffffffffffffffffffffffffffffff\n      and\n        /* \"temp.sol\":3497:3527  msg.sender == g__SiteAuthority */\n      0xffffffffffffffffffffffffffffffffffffffff\n      and\n        /* \"temp.sol\":3497:3507  msg.sender */\n      caller\n        /* \"temp.sol\":3497:3527  msg.sender == g__SiteAuthority */\n      0xffffffffffffffffffffffffffffffffffffffff\n      and\n      eq\n        /* \"temp.sol\":3489:3551  require(msg.sender == g__SiteAuthority,\"Site authority only.\") */\n      tag_234\n      jumpi\n      mload(0x40)\n      0x08c379a000000000000000000000000000000000000000000000000000000000\n      dup2\n      mstore\n      0x04\n      add\n      tag_235\n      swap1\n      tag_236\n      jump\t// in\n    tag_235:\n      mload(0x40)\n      dup1\n      swap2\n      sub\n      swap1\n      revert\n    tag_234:\n        /* \"temp.sol\":3580:3584  true */\n      0x01\n        /* \"temp.sol\":3557:3571  g__SiteSupport */\n      dup1\n        /* \"temp.sol\":3557:3577  g__SiteSupport[user] */\n      0x00\n        /* \"temp.sol\":3572:3576  user */\n      dup4\n        /* \"temp.sol\":3557:3577  g__SiteSupport[user] */\n      0xffffffffffffffffffffffffffffffffffffffff\n      and\n      0xffffffffffffffffffffffffffffffffffffffff\n      and\n      dup2\n      mstore\n      0x20\n      add\n      swap1\n      dup2\n      mstore\n      0x20\n      add\n      0x00\n      keccak256\n      0x00\n        /* \"temp.sol\":3557:3584  g__SiteSupport[user] = true */\n      0x0100\n      exp\n      dup2\n      sload\n      dup2\n      0xff\n      mul\n      not\n      and\n      swap1\n      dup4\n      iszero\n      iszero\n      mul\n      or\n      swap1\n      sstore\n      pop\n        /* \"temp.sol\":3433:3589  function site__add_support(address user) external {... */\n      pop\n      jump\t// out\n        /* \"temp.sol\":3252:3427  function site__change_authority(address new_authority) external {... */\n    tag_66:\n        /* \"temp.sol\":3344:3360  g__SiteAuthority */\n      0x00\n      dup1\n      sload\n      swap1\n      0x0100\n      exp\n      swap1\n      div\n      0xffffffffffffffffffffffffffffffffffffffff\n      and\n        /* \"temp.sol\":3330:3360  msg.sender == g__SiteAuthority */\n      0xffffffffffffffffffffffffffffffffffffffff\n      and\n        /* \"temp.sol\":3330:3340  msg.sender */\n      caller\n        /* \"temp.sol\":3330:3360  msg.sender == g__SiteAuthority */\n      0xffffffffffffffffffffffffffffffffffffffff\n      and\n      eq\n        /* \"temp.sol\":3322:3384  require(msg.sender == g__SiteAuthority,\"Site authority only.\") */\n      tag_238\n      jumpi\n      mload(0x40)\n      0x08c379a000000000000000000000000000000000000000000000000000000000\n      dup2\n      mstore\n      0x04\n      add\n      tag_239\n      swap1\n      tag_236\n      jump\t// in\n    tag_239:\n      mload(0x40)\n      dup1\n      swap2\n      sub\n      swap1\n      revert\n    tag_238:\n        /* \"temp.sol\":3409:3422  new_authority */\n      dup1\n        /* \"temp.sol\":3390:3406  g__SiteAuthority */\n      0x00\n      dup1\n        /* \"temp.sol\":3390:3422  g__SiteAuthority = new_authority */\n      0x0100\n      exp\n      dup2\n      sload\n      dup2\n      0xffffffffffffffffffffffffffffffffffffffff\n      mul\n      not\n      and\n      swap1\n      dup4\n      0xffffffffffffffffffffffffffffffffffffffff\n      and\n      mul\n      or\n      swap1\n      sstore\n      pop\n        /* \"temp.sol\":3252:3427  function site__change_authority(address new_authority) external {... */\n      pop\n      jump\t// out\n        /* \"temp.sol\":8313:8849  function user__arbitration_unvote(string memory vault_id) external {... */\n    tag_69:\n        /* \"temp.sol\":8436:8459  VaultStatus.Arbitration */\n      0x03\n        /* \"temp.sol\":8401:8459  g__VaultLookup[vault_id].status != VaultStatus.Arbitration */\n      dup1\n      dup2\n      gt\n      iszero\n      tag_241\n      jumpi\n      tag_242\n      tag_137\n      jump\t// in\n    tag_242:\n    tag_241:\n        /* \"temp.sol\":8401:8415  g__VaultLookup */\n      0x03\n        /* \"temp.sol\":8416:8424  vault_id */\n      dup3\n        /* \"temp.sol\":8401:8425  g__VaultLookup[vault_id] */\n      mload(0x40)\n      tag_243\n      swap2\n      swap1\n      tag_139\n      jump\t// in\n    tag_243:\n      swap1\n      dup2\n      mstore\n      0x20\n      add\n      mload(0x40)\n      dup1\n      swap2\n      sub\n      swap1\n      keccak256\n        /* \"temp.sol\":8401:8432  g__VaultLookup[vault_id].status */\n      0x00\n      add\n      0x00\n      swap1\n      sload\n      swap1\n      0x0100\n      exp\n      swap1\n      div\n      0xff\n      and\n        /* \"temp.sol\":8401:8459  g__VaultLookup[vault_id].status != VaultStatus.Arbitration */\n      0x03\n      dup2\n      gt\n      iszero\n      tag_244\n      jumpi\n      tag_245\n      tag_137\n      jump\t// in\n    tag_245:\n    tag_244:\n      sub\n        /* \"temp.sol\":8386:8496  require(... */\n      tag_246\n      jumpi\n      mload(0x40)\n      0x08c379a000000000000000000000000000000000000000000000000000000000\n      dup2\n      mstore\n      0x04\n      add\n      tag_247\n      swap1\n      tag_248\n      jump\t// in\n    tag_247:\n      mload(0x40)\n      dup1\n      swap2\n      sub\n      swap1\n      revert\n    tag_246:\n        /* \"temp.sol\":8502:8529  VaultAccount memory account */\n      0x00\n        /* \"temp.sol\":8532:8568  ut__get_account(vault_id,msg.sender) */\n      tag_249\n        /* \"temp.sol\":8548:8556  vault_id */\n      dup3\n        /* \"temp.sol\":8557:8567  msg.sender */\n      caller\n        /* \"temp.sol\":8532:8547  ut__get_account */\n      tag_175\n        /* \"temp.sol\":8532:8568  ut__get_account(vault_id,msg.sender) */\n      jump\t// in\n    tag_249:\n        /* \"temp.sol\":8502:8568  VaultAccount memory account = ut__get_account(vault_id,msg.sender) */\n      swap1\n      pop\n        /* \"temp.sol\":8582:8589  account */\n      dup1\n        /* \"temp.sol\":8582:8601  account.arbitration */\n      0x20\n      add\n      mload\n        /* \"temp.sol\":8574:8623  require(account.arbitration,\"Account not voted.\") */\n      tag_250\n      jumpi\n      mload(0x40)\n      0x08c379a000000000000000000000000000000000000000000000000000000000\n      dup2\n      mstore\n      0x04\n      add\n      tag_251\n      swap1\n      tag_252\n      jump\t// in\n    tag_251:\n      mload(0x40)\n      dup1\n      swap2\n      sub\n      swap1\n      revert\n    tag_250:\n        /* \"temp.sol\":8636:8652  g__VaultAccounts */\n      0x04\n        /* \"temp.sol\":8653:8661  vault_id */\n      dup3\n        /* \"temp.sol\":8636:8662  g__VaultAccounts[vault_id] */\n      mload(0x40)\n      tag_253\n      swap2\n      swap1\n      tag_139\n      jump\t// in\n    tag_253:\n      swap1\n      dup2\n      mstore\n      0x20\n      add\n      mload(0x40)\n      dup1\n      swap2\n      sub\n      swap1\n      keccak256\n        /* \"temp.sol\":8636:8674  g__VaultAccounts[vault_id][msg.sender] */\n      0x00\n        /* \"temp.sol\":8663:8673  msg.sender */\n      caller\n        /* \"temp.sol\":8636:8674  g__VaultAccounts[vault_id][msg.sender] */\n      0xffffffffffffffffffffffffffffffffffffffff\n      and\n      0xffffffffffffffffffffffffffffffffffffffff\n      and\n      dup2\n      mstore\n      0x20\n      add\n      swap1\n      dup2\n      mstore\n      0x20\n      add\n      0x00\n      keccak256\n        /* \"temp.sol\":8636:8686  g__VaultAccounts[vault_id][msg.sender].arbitration */\n      0x00\n      add\n      0x01\n        /* \"temp.sol\":8629:8686  delete g__VaultAccounts[vault_id][msg.sender].arbitration */\n      0x0100\n      exp\n      dup2\n      sload\n      swap1\n      0xff\n      mul\n      not\n      and\n      swap1\n      sstore\n        /* \"temp.sol\":8692:8716  uint16 total_arbitration */\n      0x00\n        /* \"temp.sol\":8721:8735  g__VaultLookup */\n      0x03\n        /* \"temp.sol\":8736:8744  vault_id */\n      dup4\n        /* \"temp.sol\":8721:8745  g__VaultLookup[vault_id] */\n      mload(0x40)\n      tag_254\n      swap2\n      swap1\n      tag_139\n      jump\t// in\n    tag_254:\n      swap1\n      dup2\n      mstore\n      0x20\n      add\n      mload(0x40)\n      dup1\n      swap2\n      sub\n      swap1\n      keccak256\n        /* \"temp.sol\":8721:8763  g__VaultLookup[vault_id].total_arbitration */\n      0x05\n      add\n      0x02\n        /* \"temp.sol\":8719:8763  --g__VaultLookup[vault_id].total_arbitration */\n      dup2\n      dup2\n      swap1\n      sload\n      swap1\n      0x0100\n      exp\n      swap1\n      div\n      0xffff\n      and\n      tag_255\n      swap1\n      tag_256\n      jump\t// in\n    tag_255:\n      swap2\n      swap1\n      0x0100\n      exp\n      dup2\n      sload\n      dup2\n      0xffff\n      mul\n      not\n      and\n      swap1\n      dup4\n      0xffff\n      and\n      mul\n      or\n      swap1\n      sstore\n        /* \"temp.sol\":8692:8763  uint16 total_arbitration = --g__VaultLookup[vault_id].total_arbitration */\n      swap1\n      pop\n        /* \"temp.sol\":8774:8844  VaultEvent(\"arbitration_unvote\",vault_id,msg.sender,total_arbitration) */\n      0x040768ee67403a1b2c45e2ee8e9c7cb4283d12bd31f8126de25122997535c1bb\n        /* \"temp.sol\":8806:8814  vault_id */\n      dup4\n        /* \"temp.sol\":8815:8825  msg.sender */\n      caller\n        /* \"temp.sol\":8826:8843  total_arbitration */\n      dup4\n        /* \"temp.sol\":8774:8844  VaultEvent(\"arbitration_unvote\",vault_id,msg.sender,total_arbitration) */\n      mload(0x40)\n      tag_257\n      swap4\n      swap3\n      swap2\n      swap1\n      tag_258\n      jump\t// in\n    tag_257:\n      mload(0x40)\n      dup1\n      swap2\n      sub\n      swap1\n      log1\n        /* \"temp.sol\":8380:8849  {... */\n      pop\n      pop\n        /* \"temp.sol\":8313:8849  function user__arbitration_unvote(string memory vault_id) external {... */\n      pop\n      jump\t// out\n        /* \"temp.sol\":13361:13833  function user__withdraw_self(string memory vault_id,string memory withdraw_id) external {... */\n    tag_73:\n        /* \"temp.sol\":13506:13524  VaultStatus.Active */\n      0x01\n        /* \"temp.sol\":13471:13524  g__VaultLookup[vault_id].status != VaultStatus.Active */\n      0x03\n      dup2\n      gt\n      iszero\n      tag_260\n      jumpi\n      tag_261\n      tag_137\n      jump\t// in\n    tag_261:\n    tag_260:\n        /* \"temp.sol\":13471:13485  g__VaultLookup */\n      0x03\n        /* \"temp.sol\":13486:13494  vault_id */\n      dup4\n        /* \"temp.sol\":13471:13495  g__VaultLookup[vault_id] */\n      mload(0x40)\n      tag_262\n      swap2\n      swap1\n      tag_139\n      jump\t// in\n    tag_262:\n      swap1\n      dup2\n      mstore\n      0x20\n      add\n      mload(0x40)\n      dup1\n      swap2\n      sub\n      swap1\n      keccak256\n        /* \"temp.sol\":13471:13502  g__VaultLookup[vault_id].status */\n      0x00\n      add\n      0x00\n      swap1\n      sload\n      swap1\n      0x0100\n      exp\n      swap1\n      div\n      0xff\n      and\n        /* \"temp.sol\":13471:13524  g__VaultLookup[vault_id].status != VaultStatus.Active */\n      0x03\n      dup2\n      gt\n      iszero\n      tag_263\n      jumpi\n      tag_264\n      tag_137\n      jump\t// in\n    tag_264:\n    tag_263:\n      sub\n        /* \"temp.sol\":13455:13557  require(... */\n      tag_265\n      jumpi\n      mload(0x40)\n      0x08c379a000000000000000000000000000000000000000000000000000000000\n      dup2\n      mstore\n      0x04\n      add\n      tag_266\n      swap1\n      tag_267\n      jump\t// in\n    tag_266:\n      mload(0x40)\n      dup1\n      swap2\n      sub\n      swap1\n      revert\n    tag_265:\n        /* \"temp.sol\":13563:13593  WithdrawRequest memory request */\n      0x00\n        /* \"temp.sol\":13596:13615  g__VaultWithdrawals */\n      0x05\n        /* \"temp.sol\":13616:13624  vault_id */\n      dup4\n        /* \"temp.sol\":13596:13625  g__VaultWithdrawals[vault_id] */\n      mload(0x40)\n      tag_268\n      swap2\n      swap1\n      tag_139\n      jump\t// in\n    tag_268:\n      swap1\n      dup2\n      mstore\n      0x20\n      add\n      mload(0x40)\n      dup1\n      swap2\n      sub\n      swap1\n      keccak256\n        /* \"temp.sol\":13596:13637  g__VaultWithdrawals[vault_id][msg.sender] */\n      0x00\n        /* \"temp.sol\":13626:13636  msg.sender */\n      caller\n        /* \"temp.sol\":13596:13637  g__VaultWithdrawals[vault_id][msg.sender] */\n      0xffffffffffffffffffffffffffffffffffffffff\n      and\n      0xffffffffffffffffffffffffffffffffffffffff\n      and\n      dup2\n      mstore\n      0x20\n      add\n      swap1\n      dup2\n      mstore\n      0x20\n      add\n      0x00\n      keccak256\n        /* \"temp.sol\":13638:13649  withdraw_id */\n      dup3\n        /* \"temp.sol\":13596:13650  g__VaultWithdrawals[vault_id][msg.sender][withdraw_id] */\n      mload(0x40)\n      tag_269\n      swap2\n      swap1\n      tag_139\n      jump\t// in\n    tag_269:\n      swap1\n      dup2\n      mstore\n      0x20\n      add\n      mload(0x40)\n      dup1\n      swap2\n      sub\n      swap1\n      keccak256\n        /* \"temp.sol\":13563:13650  WithdrawRequest memory request = g__VaultWithdrawals[vault_id][msg.sender][withdraw_id] */\n      mload(0x40)\n      dup1\n      0x40\n      add\n      0x40\n      mstore\n      swap1\n      dup2\n      0x00\n      dup3\n      add\n      sload\n      dup2\n      mstore\n      0x20\n      add\n      0x01\n      dup3\n      add\n      0x00\n      swap1\n      sload\n      swap1\n      0x0100\n      exp\n      swap1\n      div\n      0xff\n      and\n      0x05\n      dup2\n      gt\n      iszero\n      tag_270\n      jumpi\n      tag_271\n      tag_137\n      jump\t// in\n    tag_271:\n    tag_270:\n      0x05\n      dup2\n      gt\n      iszero\n      tag_272\n      jumpi\n      tag_273\n      tag_137\n      jump\t// in\n    tag_273:\n    tag_272:\n      dup2\n      mstore\n      pop\n      pop\n      swap1\n      pop\n        /* \"temp.sol\":13689:13717  VaultRequestStatus.Confirmed */\n      0x02\n        /* \"temp.sol\":13671:13717  request.status == VaultRequestStatus.Confirmed */\n      0x05\n      dup2\n      gt\n      iszero\n      tag_274\n      jumpi\n      tag_275\n      tag_137\n      jump\t// in\n    tag_275:\n    tag_274:\n        /* \"temp.sol\":13671:13678  request */\n      dup2\n        /* \"temp.sol\":13671:13685  request.status */\n      0x20\n      add\n      mload\n        /* \"temp.sol\":13671:13717  request.status == VaultRequestStatus.Confirmed */\n      0x05\n      dup2\n      gt\n      iszero\n      tag_276\n      jumpi\n      tag_277\n      tag_137\n      jump\t// in\n    tag_277:\n    tag_276:\n      eq\n        /* \"temp.sol\":13656:13755  require(... */\n      tag_278\n      jumpi\n      mload(0x40)\n      0x08c379a000000000000000000000000000000000000000000000000000000000\n      dup2\n      mstore\n      0x04\n      add\n      tag_279\n      swap1\n      tag_223\n      jump\t// in\n    tag_279:\n      mload(0x40)\n      dup1\n      swap2\n      sub\n      swap1\n      revert\n    tag_278:\n        /* \"temp.sol\":13761:13828  ut__withdraw_transfer(vault_id,msg.sender,withdraw_id,request,true) */\n      tag_280\n        /* \"temp.sol\":13783:13791  vault_id */\n      dup4\n        /* \"temp.sol\":13792:13802  msg.sender */\n      caller\n        /* \"temp.sol\":13803:13814  withdraw_id */\n      dup5\n        /* \"temp.sol\":13815:13822  request */\n      dup5\n        /* \"temp.sol\":13823:13827  true */\n      0x01\n        /* \"temp.sol\":13761:13782  ut__withdraw_transfer */\n      tag_281\n        /* \"temp.sol\":13761:13828  ut__withdraw_transfer(vault_id,msg.sender,withdraw_id,request,true) */\n      jump\t// in\n    tag_280:\n        /* \"temp.sol\":13449:13833  {... */\n      pop\n        /* \"temp.sol\":13361:13833  function user__withdraw_self(string memory vault_id,string memory withdraw_id) external {... */\n      pop\n      pop\n      jump\t// out\n        /* \"temp.sol\":13839:14331  function user__account_deposit(string memory vault_id,uint amount) external {... */\n    tag_77:\n        /* \"temp.sol\":13921:13948  VaultAccount memory account */\n      0x00\n        /* \"temp.sol\":13951:13987  ut__get_account(vault_id,msg.sender) */\n      tag_283\n        /* \"temp.sol\":13967:13975  vault_id */\n      dup4\n        /* \"temp.sol\":13976:13986  msg.sender */\n      caller\n        /* \"temp.sol\":13951:13966  ut__get_account */\n      tag_175\n        /* \"temp.sol\":13951:13987  ut__get_account(vault_id,msg.sender) */\n      jump\t// in\n    tag_283:\n        /* \"temp.sol\":13921:13987  VaultAccount memory account = ut__get_account(vault_id,msg.sender) */\n      swap1\n      pop\n        /* \"temp.sol\":14026:14051  VaultAccountStatus.Active */\n      0x02\n        /* \"temp.sol\":14008:14051  account.status == VaultAccountStatus.Active */\n      0x03\n      dup2\n      gt\n      iszero\n      tag_284\n      jumpi\n      tag_285\n      tag_137\n      jump\t// in\n    tag_285:\n    tag_284:\n        /* \"temp.sol\":14008:14015  account */\n      dup2\n        /* \"temp.sol\":14008:14022  account.status */\n      0x00\n      add\n      mload\n        /* \"temp.sol\":14008:14051  account.status == VaultAccountStatus.Active */\n      0x03\n      dup2\n      gt\n      iszero\n      tag_286\n      jumpi\n      tag_287\n      tag_137\n      jump\t// in\n    tag_287:\n    tag_286:\n      eq\n        /* \"temp.sol\":13993:14086  require(... */\n      tag_288\n      jumpi\n      mload(0x40)\n      0x08c379a000000000000000000000000000000000000000000000000000000000\n      dup2\n      mstore\n      0x04\n      add\n      tag_289\n      swap1\n      tag_290\n      jump\t// in\n    tag_289:\n      mload(0x40)\n      dup1\n      swap2\n      sub\n      swap1\n      revert\n    tag_288:\n        /* \"temp.sol\":14131:14137  amount */\n      dup2\n        /* \"temp.sol\":14092:14106  g__VaultLookup */\n      0x03\n        /* \"temp.sol\":14107:14115  vault_id */\n      dup5\n        /* \"temp.sol\":14092:14116  g__VaultLookup[vault_id] */\n      mload(0x40)\n      tag_291\n      swap2\n      swap1\n      tag_139\n      jump\t// in\n    tag_291:\n      swap1\n      dup2\n      mstore\n      0x20\n      add\n      mload(0x40)\n      dup1\n      swap2\n      sub\n      swap1\n      keccak256\n        /* \"temp.sol\":14092:14127  g__VaultLookup[vault_id].total_pool */\n      0x03\n      add\n      0x00\n        /* \"temp.sol\":14092:14137  g__VaultLookup[vault_id].total_pool += amount */\n      dup3\n      dup3\n      sload\n      tag_292\n      swap2\n      swap1\n      tag_293\n      jump\t// in\n    tag_292:\n      swap3\n      pop\n      pop\n      dup2\n      swap1\n      sstore\n      pop\n        /* \"temp.sol\":14143:14155  IERC20 erc20 */\n      0x00\n        /* \"temp.sol\":14165:14179  g__VaultLookup */\n      0x03\n        /* \"temp.sol\":14180:14188  vault_id */\n      dup5\n        /* \"temp.sol\":14165:14189  g__VaultLookup[vault_id] */\n      mload(0x40)\n      tag_294\n      swap2\n      swap1\n      tag_139\n      jump\t// in\n    tag_294:\n      swap1\n      dup2\n      mstore\n      0x20\n      add\n      mload(0x40)\n      dup1\n      swap2\n      sub\n      swap1\n      keccak256\n        /* \"temp.sol\":14165:14201  g__VaultLookup[vault_id].vault_erc20 */\n      0x09\n      add\n      0x00\n      swap1\n      sload\n      swap1\n      0x0100\n      exp\n      swap1\n      div\n      0xffffffffffffffffffffffffffffffffffffffff\n      and\n        /* \"temp.sol\":14143:14202  IERC20 erc20 = IERC20(g__VaultLookup[vault_id].vault_erc20) */\n      swap1\n      pop\n        /* \"temp.sol\":14208:14213  erc20 */\n      dup1\n        /* \"temp.sol\":14208:14226  erc20.transferFrom */\n      0xffffffffffffffffffffffffffffffffffffffff\n      and\n      0x23b872dd\n        /* \"temp.sol\":14227:14237  msg.sender */\n      caller\n        /* \"temp.sol\":14246:14250  this */\n      address\n        /* \"temp.sol\":14252:14258  amount */\n      dup7\n        /* \"temp.sol\":14208:14259  erc20.transferFrom(msg.sender,address(this),amount) */\n      mload(0x40)\n      dup5\n      0xffffffff\n      and\n      0xe0\n      shl\n      dup2\n      mstore\n      0x04\n      add\n      tag_295\n      swap4\n      swap3\n      swap2\n      swap1\n      tag_296\n      jump\t// in\n    tag_295:\n      0x00\n      mload(0x40)\n      dup1\n      dup4\n      sub\n      dup2\n      0x00\n      dup8\n      dup1\n      extcodesize\n      iszero\n      dup1\n      iszero\n      tag_297\n      jumpi\n      0x00\n      dup1\n      revert\n    tag_297:\n      pop\n      gas\n      call\n      iszero\n      dup1\n      iszero\n      tag_299\n      jumpi\n      returndatasize\n      0x00\n      dup1\n      returndatacopy\n      revert(0x00, returndatasize)\n    tag_299:\n      pop\n      pop\n      pop\n      pop\n        /* \"temp.sol\":14270:14326  VaultEvent(\"account_deposit\",vault_id,msg.sender,amount) */\n      0x040768ee67403a1b2c45e2ee8e9c7cb4283d12bd31f8126de25122997535c1bb\n        /* \"temp.sol\":14299:14307  vault_id */\n      dup5\n        /* \"temp.sol\":14308:14318  msg.sender */\n      caller\n        /* \"temp.sol\":14319:14325  amount */\n      dup6\n        /* \"temp.sol\":14270:14326  VaultEvent(\"account_deposit\",vault_id,msg.sender,amount) */\n      mload(0x40)\n      tag_300\n      swap4\n      swap3\n      swap2\n      swap1\n      tag_301\n      jump\t// in\n    tag_300:\n      mload(0x40)\n      dup1\n      swap2\n      sub\n      swap1\n      log1\n        /* \"temp.sol\":13915:14331  {... */\n      pop\n      pop\n        /* \"temp.sol\":13839:14331  function user__account_deposit(string memory vault_id,uint amount) external {... */\n      pop\n      pop\n      jump\t// out\n        /* \"temp.sol\":10056:10655  function site__withdraw_confirm(string memory vault_id,address user_address,string memory withdraw_id,uint amount) external {... */\n    tag_81:\n        /* \"temp.sol\":10186:10214  ut__assert_admin(msg.sender) */\n      tag_303\n        /* \"temp.sol\":10203:10213  msg.sender */\n      caller\n        /* \"temp.sol\":10186:10202  ut__assert_admin */\n      tag_134\n        /* \"temp.sol\":10186:10214  ut__assert_admin(msg.sender) */\n      jump\t// in\n    tag_303:\n        /* \"temp.sol\":10220:10250  WithdrawRequest memory request */\n      0x00\n        /* \"temp.sol\":10253:10304  ut__get_withdraw(vault_id,user_address,withdraw_id) */\n      tag_304\n        /* \"temp.sol\":10270:10278  vault_id */\n      dup6\n        /* \"temp.sol\":10279:10291  user_address */\n      dup6\n        /* \"temp.sol\":10292:10303  withdraw_id */\n      dup6\n        /* \"temp.sol\":10253:10269  ut__get_withdraw */\n      tag_305\n        /* \"temp.sol\":10253:10304  ut__get_withdraw(vault_id,user_address,withdraw_id) */\n      jump\t// in\n    tag_304:\n        /* \"temp.sol\":10220:10304  WithdrawRequest memory request = ut__get_withdraw(vault_id,user_address,withdraw_id) */\n      swap1\n      pop\n        /* \"temp.sol\":10343:10369  VaultRequestStatus.Pending */\n      0x01\n        /* \"temp.sol\":10325:10369  request.status == VaultRequestStatus.Pending */\n      0x05\n      dup2\n      gt\n      iszero\n      tag_306\n      jumpi\n      tag_307\n      tag_137\n      jump\t// in\n    tag_307:\n    tag_306:\n        /* \"temp.sol\":10325:10332  request */\n      dup2\n        /* \"temp.sol\":10325:10339  request.status */\n      0x20\n      add\n      mload\n        /* \"temp.sol\":10325:10369  request.status == VaultRequestStatus.Pending */\n      0x05\n      dup2\n      gt\n      iszero\n      tag_308\n      jumpi\n      tag_309\n      tag_137\n      jump\t// in\n    tag_309:\n    tag_308:\n      eq\n        /* \"temp.sol\":10310:10405  require(... */\n      tag_310\n      jumpi\n      mload(0x40)\n      0x08c379a000000000000000000000000000000000000000000000000000000000\n      dup2\n      mstore\n      0x04\n      add\n      tag_311\n      swap1\n      tag_312\n      jump\t// in\n    tag_311:\n      mload(0x40)\n      dup1\n      swap2\n      sub\n      swap1\n      revert\n    tag_310:\n        /* \"temp.sol\":10437:10443  amount */\n      dup2\n        /* \"temp.sol\":10419:10426  request */\n      dup2\n        /* \"temp.sol\":10419:10433  request.amount */\n      0x00\n      add\n      mload\n        /* \"temp.sol\":10419:10443  request.amount == amount */\n      eq\n        /* \"temp.sol\":10411:10472  require(request.amount == amount,\"Withdraw amount incorrect\") */\n      tag_313\n      jumpi\n      mload(0x40)\n      0x08c379a000000000000000000000000000000000000000000000000000000000\n      dup2\n      mstore\n      0x04\n      add\n      tag_314\n      swap1\n      tag_315\n      jump\t// in\n    tag_314:\n      mload(0x40)\n      dup1\n      swap2\n      sub\n      swap1\n      revert\n    tag_313:\n        /* \"temp.sol\":10544:10572  VaultRequestStatus.Confirmed */\n      0x02\n        /* \"temp.sol\":10478:10497  g__VaultWithdrawals */\n      0x05\n        /* \"temp.sol\":10498:10506  vault_id */\n      dup7\n        /* \"temp.sol\":10478:10507  g__VaultWithdrawals[vault_id] */\n      mload(0x40)\n      tag_316\n      swap2\n      swap1\n      tag_139\n      jump\t// in\n    tag_316:\n      swap1\n      dup2\n      mstore\n      0x20\n      add\n      mload(0x40)\n      dup1\n      swap2\n      sub\n      swap1\n      keccak256\n        /* \"temp.sol\":10478:10521  g__VaultWithdrawals[vault_id][user_address] */\n      0x00\n        /* \"temp.sol\":10508:10520  user_address */\n      dup7\n        /* \"temp.sol\":10478:10521  g__VaultWithdrawals[vault_id][user_address] */\n      0xffffffffffffffffffffffffffffffffffffffff\n      and\n      0xffffffffffffffffffffffffffffffffffffffff\n      and\n      dup2\n      mstore\n      0x20\n      add\n      swap1\n      dup2\n      mstore\n      0x20\n      add\n      0x00\n      keccak256\n        /* \"temp.sol\":10522:10533  withdraw_id */\n      dup5\n        /* \"temp.sol\":10478:10534  g__VaultWithdrawals[vault_id][user_address][withdraw_id] */\n      mload(0x40)\n      tag_317\n      swap2\n      swap1\n      tag_139\n      jump\t// in\n    tag_317:\n      swap1\n      dup2\n      mstore\n      0x20\n      add\n      mload(0x40)\n      dup1\n      swap2\n      sub\n      swap1\n      keccak256\n        /* \"temp.sol\":10478:10541  g__VaultWithdrawals[vault_id][user_address][withdraw_id].status */\n      0x01\n      add\n      0x00\n        /* \"temp.sol\":10478:10572  g__VaultWithdrawals[vault_id][user_address][withdraw_id].status = VaultRequestStatus.Confirmed */\n      0x0100\n      exp\n      dup2\n      sload\n      dup2\n      0xff\n      mul\n      not\n      and\n      swap1\n      dup4\n      0x05\n      dup2\n      gt\n      iszero\n      tag_318\n      jumpi\n      tag_319\n      tag_137\n      jump\t// in\n    tag_319:\n    tag_318:\n      mul\n      or\n      swap1\n      sstore\n      pop\n        /* \"temp.sol\":10583:10650  VaultEvent(\"withdraw_confirm_site\",withdraw_id,user_address,amount) */\n      0x040768ee67403a1b2c45e2ee8e9c7cb4283d12bd31f8126de25122997535c1bb\n        /* \"temp.sol\":10618:10629  withdraw_id */\n      dup4\n        /* \"temp.sol\":10630:10642  user_address */\n      dup6\n        /* \"temp.sol\":10643:10649  amount */\n      dup5\n        /* \"temp.sol\":10583:10650  VaultEvent(\"withdraw_confirm_site\",withdraw_id,user_address,amount) */\n      mload(0x40)\n      tag_320\n      swap4\n      swap3\n      swap2\n      swap1\n      tag_321\n      jump\t// in\n    tag_320:\n      mload(0x40)\n      dup1\n      swap2\n      sub\n      swap1\n      log1\n        /* \"temp.sol\":10180:10655  {... */\n      pop\n        /* \"temp.sol\":10056:10655  function site__withdraw_confirm(string memory vault_id,address user_address,string memory withdraw_id,uint amount) external {... */\n      pop\n      pop\n      pop\n      pop\n      jump\t// out\n        /* \"temp.sol\":578:609  address public g__SiteAuthority */\n    tag_83:\n      0x00\n      dup1\n      sload\n      swap1\n      0x0100\n      exp\n      swap1\n      div\n      0xffffffffffffffffffffffffffffffffffffffff\n      and\n      dup2\n      jump\t// out\n        /* \"temp.sol\":1343:1370  uint16 public g__VaultCount */\n    tag_87:\n      0x02\n      dup1\n      sload\n      swap1\n      0x0100\n      exp\n      swap1\n      div\n      0xffff\n      and\n      dup2\n      jump\t// out\n        /* \"temp.sol\":6713:7170  function owner__account_lock(string memory vault_id,address user_address) external {... */\n    tag_92:\n        /* \"temp.sol\":6802:6844  ut__assert_management(vault_id,msg.sender) */\n      tag_323\n        /* \"temp.sol\":6824:6832  vault_id */\n      dup3\n        /* \"temp.sol\":6833:6843  msg.sender */\n      caller\n        /* \"temp.sol\":6802:6823  ut__assert_management */\n      tag_324\n        /* \"temp.sol\":6802:6844  ut__assert_management(vault_id,msg.sender) */\n      jump\t// in\n    tag_323:\n        /* \"temp.sol\":6850:6877  VaultAccount memory account */\n      0x00\n        /* \"temp.sol\":6880:6918  ut__get_account(vault_id,user_address) */\n      tag_325\n        /* \"temp.sol\":6896:6904  vault_id */\n      dup4\n        /* \"temp.sol\":6905:6917  user_address */\n      dup4\n        /* \"temp.sol\":6880:6895  ut__get_account */\n      tag_175\n        /* \"temp.sol\":6880:6918  ut__get_account(vault_id,user_address) */\n      jump\t// in\n    tag_325:\n        /* \"temp.sol\":6850:6918  VaultAccount memory account = ut__get_account(vault_id,user_address) */\n      swap1\n      pop\n        /* \"temp.sol\":6957:6982  VaultAccountStatus.Active */\n      0x02\n        /* \"temp.sol\":6939:6982  account.status == VaultAccountStatus.Active */\n      0x03\n      dup2\n      gt\n      iszero\n      tag_326\n      jumpi\n      tag_327\n      tag_137\n      jump\t// in\n    tag_327:\n    tag_326:\n        /* \"temp.sol\":6939:6946  account */\n      dup2\n        /* \"temp.sol\":6939:6953  account.status */\n      0x00\n      add\n      mload\n        /* \"temp.sol\":6939:6982  account.status == VaultAccountStatus.Active */\n      0x03\n      dup2\n      gt\n      iszero\n      tag_328\n      jumpi\n      tag_329\n      tag_137\n      jump\t// in\n    tag_329:\n    tag_328:\n      eq\n        /* \"temp.sol\":6924:7023  require(... */\n      tag_330\n      jumpi\n      mload(0x40)\n      0x08c379a000000000000000000000000000000000000000000000000000000000\n      dup2\n      mstore\n      0x04\n      add\n      tag_331\n      swap1\n      tag_332\n      jump\t// in\n    tag_331:\n      mload(0x40)\n      dup1\n      swap2\n      sub\n      swap1\n      revert\n    tag_330:\n        /* \"temp.sol\":7079:7104  VaultAccountStatus.Locked */\n      0x03\n        /* \"temp.sol\":7029:7045  g__VaultAccounts */\n      0x04\n        /* \"temp.sol\":7046:7054  vault_id */\n      dup5\n        /* \"temp.sol\":7029:7055  g__VaultAccounts[vault_id] */\n      mload(0x40)\n      tag_333\n      swap2\n      swap1\n      tag_139\n      jump\t// in\n    tag_333:\n      swap1\n      dup2\n      mstore\n      0x20\n      add\n      mload(0x40)\n      dup1\n      swap2\n      sub\n      swap1\n      keccak256\n        /* \"temp.sol\":7029:7069  g__VaultAccounts[vault_id][user_address] */\n      0x00\n        /* \"temp.sol\":7056:7068  user_address */\n      dup5\n        /* \"temp.sol\":7029:7069  g__VaultAccounts[vault_id][user_address] */\n      0xffffffffffffffffffffffffffffffffffffffff\n      and\n      0xffffffffffffffffffffffffffffffffffffffff\n      and\n      dup2\n      mstore\n      0x20\n      add\n      swap1\n      dup2\n      mstore\n      0x20\n      add\n      0x00\n      keccak256\n        /* \"temp.sol\":7029:7076  g__VaultAccounts[vault_id][user_address].status */\n      0x00\n      add\n      0x00\n        /* \"temp.sol\":7029:7104  g__VaultAccounts[vault_id][user_address].status = VaultAccountStatus.Locked */\n      0x0100\n      exp\n      dup2\n      sload\n      dup2\n      0xff\n      mul\n      not\n      and\n      swap1\n      dup4\n      0x03\n      dup2\n      gt\n      iszero\n      tag_334\n      jumpi\n      tag_335\n      tag_137\n      jump\t// in\n    tag_335:\n    tag_334:\n      mul\n      or\n      swap1\n      sstore\n      pop\n        /* \"temp.sol\":7115:7165  VaultEvent(\"account_lock\",vault_id,user_address,0) */\n      0x040768ee67403a1b2c45e2ee8e9c7cb4283d12bd31f8126de25122997535c1bb\n        /* \"temp.sol\":7141:7149  vault_id */\n      dup4\n        /* \"temp.sol\":7150:7162  user_address */\n      dup4\n        /* \"temp.sol\":7163:7164  0 */\n      0x00\n        /* \"temp.sol\":7115:7165  VaultEvent(\"account_lock\",vault_id,user_address,0) */\n      mload(0x40)\n      tag_336\n      swap4\n      swap3\n      swap2\n      swap1\n      tag_337\n      jump\t// in\n    tag_336:\n      mload(0x40)\n      dup1\n      swap2\n      sub\n      swap1\n      log1\n        /* \"temp.sol\":6796:7170  {... */\n      pop\n        /* \"temp.sol\":6713:7170  function owner__account_lock(string memory vault_id,address user_address) external {... */\n      pop\n      pop\n      jump\t// out\n        /* \"temp.sol\":7632:8307  function user__arbitration_vote(string memory vault_id) external {... */\n    tag_95:\n        /* \"temp.sol\":7703:7730  VaultAccount memory account */\n      0x00\n        /* \"temp.sol\":7733:7769  ut__get_account(vault_id,msg.sender) */\n      tag_339\n        /* \"temp.sol\":7749:7757  vault_id */\n      dup3\n        /* \"temp.sol\":7758:7768  msg.sender */\n      caller\n        /* \"temp.sol\":7733:7748  ut__get_account */\n      tag_175\n        /* \"temp.sol\":7733:7769  ut__get_account(vault_id,msg.sender) */\n      jump\t// in\n    tag_339:\n        /* \"temp.sol\":7703:7769  VaultAccount memory account = ut__get_account(vault_id,msg.sender) */\n      swap1\n      pop\n        /* \"temp.sol\":7784:7791  account */\n      dup1\n        /* \"temp.sol\":7784:7803  account.arbitration */\n      0x20\n      add\n      mload\n        /* \"temp.sol\":7783:7803  !account.arbitration */\n      iszero\n        /* \"temp.sol\":7775:7833  require(!account.arbitration,\"Account arbitration voted.\") */\n      tag_340\n      jumpi\n      mload(0x40)\n      0x08c379a000000000000000000000000000000000000000000000000000000000\n      dup2\n      mstore\n      0x04\n      add\n      tag_341\n      swap1\n      tag_342\n      jump\t// in\n    tag_341:\n      mload(0x40)\n      dup1\n      swap2\n      sub\n      swap1\n      revert\n    tag_340:\n        /* \"temp.sol\":7892:7896  true */\n      0x01\n        /* \"temp.sol\":7839:7855  g__VaultAccounts */\n      0x04\n        /* \"temp.sol\":7856:7864  vault_id */\n      dup4\n        /* \"temp.sol\":7839:7865  g__VaultAccounts[vault_id] */\n      mload(0x40)\n      tag_343\n      swap2\n      swap1\n      tag_139\n      jump\t// in\n    tag_343:\n      swap1\n      dup2\n      mstore\n      0x20\n      add\n      mload(0x40)\n      dup1\n      swap2\n      sub\n      swap1\n      keccak256\n        /* \"temp.sol\":7839:7877  g__VaultAccounts[vault_id][msg.sender] */\n      0x00\n        /* \"temp.sol\":7866:7876  msg.sender */\n      caller\n        /* \"temp.sol\":7839:7877  g__VaultAccounts[vault_id][msg.sender] */\n      0xffffffffffffffffffffffffffffffffffffffff\n      and\n      0xffffffffffffffffffffffffffffffffffffffff\n      and\n      dup2\n      mstore\n      0x20\n      add\n      swap1\n      dup2\n      mstore\n      0x20\n      add\n      0x00\n      keccak256\n        /* \"temp.sol\":7839:7889  g__VaultAccounts[vault_id][msg.sender].arbitration */\n      0x00\n      add\n      0x01\n        /* \"temp.sol\":7839:7896  g__VaultAccounts[vault_id][msg.sender].arbitration = true */\n      0x0100\n      exp\n      dup2\n      sload\n      dup2\n      0xff\n      mul\n      not\n      and\n      swap1\n      dup4\n      iszero\n      iszero\n      mul\n      or\n      swap1\n      sstore\n      pop\n        /* \"temp.sol\":7902:7926  uint16 total_arbitration */\n      0x00\n        /* \"temp.sol\":7931:7945  g__VaultLookup */\n      0x03\n        /* \"temp.sol\":7946:7954  vault_id */\n      dup4\n        /* \"temp.sol\":7931:7955  g__VaultLookup[vault_id] */\n      mload(0x40)\n      tag_344\n      swap2\n      swap1\n      tag_139\n      jump\t// in\n    tag_344:\n      swap1\n      dup2\n      mstore\n      0x20\n      add\n      mload(0x40)\n      dup1\n      swap2\n      sub\n      swap1\n      keccak256\n        /* \"temp.sol\":7931:7973  g__VaultLookup[vault_id].total_arbitration */\n      0x05\n      add\n      0x02\n        /* \"temp.sol\":7929:7973  ++g__VaultLookup[vault_id].total_arbitration */\n      dup2\n      dup2\n      swap1\n      sload\n      swap1\n      0x0100\n      exp\n      swap1\n      div\n      0xffff\n      and\n      tag_345\n      swap1\n      tag_163\n      jump\t// in\n    tag_345:\n      swap2\n      swap1\n      0x0100\n      exp\n      dup2\n      sload\n      dup2\n      0xffff\n      mul\n      not\n      and\n      swap1\n      dup4\n      0xffff\n      and\n      mul\n      or\n      swap1\n      sstore\n        /* \"temp.sol\":7902:7973  uint16 total_arbitration = ++g__VaultLookup[vault_id].total_arbitration */\n      swap1\n      pop\n        /* \"temp.sol\":7979:7999  uint16 total_players */\n      0x00\n        /* \"temp.sol\":8002:8016  g__VaultLookup */\n      0x03\n        /* \"temp.sol\":8017:8025  vault_id */\n      dup5\n        /* \"temp.sol\":8002:8026  g__VaultLookup[vault_id] */\n      mload(0x40)\n      tag_346\n      swap2\n      swap1\n      tag_139\n      jump\t// in\n    tag_346:\n      swap1\n      dup2\n      mstore\n      0x20\n      add\n      mload(0x40)\n      dup1\n      swap2\n      sub\n      swap1\n      keccak256\n        /* \"temp.sol\":8002:8040  g__VaultLookup[vault_id].total_players */\n      0x05\n      add\n      0x00\n      swap1\n      sload\n      swap1\n      0x0100\n      exp\n      swap1\n      div\n      0xffff\n      and\n        /* \"temp.sol\":7979:8040  uint16 total_players = g__VaultLookup[vault_id].total_players */\n      swap1\n      pop\n        /* \"temp.sol\":8070:8071  4 */\n      0x04\n        /* \"temp.sol\":8050:8067  total_arbitration */\n      dup3\n        /* \"temp.sol\":8050:8071  total_arbitration > 4 */\n      0xffff\n      and\n      gt\n        /* \"temp.sol\":8049:8151  (total_arbitration > 4) && (total_arbitration > ((g__SiteArbitrationThreshold * total_players) / 100)) */\n      dup1\n      iszero\n      tag_347\n      jumpi\n      pop\n        /* \"temp.sol\":8146:8149  100 */\n      0x64\n        /* \"temp.sol\":8129:8142  total_players */\n      dup2\n        /* \"temp.sol\":8099:8126  g__SiteArbitrationThreshold */\n      0x02\n      0x00\n      swap1\n      sload\n      swap1\n      0x0100\n      exp\n      swap1\n      div\n      0xffff\n      and\n        /* \"temp.sol\":8099:8142  g__SiteArbitrationThreshold * total_players */\n      tag_348\n      swap2\n      swap1\n      tag_349\n      jump\t// in\n    tag_348:\n        /* \"temp.sol\":8098:8149  (g__SiteArbitrationThreshold * total_players) / 100 */\n      tag_350\n      swap2\n      swap1\n      tag_351\n      jump\t// in\n    tag_350:\n        /* \"temp.sol\":8077:8150  total_arbitration > ((g__SiteArbitrationThreshold * total_players) / 100) */\n      0xffff\n      and\n        /* \"temp.sol\":8077:8094  total_arbitration */\n      dup3\n        /* \"temp.sol\":8077:8150  total_arbitration > ((g__SiteArbitrationThreshold * total_players) / 100) */\n      0xffff\n      and\n      gt\n        /* \"temp.sol\":8049:8151  (total_arbitration > 4) && (total_arbitration > ((g__SiteArbitrationThreshold * total_players) / 100)) */\n    tag_347:\n        /* \"temp.sol\":8046:8224  if((total_arbitration > 4) && (total_arbitration > ((g__SiteArbitrationThreshold * total_players) / 100))){... */\n      iszero\n      tag_352\n      jumpi\n        /* \"temp.sol\":8194:8217  VaultStatus.Arbitration */\n      0x03\n        /* \"temp.sol\":8160:8174  g__VaultLookup */\n      dup1\n        /* \"temp.sol\":8175:8183  vault_id */\n      dup6\n        /* \"temp.sol\":8160:8184  g__VaultLookup[vault_id] */\n      mload(0x40)\n      tag_353\n      swap2\n      swap1\n      tag_139\n      jump\t// in\n    tag_353:\n      swap1\n      dup2\n      mstore\n      0x20\n      add\n      mload(0x40)\n      dup1\n      swap2\n      sub\n      swap1\n      keccak256\n        /* \"temp.sol\":8160:8191  g__VaultLookup[vault_id].status */\n      0x00\n      add\n      0x00\n        /* \"temp.sol\":8160:8217  g__VaultLookup[vault_id].status = VaultStatus.Arbitration */\n      0x0100\n      exp\n      dup2\n      sload\n      dup2\n      0xff\n      mul\n      not\n      and\n      swap1\n      dup4\n      0x03\n      dup2\n      gt\n      iszero\n      tag_354\n      jumpi\n      tag_355\n      tag_137\n      jump\t// in\n    tag_355:\n    tag_354:\n      mul\n      or\n      swap1\n      sstore\n      pop\n        /* \"temp.sol\":8046:8224  if((total_arbitration > 4) && (total_arbitration > ((g__SiteArbitrationThreshold * total_players) / 100))){... */\n    tag_352:\n        /* \"temp.sol\":8234:8302  VaultEvent(\"arbitration_vote\",vault_id,msg.sender,total_arbitration) */\n      0x040768ee67403a1b2c45e2ee8e9c7cb4283d12bd31f8126de25122997535c1bb\n        /* \"temp.sol\":8264:8272  vault_id */\n      dup5\n        /* \"temp.sol\":8273:8283  msg.sender */\n      caller\n        /* \"temp.sol\":8284:8301  total_arbitration */\n      dup5\n        /* \"temp.sol\":8234:8302  VaultEvent(\"arbitration_vote\",vault_id,msg.sender,total_arbitration) */\n      mload(0x40)\n      tag_356\n      swap4\n      swap3\n      swap2\n      swap1\n      tag_357\n      jump\t// in\n    tag_356:\n      mload(0x40)\n      dup1\n      swap2\n      sub\n      swap1\n      log1\n        /* \"temp.sol\":7697:8307  {... */\n      pop\n      pop\n      pop\n        /* \"temp.sol\":7632:8307  function user__arbitration_vote(string memory vault_id) external {... */\n      pop\n      jump\t// out\n        /* \"temp.sol\":8855:10050  function user__withdraw_request(string memory vault_id,string memory withdraw_id,uint amount) external {... */\n    tag_99:\n        /* \"temp.sol\":8964:8991  VaultAccount memory account */\n      0x00\n        /* \"temp.sol\":8994:9010  g__VaultAccounts */\n      0x04\n        /* \"temp.sol\":9011:9019  vault_id */\n      dup5\n        /* \"temp.sol\":8994:9020  g__VaultAccounts[vault_id] */\n      mload(0x40)\n      tag_359\n      swap2\n      swap1\n      tag_139\n      jump\t// in\n    tag_359:\n      swap1\n      dup2\n      mstore\n      0x20\n      add\n      mload(0x40)\n      dup1\n      swap2\n      sub\n      swap1\n      keccak256\n        /* \"temp.sol\":8994:9032  g__VaultAccounts[vault_id][msg.sender] */\n      0x00\n        /* \"temp.sol\":9021:9031  msg.sender */\n      caller\n        /* \"temp.sol\":8994:9032  g__VaultAccounts[vault_id][msg.sender] */\n      0xffffffffffffffffffffffffffffffffffffffff\n      and\n      0xffffffffffffffffffffffffffffffffffffffff\n      and\n      dup2\n      mstore\n      0x20\n      add\n      swap1\n      dup2\n      mstore\n      0x20\n      add\n      0x00\n      keccak256\n        /* \"temp.sol\":8964:9032  VaultAccount memory account = g__VaultAccounts[vault_id][msg.sender] */\n      mload(0x40)\n      dup1\n      0x80\n      add\n      0x40\n      mstore\n      swap1\n      dup2\n      0x00\n      dup3\n      add\n      0x00\n      swap1\n      sload\n      swap1\n      0x0100\n      exp\n      swap1\n      div\n      0xff\n      and\n      0x03\n      dup2\n      gt\n      iszero\n      tag_360\n      jumpi\n      tag_361\n      tag_137\n      jump\t// in\n    tag_361:\n    tag_360:\n      0x03\n      dup2\n      gt\n      iszero\n      tag_362\n      jumpi\n      tag_363\n      tag_137\n      jump\t// in\n    tag_363:\n    tag_362:\n      dup2\n      mstore\n      0x20\n      add\n      0x00\n      dup3\n      add\n      0x01\n      swap1\n      sload\n      swap1\n      0x0100\n      exp\n      swap1\n      div\n      0xff\n      and\n      iszero\n      iszero\n      iszero\n      iszero\n      dup2\n      mstore\n      0x20\n      add\n      0x01\n      dup3\n      add\n      dup1\n      sload\n      tag_364\n      swap1\n      tag_204\n      jump\t// in\n    tag_364:\n      dup1\n      0x1f\n      add\n      0x20\n      dup1\n      swap2\n      div\n      mul\n      0x20\n      add\n      mload(0x40)\n      swap1\n      dup2\n      add\n      0x40\n      mstore\n      dup1\n      swap3\n      swap2\n      swap1\n      dup2\n      dup2\n      mstore\n      0x20\n      add\n      dup3\n      dup1\n      sload\n      tag_365\n      swap1\n      tag_204\n      jump\t// in\n    tag_365:\n      dup1\n      iszero\n      tag_366\n      jumpi\n      dup1\n      0x1f\n      lt\n      tag_367\n      jumpi\n      0x0100\n      dup1\n      dup4\n      sload\n      div\n      mul\n      dup4\n      mstore\n      swap2\n      0x20\n      add\n      swap2\n      jump(tag_366)\n    tag_367:\n      dup3\n      add\n      swap2\n      swap1\n      0x00\n      mstore\n      keccak256(0x00, 0x20)\n      swap1\n    tag_368:\n      dup2\n      sload\n      dup2\n      mstore\n      swap1\n      0x01\n      add\n      swap1\n      0x20\n      add\n      dup1\n      dup4\n      gt\n      tag_368\n      jumpi\n      dup3\n      swap1\n      sub\n      0x1f\n      and\n      dup3\n      add\n      swap2\n    tag_366:\n      pop\n      pop\n      pop\n      pop\n      pop\n      dup2\n      mstore\n      0x20\n      add\n      0x02\n      dup3\n      add\n      sload\n      dup2\n      mstore\n      pop\n      pop\n      swap1\n      pop\n        /* \"temp.sol\":9038:9056  Vault memory vault */\n      0x00\n        /* \"temp.sol\":9059:9073  g__VaultLookup */\n      0x03\n        /* \"temp.sol\":9074:9082  vault_id */\n      dup6\n        /* \"temp.sol\":9059:9083  g__VaultLookup[vault_id] */\n      mload(0x40)\n      tag_369\n      swap2\n      swap1\n      tag_139\n      jump\t// in\n    tag_369:\n      swap1\n      dup2\n      mstore\n      0x20\n      add\n      mload(0x40)\n      dup1\n      swap2\n      sub\n      swap1\n      keccak256\n        /* \"temp.sol\":9038:9083  Vault memory vault = g__VaultLookup[vault_id] */\n      mload(0x40)\n      dup1\n      0x0180\n      add\n      0x40\n      mstore\n      swap1\n      dup2\n      0x00\n      dup3\n      add\n      0x00\n      swap1\n      sload\n      swap1\n      0x0100\n      exp\n      swap1\n      div\n      0xff\n      and\n      0x03\n      dup2\n      gt\n      iszero\n      tag_370\n      jumpi\n      tag_371\n      tag_137\n      jump\t// in\n    tag_371:\n    tag_370:\n      0x03\n      dup2\n      gt\n      iszero\n      tag_372\n      jumpi\n      tag_373\n      tag_137\n      jump\t// in\n    tag_373:\n    tag_372:\n      dup2\n      mstore\n      0x20\n      add\n      0x01\n      dup3\n      add\n      dup1\n      sload\n      tag_374\n      swap1\n      tag_204\n      jump\t// in\n    tag_374:\n      dup1\n      0x1f\n      add\n      0x20\n      dup1\n      swap2\n      div\n      mul\n      0x20\n      add\n      mload(0x40)\n      swap1\n      dup2\n      add\n      0x40\n      mstore\n      dup1\n      swap3\n      swap2\n      swap1\n      dup2\n      dup2\n      mstore\n      0x20\n      add\n      dup3\n      dup1\n      sload\n      tag_375\n      swap1\n      tag_204\n      jump\t// in\n    tag_375:\n      dup1\n      iszero\n      tag_376\n      jumpi\n      dup1\n      0x1f\n      lt\n      tag_377\n      jumpi\n      0x0100\n      dup1\n      dup4\n      sload\n      div\n      mul\n      dup4\n      mstore\n      swap2\n      0x20\n      add\n      swap2\n      jump(tag_376)\n    tag_377:\n      dup3\n      add\n      swap2\n      swap1\n      0x00\n      mstore\n      keccak256(0x00, 0x20)\n      swap1\n    tag_378:\n      dup2\n      sload\n      dup2\n      mstore\n      swap1\n      0x01\n      add\n      swap1\n      0x20\n      add\n      dup1\n      dup4\n      gt\n      tag_378\n      jumpi\n      dup3\n      swap1\n      sub\n      0x1f\n      and\n      dup3\n      add\n      swap2\n    tag_376:\n      pop\n      pop\n      pop\n      pop\n      pop\n      dup2\n      mstore\n      0x20\n      add\n      0x02\n      dup3\n      add\n      0x00\n      swap1\n      sload\n      swap1\n      0x0100\n      exp\n      swap1\n      div\n      0xffffffffffffffffffffffffffffffffffffffff\n      and\n      0xffffffffffffffffffffffffffffffffffffffff\n      and\n      0xffffffffffffffffffffffffffffffffffffffff\n      and\n      dup2\n      mstore\n      0x20\n      add\n      0x03\n      dup3\n      add\n      sload\n      dup2\n      mstore\n      0x20\n      add\n      0x04\n      dup3\n      add\n      sload\n      dup2\n      mstore\n      0x20\n      add\n      0x05\n      dup3\n      add\n      0x00\n      swap1\n      sload\n      swap1\n      0x0100\n      exp\n      swap1\n      div\n      0xffff\n      and\n      0xffff\n      and\n      0xffff\n      and\n      dup2\n      mstore\n      0x20\n      add\n      0x05\n      dup3\n      add\n      0x02\n      swap1\n      sload\n      swap1\n      0x0100\n      exp\n      swap1\n      div\n      0xffff\n      and\n      0xffff\n      and\n      0xffff\n      and\n      dup2\n      mstore\n      0x20\n      add\n      0x05\n      dup3\n      add\n      0x04\n      swap1\n      sload\n      swap1\n      0x0100\n      exp\n      swap1\n      div\n      0xffff\n      and\n      0xffff\n      and\n      0xffff\n      and\n      dup2\n      mstore\n      0x20\n      add\n      0x06\n      dup3\n      add\n      sload\n      dup2\n      mstore\n      0x20\n      add\n      0x07\n      dup3\n      add\n      sload\n      dup2\n      mstore\n      0x20\n      add\n      0x08\n      dup3\n      add\n      sload\n      dup2\n      mstore\n      0x20\n      add\n      0x09\n      dup3\n      add\n      0x00\n      swap1\n      sload\n      swap1\n      0x0100\n      exp\n      swap1\n      div\n      0xffffffffffffffffffffffffffffffffffffffff\n      and\n      0xffffffffffffffffffffffffffffffffffffffff\n      and\n      0xffffffffffffffffffffffffffffffffffffffff\n      and\n      dup2\n      mstore\n      pop\n      pop\n      swap1\n      pop\n        /* \"temp.sol\":9123:9148  VaultAccountStatus.Active */\n      0x02\n        /* \"temp.sol\":9105:9148  account.status == VaultAccountStatus.Active */\n      0x03\n      dup2\n      gt\n      iszero\n      tag_379\n      jumpi\n      tag_380\n      tag_137\n      jump\t// in\n    tag_380:\n    tag_379:\n        /* \"temp.sol\":9105:9112  account */\n      dup3\n        /* \"temp.sol\":9105:9119  account.status */\n      0x00\n      add\n      mload\n        /* \"temp.sol\":9105:9148  account.status == VaultAccountStatus.Active */\n      0x03\n      dup2\n      gt\n      iszero\n      tag_381\n      jumpi\n      tag_382\n      tag_137\n      jump\t// in\n    tag_382:\n    tag_381:\n      eq\n        /* \"temp.sol\":9104:9194  (account.status == VaultAccountStatus.Active) || (vault.status == VaultStatus.Arbitration) */\n      dup1\n      tag_383\n      jumpi\n      pop\n        /* \"temp.sol\":9170:9193  VaultStatus.Arbitration */\n      0x03\n        /* \"temp.sol\":9154:9193  vault.status == VaultStatus.Arbitration */\n      dup1\n      dup2\n      gt\n      iszero\n      tag_384\n      jumpi\n      tag_385\n      tag_137\n      jump\t// in\n    tag_385:\n    tag_384:\n        /* \"temp.sol\":9154:9159  vault */\n      dup2\n        /* \"temp.sol\":9154:9166  vault.status */\n      0x00\n      add\n      mload\n        /* \"temp.sol\":9154:9193  vault.status == VaultStatus.Arbitration */\n      0x03\n      dup2\n      gt\n      iszero\n      tag_386\n      jumpi\n      tag_387\n      tag_137\n      jump\t// in\n    tag_387:\n    tag_386:\n      eq\n        /* \"temp.sol\":9104:9194  (account.status == VaultAccountStatus.Active) || (vault.status == VaultStatus.Arbitration) */\n    tag_383:\n        /* \"temp.sol\":9089:9231  require(... */\n      tag_388\n      jumpi\n      mload(0x40)\n      0x08c379a000000000000000000000000000000000000000000000000000000000\n      dup2\n      mstore\n      0x04\n      add\n      tag_389\n      swap1\n      tag_390\n      jump\t// in\n    tag_389:\n      mload(0x40)\n      dup1\n      swap2\n      sub\n      swap1\n      revert\n    tag_388:\n        /* \"temp.sol\":9317:9345  VaultRequestStatus.Undefined */\n      0x00\n        /* \"temp.sol\":9252:9345  g__VaultWithdrawals[vault_id][msg.sender][withdraw_id].status == VaultRequestStatus.Undefined */\n      0x05\n      dup2\n      gt\n      iszero\n      tag_391\n      jumpi\n      tag_392\n      tag_137\n      jump\t// in\n    tag_392:\n    tag_391:\n        /* \"temp.sol\":9252:9271  g__VaultWithdrawals */\n      0x05\n        /* \"temp.sol\":9272:9280  vault_id */\n      dup7\n        /* \"temp.sol\":9252:9281  g__VaultWithdrawals[vault_id] */\n      mload(0x40)\n      tag_393\n      swap2\n      swap1\n      tag_139\n      jump\t// in\n    tag_393:\n      swap1\n      dup2\n      mstore\n      0x20\n      add\n      mload(0x40)\n      dup1\n      swap2\n      sub\n      swap1\n      keccak256\n        /* \"temp.sol\":9252:9293  g__VaultWithdrawals[vault_id][msg.sender] */\n      0x00\n        /* \"temp.sol\":9282:9292  msg.sender */\n      caller\n        /* \"temp.sol\":9252:9293  g__VaultWithdrawals[vault_id][msg.sender] */\n      0xffffffffffffffffffffffffffffffffffffffff\n      and\n      0xffffffffffffffffffffffffffffffffffffffff\n      and\n      dup2\n      mstore\n      0x20\n      add\n      swap1\n      dup2\n      mstore\n      0x20\n      add\n      0x00\n      keccak256\n        /* \"temp.sol\":9294:9305  withdraw_id */\n      dup6\n        /* \"temp.sol\":9252:9306  g__VaultWithdrawals[vault_id][msg.sender][withdraw_id] */\n      mload(0x40)\n      tag_394\n      swap2\n      swap1\n      tag_139\n      jump\t// in\n    tag_394:\n      swap1\n      dup2\n      mstore\n      0x20\n      add\n      mload(0x40)\n      dup1\n      swap2\n      sub\n      swap1\n      keccak256\n        /* \"temp.sol\":9252:9313  g__VaultWithdrawals[vault_id][msg.sender][withdraw_id].status */\n      0x01\n      add\n      0x00\n      swap1\n      sload\n      swap1\n      0x0100\n      exp\n      swap1\n      div\n      0xff\n      and\n        /* \"temp.sol\":9252:9345  g__VaultWithdrawals[vault_id][msg.sender][withdraw_id].status == VaultRequestStatus.Undefined */\n      0x05\n      dup2\n      gt\n      iszero\n      tag_395\n      jumpi\n      tag_396\n      tag_137\n      jump\t// in\n    tag_396:\n    tag_395:\n      eq\n        /* \"temp.sol\":9237:9388  require(... */\n      tag_397\n      jumpi\n      mload(0x40)\n      0x08c379a000000000000000000000000000000000000000000000000000000000\n      dup2\n      mstore\n      0x04\n      add\n      tag_398\n      swap1\n      tag_399\n      jump\t// in\n    tag_398:\n      mload(0x40)\n      dup1\n      swap2\n      sub\n      swap1\n      revert\n    tag_397:\n        /* \"temp.sol\":9419:9424  vault */\n      dup1\n        /* \"temp.sol\":9419:9443  vault.vault_withdraw_min */\n      0x0120\n      add\n      mload\n        /* \"temp.sol\":9409:9415  amount */\n      dup4\n        /* \"temp.sol\":9409:9443  amount >= vault.vault_withdraw_min */\n      lt\n      iszero\n        /* \"temp.sol\":9394:9489  require(... */\n      tag_400\n      jumpi\n      mload(0x40)\n      0x08c379a000000000000000000000000000000000000000000000000000000000\n      dup2\n      mstore\n      0x04\n      add\n      tag_401\n      swap1\n      tag_402\n      jump\t// in\n    tag_401:\n      mload(0x40)\n      dup1\n      swap2\n      sub\n      swap1\n      revert\n    tag_400:\n        /* \"temp.sol\":9520:9525  vault */\n      dup1\n        /* \"temp.sol\":9520:9544  vault.vault_withdraw_max */\n      0x0140\n      add\n      mload\n        /* \"temp.sol\":9510:9516  amount */\n      dup4\n        /* \"temp.sol\":9510:9544  amount <= vault.vault_withdraw_max */\n      gt\n      iszero\n        /* \"temp.sol\":9495:9589  require(... */\n      tag_403\n      jumpi\n      mload(0x40)\n      0x08c379a000000000000000000000000000000000000000000000000000000000\n      dup2\n      mstore\n      0x04\n      add\n      tag_404\n      swap1\n      tag_405\n      jump\t// in\n    tag_404:\n      mload(0x40)\n      dup1\n      swap2\n      sub\n      swap1\n      revert\n    tag_403:\n        /* \"temp.sol\":9595:9619  uint new_total_requested */\n      0x00\n        /* \"temp.sol\":9666:9672  amount */\n      dup4\n        /* \"temp.sol\":9623:9637  g__VaultLookup */\n      0x03\n        /* \"temp.sol\":9638:9646  vault_id */\n      dup8\n        /* \"temp.sol\":9623:9647  g__VaultLookup[vault_id] */\n      mload(0x40)\n      tag_406\n      swap2\n      swap1\n      tag_139\n      jump\t// in\n    tag_406:\n      swap1\n      dup2\n      mstore\n      0x20\n      add\n      mload(0x40)\n      dup1\n      swap2\n      sub\n      swap1\n      keccak256\n        /* \"temp.sol\":9623:9663  g__VaultLookup[vault_id].total_requested */\n      0x04\n      add\n      sload\n        /* \"temp.sol\":9623:9672  g__VaultLookup[vault_id].total_requested + amount */\n      tag_407\n      swap2\n      swap1\n      tag_293\n      jump\t// in\n    tag_407:\n        /* \"temp.sol\":9595:9673  uint new_total_requested = (g__VaultLookup[vault_id].total_requested + amount) */\n      swap1\n      pop\n        /* \"temp.sol\":9733:9752  new_total_requested */\n      dup1\n        /* \"temp.sol\":9694:9708  g__VaultLookup */\n      0x03\n        /* \"temp.sol\":9709:9717  vault_id */\n      dup8\n        /* \"temp.sol\":9694:9718  g__VaultLookup[vault_id] */\n      mload(0x40)\n      tag_408\n      swap2\n      swap1\n      tag_139\n      jump\t// in\n    tag_408:\n      swap1\n      dup2\n      mstore\n      0x20\n      add\n      mload(0x40)\n      dup1\n      swap2\n      sub\n      swap1\n      keccak256\n        /* \"temp.sol\":9694:9729  g__VaultLookup[vault_id].total_pool */\n      0x03\n      add\n      sload\n        /* \"temp.sol\":9694:9752  g__VaultLookup[vault_id].total_pool >= new_total_requested */\n      lt\n      iszero\n        /* \"temp.sol\":9679:9793  require(... */\n      tag_409\n      jumpi\n      mload(0x40)\n      0x08c379a000000000000000000000000000000000000000000000000000000000\n      dup2\n      mstore\n      0x04\n      add\n      tag_410\n      swap1\n      tag_411\n      jump\t// in\n    tag_410:\n      mload(0x40)\n      dup1\n      swap2\n      sub\n      swap1\n      revert\n    tag_409:\n        /* \"temp.sol\":9856:9906  WithdrawRequest(amount,VaultRequestStatus.Pending) */\n      mload(0x40)\n      dup1\n      0x40\n      add\n      0x40\n      mstore\n      dup1\n        /* \"temp.sol\":9872:9878  amount */\n      dup6\n        /* \"temp.sol\":9856:9906  WithdrawRequest(amount,VaultRequestStatus.Pending) */\n      dup2\n      mstore\n      0x20\n      add\n        /* \"temp.sol\":9879:9905  VaultRequestStatus.Pending */\n      0x01\n        /* \"temp.sol\":9856:9906  WithdrawRequest(amount,VaultRequestStatus.Pending) */\n      0x05\n      dup2\n      gt\n      iszero\n      tag_412\n      jumpi\n      tag_413\n      tag_137\n      jump\t// in\n    tag_413:\n    tag_412:\n      dup2\n      mstore\n      pop\n        /* \"temp.sol\":9799:9818  g__VaultWithdrawals */\n      0x05\n        /* \"temp.sol\":9819:9827  vault_id */\n      dup8\n        /* \"temp.sol\":9799:9828  g__VaultWithdrawals[vault_id] */\n      mload(0x40)\n      tag_414\n      swap2\n      swap1\n      tag_139\n      jump\t// in\n    tag_414:\n      swap1\n      dup2\n      mstore\n      0x20\n      add\n      mload(0x40)\n      dup1\n      swap2\n      sub\n      swap1\n      keccak256\n        /* \"temp.sol\":9799:9840  g__VaultWithdrawals[vault_id][msg.sender] */\n      0x00\n        /* \"temp.sol\":9829:9839  msg.sender */\n      caller\n        /* \"temp.sol\":9799:9840  g__VaultWithdrawals[vault_id][msg.sender] */\n      0xffffffffffffffffffffffffffffffffffffffff\n      and\n      0xffffffffffffffffffffffffffffffffffffffff\n      and\n      dup2\n      mstore\n      0x20\n      add\n      swap1\n      dup2\n      mstore\n      0x20\n      add\n      0x00\n      keccak256\n        /* \"temp.sol\":9841:9852  withdraw_id */\n      dup7\n        /* \"temp.sol\":9799:9853  g__VaultWithdrawals[vault_id][msg.sender][withdraw_id] */\n      mload(0x40)\n      tag_415\n      swap2\n      swap1\n      tag_139\n      jump\t// in\n    tag_415:\n      swap1\n      dup2\n      mstore\n      0x20\n      add\n      mload(0x40)\n      dup1\n      swap2\n      sub\n      swap1\n      keccak256\n        /* \"temp.sol\":9799:9906  g__VaultWithdrawals[vault_id][msg.sender][withdraw_id] = WithdrawRequest(amount,VaultRequestStatus.Pending) */\n      0x00\n      dup3\n      add\n      mload\n      dup2\n      0x00\n      add\n      sstore\n      0x20\n      dup3\n      add\n      mload\n      dup2\n      0x01\n      add\n      exp(0x0100, 0x00)\n      dup2\n      sload\n      dup2\n      0xff\n      mul\n      not\n      and\n      swap1\n      dup4\n      0x05\n      dup2\n      gt\n      iszero\n      tag_416\n      jumpi\n      tag_417\n      tag_137\n      jump\t// in\n    tag_417:\n    tag_416:\n      mul\n      or\n      swap1\n      sstore\n      pop\n      swap1\n      pop\n      pop\n        /* \"temp.sol\":9955:9974  new_total_requested */\n      dup1\n        /* \"temp.sol\":9912:9926  g__VaultLookup */\n      0x03\n        /* \"temp.sol\":9927:9935  vault_id */\n      dup8\n        /* \"temp.sol\":9912:9936  g__VaultLookup[vault_id] */\n      mload(0x40)\n      tag_418\n      swap2\n      swap1\n      tag_139\n      jump\t// in\n    tag_418:\n      swap1\n      dup2\n      mstore\n      0x20\n      add\n      mload(0x40)\n      dup1\n      swap2\n      sub\n      swap1\n      keccak256\n        /* \"temp.sol\":9912:9952  g__VaultLookup[vault_id].total_requested */\n      0x04\n      add\n        /* \"temp.sol\":9912:9974  g__VaultLookup[vault_id].total_requested = new_total_requested */\n      dup2\n      swap1\n      sstore\n      pop\n        /* \"temp.sol\":9985:10045  VaultEvent(\"withdraw_request\",withdraw_id,msg.sender,amount) */\n      0x040768ee67403a1b2c45e2ee8e9c7cb4283d12bd31f8126de25122997535c1bb\n        /* \"temp.sol\":10015:10026  withdraw_id */\n      dup6\n        /* \"temp.sol\":10027:10037  msg.sender */\n      caller\n        /* \"temp.sol\":10038:10044  amount */\n      dup7\n        /* \"temp.sol\":9985:10045  VaultEvent(\"withdraw_request\",withdraw_id,msg.sender,amount) */\n      mload(0x40)\n      tag_419\n      swap4\n      swap3\n      swap2\n      swap1\n      tag_420\n      jump\t// in\n    tag_419:\n      mload(0x40)\n      dup1\n      swap2\n      sub\n      swap1\n      log1\n        /* \"temp.sol\":8958:10050  {... */\n      pop\n      pop\n      pop\n        /* \"temp.sol\":8855:10050  function user__withdraw_request(string memory vault_id,string memory withdraw_id,uint amount) external {... */\n      pop\n      pop\n      pop\n      jump\t// out\n        /* \"temp.sol\":3726:4604  function site__vault_create(string memory vault_id,string memory name,address owner,uint16 vault_tax_rate,uint vault_tax_max,uint vault_withdraw_min,uint vault_withdraw_max,address vault_erc20) external {... */\n    tag_103:\n        /* \"temp.sol\":3935:3963  ut__assert_admin(msg.sender) */\n      tag_422\n        /* \"temp.sol\":3952:3962  msg.sender */\n      caller\n        /* \"temp.sol\":3935:3951  ut__assert_admin */\n      tag_134\n        /* \"temp.sol\":3935:3963  ut__assert_admin(msg.sender) */\n      jump\t// in\n    tag_422:\n        /* \"temp.sol\":4009:4023  g__VaultLookup */\n      0x03\n        /* \"temp.sol\":4024:4032  vault_id */\n      dup9\n        /* \"temp.sol\":4009:4033  g__VaultLookup[vault_id] */\n      mload(0x40)\n      tag_423\n      swap2\n      swap1\n      tag_139\n      jump\t// in\n    tag_423:\n      swap1\n      dup2\n      mstore\n      0x20\n      add\n      mload(0x40)\n      dup1\n      swap2\n      sub\n      swap1\n      keccak256\n        /* \"temp.sol\":4009:4040  g__VaultLookup[vault_id].status */\n      0x00\n      add\n      0x00\n      swap1\n      sload\n      swap1\n      0x0100\n      exp\n      swap1\n      div\n      0xff\n      and\n        /* \"temp.sol\":3984:4040  VaultStatus.Undefined == g__VaultLookup[vault_id].status */\n      0x03\n      dup2\n      gt\n      iszero\n      tag_424\n      jumpi\n      tag_425\n      tag_137\n      jump\t// in\n    tag_425:\n    tag_424:\n        /* \"temp.sol\":3984:4005  VaultStatus.Undefined */\n      0x00\n        /* \"temp.sol\":3984:4040  VaultStatus.Undefined == g__VaultLookup[vault_id].status */\n      0x03\n      dup2\n      gt\n      iszero\n      tag_426\n      jumpi\n      tag_427\n      tag_137\n      jump\t// in\n    tag_427:\n    tag_426:\n      eq\n        /* \"temp.sol\":3969:4077  require(... */\n      tag_428\n      jumpi\n      mload(0x40)\n      0x08c379a000000000000000000000000000000000000000000000000000000000\n      dup2\n      mstore\n      0x04\n      add\n      tag_429\n      swap1\n      tag_430\n      jump\t// in\n    tag_429:\n      mload(0x40)\n      dup1\n      swap2\n      sub\n      swap1\n      revert\n    tag_428:\n        /* \"temp.sol\":4083:4101  Vault memory vault */\n      0x00\n        /* \"temp.sol\":4104:4486  Vault({... */\n      mload(0x40)\n      dup1\n      0x0180\n      add\n      0x40\n      mstore\n      dup1\n        /* \"temp.sol\":4297:4315  VaultStatus.Active */\n      0x01\n        /* \"temp.sol\":4104:4486  Vault({... */\n      0x03\n      dup2\n      gt\n      iszero\n      tag_431\n      jumpi\n      tag_432\n      tag_137\n      jump\t// in\n    tag_432:\n    tag_431:\n      dup2\n      mstore\n      0x20\n      add\n        /* \"temp.sol\":4249:4253  name */\n      dup10\n        /* \"temp.sol\":4104:4486  Vault({... */\n      dup2\n      mstore\n      0x20\n      add\n        /* \"temp.sol\":4450:4455  owner */\n      dup9\n        /* \"temp.sol\":4104:4486  Vault({... */\n      0xffffffffffffffffffffffffffffffffffffffff\n      and\n      dup2\n      mstore\n      0x20\n      add\n        /* \"temp.sol\":4234:4235  0 */\n      0x00\n        /* \"temp.sol\":4104:4486  Vault({... */\n      dup2\n      mstore\n      0x20\n      add\n        /* \"temp.sol\":4135:4136  0 */\n      0x00\n        /* \"temp.sol\":4104:4486  Vault({... */\n      dup2\n      mstore\n      0x20\n      add\n        /* \"temp.sol\":4478:4479  0 */\n      0x00\n        /* \"temp.sol\":4104:4486  Vault({... */\n      0xffff\n      and\n      dup2\n      mstore\n      0x20\n      add\n        /* \"temp.sol\":4280:4281  0 */\n      0x00\n        /* \"temp.sol\":4104:4486  Vault({... */\n      0xffff\n      and\n      dup2\n      mstore\n      0x20\n      add\n        /* \"temp.sol\":4385:4399  vault_tax_rate */\n      dup8\n        /* \"temp.sol\":4104:4486  Vault({... */\n      0xffff\n      and\n      dup2\n      mstore\n      0x20\n      add\n        /* \"temp.sol\":4422:4435  vault_tax_max */\n      dup7\n        /* \"temp.sol\":4104:4486  Vault({... */\n      dup2\n      mstore\n      0x20\n      add\n        /* \"temp.sol\":4343:4361  vault_withdraw_min */\n      dup6\n        /* \"temp.sol\":4104:4486  Vault({... */\n      dup2\n      mstore\n      0x20\n      add\n        /* \"temp.sol\":4196:4214  vault_withdraw_max */\n      dup5\n        /* \"temp.sol\":4104:4486  Vault({... */\n      dup2\n      mstore\n      0x20\n      add\n        /* \"temp.sol\":4157:4168  vault_erc20 */\n      dup4\n        /* \"temp.sol\":4104:4486  Vault({... */\n      0xffffffffffffffffffffffffffffffffffffffff\n      and\n      dup2\n      mstore\n      pop\n        /* \"temp.sol\":4083:4486  Vault memory vault = Vault({... */\n      swap1\n      pop\n        /* \"temp.sol\":4494:4507  g__VaultCount */\n      0x02\n      dup1\n        /* \"temp.sol\":4492:4507  ++g__VaultCount */\n      dup2\n      dup2\n      swap1\n      sload\n      swap1\n      0x0100\n      exp\n      swap1\n      div\n      0xffff\n      and\n      tag_433\n      swap1\n      tag_163\n      jump\t// in\n    tag_433:\n      swap2\n      swap1\n      0x0100\n      exp\n      dup2\n      sload\n      dup2\n      0xffff\n      mul\n      not\n      and\n      swap1\n      dup4\n      0xffff\n      and\n      mul\n      or\n      swap1\n      sstore\n      pop\n        /* \"temp.sol\":4540:4545  vault */\n      dup1\n        /* \"temp.sol\":4513:4527  g__VaultLookup */\n      0x03\n        /* \"temp.sol\":4528:4536  vault_id */\n      dup11\n        /* \"temp.sol\":4513:4537  g__VaultLookup[vault_id] */\n      mload(0x40)\n      tag_434\n      swap2\n      swap1\n      tag_139\n      jump\t// in\n    tag_434:\n      swap1\n      dup2\n      mstore\n      0x20\n      add\n      mload(0x40)\n      dup1\n      swap2\n      sub\n      swap1\n      keccak256\n        /* \"temp.sol\":4513:4545  g__VaultLookup[vault_id] = vault */\n      0x00\n      dup3\n      add\n      mload\n      dup2\n      0x00\n      add\n      exp(0x0100, 0x00)\n      dup2\n      sload\n      dup2\n      0xff\n      mul\n      not\n      and\n      swap1\n      dup4\n      0x03\n      dup2\n      gt\n      iszero\n      tag_435\n      jumpi\n      tag_436\n      tag_137\n      jump\t// in\n    tag_436:\n    tag_435:\n      mul\n      or\n      swap1\n      sstore\n      pop\n      0x20\n      dup3\n      add\n      mload\n      dup2\n      0x01\n      add\n      swap1\n      dup2\n      tag_437\n      swap2\n      swap1\n      tag_168\n      jump\t// in\n    tag_437:\n      pop\n      0x40\n      dup3\n      add\n      mload\n      dup2\n      0x02\n      add\n      exp(0x0100, 0x00)\n      dup2\n      sload\n      dup2\n      0xffffffffffffffffffffffffffffffffffffffff\n      mul\n      not\n      and\n      swap1\n      dup4\n      0xffffffffffffffffffffffffffffffffffffffff\n      and\n      mul\n      or\n      swap1\n      sstore\n      pop\n      0x60\n      dup3\n      add\n      mload\n      dup2\n      0x03\n      add\n      sstore\n      0x80\n      dup3\n      add\n      mload\n      dup2\n      0x04\n      add\n      sstore\n      0xa0\n      dup3\n      add\n      mload\n      dup2\n      0x05\n      add\n      exp(0x0100, 0x00)\n      dup2\n      sload\n      dup2\n      0xffff\n      mul\n      not\n      and\n      swap1\n      dup4\n      0xffff\n      and\n      mul\n      or\n      swap1\n      sstore\n      pop\n      0xc0\n      dup3\n      add\n      mload\n      dup2\n      0x05\n      add\n      exp(0x0100, 0x02)\n      dup2\n      sload\n      dup2\n      0xffff\n      mul\n      not\n      and\n      swap1\n      dup4\n      0xffff\n      and\n      mul\n      or\n      swap1\n      sstore\n      pop\n      0xe0\n      dup3\n      add\n      mload\n      dup2\n      0x05\n      add\n      exp(0x0100, 0x04)\n      dup2\n      sload\n      dup2\n      0xffff\n      mul\n      not\n      and\n      swap1\n      dup4\n      0xffff\n      and\n      mul\n      or\n      swap1\n      sstore\n      pop\n      0x0100\n      dup3\n      add\n      mload\n      dup2\n      0x06\n      add\n      sstore\n      0x0120\n      dup3\n      add\n      mload\n      dup2\n      0x07\n      add\n      sstore\n      0x0140\n      dup3\n      add\n      mload\n      dup2\n      0x08\n      add\n      sstore\n      0x0160\n      dup3\n      add\n      mload\n      dup2\n      0x09\n      add\n      exp(0x0100, 0x00)\n      dup2\n      sload\n      dup2\n      0xffffffffffffffffffffffffffffffffffffffff\n      mul\n      not\n      and\n      swap1\n      dup4\n      0xffffffffffffffffffffffffffffffffffffffff\n      and\n      mul\n      or\n      swap1\n      sstore\n      pop\n      swap1\n      pop\n      pop\n        /* \"temp.sol\":4556:4599  VaultEvent(\"vault_create\",vault_id,owner,0) */\n      0x040768ee67403a1b2c45e2ee8e9c7cb4283d12bd31f8126de25122997535c1bb\n        /* \"temp.sol\":4582:4590  vault_id */\n      dup10\n        /* \"temp.sol\":4591:4596  owner */\n      dup9\n        /* \"temp.sol\":4597:4598  0 */\n      0x00\n        /* \"temp.sol\":4556:4599  VaultEvent(\"vault_create\",vault_id,owner,0) */\n      mload(0x40)\n      tag_438\n      swap4\n      swap3\n      swap2\n      swap1\n      tag_439\n      jump\t// in\n    tag_438:\n      mload(0x40)\n      dup1\n      swap2\n      sub\n      swap1\n      log1\n        /* \"temp.sol\":3929:4604  {... */\n      pop\n        /* \"temp.sol\":3726:4604  function site__vault_create(string memory vault_id,string memory name,address owner,uint16 vault_tax_rate,uint vault_tax_max,uint vault_withdraw_min,uint vault_withdraw_max,address vault_erc20) external {... */\n      pop\n      pop\n      pop\n      pop\n      pop\n      pop\n      pop\n      pop\n      jump\t// out\n        /* \"temp.sol\":1430:1505  mapping(string => mapping(address => VaultAccount)) public g__VaultAccounts */\n    tag_106:\n      0x04\n      dup3\n      dup1\n      mload\n      0x20\n      dup2\n      add\n      dup3\n      add\n      dup1\n      mload\n      dup5\n      dup3\n      mstore\n      0x20\n      dup4\n      add\n      0x20\n      dup6\n      add\n      keccak256\n      dup2\n      dup4\n      mstore\n      dup1\n      swap6\n      pop\n      pop\n      pop\n      pop\n      pop\n      pop\n      0x20\n      mstore\n      dup1\n      0x00\n      mstore\n      keccak256(0x00, 0x40)\n      0x00\n      swap2\n      pop\n      swap2\n      pop\n      pop\n      dup1\n      0x00\n      add\n      0x00\n      swap1\n      sload\n      swap1\n      0x0100\n      exp\n      swap1\n      div\n      0xff\n      and\n      swap1\n      dup1\n      0x00\n      add\n      0x01\n      swap1\n      sload\n      swap1\n      0x0100\n      exp\n      swap1\n      div\n      0xff\n      and\n      swap1\n      dup1\n      0x01\n      add\n      dup1\n      sload\n      tag_440\n      swap1\n      tag_204\n      jump\t// in\n    tag_440:\n      dup1\n      0x1f\n      add\n      0x20\n      dup1\n      swap2\n      div\n      mul\n      0x20\n      add\n      mload(0x40)\n      swap1\n      dup2\n      add\n      0x40\n      mstore\n      dup1\n      swap3\n      swap2\n      swap1\n      dup2\n      dup2\n      mstore\n      0x20\n      add\n      dup3\n      dup1\n      sload\n      tag_441\n      swap1\n      tag_204\n      jump\t// in\n    tag_441:\n      dup1\n      iszero\n      tag_442\n      jumpi\n      dup1\n      0x1f\n      lt\n      tag_443\n      jumpi\n      0x0100\n      dup1\n      dup4\n      sload\n      div\n      mul\n      dup4\n      mstore\n      swap2\n      0x20\n      add\n      swap2\n      jump(tag_442)\n    tag_443:\n      dup3\n      add\n      swap2\n      swap1\n      0x00\n      mstore\n      keccak256(0x00, 0x20)\n      swap1\n    tag_444:\n      dup2\n      sload\n      dup2\n      mstore\n      swap1\n      0x01\n      add\n      swap1\n      0x20\n      add\n      dup1\n      dup4\n      gt\n      tag_444\n      jumpi\n      dup3\n      swap1\n      sub\n      0x1f\n      and\n      dup3\n      add\n      swap2\n    tag_442:\n      pop\n      pop\n      pop\n      pop\n      pop\n      swap1\n      dup1\n      0x02\n      add\n      sload\n      swap1\n      pop\n      dup5\n      jump\t// out\n        /* \"temp.sol\":12230:12746  function owner__withdraw_approve(string memory vault_id,address user_address,string memory withdraw_id,uint amount) external {... */\n    tag_111:\n        /* \"temp.sol\":12361:12398  ut__assert_owner(vault_id,msg.sender) */\n      tag_446\n        /* \"temp.sol\":12378:12386  vault_id */\n      dup5\n        /* \"temp.sol\":12387:12397  msg.sender */\n      caller\n        /* \"temp.sol\":12361:12377  ut__assert_owner */\n      tag_173\n        /* \"temp.sol\":12361:12398  ut__assert_owner(vault_id,msg.sender) */\n      jump\t// in\n    tag_446:\n        /* \"temp.sol\":12404:12434  WithdrawRequest memory request */\n      0x00\n        /* \"temp.sol\":12437:12456  g__VaultWithdrawals */\n      0x05\n        /* \"temp.sol\":12457:12465  vault_id */\n      dup6\n        /* \"temp.sol\":12437:12466  g__VaultWithdrawals[vault_id] */\n      mload(0x40)\n      tag_447\n      swap2\n      swap1\n      tag_139\n      jump\t// in\n    tag_447:\n      swap1\n      dup2\n      mstore\n      0x20\n      add\n      mload(0x40)\n      dup1\n      swap2\n      sub\n      swap1\n      keccak256\n        /* \"temp.sol\":12437:12480  g__VaultWithdrawals[vault_id][user_address] */\n      0x00\n        /* \"temp.sol\":12467:12479  user_address */\n      dup6\n        /* \"temp.sol\":12437:12480  g__VaultWithdrawals[vault_id][user_address] */\n      0xffffffffffffffffffffffffffffffffffffffff\n      and\n      0xffffffffffffffffffffffffffffffffffffffff\n      and\n      dup2\n      mstore\n      0x20\n      add\n      swap1\n      dup2\n      mstore\n      0x20\n      add\n      0x00\n      keccak256\n        /* \"temp.sol\":12481:12492  withdraw_id */\n      dup4\n        /* \"temp.sol\":12437:12493  g__VaultWithdrawals[vault_id][user_address][withdraw_id] */\n      mload(0x40)\n      tag_448\n      swap2\n      swap1\n      tag_139\n      jump\t// in\n    tag_448:\n      swap1\n      dup2\n      mstore\n      0x20\n      add\n      mload(0x40)\n      dup1\n      swap2\n      sub\n      swap1\n      keccak256\n        /* \"temp.sol\":12404:12493  WithdrawRequest memory request = g__VaultWithdrawals[vault_id][user_address][withdraw_id] */\n      mload(0x40)\n      dup1\n      0x40\n      add\n      0x40\n      mstore\n      swap1\n      dup2\n      0x00\n      dup3\n      add\n      sload\n      dup2\n      mstore\n      0x20\n      add\n      0x01\n      dup3\n      add\n      0x00\n      swap1\n      sload\n      swap1\n      0x0100\n      exp\n      swap1\n      div\n      0xff\n      and\n      0x05\n      dup2\n      gt\n      iszero\n      tag_449\n      jumpi\n      tag_450\n      tag_137\n      jump\t// in\n    tag_450:\n    tag_449:\n      0x05\n      dup2\n      gt\n      iszero\n      tag_451\n      jumpi\n      tag_452\n      tag_137\n      jump\t// in\n    tag_452:\n    tag_451:\n      dup2\n      mstore\n      pop\n      pop\n      swap1\n      pop\n        /* \"temp.sol\":12532:12560  VaultRequestStatus.Confirmed */\n      0x02\n        /* \"temp.sol\":12514:12560  request.status == VaultRequestStatus.Confirmed */\n      0x05\n      dup2\n      gt\n      iszero\n      tag_453\n      jumpi\n      tag_454\n      tag_137\n      jump\t// in\n    tag_454:\n    tag_453:\n        /* \"temp.sol\":12514:12521  request */\n      dup2\n        /* \"temp.sol\":12514:12528  request.status */\n      0x20\n      add\n      mload\n        /* \"temp.sol\":12514:12560  request.status == VaultRequestStatus.Confirmed */\n      0x05\n      dup2\n      gt\n      iszero\n      tag_455\n      jumpi\n      tag_456\n      tag_137\n      jump\t// in\n    tag_456:\n    tag_455:\n      eq\n        /* \"temp.sol\":12499:12598  require(... */\n      tag_457\n      jumpi\n      mload(0x40)\n      0x08c379a000000000000000000000000000000000000000000000000000000000\n      dup2\n      mstore\n      0x04\n      add\n      tag_458\n      swap1\n      tag_223\n      jump\t// in\n    tag_458:\n      mload(0x40)\n      dup1\n      swap2\n      sub\n      swap1\n      revert\n    tag_457:\n        /* \"temp.sol\":12630:12636  amount */\n      dup2\n        /* \"temp.sol\":12612:12619  request */\n      dup2\n        /* \"temp.sol\":12612:12626  request.amount */\n      0x00\n      add\n      mload\n        /* \"temp.sol\":12612:12636  request.amount == amount */\n      eq\n        /* \"temp.sol\":12604:12665  require(request.amount == amount,\"Withdraw amount incorrect\") */\n      tag_459\n      jumpi\n      mload(0x40)\n      0x08c379a000000000000000000000000000000000000000000000000000000000\n      dup2\n      mstore\n      0x04\n      add\n      tag_460\n      swap1\n      tag_315\n      jump\t// in\n    tag_460:\n      mload(0x40)\n      dup1\n      swap2\n      sub\n      swap1\n      revert\n    tag_459:\n        /* \"temp.sol\":12671:12741  ut__withdraw_transfer(vault_id,user_address,withdraw_id,request,false) */\n      tag_461\n        /* \"temp.sol\":12693:12701  vault_id */\n      dup6\n        /* \"temp.sol\":12702:12714  user_address */\n      dup6\n        /* \"temp.sol\":12715:12726  withdraw_id */\n      dup6\n        /* \"temp.sol\":12727:12734  request */\n      dup5\n        /* \"temp.sol\":12735:12740  false */\n      0x00\n        /* \"temp.sol\":12671:12692  ut__withdraw_transfer */\n      tag_281\n        /* \"temp.sol\":12671:12741  ut__withdraw_transfer(vault_id,user_address,withdraw_id,request,false) */\n      jump\t// in\n    tag_461:\n        /* \"temp.sol\":12355:12746  {... */\n      pop\n        /* \"temp.sol\":12230:12746  function owner__withdraw_approve(string memory vault_id,address user_address,string memory withdraw_id,uint amount) external {... */\n      pop\n      pop\n      pop\n      pop\n      jump\t// out\n        /* \"temp.sol\":10661:11254  function site__withdraw_reject(string memory vault_id,address user_address,string memory withdraw_id) external {... */\n    tag_114:\n        /* \"temp.sol\":10778:10806  ut__assert_admin(msg.sender) */\n      tag_463\n        /* \"temp.sol\":10795:10805  msg.sender */\n      caller\n        /* \"temp.sol\":10778:10794  ut__assert_admin */\n      tag_134\n        /* \"temp.sol\":10778:10806  ut__assert_admin(msg.sender) */\n      jump\t// in\n    tag_463:\n        /* \"temp.sol\":10812:10842  WithdrawRequest memory request */\n      0x00\n        /* \"temp.sol\":10845:10896  ut__get_withdraw(vault_id,user_address,withdraw_id) */\n      tag_464\n        /* \"temp.sol\":10862:10870  vault_id */\n      dup5\n        /* \"temp.sol\":10871:10883  user_address */\n      dup5\n        /* \"temp.sol\":10884:10895  withdraw_id */\n      dup5\n        /* \"temp.sol\":10845:10861  ut__get_withdraw */\n      tag_305\n        /* \"temp.sol\":10845:10896  ut__get_withdraw(vault_id,user_address,withdraw_id) */\n      jump\t// in\n    tag_464:\n        /* \"temp.sol\":10812:10896  WithdrawRequest memory request = ut__get_withdraw(vault_id,user_address,withdraw_id) */\n      swap1\n      pop\n        /* \"temp.sol\":10935:10961  VaultRequestStatus.Pending */\n      0x01\n        /* \"temp.sol\":10917:10961  request.status == VaultRequestStatus.Pending */\n      0x05\n      dup2\n      gt\n      iszero\n      tag_465\n      jumpi\n      tag_466\n      tag_137\n      jump\t// in\n    tag_466:\n    tag_465:\n        /* \"temp.sol\":10917:10924  request */\n      dup2\n        /* \"temp.sol\":10917:10931  request.status */\n      0x20\n      add\n      mload\n        /* \"temp.sol\":10917:10961  request.status == VaultRequestStatus.Pending */\n      0x05\n      dup2\n      gt\n      iszero\n      tag_467\n      jumpi\n      tag_468\n      tag_137\n      jump\t// in\n    tag_468:\n    tag_467:\n      eq\n        /* \"temp.sol\":10902:10997  require(... */\n      tag_469\n      jumpi\n      mload(0x40)\n      0x08c379a000000000000000000000000000000000000000000000000000000000\n      dup2\n      mstore\n      0x04\n      add\n      tag_470\n      swap1\n      tag_312\n      jump\t// in\n    tag_470:\n      mload(0x40)\n      dup1\n      swap2\n      sub\n      swap1\n      revert\n    tag_469:\n        /* \"temp.sol\":11069:11100  VaultRequestStatus.RejectedSite */\n      0x03\n        /* \"temp.sol\":11003:11022  g__VaultWithdrawals */\n      0x05\n        /* \"temp.sol\":11023:11031  vault_id */\n      dup6\n        /* \"temp.sol\":11003:11032  g__VaultWithdrawals[vault_id] */\n      mload(0x40)\n      tag_471\n      swap2\n      swap1\n      tag_139\n      jump\t// in\n    tag_471:\n      swap1\n      dup2\n      mstore\n      0x20\n      add\n      mload(0x40)\n      dup1\n      swap2\n      sub\n      swap1\n      keccak256\n        /* \"temp.sol\":11003:11046  g__VaultWithdrawals[vault_id][user_address] */\n      0x00\n        /* \"temp.sol\":11033:11045  user_address */\n      dup6\n        /* \"temp.sol\":11003:11046  g__VaultWithdrawals[vault_id][user_address] */\n      0xffffffffffffffffffffffffffffffffffffffff\n      and\n      0xffffffffffffffffffffffffffffffffffffffff\n      and\n      dup2\n      mstore\n      0x20\n      add\n      swap1\n      dup2\n      mstore\n      0x20\n      add\n      0x00\n      keccak256\n        /* \"temp.sol\":11047:11058  withdraw_id */\n      dup4\n        /* \"temp.sol\":11003:11059  g__VaultWithdrawals[vault_id][user_address][withdraw_id] */\n      mload(0x40)\n      tag_472\n      swap2\n      swap1\n      tag_139\n      jump\t// in\n    tag_472:\n      swap1\n      dup2\n      mstore\n      0x20\n      add\n      mload(0x40)\n      dup1\n      swap2\n      sub\n      swap1\n      keccak256\n        /* \"temp.sol\":11003:11066  g__VaultWithdrawals[vault_id][user_address][withdraw_id].status */\n      0x01\n      add\n      0x00\n        /* \"temp.sol\":11003:11100  g__VaultWithdrawals[vault_id][user_address][withdraw_id].status = VaultRequestStatus.RejectedSite */\n      0x0100\n      exp\n      dup2\n      sload\n      dup2\n      0xff\n      mul\n      not\n      and\n      swap1\n      dup4\n      0x05\n      dup2\n      gt\n      iszero\n      tag_473\n      jumpi\n      tag_474\n      tag_137\n      jump\t// in\n    tag_474:\n    tag_473:\n      mul\n      or\n      swap1\n      sstore\n      pop\n        /* \"temp.sol\":11150:11157  request */\n      dup1\n        /* \"temp.sol\":11150:11164  request.amount */\n      0x00\n      add\n      mload\n        /* \"temp.sol\":11106:11120  g__VaultLookup */\n      0x03\n        /* \"temp.sol\":11121:11129  vault_id */\n      dup6\n        /* \"temp.sol\":11106:11130  g__VaultLookup[vault_id] */\n      mload(0x40)\n      tag_475\n      swap2\n      swap1\n      tag_139\n      jump\t// in\n    tag_475:\n      swap1\n      dup2\n      mstore\n      0x20\n      add\n      mload(0x40)\n      dup1\n      swap2\n      sub\n      swap1\n      keccak256\n        /* \"temp.sol\":11106:11146  g__VaultLookup[vault_id].total_requested */\n      0x04\n      add\n      0x00\n        /* \"temp.sol\":11106:11164  g__VaultLookup[vault_id].total_requested -= request.amount */\n      dup3\n      dup3\n      sload\n      tag_476\n      swap2\n      swap1\n      tag_230\n      jump\t// in\n    tag_476:\n      swap3\n      pop\n      pop\n      dup2\n      swap1\n      sstore\n      pop\n        /* \"temp.sol\":11175:11249  VaultEvent(\"withdraw_reject_site\",withdraw_id,user_address,request.amount) */\n      0x040768ee67403a1b2c45e2ee8e9c7cb4283d12bd31f8126de25122997535c1bb\n        /* \"temp.sol\":11209:11220  withdraw_id */\n      dup3\n        /* \"temp.sol\":11221:11233  user_address */\n      dup5\n        /* \"temp.sol\":11234:11241  request */\n      dup4\n        /* \"temp.sol\":11234:11248  request.amount */\n      0x00\n      add\n      mload\n        /* \"temp.sol\":11175:11249  VaultEvent(\"withdraw_reject_site\",withdraw_id,user_address,request.amount) */\n      mload(0x40)\n      tag_477\n      swap4\n      swap3\n      swap2\n      swap1\n      tag_478\n      jump\t// in\n    tag_477:\n      mload(0x40)\n      dup1\n      swap2\n      sub\n      swap1\n      log1\n        /* \"temp.sol\":10772:11254  {... */\n      pop\n        /* \"temp.sol\":10661:11254  function site__withdraw_reject(string memory vault_id,address user_address,string memory withdraw_id) external {... */\n      pop\n      pop\n      pop\n      jump\t// out\n        /* \"temp.sol\":6236:6707  function owner__account_open_confirm(string memory vault_id,address user_address) external {... */\n    tag_117:\n        /* \"temp.sol\":6333:6370  ut__assert_owner(vault_id,msg.sender) */\n      tag_480\n        /* \"temp.sol\":6350:6358  vault_id */\n      dup3\n        /* \"temp.sol\":6359:6369  msg.sender */\n      caller\n        /* \"temp.sol\":6333:6349  ut__assert_owner */\n      tag_173\n        /* \"temp.sol\":6333:6370  ut__assert_owner(vault_id,msg.sender) */\n      jump\t// in\n    tag_480:\n        /* \"temp.sol\":6376:6403  VaultAccount memory account */\n      0x00\n        /* \"temp.sol\":6406:6444  ut__get_account(vault_id,user_address) */\n      tag_481\n        /* \"temp.sol\":6422:6430  vault_id */\n      dup4\n        /* \"temp.sol\":6431:6443  user_address */\n      dup4\n        /* \"temp.sol\":6406:6421  ut__get_account */\n      tag_175\n        /* \"temp.sol\":6406:6444  ut__get_account(vault_id,user_address) */\n      jump\t// in\n    tag_481:\n        /* \"temp.sol\":6376:6444  VaultAccount memory account = ut__get_account(vault_id,user_address) */\n      swap1\n      pop\n        /* \"temp.sol\":6483:6511  VaultAccountStatus.Requested */\n      0x01\n        /* \"temp.sol\":6465:6511  account.status == VaultAccountStatus.Requested */\n      0x03\n      dup2\n      gt\n      iszero\n      tag_482\n      jumpi\n      tag_483\n      tag_137\n      jump\t// in\n    tag_483:\n    tag_482:\n        /* \"temp.sol\":6465:6472  account */\n      dup2\n        /* \"temp.sol\":6465:6479  account.status */\n      0x00\n      add\n      mload\n        /* \"temp.sol\":6465:6511  account.status == VaultAccountStatus.Requested */\n      0x03\n      dup2\n      gt\n      iszero\n      tag_484\n      jumpi\n      tag_485\n      tag_137\n      jump\t// in\n    tag_485:\n    tag_484:\n      eq\n        /* \"temp.sol\":6450:6552  require(... */\n      tag_486\n      jumpi\n      mload(0x40)\n      0x08c379a000000000000000000000000000000000000000000000000000000000\n      dup2\n      mstore\n      0x04\n      add\n      tag_487\n      swap1\n      tag_332\n      jump\t// in\n    tag_487:\n      mload(0x40)\n      dup1\n      swap2\n      sub\n      swap1\n      revert\n    tag_486:\n        /* \"temp.sol\":6608:6633  VaultAccountStatus.Active */\n      0x02\n        /* \"temp.sol\":6558:6574  g__VaultAccounts */\n      0x04\n        /* \"temp.sol\":6575:6583  vault_id */\n      dup5\n        /* \"temp.sol\":6558:6584  g__VaultAccounts[vault_id] */\n      mload(0x40)\n      tag_488\n      swap2\n      swap1\n      tag_139\n      jump\t// in\n    tag_488:\n      swap1\n      dup2\n      mstore\n      0x20\n      add\n      mload(0x40)\n      dup1\n      swap2\n      sub\n      swap1\n      keccak256\n        /* \"temp.sol\":6558:6598  g__VaultAccounts[vault_id][user_address] */\n      0x00\n        /* \"temp.sol\":6585:6597  user_address */\n      dup5\n        /* \"temp.sol\":6558:6598  g__VaultAccounts[vault_id][user_address] */\n      0xffffffffffffffffffffffffffffffffffffffff\n      and\n      0xffffffffffffffffffffffffffffffffffffffff\n      and\n      dup2\n      mstore\n      0x20\n      add\n      swap1\n      dup2\n      mstore\n      0x20\n      add\n      0x00\n      keccak256\n        /* \"temp.sol\":6558:6605  g__VaultAccounts[vault_id][user_address].status */\n      0x00\n      add\n      0x00\n        /* \"temp.sol\":6558:6633  g__VaultAccounts[vault_id][user_address].status = VaultAccountStatus.Active */\n      0x0100\n      exp\n      dup2\n      sload\n      dup2\n      0xff\n      mul\n      not\n      and\n      swap1\n      dup4\n      0x03\n      dup2\n      gt\n      iszero\n      tag_489\n      jumpi\n      tag_490\n      tag_137\n      jump\t// in\n    tag_490:\n    tag_489:\n      mul\n      or\n      swap1\n      sstore\n      pop\n        /* \"temp.sol\":6644:6702  VaultEvent(\"account_open_confirm\",vault_id,user_address,0) */\n      0x040768ee67403a1b2c45e2ee8e9c7cb4283d12bd31f8126de25122997535c1bb\n        /* \"temp.sol\":6678:6686  vault_id */\n      dup4\n        /* \"temp.sol\":6687:6699  user_address */\n      dup4\n        /* \"temp.sol\":6700:6701  0 */\n      0x00\n        /* \"temp.sol\":6644:6702  VaultEvent(\"account_open_confirm\",vault_id,user_address,0) */\n      mload(0x40)\n      tag_491\n      swap4\n      swap3\n      swap2\n      swap1\n      tag_492\n      jump\t// in\n    tag_491:\n      mload(0x40)\n      dup1\n      swap2\n      sub\n      swap1\n      log1\n        /* \"temp.sol\":6327:6707  {... */\n      pop\n        /* \"temp.sol\":6236:6707  function owner__account_open_confirm(string memory vault_id,address user_address) external {... */\n      pop\n      pop\n      jump\t// out\n        /* \"temp.sol\":669:710  uint16 public g__SiteArbitrationThreshold */\n    tag_119:\n      0x02\n      0x00\n      swap1\n      sload\n      swap1\n      0x0100\n      exp\n      swap1\n      div\n      0xffff\n      and\n      dup2\n      jump\t// out\n        /* \"temp.sol\":5344:5895  function site__account_close(string memory vault_id,address user_address) external {... */\n    tag_123:\n        /* \"temp.sol\":5433:5461  ut__assert_admin(msg.sender) */\n      tag_494\n        /* \"temp.sol\":5450:5460  msg.sender */\n      caller\n        /* \"temp.sol\":5433:5449  ut__assert_admin */\n      tag_134\n        /* \"temp.sol\":5433:5461  ut__assert_admin(msg.sender) */\n      jump\t// in\n    tag_494:\n        /* \"temp.sol\":5467:5494  VaultAccount memory account */\n      0x00\n        /* \"temp.sol\":5497:5535  ut__get_account(vault_id,user_address) */\n      tag_495\n        /* \"temp.sol\":5513:5521  vault_id */\n      dup4\n        /* \"temp.sol\":5522:5534  user_address */\n      dup4\n        /* \"temp.sol\":5497:5512  ut__get_account */\n      tag_175\n        /* \"temp.sol\":5497:5535  ut__get_account(vault_id,user_address) */\n      jump\t// in\n    tag_495:\n        /* \"temp.sol\":5467:5535  VaultAccount memory account = ut__get_account(vault_id,user_address) */\n      swap1\n      pop\n        /* \"temp.sol\":5575:5600  VaultAccountStatus.Active */\n      0x02\n        /* \"temp.sol\":5557:5600  account.status == VaultAccountStatus.Active */\n      0x03\n      dup2\n      gt\n      iszero\n      tag_496\n      jumpi\n      tag_497\n      tag_137\n      jump\t// in\n    tag_497:\n    tag_496:\n        /* \"temp.sol\":5557:5564  account */\n      dup2\n        /* \"temp.sol\":5557:5571  account.status */\n      0x00\n      add\n      mload\n        /* \"temp.sol\":5557:5600  account.status == VaultAccountStatus.Active */\n      0x03\n      dup2\n      gt\n      iszero\n      tag_498\n      jumpi\n      tag_499\n      tag_137\n      jump\t// in\n    tag_499:\n    tag_498:\n      eq\n        /* \"temp.sol\":5556:5653  (account.status == VaultAccountStatus.Active) || (account.status == VaultAccountStatus.Requested) */\n      dup1\n      tag_500\n      jumpi\n      pop\n        /* \"temp.sol\":5624:5652  VaultAccountStatus.Requested */\n      0x01\n        /* \"temp.sol\":5606:5652  account.status == VaultAccountStatus.Requested */\n      0x03\n      dup2\n      gt\n      iszero\n      tag_501\n      jumpi\n      tag_502\n      tag_137\n      jump\t// in\n    tag_502:\n    tag_501:\n        /* \"temp.sol\":5606:5613  account */\n      dup2\n        /* \"temp.sol\":5606:5620  account.status */\n      0x00\n      add\n      mload\n        /* \"temp.sol\":5606:5652  account.status == VaultAccountStatus.Requested */\n      0x03\n      dup2\n      gt\n      iszero\n      tag_503\n      jumpi\n      tag_504\n      tag_137\n      jump\t// in\n    tag_504:\n    tag_503:\n      eq\n        /* \"temp.sol\":5556:5653  (account.status == VaultAccountStatus.Active) || (account.status == VaultAccountStatus.Requested) */\n    tag_500:\n        /* \"temp.sol\":5541:5694  require(... */\n      tag_505\n      jumpi\n      mload(0x40)\n      0x08c379a000000000000000000000000000000000000000000000000000000000\n      dup2\n      mstore\n      0x04\n      add\n      tag_506\n      swap1\n      tag_332\n      jump\t// in\n    tag_506:\n      mload(0x40)\n      dup1\n      swap2\n      sub\n      swap1\n      revert\n    tag_505:\n        /* \"temp.sol\":5707:5723  g__VaultAccounts */\n      0x04\n        /* \"temp.sol\":5724:5732  vault_id */\n      dup4\n        /* \"temp.sol\":5707:5733  g__VaultAccounts[vault_id] */\n      mload(0x40)\n      tag_507\n      swap2\n      swap1\n      tag_139\n      jump\t// in\n    tag_507:\n      swap1\n      dup2\n      mstore\n      0x20\n      add\n      mload(0x40)\n      dup1\n      swap2\n      sub\n      swap1\n      keccak256\n        /* \"temp.sol\":5707:5747  g__VaultAccounts[vault_id][user_address] */\n      0x00\n        /* \"temp.sol\":5734:5746  user_address */\n      dup4\n        /* \"temp.sol\":5707:5747  g__VaultAccounts[vault_id][user_address] */\n      0xffffffffffffffffffffffffffffffffffffffff\n      and\n      0xffffffffffffffffffffffffffffffffffffffff\n      and\n      dup2\n      mstore\n      0x20\n      add\n      swap1\n      dup2\n      mstore\n      0x20\n      add\n      0x00\n      keccak256\n      0x00\n        /* \"temp.sol\":5700:5747  delete g__VaultAccounts[vault_id][user_address] */\n      dup1\n      dup3\n      add\n      exp(0x0100, 0x00)\n      dup2\n      sload\n      swap1\n      0xff\n      mul\n      not\n      and\n      swap1\n      sstore\n      0x00\n      dup3\n      add\n      exp(0x0100, 0x01)\n      dup2\n      sload\n      swap1\n      0xff\n      mul\n      not\n      and\n      swap1\n      sstore\n      0x01\n      dup3\n      add\n      0x00\n      tag_508\n      swap2\n      swap1\n      tag_509\n      jump\t// in\n    tag_508:\n      0x02\n      dup3\n      add\n      0x00\n      swap1\n      sstore\n      pop\n      pop\n        /* \"temp.sol\":5753:5773  uint16 total_players */\n      0x00\n        /* \"temp.sol\":5778:5792  g__VaultLookup */\n      0x03\n        /* \"temp.sol\":5793:5801  vault_id */\n      dup5\n        /* \"temp.sol\":5778:5802  g__VaultLookup[vault_id] */\n      mload(0x40)\n      tag_510\n      swap2\n      swap1\n      tag_139\n      jump\t// in\n    tag_510:\n      swap1\n      dup2\n      mstore\n      0x20\n      add\n      mload(0x40)\n      dup1\n      swap2\n      sub\n      swap1\n      keccak256\n        /* \"temp.sol\":5778:5816  g__VaultLookup[vault_id].total_players */\n      0x05\n      add\n      0x00\n        /* \"temp.sol\":5776:5816  --g__VaultLookup[vault_id].total_players */\n      dup2\n      dup2\n      swap1\n      sload\n      swap1\n      0x0100\n      exp\n      swap1\n      div\n      0xffff\n      and\n      tag_511\n      swap1\n      tag_256\n      jump\t// in\n    tag_511:\n      swap2\n      swap1\n      0x0100\n      exp\n      dup2\n      sload\n      dup2\n      0xffff\n      mul\n      not\n      and\n      swap1\n      dup4\n      0xffff\n      and\n      mul\n      or\n      swap1\n      sstore\n        /* \"temp.sol\":5753:5816  uint16 total_players = --g__VaultLookup[vault_id].total_players */\n      swap1\n      pop\n        /* \"temp.sol\":5827:5890  VaultEvent(\"account_close\",vault_id,user_address,total_players) */\n      0x040768ee67403a1b2c45e2ee8e9c7cb4283d12bd31f8126de25122997535c1bb\n        /* \"temp.sol\":5854:5862  vault_id */\n      dup5\n        /* \"temp.sol\":5863:5875  user_address */\n      dup5\n        /* \"temp.sol\":5876:5889  total_players */\n      dup4\n        /* \"temp.sol\":5827:5890  VaultEvent(\"account_close\",vault_id,user_address,total_players) */\n      mload(0x40)\n      tag_512\n      swap4\n      swap3\n      swap2\n      swap1\n      tag_513\n      jump\t// in\n    tag_512:\n      mload(0x40)\n      dup1\n      swap2\n      sub\n      swap1\n      log1\n        /* \"temp.sol\":5427:5895  {... */\n      pop\n      pop\n        /* \"temp.sol\":5344:5895  function site__account_close(string memory vault_id,address user_address) external {... */\n      pop\n      pop\n      jump\t// out\n        /* \"temp.sol\":616:662  mapping(address => bool) public g__SiteSupport */\n    tag_126:\n      mstore(0x20, 0x01)\n      dup1\n      0x00\n      mstore\n      keccak256(0x00, 0x40)\n      0x00\n      swap2\n      pop\n      sload\n      swap1\n      0x0100\n      exp\n      swap1\n      div\n      0xff\n      and\n      dup2\n      jump\t// out\n        /* \"temp.sol\":3595:3720  function site__remove_support(address user) external {... */\n    tag_131:\n        /* \"temp.sol\":3654:3682  ut__assert_admin(msg.sender) */\n      tag_515\n        /* \"temp.sol\":3671:3681  msg.sender */\n      caller\n        /* \"temp.sol\":3654:3670  ut__assert_admin */\n      tag_134\n        /* \"temp.sol\":3654:3682  ut__assert_admin(msg.sender) */\n      jump\t// in\n    tag_515:\n        /* \"temp.sol\":3695:3709  g__SiteSupport */\n      0x01\n        /* \"temp.sol\":3695:3715  g__SiteSupport[user] */\n      0x00\n        /* \"temp.sol\":3710:3714  user */\n      dup3\n        /* \"temp.sol\":3695:3715  g__SiteSupport[user] */\n      0xffffffffffffffffffffffffffffffffffffffff\n      and\n      0xffffffffffffffffffffffffffffffffffffffff\n      and\n      dup2\n      mstore\n      0x20\n      add\n      swap1\n      dup2\n      mstore\n      0x20\n      add\n      0x00\n      keccak256\n      0x00\n        /* \"temp.sol\":3688:3715  delete g__SiteSupport[user] */\n      0x0100\n      exp\n      dup2\n      sload\n      swap1\n      0xff\n      mul\n      not\n      and\n      swap1\n      sstore\n        /* \"temp.sol\":3595:3720  function site__remove_support(address user) external {... */\n      pop\n      jump\t// out\n        /* \"temp.sol\":1782:1968  function ut__assert_admin(address user_address) internal view {... */\n    tag_134:\n        /* \"temp.sol\":1882:1898  g__SiteAuthority */\n      0x00\n      dup1\n      sload\n      swap1\n      0x0100\n      exp\n      swap1\n      div\n      0xffffffffffffffffffffffffffffffffffffffff\n      and\n        /* \"temp.sol\":1866:1898  user_address == g__SiteAuthority */\n      0xffffffffffffffffffffffffffffffffffffffff\n      and\n        /* \"temp.sol\":1866:1878  user_address */\n      dup2\n        /* \"temp.sol\":1866:1898  user_address == g__SiteAuthority */\n      0xffffffffffffffffffffffffffffffffffffffff\n      and\n      eq\n        /* \"temp.sol\":1865:1931  (user_address == g__SiteAuthority) || g__SiteSupport[user_address] */\n      dup1\n      tag_517\n      jumpi\n      pop\n        /* \"temp.sol\":1903:1917  g__SiteSupport */\n      0x01\n        /* \"temp.sol\":1903:1931  g__SiteSupport[user_address] */\n      0x00\n        /* \"temp.sol\":1918:1930  user_address */\n      dup3\n        /* \"temp.sol\":1903:1931  g__SiteSupport[user_address] */\n      0xffffffffffffffffffffffffffffffffffffffff\n      and\n      0xffffffffffffffffffffffffffffffffffffffff\n      and\n      dup2\n      mstore\n      0x20\n      add\n      swap1\n      dup2\n      mstore\n      0x20\n      add\n      0x00\n      keccak256\n      0x00\n      swap1\n      sload\n      swap1\n      0x0100\n      exp\n      swap1\n      div\n      0xff\n      and\n        /* \"temp.sol\":1865:1931  (user_address == g__SiteAuthority) || g__SiteSupport[user_address] */\n    tag_517:\n        /* \"temp.sol\":1850:1963  require(... */\n      tag_518\n      jumpi\n      mload(0x40)\n      0x08c379a000000000000000000000000000000000000000000000000000000000\n      dup2\n      mstore\n      0x04\n      add\n      tag_519\n      swap1\n      tag_520\n      jump\t// in\n    tag_519:\n      mload(0x40)\n      dup1\n      swap2\n      sub\n      swap1\n      revert\n    tag_518:\n        /* \"temp.sol\":1782:1968  function ut__assert_admin(address user_address) internal view {... */\n      pop\n      jump\t// out\n        /* \"temp.sol\":1974:2280  function ut__assert_owner(string memory vault_id,address user_address) internal view {... */\n    tag_173:\n        /* \"temp.sol\":2114:2126  user_address */\n      dup1\n        /* \"temp.sol\":2080:2126  g__VaultLookup[vault_id].owner == user_address */\n      0xffffffffffffffffffffffffffffffffffffffff\n      and\n        /* \"temp.sol\":2080:2094  g__VaultLookup */\n      0x03\n        /* \"temp.sol\":2095:2103  vault_id */\n      dup4\n        /* \"temp.sol\":2080:2104  g__VaultLookup[vault_id] */\n      mload(0x40)\n      tag_522\n      swap2\n      swap1\n      tag_139\n      jump\t// in\n    tag_522:\n      swap1\n      dup2\n      mstore\n      0x20\n      add\n      mload(0x40)\n      dup1\n      swap2\n      sub\n      swap1\n      keccak256\n        /* \"temp.sol\":2080:2110  g__VaultLookup[vault_id].owner */\n      0x02\n      add\n      0x00\n      swap1\n      sload\n      swap1\n      0x0100\n      exp\n      swap1\n      div\n      0xffffffffffffffffffffffffffffffffffffffff\n      and\n        /* \"temp.sol\":2080:2126  g__VaultLookup[vault_id].owner == user_address */\n      0xffffffffffffffffffffffffffffffffffffffff\n      and\n      eq\n        /* \"temp.sol\":2065:2159  require(... */\n      tag_523\n      jumpi\n      mload(0x40)\n      0x08c379a000000000000000000000000000000000000000000000000000000000\n      dup2\n      mstore\n      0x04\n      add\n      tag_524\n      swap1\n      tag_525\n      jump\t// in\n    tag_524:\n      mload(0x40)\n      dup1\n      swap2\n      sub\n      swap1\n      revert\n    tag_523:\n        /* \"temp.sol\":2215:2238  VaultStatus.Arbitration */\n      0x03\n        /* \"temp.sol\":2180:2238  g__VaultLookup[vault_id].status != VaultStatus.Arbitration */\n      dup1\n      dup2\n      gt\n      iszero\n      tag_526\n      jumpi\n      tag_527\n      tag_137\n      jump\t// in\n    tag_527:\n    tag_526:\n        /* \"temp.sol\":2180:2194  g__VaultLookup */\n      0x03\n        /* \"temp.sol\":2195:2203  vault_id */\n      dup4\n        /* \"temp.sol\":2180:2204  g__VaultLookup[vault_id] */\n      mload(0x40)\n      tag_528\n      swap2\n      swap1\n      tag_139\n      jump\t// in\n    tag_528:\n      swap1\n      dup2\n      mstore\n      0x20\n      add\n      mload(0x40)\n      dup1\n      swap2\n      sub\n      swap1\n      keccak256\n        /* \"temp.sol\":2180:2211  g__VaultLookup[vault_id].status */\n      0x00\n      add\n      0x00\n      swap1\n      sload\n      swap1\n      0x0100\n      exp\n      swap1\n      div\n      0xff\n      and\n        /* \"temp.sol\":2180:2238  g__VaultLookup[vault_id].status != VaultStatus.Arbitration */\n      0x03\n      dup2\n      gt\n      iszero\n      tag_529\n      jumpi\n      tag_530\n      tag_137\n      jump\t// in\n    tag_530:\n    tag_529:\n      sub\n        /* \"temp.sol\":2165:2275  require(... */\n      tag_531\n      jumpi\n      mload(0x40)\n      0x08c379a000000000000000000000000000000000000000000000000000000000\n      dup2\n      mstore\n      0x04\n      add\n      tag_532\n      swap1\n      tag_248\n      jump\t// in\n    tag_532:\n      mload(0x40)\n      dup1\n      swap2\n      sub\n      swap1\n      revert\n    tag_531:\n        /* \"temp.sol\":1974:2280  function ut__assert_owner(string memory vault_id,address user_address) internal view {... */\n      pop\n      pop\n      jump\t// out\n        /* \"temp.sol\":2564:2876  function ut__get_account(string memory vault_id,address user_address) internal view returns(VaultAccount memory) {... */\n    tag_175:\n        /* \"temp.sol\":2656:2675  VaultAccount memory */\n      tag_533\n      tag_534\n      jump\t// in\n    tag_533:\n        /* \"temp.sol\":2683:2710  VaultAccount memory account */\n      0x00\n        /* \"temp.sol\":2713:2729  g__VaultAccounts */\n      0x04\n        /* \"temp.sol\":2730:2738  vault_id */\n      dup5\n        /* \"temp.sol\":2713:2739  g__VaultAccounts[vault_id] */\n      mload(0x40)\n      tag_536\n      swap2\n      swap1\n      tag_139\n      jump\t// in\n    tag_536:\n      swap1\n      dup2\n      mstore\n      0x20\n      add\n      mload(0x40)\n      dup1\n      swap2\n      sub\n      swap1\n      keccak256\n        /* \"temp.sol\":2713:2753  g__VaultAccounts[vault_id][user_address] */\n      0x00\n        /* \"temp.sol\":2740:2752  user_address */\n      dup5\n        /* \"temp.sol\":2713:2753  g__VaultAccounts[vault_id][user_address] */\n      0xffffffffffffffffffffffffffffffffffffffff\n      and\n      0xffffffffffffffffffffffffffffffffffffffff\n      and\n      dup2\n      mstore\n      0x20\n      add\n      swap1\n      dup2\n      mstore\n      0x20\n      add\n      0x00\n      keccak256\n        /* \"temp.sol\":2683:2753  VaultAccount memory account = g__VaultAccounts[vault_id][user_address] */\n      mload(0x40)\n      dup1\n      0x80\n      add\n      0x40\n      mstore\n      swap1\n      dup2\n      0x00\n      dup3\n      add\n      0x00\n      swap1\n      sload\n      swap1\n      0x0100\n      exp\n      swap1\n      div\n      0xff\n      and\n      0x03\n      dup2\n      gt\n      iszero\n      tag_537\n      jumpi\n      tag_538\n      tag_137\n      jump\t// in\n    tag_538:\n    tag_537:\n      0x03\n      dup2\n      gt\n      iszero\n      tag_539\n      jumpi\n      tag_540\n      tag_137\n      jump\t// in\n    tag_540:\n    tag_539:\n      dup2\n      mstore\n      0x20\n      add\n      0x00\n      dup3\n      add\n      0x01\n      swap1\n      sload\n      swap1\n      0x0100\n      exp\n      swap1\n      div\n      0xff\n      and\n      iszero\n      iszero\n      iszero\n      iszero\n      dup2\n      mstore\n      0x20\n      add\n      0x01\n      dup3\n      add\n      dup1\n      sload\n      tag_541\n      swap1\n      tag_204\n      jump\t// in\n    tag_541:\n      dup1\n      0x1f\n      add\n      0x20\n      dup1\n      swap2\n      div\n      mul\n      0x20\n      add\n      mload(0x40)\n      swap1\n      dup2\n      add\n      0x40\n      mstore\n      dup1\n      swap3\n      swap2\n      swap1\n      dup2\n      dup2\n      mstore\n      0x20\n      add\n      dup3\n      dup1\n      sload\n      tag_542\n      swap1\n      tag_204\n      jump\t// in\n    tag_542:\n      dup1\n      iszero\n      tag_543\n      jumpi\n      dup1\n      0x1f\n      lt\n      tag_544\n      jumpi\n      0x0100\n      dup1\n      dup4\n      sload\n      div\n      mul\n      dup4\n      mstore\n      swap2\n      0x20\n      add\n      swap2\n      jump(tag_543)\n    tag_544:\n      dup3\n      add\n      swap2\n      swap1\n      0x00\n      mstore\n      keccak256(0x00, 0x20)\n      swap1\n    tag_545:\n      dup2\n      sload\n      dup2\n      mstore\n      swap1\n      0x01\n      add\n      swap1\n      0x20\n      add\n      dup1\n      dup4\n      gt\n      tag_545\n      jumpi\n      dup3\n      swap1\n      sub\n      0x1f\n      and\n      dup3\n      add\n      swap2\n    tag_543:\n      pop\n      pop\n      pop\n      pop\n      pop\n      dup2\n      mstore\n      0x20\n      add\n      0x02\n      dup3\n      add\n      sload\n      dup2\n      mstore\n      pop\n      pop\n      swap1\n      pop\n        /* \"temp.sol\":2792:2820  VaultAccountStatus.Undefined */\n      0x00\n        /* \"temp.sol\":2774:2820  account.status != VaultAccountStatus.Undefined */\n      0x03\n      dup2\n      gt\n      iszero\n      tag_546\n      jumpi\n      tag_547\n      tag_137\n      jump\t// in\n    tag_547:\n    tag_546:\n        /* \"temp.sol\":2774:2781  account */\n      dup2\n        /* \"temp.sol\":2774:2788  account.status */\n      0x00\n      add\n      mload\n        /* \"temp.sol\":2774:2820  account.status != VaultAccountStatus.Undefined */\n      0x03\n      dup2\n      gt\n      iszero\n      tag_548\n      jumpi\n      tag_549\n      tag_137\n      jump\t// in\n    tag_549:\n    tag_548:\n      sub\n        /* \"temp.sol\":2759:2851  require(... */\n      tag_550\n      jumpi\n      mload(0x40)\n      0x08c379a000000000000000000000000000000000000000000000000000000000\n      dup2\n      mstore\n      0x04\n      add\n      tag_551\n      swap1\n      tag_552\n      jump\t// in\n    tag_551:\n      mload(0x40)\n      dup1\n      swap2\n      sub\n      swap1\n      revert\n    tag_550:\n        /* \"temp.sol\":2864:2871  account */\n      dup1\n        /* \"temp.sol\":2857:2871  return account */\n      swap2\n      pop\n      pop\n        /* \"temp.sol\":2564:2876  function ut__get_account(string memory vault_id,address user_address) internal view returns(VaultAccount memory) {... */\n      swap3\n      swap2\n      pop\n      pop\n      jump\t// out\n        /* \"temp.sol\":11260:12224  function ut__withdraw_transfer(string memory vault_id,address user_address,string memory withdraw_id,WithdrawRequest memory request,bool arbitrated) internal {... */\n    tag_281:\n        /* \"temp.sol\":11424:11438  uint vault_tax */\n      0x00\n        /* \"temp.sol\":11503:11508  10000 */\n      0x2710\n        /* \"temp.sol\":11460:11474  g__VaultLookup */\n      0x03\n        /* \"temp.sol\":11475:11483  vault_id */\n      dup8\n        /* \"temp.sol\":11460:11484  g__VaultLookup[vault_id] */\n      mload(0x40)\n      tag_554\n      swap2\n      swap1\n      tag_139\n      jump\t// in\n    tag_554:\n      swap1\n      dup2\n      mstore\n      0x20\n      add\n      mload(0x40)\n      dup1\n      swap2\n      sub\n      swap1\n      keccak256\n        /* \"temp.sol\":11460:11499  g__VaultLookup[vault_id].vault_tax_rate */\n      0x05\n      add\n      0x04\n      swap1\n      sload\n      swap1\n      0x0100\n      exp\n      swap1\n      div\n      0xffff\n      and\n        /* \"temp.sol\":11443:11499  request.amount * g__VaultLookup[vault_id].vault_tax_rate */\n      0xffff\n      and\n        /* \"temp.sol\":11443:11450  request */\n      dup5\n        /* \"temp.sol\":11443:11457  request.amount */\n      0x00\n      add\n      mload\n        /* \"temp.sol\":11443:11499  request.amount * g__VaultLookup[vault_id].vault_tax_rate */\n      tag_555\n      swap2\n      swap1\n      tag_556\n      jump\t// in\n    tag_555:\n        /* \"temp.sol\":11442:11508  (request.amount * g__VaultLookup[vault_id].vault_tax_rate) / 10000 */\n      tag_557\n      swap2\n      swap1\n      tag_558\n      jump\t// in\n    tag_557:\n        /* \"temp.sol\":11424:11509  uint vault_tax = ((request.amount * g__VaultLookup[vault_id].vault_tax_rate) / 10000) */\n      swap1\n      pop\n        /* \"temp.sol\":11530:11544  g__VaultLookup */\n      0x03\n        /* \"temp.sol\":11545:11553  vault_id */\n      dup7\n        /* \"temp.sol\":11530:11554  g__VaultLookup[vault_id] */\n      mload(0x40)\n      tag_559\n      swap2\n      swap1\n      tag_139\n      jump\t// in\n    tag_559:\n      swap1\n      dup2\n      mstore\n      0x20\n      add\n      mload(0x40)\n      dup1\n      swap2\n      sub\n      swap1\n      keccak256\n        /* \"temp.sol\":11530:11568  g__VaultLookup[vault_id].vault_tax_max */\n      0x06\n      add\n      sload\n        /* \"temp.sol\":11518:11527  vault_tax */\n      dup2\n        /* \"temp.sol\":11518:11568  vault_tax > g__VaultLookup[vault_id].vault_tax_max */\n      gt\n        /* \"temp.sol\":11515:11634  if(vault_tax > g__VaultLookup[vault_id].vault_tax_max){... */\n      iszero\n      tag_560\n      jumpi\n        /* \"temp.sol\":11589:11603  g__VaultLookup */\n      0x03\n        /* \"temp.sol\":11604:11612  vault_id */\n      dup7\n        /* \"temp.sol\":11589:11613  g__VaultLookup[vault_id] */\n      mload(0x40)\n      tag_561\n      swap2\n      swap1\n      tag_139\n      jump\t// in\n    tag_561:\n      swap1\n      dup2\n      mstore\n      0x20\n      add\n      mload(0x40)\n      dup1\n      swap2\n      sub\n      swap1\n      keccak256\n        /* \"temp.sol\":11589:11627  g__VaultLookup[vault_id].vault_tax_max */\n      0x06\n      add\n      sload\n        /* \"temp.sol\":11577:11627  vault_tax = g__VaultLookup[vault_id].vault_tax_max */\n      swap1\n      pop\n        /* \"temp.sol\":11515:11634  if(vault_tax > g__VaultLookup[vault_id].vault_tax_max){... */\n    tag_560:\n        /* \"temp.sol\":11639:11651  IERC20 erc20 */\n      0x00\n        /* \"temp.sol\":11661:11675  g__VaultLookup */\n      0x03\n        /* \"temp.sol\":11676:11684  vault_id */\n      dup8\n        /* \"temp.sol\":11661:11685  g__VaultLookup[vault_id] */\n      mload(0x40)\n      tag_562\n      swap2\n      swap1\n      tag_139\n      jump\t// in\n    tag_562:\n      swap1\n      dup2\n      mstore\n      0x20\n      add\n      mload(0x40)\n      dup1\n      swap2\n      sub\n      swap1\n      keccak256\n        /* \"temp.sol\":11661:11697  g__VaultLookup[vault_id].vault_erc20 */\n      0x09\n      add\n      0x00\n      swap1\n      sload\n      swap1\n      0x0100\n      exp\n      swap1\n      div\n      0xffffffffffffffffffffffffffffffffffffffff\n      and\n        /* \"temp.sol\":11639:11698  IERC20 erc20 = IERC20(g__VaultLookup[vault_id].vault_erc20) */\n      swap1\n      pop\n        /* \"temp.sol\":11707:11717  arbitrated */\n      dup3\n        /* \"temp.sol\":11704:11855  if(arbitrated){... */\n      iszero\n      tag_563\n      jumpi\n        /* \"temp.sol\":11726:11731  erc20 */\n      dup1\n        /* \"temp.sol\":11726:11740  erc20.transfer */\n      0xffffffffffffffffffffffffffffffffffffffff\n      and\n      0xa9059cbb\n        /* \"temp.sol\":11741:11757  g__SiteAuthority */\n      0x00\n      dup1\n      sload\n      swap1\n      0x0100\n      exp\n      swap1\n      div\n      0xffffffffffffffffffffffffffffffffffffffff\n      and\n        /* \"temp.sol\":11758:11767  vault_tax */\n      dup5\n        /* \"temp.sol\":11726:11768  erc20.transfer(g__SiteAuthority,vault_tax) */\n      mload(0x40)\n      dup4\n      0xffffffff\n      and\n      0xe0\n      shl\n      dup2\n      mstore\n      0x04\n      add\n      tag_564\n      swap3\n      swap2\n      swap1\n      tag_565\n      jump\t// in\n    tag_564:\n      0x20\n      mload(0x40)\n      dup1\n      dup4\n      sub\n      dup2\n      0x00\n      dup8\n      gas\n      call\n      iszero\n      dup1\n      iszero\n      tag_567\n      jumpi\n      returndatasize\n      0x00\n      dup1\n      returndatacopy\n      revert(0x00, returndatasize)\n    tag_567:\n      pop\n      pop\n      pop\n      pop\n      mload(0x40)\n      returndatasize\n      not(0x1f)\n      0x1f\n      dup3\n      add\n      and\n      dup3\n      add\n      dup1\n      0x40\n      mstore\n      pop\n      dup2\n      add\n      swap1\n      tag_568\n      swap2\n      swap1\n      tag_569\n      jump\t// in\n    tag_568:\n      pop\n        /* \"temp.sol\":11704:11855  if(arbitrated){... */\n      jump(tag_570)\n    tag_563:\n        /* \"temp.sol\":11792:11797  erc20 */\n      dup1\n        /* \"temp.sol\":11792:11806  erc20.transfer */\n      0xffffffffffffffffffffffffffffffffffffffff\n      and\n      0xa9059cbb\n        /* \"temp.sol\":11807:11821  g__VaultLookup */\n      0x03\n        /* \"temp.sol\":11822:11830  vault_id */\n      dup10\n        /* \"temp.sol\":11807:11831  g__VaultLookup[vault_id] */\n      mload(0x40)\n      tag_571\n      swap2\n      swap1\n      tag_139\n      jump\t// in\n    tag_571:\n      swap1\n      dup2\n      mstore\n      0x20\n      add\n      mload(0x40)\n      dup1\n      swap2\n      sub\n      swap1\n      keccak256\n        /* \"temp.sol\":11807:11837  g__VaultLookup[vault_id].owner */\n      0x02\n      add\n      0x00\n      swap1\n      sload\n      swap1\n      0x0100\n      exp\n      swap1\n      div\n      0xffffffffffffffffffffffffffffffffffffffff\n      and\n        /* \"temp.sol\":11838:11847  vault_tax */\n      dup5\n        /* \"temp.sol\":11792:11848  erc20.transfer(g__VaultLookup[vault_id].owner,vault_tax) */\n      mload(0x40)\n      dup4\n      0xffffffff\n      and\n      0xe0\n      shl\n      dup2\n      mstore\n      0x04\n      add\n      tag_572\n      swap3\n      swap2\n      swap1\n      tag_565\n      jump\t// in\n    tag_572:\n      0x20\n      mload(0x40)\n      dup1\n      dup4\n      sub\n      dup2\n      0x00\n      dup8\n      gas\n      call\n      iszero\n      dup1\n      iszero\n      tag_574\n      jumpi\n      returndatasize\n      0x00\n      dup1\n      returndatacopy\n      revert(0x00, returndatasize)\n    tag_574:\n      pop\n      pop\n      pop\n      pop\n      mload(0x40)\n      returndatasize\n      not(0x1f)\n      0x1f\n      dup3\n      add\n      and\n      dup3\n      add\n      dup1\n      0x40\n      mstore\n      pop\n      dup2\n      add\n      swap1\n      tag_575\n      swap2\n      swap1\n      tag_569\n      jump\t// in\n    tag_575:\n      pop\n        /* \"temp.sol\":11704:11855  if(arbitrated){... */\n    tag_570:\n        /* \"temp.sol\":11860:11865  erc20 */\n      dup1\n        /* \"temp.sol\":11860:11874  erc20.transfer */\n      0xffffffffffffffffffffffffffffffffffffffff\n      and\n      0xa9059cbb\n        /* \"temp.sol\":11875:11887  user_address */\n      dup8\n        /* \"temp.sol\":11905:11914  vault_tax */\n      dup5\n        /* \"temp.sol\":11888:11895  request */\n      dup8\n        /* \"temp.sol\":11888:11902  request.amount */\n      0x00\n      add\n      mload\n        /* \"temp.sol\":11888:11914  request.amount - vault_tax */\n      tag_576\n      swap2\n      swap1\n      tag_230\n      jump\t// in\n    tag_576:\n        /* \"temp.sol\":11860:11915  erc20.transfer(user_address,request.amount - vault_tax) */\n      mload(0x40)\n      dup4\n      0xffffffff\n      and\n      0xe0\n      shl\n      dup2\n      mstore\n      0x04\n      add\n      tag_577\n      swap3\n      swap2\n      swap1\n      tag_565\n      jump\t// in\n    tag_577:\n      0x20\n      mload(0x40)\n      dup1\n      dup4\n      sub\n      dup2\n      0x00\n      dup8\n      gas\n      call\n      iszero\n      dup1\n      iszero\n      tag_579\n      jumpi\n      returndatasize\n      0x00\n      dup1\n      returndatacopy\n      revert(0x00, returndatasize)\n    tag_579:\n      pop\n      pop\n      pop\n      pop\n      mload(0x40)\n      returndatasize\n      not(0x1f)\n      0x1f\n      dup3\n      add\n      and\n      dup3\n      add\n      dup1\n      0x40\n      mstore\n      pop\n      dup2\n      add\n      swap1\n      tag_580\n      swap2\n      swap1\n      tag_569\n      jump\t// in\n    tag_580:\n      pop\n        /* \"temp.sol\":11987:12014  VaultRequestStatus.Approved */\n      0x05\n        /* \"temp.sol\":11921:11940  g__VaultWithdrawals */\n      dup1\n        /* \"temp.sol\":11941:11949  vault_id */\n      dup9\n        /* \"temp.sol\":11921:11950  g__VaultWithdrawals[vault_id] */\n      mload(0x40)\n      tag_581\n      swap2\n      swap1\n      tag_139\n      jump\t// in\n    tag_581:\n      swap1\n      dup2\n      mstore\n      0x20\n      add\n      mload(0x40)\n      dup1\n      swap2\n      sub\n      swap1\n      keccak256\n        /* \"temp.sol\":11921:11964  g__VaultWithdrawals[vault_id][user_address] */\n      0x00\n        /* \"temp.sol\":11951:11963  user_address */\n      dup9\n        /* \"temp.sol\":11921:11964  g__VaultWithdrawals[vault_id][user_address] */\n      0xffffffffffffffffffffffffffffffffffffffff\n      and\n      0xffffffffffffffffffffffffffffffffffffffff\n      and\n      dup2\n      mstore\n      0x20\n      add\n      swap1\n      dup2\n      mstore\n      0x20\n      add\n      0x00\n      keccak256\n        /* \"temp.sol\":11965:11976  withdraw_id */\n      dup7\n        /* \"temp.sol\":11921:11977  g__VaultWithdrawals[vault_id][user_address][withdraw_id] */\n      mload(0x40)\n      tag_582\n      swap2\n      swap1\n      tag_139\n      jump\t// in\n    tag_582:\n      swap1\n      dup2\n      mstore\n      0x20\n      add\n      mload(0x40)\n      dup1\n      swap2\n      sub\n      swap1\n      keccak256\n        /* \"temp.sol\":11921:11984  g__VaultWithdrawals[vault_id][user_address][withdraw_id].status */\n      0x01\n      add\n      0x00\n        /* \"temp.sol\":11921:12014  g__VaultWithdrawals[vault_id][user_address][withdraw_id].status = VaultRequestStatus.Approved */\n      0x0100\n      exp\n      dup2\n      sload\n      dup2\n      0xff\n      mul\n      not\n      and\n      swap1\n      dup4\n      0x05\n      dup2\n      gt\n      iszero\n      tag_583\n      jumpi\n      tag_584\n      tag_137\n      jump\t// in\n    tag_584:\n    tag_583:\n      mul\n      or\n      swap1\n      sstore\n      pop\n        /* \"temp.sol\":12059:12066  request */\n      dup4\n        /* \"temp.sol\":12059:12073  request.amount */\n      0x00\n      add\n      mload\n        /* \"temp.sol\":12020:12034  g__VaultLookup */\n      0x03\n        /* \"temp.sol\":12035:12043  vault_id */\n      dup9\n        /* \"temp.sol\":12020:12044  g__VaultLookup[vault_id] */\n      mload(0x40)\n      tag_585\n      swap2\n      swap1\n      tag_139\n      jump\t// in\n    tag_585:\n      swap1\n      dup2\n      mstore\n      0x20\n      add\n      mload(0x40)\n      dup1\n      swap2\n      sub\n      swap1\n      keccak256\n        /* \"temp.sol\":12020:12055  g__VaultLookup[vault_id].total_pool */\n      0x03\n      add\n      0x00\n        /* \"temp.sol\":12020:12073  g__VaultLookup[vault_id].total_pool -= request.amount */\n      dup3\n      dup3\n      sload\n      tag_586\n      swap2\n      swap1\n      tag_230\n      jump\t// in\n    tag_586:\n      swap3\n      pop\n      pop\n      dup2\n      swap1\n      sstore\n      pop\n        /* \"temp.sol\":12123:12130  request */\n      dup4\n        /* \"temp.sol\":12123:12137  request.amount */\n      0x00\n      add\n      mload\n        /* \"temp.sol\":12079:12093  g__VaultLookup */\n      0x03\n        /* \"temp.sol\":12094:12102  vault_id */\n      dup9\n        /* \"temp.sol\":12079:12103  g__VaultLookup[vault_id] */\n      mload(0x40)\n      tag_587\n      swap2\n      swap1\n      tag_139\n      jump\t// in\n    tag_587:\n      swap1\n      dup2\n      mstore\n      0x20\n      add\n      mload(0x40)\n      dup1\n      swap2\n      sub\n      swap1\n      keccak256\n        /* \"temp.sol\":12079:12119  g__VaultLookup[vault_id].total_requested */\n      0x04\n      add\n      0x00\n        /* \"temp.sol\":12079:12137  g__VaultLookup[vault_id].total_requested -= request.amount */\n      dup3\n      dup3\n      sload\n      tag_588\n      swap2\n      swap1\n      tag_230\n      jump\t// in\n    tag_588:\n      swap3\n      pop\n      pop\n      dup2\n      swap1\n      sstore\n      pop\n        /* \"temp.sol\":12148:12219  VaultEvent(\"withdraw_transfer\",withdraw_id,user_address,request.amount) */\n      0x040768ee67403a1b2c45e2ee8e9c7cb4283d12bd31f8126de25122997535c1bb\n        /* \"temp.sol\":12179:12190  withdraw_id */\n      dup6\n        /* \"temp.sol\":12191:12203  user_address */\n      dup8\n        /* \"temp.sol\":12204:12211  request */\n      dup7\n        /* \"temp.sol\":12204:12218  request.amount */\n      0x00\n      add\n      mload\n        /* \"temp.sol\":12148:12219  VaultEvent(\"withdraw_transfer\",withdraw_id,user_address,request.amount) */\n      mload(0x40)\n      tag_589\n      swap4\n      swap3\n      swap2\n      swap1\n      tag_590\n      jump\t// in\n    tag_589:\n      mload(0x40)\n      dup1\n      swap2\n      sub\n      swap1\n      log1\n        /* \"temp.sol\":11418:12224  {... */\n      pop\n      pop\n        /* \"temp.sol\":11260:12224  function ut__withdraw_transfer(string memory vault_id,address user_address,string memory withdraw_id,WithdrawRequest memory request,bool arbitrated) internal {... */\n      pop\n      pop\n      pop\n      pop\n      pop\n      jump\t// out\n        /* \"temp.sol\":2882:3246  function ut__get_withdraw(string memory vault_id,address user_address,string memory withdraw_id) internal view returns(WithdrawRequest memory) {... */\n    tag_305:\n        /* \"temp.sol\":3001:3023  WithdrawRequest memory */\n      tag_591\n      tag_592\n      jump\t// in\n    tag_591:\n        /* \"temp.sol\":3031:3061  WithdrawRequest memory request */\n      0x00\n        /* \"temp.sol\":3064:3083  g__VaultWithdrawals */\n      0x05\n        /* \"temp.sol\":3084:3092  vault_id */\n      dup6\n        /* \"temp.sol\":3064:3093  g__VaultWithdrawals[vault_id] */\n      mload(0x40)\n      tag_594\n      swap2\n      swap1\n      tag_139\n      jump\t// in\n    tag_594:\n      swap1\n      dup2\n      mstore\n      0x20\n      add\n      mload(0x40)\n      dup1\n      swap2\n      sub\n      swap1\n      keccak256\n        /* \"temp.sol\":3064:3107  g__VaultWithdrawals[vault_id][user_address] */\n      0x00\n        /* \"temp.sol\":3094:3106  user_address */\n      dup6\n        /* \"temp.sol\":3064:3107  g__VaultWithdrawals[vault_id][user_address] */\n      0xffffffffffffffffffffffffffffffffffffffff\n      and\n      0xffffffffffffffffffffffffffffffffffffffff\n      and\n      dup2\n      mstore\n      0x20\n      add\n      swap1\n      dup2\n      mstore\n      0x20\n      add\n      0x00\n      keccak256\n        /* \"temp.sol\":3108:3119  withdraw_id */\n      dup4\n        /* \"temp.sol\":3064:3120  g__VaultWithdrawals[vault_id][user_address][withdraw_id] */\n      mload(0x40)\n      tag_595\n      swap2\n      swap1\n      tag_139\n      jump\t// in\n    tag_595:\n      swap1\n      dup2\n      mstore\n      0x20\n      add\n      mload(0x40)\n      dup1\n      swap2\n      sub\n      swap1\n      keccak256\n        /* \"temp.sol\":3031:3120  WithdrawRequest memory request = g__VaultWithdrawals[vault_id][user_address][withdraw_id] */\n      mload(0x40)\n      dup1\n      0x40\n      add\n      0x40\n      mstore\n      swap1\n      dup2\n      0x00\n      dup3\n      add\n      sload\n      dup2\n      mstore\n      0x20\n      add\n      0x01\n      dup3\n      add\n      0x00\n      swap1\n      sload\n      swap1\n      0x0100\n      exp\n      swap1\n      div\n      0xff\n      and\n      0x05\n      dup2\n      gt\n      iszero\n      tag_596\n      jumpi\n      tag_597\n      tag_137\n      jump\t// in\n    tag_597:\n    tag_596:\n      0x05\n      dup2\n      gt\n      iszero\n      tag_598\n      jumpi\n      tag_599\n      tag_137\n      jump\t// in\n    tag_599:\n    tag_598:\n      dup2\n      mstore\n      pop\n      pop\n      swap1\n      pop\n        /* \"temp.sol\":3159:3187  VaultRequestStatus.Undefined */\n      0x00\n        /* \"temp.sol\":3141:3187  request.status != VaultRequestStatus.Undefined */\n      0x05\n      dup2\n      gt\n      iszero\n      tag_600\n      jumpi\n      tag_601\n      tag_137\n      jump\t// in\n    tag_601:\n    tag_600:\n        /* \"temp.sol\":3141:3148  request */\n      dup2\n        /* \"temp.sol\":3141:3155  request.status */\n      0x20\n      add\n      mload\n        /* \"temp.sol\":3141:3187  request.status != VaultRequestStatus.Undefined */\n      0x05\n      dup2\n      gt\n      iszero\n      tag_602\n      jumpi\n      tag_603\n      tag_137\n      jump\t// in\n    tag_603:\n    tag_602:\n      sub\n        /* \"temp.sol\":3126:3221  require(... */\n      tag_604\n      jumpi\n      mload(0x40)\n      0x08c379a000000000000000000000000000000000000000000000000000000000\n      dup2\n      mstore\n      0x04\n      add\n      tag_605\n      swap1\n      tag_606\n      jump\t// in\n    tag_605:\n      mload(0x40)\n      dup1\n      swap2\n      sub\n      swap1\n      revert\n    tag_604:\n        /* \"temp.sol\":3234:3241  request */\n      dup1\n        /* \"temp.sol\":3227:3241  return request */\n      swap2\n      pop\n      pop\n        /* \"temp.sol\":2882:3246  function ut__get_withdraw(string memory vault_id,address user_address,string memory withdraw_id) internal view returns(WithdrawRequest memory) {... */\n      swap4\n      swap3\n      pop\n      pop\n      pop\n      jump\t// out\n        /* \"temp.sol\":2286:2558  function ut__assert_management(string memory vault_id,address user_address) internal view {... */\n    tag_324:\n        /* \"temp.sol\":2432:2444  user_address */\n      dup1\n        /* \"temp.sol\":2398:2444  g__VaultLookup[vault_id].owner == user_address */\n      0xffffffffffffffffffffffffffffffffffffffff\n      and\n        /* \"temp.sol\":2398:2412  g__VaultLookup */\n      0x03\n        /* \"temp.sol\":2413:2421  vault_id */\n      dup4\n        /* \"temp.sol\":2398:2422  g__VaultLookup[vault_id] */\n      mload(0x40)\n      tag_608\n      swap2\n      swap1\n      tag_139\n      jump\t// in\n    tag_608:\n      swap1\n      dup2\n      mstore\n      0x20\n      add\n      mload(0x40)\n      dup1\n      swap2\n      sub\n      swap1\n      keccak256\n        /* \"temp.sol\":2398:2428  g__VaultLookup[vault_id].owner */\n      0x02\n      add\n      0x00\n      swap1\n      sload\n      swap1\n      0x0100\n      exp\n      swap1\n      div\n      0xffffffffffffffffffffffffffffffffffffffff\n      and\n        /* \"temp.sol\":2398:2444  g__VaultLookup[vault_id].owner == user_address */\n      0xffffffffffffffffffffffffffffffffffffffff\n      and\n      eq\n        /* \"temp.sol\":2397:2483  (g__VaultLookup[vault_id].owner == user_address) || (user_address == g__SiteAuthority) */\n      dup1\n      tag_609\n      jumpi\n      pop\n        /* \"temp.sol\":2466:2482  g__SiteAuthority */\n      0x00\n      dup1\n      sload\n      swap1\n      0x0100\n      exp\n      swap1\n      div\n      0xffffffffffffffffffffffffffffffffffffffff\n      and\n        /* \"temp.sol\":2450:2482  user_address == g__SiteAuthority */\n      0xffffffffffffffffffffffffffffffffffffffff\n      and\n        /* \"temp.sol\":2450:2462  user_address */\n      dup2\n        /* \"temp.sol\":2450:2482  user_address == g__SiteAuthority */\n      0xffffffffffffffffffffffffffffffffffffffff\n      and\n      eq\n        /* \"temp.sol\":2397:2483  (g__VaultLookup[vault_id].owner == user_address) || (user_address == g__SiteAuthority) */\n    tag_609:\n        /* \"temp.sol\":2397:2515  (g__VaultLookup[vault_id].owner == user_address) || (user_address == g__SiteAuthority) || g__SiteSupport[user_address] */\n      dup1\n      tag_610\n      jumpi\n      pop\n        /* \"temp.sol\":2487:2501  g__SiteSupport */\n      0x01\n        /* \"temp.sol\":2487:2515  g__SiteSupport[user_address] */\n      0x00\n        /* \"temp.sol\":2502:2514  user_address */\n      dup3\n        /* \"temp.sol\":2487:2515  g__SiteSupport[user_address] */\n      0xffffffffffffffffffffffffffffffffffffffff\n      and\n      0xffffffffffffffffffffffffffffffffffffffff\n      and\n      dup2\n      mstore\n      0x20\n      add\n      swap1\n      dup2\n      mstore\n      0x20\n      add\n      0x00\n      keccak256\n      0x00\n      swap1\n      sload\n      swap1\n      0x0100\n      exp\n      swap1\n      div\n      0xff\n      and\n        /* \"temp.sol\":2397:2515  (g__VaultLookup[vault_id].owner == user_address) || (user_address == g__SiteAuthority) || g__SiteSupport[user_address] */\n    tag_610:\n        /* \"temp.sol\":2382:2553  require(... */\n      tag_611\n      jumpi\n      mload(0x40)\n      0x08c379a000000000000000000000000000000000000000000000000000000000\n      dup2\n      mstore\n      0x04\n      add\n      tag_612\n      swap1\n      tag_613\n      jump\t// in\n    tag_612:\n      mload(0x40)\n      dup1\n      swap2\n      sub\n      swap1\n      revert\n    tag_611:\n        /* \"temp.sol\":2286:2558  function ut__assert_management(string memory vault_id,address user_address) internal view {... */\n      pop\n      pop\n      jump\t// out\n    tag_509:\n      pop\n      dup1\n      sload\n      tag_614\n      swap1\n      tag_204\n      jump\t// in\n    tag_614:\n      0x00\n      dup3\n      sstore\n      dup1\n      0x1f\n      lt\n      tag_616\n      jumpi\n      pop\n      jump(tag_615)\n    tag_616:\n      0x1f\n      add\n      0x20\n      swap1\n      div\n      swap1\n      0x00\n      mstore\n      keccak256(0x00, 0x20)\n      swap1\n      dup2\n      add\n      swap1\n      tag_617\n      swap2\n      swap1\n      tag_618\n      jump\t// in\n    tag_617:\n    tag_615:\n      pop\n      jump\t// out\n    tag_534:\n      mload(0x40)\n      dup1\n      0x80\n      add\n      0x40\n      mstore\n      dup1\n      0x00\n      0x03\n      dup2\n      gt\n      iszero\n      tag_619\n      jumpi\n      tag_620\n      tag_137\n      jump\t// in\n    tag_620:\n    tag_619:\n      dup2\n      mstore\n      0x20\n      add\n      iszero(iszero(0x00))\n      dup2\n      mstore\n      0x20\n      add\n      0x60\n      dup2\n      mstore\n      0x20\n      add\n      0x00\n      dup2\n      mstore\n      pop\n      swap1\n      jump\t// out\n    tag_592:\n      mload(0x40)\n      dup1\n      0x40\n      add\n      0x40\n      mstore\n      dup1\n      0x00\n      dup2\n      mstore\n      0x20\n      add\n      0x00\n      0x05\n      dup2\n      gt\n      iszero\n      tag_621\n      jumpi\n      tag_622\n      tag_137\n      jump\t// in\n    tag_622:\n    tag_621:\n      dup2\n      mstore\n      pop\n      swap1\n      jump\t// out\n    tag_618:\n    tag_623:\n      dup1\n      dup3\n      gt\n      iszero\n      tag_624\n      jumpi\n      0x00\n      dup2\n      0x00\n      swap1\n      sstore\n      pop\n      0x01\n      add\n      jump(tag_623)\n    tag_624:\n      pop\n      swap1\n      jump\t// out\n        /* \"#utility.yul\":7:82   */\n    tag_625:\n        /* \"#utility.yul\":40:46   */\n      0x00\n        /* \"#utility.yul\":73:75   */\n      0x40\n        /* \"#utility.yul\":67:76   */\n      mload\n        /* \"#utility.yul\":57:76   */\n      swap1\n      pop\n        /* \"#utility.yul\":7:82   */\n      swap1\n      jump\t// out\n        /* \"#utility.yul\":88:205   */\n    tag_626:\n        /* \"#utility.yul\":197:198   */\n      0x00\n        /* \"#utility.yul\":194:195   */\n      dup1\n        /* \"#utility.yul\":187:199   */\n      revert\n        /* \"#utility.yul\":211:328   */\n    tag_627:\n        /* \"#utility.yul\":320:321   */\n      0x00\n        /* \"#utility.yul\":317:318   */\n      dup1\n        /* \"#utility.yul\":310:322   */\n      revert\n        /* \"#utility.yul\":334:451   */\n    tag_628:\n        /* \"#utility.yul\":443:444   */\n      0x00\n        /* \"#utility.yul\":440:441   */\n      dup1\n        /* \"#utility.yul\":433:445   */\n      revert\n        /* \"#utility.yul\":457:574   */\n    tag_629:\n        /* \"#utility.yul\":566:567   */\n      0x00\n        /* \"#utility.yul\":563:564   */\n      dup1\n        /* \"#utility.yul\":556:568   */\n      revert\n        /* \"#utility.yul\":580:682   */\n    tag_630:\n        /* \"#utility.yul\":621:627   */\n      0x00\n        /* \"#utility.yul\":672:674   */\n      0x1f\n        /* \"#utility.yul\":668:675   */\n      not\n        /* \"#utility.yul\":663:665   */\n      0x1f\n        /* \"#utility.yul\":656:661   */\n      dup4\n        /* \"#utility.yul\":652:666   */\n      add\n        /* \"#utility.yul\":648:676   */\n      and\n        /* \"#utility.yul\":638:676   */\n      swap1\n      pop\n        /* \"#utility.yul\":580:682   */\n      swap2\n      swap1\n      pop\n      jump\t// out\n        /* \"#utility.yul\":688:868   */\n    tag_631:\n        /* \"#utility.yul\":736:813   */\n      0x4e487b7100000000000000000000000000000000000000000000000000000000\n        /* \"#utility.yul\":733:734   */\n      0x00\n        /* \"#utility.yul\":726:814   */\n      mstore\n        /* \"#utility.yul\":833:837   */\n      0x41\n        /* \"#utility.yul\":830:831   */\n      0x04\n        /* \"#utility.yul\":823:838   */\n      mstore\n        /* \"#utility.yul\":857:861   */\n      0x24\n        /* \"#utility.yul\":854:855   */\n      0x00\n        /* \"#utility.yul\":847:862   */\n      revert\n        /* \"#utility.yul\":874:1155   */\n    tag_632:\n        /* \"#utility.yul\":957:984   */\n      tag_784\n        /* \"#utility.yul\":979:983   */\n      dup3\n        /* \"#utility.yul\":957:984   */\n      tag_630\n      jump\t// in\n    tag_784:\n        /* \"#utility.yul\":949:955   */\n      dup2\n        /* \"#utility.yul\":945:985   */\n      add\n        /* \"#utility.yul\":1087:1093   */\n      dup2\n        /* \"#utility.yul\":1075:1085   */\n      dup2\n        /* \"#utility.yul\":1072:1094   */\n      lt\n        /* \"#utility.yul\":1051:1069   */\n      0xffffffffffffffff\n        /* \"#utility.yul\":1039:1049   */\n      dup3\n        /* \"#utility.yul\":1036:1070   */\n      gt\n        /* \"#utility.yul\":1033:1095   */\n      or\n        /* \"#utility.yul\":1030:1118   */\n      iszero\n      tag_785\n      jumpi\n        /* \"#utility.yul\":1098:1116   */\n      tag_786\n      tag_631\n      jump\t// in\n    tag_786:\n        /* \"#utility.yul\":1030:1118   */\n    tag_785:\n        /* \"#utility.yul\":1138:1148   */\n      dup1\n        /* \"#utility.yul\":1134:1136   */\n      0x40\n        /* \"#utility.yul\":1127:1149   */\n      mstore\n        /* \"#utility.yul\":917:1155   */\n      pop\n        /* \"#utility.yul\":874:1155   */\n      pop\n      pop\n      jump\t// out\n        /* \"#utility.yul\":1161:1290   */\n    tag_633:\n        /* \"#utility.yul\":1195:1201   */\n      0x00\n        /* \"#utility.yul\":1222:1242   */\n      tag_788\n      tag_625\n      jump\t// in\n    tag_788:\n        /* \"#utility.yul\":1212:1242   */\n      swap1\n      pop\n        /* \"#utility.yul\":1251:1284   */\n      tag_789\n        /* \"#utility.yul\":1279:1283   */\n      dup3\n        /* \"#utility.yul\":1271:1277   */\n      dup3\n        /* \"#utility.yul\":1251:1284   */\n      tag_632\n      jump\t// in\n    tag_789:\n        /* \"#utility.yul\":1161:1290   */\n      swap2\n      swap1\n      pop\n      jump\t// out\n        /* \"#utility.yul\":1296:1604   */\n    tag_634:\n        /* \"#utility.yul\":1358:1362   */\n      0x00\n        /* \"#utility.yul\":1448:1466   */\n      0xffffffffffffffff\n        /* \"#utility.yul\":1440:1446   */\n      dup3\n        /* \"#utility.yul\":1437:1467   */\n      gt\n        /* \"#utility.yul\":1434:1490   */\n      iszero\n      tag_791\n      jumpi\n        /* \"#utility.yul\":1470:1488   */\n      tag_792\n      tag_631\n      jump\t// in\n    tag_792:\n        /* \"#utility.yul\":1434:1490   */\n    tag_791:\n        /* \"#utility.yul\":1508:1537   */\n      tag_793\n        /* \"#utility.yul\":1530:1536   */\n      dup3\n        /* \"#utility.yul\":1508:1537   */\n      tag_630\n      jump\t// in\n    tag_793:\n        /* \"#utility.yul\":1500:1537   */\n      swap1\n      pop\n        /* \"#utility.yul\":1592:1596   */\n      0x20\n        /* \"#utility.yul\":1586:1590   */\n      dup2\n        /* \"#utility.yul\":1582:1597   */\n      add\n        /* \"#utility.yul\":1574:1597   */\n      swap1\n      pop\n        /* \"#utility.yul\":1296:1604   */\n      swap2\n      swap1\n      pop\n      jump\t// out\n        /* \"#utility.yul\":1610:1756   */\n    tag_635:\n        /* \"#utility.yul\":1707:1713   */\n      dup3\n        /* \"#utility.yul\":1702:1705   */\n      dup2\n        /* \"#utility.yul\":1697:1700   */\n      dup4\n        /* \"#utility.yul\":1684:1714   */\n      calldatacopy\n        /* \"#utility.yul\":1748:1749   */\n      0x00\n        /* \"#utility.yul\":1739:1745   */\n      dup4\n        /* \"#utility.yul\":1734:1737   */\n      dup4\n        /* \"#utility.yul\":1730:1746   */\n      add\n        /* \"#utility.yul\":1723:1750   */\n      mstore\n        /* \"#utility.yul\":1610:1756   */\n      pop\n      pop\n      pop\n      jump\t// out\n        /* \"#utility.yul\":1762:2187   */\n    tag_636:\n        /* \"#utility.yul\":1840:1845   */\n      0x00\n        /* \"#utility.yul\":1865:1931   */\n      tag_796\n        /* \"#utility.yul\":1881:1930   */\n      tag_797\n        /* \"#utility.yul\":1923:1929   */\n      dup5\n        /* \"#utility.yul\":1881:1930   */\n      tag_634\n      jump\t// in\n    tag_797:\n        /* \"#utility.yul\":1865:1931   */\n      tag_633\n      jump\t// in\n    tag_796:\n        /* \"#utility.yul\":1856:1931   */\n      swap1\n      pop\n        /* \"#utility.yul\":1954:1960   */\n      dup3\n        /* \"#utility.yul\":1947:1952   */\n      dup2\n        /* \"#utility.yul\":1940:1961   */\n      mstore\n        /* \"#utility.yul\":1992:1996   */\n      0x20\n        /* \"#utility.yul\":1985:1990   */\n      dup2\n        /* \"#utility.yul\":1981:1997   */\n      add\n        /* \"#utility.yul\":2030:2033   */\n      dup5\n        /* \"#utility.yul\":2021:2027   */\n      dup5\n        /* \"#utility.yul\":2016:2019   */\n      dup5\n        /* \"#utility.yul\":2012:2028   */\n      add\n        /* \"#utility.yul\":2009:2034   */\n      gt\n        /* \"#utility.yul\":2006:2118   */\n      iszero\n      tag_798\n      jumpi\n        /* \"#utility.yul\":2037:2116   */\n      tag_799\n      tag_629\n      jump\t// in\n    tag_799:\n        /* \"#utility.yul\":2006:2118   */\n    tag_798:\n        /* \"#utility.yul\":2127:2181   */\n      tag_800\n        /* \"#utility.yul\":2174:2180   */\n      dup5\n        /* \"#utility.yul\":2169:2172   */\n      dup3\n        /* \"#utility.yul\":2164:2167   */\n      dup6\n        /* \"#utility.yul\":2127:2181   */\n      tag_635\n      jump\t// in\n    tag_800:\n        /* \"#utility.yul\":1846:2187   */\n      pop\n        /* \"#utility.yul\":1762:2187   */\n      swap4\n      swap3\n      pop\n      pop\n      pop\n      jump\t// out\n        /* \"#utility.yul\":2207:2547   */\n    tag_637:\n        /* \"#utility.yul\":2263:2268   */\n      0x00\n        /* \"#utility.yul\":2312:2315   */\n      dup3\n        /* \"#utility.yul\":2305:2309   */\n      0x1f\n        /* \"#utility.yul\":2297:2303   */\n      dup4\n        /* \"#utility.yul\":2293:2310   */\n      add\n        /* \"#utility.yul\":2289:2316   */\n      slt\n        /* \"#utility.yul\":2279:2401   */\n      tag_802\n      jumpi\n        /* \"#utility.yul\":2320:2399   */\n      tag_803\n      tag_628\n      jump\t// in\n    tag_803:\n        /* \"#utility.yul\":2279:2401   */\n    tag_802:\n        /* \"#utility.yul\":2437:2443   */\n      dup2\n        /* \"#utility.yul\":2424:2444   */\n      calldataload\n        /* \"#utility.yul\":2462:2541   */\n      tag_804\n        /* \"#utility.yul\":2537:2540   */\n      dup5\n        /* \"#utility.yul\":2529:2535   */\n      dup3\n        /* \"#utility.yul\":2522:2526   */\n      0x20\n        /* \"#utility.yul\":2514:2520   */\n      dup7\n        /* \"#utility.yul\":2510:2527   */\n      add\n        /* \"#utility.yul\":2462:2541   */\n      tag_636\n      jump\t// in\n    tag_804:\n        /* \"#utility.yul\":2453:2541   */\n      swap2\n      pop\n        /* \"#utility.yul\":2269:2547   */\n      pop\n        /* \"#utility.yul\":2207:2547   */\n      swap3\n      swap2\n      pop\n      pop\n      jump\t// out\n        /* \"#utility.yul\":2553:2679   */\n    tag_638:\n        /* \"#utility.yul\":2590:2597   */\n      0x00\n        /* \"#utility.yul\":2630:2672   */\n      0xffffffffffffffffffffffffffffffffffffffff\n        /* \"#utility.yul\":2623:2628   */\n      dup3\n        /* \"#utility.yul\":2619:2673   */\n      and\n        /* \"#utility.yul\":2608:2673   */\n      swap1\n      pop\n        /* \"#utility.yul\":2553:2679   */\n      swap2\n      swap1\n      pop\n      jump\t// out\n        /* \"#utility.yul\":2685:2781   */\n    tag_639:\n        /* \"#utility.yul\":2722:2729   */\n      0x00\n        /* \"#utility.yul\":2751:2775   */\n      tag_807\n        /* \"#utility.yul\":2769:2774   */\n      dup3\n        /* \"#utility.yul\":2751:2775   */\n      tag_638\n      jump\t// in\n    tag_807:\n        /* \"#utility.yul\":2740:2775   */\n      swap1\n      pop\n        /* \"#utility.yul\":2685:2781   */\n      swap2\n      swap1\n      pop\n      jump\t// out\n        /* \"#utility.yul\":2787:2909   */\n    tag_640:\n        /* \"#utility.yul\":2860:2884   */\n      tag_809\n        /* \"#utility.yul\":2878:2883   */\n      dup2\n        /* \"#utility.yul\":2860:2884   */\n      tag_639\n      jump\t// in\n    tag_809:\n        /* \"#utility.yul\":2853:2858   */\n      dup2\n        /* \"#utility.yul\":2850:2885   */\n      eq\n        /* \"#utility.yul\":2840:2903   */\n      tag_810\n      jumpi\n        /* \"#utility.yul\":2899:2900   */\n      0x00\n        /* \"#utility.yul\":2896:2897   */\n      dup1\n        /* \"#utility.yul\":2889:2901   */\n      revert\n        /* \"#utility.yul\":2840:2903   */\n    tag_810:\n        /* \"#utility.yul\":2787:2909   */\n      pop\n      jump\t// out\n        /* \"#utility.yul\":2915:3054   */\n    tag_641:\n        /* \"#utility.yul\":2961:2966   */\n      0x00\n        /* \"#utility.yul\":2999:3005   */\n      dup2\n        /* \"#utility.yul\":2986:3006   */\n      calldataload\n        /* \"#utility.yul\":2977:3006   */\n      swap1\n      pop\n        /* \"#utility.yul\":3015:3048   */\n      tag_812\n        /* \"#utility.yul\":3042:3047   */\n      dup2\n        /* \"#utility.yul\":3015:3048   */\n      tag_640\n      jump\t// in\n    tag_812:\n        /* \"#utility.yul\":2915:3054   */\n      swap3\n      swap2\n      pop\n      pop\n      jump\t// out\n        /* \"#utility.yul\":3060:4039   */\n    tag_36:\n        /* \"#utility.yul\":3157:3163   */\n      0x00\n        /* \"#utility.yul\":3165:3171   */\n      dup1\n        /* \"#utility.yul\":3173:3179   */\n      0x00\n        /* \"#utility.yul\":3222:3224   */\n      0x60\n        /* \"#utility.yul\":3210:3219   */\n      dup5\n        /* \"#utility.yul\":3201:3208   */\n      dup7\n        /* \"#utility.yul\":3197:3220   */\n      sub\n        /* \"#utility.yul\":3193:3225   */\n      slt\n        /* \"#utility.yul\":3190:3309   */\n      iszero\n      tag_814\n      jumpi\n        /* \"#utility.yul\":3228:3307   */\n      tag_815\n      tag_626\n      jump\t// in\n    tag_815:\n        /* \"#utility.yul\":3190:3309   */\n    tag_814:\n        /* \"#utility.yul\":3376:3377   */\n      0x00\n        /* \"#utility.yul\":3365:3374   */\n      dup5\n        /* \"#utility.yul\":3361:3378   */\n      add\n        /* \"#utility.yul\":3348:3379   */\n      calldataload\n        /* \"#utility.yul\":3406:3424   */\n      0xffffffffffffffff\n        /* \"#utility.yul\":3398:3404   */\n      dup2\n        /* \"#utility.yul\":3395:3425   */\n      gt\n        /* \"#utility.yul\":3392:3509   */\n      iszero\n      tag_816\n      jumpi\n        /* \"#utility.yul\":3428:3507   */\n      tag_817\n      tag_627\n      jump\t// in\n    tag_817:\n        /* \"#utility.yul\":3392:3509   */\n    tag_816:\n        /* \"#utility.yul\":3533:3596   */\n      tag_818\n        /* \"#utility.yul\":3588:3595   */\n      dup7\n        /* \"#utility.yul\":3579:3585   */\n      dup3\n        /* \"#utility.yul\":3568:3577   */\n      dup8\n        /* \"#utility.yul\":3564:3586   */\n      add\n        /* \"#utility.yul\":3533:3596   */\n      tag_637\n      jump\t// in\n    tag_818:\n        /* \"#utility.yul\":3523:3596   */\n      swap4\n      pop\n        /* \"#utility.yul\":3319:3606   */\n      pop\n        /* \"#utility.yul\":3645:3647   */\n      0x20\n        /* \"#utility.yul\":3671:3724   */\n      tag_819\n        /* \"#utility.yul\":3716:3723   */\n      dup7\n        /* \"#utility.yul\":3707:3713   */\n      dup3\n        /* \"#utility.yul\":3696:3705   */\n      dup8\n        /* \"#utility.yul\":3692:3714   */\n      add\n        /* \"#utility.yul\":3671:3724   */\n      tag_641\n      jump\t// in\n    tag_819:\n        /* \"#utility.yul\":3661:3724   */\n      swap3\n      pop\n        /* \"#utility.yul\":3616:3734   */\n      pop\n        /* \"#utility.yul\":3801:3803   */\n      0x40\n        /* \"#utility.yul\":3790:3799   */\n      dup5\n        /* \"#utility.yul\":3786:3804   */\n      add\n        /* \"#utility.yul\":3773:3805   */\n      calldataload\n        /* \"#utility.yul\":3832:3850   */\n      0xffffffffffffffff\n        /* \"#utility.yul\":3824:3830   */\n      dup2\n        /* \"#utility.yul\":3821:3851   */\n      gt\n        /* \"#utility.yul\":3818:3935   */\n      iszero\n      tag_820\n      jumpi\n        /* \"#utility.yul\":3854:3933   */\n      tag_821\n      tag_627\n      jump\t// in\n    tag_821:\n        /* \"#utility.yul\":3818:3935   */\n    tag_820:\n        /* \"#utility.yul\":3959:4022   */\n      tag_822\n        /* \"#utility.yul\":4014:4021   */\n      dup7\n        /* \"#utility.yul\":4005:4011   */\n      dup3\n        /* \"#utility.yul\":3994:4003   */\n      dup8\n        /* \"#utility.yul\":3990:4012   */\n      add\n        /* \"#utility.yul\":3959:4022   */\n      tag_637\n      jump\t// in\n    tag_822:\n        /* \"#utility.yul\":3949:4022   */\n      swap2\n      pop\n        /* \"#utility.yul\":3744:4032   */\n      pop\n        /* \"#utility.yul\":3060:4039   */\n      swap3\n      pop\n      swap3\n      pop\n      swap3\n      jump\t// out\n        /* \"#utility.yul\":4045:4122   */\n    tag_642:\n        /* \"#utility.yul\":4082:4089   */\n      0x00\n        /* \"#utility.yul\":4111:4116   */\n      dup2\n        /* \"#utility.yul\":4100:4116   */\n      swap1\n      pop\n        /* \"#utility.yul\":4045:4122   */\n      swap2\n      swap1\n      pop\n      jump\t// out\n        /* \"#utility.yul\":4128:4246   */\n    tag_643:\n        /* \"#utility.yul\":4215:4239   */\n      tag_825\n        /* \"#utility.yul\":4233:4238   */\n      dup2\n        /* \"#utility.yul\":4215:4239   */\n      tag_642\n      jump\t// in\n    tag_825:\n        /* \"#utility.yul\":4210:4213   */\n      dup3\n        /* \"#utility.yul\":4203:4240   */\n      mstore\n        /* \"#utility.yul\":4128:4246   */\n      pop\n      pop\n      jump\t// out\n        /* \"#utility.yul\":4252:4432   */\n    tag_137:\n        /* \"#utility.yul\":4300:4377   */\n      0x4e487b7100000000000000000000000000000000000000000000000000000000\n        /* \"#utility.yul\":4297:4298   */\n      0x00\n        /* \"#utility.yul\":4290:4378   */\n      mstore\n        /* \"#utility.yul\":4397:4401   */\n      0x21\n        /* \"#utility.yul\":4394:4395   */\n      0x04\n        /* \"#utility.yul\":4387:4402   */\n      mstore\n        /* \"#utility.yul\":4421:4425   */\n      0x24\n        /* \"#utility.yul\":4418:4419   */\n      0x00\n        /* \"#utility.yul\":4411:4426   */\n      revert\n        /* \"#utility.yul\":4438:4564   */\n    tag_644:\n        /* \"#utility.yul\":4532:4533   */\n      0x06\n        /* \"#utility.yul\":4525:4530   */\n      dup2\n        /* \"#utility.yul\":4522:4534   */\n      lt\n        /* \"#utility.yul\":4512:4558   */\n      tag_828\n      jumpi\n        /* \"#utility.yul\":4538:4556   */\n      tag_829\n      tag_137\n      jump\t// in\n    tag_829:\n        /* \"#utility.yul\":4512:4558   */\n    tag_828:\n        /* \"#utility.yul\":4438:4564   */\n      pop\n      jump\t// out\n        /* \"#utility.yul\":4570:4723   */\n    tag_645:\n        /* \"#utility.yul\":4628:4635   */\n      0x00\n        /* \"#utility.yul\":4657:4662   */\n      dup2\n        /* \"#utility.yul\":4646:4662   */\n      swap1\n      pop\n        /* \"#utility.yul\":4663:4717   */\n      tag_831\n        /* \"#utility.yul\":4711:4716   */\n      dup3\n        /* \"#utility.yul\":4663:4717   */\n      tag_644\n      jump\t// in\n    tag_831:\n        /* \"#utility.yul\":4570:4723   */\n      swap2\n      swap1\n      pop\n      jump\t// out\n        /* \"#utility.yul\":4729:4882   */\n    tag_646:\n        /* \"#utility.yul\":4798:4807   */\n      0x00\n        /* \"#utility.yul\":4831:4876   */\n      tag_833\n        /* \"#utility.yul\":4870:4875   */\n      dup3\n        /* \"#utility.yul\":4831:4876   */\n      tag_645\n      jump\t// in\n    tag_833:\n        /* \"#utility.yul\":4818:4876   */\n      swap1\n      pop\n        /* \"#utility.yul\":4729:4882   */\n      swap2\n      swap1\n      pop\n      jump\t// out\n        /* \"#utility.yul\":4888:5057   */\n    tag_647:\n        /* \"#utility.yul\":4994:5050   */\n      tag_835\n        /* \"#utility.yul\":5044:5049   */\n      dup2\n        /* \"#utility.yul\":4994:5050   */\n      tag_646\n      jump\t// in\n    tag_835:\n        /* \"#utility.yul\":4989:4992   */\n      dup3\n        /* \"#utility.yul\":4982:5051   */\n      mstore\n        /* \"#utility.yul\":4888:5057   */\n      pop\n      pop\n      jump\t// out\n        /* \"#utility.yul\":5063:5433   */\n    tag_39:\n        /* \"#utility.yul\":5203:5207   */\n      0x00\n        /* \"#utility.yul\":5241:5243   */\n      0x40\n        /* \"#utility.yul\":5230:5239   */\n      dup3\n        /* \"#utility.yul\":5226:5244   */\n      add\n        /* \"#utility.yul\":5218:5244   */\n      swap1\n      pop\n        /* \"#utility.yul\":5254:5325   */\n      tag_837\n        /* \"#utility.yul\":5322:5323   */\n      0x00\n        /* \"#utility.yul\":5311:5320   */\n      dup4\n        /* \"#utility.yul\":5307:5324   */\n      add\n        /* \"#utility.yul\":5298:5304   */\n      dup6\n        /* \"#utility.yul\":5254:5325   */\n      tag_643\n      jump\t// in\n    tag_837:\n        /* \"#utility.yul\":5335:5426   */\n      tag_838\n        /* \"#utility.yul\":5422:5424   */\n      0x20\n        /* \"#utility.yul\":5411:5420   */\n      dup4\n        /* \"#utility.yul\":5407:5425   */\n      add\n        /* \"#utility.yul\":5398:5404   */\n      dup5\n        /* \"#utility.yul\":5335:5426   */\n      tag_647\n      jump\t// in\n    tag_838:\n        /* \"#utility.yul\":5063:5433   */\n      swap4\n      swap3\n      pop\n      pop\n      pop\n      jump\t// out\n        /* \"#utility.yul\":5439:6093   */\n    tag_42:\n        /* \"#utility.yul\":5517:5523   */\n      0x00\n        /* \"#utility.yul\":5525:5531   */\n      dup1\n        /* \"#utility.yul\":5574:5576   */\n      0x40\n        /* \"#utility.yul\":5562:5571   */\n      dup4\n        /* \"#utility.yul\":5553:5560   */\n      dup6\n        /* \"#utility.yul\":5549:5572   */\n      sub\n        /* \"#utility.yul\":5545:5577   */\n      slt\n        /* \"#utility.yul\":5542:5661   */\n      iszero\n      tag_840\n      jumpi\n        /* \"#utility.yul\":5580:5659   */\n      tag_841\n      tag_626\n      jump\t// in\n    tag_841:\n        /* \"#utility.yul\":5542:5661   */\n    tag_840:\n        /* \"#utility.yul\":5728:5729   */\n      0x00\n        /* \"#utility.yul\":5717:5726   */\n      dup4\n        /* \"#utility.yul\":5713:5730   */\n      add\n        /* \"#utility.yul\":5700:5731   */\n      calldataload\n        /* \"#utility.yul\":5758:5776   */\n      0xffffffffffffffff\n        /* \"#utility.yul\":5750:5756   */\n      dup2\n        /* \"#utility.yul\":5747:5777   */\n      gt\n        /* \"#utility.yul\":5744:5861   */\n      iszero\n      tag_842\n      jumpi\n        /* \"#utility.yul\":5780:5859   */\n      tag_843\n      tag_627\n      jump\t// in\n    tag_843:\n        /* \"#utility.yul\":5744:5861   */\n    tag_842:\n        /* \"#utility.yul\":5885:5948   */\n      tag_844\n        /* \"#utility.yul\":5940:5947   */\n      dup6\n        /* \"#utility.yul\":5931:5937   */\n      dup3\n        /* \"#utility.yul\":5920:5929   */\n      dup7\n        /* \"#utility.yul\":5916:5938   */\n      add\n        /* \"#utility.yul\":5885:5948   */\n      tag_637\n      jump\t// in\n    tag_844:\n        /* \"#utility.yul\":5875:5948   */\n      swap3\n      pop\n        /* \"#utility.yul\":5671:5958   */\n      pop\n        /* \"#utility.yul\":5997:5999   */\n      0x20\n        /* \"#utility.yul\":6023:6076   */\n      tag_845\n        /* \"#utility.yul\":6068:6075   */\n      dup6\n        /* \"#utility.yul\":6059:6065   */\n      dup3\n        /* \"#utility.yul\":6048:6057   */\n      dup7\n        /* \"#utility.yul\":6044:6066   */\n      add\n        /* \"#utility.yul\":6023:6076   */\n      tag_641\n      jump\t// in\n    tag_845:\n        /* \"#utility.yul\":6013:6076   */\n      swap2\n      pop\n        /* \"#utility.yul\":5968:6086   */\n      pop\n        /* \"#utility.yul\":5439:6093   */\n      swap3\n      pop\n      swap3\n      swap1\n      pop\n      jump\t// out\n        /* \"#utility.yul\":6099:6189   */\n    tag_648:\n        /* \"#utility.yul\":6133:6140   */\n      0x00\n        /* \"#utility.yul\":6176:6181   */\n      dup2\n        /* \"#utility.yul\":6169:6182   */\n      iszero\n        /* \"#utility.yul\":6162:6183   */\n      iszero\n        /* \"#utility.yul\":6151:6183   */\n      swap1\n      pop\n        /* \"#utility.yul\":6099:6189   */\n      swap2\n      swap1\n      pop\n      jump\t// out\n        /* \"#utility.yul\":6195:6311   */\n    tag_649:\n        /* \"#utility.yul\":6265:6286   */\n      tag_848\n        /* \"#utility.yul\":6280:6285   */\n      dup2\n        /* \"#utility.yul\":6265:6286   */\n      tag_648\n      jump\t// in\n    tag_848:\n        /* \"#utility.yul\":6258:6263   */\n      dup2\n        /* \"#utility.yul\":6255:6287   */\n      eq\n        /* \"#utility.yul\":6245:6305   */\n      tag_849\n      jumpi\n        /* \"#utility.yul\":6301:6302   */\n      0x00\n        /* \"#utility.yul\":6298:6299   */\n      dup1\n        /* \"#utility.yul\":6291:6303   */\n      revert\n        /* \"#utility.yul\":6245:6305   */\n    tag_849:\n        /* \"#utility.yul\":6195:6311   */\n      pop\n      jump\t// out\n        /* \"#utility.yul\":6317:6450   */\n    tag_650:\n        /* \"#utility.yul\":6360:6365   */\n      0x00\n        /* \"#utility.yul\":6398:6404   */\n      dup2\n        /* \"#utility.yul\":6385:6405   */\n      calldataload\n        /* \"#utility.yul\":6376:6405   */\n      swap1\n      pop\n        /* \"#utility.yul\":6414:6444   */\n      tag_851\n        /* \"#utility.yul\":6438:6443   */\n      dup2\n        /* \"#utility.yul\":6414:6444   */\n      tag_649\n      jump\t// in\n    tag_851:\n        /* \"#utility.yul\":6317:6450   */\n      swap3\n      swap2\n      pop\n      pop\n      jump\t// out\n        /* \"#utility.yul\":6456:7104   */\n    tag_49:\n        /* \"#utility.yul\":6531:6537   */\n      0x00\n        /* \"#utility.yul\":6539:6545   */\n      dup1\n        /* \"#utility.yul\":6588:6590   */\n      0x40\n        /* \"#utility.yul\":6576:6585   */\n      dup4\n        /* \"#utility.yul\":6567:6574   */\n      dup6\n        /* \"#utility.yul\":6563:6586   */\n      sub\n        /* \"#utility.yul\":6559:6591   */\n      slt\n        /* \"#utility.yul\":6556:6675   */\n      iszero\n      tag_853\n      jumpi\n        /* \"#utility.yul\":6594:6673   */\n      tag_854\n      tag_626\n      jump\t// in\n    tag_854:\n        /* \"#utility.yul\":6556:6675   */\n    tag_853:\n        /* \"#utility.yul\":6742:6743   */\n      0x00\n        /* \"#utility.yul\":6731:6740   */\n      dup4\n        /* \"#utility.yul\":6727:6744   */\n      add\n        /* \"#utility.yul\":6714:6745   */\n      calldataload\n        /* \"#utility.yul\":6772:6790   */\n      0xffffffffffffffff\n        /* \"#utility.yul\":6764:6770   */\n      dup2\n        /* \"#utility.yul\":6761:6791   */\n      gt\n        /* \"#utility.yul\":6758:6875   */\n      iszero\n      tag_855\n      jumpi\n        /* \"#utility.yul\":6794:6873   */\n      tag_856\n      tag_627\n      jump\t// in\n    tag_856:\n        /* \"#utility.yul\":6758:6875   */\n    tag_855:\n        /* \"#utility.yul\":6899:6962   */\n      tag_857\n        /* \"#utility.yul\":6954:6961   */\n      dup6\n        /* \"#utility.yul\":6945:6951   */\n      dup3\n        /* \"#utility.yul\":6934:6943   */\n      dup7\n        /* \"#utility.yul\":6930:6952   */\n      add\n        /* \"#utility.yul\":6899:6962   */\n      tag_637\n      jump\t// in\n    tag_857:\n        /* \"#utility.yul\":6889:6962   */\n      swap3\n      pop\n        /* \"#utility.yul\":6685:6972   */\n      pop\n        /* \"#utility.yul\":7011:7013   */\n      0x20\n        /* \"#utility.yul\":7037:7087   */\n      tag_858\n        /* \"#utility.yul\":7079:7086   */\n      dup6\n        /* \"#utility.yul\":7070:7076   */\n      dup3\n        /* \"#utility.yul\":7059:7068   */\n      dup7\n        /* \"#utility.yul\":7055:7077   */\n      add\n        /* \"#utility.yul\":7037:7087   */\n      tag_650\n      jump\t// in\n    tag_858:\n        /* \"#utility.yul\":7027:7087   */\n      swap2\n      pop\n        /* \"#utility.yul\":6982:7097   */\n      pop\n        /* \"#utility.yul\":6456:7104   */\n      swap3\n      pop\n      swap3\n      swap1\n      pop\n      jump\t// out\n        /* \"#utility.yul\":7110:7619   */\n    tag_53:\n        /* \"#utility.yul\":7179:7185   */\n      0x00\n        /* \"#utility.yul\":7228:7230   */\n      0x20\n        /* \"#utility.yul\":7216:7225   */\n      dup3\n        /* \"#utility.yul\":7207:7214   */\n      dup5\n        /* \"#utility.yul\":7203:7226   */\n      sub\n        /* \"#utility.yul\":7199:7231   */\n      slt\n        /* \"#utility.yul\":7196:7315   */\n      iszero\n      tag_860\n      jumpi\n        /* \"#utility.yul\":7234:7313   */\n      tag_861\n      tag_626\n      jump\t// in\n    tag_861:\n        /* \"#utility.yul\":7196:7315   */\n    tag_860:\n        /* \"#utility.yul\":7382:7383   */\n      0x00\n        /* \"#utility.yul\":7371:7380   */\n      dup3\n        /* \"#utility.yul\":7367:7384   */\n      add\n        /* \"#utility.yul\":7354:7385   */\n      calldataload\n        /* \"#utility.yul\":7412:7430   */\n      0xffffffffffffffff\n        /* \"#utility.yul\":7404:7410   */\n      dup2\n        /* \"#utility.yul\":7401:7431   */\n      gt\n        /* \"#utility.yul\":7398:7515   */\n      iszero\n      tag_862\n      jumpi\n        /* \"#utility.yul\":7434:7513   */\n      tag_863\n      tag_627\n      jump\t// in\n    tag_863:\n        /* \"#utility.yul\":7398:7515   */\n    tag_862:\n        /* \"#utility.yul\":7539:7602   */\n      tag_864\n        /* \"#utility.yul\":7594:7601   */\n      dup5\n        /* \"#utility.yul\":7585:7591   */\n      dup3\n        /* \"#utility.yul\":7574:7583   */\n      dup6\n        /* \"#utility.yul\":7570:7592   */\n      add\n        /* \"#utility.yul\":7539:7602   */\n      tag_637\n      jump\t// in\n    tag_864:\n        /* \"#utility.yul\":7529:7602   */\n      swap2\n      pop\n        /* \"#utility.yul\":7325:7612   */\n      pop\n        /* \"#utility.yul\":7110:7619   */\n      swap3\n      swap2\n      pop\n      pop\n      jump\t// out\n        /* \"#utility.yul\":7625:7744   */\n    tag_651:\n        /* \"#utility.yul\":7712:7713   */\n      0x04\n        /* \"#utility.yul\":7705:7710   */\n      dup2\n        /* \"#utility.yul\":7702:7714   */\n      lt\n        /* \"#utility.yul\":7692:7738   */\n      tag_866\n      jumpi\n        /* \"#utility.yul\":7718:7736   */\n      tag_867\n      tag_137\n      jump\t// in\n    tag_867:\n        /* \"#utility.yul\":7692:7738   */\n    tag_866:\n        /* \"#utility.yul\":7625:7744   */\n      pop\n      jump\t// out\n        /* \"#utility.yul\":7750:7889   */\n    tag_652:\n        /* \"#utility.yul\":7801:7808   */\n      0x00\n        /* \"#utility.yul\":7830:7835   */\n      dup2\n        /* \"#utility.yul\":7819:7835   */\n      swap1\n      pop\n        /* \"#utility.yul\":7836:7883   */\n      tag_869\n        /* \"#utility.yul\":7877:7882   */\n      dup3\n        /* \"#utility.yul\":7836:7883   */\n      tag_651\n      jump\t// in\n    tag_869:\n        /* \"#utility.yul\":7750:7889   */\n      swap2\n      swap1\n      pop\n      jump\t// out\n        /* \"#utility.yul\":7895:8034   */\n    tag_653:\n        /* \"#utility.yul\":7957:7966   */\n      0x00\n        /* \"#utility.yul\":7990:8028   */\n      tag_871\n        /* \"#utility.yul\":8022:8027   */\n      dup3\n        /* \"#utility.yul\":7990:8028   */\n      tag_652\n      jump\t// in\n    tag_871:\n        /* \"#utility.yul\":7977:8028   */\n      swap1\n      pop\n        /* \"#utility.yul\":7895:8034   */\n      swap2\n      swap1\n      pop\n      jump\t// out\n        /* \"#utility.yul\":8040:8195   */\n    tag_654:\n        /* \"#utility.yul\":8139:8188   */\n      tag_873\n        /* \"#utility.yul\":8182:8187   */\n      dup2\n        /* \"#utility.yul\":8139:8188   */\n      tag_653\n      jump\t// in\n    tag_873:\n        /* \"#utility.yul\":8134:8137   */\n      dup3\n        /* \"#utility.yul\":8127:8189   */\n      mstore\n        /* \"#utility.yul\":8040:8195   */\n      pop\n      pop\n      jump\t// out\n        /* \"#utility.yul\":8201:8300   */\n    tag_655:\n        /* \"#utility.yul\":8253:8259   */\n      0x00\n        /* \"#utility.yul\":8287:8292   */\n      dup2\n        /* \"#utility.yul\":8281:8293   */\n      mload\n        /* \"#utility.yul\":8271:8293   */\n      swap1\n      pop\n        /* \"#utility.yul\":8201:8300   */\n      swap2\n      swap1\n      pop\n      jump\t// out\n        /* \"#utility.yul\":8306:8475   */\n    tag_656:\n        /* \"#utility.yul\":8390:8401   */\n      0x00\n        /* \"#utility.yul\":8424:8430   */\n      dup3\n        /* \"#utility.yul\":8419:8422   */\n      dup3\n        /* \"#utility.yul\":8412:8431   */\n      mstore\n        /* \"#utility.yul\":8464:8468   */\n      0x20\n        /* \"#utility.yul\":8459:8462   */\n      dup3\n        /* \"#utility.yul\":8455:8469   */\n      add\n        /* \"#utility.yul\":8440:8469   */\n      swap1\n      pop\n        /* \"#utility.yul\":8306:8475   */\n      swap3\n      swap2\n      pop\n      pop\n      jump\t// out\n        /* \"#utility.yul\":8481:8727   */\n    tag_657:\n        /* \"#utility.yul\":8562:8563   */\n      0x00\n        /* \"#utility.yul\":8572:8685   */\n    tag_877:\n        /* \"#utility.yul\":8586:8592   */\n      dup4\n        /* \"#utility.yul\":8583:8584   */\n      dup2\n        /* \"#utility.yul\":8580:8593   */\n      lt\n        /* \"#utility.yul\":8572:8685   */\n      iszero\n      tag_879\n      jumpi\n        /* \"#utility.yul\":8671:8672   */\n      dup1\n        /* \"#utility.yul\":8666:8669   */\n      dup3\n        /* \"#utility.yul\":8662:8673   */\n      add\n        /* \"#utility.yul\":8656:8674   */\n      mload\n        /* \"#utility.yul\":8652:8653   */\n      dup2\n        /* \"#utility.yul\":8647:8650   */\n      dup5\n        /* \"#utility.yul\":8643:8654   */\n      add\n        /* \"#utility.yul\":8636:8675   */\n      mstore\n        /* \"#utility.yul\":8608:8610   */\n      0x20\n        /* \"#utility.yul\":8605:8606   */\n      dup2\n        /* \"#utility.yul\":8601:8611   */\n      add\n        /* \"#utility.yul\":8596:8611   */\n      swap1\n      pop\n        /* \"#utility.yul\":8572:8685   */\n      jump(tag_877)\n    tag_879:\n        /* \"#utility.yul\":8719:8720   */\n      0x00\n        /* \"#utility.yul\":8710:8716   */\n      dup5\n        /* \"#utility.yul\":8705:8708   */\n      dup5\n        /* \"#utility.yul\":8701:8717   */\n      add\n        /* \"#utility.yul\":8694:8721   */\n      mstore\n        /* \"#utility.yul\":8543:8727   */\n      pop\n        /* \"#utility.yul\":8481:8727   */\n      pop\n      pop\n      pop\n      jump\t// out\n        /* \"#utility.yul\":8733:9110   */\n    tag_658:\n        /* \"#utility.yul\":8821:8824   */\n      0x00\n        /* \"#utility.yul\":8849:8888   */\n      tag_881\n        /* \"#utility.yul\":8882:8887   */\n      dup3\n        /* \"#utility.yul\":8849:8888   */\n      tag_655\n      jump\t// in\n    tag_881:\n        /* \"#utility.yul\":8904:8975   */\n      tag_882\n        /* \"#utility.yul\":8968:8974   */\n      dup2\n        /* \"#utility.yul\":8963:8966   */\n      dup6\n        /* \"#utility.yul\":8904:8975   */\n      tag_656\n      jump\t// in\n    tag_882:\n        /* \"#utility.yul\":8897:8975   */\n      swap4\n      pop\n        /* \"#utility.yul\":8984:9049   */\n      tag_883\n        /* \"#utility.yul\":9042:9048   */\n      dup2\n        /* \"#utility.yul\":9037:9040   */\n      dup6\n        /* \"#utility.yul\":9030:9034   */\n      0x20\n        /* \"#utility.yul\":9023:9028   */\n      dup7\n        /* \"#utility.yul\":9019:9035   */\n      add\n        /* \"#utility.yul\":8984:9049   */\n      tag_657\n      jump\t// in\n    tag_883:\n        /* \"#utility.yul\":9074:9103   */\n      tag_884\n        /* \"#utility.yul\":9096:9102   */\n      dup2\n        /* \"#utility.yul\":9074:9103   */\n      tag_630\n      jump\t// in\n    tag_884:\n        /* \"#utility.yul\":9069:9072   */\n      dup5\n        /* \"#utility.yul\":9065:9104   */\n      add\n        /* \"#utility.yul\":9058:9104   */\n      swap2\n      pop\n        /* \"#utility.yul\":8825:9110   */\n      pop\n        /* \"#utility.yul\":8733:9110   */\n      swap3\n      swap2\n      pop\n      pop\n      jump\t// out\n        /* \"#utility.yul\":9116:9234   */\n    tag_659:\n        /* \"#utility.yul\":9203:9227   */\n      tag_886\n        /* \"#utility.yul\":9221:9226   */\n      dup2\n        /* \"#utility.yul\":9203:9227   */\n      tag_639\n      jump\t// in\n    tag_886:\n        /* \"#utility.yul\":9198:9201   */\n      dup3\n        /* \"#utility.yul\":9191:9228   */\n      mstore\n        /* \"#utility.yul\":9116:9234   */\n      pop\n      pop\n      jump\t// out\n        /* \"#utility.yul\":9240:9329   */\n    tag_660:\n        /* \"#utility.yul\":9276:9283   */\n      0x00\n        /* \"#utility.yul\":9316:9322   */\n      0xffff\n        /* \"#utility.yul\":9309:9314   */\n      dup3\n        /* \"#utility.yul\":9305:9323   */\n      and\n        /* \"#utility.yul\":9294:9323   */\n      swap1\n      pop\n        /* \"#utility.yul\":9240:9329   */\n      swap2\n      swap1\n      pop\n      jump\t// out\n        /* \"#utility.yul\":9335:9450   */\n    tag_661:\n        /* \"#utility.yul\":9420:9443   */\n      tag_889\n        /* \"#utility.yul\":9437:9442   */\n      dup2\n        /* \"#utility.yul\":9420:9443   */\n      tag_660\n      jump\t// in\n    tag_889:\n        /* \"#utility.yul\":9415:9418   */\n      dup3\n        /* \"#utility.yul\":9408:9444   */\n      mstore\n        /* \"#utility.yul\":9335:9450   */\n      pop\n      pop\n      jump\t// out\n        /* \"#utility.yul\":9456:11004   */\n    tag_56:\n        /* \"#utility.yul\":9885:9889   */\n      0x00\n        /* \"#utility.yul\":9923:9926   */\n      0x0180\n        /* \"#utility.yul\":9912:9921   */\n      dup3\n        /* \"#utility.yul\":9908:9927   */\n      add\n        /* \"#utility.yul\":9900:9927   */\n      swap1\n      pop\n        /* \"#utility.yul\":9937:10020   */\n      tag_891\n        /* \"#utility.yul\":10017:10018   */\n      0x00\n        /* \"#utility.yul\":10006:10015   */\n      dup4\n        /* \"#utility.yul\":10002:10019   */\n      add\n        /* \"#utility.yul\":9993:9999   */\n      dup16\n        /* \"#utility.yul\":9937:10020   */\n      tag_654\n      jump\t// in\n    tag_891:\n        /* \"#utility.yul\":10067:10076   */\n      dup2\n        /* \"#utility.yul\":10061:10065   */\n      dup2\n        /* \"#utility.yul\":10057:10077   */\n      sub\n        /* \"#utility.yul\":10052:10054   */\n      0x20\n        /* \"#utility.yul\":10041:10050   */\n      dup4\n        /* \"#utility.yul\":10037:10055   */\n      add\n        /* \"#utility.yul\":10030:10078   */\n      mstore\n        /* \"#utility.yul\":10095:10173   */\n      tag_892\n        /* \"#utility.yul\":10168:10172   */\n      dup2\n        /* \"#utility.yul\":10159:10165   */\n      dup15\n        /* \"#utility.yul\":10095:10173   */\n      tag_658\n      jump\t// in\n    tag_892:\n        /* \"#utility.yul\":10087:10173   */\n      swap1\n      pop\n        /* \"#utility.yul\":10183:10255   */\n      tag_893\n        /* \"#utility.yul\":10251:10253   */\n      0x40\n        /* \"#utility.yul\":10240:10249   */\n      dup4\n        /* \"#utility.yul\":10236:10254   */\n      add\n        /* \"#utility.yul\":10227:10233   */\n      dup14\n        /* \"#utility.yul\":10183:10255   */\n      tag_659\n      jump\t// in\n    tag_893:\n        /* \"#utility.yul\":10265:10337   */\n      tag_894\n        /* \"#utility.yul\":10333:10335   */\n      0x60\n        /* \"#utility.yul\":10322:10331   */\n      dup4\n        /* \"#utility.yul\":10318:10336   */\n      add\n        /* \"#utility.yul\":10309:10315   */\n      dup13\n        /* \"#utility.yul\":10265:10337   */\n      tag_643\n      jump\t// in\n    tag_894:\n        /* \"#utility.yul\":10347:10420   */\n      tag_895\n        /* \"#utility.yul\":10415:10418   */\n      0x80\n        /* \"#utility.yul\":10404:10413   */\n      dup4\n        /* \"#utility.yul\":10400:10419   */\n      add\n        /* \"#utility.yul\":10391:10397   */\n      dup12\n        /* \"#utility.yul\":10347:10420   */\n      tag_643\n      jump\t// in\n    tag_895:\n        /* \"#utility.yul\":10430:10501   */\n      tag_896\n        /* \"#utility.yul\":10496:10499   */\n      0xa0\n        /* \"#utility.yul\":10485:10494   */\n      dup4\n        /* \"#utility.yul\":10481:10500   */\n      add\n        /* \"#utility.yul\":10472:10478   */\n      dup11\n        /* \"#utility.yul\":10430:10501   */\n      tag_661\n      jump\t// in\n    tag_896:\n        /* \"#utility.yul\":10511:10582   */\n      tag_897\n        /* \"#utility.yul\":10577:10580   */\n      0xc0\n        /* \"#utility.yul\":10566:10575   */\n      dup4\n        /* \"#utility.yul\":10562:10581   */\n      add\n        /* \"#utility.yul\":10553:10559   */\n      dup10\n        /* \"#utility.yul\":10511:10582   */\n      tag_661\n      jump\t// in\n    tag_897:\n        /* \"#utility.yul\":10592:10663   */\n      tag_898\n        /* \"#utility.yul\":10658:10661   */\n      0xe0\n        /* \"#utility.yul\":10647:10656   */\n      dup4\n        /* \"#utility.yul\":10643:10662   */\n      add\n        /* \"#utility.yul\":10634:10640   */\n      dup9\n        /* \"#utility.yul\":10592:10663   */\n      tag_661\n      jump\t// in\n    tag_898:\n        /* \"#utility.yul\":10673:10746   */\n      tag_899\n        /* \"#utility.yul\":10741:10744   */\n      0x0100\n        /* \"#utility.yul\":10730:10739   */\n      dup4\n        /* \"#utility.yul\":10726:10745   */\n      add\n        /* \"#utility.yul\":10717:10723   */\n      dup8\n        /* \"#utility.yul\":10673:10746   */\n      tag_643\n      jump\t// in\n    tag_899:\n        /* \"#utility.yul\":10756:10829   */\n      tag_900\n        /* \"#utility.yul\":10824:10827   */\n      0x0120\n        /* \"#utility.yul\":10813:10822   */\n      dup4\n        /* \"#utility.yul\":10809:10828   */\n      add\n        /* \"#utility.yul\":10800:10806   */\n      dup7\n        /* \"#utility.yul\":10756:10829   */\n      tag_643\n      jump\t// in\n    tag_900:\n        /* \"#utility.yul\":10839:10913   */\n      tag_901\n        /* \"#utility.yul\":10908:10911   */\n      0x0140\n        /* \"#utility.yul\":10897:10906   */\n      dup4\n        /* \"#utility.yul\":10893:10912   */\n      add\n        /* \"#utility.yul\":10883:10890   */\n      dup6\n        /* \"#utility.yul\":10839:10913   */\n      tag_643\n      jump\t// in\n    tag_901:\n        /* \"#utility.yul\":10923:10997   */\n      tag_902\n        /* \"#utility.yul\":10992:10995   */\n      0x0160\n        /* \"#utility.yul\":10981:10990   */\n      dup4\n        /* \"#utility.yul\":10977:10996   */\n      add\n        /* \"#utility.yul\":10967:10974   */\n      dup5\n        /* \"#utility.yul\":10923:10997   */\n      tag_659\n      jump\t// in\n    tag_902:\n        /* \"#utility.yul\":9456:11004   */\n      swap14\n      swap13\n      pop\n      pop\n      pop\n      pop\n      pop\n      pop\n      pop\n      pop\n      pop\n      pop\n      pop\n      pop\n      pop\n      jump\t// out\n        /* \"#utility.yul\":11010:11339   */\n    tag_62:\n        /* \"#utility.yul\":11069:11075   */\n      0x00\n        /* \"#utility.yul\":11118:11120   */\n      0x20\n        /* \"#utility.yul\":11106:11115   */\n      dup3\n        /* \"#utility.yul\":11097:11104   */\n      dup5\n        /* \"#utility.yul\":11093:11116   */\n      sub\n        /* \"#utility.yul\":11089:11121   */\n      slt\n        /* \"#utility.yul\":11086:11205   */\n      iszero\n      tag_904\n      jumpi\n        /* \"#utility.yul\":11124:11203   */\n      tag_905\n      tag_626\n      jump\t// in\n    tag_905:\n        /* \"#utility.yul\":11086:11205   */\n    tag_904:\n        /* \"#utility.yul\":11244:11245   */\n      0x00\n        /* \"#utility.yul\":11269:11322   */\n      tag_906\n        /* \"#utility.yul\":11314:11321   */\n      dup5\n        /* \"#utility.yul\":11305:11311   */\n      dup3\n        /* \"#utility.yul\":11294:11303   */\n      dup6\n        /* \"#utility.yul\":11290:11312   */\n      add\n        /* \"#utility.yul\":11269:11322   */\n      tag_641\n      jump\t// in\n    tag_906:\n        /* \"#utility.yul\":11259:11322   */\n      swap2\n      pop\n        /* \"#utility.yul\":11215:11332   */\n      pop\n        /* \"#utility.yul\":11010:11339   */\n      swap3\n      swap2\n      pop\n      pop\n      jump\t// out\n        /* \"#utility.yul\":11345:12179   */\n    tag_72:\n        /* \"#utility.yul\":11433:11439   */\n      0x00\n        /* \"#utility.yul\":11441:11447   */\n      dup1\n        /* \"#utility.yul\":11490:11492   */\n      0x40\n        /* \"#utility.yul\":11478:11487   */\n      dup4\n        /* \"#utility.yul\":11469:11476   */\n      dup6\n        /* \"#utility.yul\":11465:11488   */\n      sub\n        /* \"#utility.yul\":11461:11493   */\n      slt\n        /* \"#utility.yul\":11458:11577   */\n      iszero\n      tag_908\n      jumpi\n        /* \"#utility.yul\":11496:11575   */\n      tag_909\n      tag_626\n      jump\t// in\n    tag_909:\n        /* \"#utility.yul\":11458:11577   */\n    tag_908:\n        /* \"#utility.yul\":11644:11645   */\n      0x00\n        /* \"#utility.yul\":11633:11642   */\n      dup4\n        /* \"#utility.yul\":11629:11646   */\n      add\n        /* \"#utility.yul\":11616:11647   */\n      calldataload\n        /* \"#utility.yul\":11674:11692   */\n      0xffffffffffffffff\n        /* \"#utility.yul\":11666:11672   */\n      dup2\n        /* \"#utility.yul\":11663:11693   */\n      gt\n        /* \"#utility.yul\":11660:11777   */\n      iszero\n      tag_910\n      jumpi\n        /* \"#utility.yul\":11696:11775   */\n      tag_911\n      tag_627\n      jump\t// in\n    tag_911:\n        /* \"#utility.yul\":11660:11777   */\n    tag_910:\n        /* \"#utility.yul\":11801:11864   */\n      tag_912\n        /* \"#utility.yul\":11856:11863   */\n      dup6\n        /* \"#utility.yul\":11847:11853   */\n      dup3\n        /* \"#utility.yul\":11836:11845   */\n      dup7\n        /* \"#utility.yul\":11832:11854   */\n      add\n        /* \"#utility.yul\":11801:11864   */\n      tag_637\n      jump\t// in\n    tag_912:\n        /* \"#utility.yul\":11791:11864   */\n      swap3\n      pop\n        /* \"#utility.yul\":11587:11874   */\n      pop\n        /* \"#utility.yul\":11941:11943   */\n      0x20\n        /* \"#utility.yul\":11930:11939   */\n      dup4\n        /* \"#utility.yul\":11926:11944   */\n      add\n        /* \"#utility.yul\":11913:11945   */\n      calldataload\n        /* \"#utility.yul\":11972:11990   */\n      0xffffffffffffffff\n        /* \"#utility.yul\":11964:11970   */\n      dup2\n        /* \"#utility.yul\":11961:11991   */\n      gt\n        /* \"#utility.yul\":11958:12075   */\n      iszero\n      tag_913\n      jumpi\n        /* \"#utility.yul\":11994:12073   */\n      tag_914\n      tag_627\n      jump\t// in\n    tag_914:\n        /* \"#utility.yul\":11958:12075   */\n    tag_913:\n        /* \"#utility.yul\":12099:12162   */\n      tag_915\n        /* \"#utility.yul\":12154:12161   */\n      dup6\n        /* \"#utility.yul\":12145:12151   */\n      dup3\n        /* \"#utility.yul\":12134:12143   */\n      dup7\n        /* \"#utility.yul\":12130:12152   */\n      add\n        /* \"#utility.yul\":12099:12162   */\n      tag_637\n      jump\t// in\n    tag_915:\n        /* \"#utility.yul\":12089:12162   */\n      swap2\n      pop\n        /* \"#utility.yul\":11884:12172   */\n      pop\n        /* \"#utility.yul\":11345:12179   */\n      swap3\n      pop\n      swap3\n      swap1\n      pop\n      jump\t// out\n        /* \"#utility.yul\":12185:12307   */\n    tag_662:\n        /* \"#utility.yul\":12258:12282   */\n      tag_917\n        /* \"#utility.yul\":12276:12281   */\n      dup2\n        /* \"#utility.yul\":12258:12282   */\n      tag_642\n      jump\t// in\n    tag_917:\n        /* \"#utility.yul\":12251:12256   */\n      dup2\n        /* \"#utility.yul\":12248:12283   */\n      eq\n        /* \"#utility.yul\":12238:12301   */\n      tag_918\n      jumpi\n        /* \"#utility.yul\":12297:12298   */\n      0x00\n        /* \"#utility.yul\":12294:12295   */\n      dup1\n        /* \"#utility.yul\":12287:12299   */\n      revert\n        /* \"#utility.yul\":12238:12301   */\n    tag_918:\n        /* \"#utility.yul\":12185:12307   */\n      pop\n      jump\t// out\n        /* \"#utility.yul\":12313:12452   */\n    tag_663:\n        /* \"#utility.yul\":12359:12364   */\n      0x00\n        /* \"#utility.yul\":12397:12403   */\n      dup2\n        /* \"#utility.yul\":12384:12404   */\n      calldataload\n        /* \"#utility.yul\":12375:12404   */\n      swap1\n      pop\n        /* \"#utility.yul\":12413:12446   */\n      tag_920\n        /* \"#utility.yul\":12440:12445   */\n      dup2\n        /* \"#utility.yul\":12413:12446   */\n      tag_662\n      jump\t// in\n    tag_920:\n        /* \"#utility.yul\":12313:12452   */\n      swap3\n      swap2\n      pop\n      pop\n      jump\t// out\n        /* \"#utility.yul\":12458:13112   */\n    tag_76:\n        /* \"#utility.yul\":12536:12542   */\n      0x00\n        /* \"#utility.yul\":12544:12550   */\n      dup1\n        /* \"#utility.yul\":12593:12595   */\n      0x40\n        /* \"#utility.yul\":12581:12590   */\n      dup4\n        /* \"#utility.yul\":12572:12579   */\n      dup6\n        /* \"#utility.yul\":12568:12591   */\n      sub\n        /* \"#utility.yul\":12564:12596   */\n      slt\n        /* \"#utility.yul\":12561:12680   */\n      iszero\n      tag_922\n      jumpi\n        /* \"#utility.yul\":12599:12678   */\n      tag_923\n      tag_626\n      jump\t// in\n    tag_923:\n        /* \"#utility.yul\":12561:12680   */\n    tag_922:\n        /* \"#utility.yul\":12747:12748   */\n      0x00\n        /* \"#utility.yul\":12736:12745   */\n      dup4\n        /* \"#utility.yul\":12732:12749   */\n      add\n        /* \"#utility.yul\":12719:12750   */\n      calldataload\n        /* \"#utility.yul\":12777:12795   */\n      0xffffffffffffffff\n        /* \"#utility.yul\":12769:12775   */\n      dup2\n        /* \"#utility.yul\":12766:12796   */\n      gt\n        /* \"#utility.yul\":12763:12880   */\n      iszero\n      tag_924\n      jumpi\n        /* \"#utility.yul\":12799:12878   */\n      tag_925\n      tag_627\n      jump\t// in\n    tag_925:\n        /* \"#utility.yul\":12763:12880   */\n    tag_924:\n        /* \"#utility.yul\":12904:12967   */\n      tag_926\n        /* \"#utility.yul\":12959:12966   */\n      dup6\n        /* \"#utility.yul\":12950:12956   */\n      dup3\n        /* \"#utility.yul\":12939:12948   */\n      dup7\n        /* \"#utility.yul\":12935:12957   */\n      add\n        /* \"#utility.yul\":12904:12967   */\n      tag_637\n      jump\t// in\n    tag_926:\n        /* \"#utility.yul\":12894:12967   */\n      swap3\n      pop\n        /* \"#utility.yul\":12690:12977   */\n      pop\n        /* \"#utility.yul\":13016:13018   */\n      0x20\n        /* \"#utility.yul\":13042:13095   */\n      tag_927\n        /* \"#utility.yul\":13087:13094   */\n      dup6\n        /* \"#utility.yul\":13078:13084   */\n      dup3\n        /* \"#utility.yul\":13067:13076   */\n      dup7\n        /* \"#utility.yul\":13063:13085   */\n      add\n        /* \"#utility.yul\":13042:13095   */\n      tag_663\n      jump\t// in\n    tag_927:\n        /* \"#utility.yul\":13032:13095   */\n      swap2\n      pop\n        /* \"#utility.yul\":12987:13105   */\n      pop\n        /* \"#utility.yul\":12458:13112   */\n      swap3\n      pop\n      swap3\n      swap1\n      pop\n      jump\t// out\n        /* \"#utility.yul\":13118:14243   */\n    tag_80:\n        /* \"#utility.yul\":13224:13230   */\n      0x00\n        /* \"#utility.yul\":13232:13238   */\n      dup1\n        /* \"#utility.yul\":13240:13246   */\n      0x00\n        /* \"#utility.yul\":13248:13254   */\n      dup1\n        /* \"#utility.yul\":13297:13300   */\n      0x80\n        /* \"#utility.yul\":13285:13294   */\n      dup6\n        /* \"#utility.yul\":13276:13283   */\n      dup8\n        /* \"#utility.yul\":13272:13295   */\n      sub\n        /* \"#utility.yul\":13268:13301   */\n      slt\n        /* \"#utility.yul\":13265:13385   */\n      iszero\n      tag_929\n      jumpi\n        /* \"#utility.yul\":13304:13383   */\n      tag_930\n      tag_626\n      jump\t// in\n    tag_930:\n        /* \"#utility.yul\":13265:13385   */\n    tag_929:\n        /* \"#utility.yul\":13452:13453   */\n      0x00\n        /* \"#utility.yul\":13441:13450   */\n      dup6\n        /* \"#utility.yul\":13437:13454   */\n      add\n        /* \"#utility.yul\":13424:13455   */\n      calldataload\n        /* \"#utility.yul\":13482:13500   */\n      0xffffffffffffffff\n        /* \"#utility.yul\":13474:13480   */\n      dup2\n        /* \"#utility.yul\":13471:13501   */\n      gt\n        /* \"#utility.yul\":13468:13585   */\n      iszero\n      tag_931\n      jumpi\n        /* \"#utility.yul\":13504:13583   */\n      tag_932\n      tag_627\n      jump\t// in\n    tag_932:\n        /* \"#utility.yul\":13468:13585   */\n    tag_931:\n        /* \"#utility.yul\":13609:13672   */\n      tag_933\n        /* \"#utility.yul\":13664:13671   */\n      dup8\n        /* \"#utility.yul\":13655:13661   */\n      dup3\n        /* \"#utility.yul\":13644:13653   */\n      dup9\n        /* \"#utility.yul\":13640:13662   */\n      add\n        /* \"#utility.yul\":13609:13672   */\n      tag_637\n      jump\t// in\n    tag_933:\n        /* \"#utility.yul\":13599:13672   */\n      swap5\n      pop\n        /* \"#utility.yul\":13395:13682   */\n      pop\n        /* \"#utility.yul\":13721:13723   */\n      0x20\n        /* \"#utility.yul\":13747:13800   */\n      tag_934\n        /* \"#utility.yul\":13792:13799   */\n      dup8\n        /* \"#utility.yul\":13783:13789   */\n      dup3\n        /* \"#utility.yul\":13772:13781   */\n      dup9\n        /* \"#utility.yul\":13768:13790   */\n      add\n        /* \"#utility.yul\":13747:13800   */\n      tag_641\n      jump\t// in\n    tag_934:\n        /* \"#utility.yul\":13737:13800   */\n      swap4\n      pop\n        /* \"#utility.yul\":13692:13810   */\n      pop\n        /* \"#utility.yul\":13877:13879   */\n      0x40\n        /* \"#utility.yul\":13866:13875   */\n      dup6\n        /* \"#utility.yul\":13862:13880   */\n      add\n        /* \"#utility.yul\":13849:13881   */\n      calldataload\n        /* \"#utility.yul\":13908:13926   */\n      0xffffffffffffffff\n        /* \"#utility.yul\":13900:13906   */\n      dup2\n        /* \"#utility.yul\":13897:13927   */\n      gt\n        /* \"#utility.yul\":13894:14011   */\n      iszero\n      tag_935\n      jumpi\n        /* \"#utility.yul\":13930:14009   */\n      tag_936\n      tag_627\n      jump\t// in\n    tag_936:\n        /* \"#utility.yul\":13894:14011   */\n    tag_935:\n        /* \"#utility.yul\":14035:14098   */\n      tag_937\n        /* \"#utility.yul\":14090:14097   */\n      dup8\n        /* \"#utility.yul\":14081:14087   */\n      dup3\n        /* \"#utility.yul\":14070:14079   */\n      dup9\n        /* \"#utility.yul\":14066:14088   */\n      add\n        /* \"#utility.yul\":14035:14098   */\n      tag_637\n      jump\t// in\n    tag_937:\n        /* \"#utility.yul\":14025:14098   */\n      swap3\n      pop\n        /* \"#utility.yul\":13820:14108   */\n      pop\n        /* \"#utility.yul\":14147:14149   */\n      0x60\n        /* \"#utility.yul\":14173:14226   */\n      tag_938\n        /* \"#utility.yul\":14218:14225   */\n      dup8\n        /* \"#utility.yul\":14209:14215   */\n      dup3\n        /* \"#utility.yul\":14198:14207   */\n      dup9\n        /* \"#utility.yul\":14194:14216   */\n      add\n        /* \"#utility.yul\":14173:14226   */\n      tag_663\n      jump\t// in\n    tag_938:\n        /* \"#utility.yul\":14163:14226   */\n      swap2\n      pop\n        /* \"#utility.yul\":14118:14236   */\n      pop\n        /* \"#utility.yul\":13118:14243   */\n      swap3\n      swap6\n      swap2\n      swap5\n      pop\n      swap3\n      pop\n      jump\t// out\n        /* \"#utility.yul\":14249:14471   */\n    tag_85:\n        /* \"#utility.yul\":14342:14346   */\n      0x00\n        /* \"#utility.yul\":14380:14382   */\n      0x20\n        /* \"#utility.yul\":14369:14378   */\n      dup3\n        /* \"#utility.yul\":14365:14383   */\n      add\n        /* \"#utility.yul\":14357:14383   */\n      swap1\n      pop\n        /* \"#utility.yul\":14393:14464   */\n      tag_940\n        /* \"#utility.yul\":14461:14462   */\n      0x00\n        /* \"#utility.yul\":14450:14459   */\n      dup4\n        /* \"#utility.yul\":14446:14463   */\n      add\n        /* \"#utility.yul\":14437:14443   */\n      dup5\n        /* \"#utility.yul\":14393:14464   */\n      tag_659\n      jump\t// in\n    tag_940:\n        /* \"#utility.yul\":14249:14471   */\n      swap3\n      swap2\n      pop\n      pop\n      jump\t// out\n        /* \"#utility.yul\":14477:14695   */\n    tag_89:\n        /* \"#utility.yul\":14568:14572   */\n      0x00\n        /* \"#utility.yul\":14606:14608   */\n      0x20\n        /* \"#utility.yul\":14595:14604   */\n      dup3\n        /* \"#utility.yul\":14591:14609   */\n      add\n        /* \"#utility.yul\":14583:14609   */\n      swap1\n      pop\n        /* \"#utility.yul\":14619:14688   */\n      tag_942\n        /* \"#utility.yul\":14685:14686   */\n      0x00\n        /* \"#utility.yul\":14674:14683   */\n      dup4\n        /* \"#utility.yul\":14670:14687   */\n      add\n        /* \"#utility.yul\":14661:14667   */\n      dup5\n        /* \"#utility.yul\":14619:14688   */\n      tag_661\n      jump\t// in\n    tag_942:\n        /* \"#utility.yul\":14477:14695   */\n      swap3\n      swap2\n      pop\n      pop\n      jump\t// out\n        /* \"#utility.yul\":14701:15680   */\n    tag_98:\n        /* \"#utility.yul\":14798:14804   */\n      0x00\n        /* \"#utility.yul\":14806:14812   */\n      dup1\n        /* \"#utility.yul\":14814:14820   */\n      0x00\n        /* \"#utility.yul\":14863:14865   */\n      0x60\n        /* \"#utility.yul\":14851:14860   */\n      dup5\n        /* \"#utility.yul\":14842:14849   */\n      dup7\n        /* \"#utility.yul\":14838:14861   */\n      sub\n        /* \"#utility.yul\":14834:14866   */\n      slt\n        /* \"#utility.yul\":14831:14950   */\n      iszero\n      tag_944\n      jumpi\n        /* \"#utility.yul\":14869:14948   */\n      tag_945\n      tag_626\n      jump\t// in\n    tag_945:\n        /* \"#utility.yul\":14831:14950   */\n    tag_944:\n        /* \"#utility.yul\":15017:15018   */\n      0x00\n        /* \"#utility.yul\":15006:15015   */\n      dup5\n        /* \"#utility.yul\":15002:15019   */\n      add\n        /* \"#utility.yul\":14989:15020   */\n      calldataload\n        /* \"#utility.yul\":15047:15065   */\n      0xffffffffffffffff\n        /* \"#utility.yul\":15039:15045   */\n      dup2\n        /* \"#utility.yul\":15036:15066   */\n      gt\n        /* \"#utility.yul\":15033:15150   */\n      iszero\n      tag_946\n      jumpi\n        /* \"#utility.yul\":15069:15148   */\n      tag_947\n      tag_627\n      jump\t// in\n    tag_947:\n        /* \"#utility.yul\":15033:15150   */\n    tag_946:\n        /* \"#utility.yul\":15174:15237   */\n      tag_948\n        /* \"#utility.yul\":15229:15236   */\n      dup7\n        /* \"#utility.yul\":15220:15226   */\n      dup3\n        /* \"#utility.yul\":15209:15218   */\n      dup8\n        /* \"#utility.yul\":15205:15227   */\n      add\n        /* \"#utility.yul\":15174:15237   */\n      tag_637\n      jump\t// in\n    tag_948:\n        /* \"#utility.yul\":15164:15237   */\n      swap4\n      pop\n        /* \"#utility.yul\":14960:15247   */\n      pop\n        /* \"#utility.yul\":15314:15316   */\n      0x20\n        /* \"#utility.yul\":15303:15312   */\n      dup5\n        /* \"#utility.yul\":15299:15317   */\n      add\n        /* \"#utility.yul\":15286:15318   */\n      calldataload\n        /* \"#utility.yul\":15345:15363   */\n      0xffffffffffffffff\n        /* \"#utility.yul\":15337:15343   */\n      dup2\n        /* \"#utility.yul\":15334:15364   */\n      gt\n        /* \"#utility.yul\":15331:15448   */\n      iszero\n      tag_949\n      jumpi\n        /* \"#utility.yul\":15367:15446   */\n      tag_950\n      tag_627\n      jump\t// in\n    tag_950:\n        /* \"#utility.yul\":15331:15448   */\n    tag_949:\n        /* \"#utility.yul\":15472:15535   */\n      tag_951\n        /* \"#utility.yul\":15527:15534   */\n      dup7\n        /* \"#utility.yul\":15518:15524   */\n      dup3\n        /* \"#utility.yul\":15507:15516   */\n      dup8\n        /* \"#utility.yul\":15503:15525   */\n      add\n        /* \"#utility.yul\":15472:15535   */\n      tag_637\n      jump\t// in\n    tag_951:\n        /* \"#utility.yul\":15462:15535   */\n      swap3\n      pop\n        /* \"#utility.yul\":15257:15545   */\n      pop\n        /* \"#utility.yul\":15584:15586   */\n      0x40\n        /* \"#utility.yul\":15610:15663   */\n      tag_952\n        /* \"#utility.yul\":15655:15662   */\n      dup7\n        /* \"#utility.yul\":15646:15652   */\n      dup3\n        /* \"#utility.yul\":15635:15644   */\n      dup8\n        /* \"#utility.yul\":15631:15653   */\n      add\n        /* \"#utility.yul\":15610:15663   */\n      tag_663\n      jump\t// in\n    tag_952:\n        /* \"#utility.yul\":15600:15663   */\n      swap2\n      pop\n        /* \"#utility.yul\":15555:15673   */\n      pop\n        /* \"#utility.yul\":14701:15680   */\n      swap3\n      pop\n      swap3\n      pop\n      swap3\n      jump\t// out\n        /* \"#utility.yul\":15686:15806   */\n    tag_664:\n        /* \"#utility.yul\":15758:15781   */\n      tag_954\n        /* \"#utility.yul\":15775:15780   */\n      dup2\n        /* \"#utility.yul\":15758:15781   */\n      tag_660\n      jump\t// in\n    tag_954:\n        /* \"#utility.yul\":15751:15756   */\n      dup2\n        /* \"#utility.yul\":15748:15782   */\n      eq\n        /* \"#utility.yul\":15738:15800   */\n      tag_955\n      jumpi\n        /* \"#utility.yul\":15796:15797   */\n      0x00\n        /* \"#utility.yul\":15793:15794   */\n      dup1\n        /* \"#utility.yul\":15786:15798   */\n      revert\n        /* \"#utility.yul\":15738:15800   */\n    tag_955:\n        /* \"#utility.yul\":15686:15806   */\n      pop\n      jump\t// out\n        /* \"#utility.yul\":15812:15949   */\n    tag_665:\n        /* \"#utility.yul\":15857:15862   */\n      0x00\n        /* \"#utility.yul\":15895:15901   */\n      dup2\n        /* \"#utility.yul\":15882:15902   */\n      calldataload\n        /* \"#utility.yul\":15873:15902   */\n      swap1\n      pop\n        /* \"#utility.yul\":15911:15943   */\n      tag_957\n        /* \"#utility.yul\":15937:15942   */\n      dup2\n        /* \"#utility.yul\":15911:15943   */\n      tag_664\n      jump\t// in\n    tag_957:\n        /* \"#utility.yul\":15812:15949   */\n      swap3\n      swap2\n      pop\n      pop\n      jump\t// out\n        /* \"#utility.yul\":15955:17662   */\n    tag_102:\n        /* \"#utility.yul\":16096:16102   */\n      0x00\n        /* \"#utility.yul\":16104:16110   */\n      dup1\n        /* \"#utility.yul\":16112:16118   */\n      0x00\n        /* \"#utility.yul\":16120:16126   */\n      dup1\n        /* \"#utility.yul\":16128:16134   */\n      0x00\n        /* \"#utility.yul\":16136:16142   */\n      dup1\n        /* \"#utility.yul\":16144:16150   */\n      0x00\n        /* \"#utility.yul\":16152:16158   */\n      dup1\n        /* \"#utility.yul\":16201:16204   */\n      0x0100\n        /* \"#utility.yul\":16189:16198   */\n      dup10\n        /* \"#utility.yul\":16180:16187   */\n      dup12\n        /* \"#utility.yul\":16176:16199   */\n      sub\n        /* \"#utility.yul\":16172:16205   */\n      slt\n        /* \"#utility.yul\":16169:16289   */\n      iszero\n      tag_959\n      jumpi\n        /* \"#utility.yul\":16208:16287   */\n      tag_960\n      tag_626\n      jump\t// in\n    tag_960:\n        /* \"#utility.yul\":16169:16289   */\n    tag_959:\n        /* \"#utility.yul\":16356:16357   */\n      0x00\n        /* \"#utility.yul\":16345:16354   */\n      dup10\n        /* \"#utility.yul\":16341:16358   */\n      add\n        /* \"#utility.yul\":16328:16359   */\n      calldataload\n        /* \"#utility.yul\":16386:16404   */\n      0xffffffffffffffff\n        /* \"#utility.yul\":16378:16384   */\n      dup2\n        /* \"#utility.yul\":16375:16405   */\n      gt\n        /* \"#utility.yul\":16372:16489   */\n      iszero\n      tag_961\n      jumpi\n        /* \"#utility.yul\":16408:16487   */\n      tag_962\n      tag_627\n      jump\t// in\n    tag_962:\n        /* \"#utility.yul\":16372:16489   */\n    tag_961:\n        /* \"#utility.yul\":16513:16576   */\n      tag_963\n        /* \"#utility.yul\":16568:16575   */\n      dup12\n        /* \"#utility.yul\":16559:16565   */\n      dup3\n        /* \"#utility.yul\":16548:16557   */\n      dup13\n        /* \"#utility.yul\":16544:16566   */\n      add\n        /* \"#utility.yul\":16513:16576   */\n      tag_637\n      jump\t// in\n    tag_963:\n        /* \"#utility.yul\":16503:16576   */\n      swap9\n      pop\n        /* \"#utility.yul\":16299:16586   */\n      pop\n        /* \"#utility.yul\":16653:16655   */\n      0x20\n        /* \"#utility.yul\":16642:16651   */\n      dup10\n        /* \"#utility.yul\":16638:16656   */\n      add\n        /* \"#utility.yul\":16625:16657   */\n      calldataload\n        /* \"#utility.yul\":16684:16702   */\n      0xffffffffffffffff\n        /* \"#utility.yul\":16676:16682   */\n      dup2\n        /* \"#utility.yul\":16673:16703   */\n      gt\n        /* \"#utility.yul\":16670:16787   */\n      iszero\n      tag_964\n      jumpi\n        /* \"#utility.yul\":16706:16785   */\n      tag_965\n      tag_627\n      jump\t// in\n    tag_965:\n        /* \"#utility.yul\":16670:16787   */\n    tag_964:\n        /* \"#utility.yul\":16811:16874   */\n      tag_966\n        /* \"#utility.yul\":16866:16873   */\n      dup12\n        /* \"#utility.yul\":16857:16863   */\n      dup3\n        /* \"#utility.yul\":16846:16855   */\n      dup13\n        /* \"#utility.yul\":16842:16864   */\n      add\n        /* \"#utility.yul\":16811:16874   */\n      tag_637\n      jump\t// in\n    tag_966:\n        /* \"#utility.yul\":16801:16874   */\n      swap8\n      pop\n        /* \"#utility.yul\":16596:16884   */\n      pop\n        /* \"#utility.yul\":16923:16925   */\n      0x40\n        /* \"#utility.yul\":16949:17002   */\n      tag_967\n        /* \"#utility.yul\":16994:17001   */\n      dup12\n        /* \"#utility.yul\":16985:16991   */\n      dup3\n        /* \"#utility.yul\":16974:16983   */\n      dup13\n        /* \"#utility.yul\":16970:16992   */\n      add\n        /* \"#utility.yul\":16949:17002   */\n      tag_641\n      jump\t// in\n    tag_967:\n        /* \"#utility.yul\":16939:17002   */\n      swap7\n      pop\n        /* \"#utility.yul\":16894:17012   */\n      pop\n        /* \"#utility.yul\":17051:17053   */\n      0x60\n        /* \"#utility.yul\":17077:17129   */\n      tag_968\n        /* \"#utility.yul\":17121:17128   */\n      dup12\n        /* \"#utility.yul\":17112:17118   */\n      dup3\n        /* \"#utility.yul\":17101:17110   */\n      dup13\n        /* \"#utility.yul\":17097:17119   */\n      add\n        /* \"#utility.yul\":17077:17129   */\n      tag_665\n      jump\t// in\n    tag_968:\n        /* \"#utility.yul\":17067:17129   */\n      swap6\n      pop\n        /* \"#utility.yul\":17022:17139   */\n      pop\n        /* \"#utility.yul\":17178:17181   */\n      0x80\n        /* \"#utility.yul\":17205:17258   */\n      tag_969\n        /* \"#utility.yul\":17250:17257   */\n      dup12\n        /* \"#utility.yul\":17241:17247   */\n      dup3\n        /* \"#utility.yul\":17230:17239   */\n      dup13\n        /* \"#utility.yul\":17226:17248   */\n      add\n        /* \"#utility.yul\":17205:17258   */\n      tag_663\n      jump\t// in\n    tag_969:\n        /* \"#utility.yul\":17195:17258   */\n      swap5\n      pop\n        /* \"#utility.yul\":17149:17268   */\n      pop\n        /* \"#utility.yul\":17307:17310   */\n      0xa0\n        /* \"#utility.yul\":17334:17387   */\n      tag_970\n        /* \"#utility.yul\":17379:17386   */\n      dup12\n        /* \"#utility.yul\":17370:17376   */\n      dup3\n        /* \"#utility.yul\":17359:17368   */\n      dup13\n        /* \"#utility.yul\":17355:17377   */\n      add\n        /* \"#utility.yul\":17334:17387   */\n      tag_663\n      jump\t// in\n    tag_970:\n        /* \"#utility.yul\":17324:17387   */\n      swap4\n      pop\n        /* \"#utility.yul\":17278:17397   */\n      pop\n        /* \"#utility.yul\":17436:17439   */\n      0xc0\n        /* \"#utility.yul\":17463:17516   */\n      tag_971\n        /* \"#utility.yul\":17508:17515   */\n      dup12\n        /* \"#utility.yul\":17499:17505   */\n      dup3\n        /* \"#utility.yul\":17488:17497   */\n      dup13\n        /* \"#utility.yul\":17484:17506   */\n      add\n        /* \"#utility.yul\":17463:17516   */\n      tag_663\n      jump\t// in\n    tag_971:\n        /* \"#utility.yul\":17453:17516   */\n      swap3\n      pop\n        /* \"#utility.yul\":17407:17526   */\n      pop\n        /* \"#utility.yul\":17565:17568   */\n      0xe0\n        /* \"#utility.yul\":17592:17645   */\n      tag_972\n        /* \"#utility.yul\":17637:17644   */\n      dup12\n        /* \"#utility.yul\":17628:17634   */\n      dup3\n        /* \"#utility.yul\":17617:17626   */\n      dup13\n        /* \"#utility.yul\":17613:17635   */\n      add\n        /* \"#utility.yul\":17592:17645   */\n      tag_641\n      jump\t// in\n    tag_972:\n        /* \"#utility.yul\":17582:17645   */\n      swap2\n      pop\n        /* \"#utility.yul\":17536:17655   */\n      pop\n        /* \"#utility.yul\":15955:17662   */\n      swap3\n      swap6\n      swap9\n      pop\n      swap3\n      swap6\n      swap9\n      swap1\n      swap4\n      swap7\n      pop\n      jump\t// out\n        /* \"#utility.yul\":17668:17794   */\n    tag_666:\n        /* \"#utility.yul\":17762:17763   */\n      0x04\n        /* \"#utility.yul\":17755:17760   */\n      dup2\n        /* \"#utility.yul\":17752:17764   */\n      lt\n        /* \"#utility.yul\":17742:17788   */\n      tag_974\n      jumpi\n        /* \"#utility.yul\":17768:17786   */\n      tag_975\n      tag_137\n      jump\t// in\n    tag_975:\n        /* \"#utility.yul\":17742:17788   */\n    tag_974:\n        /* \"#utility.yul\":17668:17794   */\n      pop\n      jump\t// out\n        /* \"#utility.yul\":17800:17953   */\n    tag_667:\n        /* \"#utility.yul\":17858:17865   */\n      0x00\n        /* \"#utility.yul\":17887:17892   */\n      dup2\n        /* \"#utility.yul\":17876:17892   */\n      swap1\n      pop\n        /* \"#utility.yul\":17893:17947   */\n      tag_977\n        /* \"#utility.yul\":17941:17946   */\n      dup3\n        /* \"#utility.yul\":17893:17947   */\n      tag_666\n      jump\t// in\n    tag_977:\n        /* \"#utility.yul\":17800:17953   */\n      swap2\n      swap1\n      pop\n      jump\t// out\n        /* \"#utility.yul\":17959:18112   */\n    tag_668:\n        /* \"#utility.yul\":18028:18037   */\n      0x00\n        /* \"#utility.yul\":18061:18106   */\n      tag_979\n        /* \"#utility.yul\":18100:18105   */\n      dup3\n        /* \"#utility.yul\":18061:18106   */\n      tag_667\n      jump\t// in\n    tag_979:\n        /* \"#utility.yul\":18048:18106   */\n      swap1\n      pop\n        /* \"#utility.yul\":17959:18112   */\n      swap2\n      swap1\n      pop\n      jump\t// out\n        /* \"#utility.yul\":18118:18287   */\n    tag_669:\n        /* \"#utility.yul\":18224:18280   */\n      tag_981\n        /* \"#utility.yul\":18274:18279   */\n      dup2\n        /* \"#utility.yul\":18224:18280   */\n      tag_668\n      jump\t// in\n    tag_981:\n        /* \"#utility.yul\":18219:18222   */\n      dup3\n        /* \"#utility.yul\":18212:18281   */\n      mstore\n        /* \"#utility.yul\":18118:18287   */\n      pop\n      pop\n      jump\t// out\n        /* \"#utility.yul\":18293:18402   */\n    tag_670:\n        /* \"#utility.yul\":18374:18395   */\n      tag_983\n        /* \"#utility.yul\":18389:18394   */\n      dup2\n        /* \"#utility.yul\":18374:18395   */\n      tag_648\n      jump\t// in\n    tag_983:\n        /* \"#utility.yul\":18369:18372   */\n      dup3\n        /* \"#utility.yul\":18362:18396   */\n      mstore\n        /* \"#utility.yul\":18293:18402   */\n      pop\n      pop\n      jump\t// out\n        /* \"#utility.yul\":18408:19078   */\n    tag_108:\n        /* \"#utility.yul\":18618:18622   */\n      0x00\n        /* \"#utility.yul\":18656:18659   */\n      0x80\n        /* \"#utility.yul\":18645:18654   */\n      dup3\n        /* \"#utility.yul\":18641:18660   */\n      add\n        /* \"#utility.yul\":18633:18660   */\n      swap1\n      pop\n        /* \"#utility.yul\":18670:18760   */\n      tag_985\n        /* \"#utility.yul\":18757:18758   */\n      0x00\n        /* \"#utility.yul\":18746:18755   */\n      dup4\n        /* \"#utility.yul\":18742:18759   */\n      add\n        /* \"#utility.yul\":18733:18739   */\n      dup8\n        /* \"#utility.yul\":18670:18760   */\n      tag_669\n      jump\t// in\n    tag_985:\n        /* \"#utility.yul\":18770:18836   */\n      tag_986\n        /* \"#utility.yul\":18832:18834   */\n      0x20\n        /* \"#utility.yul\":18821:18830   */\n      dup4\n        /* \"#utility.yul\":18817:18835   */\n      add\n        /* \"#utility.yul\":18808:18814   */\n      dup7\n        /* \"#utility.yul\":18770:18836   */\n      tag_670\n      jump\t// in\n    tag_986:\n        /* \"#utility.yul\":18883:18892   */\n      dup2\n        /* \"#utility.yul\":18877:18881   */\n      dup2\n        /* \"#utility.yul\":18873:18893   */\n      sub\n        /* \"#utility.yul\":18868:18870   */\n      0x40\n        /* \"#utility.yul\":18857:18866   */\n      dup4\n        /* \"#utility.yul\":18853:18871   */\n      add\n        /* \"#utility.yul\":18846:18894   */\n      mstore\n        /* \"#utility.yul\":18911:18989   */\n      tag_987\n        /* \"#utility.yul\":18984:18988   */\n      dup2\n        /* \"#utility.yul\":18975:18981   */\n      dup6\n        /* \"#utility.yul\":18911:18989   */\n      tag_658\n      jump\t// in\n    tag_987:\n        /* \"#utility.yul\":18903:18989   */\n      swap1\n      pop\n        /* \"#utility.yul\":18999:19071   */\n      tag_988\n        /* \"#utility.yul\":19067:19069   */\n      0x60\n        /* \"#utility.yul\":19056:19065   */\n      dup4\n        /* \"#utility.yul\":19052:19070   */\n      add\n        /* \"#utility.yul\":19043:19049   */\n      dup5\n        /* \"#utility.yul\":18999:19071   */\n      tag_643\n      jump\t// in\n    tag_988:\n        /* \"#utility.yul\":18408:19078   */\n      swap6\n      swap5\n      pop\n      pop\n      pop\n      pop\n      pop\n      jump\t// out\n        /* \"#utility.yul\":19084:19294   */\n    tag_128:\n        /* \"#utility.yul\":19171:19175   */\n      0x00\n        /* \"#utility.yul\":19209:19211   */\n      0x20\n        /* \"#utility.yul\":19198:19207   */\n      dup3\n        /* \"#utility.yul\":19194:19212   */\n      add\n        /* \"#utility.yul\":19186:19212   */\n      swap1\n      pop\n        /* \"#utility.yul\":19222:19287   */\n      tag_990\n        /* \"#utility.yul\":19284:19285   */\n      0x00\n        /* \"#utility.yul\":19273:19282   */\n      dup4\n        /* \"#utility.yul\":19269:19286   */\n      add\n        /* \"#utility.yul\":19260:19266   */\n      dup5\n        /* \"#utility.yul\":19222:19287   */\n      tag_670\n      jump\t// in\n    tag_990:\n        /* \"#utility.yul\":19084:19294   */\n      swap3\n      swap2\n      pop\n      pop\n      jump\t// out\n        /* \"#utility.yul\":19300:19448   */\n    tag_671:\n        /* \"#utility.yul\":19402:19413   */\n      0x00\n        /* \"#utility.yul\":19439:19442   */\n      dup2\n        /* \"#utility.yul\":19424:19442   */\n      swap1\n      pop\n        /* \"#utility.yul\":19300:19448   */\n      swap3\n      swap2\n      pop\n      pop\n      jump\t// out\n        /* \"#utility.yul\":19454:19844   */\n    tag_672:\n        /* \"#utility.yul\":19560:19563   */\n      0x00\n        /* \"#utility.yul\":19588:19627   */\n      tag_993\n        /* \"#utility.yul\":19621:19626   */\n      dup3\n        /* \"#utility.yul\":19588:19627   */\n      tag_655\n      jump\t// in\n    tag_993:\n        /* \"#utility.yul\":19643:19732   */\n      tag_994\n        /* \"#utility.yul\":19725:19731   */\n      dup2\n        /* \"#utility.yul\":19720:19723   */\n      dup6\n        /* \"#utility.yul\":19643:19732   */\n      tag_671\n      jump\t// in\n    tag_994:\n        /* \"#utility.yul\":19636:19732   */\n      swap4\n      pop\n        /* \"#utility.yul\":19741:19806   */\n      tag_995\n        /* \"#utility.yul\":19799:19805   */\n      dup2\n        /* \"#utility.yul\":19794:19797   */\n      dup6\n        /* \"#utility.yul\":19787:19791   */\n      0x20\n        /* \"#utility.yul\":19780:19785   */\n      dup7\n        /* \"#utility.yul\":19776:19792   */\n      add\n        /* \"#utility.yul\":19741:19806   */\n      tag_657\n      jump\t// in\n    tag_995:\n        /* \"#utility.yul\":19831:19837   */\n      dup1\n        /* \"#utility.yul\":19826:19829   */\n      dup5\n        /* \"#utility.yul\":19822:19838   */\n      add\n        /* \"#utility.yul\":19815:19838   */\n      swap2\n      pop\n        /* \"#utility.yul\":19564:19844   */\n      pop\n        /* \"#utility.yul\":19454:19844   */\n      swap3\n      swap2\n      pop\n      pop\n      jump\t// out\n        /* \"#utility.yul\":19850:20125   */\n    tag_139:\n        /* \"#utility.yul\":19982:19985   */\n      0x00\n        /* \"#utility.yul\":20004:20099   */\n      tag_997\n        /* \"#utility.yul\":20095:20098   */\n      dup3\n        /* \"#utility.yul\":20086:20092   */\n      dup5\n        /* \"#utility.yul\":20004:20099   */\n      tag_672\n      jump\t// in\n    tag_997:\n        /* \"#utility.yul\":19997:20099   */\n      swap2\n      pop\n        /* \"#utility.yul\":20116:20119   */\n      dup2\n        /* \"#utility.yul\":20109:20119   */\n      swap1\n      pop\n        /* \"#utility.yul\":19850:20125   */\n      swap3\n      swap2\n      pop\n      pop\n      jump\t// out\n        /* \"#utility.yul\":20131:20303   */\n    tag_673:\n        /* \"#utility.yul\":20271:20295   */\n      0x5661756c7420696e636f72726563742073746174757300000000000000000000\n        /* \"#utility.yul\":20267:20268   */\n      0x00\n        /* \"#utility.yul\":20259:20265   */\n      dup3\n        /* \"#utility.yul\":20255:20269   */\n      add\n        /* \"#utility.yul\":20248:20296   */\n      mstore\n        /* \"#utility.yul\":20131:20303   */\n      pop\n      jump\t// out\n        /* \"#utility.yul\":20309:20675   */\n    tag_674:\n        /* \"#utility.yul\":20451:20454   */\n      0x00\n        /* \"#utility.yul\":20472:20539   */\n      tag_1000\n        /* \"#utility.yul\":20536:20538   */\n      0x16\n        /* \"#utility.yul\":20531:20534   */\n      dup4\n        /* \"#utility.yul\":20472:20539   */\n      tag_656\n      jump\t// in\n    tag_1000:\n        /* \"#utility.yul\":20465:20539   */\n      swap2\n      pop\n        /* \"#utility.yul\":20548:20641   */\n      tag_1001\n        /* \"#utility.yul\":20637:20640   */\n      dup3\n        /* \"#utility.yul\":20548:20641   */\n      tag_673\n      jump\t// in\n    tag_1001:\n        /* \"#utility.yul\":20666:20668   */\n      0x20\n        /* \"#utility.yul\":20661:20664   */\n      dup3\n        /* \"#utility.yul\":20657:20669   */\n      add\n        /* \"#utility.yul\":20650:20669   */\n      swap1\n      pop\n        /* \"#utility.yul\":20309:20675   */\n      swap2\n      swap1\n      pop\n      jump\t// out\n        /* \"#utility.yul\":20681:21100   */\n    tag_150:\n        /* \"#utility.yul\":20847:20851   */\n      0x00\n        /* \"#utility.yul\":20885:20887   */\n      0x20\n        /* \"#utility.yul\":20874:20883   */\n      dup3\n        /* \"#utility.yul\":20870:20888   */\n      add\n        /* \"#utility.yul\":20862:20888   */\n      swap1\n      pop\n        /* \"#utility.yul\":20934:20943   */\n      dup2\n        /* \"#utility.yul\":20928:20932   */\n      dup2\n        /* \"#utility.yul\":20924:20944   */\n      sub\n        /* \"#utility.yul\":20920:20921   */\n      0x00\n        /* \"#utility.yul\":20909:20918   */\n      dup4\n        /* \"#utility.yul\":20905:20922   */\n      add\n        /* \"#utility.yul\":20898:20945   */\n      mstore\n        /* \"#utility.yul\":20962:21093   */\n      tag_1003\n        /* \"#utility.yul\":21088:21092   */\n      dup2\n        /* \"#utility.yul\":20962:21093   */\n      tag_674\n      jump\t// in\n    tag_1003:\n        /* \"#utility.yul\":20954:21093   */\n      swap1\n      pop\n        /* \"#utility.yul\":20681:21100   */\n      swap2\n      swap1\n      pop\n      jump\t// out\n        /* \"#utility.yul\":21106:21283   */\n    tag_675:\n        /* \"#utility.yul\":21246:21275   */\n      0x4163636f756e7420616c726561647920726567697374657265642e0000000000\n        /* \"#utility.yul\":21242:21243   */\n      0x00\n        /* \"#utility.yul\":21234:21240   */\n      dup3\n        /* \"#utility.yul\":21230:21244   */\n      add\n        /* \"#utility.yul\":21223:21276   */\n      mstore\n        /* \"#utility.yul\":21106:21283   */\n      pop\n      jump\t// out\n        /* \"#utility.yul\":21289:21655   */\n    tag_676:\n        /* \"#utility.yul\":21431:21434   */\n      0x00\n        /* \"#utility.yul\":21452:21519   */\n      tag_1006\n        /* \"#utility.yul\":21516:21518   */\n      0x1b\n        /* \"#utility.yul\":21511:21514   */\n      dup4\n        /* \"#utility.yul\":21452:21519   */\n      tag_656\n      jump\t// in\n    tag_1006:\n        /* \"#utility.yul\":21445:21519   */\n      swap2\n      pop\n        /* \"#utility.yul\":21528:21621   */\n      tag_1007\n        /* \"#utility.yul\":21617:21620   */\n      dup3\n        /* \"#utility.yul\":21528:21621   */\n      tag_675\n      jump\t// in\n    tag_1007:\n        /* \"#utility.yul\":21646:21648   */\n      0x20\n        /* \"#utility.yul\":21641:21644   */\n      dup3\n        /* \"#utility.yul\":21637:21649   */\n      add\n        /* \"#utility.yul\":21630:21649   */\n      swap1\n      pop\n        /* \"#utility.yul\":21289:21655   */\n      swap2\n      swap1\n      pop\n      jump\t// out\n        /* \"#utility.yul\":21661:22080   */\n    tag_158:\n        /* \"#utility.yul\":21827:21831   */\n      0x00\n        /* \"#utility.yul\":21865:21867   */\n      0x20\n        /* \"#utility.yul\":21854:21863   */\n      dup3\n        /* \"#utility.yul\":21850:21868   */\n      add\n        /* \"#utility.yul\":21842:21868   */\n      swap1\n      pop\n        /* \"#utility.yul\":21914:21923   */\n      dup2\n        /* \"#utility.yul\":21908:21912   */\n      dup2\n        /* \"#utility.yul\":21904:21924   */\n      sub\n        /* \"#utility.yul\":21900:21901   */\n      0x00\n        /* \"#utility.yul\":21889:21898   */\n      dup4\n        /* \"#utility.yul\":21885:21902   */\n      add\n        /* \"#utility.yul\":21878:21925   */\n      mstore\n        /* \"#utility.yul\":21942:22073   */\n      tag_1009\n        /* \"#utility.yul\":22068:22072   */\n      dup2\n        /* \"#utility.yul\":21942:22073   */\n      tag_676\n      jump\t// in\n    tag_1009:\n        /* \"#utility.yul\":21934:22073   */\n      swap1\n      pop\n        /* \"#utility.yul\":21661:22080   */\n      swap2\n      swap1\n      pop\n      jump\t// out\n        /* \"#utility.yul\":22086:22266   */\n    tag_677:\n        /* \"#utility.yul\":22134:22211   */\n      0x4e487b7100000000000000000000000000000000000000000000000000000000\n        /* \"#utility.yul\":22131:22132   */\n      0x00\n        /* \"#utility.yul\":22124:22212   */\n      mstore\n        /* \"#utility.yul\":22231:22235   */\n      0x11\n        /* \"#utility.yul\":22228:22229   */\n      0x04\n        /* \"#utility.yul\":22221:22236   */\n      mstore\n        /* \"#utility.yul\":22255:22259   */\n      0x24\n        /* \"#utility.yul\":22252:22253   */\n      0x00\n        /* \"#utility.yul\":22245:22260   */\n      revert\n        /* \"#utility.yul\":22272:22443   */\n    tag_163:\n        /* \"#utility.yul\":22310:22313   */\n      0x00\n        /* \"#utility.yul\":22333:22356   */\n      tag_1012\n        /* \"#utility.yul\":22350:22355   */\n      dup3\n        /* \"#utility.yul\":22333:22356   */\n      tag_660\n      jump\t// in\n    tag_1012:\n        /* \"#utility.yul\":22324:22356   */\n      swap2\n      pop\n        /* \"#utility.yul\":22378:22384   */\n      0xffff\n        /* \"#utility.yul\":22371:22376   */\n      dup3\n        /* \"#utility.yul\":22368:22385   */\n      sub\n        /* \"#utility.yul\":22365:22408   */\n      tag_1013\n      jumpi\n        /* \"#utility.yul\":22388:22406   */\n      tag_1014\n      tag_677\n      jump\t// in\n    tag_1014:\n        /* \"#utility.yul\":22365:22408   */\n    tag_1013:\n        /* \"#utility.yul\":22435:22436   */\n      0x01\n        /* \"#utility.yul\":22428:22433   */\n      dup3\n        /* \"#utility.yul\":22424:22437   */\n      add\n        /* \"#utility.yul\":22417:22437   */\n      swap1\n      pop\n        /* \"#utility.yul\":22272:22443   */\n      swap2\n      swap1\n      pop\n      jump\t// out\n        /* \"#utility.yul\":22449:22629   */\n    tag_678:\n        /* \"#utility.yul\":22497:22574   */\n      0x4e487b7100000000000000000000000000000000000000000000000000000000\n        /* \"#utility.yul\":22494:22495   */\n      0x00\n        /* \"#utility.yul\":22487:22575   */\n      mstore\n        /* \"#utility.yul\":22594:22598   */\n      0x22\n        /* \"#utility.yul\":22591:22592   */\n      0x04\n        /* \"#utility.yul\":22584:22599   */\n      mstore\n        /* \"#utility.yul\":22618:22622   */\n      0x24\n        /* \"#utility.yul\":22615:22616   */\n      0x00\n        /* \"#utility.yul\":22608:22623   */\n      revert\n        /* \"#utility.yul\":22635:22955   */\n    tag_204:\n        /* \"#utility.yul\":22679:22685   */\n      0x00\n        /* \"#utility.yul\":22716:22717   */\n      0x02\n        /* \"#utility.yul\":22710:22714   */\n      dup3\n        /* \"#utility.yul\":22706:22718   */\n      div\n        /* \"#utility.yul\":22696:22718   */\n      swap1\n      pop\n        /* \"#utility.yul\":22763:22764   */\n      0x01\n        /* \"#utility.yul\":22757:22761   */\n      dup3\n        /* \"#utility.yul\":22753:22765   */\n      and\n        /* \"#utility.yul\":22784:22802   */\n      dup1\n        /* \"#utility.yul\":22774:22855   */\n      tag_1017\n      jumpi\n        /* \"#utility.yul\":22840:22844   */\n      0x7f\n        /* \"#utility.yul\":22832:22838   */\n      dup3\n        /* \"#utility.yul\":22828:22845   */\n      and\n        /* \"#utility.yul\":22818:22845   */\n      swap2\n      pop\n        /* \"#utility.yul\":22774:22855   */\n    tag_1017:\n        /* \"#utility.yul\":22902:22904   */\n      0x20\n        /* \"#utility.yul\":22894:22900   */\n      dup3\n        /* \"#utility.yul\":22891:22905   */\n      lt\n        /* \"#utility.yul\":22871:22889   */\n      dup2\n        /* \"#utility.yul\":22868:22906   */\n      sub\n        /* \"#utility.yul\":22865:22949   */\n      tag_1018\n      jumpi\n        /* \"#utility.yul\":22921:22939   */\n      tag_1019\n      tag_678\n      jump\t// in\n    tag_1019:\n        /* \"#utility.yul\":22865:22949   */\n    tag_1018:\n        /* \"#utility.yul\":22686:22955   */\n      pop\n        /* \"#utility.yul\":22635:22955   */\n      swap2\n      swap1\n      pop\n      jump\t// out\n        /* \"#utility.yul\":22961:23102   */\n    tag_679:\n        /* \"#utility.yul\":23010:23014   */\n      0x00\n        /* \"#utility.yul\":23033:23036   */\n      dup2\n        /* \"#utility.yul\":23025:23036   */\n      swap1\n      pop\n        /* \"#utility.yul\":23056:23059   */\n      dup2\n        /* \"#utility.yul\":23053:23054   */\n      0x00\n        /* \"#utility.yul\":23046:23060   */\n      mstore\n        /* \"#utility.yul\":23090:23094   */\n      0x20\n        /* \"#utility.yul\":23087:23088   */\n      0x00\n        /* \"#utility.yul\":23077:23095   */\n      keccak256\n        /* \"#utility.yul\":23069:23095   */\n      swap1\n      pop\n        /* \"#utility.yul\":22961:23102   */\n      swap2\n      swap1\n      pop\n      jump\t// out\n        /* \"#utility.yul\":23108:23201   */\n    tag_680:\n        /* \"#utility.yul\":23145:23151   */\n      0x00\n        /* \"#utility.yul\":23192:23194   */\n      0x20\n        /* \"#utility.yul\":23187:23189   */\n      0x1f\n        /* \"#utility.yul\":23180:23185   */\n      dup4\n        /* \"#utility.yul\":23176:23190   */\n      add\n        /* \"#utility.yul\":23172:23195   */\n      div\n        /* \"#utility.yul\":23162:23195   */\n      swap1\n      pop\n        /* \"#utility.yul\":23108:23201   */\n      swap2\n      swap1\n      pop\n      jump\t// out\n        /* \"#utility.yul\":23207:23314   */\n    tag_681:\n        /* \"#utility.yul\":23251:23259   */\n      0x00\n        /* \"#utility.yul\":23301:23306   */\n      dup3\n        /* \"#utility.yul\":23295:23299   */\n      dup3\n        /* \"#utility.yul\":23291:23307   */\n      shl\n        /* \"#utility.yul\":23270:23307   */\n      swap1\n      pop\n        /* \"#utility.yul\":23207:23314   */\n      swap3\n      swap2\n      pop\n      pop\n      jump\t// out\n        /* \"#utility.yul\":23320:23713   */\n    tag_682:\n        /* \"#utility.yul\":23389:23395   */\n      0x00\n        /* \"#utility.yul\":23439:23440   */\n      0x08\n        /* \"#utility.yul\":23427:23437   */\n      dup4\n        /* \"#utility.yul\":23423:23441   */\n      mul\n        /* \"#utility.yul\":23462:23559   */\n      tag_1024\n        /* \"#utility.yul\":23492:23558   */\n      0xffffffffffffffffffffffffffffffffffffffffffffffffffffffffffffffff\n        /* \"#utility.yul\":23481:23490   */\n      dup3\n        /* \"#utility.yul\":23462:23559   */\n      tag_681\n      jump\t// in\n    tag_1024:\n        /* \"#utility.yul\":23580:23619   */\n      tag_1025\n        /* \"#utility.yul\":23610:23618   */\n      dup7\n        /* \"#utility.yul\":23599:23608   */\n      dup4\n        /* \"#utility.yul\":23580:23619   */\n      tag_681\n      jump\t// in\n    tag_1025:\n        /* \"#utility.yul\":23568:23619   */\n      swap6\n      pop\n        /* \"#utility.yul\":23652:23656   */\n      dup1\n        /* \"#utility.yul\":23648:23657   */\n      not\n        /* \"#utility.yul\":23641:23646   */\n      dup5\n        /* \"#utility.yul\":23637:23658   */\n      and\n        /* \"#utility.yul\":23628:23658   */\n      swap4\n      pop\n        /* \"#utility.yul\":23701:23705   */\n      dup1\n        /* \"#utility.yul\":23691:23699   */\n      dup7\n        /* \"#utility.yul\":23687:23706   */\n      and\n        /* \"#utility.yul\":23680:23685   */\n      dup5\n        /* \"#utility.yul\":23677:23707   */\n      or\n        /* \"#utility.yul\":23667:23707   */\n      swap3\n      pop\n        /* \"#utility.yul\":23396:23713   */\n      pop\n      pop\n        /* \"#utility.yul\":23320:23713   */\n      swap4\n      swap3\n      pop\n      pop\n      pop\n      jump\t// out\n        /* \"#utility.yul\":23719:23779   */\n    tag_683:\n        /* \"#utility.yul\":23747:23750   */\n      0x00\n        /* \"#utility.yul\":23768:23773   */\n      dup2\n        /* \"#utility.yul\":23761:23773   */\n      swap1\n      pop\n        /* \"#utility.yul\":23719:23779   */\n      swap2\n      swap1\n      pop\n      jump\t// out\n        /* \"#utility.yul\":23785:23927   */\n    tag_684:\n        /* \"#utility.yul\":23835:23844   */\n      0x00\n        /* \"#utility.yul\":23868:23921   */\n      tag_1028\n        /* \"#utility.yul\":23886:23920   */\n      tag_1029\n        /* \"#utility.yul\":23895:23919   */\n      tag_1030\n        /* \"#utility.yul\":23913:23918   */\n      dup5\n        /* \"#utility.yul\":23895:23919   */\n      tag_642\n      jump\t// in\n    tag_1030:\n        /* \"#utility.yul\":23886:23920   */\n      tag_683\n      jump\t// in\n    tag_1029:\n        /* \"#utility.yul\":23868:23921   */\n      tag_642\n      jump\t// in\n    tag_1028:\n        /* \"#utility.yul\":23855:23921   */\n      swap1\n      pop\n        /* \"#utility.yul\":23785:23927   */\n      swap2\n      swap1\n      pop\n      jump\t// out\n        /* \"#utility.yul\":23933:24008   */\n    tag_685:\n        /* \"#utility.yul\":23976:23979   */\n      0x00\n        /* \"#utility.yul\":23997:24002   */\n      dup2\n        /* \"#utility.yul\":23990:24002   */\n      swap1\n      pop\n        /* \"#utility.yul\":23933:24008   */\n      swap2\n      swap1\n      pop\n      jump\t// out\n        /* \"#utility.yul\":24014:24283   */\n    tag_686:\n        /* \"#utility.yul\":24124:24163   */\n      tag_1033\n        /* \"#utility.yul\":24155:24162   */\n      dup4\n        /* \"#utility.yul\":24124:24163   */\n      tag_684\n      jump\t// in\n    tag_1033:\n        /* \"#utility.yul\":24185:24276   */\n      tag_1034\n        /* \"#utility.yul\":24234:24275   */\n      tag_1035\n        /* \"#utility.yul\":24258:24274   */\n      dup3\n        /* \"#utility.yul\":24234:24275   */\n      tag_685\n      jump\t// in\n    tag_1035:\n        /* \"#utility.yul\":24226:24232   */\n      dup5\n        /* \"#utility.yul\":24219:24223   */\n      dup5\n        /* \"#utility.yul\":24213:24224   */\n      sload\n        /* \"#utility.yul\":24185:24276   */\n      tag_682\n      jump\t// in\n    tag_1034:\n        /* \"#utility.yul\":24179:24183   */\n      dup3\n        /* \"#utility.yul\":24172:24277   */\n      sstore\n        /* \"#utility.yul\":24090:24283   */\n      pop\n        /* \"#utility.yul\":24014:24283   */\n      pop\n      pop\n      pop\n      jump\t// out\n        /* \"#utility.yul\":24289:24362   */\n    tag_687:\n        /* \"#utility.yul\":24334:24337   */\n      0x00\n        /* \"#utility.yul\":24289:24362   */\n      swap1\n      jump\t// out\n        /* \"#utility.yul\":24368:24557   */\n    tag_688:\n        /* \"#utility.yul\":24445:24477   */\n      tag_1038\n      tag_687\n      jump\t// in\n    tag_1038:\n        /* \"#utility.yul\":24486:24551   */\n      tag_1039\n        /* \"#utility.yul\":24544:24550   */\n      dup2\n        /* \"#utility.yul\":24536:24542   */\n      dup5\n        /* \"#utility.yul\":24530:24534   */\n      dup5\n        /* \"#utility.yul\":24486:24551   */\n      tag_686\n      jump\t// in\n    tag_1039:\n        /* \"#utility.yul\":24421:24557   */\n      pop\n        /* \"#utility.yul\":24368:24557   */\n      pop\n      pop\n      jump\t// out\n        /* \"#utility.yul\":24563:24749   */\n    tag_689:\n        /* \"#utility.yul\":24623:24743   */\n    tag_1041:\n        /* \"#utility.yul\":24640:24643   */\n      dup2\n        /* \"#utility.yul\":24633:24638   */\n      dup2\n        /* \"#utility.yul\":24630:24644   */\n      lt\n        /* \"#utility.yul\":24623:24743   */\n      iszero\n      tag_1043\n      jumpi\n        /* \"#utility.yul\":24694:24733   */\n      tag_1044\n        /* \"#utility.yul\":24731:24732   */\n      0x00\n        /* \"#utility.yul\":24724:24729   */\n      dup3\n        /* \"#utility.yul\":24694:24733   */\n      tag_688\n      jump\t// in\n    tag_1044:\n        /* \"#utility.yul\":24667:24668   */\n      0x01\n        /* \"#utility.yul\":24660:24665   */\n      dup2\n        /* \"#utility.yul\":24656:24669   */\n      add\n        /* \"#utility.yul\":24647:24669   */\n      swap1\n      pop\n        /* \"#utility.yul\":24623:24743   */\n      jump(tag_1041)\n    tag_1043:\n        /* \"#utility.yul\":24563:24749   */\n      pop\n      pop\n      jump\t// out\n        /* \"#utility.yul\":24755:25298   */\n    tag_690:\n        /* \"#utility.yul\":24856:24858   */\n      0x1f\n        /* \"#utility.yul\":24851:24854   */\n      dup3\n        /* \"#utility.yul\":24848:24859   */\n      gt\n        /* \"#utility.yul\":24845:25291   */\n      iszero\n      tag_1046\n      jumpi\n        /* \"#utility.yul\":24890:24928   */\n      tag_1047\n        /* \"#utility.yul\":24922:24927   */\n      dup2\n        /* \"#utility.yul\":24890:24928   */\n      tag_679\n      jump\t// in\n    tag_1047:\n        /* \"#utility.yul\":24974:25003   */\n      tag_1048\n        /* \"#utility.yul\":24992:25002   */\n      dup5\n        /* \"#utility.yul\":24974:25003   */\n      tag_680\n      jump\t// in\n    tag_1048:\n        /* \"#utility.yul\":24964:24972   */\n      dup2\n        /* \"#utility.yul\":24960:25004   */\n      add\n        /* \"#utility.yul\":25157:25159   */\n      0x20\n        /* \"#utility.yul\":25145:25155   */\n      dup6\n        /* \"#utility.yul\":25142:25160   */\n      lt\n        /* \"#utility.yul\":25139:25188   */\n      iszero\n      tag_1049\n      jumpi\n        /* \"#utility.yul\":25178:25186   */\n      dup2\n        /* \"#utility.yul\":25163:25186   */\n      swap1\n      pop\n        /* \"#utility.yul\":25139:25188   */\n    tag_1049:\n        /* \"#utility.yul\":25201:25281   */\n      tag_1050\n        /* \"#utility.yul\":25257:25279   */\n      tag_1051\n        /* \"#utility.yul\":25275:25278   */\n      dup6\n        /* \"#utility.yul\":25257:25279   */\n      tag_680\n      jump\t// in\n    tag_1051:\n        /* \"#utility.yul\":25247:25255   */\n      dup4\n        /* \"#utility.yul\":25243:25280   */\n      add\n        /* \"#utility.yul\":25230:25241   */\n      dup3\n        /* \"#utility.yul\":25201:25281   */\n      tag_689\n      jump\t// in\n    tag_1050:\n        /* \"#utility.yul\":24860:25291   */\n      pop\n      pop\n        /* \"#utility.yul\":24845:25291   */\n    tag_1046:\n        /* \"#utility.yul\":24755:25298   */\n      pop\n      pop\n      pop\n      jump\t// out\n        /* \"#utility.yul\":25304:25421   */\n    tag_691:\n        /* \"#utility.yul\":25358:25366   */\n      0x00\n        /* \"#utility.yul\":25408:25413   */\n      dup3\n        /* \"#utility.yul\":25402:25406   */\n      dup3\n        /* \"#utility.yul\":25398:25414   */\n      shr\n        /* \"#utility.yul\":25377:25414   */\n      swap1\n      pop\n        /* \"#utility.yul\":25304:25421   */\n      swap3\n      swap2\n      pop\n      pop\n      jump\t// out\n        /* \"#utility.yul\":25427:25596   */\n    tag_692:\n        /* \"#utility.yul\":25471:25477   */\n      0x00\n        /* \"#utility.yul\":25504:25555   */\n      tag_1054\n        /* \"#utility.yul\":25552:25553   */\n      0x00\n        /* \"#utility.yul\":25548:25554   */\n      not\n        /* \"#utility.yul\":25540:25545   */\n      dup5\n        /* \"#utility.yul\":25537:25538   */\n      0x08\n        /* \"#utility.yul\":25533:25546   */\n      mul\n        /* \"#utility.yul\":25504:25555   */\n      tag_691\n      jump\t// in\n    tag_1054:\n        /* \"#utility.yul\":25500:25556   */\n      not\n        /* \"#utility.yul\":25585:25589   */\n      dup1\n        /* \"#utility.yul\":25579:25583   */\n      dup4\n        /* \"#utility.yul\":25575:25590   */\n      and\n        /* \"#utility.yul\":25565:25590   */\n      swap2\n      pop\n        /* \"#utility.yul\":25478:25596   */\n      pop\n        /* \"#utility.yul\":25427:25596   */\n      swap3\n      swap2\n      pop\n      pop\n      jump\t// out\n        /* \"#utility.yul\":25601:25896   */\n    tag_693:\n        /* \"#utility.yul\":25677:25681   */\n      0x00\n        /* \"#utility.yul\":25823:25852   */\n      tag_1056\n        /* \"#utility.yul\":25848:25851   */\n      dup4\n        /* \"#utility.yul\":25842:25846   */\n      dup4\n        /* \"#utility.yul\":25823:25852   */\n      tag_692\n      jump\t// in\n    tag_1056:\n        /* \"#utility.yul\":25815:25852   */\n      swap2\n      pop\n        /* \"#utility.yul\":25885:25888   */\n      dup3\n        /* \"#utility.yul\":25882:25883   */\n      0x02\n        /* \"#utility.yul\":25878:25889   */\n      mul\n        /* \"#utility.yul\":25872:25876   */\n      dup3\n        /* \"#utility.yul\":25869:25890   */\n      or\n        /* \"#utility.yul\":25861:25890   */\n      swap1\n      pop\n        /* \"#utility.yul\":25601:25896   */\n      swap3\n      swap2\n      pop\n      pop\n      jump\t// out\n        /* \"#utility.yul\":25901:27296   */\n    tag_168:\n        /* \"#utility.yul\":26018:26055   */\n      tag_1058\n        /* \"#utility.yul\":26051:26054   */\n      dup3\n        /* \"#utility.yul\":26018:26055   */\n      tag_655\n      jump\t// in\n    tag_1058:\n        /* \"#utility.yul\":26120:26138   */\n      0xffffffffffffffff\n        /* \"#utility.yul\":26112:26118   */\n      dup2\n        /* \"#utility.yul\":26109:26139   */\n      gt\n        /* \"#utility.yul\":26106:26162   */\n      iszero\n      tag_1059\n      jumpi\n        /* \"#utility.yul\":26142:26160   */\n      tag_1060\n      tag_631\n      jump\t// in\n    tag_1060:\n        /* \"#utility.yul\":26106:26162   */\n    tag_1059:\n        /* \"#utility.yul\":26186:26224   */\n      tag_1061\n        /* \"#utility.yul\":26218:26222   */\n      dup3\n        /* \"#utility.yul\":26212:26223   */\n      sload\n        /* \"#utility.yul\":26186:26224   */\n      tag_204\n      jump\t// in\n    tag_1061:\n        /* \"#utility.yul\":26271:26338   */\n      tag_1062\n        /* \"#utility.yul\":26331:26337   */\n      dup3\n        /* \"#utility.yul\":26323:26329   */\n      dup3\n        /* \"#utility.yul\":26317:26321   */\n      dup6\n        /* \"#utility.yul\":26271:26338   */\n      tag_690\n      jump\t// in\n    tag_1062:\n        /* \"#utility.yul\":26365:26366   */\n      0x00\n        /* \"#utility.yul\":26389:26393   */\n      0x20\n        /* \"#utility.yul\":26376:26393   */\n      swap1\n      pop\n        /* \"#utility.yul\":26421:26423   */\n      0x1f\n        /* \"#utility.yul\":26413:26419   */\n      dup4\n        /* \"#utility.yul\":26410:26424   */\n      gt\n        /* \"#utility.yul\":26438:26439   */\n      0x01\n        /* \"#utility.yul\":26433:27051   */\n      dup2\n      eq\n      tag_1064\n      jumpi\n        /* \"#utility.yul\":27095:27096   */\n      0x00\n        /* \"#utility.yul\":27112:27118   */\n      dup5\n        /* \"#utility.yul\":27109:27186   */\n      iszero\n      tag_1065\n      jumpi\n        /* \"#utility.yul\":27161:27170   */\n      dup3\n        /* \"#utility.yul\":27156:27159   */\n      dup8\n        /* \"#utility.yul\":27152:27171   */\n      add\n        /* \"#utility.yul\":27146:27172   */\n      mload\n        /* \"#utility.yul\":27137:27172   */\n      swap1\n      pop\n        /* \"#utility.yul\":27109:27186   */\n    tag_1065:\n        /* \"#utility.yul\":27212:27279   */\n      tag_1066\n        /* \"#utility.yul\":27272:27278   */\n      dup6\n        /* \"#utility.yul\":27265:27270   */\n      dup3\n        /* \"#utility.yul\":27212:27279   */\n      tag_693\n      jump\t// in\n    tag_1066:\n        /* \"#utility.yul\":27206:27210   */\n      dup7\n        /* \"#utility.yul\":27199:27280   */\n      sstore\n        /* \"#utility.yul\":27068:27290   */\n      pop\n        /* \"#utility.yul\":26403:27290   */\n      jump(tag_1063)\n        /* \"#utility.yul\":26433:27051   */\n    tag_1064:\n        /* \"#utility.yul\":26485:26489   */\n      0x1f\n        /* \"#utility.yul\":26481:26490   */\n      not\n        /* \"#utility.yul\":26473:26479   */\n      dup5\n        /* \"#utility.yul\":26469:26491   */\n      and\n        /* \"#utility.yul\":26519:26556   */\n      tag_1067\n        /* \"#utility.yul\":26551:26555   */\n      dup7\n        /* \"#utility.yul\":26519:26556   */\n      tag_679\n      jump\t// in\n    tag_1067:\n        /* \"#utility.yul\":26578:26579   */\n      0x00\n        /* \"#utility.yul\":26592:26800   */\n    tag_1068:\n        /* \"#utility.yul\":26606:26613   */\n      dup3\n        /* \"#utility.yul\":26603:26604   */\n      dup2\n        /* \"#utility.yul\":26600:26614   */\n      lt\n        /* \"#utility.yul\":26592:26800   */\n      iszero\n      tag_1070\n      jumpi\n        /* \"#utility.yul\":26685:26694   */\n      dup5\n        /* \"#utility.yul\":26680:26683   */\n      dup10\n        /* \"#utility.yul\":26676:26695   */\n      add\n        /* \"#utility.yul\":26670:26696   */\n      mload\n        /* \"#utility.yul\":26662:26668   */\n      dup3\n        /* \"#utility.yul\":26655:26697   */\n      sstore\n        /* \"#utility.yul\":26736:26737   */\n      0x01\n        /* \"#utility.yul\":26728:26734   */\n      dup3\n        /* \"#utility.yul\":26724:26738   */\n      add\n        /* \"#utility.yul\":26714:26738   */\n      swap2\n      pop\n        /* \"#utility.yul\":26783:26785   */\n      0x20\n        /* \"#utility.yul\":26772:26781   */\n      dup6\n        /* \"#utility.yul\":26768:26786   */\n      add\n        /* \"#utility.yul\":26755:26786   */\n      swap5\n      pop\n        /* \"#utility.yul\":26629:26633   */\n      0x20\n        /* \"#utility.yul\":26626:26627   */\n      dup2\n        /* \"#utility.yul\":26622:26634   */\n      add\n        /* \"#utility.yul\":26617:26634   */\n      swap1\n      pop\n        /* \"#utility.yul\":26592:26800   */\n      jump(tag_1068)\n    tag_1070:\n        /* \"#utility.yul\":26828:26834   */\n      dup7\n        /* \"#utility.yul\":26819:26826   */\n      dup4\n        /* \"#utility.yul\":26816:26835   */\n      lt\n        /* \"#utility.yul\":26813:26992   */\n      iszero\n      tag_1071\n      jumpi\n        /* \"#utility.yul\":26886:26895   */\n      dup5\n        /* \"#utility.yul\":26881:26884   */\n      dup10\n        /* \"#utility.yul\":26877:26896   */\n      add\n        /* \"#utility.yul\":26871:26897   */\n      mload\n        /* \"#utility.yul\":26929:26977   */\n      tag_1072\n        /* \"#utility.yul\":26971:26975   */\n      0x1f\n        /* \"#utility.yul\":26963:26969   */\n      dup10\n        /* \"#utility.yul\":26959:26976   */\n      and\n        /* \"#utility.yul\":26948:26957   */\n      dup3\n        /* \"#utility.yul\":26929:26977   */\n      tag_692\n      jump\t// in\n    tag_1072:\n        /* \"#utility.yul\":26921:26927   */\n      dup4\n        /* \"#utility.yul\":26914:26978   */\n      sstore\n        /* \"#utility.yul\":26836:26992   */\n      pop\n        /* \"#utility.yul\":26813:26992   */\n    tag_1071:\n        /* \"#utility.yul\":27038:27039   */\n      0x01\n        /* \"#utility.yul\":27034:27035   */\n      0x02\n        /* \"#utility.yul\":27026:27032   */\n      dup9\n        /* \"#utility.yul\":27022:27036   */\n      mul\n        /* \"#utility.yul\":27018:27040   */\n      add\n        /* \"#utility.yul\":27012:27016   */\n      dup9\n        /* \"#utility.yul\":27005:27041   */\n      sstore\n        /* \"#utility.yul\":26440:27051   */\n      pop\n      pop\n      pop\n        /* \"#utility.yul\":26403:27290   */\n    tag_1063:\n      pop\n        /* \"#utility.yul\":25993:27296   */\n      pop\n      pop\n      pop\n        /* \"#utility.yul\":25901:27296   */\n      pop\n      pop\n      jump\t// out\n        /* \"#utility.yul\":27302:27464   */\n    tag_694:\n        /* \"#utility.yul\":27442:27456   */\n      0x6163636f756e745f6f70656e0000000000000000000000000000000000000000\n        /* \"#utility.yul\":27438:27439   */\n      0x00\n        /* \"#utility.yul\":27430:27436   */\n      dup3\n        /* \"#utility.yul\":27426:27440   */\n      add\n        /* \"#utility.yul\":27419:27457   */\n      mstore\n        /* \"#utility.yul\":27302:27464   */\n      pop\n      jump\t// out\n        /* \"#utility.yul\":27470:27836   */\n    tag_695:\n        /* \"#utility.yul\":27612:27615   */\n      0x00\n        /* \"#utility.yul\":27633:27700   */\n      tag_1075\n        /* \"#utility.yul\":27697:27699   */\n      0x0c\n        /* \"#utility.yul\":27692:27695   */\n      dup4\n        /* \"#utility.yul\":27633:27700   */\n      tag_656\n      jump\t// in\n    tag_1075:\n        /* \"#utility.yul\":27626:27700   */\n      swap2\n      pop\n        /* \"#utility.yul\":27709:27802   */\n      tag_1076\n        /* \"#utility.yul\":27798:27801   */\n      dup3\n        /* \"#utility.yul\":27709:27802   */\n      tag_694\n      jump\t// in\n    tag_1076:\n        /* \"#utility.yul\":27827:27829   */\n      0x20\n        /* \"#utility.yul\":27822:27825   */\n      dup3\n        /* \"#utility.yul\":27818:27830   */\n      add\n        /* \"#utility.yul\":27811:27830   */\n      swap1\n      pop\n        /* \"#utility.yul\":27470:27836   */\n      swap2\n      swap1\n      pop\n      jump\t// out\n        /* \"#utility.yul\":27842:27982   */\n    tag_696:\n        /* \"#utility.yul\":27891:27900   */\n      0x00\n        /* \"#utility.yul\":27924:27976   */\n      tag_1078\n        /* \"#utility.yul\":27942:27975   */\n      tag_1079\n        /* \"#utility.yul\":27951:27974   */\n      tag_1080\n        /* \"#utility.yul\":27968:27973   */\n      dup5\n        /* \"#utility.yul\":27951:27974   */\n      tag_660\n      jump\t// in\n    tag_1080:\n        /* \"#utility.yul\":27942:27975   */\n      tag_683\n      jump\t// in\n    tag_1079:\n        /* \"#utility.yul\":27924:27976   */\n      tag_642\n      jump\t// in\n    tag_1078:\n        /* \"#utility.yul\":27911:27976   */\n      swap1\n      pop\n        /* \"#utility.yul\":27842:27982   */\n      swap2\n      swap1\n      pop\n      jump\t// out\n        /* \"#utility.yul\":27988:28117   */\n    tag_697:\n        /* \"#utility.yul\":28074:28110   */\n      tag_1082\n        /* \"#utility.yul\":28104:28109   */\n      dup2\n        /* \"#utility.yul\":28074:28110   */\n      tag_696\n      jump\t// in\n    tag_1082:\n        /* \"#utility.yul\":28069:28072   */\n      dup3\n        /* \"#utility.yul\":28062:28111   */\n      mstore\n        /* \"#utility.yul\":27988:28117   */\n      pop\n      pop\n      jump\t// out\n        /* \"#utility.yul\":28123:28962   */\n    tag_170:\n        /* \"#utility.yul\":28392:28396   */\n      0x00\n        /* \"#utility.yul\":28430:28433   */\n      0x80\n        /* \"#utility.yul\":28419:28428   */\n      dup3\n        /* \"#utility.yul\":28415:28434   */\n      add\n        /* \"#utility.yul\":28407:28434   */\n      swap1\n      pop\n        /* \"#utility.yul\":28480:28489   */\n      dup2\n        /* \"#utility.yul\":28474:28478   */\n      dup2\n        /* \"#utility.yul\":28470:28490   */\n      sub\n        /* \"#utility.yul\":28466:28467   */\n      0x00\n        /* \"#utility.yul\":28455:28464   */\n      dup4\n        /* \"#utility.yul\":28451:28468   */\n      add\n        /* \"#utility.yul\":28444:28491   */\n      mstore\n        /* \"#utility.yul\":28508:28639   */\n      tag_1084\n        /* \"#utility.yul\":28634:28638   */\n      dup2\n        /* \"#utility.yul\":28508:28639   */\n      tag_695\n      jump\t// in\n    tag_1084:\n        /* \"#utility.yul\":28500:28639   */\n      swap1\n      pop\n        /* \"#utility.yul\":28686:28695   */\n      dup2\n        /* \"#utility.yul\":28680:28684   */\n      dup2\n        /* \"#utility.yul\":28676:28696   */\n      sub\n        /* \"#utility.yul\":28671:28673   */\n      0x20\n        /* \"#utility.yul\":28660:28669   */\n      dup4\n        /* \"#utility.yul\":28656:28674   */\n      add\n        /* \"#utility.yul\":28649:28697   */\n      mstore\n        /* \"#utility.yul\":28714:28792   */\n      tag_1085\n        /* \"#utility.yul\":28787:28791   */\n      dup2\n        /* \"#utility.yul\":28778:28784   */\n      dup7\n        /* \"#utility.yul\":28714:28792   */\n      tag_658\n      jump\t// in\n    tag_1085:\n        /* \"#utility.yul\":28706:28792   */\n      swap1\n      pop\n        /* \"#utility.yul\":28802:28874   */\n      tag_1086\n        /* \"#utility.yul\":28870:28872   */\n      0x40\n        /* \"#utility.yul\":28859:28868   */\n      dup4\n        /* \"#utility.yul\":28855:28873   */\n      add\n        /* \"#utility.yul\":28846:28852   */\n      dup6\n        /* \"#utility.yul\":28802:28874   */\n      tag_659\n      jump\t// in\n    tag_1086:\n        /* \"#utility.yul\":28884:28955   */\n      tag_1087\n        /* \"#utility.yul\":28951:28953   */\n      0x60\n        /* \"#utility.yul\":28940:28949   */\n      dup4\n        /* \"#utility.yul\":28936:28954   */\n      add\n        /* \"#utility.yul\":28927:28933   */\n      dup5\n        /* \"#utility.yul\":28884:28955   */\n      tag_697\n      jump\t// in\n    tag_1087:\n        /* \"#utility.yul\":28123:28962   */\n      swap5\n      swap4\n      pop\n      pop\n      pop\n      pop\n      jump\t// out\n        /* \"#utility.yul\":28968:29137   */\n    tag_698:\n        /* \"#utility.yul\":29108:29129   */\n      0x4163636f756e74206e6f742062616e6e65642e00000000000000000000000000\n        /* \"#utility.yul\":29104:29105   */\n      0x00\n        /* \"#utility.yul\":29096:29102   */\n      dup3\n        /* \"#utility.yul\":29092:29106   */\n      add\n        /* \"#utility.yul\":29085:29130   */\n      mstore\n        /* \"#utility.yul\":28968:29137   */\n      pop\n      jump\t// out\n        /* \"#utility.yul\":29143:29509   */\n    tag_699:\n        /* \"#utility.yul\":29285:29288   */\n      0x00\n        /* \"#utility.yul\":29306:29373   */\n      tag_1090\n        /* \"#utility.yul\":29370:29372   */\n      0x13\n        /* \"#utility.yul\":29365:29368   */\n      dup4\n        /* \"#utility.yul\":29306:29373   */\n      tag_656\n      jump\t// in\n    tag_1090:\n        /* \"#utility.yul\":29299:29373   */\n      swap2\n      pop\n        /* \"#utility.yul\":29382:29475   */\n      tag_1091\n        /* \"#utility.yul\":29471:29474   */\n      dup3\n        /* \"#utility.yul\":29382:29475   */\n      tag_698\n      jump\t// in\n    tag_1091:\n        /* \"#utility.yul\":29500:29502   */\n      0x20\n        /* \"#utility.yul\":29495:29498   */\n      dup3\n        /* \"#utility.yul\":29491:29503   */\n      add\n        /* \"#utility.yul\":29484:29503   */\n      swap1\n      pop\n        /* \"#utility.yul\":29143:29509   */\n      swap2\n      swap1\n      pop\n      jump\t// out\n        /* \"#utility.yul\":29515:29934   */\n    tag_182:\n        /* \"#utility.yul\":29681:29685   */\n      0x00\n        /* \"#utility.yul\":29719:29721   */\n      0x20\n        /* \"#utility.yul\":29708:29717   */\n      dup3\n        /* \"#utility.yul\":29704:29722   */\n      add\n        /* \"#utility.yul\":29696:29722   */\n      swap1\n      pop\n        /* \"#utility.yul\":29768:29777   */\n      dup2\n        /* \"#utility.yul\":29762:29766   */\n      dup2\n        /* \"#utility.yul\":29758:29778   */\n      sub\n        /* \"#utility.yul\":29754:29755   */\n      0x00\n        /* \"#utility.yul\":29743:29752   */\n      dup4\n        /* \"#utility.yul\":29739:29756   */\n      add\n        /* \"#utility.yul\":29732:29779   */\n      mstore\n        /* \"#utility.yul\":29796:29927   */\n      tag_1093\n        /* \"#utility.yul\":29922:29926   */\n      dup2\n        /* \"#utility.yul\":29796:29927   */\n      tag_699\n      jump\t// in\n    tag_1093:\n        /* \"#utility.yul\":29788:29927   */\n      swap1\n      pop\n        /* \"#utility.yul\":29515:29934   */\n      swap2\n      swap1\n      pop\n      jump\t// out\n        /* \"#utility.yul\":29940:30104   */\n    tag_700:\n        /* \"#utility.yul\":30080:30096   */\n      0x6163636f756e745f756e6c6f636b000000000000000000000000000000000000\n        /* \"#utility.yul\":30076:30077   */\n      0x00\n        /* \"#utility.yul\":30068:30074   */\n      dup3\n        /* \"#utility.yul\":30064:30078   */\n      add\n        /* \"#utility.yul\":30057:30097   */\n      mstore\n        /* \"#utility.yul\":29940:30104   */\n      pop\n      jump\t// out\n        /* \"#utility.yul\":30110:30476   */\n    tag_701:\n        /* \"#utility.yul\":30252:30255   */\n      0x00\n        /* \"#utility.yul\":30273:30340   */\n      tag_1096\n        /* \"#utility.yul\":30337:30339   */\n      0x0e\n        /* \"#utility.yul\":30332:30335   */\n      dup4\n        /* \"#utility.yul\":30273:30340   */\n      tag_656\n      jump\t// in\n    tag_1096:\n        /* \"#utility.yul\":30266:30340   */\n      swap2\n      pop\n        /* \"#utility.yul\":30349:30442   */\n      tag_1097\n        /* \"#utility.yul\":30438:30441   */\n      dup3\n        /* \"#utility.yul\":30349:30442   */\n      tag_700\n      jump\t// in\n    tag_1097:\n        /* \"#utility.yul\":30467:30469   */\n      0x20\n        /* \"#utility.yul\":30462:30465   */\n      dup3\n        /* \"#utility.yul\":30458:30470   */\n      add\n        /* \"#utility.yul\":30451:30470   */\n      swap1\n      pop\n        /* \"#utility.yul\":30110:30476   */\n      swap2\n      swap1\n      pop\n      jump\t// out\n        /* \"#utility.yul\":30482:30567   */\n    tag_702:\n        /* \"#utility.yul\":30527:30534   */\n      0x00\n        /* \"#utility.yul\":30556:30561   */\n      dup2\n        /* \"#utility.yul\":30545:30561   */\n      swap1\n      pop\n        /* \"#utility.yul\":30482:30567   */\n      swap2\n      swap1\n      pop\n      jump\t// out\n        /* \"#utility.yul\":30573:30731   */\n    tag_703:\n        /* \"#utility.yul\":30631:30640   */\n      0x00\n        /* \"#utility.yul\":30664:30725   */\n      tag_1100\n        /* \"#utility.yul\":30682:30724   */\n      tag_1101\n        /* \"#utility.yul\":30691:30723   */\n      tag_1102\n        /* \"#utility.yul\":30717:30722   */\n      dup5\n        /* \"#utility.yul\":30691:30723   */\n      tag_702\n      jump\t// in\n    tag_1102:\n        /* \"#utility.yul\":30682:30724   */\n      tag_683\n      jump\t// in\n    tag_1101:\n        /* \"#utility.yul\":30664:30725   */\n      tag_642\n      jump\t// in\n    tag_1100:\n        /* \"#utility.yul\":30651:30725   */\n      swap1\n      pop\n        /* \"#utility.yul\":30573:30731   */\n      swap2\n      swap1\n      pop\n      jump\t// out\n        /* \"#utility.yul\":30737:30884   */\n    tag_704:\n        /* \"#utility.yul\":30832:30877   */\n      tag_1104\n        /* \"#utility.yul\":30871:30876   */\n      dup2\n        /* \"#utility.yul\":30832:30877   */\n      tag_703\n      jump\t// in\n    tag_1104:\n        /* \"#utility.yul\":30827:30830   */\n      dup3\n        /* \"#utility.yul\":30820:30878   */\n      mstore\n        /* \"#utility.yul\":30737:30884   */\n      pop\n      pop\n      jump\t// out\n        /* \"#utility.yul\":30890:31747   */\n    tag_187:\n        /* \"#utility.yul\":31168:31172   */\n      0x00\n        /* \"#utility.yul\":31206:31209   */\n      0x80\n        /* \"#utility.yul\":31195:31204   */\n      dup3\n        /* \"#utility.yul\":31191:31210   */\n      add\n        /* \"#utility.yul\":31183:31210   */\n      swap1\n      pop\n        /* \"#utility.yul\":31256:31265   */\n      dup2\n        /* \"#utility.yul\":31250:31254   */\n      dup2\n        /* \"#utility.yul\":31246:31266   */\n      sub\n        /* \"#utility.yul\":31242:31243   */\n      0x00\n        /* \"#utility.yul\":31231:31240   */\n      dup4\n        /* \"#utility.yul\":31227:31244   */\n      add\n        /* \"#utility.yul\":31220:31267   */\n      mstore\n        /* \"#utility.yul\":31284:31415   */\n      tag_1106\n        /* \"#utility.yul\":31410:31414   */\n      dup2\n        /* \"#utility.yul\":31284:31415   */\n      tag_701\n      jump\t// in\n    tag_1106:\n        /* \"#utility.yul\":31276:31415   */\n      swap1\n      pop\n        /* \"#utility.yul\":31462:31471   */\n      dup2\n        /* \"#utility.yul\":31456:31460   */\n      dup2\n        /* \"#utility.yul\":31452:31472   */\n      sub\n        /* \"#utility.yul\":31447:31449   */\n      0x20\n        /* \"#utility.yul\":31436:31445   */\n      dup4\n        /* \"#utility.yul\":31432:31450   */\n      add\n        /* \"#utility.yul\":31425:31473   */\n      mstore\n        /* \"#utility.yul\":31490:31568   */\n      tag_1107\n        /* \"#utility.yul\":31563:31567   */\n      dup2\n        /* \"#utility.yul\":31554:31560   */\n      dup7\n        /* \"#utility.yul\":31490:31568   */\n      tag_658\n      jump\t// in\n    tag_1107:\n        /* \"#utility.yul\":31482:31568   */\n      swap1\n      pop\n        /* \"#utility.yul\":31578:31650   */\n      tag_1108\n        /* \"#utility.yul\":31646:31648   */\n      0x40\n        /* \"#utility.yul\":31635:31644   */\n      dup4\n        /* \"#utility.yul\":31631:31649   */\n      add\n        /* \"#utility.yul\":31622:31628   */\n      dup6\n        /* \"#utility.yul\":31578:31650   */\n      tag_659\n      jump\t// in\n    tag_1108:\n        /* \"#utility.yul\":31660:31740   */\n      tag_1109\n        /* \"#utility.yul\":31736:31738   */\n      0x60\n        /* \"#utility.yul\":31725:31734   */\n      dup4\n        /* \"#utility.yul\":31721:31739   */\n      add\n        /* \"#utility.yul\":31712:31718   */\n      dup5\n        /* \"#utility.yul\":31660:31740   */\n      tag_704\n      jump\t// in\n    tag_1109:\n        /* \"#utility.yul\":30890:31747   */\n      swap5\n      swap4\n      pop\n      pop\n      pop\n      pop\n      jump\t// out\n        /* \"#utility.yul\":31753:31923   */\n    tag_705:\n        /* \"#utility.yul\":31893:31915   */\n      0x5661756c7420696e204172626974726174696f6e000000000000000000000000\n        /* \"#utility.yul\":31889:31890   */\n      0x00\n        /* \"#utility.yul\":31881:31887   */\n      dup3\n        /* \"#utility.yul\":31877:31891   */\n      add\n        /* \"#utility.yul\":31870:31916   */\n      mstore\n        /* \"#utility.yul\":31753:31923   */\n      pop\n      jump\t// out\n        /* \"#utility.yul\":31929:32295   */\n    tag_706:\n        /* \"#utility.yul\":32071:32074   */\n      0x00\n        /* \"#utility.yul\":32092:32159   */\n      tag_1112\n        /* \"#utility.yul\":32156:32158   */\n      0x14\n        /* \"#utility.yul\":32151:32154   */\n      dup4\n        /* \"#utility.yul\":32092:32159   */\n      tag_656\n      jump\t// in\n    tag_1112:\n        /* \"#utility.yul\":32085:32159   */\n      swap2\n      pop\n        /* \"#utility.yul\":32168:32261   */\n      tag_1113\n        /* \"#utility.yul\":32257:32260   */\n      dup3\n        /* \"#utility.yul\":32168:32261   */\n      tag_705\n      jump\t// in\n    tag_1113:\n        /* \"#utility.yul\":32286:32288   */\n      0x20\n        /* \"#utility.yul\":32281:32284   */\n      dup3\n        /* \"#utility.yul\":32277:32289   */\n      add\n        /* \"#utility.yul\":32270:32289   */\n      swap1\n      pop\n        /* \"#utility.yul\":31929:32295   */\n      swap2\n      swap1\n      pop\n      jump\t// out\n        /* \"#utility.yul\":32301:32720   */\n    tag_197:\n        /* \"#utility.yul\":32467:32471   */\n      0x00\n        /* \"#utility.yul\":32505:32507   */\n      0x20\n        /* \"#utility.yul\":32494:32503   */\n      dup3\n        /* \"#utility.yul\":32490:32508   */\n      add\n        /* \"#utility.yul\":32482:32508   */\n      swap1\n      pop\n        /* \"#utility.yul\":32554:32563   */\n      dup2\n        /* \"#utility.yul\":32548:32552   */\n      dup2\n        /* \"#utility.yul\":32544:32564   */\n      sub\n        /* \"#utility.yul\":32540:32541   */\n      0x00\n        /* \"#utility.yul\":32529:32538   */\n      dup4\n        /* \"#utility.yul\":32525:32542   */\n      add\n        /* \"#utility.yul\":32518:32565   */\n      mstore\n        /* \"#utility.yul\":32582:32713   */\n      tag_1115\n        /* \"#utility.yul\":32708:32712   */\n      dup2\n        /* \"#utility.yul\":32582:32713   */\n      tag_706\n      jump\t// in\n    tag_1115:\n        /* \"#utility.yul\":32574:32713   */\n      swap1\n      pop\n        /* \"#utility.yul\":32301:32720   */\n      swap2\n      swap1\n      pop\n      jump\t// out\n        /* \"#utility.yul\":32726:32898   */\n    tag_707:\n        /* \"#utility.yul\":32866:32890   */\n      0x5769746864726177206e6f7420636f6e6669726d656400000000000000000000\n        /* \"#utility.yul\":32862:32863   */\n      0x00\n        /* \"#utility.yul\":32854:32860   */\n      dup3\n        /* \"#utility.yul\":32850:32864   */\n      add\n        /* \"#utility.yul\":32843:32891   */\n      mstore\n        /* \"#utility.yul\":32726:32898   */\n      pop\n      jump\t// out\n        /* \"#utility.yul\":32904:33270   */\n    tag_708:\n        /* \"#utility.yul\":33046:33049   */\n      0x00\n        /* \"#utility.yul\":33067:33134   */\n      tag_1118\n        /* \"#utility.yul\":33131:33133   */\n      0x16\n        /* \"#utility.yul\":33126:33129   */\n      dup4\n        /* \"#utility.yul\":33067:33134   */\n      tag_656\n      jump\t// in\n    tag_1118:\n        /* \"#utility.yul\":33060:33134   */\n      swap2\n      pop\n        /* \"#utility.yul\":33143:33236   */\n      tag_1119\n        /* \"#utility.yul\":33232:33235   */\n      dup3\n        /* \"#utility.yul\":33143:33236   */\n      tag_707\n      jump\t// in\n    tag_1119:\n        /* \"#utility.yul\":33261:33263   */\n      0x20\n        /* \"#utility.yul\":33256:33259   */\n      dup3\n        /* \"#utility.yul\":33252:33264   */\n      add\n        /* \"#utility.yul\":33245:33264   */\n      swap1\n      pop\n        /* \"#utility.yul\":32904:33270   */\n      swap2\n      swap1\n      pop\n      jump\t// out\n        /* \"#utility.yul\":33276:33695   */\n    tag_223:\n        /* \"#utility.yul\":33442:33446   */\n      0x00\n        /* \"#utility.yul\":33480:33482   */\n      0x20\n        /* \"#utility.yul\":33469:33478   */\n      dup3\n        /* \"#utility.yul\":33465:33483   */\n      add\n        /* \"#utility.yul\":33457:33483   */\n      swap1\n      pop\n        /* \"#utility.yul\":33529:33538   */\n      dup2\n        /* \"#utility.yul\":33523:33527   */\n      dup2\n        /* \"#utility.yul\":33519:33539   */\n      sub\n        /* \"#utility.yul\":33515:33516   */\n      0x00\n        /* \"#utility.yul\":33504:33513   */\n      dup4\n        /* \"#utility.yul\":33500:33517   */\n      add\n        /* \"#utility.yul\":33493:33540   */\n      mstore\n        /* \"#utility.yul\":33557:33688   */\n      tag_1121\n        /* \"#utility.yul\":33683:33687   */\n      dup2\n        /* \"#utility.yul\":33557:33688   */\n      tag_708\n      jump\t// in\n    tag_1121:\n        /* \"#utility.yul\":33549:33688   */\n      swap1\n      pop\n        /* \"#utility.yul\":33276:33695   */\n      swap2\n      swap1\n      pop\n      jump\t// out\n        /* \"#utility.yul\":33701:33895   */\n    tag_230:\n        /* \"#utility.yul\":33741:33745   */\n      0x00\n        /* \"#utility.yul\":33761:33781   */\n      tag_1123\n        /* \"#utility.yul\":33779:33780   */\n      dup3\n        /* \"#utility.yul\":33761:33781   */\n      tag_642\n      jump\t// in\n    tag_1123:\n        /* \"#utility.yul\":33756:33781   */\n      swap2\n      pop\n        /* \"#utility.yul\":33795:33815   */\n      tag_1124\n        /* \"#utility.yul\":33813:33814   */\n      dup4\n        /* \"#utility.yul\":33795:33815   */\n      tag_642\n      jump\t// in\n    tag_1124:\n        /* \"#utility.yul\":33790:33815   */\n      swap3\n      pop\n        /* \"#utility.yul\":33839:33840   */\n      dup3\n        /* \"#utility.yul\":33836:33837   */\n      dup3\n        /* \"#utility.yul\":33832:33841   */\n      sub\n        /* \"#utility.yul\":33824:33841   */\n      swap1\n      pop\n        /* \"#utility.yul\":33863:33864   */\n      dup2\n        /* \"#utility.yul\":33857:33861   */\n      dup2\n        /* \"#utility.yul\":33854:33865   */\n      gt\n        /* \"#utility.yul\":33851:33888   */\n      iszero\n      tag_1125\n      jumpi\n        /* \"#utility.yul\":33868:33886   */\n      tag_1126\n      tag_677\n      jump\t// in\n    tag_1126:\n        /* \"#utility.yul\":33851:33888   */\n    tag_1125:\n        /* \"#utility.yul\":33701:33895   */\n      swap3\n      swap2\n      pop\n      pop\n      jump\t// out\n        /* \"#utility.yul\":33901:34066   */\n    tag_709:\n        /* \"#utility.yul\":34041:34058   */\n      0x77697468647261775f72656a6563740000000000000000000000000000000000\n        /* \"#utility.yul\":34037:34038   */\n      0x00\n        /* \"#utility.yul\":34029:34035   */\n      dup3\n        /* \"#utility.yul\":34025:34039   */\n      add\n        /* \"#utility.yul\":34018:34059   */\n      mstore\n        /* \"#utility.yul\":33901:34066   */\n      pop\n      jump\t// out\n        /* \"#utility.yul\":34072:34438   */\n    tag_710:\n        /* \"#utility.yul\":34214:34217   */\n      0x00\n        /* \"#utility.yul\":34235:34302   */\n      tag_1129\n        /* \"#utility.yul\":34299:34301   */\n      0x0f\n        /* \"#utility.yul\":34294:34297   */\n      dup4\n        /* \"#utility.yul\":34235:34302   */\n      tag_656\n      jump\t// in\n    tag_1129:\n        /* \"#utility.yul\":34228:34302   */\n      swap2\n      pop\n        /* \"#utility.yul\":34311:34404   */\n      tag_1130\n        /* \"#utility.yul\":34400:34403   */\n      dup3\n        /* \"#utility.yul\":34311:34404   */\n      tag_709\n      jump\t// in\n    tag_1130:\n        /* \"#utility.yul\":34429:34431   */\n      0x20\n        /* \"#utility.yul\":34424:34427   */\n      dup3\n        /* \"#utility.yul\":34420:34432   */\n      add\n        /* \"#utility.yul\":34413:34432   */\n      swap1\n      pop\n        /* \"#utility.yul\":34072:34438   */\n      swap2\n      swap1\n      pop\n      jump\t// out\n        /* \"#utility.yul\":34444:35285   */\n    tag_232:\n        /* \"#utility.yul\":34714:34718   */\n      0x00\n        /* \"#utility.yul\":34752:34755   */\n      0x80\n        /* \"#utility.yul\":34741:34750   */\n      dup3\n        /* \"#utility.yul\":34737:34756   */\n      add\n        /* \"#utility.yul\":34729:34756   */\n      swap1\n      pop\n        /* \"#utility.yul\":34802:34811   */\n      dup2\n        /* \"#utility.yul\":34796:34800   */\n      dup2\n        /* \"#utility.yul\":34792:34812   */\n      sub\n        /* \"#utility.yul\":34788:34789   */\n      0x00\n        /* \"#utility.yul\":34777:34786   */\n      dup4\n        /* \"#utility.yul\":34773:34790   */\n      add\n        /* \"#utility.yul\":34766:34813   */\n      mstore\n        /* \"#utility.yul\":34830:34961   */\n      tag_1132\n        /* \"#utility.yul\":34956:34960   */\n      dup2\n        /* \"#utility.yul\":34830:34961   */\n      tag_710\n      jump\t// in\n    tag_1132:\n        /* \"#utility.yul\":34822:34961   */\n      swap1\n      pop\n        /* \"#utility.yul\":35008:35017   */\n      dup2\n        /* \"#utility.yul\":35002:35006   */\n      dup2\n        /* \"#utility.yul\":34998:35018   */\n      sub\n        /* \"#utility.yul\":34993:34995   */\n      0x20\n        /* \"#utility.yul\":34982:34991   */\n      dup4\n        /* \"#utility.yul\":34978:34996   */\n      add\n        /* \"#utility.yul\":34971:35019   */\n      mstore\n        /* \"#utility.yul\":35036:35114   */\n      tag_1133\n        /* \"#utility.yul\":35109:35113   */\n      dup2\n        /* \"#utility.yul\":35100:35106   */\n      dup7\n        /* \"#utility.yul\":35036:35114   */\n      tag_658\n      jump\t// in\n    tag_1133:\n        /* \"#utility.yul\":35028:35114   */\n      swap1\n      pop\n        /* \"#utility.yul\":35124:35196   */\n      tag_1134\n        /* \"#utility.yul\":35192:35194   */\n      0x40\n        /* \"#utility.yul\":35181:35190   */\n      dup4\n        /* \"#utility.yul\":35177:35195   */\n      add\n        /* \"#utility.yul\":35168:35174   */\n      dup6\n        /* \"#utility.yul\":35124:35196   */\n      tag_659\n      jump\t// in\n    tag_1134:\n        /* \"#utility.yul\":35206:35278   */\n      tag_1135\n        /* \"#utility.yul\":35274:35276   */\n      0x60\n        /* \"#utility.yul\":35263:35272   */\n      dup4\n        /* \"#utility.yul\":35259:35277   */\n      add\n        /* \"#utility.yul\":35250:35256   */\n      dup5\n        /* \"#utility.yul\":35206:35278   */\n      tag_643\n      jump\t// in\n    tag_1135:\n        /* \"#utility.yul\":34444:35285   */\n      swap5\n      swap4\n      pop\n      pop\n      pop\n      pop\n      jump\t// out\n        /* \"#utility.yul\":35291:35461   */\n    tag_711:\n        /* \"#utility.yul\":35431:35453   */\n      0x5369746520617574686f72697479206f6e6c792e000000000000000000000000\n        /* \"#utility.yul\":35427:35428   */\n      0x00\n        /* \"#utility.yul\":35419:35425   */\n      dup3\n        /* \"#utility.yul\":35415:35429   */\n      add\n        /* \"#utility.yul\":35408:35454   */\n      mstore\n        /* \"#utility.yul\":35291:35461   */\n      pop\n      jump\t// out\n        /* \"#utility.yul\":35467:35833   */\n    tag_712:\n        /* \"#utility.yul\":35609:35612   */\n      0x00\n        /* \"#utility.yul\":35630:35697   */\n      tag_1138\n        /* \"#utility.yul\":35694:35696   */\n      0x14\n        /* \"#utility.yul\":35689:35692   */\n      dup4\n        /* \"#utility.yul\":35630:35697   */\n      tag_656\n      jump\t// in\n    tag_1138:\n        /* \"#utility.yul\":35623:35697   */\n      swap2\n      pop\n        /* \"#utility.yul\":35706:35799   */\n      tag_1139\n        /* \"#utility.yul\":35795:35798   */\n      dup3\n        /* \"#utility.yul\":35706:35799   */\n      tag_711\n      jump\t// in\n    tag_1139:\n        /* \"#utility.yul\":35824:35826   */\n      0x20\n        /* \"#utility.yul\":35819:35822   */\n      dup3\n        /* \"#utility.yul\":35815:35827   */\n      add\n        /* \"#utility.yul\":35808:35827   */\n      swap1\n      pop\n        /* \"#utility.yul\":35467:35833   */\n      swap2\n      swap1\n      pop\n      jump\t// out\n        /* \"#utility.yul\":35839:36258   */\n    tag_236:\n        /* \"#utility.yul\":36005:36009   */\n      0x00\n        /* \"#utility.yul\":36043:36045   */\n      0x20\n        /* \"#utility.yul\":36032:36041   */\n      dup3\n        /* \"#utility.yul\":36028:36046   */\n      add\n        /* \"#utility.yul\":36020:36046   */\n      swap1\n      pop\n        /* \"#utility.yul\":36092:36101   */\n      dup2\n        /* \"#utility.yul\":36086:36090   */\n      dup2\n        /* \"#utility.yul\":36082:36102   */\n      sub\n        /* \"#utility.yul\":36078:36079   */\n      0x00\n        /* \"#utility.yul\":36067:36076   */\n      dup4\n        /* \"#utility.yul\":36063:36080   */\n      add\n        /* \"#utility.yul\":36056:36103   */\n      mstore\n        /* \"#utility.yul\":36120:36251   */\n      tag_1141\n        /* \"#utility.yul\":36246:36250   */\n      dup2\n        /* \"#utility.yul\":36120:36251   */\n      tag_712\n      jump\t// in\n    tag_1141:\n        /* \"#utility.yul\":36112:36251   */\n      swap1\n      pop\n        /* \"#utility.yul\":35839:36258   */\n      swap2\n      swap1\n      pop\n      jump\t// out\n        /* \"#utility.yul\":36264:36435   */\n    tag_713:\n        /* \"#utility.yul\":36404:36427   */\n      0x5661756c7420696e206172626974726174696f6e2e0000000000000000000000\n        /* \"#utility.yul\":36400:36401   */\n      0x00\n        /* \"#utility.yul\":36392:36398   */\n      dup3\n        /* \"#utility.yul\":36388:36402   */\n      add\n        /* \"#utility.yul\":36381:36428   */\n      mstore\n        /* \"#utility.yul\":36264:36435   */\n      pop\n      jump\t// out\n        /* \"#utility.yul\":36441:36807   */\n    tag_714:\n        /* \"#utility.yul\":36583:36586   */\n      0x00\n        /* \"#utility.yul\":36604:36671   */\n      tag_1144\n        /* \"#utility.yul\":36668:36670   */\n      0x15\n        /* \"#utility.yul\":36663:36666   */\n      dup4\n        /* \"#utility.yul\":36604:36671   */\n      tag_656\n      jump\t// in\n    tag_1144:\n        /* \"#utility.yul\":36597:36671   */\n      swap2\n      pop\n        /* \"#utility.yul\":36680:36773   */\n      tag_1145\n        /* \"#utility.yul\":36769:36772   */\n      dup3\n        /* \"#utility.yul\":36680:36773   */\n      tag_713\n      jump\t// in\n    tag_1145:\n        /* \"#utility.yul\":36798:36800   */\n      0x20\n        /* \"#utility.yul\":36793:36796   */\n      dup3\n        /* \"#utility.yul\":36789:36801   */\n      add\n        /* \"#utility.yul\":36782:36801   */\n      swap1\n      pop\n        /* \"#utility.yul\":36441:36807   */\n      swap2\n      swap1\n      pop\n      jump\t// out\n        /* \"#utility.yul\":36813:37232   */\n    tag_248:\n        /* \"#utility.yul\":36979:36983   */\n      0x00\n        /* \"#utility.yul\":37017:37019   */\n      0x20\n        /* \"#utility.yul\":37006:37015   */\n      dup3\n        /* \"#utility.yul\":37002:37020   */\n      add\n        /* \"#utility.yul\":36994:37020   */\n      swap1\n      pop\n        /* \"#utility.yul\":37066:37075   */\n      dup2\n        /* \"#utility.yul\":37060:37064   */\n      dup2\n        /* \"#utility.yul\":37056:37076   */\n      sub\n        /* \"#utility.yul\":37052:37053   */\n      0x00\n        /* \"#utility.yul\":37041:37050   */\n      dup4\n        /* \"#utility.yul\":37037:37054   */\n      add\n        /* \"#utility.yul\":37030:37077   */\n      mstore\n        /* \"#utility.yul\":37094:37225   */\n      tag_1147\n        /* \"#utility.yul\":37220:37224   */\n      dup2\n        /* \"#utility.yul\":37094:37225   */\n      tag_714\n      jump\t// in\n    tag_1147:\n        /* \"#utility.yul\":37086:37225   */\n      swap1\n      pop\n        /* \"#utility.yul\":36813:37232   */\n      swap2\n      swap1\n      pop\n      jump\t// out\n        /* \"#utility.yul\":37238:37406   */\n    tag_715:\n        /* \"#utility.yul\":37378:37398   */\n      0x4163636f756e74206e6f7420766f7465642e0000000000000000000000000000\n        /* \"#utility.yul\":37374:37375   */\n      0x00\n        /* \"#utility.yul\":37366:37372   */\n      dup3\n        /* \"#utility.yul\":37362:37376   */\n      add\n        /* \"#utility.yul\":37355:37399   */\n      mstore\n        /* \"#utility.yul\":37238:37406   */\n      pop\n      jump\t// out\n        /* \"#utility.yul\":37412:37778   */\n    tag_716:\n        /* \"#utility.yul\":37554:37557   */\n      0x00\n        /* \"#utility.yul\":37575:37642   */\n      tag_1150\n        /* \"#utility.yul\":37639:37641   */\n      0x12\n        /* \"#utility.yul\":37634:37637   */\n      dup4\n        /* \"#utility.yul\":37575:37642   */\n      tag_656\n      jump\t// in\n    tag_1150:\n        /* \"#utility.yul\":37568:37642   */\n      swap2\n      pop\n        /* \"#utility.yul\":37651:37744   */\n      tag_1151\n        /* \"#utility.yul\":37740:37743   */\n      dup3\n        /* \"#utility.yul\":37651:37744   */\n      tag_715\n      jump\t// in\n    tag_1151:\n        /* \"#utility.yul\":37769:37771   */\n      0x20\n        /* \"#utility.yul\":37764:37767   */\n      dup3\n        /* \"#utility.yul\":37760:37772   */\n      add\n        /* \"#utility.yul\":37753:37772   */\n      swap1\n      pop\n        /* \"#utility.yul\":37412:37778   */\n      swap2\n      swap1\n      pop\n      jump\t// out\n        /* \"#utility.yul\":37784:38203   */\n    tag_252:\n        /* \"#utility.yul\":37950:37954   */\n      0x00\n        /* \"#utility.yul\":37988:37990   */\n      0x20\n        /* \"#utility.yul\":37977:37986   */\n      dup3\n        /* \"#utility.yul\":37973:37991   */\n      add\n        /* \"#utility.yul\":37965:37991   */\n      swap1\n      pop\n        /* \"#utility.yul\":38037:38046   */\n      dup2\n        /* \"#utility.yul\":38031:38035   */\n      dup2\n        /* \"#utility.yul\":38027:38047   */\n      sub\n        /* \"#utility.yul\":38023:38024   */\n      0x00\n        /* \"#utility.yul\":38012:38021   */\n      dup4\n        /* \"#utility.yul\":38008:38025   */\n      add\n        /* \"#utility.yul\":38001:38048   */\n      mstore\n        /* \"#utility.yul\":38065:38196   */\n      tag_1153\n        /* \"#utility.yul\":38191:38195   */\n      dup2\n        /* \"#utility.yul\":38065:38196   */\n      tag_716\n      jump\t// in\n    tag_1153:\n        /* \"#utility.yul\":38057:38196   */\n      swap1\n      pop\n        /* \"#utility.yul\":37784:38203   */\n      swap2\n      swap1\n      pop\n      jump\t// out\n        /* \"#utility.yul\":38209:38378   */\n    tag_256:\n        /* \"#utility.yul\":38247:38250   */\n      0x00\n        /* \"#utility.yul\":38270:38293   */\n      tag_1155\n        /* \"#utility.yul\":38287:38292   */\n      dup3\n        /* \"#utility.yul\":38270:38293   */\n      tag_660\n      jump\t// in\n    tag_1155:\n        /* \"#utility.yul\":38261:38293   */\n      swap2\n      pop\n        /* \"#utility.yul\":38315:38319   */\n      0x00\n        /* \"#utility.yul\":38308:38313   */\n      dup3\n        /* \"#utility.yul\":38305:38320   */\n      sub\n        /* \"#utility.yul\":38302:38343   */\n      tag_1156\n      jumpi\n        /* \"#utility.yul\":38323:38341   */\n      tag_1157\n      tag_677\n      jump\t// in\n    tag_1157:\n        /* \"#utility.yul\":38302:38343   */\n    tag_1156:\n        /* \"#utility.yul\":38370:38371   */\n      0x01\n        /* \"#utility.yul\":38363:38368   */\n      dup3\n        /* \"#utility.yul\":38359:38372   */\n      sub\n        /* \"#utility.yul\":38352:38372   */\n      swap1\n      pop\n        /* \"#utility.yul\":38209:38378   */\n      swap2\n      swap1\n      pop\n      jump\t// out\n        /* \"#utility.yul\":38384:38552   */\n    tag_717:\n        /* \"#utility.yul\":38524:38544   */\n      0x6172626974726174696f6e5f756e766f74650000000000000000000000000000\n        /* \"#utility.yul\":38520:38521   */\n      0x00\n        /* \"#utility.yul\":38512:38518   */\n      dup3\n        /* \"#utility.yul\":38508:38522   */\n      add\n        /* \"#utility.yul\":38501:38545   */\n      mstore\n        /* \"#utility.yul\":38384:38552   */\n      pop\n      jump\t// out\n        /* \"#utility.yul\":38558:38924   */\n    tag_718:\n        /* \"#utility.yul\":38700:38703   */\n      0x00\n        /* \"#utility.yul\":38721:38788   */\n      tag_1160\n        /* \"#utility.yul\":38785:38787   */\n      0x12\n        /* \"#utility.yul\":38780:38783   */\n      dup4\n        /* \"#utility.yul\":38721:38788   */\n      tag_656\n      jump\t// in\n    tag_1160:\n        /* \"#utility.yul\":38714:38788   */\n      swap2\n      pop\n        /* \"#utility.yul\":38797:38890   */\n      tag_1161\n        /* \"#utility.yul\":38886:38889   */\n      dup3\n        /* \"#utility.yul\":38797:38890   */\n      tag_717\n      jump\t// in\n    tag_1161:\n        /* \"#utility.yul\":38915:38917   */\n      0x20\n        /* \"#utility.yul\":38910:38913   */\n      dup3\n        /* \"#utility.yul\":38906:38918   */\n      add\n        /* \"#utility.yul\":38899:38918   */\n      swap1\n      pop\n        /* \"#utility.yul\":38558:38924   */\n      swap2\n      swap1\n      pop\n      jump\t// out\n        /* \"#utility.yul\":38930:39769   */\n    tag_258:\n        /* \"#utility.yul\":39199:39203   */\n      0x00\n        /* \"#utility.yul\":39237:39240   */\n      0x80\n        /* \"#utility.yul\":39226:39235   */\n      dup3\n        /* \"#utility.yul\":39222:39241   */\n      add\n        /* \"#utility.yul\":39214:39241   */\n      swap1\n      pop\n        /* \"#utility.yul\":39287:39296   */\n      dup2\n        /* \"#utility.yul\":39281:39285   */\n      dup2\n        /* \"#utility.yul\":39277:39297   */\n      sub\n        /* \"#utility.yul\":39273:39274   */\n      0x00\n        /* \"#utility.yul\":39262:39271   */\n      dup4\n        /* \"#utility.yul\":39258:39275   */\n      add\n        /* \"#utility.yul\":39251:39298   */\n      mstore\n        /* \"#utility.yul\":39315:39446   */\n      tag_1163\n        /* \"#utility.yul\":39441:39445   */\n      dup2\n        /* \"#utility.yul\":39315:39446   */\n      tag_718\n      jump\t// in\n    tag_1163:\n        /* \"#utility.yul\":39307:39446   */\n      swap1\n      pop\n        /* \"#utility.yul\":39493:39502   */\n      dup2\n        /* \"#utility.yul\":39487:39491   */\n      dup2\n        /* \"#utility.yul\":39483:39503   */\n      sub\n        /* \"#utility.yul\":39478:39480   */\n      0x20\n        /* \"#utility.yul\":39467:39476   */\n      dup4\n        /* \"#utility.yul\":39463:39481   */\n      add\n        /* \"#utility.yul\":39456:39504   */\n      mstore\n        /* \"#utility.yul\":39521:39599   */\n      tag_1164\n        /* \"#utility.yul\":39594:39598   */\n      dup2\n        /* \"#utility.yul\":39585:39591   */\n      dup7\n        /* \"#utility.yul\":39521:39599   */\n      tag_658\n      jump\t// in\n    tag_1164:\n        /* \"#utility.yul\":39513:39599   */\n      swap1\n      pop\n        /* \"#utility.yul\":39609:39681   */\n      tag_1165\n        /* \"#utility.yul\":39677:39679   */\n      0x40\n        /* \"#utility.yul\":39666:39675   */\n      dup4\n        /* \"#utility.yul\":39662:39680   */\n      add\n        /* \"#utility.yul\":39653:39659   */\n      dup6\n        /* \"#utility.yul\":39609:39681   */\n      tag_659\n      jump\t// in\n    tag_1165:\n        /* \"#utility.yul\":39691:39762   */\n      tag_1166\n        /* \"#utility.yul\":39758:39760   */\n      0x60\n        /* \"#utility.yul\":39747:39756   */\n      dup4\n        /* \"#utility.yul\":39743:39761   */\n      add\n        /* \"#utility.yul\":39734:39740   */\n      dup5\n        /* \"#utility.yul\":39691:39762   */\n      tag_697\n      jump\t// in\n    tag_1166:\n        /* \"#utility.yul\":38930:39769   */\n      swap5\n      swap4\n      pop\n      pop\n      pop\n      pop\n      jump\t// out\n        /* \"#utility.yul\":39775:39941   */\n    tag_719:\n        /* \"#utility.yul\":39915:39933   */\n      0x4e6f2073656c6620736572766963652e00000000000000000000000000000000\n        /* \"#utility.yul\":39911:39912   */\n      0x00\n        /* \"#utility.yul\":39903:39909   */\n      dup3\n        /* \"#utility.yul\":39899:39913   */\n      add\n        /* \"#utility.yul\":39892:39934   */\n      mstore\n        /* \"#utility.yul\":39775:39941   */\n      pop\n      jump\t// out\n        /* \"#utility.yul\":39947:40313   */\n    tag_720:\n        /* \"#utility.yul\":40089:40092   */\n      0x00\n        /* \"#utility.yul\":40110:40177   */\n      tag_1169\n        /* \"#utility.yul\":40174:40176   */\n      0x10\n        /* \"#utility.yul\":40169:40172   */\n      dup4\n        /* \"#utility.yul\":40110:40177   */\n      tag_656\n      jump\t// in\n    tag_1169:\n        /* \"#utility.yul\":40103:40177   */\n      swap2\n      pop\n        /* \"#utility.yul\":40186:40279   */\n      tag_1170\n        /* \"#utility.yul\":40275:40278   */\n      dup3\n        /* \"#utility.yul\":40186:40279   */\n      tag_719\n      jump\t// in\n    tag_1170:\n        /* \"#utility.yul\":40304:40306   */\n      0x20\n        /* \"#utility.yul\":40299:40302   */\n      dup3\n        /* \"#utility.yul\":40295:40307   */\n      add\n        /* \"#utility.yul\":40288:40307   */\n      swap1\n      pop\n        /* \"#utility.yul\":39947:40313   */\n      swap2\n      swap1\n      pop\n      jump\t// out\n        /* \"#utility.yul\":40319:40738   */\n    tag_267:\n        /* \"#utility.yul\":40485:40489   */\n      0x00\n        /* \"#utility.yul\":40523:40525   */\n      0x20\n        /* \"#utility.yul\":40512:40521   */\n      dup3\n        /* \"#utility.yul\":40508:40526   */\n      add\n        /* \"#utility.yul\":40500:40526   */\n      swap1\n      pop\n        /* \"#utility.yul\":40572:40581   */\n      dup2\n        /* \"#utility.yul\":40566:40570   */\n      dup2\n        /* \"#utility.yul\":40562:40582   */\n      sub\n        /* \"#utility.yul\":40558:40559   */\n      0x00\n        /* \"#utility.yul\":40547:40556   */\n      dup4\n        /* \"#utility.yul\":40543:40560   */\n      add\n        /* \"#utility.yul\":40536:40583   */\n      mstore\n        /* \"#utility.yul\":40600:40731   */\n      tag_1172\n        /* \"#utility.yul\":40726:40730   */\n      dup2\n        /* \"#utility.yul\":40600:40731   */\n      tag_720\n      jump\t// in\n    tag_1172:\n        /* \"#utility.yul\":40592:40731   */\n      swap1\n      pop\n        /* \"#utility.yul\":40319:40738   */\n      swap2\n      swap1\n      pop\n      jump\t// out\n        /* \"#utility.yul\":40744:40913   */\n    tag_721:\n        /* \"#utility.yul\":40884:40905   */\n      0x4163636f756e74206e6f74206163746976652e00000000000000000000000000\n        /* \"#utility.yul\":40880:40881   */\n      0x00\n        /* \"#utility.yul\":40872:40878   */\n      dup3\n        /* \"#utility.yul\":40868:40882   */\n      add\n        /* \"#utility.yul\":40861:40906   */\n      mstore\n        /* \"#utility.yul\":40744:40913   */\n      pop\n      jump\t// out\n        /* \"#utility.yul\":40919:41285   */\n    tag_722:\n        /* \"#utility.yul\":41061:41064   */\n      0x00\n        /* \"#utility.yul\":41082:41149   */\n      tag_1175\n        /* \"#utility.yul\":41146:41148   */\n      0x13\n        /* \"#utility.yul\":41141:41144   */\n      dup4\n        /* \"#utility.yul\":41082:41149   */\n      tag_656\n      jump\t// in\n    tag_1175:\n        /* \"#utility.yul\":41075:41149   */\n      swap2\n      pop\n        /* \"#utility.yul\":41158:41251   */\n      tag_1176\n        /* \"#utility.yul\":41247:41250   */\n      dup3\n        /* \"#utility.yul\":41158:41251   */\n      tag_721\n      jump\t// in\n    tag_1176:\n        /* \"#utility.yul\":41276:41278   */\n      0x20\n        /* \"#utility.yul\":41271:41274   */\n      dup3\n        /* \"#utility.yul\":41267:41279   */\n      add\n        /* \"#utility.yul\":41260:41279   */\n      swap1\n      pop\n        /* \"#utility.yul\":40919:41285   */\n      swap2\n      swap1\n      pop\n      jump\t// out\n        /* \"#utility.yul\":41291:41710   */\n    tag_290:\n        /* \"#utility.yul\":41457:41461   */\n      0x00\n        /* \"#utility.yul\":41495:41497   */\n      0x20\n        /* \"#utility.yul\":41484:41493   */\n      dup3\n        /* \"#utility.yul\":41480:41498   */\n      add\n        /* \"#utility.yul\":41472:41498   */\n      swap1\n      pop\n        /* \"#utility.yul\":41544:41553   */\n      dup2\n        /* \"#utility.yul\":41538:41542   */\n      dup2\n        /* \"#utility.yul\":41534:41554   */\n      sub\n        /* \"#utility.yul\":41530:41531   */\n      0x00\n        /* \"#utility.yul\":41519:41528   */\n      dup4\n        /* \"#utility.yul\":41515:41532   */\n      add\n        /* \"#utility.yul\":41508:41555   */\n      mstore\n        /* \"#utility.yul\":41572:41703   */\n      tag_1178\n        /* \"#utility.yul\":41698:41702   */\n      dup2\n        /* \"#utility.yul\":41572:41703   */\n      tag_722\n      jump\t// in\n    tag_1178:\n        /* \"#utility.yul\":41564:41703   */\n      swap1\n      pop\n        /* \"#utility.yul\":41291:41710   */\n      swap2\n      swap1\n      pop\n      jump\t// out\n        /* \"#utility.yul\":41716:41907   */\n    tag_293:\n        /* \"#utility.yul\":41756:41759   */\n      0x00\n        /* \"#utility.yul\":41775:41795   */\n      tag_1180\n        /* \"#utility.yul\":41793:41794   */\n      dup3\n        /* \"#utility.yul\":41775:41795   */\n      tag_642\n      jump\t// in\n    tag_1180:\n        /* \"#utility.yul\":41770:41795   */\n      swap2\n      pop\n        /* \"#utility.yul\":41809:41829   */\n      tag_1181\n        /* \"#utility.yul\":41827:41828   */\n      dup4\n        /* \"#utility.yul\":41809:41829   */\n      tag_642\n      jump\t// in\n    tag_1181:\n        /* \"#utility.yul\":41804:41829   */\n      swap3\n      pop\n        /* \"#utility.yul\":41852:41853   */\n      dup3\n        /* \"#utility.yul\":41849:41850   */\n      dup3\n        /* \"#utility.yul\":41845:41854   */\n      add\n        /* \"#utility.yul\":41838:41854   */\n      swap1\n      pop\n        /* \"#utility.yul\":41873:41876   */\n      dup1\n        /* \"#utility.yul\":41870:41871   */\n      dup3\n        /* \"#utility.yul\":41867:41877   */\n      gt\n        /* \"#utility.yul\":41864:41900   */\n      iszero\n      tag_1182\n      jumpi\n        /* \"#utility.yul\":41880:41898   */\n      tag_1183\n      tag_677\n      jump\t// in\n    tag_1183:\n        /* \"#utility.yul\":41864:41900   */\n    tag_1182:\n        /* \"#utility.yul\":41716:41907   */\n      swap3\n      swap2\n      pop\n      pop\n      jump\t// out\n        /* \"#utility.yul\":41913:42355   */\n    tag_296:\n        /* \"#utility.yul\":42062:42066   */\n      0x00\n        /* \"#utility.yul\":42100:42102   */\n      0x60\n        /* \"#utility.yul\":42089:42098   */\n      dup3\n        /* \"#utility.yul\":42085:42103   */\n      add\n        /* \"#utility.yul\":42077:42103   */\n      swap1\n      pop\n        /* \"#utility.yul\":42113:42184   */\n      tag_1185\n        /* \"#utility.yul\":42181:42182   */\n      0x00\n        /* \"#utility.yul\":42170:42179   */\n      dup4\n        /* \"#utility.yul\":42166:42183   */\n      add\n        /* \"#utility.yul\":42157:42163   */\n      dup7\n        /* \"#utility.yul\":42113:42184   */\n      tag_659\n      jump\t// in\n    tag_1185:\n        /* \"#utility.yul\":42194:42266   */\n      tag_1186\n        /* \"#utility.yul\":42262:42264   */\n      0x20\n        /* \"#utility.yul\":42251:42260   */\n      dup4\n        /* \"#utility.yul\":42247:42265   */\n      add\n        /* \"#utility.yul\":42238:42244   */\n      dup6\n        /* \"#utility.yul\":42194:42266   */\n      tag_659\n      jump\t// in\n    tag_1186:\n        /* \"#utility.yul\":42276:42348   */\n      tag_1187\n        /* \"#utility.yul\":42344:42346   */\n      0x40\n        /* \"#utility.yul\":42333:42342   */\n      dup4\n        /* \"#utility.yul\":42329:42347   */\n      add\n        /* \"#utility.yul\":42320:42326   */\n      dup5\n        /* \"#utility.yul\":42276:42348   */\n      tag_643\n      jump\t// in\n    tag_1187:\n        /* \"#utility.yul\":41913:42355   */\n      swap5\n      swap4\n      pop\n      pop\n      pop\n      pop\n      jump\t// out\n        /* \"#utility.yul\":42361:42526   */\n    tag_723:\n        /* \"#utility.yul\":42501:42518   */\n      0x6163636f756e745f6465706f7369740000000000000000000000000000000000\n        /* \"#utility.yul\":42497:42498   */\n      0x00\n        /* \"#utility.yul\":42489:42495   */\n      dup3\n        /* \"#utility.yul\":42485:42499   */\n      add\n        /* \"#utility.yul\":42478:42519   */\n      mstore\n        /* \"#utility.yul\":42361:42526   */\n      pop\n      jump\t// out\n        /* \"#utility.yul\":42532:42898   */\n    tag_724:\n        /* \"#utility.yul\":42674:42677   */\n      0x00\n        /* \"#utility.yul\":42695:42762   */\n      tag_1190\n        /* \"#utility.yul\":42759:42761   */\n      0x0f\n        /* \"#utility.yul\":42754:42757   */\n      dup4\n        /* \"#utility.yul\":42695:42762   */\n      tag_656\n      jump\t// in\n    tag_1190:\n        /* \"#utility.yul\":42688:42762   */\n      swap2\n      pop\n        /* \"#utility.yul\":42771:42864   */\n      tag_1191\n        /* \"#utility.yul\":42860:42863   */\n      dup3\n        /* \"#utility.yul\":42771:42864   */\n      tag_723\n      jump\t// in\n    tag_1191:\n        /* \"#utility.yul\":42889:42891   */\n      0x20\n        /* \"#utility.yul\":42884:42887   */\n      dup3\n        /* \"#utility.yul\":42880:42892   */\n      add\n        /* \"#utility.yul\":42873:42892   */\n      swap1\n      pop\n        /* \"#utility.yul\":42532:42898   */\n      swap2\n      swap1\n      pop\n      jump\t// out\n        /* \"#utility.yul\":42904:43745   */\n    tag_301:\n        /* \"#utility.yul\":43174:43178   */\n      0x00\n        /* \"#utility.yul\":43212:43215   */\n      0x80\n        /* \"#utility.yul\":43201:43210   */\n      dup3\n        /* \"#utility.yul\":43197:43216   */\n      add\n        /* \"#utility.yul\":43189:43216   */\n      swap1\n      pop\n        /* \"#utility.yul\":43262:43271   */\n      dup2\n        /* \"#utility.yul\":43256:43260   */\n      dup2\n        /* \"#utility.yul\":43252:43272   */\n      sub\n        /* \"#utility.yul\":43248:43249   */\n      0x00\n        /* \"#utility.yul\":43237:43246   */\n      dup4\n        /* \"#utility.yul\":43233:43250   */\n      add\n        /* \"#utility.yul\":43226:43273   */\n      mstore\n        /* \"#utility.yul\":43290:43421   */\n      tag_1193\n        /* \"#utility.yul\":43416:43420   */\n      dup2\n        /* \"#utility.yul\":43290:43421   */\n      tag_724\n      jump\t// in\n    tag_1193:\n        /* \"#utility.yul\":43282:43421   */\n      swap1\n      pop\n        /* \"#utility.yul\":43468:43477   */\n      dup2\n        /* \"#utility.yul\":43462:43466   */\n      dup2\n        /* \"#utility.yul\":43458:43478   */\n      sub\n        /* \"#utility.yul\":43453:43455   */\n      0x20\n        /* \"#utility.yul\":43442:43451   */\n      dup4\n        /* \"#utility.yul\":43438:43456   */\n      add\n        /* \"#utility.yul\":43431:43479   */\n      mstore\n        /* \"#utility.yul\":43496:43574   */\n      tag_1194\n        /* \"#utility.yul\":43569:43573   */\n      dup2\n        /* \"#utility.yul\":43560:43566   */\n      dup7\n        /* \"#utility.yul\":43496:43574   */\n      tag_658\n      jump\t// in\n    tag_1194:\n        /* \"#utility.yul\":43488:43574   */\n      swap1\n      pop\n        /* \"#utility.yul\":43584:43656   */\n      tag_1195\n        /* \"#utility.yul\":43652:43654   */\n      0x40\n        /* \"#utility.yul\":43641:43650   */\n      dup4\n        /* \"#utility.yul\":43637:43655   */\n      add\n        /* \"#utility.yul\":43628:43634   */\n      dup6\n        /* \"#utility.yul\":43584:43656   */\n      tag_659\n      jump\t// in\n    tag_1195:\n        /* \"#utility.yul\":43666:43738   */\n      tag_1196\n        /* \"#utility.yul\":43734:43736   */\n      0x60\n        /* \"#utility.yul\":43723:43732   */\n      dup4\n        /* \"#utility.yul\":43719:43737   */\n      add\n        /* \"#utility.yul\":43710:43716   */\n      dup5\n        /* \"#utility.yul\":43666:43738   */\n      tag_643\n      jump\t// in\n    tag_1196:\n        /* \"#utility.yul\":42904:43745   */\n      swap5\n      swap4\n      pop\n      pop\n      pop\n      pop\n      jump\t// out\n        /* \"#utility.yul\":43751:43921   */\n    tag_725:\n        /* \"#utility.yul\":43891:43913   */\n      0x5769746864726177206e6f742070656e64696e67000000000000000000000000\n        /* \"#utility.yul\":43887:43888   */\n      0x00\n        /* \"#utility.yul\":43879:43885   */\n      dup3\n        /* \"#utility.yul\":43875:43889   */\n      add\n        /* \"#utility.yul\":43868:43914   */\n      mstore\n        /* \"#utility.yul\":43751:43921   */\n      pop\n      jump\t// out\n        /* \"#utility.yul\":43927:44293   */\n    tag_726:\n        /* \"#utility.yul\":44069:44072   */\n      0x00\n        /* \"#utility.yul\":44090:44157   */\n      tag_1199\n        /* \"#utility.yul\":44154:44156   */\n      0x14\n        /* \"#utility.yul\":44149:44152   */\n      dup4\n        /* \"#utility.yul\":44090:44157   */\n      tag_656\n      jump\t// in\n    tag_1199:\n        /* \"#utility.yul\":44083:44157   */\n      swap2\n      pop\n        /* \"#utility.yul\":44166:44259   */\n      tag_1200\n        /* \"#utility.yul\":44255:44258   */\n      dup3\n        /* \"#utility.yul\":44166:44259   */\n      tag_725\n      jump\t// in\n    tag_1200:\n        /* \"#utility.yul\":44284:44286   */\n      0x20\n        /* \"#utility.yul\":44279:44282   */\n      dup3\n        /* \"#utility.yul\":44275:44287   */\n      add\n        /* \"#utility.yul\":44268:44287   */\n      swap1\n      pop\n        /* \"#utility.yul\":43927:44293   */\n      swap2\n      swap1\n      pop\n      jump\t// out\n        /* \"#utility.yul\":44299:44718   */\n    tag_312:\n        /* \"#utility.yul\":44465:44469   */\n      0x00\n        /* \"#utility.yul\":44503:44505   */\n      0x20\n        /* \"#utility.yul\":44492:44501   */\n      dup3\n        /* \"#utility.yul\":44488:44506   */\n      add\n        /* \"#utility.yul\":44480:44506   */\n      swap1\n      pop\n        /* \"#utility.yul\":44552:44561   */\n      dup2\n        /* \"#utility.yul\":44546:44550   */\n      dup2\n        /* \"#utility.yul\":44542:44562   */\n      sub\n        /* \"#utility.yul\":44538:44539   */\n      0x00\n        /* \"#utility.yul\":44527:44536   */\n      dup4\n        /* \"#utility.yul\":44523:44540   */\n      add\n        /* \"#utility.yul\":44516:44563   */\n      mstore\n        /* \"#utility.yul\":44580:44711   */\n      tag_1202\n        /* \"#utility.yul\":44706:44710   */\n      dup2\n        /* \"#utility.yul\":44580:44711   */\n      tag_726\n      jump\t// in\n    tag_1202:\n        /* \"#utility.yul\":44572:44711   */\n      swap1\n      pop\n        /* \"#utility.yul\":44299:44718   */\n      swap2\n      swap1\n      pop\n      jump\t// out\n        /* \"#utility.yul\":44724:44899   */\n    tag_727:\n        /* \"#utility.yul\":44864:44891   */\n      0x576974686472617720616d6f756e7420696e636f727265637400000000000000\n        /* \"#utility.yul\":44860:44861   */\n      0x00\n        /* \"#utility.yul\":44852:44858   */\n      dup3\n        /* \"#utility.yul\":44848:44862   */\n      add\n        /* \"#utility.yul\":44841:44892   */\n      mstore\n        /* \"#utility.yul\":44724:44899   */\n      pop\n      jump\t// out\n        /* \"#utility.yul\":44905:45271   */\n    tag_728:\n        /* \"#utility.yul\":45047:45050   */\n      0x00\n        /* \"#utility.yul\":45068:45135   */\n      tag_1205\n        /* \"#utility.yul\":45132:45134   */\n      0x19\n        /* \"#utility.yul\":45127:45130   */\n      dup4\n        /* \"#utility.yul\":45068:45135   */\n      tag_656\n      jump\t// in\n    tag_1205:\n        /* \"#utility.yul\":45061:45135   */\n      swap2\n      pop\n        /* \"#utility.yul\":45144:45237   */\n      tag_1206\n        /* \"#utility.yul\":45233:45236   */\n      dup3\n        /* \"#utility.yul\":45144:45237   */\n      tag_727\n      jump\t// in\n    tag_1206:\n        /* \"#utility.yul\":45262:45264   */\n      0x20\n        /* \"#utility.yul\":45257:45260   */\n      dup3\n        /* \"#utility.yul\":45253:45265   */\n      add\n        /* \"#utility.yul\":45246:45265   */\n      swap1\n      pop\n        /* \"#utility.yul\":44905:45271   */\n      swap2\n      swap1\n      pop\n      jump\t// out\n        /* \"#utility.yul\":45277:45696   */\n    tag_315:\n        /* \"#utility.yul\":45443:45447   */\n      0x00\n        /* \"#utility.yul\":45481:45483   */\n      0x20\n        /* \"#utility.yul\":45470:45479   */\n      dup3\n        /* \"#utility.yul\":45466:45484   */\n      add\n        /* \"#utility.yul\":45458:45484   */\n      swap1\n      pop\n        /* \"#utility.yul\":45530:45539   */\n      dup2\n        /* \"#utility.yul\":45524:45528   */\n      dup2\n        /* \"#utility.yul\":45520:45540   */\n      sub\n        /* \"#utility.yul\":45516:45517   */\n      0x00\n        /* \"#utility.yul\":45505:45514   */\n      dup4\n        /* \"#utility.yul\":45501:45518   */\n      add\n        /* \"#utility.yul\":45494:45541   */\n      mstore\n        /* \"#utility.yul\":45558:45689   */\n      tag_1208\n        /* \"#utility.yul\":45684:45688   */\n      dup2\n        /* \"#utility.yul\":45558:45689   */\n      tag_728\n      jump\t// in\n    tag_1208:\n        /* \"#utility.yul\":45550:45689   */\n      swap1\n      pop\n        /* \"#utility.yul\":45277:45696   */\n      swap2\n      swap1\n      pop\n      jump\t// out\n        /* \"#utility.yul\":45702:45873   */\n    tag_729:\n        /* \"#utility.yul\":45842:45865   */\n      0x77697468647261775f636f6e6669726d5f736974650000000000000000000000\n        /* \"#utility.yul\":45838:45839   */\n      0x00\n        /* \"#utility.yul\":45830:45836   */\n      dup3\n        /* \"#utility.yul\":45826:45840   */\n      add\n        /* \"#utility.yul\":45819:45866   */\n      mstore\n        /* \"#utility.yul\":45702:45873   */\n      pop\n      jump\t// out\n        /* \"#utility.yul\":45879:46245   */\n    tag_730:\n        /* \"#utility.yul\":46021:46024   */\n      0x00\n        /* \"#utility.yul\":46042:46109   */\n      tag_1211\n        /* \"#utility.yul\":46106:46108   */\n      0x15\n        /* \"#utility.yul\":46101:46104   */\n      dup4\n        /* \"#utility.yul\":46042:46109   */\n      tag_656\n      jump\t// in\n    tag_1211:\n        /* \"#utility.yul\":46035:46109   */\n      swap2\n      pop\n        /* \"#utility.yul\":46118:46211   */\n      tag_1212\n        /* \"#utility.yul\":46207:46210   */\n      dup3\n        /* \"#utility.yul\":46118:46211   */\n      tag_729\n      jump\t// in\n    tag_1212:\n        /* \"#utility.yul\":46236:46238   */\n      0x20\n        /* \"#utility.yul\":46231:46234   */\n      dup3\n        /* \"#utility.yul\":46227:46239   */\n      add\n        /* \"#utility.yul\":46220:46239   */\n      swap1\n      pop\n        /* \"#utility.yul\":45879:46245   */\n      swap2\n      swap1\n      pop\n      jump\t// out\n        /* \"#utility.yul\":46251:47092   */\n    tag_321:\n        /* \"#utility.yul\":46521:46525   */\n      0x00\n        /* \"#utility.yul\":46559:46562   */\n      0x80\n        /* \"#utility.yul\":46548:46557   */\n      dup3\n        /* \"#utility.yul\":46544:46563   */\n      add\n        /* \"#utility.yul\":46536:46563   */\n      swap1\n      pop\n        /* \"#utility.yul\":46609:46618   */\n      dup2\n        /* \"#utility.yul\":46603:46607   */\n      dup2\n        /* \"#utility.yul\":46599:46619   */\n      sub\n        /* \"#utility.yul\":46595:46596   */\n      0x00\n        /* \"#utility.yul\":46584:46593   */\n      dup4\n        /* \"#utility.yul\":46580:46597   */\n      add\n        /* \"#utility.yul\":46573:46620   */\n      mstore\n        /* \"#utility.yul\":46637:46768   */\n      tag_1214\n        /* \"#utility.yul\":46763:46767   */\n      dup2\n        /* \"#utility.yul\":46637:46768   */\n      tag_730\n      jump\t// in\n    tag_1214:\n        /* \"#utility.yul\":46629:46768   */\n      swap1\n      pop\n        /* \"#utility.yul\":46815:46824   */\n      dup2\n        /* \"#utility.yul\":46809:46813   */\n      dup2\n        /* \"#utility.yul\":46805:46825   */\n      sub\n        /* \"#utility.yul\":46800:46802   */\n      0x20\n        /* \"#utility.yul\":46789:46798   */\n      dup4\n        /* \"#utility.yul\":46785:46803   */\n      add\n        /* \"#utility.yul\":46778:46826   */\n      mstore\n        /* \"#utility.yul\":46843:46921   */\n      tag_1215\n        /* \"#utility.yul\":46916:46920   */\n      dup2\n        /* \"#utility.yul\":46907:46913   */\n      dup7\n        /* \"#utility.yul\":46843:46921   */\n      tag_658\n      jump\t// in\n    tag_1215:\n        /* \"#utility.yul\":46835:46921   */\n      swap1\n      pop\n        /* \"#utility.yul\":46931:47003   */\n      tag_1216\n        /* \"#utility.yul\":46999:47001   */\n      0x40\n        /* \"#utility.yul\":46988:46997   */\n      dup4\n        /* \"#utility.yul\":46984:47002   */\n      add\n        /* \"#utility.yul\":46975:46981   */\n      dup6\n        /* \"#utility.yul\":46931:47003   */\n      tag_659\n      jump\t// in\n    tag_1216:\n        /* \"#utility.yul\":47013:47085   */\n      tag_1217\n        /* \"#utility.yul\":47081:47083   */\n      0x60\n        /* \"#utility.yul\":47070:47079   */\n      dup4\n        /* \"#utility.yul\":47066:47084   */\n      add\n        /* \"#utility.yul\":47057:47063   */\n      dup5\n        /* \"#utility.yul\":47013:47085   */\n      tag_643\n      jump\t// in\n    tag_1217:\n        /* \"#utility.yul\":46251:47092   */\n      swap5\n      swap4\n      pop\n      pop\n      pop\n      pop\n      jump\t// out\n        /* \"#utility.yul\":47098:47273   */\n    tag_731:\n        /* \"#utility.yul\":47238:47265   */\n      0x4163636f756e7420696e636f7272656374207374617475732e00000000000000\n        /* \"#utility.yul\":47234:47235   */\n      0x00\n        /* \"#utility.yul\":47226:47232   */\n      dup3\n        /* \"#utility.yul\":47222:47236   */\n      add\n        /* \"#utility.yul\":47215:47266   */\n      mstore\n        /* \"#utility.yul\":47098:47273   */\n      pop\n      jump\t// out\n        /* \"#utility.yul\":47279:47645   */\n    tag_732:\n        /* \"#utility.yul\":47421:47424   */\n      0x00\n        /* \"#utility.yul\":47442:47509   */\n      tag_1220\n        /* \"#utility.yul\":47506:47508   */\n      0x19\n        /* \"#utility.yul\":47501:47504   */\n      dup4\n        /* \"#utility.yul\":47442:47509   */\n      tag_656\n      jump\t// in\n    tag_1220:\n        /* \"#utility.yul\":47435:47509   */\n      swap2\n      pop\n        /* \"#utility.yul\":47518:47611   */\n      tag_1221\n        /* \"#utility.yul\":47607:47610   */\n      dup3\n        /* \"#utility.yul\":47518:47611   */\n      tag_731\n      jump\t// in\n    tag_1221:\n        /* \"#utility.yul\":47636:47638   */\n      0x20\n        /* \"#utility.yul\":47631:47634   */\n      dup3\n        /* \"#utility.yul\":47627:47639   */\n      add\n        /* \"#utility.yul\":47620:47639   */\n      swap1\n      pop\n        /* \"#utility.yul\":47279:47645   */\n      swap2\n      swap1\n      pop\n      jump\t// out\n        /* \"#utility.yul\":47651:48070   */\n    tag_332:\n        /* \"#utility.yul\":47817:47821   */\n      0x00\n        /* \"#utility.yul\":47855:47857   */\n      0x20\n        /* \"#utility.yul\":47844:47853   */\n      dup3\n        /* \"#utility.yul\":47840:47858   */\n      add\n        /* \"#utility.yul\":47832:47858   */\n      swap1\n      pop\n        /* \"#utility.yul\":47904:47913   */\n      dup2\n        /* \"#utility.yul\":47898:47902   */\n      dup2\n        /* \"#utility.yul\":47894:47914   */\n      sub\n        /* \"#utility.yul\":47890:47891   */\n      0x00\n        /* \"#utility.yul\":47879:47888   */\n      dup4\n        /* \"#utility.yul\":47875:47892   */\n      add\n        /* \"#utility.yul\":47868:47915   */\n      mstore\n        /* \"#utility.yul\":47932:48063   */\n      tag_1223\n        /* \"#utility.yul\":48058:48062   */\n      dup2\n        /* \"#utility.yul\":47932:48063   */\n      tag_732\n      jump\t// in\n    tag_1223:\n        /* \"#utility.yul\":47924:48063   */\n      swap1\n      pop\n        /* \"#utility.yul\":47651:48070   */\n      swap2\n      swap1\n      pop\n      jump\t// out\n        /* \"#utility.yul\":48076:48238   */\n    tag_733:\n        /* \"#utility.yul\":48216:48230   */\n      0x6163636f756e745f6c6f636b0000000000000000000000000000000000000000\n        /* \"#utility.yul\":48212:48213   */\n      0x00\n        /* \"#utility.yul\":48204:48210   */\n      dup3\n        /* \"#utility.yul\":48200:48214   */\n      add\n        /* \"#utility.yul\":48193:48231   */\n      mstore\n        /* \"#utility.yul\":48076:48238   */\n      pop\n      jump\t// out\n        /* \"#utility.yul\":48244:48610   */\n    tag_734:\n        /* \"#utility.yul\":48386:48389   */\n      0x00\n        /* \"#utility.yul\":48407:48474   */\n      tag_1226\n        /* \"#utility.yul\":48471:48473   */\n      0x0c\n        /* \"#utility.yul\":48466:48469   */\n      dup4\n        /* \"#utility.yul\":48407:48474   */\n      tag_656\n      jump\t// in\n    tag_1226:\n        /* \"#utility.yul\":48400:48474   */\n      swap2\n      pop\n        /* \"#utility.yul\":48483:48576   */\n      tag_1227\n        /* \"#utility.yul\":48572:48575   */\n      dup3\n        /* \"#utility.yul\":48483:48576   */\n      tag_733\n      jump\t// in\n    tag_1227:\n        /* \"#utility.yul\":48601:48603   */\n      0x20\n        /* \"#utility.yul\":48596:48599   */\n      dup3\n        /* \"#utility.yul\":48592:48604   */\n      add\n        /* \"#utility.yul\":48585:48604   */\n      swap1\n      pop\n        /* \"#utility.yul\":48244:48610   */\n      swap2\n      swap1\n      pop\n      jump\t// out\n        /* \"#utility.yul\":48616:49473   */\n    tag_337:\n        /* \"#utility.yul\":48894:48898   */\n      0x00\n        /* \"#utility.yul\":48932:48935   */\n      0x80\n        /* \"#utility.yul\":48921:48930   */\n      dup3\n        /* \"#utility.yul\":48917:48936   */\n      add\n        /* \"#utility.yul\":48909:48936   */\n      swap1\n      pop\n        /* \"#utility.yul\":48982:48991   */\n      dup2\n        /* \"#utility.yul\":48976:48980   */\n      dup2\n        /* \"#utility.yul\":48972:48992   */\n      sub\n        /* \"#utility.yul\":48968:48969   */\n      0x00\n        /* \"#utility.yul\":48957:48966   */\n      dup4\n        /* \"#utility.yul\":48953:48970   */\n      add\n        /* \"#utility.yul\":48946:48993   */\n      mstore\n        /* \"#utility.yul\":49010:49141   */\n      tag_1229\n        /* \"#utility.yul\":49136:49140   */\n      dup2\n        /* \"#utility.yul\":49010:49141   */\n      tag_734\n      jump\t// in\n    tag_1229:\n        /* \"#utility.yul\":49002:49141   */\n      swap1\n      pop\n        /* \"#utility.yul\":49188:49197   */\n      dup2\n        /* \"#utility.yul\":49182:49186   */\n      dup2\n        /* \"#utility.yul\":49178:49198   */\n      sub\n        /* \"#utility.yul\":49173:49175   */\n      0x20\n        /* \"#utility.yul\":49162:49171   */\n      dup4\n        /* \"#utility.yul\":49158:49176   */\n      add\n        /* \"#utility.yul\":49151:49199   */\n      mstore\n        /* \"#utility.yul\":49216:49294   */\n      tag_1230\n        /* \"#utility.yul\":49289:49293   */\n      dup2\n        /* \"#utility.yul\":49280:49286   */\n      dup7\n        /* \"#utility.yul\":49216:49294   */\n      tag_658\n      jump\t// in\n    tag_1230:\n        /* \"#utility.yul\":49208:49294   */\n      swap1\n      pop\n        /* \"#utility.yul\":49304:49376   */\n      tag_1231\n        /* \"#utility.yul\":49372:49374   */\n      0x40\n        /* \"#utility.yul\":49361:49370   */\n      dup4\n        /* \"#utility.yul\":49357:49375   */\n      add\n        /* \"#utility.yul\":49348:49354   */\n      dup6\n        /* \"#utility.yul\":49304:49376   */\n      tag_659\n      jump\t// in\n    tag_1231:\n        /* \"#utility.yul\":49386:49466   */\n      tag_1232\n        /* \"#utility.yul\":49462:49464   */\n      0x60\n        /* \"#utility.yul\":49451:49460   */\n      dup4\n        /* \"#utility.yul\":49447:49465   */\n      add\n        /* \"#utility.yul\":49438:49444   */\n      dup5\n        /* \"#utility.yul\":49386:49466   */\n      tag_704\n      jump\t// in\n    tag_1232:\n        /* \"#utility.yul\":48616:49473   */\n      swap5\n      swap4\n      pop\n      pop\n      pop\n      pop\n      jump\t// out\n        /* \"#utility.yul\":49479:49655   */\n    tag_735:\n        /* \"#utility.yul\":49619:49647   */\n      0x4163636f756e74206172626974726174696f6e20766f7465642e000000000000\n        /* \"#utility.yul\":49615:49616   */\n      0x00\n        /* \"#utility.yul\":49607:49613   */\n      dup3\n        /* \"#utility.yul\":49603:49617   */\n      add\n        /* \"#utility.yul\":49596:49648   */\n      mstore\n        /* \"#utility.yul\":49479:49655   */\n      pop\n      jump\t// out\n        /* \"#utility.yul\":49661:50027   */\n    tag_736:\n        /* \"#utility.yul\":49803:49806   */\n      0x00\n        /* \"#utility.yul\":49824:49891   */\n      tag_1235\n        /* \"#utility.yul\":49888:49890   */\n      0x1a\n        /* \"#utility.yul\":49883:49886   */\n      dup4\n        /* \"#utility.yul\":49824:49891   */\n      tag_656\n      jump\t// in\n    tag_1235:\n        /* \"#utility.yul\":49817:49891   */\n      swap2\n      pop\n        /* \"#utility.yul\":49900:49993   */\n      tag_1236\n        /* \"#utility.yul\":49989:49992   */\n      dup3\n        /* \"#utility.yul\":49900:49993   */\n      tag_735\n      jump\t// in\n    tag_1236:\n        /* \"#utility.yul\":50018:50020   */\n      0x20\n        /* \"#utility.yul\":50013:50016   */\n      dup3\n        /* \"#utility.yul\":50009:50021   */\n      add\n        /* \"#utility.yul\":50002:50021   */\n      swap1\n      pop\n        /* \"#utility.yul\":49661:50027   */\n      swap2\n      swap1\n      pop\n      jump\t// out\n        /* \"#utility.yul\":50033:50452   */\n    tag_342:\n        /* \"#utility.yul\":50199:50203   */\n      0x00\n        /* \"#utility.yul\":50237:50239   */\n      0x20\n        /* \"#utility.yul\":50226:50235   */\n      dup3\n        /* \"#utility.yul\":50222:50240   */\n      add\n        /* \"#utility.yul\":50214:50240   */\n      swap1\n      pop\n        /* \"#utility.yul\":50286:50295   */\n      dup2\n        /* \"#utility.yul\":50280:50284   */\n      dup2\n        /* \"#utility.yul\":50276:50296   */\n      sub\n        /* \"#utility.yul\":50272:50273   */\n      0x00\n        /* \"#utility.yul\":50261:50270   */\n      dup4\n        /* \"#utility.yul\":50257:50274   */\n      add\n        /* \"#utility.yul\":50250:50297   */\n      mstore\n        /* \"#utility.yul\":50314:50445   */\n      tag_1238\n        /* \"#utility.yul\":50440:50444   */\n      dup2\n        /* \"#utility.yul\":50314:50445   */\n      tag_736\n      jump\t// in\n    tag_1238:\n        /* \"#utility.yul\":50306:50445   */\n      swap1\n      pop\n        /* \"#utility.yul\":50033:50452   */\n      swap2\n      swap1\n      pop\n      jump\t// out\n        /* \"#utility.yul\":50458:50733   */\n    tag_349:\n        /* \"#utility.yul\":50497:50504   */\n      0x00\n        /* \"#utility.yul\":50520:50539   */\n      tag_1240\n        /* \"#utility.yul\":50537:50538   */\n      dup3\n        /* \"#utility.yul\":50520:50539   */\n      tag_660\n      jump\t// in\n    tag_1240:\n        /* \"#utility.yul\":50515:50539   */\n      swap2\n      pop\n        /* \"#utility.yul\":50553:50572   */\n      tag_1241\n        /* \"#utility.yul\":50570:50571   */\n      dup4\n        /* \"#utility.yul\":50553:50572   */\n      tag_660\n      jump\t// in\n    tag_1241:\n        /* \"#utility.yul\":50548:50572   */\n      swap3\n      pop\n        /* \"#utility.yul\":50607:50608   */\n      dup3\n        /* \"#utility.yul\":50604:50605   */\n      dup3\n        /* \"#utility.yul\":50600:50609   */\n      mul\n        /* \"#utility.yul\":50629:50658   */\n      tag_1242\n        /* \"#utility.yul\":50646:50657   */\n      dup2\n        /* \"#utility.yul\":50629:50658   */\n      tag_660\n      jump\t// in\n    tag_1242:\n        /* \"#utility.yul\":50618:50658   */\n      swap2\n      pop\n        /* \"#utility.yul\":50690:50701   */\n      dup1\n        /* \"#utility.yul\":50681:50688   */\n      dup3\n        /* \"#utility.yul\":50678:50702   */\n      eq\n        /* \"#utility.yul\":50668:50726   */\n      tag_1243\n      jumpi\n        /* \"#utility.yul\":50706:50724   */\n      tag_1244\n      tag_677\n      jump\t// in\n    tag_1244:\n        /* \"#utility.yul\":50668:50726   */\n    tag_1243:\n        /* \"#utility.yul\":50505:50733   */\n      pop\n        /* \"#utility.yul\":50458:50733   */\n      swap3\n      swap2\n      pop\n      pop\n      jump\t// out\n        /* \"#utility.yul\":50739:50919   */\n    tag_737:\n        /* \"#utility.yul\":50787:50864   */\n      0x4e487b7100000000000000000000000000000000000000000000000000000000\n        /* \"#utility.yul\":50784:50785   */\n      0x00\n        /* \"#utility.yul\":50777:50865   */\n      mstore\n        /* \"#utility.yul\":50884:50888   */\n      0x12\n        /* \"#utility.yul\":50881:50882   */\n      0x04\n        /* \"#utility.yul\":50874:50889   */\n      mstore\n        /* \"#utility.yul\":50908:50912   */\n      0x24\n        /* \"#utility.yul\":50905:50906   */\n      0x00\n        /* \"#utility.yul\":50898:50913   */\n      revert\n        /* \"#utility.yul\":50925:51107   */\n    tag_351:\n        /* \"#utility.yul\":50964:50965   */\n      0x00\n        /* \"#utility.yul\":50981:51000   */\n      tag_1247\n        /* \"#utility.yul\":50998:50999   */\n      dup3\n        /* \"#utility.yul\":50981:51000   */\n      tag_660\n      jump\t// in\n    tag_1247:\n        /* \"#utility.yul\":50976:51000   */\n      swap2\n      pop\n        /* \"#utility.yul\":51014:51033   */\n      tag_1248\n        /* \"#utility.yul\":51031:51032   */\n      dup4\n        /* \"#utility.yul\":51014:51033   */\n      tag_660\n      jump\t// in\n    tag_1248:\n        /* \"#utility.yul\":51009:51033   */\n      swap3\n      pop\n        /* \"#utility.yul\":51052:51053   */\n      dup3\n        /* \"#utility.yul\":51042:51077   */\n      tag_1249\n      jumpi\n        /* \"#utility.yul\":51057:51075   */\n      tag_1250\n      tag_737\n      jump\t// in\n    tag_1250:\n        /* \"#utility.yul\":51042:51077   */\n    tag_1249:\n        /* \"#utility.yul\":51099:51100   */\n      dup3\n        /* \"#utility.yul\":51096:51097   */\n      dup3\n        /* \"#utility.yul\":51092:51101   */\n      div\n        /* \"#utility.yul\":51087:51101   */\n      swap1\n      pop\n        /* \"#utility.yul\":50925:51107   */\n      swap3\n      swap2\n      pop\n      pop\n      jump\t// out\n        /* \"#utility.yul\":51113:51279   */\n    tag_738:\n        /* \"#utility.yul\":51253:51271   */\n      0x6172626974726174696f6e5f766f746500000000000000000000000000000000\n        /* \"#utility.yul\":51249:51250   */\n      0x00\n        /* \"#utility.yul\":51241:51247   */\n      dup3\n        /* \"#utility.yul\":51237:51251   */\n      add\n        /* \"#utility.yul\":51230:51272   */\n      mstore\n        /* \"#utility.yul\":51113:51279   */\n      pop\n      jump\t// out\n        /* \"#utility.yul\":51285:51651   */\n    tag_739:\n        /* \"#utility.yul\":51427:51430   */\n      0x00\n        /* \"#utility.yul\":51448:51515   */\n      tag_1253\n        /* \"#utility.yul\":51512:51514   */\n      0x10\n        /* \"#utility.yul\":51507:51510   */\n      dup4\n        /* \"#utility.yul\":51448:51515   */\n      tag_656\n      jump\t// in\n    tag_1253:\n        /* \"#utility.yul\":51441:51515   */\n      swap2\n      pop\n        /* \"#utility.yul\":51524:51617   */\n      tag_1254\n        /* \"#utility.yul\":51613:51616   */\n      dup3\n        /* \"#utility.yul\":51524:51617   */\n      tag_738\n      jump\t// in\n    tag_1254:\n        /* \"#utility.yul\":51642:51644   */\n      0x20\n        /* \"#utility.yul\":51637:51640   */\n      dup3\n        /* \"#utility.yul\":51633:51645   */\n      add\n        /* \"#utility.yul\":51626:51645   */\n      swap1\n      pop\n        /* \"#utility.yul\":51285:51651   */\n      swap2\n      swap1\n      pop\n      jump\t// out\n        /* \"#utility.yul\":51657:52496   */\n    tag_357:\n        /* \"#utility.yul\":51926:51930   */\n      0x00\n        /* \"#utility.yul\":51964:51967   */\n      0x80\n        /* \"#utility.yul\":51953:51962   */\n      dup3\n        /* \"#utility.yul\":51949:51968   */\n      add\n        /* \"#utility.yul\":51941:51968   */\n      swap1\n      pop\n        /* \"#utility.yul\":52014:52023   */\n      dup2\n        /* \"#utility.yul\":52008:52012   */\n      dup2\n        /* \"#utility.yul\":52004:52024   */\n      sub\n        /* \"#utility.yul\":52000:52001   */\n      0x00\n        /* \"#utility.yul\":51989:51998   */\n      dup4\n        /* \"#utility.yul\":51985:52002   */\n      add\n        /* \"#utility.yul\":51978:52025   */\n      mstore\n        /* \"#utility.yul\":52042:52173   */\n      tag_1256\n        /* \"#utility.yul\":52168:52172   */\n      dup2\n        /* \"#utility.yul\":52042:52173   */\n      tag_739\n      jump\t// in\n    tag_1256:\n        /* \"#utility.yul\":52034:52173   */\n      swap1\n      pop\n        /* \"#utility.yul\":52220:52229   */\n      dup2\n        /* \"#utility.yul\":52214:52218   */\n      dup2\n        /* \"#utility.yul\":52210:52230   */\n      sub\n        /* \"#utility.yul\":52205:52207   */\n      0x20\n        /* \"#utility.yul\":52194:52203   */\n      dup4\n        /* \"#utility.yul\":52190:52208   */\n      add\n        /* \"#utility.yul\":52183:52231   */\n      mstore\n        /* \"#utility.yul\":52248:52326   */\n      tag_1257\n        /* \"#utility.yul\":52321:52325   */\n      dup2\n        /* \"#utility.yul\":52312:52318   */\n      dup7\n        /* \"#utility.yul\":52248:52326   */\n      tag_658\n      jump\t// in\n    tag_1257:\n        /* \"#utility.yul\":52240:52326   */\n      swap1\n      pop\n        /* \"#utility.yul\":52336:52408   */\n      tag_1258\n        /* \"#utility.yul\":52404:52406   */\n      0x40\n        /* \"#utility.yul\":52393:52402   */\n      dup4\n        /* \"#utility.yul\":52389:52407   */\n      add\n        /* \"#utility.yul\":52380:52386   */\n      dup6\n        /* \"#utility.yul\":52336:52408   */\n      tag_659\n      jump\t// in\n    tag_1258:\n        /* \"#utility.yul\":52418:52489   */\n      tag_1259\n        /* \"#utility.yul\":52485:52487   */\n      0x60\n        /* \"#utility.yul\":52474:52483   */\n      dup4\n        /* \"#utility.yul\":52470:52488   */\n      add\n        /* \"#utility.yul\":52461:52467   */\n      dup5\n        /* \"#utility.yul\":52418:52489   */\n      tag_697\n      jump\t// in\n    tag_1259:\n        /* \"#utility.yul\":51657:52496   */\n      swap5\n      swap4\n      pop\n      pop\n      pop\n      pop\n      jump\t// out\n        /* \"#utility.yul\":52502:52673   */\n    tag_740:\n        /* \"#utility.yul\":52642:52665   */\n      0x5769746864726177206e6f7420616c6c6f7765642e0000000000000000000000\n        /* \"#utility.yul\":52638:52639   */\n      0x00\n        /* \"#utility.yul\":52630:52636   */\n      dup3\n        /* \"#utility.yul\":52626:52640   */\n      add\n        /* \"#utility.yul\":52619:52666   */\n      mstore\n        /* \"#utility.yul\":52502:52673   */\n      pop\n      jump\t// out\n        /* \"#utility.yul\":52679:53045   */\n    tag_741:\n        /* \"#utility.yul\":52821:52824   */\n      0x00\n        /* \"#utility.yul\":52842:52909   */\n      tag_1262\n        /* \"#utility.yul\":52906:52908   */\n      0x15\n        /* \"#utility.yul\":52901:52904   */\n      dup4\n        /* \"#utility.yul\":52842:52909   */\n      tag_656\n      jump\t// in\n    tag_1262:\n        /* \"#utility.yul\":52835:52909   */\n      swap2\n      pop\n        /* \"#utility.yul\":52918:53011   */\n      tag_1263\n        /* \"#utility.yul\":53007:53010   */\n      dup3\n        /* \"#utility.yul\":52918:53011   */\n      tag_740\n      jump\t// in\n    tag_1263:\n        /* \"#utility.yul\":53036:53038   */\n      0x20\n        /* \"#utility.yul\":53031:53034   */\n      dup3\n        /* \"#utility.yul\":53027:53039   */\n      add\n        /* \"#utility.yul\":53020:53039   */\n      swap1\n      pop\n        /* \"#utility.yul\":52679:53045   */\n      swap2\n      swap1\n      pop\n      jump\t// out\n        /* \"#utility.yul\":53051:53470   */\n    tag_390:\n        /* \"#utility.yul\":53217:53221   */\n      0x00\n        /* \"#utility.yul\":53255:53257   */\n      0x20\n        /* \"#utility.yul\":53244:53253   */\n      dup3\n        /* \"#utility.yul\":53240:53258   */\n      add\n        /* \"#utility.yul\":53232:53258   */\n      swap1\n      pop\n        /* \"#utility.yul\":53304:53313   */\n      dup2\n        /* \"#utility.yul\":53298:53302   */\n      dup2\n        /* \"#utility.yul\":53294:53314   */\n      sub\n        /* \"#utility.yul\":53290:53291   */\n      0x00\n        /* \"#utility.yul\":53279:53288   */\n      dup4\n        /* \"#utility.yul\":53275:53292   */\n      add\n        /* \"#utility.yul\":53268:53315   */\n      mstore\n        /* \"#utility.yul\":53332:53463   */\n      tag_1265\n        /* \"#utility.yul\":53458:53462   */\n      dup2\n        /* \"#utility.yul\":53332:53463   */\n      tag_741\n      jump\t// in\n    tag_1265:\n        /* \"#utility.yul\":53324:53463   */\n      swap1\n      pop\n        /* \"#utility.yul\":53051:53470   */\n      swap2\n      swap1\n      pop\n      jump\t// out\n        /* \"#utility.yul\":53476:53653   */\n    tag_742:\n        /* \"#utility.yul\":53616:53645   */\n      0x576974686472617720616c7265616479207265717565737465642e0000000000\n        /* \"#utility.yul\":53612:53613   */\n      0x00\n        /* \"#utility.yul\":53604:53610   */\n      dup3\n        /* \"#utility.yul\":53600:53614   */\n      add\n        /* \"#utility.yul\":53593:53646   */\n      mstore\n        /* \"#utility.yul\":53476:53653   */\n      pop\n      jump\t// out\n        /* \"#utility.yul\":53659:54025   */\n    tag_743:\n        /* \"#utility.yul\":53801:53804   */\n      0x00\n        /* \"#utility.yul\":53822:53889   */\n      tag_1268\n        /* \"#utility.yul\":53886:53888   */\n      0x1b\n        /* \"#utility.yul\":53881:53884   */\n      dup4\n        /* \"#utility.yul\":53822:53889   */\n      tag_656\n      jump\t// in\n    tag_1268:\n        /* \"#utility.yul\":53815:53889   */\n      swap2\n      pop\n        /* \"#utility.yul\":53898:53991   */\n      tag_1269\n        /* \"#utility.yul\":53987:53990   */\n      dup3\n        /* \"#utility.yul\":53898:53991   */\n      tag_742\n      jump\t// in\n    tag_1269:\n        /* \"#utility.yul\":54016:54018   */\n      0x20\n        /* \"#utility.yul\":54011:54014   */\n      dup3\n        /* \"#utility.yul\":54007:54019   */\n      add\n        /* \"#utility.yul\":54000:54019   */\n      swap1\n      pop\n        /* \"#utility.yul\":53659:54025   */\n      swap2\n      swap1\n      pop\n      jump\t// out\n        /* \"#utility.yul\":54031:54450   */\n    tag_399:\n        /* \"#utility.yul\":54197:54201   */\n      0x00\n        /* \"#utility.yul\":54235:54237   */\n      0x20\n        /* \"#utility.yul\":54224:54233   */\n      dup3\n        /* \"#utility.yul\":54220:54238   */\n      add\n        /* \"#utility.yul\":54212:54238   */\n      swap1\n      pop\n        /* \"#utility.yul\":54284:54293   */\n      dup2\n        /* \"#utility.yul\":54278:54282   */\n      dup2\n        /* \"#utility.yul\":54274:54294   */\n      sub\n        /* \"#utility.yul\":54270:54271   */\n      0x00\n        /* \"#utility.yul\":54259:54268   */\n      dup4\n        /* \"#utility.yul\":54255:54272   */\n      add\n        /* \"#utility.yul\":54248:54295   */\n      mstore\n        /* \"#utility.yul\":54312:54443   */\n      tag_1271\n        /* \"#utility.yul\":54438:54442   */\n      dup2\n        /* \"#utility.yul\":54312:54443   */\n      tag_743\n      jump\t// in\n    tag_1271:\n        /* \"#utility.yul\":54304:54443   */\n      swap1\n      pop\n        /* \"#utility.yul\":54031:54450   */\n      swap2\n      swap1\n      pop\n      jump\t// out\n        /* \"#utility.yul\":54456:54636   */\n    tag_744:\n        /* \"#utility.yul\":54596:54628   */\n      0x576974686472617720616d6f756e742062656c6f77206d696e696d756d2e0000\n        /* \"#utility.yul\":54592:54593   */\n      0x00\n        /* \"#utility.yul\":54584:54590   */\n      dup3\n        /* \"#utility.yul\":54580:54594   */\n      add\n        /* \"#utility.yul\":54573:54629   */\n      mstore\n        /* \"#utility.yul\":54456:54636   */\n      pop\n      jump\t// out\n        /* \"#utility.yul\":54642:55008   */\n    tag_745:\n        /* \"#utility.yul\":54784:54787   */\n      0x00\n        /* \"#utility.yul\":54805:54872   */\n      tag_1274\n        /* \"#utility.yul\":54869:54871   */\n      0x1e\n        /* \"#utility.yul\":54864:54867   */\n      dup4\n        /* \"#utility.yul\":54805:54872   */\n      tag_656\n      jump\t// in\n    tag_1274:\n        /* \"#utility.yul\":54798:54872   */\n      swap2\n      pop\n        /* \"#utility.yul\":54881:54974   */\n      tag_1275\n        /* \"#utility.yul\":54970:54973   */\n      dup3\n        /* \"#utility.yul\":54881:54974   */\n      tag_744\n      jump\t// in\n    tag_1275:\n        /* \"#utility.yul\":54999:55001   */\n      0x20\n        /* \"#utility.yul\":54994:54997   */\n      dup3\n        /* \"#utility.yul\":54990:55002   */\n      add\n        /* \"#utility.yul\":54983:55002   */\n      swap1\n      pop\n        /* \"#utility.yul\":54642:55008   */\n      swap2\n      swap1\n      pop\n      jump\t// out\n        /* \"#utility.yul\":55014:55433   */\n    tag_402:\n        /* \"#utility.yul\":55180:55184   */\n      0x00\n        /* \"#utility.yul\":55218:55220   */\n      0x20\n        /* \"#utility.yul\":55207:55216   */\n      dup3\n        /* \"#utility.yul\":55203:55221   */\n      add\n        /* \"#utility.yul\":55195:55221   */\n      swap1\n      pop\n        /* \"#utility.yul\":55267:55276   */\n      dup2\n        /* \"#utility.yul\":55261:55265   */\n      dup2\n        /* \"#utility.yul\":55257:55277   */\n      sub\n        /* \"#utility.yul\":55253:55254   */\n      0x00\n        /* \"#utility.yul\":55242:55251   */\n      dup4\n        /* \"#utility.yul\":55238:55255   */\n      add\n        /* \"#utility.yul\":55231:55278   */\n      mstore\n        /* \"#utility.yul\":55295:55426   */\n      tag_1277\n        /* \"#utility.yul\":55421:55425   */\n      dup2\n        /* \"#utility.yul\":55295:55426   */\n      tag_745\n      jump\t// in\n    tag_1277:\n        /* \"#utility.yul\":55287:55426   */\n      swap1\n      pop\n        /* \"#utility.yul\":55014:55433   */\n      swap2\n      swap1\n      pop\n      jump\t// out\n        /* \"#utility.yul\":55439:55618   */\n    tag_746:\n        /* \"#utility.yul\":55579:55610   */\n      0x576974686472617720616d6f756e742061626f7665206d6178696d756d000000\n        /* \"#utility.yul\":55575:55576   */\n      0x00\n        /* \"#utility.yul\":55567:55573   */\n      dup3\n        /* \"#utility.yul\":55563:55577   */\n      add\n        /* \"#utility.yul\":55556:55611   */\n      mstore\n        /* \"#utility.yul\":55439:55618   */\n      pop\n      jump\t// out\n        /* \"#utility.yul\":55624:55990   */\n    tag_747:\n        /* \"#utility.yul\":55766:55769   */\n      0x00\n        /* \"#utility.yul\":55787:55854   */\n      tag_1280\n        /* \"#utility.yul\":55851:55853   */\n      0x1d\n        /* \"#utility.yul\":55846:55849   */\n      dup4\n        /* \"#utility.yul\":55787:55854   */\n      tag_656\n      jump\t// in\n    tag_1280:\n        /* \"#utility.yul\":55780:55854   */\n      swap2\n      pop\n        /* \"#utility.yul\":55863:55956   */\n      tag_1281\n        /* \"#utility.yul\":55952:55955   */\n      dup3\n        /* \"#utility.yul\":55863:55956   */\n      tag_746\n      jump\t// in\n    tag_1281:\n        /* \"#utility.yul\":55981:55983   */\n      0x20\n        /* \"#utility.yul\":55976:55979   */\n      dup3\n        /* \"#utility.yul\":55972:55984   */\n      add\n        /* \"#utility.yul\":55965:55984   */\n      swap1\n      pop\n        /* \"#utility.yul\":55624:55990   */\n      swap2\n      swap1\n      pop\n      jump\t// out\n        /* \"#utility.yul\":55996:56415   */\n    tag_405:\n        /* \"#utility.yul\":56162:56166   */\n      0x00\n        /* \"#utility.yul\":56200:56202   */\n      0x20\n        /* \"#utility.yul\":56189:56198   */\n      dup3\n        /* \"#utility.yul\":56185:56203   */\n      add\n        /* \"#utility.yul\":56177:56203   */\n      swap1\n      pop\n        /* \"#utility.yul\":56249:56258   */\n      dup2\n        /* \"#utility.yul\":56243:56247   */\n      dup2\n        /* \"#utility.yul\":56239:56259   */\n      sub\n        /* \"#utility.yul\":56235:56236   */\n      0x00\n        /* \"#utility.yul\":56224:56233   */\n      dup4\n        /* \"#utility.yul\":56220:56237   */\n      add\n        /* \"#utility.yul\":56213:56260   */\n      mstore\n        /* \"#utility.yul\":56277:56408   */\n      tag_1283\n        /* \"#utility.yul\":56403:56407   */\n      dup2\n        /* \"#utility.yul\":56277:56408   */\n      tag_747\n      jump\t// in\n    tag_1283:\n        /* \"#utility.yul\":56269:56408   */\n      swap1\n      pop\n        /* \"#utility.yul\":55996:56415   */\n      swap2\n      swap1\n      pop\n      jump\t// out\n        /* \"#utility.yul\":56421:56596   */\n    tag_748:\n        /* \"#utility.yul\":56561:56588   */\n      0x5769746864726177206f76657220706f6f6c206c696d69742e00000000000000\n        /* \"#utility.yul\":56557:56558   */\n      0x00\n        /* \"#utility.yul\":56549:56555   */\n      dup3\n        /* \"#utility.yul\":56545:56559   */\n      add\n        /* \"#utility.yul\":56538:56589   */\n      mstore\n        /* \"#utility.yul\":56421:56596   */\n      pop\n      jump\t// out\n        /* \"#utility.yul\":56602:56968   */\n    tag_749:\n        /* \"#utility.yul\":56744:56747   */\n      0x00\n        /* \"#utility.yul\":56765:56832   */\n      tag_1286\n        /* \"#utility.yul\":56829:56831   */\n      0x19\n        /* \"#utility.yul\":56824:56827   */\n      dup4\n        /* \"#utility.yul\":56765:56832   */\n      tag_656\n      jump\t// in\n    tag_1286:\n        /* \"#utility.yul\":56758:56832   */\n      swap2\n      pop\n        /* \"#utility.yul\":56841:56934   */\n      tag_1287\n        /* \"#utility.yul\":56930:56933   */\n      dup3\n        /* \"#utility.yul\":56841:56934   */\n      tag_748\n      jump\t// in\n    tag_1287:\n        /* \"#utility.yul\":56959:56961   */\n      0x20\n        /* \"#utility.yul\":56954:56957   */\n      dup3\n        /* \"#utility.yul\":56950:56962   */\n      add\n        /* \"#utility.yul\":56943:56962   */\n      swap1\n      pop\n        /* \"#utility.yul\":56602:56968   */\n      swap2\n      swap1\n      pop\n      jump\t// out\n        /* \"#utility.yul\":56974:57393   */\n    tag_411:\n        /* \"#utility.yul\":57140:57144   */\n      0x00\n        /* \"#utility.yul\":57178:57180   */\n      0x20\n        /* \"#utility.yul\":57167:57176   */\n      dup3\n        /* \"#utility.yul\":57163:57181   */\n      add\n        /* \"#utility.yul\":57155:57181   */\n      swap1\n      pop\n        /* \"#utility.yul\":57227:57236   */\n      dup2\n        /* \"#utility.yul\":57221:57225   */\n      dup2\n        /* \"#utility.yul\":57217:57237   */\n      sub\n        /* \"#utility.yul\":57213:57214   */\n      0x00\n        /* \"#utility.yul\":57202:57211   */\n      dup4\n        /* \"#utility.yul\":57198:57215   */\n      add\n        /* \"#utility.yul\":57191:57238   */\n      mstore\n        /* \"#utility.yul\":57255:57386   */\n      tag_1289\n        /* \"#utility.yul\":57381:57385   */\n      dup2\n        /* \"#utility.yul\":57255:57386   */\n      tag_749\n      jump\t// in\n    tag_1289:\n        /* \"#utility.yul\":57247:57386   */\n      swap1\n      pop\n        /* \"#utility.yul\":56974:57393   */\n      swap2\n      swap1\n      pop\n      jump\t// out\n        /* \"#utility.yul\":57399:57565   */\n    tag_750:\n        /* \"#utility.yul\":57539:57557   */\n      0x77697468647261775f7265717565737400000000000000000000000000000000\n        /* \"#utility.yul\":57535:57536   */\n      0x00\n        /* \"#utility.yul\":57527:57533   */\n      dup3\n        /* \"#utility.yul\":57523:57537   */\n      add\n        /* \"#utility.yul\":57516:57558   */\n      mstore\n        /* \"#utility.yul\":57399:57565   */\n      pop\n      jump\t// out\n        /* \"#utility.yul\":57571:57937   */\n    tag_751:\n        /* \"#utility.yul\":57713:57716   */\n      0x00\n        /* \"#utility.yul\":57734:57801   */\n      tag_1292\n        /* \"#utility.yul\":57798:57800   */\n      0x10\n        /* \"#utility.yul\":57793:57796   */\n      dup4\n        /* \"#utility.yul\":57734:57801   */\n      tag_656\n      jump\t// in\n    tag_1292:\n        /* \"#utility.yul\":57727:57801   */\n      swap2\n      pop\n        /* \"#utility.yul\":57810:57903   */\n      tag_1293\n        /* \"#utility.yul\":57899:57902   */\n      dup3\n        /* \"#utility.yul\":57810:57903   */\n      tag_750\n      jump\t// in\n    tag_1293:\n        /* \"#utility.yul\":57928:57930   */\n      0x20\n        /* \"#utility.yul\":57923:57926   */\n      dup3\n        /* \"#utility.yul\":57919:57931   */\n      add\n        /* \"#utility.yul\":57912:57931   */\n      swap1\n      pop\n        /* \"#utility.yul\":57571:57937   */\n      swap2\n      swap1\n      pop\n      jump\t// out\n        /* \"#utility.yul\":57943:58784   */\n    tag_420:\n        /* \"#utility.yul\":58213:58217   */\n      0x00\n        /* \"#utility.yul\":58251:58254   */\n      0x80\n        /* \"#utility.yul\":58240:58249   */\n      dup3\n        /* \"#utility.yul\":58236:58255   */\n      add\n        /* \"#utility.yul\":58228:58255   */\n      swap1\n      pop\n        /* \"#utility.yul\":58301:58310   */\n      dup2\n        /* \"#utility.yul\":58295:58299   */\n      dup2\n        /* \"#utility.yul\":58291:58311   */\n      sub\n        /* \"#utility.yul\":58287:58288   */\n      0x00\n        /* \"#utility.yul\":58276:58285   */\n      dup4\n        /* \"#utility.yul\":58272:58289   */\n      add\n        /* \"#utility.yul\":58265:58312   */\n      mstore\n        /* \"#utility.yul\":58329:58460   */\n      tag_1295\n        /* \"#utility.yul\":58455:58459   */\n      dup2\n        /* \"#utility.yul\":58329:58460   */\n      tag_751\n      jump\t// in\n    tag_1295:\n        /* \"#utility.yul\":58321:58460   */\n      swap1\n      pop\n        /* \"#utility.yul\":58507:58516   */\n      dup2\n        /* \"#utility.yul\":58501:58505   */\n      dup2\n        /* \"#utility.yul\":58497:58517   */\n      sub\n        /* \"#utility.yul\":58492:58494   */\n      0x20\n        /* \"#utility.yul\":58481:58490   */\n      dup4\n        /* \"#utility.yul\":58477:58495   */\n      add\n        /* \"#utility.yul\":58470:58518   */\n      mstore\n        /* \"#utility.yul\":58535:58613   */\n      tag_1296\n        /* \"#utility.yul\":58608:58612   */\n      dup2\n        /* \"#utility.yul\":58599:58605   */\n      dup7\n        /* \"#utility.yul\":58535:58613   */\n      tag_658\n      jump\t// in\n    tag_1296:\n        /* \"#utility.yul\":58527:58613   */\n      swap1\n      pop\n        /* \"#utility.yul\":58623:58695   */\n      tag_1297\n        /* \"#utility.yul\":58691:58693   */\n      0x40\n        /* \"#utility.yul\":58680:58689   */\n      dup4\n        /* \"#utility.yul\":58676:58694   */\n      add\n        /* \"#utility.yul\":58667:58673   */\n      dup6\n        /* \"#utility.yul\":58623:58695   */\n      tag_659\n      jump\t// in\n    tag_1297:\n        /* \"#utility.yul\":58705:58777   */\n      tag_1298\n        /* \"#utility.yul\":58773:58775   */\n      0x60\n        /* \"#utility.yul\":58762:58771   */\n      dup4\n        /* \"#utility.yul\":58758:58776   */\n      add\n        /* \"#utility.yul\":58749:58755   */\n      dup5\n        /* \"#utility.yul\":58705:58777   */\n      tag_643\n      jump\t// in\n    tag_1298:\n        /* \"#utility.yul\":57943:58784   */\n      swap5\n      swap4\n      pop\n      pop\n      pop\n      pop\n      jump\t// out\n        /* \"#utility.yul\":58790:58961   */\n    tag_752:\n        /* \"#utility.yul\":58930:58953   */\n      0x5661756c7420616c7265616479206578697374732e0000000000000000000000\n        /* \"#utility.yul\":58926:58927   */\n      0x00\n        /* \"#utility.yul\":58918:58924   */\n      dup3\n        /* \"#utility.yul\":58914:58928   */\n      add\n        /* \"#utility.yul\":58907:58954   */\n      mstore\n        /* \"#utility.yul\":58790:58961   */\n      pop\n      jump\t// out\n        /* \"#utility.yul\":58967:59333   */\n    tag_753:\n        /* \"#utility.yul\":59109:59112   */\n      0x00\n        /* \"#utility.yul\":59130:59197   */\n      tag_1301\n        /* \"#utility.yul\":59194:59196   */\n      0x15\n        /* \"#utility.yul\":59189:59192   */\n      dup4\n        /* \"#utility.yul\":59130:59197   */\n      tag_656\n      jump\t// in\n    tag_1301:\n        /* \"#utility.yul\":59123:59197   */\n      swap2\n      pop\n        /* \"#utility.yul\":59206:59299   */\n      tag_1302\n        /* \"#utility.yul\":59295:59298   */\n      dup3\n        /* \"#utility.yul\":59206:59299   */\n      tag_752\n      jump\t// in\n    tag_1302:\n        /* \"#utility.yul\":59324:59326   */\n      0x20\n        /* \"#utility.yul\":59319:59322   */\n      dup3\n        /* \"#utility.yul\":59315:59327   */\n      add\n        /* \"#utility.yul\":59308:59327   */\n      swap1\n      pop\n        /* \"#utility.yul\":58967:59333   */\n      swap2\n      swap1\n      pop\n      jump\t// out\n        /* \"#utility.yul\":59339:59758   */\n    tag_430:\n        /* \"#utility.yul\":59505:59509   */\n      0x00\n        /* \"#utility.yul\":59543:59545   */\n      0x20\n        /* \"#utility.yul\":59532:59541   */\n      dup3\n        /* \"#utility.yul\":59528:59546   */\n      add\n        /* \"#utility.yul\":59520:59546   */\n      swap1\n      pop\n        /* \"#utility.yul\":59592:59601   */\n      dup2\n        /* \"#utility.yul\":59586:59590   */\n      dup2\n        /* \"#utility.yul\":59582:59602   */\n      sub\n        /* \"#utility.yul\":59578:59579   */\n      0x00\n        /* \"#utility.yul\":59567:59576   */\n      dup4\n        /* \"#utility.yul\":59563:59580   */\n      add\n        /* \"#utility.yul\":59556:59603   */\n      mstore\n        /* \"#utility.yul\":59620:59751   */\n      tag_1304\n        /* \"#utility.yul\":59746:59750   */\n      dup2\n        /* \"#utility.yul\":59620:59751   */\n      tag_753\n      jump\t// in\n    tag_1304:\n        /* \"#utility.yul\":59612:59751   */\n      swap1\n      pop\n        /* \"#utility.yul\":59339:59758   */\n      swap2\n      swap1\n      pop\n      jump\t// out\n        /* \"#utility.yul\":59764:59926   */\n    tag_754:\n        /* \"#utility.yul\":59904:59918   */\n      0x7661756c745f6372656174650000000000000000000000000000000000000000\n        /* \"#utility.yul\":59900:59901   */\n      0x00\n        /* \"#utility.yul\":59892:59898   */\n      dup3\n        /* \"#utility.yul\":59888:59902   */\n      add\n        /* \"#utility.yul\":59881:59919   */\n      mstore\n        /* \"#utility.yul\":59764:59926   */\n      pop\n      jump\t// out\n        /* \"#utility.yul\":59932:60298   */\n    tag_755:\n        /* \"#utility.yul\":60074:60077   */\n      0x00\n        /* \"#utility.yul\":60095:60162   */\n      tag_1307\n        /* \"#utility.yul\":60159:60161   */\n      0x0c\n        /* \"#utility.yul\":60154:60157   */\n      dup4\n        /* \"#utility.yul\":60095:60162   */\n      tag_656\n      jump\t// in\n    tag_1307:\n        /* \"#utility.yul\":60088:60162   */\n      swap2\n      pop\n        /* \"#utility.yul\":60171:60264   */\n      tag_1308\n        /* \"#utility.yul\":60260:60263   */\n      dup3\n        /* \"#utility.yul\":60171:60264   */\n      tag_754\n      jump\t// in\n    tag_1308:\n        /* \"#utility.yul\":60289:60291   */\n      0x20\n        /* \"#utility.yul\":60284:60287   */\n      dup3\n        /* \"#utility.yul\":60280:60292   */\n      add\n        /* \"#utility.yul\":60273:60292   */\n      swap1\n      pop\n        /* \"#utility.yul\":59932:60298   */\n      swap2\n      swap1\n      pop\n      jump\t// out\n        /* \"#utility.yul\":60304:61161   */\n    tag_439:\n        /* \"#utility.yul\":60582:60586   */\n      0x00\n        /* \"#utility.yul\":60620:60623   */\n      0x80\n        /* \"#utility.yul\":60609:60618   */\n      dup3\n        /* \"#utility.yul\":60605:60624   */\n      add\n        /* \"#utility.yul\":60597:60624   */\n      swap1\n      pop\n        /* \"#utility.yul\":60670:60679   */\n      dup2\n        /* \"#utility.yul\":60664:60668   */\n      dup2\n        /* \"#utility.yul\":60660:60680   */\n      sub\n        /* \"#utility.yul\":60656:60657   */\n      0x00\n        /* \"#utility.yul\":60645:60654   */\n      dup4\n        /* \"#utility.yul\":60641:60658   */\n      add\n        /* \"#utility.yul\":60634:60681   */\n      mstore\n        /* \"#utility.yul\":60698:60829   */\n      tag_1310\n        /* \"#utility.yul\":60824:60828   */\n      dup2\n        /* \"#utility.yul\":60698:60829   */\n      tag_755\n      jump\t// in\n    tag_1310:\n        /* \"#utility.yul\":60690:60829   */\n      swap1\n      pop\n        /* \"#utility.yul\":60876:60885   */\n      dup2\n        /* \"#utility.yul\":60870:60874   */\n      dup2\n        /* \"#utility.yul\":60866:60886   */\n      sub\n        /* \"#utility.yul\":60861:60863   */\n      0x20\n        /* \"#utility.yul\":60850:60859   */\n      dup4\n        /* \"#utility.yul\":60846:60864   */\n      add\n        /* \"#utility.yul\":60839:60887   */\n      mstore\n        /* \"#utility.yul\":60904:60982   */\n      tag_1311\n        /* \"#utility.yul\":60977:60981   */\n      dup2\n        /* \"#utility.yul\":60968:60974   */\n      dup7\n        /* \"#utility.yul\":60904:60982   */\n      tag_658\n      jump\t// in\n    tag_1311:\n        /* \"#utility.yul\":60896:60982   */\n      swap1\n      pop\n        /* \"#utility.yul\":60992:61064   */\n      tag_1312\n        /* \"#utility.yul\":61060:61062   */\n      0x40\n        /* \"#utility.yul\":61049:61058   */\n      dup4\n        /* \"#utility.yul\":61045:61063   */\n      add\n        /* \"#utility.yul\":61036:61042   */\n      dup6\n        /* \"#utility.yul\":60992:61064   */\n      tag_659\n      jump\t// in\n    tag_1312:\n        /* \"#utility.yul\":61074:61154   */\n      tag_1313\n        /* \"#utility.yul\":61150:61152   */\n      0x60\n        /* \"#utility.yul\":61139:61148   */\n      dup4\n        /* \"#utility.yul\":61135:61153   */\n      add\n        /* \"#utility.yul\":61126:61132   */\n      dup5\n        /* \"#utility.yul\":61074:61154   */\n      tag_704\n      jump\t// in\n    tag_1313:\n        /* \"#utility.yul\":60304:61161   */\n      swap5\n      swap4\n      pop\n      pop\n      pop\n      pop\n      jump\t// out\n        /* \"#utility.yul\":61167:61337   */\n    tag_756:\n        /* \"#utility.yul\":61307:61329   */\n      0x77697468647261775f72656a6563745f73697465000000000000000000000000\n        /* \"#utility.yul\":61303:61304   */\n      0x00\n        /* \"#utility.yul\":61295:61301   */\n      dup3\n        /* \"#utility.yul\":61291:61305   */\n      add\n        /* \"#utility.yul\":61284:61330   */\n      mstore\n        /* \"#utility.yul\":61167:61337   */\n      pop\n      jump\t// out\n        /* \"#utility.yul\":61343:61709   */\n    tag_757:\n        /* \"#utility.yul\":61485:61488   */\n      0x00\n        /* \"#utility.yul\":61506:61573   */\n      tag_1316\n        /* \"#utility.yul\":61570:61572   */\n      0x14\n        /* \"#utility.yul\":61565:61568   */\n      dup4\n        /* \"#utility.yul\":61506:61573   */\n      tag_656\n      jump\t// in\n    tag_1316:\n        /* \"#utility.yul\":61499:61573   */\n      swap2\n      pop\n        /* \"#utility.yul\":61582:61675   */\n      tag_1317\n        /* \"#utility.yul\":61671:61674   */\n      dup3\n        /* \"#utility.yul\":61582:61675   */\n      tag_756\n      jump\t// in\n    tag_1317:\n        /* \"#utility.yul\":61700:61702   */\n      0x20\n        /* \"#utility.yul\":61695:61698   */\n      dup3\n        /* \"#utility.yul\":61691:61703   */\n      add\n        /* \"#utility.yul\":61684:61703   */\n      swap1\n      pop\n        /* \"#utility.yul\":61343:61709   */\n      swap2\n      swap1\n      pop\n      jump\t// out\n        /* \"#utility.yul\":61715:62556   */\n    tag_478:\n        /* \"#utility.yul\":61985:61989   */\n      0x00\n        /* \"#utility.yul\":62023:62026   */\n      0x80\n        /* \"#utility.yul\":62012:62021   */\n      dup3\n        /* \"#utility.yul\":62008:62027   */\n      add\n        /* \"#utility.yul\":62000:62027   */\n      swap1\n      pop\n        /* \"#utility.yul\":62073:62082   */\n      dup2\n        /* \"#utility.yul\":62067:62071   */\n      dup2\n        /* \"#utility.yul\":62063:62083   */\n      sub\n        /* \"#utility.yul\":62059:62060   */\n      0x00\n        /* \"#utility.yul\":62048:62057   */\n      dup4\n        /* \"#utility.yul\":62044:62061   */\n      add\n        /* \"#utility.yul\":62037:62084   */\n      mstore\n        /* \"#utility.yul\":62101:62232   */\n      tag_1319\n        /* \"#utility.yul\":62227:62231   */\n      dup2\n        /* \"#utility.yul\":62101:62232   */\n      tag_757\n      jump\t// in\n    tag_1319:\n        /* \"#utility.yul\":62093:62232   */\n      swap1\n      pop\n        /* \"#utility.yul\":62279:62288   */\n      dup2\n        /* \"#utility.yul\":62273:62277   */\n      dup2\n        /* \"#utility.yul\":62269:62289   */\n      sub\n        /* \"#utility.yul\":62264:62266   */\n      0x20\n        /* \"#utility.yul\":62253:62262   */\n      dup4\n        /* \"#utility.yul\":62249:62267   */\n      add\n        /* \"#utility.yul\":62242:62290   */\n      mstore\n        /* \"#utility.yul\":62307:62385   */\n      tag_1320\n        /* \"#utility.yul\":62380:62384   */\n      dup2\n        /* \"#utility.yul\":62371:62377   */\n      dup7\n        /* \"#utility.yul\":62307:62385   */\n      tag_658\n      jump\t// in\n    tag_1320:\n        /* \"#utility.yul\":62299:62385   */\n      swap1\n      pop\n        /* \"#utility.yul\":62395:62467   */\n      tag_1321\n        /* \"#utility.yul\":62463:62465   */\n      0x40\n        /* \"#utility.yul\":62452:62461   */\n      dup4\n        /* \"#utility.yul\":62448:62466   */\n      add\n        /* \"#utility.yul\":62439:62445   */\n      dup6\n        /* \"#utility.yul\":62395:62467   */\n      tag_659\n      jump\t// in\n    tag_1321:\n        /* \"#utility.yul\":62477:62549   */\n      tag_1322\n        /* \"#utility.yul\":62545:62547   */\n      0x60\n        /* \"#utility.yul\":62534:62543   */\n      dup4\n        /* \"#utility.yul\":62530:62548   */\n      add\n        /* \"#utility.yul\":62521:62527   */\n      dup5\n        /* \"#utility.yul\":62477:62549   */\n      tag_643\n      jump\t// in\n    tag_1322:\n        /* \"#utility.yul\":61715:62556   */\n      swap5\n      swap4\n      pop\n      pop\n      pop\n      pop\n      jump\t// out\n        /* \"#utility.yul\":62562:62732   */\n    tag_758:\n        /* \"#utility.yul\":62702:62724   */\n      0x6163636f756e745f6f70656e5f636f6e6669726d000000000000000000000000\n        /* \"#utility.yul\":62698:62699   */\n      0x00\n        /* \"#utility.yul\":62690:62696   */\n      dup3\n        /* \"#utility.yul\":62686:62700   */\n      add\n        /* \"#utility.yul\":62679:62725   */\n      mstore\n        /* \"#utility.yul\":62562:62732   */\n      pop\n      jump\t// out\n        /* \"#utility.yul\":62738:63104   */\n    tag_759:\n        /* \"#utility.yul\":62880:62883   */\n      0x00\n        /* \"#utility.yul\":62901:62968   */\n      tag_1325\n        /* \"#utility.yul\":62965:62967   */\n      0x14\n        /* \"#utility.yul\":62960:62963   */\n      dup4\n        /* \"#utility.yul\":62901:62968   */\n      tag_656\n      jump\t// in\n    tag_1325:\n        /* \"#utility.yul\":62894:62968   */\n      swap2\n      pop\n        /* \"#utility.yul\":62977:63070   */\n      tag_1326\n        /* \"#utility.yul\":63066:63069   */\n      dup3\n        /* \"#utility.yul\":62977:63070   */\n      tag_758\n      jump\t// in\n    tag_1326:\n        /* \"#utility.yul\":63095:63097   */\n      0x20\n        /* \"#utility.yul\":63090:63093   */\n      dup3\n        /* \"#utility.yul\":63086:63098   */\n      add\n        /* \"#utility.yul\":63079:63098   */\n      swap1\n      pop\n        /* \"#utility.yul\":62738:63104   */\n      swap2\n      swap1\n      pop\n      jump\t// out\n        /* \"#utility.yul\":63110:63967   */\n    tag_492:\n        /* \"#utility.yul\":63388:63392   */\n      0x00\n        /* \"#utility.yul\":63426:63429   */\n      0x80\n        /* \"#utility.yul\":63415:63424   */\n      dup3\n        /* \"#utility.yul\":63411:63430   */\n      add\n        /* \"#utility.yul\":63403:63430   */\n      swap1\n      pop\n        /* \"#utility.yul\":63476:63485   */\n      dup2\n        /* \"#utility.yul\":63470:63474   */\n      dup2\n        /* \"#utility.yul\":63466:63486   */\n      sub\n        /* \"#utility.yul\":63462:63463   */\n      0x00\n        /* \"#utility.yul\":63451:63460   */\n      dup4\n        /* \"#utility.yul\":63447:63464   */\n      add\n        /* \"#utility.yul\":63440:63487   */\n      mstore\n        /* \"#utility.yul\":63504:63635   */\n      tag_1328\n        /* \"#utility.yul\":63630:63634   */\n      dup2\n        /* \"#utility.yul\":63504:63635   */\n      tag_759\n      jump\t// in\n    tag_1328:\n        /* \"#utility.yul\":63496:63635   */\n      swap1\n      pop\n        /* \"#utility.yul\":63682:63691   */\n      dup2\n        /* \"#utility.yul\":63676:63680   */\n      dup2\n        /* \"#utility.yul\":63672:63692   */\n      sub\n        /* \"#utility.yul\":63667:63669   */\n      0x20\n        /* \"#utility.yul\":63656:63665   */\n      dup4\n        /* \"#utility.yul\":63652:63670   */\n      add\n        /* \"#utility.yul\":63645:63693   */\n      mstore\n        /* \"#utility.yul\":63710:63788   */\n      tag_1329\n        /* \"#utility.yul\":63783:63787   */\n      dup2\n        /* \"#utility.yul\":63774:63780   */\n      dup7\n        /* \"#utility.yul\":63710:63788   */\n      tag_658\n      jump\t// in\n    tag_1329:\n        /* \"#utility.yul\":63702:63788   */\n      swap1\n      pop\n        /* \"#utility.yul\":63798:63870   */\n      tag_1330\n        /* \"#utility.yul\":63866:63868   */\n      0x40\n        /* \"#utility.yul\":63855:63864   */\n      dup4\n        /* \"#utility.yul\":63851:63869   */\n      add\n        /* \"#utility.yul\":63842:63848   */\n      dup6\n        /* \"#utility.yul\":63798:63870   */\n      tag_659\n      jump\t// in\n    tag_1330:\n        /* \"#utility.yul\":63880:63960   */\n      tag_1331\n        /* \"#utility.yul\":63956:63958   */\n      0x60\n        /* \"#utility.yul\":63945:63954   */\n      dup4\n        /* \"#utility.yul\":63941:63959   */\n      add\n        /* \"#utility.yul\":63932:63938   */\n      dup5\n        /* \"#utility.yul\":63880:63960   */\n      tag_704\n      jump\t// in\n    tag_1331:\n        /* \"#utility.yul\":63110:63967   */\n      swap5\n      swap4\n      pop\n      pop\n      pop\n      pop\n      jump\t// out\n        /* \"#utility.yul\":63973:64136   */\n    tag_760:\n        /* \"#utility.yul\":64113:64128   */\n      0x6163636f756e745f636c6f736500000000000000000000000000000000000000\n        /* \"#utility.yul\":64109:64110   */\n      0x00\n        /* \"#utility.yul\":64101:64107   */\n      dup3\n        /* \"#utility.yul\":64097:64111   */\n      add\n        /* \"#utility.yul\":64090:64129   */\n      mstore\n        /* \"#utility.yul\":63973:64136   */\n      pop\n      jump\t// out\n        /* \"#utility.yul\":64142:64508   */\n    tag_761:\n        /* \"#utility.yul\":64284:64287   */\n      0x00\n        /* \"#utility.yul\":64305:64372   */\n      tag_1334\n        /* \"#utility.yul\":64369:64371   */\n      0x0d\n        /* \"#utility.yul\":64364:64367   */\n      dup4\n        /* \"#utility.yul\":64305:64372   */\n      tag_656\n      jump\t// in\n    tag_1334:\n        /* \"#utility.yul\":64298:64372   */\n      swap2\n      pop\n        /* \"#utility.yul\":64381:64474   */\n      tag_1335\n        /* \"#utility.yul\":64470:64473   */\n      dup3\n        /* \"#utility.yul\":64381:64474   */\n      tag_760\n      jump\t// in\n    tag_1335:\n        /* \"#utility.yul\":64499:64501   */\n      0x20\n        /* \"#utility.yul\":64494:64497   */\n      dup3\n        /* \"#utility.yul\":64490:64502   */\n      add\n        /* \"#utility.yul\":64483:64502   */\n      swap1\n      pop\n        /* \"#utility.yul\":64142:64508   */\n      swap2\n      swap1\n      pop\n      jump\t// out\n        /* \"#utility.yul\":64514:65353   */\n    tag_513:\n        /* \"#utility.yul\":64783:64787   */\n      0x00\n        /* \"#utility.yul\":64821:64824   */\n      0x80\n        /* \"#utility.yul\":64810:64819   */\n      dup3\n        /* \"#utility.yul\":64806:64825   */\n      add\n        /* \"#utility.yul\":64798:64825   */\n      swap1\n      pop\n        /* \"#utility.yul\":64871:64880   */\n      dup2\n        /* \"#utility.yul\":64865:64869   */\n      dup2\n        /* \"#utility.yul\":64861:64881   */\n      sub\n        /* \"#utility.yul\":64857:64858   */\n      0x00\n        /* \"#utility.yul\":64846:64855   */\n      dup4\n        /* \"#utility.yul\":64842:64859   */\n      add\n        /* \"#utility.yul\":64835:64882   */\n      mstore\n        /* \"#utility.yul\":64899:65030   */\n      tag_1337\n        /* \"#utility.yul\":65025:65029   */\n      dup2\n        /* \"#utility.yul\":64899:65030   */\n      tag_761\n      jump\t// in\n    tag_1337:\n        /* \"#utility.yul\":64891:65030   */\n      swap1\n      pop\n        /* \"#utility.yul\":65077:65086   */\n      dup2\n        /* \"#utility.yul\":65071:65075   */\n      dup2\n        /* \"#utility.yul\":65067:65087   */\n      sub\n        /* \"#utility.yul\":65062:65064   */\n      0x20\n        /* \"#utility.yul\":65051:65060   */\n      dup4\n        /* \"#utility.yul\":65047:65065   */\n      add\n        /* \"#utility.yul\":65040:65088   */\n      mstore\n        /* \"#utility.yul\":65105:65183   */\n      tag_1338\n        /* \"#utility.yul\":65178:65182   */\n      dup2\n        /* \"#utility.yul\":65169:65175   */\n      dup7\n        /* \"#utility.yul\":65105:65183   */\n      tag_658\n      jump\t// in\n    tag_1338:\n        /* \"#utility.yul\":65097:65183   */\n      swap1\n      pop\n        /* \"#utility.yul\":65193:65265   */\n      tag_1339\n        /* \"#utility.yul\":65261:65263   */\n      0x40\n        /* \"#utility.yul\":65250:65259   */\n      dup4\n        /* \"#utility.yul\":65246:65264   */\n      add\n        /* \"#utility.yul\":65237:65243   */\n      dup6\n        /* \"#utility.yul\":65193:65265   */\n      tag_659\n      jump\t// in\n    tag_1339:\n        /* \"#utility.yul\":65275:65346   */\n      tag_1340\n        /* \"#utility.yul\":65342:65344   */\n      0x60\n        /* \"#utility.yul\":65331:65340   */\n      dup4\n        /* \"#utility.yul\":65327:65345   */\n      add\n        /* \"#utility.yul\":65318:65324   */\n      dup5\n        /* \"#utility.yul\":65275:65346   */\n      tag_697\n      jump\t// in\n    tag_1340:\n        /* \"#utility.yul\":64514:65353   */\n      swap5\n      swap4\n      pop\n      pop\n      pop\n      pop\n      jump\t// out\n        /* \"#utility.yul\":65359:65525   */\n    tag_762:\n        /* \"#utility.yul\":65499:65517   */\n      0x536974652061646d696e206f6e6c792e00000000000000000000000000000000\n        /* \"#utility.yul\":65495:65496   */\n      0x00\n        /* \"#utility.yul\":65487:65493   */\n      dup3\n        /* \"#utility.yul\":65483:65497   */\n      add\n        /* \"#utility.yul\":65476:65518   */\n      mstore\n        /* \"#utility.yul\":65359:65525   */\n      pop\n      jump\t// out\n        /* \"#utility.yul\":65531:65897   */\n    tag_763:\n        /* \"#utility.yul\":65673:65676   */\n      0x00\n        /* \"#utility.yul\":65694:65761   */\n      tag_1343\n        /* \"#utility.yul\":65758:65760   */\n      0x10\n        /* \"#utility.yul\":65753:65756   */\n      dup4\n        /* \"#utility.yul\":65694:65761   */\n      tag_656\n      jump\t// in\n    tag_1343:\n        /* \"#utility.yul\":65687:65761   */\n      swap2\n      pop\n        /* \"#utility.yul\":65770:65863   */\n      tag_1344\n        /* \"#utility.yul\":65859:65862   */\n      dup3\n        /* \"#utility.yul\":65770:65863   */\n      tag_762\n      jump\t// in\n    tag_1344:\n        /* \"#utility.yul\":65888:65890   */\n      0x20\n        /* \"#utility.yul\":65883:65886   */\n      dup3\n        /* \"#utility.yul\":65879:65891   */\n      add\n        /* \"#utility.yul\":65872:65891   */\n      swap1\n      pop\n        /* \"#utility.yul\":65531:65897   */\n      swap2\n      swap1\n      pop\n      jump\t// out\n        /* \"#utility.yul\":65903:66322   */\n    tag_520:\n        /* \"#utility.yul\":66069:66073   */\n      0x00\n        /* \"#utility.yul\":66107:66109   */\n      0x20\n        /* \"#utility.yul\":66096:66105   */\n      dup3\n        /* \"#utility.yul\":66092:66110   */\n      add\n        /* \"#utility.yul\":66084:66110   */\n      swap1\n      pop\n        /* \"#utility.yul\":66156:66165   */\n      dup2\n        /* \"#utility.yul\":66150:66154   */\n      dup2\n        /* \"#utility.yul\":66146:66166   */\n      sub\n        /* \"#utility.yul\":66142:66143   */\n      0x00\n        /* \"#utility.yul\":66131:66140   */\n      dup4\n        /* \"#utility.yul\":66127:66144   */\n      add\n        /* \"#utility.yul\":66120:66167   */\n      mstore\n        /* \"#utility.yul\":66184:66315   */\n      tag_1346\n        /* \"#utility.yul\":66310:66314   */\n      dup2\n        /* \"#utility.yul\":66184:66315   */\n      tag_763\n      jump\t// in\n    tag_1346:\n        /* \"#utility.yul\":66176:66315   */\n      swap1\n      pop\n        /* \"#utility.yul\":65903:66322   */\n      swap2\n      swap1\n      pop\n      jump\t// out\n        /* \"#utility.yul\":66328:66495   */\n    tag_764:\n        /* \"#utility.yul\":66468:66487   */\n      0x5661756c74206f776e6572206f6e6c792e000000000000000000000000000000\n        /* \"#utility.yul\":66464:66465   */\n      0x00\n        /* \"#utility.yul\":66456:66462   */\n      dup3\n        /* \"#utility.yul\":66452:66466   */\n      add\n        /* \"#utility.yul\":66445:66488   */\n      mstore\n        /* \"#utility.yul\":66328:66495   */\n      pop\n      jump\t// out\n        /* \"#utility.yul\":66501:66867   */\n    tag_765:\n        /* \"#utility.yul\":66643:66646   */\n      0x00\n        /* \"#utility.yul\":66664:66731   */\n      tag_1349\n        /* \"#utility.yul\":66728:66730   */\n      0x11\n        /* \"#utility.yul\":66723:66726   */\n      dup4\n        /* \"#utility.yul\":66664:66731   */\n      tag_656\n      jump\t// in\n    tag_1349:\n        /* \"#utility.yul\":66657:66731   */\n      swap2\n      pop\n        /* \"#utility.yul\":66740:66833   */\n      tag_1350\n        /* \"#utility.yul\":66829:66832   */\n      dup3\n        /* \"#utility.yul\":66740:66833   */\n      tag_764\n      jump\t// in\n    tag_1350:\n        /* \"#utility.yul\":66858:66860   */\n      0x20\n        /* \"#utility.yul\":66853:66856   */\n      dup3\n        /* \"#utility.yul\":66849:66861   */\n      add\n        /* \"#utility.yul\":66842:66861   */\n      swap1\n      pop\n        /* \"#utility.yul\":66501:66867   */\n      swap2\n      swap1\n      pop\n      jump\t// out\n        /* \"#utility.yul\":66873:67292   */\n    tag_525:\n        /* \"#utility.yul\":67039:67043   */\n      0x00\n        /* \"#utility.yul\":67077:67079   */\n      0x20\n        /* \"#utility.yul\":67066:67075   */\n      dup3\n        /* \"#utility.yul\":67062:67080   */\n      add\n        /* \"#utility.yul\":67054:67080   */\n      swap1\n      pop\n        /* \"#utility.yul\":67126:67135   */\n      dup2\n        /* \"#utility.yul\":67120:67124   */\n      dup2\n        /* \"#utility.yul\":67116:67136   */\n      sub\n        /* \"#utility.yul\":67112:67113   */\n      0x00\n        /* \"#utility.yul\":67101:67110   */\n      dup4\n        /* \"#utility.yul\":67097:67114   */\n      add\n        /* \"#utility.yul\":67090:67137   */\n      mstore\n        /* \"#utility.yul\":67154:67285   */\n      tag_1352\n        /* \"#utility.yul\":67280:67284   */\n      dup2\n        /* \"#utility.yul\":67154:67285   */\n      tag_765\n      jump\t// in\n    tag_1352:\n        /* \"#utility.yul\":67146:67285   */\n      swap1\n      pop\n        /* \"#utility.yul\":66873:67292   */\n      swap2\n      swap1\n      pop\n      jump\t// out\n        /* \"#utility.yul\":67298:67463   */\n    tag_766:\n        /* \"#utility.yul\":67438:67455   */\n      0x55736572206e6f7420666f756e642e0000000000000000000000000000000000\n        /* \"#utility.yul\":67434:67435   */\n      0x00\n        /* \"#utility.yul\":67426:67432   */\n      dup3\n        /* \"#utility.yul\":67422:67436   */\n      add\n        /* \"#utility.yul\":67415:67456   */\n      mstore\n        /* \"#utility.yul\":67298:67463   */\n      pop\n      jump\t// out\n        /* \"#utility.yul\":67469:67835   */\n    tag_767:\n        /* \"#utility.yul\":67611:67614   */\n      0x00\n        /* \"#utility.yul\":67632:67699   */\n      tag_1355\n        /* \"#utility.yul\":67696:67698   */\n      0x0f\n        /* \"#utility.yul\":67691:67694   */\n      dup4\n        /* \"#utility.yul\":67632:67699   */\n      tag_656\n      jump\t// in\n    tag_1355:\n        /* \"#utility.yul\":67625:67699   */\n      swap2\n      pop\n        /* \"#utility.yul\":67708:67801   */\n      tag_1356\n        /* \"#utility.yul\":67797:67800   */\n      dup3\n        /* \"#utility.yul\":67708:67801   */\n      tag_766\n      jump\t// in\n    tag_1356:\n        /* \"#utility.yul\":67826:67828   */\n      0x20\n        /* \"#utility.yul\":67821:67824   */\n      dup3\n        /* \"#utility.yul\":67817:67829   */\n      add\n        /* \"#utility.yul\":67810:67829   */\n      swap1\n      pop\n        /* \"#utility.yul\":67469:67835   */\n      swap2\n      swap1\n      pop\n      jump\t// out\n        /* \"#utility.yul\":67841:68260   */\n    tag_552:\n        /* \"#utility.yul\":68007:68011   */\n      0x00\n        /* \"#utility.yul\":68045:68047   */\n      0x20\n        /* \"#utility.yul\":68034:68043   */\n      dup3\n        /* \"#utility.yul\":68030:68048   */\n      add\n        /* \"#utility.yul\":68022:68048   */\n      swap1\n      pop\n        /* \"#utility.yul\":68094:68103   */\n      dup2\n        /* \"#utility.yul\":68088:68092   */\n      dup2\n        /* \"#utility.yul\":68084:68104   */\n      sub\n        /* \"#utility.yul\":68080:68081   */\n      0x00\n        /* \"#utility.yul\":68069:68078   */\n      dup4\n        /* \"#utility.yul\":68065:68082   */\n      add\n        /* \"#utility.yul\":68058:68105   */\n      mstore\n        /* \"#utility.yul\":68122:68253   */\n      tag_1358\n        /* \"#utility.yul\":68248:68252   */\n      dup2\n        /* \"#utility.yul\":68122:68253   */\n      tag_767\n      jump\t// in\n    tag_1358:\n        /* \"#utility.yul\":68114:68253   */\n      swap1\n      pop\n        /* \"#utility.yul\":67841:68260   */\n      swap2\n      swap1\n      pop\n      jump\t// out\n        /* \"#utility.yul\":68266:68676   */\n    tag_556:\n        /* \"#utility.yul\":68306:68313   */\n      0x00\n        /* \"#utility.yul\":68329:68349   */\n      tag_1360\n        /* \"#utility.yul\":68347:68348   */\n      dup3\n        /* \"#utility.yul\":68329:68349   */\n      tag_642\n      jump\t// in\n    tag_1360:\n        /* \"#utility.yul\":68324:68349   */\n      swap2\n      pop\n        /* \"#utility.yul\":68363:68383   */\n      tag_1361\n        /* \"#utility.yul\":68381:68382   */\n      dup4\n        /* \"#utility.yul\":68363:68383   */\n      tag_642\n      jump\t// in\n    tag_1361:\n        /* \"#utility.yul\":68358:68383   */\n      swap3\n      pop\n        /* \"#utility.yul\":68418:68419   */\n      dup3\n        /* \"#utility.yul\":68415:68416   */\n      dup3\n        /* \"#utility.yul\":68411:68420   */\n      mul\n        /* \"#utility.yul\":68440:68470   */\n      tag_1362\n        /* \"#utility.yul\":68458:68469   */\n      dup2\n        /* \"#utility.yul\":68440:68470   */\n      tag_642\n      jump\t// in\n    tag_1362:\n        /* \"#utility.yul\":68429:68470   */\n      swap2\n      pop\n        /* \"#utility.yul\":68619:68620   */\n      dup3\n        /* \"#utility.yul\":68610:68617   */\n      dup3\n        /* \"#utility.yul\":68606:68621   */\n      div\n        /* \"#utility.yul\":68603:68604   */\n      dup5\n        /* \"#utility.yul\":68600:68622   */\n      eq\n        /* \"#utility.yul\":68580:68581   */\n      dup4\n        /* \"#utility.yul\":68573:68582   */\n      iszero\n        /* \"#utility.yul\":68553:68636   */\n      or\n        /* \"#utility.yul\":68530:68669   */\n      tag_1363\n      jumpi\n        /* \"#utility.yul\":68649:68667   */\n      tag_1364\n      tag_677\n      jump\t// in\n    tag_1364:\n        /* \"#utility.yul\":68530:68669   */\n    tag_1363:\n        /* \"#utility.yul\":68314:68676   */\n      pop\n        /* \"#utility.yul\":68266:68676   */\n      swap3\n      swap2\n      pop\n      pop\n      jump\t// out\n        /* \"#utility.yul\":68682:68867   */\n    tag_558:\n        /* \"#utility.yul\":68722:68723   */\n      0x00\n        /* \"#utility.yul\":68739:68759   */\n      tag_1366\n        /* \"#utility.yul\":68757:68758   */\n      dup3\n        /* \"#utility.yul\":68739:68759   */\n      tag_642\n      jump\t// in\n    tag_1366:\n        /* \"#utility.yul\":68734:68759   */\n      swap2\n      pop\n        /* \"#utility.yul\":68773:68793   */\n      tag_1367\n        /* \"#utility.yul\":68791:68792   */\n      dup4\n        /* \"#utility.yul\":68773:68793   */\n      tag_642\n      jump\t// in\n    tag_1367:\n        /* \"#utility.yul\":68768:68793   */\n      swap3\n      pop\n        /* \"#utility.yul\":68812:68813   */\n      dup3\n        /* \"#utility.yul\":68802:68837   */\n      tag_1368\n      jumpi\n        /* \"#utility.yul\":68817:68835   */\n      tag_1369\n      tag_737\n      jump\t// in\n    tag_1369:\n        /* \"#utility.yul\":68802:68837   */\n    tag_1368:\n        /* \"#utility.yul\":68859:68860   */\n      dup3\n        /* \"#utility.yul\":68856:68857   */\n      dup3\n        /* \"#utility.yul\":68852:68861   */\n      div\n        /* \"#utility.yul\":68847:68861   */\n      swap1\n      pop\n        /* \"#utility.yul\":68682:68867   */\n      swap3\n      swap2\n      pop\n      pop\n      jump\t// out\n        /* \"#utility.yul\":68873:69205   */\n    tag_565:\n        /* \"#utility.yul\":68994:68998   */\n      0x00\n        /* \"#utility.yul\":69032:69034   */\n      0x40\n        /* \"#utility.yul\":69021:69030   */\n      dup3\n        /* \"#utility.yul\":69017:69035   */\n      add\n        /* \"#utility.yul\":69009:69035   */\n      swap1\n      pop\n        /* \"#utility.yul\":69045:69116   */\n      tag_1371\n        /* \"#utility.yul\":69113:69114   */\n      0x00\n        /* \"#utility.yul\":69102:69111   */\n      dup4\n        /* \"#utility.yul\":69098:69115   */\n      add\n        /* \"#utility.yul\":69089:69095   */\n      dup6\n        /* \"#utility.yul\":69045:69116   */\n      tag_659\n      jump\t// in\n    tag_1371:\n        /* \"#utility.yul\":69126:69198   */\n      tag_1372\n        /* \"#utility.yul\":69194:69196   */\n      0x20\n        /* \"#utility.yul\":69183:69192   */\n      dup4\n        /* \"#utility.yul\":69179:69197   */\n      add\n        /* \"#utility.yul\":69170:69176   */\n      dup5\n        /* \"#utility.yul\":69126:69198   */\n      tag_643\n      jump\t// in\n    tag_1372:\n        /* \"#utility.yul\":68873:69205   */\n      swap4\n      swap3\n      pop\n      pop\n      pop\n      jump\t// out\n        /* \"#utility.yul\":69211:69348   */\n    tag_768:\n        /* \"#utility.yul\":69265:69270   */\n      0x00\n        /* \"#utility.yul\":69296:69302   */\n      dup2\n        /* \"#utility.yul\":69290:69303   */\n      mload\n        /* \"#utility.yul\":69281:69303   */\n      swap1\n      pop\n        /* \"#utility.yul\":69312:69342   */\n      tag_1374\n        /* \"#utility.yul\":69336:69341   */\n      dup2\n        /* \"#utility.yul\":69312:69342   */\n      tag_649\n      jump\t// in\n    tag_1374:\n        /* \"#utility.yul\":69211:69348   */\n      swap3\n      swap2\n      pop\n      pop\n      jump\t// out\n        /* \"#utility.yul\":69354:69699   */\n    tag_569:\n        /* \"#utility.yul\":69421:69427   */\n      0x00\n        /* \"#utility.yul\":69470:69472   */\n      0x20\n        /* \"#utility.yul\":69458:69467   */\n      dup3\n        /* \"#utility.yul\":69449:69456   */\n      dup5\n        /* \"#utility.yul\":69445:69468   */\n      sub\n        /* \"#utility.yul\":69441:69473   */\n      slt\n        /* \"#utility.yul\":69438:69557   */\n      iszero\n      tag_1376\n      jumpi\n        /* \"#utility.yul\":69476:69555   */\n      tag_1377\n      tag_626\n      jump\t// in\n    tag_1377:\n        /* \"#utility.yul\":69438:69557   */\n    tag_1376:\n        /* \"#utility.yul\":69596:69597   */\n      0x00\n        /* \"#utility.yul\":69621:69682   */\n      tag_1378\n        /* \"#utility.yul\":69674:69681   */\n      dup5\n        /* \"#utility.yul\":69665:69671   */\n      dup3\n        /* \"#utility.yul\":69654:69663   */\n      dup6\n        /* \"#utility.yul\":69650:69672   */\n      add\n        /* \"#utility.yul\":69621:69682   */\n      tag_768\n      jump\t// in\n    tag_1378:\n        /* \"#utility.yul\":69611:69682   */\n      swap2\n      pop\n        /* \"#utility.yul\":69567:69692   */\n      pop\n        /* \"#utility.yul\":69354:69699   */\n      swap3\n      swap2\n      pop\n      pop\n      jump\t// out\n        /* \"#utility.yul\":69705:69872   */\n    tag_769:\n        /* \"#utility.yul\":69845:69864   */\n      0x77697468647261775f7472616e73666572000000000000000000000000000000\n        /* \"#utility.yul\":69841:69842   */\n      0x00\n        /* \"#utility.yul\":69833:69839   */\n      dup3\n        /* \"#utility.yul\":69829:69843   */\n      add\n        /* \"#utility.yul\":69822:69865   */\n      mstore\n        /* \"#utility.yul\":69705:69872   */\n      pop\n      jump\t// out\n        /* \"#utility.yul\":69878:70244   */\n    tag_770:\n        /* \"#utility.yul\":70020:70023   */\n      0x00\n        /* \"#utility.yul\":70041:70108   */\n      tag_1381\n        /* \"#utility.yul\":70105:70107   */\n      0x11\n        /* \"#utility.yul\":70100:70103   */\n      dup4\n        /* \"#utility.yul\":70041:70108   */\n      tag_656\n      jump\t// in\n    tag_1381:\n        /* \"#utility.yul\":70034:70108   */\n      swap2\n      pop\n        /* \"#utility.yul\":70117:70210   */\n      tag_1382\n        /* \"#utility.yul\":70206:70209   */\n      dup3\n        /* \"#utility.yul\":70117:70210   */\n      tag_769\n      jump\t// in\n    tag_1382:\n        /* \"#utility.yul\":70235:70237   */\n      0x20\n        /* \"#utility.yul\":70230:70233   */\n      dup3\n        /* \"#utility.yul\":70226:70238   */\n      add\n        /* \"#utility.yul\":70219:70238   */\n      swap1\n      pop\n        /* \"#utility.yul\":69878:70244   */\n      swap2\n      swap1\n      pop\n      jump\t// out\n        /* \"#utility.yul\":70250:71091   */\n    tag_590:\n        /* \"#utility.yul\":70520:70524   */\n      0x00\n        /* \"#utility.yul\":70558:70561   */\n      0x80\n        /* \"#utility.yul\":70547:70556   */\n      dup3\n        /* \"#utility.yul\":70543:70562   */\n      add\n        /* \"#utility.yul\":70535:70562   */\n      swap1\n      pop\n        /* \"#utility.yul\":70608:70617   */\n      dup2\n        /* \"#utility.yul\":70602:70606   */\n      dup2\n        /* \"#utility.yul\":70598:70618   */\n      sub\n        /* \"#utility.yul\":70594:70595   */\n      0x00\n        /* \"#utility.yul\":70583:70592   */\n      dup4\n        /* \"#utility.yul\":70579:70596   */\n      add\n        /* \"#utility.yul\":70572:70619   */\n      mstore\n        /* \"#utility.yul\":70636:70767   */\n      tag_1384\n        /* \"#utility.yul\":70762:70766   */\n      dup2\n        /* \"#utility.yul\":70636:70767   */\n      tag_770\n      jump\t// in\n    tag_1384:\n        /* \"#utility.yul\":70628:70767   */\n      swap1\n      pop\n        /* \"#utility.yul\":70814:70823   */\n      dup2\n        /* \"#utility.yul\":70808:70812   */\n      dup2\n        /* \"#utility.yul\":70804:70824   */\n      sub\n        /* \"#utility.yul\":70799:70801   */\n      0x20\n        /* \"#utility.yul\":70788:70797   */\n      dup4\n        /* \"#utility.yul\":70784:70802   */\n      add\n        /* \"#utility.yul\":70777:70825   */\n      mstore\n        /* \"#utility.yul\":70842:70920   */\n      tag_1385\n        /* \"#utility.yul\":70915:70919   */\n      dup2\n        /* \"#utility.yul\":70906:70912   */\n      dup7\n        /* \"#utility.yul\":70842:70920   */\n      tag_658\n      jump\t// in\n    tag_1385:\n        /* \"#utility.yul\":70834:70920   */\n      swap1\n      pop\n        /* \"#utility.yul\":70930:71002   */\n      tag_1386\n        /* \"#utility.yul\":70998:71000   */\n      0x40\n        /* \"#utility.yul\":70987:70996   */\n      dup4\n        /* \"#utility.yul\":70983:71001   */\n      add\n        /* \"#utility.yul\":70974:70980   */\n      dup6\n        /* \"#utility.yul\":70930:71002   */\n      tag_659\n      jump\t// in\n    tag_1386:\n        /* \"#utility.yul\":71012:71084   */\n      tag_1387\n        /* \"#utility.yul\":71080:71082   */\n      0x60\n        /* \"#utility.yul\":71069:71078   */\n      dup4\n        /* \"#utility.yul\":71065:71083   */\n      add\n        /* \"#utility.yul\":71056:71062   */\n      dup5\n        /* \"#utility.yul\":71012:71084   */\n      tag_643\n      jump\t// in\n    tag_1387:\n        /* \"#utility.yul\":70250:71091   */\n      swap5\n      swap4\n      pop\n      pop\n      pop\n      pop\n      jump\t// out\n        /* \"#utility.yul\":71097:71265   */\n    tag_771:\n        /* \"#utility.yul\":71237:71257   */\n      0x52657175657374206e6f7420666f756e642e0000000000000000000000000000\n        /* \"#utility.yul\":71233:71234   */\n      0x00\n        /* \"#utility.yul\":71225:71231   */\n      dup3\n        /* \"#utility.yul\":71221:71235   */\n      add\n        /* \"#utility.yul\":71214:71258   */\n      mstore\n        /* \"#utility.yul\":71097:71265   */\n      pop\n      jump\t// out\n        /* \"#utility.yul\":71271:71637   */\n    tag_772:\n        /* \"#utility.yul\":71413:71416   */\n      0x00\n        /* \"#utility.yul\":71434:71501   */\n      tag_1390\n        /* \"#utility.yul\":71498:71500   */\n      0x12\n        /* \"#utility.yul\":71493:71496   */\n      dup4\n        /* \"#utility.yul\":71434:71501   */\n      tag_656\n      jump\t// in\n    tag_1390:\n        /* \"#utility.yul\":71427:71501   */\n      swap2\n      pop\n        /* \"#utility.yul\":71510:71603   */\n      tag_1391\n        /* \"#utility.yul\":71599:71602   */\n      dup3\n        /* \"#utility.yul\":71510:71603   */\n      tag_771\n      jump\t// in\n    tag_1391:\n        /* \"#utility.yul\":71628:71630   */\n      0x20\n        /* \"#utility.yul\":71623:71626   */\n      dup3\n        /* \"#utility.yul\":71619:71631   */\n      add\n        /* \"#utility.yul\":71612:71631   */\n      swap1\n      pop\n        /* \"#utility.yul\":71271:71637   */\n      swap2\n      swap1\n      pop\n      jump\t// out\n        /* \"#utility.yul\":71643:72062   */\n    tag_606:\n        /* \"#utility.yul\":71809:71813   */\n      0x00\n        /* \"#utility.yul\":71847:71849   */\n      0x20\n        /* \"#utility.yul\":71836:71845   */\n      dup3\n        /* \"#utility.yul\":71832:71850   */\n      add\n        /* \"#utility.yul\":71824:71850   */\n      swap1\n      pop\n        /* \"#utility.yul\":71896:71905   */\n      dup2\n        /* \"#utility.yul\":71890:71894   */\n      dup2\n        /* \"#utility.yul\":71886:71906   */\n      sub\n        /* \"#utility.yul\":71882:71883   */\n      0x00\n        /* \"#utility.yul\":71871:71880   */\n      dup4\n        /* \"#utility.yul\":71867:71884   */\n      add\n        /* \"#utility.yul\":71860:71907   */\n      mstore\n        /* \"#utility.yul\":71924:72055   */\n      tag_1393\n        /* \"#utility.yul\":72050:72054   */\n      dup2\n        /* \"#utility.yul\":71924:72055   */\n      tag_772\n      jump\t// in\n    tag_1393:\n        /* \"#utility.yul\":71916:72055   */\n      swap1\n      pop\n        /* \"#utility.yul\":71643:72062   */\n      swap2\n      swap1\n      pop\n      jump\t// out\n        /* \"#utility.yul\":72068:72240   */\n    tag_773:\n        /* \"#utility.yul\":72208:72232   */\n      0x5661756c74206d616e6167656d656e74206f6e6c792e00000000000000000000\n        /* \"#utility.yul\":72204:72205   */\n      0x00\n        /* \"#utility.yul\":72196:72202   */\n      dup3\n        /* \"#utility.yul\":72192:72206   */\n      add\n        /* \"#utility.yul\":72185:72233   */\n      mstore\n        /* \"#utility.yul\":72068:72240   */\n      pop\n      jump\t// out\n        /* \"#utility.yul\":72246:72612   */\n    tag_774:\n        /* \"#utility.yul\":72388:72391   */\n      0x00\n        /* \"#utility.yul\":72409:72476   */\n      tag_1396\n        /* \"#utility.yul\":72473:72475   */\n      0x16\n        /* \"#utility.yul\":72468:72471   */\n      dup4\n        /* \"#utility.yul\":72409:72476   */\n      tag_656\n      jump\t// in\n    tag_1396:\n        /* \"#utility.yul\":72402:72476   */\n      swap2\n      pop\n        /* \"#utility.yul\":72485:72578   */\n      tag_1397\n        /* \"#utility.yul\":72574:72577   */\n      dup3\n        /* \"#utility.yul\":72485:72578   */\n      tag_773\n      jump\t// in\n    tag_1397:\n        /* \"#utility.yul\":72603:72605   */\n      0x20\n        /* \"#utility.yul\":72598:72601   */\n      dup3\n        /* \"#utility.yul\":72594:72606   */\n      add\n        /* \"#utility.yul\":72587:72606   */\n      swap1\n      pop\n        /* \"#utility.yul\":72246:72612   */\n      swap2\n      swap1\n      pop\n      jump\t// out\n        /* \"#utility.yul\":72618:73037   */\n    tag_613:\n        /* \"#utility.yul\":72784:72788   */\n      0x00\n        /* \"#utility.yul\":72822:72824   */\n      0x20\n        /* \"#utility.yul\":72811:72820   */\n      dup3\n        /* \"#utility.yul\":72807:72825   */\n      add\n        /* \"#utility.yul\":72799:72825   */\n      swap1\n      pop\n        /* \"#utility.yul\":72871:72880   */\n      dup2\n        /* \"#utility.yul\":72865:72869   */\n      dup2\n        /* \"#utility.yul\":72861:72881   */\n      sub\n        /* \"#utility.yul\":72857:72858   */\n      0x00\n        /* \"#utility.yul\":72846:72855   */\n      dup4\n        /* \"#utility.yul\":72842:72859   */\n      add\n        /* \"#utility.yul\":72835:72882   */\n      mstore\n        /* \"#utility.yul\":72899:73030   */\n      tag_1399\n        /* \"#utility.yul\":73025:73029   */\n      dup2\n        /* \"#utility.yul\":72899:73030   */\n      tag_774\n      jump\t// in\n    tag_1399:\n        /* \"#utility.yul\":72891:73030   */\n      swap1\n      pop\n        /* \"#utility.yul\":72618:73037   */\n      swap2\n      swap1\n      pop\n      jump\t// out\n\n    auxdata: 0xa26469706673582212200307046941a1da36d7e6bcaaf5059a46693e653706c8d9c8793a05f3a9b8948e64736f6c63430008140033\n}\n"
  }
}